{
	".git/MyContracts/HashHelper.sol": {
		"HashHelper": {
			"abi": [
				{
					"inputs": [
						{
							"internalType": "uint256",
							"name": "amount",
							"type": "uint256"
						},
						{
							"internalType": "string",
							"name": "secret",
							"type": "string"
						}
					],
					"name": "getPackedHash",
					"outputs": [
						{
							"internalType": "bytes32",
							"name": "",
							"type": "bytes32"
						}
					],
					"stateMutability": "pure",
					"type": "function"
				}
			],
			"devdoc": {
				"kind": "dev",
				"methods": {},
				"version": 1
			},
			"evm": {
				"assembly": "    /* \".git/MyContracts/HashHelper.sol\":61:253  contract HashHelper {... */\n  mstore(0x40, 0x80)\n  callvalue\n  dup1\n  iszero\n  tag_1\n  jumpi\n  revert(0x00, 0x00)\ntag_1:\n  pop\n  dataSize(sub_0)\n  dup1\n  dataOffset(sub_0)\n  0x00\n  codecopy\n  0x00\n  return\nstop\n\nsub_0: assembly {\n        /* \".git/MyContracts/HashHelper.sol\":61:253  contract HashHelper {... */\n      mstore(0x40, 0x80)\n      callvalue\n      dup1\n      iszero\n      tag_1\n      jumpi\n      revert(0x00, 0x00)\n    tag_1:\n      pop\n      jumpi(tag_2, lt(calldatasize, 0x04))\n      shr(0xe0, calldataload(0x00))\n      dup1\n      0x3c8c4091\n      eq\n      tag_3\n      jumpi\n    tag_2:\n      revert(0x00, 0x00)\n        /* \".git/MyContracts/HashHelper.sol\":88:250  function getPackedHash(uint256 amount, string memory secret) external pure returns (bytes32) {... */\n    tag_3:\n      tag_4\n      tag_5\n      calldatasize\n      0x04\n      tag_6\n      jump\t// in\n    tag_5:\n      tag_7\n      jump\t// in\n    tag_4:\n      mload(0x40)\n        /* \"#utility.yul\":1310:1335   */\n      swap1\n      dup2\n      mstore\n        /* \"#utility.yul\":1298:1300   */\n      0x20\n        /* \"#utility.yul\":1283:1301   */\n      add\n        /* \".git/MyContracts/HashHelper.sol\":88:250  function getPackedHash(uint256 amount, string memory secret) external pure returns (bytes32) {... */\n      mload(0x40)\n      dup1\n      swap2\n      sub\n      swap1\n      return\n    tag_7:\n        /* \".git/MyContracts/HashHelper.sol\":172:179  bytes32 */\n      0x00\n        /* \".git/MyContracts/HashHelper.sol\":226:232  amount */\n      dup3\n        /* \".git/MyContracts/HashHelper.sol\":234:240  secret */\n      dup3\n        /* \".git/MyContracts/HashHelper.sol\":209:241  abi.encodePacked(amount, secret) */\n      add(0x20, mload(0x40))\n      tag_11\n      swap3\n      swap2\n      swap1\n      tag_12\n      jump\t// in\n    tag_11:\n      mload(0x40)\n      0x20\n      dup2\n      dup4\n      sub\n      sub\n      dup2\n      mstore\n      swap1\n      0x40\n      mstore\n        /* \".git/MyContracts/HashHelper.sol\":199:242  keccak256(abi.encodePacked(amount, secret)) */\n      dup1\n      mload\n      swap1\n      0x20\n      add\n      keccak256\n        /* \".git/MyContracts/HashHelper.sol\":192:242  return keccak256(abi.encodePacked(amount, secret)) */\n      swap1\n      pop\n        /* \".git/MyContracts/HashHelper.sol\":88:250  function getPackedHash(uint256 amount, string memory secret) external pure returns (bytes32) {... */\n      swap3\n      swap2\n      pop\n      pop\n      jump\t// out\n        /* \"#utility.yul\":14:141   */\n    tag_13:\n        /* \"#utility.yul\":75:85   */\n      0x4e487b71\n        /* \"#utility.yul\":70:73   */\n      0xe0\n        /* \"#utility.yul\":66:86   */\n      shl\n        /* \"#utility.yul\":63:64   */\n      0x00\n        /* \"#utility.yul\":56:87   */\n      mstore\n        /* \"#utility.yul\":106:110   */\n      0x41\n        /* \"#utility.yul\":103:104   */\n      0x04\n        /* \"#utility.yul\":96:111   */\n      mstore\n        /* \"#utility.yul\":130:134   */\n      0x24\n        /* \"#utility.yul\":127:128   */\n      0x00\n        /* \"#utility.yul\":120:135   */\n      revert\n        /* \"#utility.yul\":146:1159   */\n    tag_6:\n        /* \"#utility.yul\":224:230   */\n      0x00\n        /* \"#utility.yul\":232:238   */\n      0x00\n        /* \"#utility.yul\":285:287   */\n      0x40\n        /* \"#utility.yul\":273:282   */\n      dup4\n        /* \"#utility.yul\":264:271   */\n      dup6\n        /* \"#utility.yul\":260:283   */\n      sub\n        /* \"#utility.yul\":256:288   */\n      slt\n        /* \"#utility.yul\":253:305   */\n      iszero\n      tag_17\n      jumpi\n        /* \"#utility.yul\":301:302   */\n      0x00\n        /* \"#utility.yul\":298:299   */\n      0x00\n        /* \"#utility.yul\":291:303   */\n      revert\n        /* \"#utility.yul\":253:305   */\n    tag_17:\n        /* \"#utility.yul\":337:346   */\n      dup3\n        /* \"#utility.yul\":324:347   */\n      calldataload\n        /* \"#utility.yul\":314:347   */\n      swap2\n      pop\n        /* \"#utility.yul\":398:400   */\n      0x20\n        /* \"#utility.yul\":387:396   */\n      dup4\n        /* \"#utility.yul\":383:401   */\n      add\n        /* \"#utility.yul\":370:402   */\n      calldataload\n        /* \"#utility.yul\":425:443   */\n      0xffffffffffffffff\n        /* \"#utility.yul\":417:423   */\n      dup2\n        /* \"#utility.yul\":414:444   */\n      gt\n        /* \"#utility.yul\":411:461   */\n      iszero\n      tag_18\n      jumpi\n        /* \"#utility.yul\":457:458   */\n      0x00\n        /* \"#utility.yul\":454:455   */\n      0x00\n        /* \"#utility.yul\":447:459   */\n      revert\n        /* \"#utility.yul\":411:461   */\n    tag_18:\n        /* \"#utility.yul\":480:502   */\n      dup4\n      add\n        /* \"#utility.yul\":533:537   */\n      0x1f\n        /* \"#utility.yul\":525:538   */\n      dup2\n      add\n        /* \"#utility.yul\":521:548   */\n      dup6\n      sgt\n        /* \"#utility.yul\":511:566   */\n      tag_19\n      jumpi\n        /* \"#utility.yul\":562:563   */\n      0x00\n        /* \"#utility.yul\":559:560   */\n      0x00\n        /* \"#utility.yul\":552:564   */\n      revert\n        /* \"#utility.yul\":511:566   */\n    tag_19:\n        /* \"#utility.yul\":602:604   */\n      dup1\n        /* \"#utility.yul\":589:605   */\n      calldataload\n        /* \"#utility.yul\":628:646   */\n      0xffffffffffffffff\n        /* \"#utility.yul\":620:626   */\n      dup2\n        /* \"#utility.yul\":617:647   */\n      gt\n        /* \"#utility.yul\":614:670   */\n      iszero\n      tag_21\n      jumpi\n        /* \"#utility.yul\":650:668   */\n      tag_21\n      tag_13\n      jump\t// in\n    tag_21:\n        /* \"#utility.yul\":699:701   */\n      0x40\n        /* \"#utility.yul\":693:702   */\n      mload\n        /* \"#utility.yul\":791:793   */\n      0x1f\n        /* \"#utility.yul\":753:770   */\n      dup3\n      add\n      not(0x1f)\n        /* \"#utility.yul\":749:780   */\n      swap1\n      dup2\n      and\n        /* \"#utility.yul\":782:784   */\n      0x3f\n        /* \"#utility.yul\":745:785   */\n      add\n        /* \"#utility.yul\":741:795   */\n      and\n        /* \"#utility.yul\":729:796   */\n      dup2\n      add\n        /* \"#utility.yul\":826:844   */\n      0xffffffffffffffff\n        /* \"#utility.yul\":811:845   */\n      dup2\n      gt\n        /* \"#utility.yul\":847:869   */\n      dup3\n      dup3\n      lt\n        /* \"#utility.yul\":808:870   */\n      or\n        /* \"#utility.yul\":805:893   */\n      iszero\n      tag_23\n      jumpi\n        /* \"#utility.yul\":873:891   */\n      tag_23\n      tag_13\n      jump\t// in\n    tag_23:\n        /* \"#utility.yul\":909:911   */\n      0x40\n        /* \"#utility.yul\":902:924   */\n      mstore\n        /* \"#utility.yul\":933:955   */\n      dup2\n      dup2\n      mstore\n        /* \"#utility.yul\":974:989   */\n      dup3\n      dup3\n      add\n        /* \"#utility.yul\":991:993   */\n      0x20\n        /* \"#utility.yul\":970:994   */\n      add\n        /* \"#utility.yul\":967:1004   */\n      dup8\n      lt\n        /* \"#utility.yul\":964:1021   */\n      iszero\n      tag_24\n      jumpi\n        /* \"#utility.yul\":1017:1018   */\n      0x00\n        /* \"#utility.yul\":1014:1015   */\n      0x00\n        /* \"#utility.yul\":1007:1019   */\n      revert\n        /* \"#utility.yul\":964:1021   */\n    tag_24:\n        /* \"#utility.yul\":1073:1079   */\n      dup2\n        /* \"#utility.yul\":1068:1070   */\n      0x20\n        /* \"#utility.yul\":1064:1066   */\n      dup5\n        /* \"#utility.yul\":1060:1071   */\n      add\n        /* \"#utility.yul\":1055:1057   */\n      0x20\n        /* \"#utility.yul\":1047:1053   */\n      dup4\n        /* \"#utility.yul\":1043:1058   */\n      add\n        /* \"#utility.yul\":1030:1080   */\n      calldatacopy\n        /* \"#utility.yul\":1126:1127   */\n      0x00\n        /* \"#utility.yul\":1121:1123   */\n      0x20\n        /* \"#utility.yul\":1112:1118   */\n      dup4\n        /* \"#utility.yul\":1104:1110   */\n      dup4\n        /* \"#utility.yul\":1100:1119   */\n      add\n        /* \"#utility.yul\":1096:1124   */\n      add\n        /* \"#utility.yul\":1089:1128   */\n      mstore\n        /* \"#utility.yul\":1147:1153   */\n      dup1\n        /* \"#utility.yul\":1137:1153   */\n      swap4\n      pop\n      pop\n      pop\n      pop\n        /* \"#utility.yul\":146:1159   */\n      swap3\n      pop\n      swap3\n      swap1\n      pop\n      jump\t// out\n        /* \"#utility.yul\":1346:1721   */\n    tag_12:\n        /* \"#utility.yul\":1535:1541   */\n      dup3\n        /* \"#utility.yul\":1530:1533   */\n      dup2\n        /* \"#utility.yul\":1523:1542   */\n      mstore\n        /* \"#utility.yul\":1505:1508   */\n      0x00\n        /* \"#utility.yul\":1571:1577   */\n      dup3\n        /* \"#utility.yul\":1565:1578   */\n      mload\n        /* \"#utility.yul\":1624:1630   */\n      dup1\n        /* \"#utility.yul\":1619:1621   */\n      0x20\n        /* \"#utility.yul\":1611:1617   */\n      dup6\n        /* \"#utility.yul\":1607:1622   */\n      add\n        /* \"#utility.yul\":1602:1604   */\n      0x20\n        /* \"#utility.yul\":1597:1600   */\n      dup6\n        /* \"#utility.yul\":1593:1605   */\n      add\n        /* \"#utility.yul\":1587:1631   */\n      mcopy\n        /* \"#utility.yul\":1695:1696   */\n      0x00\n        /* \"#utility.yul\":1654:1670   */\n      swap3\n      add\n        /* \"#utility.yul\":1672:1674   */\n      0x20\n        /* \"#utility.yul\":1650:1675   */\n      add\n        /* \"#utility.yul\":1684:1697   */\n      swap2\n      dup3\n      mstore\n      pop\n        /* \"#utility.yul\":1650:1675   */\n      swap3\n        /* \"#utility.yul\":1346:1721   */\n      swap2\n      pop\n      pop\n      jump\t// out\n\n    auxdata: 0xa26469706673582212208aee7ff4c226c71343fce65a27b48faa6768d90dceb66c40d95bbef04ef5aef264736f6c634300081f0033\n}\n",
				"bytecode": {
					"linkReferences": {},
					"object": "6080604052348015600e575f5ffd5b506101ab8061001c5f395ff3fe608060405234801561000f575f5ffd5b5060043610610029575f3560e01c80633c8c40911461002d575b5f5ffd5b61004061003b366004610098565b610052565b60405190815260200160405180910390f35b5f8282604051602001610066929190610155565b60405160208183030381529060405280519060200120905092915050565b634e487b7160e01b5f52604160045260245ffd5b5f5f604083850312156100a9575f5ffd5b82359150602083013567ffffffffffffffff8111156100c6575f5ffd5b8301601f810185136100d6575f5ffd5b803567ffffffffffffffff8111156100f0576100f0610084565b604051601f8201601f19908116603f0116810167ffffffffffffffff8111828210171561011f5761011f610084565b604052818152828201602001871015610136575f5ffd5b816020840160208301375f602083830101528093505050509250929050565b8281525f82518060208501602085015e5f9201602001918252509291505056fea26469706673582212208aee7ff4c226c71343fce65a27b48faa6768d90dceb66c40d95bbef04ef5aef264736f6c634300081f0033",
					"opcodes": "PUSH1 0x80 PUSH1 0x40 MSTORE CALLVALUE DUP1 ISZERO PUSH1 0xE JUMPI PUSH0 PUSH0 REVERT JUMPDEST POP PUSH2 0x1AB DUP1 PUSH2 0x1C PUSH0 CODECOPY PUSH0 RETURN INVALID PUSH1 0x80 PUSH1 0x40 MSTORE CALLVALUE DUP1 ISZERO PUSH2 0xF JUMPI PUSH0 PUSH0 REVERT JUMPDEST POP PUSH1 0x4 CALLDATASIZE LT PUSH2 0x29 JUMPI PUSH0 CALLDATALOAD PUSH1 0xE0 SHR DUP1 PUSH4 0x3C8C4091 EQ PUSH2 0x2D JUMPI JUMPDEST PUSH0 PUSH0 REVERT JUMPDEST PUSH2 0x40 PUSH2 0x3B CALLDATASIZE PUSH1 0x4 PUSH2 0x98 JUMP JUMPDEST PUSH2 0x52 JUMP JUMPDEST PUSH1 0x40 MLOAD SWAP1 DUP2 MSTORE PUSH1 0x20 ADD PUSH1 0x40 MLOAD DUP1 SWAP2 SUB SWAP1 RETURN JUMPDEST PUSH0 DUP3 DUP3 PUSH1 0x40 MLOAD PUSH1 0x20 ADD PUSH2 0x66 SWAP3 SWAP2 SWAP1 PUSH2 0x155 JUMP JUMPDEST PUSH1 0x40 MLOAD PUSH1 0x20 DUP2 DUP4 SUB SUB DUP2 MSTORE SWAP1 PUSH1 0x40 MSTORE DUP1 MLOAD SWAP1 PUSH1 0x20 ADD KECCAK256 SWAP1 POP SWAP3 SWAP2 POP POP JUMP JUMPDEST PUSH4 0x4E487B71 PUSH1 0xE0 SHL PUSH0 MSTORE PUSH1 0x41 PUSH1 0x4 MSTORE PUSH1 0x24 PUSH0 REVERT JUMPDEST PUSH0 PUSH0 PUSH1 0x40 DUP4 DUP6 SUB SLT ISZERO PUSH2 0xA9 JUMPI PUSH0 PUSH0 REVERT JUMPDEST DUP3 CALLDATALOAD SWAP2 POP PUSH1 0x20 DUP4 ADD CALLDATALOAD PUSH8 0xFFFFFFFFFFFFFFFF DUP2 GT ISZERO PUSH2 0xC6 JUMPI PUSH0 PUSH0 REVERT JUMPDEST DUP4 ADD PUSH1 0x1F DUP2 ADD DUP6 SGT PUSH2 0xD6 JUMPI PUSH0 PUSH0 REVERT JUMPDEST DUP1 CALLDATALOAD PUSH8 0xFFFFFFFFFFFFFFFF DUP2 GT ISZERO PUSH2 0xF0 JUMPI PUSH2 0xF0 PUSH2 0x84 JUMP JUMPDEST PUSH1 0x40 MLOAD PUSH1 0x1F DUP3 ADD PUSH1 0x1F NOT SWAP1 DUP2 AND PUSH1 0x3F ADD AND DUP2 ADD PUSH8 0xFFFFFFFFFFFFFFFF DUP2 GT DUP3 DUP3 LT OR ISZERO PUSH2 0x11F JUMPI PUSH2 0x11F PUSH2 0x84 JUMP JUMPDEST PUSH1 0x40 MSTORE DUP2 DUP2 MSTORE DUP3 DUP3 ADD PUSH1 0x20 ADD DUP8 LT ISZERO PUSH2 0x136 JUMPI PUSH0 PUSH0 REVERT JUMPDEST DUP2 PUSH1 0x20 DUP5 ADD PUSH1 0x20 DUP4 ADD CALLDATACOPY PUSH0 PUSH1 0x20 DUP4 DUP4 ADD ADD MSTORE DUP1 SWAP4 POP POP POP POP SWAP3 POP SWAP3 SWAP1 POP JUMP JUMPDEST DUP3 DUP2 MSTORE PUSH0 DUP3 MLOAD DUP1 PUSH1 0x20 DUP6 ADD PUSH1 0x20 DUP6 ADD MCOPY PUSH0 SWAP3 ADD PUSH1 0x20 ADD SWAP2 DUP3 MSTORE POP SWAP3 SWAP2 POP POP JUMP INVALID LOG2 PUSH5 0x6970667358 0x22 SLT KECCAK256 DUP11 RETURNCONTRACT 0x7F DELEGATECALL 0xC2 0x26 0xC7 SGT NUMBER 0xFC DUPN 0x5A 0x27 0xB4 DUP16 0xAA PUSH8 0x68D90DCEB66C40D9 JUMPDEST 0xBE CREATE 0x4E CREATE2 0xAE CALLCODE PUSH5 0x736F6C6343 STOP ADDMOD 0x1F STOP CALLER "
				},
				"gasEstimates": {
					"creation": {
						"codeDepositCost": "85400",
						"executionCost": "133",
						"totalCost": "85533"
					},
					"external": {
						"getPackedHash(uint256,string)": "infinite"
					}
				},
				"methodIdentifiers": {
					"getPackedHash(uint256,string)": "3c8c4091"
				}
			},
			"storageLayout": {
				"storage": [],
				"types": null
			},
			"userdoc": {
				"kind": "user",
				"methods": {},
				"version": 1
			}
		}
	}
}