{
	".git/MyContracts/StudentRecord.sol": {
		"StudentRecord": {
			"abi": [
				{
					"inputs": [],
					"stateMutability": "nonpayable",
					"type": "constructor"
				},
				{
					"anonymous": false,
					"inputs": [
						{
							"indexed": true,
							"internalType": "address",
							"name": "oldOwner",
							"type": "address"
						},
						{
							"indexed": true,
							"internalType": "address",
							"name": "newOwner",
							"type": "address"
						}
					],
					"name": "OwnershipTransferred",
					"type": "event"
				},
				{
					"anonymous": false,
					"inputs": [
						{
							"indexed": true,
							"internalType": "uint256",
							"name": "id",
							"type": "uint256"
						},
						{
							"indexed": false,
							"internalType": "string",
							"name": "name",
							"type": "string"
						},
						{
							"indexed": false,
							"internalType": "string",
							"name": "course",
							"type": "string"
						},
						{
							"indexed": false,
							"internalType": "uint256",
							"name": "marks",
							"type": "uint256"
						}
					],
					"name": "StudentAdded",
					"type": "event"
				},
				{
					"anonymous": false,
					"inputs": [
						{
							"indexed": true,
							"internalType": "uint256",
							"name": "id",
							"type": "uint256"
						},
						{
							"indexed": false,
							"internalType": "string",
							"name": "name",
							"type": "string"
						},
						{
							"indexed": false,
							"internalType": "string",
							"name": "course",
							"type": "string"
						},
						{
							"indexed": false,
							"internalType": "uint256",
							"name": "marks",
							"type": "uint256"
						}
					],
					"name": "StudentUpdated",
					"type": "event"
				},
				{
					"inputs": [
						{
							"internalType": "uint256",
							"name": "_id",
							"type": "uint256"
						},
						{
							"internalType": "string",
							"name": "_name",
							"type": "string"
						},
						{
							"internalType": "uint256",
							"name": "_age",
							"type": "uint256"
						},
						{
							"internalType": "string",
							"name": "_course",
							"type": "string"
						},
						{
							"internalType": "uint256",
							"name": "_marks",
							"type": "uint256"
						}
					],
					"name": "addStudent",
					"outputs": [],
					"stateMutability": "nonpayable",
					"type": "function"
				},
				{
					"inputs": [],
					"name": "getAllStudentIds",
					"outputs": [
						{
							"internalType": "uint256[]",
							"name": "",
							"type": "uint256[]"
						}
					],
					"stateMutability": "view",
					"type": "function"
				},
				{
					"inputs": [
						{
							"internalType": "uint256",
							"name": "_id",
							"type": "uint256"
						}
					],
					"name": "getStudent",
					"outputs": [
						{
							"internalType": "uint256",
							"name": "id",
							"type": "uint256"
						},
						{
							"internalType": "string",
							"name": "name",
							"type": "string"
						},
						{
							"internalType": "uint256",
							"name": "age",
							"type": "uint256"
						},
						{
							"internalType": "string",
							"name": "course",
							"type": "string"
						},
						{
							"internalType": "uint256",
							"name": "marks",
							"type": "uint256"
						}
					],
					"stateMutability": "view",
					"type": "function"
				},
				{
					"inputs": [],
					"name": "getStudentCount",
					"outputs": [
						{
							"internalType": "uint256",
							"name": "",
							"type": "uint256"
						}
					],
					"stateMutability": "view",
					"type": "function"
				},
				{
					"inputs": [],
					"name": "owner",
					"outputs": [
						{
							"internalType": "address",
							"name": "",
							"type": "address"
						}
					],
					"stateMutability": "view",
					"type": "function"
				},
				{
					"inputs": [
						{
							"internalType": "uint256",
							"name": "_id",
							"type": "uint256"
						}
					],
					"name": "studentExists",
					"outputs": [
						{
							"internalType": "bool",
							"name": "",
							"type": "bool"
						}
					],
					"stateMutability": "view",
					"type": "function"
				},
				{
					"inputs": [
						{
							"internalType": "address",
							"name": "_newOwner",
							"type": "address"
						}
					],
					"name": "transferOwnership",
					"outputs": [],
					"stateMutability": "nonpayable",
					"type": "function"
				},
				{
					"inputs": [
						{
							"internalType": "uint256",
							"name": "_id",
							"type": "uint256"
						},
						{
							"internalType": "string",
							"name": "_name",
							"type": "string"
						},
						{
							"internalType": "uint256",
							"name": "_age",
							"type": "uint256"
						},
						{
							"internalType": "string",
							"name": "_course",
							"type": "string"
						},
						{
							"internalType": "uint256",
							"name": "_marks",
							"type": "uint256"
						}
					],
					"name": "updateStudent",
					"outputs": [],
					"stateMutability": "nonpayable",
					"type": "function"
				}
			],
			"devdoc": {
				"details": "A smart contract for managing student academic records. Only the contract owner can add and update student records, while anyone can view student information.",
				"kind": "dev",
				"methods": {
					"addStudent(uint256,string,uint256,string,uint256)": {
						"details": "Adds a new student record. Only the owner can call this function.",
						"params": {
							"_age": "Student age",
							"_course": "Student course",
							"_id": "Student ID",
							"_marks": "Student marks",
							"_name": "Student name"
						}
					},
					"getAllStudentIds()": {
						"details": "Returns all student IDs stored in the contract."
					},
					"getStudent(uint256)": {
						"details": "Returns a student record by ID. Anyone can call this function.",
						"params": {
							"_id": "Student ID"
						}
					},
					"getStudentCount()": {
						"details": "Returns the total number of student records."
					},
					"studentExists(uint256)": {
						"details": "Checks whether a student exists.",
						"params": {
							"_id": "Student ID"
						}
					},
					"transferOwnership(address)": {
						"details": "Transfers ownership to another address. Only current owner can call this function.",
						"params": {
							"_newOwner": "Address of new owner"
						}
					},
					"updateStudent(uint256,string,uint256,string,uint256)": {
						"details": "Updates an existing student record. Only the owner can call this function.",
						"params": {
							"_age": "Updated student age",
							"_course": "Updated student course",
							"_id": "Student ID",
							"_marks": "Updated student marks",
							"_name": "Updated student name"
						}
					}
				},
				"title": "StudentRecord",
				"version": 1
			},
			"evm": {
				"assembly": "    /* \".git/MyContracts/StudentRecord.sol\":276:5046  contract StudentRecord {... */\n  mstore(0x40, 0x80)\n    /* \".git/MyContracts/StudentRecord.sol\":1095:1201  constructor() {... */\n  callvalue\n  dup1\n  iszero\n  tag_1\n  jumpi\n  revert(0x00, 0x00)\ntag_1:\n  pop\n    /* \".git/MyContracts/StudentRecord.sol\":1120:1125  owner */\n  0x00\n    /* \".git/MyContracts/StudentRecord.sol\":1120:1138  owner = msg.sender */\n  dup1\n  sload\n  not(sub(shl(0xa0, 0x01), 0x01))\n  and\n    /* \".git/MyContracts/StudentRecord.sol\":1128:1138  msg.sender */\n  caller\n    /* \".git/MyContracts/StudentRecord.sol\":1120:1138  owner = msg.sender */\n  swap1\n  dup2\n  or\n  dup3\n  sstore\n    /* \".git/MyContracts/StudentRecord.sol\":1154:1193  OwnershipTransferred(address(0), owner) */\n  mload(0x40)\n    /* \".git/MyContracts/StudentRecord.sol\":1128:1138  msg.sender */\n  swap1\n  swap2\n    /* \".git/MyContracts/StudentRecord.sol\":1120:1125  owner */\n  swap1\n    /* \".git/MyContracts/StudentRecord.sol\":1154:1193  OwnershipTransferred(address(0), owner) */\n  0x8be0079c531659141344cd1fd0a4f28419497f9722a3daafe3b4186f6b6457e0\n  swap1\n    /* \".git/MyContracts/StudentRecord.sol\":1120:1125  owner */\n  dup3\n  swap1\n    /* \".git/MyContracts/StudentRecord.sol\":1154:1193  OwnershipTransferred(address(0), owner) */\n  log3\n    /* \".git/MyContracts/StudentRecord.sol\":276:5046  contract StudentRecord {... */\n  dataSize(sub_0)\n  dup1\n  dataOffset(sub_0)\n  0x00\n  codecopy\n  0x00\n  return\nstop\n\nsub_0: assembly {\n        /* \".git/MyContracts/StudentRecord.sol\":276:5046  contract StudentRecord {... */\n      mstore(0x40, 0x80)\n      callvalue\n      dup1\n      iszero\n      tag_1\n      jumpi\n      revert(0x00, 0x00)\n    tag_1:\n      pop\n      jumpi(tag_2, lt(calldatasize, 0x04))\n      shr(0xe0, calldataload(0x00))\n      dup1\n      0x834d336c\n      gt\n      tag_11\n      jumpi\n      dup1\n      0x834d336c\n      eq\n      tag_7\n      jumpi\n      dup1\n      0x8da5cb5b\n      eq\n      tag_8\n      jumpi\n      dup1\n      0xf2fde38b\n      eq\n      tag_9\n      jumpi\n      dup1\n      0xfd38fb15\n      eq\n      tag_10\n      jumpi\n      revert(0x00, 0x00)\n    tag_11:\n      dup1\n      0x22ee6857\n      eq\n      tag_3\n      jumpi\n      dup1\n      0x2815f71c\n      eq\n      tag_4\n      jumpi\n      dup1\n      0x41e0c407\n      eq\n      tag_5\n      jumpi\n      dup1\n      0x642f9163\n      eq\n      tag_6\n      jumpi\n    tag_2:\n      revert(0x00, 0x00)\n        /* \".git/MyContracts/StudentRecord.sol\":1484:2374  function addStudent(... */\n    tag_3:\n      tag_12\n      tag_13\n      calldatasize\n      0x04\n      tag_14\n      jump\t// in\n    tag_13:\n      tag_15\n      jump\t// in\n    tag_12:\n      stop\n        /* \".git/MyContracts/StudentRecord.sol\":2698:3440  function updateStudent(... */\n    tag_4:\n      tag_12\n      tag_17\n      calldatasize\n      0x04\n      tag_14\n      jump\t// in\n    tag_17:\n      tag_18\n      jump\t// in\n        /* \".git/MyContracts/StudentRecord.sol\":4303:4403  function getStudentCount() public view returns (uint256) {... */\n    tag_5:\n        /* \".git/MyContracts/StudentRecord.sol\":4378:4388  studentIds */\n      0x02\n        /* \".git/MyContracts/StudentRecord.sol\":4378:4395  studentIds.length */\n      sload\n        /* \".git/MyContracts/StudentRecord.sol\":4303:4403  function getStudentCount() public view returns (uint256) {... */\n      mload(0x40)\n        /* \"#utility.yul\":1922:1947   */\n      swap1\n      dup2\n      mstore\n        /* \"#utility.yul\":1910:1912   */\n      0x20\n        /* \"#utility.yul\":1895:1913   */\n      add\n        /* \".git/MyContracts/StudentRecord.sol\":4303:4403  function getStudentCount() public view returns (uint256) {... */\n    tag_21:\n      mload(0x40)\n      dup1\n      swap2\n      sub\n      swap1\n      return\n        /* \".git/MyContracts/StudentRecord.sol\":3580:4008  function getStudent(uint256 _id)... */\n    tag_6:\n      tag_23\n      tag_24\n      calldatasize\n      0x04\n      tag_25\n      jump\t// in\n    tag_24:\n      tag_26\n      jump\t// in\n    tag_23:\n      mload(0x40)\n      tag_21\n      swap6\n      swap5\n      swap4\n      swap3\n      swap2\n      swap1\n      tag_28\n      jump\t// in\n        /* \".git/MyContracts/StudentRecord.sol\":4490:4593  function getAllStudentIds() public view returns (uint256[] memory) {... */\n    tag_7:\n      tag_29\n      tag_30\n      jump\t// in\n    tag_29:\n      mload(0x40)\n      tag_21\n      swap2\n      swap1\n      tag_32\n      jump\t// in\n        /* \".git/MyContracts/StudentRecord.sol\":306:326  address public owner */\n    tag_8:\n      sload(0x00)\n      tag_33\n      swap1\n      sub(shl(0xa0, 0x01), 0x01)\n      and\n      dup2\n      jump\n    tag_33:\n      mload(0x40)\n      sub(shl(0xa0, 0x01), 0x01)\n        /* \"#utility.yul\":3867:3899   */\n      swap1\n      swap2\n      and\n        /* \"#utility.yul\":3849:3900   */\n      dup2\n      mstore\n        /* \"#utility.yul\":3837:3839   */\n      0x20\n        /* \"#utility.yul\":3822:3840   */\n      add\n        /* \".git/MyContracts/StudentRecord.sol\":306:326  address public owner */\n      tag_21\n        /* \"#utility.yul\":3703:3906   */\n      jump\n        /* \".git/MyContracts/StudentRecord.sol\":4769:5043  function transferOwnership(address _newOwner) public onlyOwner {... */\n    tag_9:\n      tag_12\n      tag_38\n      calldatasize\n      0x04\n      tag_39\n      jump\t// in\n    tag_38:\n      tag_40\n      jump\t// in\n        /* \".git/MyContracts/StudentRecord.sol\":4110:4219  function studentExists(uint256 _id) public view returns (bool) {... */\n    tag_10:\n      tag_41\n      tag_42\n      calldatasize\n      0x04\n      tag_25\n      jump\t// in\n    tag_42:\n        /* \".git/MyContracts/StudentRecord.sol\":4167:4171  bool */\n      0x00\n        /* \".git/MyContracts/StudentRecord.sol\":4191:4204  students[_id] */\n      swap1\n      dup2\n      mstore\n        /* \".git/MyContracts/StudentRecord.sol\":4191:4199  students */\n      0x01\n        /* \".git/MyContracts/StudentRecord.sol\":4191:4204  students[_id] */\n      0x20\n      mstore\n      0x40\n      swap1\n      keccak256\n        /* \".git/MyContracts/StudentRecord.sol\":4191:4211  students[_id].exists */\n      0x05\n      add\n      sload\n      0xff\n      and\n      swap1\n        /* \".git/MyContracts/StudentRecord.sol\":4110:4219  function studentExists(uint256 _id) public view returns (bool) {... */\n      jump\n    tag_41:\n      mload(0x40)\n        /* \"#utility.yul\":4367:4381   */\n      swap1\n      iszero\n        /* \"#utility.yul\":4360:4382   */\n      iszero\n        /* \"#utility.yul\":4342:4383   */\n      dup2\n      mstore\n        /* \"#utility.yul\":4330:4332   */\n      0x20\n        /* \"#utility.yul\":4315:4333   */\n      add\n        /* \".git/MyContracts/StudentRecord.sol\":4110:4219  function studentExists(uint256 _id) public view returns (bool) {... */\n      tag_21\n        /* \"#utility.yul\":4202:4389   */\n      jump\n        /* \".git/MyContracts/StudentRecord.sol\":1484:2374  function addStudent(... */\n    tag_15:\n        /* \".git/MyContracts/StudentRecord.sol\":1023:1028  owner */\n      and(sub(shl(0xa0, 0x01), 0x01), sload(0x00))\n        /* \".git/MyContracts/StudentRecord.sol\":1009:1019  msg.sender */\n      caller\n        /* \".git/MyContracts/StudentRecord.sol\":1009:1028  msg.sender == owner */\n      eq\n        /* \".git/MyContracts/StudentRecord.sol\":1001:1067  require(msg.sender == owner, \"Only owner can perform this action\") */\n      tag_47\n      jumpi\n      mload(0x40)\n      shl(0xe5, 0x461bcd)\n      dup2\n      mstore\n      0x04\n      add\n      tag_48\n      swap1\n      tag_49\n      jump\t// in\n    tag_48:\n      mload(0x40)\n      dup1\n      swap2\n      sub\n      swap1\n      revert\n    tag_47:\n        /* \".git/MyContracts/StudentRecord.sol\":1680:1693  students[_id] */\n      0x00\n      dup6\n      dup2\n      mstore\n        /* \".git/MyContracts/StudentRecord.sol\":1680:1688  students */\n      0x01\n        /* \".git/MyContracts/StudentRecord.sol\":1680:1693  students[_id] */\n      0x20\n      mstore\n      0x40\n      swap1\n      keccak256\n        /* \".git/MyContracts/StudentRecord.sol\":1680:1700  students[_id].exists */\n      0x05\n      add\n      sload\n      0xff\n      and\n        /* \".git/MyContracts/StudentRecord.sol\":1679:1700  !students[_id].exists */\n      iszero\n        /* \".git/MyContracts/StudentRecord.sol\":1671:1734  require(!students[_id].exists, \"Student record already exists\") */\n      tag_51\n      jumpi\n      mload(0x40)\n      shl(0xe5, 0x461bcd)\n      dup2\n      mstore\n        /* \"#utility.yul\":4999:5001   */\n      0x20\n        /* \".git/MyContracts/StudentRecord.sol\":1671:1734  require(!students[_id].exists, \"Student record already exists\") */\n      0x04\n      dup3\n      add\n        /* \"#utility.yul\":4981:5002   */\n      mstore\n        /* \"#utility.yul\":5038:5040   */\n      0x1d\n        /* \"#utility.yul\":5018:5036   */\n      0x24\n      dup3\n      add\n        /* \"#utility.yul\":5011:5041   */\n      mstore\n        /* \"#utility.yul\":5077:5108   */\n      0x53747564656e74207265636f726420616c726561647920657869737473000000\n        /* \"#utility.yul\":5057:5075   */\n      0x44\n      dup3\n      add\n        /* \"#utility.yul\":5050:5109   */\n      mstore\n        /* \"#utility.yul\":5126:5144   */\n      0x64\n      add\n        /* \".git/MyContracts/StudentRecord.sol\":1671:1734  require(!students[_id].exists, \"Student record already exists\") */\n      tag_48\n        /* \"#utility.yul\":4797:5150   */\n      jump\n        /* \".git/MyContracts/StudentRecord.sol\":1671:1734  require(!students[_id].exists, \"Student record already exists\") */\n    tag_51:\n        /* \".git/MyContracts/StudentRecord.sol\":1759:1760  0 */\n      0x00\n        /* \".git/MyContracts/StudentRecord.sol\":1753:1756  _id */\n      dup6\n        /* \".git/MyContracts/StudentRecord.sol\":1753:1760  _id > 0 */\n      gt\n        /* \".git/MyContracts/StudentRecord.sol\":1745:1801  require(_id > 0, \"Student ID must be greater than zero\") */\n      tag_54\n      jumpi\n      mload(0x40)\n      shl(0xe5, 0x461bcd)\n      dup2\n      mstore\n        /* \"#utility.yul\":5357:5359   */\n      0x20\n        /* \".git/MyContracts/StudentRecord.sol\":1745:1801  require(_id > 0, \"Student ID must be greater than zero\") */\n      0x04\n      dup3\n      add\n        /* \"#utility.yul\":5339:5360   */\n      mstore\n        /* \"#utility.yul\":5396:5398   */\n      0x24\n        /* \"#utility.yul\":5376:5394   */\n      dup1\n      dup3\n      add\n        /* \"#utility.yul\":5369:5399   */\n      mstore\n        /* \"#utility.yul\":5435:5469   */\n      0x53747564656e74204944206d7573742062652067726561746572207468616e20\n        /* \"#utility.yul\":5415:5433   */\n      0x44\n      dup3\n      add\n        /* \"#utility.yul\":5408:5470   */\n      mstore\n      shl(0xe0, 0x7a65726f)\n        /* \"#utility.yul\":5486:5504   */\n      0x64\n      dup3\n      add\n        /* \"#utility.yul\":5479:5513   */\n      mstore\n        /* \"#utility.yul\":5530:5549   */\n      0x84\n      add\n        /* \".git/MyContracts/StudentRecord.sol\":1745:1801  require(_id > 0, \"Student ID must be greater than zero\") */\n      tag_48\n        /* \"#utility.yul\":5155:5555   */\n      jump\n        /* \".git/MyContracts/StudentRecord.sol\":1745:1801  require(_id > 0, \"Student ID must be greater than zero\") */\n    tag_54:\n        /* \".git/MyContracts/StudentRecord.sol\":1842:1843  0 */\n      0x00\n        /* \".git/MyContracts/StudentRecord.sol\":1826:1831  _name */\n      dup5\n        /* \".git/MyContracts/StudentRecord.sol\":1820:1839  bytes(_name).length */\n      mload\n        /* \".git/MyContracts/StudentRecord.sol\":1820:1843  bytes(_name).length > 0 */\n      gt\n        /* \".git/MyContracts/StudentRecord.sol\":1812:1868  require(bytes(_name).length > 0, \"Name cannot be empty\") */\n      tag_57\n      jumpi\n      mload(0x40)\n      shl(0xe5, 0x461bcd)\n      dup2\n      mstore\n        /* \"#utility.yul\":5762:5764   */\n      0x20\n        /* \".git/MyContracts/StudentRecord.sol\":1812:1868  require(bytes(_name).length > 0, \"Name cannot be empty\") */\n      0x04\n      dup3\n      add\n        /* \"#utility.yul\":5744:5765   */\n      mstore\n        /* \"#utility.yul\":5801:5803   */\n      0x14\n        /* \"#utility.yul\":5781:5799   */\n      0x24\n      dup3\n      add\n        /* \"#utility.yul\":5774:5804   */\n      mstore\n      shl(0x60, 0x4e616d652063616e6e6f7420626520656d707479)\n        /* \"#utility.yul\":5820:5838   */\n      0x44\n      dup3\n      add\n        /* \"#utility.yul\":5813:5863   */\n      mstore\n        /* \"#utility.yul\":5880:5898   */\n      0x64\n      add\n        /* \".git/MyContracts/StudentRecord.sol\":1812:1868  require(bytes(_name).length > 0, \"Name cannot be empty\") */\n      tag_48\n        /* \"#utility.yul\":5560:5904   */\n      jump\n        /* \".git/MyContracts/StudentRecord.sol\":1812:1868  require(bytes(_name).length > 0, \"Name cannot be empty\") */\n    tag_57:\n        /* \".git/MyContracts/StudentRecord.sol\":1894:1895  0 */\n      0x00\n        /* \".git/MyContracts/StudentRecord.sol\":1887:1891  _age */\n      dup4\n        /* \".git/MyContracts/StudentRecord.sol\":1887:1895  _age > 0 */\n      gt\n        /* \".git/MyContracts/StudentRecord.sol\":1879:1929  require(_age > 0, \"Age must be greater than zero\") */\n      tag_60\n      jumpi\n      mload(0x40)\n      shl(0xe5, 0x461bcd)\n      dup2\n      mstore\n        /* \"#utility.yul\":6111:6113   */\n      0x20\n        /* \".git/MyContracts/StudentRecord.sol\":1879:1929  require(_age > 0, \"Age must be greater than zero\") */\n      0x04\n      dup3\n      add\n        /* \"#utility.yul\":6093:6114   */\n      mstore\n        /* \"#utility.yul\":6150:6152   */\n      0x1d\n        /* \"#utility.yul\":6130:6148   */\n      0x24\n      dup3\n      add\n        /* \"#utility.yul\":6123:6153   */\n      mstore\n        /* \"#utility.yul\":6189:6220   */\n      0x416765206d7573742062652067726561746572207468616e207a65726f000000\n        /* \"#utility.yul\":6169:6187   */\n      0x44\n      dup3\n      add\n        /* \"#utility.yul\":6162:6221   */\n      mstore\n        /* \"#utility.yul\":6238:6256   */\n      0x64\n      add\n        /* \".git/MyContracts/StudentRecord.sol\":1879:1929  require(_age > 0, \"Age must be greater than zero\") */\n      tag_48\n        /* \"#utility.yul\":5909:6262   */\n      jump\n        /* \".git/MyContracts/StudentRecord.sol\":1879:1929  require(_age > 0, \"Age must be greater than zero\") */\n    tag_60:\n        /* \".git/MyContracts/StudentRecord.sol\":1972:1973  0 */\n      0x00\n        /* \".git/MyContracts/StudentRecord.sol\":1954:1961  _course */\n      dup3\n        /* \".git/MyContracts/StudentRecord.sol\":1948:1969  bytes(_course).length */\n      mload\n        /* \".git/MyContracts/StudentRecord.sol\":1948:1973  bytes(_course).length > 0 */\n      gt\n        /* \".git/MyContracts/StudentRecord.sol\":1940:2000  require(bytes(_course).length > 0, \"Course cannot be empty\") */\n      tag_63\n      jumpi\n      mload(0x40)\n      shl(0xe5, 0x461bcd)\n      dup2\n      mstore\n        /* \"#utility.yul\":6469:6471   */\n      0x20\n        /* \".git/MyContracts/StudentRecord.sol\":1940:2000  require(bytes(_course).length > 0, \"Course cannot be empty\") */\n      0x04\n      dup3\n      add\n        /* \"#utility.yul\":6451:6472   */\n      mstore\n        /* \"#utility.yul\":6508:6510   */\n      0x16\n        /* \"#utility.yul\":6488:6506   */\n      0x24\n      dup3\n      add\n        /* \"#utility.yul\":6481:6511   */\n      mstore\n      shl(0x50, 0x436f757273652063616e6e6f7420626520656d707479)\n        /* \"#utility.yul\":6527:6545   */\n      0x44\n      dup3\n      add\n        /* \"#utility.yul\":6520:6572   */\n      mstore\n        /* \"#utility.yul\":6589:6607   */\n      0x64\n      add\n        /* \".git/MyContracts/StudentRecord.sol\":1940:2000  require(bytes(_course).length > 0, \"Course cannot be empty\") */\n      tag_48\n        /* \"#utility.yul\":6267:6613   */\n      jump\n        /* \".git/MyContracts/StudentRecord.sol\":1940:2000  require(bytes(_course).length > 0, \"Course cannot be empty\") */\n    tag_63:\n        /* \".git/MyContracts/StudentRecord.sol\":2029:2032  100 */\n      0x64\n        /* \".git/MyContracts/StudentRecord.sol\":2019:2025  _marks */\n      dup2\n        /* \".git/MyContracts/StudentRecord.sol\":2019:2032  _marks <= 100 */\n      gt\n      iszero\n        /* \".git/MyContracts/StudentRecord.sol\":2011:2068  require(_marks <= 100, \"Marks must be between 0 and 100\") */\n      tag_66\n      jumpi\n      mload(0x40)\n      shl(0xe5, 0x461bcd)\n      dup2\n      mstore\n        /* \"#utility.yul\":6820:6822   */\n      0x20\n        /* \".git/MyContracts/StudentRecord.sol\":2011:2068  require(_marks <= 100, \"Marks must be between 0 and 100\") */\n      0x04\n      dup3\n      add\n        /* \"#utility.yul\":6802:6823   */\n      mstore\n        /* \"#utility.yul\":6859:6861   */\n      0x1f\n        /* \"#utility.yul\":6839:6857   */\n      0x24\n      dup3\n      add\n        /* \"#utility.yul\":6832:6862   */\n      mstore\n        /* \"#utility.yul\":6898:6931   */\n      0x4d61726b73206d757374206265206265747765656e203020616e642031303000\n        /* \"#utility.yul\":6878:6896   */\n      0x44\n      dup3\n      add\n        /* \"#utility.yul\":6871:6932   */\n      mstore\n        /* \"#utility.yul\":6949:6967   */\n      0x64\n      add\n        /* \".git/MyContracts/StudentRecord.sol\":2011:2068  require(_marks <= 100, \"Marks must be between 0 and 100\") */\n      tag_48\n        /* \"#utility.yul\":6618:6973   */\n      jump\n        /* \".git/MyContracts/StudentRecord.sol\":2011:2068  require(_marks <= 100, \"Marks must be between 0 and 100\") */\n    tag_66:\n        /* \".git/MyContracts/StudentRecord.sol\":2097:2274  Student({... */\n      0x40\n      dup1\n      mload\n      0xc0\n      dup2\n      add\n      dup3\n      mstore\n      dup7\n      dup2\n      mstore\n      0x20\n      dup1\n      dup3\n      add\n      dup8\n      dup2\n      mstore\n      dup3\n      dup5\n      add\n      dup8\n      swap1\n      mstore\n      0x60\n      dup4\n      add\n      dup7\n      swap1\n      mstore\n      0x80\n      dup4\n      add\n      dup6\n      swap1\n      mstore\n        /* \".git/MyContracts/StudentRecord.sol\":2258:2262  true */\n      0x01\n        /* \".git/MyContracts/StudentRecord.sol\":2097:2274  Student({... */\n      0xa0\n      dup5\n      add\n      dup2\n      swap1\n      mstore\n      0x00\n        /* \".git/MyContracts/StudentRecord.sol\":2081:2094  students[_id] */\n      dup11\n      dup2\n      mstore\n      swap3\n      dup2\n      swap1\n      mstore\n      swap4\n      swap1\n      swap2\n      keccak256\n        /* \".git/MyContracts/StudentRecord.sol\":2081:2274  students[_id] = Student({... */\n      dup3\n      mload\n      dup2\n      sstore\n      swap1\n      mload\n        /* \".git/MyContracts/StudentRecord.sol\":2097:2274  Student({... */\n      swap2\n      swap3\n        /* \".git/MyContracts/StudentRecord.sol\":2081:2094  students[_id] */\n      swap1\n      swap2\n        /* \".git/MyContracts/StudentRecord.sol\":2081:2274  students[_id] = Student({... */\n      swap1\n      dup3\n      add\n      swap1\n      tag_69\n      swap1\n      dup3\n      tag_70\n      jump\t// in\n    tag_69:\n      pop\n      0x40\n      dup3\n      add\n      mload\n      0x02\n      dup3\n      add\n      sstore\n      0x60\n      dup3\n      add\n      mload\n      0x03\n      dup3\n      add\n      swap1\n      tag_71\n      swap1\n      dup3\n      tag_70\n      jump\t// in\n    tag_71:\n      pop\n      0x80\n      dup3\n      add\n      mload\n      0x04\n      dup3\n      add\n      sstore\n      0xa0\n      swap1\n      swap2\n      add\n      mload\n      0x05\n      swap1\n      swap2\n      add\n      dup1\n      sload\n      not(0xff)\n      and\n      swap2\n      iszero\n      iszero\n      swap2\n      swap1\n      swap2\n      or\n      swap1\n      sstore\n        /* \".git/MyContracts/StudentRecord.sol\":2287:2297  studentIds */\n      0x02\n        /* \".git/MyContracts/StudentRecord.sol\":2287:2307  studentIds.push(_id) */\n      dup1\n      sload\n      0x01\n      dup2\n      add\n      dup3\n      sstore\n      0x00\n      swap2\n      swap1\n      swap2\n      mstore\n      0x405787fa12a823e0f2b7631cc41b3ba8828b3321ca811111fa75cd3aa3bb5ace\n      add\n      dup6\n      swap1\n      sstore\n        /* \".git/MyContracts/StudentRecord.sol\":2325:2366  StudentAdded(_id, _name, _course, _marks) */\n      mload(0x40)\n        /* \".git/MyContracts/StudentRecord.sol\":2287:2307  studentIds.push(_id) */\n      dup6\n      swap1\n        /* \".git/MyContracts/StudentRecord.sol\":2325:2366  StudentAdded(_id, _name, _course, _marks) */\n      0xb6767d1c89515962142b00b5577569c92a74381d9441a528911c66e0c3cea1f8\n      swap1\n      tag_73\n      swap1\n        /* \".git/MyContracts/StudentRecord.sol\":2343:2348  _name */\n      dup8\n      swap1\n        /* \".git/MyContracts/StudentRecord.sol\":2350:2357  _course */\n      dup7\n      swap1\n        /* \".git/MyContracts/StudentRecord.sol\":2359:2365  _marks */\n      dup7\n      swap1\n        /* \".git/MyContracts/StudentRecord.sol\":2325:2366  StudentAdded(_id, _name, _course, _marks) */\n      tag_74\n      jump\t// in\n    tag_73:\n      mload(0x40)\n      dup1\n      swap2\n      sub\n      swap1\n      log2\n        /* \".git/MyContracts/StudentRecord.sol\":1484:2374  function addStudent(... */\n      pop\n      pop\n      pop\n      pop\n      pop\n      jump\t// out\n        /* \".git/MyContracts/StudentRecord.sol\":2698:3440  function updateStudent(... */\n    tag_18:\n        /* \".git/MyContracts/StudentRecord.sol\":1023:1028  owner */\n      and(sub(shl(0xa0, 0x01), 0x01), sload(0x00))\n        /* \".git/MyContracts/StudentRecord.sol\":1009:1019  msg.sender */\n      caller\n        /* \".git/MyContracts/StudentRecord.sol\":1009:1028  msg.sender == owner */\n      eq\n        /* \".git/MyContracts/StudentRecord.sol\":1001:1067  require(msg.sender == owner, \"Only owner can perform this action\") */\n      tag_76\n      jumpi\n      mload(0x40)\n      shl(0xe5, 0x461bcd)\n      dup2\n      mstore\n      0x04\n      add\n      tag_48\n      swap1\n      tag_49\n      jump\t// in\n    tag_76:\n        /* \".git/MyContracts/StudentRecord.sol\":2896:2909  students[_id] */\n      0x00\n      dup6\n      dup2\n      mstore\n        /* \".git/MyContracts/StudentRecord.sol\":2896:2904  students */\n      0x01\n        /* \".git/MyContracts/StudentRecord.sol\":2896:2909  students[_id] */\n      0x20\n      mstore\n      0x40\n      swap1\n      keccak256\n        /* \".git/MyContracts/StudentRecord.sol\":2896:2916  students[_id].exists */\n      0x05\n      add\n      sload\n      0xff\n      and\n        /* \".git/MyContracts/StudentRecord.sol\":2888:2950  require(students[_id].exists, \"Student record does not exist\") */\n      tag_79\n      jumpi\n      mload(0x40)\n      shl(0xe5, 0x461bcd)\n      dup2\n      mstore\n        /* \"#utility.yul\":10148:10150   */\n      0x20\n        /* \".git/MyContracts/StudentRecord.sol\":2888:2950  require(students[_id].exists, \"Student record does not exist\") */\n      0x04\n      dup3\n      add\n        /* \"#utility.yul\":10130:10151   */\n      mstore\n        /* \"#utility.yul\":10187:10189   */\n      0x1d\n        /* \"#utility.yul\":10167:10185   */\n      0x24\n      dup3\n      add\n        /* \"#utility.yul\":10160:10190   */\n      mstore\n        /* \"#utility.yul\":10226:10257   */\n      0x53747564656e74207265636f726420646f6573206e6f74206578697374000000\n        /* \"#utility.yul\":10206:10224   */\n      0x44\n      dup3\n      add\n        /* \"#utility.yul\":10199:10258   */\n      mstore\n        /* \"#utility.yul\":10275:10293   */\n      0x64\n      add\n        /* \".git/MyContracts/StudentRecord.sol\":2888:2950  require(students[_id].exists, \"Student record does not exist\") */\n      tag_48\n        /* \"#utility.yul\":9946:10299   */\n      jump\n        /* \".git/MyContracts/StudentRecord.sol\":2888:2950  require(students[_id].exists, \"Student record does not exist\") */\n    tag_79:\n        /* \".git/MyContracts/StudentRecord.sol\":2991:2992  0 */\n      0x00\n        /* \".git/MyContracts/StudentRecord.sol\":2975:2980  _name */\n      dup5\n        /* \".git/MyContracts/StudentRecord.sol\":2969:2988  bytes(_name).length */\n      mload\n        /* \".git/MyContracts/StudentRecord.sol\":2969:2992  bytes(_name).length > 0 */\n      gt\n        /* \".git/MyContracts/StudentRecord.sol\":2961:3017  require(bytes(_name).length > 0, \"Name cannot be empty\") */\n      tag_82\n      jumpi\n      mload(0x40)\n      shl(0xe5, 0x461bcd)\n      dup2\n      mstore\n        /* \"#utility.yul\":5762:5764   */\n      0x20\n        /* \".git/MyContracts/StudentRecord.sol\":2961:3017  require(bytes(_name).length > 0, \"Name cannot be empty\") */\n      0x04\n      dup3\n      add\n        /* \"#utility.yul\":5744:5765   */\n      mstore\n        /* \"#utility.yul\":5801:5803   */\n      0x14\n        /* \"#utility.yul\":5781:5799   */\n      0x24\n      dup3\n      add\n        /* \"#utility.yul\":5774:5804   */\n      mstore\n      shl(0x60, 0x4e616d652063616e6e6f7420626520656d707479)\n        /* \"#utility.yul\":5820:5838   */\n      0x44\n      dup3\n      add\n        /* \"#utility.yul\":5813:5863   */\n      mstore\n        /* \"#utility.yul\":5880:5898   */\n      0x64\n      add\n        /* \".git/MyContracts/StudentRecord.sol\":2961:3017  require(bytes(_name).length > 0, \"Name cannot be empty\") */\n      tag_48\n        /* \"#utility.yul\":5560:5904   */\n      jump\n        /* \".git/MyContracts/StudentRecord.sol\":2961:3017  require(bytes(_name).length > 0, \"Name cannot be empty\") */\n    tag_82:\n        /* \".git/MyContracts/StudentRecord.sol\":3043:3044  0 */\n      0x00\n        /* \".git/MyContracts/StudentRecord.sol\":3036:3040  _age */\n      dup4\n        /* \".git/MyContracts/StudentRecord.sol\":3036:3044  _age > 0 */\n      gt\n        /* \".git/MyContracts/StudentRecord.sol\":3028:3078  require(_age > 0, \"Age must be greater than zero\") */\n      tag_84\n      jumpi\n      mload(0x40)\n      shl(0xe5, 0x461bcd)\n      dup2\n      mstore\n        /* \"#utility.yul\":6111:6113   */\n      0x20\n        /* \".git/MyContracts/StudentRecord.sol\":3028:3078  require(_age > 0, \"Age must be greater than zero\") */\n      0x04\n      dup3\n      add\n        /* \"#utility.yul\":6093:6114   */\n      mstore\n        /* \"#utility.yul\":6150:6152   */\n      0x1d\n        /* \"#utility.yul\":6130:6148   */\n      0x24\n      dup3\n      add\n        /* \"#utility.yul\":6123:6153   */\n      mstore\n        /* \"#utility.yul\":6189:6220   */\n      0x416765206d7573742062652067726561746572207468616e207a65726f000000\n        /* \"#utility.yul\":6169:6187   */\n      0x44\n      dup3\n      add\n        /* \"#utility.yul\":6162:6221   */\n      mstore\n        /* \"#utility.yul\":6238:6256   */\n      0x64\n      add\n        /* \".git/MyContracts/StudentRecord.sol\":3028:3078  require(_age > 0, \"Age must be greater than zero\") */\n      tag_48\n        /* \"#utility.yul\":5909:6262   */\n      jump\n        /* \".git/MyContracts/StudentRecord.sol\":3028:3078  require(_age > 0, \"Age must be greater than zero\") */\n    tag_84:\n        /* \".git/MyContracts/StudentRecord.sol\":3121:3122  0 */\n      0x00\n        /* \".git/MyContracts/StudentRecord.sol\":3103:3110  _course */\n      dup3\n        /* \".git/MyContracts/StudentRecord.sol\":3097:3118  bytes(_course).length */\n      mload\n        /* \".git/MyContracts/StudentRecord.sol\":3097:3122  bytes(_course).length > 0 */\n      gt\n        /* \".git/MyContracts/StudentRecord.sol\":3089:3149  require(bytes(_course).length > 0, \"Course cannot be empty\") */\n      tag_86\n      jumpi\n      mload(0x40)\n      shl(0xe5, 0x461bcd)\n      dup2\n      mstore\n        /* \"#utility.yul\":6469:6471   */\n      0x20\n        /* \".git/MyContracts/StudentRecord.sol\":3089:3149  require(bytes(_course).length > 0, \"Course cannot be empty\") */\n      0x04\n      dup3\n      add\n        /* \"#utility.yul\":6451:6472   */\n      mstore\n        /* \"#utility.yul\":6508:6510   */\n      0x16\n        /* \"#utility.yul\":6488:6506   */\n      0x24\n      dup3\n      add\n        /* \"#utility.yul\":6481:6511   */\n      mstore\n      shl(0x50, 0x436f757273652063616e6e6f7420626520656d707479)\n        /* \"#utility.yul\":6527:6545   */\n      0x44\n      dup3\n      add\n        /* \"#utility.yul\":6520:6572   */\n      mstore\n        /* \"#utility.yul\":6589:6607   */\n      0x64\n      add\n        /* \".git/MyContracts/StudentRecord.sol\":3089:3149  require(bytes(_course).length > 0, \"Course cannot be empty\") */\n      tag_48\n        /* \"#utility.yul\":6267:6613   */\n      jump\n        /* \".git/MyContracts/StudentRecord.sol\":3089:3149  require(bytes(_course).length > 0, \"Course cannot be empty\") */\n    tag_86:\n        /* \".git/MyContracts/StudentRecord.sol\":3178:3181  100 */\n      0x64\n        /* \".git/MyContracts/StudentRecord.sol\":3168:3174  _marks */\n      dup2\n        /* \".git/MyContracts/StudentRecord.sol\":3168:3181  _marks <= 100 */\n      gt\n      iszero\n        /* \".git/MyContracts/StudentRecord.sol\":3160:3217  require(_marks <= 100, \"Marks must be between 0 and 100\") */\n      tag_88\n      jumpi\n      mload(0x40)\n      shl(0xe5, 0x461bcd)\n      dup2\n      mstore\n        /* \"#utility.yul\":6820:6822   */\n      0x20\n        /* \".git/MyContracts/StudentRecord.sol\":3160:3217  require(_marks <= 100, \"Marks must be between 0 and 100\") */\n      0x04\n      dup3\n      add\n        /* \"#utility.yul\":6802:6823   */\n      mstore\n        /* \"#utility.yul\":6859:6861   */\n      0x1f\n        /* \"#utility.yul\":6839:6857   */\n      0x24\n      dup3\n      add\n        /* \"#utility.yul\":6832:6862   */\n      mstore\n        /* \"#utility.yul\":6898:6931   */\n      0x4d61726b73206d757374206265206265747765656e203020616e642031303000\n        /* \"#utility.yul\":6878:6896   */\n      0x44\n      dup3\n      add\n        /* \"#utility.yul\":6871:6932   */\n      mstore\n        /* \"#utility.yul\":6949:6967   */\n      0x64\n      add\n        /* \".git/MyContracts/StudentRecord.sol\":3160:3217  require(_marks <= 100, \"Marks must be between 0 and 100\") */\n      tag_48\n        /* \"#utility.yul\":6618:6973   */\n      jump\n        /* \".git/MyContracts/StudentRecord.sol\":3160:3217  require(_marks <= 100, \"Marks must be between 0 and 100\") */\n    tag_88:\n        /* \".git/MyContracts/StudentRecord.sol\":3230:3243  students[_id] */\n      0x00\n      dup6\n      dup2\n      mstore\n        /* \".git/MyContracts/StudentRecord.sol\":3230:3238  students */\n      0x01\n        /* \".git/MyContracts/StudentRecord.sol\":3230:3243  students[_id] */\n      0x20\n      dup2\n      swap1\n      mstore\n      0x40\n      swap1\n      swap2\n      keccak256\n        /* \".git/MyContracts/StudentRecord.sol\":3230:3248  students[_id].name */\n      add\n        /* \".git/MyContracts/StudentRecord.sol\":3230:3256  students[_id].name = _name */\n      tag_90\n        /* \".git/MyContracts/StudentRecord.sol\":3251:3256  _name */\n      dup6\n        /* \".git/MyContracts/StudentRecord.sol\":3230:3248  students[_id].name */\n      dup3\n        /* \".git/MyContracts/StudentRecord.sol\":3230:3256  students[_id].name = _name */\n      tag_70\n      jump\t// in\n    tag_90:\n      pop\n        /* \".git/MyContracts/StudentRecord.sol\":3267:3280  students[_id] */\n      0x00\n      dup6\n      dup2\n      mstore\n        /* \".git/MyContracts/StudentRecord.sol\":3267:3275  students */\n      0x01\n        /* \".git/MyContracts/StudentRecord.sol\":3267:3280  students[_id] */\n      0x20\n      mstore\n      0x40\n      swap1\n      keccak256\n        /* \".git/MyContracts/StudentRecord.sol\":3267:3284  students[_id].age */\n      0x02\n      dup2\n      add\n        /* \".git/MyContracts/StudentRecord.sol\":3267:3291  students[_id].age = _age */\n      dup5\n      swap1\n      sstore\n        /* \".git/MyContracts/StudentRecord.sol\":3302:3322  students[_id].course */\n      0x03\n      add\n        /* \".git/MyContracts/StudentRecord.sol\":3302:3332  students[_id].course = _course */\n      tag_91\n        /* \".git/MyContracts/StudentRecord.sol\":3325:3332  _course */\n      dup4\n        /* \".git/MyContracts/StudentRecord.sol\":3302:3322  students[_id].course */\n      dup3\n        /* \".git/MyContracts/StudentRecord.sol\":3302:3332  students[_id].course = _course */\n      tag_70\n      jump\t// in\n    tag_91:\n      pop\n        /* \".git/MyContracts/StudentRecord.sol\":3343:3356  students[_id] */\n      0x00\n      dup6\n      dup2\n      mstore\n        /* \".git/MyContracts/StudentRecord.sol\":3343:3351  students */\n      0x01\n        /* \".git/MyContracts/StudentRecord.sol\":3343:3356  students[_id] */\n      0x20\n      mstore\n      0x40\n      swap1\n      dup2\n      swap1\n      keccak256\n        /* \".git/MyContracts/StudentRecord.sol\":3343:3362  students[_id].marks */\n      0x04\n      add\n        /* \".git/MyContracts/StudentRecord.sol\":3343:3371  students[_id].marks = _marks */\n      dup3\n      swap1\n      sstore\n        /* \".git/MyContracts/StudentRecord.sol\":3389:3432  StudentUpdated(_id, _name, _course, _marks) */\n      mload\n        /* \".git/MyContracts/StudentRecord.sol\":3352:3355  _id */\n      dup6\n      swap1\n        /* \".git/MyContracts/StudentRecord.sol\":3389:3432  StudentUpdated(_id, _name, _course, _marks) */\n      0xf726e970a0b6d3237257e020561c2129fb77682d774daa11c7bdd4a8a3eed020\n      swap1\n      tag_73\n      swap1\n        /* \".git/MyContracts/StudentRecord.sol\":3409:3414  _name */\n      dup8\n      swap1\n        /* \".git/MyContracts/StudentRecord.sol\":3416:3423  _course */\n      dup7\n      swap1\n        /* \".git/MyContracts/StudentRecord.sol\":3365:3371  _marks */\n      dup7\n      swap1\n        /* \".git/MyContracts/StudentRecord.sol\":3389:3432  StudentUpdated(_id, _name, _course, _marks) */\n      tag_74\n      jump\t// in\n        /* \".git/MyContracts/StudentRecord.sol\":3580:4008  function getStudent(uint256 _id)... */\n    tag_26:\n        /* \".git/MyContracts/StudentRecord.sol\":3675:3685  uint256 id */\n      0x00\n        /* \".git/MyContracts/StudentRecord.sol\":3843:3856  students[_id] */\n      dup2\n      dup2\n      mstore\n        /* \".git/MyContracts/StudentRecord.sol\":3843:3851  students */\n      0x01\n        /* \".git/MyContracts/StudentRecord.sol\":3843:3856  students[_id] */\n      0x20\n      mstore\n      0x40\n      dup2\n      keccak256\n        /* \".git/MyContracts/StudentRecord.sol\":3843:3863  students[_id].exists */\n      0x05\n      add\n      sload\n        /* \".git/MyContracts/StudentRecord.sol\":3700:3718  string memory name */\n      0x60\n      swap1\n        /* \".git/MyContracts/StudentRecord.sol\":3675:3685  uint256 id */\n      dup3\n      swap1\n        /* \".git/MyContracts/StudentRecord.sol\":3700:3718  string memory name */\n      dup3\n      swap1\n        /* \".git/MyContracts/StudentRecord.sol\":3675:3685  uint256 id */\n      dup3\n      swap1\n        /* \".git/MyContracts/StudentRecord.sol\":3843:3863  students[_id].exists */\n      0xff\n      and\n        /* \".git/MyContracts/StudentRecord.sol\":3835:3897  require(students[_id].exists, \"Student record does not exist\") */\n      tag_95\n      jumpi\n      mload(0x40)\n      shl(0xe5, 0x461bcd)\n      dup2\n      mstore\n        /* \"#utility.yul\":10148:10150   */\n      0x20\n        /* \".git/MyContracts/StudentRecord.sol\":3835:3897  require(students[_id].exists, \"Student record does not exist\") */\n      0x04\n      dup3\n      add\n        /* \"#utility.yul\":10130:10151   */\n      mstore\n        /* \"#utility.yul\":10187:10189   */\n      0x1d\n        /* \"#utility.yul\":10167:10185   */\n      0x24\n      dup3\n      add\n        /* \"#utility.yul\":10160:10190   */\n      mstore\n        /* \"#utility.yul\":10226:10257   */\n      0x53747564656e74207265636f726420646f6573206e6f74206578697374000000\n        /* \"#utility.yul\":10206:10224   */\n      0x44\n      dup3\n      add\n        /* \"#utility.yul\":10199:10258   */\n      mstore\n        /* \"#utility.yul\":10275:10293   */\n      0x64\n      add\n        /* \".git/MyContracts/StudentRecord.sol\":3835:3897  require(students[_id].exists, \"Student record does not exist\") */\n      tag_48\n        /* \"#utility.yul\":9946:10299   */\n      jump\n        /* \".git/MyContracts/StudentRecord.sol\":3835:3897  require(students[_id].exists, \"Student record does not exist\") */\n    tag_95:\n        /* \".git/MyContracts/StudentRecord.sol\":3910:3926  Student memory s */\n      0x00\n        /* \".git/MyContracts/StudentRecord.sol\":3929:3942  students[_id] */\n      dup7\n      dup2\n      mstore\n        /* \".git/MyContracts/StudentRecord.sol\":3929:3937  students */\n      0x01\n        /* \".git/MyContracts/StudentRecord.sol\":3929:3942  students[_id] */\n      0x20\n      dup2\n      dup2\n      mstore\n      0x40\n      dup1\n      dup5\n      keccak256\n        /* \".git/MyContracts/StudentRecord.sol\":3910:3942  Student memory s = students[_id] */\n      dup2\n      mload\n      0xc0\n      dup2\n      add\n      swap1\n      swap3\n      mstore\n      dup1\n      sload\n      dup3\n      mstore\n      swap3\n      dup4\n      add\n      dup1\n      sload\n      swap2\n      swap4\n        /* \".git/MyContracts/StudentRecord.sol\":3929:3942  students[_id] */\n      swap3\n        /* \".git/MyContracts/StudentRecord.sol\":3910:3942  Student memory s = students[_id] */\n      dup5\n      add\n      swap2\n      tag_97\n      swap1\n      tag_98\n      jump\t// in\n    tag_97:\n      dup1\n      0x1f\n      add\n      0x20\n      dup1\n      swap2\n      div\n      mul\n      0x20\n      add\n      mload(0x40)\n      swap1\n      dup2\n      add\n      0x40\n      mstore\n      dup1\n      swap3\n      swap2\n      swap1\n      dup2\n      dup2\n      mstore\n      0x20\n      add\n      dup3\n      dup1\n      sload\n      tag_99\n      swap1\n      tag_98\n      jump\t// in\n    tag_99:\n      dup1\n      iszero\n      tag_100\n      jumpi\n      dup1\n      0x1f\n      lt\n      tag_101\n      jumpi\n      0x0100\n      dup1\n      dup4\n      sload\n      div\n      mul\n      dup4\n      mstore\n      swap2\n      0x20\n      add\n      swap2\n      jump(tag_100)\n    tag_101:\n      dup3\n      add\n      swap2\n      swap1\n      0x00\n      mstore\n      keccak256(0x00, 0x20)\n      swap1\n    tag_102:\n      dup2\n      sload\n      dup2\n      mstore\n      swap1\n      0x01\n      add\n      swap1\n      0x20\n      add\n      dup1\n      dup4\n      gt\n      tag_102\n      jumpi\n      dup3\n      swap1\n      sub\n      0x1f\n      and\n      dup3\n      add\n      swap2\n    tag_100:\n      pop\n      pop\n      pop\n      pop\n      pop\n      dup2\n      mstore\n      0x20\n      add\n      0x02\n      dup3\n      add\n      sload\n      dup2\n      mstore\n      0x20\n      add\n      0x03\n      dup3\n      add\n      dup1\n      sload\n      tag_103\n      swap1\n      tag_98\n      jump\t// in\n    tag_103:\n      dup1\n      0x1f\n      add\n      0x20\n      dup1\n      swap2\n      div\n      mul\n      0x20\n      add\n      mload(0x40)\n      swap1\n      dup2\n      add\n      0x40\n      mstore\n      dup1\n      swap3\n      swap2\n      swap1\n      dup2\n      dup2\n      mstore\n      0x20\n      add\n      dup3\n      dup1\n      sload\n      tag_104\n      swap1\n      tag_98\n      jump\t// in\n    tag_104:\n      dup1\n      iszero\n      tag_105\n      jumpi\n      dup1\n      0x1f\n      lt\n      tag_106\n      jumpi\n      0x0100\n      dup1\n      dup4\n      sload\n      div\n      mul\n      dup4\n      mstore\n      swap2\n      0x20\n      add\n      swap2\n      jump(tag_105)\n    tag_106:\n      dup3\n      add\n      swap2\n      swap1\n      0x00\n      mstore\n      keccak256(0x00, 0x20)\n      swap1\n    tag_107:\n      dup2\n      sload\n      dup2\n      mstore\n      swap1\n      0x01\n      add\n      swap1\n      0x20\n      add\n      dup1\n      dup4\n      gt\n      tag_107\n      jumpi\n      dup3\n      swap1\n      sub\n      0x1f\n      and\n      dup3\n      add\n      swap2\n    tag_105:\n      pop\n      pop\n      pop\n      swap2\n      dup4\n      mstore\n      pop\n      pop\n      0x04\n      dup3\n      add\n      sload\n      0x20\n      dup1\n      dup4\n      add\n      swap2\n      swap1\n      swap2\n      mstore\n      0x05\n      swap1\n      swap3\n      add\n      sload\n      0xff\n      and\n      iszero\n      iszero\n      0x40\n      swap2\n      dup3\n      add\n      mstore\n        /* \".git/MyContracts/StudentRecord.sol\":3961:3965  s.id */\n      dup3\n      mload\n        /* \".git/MyContracts/StudentRecord.sol\":3967:3973  s.name */\n      swap2\n      dup4\n      add\n      mload\n        /* \".git/MyContracts/StudentRecord.sol\":3975:3980  s.age */\n      swap1\n      dup4\n      add\n      mload\n        /* \".git/MyContracts/StudentRecord.sol\":3982:3990  s.course */\n      0x60\n      dup5\n      add\n      mload\n        /* \".git/MyContracts/StudentRecord.sol\":3992:3999  s.marks */\n      0x80\n      swap1\n      swap5\n      add\n      mload\n        /* \".git/MyContracts/StudentRecord.sol\":3961:3965  s.id */\n      swap3\n      swap12\n        /* \".git/MyContracts/StudentRecord.sol\":3967:3973  s.name */\n      swap2\n      swap11\n      pop\n        /* \".git/MyContracts/StudentRecord.sol\":3975:3980  s.age */\n      swap9\n      pop\n        /* \".git/MyContracts/StudentRecord.sol\":3982:3990  s.course */\n      swap2\n      swap7\n      pop\n        /* \".git/MyContracts/StudentRecord.sol\":3992:3999  s.marks */\n      swap5\n      pop\n        /* \".git/MyContracts/StudentRecord.sol\":3580:4008  function getStudent(uint256 _id)... */\n      swap3\n      pop\n      pop\n      pop\n      jump\t// out\n        /* \".git/MyContracts/StudentRecord.sol\":4490:4593  function getAllStudentIds() public view returns (uint256[] memory) {... */\n    tag_30:\n        /* \".git/MyContracts/StudentRecord.sol\":4539:4555  uint256[] memory */\n      0x60\n        /* \".git/MyContracts/StudentRecord.sol\":4575:4585  studentIds */\n      0x02\n        /* \".git/MyContracts/StudentRecord.sol\":4568:4585  return studentIds */\n      dup1\n      sload\n      dup1\n      0x20\n      mul\n      0x20\n      add\n      mload(0x40)\n      swap1\n      dup2\n      add\n      0x40\n      mstore\n      dup1\n      swap3\n      swap2\n      swap1\n      dup2\n      dup2\n      mstore\n      0x20\n      add\n      dup3\n      dup1\n      sload\n      dup1\n      iszero\n      tag_109\n      jumpi\n      0x20\n      mul\n      dup3\n      add\n      swap2\n      swap1\n      0x00\n      mstore\n      keccak256(0x00, 0x20)\n      swap1\n    tag_110:\n      dup2\n      sload\n      dup2\n      mstore\n      0x20\n      add\n      swap1\n      0x01\n      add\n      swap1\n      dup1\n      dup4\n      gt\n      tag_110\n      jumpi\n    tag_109:\n      pop\n      pop\n      pop\n      pop\n      pop\n      swap1\n      pop\n        /* \".git/MyContracts/StudentRecord.sol\":4490:4593  function getAllStudentIds() public view returns (uint256[] memory) {... */\n      swap1\n      jump\t// out\n        /* \".git/MyContracts/StudentRecord.sol\":4769:5043  function transferOwnership(address _newOwner) public onlyOwner {... */\n    tag_40:\n        /* \".git/MyContracts/StudentRecord.sol\":1023:1028  owner */\n      and(sub(shl(0xa0, 0x01), 0x01), sload(0x00))\n        /* \".git/MyContracts/StudentRecord.sol\":1009:1019  msg.sender */\n      caller\n        /* \".git/MyContracts/StudentRecord.sol\":1009:1028  msg.sender == owner */\n      eq\n        /* \".git/MyContracts/StudentRecord.sol\":1001:1067  require(msg.sender == owner, \"Only owner can perform this action\") */\n      tag_112\n      jumpi\n      mload(0x40)\n      shl(0xe5, 0x461bcd)\n      dup2\n      mstore\n      0x04\n      add\n      tag_48\n      swap1\n      tag_49\n      jump\t// in\n    tag_112:\n      sub(shl(0xa0, 0x01), 0x01)\n        /* \".git/MyContracts/StudentRecord.sol\":4851:4874  _newOwner != address(0) */\n      dup2\n      and\n        /* \".git/MyContracts/StudentRecord.sol\":4843:4911  require(_newOwner != address(0), \"New owner cannot be zero address\") */\n      tag_115\n      jumpi\n      mload(0x40)\n      shl(0xe5, 0x461bcd)\n      dup2\n      mstore\n        /* \"#utility.yul\":10506:10508   */\n      0x20\n        /* \".git/MyContracts/StudentRecord.sol\":4843:4911  require(_newOwner != address(0), \"New owner cannot be zero address\") */\n      0x04\n      dup3\n      add\n        /* \"#utility.yul\":10488:10509   */\n      dup2\n      swap1\n      mstore\n        /* \"#utility.yul\":10525:10543   */\n      0x24\n      dup3\n      add\n        /* \"#utility.yul\":10518:10548   */\n      mstore\n        /* \"#utility.yul\":10584:10618   */\n      0x4e6577206f776e65722063616e6e6f74206265207a65726f2061646472657373\n        /* \"#utility.yul\":10564:10582   */\n      0x44\n      dup3\n      add\n        /* \"#utility.yul\":10557:10619   */\n      mstore\n        /* \"#utility.yul\":10636:10654   */\n      0x64\n      add\n        /* \".git/MyContracts/StudentRecord.sol\":4843:4911  require(_newOwner != address(0), \"New owner cannot be zero address\") */\n      tag_48\n        /* \"#utility.yul\":10304:10660   */\n      jump\n        /* \".git/MyContracts/StudentRecord.sol\":4843:4911  require(_newOwner != address(0), \"New owner cannot be zero address\") */\n    tag_115:\n        /* \".git/MyContracts/StudentRecord.sol\":4924:4940  address oldOwner */\n      0x00\n        /* \".git/MyContracts/StudentRecord.sol\":4943:4948  owner */\n      dup1\n      sload\n      sub(shl(0xa0, 0x01), 0x01)\n        /* \".git/MyContracts/StudentRecord.sol\":4959:4976  owner = _newOwner */\n      dup4\n      dup2\n      and\n      not(sub(shl(0xa0, 0x01), 0x01))\n      dup4\n      and\n      dup2\n      or\n      dup5\n      sstore\n        /* \".git/MyContracts/StudentRecord.sol\":4994:5035  OwnershipTransferred(oldOwner, _newOwner) */\n      mload(0x40)\n        /* \".git/MyContracts/StudentRecord.sol\":4943:4948  owner */\n      swap2\n      swap1\n      swap3\n      and\n      swap3\n      dup4\n      swap2\n        /* \".git/MyContracts/StudentRecord.sol\":4994:5035  OwnershipTransferred(oldOwner, _newOwner) */\n      0x8be0079c531659141344cd1fd0a4f28419497f9722a3daafe3b4186f6b6457e0\n      swap2\n        /* \".git/MyContracts/StudentRecord.sol\":4924:4940  address oldOwner */\n      swap1\n        /* \".git/MyContracts/StudentRecord.sol\":4994:5035  OwnershipTransferred(oldOwner, _newOwner) */\n      log3\n        /* \".git/MyContracts/StudentRecord.sol\":4832:5043  {... */\n      pop\n        /* \".git/MyContracts/StudentRecord.sol\":4769:5043  function transferOwnership(address _newOwner) public onlyOwner {... */\n      pop\n      jump\t// out\n        /* \"#utility.yul\":14:141   */\n    tag_119:\n        /* \"#utility.yul\":75:85   */\n      0x4e487b71\n        /* \"#utility.yul\":70:73   */\n      0xe0\n        /* \"#utility.yul\":66:86   */\n      shl\n        /* \"#utility.yul\":63:64   */\n      0x00\n        /* \"#utility.yul\":56:87   */\n      mstore\n        /* \"#utility.yul\":106:110   */\n      0x41\n        /* \"#utility.yul\":103:104   */\n      0x04\n        /* \"#utility.yul\":96:111   */\n      mstore\n        /* \"#utility.yul\":130:134   */\n      0x24\n        /* \"#utility.yul\":127:128   */\n      0x00\n        /* \"#utility.yul\":120:135   */\n      revert\n        /* \"#utility.yul\":146:872   */\n    tag_120:\n        /* \"#utility.yul\":189:194   */\n      0x00\n        /* \"#utility.yul\":242:245   */\n      dup3\n        /* \"#utility.yul\":235:239   */\n      0x1f\n        /* \"#utility.yul\":227:233   */\n      dup4\n        /* \"#utility.yul\":223:240   */\n      add\n        /* \"#utility.yul\":219:246   */\n      slt\n        /* \"#utility.yul\":209:264   */\n      tag_128\n      jumpi\n        /* \"#utility.yul\":260:261   */\n      0x00\n        /* \"#utility.yul\":257:258   */\n      0x00\n        /* \"#utility.yul\":250:262   */\n      revert\n        /* \"#utility.yul\":209:264   */\n    tag_128:\n        /* \"#utility.yul\":300:306   */\n      dup2\n        /* \"#utility.yul\":287:307   */\n      calldataload\n        /* \"#utility.yul\":330:348   */\n      0xffffffffffffffff\n        /* \"#utility.yul\":322:328   */\n      dup2\n        /* \"#utility.yul\":319:349   */\n      gt\n        /* \"#utility.yul\":316:372   */\n      iszero\n      tag_130\n      jumpi\n        /* \"#utility.yul\":352:370   */\n      tag_130\n      tag_119\n      jump\t// in\n    tag_130:\n        /* \"#utility.yul\":401:403   */\n      0x40\n        /* \"#utility.yul\":395:404   */\n      mload\n        /* \"#utility.yul\":493:495   */\n      0x1f\n        /* \"#utility.yul\":455:472   */\n      dup3\n      add\n      not(0x1f)\n        /* \"#utility.yul\":451:482   */\n      swap1\n      dup2\n      and\n        /* \"#utility.yul\":484:486   */\n      0x3f\n        /* \"#utility.yul\":447:487   */\n      add\n        /* \"#utility.yul\":443:497   */\n      and\n        /* \"#utility.yul\":431:498   */\n      dup2\n      add\n        /* \"#utility.yul\":528:546   */\n      0xffffffffffffffff\n        /* \"#utility.yul\":513:547   */\n      dup2\n      gt\n        /* \"#utility.yul\":549:571   */\n      dup3\n      dup3\n      lt\n        /* \"#utility.yul\":510:572   */\n      or\n        /* \"#utility.yul\":507:595   */\n      iszero\n      tag_132\n      jumpi\n        /* \"#utility.yul\":575:593   */\n      tag_132\n      tag_119\n      jump\t// in\n    tag_132:\n        /* \"#utility.yul\":611:613   */\n      0x40\n        /* \"#utility.yul\":604:626   */\n      mstore\n        /* \"#utility.yul\":635:657   */\n      dup2\n      dup2\n      mstore\n        /* \"#utility.yul\":676:695   */\n      dup4\n      dup3\n      add\n        /* \"#utility.yul\":697:701   */\n      0x20\n        /* \"#utility.yul\":672:702   */\n      add\n        /* \"#utility.yul\":669:708   */\n      dup6\n      lt\n        /* \"#utility.yul\":666:725   */\n      iszero\n      tag_133\n      jumpi\n        /* \"#utility.yul\":721:722   */\n      0x00\n        /* \"#utility.yul\":718:719   */\n      0x00\n        /* \"#utility.yul\":711:723   */\n      revert\n        /* \"#utility.yul\":666:725   */\n    tag_133:\n        /* \"#utility.yul\":785:791   */\n      dup2\n        /* \"#utility.yul\":778:782   */\n      0x20\n        /* \"#utility.yul\":770:776   */\n      dup6\n        /* \"#utility.yul\":766:783   */\n      add\n        /* \"#utility.yul\":759:763   */\n      0x20\n        /* \"#utility.yul\":751:757   */\n      dup4\n        /* \"#utility.yul\":747:764   */\n      add\n        /* \"#utility.yul\":734:792   */\n      calldatacopy\n        /* \"#utility.yul\":840:841   */\n      0x00\n        /* \"#utility.yul\":812:831   */\n      swap2\n      dup2\n      add\n        /* \"#utility.yul\":833:837   */\n      0x20\n        /* \"#utility.yul\":808:838   */\n      add\n        /* \"#utility.yul\":801:842   */\n      swap2\n      swap1\n      swap2\n      mstore\n        /* \"#utility.yul\":816:822   */\n      swap4\n        /* \"#utility.yul\":146:872   */\n      swap3\n      pop\n      pop\n      pop\n      jump\t// out\n        /* \"#utility.yul\":877:1771   */\n    tag_14:\n        /* \"#utility.yul\":992:998   */\n      0x00\n        /* \"#utility.yul\":1000:1006   */\n      0x00\n        /* \"#utility.yul\":1008:1014   */\n      0x00\n        /* \"#utility.yul\":1016:1022   */\n      0x00\n        /* \"#utility.yul\":1024:1030   */\n      0x00\n        /* \"#utility.yul\":1077:1080   */\n      0xa0\n        /* \"#utility.yul\":1065:1074   */\n      dup7\n        /* \"#utility.yul\":1056:1063   */\n      dup9\n        /* \"#utility.yul\":1052:1075   */\n      sub\n        /* \"#utility.yul\":1048:1081   */\n      slt\n        /* \"#utility.yul\":1045:1098   */\n      iszero\n      tag_135\n      jumpi\n        /* \"#utility.yul\":1094:1095   */\n      0x00\n        /* \"#utility.yul\":1091:1092   */\n      0x00\n        /* \"#utility.yul\":1084:1096   */\n      revert\n        /* \"#utility.yul\":1045:1098   */\n    tag_135:\n        /* \"#utility.yul\":1139:1162   */\n      dup6\n      calldataload\n      swap5\n      pop\n        /* \"#utility.yul\":1237:1239   */\n      0x20\n        /* \"#utility.yul\":1222:1240   */\n      dup7\n      add\n        /* \"#utility.yul\":1209:1241   */\n      calldataload\n        /* \"#utility.yul\":1264:1282   */\n      0xffffffffffffffff\n        /* \"#utility.yul\":1253:1283   */\n      dup2\n      gt\n        /* \"#utility.yul\":1250:1300   */\n      iszero\n      tag_136\n      jumpi\n        /* \"#utility.yul\":1296:1297   */\n      0x00\n        /* \"#utility.yul\":1293:1294   */\n      0x00\n        /* \"#utility.yul\":1286:1298   */\n      revert\n        /* \"#utility.yul\":1250:1300   */\n    tag_136:\n        /* \"#utility.yul\":1319:1369   */\n      tag_137\n        /* \"#utility.yul\":1361:1368   */\n      dup9\n        /* \"#utility.yul\":1352:1358   */\n      dup3\n        /* \"#utility.yul\":1341:1350   */\n      dup10\n        /* \"#utility.yul\":1337:1359   */\n      add\n        /* \"#utility.yul\":1319:1369   */\n      tag_120\n      jump\t// in\n    tag_137:\n        /* \"#utility.yul\":1309:1369   */\n      swap5\n      pop\n      pop\n        /* \"#utility.yul\":1442:1444   */\n      0x40\n        /* \"#utility.yul\":1427:1445   */\n      dup7\n      add\n        /* \"#utility.yul\":1414:1446   */\n      calldataload\n      swap3\n      pop\n        /* \"#utility.yul\":1525:1527   */\n      0x60\n        /* \"#utility.yul\":1510:1528   */\n      dup7\n      add\n        /* \"#utility.yul\":1497:1529   */\n      calldataload\n        /* \"#utility.yul\":1554:1572   */\n      0xffffffffffffffff\n        /* \"#utility.yul\":1541:1573   */\n      dup2\n      gt\n        /* \"#utility.yul\":1538:1590   */\n      iszero\n      tag_138\n      jumpi\n        /* \"#utility.yul\":1586:1587   */\n      0x00\n        /* \"#utility.yul\":1583:1584   */\n      0x00\n        /* \"#utility.yul\":1576:1588   */\n      revert\n        /* \"#utility.yul\":1538:1590   */\n    tag_138:\n        /* \"#utility.yul\":1609:1661   */\n      tag_139\n        /* \"#utility.yul\":1653:1660   */\n      dup9\n        /* \"#utility.yul\":1642:1650   */\n      dup3\n        /* \"#utility.yul\":1631:1640   */\n      dup10\n        /* \"#utility.yul\":1627:1651   */\n      add\n        /* \"#utility.yul\":1609:1661   */\n      tag_120\n      jump\t// in\n    tag_139:\n        /* \"#utility.yul\":877:1771   */\n      swap6\n      swap9\n      swap5\n      swap8\n      pop\n      swap3\n      swap6\n        /* \"#utility.yul\":1734:1737   */\n      0x80\n        /* \"#utility.yul\":1719:1738   */\n      add\n        /* \"#utility.yul\":1706:1739   */\n      calldataload\n      swap4\n        /* \"#utility.yul\":877:1771   */\n      swap3\n      pop\n      pop\n      pop\n      jump\t// out\n        /* \"#utility.yul\":1958:2184   */\n    tag_25:\n        /* \"#utility.yul\":2017:2023   */\n      0x00\n        /* \"#utility.yul\":2070:2072   */\n      0x20\n        /* \"#utility.yul\":2058:2067   */\n      dup3\n        /* \"#utility.yul\":2049:2056   */\n      dup5\n        /* \"#utility.yul\":2045:2068   */\n      sub\n        /* \"#utility.yul\":2041:2073   */\n      slt\n        /* \"#utility.yul\":2038:2090   */\n      iszero\n      tag_142\n      jumpi\n        /* \"#utility.yul\":2086:2087   */\n      0x00\n        /* \"#utility.yul\":2083:2084   */\n      0x00\n        /* \"#utility.yul\":2076:2088   */\n      revert\n        /* \"#utility.yul\":2038:2090   */\n    tag_142:\n      pop\n        /* \"#utility.yul\":2131:2154   */\n      calldataload\n      swap2\n        /* \"#utility.yul\":1958:2184   */\n      swap1\n      pop\n      jump\t// out\n        /* \"#utility.yul\":2189:2478   */\n    tag_121:\n        /* \"#utility.yul\":2231:2234   */\n      0x00\n        /* \"#utility.yul\":2269:2274   */\n      dup2\n        /* \"#utility.yul\":2263:2275   */\n      mload\n        /* \"#utility.yul\":2296:2302   */\n      dup1\n        /* \"#utility.yul\":2291:2294   */\n      dup5\n        /* \"#utility.yul\":2284:2303   */\n      mstore\n        /* \"#utility.yul\":2352:2358   */\n      dup1\n        /* \"#utility.yul\":2345:2349   */\n      0x20\n        /* \"#utility.yul\":2338:2343   */\n      dup5\n        /* \"#utility.yul\":2334:2350   */\n      add\n        /* \"#utility.yul\":2327:2331   */\n      0x20\n        /* \"#utility.yul\":2322:2325   */\n      dup7\n        /* \"#utility.yul\":2318:2332   */\n      add\n        /* \"#utility.yul\":2312:2359   */\n      mcopy\n        /* \"#utility.yul\":2404:2405   */\n      0x00\n        /* \"#utility.yul\":2397:2401   */\n      0x20\n        /* \"#utility.yul\":2388:2394   */\n      dup3\n        /* \"#utility.yul\":2383:2386   */\n      dup7\n        /* \"#utility.yul\":2379:2395   */\n      add\n        /* \"#utility.yul\":2375:2402   */\n      add\n        /* \"#utility.yul\":2368:2406   */\n      mstore\n        /* \"#utility.yul\":2467:2471   */\n      0x20\n        /* \"#utility.yul\":2460:2462   */\n      0x1f\n        /* \"#utility.yul\":2456:2463   */\n      not\n        /* \"#utility.yul\":2451:2453   */\n      0x1f\n        /* \"#utility.yul\":2443:2449   */\n      dup4\n        /* \"#utility.yul\":2439:2454   */\n      add\n        /* \"#utility.yul\":2435:2464   */\n      and\n        /* \"#utility.yul\":2430:2433   */\n      dup6\n        /* \"#utility.yul\":2426:2465   */\n      add\n        /* \"#utility.yul\":2422:2472   */\n      add\n        /* \"#utility.yul\":2415:2472   */\n      swap2\n      pop\n      pop\n        /* \"#utility.yul\":2189:2478   */\n      swap3\n      swap2\n      pop\n      pop\n      jump\t// out\n        /* \"#utility.yul\":2483:3082   */\n    tag_28:\n        /* \"#utility.yul\":2764:2770   */\n      dup6\n        /* \"#utility.yul\":2753:2762   */\n      dup2\n        /* \"#utility.yul\":2746:2771   */\n      mstore\n        /* \"#utility.yul\":2807:2810   */\n      0xa0\n        /* \"#utility.yul\":2802:2804   */\n      0x20\n        /* \"#utility.yul\":2791:2800   */\n      dup3\n        /* \"#utility.yul\":2787:2805   */\n      add\n        /* \"#utility.yul\":2780:2811   */\n      mstore\n        /* \"#utility.yul\":2727:2731   */\n      0x00\n        /* \"#utility.yul\":2834:2880   */\n      tag_145\n        /* \"#utility.yul\":2875:2878   */\n      0xa0\n        /* \"#utility.yul\":2864:2873   */\n      dup4\n        /* \"#utility.yul\":2860:2879   */\n      add\n        /* \"#utility.yul\":2852:2858   */\n      dup8\n        /* \"#utility.yul\":2834:2880   */\n      tag_121\n      jump\t// in\n    tag_145:\n        /* \"#utility.yul\":2916:2922   */\n      dup6\n        /* \"#utility.yul\":2911:2913   */\n      0x40\n        /* \"#utility.yul\":2900:2909   */\n      dup5\n        /* \"#utility.yul\":2896:2914   */\n      add\n        /* \"#utility.yul\":2889:2923   */\n      mstore\n        /* \"#utility.yul\":2971:2980   */\n      dup3\n        /* \"#utility.yul\":2963:2969   */\n      dup2\n        /* \"#utility.yul\":2959:2981   */\n      sub\n        /* \"#utility.yul\":2954:2956   */\n      0x60\n        /* \"#utility.yul\":2943:2952   */\n      dup5\n        /* \"#utility.yul\":2939:2957   */\n      add\n        /* \"#utility.yul\":2932:2982   */\n      mstore\n        /* \"#utility.yul\":2999:3032   */\n      tag_146\n        /* \"#utility.yul\":3025:3031   */\n      dup2\n        /* \"#utility.yul\":3017:3023   */\n      dup7\n        /* \"#utility.yul\":2999:3032   */\n      tag_121\n      jump\t// in\n    tag_146:\n        /* \"#utility.yul\":2991:3032   */\n      swap2\n      pop\n      pop\n        /* \"#utility.yul\":3069:3075   */\n      dup3\n        /* \"#utility.yul\":3063:3066   */\n      0x80\n        /* \"#utility.yul\":3052:3061   */\n      dup4\n        /* \"#utility.yul\":3048:3067   */\n      add\n        /* \"#utility.yul\":3041:3076   */\n      mstore\n        /* \"#utility.yul\":2483:3082   */\n      swap7\n      swap6\n      pop\n      pop\n      pop\n      pop\n      pop\n      pop\n      jump\t// out\n        /* \"#utility.yul\":3087:3698   */\n    tag_32:\n        /* \"#utility.yul\":3277:3279   */\n      0x20\n        /* \"#utility.yul\":3289:3310   */\n      dup1\n      dup3\n      mstore\n        /* \"#utility.yul\":3359:3372   */\n      dup3\n      mload\n        /* \"#utility.yul\":3262:3280   */\n      dup3\n      dup3\n      add\n        /* \"#utility.yul\":3381:3403   */\n      dup2\n      swap1\n      mstore\n        /* \"#utility.yul\":3229:3233   */\n      0x00\n      swap2\n        /* \"#utility.yul\":3460:3475   */\n      dup5\n      add\n      swap1\n        /* \"#utility.yul\":3434:3436   */\n      0x40\n        /* \"#utility.yul\":3419:3437   */\n      dup5\n      add\n      swap1\n        /* \"#utility.yul\":3229:3233   */\n      dup4\n        /* \"#utility.yul\":3503:3672   */\n    tag_148:\n        /* \"#utility.yul\":3517:3523   */\n      dup2\n        /* \"#utility.yul\":3514:3515   */\n      dup2\n        /* \"#utility.yul\":3511:3524   */\n      lt\n        /* \"#utility.yul\":3503:3672   */\n      iszero\n      tag_150\n      jumpi\n        /* \"#utility.yul\":3578:3591   */\n      dup4\n      mload\n        /* \"#utility.yul\":3566:3592   */\n      dup4\n      mstore\n        /* \"#utility.yul\":3621:3623   */\n      0x20\n        /* \"#utility.yul\":3647:3662   */\n      swap4\n      dup5\n      add\n      swap4\n        /* \"#utility.yul\":3612:3624   */\n      swap1\n      swap3\n      add\n      swap2\n        /* \"#utility.yul\":3539:3540   */\n      0x01\n        /* \"#utility.yul\":3532:3541   */\n      add\n        /* \"#utility.yul\":3503:3672   */\n      jump(tag_148)\n    tag_150:\n      pop\n        /* \"#utility.yul\":3689:3692   */\n      swap1\n      swap6\n        /* \"#utility.yul\":3087:3698   */\n      swap5\n      pop\n      pop\n      pop\n      pop\n      pop\n      jump\t// out\n        /* \"#utility.yul\":3911:4197   */\n    tag_39:\n        /* \"#utility.yul\":3970:3976   */\n      0x00\n        /* \"#utility.yul\":4023:4025   */\n      0x20\n        /* \"#utility.yul\":4011:4020   */\n      dup3\n        /* \"#utility.yul\":4002:4009   */\n      dup5\n        /* \"#utility.yul\":3998:4021   */\n      sub\n        /* \"#utility.yul\":3994:4026   */\n      slt\n        /* \"#utility.yul\":3991:4043   */\n      iszero\n      tag_153\n      jumpi\n        /* \"#utility.yul\":4039:4040   */\n      0x00\n        /* \"#utility.yul\":4036:4037   */\n      0x00\n        /* \"#utility.yul\":4029:4041   */\n      revert\n        /* \"#utility.yul\":3991:4043   */\n    tag_153:\n        /* \"#utility.yul\":4065:4088   */\n      dup2\n      calldataload\n      sub(shl(0xa0, 0x01), 0x01)\n        /* \"#utility.yul\":4117:4148   */\n      dup2\n      and\n        /* \"#utility.yul\":4107:4149   */\n      dup2\n      eq\n        /* \"#utility.yul\":4097:4167   */\n      tag_154\n      jumpi\n        /* \"#utility.yul\":4163:4164   */\n      0x00\n        /* \"#utility.yul\":4160:4161   */\n      0x00\n        /* \"#utility.yul\":4153:4165   */\n      revert\n        /* \"#utility.yul\":4097:4167   */\n    tag_154:\n        /* \"#utility.yul\":4186:4191   */\n      swap4\n        /* \"#utility.yul\":3911:4197   */\n      swap3\n      pop\n      pop\n      pop\n      jump\t// out\n        /* \"#utility.yul\":4394:4792   */\n    tag_49:\n        /* \"#utility.yul\":4596:4598   */\n      0x20\n        /* \"#utility.yul\":4578:4599   */\n      dup1\n      dup3\n      mstore\n        /* \"#utility.yul\":4635:4637   */\n      0x22\n        /* \"#utility.yul\":4615:4633   */\n      swap1\n      dup3\n      add\n        /* \"#utility.yul\":4608:4638   */\n      mstore\n        /* \"#utility.yul\":4674:4708   */\n      0x4f6e6c79206f776e65722063616e20706572666f726d20746869732061637469\n        /* \"#utility.yul\":4669:4671   */\n      0x40\n        /* \"#utility.yul\":4654:4672   */\n      dup3\n      add\n        /* \"#utility.yul\":4647:4709   */\n      mstore\n      shl(0xf1, 0x37b7)\n        /* \"#utility.yul\":4740:4742   */\n      0x60\n        /* \"#utility.yul\":4725:4743   */\n      dup3\n      add\n        /* \"#utility.yul\":4718:4750   */\n      mstore\n        /* \"#utility.yul\":4782:4785   */\n      0x80\n        /* \"#utility.yul\":4767:4786   */\n      add\n      swap1\n        /* \"#utility.yul\":4394:4792   */\n      jump\t// out\n        /* \"#utility.yul\":6978:7358   */\n    tag_98:\n        /* \"#utility.yul\":7057:7058   */\n      0x01\n        /* \"#utility.yul\":7053:7065   */\n      dup2\n      dup2\n      shr\n      swap1\n        /* \"#utility.yul\":7100:7112   */\n      dup3\n      and\n      dup1\n        /* \"#utility.yul\":7121:7182   */\n      tag_164\n      jumpi\n        /* \"#utility.yul\":7175:7179   */\n      0x7f\n        /* \"#utility.yul\":7167:7173   */\n      dup3\n        /* \"#utility.yul\":7163:7180   */\n      and\n        /* \"#utility.yul\":7153:7180   */\n      swap2\n      pop\n        /* \"#utility.yul\":7121:7182   */\n    tag_164:\n        /* \"#utility.yul\":7228:7230   */\n      0x20\n        /* \"#utility.yul\":7220:7226   */\n      dup3\n        /* \"#utility.yul\":7217:7231   */\n      lt\n        /* \"#utility.yul\":7197:7215   */\n      dup2\n        /* \"#utility.yul\":7194:7232   */\n      sub\n        /* \"#utility.yul\":7191:7352   */\n      tag_165\n      jumpi\n        /* \"#utility.yul\":7274:7284   */\n      0x4e487b71\n        /* \"#utility.yul\":7269:7272   */\n      0xe0\n        /* \"#utility.yul\":7265:7285   */\n      shl\n        /* \"#utility.yul\":7262:7263   */\n      0x00\n        /* \"#utility.yul\":7255:7286   */\n      mstore\n        /* \"#utility.yul\":7309:7313   */\n      0x22\n        /* \"#utility.yul\":7306:7307   */\n      0x04\n        /* \"#utility.yul\":7299:7314   */\n      mstore\n        /* \"#utility.yul\":7337:7341   */\n      0x24\n        /* \"#utility.yul\":7334:7335   */\n      0x00\n        /* \"#utility.yul\":7327:7342   */\n      revert\n        /* \"#utility.yul\":7191:7352   */\n    tag_165:\n      pop\n        /* \"#utility.yul\":6978:7358   */\n      swap2\n      swap1\n      pop\n      jump\t// out\n        /* \"#utility.yul\":7489:8007   */\n    tag_123:\n        /* \"#utility.yul\":7591:7593   */\n      0x1f\n        /* \"#utility.yul\":7586:7589   */\n      dup3\n        /* \"#utility.yul\":7583:7594   */\n      gt\n        /* \"#utility.yul\":7580:8001   */\n      iszero\n      tag_168\n      jumpi\n        /* \"#utility.yul\":7627:7632   */\n      dup1\n        /* \"#utility.yul\":7624:7625   */\n      0x00\n        /* \"#utility.yul\":7617:7633   */\n      mstore\n        /* \"#utility.yul\":7671:7675   */\n      0x20\n        /* \"#utility.yul\":7668:7669   */\n      0x00\n        /* \"#utility.yul\":7658:7676   */\n      keccak256\n        /* \"#utility.yul\":7741:7743   */\n      0x1f\n        /* \"#utility.yul\":7729:7739   */\n      dup5\n        /* \"#utility.yul\":7725:7744   */\n      add\n        /* \"#utility.yul\":7722:7723   */\n      0x05\n        /* \"#utility.yul\":7718:7745   */\n      shr\n        /* \"#utility.yul\":7712:7716   */\n      dup2\n        /* \"#utility.yul\":7708:7746   */\n      add\n        /* \"#utility.yul\":7777:7781   */\n      0x20\n        /* \"#utility.yul\":7765:7775   */\n      dup6\n        /* \"#utility.yul\":7762:7782   */\n      lt\n        /* \"#utility.yul\":7759:7806   */\n      iszero\n      tag_169\n      jumpi\n      pop\n        /* \"#utility.yul\":7800:7804   */\n      dup1\n        /* \"#utility.yul\":7759:7806   */\n    tag_169:\n        /* \"#utility.yul\":7855:7857   */\n      0x1f\n        /* \"#utility.yul\":7850:7853   */\n      dup5\n        /* \"#utility.yul\":7846:7858   */\n      add\n        /* \"#utility.yul\":7843:7844   */\n      0x05\n        /* \"#utility.yul\":7839:7859   */\n      shr\n        /* \"#utility.yul\":7833:7837   */\n      dup3\n        /* \"#utility.yul\":7829:7860   */\n      add\n        /* \"#utility.yul\":7819:7860   */\n      swap2\n      pop\n        /* \"#utility.yul\":7910:7991   */\n    tag_170:\n        /* \"#utility.yul\":7928:7930   */\n      dup2\n        /* \"#utility.yul\":7921:7926   */\n      dup2\n        /* \"#utility.yul\":7918:7931   */\n      lt\n        /* \"#utility.yul\":7910:7991   */\n      iszero\n      tag_172\n      jumpi\n        /* \"#utility.yul\":7987:7988   */\n      0x00\n        /* \"#utility.yul\":7973:7989   */\n      dup2\n      sstore\n        /* \"#utility.yul\":7954:7955   */\n      0x01\n        /* \"#utility.yul\":7943:7956   */\n      add\n        /* \"#utility.yul\":7910:7991   */\n      jump(tag_170)\n    tag_172:\n        /* \"#utility.yul\":7914:7917   */\n      pop\n      pop\n        /* \"#utility.yul\":7580:8001   */\n    tag_168:\n        /* \"#utility.yul\":7489:8007   */\n      pop\n      pop\n      pop\n      jump\t// out\n        /* \"#utility.yul\":8183:9482   */\n    tag_70:\n        /* \"#utility.yul\":8309:8312   */\n      dup2\n        /* \"#utility.yul\":8303:8313   */\n      mload\n        /* \"#utility.yul\":8336:8354   */\n      0xffffffffffffffff\n        /* \"#utility.yul\":8328:8334   */\n      dup2\n        /* \"#utility.yul\":8325:8355   */\n      gt\n        /* \"#utility.yul\":8322:8378   */\n      iszero\n      tag_176\n      jumpi\n        /* \"#utility.yul\":8358:8376   */\n      tag_176\n      tag_119\n      jump\t// in\n    tag_176:\n        /* \"#utility.yul\":8387:8484   */\n      tag_177\n        /* \"#utility.yul\":8477:8483   */\n      dup2\n        /* \"#utility.yul\":8437:8475   */\n      tag_178\n        /* \"#utility.yul\":8469:8473   */\n      dup5\n        /* \"#utility.yul\":8463:8474   */\n      sload\n        /* \"#utility.yul\":8437:8475   */\n      tag_98\n      jump\t// in\n    tag_178:\n        /* \"#utility.yul\":8431:8435   */\n      dup5\n        /* \"#utility.yul\":8387:8484   */\n      tag_123\n      jump\t// in\n    tag_177:\n        /* \"#utility.yul\":8533:8537   */\n      0x20\n        /* \"#utility.yul\":8564:8566   */\n      0x1f\n        /* \"#utility.yul\":8553:8567   */\n      dup3\n      gt\n        /* \"#utility.yul\":8581:8582   */\n      0x01\n        /* \"#utility.yul\":8576:9225   */\n      dup2\n      eq\n      tag_180\n      jumpi\n        /* \"#utility.yul\":9269:9270   */\n      0x00\n        /* \"#utility.yul\":9286:9292   */\n      dup4\n        /* \"#utility.yul\":9283:9372   */\n      iszero\n      tag_181\n      jumpi\n      pop\n        /* \"#utility.yul\":9338:9357   */\n      dup5\n      dup3\n      add\n        /* \"#utility.yul\":9332:9358   */\n      mload\n        /* \"#utility.yul\":9283:9372   */\n    tag_181:\n      not(0x00)\n        /* \"#utility.yul\":8140:8141   */\n      0x03\n        /* \"#utility.yul\":8136:8147   */\n      dup6\n      swap1\n      shl\n        /* \"#utility.yul\":8132:8156   */\n      shr\n        /* \"#utility.yul\":8128:8157   */\n      not\n        /* \"#utility.yul\":8118:8158   */\n      and\n        /* \"#utility.yul\":8164:8165   */\n      0x01\n        /* \"#utility.yul\":8160:8171   */\n      dup5\n      swap1\n      shl\n        /* \"#utility.yul\":8115:8172   */\n      or\n        /* \"#utility.yul\":9385:9466   */\n      dup5\n      sstore\n        /* \"#utility.yul\":8546:9476   */\n      jump(tag_172)\n        /* \"#utility.yul\":8576:9225   */\n    tag_180:\n        /* \"#utility.yul\":7436:7437   */\n      0x00\n        /* \"#utility.yul\":7429:7443   */\n      dup5\n      dup2\n      mstore\n        /* \"#utility.yul\":7473:7477   */\n      0x20\n        /* \"#utility.yul\":7460:7478   */\n      dup2\n      keccak256\n      not(0x1f)\n        /* \"#utility.yul\":8612:8632   */\n      dup6\n      and\n      swap2\n        /* \"#utility.yul\":8730:8952   */\n    tag_184:\n        /* \"#utility.yul\":8744:8751   */\n      dup3\n        /* \"#utility.yul\":8741:8742   */\n      dup2\n        /* \"#utility.yul\":8738:8752   */\n      lt\n        /* \"#utility.yul\":8730:8952   */\n      iszero\n      tag_186\n      jumpi\n        /* \"#utility.yul\":8826:8845   */\n      dup8\n      dup6\n      add\n        /* \"#utility.yul\":8820:8846   */\n      mload\n        /* \"#utility.yul\":8805:8847   */\n      dup3\n      sstore\n        /* \"#utility.yul\":8933:8937   */\n      0x20\n        /* \"#utility.yul\":8918:8938   */\n      swap5\n      dup6\n      add\n      swap5\n        /* \"#utility.yul\":8886:8887   */\n      0x01\n        /* \"#utility.yul\":8874:8888   */\n      swap1\n      swap3\n      add\n      swap2\n        /* \"#utility.yul\":8760:8772   */\n      add\n        /* \"#utility.yul\":8730:8952   */\n      jump(tag_184)\n    tag_186:\n        /* \"#utility.yul\":8734:8737   */\n      pop\n        /* \"#utility.yul\":8980:8986   */\n      dup5\n        /* \"#utility.yul\":8971:8978   */\n      dup3\n        /* \"#utility.yul\":8968:8987   */\n      lt\n        /* \"#utility.yul\":8965:9166   */\n      iszero\n      tag_187\n      jumpi\n        /* \"#utility.yul\":9041:9060   */\n      dup7\n      dup5\n      add\n        /* \"#utility.yul\":9035:9061   */\n      mload\n      not(0x00)\n        /* \"#utility.yul\":9124:9125   */\n      0x03\n        /* \"#utility.yul\":9120:9134   */\n      dup8\n      swap1\n      shl\n        /* \"#utility.yul\":9136:9139   */\n      0xf8\n        /* \"#utility.yul\":9116:9140   */\n      and\n        /* \"#utility.yul\":9112:9149   */\n      shr\n        /* \"#utility.yul\":9108:9150   */\n      not\n        /* \"#utility.yul\":9093:9151   */\n      and\n        /* \"#utility.yul\":9078:9152   */\n      dup2\n      sstore\n        /* \"#utility.yul\":8965:9166   */\n    tag_187:\n      pop\n      pop\n      pop\n      pop\n        /* \"#utility.yul\":9212:9213   */\n      0x01\n        /* \"#utility.yul\":9196:9210   */\n      swap1\n      dup2\n      shl\n        /* \"#utility.yul\":9192:9214   */\n      add\n        /* \"#utility.yul\":9179:9215   */\n      swap1\n      sstore\n      pop\n        /* \"#utility.yul\":8183:9482   */\n      jump\t// out\n        /* \"#utility.yul\":9487:9941   */\n    tag_74:\n        /* \"#utility.yul\":9712:9714   */\n      0x60\n        /* \"#utility.yul\":9701:9710   */\n      dup2\n        /* \"#utility.yul\":9694:9715   */\n      mstore\n        /* \"#utility.yul\":9675:9679   */\n      0x00\n        /* \"#utility.yul\":9738:9783   */\n      tag_189\n        /* \"#utility.yul\":9779:9781   */\n      0x60\n        /* \"#utility.yul\":9768:9777   */\n      dup4\n        /* \"#utility.yul\":9764:9782   */\n      add\n        /* \"#utility.yul\":9756:9762   */\n      dup7\n        /* \"#utility.yul\":9738:9783   */\n      tag_121\n      jump\t// in\n    tag_189:\n        /* \"#utility.yul\":9831:9840   */\n      dup3\n        /* \"#utility.yul\":9823:9829   */\n      dup2\n        /* \"#utility.yul\":9819:9841   */\n      sub\n        /* \"#utility.yul\":9814:9816   */\n      0x20\n        /* \"#utility.yul\":9803:9812   */\n      dup5\n        /* \"#utility.yul\":9799:9817   */\n      add\n        /* \"#utility.yul\":9792:9842   */\n      mstore\n        /* \"#utility.yul\":9859:9892   */\n      tag_190\n        /* \"#utility.yul\":9885:9891   */\n      dup2\n        /* \"#utility.yul\":9877:9883   */\n      dup7\n        /* \"#utility.yul\":9859:9892   */\n      tag_121\n      jump\t// in\n    tag_190:\n        /* \"#utility.yul\":9851:9892   */\n      swap2\n      pop\n      pop\n        /* \"#utility.yul\":9928:9934   */\n      dup3\n        /* \"#utility.yul\":9923:9925   */\n      0x40\n        /* \"#utility.yul\":9912:9921   */\n      dup4\n        /* \"#utility.yul\":9908:9926   */\n      add\n        /* \"#utility.yul\":9901:9935   */\n      mstore\n        /* \"#utility.yul\":9487:9941   */\n      swap5\n      swap4\n      pop\n      pop\n      pop\n      pop\n      jump\t// out\n\n    auxdata: 0xa2646970667358221220e952e07dff6379ac460ca7671f5f37b10a0573f756422fa1f2bed72ae4ee38c064736f6c634300081f0033\n}\n",
				"bytecode": {
					"linkReferences": {},
					"object": "6080604052348015600e575f5ffd5b505f80546001600160a01b0319163390811782556040519091907f8be0079c531659141344cd1fd0a4f28419497f9722a3daafe3b4186f6b6457e0908290a3610e008061005a5f395ff3fe608060405234801561000f575f5ffd5b5060043610610085575f3560e01c8063834d336c11610058578063834d336c146100eb5780638da5cb5b14610100578063f2fde38b1461012a578063fd38fb151461013d575f5ffd5b806322ee6857146100895780632815f71c1461009e57806341e0c407146100b1578063642f9163146100c7575b5f5ffd5b61009c610097366004610a9f565b610172565b005b61009c6100ac366004610a9f565b6104a3565b6002546040519081526020015b60405180910390f35b6100da6100d5366004610b1d565b6106e3565b6040516100be959493929190610b62565b6100f36108dc565b6040516100be9190610ba5565b5f54610112906001600160a01b031681565b6040516001600160a01b0390911681526020016100be565b61009c610138366004610be7565b610932565b61016261014b366004610b1d565b5f9081526001602052604090206005015460ff1690565b60405190151581526020016100be565b5f546001600160a01b031633146101a45760405162461bcd60e51b815260040161019b90610c14565b60405180910390fd5b5f8581526001602052604090206005015460ff16156102055760405162461bcd60e51b815260206004820152601d60248201527f53747564656e74207265636f726420616c726561647920657869737473000000604482015260640161019b565b5f85116102605760405162461bcd60e51b8152602060048201526024808201527f53747564656e74204944206d7573742062652067726561746572207468616e206044820152637a65726f60e01b606482015260840161019b565b5f8451116102a75760405162461bcd60e51b81526020600482015260146024820152734e616d652063616e6e6f7420626520656d70747960601b604482015260640161019b565b5f83116102f65760405162461bcd60e51b815260206004820152601d60248201527f416765206d7573742062652067726561746572207468616e207a65726f000000604482015260640161019b565b5f82511161033f5760405162461bcd60e51b8152602060048201526016602482015275436f757273652063616e6e6f7420626520656d70747960501b604482015260640161019b565b60648111156103905760405162461bcd60e51b815260206004820152601f60248201527f4d61726b73206d757374206265206265747765656e203020616e642031303000604482015260640161019b565b6040805160c08101825286815260208082018781528284018790526060830186905260808301859052600160a084018190525f8a8152928190529390912082518155905191929091908201906103e69082610cda565b5060408201516002820155606082015160038201906104059082610cda565b506080820151600482015560a0909101516005909101805460ff1916911515919091179055600280546001810182555f919091527f405787fa12a823e0f2b7631cc41b3ba8828b3321ca811111fa75cd3aa3bb5ace0185905560405185907fb6767d1c89515962142b00b5577569c92a74381d9441a528911c66e0c3cea1f89061049490879086908690610d95565b60405180910390a25050505050565b5f546001600160a01b031633146104cc5760405162461bcd60e51b815260040161019b90610c14565b5f8581526001602052604090206005015460ff1661052c5760405162461bcd60e51b815260206004820152601d60248201527f53747564656e74207265636f726420646f6573206e6f74206578697374000000604482015260640161019b565b5f8451116105735760405162461bcd60e51b81526020600482015260146024820152734e616d652063616e6e6f7420626520656d70747960601b604482015260640161019b565b5f83116105c25760405162461bcd60e51b815260206004820152601d60248201527f416765206d7573742062652067726561746572207468616e207a65726f000000604482015260640161019b565b5f82511161060b5760405162461bcd60e51b8152602060048201526016602482015275436f757273652063616e6e6f7420626520656d70747960501b604482015260640161019b565b606481111561065c5760405162461bcd60e51b815260206004820152601f60248201527f4d61726b73206d757374206265206265747765656e203020616e642031303000604482015260640161019b565b5f858152600160208190526040909120016106778582610cda565b505f858152600160205260409020600281018490556003016106998382610cda565b505f85815260016020526040908190206004018290555185907ff726e970a0b6d3237257e020561c2129fb77682d774daa11c7bdd4a8a3eed0209061049490879086908690610d95565b5f8181526001602052604081206005015460609082908290829060ff1661074c5760405162461bcd60e51b815260206004820152601d60248201527f53747564656e74207265636f726420646f6573206e6f74206578697374000000604482015260640161019b565b5f868152600160208181526040808420815160c0810190925280548252928301805491939284019161077d90610c56565b80601f01602080910402602001604051908101604052809291908181526020018280546107a990610c56565b80156107f45780601f106107cb576101008083540402835291602001916107f4565b820191905f5260205f20905b8154815290600101906020018083116107d757829003601f168201915b505050505081526020016002820154815260200160038201805461081790610c56565b80601f016020809104026020016040519081016040528092919081815260200182805461084390610c56565b801561088e5780601f106108655761010080835404028352916020019161088e565b820191905f5260205f20905b81548152906001019060200180831161087157829003601f168201915b5050509183525050600482015460208083019190915260059092015460ff161515604091820152825191830151908301516060840151608090940151929b919a509850919650945092505050565b6060600280548060200260200160405190810160405280929190818152602001828054801561092857602002820191905f5260205f20905b815481526020019060010190808311610914575b5050505050905090565b5f546001600160a01b0316331461095b5760405162461bcd60e51b815260040161019b90610c14565b6001600160a01b0381166109b15760405162461bcd60e51b815260206004820181905260248201527f4e6577206f776e65722063616e6e6f74206265207a65726f2061646472657373604482015260640161019b565b5f80546001600160a01b038381166001600160a01b0319831681178455604051919092169283917f8be0079c531659141344cd1fd0a4f28419497f9722a3daafe3b4186f6b6457e09190a35050565b634e487b7160e01b5f52604160045260245ffd5b5f82601f830112610a23575f5ffd5b813567ffffffffffffffff811115610a3d57610a3d610a00565b604051601f8201601f19908116603f0116810167ffffffffffffffff81118282101715610a6c57610a6c610a00565b604052818152838201602001851015610a83575f5ffd5b816020850160208301375f918101602001919091529392505050565b5f5f5f5f5f60a08688031215610ab3575f5ffd5b85359450602086013567ffffffffffffffff811115610ad0575f5ffd5b610adc88828901610a14565b94505060408601359250606086013567ffffffffffffffff811115610aff575f5ffd5b610b0b88828901610a14565b95989497509295608001359392505050565b5f60208284031215610b2d575f5ffd5b5035919050565b5f81518084528060208401602086015e5f602082860101526020601f19601f83011685010191505092915050565b85815260a060208201525f610b7a60a0830187610b34565b8560408401528281036060840152610b928186610b34565b9150508260808301529695505050505050565b602080825282518282018190525f918401906040840190835b81811015610bdc578351835260209384019390920191600101610bbe565b509095945050505050565b5f60208284031215610bf7575f5ffd5b81356001600160a01b0381168114610c0d575f5ffd5b9392505050565b60208082526022908201527f4f6e6c79206f776e65722063616e20706572666f726d2074686973206163746960408201526137b760f11b606082015260800190565b600181811c90821680610c6a57607f821691505b602082108103610c8857634e487b7160e01b5f52602260045260245ffd5b50919050565b601f821115610cd557805f5260205f20601f840160051c81016020851015610cb35750805b601f840160051c820191505b81811015610cd2575f8155600101610cbf565b50505b505050565b815167ffffffffffffffff811115610cf457610cf4610a00565b610d0881610d028454610c56565b84610c8e565b6020601f821160018114610d3a575f8315610d235750848201515b5f19600385901b1c1916600184901b178455610cd2565b5f84815260208120601f198516915b82811015610d695787850151825560209485019460019092019101610d49565b5084821015610d8657868401515f19600387901b60f8161c191681555b50505050600190811b01905550565b606081525f610da76060830186610b34565b8281036020840152610db98186610b34565b91505082604083015294935050505056fea2646970667358221220e952e07dff6379ac460ca7671f5f37b10a0573f756422fa1f2bed72ae4ee38c064736f6c634300081f0033",
					"opcodes": "PUSH1 0x80 PUSH1 0x40 MSTORE CALLVALUE DUP1 ISZERO PUSH1 0xE JUMPI PUSH0 PUSH0 REVERT JUMPDEST POP PUSH0 DUP1 SLOAD PUSH1 0x1 PUSH1 0x1 PUSH1 0xA0 SHL SUB NOT AND CALLER SWAP1 DUP2 OR DUP3 SSTORE PUSH1 0x40 MLOAD SWAP1 SWAP2 SWAP1 PUSH32 0x8BE0079C531659141344CD1FD0A4F28419497F9722A3DAAFE3B4186F6B6457E0 SWAP1 DUP3 SWAP1 LOG3 PUSH2 0xE00 DUP1 PUSH2 0x5A PUSH0 CODECOPY PUSH0 RETURN INVALID PUSH1 0x80 PUSH1 0x40 MSTORE CALLVALUE DUP1 ISZERO PUSH2 0xF JUMPI PUSH0 PUSH0 REVERT JUMPDEST POP PUSH1 0x4 CALLDATASIZE LT PUSH2 0x85 JUMPI PUSH0 CALLDATALOAD PUSH1 0xE0 SHR DUP1 PUSH4 0x834D336C GT PUSH2 0x58 JUMPI DUP1 PUSH4 0x834D336C EQ PUSH2 0xEB JUMPI DUP1 PUSH4 0x8DA5CB5B EQ PUSH2 0x100 JUMPI DUP1 PUSH4 0xF2FDE38B EQ PUSH2 0x12A JUMPI DUP1 PUSH4 0xFD38FB15 EQ PUSH2 0x13D JUMPI PUSH0 PUSH0 REVERT JUMPDEST DUP1 PUSH4 0x22EE6857 EQ PUSH2 0x89 JUMPI DUP1 PUSH4 0x2815F71C EQ PUSH2 0x9E JUMPI DUP1 PUSH4 0x41E0C407 EQ PUSH2 0xB1 JUMPI DUP1 PUSH4 0x642F9163 EQ PUSH2 0xC7 JUMPI JUMPDEST PUSH0 PUSH0 REVERT JUMPDEST PUSH2 0x9C PUSH2 0x97 CALLDATASIZE PUSH1 0x4 PUSH2 0xA9F JUMP JUMPDEST PUSH2 0x172 JUMP JUMPDEST STOP JUMPDEST PUSH2 0x9C PUSH2 0xAC CALLDATASIZE PUSH1 0x4 PUSH2 0xA9F JUMP JUMPDEST PUSH2 0x4A3 JUMP JUMPDEST PUSH1 0x2 SLOAD PUSH1 0x40 MLOAD SWAP1 DUP2 MSTORE PUSH1 0x20 ADD JUMPDEST PUSH1 0x40 MLOAD DUP1 SWAP2 SUB SWAP1 RETURN JUMPDEST PUSH2 0xDA PUSH2 0xD5 CALLDATASIZE PUSH1 0x4 PUSH2 0xB1D JUMP JUMPDEST PUSH2 0x6E3 JUMP JUMPDEST PUSH1 0x40 MLOAD PUSH2 0xBE SWAP6 SWAP5 SWAP4 SWAP3 SWAP2 SWAP1 PUSH2 0xB62 JUMP JUMPDEST PUSH2 0xF3 PUSH2 0x8DC JUMP JUMPDEST PUSH1 0x40 MLOAD PUSH2 0xBE SWAP2 SWAP1 PUSH2 0xBA5 JUMP JUMPDEST PUSH0 SLOAD PUSH2 0x112 SWAP1 PUSH1 0x1 PUSH1 0x1 PUSH1 0xA0 SHL SUB AND DUP2 JUMP JUMPDEST PUSH1 0x40 MLOAD PUSH1 0x1 PUSH1 0x1 PUSH1 0xA0 SHL SUB SWAP1 SWAP2 AND DUP2 MSTORE PUSH1 0x20 ADD PUSH2 0xBE JUMP JUMPDEST PUSH2 0x9C PUSH2 0x138 CALLDATASIZE PUSH1 0x4 PUSH2 0xBE7 JUMP JUMPDEST PUSH2 0x932 JUMP JUMPDEST PUSH2 0x162 PUSH2 0x14B CALLDATASIZE PUSH1 0x4 PUSH2 0xB1D JUMP JUMPDEST PUSH0 SWAP1 DUP2 MSTORE PUSH1 0x1 PUSH1 0x20 MSTORE PUSH1 0x40 SWAP1 KECCAK256 PUSH1 0x5 ADD SLOAD PUSH1 0xFF AND SWAP1 JUMP JUMPDEST PUSH1 0x40 MLOAD SWAP1 ISZERO ISZERO DUP2 MSTORE PUSH1 0x20 ADD PUSH2 0xBE JUMP JUMPDEST PUSH0 SLOAD PUSH1 0x1 PUSH1 0x1 PUSH1 0xA0 SHL SUB AND CALLER EQ PUSH2 0x1A4 JUMPI PUSH1 0x40 MLOAD PUSH3 0x461BCD PUSH1 0xE5 SHL DUP2 MSTORE PUSH1 0x4 ADD PUSH2 0x19B SWAP1 PUSH2 0xC14 JUMP JUMPDEST PUSH1 0x40 MLOAD DUP1 SWAP2 SUB SWAP1 REVERT JUMPDEST PUSH0 DUP6 DUP2 MSTORE PUSH1 0x1 PUSH1 0x20 MSTORE PUSH1 0x40 SWAP1 KECCAK256 PUSH1 0x5 ADD SLOAD PUSH1 0xFF AND ISZERO PUSH2 0x205 JUMPI PUSH1 0x40 MLOAD PUSH3 0x461BCD PUSH1 0xE5 SHL DUP2 MSTORE PUSH1 0x20 PUSH1 0x4 DUP3 ADD MSTORE PUSH1 0x1D PUSH1 0x24 DUP3 ADD MSTORE PUSH32 0x53747564656E74207265636F726420616C726561647920657869737473000000 PUSH1 0x44 DUP3 ADD MSTORE PUSH1 0x64 ADD PUSH2 0x19B JUMP JUMPDEST PUSH0 DUP6 GT PUSH2 0x260 JUMPI PUSH1 0x40 MLOAD PUSH3 0x461BCD PUSH1 0xE5 SHL DUP2 MSTORE PUSH1 0x20 PUSH1 0x4 DUP3 ADD MSTORE PUSH1 0x24 DUP1 DUP3 ADD MSTORE PUSH32 0x53747564656E74204944206D7573742062652067726561746572207468616E20 PUSH1 0x44 DUP3 ADD MSTORE PUSH4 0x7A65726F PUSH1 0xE0 SHL PUSH1 0x64 DUP3 ADD MSTORE PUSH1 0x84 ADD PUSH2 0x19B JUMP JUMPDEST PUSH0 DUP5 MLOAD GT PUSH2 0x2A7 JUMPI PUSH1 0x40 MLOAD PUSH3 0x461BCD PUSH1 0xE5 SHL DUP2 MSTORE PUSH1 0x20 PUSH1 0x4 DUP3 ADD MSTORE PUSH1 0x14 PUSH1 0x24 DUP3 ADD MSTORE PUSH20 0x4E616D652063616E6E6F7420626520656D707479 PUSH1 0x60 SHL PUSH1 0x44 DUP3 ADD MSTORE PUSH1 0x64 ADD PUSH2 0x19B JUMP JUMPDEST PUSH0 DUP4 GT PUSH2 0x2F6 JUMPI PUSH1 0x40 MLOAD PUSH3 0x461BCD PUSH1 0xE5 SHL DUP2 MSTORE PUSH1 0x20 PUSH1 0x4 DUP3 ADD MSTORE PUSH1 0x1D PUSH1 0x24 DUP3 ADD MSTORE PUSH32 0x416765206D7573742062652067726561746572207468616E207A65726F000000 PUSH1 0x44 DUP3 ADD MSTORE PUSH1 0x64 ADD PUSH2 0x19B JUMP JUMPDEST PUSH0 DUP3 MLOAD GT PUSH2 0x33F JUMPI PUSH1 0x40 MLOAD PUSH3 0x461BCD PUSH1 0xE5 SHL DUP2 MSTORE PUSH1 0x20 PUSH1 0x4 DUP3 ADD MSTORE PUSH1 0x16 PUSH1 0x24 DUP3 ADD MSTORE PUSH22 0x436F757273652063616E6E6F7420626520656D707479 PUSH1 0x50 SHL PUSH1 0x44 DUP3 ADD MSTORE PUSH1 0x64 ADD PUSH2 0x19B JUMP JUMPDEST PUSH1 0x64 DUP2 GT ISZERO PUSH2 0x390 JUMPI PUSH1 0x40 MLOAD PUSH3 0x461BCD PUSH1 0xE5 SHL DUP2 MSTORE PUSH1 0x20 PUSH1 0x4 DUP3 ADD MSTORE PUSH1 0x1F PUSH1 0x24 DUP3 ADD MSTORE PUSH32 0x4D61726B73206D757374206265206265747765656E203020616E642031303000 PUSH1 0x44 DUP3 ADD MSTORE PUSH1 0x64 ADD PUSH2 0x19B JUMP JUMPDEST PUSH1 0x40 DUP1 MLOAD PUSH1 0xC0 DUP2 ADD DUP3 MSTORE DUP7 DUP2 MSTORE PUSH1 0x20 DUP1 DUP3 ADD DUP8 DUP2 MSTORE DUP3 DUP5 ADD DUP8 SWAP1 MSTORE PUSH1 0x60 DUP4 ADD DUP7 SWAP1 MSTORE PUSH1 0x80 DUP4 ADD DUP6 SWAP1 MSTORE PUSH1 0x1 PUSH1 0xA0 DUP5 ADD DUP2 SWAP1 MSTORE PUSH0 DUP11 DUP2 MSTORE SWAP3 DUP2 SWAP1 MSTORE SWAP4 SWAP1 SWAP2 KECCAK256 DUP3 MLOAD DUP2 SSTORE SWAP1 MLOAD SWAP2 SWAP3 SWAP1 SWAP2 SWAP1 DUP3 ADD SWAP1 PUSH2 0x3E6 SWAP1 DUP3 PUSH2 0xCDA JUMP JUMPDEST POP PUSH1 0x40 DUP3 ADD MLOAD PUSH1 0x2 DUP3 ADD SSTORE PUSH1 0x60 DUP3 ADD MLOAD PUSH1 0x3 DUP3 ADD SWAP1 PUSH2 0x405 SWAP1 DUP3 PUSH2 0xCDA JUMP JUMPDEST POP PUSH1 0x80 DUP3 ADD MLOAD PUSH1 0x4 DUP3 ADD SSTORE PUSH1 0xA0 SWAP1 SWAP2 ADD MLOAD PUSH1 0x5 SWAP1 SWAP2 ADD DUP1 SLOAD PUSH1 0xFF NOT AND SWAP2 ISZERO ISZERO SWAP2 SWAP1 SWAP2 OR SWAP1 SSTORE PUSH1 0x2 DUP1 SLOAD PUSH1 0x1 DUP2 ADD DUP3 SSTORE PUSH0 SWAP2 SWAP1 SWAP2 MSTORE PUSH32 0x405787FA12A823E0F2B7631CC41B3BA8828B3321CA811111FA75CD3AA3BB5ACE ADD DUP6 SWAP1 SSTORE PUSH1 0x40 MLOAD DUP6 SWAP1 PUSH32 0xB6767D1C89515962142B00B5577569C92A74381D9441A528911C66E0C3CEA1F8 SWAP1 PUSH2 0x494 SWAP1 DUP8 SWAP1 DUP7 SWAP1 DUP7 SWAP1 PUSH2 0xD95 JUMP JUMPDEST PUSH1 0x40 MLOAD DUP1 SWAP2 SUB SWAP1 LOG2 POP POP POP POP POP JUMP JUMPDEST PUSH0 SLOAD PUSH1 0x1 PUSH1 0x1 PUSH1 0xA0 SHL SUB AND CALLER EQ PUSH2 0x4CC JUMPI PUSH1 0x40 MLOAD PUSH3 0x461BCD PUSH1 0xE5 SHL DUP2 MSTORE PUSH1 0x4 ADD PUSH2 0x19B SWAP1 PUSH2 0xC14 JUMP JUMPDEST PUSH0 DUP6 DUP2 MSTORE PUSH1 0x1 PUSH1 0x20 MSTORE PUSH1 0x40 SWAP1 KECCAK256 PUSH1 0x5 ADD SLOAD PUSH1 0xFF AND PUSH2 0x52C JUMPI PUSH1 0x40 MLOAD PUSH3 0x461BCD PUSH1 0xE5 SHL DUP2 MSTORE PUSH1 0x20 PUSH1 0x4 DUP3 ADD MSTORE PUSH1 0x1D PUSH1 0x24 DUP3 ADD MSTORE PUSH32 0x53747564656E74207265636F726420646F6573206E6F74206578697374000000 PUSH1 0x44 DUP3 ADD MSTORE PUSH1 0x64 ADD PUSH2 0x19B JUMP JUMPDEST PUSH0 DUP5 MLOAD GT PUSH2 0x573 JUMPI PUSH1 0x40 MLOAD PUSH3 0x461BCD PUSH1 0xE5 SHL DUP2 MSTORE PUSH1 0x20 PUSH1 0x4 DUP3 ADD MSTORE PUSH1 0x14 PUSH1 0x24 DUP3 ADD MSTORE PUSH20 0x4E616D652063616E6E6F7420626520656D707479 PUSH1 0x60 SHL PUSH1 0x44 DUP3 ADD MSTORE PUSH1 0x64 ADD PUSH2 0x19B JUMP JUMPDEST PUSH0 DUP4 GT PUSH2 0x5C2 JUMPI PUSH1 0x40 MLOAD PUSH3 0x461BCD PUSH1 0xE5 SHL DUP2 MSTORE PUSH1 0x20 PUSH1 0x4 DUP3 ADD MSTORE PUSH1 0x1D PUSH1 0x24 DUP3 ADD MSTORE PUSH32 0x416765206D7573742062652067726561746572207468616E207A65726F000000 PUSH1 0x44 DUP3 ADD MSTORE PUSH1 0x64 ADD PUSH2 0x19B JUMP JUMPDEST PUSH0 DUP3 MLOAD GT PUSH2 0x60B JUMPI PUSH1 0x40 MLOAD PUSH3 0x461BCD PUSH1 0xE5 SHL DUP2 MSTORE PUSH1 0x20 PUSH1 0x4 DUP3 ADD MSTORE PUSH1 0x16 PUSH1 0x24 DUP3 ADD MSTORE PUSH22 0x436F757273652063616E6E6F7420626520656D707479 PUSH1 0x50 SHL PUSH1 0x44 DUP3 ADD MSTORE PUSH1 0x64 ADD PUSH2 0x19B JUMP JUMPDEST PUSH1 0x64 DUP2 GT ISZERO PUSH2 0x65C JUMPI PUSH1 0x40 MLOAD PUSH3 0x461BCD PUSH1 0xE5 SHL DUP2 MSTORE PUSH1 0x20 PUSH1 0x4 DUP3 ADD MSTORE PUSH1 0x1F PUSH1 0x24 DUP3 ADD MSTORE PUSH32 0x4D61726B73206D757374206265206265747765656E203020616E642031303000 PUSH1 0x44 DUP3 ADD MSTORE PUSH1 0x64 ADD PUSH2 0x19B JUMP JUMPDEST PUSH0 DUP6 DUP2 MSTORE PUSH1 0x1 PUSH1 0x20 DUP2 SWAP1 MSTORE PUSH1 0x40 SWAP1 SWAP2 KECCAK256 ADD PUSH2 0x677 DUP6 DUP3 PUSH2 0xCDA JUMP JUMPDEST POP PUSH0 DUP6 DUP2 MSTORE PUSH1 0x1 PUSH1 0x20 MSTORE PUSH1 0x40 SWAP1 KECCAK256 PUSH1 0x2 DUP2 ADD DUP5 SWAP1 SSTORE PUSH1 0x3 ADD PUSH2 0x699 DUP4 DUP3 PUSH2 0xCDA JUMP JUMPDEST POP PUSH0 DUP6 DUP2 MSTORE PUSH1 0x1 PUSH1 0x20 MSTORE PUSH1 0x40 SWAP1 DUP2 SWAP1 KECCAK256 PUSH1 0x4 ADD DUP3 SWAP1 SSTORE MLOAD DUP6 SWAP1 PUSH32 0xF726E970A0B6D3237257E020561C2129FB77682D774DAA11C7BDD4A8A3EED020 SWAP1 PUSH2 0x494 SWAP1 DUP8 SWAP1 DUP7 SWAP1 DUP7 SWAP1 PUSH2 0xD95 JUMP JUMPDEST PUSH0 DUP2 DUP2 MSTORE PUSH1 0x1 PUSH1 0x20 MSTORE PUSH1 0x40 DUP2 KECCAK256 PUSH1 0x5 ADD SLOAD PUSH1 0x60 SWAP1 DUP3 SWAP1 DUP3 SWAP1 DUP3 SWAP1 PUSH1 0xFF AND PUSH2 0x74C JUMPI PUSH1 0x40 MLOAD PUSH3 0x461BCD PUSH1 0xE5 SHL DUP2 MSTORE PUSH1 0x20 PUSH1 0x4 DUP3 ADD MSTORE PUSH1 0x1D PUSH1 0x24 DUP3 ADD MSTORE PUSH32 0x53747564656E74207265636F726420646F6573206E6F74206578697374000000 PUSH1 0x44 DUP3 ADD MSTORE PUSH1 0x64 ADD PUSH2 0x19B JUMP JUMPDEST PUSH0 DUP7 DUP2 MSTORE PUSH1 0x1 PUSH1 0x20 DUP2 DUP2 MSTORE PUSH1 0x40 DUP1 DUP5 KECCAK256 DUP2 MLOAD PUSH1 0xC0 DUP2 ADD SWAP1 SWAP3 MSTORE DUP1 SLOAD DUP3 MSTORE SWAP3 DUP4 ADD DUP1 SLOAD SWAP2 SWAP4 SWAP3 DUP5 ADD SWAP2 PUSH2 0x77D SWAP1 PUSH2 0xC56 JUMP JUMPDEST DUP1 PUSH1 0x1F ADD PUSH1 0x20 DUP1 SWAP2 DIV MUL PUSH1 0x20 ADD PUSH1 0x40 MLOAD SWAP1 DUP2 ADD PUSH1 0x40 MSTORE DUP1 SWAP3 SWAP2 SWAP1 DUP2 DUP2 MSTORE PUSH1 0x20 ADD DUP3 DUP1 SLOAD PUSH2 0x7A9 SWAP1 PUSH2 0xC56 JUMP JUMPDEST DUP1 ISZERO PUSH2 0x7F4 JUMPI DUP1 PUSH1 0x1F LT PUSH2 0x7CB JUMPI PUSH2 0x100 DUP1 DUP4 SLOAD DIV MUL DUP4 MSTORE SWAP2 PUSH1 0x20 ADD SWAP2 PUSH2 0x7F4 JUMP JUMPDEST DUP3 ADD SWAP2 SWAP1 PUSH0 MSTORE PUSH1 0x20 PUSH0 KECCAK256 SWAP1 JUMPDEST DUP2 SLOAD DUP2 MSTORE SWAP1 PUSH1 0x1 ADD SWAP1 PUSH1 0x20 ADD DUP1 DUP4 GT PUSH2 0x7D7 JUMPI DUP3 SWAP1 SUB PUSH1 0x1F AND DUP3 ADD SWAP2 JUMPDEST POP POP POP POP POP DUP2 MSTORE PUSH1 0x20 ADD PUSH1 0x2 DUP3 ADD SLOAD DUP2 MSTORE PUSH1 0x20 ADD PUSH1 0x3 DUP3 ADD DUP1 SLOAD PUSH2 0x817 SWAP1 PUSH2 0xC56 JUMP JUMPDEST DUP1 PUSH1 0x1F ADD PUSH1 0x20 DUP1 SWAP2 DIV MUL PUSH1 0x20 ADD PUSH1 0x40 MLOAD SWAP1 DUP2 ADD PUSH1 0x40 MSTORE DUP1 SWAP3 SWAP2 SWAP1 DUP2 DUP2 MSTORE PUSH1 0x20 ADD DUP3 DUP1 SLOAD PUSH2 0x843 SWAP1 PUSH2 0xC56 JUMP JUMPDEST DUP1 ISZERO PUSH2 0x88E JUMPI DUP1 PUSH1 0x1F LT PUSH2 0x865 JUMPI PUSH2 0x100 DUP1 DUP4 SLOAD DIV MUL DUP4 MSTORE SWAP2 PUSH1 0x20 ADD SWAP2 PUSH2 0x88E JUMP JUMPDEST DUP3 ADD SWAP2 SWAP1 PUSH0 MSTORE PUSH1 0x20 PUSH0 KECCAK256 SWAP1 JUMPDEST DUP2 SLOAD DUP2 MSTORE SWAP1 PUSH1 0x1 ADD SWAP1 PUSH1 0x20 ADD DUP1 DUP4 GT PUSH2 0x871 JUMPI DUP3 SWAP1 SUB PUSH1 0x1F AND DUP3 ADD SWAP2 JUMPDEST POP POP POP SWAP2 DUP4 MSTORE POP POP PUSH1 0x4 DUP3 ADD SLOAD PUSH1 0x20 DUP1 DUP4 ADD SWAP2 SWAP1 SWAP2 MSTORE PUSH1 0x5 SWAP1 SWAP3 ADD SLOAD PUSH1 0xFF AND ISZERO ISZERO PUSH1 0x40 SWAP2 DUP3 ADD MSTORE DUP3 MLOAD SWAP2 DUP4 ADD MLOAD SWAP1 DUP4 ADD MLOAD PUSH1 0x60 DUP5 ADD MLOAD PUSH1 0x80 SWAP1 SWAP5 ADD MLOAD SWAP3 SWAP12 SWAP2 SWAP11 POP SWAP9 POP SWAP2 SWAP7 POP SWAP5 POP SWAP3 POP POP POP JUMP JUMPDEST PUSH1 0x60 PUSH1 0x2 DUP1 SLOAD DUP1 PUSH1 0x20 MUL PUSH1 0x20 ADD PUSH1 0x40 MLOAD SWAP1 DUP2 ADD PUSH1 0x40 MSTORE DUP1 SWAP3 SWAP2 SWAP1 DUP2 DUP2 MSTORE PUSH1 0x20 ADD DUP3 DUP1 SLOAD DUP1 ISZERO PUSH2 0x928 JUMPI PUSH1 0x20 MUL DUP3 ADD SWAP2 SWAP1 PUSH0 MSTORE PUSH1 0x20 PUSH0 KECCAK256 SWAP1 JUMPDEST DUP2 SLOAD DUP2 MSTORE PUSH1 0x20 ADD SWAP1 PUSH1 0x1 ADD SWAP1 DUP1 DUP4 GT PUSH2 0x914 JUMPI JUMPDEST POP POP POP POP POP SWAP1 POP SWAP1 JUMP JUMPDEST PUSH0 SLOAD PUSH1 0x1 PUSH1 0x1 PUSH1 0xA0 SHL SUB AND CALLER EQ PUSH2 0x95B JUMPI PUSH1 0x40 MLOAD PUSH3 0x461BCD PUSH1 0xE5 SHL DUP2 MSTORE PUSH1 0x4 ADD PUSH2 0x19B SWAP1 PUSH2 0xC14 JUMP JUMPDEST PUSH1 0x1 PUSH1 0x1 PUSH1 0xA0 SHL SUB DUP2 AND PUSH2 0x9B1 JUMPI PUSH1 0x40 MLOAD PUSH3 0x461BCD PUSH1 0xE5 SHL DUP2 MSTORE PUSH1 0x20 PUSH1 0x4 DUP3 ADD DUP2 SWAP1 MSTORE PUSH1 0x24 DUP3 ADD MSTORE PUSH32 0x4E6577206F776E65722063616E6E6F74206265207A65726F2061646472657373 PUSH1 0x44 DUP3 ADD MSTORE PUSH1 0x64 ADD PUSH2 0x19B JUMP JUMPDEST PUSH0 DUP1 SLOAD PUSH1 0x1 PUSH1 0x1 PUSH1 0xA0 SHL SUB DUP4 DUP2 AND PUSH1 0x1 PUSH1 0x1 PUSH1 0xA0 SHL SUB NOT DUP4 AND DUP2 OR DUP5 SSTORE PUSH1 0x40 MLOAD SWAP2 SWAP1 SWAP3 AND SWAP3 DUP4 SWAP2 PUSH32 0x8BE0079C531659141344CD1FD0A4F28419497F9722A3DAAFE3B4186F6B6457E0 SWAP2 SWAP1 LOG3 POP POP JUMP JUMPDEST PUSH4 0x4E487B71 PUSH1 0xE0 SHL PUSH0 MSTORE PUSH1 0x41 PUSH1 0x4 MSTORE PUSH1 0x24 PUSH0 REVERT JUMPDEST PUSH0 DUP3 PUSH1 0x1F DUP4 ADD SLT PUSH2 0xA23 JUMPI PUSH0 PUSH0 REVERT JUMPDEST DUP2 CALLDATALOAD PUSH8 0xFFFFFFFFFFFFFFFF DUP2 GT ISZERO PUSH2 0xA3D JUMPI PUSH2 0xA3D PUSH2 0xA00 JUMP JUMPDEST PUSH1 0x40 MLOAD PUSH1 0x1F DUP3 ADD PUSH1 0x1F NOT SWAP1 DUP2 AND PUSH1 0x3F ADD AND DUP2 ADD PUSH8 0xFFFFFFFFFFFFFFFF DUP2 GT DUP3 DUP3 LT OR ISZERO PUSH2 0xA6C JUMPI PUSH2 0xA6C PUSH2 0xA00 JUMP JUMPDEST PUSH1 0x40 MSTORE DUP2 DUP2 MSTORE DUP4 DUP3 ADD PUSH1 0x20 ADD DUP6 LT ISZERO PUSH2 0xA83 JUMPI PUSH0 PUSH0 REVERT JUMPDEST DUP2 PUSH1 0x20 DUP6 ADD PUSH1 0x20 DUP4 ADD CALLDATACOPY PUSH0 SWAP2 DUP2 ADD PUSH1 0x20 ADD SWAP2 SWAP1 SWAP2 MSTORE SWAP4 SWAP3 POP POP POP JUMP JUMPDEST PUSH0 PUSH0 PUSH0 PUSH0 PUSH0 PUSH1 0xA0 DUP7 DUP9 SUB SLT ISZERO PUSH2 0xAB3 JUMPI PUSH0 PUSH0 REVERT JUMPDEST DUP6 CALLDATALOAD SWAP5 POP PUSH1 0x20 DUP7 ADD CALLDATALOAD PUSH8 0xFFFFFFFFFFFFFFFF DUP2 GT ISZERO PUSH2 0xAD0 JUMPI PUSH0 PUSH0 REVERT JUMPDEST PUSH2 0xADC DUP9 DUP3 DUP10 ADD PUSH2 0xA14 JUMP JUMPDEST SWAP5 POP POP PUSH1 0x40 DUP7 ADD CALLDATALOAD SWAP3 POP PUSH1 0x60 DUP7 ADD CALLDATALOAD PUSH8 0xFFFFFFFFFFFFFFFF DUP2 GT ISZERO PUSH2 0xAFF JUMPI PUSH0 PUSH0 REVERT JUMPDEST PUSH2 0xB0B DUP9 DUP3 DUP10 ADD PUSH2 0xA14 JUMP JUMPDEST SWAP6 SWAP9 SWAP5 SWAP8 POP SWAP3 SWAP6 PUSH1 0x80 ADD CALLDATALOAD SWAP4 SWAP3 POP POP POP JUMP JUMPDEST PUSH0 PUSH1 0x20 DUP3 DUP5 SUB SLT ISZERO PUSH2 0xB2D JUMPI PUSH0 PUSH0 REVERT JUMPDEST POP CALLDATALOAD SWAP2 SWAP1 POP JUMP JUMPDEST PUSH0 DUP2 MLOAD DUP1 DUP5 MSTORE DUP1 PUSH1 0x20 DUP5 ADD PUSH1 0x20 DUP7 ADD MCOPY PUSH0 PUSH1 0x20 DUP3 DUP7 ADD ADD MSTORE PUSH1 0x20 PUSH1 0x1F NOT PUSH1 0x1F DUP4 ADD AND DUP6 ADD ADD SWAP2 POP POP SWAP3 SWAP2 POP POP JUMP JUMPDEST DUP6 DUP2 MSTORE PUSH1 0xA0 PUSH1 0x20 DUP3 ADD MSTORE PUSH0 PUSH2 0xB7A PUSH1 0xA0 DUP4 ADD DUP8 PUSH2 0xB34 JUMP JUMPDEST DUP6 PUSH1 0x40 DUP5 ADD MSTORE DUP3 DUP2 SUB PUSH1 0x60 DUP5 ADD MSTORE PUSH2 0xB92 DUP2 DUP7 PUSH2 0xB34 JUMP JUMPDEST SWAP2 POP POP DUP3 PUSH1 0x80 DUP4 ADD MSTORE SWAP7 SWAP6 POP POP POP POP POP POP JUMP JUMPDEST PUSH1 0x20 DUP1 DUP3 MSTORE DUP3 MLOAD DUP3 DUP3 ADD DUP2 SWAP1 MSTORE PUSH0 SWAP2 DUP5 ADD SWAP1 PUSH1 0x40 DUP5 ADD SWAP1 DUP4 JUMPDEST DUP2 DUP2 LT ISZERO PUSH2 0xBDC JUMPI DUP4 MLOAD DUP4 MSTORE PUSH1 0x20 SWAP4 DUP5 ADD SWAP4 SWAP1 SWAP3 ADD SWAP2 PUSH1 0x1 ADD PUSH2 0xBBE JUMP JUMPDEST POP SWAP1 SWAP6 SWAP5 POP POP POP POP POP JUMP JUMPDEST PUSH0 PUSH1 0x20 DUP3 DUP5 SUB SLT ISZERO PUSH2 0xBF7 JUMPI PUSH0 PUSH0 REVERT JUMPDEST DUP2 CALLDATALOAD PUSH1 0x1 PUSH1 0x1 PUSH1 0xA0 SHL SUB DUP2 AND DUP2 EQ PUSH2 0xC0D JUMPI PUSH0 PUSH0 REVERT JUMPDEST SWAP4 SWAP3 POP POP POP JUMP JUMPDEST PUSH1 0x20 DUP1 DUP3 MSTORE PUSH1 0x22 SWAP1 DUP3 ADD MSTORE PUSH32 0x4F6E6C79206F776E65722063616E20706572666F726D20746869732061637469 PUSH1 0x40 DUP3 ADD MSTORE PUSH2 0x37B7 PUSH1 0xF1 SHL PUSH1 0x60 DUP3 ADD MSTORE PUSH1 0x80 ADD SWAP1 JUMP JUMPDEST PUSH1 0x1 DUP2 DUP2 SHR SWAP1 DUP3 AND DUP1 PUSH2 0xC6A JUMPI PUSH1 0x7F DUP3 AND SWAP2 POP JUMPDEST PUSH1 0x20 DUP3 LT DUP2 SUB PUSH2 0xC88 JUMPI PUSH4 0x4E487B71 PUSH1 0xE0 SHL PUSH0 MSTORE PUSH1 0x22 PUSH1 0x4 MSTORE PUSH1 0x24 PUSH0 REVERT JUMPDEST POP SWAP2 SWAP1 POP JUMP JUMPDEST PUSH1 0x1F DUP3 GT ISZERO PUSH2 0xCD5 JUMPI DUP1 PUSH0 MSTORE PUSH1 0x20 PUSH0 KECCAK256 PUSH1 0x1F DUP5 ADD PUSH1 0x5 SHR DUP2 ADD PUSH1 0x20 DUP6 LT ISZERO PUSH2 0xCB3 JUMPI POP DUP1 JUMPDEST PUSH1 0x1F DUP5 ADD PUSH1 0x5 SHR DUP3 ADD SWAP2 POP JUMPDEST DUP2 DUP2 LT ISZERO PUSH2 0xCD2 JUMPI PUSH0 DUP2 SSTORE PUSH1 0x1 ADD PUSH2 0xCBF JUMP JUMPDEST POP POP JUMPDEST POP POP POP JUMP JUMPDEST DUP2 MLOAD PUSH8 0xFFFFFFFFFFFFFFFF DUP2 GT ISZERO PUSH2 0xCF4 JUMPI PUSH2 0xCF4 PUSH2 0xA00 JUMP JUMPDEST PUSH2 0xD08 DUP2 PUSH2 0xD02 DUP5 SLOAD PUSH2 0xC56 JUMP JUMPDEST DUP5 PUSH2 0xC8E JUMP JUMPDEST PUSH1 0x20 PUSH1 0x1F DUP3 GT PUSH1 0x1 DUP2 EQ PUSH2 0xD3A JUMPI PUSH0 DUP4 ISZERO PUSH2 0xD23 JUMPI POP DUP5 DUP3 ADD MLOAD JUMPDEST PUSH0 NOT PUSH1 0x3 DUP6 SWAP1 SHL SHR NOT AND PUSH1 0x1 DUP5 SWAP1 SHL OR DUP5 SSTORE PUSH2 0xCD2 JUMP JUMPDEST PUSH0 DUP5 DUP2 MSTORE PUSH1 0x20 DUP2 KECCAK256 PUSH1 0x1F NOT DUP6 AND SWAP2 JUMPDEST DUP3 DUP2 LT ISZERO PUSH2 0xD69 JUMPI DUP8 DUP6 ADD MLOAD DUP3 SSTORE PUSH1 0x20 SWAP5 DUP6 ADD SWAP5 PUSH1 0x1 SWAP1 SWAP3 ADD SWAP2 ADD PUSH2 0xD49 JUMP JUMPDEST POP DUP5 DUP3 LT ISZERO PUSH2 0xD86 JUMPI DUP7 DUP5 ADD MLOAD PUSH0 NOT PUSH1 0x3 DUP8 SWAP1 SHL PUSH1 0xF8 AND SHR NOT AND DUP2 SSTORE JUMPDEST POP POP POP POP PUSH1 0x1 SWAP1 DUP2 SHL ADD SWAP1 SSTORE POP JUMP JUMPDEST PUSH1 0x60 DUP2 MSTORE PUSH0 PUSH2 0xDA7 PUSH1 0x60 DUP4 ADD DUP7 PUSH2 0xB34 JUMP JUMPDEST DUP3 DUP2 SUB PUSH1 0x20 DUP5 ADD MSTORE PUSH2 0xDB9 DUP2 DUP7 PUSH2 0xB34 JUMP JUMPDEST SWAP2 POP POP DUP3 PUSH1 0x40 DUP4 ADD MSTORE SWAP5 SWAP4 POP POP POP POP JUMP INVALID LOG2 PUSH5 0x6970667358 0x22 SLT KECCAK256 0xE9 MSTORE RJUMP 0x7DFF PUSH4 0x79AC460C 0xA7 PUSH8 0x1F5F37B10A0573F7 JUMP TIMESTAMP 0x2F LOG1 CALLCODE 0xBE 0xD7 0x2A RETF RETURNCONTRACT 0x38 0xC0 PUSH5 0x736F6C6343 STOP ADDMOD 0x1F STOP CALLER "
				},
				"gasEstimates": {
					"creation": {
						"codeDepositCost": "716800",
						"executionCost": "26512",
						"totalCost": "743312"
					},
					"external": {
						"addStudent(uint256,string,uint256,string,uint256)": "infinite",
						"getAllStudentIds()": "infinite",
						"getStudent(uint256)": "infinite",
						"getStudentCount()": "2313",
						"owner()": "2357",
						"studentExists(uint256)": "2519",
						"transferOwnership(address)": "28285",
						"updateStudent(uint256,string,uint256,string,uint256)": "infinite"
					}
				},
				"methodIdentifiers": {
					"addStudent(uint256,string,uint256,string,uint256)": "22ee6857",
					"getAllStudentIds()": "834d336c",
					"getStudent(uint256)": "642f9163",
					"getStudentCount()": "41e0c407",
					"owner()": "8da5cb5b",
					"studentExists(uint256)": "fd38fb15",
					"transferOwnership(address)": "f2fde38b",
					"updateStudent(uint256,string,uint256,string,uint256)": "2815f71c"
				}
			},
			"storageLayout": {
				"storage": [
					{
						"astId": 4,
						"contract": ".git/MyContracts/StudentRecord.sol:StudentRecord",
						"label": "owner",
						"offset": 0,
						"slot": "0",
						"type": "t_address"
					},
					{
						"astId": 22,
						"contract": ".git/MyContracts/StudentRecord.sol:StudentRecord",
						"label": "students",
						"offset": 0,
						"slot": "1",
						"type": "t_mapping(t_uint256,t_struct(Student)17_storage)"
					},
					{
						"astId": 25,
						"contract": ".git/MyContracts/StudentRecord.sol:StudentRecord",
						"label": "studentIds",
						"offset": 0,
						"slot": "2",
						"type": "t_array(t_uint256)dyn_storage"
					}
				],
				"types": {
					"t_address": {
						"encoding": "inplace",
						"label": "address",
						"numberOfBytes": "20"
					},
					"t_array(t_uint256)dyn_storage": {
						"base": "t_uint256",
						"encoding": "dynamic_array",
						"label": "uint256[]",
						"numberOfBytes": "32"
					},
					"t_bool": {
						"encoding": "inplace",
						"label": "bool",
						"numberOfBytes": "1"
					},
					"t_mapping(t_uint256,t_struct(Student)17_storage)": {
						"encoding": "mapping",
						"key": "t_uint256",
						"label": "mapping(uint256 => struct StudentRecord.Student)",
						"numberOfBytes": "32",
						"value": "t_struct(Student)17_storage"
					},
					"t_string_storage": {
						"encoding": "bytes",
						"label": "string",
						"numberOfBytes": "32"
					},
					"t_struct(Student)17_storage": {
						"encoding": "inplace",
						"label": "struct StudentRecord.Student",
						"members": [
							{
								"astId": 6,
								"contract": ".git/MyContracts/StudentRecord.sol:StudentRecord",
								"label": "id",
								"offset": 0,
								"slot": "0",
								"type": "t_uint256"
							},
							{
								"astId": 8,
								"contract": ".git/MyContracts/StudentRecord.sol:StudentRecord",
								"label": "name",
								"offset": 0,
								"slot": "1",
								"type": "t_string_storage"
							},
							{
								"astId": 10,
								"contract": ".git/MyContracts/StudentRecord.sol:StudentRecord",
								"label": "age",
								"offset": 0,
								"slot": "2",
								"type": "t_uint256"
							},
							{
								"astId": 12,
								"contract": ".git/MyContracts/StudentRecord.sol:StudentRecord",
								"label": "course",
								"offset": 0,
								"slot": "3",
								"type": "t_string_storage"
							},
							{
								"astId": 14,
								"contract": ".git/MyContracts/StudentRecord.sol:StudentRecord",
								"label": "marks",
								"offset": 0,
								"slot": "4",
								"type": "t_uint256"
							},
							{
								"astId": 16,
								"contract": ".git/MyContracts/StudentRecord.sol:StudentRecord",
								"label": "exists",
								"offset": 0,
								"slot": "5",
								"type": "t_bool"
							}
						],
						"numberOfBytes": "192"
					},
					"t_uint256": {
						"encoding": "inplace",
						"label": "uint256",
						"numberOfBytes": "32"
					}
				}
			},
			"userdoc": {
				"kind": "user",
				"methods": {},
				"version": 1
			}
		}
	}
}