{
	".git/MyContracts/KenyaProcurementTransparency.sol": {
		"KenyaProcurementTransparency": {
			"abi": [
				{
					"inputs": [],
					"stateMutability": "payable",
					"type": "constructor"
				},
				{
					"inputs": [],
					"name": "AlreadyCurrentAdmin",
					"type": "error"
				},
				{
					"inputs": [],
					"name": "BidAlreadyRevealed",
					"type": "error"
				},
				{
					"inputs": [],
					"name": "BidAlreadySubmitted",
					"type": "error"
				},
				{
					"inputs": [],
					"name": "BidderAlreadyRegistered",
					"type": "error"
				},
				{
					"inputs": [],
					"name": "BidderLimitReached",
					"type": "error"
				},
				{
					"inputs": [],
					"name": "ContractAmountMustBeGreaterThanZero",
					"type": "error"
				},
				{
					"inputs": [],
					"name": "DeadlineMustBeInFuture",
					"type": "error"
				},
				{
					"inputs": [],
					"name": "DescriptionRequired",
					"type": "error"
				},
				{
					"inputs": [],
					"name": "DocumentTypeRequired",
					"type": "error"
				},
				{
					"inputs": [],
					"name": "InspectorNotAssigned",
					"type": "error"
				},
				{
					"inputs": [],
					"name": "InspectorStageLocked",
					"type": "error"
				},
				{
					"inputs": [],
					"name": "InsufficientContractBalance",
					"type": "error"
				},
				{
					"inputs": [],
					"name": "InvalidAddress",
					"type": "error"
				},
				{
					"inputs": [],
					"name": "InvalidDay",
					"type": "error"
				},
				{
					"inputs": [],
					"name": "InvalidDeliveryEvidenceHash",
					"type": "error"
				},
				{
					"inputs": [],
					"name": "InvalidHour",
					"type": "error"
				},
				{
					"inputs": [],
					"name": "InvalidInspectionReportHash",
					"type": "error"
				},
				{
					"inputs": [],
					"name": "InvalidMinute",
					"type": "error"
				},
				{
					"inputs": [],
					"name": "InvalidMonth",
					"type": "error"
				},
				{
					"inputs": [],
					"name": "InvalidSealedBidHash",
					"type": "error"
				},
				{
					"inputs": [],
					"name": "InvalidTenderStage",
					"type": "error"
				},
				{
					"inputs": [],
					"name": "InvalidUtcOffset",
					"type": "error"
				},
				{
					"inputs": [],
					"name": "InvalidYear",
					"type": "error"
				},
				{
					"inputs": [],
					"name": "LowestBidNotSet",
					"type": "error"
				},
				{
					"inputs": [],
					"name": "NoBidSubmitted",
					"type": "error"
				},
				{
					"inputs": [],
					"name": "NoValidRevealedBids",
					"type": "error"
				},
				{
					"inputs": [],
					"name": "NoWinnerSelected",
					"type": "error"
				},
				{
					"inputs": [],
					"name": "NotPendingAdmin",
					"type": "error"
				},
				{
					"inputs": [],
					"name": "NotRegisteredBidder",
					"type": "error"
				},
				{
					"inputs": [],
					"name": "OnlyAdmin",
					"type": "error"
				},
				{
					"inputs": [],
					"name": "OnlyInspector",
					"type": "error"
				},
				{
					"inputs": [],
					"name": "OnlyWinner",
					"type": "error"
				},
				{
					"inputs": [],
					"name": "PaymentAlreadyReleased",
					"type": "error"
				},
				{
					"inputs": [],
					"name": "PaymentTransferFailed",
					"type": "error"
				},
				{
					"inputs": [],
					"name": "ReasonRequired",
					"type": "error"
				},
				{
					"inputs": [],
					"name": "ReentrancyDetected",
					"type": "error"
				},
				{
					"inputs": [],
					"name": "ReferenceNumberRequired",
					"type": "error"
				},
				{
					"inputs": [],
					"name": "RevealMismatch",
					"type": "error"
				},
				{
					"inputs": [],
					"name": "SubmissionDeadlineNotReached",
					"type": "error"
				},
				{
					"inputs": [],
					"name": "SubmissionDeadlinePassed",
					"type": "error"
				},
				{
					"inputs": [],
					"name": "TenderAlreadyCreated",
					"type": "error"
				},
				{
					"inputs": [],
					"name": "TenderDoesNotExist",
					"type": "error"
				},
				{
					"inputs": [],
					"name": "WinnerNotSet",
					"type": "error"
				},
				{
					"anonymous": false,
					"inputs": [
						{
							"indexed": true,
							"internalType": "address",
							"name": "currentAdmin",
							"type": "address"
						},
						{
							"indexed": true,
							"internalType": "address",
							"name": "newAdmin",
							"type": "address"
						}
					],
					"name": "AdminTransferInitiated",
					"type": "event"
				},
				{
					"anonymous": false,
					"inputs": [
						{
							"indexed": true,
							"internalType": "address",
							"name": "oldAdmin",
							"type": "address"
						},
						{
							"indexed": true,
							"internalType": "address",
							"name": "newAdmin",
							"type": "address"
						}
					],
					"name": "AdminTransferred",
					"type": "event"
				},
				{
					"anonymous": false,
					"inputs": [
						{
							"indexed": false,
							"internalType": "address",
							"name": "bidder",
							"type": "address"
						},
						{
							"indexed": false,
							"internalType": "uint256",
							"name": "amount",
							"type": "uint256"
						}
					],
					"name": "BidRevealed",
					"type": "event"
				},
				{
					"anonymous": false,
					"inputs": [
						{
							"indexed": false,
							"internalType": "address",
							"name": "bidder",
							"type": "address"
						}
					],
					"name": "BidSubmitted",
					"type": "event"
				},
				{
					"anonymous": false,
					"inputs": [
						{
							"indexed": false,
							"internalType": "address",
							"name": "bidder",
							"type": "address"
						},
						{
							"indexed": false,
							"internalType": "string",
							"name": "description",
							"type": "string"
						}
					],
					"name": "BidderRegistered",
					"type": "event"
				},
				{
					"anonymous": false,
					"inputs": [
						{
							"indexed": true,
							"internalType": "address",
							"name": "funder",
							"type": "address"
						},
						{
							"indexed": false,
							"internalType": "uint256",
							"name": "amount",
							"type": "uint256"
						},
						{
							"indexed": false,
							"internalType": "uint256",
							"name": "newBalance",
							"type": "uint256"
						}
					],
					"name": "ContractFunded",
					"type": "event"
				},
				{
					"anonymous": false,
					"inputs": [
						{
							"indexed": false,
							"internalType": "address",
							"name": "inspector",
							"type": "address"
						},
						{
							"indexed": false,
							"internalType": "bytes32",
							"name": "inspectionReportHash",
							"type": "bytes32"
						}
					],
					"name": "DeliveryAccepted",
					"type": "event"
				},
				{
					"anonymous": false,
					"inputs": [
						{
							"indexed": false,
							"internalType": "address",
							"name": "inspector",
							"type": "address"
						},
						{
							"indexed": false,
							"internalType": "string",
							"name": "reason",
							"type": "string"
						}
					],
					"name": "DeliveryRejected",
					"type": "event"
				},
				{
					"anonymous": false,
					"inputs": [
						{
							"indexed": false,
							"internalType": "address",
							"name": "winner",
							"type": "address"
						},
						{
							"indexed": false,
							"internalType": "bytes32",
							"name": "deliveryEvidenceHash",
							"type": "bytes32"
						}
					],
					"name": "DeliverySubmitted",
					"type": "event"
				},
				{
					"anonymous": false,
					"inputs": [
						{
							"indexed": false,
							"internalType": "address",
							"name": "inspector",
							"type": "address"
						}
					],
					"name": "InspectorAssigned",
					"type": "event"
				},
				{
					"anonymous": false,
					"inputs": [
						{
							"indexed": false,
							"internalType": "address",
							"name": "winner",
							"type": "address"
						},
						{
							"indexed": false,
							"internalType": "uint256",
							"name": "amount",
							"type": "uint256"
						}
					],
					"name": "PaymentReleased",
					"type": "event"
				},
				{
					"anonymous": false,
					"inputs": [],
					"name": "RevealPhaseOpened",
					"type": "event"
				},
				{
					"anonymous": false,
					"inputs": [
						{
							"indexed": false,
							"internalType": "address",
							"name": "winner",
							"type": "address"
						},
						{
							"indexed": false,
							"internalType": "uint256",
							"name": "amount",
							"type": "uint256"
						}
					],
					"name": "TenderAwarded",
					"type": "event"
				},
				{
					"anonymous": false,
					"inputs": [
						{
							"indexed": false,
							"internalType": "string",
							"name": "tenderNumber",
							"type": "string"
						},
						{
							"indexed": false,
							"internalType": "string",
							"name": "title",
							"type": "string"
						},
						{
							"indexed": false,
							"internalType": "uint256",
							"name": "submissionDeadline",
							"type": "uint256"
						},
						{
							"indexed": false,
							"internalType": "uint256",
							"name": "contractAmount",
							"type": "uint256"
						}
					],
					"name": "TenderCreated",
					"type": "event"
				},
				{
					"anonymous": false,
					"inputs": [
						{
							"indexed": false,
							"internalType": "address",
							"name": "winner",
							"type": "address"
						},
						{
							"indexed": false,
							"internalType": "uint256",
							"name": "lowestBid",
							"type": "uint256"
						}
					],
					"name": "TenderEvaluated",
					"type": "event"
				},
				{
					"inputs": [],
					"name": "MAX_BIDDERS",
					"outputs": [
						{
							"internalType": "uint256",
							"name": "",
							"type": "uint256"
						}
					],
					"stateMutability": "view",
					"type": "function"
				},
				{
					"inputs": [],
					"name": "acceptAdminRole",
					"outputs": [],
					"stateMutability": "nonpayable",
					"type": "function"
				},
				{
					"inputs": [
						{
							"internalType": "bytes32",
							"name": "_inspectionReportHash",
							"type": "bytes32"
						}
					],
					"name": "acceptDelivery",
					"outputs": [],
					"stateMutability": "nonpayable",
					"type": "function"
				},
				{
					"inputs": [],
					"name": "admin",
					"outputs": [
						{
							"internalType": "address",
							"name": "",
							"type": "address"
						}
					],
					"stateMutability": "view",
					"type": "function"
				},
				{
					"inputs": [],
					"name": "awardTender",
					"outputs": [],
					"stateMutability": "nonpayable",
					"type": "function"
				},
				{
					"inputs": [
						{
							"internalType": "address",
							"name": "",
							"type": "address"
						}
					],
					"name": "bidderDescriptions",
					"outputs": [
						{
							"internalType": "string",
							"name": "",
							"type": "string"
						}
					],
					"stateMutability": "view",
					"type": "function"
				},
				{
					"inputs": [
						{
							"internalType": "uint256",
							"name": "",
							"type": "uint256"
						}
					],
					"name": "bidderList",
					"outputs": [
						{
							"internalType": "address",
							"name": "",
							"type": "address"
						}
					],
					"stateMutability": "view",
					"type": "function"
				},
				{
					"inputs": [
						{
							"internalType": "address",
							"name": "",
							"type": "address"
						}
					],
					"name": "bids",
					"outputs": [
						{
							"internalType": "bytes32",
							"name": "sealedBidHash",
							"type": "bytes32"
						},
						{
							"internalType": "bool",
							"name": "submitted",
							"type": "bool"
						},
						{
							"internalType": "bool",
							"name": "revealed",
							"type": "bool"
						},
						{
							"internalType": "uint256",
							"name": "amount",
							"type": "uint256"
						},
						{
							"internalType": "bool",
							"name": "valid",
							"type": "bool"
						}
					],
					"stateMutability": "view",
					"type": "function"
				},
				{
					"inputs": [
						{
							"internalType": "string",
							"name": "_tenderNumber",
							"type": "string"
						},
						{
							"internalType": "string",
							"name": "_title",
							"type": "string"
						},
						{
							"internalType": "string",
							"name": "_description",
							"type": "string"
						},
						{
							"internalType": "uint256",
							"name": "_submissionDeadlineYear",
							"type": "uint256"
						},
						{
							"internalType": "uint256",
							"name": "_submissionDeadlineMonth",
							"type": "uint256"
						},
						{
							"internalType": "uint256",
							"name": "_submissionDeadlineDay",
							"type": "uint256"
						},
						{
							"internalType": "uint256",
							"name": "_submissionDeadlineHour",
							"type": "uint256"
						},
						{
							"internalType": "uint256",
							"name": "_submissionDeadlineMinute",
							"type": "uint256"
						},
						{
							"internalType": "int256",
							"name": "_utcOffsetHours",
							"type": "int256"
						},
						{
							"internalType": "uint256",
							"name": "_contractAmount",
							"type": "uint256"
						},
						{
							"internalType": "string",
							"name": "_qualificationNote",
							"type": "string"
						}
					],
					"name": "createTenderWithLocalTime",
					"outputs": [],
					"stateMutability": "nonpayable",
					"type": "function"
				},
				{
					"inputs": [],
					"name": "deliveryEvidenceHash",
					"outputs": [
						{
							"internalType": "bytes32",
							"name": "",
							"type": "bytes32"
						}
					],
					"stateMutability": "view",
					"type": "function"
				},
				{
					"inputs": [],
					"name": "evaluateTender",
					"outputs": [],
					"stateMutability": "nonpayable",
					"type": "function"
				},
				{
					"inputs": [],
					"name": "fundContract",
					"outputs": [],
					"stateMutability": "payable",
					"type": "function"
				},
				{
					"inputs": [],
					"name": "getAllRegisteredBidders",
					"outputs": [
						{
							"internalType": "uint256[]",
							"name": "indexes",
							"type": "uint256[]"
						},
						{
							"internalType": "address[]",
							"name": "bidderAddresses",
							"type": "address[]"
						},
						{
							"internalType": "string[]",
							"name": "descriptions",
							"type": "string[]"
						}
					],
					"stateMutability": "view",
					"type": "function"
				},
				{
					"inputs": [
						{
							"internalType": "address",
							"name": "_bidder",
							"type": "address"
						}
					],
					"name": "getBidDetails",
					"outputs": [
						{
							"internalType": "bool",
							"name": "submitted",
							"type": "bool"
						},
						{
							"internalType": "bool",
							"name": "revealed",
							"type": "bool"
						},
						{
							"internalType": "uint256",
							"name": "amount",
							"type": "uint256"
						},
						{
							"internalType": "bool",
							"name": "valid",
							"type": "bool"
						}
					],
					"stateMutability": "view",
					"type": "function"
				},
				{
					"inputs": [],
					"name": "getBidderCount",
					"outputs": [
						{
							"internalType": "uint256",
							"name": "",
							"type": "uint256"
						}
					],
					"stateMutability": "view",
					"type": "function"
				},
				{
					"inputs": [
						{
							"internalType": "address",
							"name": "_bidder",
							"type": "address"
						}
					],
					"name": "getBidderProfile",
					"outputs": [
						{
							"internalType": "bool",
							"name": "isRegistered",
							"type": "bool"
						},
						{
							"internalType": "string",
							"name": "description",
							"type": "string"
						}
					],
					"stateMutability": "view",
					"type": "function"
				},
				{
					"inputs": [],
					"name": "getContractBalance",
					"outputs": [
						{
							"internalType": "uint256",
							"name": "",
							"type": "uint256"
						}
					],
					"stateMutability": "view",
					"type": "function"
				},
				{
					"inputs": [],
					"name": "getCurrentStatusText",
					"outputs": [
						{
							"internalType": "string",
							"name": "statusText",
							"type": "string"
						}
					],
					"stateMutability": "view",
					"type": "function"
				},
				{
					"inputs": [
						{
							"internalType": "string",
							"name": "_documentType",
							"type": "string"
						},
						{
							"internalType": "string",
							"name": "_referenceNumber",
							"type": "string"
						},
						{
							"internalType": "uint256",
							"name": "_evidenceYear",
							"type": "uint256"
						},
						{
							"internalType": "uint256",
							"name": "_evidenceMonth",
							"type": "uint256"
						},
						{
							"internalType": "uint256",
							"name": "_evidenceDay",
							"type": "uint256"
						},
						{
							"internalType": "uint256",
							"name": "_evidenceHour",
							"type": "uint256"
						},
						{
							"internalType": "uint256",
							"name": "_evidenceMinute",
							"type": "uint256"
						},
						{
							"internalType": "int256",
							"name": "_utcOffsetHours",
							"type": "int256"
						}
					],
					"name": "getDeliveryEvidenceHashWithLocalTime",
					"outputs": [
						{
							"internalType": "uint256",
							"name": "evidenceTimestamp",
							"type": "uint256"
						},
						{
							"internalType": "bytes32",
							"name": "deliveryEvidenceComputedHash",
							"type": "bytes32"
						}
					],
					"stateMutability": "view",
					"type": "function"
				},
				{
					"inputs": [
						{
							"internalType": "string",
							"name": "_documentType",
							"type": "string"
						},
						{
							"internalType": "string",
							"name": "_referenceNumber",
							"type": "string"
						},
						{
							"internalType": "uint256",
							"name": "_reportYear",
							"type": "uint256"
						},
						{
							"internalType": "uint256",
							"name": "_reportMonth",
							"type": "uint256"
						},
						{
							"internalType": "uint256",
							"name": "_reportDay",
							"type": "uint256"
						},
						{
							"internalType": "uint256",
							"name": "_reportHour",
							"type": "uint256"
						},
						{
							"internalType": "uint256",
							"name": "_reportMinute",
							"type": "uint256"
						},
						{
							"internalType": "int256",
							"name": "_utcOffsetHours",
							"type": "int256"
						}
					],
					"name": "getInspectionReportHashWithLocalTime",
					"outputs": [
						{
							"internalType": "uint256",
							"name": "reportTimestamp",
							"type": "uint256"
						},
						{
							"internalType": "bytes32",
							"name": "inspectionReportComputedHash",
							"type": "bytes32"
						}
					],
					"stateMutability": "view",
					"type": "function"
				},
				{
					"inputs": [],
					"name": "getLowestBidDetails",
					"outputs": [
						{
							"internalType": "uint256",
							"name": "lowestBidAmount",
							"type": "uint256"
						},
						{
							"internalType": "address",
							"name": "lowestBidder",
							"type": "address"
						},
						{
							"internalType": "string",
							"name": "lowestBidderDescription",
							"type": "string"
						}
					],
					"stateMutability": "view",
					"type": "function"
				},
				{
					"inputs": [
						{
							"internalType": "uint256",
							"name": "_amount",
							"type": "uint256"
						},
						{
							"internalType": "string",
							"name": "_secret",
							"type": "string"
						}
					],
					"name": "getSealedBidHash",
					"outputs": [
						{
							"internalType": "bytes32",
							"name": "",
							"type": "bytes32"
						}
					],
					"stateMutability": "view",
					"type": "function"
				},
				{
					"inputs": [],
					"name": "getSubmissionDeadlineReadable",
					"outputs": [
						{
							"internalType": "uint256",
							"name": "submissionDeadlineTimestamp",
							"type": "uint256"
						},
						{
							"internalType": "uint256",
							"name": "submissionDeadlineYear",
							"type": "uint256"
						},
						{
							"internalType": "uint256",
							"name": "submissionDeadlineMonth",
							"type": "uint256"
						},
						{
							"internalType": "uint256",
							"name": "submissionDeadlineDay",
							"type": "uint256"
						},
						{
							"internalType": "uint256",
							"name": "submissionDeadlineHour",
							"type": "uint256"
						},
						{
							"internalType": "uint256",
							"name": "submissionDeadlineMinute",
							"type": "uint256"
						}
					],
					"stateMutability": "view",
					"type": "function"
				},
				{
					"inputs": [],
					"name": "getTenderSummary",
					"outputs": [
						{
							"internalType": "string",
							"name": "tenderNumber",
							"type": "string"
						},
						{
							"internalType": "string",
							"name": "title",
							"type": "string"
						},
						{
							"internalType": "string",
							"name": "description",
							"type": "string"
						},
						{
							"internalType": "uint256",
							"name": "submissionDeadlineTimestamp",
							"type": "uint256"
						},
						{
							"internalType": "uint256",
							"name": "contractAmount",
							"type": "uint256"
						},
						{
							"internalType": "string",
							"name": "qualificationNote",
							"type": "string"
						},
						{
							"internalType": "enum KenyaProcurementTransparency.TenderStatus",
							"name": "currentStatus",
							"type": "uint8"
						},
						{
							"internalType": "string",
							"name": "currentStatusText",
							"type": "string"
						},
						{
							"internalType": "address",
							"name": "currentWinner",
							"type": "address"
						},
						{
							"internalType": "string",
							"name": "currentWinnerDescription",
							"type": "string"
						},
						{
							"internalType": "uint256",
							"name": "winningBid",
							"type": "uint256"
						}
					],
					"stateMutability": "view",
					"type": "function"
				},
				{
					"inputs": [],
					"name": "inspectionReportHash",
					"outputs": [
						{
							"internalType": "bytes32",
							"name": "",
							"type": "bytes32"
						}
					],
					"stateMutability": "view",
					"type": "function"
				},
				{
					"inputs": [],
					"name": "inspector",
					"outputs": [
						{
							"internalType": "address",
							"name": "",
							"type": "address"
						}
					],
					"stateMutability": "view",
					"type": "function"
				},
				{
					"inputs": [],
					"name": "lowestBid",
					"outputs": [
						{
							"internalType": "uint256",
							"name": "",
							"type": "uint256"
						}
					],
					"stateMutability": "view",
					"type": "function"
				},
				{
					"inputs": [],
					"name": "openRevealPhase",
					"outputs": [],
					"stateMutability": "nonpayable",
					"type": "function"
				},
				{
					"inputs": [],
					"name": "paymentReleased",
					"outputs": [
						{
							"internalType": "bool",
							"name": "",
							"type": "bool"
						}
					],
					"stateMutability": "view",
					"type": "function"
				},
				{
					"inputs": [],
					"name": "pendingAdmin",
					"outputs": [
						{
							"internalType": "address",
							"name": "",
							"type": "address"
						}
					],
					"stateMutability": "view",
					"type": "function"
				},
				{
					"inputs": [
						{
							"internalType": "address",
							"name": "_bidder",
							"type": "address"
						},
						{
							"internalType": "string",
							"name": "_description",
							"type": "string"
						}
					],
					"name": "registerBidder",
					"outputs": [],
					"stateMutability": "nonpayable",
					"type": "function"
				},
				{
					"inputs": [
						{
							"internalType": "address",
							"name": "",
							"type": "address"
						}
					],
					"name": "registeredBidders",
					"outputs": [
						{
							"internalType": "bool",
							"name": "",
							"type": "bool"
						}
					],
					"stateMutability": "view",
					"type": "function"
				},
				{
					"inputs": [
						{
							"internalType": "string",
							"name": "_reason",
							"type": "string"
						}
					],
					"name": "rejectDelivery",
					"outputs": [],
					"stateMutability": "nonpayable",
					"type": "function"
				},
				{
					"inputs": [],
					"name": "rejectionReason",
					"outputs": [
						{
							"internalType": "string",
							"name": "",
							"type": "string"
						}
					],
					"stateMutability": "view",
					"type": "function"
				},
				{
					"inputs": [],
					"name": "releasePayment",
					"outputs": [],
					"stateMutability": "nonpayable",
					"type": "function"
				},
				{
					"inputs": [
						{
							"internalType": "uint256",
							"name": "_amount",
							"type": "uint256"
						},
						{
							"internalType": "string",
							"name": "_secret",
							"type": "string"
						}
					],
					"name": "revealBid",
					"outputs": [],
					"stateMutability": "nonpayable",
					"type": "function"
				},
				{
					"inputs": [
						{
							"internalType": "address",
							"name": "_inspector",
							"type": "address"
						}
					],
					"name": "setInspector",
					"outputs": [],
					"stateMutability": "nonpayable",
					"type": "function"
				},
				{
					"inputs": [],
					"name": "status",
					"outputs": [
						{
							"internalType": "enum KenyaProcurementTransparency.TenderStatus",
							"name": "currentStatus",
							"type": "uint8"
						},
						{
							"internalType": "string",
							"name": "currentStatusText",
							"type": "string"
						}
					],
					"stateMutability": "view",
					"type": "function"
				},
				{
					"inputs": [
						{
							"internalType": "bytes32",
							"name": "_deliveryEvidenceHash",
							"type": "bytes32"
						}
					],
					"name": "submitDeliveryEvidence",
					"outputs": [],
					"stateMutability": "nonpayable",
					"type": "function"
				},
				{
					"inputs": [
						{
							"internalType": "bytes32",
							"name": "_sealedBidHash",
							"type": "bytes32"
						}
					],
					"name": "submitSealedBid",
					"outputs": [],
					"stateMutability": "nonpayable",
					"type": "function"
				},
				{
					"inputs": [],
					"name": "tender",
					"outputs": [
						{
							"internalType": "string",
							"name": "tenderNumber",
							"type": "string"
						},
						{
							"internalType": "string",
							"name": "title",
							"type": "string"
						},
						{
							"internalType": "string",
							"name": "description",
							"type": "string"
						},
						{
							"internalType": "uint256",
							"name": "submissionDeadlineTimestamp",
							"type": "uint256"
						},
						{
							"internalType": "uint256",
							"name": "submissionDeadlineYear",
							"type": "uint256"
						},
						{
							"internalType": "uint256",
							"name": "submissionDeadlineMonth",
							"type": "uint256"
						},
						{
							"internalType": "uint256",
							"name": "submissionDeadlineDay",
							"type": "uint256"
						},
						{
							"internalType": "uint256",
							"name": "submissionDeadlineHour",
							"type": "uint256"
						},
						{
							"internalType": "uint256",
							"name": "submissionDeadlineMinute",
							"type": "uint256"
						},
						{
							"internalType": "uint256",
							"name": "contractAmount",
							"type": "uint256"
						},
						{
							"internalType": "string",
							"name": "qualificationNote",
							"type": "string"
						},
						{
							"internalType": "bool",
							"name": "exists",
							"type": "bool"
						}
					],
					"stateMutability": "view",
					"type": "function"
				},
				{
					"inputs": [
						{
							"internalType": "address",
							"name": "_newAdmin",
							"type": "address"
						}
					],
					"name": "transferAdmin",
					"outputs": [],
					"stateMutability": "nonpayable",
					"type": "function"
				},
				{
					"inputs": [],
					"name": "winner",
					"outputs": [
						{
							"internalType": "address",
							"name": "winnerAddress",
							"type": "address"
						},
						{
							"internalType": "string",
							"name": "winnerDescription",
							"type": "string"
						}
					],
					"stateMutability": "view",
					"type": "function"
				}
			],
			"devdoc": {
				"author": "OpenAI",
				"details": "This contract demonstrates sealed bidding, role-based access control, state-driven workflow enforcement, and auditability for academic use.",
				"kind": "dev",
				"methods": {
					"acceptAdminRole()": {
						"details": "Must be called by the pending admin address."
					},
					"acceptDelivery(bytes32)": {
						"params": {
							"_inspectionReportHash": "Hash of the inspection or acceptance report."
						}
					},
					"createTenderWithLocalTime(string,string,string,uint256,uint256,uint256,uint256,uint256,int256,uint256,string)": {
						"details": "Improves usability by converting human-readable local time into Unix time internally.",
						"params": {
							"_contractAmount": "Payment amount to be released after acceptance.",
							"_description": "Tender description.",
							"_qualificationNote": "Eligibility or qualification requirement.",
							"_submissionDeadlineDay": "Submission deadline day.",
							"_submissionDeadlineHour": "Submission deadline hour in 24-hour format.",
							"_submissionDeadlineMinute": "Submission deadline minute.",
							"_submissionDeadlineMonth": "Submission deadline month (1-12).",
							"_submissionDeadlineYear": "Submission deadline year.",
							"_tenderNumber": "Official tender reference number.",
							"_title": "Tender title.",
							"_utcOffsetHours": "UTC offset in hours (e.g. 3 for EAT)."
						}
					},
					"evaluateTender()": {
						"details": "Simplified prototype logic: lowest responsive revealed bid wins."
					},
					"getAllRegisteredBidders()": {
						"returns": {
							"bidderAddresses": "Registered bidder wallet addresses.",
							"descriptions": "Registered bidder descriptions or company names.",
							"indexes": "Sequential indexes of bidders in bidderList."
						}
					},
					"getBidDetails(address)": {
						"params": {
							"_bidder": "Address of the bidder."
						},
						"returns": {
							"amount": "The revealed amount.",
							"revealed": "Whether the bid was revealed.",
							"submitted": "Whether a bid was submitted.",
							"valid": "Whether the bid is considered valid."
						}
					},
					"getBidderCount()": {
						"returns": {
							"_0": "Total bidder count."
						}
					},
					"getBidderProfile(address)": {
						"params": {
							"_bidder": "Address of the bidder."
						},
						"returns": {
							"description": "Supplier description or company name.",
							"isRegistered": "Whether the address is registered."
						}
					},
					"getContractBalance()": {
						"returns": {
							"_0": "The contract balance in wei."
						}
					},
					"getCurrentStatusText()": {
						"returns": {
							"statusText": "Human-readable name of the current tender stage."
						}
					},
					"getDeliveryEvidenceHashWithLocalTime(string,string,uint256,uint256,uint256,uint256,uint256,int256)": {
						"details": "This helper improves usability by allowing only the current winner to hash delivery evidence references consistently.",
						"params": {
							"_documentType": "Type of evidence document (e.g. DeliveryNote, Invoice, GRN).",
							"_evidenceDay": "Evidence date day.",
							"_evidenceHour": "Evidence date hour in 24-hour format.",
							"_evidenceMinute": "Evidence date minute.",
							"_evidenceMonth": "Evidence date month (1-12).",
							"_evidenceYear": "Evidence date year.",
							"_referenceNumber": "Reference number of the evidence document.",
							"_utcOffsetHours": "UTC offset in hours (e.g. 3 for EAT)."
						},
						"returns": {
							"deliveryEvidenceComputedHash": "keccak256 hash of document type, reference number, and timestamp.",
							"evidenceTimestamp": "Unix timestamp computed from the provided local date and time."
						}
					},
					"getInspectionReportHashWithLocalTime(string,string,uint256,uint256,uint256,uint256,uint256,int256)": {
						"details": "This helper improves usability by allowing only the assigned inspector to hash inspection references consistently.",
						"params": {
							"_documentType": "Type of inspection document (e.g. InspectionReport, AcceptanceCertificate, VerificationNote).",
							"_referenceNumber": "Reference number of the inspection document.",
							"_reportDay": "Inspection report date day.",
							"_reportHour": "Inspection report date hour in 24-hour format.",
							"_reportMinute": "Inspection report date minute.",
							"_reportMonth": "Inspection report date month (1-12).",
							"_reportYear": "Inspection report date year.",
							"_utcOffsetHours": "UTC offset in hours (e.g. 3 for EAT)."
						},
						"returns": {
							"inspectionReportComputedHash": "keccak256 hash of document type, reference number, and timestamp.",
							"reportTimestamp": "Unix timestamp computed from the provided local date and time."
						}
					},
					"getLowestBidDetails()": {
						"returns": {
							"lowestBidAmount": "The lowest revealed valid bid amount.",
							"lowestBidder": "Address of the lowest bidder.",
							"lowestBidderDescription": "Description or company name of the lowest bidder."
						}
					},
					"getSealedBidHash(uint256,string)": {
						"details": "This helper is restricted to registered bidders for clearer procurement workflow control.",
						"params": {
							"_amount": "Bid amount.",
							"_secret": "Secret phrase used for bid commitment."
						},
						"returns": {
							"_0": "The keccak256 packed hash of amount and secret."
						}
					},
					"getSubmissionDeadlineReadable()": {
						"returns": {
							"submissionDeadlineDay": "Submission deadline day.",
							"submissionDeadlineHour": "Submission deadline hour in 24-hour format.",
							"submissionDeadlineMinute": "Submission deadline minute.",
							"submissionDeadlineMonth": "Submission deadline month.",
							"submissionDeadlineTimestamp": "Raw Unix timestamp for the submission deadline.",
							"submissionDeadlineYear": "Submission deadline year."
						}
					},
					"getTenderSummary()": {
						"returns": {
							"contractAmount": "Payment amount for the contract.",
							"currentStatus": "Current lifecycle stage.",
							"currentStatusText": "Human-readable lifecycle stage.",
							"currentWinner": "Address of the current winner.",
							"currentWinnerDescription": "Description or company name of the current winner.",
							"description": "Tender description.",
							"qualificationNote": "Supplier qualification requirement.",
							"submissionDeadlineTimestamp": "Raw Unix timestamp for the submission deadline.",
							"tenderNumber": "Tender reference number.",
							"title": "Tender title.",
							"winningBid": "Lowest revealed valid bid."
						}
					},
					"registerBidder(address,string)": {
						"params": {
							"_bidder": "Address of the supplier allowed to participate.",
							"_description": "Supplier description or company name."
						}
					},
					"rejectDelivery(string)": {
						"params": {
							"_reason": "Textual reason for rejection."
						}
					},
					"revealBid(uint256,string)": {
						"params": {
							"_amount": "Bid amount.",
							"_secret": "Secret string originally used to generate the sealed hash."
						}
					},
					"setInspector(address)": {
						"details": "Inspector can be changed only before final inspection/payment stages.",
						"params": {
							"_inspector": "Address of the inspection authority."
						}
					},
					"status()": {
						"returns": {
							"currentStatus": "Current lifecycle stage as enum value.",
							"currentStatusText": "Human-readable name of the current tender stage."
						}
					},
					"submitDeliveryEvidence(bytes32)": {
						"params": {
							"_deliveryEvidenceHash": "Hash of the delivery note, invoice, or delivery proof."
						}
					},
					"submitSealedBid(bytes32)": {
						"details": "Bid must be submitted before the deadline and only once.",
						"params": {
							"_sealedBidHash": "keccak256 hash of bid amount and secret."
						}
					},
					"tender()": {
						"returns": {
							"contractAmount": "Payment amount for the contract.",
							"description": "Tender description.",
							"exists": "Whether the tender exists.",
							"qualificationNote": "Supplier qualification requirement.",
							"submissionDeadlineDay": "Submission deadline day.",
							"submissionDeadlineHour": "Submission deadline hour in 24-hour format.",
							"submissionDeadlineMinute": "Submission deadline minute.",
							"submissionDeadlineMonth": "Submission deadline month.",
							"submissionDeadlineTimestamp": "Raw Unix timestamp for the submission deadline.",
							"submissionDeadlineYear": "Submission deadline year.",
							"tenderNumber": "Tender reference number.",
							"title": "Tender title."
						}
					},
					"transferAdmin(address)": {
						"params": {
							"_newAdmin": "Address proposed as the next admin."
						}
					},
					"winner()": {
						"returns": {
							"winnerAddress": "Address of the current winning bidder.",
							"winnerDescription": "Description or company name of the current winning bidder."
						}
					}
				},
				"title": "KenyaProcurementTransparency",
				"version": 1
			},
			"evm": {
				"assembly": "    /* \".git/MyContracts/KenyaProcurementTransparency.sol\":430:40619  contract KenyaProcurementTransparency {... */\n  mstore(0x40, 0x80)\n    /* \".git/MyContracts/KenyaProcurementTransparency.sol\":7357:7362  admin */\n  0x00\n    /* \".git/MyContracts/KenyaProcurementTransparency.sol\":7357:7375  admin = msg.sender */\n  dup1\n  sload\n  not(sub(shl(0xa0, 0x01), 0x01))\n  and\n    /* \".git/MyContracts/KenyaProcurementTransparency.sol\":7365:7375  msg.sender */\n  caller\n    /* \".git/MyContracts/KenyaProcurementTransparency.sol\":7357:7375  admin = msg.sender */\n  or\n  swap1\n  sstore\n    /* \".git/MyContracts/KenyaProcurementTransparency.sol\":430:40619  contract KenyaProcurementTransparency {... */\n  dataSize(sub_0)\n  dup1\n  dataOffset(sub_0)\n  0x00\n  codecopy\n  0x00\n  return\nstop\n\nsub_0: assembly {\n        /* \".git/MyContracts/KenyaProcurementTransparency.sol\":430:40619  contract KenyaProcurementTransparency {... */\n      mstore(0x40, 0x80)\n      jumpi(tag_1, lt(calldatasize, 0x04))\n      shr(0xe0, calldataload(0x00))\n      dup1\n      0x808e52cf\n      gt\n      tag_45\n      jumpi\n      dup1\n      0xbd097e21\n      gt\n      tag_46\n      jumpi\n      dup1\n      0xd3584e84\n      gt\n      tag_47\n      jumpi\n      dup1\n      0xd3584e84\n      eq\n      tag_39\n      jumpi\n      dup1\n      0xdfbf53ae\n      eq\n      tag_40\n      jumpi\n      dup1\n      0xe3c608ef\n      eq\n      tag_41\n      jumpi\n      dup1\n      0xed2cee9e\n      eq\n      tag_42\n      jumpi\n      dup1\n      0xf851a440\n      eq\n      tag_43\n      jumpi\n      dup1\n      0xfa1380b8\n      eq\n      tag_44\n      jumpi\n      revert(0x00, 0x00)\n    tag_47:\n      dup1\n      0xbd097e21\n      eq\n      tag_34\n      jumpi\n      dup1\n      0xc63735b3\n      eq\n      tag_35\n      jumpi\n      dup1\n      0xc87da02d\n      eq\n      tag_36\n      jumpi\n      dup1\n      0xd0112863\n      eq\n      tag_37\n      jumpi\n      dup1\n      0xd116c8c4\n      eq\n      tag_38\n      jumpi\n      revert(0x00, 0x00)\n    tag_46:\n      dup1\n      0x905249a3\n      gt\n      tag_48\n      jumpi\n      dup1\n      0x905249a3\n      eq\n      tag_28\n      jumpi\n      dup1\n      0x90c7825a\n      eq\n      tag_29\n      jumpi\n      dup1\n      0x9134e02b\n      eq\n      tag_30\n      jumpi\n      dup1\n      0xa4a00144\n      eq\n      tag_31\n      jumpi\n      dup1\n      0xb6cf8a35\n      eq\n      tag_32\n      jumpi\n      dup1\n      0xb6f3d256\n      eq\n      tag_33\n      jumpi\n      revert(0x00, 0x00)\n    tag_48:\n      dup1\n      0x808e52cf\n      eq\n      tag_23\n      jumpi\n      dup1\n      0x8899b7cc\n      eq\n      tag_24\n      jumpi\n      dup1\n      0x8c257ef8\n      eq\n      tag_25\n      jumpi\n      dup1\n      0x8c3d7301\n      eq\n      tag_26\n      jumpi\n      dup1\n      0x8d07ae9f\n      eq\n      tag_27\n      jumpi\n      revert(0x00, 0x00)\n    tag_45:\n      dup1\n      0x4c5aed38\n      gt\n      tag_49\n      jumpi\n      dup1\n      0x592fd028\n      gt\n      tag_50\n      jumpi\n      dup1\n      0x592fd028\n      eq\n      tag_17\n      jumpi\n      dup1\n      0x62ea82db\n      eq\n      tag_18\n      jumpi\n      dup1\n      0x6cb55d1a\n      eq\n      tag_19\n      jumpi\n      dup1\n      0x6f9fb98a\n      eq\n      tag_20\n      jumpi\n      dup1\n      0x75829def\n      eq\n      tag_21\n      jumpi\n      dup1\n      0x7bd2a5da\n      eq\n      tag_22\n      jumpi\n      revert(0x00, 0x00)\n    tag_50:\n      dup1\n      0x4c5aed38\n      eq\n      tag_12\n      jumpi\n      dup1\n      0x4cc4f50d\n      eq\n      tag_13\n      jumpi\n      dup1\n      0x4e5cbf61\n      eq\n      tag_14\n      jumpi\n      dup1\n      0x53321ae6\n      eq\n      tag_15\n      jumpi\n      dup1\n      0x5459b48e\n      eq\n      tag_16\n      jumpi\n      revert(0x00, 0x00)\n    tag_49:\n      dup1\n      0x26bd8926\n      gt\n      tag_51\n      jumpi\n      dup1\n      0x26bd8926\n      eq\n      tag_7\n      jumpi\n      dup1\n      0x2e9e8e59\n      eq\n      tag_8\n      jumpi\n      dup1\n      0x356e7ccb\n      eq\n      tag_9\n      jumpi\n      dup1\n      0x36dc1a88\n      eq\n      tag_10\n      jumpi\n      dup1\n      0x43902707\n      eq\n      tag_11\n      jumpi\n      revert(0x00, 0x00)\n    tag_51:\n      dup1\n      0x0bd58917\n      eq\n      tag_2\n      jumpi\n      dup1\n      0x0bf36767\n      eq\n      tag_3\n      jumpi\n      dup1\n      0x200d2ed2\n      eq\n      tag_4\n      jumpi\n      dup1\n      0x2163b8c5\n      eq\n      tag_5\n      jumpi\n      dup1\n      0x26782247\n      eq\n      tag_6\n      jumpi\n    tag_1:\n      revert(0x00, 0x00)\n        /* \".git/MyContracts/KenyaProcurementTransparency.sol\":21854:22283  function acceptDelivery(bytes32 _inspectionReportHash)... */\n    tag_2:\n      callvalue\n      dup1\n      iszero\n      tag_52\n      jumpi\n      revert(0x00, 0x00)\n    tag_52:\n      pop\n      tag_53\n      tag_54\n      calldatasize\n      0x04\n      tag_55\n      jump\t// in\n    tag_54:\n      tag_56\n      jump\t// in\n    tag_53:\n      stop\n        /* \".git/MyContracts/KenyaProcurementTransparency.sol\":13968:14209  function openRevealPhase()... */\n    tag_3:\n      callvalue\n      dup1\n      iszero\n      tag_57\n      jumpi\n      revert(0x00, 0x00)\n    tag_57:\n      pop\n      tag_53\n      tag_59\n      jump\t// in\n        /* \".git/MyContracts/KenyaProcurementTransparency.sol\":28170:28401  function status()... */\n    tag_4:\n      callvalue\n      dup1\n      iszero\n      tag_60\n      jumpi\n      revert(0x00, 0x00)\n    tag_60:\n      pop\n      tag_61\n      tag_62\n      jump\t// in\n    tag_61:\n      mload(0x40)\n      tag_63\n      swap3\n      swap2\n      swap1\n      tag_64\n      jump\t// in\n    tag_63:\n      mload(0x40)\n      dup1\n      swap2\n      sub\n      swap1\n      return\n        /* \".git/MyContracts/KenyaProcurementTransparency.sol\":14389:15067  function revealBid(uint256 _amount, string memory _secret)... */\n    tag_5:\n      callvalue\n      dup1\n      iszero\n      tag_65\n      jumpi\n      revert(0x00, 0x00)\n    tag_65:\n      pop\n      tag_53\n      tag_67\n      calldatasize\n      0x04\n      tag_68\n      jump\t// in\n    tag_67:\n      tag_69\n      jump\t// in\n        /* \".git/MyContracts/KenyaProcurementTransparency.sol\":502:529  address public pendingAdmin */\n    tag_6:\n      callvalue\n      dup1\n      iszero\n      tag_70\n      jumpi\n      revert(0x00, 0x00)\n    tag_70:\n      pop\n      sload(0x01)\n      tag_71\n      swap1\n      sub(shl(0xa0, 0x01), 0x01)\n      and\n      dup2\n      jump\n    tag_71:\n      mload(0x40)\n      sub(shl(0xa0, 0x01), 0x01)\n        /* \"#utility.yul\":2691:2723   */\n      swap1\n      swap2\n      and\n        /* \"#utility.yul\":2673:2724   */\n      dup2\n      mstore\n        /* \"#utility.yul\":2661:2663   */\n      0x20\n        /* \"#utility.yul\":2646:2664   */\n      add\n        /* \".git/MyContracts/KenyaProcurementTransparency.sol\":502:529  address public pendingAdmin */\n      tag_63\n        /* \"#utility.yul\":2527:2730   */\n      jump\n        /* \".git/MyContracts/KenyaProcurementTransparency.sol\":1791:1820  string public rejectionReason */\n    tag_7:\n      callvalue\n      dup1\n      iszero\n      tag_75\n      jumpi\n      revert(0x00, 0x00)\n    tag_75:\n      pop\n      tag_76\n      tag_77\n      jump\t// in\n    tag_76:\n      mload(0x40)\n      tag_63\n      swap2\n      swap1\n      tag_79\n      jump\t// in\n        /* \".git/MyContracts/KenyaProcurementTransparency.sol\":1707:1742  bytes32 public deliveryEvidenceHash */\n    tag_8:\n      callvalue\n      dup1\n      iszero\n      tag_80\n      jumpi\n      revert(0x00, 0x00)\n    tag_80:\n      pop\n      tag_81\n      sload(0x10)\n      dup2\n      jump\n    tag_81:\n      mload(0x40)\n        /* \"#utility.yul\":3117:3142   */\n      swap1\n      dup2\n      mstore\n        /* \"#utility.yul\":3105:3107   */\n      0x20\n        /* \"#utility.yul\":3090:3108   */\n      add\n        /* \".git/MyContracts/KenyaProcurementTransparency.sol\":1707:1742  bytes32 public deliveryEvidenceHash */\n      tag_63\n        /* \"#utility.yul\":2971:3148   */\n      jump\n        /* \".git/MyContracts/KenyaProcurementTransparency.sol\":1453:1502  mapping(address => bool) public registeredBidders */\n    tag_9:\n      callvalue\n      dup1\n      iszero\n      tag_85\n      jumpi\n      revert(0x00, 0x00)\n    tag_85:\n      pop\n      tag_86\n      tag_87\n      calldatasize\n      0x04\n      tag_88\n      jump\t// in\n    tag_87:\n      mstore(0x20, 0x0a)\n      0x00\n      swap1\n      dup2\n      mstore\n      0x40\n      swap1\n      keccak256\n      sload\n      0xff\n      and\n      dup2\n      jump\n    tag_86:\n      mload(0x40)\n        /* \"#utility.yul\":3687:3701   */\n      swap1\n      iszero\n        /* \"#utility.yul\":3680:3702   */\n      iszero\n        /* \"#utility.yul\":3662:3703   */\n      dup2\n      mstore\n        /* \"#utility.yul\":3650:3652   */\n      0x20\n        /* \"#utility.yul\":3635:3653   */\n      add\n        /* \".git/MyContracts/KenyaProcurementTransparency.sol\":1453:1502  mapping(address => bool) public registeredBidders */\n      tag_63\n        /* \"#utility.yul\":3522:3709   */\n      jump\n        /* \".git/MyContracts/KenyaProcurementTransparency.sol\":11655:12315  function registerBidder(address _bidder, string memory _description)... */\n    tag_10:\n      callvalue\n      dup1\n      iszero\n      tag_92\n      jumpi\n      revert(0x00, 0x00)\n    tag_92:\n      pop\n      tag_53\n      tag_94\n      calldatasize\n      0x04\n      tag_95\n      jump\t// in\n    tag_94:\n      tag_96\n      jump\t// in\n        /* \".git/MyContracts/KenyaProcurementTransparency.sol\":31403:32336  function getSubmissionDeadlineReadable()... */\n    tag_11:\n      callvalue\n      dup1\n      iszero\n      tag_97\n      jumpi\n      revert(0x00, 0x00)\n    tag_97:\n      pop\n      tag_98\n      tag_99\n      jump\t// in\n    tag_98:\n      0x40\n      dup1\n      mload\n        /* \"#utility.yul\":4402:4427   */\n      swap7\n      dup8\n      mstore\n        /* \"#utility.yul\":4458:4460   */\n      0x20\n        /* \"#utility.yul\":4443:4461   */\n      dup8\n      add\n        /* \"#utility.yul\":4436:4470   */\n      swap6\n      swap1\n      swap6\n      mstore\n        /* \"#utility.yul\":4486:4504   */\n      swap4\n      dup6\n      add\n        /* \"#utility.yul\":4479:4513   */\n      swap3\n      swap1\n      swap3\n      mstore\n        /* \"#utility.yul\":4544:4546   */\n      0x60\n        /* \"#utility.yul\":4529:4547   */\n      dup5\n      add\n        /* \"#utility.yul\":4522:4556   */\n      mstore\n        /* \"#utility.yul\":4587:4590   */\n      0x80\n        /* \"#utility.yul\":4572:4591   */\n      dup4\n      add\n        /* \"#utility.yul\":4565:4600   */\n      mstore\n        /* \"#utility.yul\":4631:4634   */\n      0xa0\n        /* \"#utility.yul\":4616:4635   */\n      dup3\n      add\n        /* \"#utility.yul\":4609:4644   */\n      mstore\n        /* \"#utility.yul\":4389:4392   */\n      0xc0\n        /* \"#utility.yul\":4374:4393   */\n      add\n        /* \".git/MyContracts/KenyaProcurementTransparency.sol\":31403:32336  function getSubmissionDeadlineReadable()... */\n      tag_63\n        /* \"#utility.yul\":4115:4650   */\n      jump\n        /* \".git/MyContracts/KenyaProcurementTransparency.sol\":22403:22769  function rejectDelivery(string memory _reason)... */\n    tag_12:\n      callvalue\n      dup1\n      iszero\n      tag_102\n      jumpi\n      revert(0x00, 0x00)\n    tag_102:\n      pop\n      tag_53\n      tag_104\n      calldatasize\n      0x04\n      tag_105\n      jump\t// in\n    tag_104:\n      tag_106\n      jump\t// in\n        /* \".git/MyContracts/KenyaProcurementTransparency.sol\":569:610  uint256 public constant MAX_BIDDERS = 100 */\n    tag_13:\n      callvalue\n      dup1\n      iszero\n      tag_107\n      jumpi\n      revert(0x00, 0x00)\n    tag_107:\n      pop\n      tag_81\n        /* \".git/MyContracts/KenyaProcurementTransparency.sol\":607:610  100 */\n      0x64\n        /* \".git/MyContracts/KenyaProcurementTransparency.sol\":569:610  uint256 public constant MAX_BIDDERS = 100 */\n      dup2\n      jump\n        /* \".git/MyContracts/KenyaProcurementTransparency.sol\":10202:10624  function setInspector(address _inspector) external onlyAdmin tenderExists {... */\n    tag_14:\n      callvalue\n      dup1\n      iszero\n      tag_112\n      jumpi\n      revert(0x00, 0x00)\n    tag_112:\n      pop\n      tag_53\n      tag_114\n      calldatasize\n      0x04\n      tag_88\n      jump\t// in\n    tag_114:\n      tag_115\n      jump\t// in\n        /* \".git/MyContracts/KenyaProcurementTransparency.sol\":13303:13889  function submitSealedBid(bytes32 _sealedBidHash)... */\n    tag_15:\n      callvalue\n      dup1\n      iszero\n      tag_116\n      jumpi\n      revert(0x00, 0x00)\n    tag_116:\n      pop\n      tag_53\n      tag_118\n      calldatasize\n      0x04\n      tag_55\n      jump\t// in\n    tag_118:\n      tag_119\n      jump\t// in\n        /* \".git/MyContracts/KenyaProcurementTransparency.sol\":28546:28676  function getCurrentStatusText() external view returns (string memory statusText) {... */\n    tag_16:\n      callvalue\n      dup1\n      iszero\n      tag_120\n      jumpi\n      revert(0x00, 0x00)\n    tag_120:\n      pop\n      tag_76\n      tag_122\n      jump\t// in\n        /* \".git/MyContracts/KenyaProcurementTransparency.sol\":15426:16366  function evaluateTender()... */\n    tag_17:\n      callvalue\n      dup1\n      iszero\n      tag_124\n      jumpi\n      revert(0x00, 0x00)\n    tag_124:\n      pop\n      tag_53\n      tag_126\n      jump\t// in\n        /* \".git/MyContracts/KenyaProcurementTransparency.sol\":1568:1603  mapping(address => Bid) public bids */\n    tag_18:\n      callvalue\n      dup1\n      iszero\n      tag_127\n      jumpi\n      revert(0x00, 0x00)\n    tag_127:\n      pop\n      tag_128\n      tag_129\n      calldatasize\n      0x04\n      tag_88\n      jump\t// in\n    tag_129:\n      mstore(0x20, 0x0c)\n      0x00\n      swap1\n      dup2\n      mstore\n      0x40\n      swap1\n      keccak256\n      dup1\n      sload\n      0x01\n      dup3\n      add\n      sload\n      0x02\n      dup4\n      add\n      sload\n      0x03\n      swap1\n      swap4\n      add\n      sload\n      swap2\n      swap3\n      0xff\n      dup1\n      dup4\n      and\n      swap4\n      0x0100\n      swap1\n      swap4\n      div\n      dup2\n      and\n      swap3\n      and\n      dup6\n      jump\n    tag_128:\n      mload(0x40)\n      tag_63\n      swap6\n      swap5\n      swap4\n      swap3\n      swap2\n      swap1\n        /* \"#utility.yul\":5405:5430   */\n      swap5\n      dup6\n      mstore\n        /* \"#utility.yul\":5473:5487   */\n      swap3\n      iszero\n        /* \"#utility.yul\":5466:5488   */\n      iszero\n        /* \"#utility.yul\":5461:5463   */\n      0x20\n        /* \"#utility.yul\":5446:5464   */\n      dup6\n      add\n        /* \"#utility.yul\":5439:5489   */\n      mstore\n        /* \"#utility.yul\":5532:5546   */\n      swap1\n      iszero\n        /* \"#utility.yul\":5525:5547   */\n      iszero\n        /* \"#utility.yul\":5520:5522   */\n      0x40\n        /* \"#utility.yul\":5505:5523   */\n      dup5\n      add\n        /* \"#utility.yul\":5498:5548   */\n      mstore\n        /* \"#utility.yul\":5579:5581   */\n      0x60\n        /* \"#utility.yul\":5564:5582   */\n      dup4\n      add\n        /* \"#utility.yul\":5557:5591   */\n      mstore\n        /* \"#utility.yul\":5635:5649   */\n      iszero\n        /* \"#utility.yul\":5628:5650   */\n      iszero\n        /* \"#utility.yul\":5622:5625   */\n      0x80\n        /* \"#utility.yul\":5607:5626   */\n      dup3\n      add\n        /* \"#utility.yul\":5600:5651   */\n      mstore\n        /* \"#utility.yul\":5392:5395   */\n      0xa0\n        /* \"#utility.yul\":5377:5396   */\n      add\n      swap1\n        /* \"#utility.yul\":5164:5657   */\n      jump\n        /* \".git/MyContracts/KenyaProcurementTransparency.sol\":29558:30873  function tender()... */\n    tag_19:\n      callvalue\n      dup1\n      iszero\n      tag_133\n      jumpi\n      revert(0x00, 0x00)\n    tag_133:\n      pop\n      tag_134\n      tag_135\n      jump\t// in\n    tag_134:\n      mload(0x40)\n      tag_63\n      swap13\n      swap12\n      swap11\n      swap10\n      swap9\n      swap8\n      swap7\n      swap6\n      swap5\n      swap4\n      swap3\n      swap2\n      swap1\n      tag_137\n      jump\t// in\n        /* \".git/MyContracts/KenyaProcurementTransparency.sol\":24274:24383  function getContractBalance() external view returns (uint256) {... */\n    tag_20:\n      callvalue\n      dup1\n      iszero\n      tag_138\n      jumpi\n      revert(0x00, 0x00)\n    tag_138:\n      pop\n        /* \".git/MyContracts/KenyaProcurementTransparency.sol\":24354:24375  address(this).balance */\n      selfbalance\n        /* \".git/MyContracts/KenyaProcurementTransparency.sol\":24274:24383  function getContractBalance() external view returns (uint256) {... */\n      jump(tag_81)\n        /* \".git/MyContracts/KenyaProcurementTransparency.sol\":10767:11055  function transferAdmin(address _newAdmin) external onlyAdmin {... */\n    tag_21:\n      callvalue\n      dup1\n      iszero\n      tag_142\n      jumpi\n      revert(0x00, 0x00)\n    tag_142:\n      pop\n      tag_53\n      tag_144\n      calldatasize\n      0x04\n      tag_88\n      jump\t// in\n    tag_144:\n      tag_145\n      jump\t// in\n        /* \".git/MyContracts/KenyaProcurementTransparency.sol\":21197:21700  function submitDeliveryEvidence(bytes32 _deliveryEvidenceHash)... */\n    tag_22:\n      callvalue\n      dup1\n      iszero\n      tag_146\n      jumpi\n      revert(0x00, 0x00)\n    tag_146:\n      pop\n      tag_53\n      tag_148\n      calldatasize\n      0x04\n      tag_55\n      jump\t// in\n    tag_148:\n      tag_149\n      jump\t// in\n        /* \".git/MyContracts/KenyaProcurementTransparency.sol\":27622:27919  function getLowestBidDetails()... */\n    tag_23:\n      callvalue\n      dup1\n      iszero\n      tag_150\n      jumpi\n      revert(0x00, 0x00)\n    tag_150:\n      pop\n      tag_151\n      tag_152\n      jump\t// in\n    tag_151:\n      mload(0x40)\n      tag_63\n      swap4\n      swap3\n      swap2\n      swap1\n      tag_154\n      jump\t// in\n        /* \".git/MyContracts/KenyaProcurementTransparency.sol\":17897:18956  function getDeliveryEvidenceHashWithLocalTime(... */\n    tag_24:\n      callvalue\n      dup1\n      iszero\n      tag_155\n      jumpi\n      revert(0x00, 0x00)\n    tag_155:\n      pop\n      tag_156\n      tag_157\n      calldatasize\n      0x04\n      tag_158\n      jump\t// in\n    tag_157:\n      tag_159\n      jump\t// in\n    tag_156:\n      0x40\n      dup1\n      mload\n        /* \"#utility.yul\":8851:8876   */\n      swap3\n      dup4\n      mstore\n        /* \"#utility.yul\":8907:8909   */\n      0x20\n        /* \"#utility.yul\":8892:8910   */\n      dup4\n      add\n        /* \"#utility.yul\":8885:8919   */\n      swap2\n      swap1\n      swap2\n      mstore\n        /* \"#utility.yul\":8824:8842   */\n      add\n        /* \".git/MyContracts/KenyaProcurementTransparency.sol\":17897:18956  function getDeliveryEvidenceHashWithLocalTime(... */\n      tag_63\n        /* \"#utility.yul\":8677:8925   */\n      jump\n        /* \".git/MyContracts/KenyaProcurementTransparency.sol\":19991:21027  function getInspectionReportHashWithLocalTime(... */\n    tag_25:\n      callvalue\n      dup1\n      iszero\n      tag_162\n      jumpi\n      revert(0x00, 0x00)\n    tag_162:\n      pop\n      tag_156\n      tag_164\n      calldatasize\n      0x04\n      tag_158\n      jump\t// in\n    tag_164:\n      tag_165\n      jump\t// in\n        /* \".git/MyContracts/KenyaProcurementTransparency.sol\":11171:11437  function acceptAdminRole() external {... */\n    tag_26:\n      callvalue\n      dup1\n      iszero\n      tag_167\n      jumpi\n      revert(0x00, 0x00)\n    tag_167:\n      pop\n      tag_53\n      tag_169\n      jump\t// in\n        /* \".git/MyContracts/KenyaProcurementTransparency.sol\":26512:26838  function getBidDetails(address _bidder)... */\n    tag_27:\n      callvalue\n      dup1\n      iszero\n      tag_170\n      jumpi\n      revert(0x00, 0x00)\n    tag_170:\n      pop\n      tag_171\n      tag_172\n      calldatasize\n      0x04\n      tag_88\n      jump\t// in\n    tag_172:\n      sub(shl(0xa0, 0x01), 0x01)\n        /* \".git/MyContracts/KenyaProcurementTransparency.sol\":26755:26768  bids[_bidder] */\n      and\n        /* \".git/MyContracts/KenyaProcurementTransparency.sol\":26616:26630  bool submitted */\n      0x00\n        /* \".git/MyContracts/KenyaProcurementTransparency.sol\":26755:26768  bids[_bidder] */\n      swap1\n      dup2\n      mstore\n        /* \".git/MyContracts/KenyaProcurementTransparency.sol\":26755:26759  bids */\n      0x0c\n        /* \".git/MyContracts/KenyaProcurementTransparency.sol\":26755:26768  bids[_bidder] */\n      0x20\n      swap1\n      dup2\n      mstore\n      0x40\n      swap2\n      dup3\n      swap1\n      keccak256\n        /* \".git/MyContracts/KenyaProcurementTransparency.sol\":26740:26768  Bid memory b = bids[_bidder] */\n      dup3\n      mload\n      0xa0\n      dup2\n      add\n      dup5\n      mstore\n      dup2\n      sload\n      dup2\n      mstore\n      0x01\n      dup3\n      add\n      sload\n      0xff\n      dup1\n      dup3\n      and\n      iszero\n      iszero\n      swap5\n      dup4\n      add\n      dup6\n      swap1\n      mstore\n      0x0100\n      swap1\n      swap2\n      div\n      dup2\n      and\n      iszero\n      iszero\n      swap5\n      dup3\n      add\n      dup6\n      swap1\n      mstore\n      0x02\n      dup4\n      add\n      sload\n      0x60\n      dup4\n      add\n      dup2\n      swap1\n      mstore\n      0x03\n      swap1\n      swap4\n      add\n      sload\n      and\n      iszero\n      iszero\n      0x80\n      swap1\n      swap2\n      add\n      dup2\n      swap1\n      mstore\n      swap2\n      swap4\n      swap1\n      swap2\n      swap1\n        /* \".git/MyContracts/KenyaProcurementTransparency.sol\":26512:26838  function getBidDetails(address _bidder)... */\n      jump\n    tag_171:\n      0x40\n      dup1\n      mload\n        /* \"#utility.yul\":9168:9182   */\n      swap5\n      iszero\n        /* \"#utility.yul\":9161:9183   */\n      iszero\n        /* \"#utility.yul\":9143:9184   */\n      dup6\n      mstore\n        /* \"#utility.yul\":9227:9241   */\n      swap3\n      iszero\n        /* \"#utility.yul\":9220:9242   */\n      iszero\n        /* \"#utility.yul\":9215:9217   */\n      0x20\n        /* \"#utility.yul\":9200:9218   */\n      dup6\n      add\n        /* \"#utility.yul\":9193:9243   */\n      mstore\n        /* \"#utility.yul\":9259:9277   */\n      swap2\n      dup4\n      add\n        /* \"#utility.yul\":9252:9286   */\n      mstore\n        /* \"#utility.yul\":9329:9343   */\n      iszero\n        /* \"#utility.yul\":9322:9344   */\n      iszero\n        /* \"#utility.yul\":9317:9319   */\n      0x60\n        /* \"#utility.yul\":9302:9320   */\n      dup3\n      add\n        /* \"#utility.yul\":9295:9345   */\n      mstore\n        /* \"#utility.yul\":9130:9133   */\n      0x80\n        /* \"#utility.yul\":9115:9134   */\n      add\n        /* \".git/MyContracts/KenyaProcurementTransparency.sol\":26512:26838  function getBidDetails(address _bidder)... */\n      tag_63\n        /* \"#utility.yul\":8930:9351   */\n      jump\n        /* \".git/MyContracts/KenyaProcurementTransparency.sol\":8501:9987  function createTenderWithLocalTime(... */\n    tag_28:\n      callvalue\n      dup1\n      iszero\n      tag_176\n      jumpi\n      revert(0x00, 0x00)\n    tag_176:\n      pop\n      tag_53\n      tag_178\n      calldatasize\n      0x04\n      tag_179\n      jump\t// in\n    tag_178:\n      tag_180\n      jump\t// in\n        /* \".git/MyContracts/KenyaProcurementTransparency.sol\":25948:26175  function getBidderProfile(address _bidder)... */\n    tag_29:\n      callvalue\n      dup1\n      iszero\n      tag_181\n      jumpi\n      revert(0x00, 0x00)\n    tag_181:\n      pop\n      tag_182\n      tag_183\n      calldatasize\n      0x04\n      tag_88\n      jump\t// in\n    tag_183:\n      tag_184\n      jump\t// in\n    tag_182:\n      mload(0x40)\n      tag_63\n      swap3\n      swap2\n      swap1\n      tag_186\n      jump\t// in\n        /* \".git/MyContracts/KenyaProcurementTransparency.sol\":1509:1561  mapping(address => string) public bidderDescriptions */\n    tag_30:\n      callvalue\n      dup1\n      iszero\n      tag_187\n      jumpi\n      revert(0x00, 0x00)\n    tag_187:\n      pop\n      tag_76\n      tag_189\n      calldatasize\n      0x04\n      tag_88\n      jump\t// in\n    tag_189:\n      tag_190\n      jump\t// in\n        /* \".git/MyContracts/KenyaProcurementTransparency.sol\":1749:1784  bytes32 public inspectionReportHash */\n    tag_31:\n      callvalue\n      dup1\n      iszero\n      tag_192\n      jumpi\n      revert(0x00, 0x00)\n    tag_192:\n      pop\n      tag_81\n      sload(0x11)\n      dup2\n      jump\n        /* \".git/MyContracts/KenyaProcurementTransparency.sol\":24911:25686  function getAllRegisteredBidders()... */\n    tag_32:\n      callvalue\n      dup1\n      iszero\n      tag_196\n      jumpi\n      revert(0x00, 0x00)\n    tag_196:\n      pop\n      tag_197\n      tag_198\n      jump\t// in\n    tag_197:\n      mload(0x40)\n      tag_63\n      swap4\n      swap3\n      swap2\n      swap1\n      tag_200\n      jump\t// in\n        /* \".git/MyContracts/KenyaProcurementTransparency.sol\":1676:1700  uint256 public lowestBid */\n    tag_33:\n      callvalue\n      dup1\n      iszero\n      tag_201\n      jumpi\n      revert(0x00, 0x00)\n    tag_201:\n      pop\n      tag_81\n      sload(0x0f)\n      dup2\n      jump\n        /* \".git/MyContracts/KenyaProcurementTransparency.sol\":23052:23187  function fundContract() external payable onlyAdmin {... */\n    tag_34:\n      tag_53\n      tag_206\n      jump\t// in\n        /* \".git/MyContracts/KenyaProcurementTransparency.sol\":1827:1854  bool public paymentReleased */\n    tag_35:\n      callvalue\n      dup1\n      iszero\n      tag_207\n      jumpi\n      revert(0x00, 0x00)\n    tag_207:\n      pop\n      sload(0x13)\n      tag_86\n      swap1\n      0xff\n      and\n      dup2\n      jump\n        /* \".git/MyContracts/KenyaProcurementTransparency.sol\":24487:24588  function getBidderCount() external view returns (uint256) {... */\n    tag_36:\n      callvalue\n      dup1\n      iszero\n      tag_211\n      jumpi\n      revert(0x00, 0x00)\n    tag_211:\n      pop\n        /* \".git/MyContracts/KenyaProcurementTransparency.sol\":24563:24573  bidderList */\n      0x0d\n        /* \".git/MyContracts/KenyaProcurementTransparency.sol\":24563:24580  bidderList.length */\n      sload\n        /* \".git/MyContracts/KenyaProcurementTransparency.sol\":24487:24588  function getBidderCount() external view returns (uint256) {... */\n      jump(tag_81)\n        /* \".git/MyContracts/KenyaProcurementTransparency.sol\":16438:16732  function awardTender()... */\n    tag_37:\n      callvalue\n      dup1\n      iszero\n      tag_215\n      jumpi\n      revert(0x00, 0x00)\n    tag_215:\n      pop\n      tag_53\n      tag_217\n      jump\t// in\n        /* \".git/MyContracts/KenyaProcurementTransparency.sol\":23280:23960  function releasePayment()... */\n    tag_38:\n      callvalue\n      dup1\n      iszero\n      tag_218\n      jumpi\n      revert(0x00, 0x00)\n    tag_218:\n      pop\n      tag_53\n      tag_220\n      jump\t// in\n        /* \".git/MyContracts/KenyaProcurementTransparency.sol\":1610:1637  address[] public bidderList */\n    tag_39:\n      callvalue\n      dup1\n      iszero\n      tag_221\n      jumpi\n      revert(0x00, 0x00)\n    tag_221:\n      pop\n      tag_71\n      tag_223\n      calldatasize\n      0x04\n      tag_55\n      jump\t// in\n    tag_223:\n      tag_225\n      jump\t// in\n        /* \".git/MyContracts/KenyaProcurementTransparency.sol\":27087:27317  function winner()... */\n    tag_40:\n      callvalue\n      dup1\n      iszero\n      tag_227\n      jumpi\n      revert(0x00, 0x00)\n    tag_227:\n      pop\n      tag_228\n      tag_229\n      jump\t// in\n    tag_228:\n      mload(0x40)\n      tag_63\n      swap3\n      swap2\n      swap1\n      tag_231\n      jump\t// in\n        /* \".git/MyContracts/KenyaProcurementTransparency.sol\":33121:34072  function getTenderSummary()... */\n    tag_41:\n      callvalue\n      dup1\n      iszero\n      tag_232\n      jumpi\n      revert(0x00, 0x00)\n    tag_232:\n      pop\n      tag_233\n      tag_234\n      jump\t// in\n    tag_233:\n      mload(0x40)\n      tag_63\n      swap12\n      swap11\n      swap10\n      swap9\n      swap8\n      swap7\n      swap6\n      swap5\n      swap4\n      swap3\n      swap2\n      swap1\n      tag_236\n      jump\t// in\n        /* \".git/MyContracts/KenyaProcurementTransparency.sol\":536:560  address public inspector */\n    tag_42:\n      callvalue\n      dup1\n      iszero\n      tag_237\n      jumpi\n      revert(0x00, 0x00)\n    tag_237:\n      pop\n      sload(0x02)\n      tag_71\n      swap1\n      sub(shl(0xa0, 0x01), 0x01)\n      and\n      dup2\n      jump\n        /* \".git/MyContracts/KenyaProcurementTransparency.sol\":475:495  address public admin */\n    tag_43:\n      callvalue\n      dup1\n      iszero\n      tag_241\n      jumpi\n      revert(0x00, 0x00)\n    tag_241:\n      pop\n      sload(0x00)\n      tag_71\n      swap1\n      sub(shl(0xa0, 0x01), 0x01)\n      and\n      dup2\n      jump\n        /* \".git/MyContracts/KenyaProcurementTransparency.sol\":12848:13079  function getSealedBidHash(uint256 _amount, string memory _secret)... */\n    tag_44:\n      callvalue\n      dup1\n      iszero\n      tag_245\n      jumpi\n      revert(0x00, 0x00)\n    tag_245:\n      pop\n      tag_81\n      tag_247\n      calldatasize\n      0x04\n      tag_68\n      jump\t// in\n    tag_247:\n      tag_248\n      jump\t// in\n        /* \".git/MyContracts/KenyaProcurementTransparency.sol\":21854:22283  function acceptDelivery(bytes32 _inspectionReportHash)... */\n    tag_56:\n        /* \".git/MyContracts/KenyaProcurementTransparency.sol\":5182:5191  inspector */\n      and(sub(shl(0xa0, 0x01), 0x01), sload(0x02))\n        /* \".git/MyContracts/KenyaProcurementTransparency.sol\":5178:5236  if (inspector == address(0)) revert InspectorNotAssigned() */\n      tag_251\n      jumpi\n        /* \".git/MyContracts/KenyaProcurementTransparency.sol\":5214:5236  InspectorNotAssigned() */\n      mload(0x40)\n      shl(0xe0, 0xd6ea3663)\n      dup2\n      mstore\n      0x04\n      add\n      mload(0x40)\n      dup1\n      swap2\n      sub\n      swap1\n      revert\n        /* \".git/MyContracts/KenyaProcurementTransparency.sol\":5178:5236  if (inspector == address(0)) revert InspectorNotAssigned() */\n    tag_251:\n        /* \".git/MyContracts/KenyaProcurementTransparency.sol\":5265:5274  inspector */\n      and(sub(shl(0xa0, 0x01), 0x01), sload(0x02))\n        /* \".git/MyContracts/KenyaProcurementTransparency.sol\":5251:5261  msg.sender */\n      caller\n        /* \".git/MyContracts/KenyaProcurementTransparency.sol\":5251:5274  msg.sender != inspector */\n      eq\n        /* \".git/MyContracts/KenyaProcurementTransparency.sol\":5247:5298  if (msg.sender != inspector) revert OnlyInspector() */\n      tag_252\n      jumpi\n        /* \".git/MyContracts/KenyaProcurementTransparency.sol\":5283:5298  OnlyInspector() */\n      mload(0x40)\n      shl(0xe0, 0x9864fbb3)\n      dup2\n      mstore\n      0x04\n      add\n      mload(0x40)\n      dup1\n      swap2\n      sub\n      swap1\n      revert\n        /* \".git/MyContracts/KenyaProcurementTransparency.sol\":5247:5298  if (msg.sender != inspector) revert OnlyInspector() */\n    tag_252:\n        /* \".git/MyContracts/KenyaProcurementTransparency.sol\":5813:5827  _tender.exists */\n      and(0xff, sload(0x09))\n        /* \".git/MyContracts/KenyaProcurementTransparency.sol\":5808:5856  if (!_tender.exists) revert TenderDoesNotExist() */\n      tag_254\n      jumpi\n        /* \".git/MyContracts/KenyaProcurementTransparency.sol\":5836:5856  TenderDoesNotExist() */\n      mload(0x40)\n      shl(0xe1, 0x55e9e641)\n      dup2\n      mstore\n      0x04\n      add\n      mload(0x40)\n      dup1\n      swap2\n      sub\n      swap1\n      revert\n        /* \".git/MyContracts/KenyaProcurementTransparency.sol\":5808:5856  if (!_tender.exists) revert TenderDoesNotExist() */\n    tag_254:\n        /* \".git/MyContracts/KenyaProcurementTransparency.sol\":21990:22012  TenderStatus.Delivered */\n      0x04\n      dup1\n        /* \".git/MyContracts/KenyaProcurementTransparency.sol\":6562:6569  _status */\n      sload(0x02)\n      shl(0xa0, 0x01)\n      swap1\n      div\n      0xff\n      and\n        /* \".git/MyContracts/KenyaProcurementTransparency.sol\":6562:6588  _status != _expectedStatus */\n      0x07\n      dup2\n      gt\n      iszero\n      tag_260\n      jumpi\n      tag_260\n      tag_258\n      jump\t// in\n    tag_260:\n      eq\n        /* \".git/MyContracts/KenyaProcurementTransparency.sol\":6558:6617  if (_status != _expectedStatus) revert InvalidTenderStage() */\n      tag_261\n      jumpi\n        /* \".git/MyContracts/KenyaProcurementTransparency.sol\":6597:6617  InvalidTenderStage() */\n      mload(0x40)\n      shl(0xe6, 0x0187fa83)\n      dup2\n      mstore\n      0x04\n      add\n      mload(0x40)\n      dup1\n      swap2\n      sub\n      swap1\n      revert\n        /* \".git/MyContracts/KenyaProcurementTransparency.sol\":6558:6617  if (_status != _expectedStatus) revert InvalidTenderStage() */\n    tag_261:\n        /* \".git/MyContracts/KenyaProcurementTransparency.sol\":22034:22055  _inspectionReportHash */\n      dup2\n        /* \".git/MyContracts/KenyaProcurementTransparency.sol\":22030:22107  if (_inspectionReportHash == bytes32(0)) revert InvalidInspectionReportHash() */\n      tag_263\n      jumpi\n        /* \".git/MyContracts/KenyaProcurementTransparency.sol\":22078:22107  InvalidInspectionReportHash() */\n      mload(0x40)\n      shl(0xe0, 0xa60d7f39)\n      dup2\n      mstore\n      0x04\n      add\n      mload(0x40)\n      dup1\n      swap2\n      sub\n      swap1\n      revert\n        /* \".git/MyContracts/KenyaProcurementTransparency.sol\":22030:22107  if (_inspectionReportHash == bytes32(0)) revert InvalidInspectionReportHash() */\n    tag_263:\n        /* \".git/MyContracts/KenyaProcurementTransparency.sol\":22120:22140  inspectionReportHash */\n      0x11\n        /* \".git/MyContracts/KenyaProcurementTransparency.sol\":22120:22164  inspectionReportHash = _inspectionReportHash */\n      dup3\n      swap1\n      sstore\n        /* \".git/MyContracts/KenyaProcurementTransparency.sol\":22175:22182  _status */\n      0x02\n        /* \".git/MyContracts/KenyaProcurementTransparency.sol\":22175:22206  _status = TenderStatus.Accepted */\n      dup1\n      sload\n      not(shl(0xa0, 0xff))\n      and\n      shl(0xa1, 0x03)\n      or\n      swap1\n      sstore\n        /* \".git/MyContracts/KenyaProcurementTransparency.sol\":22224:22275  DeliveryAccepted(msg.sender, _inspectionReportHash) */\n      0x40\n      dup1\n      mload\n        /* \".git/MyContracts/KenyaProcurementTransparency.sol\":22241:22251  msg.sender */\n      caller\n        /* \"#utility.yul\":15727:15778   */\n      dup2\n      mstore\n        /* \"#utility.yul\":15809:15811   */\n      0x20\n        /* \"#utility.yul\":15794:15812   */\n      dup2\n      add\n        /* \"#utility.yul\":15787:15821   */\n      dup5\n      swap1\n      mstore\n        /* \".git/MyContracts/KenyaProcurementTransparency.sol\":22224:22275  DeliveryAccepted(msg.sender, _inspectionReportHash) */\n      0xef94af06cfa9a76c638dd1a1cfb86b07f938febf05374e3675aeced1f805205e\n      swap2\n        /* \"#utility.yul\":15700:15718   */\n      add\n        /* \".git/MyContracts/KenyaProcurementTransparency.sol\":22224:22275  DeliveryAccepted(msg.sender, _inspectionReportHash) */\n    tag_266:\n      mload(0x40)\n      dup1\n      swap2\n      sub\n      swap1\n      log1\n        /* \".git/MyContracts/KenyaProcurementTransparency.sol\":5867:5868  _ */\n      pop\n        /* \".git/MyContracts/KenyaProcurementTransparency.sol\":21854:22283  function acceptDelivery(bytes32 _inspectionReportHash)... */\n      pop\n      jump\t// out\n        /* \".git/MyContracts/KenyaProcurementTransparency.sol\":13968:14209  function openRevealPhase()... */\n    tag_59:\n        /* \".git/MyContracts/KenyaProcurementTransparency.sol\":5019:5024  admin */\n      and(sub(shl(0xa0, 0x01), 0x01), sload(0x00))\n        /* \".git/MyContracts/KenyaProcurementTransparency.sol\":5005:5015  msg.sender */\n      caller\n        /* \".git/MyContracts/KenyaProcurementTransparency.sol\":5005:5024  msg.sender != admin */\n      eq\n        /* \".git/MyContracts/KenyaProcurementTransparency.sol\":5001:5044  if (msg.sender != admin) revert OnlyAdmin() */\n      tag_269\n      jumpi\n        /* \".git/MyContracts/KenyaProcurementTransparency.sol\":5033:5044  OnlyAdmin() */\n      mload(0x40)\n      shl(0xe0, 0x47556579)\n      dup2\n      mstore\n      0x04\n      add\n      mload(0x40)\n      dup1\n      swap2\n      sub\n      swap1\n      revert\n        /* \".git/MyContracts/KenyaProcurementTransparency.sol\":5001:5044  if (msg.sender != admin) revert OnlyAdmin() */\n    tag_269:\n        /* \".git/MyContracts/KenyaProcurementTransparency.sol\":5813:5827  _tender.exists */\n      and(0xff, sload(0x09))\n        /* \".git/MyContracts/KenyaProcurementTransparency.sol\":5808:5856  if (!_tender.exists) revert TenderDoesNotExist() */\n      tag_271\n      jumpi\n        /* \".git/MyContracts/KenyaProcurementTransparency.sol\":5836:5856  TenderDoesNotExist() */\n      mload(0x40)\n      shl(0xe1, 0x55e9e641)\n      dup2\n      mstore\n      0x04\n      add\n      mload(0x40)\n      dup1\n      swap2\n      sub\n      swap1\n      revert\n        /* \".git/MyContracts/KenyaProcurementTransparency.sol\":5808:5856  if (!_tender.exists) revert TenderDoesNotExist() */\n    tag_271:\n        /* \".git/MyContracts/KenyaProcurementTransparency.sol\":6260:6286  _tender.submissionDeadline */\n      sload(0x06)\n        /* \".git/MyContracts/KenyaProcurementTransparency.sol\":6242:6257  block.timestamp */\n      timestamp\n        /* \".git/MyContracts/KenyaProcurementTransparency.sol\":6242:6286  block.timestamp < _tender.submissionDeadline */\n      lt\n        /* \".git/MyContracts/KenyaProcurementTransparency.sol\":6238:6325  if (block.timestamp < _tender.submissionDeadline) revert SubmissionDeadlineNotReached() */\n      iszero\n      tag_273\n      jumpi\n        /* \".git/MyContracts/KenyaProcurementTransparency.sol\":6295:6325  SubmissionDeadlineNotReached() */\n      mload(0x40)\n      shl(0xe0, 0x3efbccb1)\n      dup2\n      mstore\n      0x04\n      add\n      mload(0x40)\n      dup1\n      swap2\n      sub\n      swap1\n      revert\n        /* \".git/MyContracts/KenyaProcurementTransparency.sol\":6238:6325  if (block.timestamp < _tender.submissionDeadline) revert SubmissionDeadlineNotReached() */\n    tag_273:\n        /* \".git/MyContracts/KenyaProcurementTransparency.sol\":14095:14115  TenderStatus.Created */\n      0x00\n      dup1\n        /* \".git/MyContracts/KenyaProcurementTransparency.sol\":6562:6569  _status */\n      sload(0x02)\n      shl(0xa0, 0x01)\n      swap1\n      div\n      0xff\n      and\n        /* \".git/MyContracts/KenyaProcurementTransparency.sol\":6562:6588  _status != _expectedStatus */\n      0x07\n      dup2\n      gt\n      iszero\n      tag_278\n      jumpi\n      tag_278\n      tag_258\n      jump\t// in\n    tag_278:\n      eq\n        /* \".git/MyContracts/KenyaProcurementTransparency.sol\":6558:6617  if (_status != _expectedStatus) revert InvalidTenderStage() */\n      tag_279\n      jumpi\n        /* \".git/MyContracts/KenyaProcurementTransparency.sol\":6597:6617  InvalidTenderStage() */\n      mload(0x40)\n      shl(0xe6, 0x0187fa83)\n      dup2\n      mstore\n      0x04\n      add\n      mload(0x40)\n      dup1\n      swap2\n      sub\n      swap1\n      revert\n        /* \".git/MyContracts/KenyaProcurementTransparency.sol\":6558:6617  if (_status != _expectedStatus) revert InvalidTenderStage() */\n    tag_279:\n        /* \".git/MyContracts/KenyaProcurementTransparency.sol\":14133:14140  _status */\n      0x02\n        /* \".git/MyContracts/KenyaProcurementTransparency.sol\":14133:14166  _status = TenderStatus.RevealOpen */\n      dup1\n      sload\n      not(shl(0xa0, 0xff))\n      and\n      shl(0xa0, 0x01)\n      or\n      swap1\n      sstore\n        /* \".git/MyContracts/KenyaProcurementTransparency.sol\":14182:14201  RevealPhaseOpened() */\n      mload(0x40)\n      0x2fd2f8fcbb75b0a142d3952ad3f5e92dd16aab6c8bbbd304bdb97066b33c062c\n      swap1\n      0x00\n      swap1\n      log1\n        /* \".git/MyContracts/KenyaProcurementTransparency.sol\":6336:6337  _ */\n      pop\n        /* \".git/MyContracts/KenyaProcurementTransparency.sol\":13968:14209  function openRevealPhase()... */\n      jump\t// out\n        /* \".git/MyContracts/KenyaProcurementTransparency.sol\":28170:28401  function status()... */\n    tag_62:\n        /* \".git/MyContracts/KenyaProcurementTransparency.sol\":28360:28367  _status */\n      sload(0x02)\n        /* \".git/MyContracts/KenyaProcurementTransparency.sol\":28252:28278  TenderStatus currentStatus */\n      0x00\n      swap1\n        /* \".git/MyContracts/KenyaProcurementTransparency.sol\":28293:28324  string memory currentStatusText */\n      0x60\n      swap1\n      shl(0xa0, 0x01)\n        /* \".git/MyContracts/KenyaProcurementTransparency.sol\":28360:28367  _status */\n      swap1\n      div\n      0xff\n      and\n        /* \".git/MyContracts/KenyaProcurementTransparency.sol\":28369:28392  _getStatusText(_status) */\n      tag_284\n        /* \".git/MyContracts/KenyaProcurementTransparency.sol\":28360:28367  _status */\n      dup2\n        /* \".git/MyContracts/KenyaProcurementTransparency.sol\":28369:28383  _getStatusText */\n      tag_285\n        /* \".git/MyContracts/KenyaProcurementTransparency.sol\":28369:28392  _getStatusText(_status) */\n      jump\t// in\n    tag_284:\n        /* \".git/MyContracts/KenyaProcurementTransparency.sol\":28352:28393  return (_status, _getStatusText(_status)) */\n      swap2\n      pop\n      swap2\n      pop\n        /* \".git/MyContracts/KenyaProcurementTransparency.sol\":28170:28401  function status()... */\n      swap1\n      swap2\n      jump\t// out\n        /* \".git/MyContracts/KenyaProcurementTransparency.sol\":14389:15067  function revealBid(uint256 _amount, string memory _secret)... */\n    tag_69:\n        /* \".git/MyContracts/KenyaProcurementTransparency.sol\":5813:5827  _tender.exists */\n      and(0xff, sload(0x09))\n        /* \".git/MyContracts/KenyaProcurementTransparency.sol\":5808:5856  if (!_tender.exists) revert TenderDoesNotExist() */\n      tag_287\n      jumpi\n        /* \".git/MyContracts/KenyaProcurementTransparency.sol\":5836:5856  TenderDoesNotExist() */\n      mload(0x40)\n      shl(0xe1, 0x55e9e641)\n      dup2\n      mstore\n      0x04\n      add\n      mload(0x40)\n      dup1\n      swap2\n      sub\n      swap1\n      revert\n        /* \".git/MyContracts/KenyaProcurementTransparency.sol\":5808:5856  if (!_tender.exists) revert TenderDoesNotExist() */\n    tag_287:\n        /* \".git/MyContracts/KenyaProcurementTransparency.sol\":5644:5654  msg.sender */\n      caller\n        /* \".git/MyContracts/KenyaProcurementTransparency.sol\":5626:5655  registeredBidders[msg.sender] */\n      0x00\n      swap1\n      dup2\n      mstore\n        /* \".git/MyContracts/KenyaProcurementTransparency.sol\":5626:5643  registeredBidders */\n      0x0a\n        /* \".git/MyContracts/KenyaProcurementTransparency.sol\":5626:5655  registeredBidders[msg.sender] */\n      0x20\n      mstore\n      0x40\n      swap1\n      keccak256\n      sload\n      0xff\n      and\n        /* \".git/MyContracts/KenyaProcurementTransparency.sol\":5621:5685  if (!registeredBidders[msg.sender]) revert NotRegisteredBidder() */\n      tag_289\n      jumpi\n        /* \".git/MyContracts/KenyaProcurementTransparency.sol\":5664:5685  NotRegisteredBidder() */\n      mload(0x40)\n      shl(0xe5, 0x02f9ce37)\n      dup2\n      mstore\n      0x04\n      add\n      mload(0x40)\n      dup1\n      swap2\n      sub\n      swap1\n      revert\n        /* \".git/MyContracts/KenyaProcurementTransparency.sol\":5621:5685  if (!registeredBidders[msg.sender]) revert NotRegisteredBidder() */\n    tag_289:\n        /* \".git/MyContracts/KenyaProcurementTransparency.sol\":14536:14559  TenderStatus.RevealOpen */\n      0x01\n      dup1\n        /* \".git/MyContracts/KenyaProcurementTransparency.sol\":6562:6569  _status */\n      sload(0x02)\n      shl(0xa0, 0x01)\n      swap1\n      div\n      0xff\n      and\n        /* \".git/MyContracts/KenyaProcurementTransparency.sol\":6562:6588  _status != _expectedStatus */\n      0x07\n      dup2\n      gt\n      iszero\n      tag_294\n      jumpi\n      tag_294\n      tag_258\n      jump\t// in\n    tag_294:\n      eq\n        /* \".git/MyContracts/KenyaProcurementTransparency.sol\":6558:6617  if (_status != _expectedStatus) revert InvalidTenderStage() */\n      tag_295\n      jumpi\n        /* \".git/MyContracts/KenyaProcurementTransparency.sol\":6597:6617  InvalidTenderStage() */\n      mload(0x40)\n      shl(0xe6, 0x0187fa83)\n      dup2\n      mstore\n      0x04\n      add\n      mload(0x40)\n      dup1\n      swap2\n      sub\n      swap1\n      revert\n        /* \".git/MyContracts/KenyaProcurementTransparency.sol\":6558:6617  if (_status != _expectedStatus) revert InvalidTenderStage() */\n    tag_295:\n        /* \".git/MyContracts/KenyaProcurementTransparency.sol\":14606:14616  msg.sender */\n      caller\n        /* \".git/MyContracts/KenyaProcurementTransparency.sol\":14577:14598  Bid storage bidderBid */\n      0x00\n        /* \".git/MyContracts/KenyaProcurementTransparency.sol\":14601:14617  bids[msg.sender] */\n      swap1\n      dup2\n      mstore\n        /* \".git/MyContracts/KenyaProcurementTransparency.sol\":14601:14605  bids */\n      0x0c\n        /* \".git/MyContracts/KenyaProcurementTransparency.sol\":14601:14617  bids[msg.sender] */\n      0x20\n      mstore\n      0x40\n      swap1\n      keccak256\n        /* \".git/MyContracts/KenyaProcurementTransparency.sol\":14635:14654  bidderBid.submitted */\n      0x01\n      dup2\n      add\n      sload\n      0xff\n      and\n        /* \".git/MyContracts/KenyaProcurementTransparency.sol\":14630:14679  if (!bidderBid.submitted) revert NoBidSubmitted() */\n      tag_297\n      jumpi\n        /* \".git/MyContracts/KenyaProcurementTransparency.sol\":14663:14679  NoBidSubmitted() */\n      mload(0x40)\n      shl(0xe1, 0x51f37831)\n      dup2\n      mstore\n      0x04\n      add\n      mload(0x40)\n      dup1\n      swap2\n      sub\n      swap1\n      revert\n        /* \".git/MyContracts/KenyaProcurementTransparency.sol\":14630:14679  if (!bidderBid.submitted) revert NoBidSubmitted() */\n    tag_297:\n        /* \".git/MyContracts/KenyaProcurementTransparency.sol\":14694:14712  bidderBid.revealed */\n      0x01\n      dup2\n      add\n      sload\n      0x0100\n      swap1\n      div\n      0xff\n      and\n        /* \".git/MyContracts/KenyaProcurementTransparency.sol\":14690:14741  if (bidderBid.revealed) revert BidAlreadyRevealed() */\n      iszero\n      tag_298\n      jumpi\n        /* \".git/MyContracts/KenyaProcurementTransparency.sol\":14721:14741  BidAlreadyRevealed() */\n      mload(0x40)\n      shl(0xe0, 0x8509cf4f)\n      dup2\n      mstore\n      0x04\n      add\n      mload(0x40)\n      dup1\n      swap2\n      sub\n      swap1\n      revert\n        /* \".git/MyContracts/KenyaProcurementTransparency.sol\":14690:14741  if (bidderBid.revealed) revert BidAlreadyRevealed() */\n    tag_298:\n        /* \".git/MyContracts/KenyaProcurementTransparency.sol\":14754:14774  bytes32 computedHash */\n      0x00\n        /* \".git/MyContracts/KenyaProcurementTransparency.sol\":14804:14811  _amount */\n      dup5\n        /* \".git/MyContracts/KenyaProcurementTransparency.sol\":14813:14820  _secret */\n      dup5\n        /* \".git/MyContracts/KenyaProcurementTransparency.sol\":14787:14821  abi.encodePacked(_amount, _secret) */\n      add(0x20, mload(0x40))\n      tag_299\n      swap3\n      swap2\n      swap1\n      tag_300\n      jump\t// in\n    tag_299:\n      mload(0x40)\n      0x20\n      dup2\n      dup4\n      sub\n      sub\n      dup2\n      mstore\n      swap1\n      0x40\n      mstore\n        /* \".git/MyContracts/KenyaProcurementTransparency.sol\":14777:14822  keccak256(abi.encodePacked(_amount, _secret)) */\n      dup1\n      mload\n      swap1\n      0x20\n      add\n      keccak256\n        /* \".git/MyContracts/KenyaProcurementTransparency.sol\":14754:14822  bytes32 computedHash = keccak256(abi.encodePacked(_amount, _secret)) */\n      swap1\n      pop\n        /* \".git/MyContracts/KenyaProcurementTransparency.sol\":14853:14862  bidderBid */\n      dup2\n        /* \".git/MyContracts/KenyaProcurementTransparency.sol\":14853:14876  bidderBid.sealedBidHash */\n      0x00\n      add\n      sload\n        /* \".git/MyContracts/KenyaProcurementTransparency.sol\":14837:14849  computedHash */\n      dup2\n        /* \".git/MyContracts/KenyaProcurementTransparency.sol\":14837:14876  computedHash != bidderBid.sealedBidHash */\n      eq\n        /* \".git/MyContracts/KenyaProcurementTransparency.sol\":14833:14901  if (computedHash != bidderBid.sealedBidHash) revert RevealMismatch() */\n      tag_301\n      jumpi\n        /* \".git/MyContracts/KenyaProcurementTransparency.sol\":14885:14901  RevealMismatch() */\n      mload(0x40)\n      shl(0xe0, 0xf0f96d35)\n      dup2\n      mstore\n      0x04\n      add\n      mload(0x40)\n      dup1\n      swap2\n      sub\n      swap1\n      revert\n        /* \".git/MyContracts/KenyaProcurementTransparency.sol\":14833:14901  if (computedHash != bidderBid.sealedBidHash) revert RevealMismatch() */\n    tag_301:\n        /* \".git/MyContracts/KenyaProcurementTransparency.sol\":14935:14939  true */\n      0x01\n        /* \".git/MyContracts/KenyaProcurementTransparency.sol\":14914:14932  bidderBid.revealed */\n      dup3\n      dup2\n      add\n        /* \".git/MyContracts/KenyaProcurementTransparency.sol\":14914:14939  bidderBid.revealed = true */\n      dup1\n      sload\n      not(0xff00)\n      and\n      0x0100\n      or\n      swap1\n      sstore\n        /* \".git/MyContracts/KenyaProcurementTransparency.sol\":14950:14966  bidderBid.amount */\n      0x02\n      dup4\n      add\n        /* \".git/MyContracts/KenyaProcurementTransparency.sol\":14950:14976  bidderBid.amount = _amount */\n      dup7\n      swap1\n      sstore\n        /* \".git/MyContracts/KenyaProcurementTransparency.sol\":14987:15002  bidderBid.valid */\n      0x03\n      dup4\n      add\n        /* \".git/MyContracts/KenyaProcurementTransparency.sol\":14987:15009  bidderBid.valid = true */\n      dup1\n      sload\n      not(0xff)\n      and\n      swap1\n      swap2\n      or\n      swap1\n      sstore\n        /* \".git/MyContracts/KenyaProcurementTransparency.sol\":15027:15059  BidRevealed(msg.sender, _amount) */\n      0x40\n      dup1\n      mload\n        /* \".git/MyContracts/KenyaProcurementTransparency.sol\":15039:15049  msg.sender */\n      caller\n        /* \"#utility.yul\":15727:15778   */\n      dup2\n      mstore\n        /* \"#utility.yul\":15809:15811   */\n      0x20\n        /* \"#utility.yul\":15794:15812   */\n      dup2\n      add\n        /* \"#utility.yul\":15787:15821   */\n      dup8\n      swap1\n      mstore\n        /* \".git/MyContracts/KenyaProcurementTransparency.sol\":15027:15059  BidRevealed(msg.sender, _amount) */\n      0x9891bd98143d5a2c5f29be9a7ef8e5d7b723746fb3b75220234af7aa6caeecfe\n      swap2\n        /* \"#utility.yul\":15700:15718   */\n      add\n        /* \".git/MyContracts/KenyaProcurementTransparency.sol\":15027:15059  BidRevealed(msg.sender, _amount) */\n      mload(0x40)\n      dup1\n      swap2\n      sub\n      swap1\n      log1\n        /* \".git/MyContracts/KenyaProcurementTransparency.sol\":14566:15067  {... */\n      pop\n      pop\n        /* \".git/MyContracts/KenyaProcurementTransparency.sol\":5696:5697  _ */\n      pop\n        /* \".git/MyContracts/KenyaProcurementTransparency.sol\":14389:15067  function revealBid(uint256 _amount, string memory _secret)... */\n      pop\n      pop\n      jump\t// out\n        /* \".git/MyContracts/KenyaProcurementTransparency.sol\":1791:1820  string public rejectionReason */\n    tag_77:\n      0x12\n      dup1\n      sload\n      tag_304\n      swap1\n      tag_305\n      jump\t// in\n    tag_304:\n      dup1\n      0x1f\n      add\n      0x20\n      dup1\n      swap2\n      div\n      mul\n      0x20\n      add\n      mload(0x40)\n      swap1\n      dup2\n      add\n      0x40\n      mstore\n      dup1\n      swap3\n      swap2\n      swap1\n      dup2\n      dup2\n      mstore\n      0x20\n      add\n      dup3\n      dup1\n      sload\n      tag_306\n      swap1\n      tag_305\n      jump\t// in\n    tag_306:\n      dup1\n      iszero\n      tag_307\n      jumpi\n      dup1\n      0x1f\n      lt\n      tag_308\n      jumpi\n      0x0100\n      dup1\n      dup4\n      sload\n      div\n      mul\n      dup4\n      mstore\n      swap2\n      0x20\n      add\n      swap2\n      jump(tag_307)\n    tag_308:\n      dup3\n      add\n      swap2\n      swap1\n      0x00\n      mstore\n      keccak256(0x00, 0x20)\n      swap1\n    tag_309:\n      dup2\n      sload\n      dup2\n      mstore\n      swap1\n      0x01\n      add\n      swap1\n      0x20\n      add\n      dup1\n      dup4\n      gt\n      tag_309\n      jumpi\n      dup3\n      swap1\n      sub\n      0x1f\n      and\n      dup3\n      add\n      swap2\n    tag_307:\n      pop\n      pop\n      pop\n      pop\n      pop\n      dup2\n      jump\t// out\n        /* \".git/MyContracts/KenyaProcurementTransparency.sol\":11655:12315  function registerBidder(address _bidder, string memory _description)... */\n    tag_96:\n        /* \".git/MyContracts/KenyaProcurementTransparency.sol\":5019:5024  admin */\n      and(sub(shl(0xa0, 0x01), 0x01), sload(0x00))\n        /* \".git/MyContracts/KenyaProcurementTransparency.sol\":5005:5015  msg.sender */\n      caller\n        /* \".git/MyContracts/KenyaProcurementTransparency.sol\":5005:5024  msg.sender != admin */\n      eq\n        /* \".git/MyContracts/KenyaProcurementTransparency.sol\":5001:5044  if (msg.sender != admin) revert OnlyAdmin() */\n      tag_311\n      jumpi\n        /* \".git/MyContracts/KenyaProcurementTransparency.sol\":5033:5044  OnlyAdmin() */\n      mload(0x40)\n      shl(0xe0, 0x47556579)\n      dup2\n      mstore\n      0x04\n      add\n      mload(0x40)\n      dup1\n      swap2\n      sub\n      swap1\n      revert\n        /* \".git/MyContracts/KenyaProcurementTransparency.sol\":5001:5044  if (msg.sender != admin) revert OnlyAdmin() */\n    tag_311:\n        /* \".git/MyContracts/KenyaProcurementTransparency.sol\":5813:5827  _tender.exists */\n      and(0xff, sload(0x09))\n        /* \".git/MyContracts/KenyaProcurementTransparency.sol\":5808:5856  if (!_tender.exists) revert TenderDoesNotExist() */\n      tag_313\n      jumpi\n        /* \".git/MyContracts/KenyaProcurementTransparency.sol\":5836:5856  TenderDoesNotExist() */\n      mload(0x40)\n      shl(0xe1, 0x55e9e641)\n      dup2\n      mstore\n      0x04\n      add\n      mload(0x40)\n      dup1\n      swap2\n      sub\n      swap1\n      revert\n        /* \".git/MyContracts/KenyaProcurementTransparency.sol\":5808:5856  if (!_tender.exists) revert TenderDoesNotExist() */\n    tag_313:\n        /* \".git/MyContracts/KenyaProcurementTransparency.sol\":11801:11821  TenderStatus.Created */\n      0x00\n      dup1\n        /* \".git/MyContracts/KenyaProcurementTransparency.sol\":6562:6569  _status */\n      sload(0x02)\n      shl(0xa0, 0x01)\n      swap1\n      div\n      0xff\n      and\n        /* \".git/MyContracts/KenyaProcurementTransparency.sol\":6562:6588  _status != _expectedStatus */\n      0x07\n      dup2\n      gt\n      iszero\n      tag_318\n      jumpi\n      tag_318\n      tag_258\n      jump\t// in\n    tag_318:\n      eq\n        /* \".git/MyContracts/KenyaProcurementTransparency.sol\":6558:6617  if (_status != _expectedStatus) revert InvalidTenderStage() */\n      tag_319\n      jumpi\n        /* \".git/MyContracts/KenyaProcurementTransparency.sol\":6597:6617  InvalidTenderStage() */\n      mload(0x40)\n      shl(0xe6, 0x0187fa83)\n      dup2\n      mstore\n      0x04\n      add\n      mload(0x40)\n      dup1\n      swap2\n      sub\n      swap1\n      revert\n        /* \".git/MyContracts/KenyaProcurementTransparency.sol\":6558:6617  if (_status != _expectedStatus) revert InvalidTenderStage() */\n    tag_319:\n      sub(shl(0xa0, 0x01), 0x01)\n        /* \".git/MyContracts/KenyaProcurementTransparency.sol\":11843:11864  _bidder == address(0) */\n      dup4\n      and\n        /* \".git/MyContracts/KenyaProcurementTransparency.sol\":11839:11889  if (_bidder == address(0)) revert InvalidAddress() */\n      tag_321\n      jumpi\n        /* \".git/MyContracts/KenyaProcurementTransparency.sol\":11873:11889  InvalidAddress() */\n      mload(0x40)\n      shl(0xe0, 0xe6c4247b)\n      dup2\n      mstore\n      0x04\n      add\n      mload(0x40)\n      dup1\n      swap2\n      sub\n      swap1\n      revert\n        /* \".git/MyContracts/KenyaProcurementTransparency.sol\":11839:11889  if (_bidder == address(0)) revert InvalidAddress() */\n    tag_321:\n      sub(shl(0xa0, 0x01), 0x01)\n        /* \".git/MyContracts/KenyaProcurementTransparency.sol\":11904:11930  registeredBidders[_bidder] */\n      dup4\n      and\n      0x00\n      swap1\n      dup2\n      mstore\n        /* \".git/MyContracts/KenyaProcurementTransparency.sol\":11904:11921  registeredBidders */\n      0x0a\n        /* \".git/MyContracts/KenyaProcurementTransparency.sol\":11904:11930  registeredBidders[_bidder] */\n      0x20\n      mstore\n      0x40\n      swap1\n      keccak256\n      sload\n      0xff\n      and\n        /* \".git/MyContracts/KenyaProcurementTransparency.sol\":11900:11964  if (registeredBidders[_bidder]) revert BidderAlreadyRegistered() */\n      iszero\n      tag_322\n      jumpi\n        /* \".git/MyContracts/KenyaProcurementTransparency.sol\":11939:11964  BidderAlreadyRegistered() */\n      mload(0x40)\n      shl(0xe1, 0x6a7c46f7)\n      dup2\n      mstore\n      0x04\n      add\n      mload(0x40)\n      dup1\n      swap2\n      sub\n      swap1\n      revert\n        /* \".git/MyContracts/KenyaProcurementTransparency.sol\":11900:11964  if (registeredBidders[_bidder]) revert BidderAlreadyRegistered() */\n    tag_322:\n        /* \".git/MyContracts/KenyaProcurementTransparency.sol\":11985:11997  _description */\n      dup2\n        /* \".git/MyContracts/KenyaProcurementTransparency.sol\":11979:12005  bytes(_description).length */\n      mload\n        /* \".git/MyContracts/KenyaProcurementTransparency.sol\":12009:12010  0 */\n      0x00\n        /* \".git/MyContracts/KenyaProcurementTransparency.sol\":11979:12010  bytes(_description).length == 0 */\n      sub\n        /* \".git/MyContracts/KenyaProcurementTransparency.sol\":11975:12040  if (bytes(_description).length == 0) revert DescriptionRequired() */\n      tag_323\n      jumpi\n        /* \".git/MyContracts/KenyaProcurementTransparency.sol\":12019:12040  DescriptionRequired() */\n      mload(0x40)\n      shl(0xe0, 0x3e61080d)\n      dup2\n      mstore\n      0x04\n      add\n      mload(0x40)\n      dup1\n      swap2\n      sub\n      swap1\n      revert\n        /* \".git/MyContracts/KenyaProcurementTransparency.sol\":11975:12040  if (bytes(_description).length == 0) revert DescriptionRequired() */\n    tag_323:\n        /* \".git/MyContracts/KenyaProcurementTransparency.sol\":12055:12065  bidderList */\n      0x0d\n        /* \".git/MyContracts/KenyaProcurementTransparency.sol\":12055:12072  bidderList.length */\n      sload\n        /* \".git/MyContracts/KenyaProcurementTransparency.sol\":607:610  100 */\n      0x64\n      gt\n        /* \".git/MyContracts/KenyaProcurementTransparency.sol\":12051:12116  if (bidderList.length >= MAX_BIDDERS) revert BidderLimitReached() */\n      tag_324\n      jumpi\n        /* \".git/MyContracts/KenyaProcurementTransparency.sol\":12096:12116  BidderLimitReached() */\n      mload(0x40)\n      shl(0xe0, 0x5b7d9a0d)\n      dup2\n      mstore\n      0x04\n      add\n      mload(0x40)\n      dup1\n      swap2\n      sub\n      swap1\n      revert\n        /* \".git/MyContracts/KenyaProcurementTransparency.sol\":12051:12116  if (bidderList.length >= MAX_BIDDERS) revert BidderLimitReached() */\n    tag_324:\n      sub(shl(0xa0, 0x01), 0x01)\n        /* \".git/MyContracts/KenyaProcurementTransparency.sol\":12129:12155  registeredBidders[_bidder] */\n      dup4\n      and\n      0x00\n      swap1\n      dup2\n      mstore\n        /* \".git/MyContracts/KenyaProcurementTransparency.sol\":12129:12146  registeredBidders */\n      0x0a\n        /* \".git/MyContracts/KenyaProcurementTransparency.sol\":12129:12155  registeredBidders[_bidder] */\n      0x20\n      swap1\n      dup2\n      mstore\n      0x40\n      dup1\n      dup4\n      keccak256\n        /* \".git/MyContracts/KenyaProcurementTransparency.sol\":12129:12162  registeredBidders[_bidder] = true */\n      dup1\n      sload\n      not(0xff)\n      and\n        /* \".git/MyContracts/KenyaProcurementTransparency.sol\":12158:12162  true */\n      0x01\n        /* \".git/MyContracts/KenyaProcurementTransparency.sol\":12129:12162  registeredBidders[_bidder] = true */\n      or\n      swap1\n      sstore\n        /* \".git/MyContracts/KenyaProcurementTransparency.sol\":12173:12191  bidderDescriptions */\n      0x0b\n        /* \".git/MyContracts/KenyaProcurementTransparency.sol\":12173:12200  bidderDescriptions[_bidder] */\n      swap1\n      swap2\n      mstore\n      swap1\n      keccak256\n        /* \".git/MyContracts/KenyaProcurementTransparency.sol\":12173:12215  bidderDescriptions[_bidder] = _description */\n      tag_325\n        /* \".git/MyContracts/KenyaProcurementTransparency.sol\":12203:12215  _description */\n      dup4\n        /* \".git/MyContracts/KenyaProcurementTransparency.sol\":12173:12200  bidderDescriptions[_bidder] */\n      dup3\n        /* \".git/MyContracts/KenyaProcurementTransparency.sol\":12173:12215  bidderDescriptions[_bidder] = _description */\n      tag_326\n      jump\t// in\n    tag_325:\n      pop\n        /* \".git/MyContracts/KenyaProcurementTransparency.sol\":12226:12236  bidderList */\n      0x0d\n        /* \".git/MyContracts/KenyaProcurementTransparency.sol\":12226:12250  bidderList.push(_bidder) */\n      dup1\n      sload\n      0x01\n      dup2\n      add\n      dup3\n      sstore\n      0x00\n      swap2\n      swap1\n      swap2\n      mstore\n      0xd7b6990105719101dabeb77144f2a3385c8033acd3af97e9423a695e81ad1eb5\n      add\n      dup1\n      sload\n      not(sub(shl(0xa0, 0x01), 0x01))\n      and\n      sub(shl(0xa0, 0x01), 0x01)\n      dup6\n      and\n      or\n      swap1\n      sstore\n        /* \".git/MyContracts/KenyaProcurementTransparency.sol\":12268:12307  BidderRegistered(_bidder, _description) */\n      mload(0x40)\n      0x164b6120673b4b59137ef128c1c6d39e2de27d8baa1ddeda0db16ea4e15e97f6\n      swap1\n      tag_328\n      swap1\n        /* \".git/MyContracts/KenyaProcurementTransparency.sol\":12226:12250  bidderList.push(_bidder) */\n      dup6\n      swap1\n        /* \".git/MyContracts/KenyaProcurementTransparency.sol\":12294:12306  _description */\n      dup6\n      swap1\n        /* \".git/MyContracts/KenyaProcurementTransparency.sol\":12268:12307  BidderRegistered(_bidder, _description) */\n      tag_231\n      jump\t// in\n    tag_328:\n      mload(0x40)\n      dup1\n      swap2\n      sub\n      swap1\n      log1\n        /* \".git/MyContracts/KenyaProcurementTransparency.sol\":5867:5868  _ */\n      pop\n        /* \".git/MyContracts/KenyaProcurementTransparency.sol\":11655:12315  function registerBidder(address _bidder, string memory _description)... */\n      pop\n      pop\n      jump\t// out\n        /* \".git/MyContracts/KenyaProcurementTransparency.sol\":31403:32336  function getSubmissionDeadlineReadable()... */\n    tag_99:\n        /* \".git/MyContracts/KenyaProcurementTransparency.sol\":5813:5827  _tender.exists */\n      sload(0x09)\n        /* \".git/MyContracts/KenyaProcurementTransparency.sol\":31530:31565  uint256 submissionDeadlineTimestamp */\n      0x00\n      swap1\n      dup2\n      swap1\n      dup2\n      swap1\n      dup2\n      swap1\n      dup2\n      swap1\n      dup2\n      swap1\n        /* \".git/MyContracts/KenyaProcurementTransparency.sol\":5813:5827  _tender.exists */\n      0xff\n      and\n        /* \".git/MyContracts/KenyaProcurementTransparency.sol\":5808:5856  if (!_tender.exists) revert TenderDoesNotExist() */\n      tag_330\n      jumpi\n        /* \".git/MyContracts/KenyaProcurementTransparency.sol\":5836:5856  TenderDoesNotExist() */\n      mload(0x40)\n      shl(0xe1, 0x55e9e641)\n      dup2\n      mstore\n      0x04\n      add\n      mload(0x40)\n      dup1\n      swap2\n      sub\n      swap1\n      revert\n        /* \".git/MyContracts/KenyaProcurementTransparency.sol\":5808:5856  if (!_tender.exists) revert TenderDoesNotExist() */\n    tag_330:\n        /* \".git/MyContracts/KenyaProcurementTransparency.sol\":32042:32068  _tender.submissionDeadline */\n      sload(0x06)\n        /* \".git/MyContracts/KenyaProcurementTransparency.sol\":32021:32069  _timestampToDateTime(_tender.submissionDeadline) */\n      tag_332\n      swap1\n        /* \".git/MyContracts/KenyaProcurementTransparency.sol\":32021:32041  _timestampToDateTime */\n      tag_333\n        /* \".git/MyContracts/KenyaProcurementTransparency.sol\":32021:32069  _timestampToDateTime(_tender.submissionDeadline) */\n      jump\t// in\n    tag_332:\n        /* \".git/MyContracts/KenyaProcurementTransparency.sol\":32104:32130  _tender.submissionDeadline */\n      sload(0x06)\n      swap12\n        /* \".git/MyContracts/KenyaProcurementTransparency.sol\":31820:32069  (... */\n      swap5\n      swap11\n      pop\n      swap3\n      swap9\n      pop\n      swap1\n      swap7\n      pop\n      swap5\n      pop\n      swap3\n      pop\n        /* \".git/MyContracts/KenyaProcurementTransparency.sol\":31403:32336  function getSubmissionDeadlineReadable()... */\n      swap1\n      pop\n      jump\t// out\n        /* \".git/MyContracts/KenyaProcurementTransparency.sol\":22403:22769  function rejectDelivery(string memory _reason)... */\n    tag_106:\n        /* \".git/MyContracts/KenyaProcurementTransparency.sol\":5182:5191  inspector */\n      and(sub(shl(0xa0, 0x01), 0x01), sload(0x02))\n        /* \".git/MyContracts/KenyaProcurementTransparency.sol\":5178:5236  if (inspector == address(0)) revert InspectorNotAssigned() */\n      tag_335\n      jumpi\n        /* \".git/MyContracts/KenyaProcurementTransparency.sol\":5214:5236  InspectorNotAssigned() */\n      mload(0x40)\n      shl(0xe0, 0xd6ea3663)\n      dup2\n      mstore\n      0x04\n      add\n      mload(0x40)\n      dup1\n      swap2\n      sub\n      swap1\n      revert\n        /* \".git/MyContracts/KenyaProcurementTransparency.sol\":5178:5236  if (inspector == address(0)) revert InspectorNotAssigned() */\n    tag_335:\n        /* \".git/MyContracts/KenyaProcurementTransparency.sol\":5265:5274  inspector */\n      and(sub(shl(0xa0, 0x01), 0x01), sload(0x02))\n        /* \".git/MyContracts/KenyaProcurementTransparency.sol\":5251:5261  msg.sender */\n      caller\n        /* \".git/MyContracts/KenyaProcurementTransparency.sol\":5251:5274  msg.sender != inspector */\n      eq\n        /* \".git/MyContracts/KenyaProcurementTransparency.sol\":5247:5298  if (msg.sender != inspector) revert OnlyInspector() */\n      tag_336\n      jumpi\n        /* \".git/MyContracts/KenyaProcurementTransparency.sol\":5283:5298  OnlyInspector() */\n      mload(0x40)\n      shl(0xe0, 0x9864fbb3)\n      dup2\n      mstore\n      0x04\n      add\n      mload(0x40)\n      dup1\n      swap2\n      sub\n      swap1\n      revert\n        /* \".git/MyContracts/KenyaProcurementTransparency.sol\":5247:5298  if (msg.sender != inspector) revert OnlyInspector() */\n    tag_336:\n        /* \".git/MyContracts/KenyaProcurementTransparency.sol\":5813:5827  _tender.exists */\n      and(0xff, sload(0x09))\n        /* \".git/MyContracts/KenyaProcurementTransparency.sol\":5808:5856  if (!_tender.exists) revert TenderDoesNotExist() */\n      tag_338\n      jumpi\n        /* \".git/MyContracts/KenyaProcurementTransparency.sol\":5836:5856  TenderDoesNotExist() */\n      mload(0x40)\n      shl(0xe1, 0x55e9e641)\n      dup2\n      mstore\n      0x04\n      add\n      mload(0x40)\n      dup1\n      swap2\n      sub\n      swap1\n      revert\n        /* \".git/MyContracts/KenyaProcurementTransparency.sol\":5808:5856  if (!_tender.exists) revert TenderDoesNotExist() */\n    tag_338:\n        /* \".git/MyContracts/KenyaProcurementTransparency.sol\":22531:22553  TenderStatus.Delivered */\n      0x04\n      dup1\n        /* \".git/MyContracts/KenyaProcurementTransparency.sol\":6562:6569  _status */\n      sload(0x02)\n      shl(0xa0, 0x01)\n      swap1\n      div\n      0xff\n      and\n        /* \".git/MyContracts/KenyaProcurementTransparency.sol\":6562:6588  _status != _expectedStatus */\n      0x07\n      dup2\n      gt\n      iszero\n      tag_343\n      jumpi\n      tag_343\n      tag_258\n      jump\t// in\n    tag_343:\n      eq\n        /* \".git/MyContracts/KenyaProcurementTransparency.sol\":6558:6617  if (_status != _expectedStatus) revert InvalidTenderStage() */\n      tag_344\n      jumpi\n        /* \".git/MyContracts/KenyaProcurementTransparency.sol\":6597:6617  InvalidTenderStage() */\n      mload(0x40)\n      shl(0xe6, 0x0187fa83)\n      dup2\n      mstore\n      0x04\n      add\n      mload(0x40)\n      dup1\n      swap2\n      sub\n      swap1\n      revert\n        /* \".git/MyContracts/KenyaProcurementTransparency.sol\":6558:6617  if (_status != _expectedStatus) revert InvalidTenderStage() */\n    tag_344:\n        /* \".git/MyContracts/KenyaProcurementTransparency.sol\":22581:22588  _reason */\n      dup2\n        /* \".git/MyContracts/KenyaProcurementTransparency.sol\":22575:22596  bytes(_reason).length */\n      mload\n        /* \".git/MyContracts/KenyaProcurementTransparency.sol\":22600:22601  0 */\n      0x00\n        /* \".git/MyContracts/KenyaProcurementTransparency.sol\":22575:22601  bytes(_reason).length == 0 */\n      sub\n        /* \".git/MyContracts/KenyaProcurementTransparency.sol\":22571:22626  if (bytes(_reason).length == 0) revert ReasonRequired() */\n      tag_346\n      jumpi\n        /* \".git/MyContracts/KenyaProcurementTransparency.sol\":22610:22626  ReasonRequired() */\n      mload(0x40)\n      shl(0xe0, 0xbc7fd331)\n      dup2\n      mstore\n      0x04\n      add\n      mload(0x40)\n      dup1\n      swap2\n      sub\n      swap1\n      revert\n        /* \".git/MyContracts/KenyaProcurementTransparency.sol\":22571:22626  if (bytes(_reason).length == 0) revert ReasonRequired() */\n    tag_346:\n        /* \".git/MyContracts/KenyaProcurementTransparency.sol\":22639:22654  rejectionReason */\n      0x12\n        /* \".git/MyContracts/KenyaProcurementTransparency.sol\":22639:22664  rejectionReason = _reason */\n      tag_347\n        /* \".git/MyContracts/KenyaProcurementTransparency.sol\":22657:22664  _reason */\n      dup4\n        /* \".git/MyContracts/KenyaProcurementTransparency.sol\":22639:22654  rejectionReason */\n      dup3\n        /* \".git/MyContracts/KenyaProcurementTransparency.sol\":22639:22664  rejectionReason = _reason */\n      tag_326\n      jump\t// in\n    tag_347:\n      pop\n        /* \".git/MyContracts/KenyaProcurementTransparency.sol\":22675:22682  _status */\n      0x02\n        /* \".git/MyContracts/KenyaProcurementTransparency.sol\":22675:22706  _status = TenderStatus.Rejected */\n      dup1\n      sload\n      not(shl(0xa0, 0xff))\n      and\n      shl(0xa0, 0x05)\n      or\n      swap1\n      sstore\n        /* \".git/MyContracts/KenyaProcurementTransparency.sol\":22724:22761  DeliveryRejected(msg.sender, _reason) */\n      mload(0x40)\n      0x52fca0fcdda16f4a5f819b60bb9c2f99458433351b90e6fcb3e221fe03b10280\n      swap1\n      tag_266\n      swap1\n        /* \".git/MyContracts/KenyaProcurementTransparency.sol\":22741:22751  msg.sender */\n      caller\n      swap1\n        /* \".git/MyContracts/KenyaProcurementTransparency.sol\":22753:22760  _reason */\n      dup6\n      swap1\n        /* \".git/MyContracts/KenyaProcurementTransparency.sol\":22724:22761  DeliveryRejected(msg.sender, _reason) */\n      tag_231\n      jump\t// in\n        /* \".git/MyContracts/KenyaProcurementTransparency.sol\":10202:10624  function setInspector(address _inspector) external onlyAdmin tenderExists {... */\n    tag_115:\n        /* \".git/MyContracts/KenyaProcurementTransparency.sol\":5019:5024  admin */\n      and(sub(shl(0xa0, 0x01), 0x01), sload(0x00))\n        /* \".git/MyContracts/KenyaProcurementTransparency.sol\":5005:5015  msg.sender */\n      caller\n        /* \".git/MyContracts/KenyaProcurementTransparency.sol\":5005:5024  msg.sender != admin */\n      eq\n        /* \".git/MyContracts/KenyaProcurementTransparency.sol\":5001:5044  if (msg.sender != admin) revert OnlyAdmin() */\n      tag_352\n      jumpi\n        /* \".git/MyContracts/KenyaProcurementTransparency.sol\":5033:5044  OnlyAdmin() */\n      mload(0x40)\n      shl(0xe0, 0x47556579)\n      dup2\n      mstore\n      0x04\n      add\n      mload(0x40)\n      dup1\n      swap2\n      sub\n      swap1\n      revert\n        /* \".git/MyContracts/KenyaProcurementTransparency.sol\":5001:5044  if (msg.sender != admin) revert OnlyAdmin() */\n    tag_352:\n        /* \".git/MyContracts/KenyaProcurementTransparency.sol\":5813:5827  _tender.exists */\n      and(0xff, sload(0x09))\n        /* \".git/MyContracts/KenyaProcurementTransparency.sol\":5808:5856  if (!_tender.exists) revert TenderDoesNotExist() */\n      tag_354\n      jumpi\n        /* \".git/MyContracts/KenyaProcurementTransparency.sol\":5836:5856  TenderDoesNotExist() */\n      mload(0x40)\n      shl(0xe1, 0x55e9e641)\n      dup2\n      mstore\n      0x04\n      add\n      mload(0x40)\n      dup1\n      swap2\n      sub\n      swap1\n      revert\n        /* \".git/MyContracts/KenyaProcurementTransparency.sol\":5808:5856  if (!_tender.exists) revert TenderDoesNotExist() */\n    tag_354:\n      sub(shl(0xa0, 0x01), 0x01)\n        /* \".git/MyContracts/KenyaProcurementTransparency.sol\":10291:10315  _inspector == address(0) */\n      dup2\n      and\n        /* \".git/MyContracts/KenyaProcurementTransparency.sol\":10287:10340  if (_inspector == address(0)) revert InvalidAddress() */\n      tag_356\n      jumpi\n        /* \".git/MyContracts/KenyaProcurementTransparency.sol\":10324:10340  InvalidAddress() */\n      mload(0x40)\n      shl(0xe0, 0xe6c4247b)\n      dup2\n      mstore\n      0x04\n      add\n      mload(0x40)\n      dup1\n      swap2\n      sub\n      swap1\n      revert\n        /* \".git/MyContracts/KenyaProcurementTransparency.sol\":10287:10340  if (_inspector == address(0)) revert InvalidAddress() */\n    tag_356:\n        /* \".git/MyContracts/KenyaProcurementTransparency.sol\":10380:10401  TenderStatus.Accepted */\n      0x06\n        /* \".git/MyContracts/KenyaProcurementTransparency.sol\":10369:10376  _status */\n      sload(0x02)\n      shl(0xa0, 0x01)\n      swap1\n      div\n      0xff\n      and\n        /* \".git/MyContracts/KenyaProcurementTransparency.sol\":10369:10401  _status == TenderStatus.Accepted */\n      0x07\n      dup2\n      gt\n      iszero\n      tag_360\n      jumpi\n      tag_360\n      tag_258\n      jump\t// in\n    tag_360:\n      eq\n        /* \".git/MyContracts/KenyaProcurementTransparency.sol\":10369:10450  _status == TenderStatus.Accepted ||... */\n      dup1\n      tag_361\n      jumpi\n      pop\n        /* \".git/MyContracts/KenyaProcurementTransparency.sol\":10429:10450  TenderStatus.Rejected */\n      0x05\n        /* \".git/MyContracts/KenyaProcurementTransparency.sol\":10418:10425  _status */\n      sload(0x02)\n      shl(0xa0, 0x01)\n      swap1\n      div\n      0xff\n      and\n        /* \".git/MyContracts/KenyaProcurementTransparency.sol\":10418:10450  _status == TenderStatus.Rejected */\n      0x07\n      dup2\n      gt\n      iszero\n      tag_365\n      jumpi\n      tag_365\n      tag_258\n      jump\t// in\n    tag_365:\n      eq\n        /* \".git/MyContracts/KenyaProcurementTransparency.sol\":10369:10450  _status == TenderStatus.Accepted ||... */\n    tag_361:\n        /* \".git/MyContracts/KenyaProcurementTransparency.sol\":10369:10495  _status == TenderStatus.Accepted ||... */\n      dup1\n      tag_366\n      jumpi\n      pop\n        /* \".git/MyContracts/KenyaProcurementTransparency.sol\":10478:10495  TenderStatus.Paid */\n      0x07\n        /* \".git/MyContracts/KenyaProcurementTransparency.sol\":10467:10474  _status */\n      sload(0x02)\n      shl(0xa0, 0x01)\n      swap1\n      div\n      0xff\n      and\n        /* \".git/MyContracts/KenyaProcurementTransparency.sol\":10467:10495  _status == TenderStatus.Paid */\n      0x07\n      dup2\n      gt\n      iszero\n      tag_370\n      jumpi\n      tag_370\n      tag_258\n      jump\t// in\n    tag_370:\n      eq\n        /* \".git/MyContracts/KenyaProcurementTransparency.sol\":10369:10495  _status == TenderStatus.Accepted ||... */\n    tag_366:\n        /* \".git/MyContracts/KenyaProcurementTransparency.sol\":10351:10536  if (... */\n      iszero\n      tag_371\n      jumpi\n        /* \".git/MyContracts/KenyaProcurementTransparency.sol\":10514:10536  InspectorStageLocked() */\n      mload(0x40)\n      shl(0xe1, 0x2a28912d)\n      dup2\n      mstore\n      0x04\n      add\n      mload(0x40)\n      dup1\n      swap2\n      sub\n      swap1\n      revert\n        /* \".git/MyContracts/KenyaProcurementTransparency.sol\":10351:10536  if (... */\n    tag_371:\n        /* \".git/MyContracts/KenyaProcurementTransparency.sol\":10549:10558  inspector */\n      0x02\n        /* \".git/MyContracts/KenyaProcurementTransparency.sol\":10549:10571  inspector = _inspector */\n      dup1\n      sload\n      not(sub(shl(0xa0, 0x01), 0x01))\n      and\n      sub(shl(0xa0, 0x01), 0x01)\n      dup4\n      and\n      swap1\n      dup2\n      or\n      swap1\n      swap2\n      sstore\n        /* \".git/MyContracts/KenyaProcurementTransparency.sol\":10587:10616  InspectorAssigned(_inspector) */\n      mload(0x40)\n        /* \"#utility.yul\":2673:2724   */\n      swap1\n      dup2\n      mstore\n        /* \".git/MyContracts/KenyaProcurementTransparency.sol\":10587:10616  InspectorAssigned(_inspector) */\n      0xc7b11d63d071f03c4b488a3a44ee58c8a449f16b0ee289dd25af95c15c9f8e3a\n      swap1\n        /* \"#utility.yul\":2661:2663   */\n      0x20\n        /* \"#utility.yul\":2646:2664   */\n      add\n        /* \".git/MyContracts/KenyaProcurementTransparency.sol\":10587:10616  InspectorAssigned(_inspector) */\n    tag_372:\n      mload(0x40)\n      dup1\n      swap2\n      sub\n      swap1\n      log1\n        /* \".git/MyContracts/KenyaProcurementTransparency.sol\":10202:10624  function setInspector(address _inspector) external onlyAdmin tenderExists {... */\n      pop\n      jump\t// out\n        /* \".git/MyContracts/KenyaProcurementTransparency.sol\":13303:13889  function submitSealedBid(bytes32 _sealedBidHash)... */\n    tag_119:\n        /* \".git/MyContracts/KenyaProcurementTransparency.sol\":5813:5827  _tender.exists */\n      and(0xff, sload(0x09))\n        /* \".git/MyContracts/KenyaProcurementTransparency.sol\":5808:5856  if (!_tender.exists) revert TenderDoesNotExist() */\n      tag_374\n      jumpi\n        /* \".git/MyContracts/KenyaProcurementTransparency.sol\":5836:5856  TenderDoesNotExist() */\n      mload(0x40)\n      shl(0xe1, 0x55e9e641)\n      dup2\n      mstore\n      0x04\n      add\n      mload(0x40)\n      dup1\n      swap2\n      sub\n      swap1\n      revert\n        /* \".git/MyContracts/KenyaProcurementTransparency.sol\":5808:5856  if (!_tender.exists) revert TenderDoesNotExist() */\n    tag_374:\n        /* \".git/MyContracts/KenyaProcurementTransparency.sol\":5644:5654  msg.sender */\n      caller\n        /* \".git/MyContracts/KenyaProcurementTransparency.sol\":5626:5655  registeredBidders[msg.sender] */\n      0x00\n      swap1\n      dup2\n      mstore\n        /* \".git/MyContracts/KenyaProcurementTransparency.sol\":5626:5643  registeredBidders */\n      0x0a\n        /* \".git/MyContracts/KenyaProcurementTransparency.sol\":5626:5655  registeredBidders[msg.sender] */\n      0x20\n      mstore\n      0x40\n      swap1\n      keccak256\n      sload\n      0xff\n      and\n        /* \".git/MyContracts/KenyaProcurementTransparency.sol\":5621:5685  if (!registeredBidders[msg.sender]) revert NotRegisteredBidder() */\n      tag_376\n      jumpi\n        /* \".git/MyContracts/KenyaProcurementTransparency.sol\":5664:5685  NotRegisteredBidder() */\n      mload(0x40)\n      shl(0xe5, 0x02f9ce37)\n      dup2\n      mstore\n      0x04\n      add\n      mload(0x40)\n      dup1\n      swap2\n      sub\n      swap1\n      revert\n        /* \".git/MyContracts/KenyaProcurementTransparency.sol\":5621:5685  if (!registeredBidders[msg.sender]) revert NotRegisteredBidder() */\n    tag_376:\n        /* \".git/MyContracts/KenyaProcurementTransparency.sol\":6029:6055  _tender.submissionDeadline */\n      sload(0x06)\n        /* \".git/MyContracts/KenyaProcurementTransparency.sol\":6010:6025  block.timestamp */\n      timestamp\n        /* \".git/MyContracts/KenyaProcurementTransparency.sol\":6010:6055  block.timestamp >= _tender.submissionDeadline */\n      lt\n        /* \".git/MyContracts/KenyaProcurementTransparency.sol\":6006:6090  if (block.timestamp >= _tender.submissionDeadline) revert SubmissionDeadlinePassed() */\n      tag_378\n      jumpi\n        /* \".git/MyContracts/KenyaProcurementTransparency.sol\":6064:6090  SubmissionDeadlinePassed() */\n      mload(0x40)\n      shl(0xe1, 0x764b8e33)\n      dup2\n      mstore\n      0x04\n      add\n      mload(0x40)\n      dup1\n      swap2\n      sub\n      swap1\n      revert\n        /* \".git/MyContracts/KenyaProcurementTransparency.sol\":6006:6090  if (block.timestamp >= _tender.submissionDeadline) revert SubmissionDeadlinePassed() */\n    tag_378:\n        /* \".git/MyContracts/KenyaProcurementTransparency.sol\":13464:13484  TenderStatus.Created */\n      0x00\n      dup1\n        /* \".git/MyContracts/KenyaProcurementTransparency.sol\":6562:6569  _status */\n      sload(0x02)\n      shl(0xa0, 0x01)\n      swap1\n      div\n      0xff\n      and\n        /* \".git/MyContracts/KenyaProcurementTransparency.sol\":6562:6588  _status != _expectedStatus */\n      0x07\n      dup2\n      gt\n      iszero\n      tag_383\n      jumpi\n      tag_383\n      tag_258\n      jump\t// in\n    tag_383:\n      eq\n        /* \".git/MyContracts/KenyaProcurementTransparency.sol\":6558:6617  if (_status != _expectedStatus) revert InvalidTenderStage() */\n      tag_384\n      jumpi\n        /* \".git/MyContracts/KenyaProcurementTransparency.sol\":6597:6617  InvalidTenderStage() */\n      mload(0x40)\n      shl(0xe6, 0x0187fa83)\n      dup2\n      mstore\n      0x04\n      add\n      mload(0x40)\n      dup1\n      swap2\n      sub\n      swap1\n      revert\n        /* \".git/MyContracts/KenyaProcurementTransparency.sol\":6558:6617  if (_status != _expectedStatus) revert InvalidTenderStage() */\n    tag_384:\n        /* \".git/MyContracts/KenyaProcurementTransparency.sol\":13511:13521  msg.sender */\n      caller\n        /* \".git/MyContracts/KenyaProcurementTransparency.sol\":13506:13522  bids[msg.sender] */\n      0x00\n      swap1\n      dup2\n      mstore\n        /* \".git/MyContracts/KenyaProcurementTransparency.sol\":13506:13510  bids */\n      0x0c\n        /* \".git/MyContracts/KenyaProcurementTransparency.sol\":13506:13522  bids[msg.sender] */\n      0x20\n      mstore\n      0x40\n      swap1\n      keccak256\n        /* \".git/MyContracts/KenyaProcurementTransparency.sol\":13506:13532  bids[msg.sender].submitted */\n      0x01\n      add\n      sload\n      0xff\n      and\n        /* \".git/MyContracts/KenyaProcurementTransparency.sol\":13502:13562  if (bids[msg.sender].submitted) revert BidAlreadySubmitted() */\n      iszero\n      tag_386\n      jumpi\n        /* \".git/MyContracts/KenyaProcurementTransparency.sol\":13541:13562  BidAlreadySubmitted() */\n      mload(0x40)\n      shl(0xe1, 0x18f3c2ef)\n      dup2\n      mstore\n      0x04\n      add\n      mload(0x40)\n      dup1\n      swap2\n      sub\n      swap1\n      revert\n        /* \".git/MyContracts/KenyaProcurementTransparency.sol\":13502:13562  if (bids[msg.sender].submitted) revert BidAlreadySubmitted() */\n    tag_386:\n        /* \".git/MyContracts/KenyaProcurementTransparency.sol\":13577:13591  _sealedBidHash */\n      dup2\n        /* \".git/MyContracts/KenyaProcurementTransparency.sol\":13573:13636  if (_sealedBidHash == bytes32(0)) revert InvalidSealedBidHash() */\n      tag_387\n      jumpi\n        /* \".git/MyContracts/KenyaProcurementTransparency.sol\":13614:13636  InvalidSealedBidHash() */\n      mload(0x40)\n      shl(0xe3, 0x1fda9241)\n      dup2\n      mstore\n      0x04\n      add\n      mload(0x40)\n      dup1\n      swap2\n      sub\n      swap1\n      revert\n        /* \".git/MyContracts/KenyaProcurementTransparency.sol\":13573:13636  if (_sealedBidHash == bytes32(0)) revert InvalidSealedBidHash() */\n    tag_387:\n        /* \".git/MyContracts/KenyaProcurementTransparency.sol\":13668:13839  Bid({... */\n      0x40\n      dup1\n      mload\n      0xa0\n      dup2\n      add\n      dup3\n      mstore\n      dup4\n      dup2\n      mstore\n        /* \".git/MyContracts/KenyaProcurementTransparency.sol\":13742:13746  true */\n      0x01\n        /* \".git/MyContracts/KenyaProcurementTransparency.sol\":13668:13839  Bid({... */\n      0x20\n      dup1\n      dup4\n      add\n      dup3\n      dup2\n      mstore\n      0x00\n      dup5\n      dup7\n      add\n      dup2\n      dup2\n      mstore\n      0x60\n      dup7\n      add\n      dup3\n      dup2\n      mstore\n      0x80\n      dup8\n      add\n      dup4\n      dup2\n      mstore\n        /* \".git/MyContracts/KenyaProcurementTransparency.sol\":13654:13664  msg.sender */\n      caller\n        /* \".git/MyContracts/KenyaProcurementTransparency.sol\":13649:13665  bids[msg.sender] */\n      dup1\n      dup6\n      mstore\n        /* \".git/MyContracts/KenyaProcurementTransparency.sol\":13649:13653  bids */\n      0x0c\n        /* \".git/MyContracts/KenyaProcurementTransparency.sol\":13649:13665  bids[msg.sender] */\n      dup8\n      mstore\n      swap4\n      dup10\n      swap1\n      keccak256\n        /* \".git/MyContracts/KenyaProcurementTransparency.sol\":13649:13839  bids[msg.sender] = Bid({... */\n      swap8\n      mload\n      dup9\n      sstore\n      swap4\n      mload\n      swap6\n      dup8\n      add\n      dup1\n      sload\n      swap3\n      mload\n      not(0xffff)\n      swap1\n      swap4\n      and\n      swap7\n      iszero\n      iszero\n      not(0xff00)\n      and\n      swap7\n      swap1\n      swap7\n      or\n      0x0100\n      swap3\n      iszero\n      iszero\n      swap3\n      swap1\n      swap3\n      mul\n      swap2\n      swap1\n      swap2\n      or\n      swap1\n      swap5\n      sstore\n      swap3\n      mload\n      0x02\n      dup6\n      add\n      sstore\n      mload\n      0x03\n      swap1\n      swap4\n      add\n      dup1\n      sload\n      not(0xff)\n      and\n      swap4\n      iszero\n      iszero\n      swap4\n      swap1\n      swap4\n      or\n      swap1\n      swap3\n      sstore\n        /* \".git/MyContracts/KenyaProcurementTransparency.sol\":13857:13881  BidSubmitted(msg.sender) */\n      swap2\n      mload\n        /* \"#utility.yul\":2673:2724   */\n      swap2\n      dup3\n      mstore\n        /* \".git/MyContracts/KenyaProcurementTransparency.sol\":13857:13881  BidSubmitted(msg.sender) */\n      0x88c5a0d081e0c7a69b5817581ffa85b19d71703bc581bb5c09fa253c527a055e\n      swap2\n        /* \"#utility.yul\":2646:2664   */\n      add\n        /* \".git/MyContracts/KenyaProcurementTransparency.sol\":13857:13881  BidSubmitted(msg.sender) */\n      tag_266\n        /* \"#utility.yul\":2527:2730   */\n      jump\n        /* \".git/MyContracts/KenyaProcurementTransparency.sol\":28546:28676  function getCurrentStatusText() external view returns (string memory statusText) {... */\n    tag_122:\n        /* \".git/MyContracts/KenyaProcurementTransparency.sol\":28660:28667  _status */\n      sload(0x02)\n        /* \".git/MyContracts/KenyaProcurementTransparency.sol\":28601:28625  string memory statusText */\n      0x60\n      swap1\n        /* \".git/MyContracts/KenyaProcurementTransparency.sol\":28645:28668  _getStatusText(_status) */\n      tag_390\n      swap1\n      shl(0xa0, 0x01)\n        /* \".git/MyContracts/KenyaProcurementTransparency.sol\":28660:28667  _status */\n      swap1\n      div\n      0xff\n      and\n        /* \".git/MyContracts/KenyaProcurementTransparency.sol\":28645:28659  _getStatusText */\n      tag_285\n        /* \".git/MyContracts/KenyaProcurementTransparency.sol\":28645:28668  _getStatusText(_status) */\n      jump\t// in\n    tag_390:\n        /* \".git/MyContracts/KenyaProcurementTransparency.sol\":28638:28668  return _getStatusText(_status) */\n      swap1\n      pop\n        /* \".git/MyContracts/KenyaProcurementTransparency.sol\":28546:28676  function getCurrentStatusText() external view returns (string memory statusText) {... */\n      swap1\n      jump\t// out\n        /* \".git/MyContracts/KenyaProcurementTransparency.sol\":15426:16366  function evaluateTender()... */\n    tag_126:\n        /* \".git/MyContracts/KenyaProcurementTransparency.sol\":5019:5024  admin */\n      and(sub(shl(0xa0, 0x01), 0x01), sload(0x00))\n        /* \".git/MyContracts/KenyaProcurementTransparency.sol\":5005:5015  msg.sender */\n      caller\n        /* \".git/MyContracts/KenyaProcurementTransparency.sol\":5005:5024  msg.sender != admin */\n      eq\n        /* \".git/MyContracts/KenyaProcurementTransparency.sol\":5001:5044  if (msg.sender != admin) revert OnlyAdmin() */\n      tag_392\n      jumpi\n        /* \".git/MyContracts/KenyaProcurementTransparency.sol\":5033:5044  OnlyAdmin() */\n      mload(0x40)\n      shl(0xe0, 0x47556579)\n      dup2\n      mstore\n      0x04\n      add\n      mload(0x40)\n      dup1\n      swap2\n      sub\n      swap1\n      revert\n        /* \".git/MyContracts/KenyaProcurementTransparency.sol\":5001:5044  if (msg.sender != admin) revert OnlyAdmin() */\n    tag_392:\n        /* \".git/MyContracts/KenyaProcurementTransparency.sol\":5813:5827  _tender.exists */\n      and(0xff, sload(0x09))\n        /* \".git/MyContracts/KenyaProcurementTransparency.sol\":5808:5856  if (!_tender.exists) revert TenderDoesNotExist() */\n      tag_394\n      jumpi\n        /* \".git/MyContracts/KenyaProcurementTransparency.sol\":5836:5856  TenderDoesNotExist() */\n      mload(0x40)\n      shl(0xe1, 0x55e9e641)\n      dup2\n      mstore\n      0x04\n      add\n      mload(0x40)\n      dup1\n      swap2\n      sub\n      swap1\n      revert\n        /* \".git/MyContracts/KenyaProcurementTransparency.sol\":5808:5856  if (!_tender.exists) revert TenderDoesNotExist() */\n    tag_394:\n        /* \".git/MyContracts/KenyaProcurementTransparency.sol\":15529:15552  TenderStatus.RevealOpen */\n      0x01\n      dup1\n        /* \".git/MyContracts/KenyaProcurementTransparency.sol\":6562:6569  _status */\n      sload(0x02)\n      shl(0xa0, 0x01)\n      swap1\n      div\n      0xff\n      and\n        /* \".git/MyContracts/KenyaProcurementTransparency.sol\":6562:6588  _status != _expectedStatus */\n      0x07\n      dup2\n      gt\n      iszero\n      tag_399\n      jumpi\n      tag_399\n      tag_258\n      jump\t// in\n    tag_399:\n      eq\n        /* \".git/MyContracts/KenyaProcurementTransparency.sol\":6558:6617  if (_status != _expectedStatus) revert InvalidTenderStage() */\n      tag_400\n      jumpi\n        /* \".git/MyContracts/KenyaProcurementTransparency.sol\":6597:6617  InvalidTenderStage() */\n      mload(0x40)\n      shl(0xe6, 0x0187fa83)\n      dup2\n      mstore\n      0x04\n      add\n      mload(0x40)\n      dup1\n      swap2\n      sub\n      swap1\n      revert\n        /* \".git/MyContracts/KenyaProcurementTransparency.sol\":6558:6617  if (_status != _expectedStatus) revert InvalidTenderStage() */\n    tag_400:\n        /* \".git/MyContracts/KenyaProcurementTransparency.sol\":15683:15693  bidderList */\n      0x0d\n        /* \".git/MyContracts/KenyaProcurementTransparency.sol\":15683:15700  bidderList.length */\n      sload\n        /* \".git/MyContracts/KenyaProcurementTransparency.sol\":15570:15588  address bestBidder */\n      0x00\n      swap1\n      not(0x00)\n        /* \".git/MyContracts/KenyaProcurementTransparency.sol\":15633:15650  type(uint256).max */\n      swap1\n        /* \".git/MyContracts/KenyaProcurementTransparency.sol\":15570:15588  address bestBidder */\n      dup3\n        /* \".git/MyContracts/KenyaProcurementTransparency.sol\":15713:16122  for (uint256 i = 0; i < bidderCount; ) {... */\n    tag_402:\n        /* \".git/MyContracts/KenyaProcurementTransparency.sol\":15737:15748  bidderCount */\n      dup2\n        /* \".git/MyContracts/KenyaProcurementTransparency.sol\":15733:15734  i */\n      dup2\n        /* \".git/MyContracts/KenyaProcurementTransparency.sol\":15733:15748  i < bidderCount */\n      lt\n        /* \".git/MyContracts/KenyaProcurementTransparency.sol\":15713:16122  for (uint256 i = 0; i < bidderCount; ) {... */\n      iszero\n      tag_403\n      jumpi\n        /* \".git/MyContracts/KenyaProcurementTransparency.sol\":15767:15781  address bidder */\n      0x00\n        /* \".git/MyContracts/KenyaProcurementTransparency.sol\":15784:15794  bidderList */\n      0x0d\n        /* \".git/MyContracts/KenyaProcurementTransparency.sol\":15795:15796  i */\n      dup3\n        /* \".git/MyContracts/KenyaProcurementTransparency.sol\":15784:15797  bidderList[i] */\n      dup2\n      sload\n      dup2\n      lt\n      tag_406\n      jumpi\n      tag_406\n      tag_407\n      jump\t// in\n    tag_406:\n      0x00\n      swap2\n      dup3\n      mstore\n      0x20\n      dup1\n      dup4\n      keccak256\n      swap1\n      swap2\n      add\n      sload\n      sub(shl(0xa0, 0x01), 0x01)\n      and\n        /* \".git/MyContracts/KenyaProcurementTransparency.sol\":15836:15848  bids[bidder] */\n      dup1\n      dup4\n      mstore\n        /* \".git/MyContracts/KenyaProcurementTransparency.sol\":15836:15840  bids */\n      0x0c\n        /* \".git/MyContracts/KenyaProcurementTransparency.sol\":15836:15848  bids[bidder] */\n      dup3\n      mstore\n      0x40\n      swap3\n      dup4\n      swap1\n      keccak256\n        /* \".git/MyContracts/KenyaProcurementTransparency.sol\":15812:15848  Bid memory currentBid = bids[bidder] */\n      dup4\n      mload\n      0xa0\n      dup2\n      add\n      dup6\n      mstore\n      dup2\n      sload\n      dup2\n      mstore\n        /* \".git/MyContracts/KenyaProcurementTransparency.sol\":15784:15797  bidderList[i] */\n      0x01\n        /* \".git/MyContracts/KenyaProcurementTransparency.sol\":15812:15848  Bid memory currentBid = bids[bidder] */\n      dup3\n      add\n      sload\n      0xff\n      dup1\n      dup3\n      and\n      iszero\n      iszero\n      swap6\n      dup4\n      add\n      swap6\n      swap1\n      swap6\n      mstore\n        /* \".git/MyContracts/KenyaProcurementTransparency.sol\":15784:15797  bidderList[i] */\n      0x0100\n        /* \".git/MyContracts/KenyaProcurementTransparency.sol\":15812:15848  Bid memory currentBid = bids[bidder] */\n      swap1\n      div\n      dup5\n      and\n      iszero\n      iszero\n      swap5\n      dup2\n      add\n      swap5\n      swap1\n      swap5\n      mstore\n      0x02\n      dup2\n      add\n      sload\n      0x60\n      dup6\n      add\n      mstore\n      0x03\n      add\n      sload\n      swap1\n      swap2\n      and\n      iszero\n      dup1\n      iszero\n      0x80\n      dup5\n      add\n      dup2\n      swap1\n      mstore\n        /* \".git/MyContracts/KenyaProcurementTransparency.sol\":15784:15797  bidderList[i] */\n      swap2\n      swap4\n      pop\n        /* \".git/MyContracts/KenyaProcurementTransparency.sol\":15869:15908  currentBid.valid && currentBid.revealed */\n      tag_409\n      jumpi\n      pop\n        /* \".git/MyContracts/KenyaProcurementTransparency.sol\":15889:15899  currentBid */\n      dup1\n        /* \".git/MyContracts/KenyaProcurementTransparency.sol\":15889:15908  currentBid.revealed */\n      0x40\n      add\n      mload\n        /* \".git/MyContracts/KenyaProcurementTransparency.sol\":15869:15908  currentBid.valid && currentBid.revealed */\n    tag_409:\n        /* \".git/MyContracts/KenyaProcurementTransparency.sol\":15869:15942  currentBid.valid && currentBid.revealed && currentBid.amount < bestAmount */\n      dup1\n      iszero\n      tag_410\n      jumpi\n      pop\n        /* \".git/MyContracts/KenyaProcurementTransparency.sol\":15932:15942  bestAmount */\n      dup5\n        /* \".git/MyContracts/KenyaProcurementTransparency.sol\":15912:15922  currentBid */\n      dup2\n        /* \".git/MyContracts/KenyaProcurementTransparency.sol\":15912:15929  currentBid.amount */\n      0x60\n      add\n      mload\n        /* \".git/MyContracts/KenyaProcurementTransparency.sol\":15912:15942  currentBid.amount < bestAmount */\n      lt\n        /* \".git/MyContracts/KenyaProcurementTransparency.sol\":15869:15942  currentBid.valid && currentBid.revealed && currentBid.amount < bestAmount */\n    tag_410:\n        /* \".git/MyContracts/KenyaProcurementTransparency.sol\":15865:16047  if (currentBid.valid && currentBid.revealed && currentBid.amount < bestAmount) {... */\n      iszero\n      tag_411\n      jumpi\n        /* \".git/MyContracts/KenyaProcurementTransparency.sol\":15976:15986  currentBid */\n      dup1\n        /* \".git/MyContracts/KenyaProcurementTransparency.sol\":15976:15993  currentBid.amount */\n      0x60\n      add\n      mload\n        /* \".git/MyContracts/KenyaProcurementTransparency.sol\":15963:15993  bestAmount = currentBid.amount */\n      swap5\n      pop\n        /* \".git/MyContracts/KenyaProcurementTransparency.sol\":16025:16031  bidder */\n      dup2\n        /* \".git/MyContracts/KenyaProcurementTransparency.sol\":16012:16031  bestBidder = bidder */\n      swap6\n      pop\n        /* \".git/MyContracts/KenyaProcurementTransparency.sol\":15865:16047  if (currentBid.valid && currentBid.revealed && currentBid.amount < bestAmount) {... */\n    tag_411:\n      pop\n      pop\n        /* \".git/MyContracts/KenyaProcurementTransparency.sol\":16092:16095  ++i */\n      0x01\n      add\n        /* \".git/MyContracts/KenyaProcurementTransparency.sol\":15713:16122  for (uint256 i = 0; i < bidderCount; ) {... */\n      jump(tag_402)\n    tag_403:\n      pop\n      sub(shl(0xa0, 0x01), 0x01)\n        /* \".git/MyContracts/KenyaProcurementTransparency.sol\":16138:16162  bestBidder == address(0) */\n      dup4\n      and\n        /* \".git/MyContracts/KenyaProcurementTransparency.sol\":16134:16192  if (bestBidder == address(0)) revert NoValidRevealedBids() */\n      tag_412\n      jumpi\n        /* \".git/MyContracts/KenyaProcurementTransparency.sol\":16171:16192  NoValidRevealedBids() */\n      mload(0x40)\n      shl(0xe1, 0x13b9371b)\n      dup2\n      mstore\n      0x04\n      add\n      mload(0x40)\n      dup1\n      swap2\n      sub\n      swap1\n      revert\n        /* \".git/MyContracts/KenyaProcurementTransparency.sol\":16134:16192  if (bestBidder == address(0)) revert NoValidRevealedBids() */\n    tag_412:\n        /* \".git/MyContracts/KenyaProcurementTransparency.sol\":16205:16212  _winner */\n      0x0e\n        /* \".git/MyContracts/KenyaProcurementTransparency.sol\":16205:16225  _winner = bestBidder */\n      dup1\n      sload\n      not(sub(shl(0xa0, 0x01), 0x01))\n      and\n      sub(shl(0xa0, 0x01), 0x01)\n      dup6\n      and\n      swap1\n      dup2\n      or\n      swap1\n      swap2\n      sstore\n        /* \".git/MyContracts/KenyaProcurementTransparency.sol\":16236:16245  lowestBid */\n      0x0f\n        /* \".git/MyContracts/KenyaProcurementTransparency.sol\":16236:16258  lowestBid = bestAmount */\n      dup4\n      swap1\n      sstore\n        /* \".git/MyContracts/KenyaProcurementTransparency.sol\":16279:16301  TenderStatus.Evaluated */\n      0x02\n        /* \".git/MyContracts/KenyaProcurementTransparency.sol\":16269:16301  _status = TenderStatus.Evaluated */\n      dup1\n      sload\n      not(shl(0xa0, 0xff))\n      and\n      shl(0xa1, 0x01)\n      or\n      swap1\n      sstore\n        /* \".git/MyContracts/KenyaProcurementTransparency.sol\":16319:16358  TenderEvaluated(bestBidder, bestAmount) */\n      0x40\n      dup1\n      mload\n        /* \"#utility.yul\":15727:15778   */\n      swap2\n      dup3\n      mstore\n        /* \"#utility.yul\":15809:15811   */\n      0x20\n        /* \"#utility.yul\":15794:15812   */\n      dup3\n      add\n        /* \"#utility.yul\":15787:15821   */\n      dup5\n      swap1\n      mstore\n        /* \".git/MyContracts/KenyaProcurementTransparency.sol\":16319:16358  TenderEvaluated(bestBidder, bestAmount) */\n      dup1\n      mload\n      0x44a8e45b0547725a1b190fe91fba127f673b8cec941ceaf8b3e2e67d61055dfe\n      swap3\n      dup2\n      swap1\n      sub\n      swap1\n      swap2\n      add\n      swap1\n      log1\n        /* \".git/MyContracts/KenyaProcurementTransparency.sol\":15559:16366  {... */\n      pop\n      pop\n      pop\n        /* \".git/MyContracts/KenyaProcurementTransparency.sol\":5867:5868  _ */\n      pop\n        /* \".git/MyContracts/KenyaProcurementTransparency.sol\":15426:16366  function evaluateTender()... */\n      jump\t// out\n        /* \".git/MyContracts/KenyaProcurementTransparency.sol\":29558:30873  function tender()... */\n    tag_135:\n        /* \".git/MyContracts/KenyaProcurementTransparency.sol\":29640:29666  string memory tenderNumber */\n      0x60\n        /* \".git/MyContracts/KenyaProcurementTransparency.sol\":29681:29700  string memory title */\n      dup1\n        /* \".git/MyContracts/KenyaProcurementTransparency.sol\":29715:29740  string memory description */\n      0x60\n        /* \".git/MyContracts/KenyaProcurementTransparency.sol\":29755:29790  uint256 submissionDeadlineTimestamp */\n      0x00\n        /* \".git/MyContracts/KenyaProcurementTransparency.sol\":29805:29835  uint256 submissionDeadlineYear */\n      0x00\n        /* \".git/MyContracts/KenyaProcurementTransparency.sol\":29850:29881  uint256 submissionDeadlineMonth */\n      0x00\n        /* \".git/MyContracts/KenyaProcurementTransparency.sol\":29896:29925  uint256 submissionDeadlineDay */\n      0x00\n        /* \".git/MyContracts/KenyaProcurementTransparency.sol\":29940:29970  uint256 submissionDeadlineHour */\n      0x00\n        /* \".git/MyContracts/KenyaProcurementTransparency.sol\":29985:30017  uint256 submissionDeadlineMinute */\n      0x00\n        /* \".git/MyContracts/KenyaProcurementTransparency.sol\":30032:30054  uint256 contractAmount */\n      0x00\n        /* \".git/MyContracts/KenyaProcurementTransparency.sol\":30069:30100  string memory qualificationNote */\n      0x60\n        /* \".git/MyContracts/KenyaProcurementTransparency.sol\":30115:30126  bool exists */\n      0x00\n        /* \".git/MyContracts/KenyaProcurementTransparency.sol\":30355:30403  _timestampToDateTime(_tender.submissionDeadline) */\n      tag_417\n        /* \".git/MyContracts/KenyaProcurementTransparency.sol\":30376:30383  _tender */\n      0x03\n        /* \".git/MyContracts/KenyaProcurementTransparency.sol\":30376:30402  _tender.submissionDeadline */\n      dup1\n      add\n      sload\n        /* \".git/MyContracts/KenyaProcurementTransparency.sol\":30355:30375  _timestampToDateTime */\n      tag_333\n        /* \".git/MyContracts/KenyaProcurementTransparency.sol\":30355:30403  _timestampToDateTime(_tender.submissionDeadline) */\n      jump\t// in\n    tag_417:\n        /* \".git/MyContracts/KenyaProcurementTransparency.sol\":30154:30403  (... */\n      dup1\n      swap9\n      pop\n      dup2\n      swap10\n      pop\n      dup3\n      swap11\n      pop\n      dup4\n      swap12\n      pop\n      dup5\n      swap13\n      pop\n      pop\n      pop\n      pop\n      pop\n      pop\n        /* \".git/MyContracts/KenyaProcurementTransparency.sol\":30438:30445  _tender */\n      0x03\n        /* \".git/MyContracts/KenyaProcurementTransparency.sol\":30438:30458  _tender.tenderNumber */\n      0x00\n      add\n        /* \".git/MyContracts/KenyaProcurementTransparency.sol\":30473:30480  _tender */\n      0x03\n        /* \".git/MyContracts/KenyaProcurementTransparency.sol\":30473:30486  _tender.title */\n      0x01\n      add\n        /* \".git/MyContracts/KenyaProcurementTransparency.sol\":30501:30508  _tender */\n      0x03\n        /* \".git/MyContracts/KenyaProcurementTransparency.sol\":30501:30520  _tender.description */\n      0x02\n      add\n        /* \".git/MyContracts/KenyaProcurementTransparency.sol\":30535:30542  _tender */\n      0x03\n        /* \".git/MyContracts/KenyaProcurementTransparency.sol\":30535:30561  _tender.submissionDeadline */\n      dup1\n      add\n      sload\n        /* \".git/MyContracts/KenyaProcurementTransparency.sol\":30576:30598  submissionDeadlineYear */\n      dup12\n        /* \".git/MyContracts/KenyaProcurementTransparency.sol\":30613:30636  submissionDeadlineMonth */\n      dup12\n        /* \".git/MyContracts/KenyaProcurementTransparency.sol\":30651:30672  submissionDeadlineDay */\n      dup12\n        /* \".git/MyContracts/KenyaProcurementTransparency.sol\":30687:30709  submissionDeadlineHour */\n      dup12\n        /* \".git/MyContracts/KenyaProcurementTransparency.sol\":30724:30748  submissionDeadlineMinute */\n      dup12\n        /* \".git/MyContracts/KenyaProcurementTransparency.sol\":30763:30770  _tender */\n      0x03\n        /* \".git/MyContracts/KenyaProcurementTransparency.sol\":30763:30785  _tender.contractAmount */\n      0x04\n      add\n      sload\n        /* \".git/MyContracts/KenyaProcurementTransparency.sol\":30800:30807  _tender */\n      0x03\n        /* \".git/MyContracts/KenyaProcurementTransparency.sol\":30800:30825  _tender.qualificationNote */\n      0x05\n      add\n        /* \".git/MyContracts/KenyaProcurementTransparency.sol\":30840:30847  _tender */\n      0x03\n        /* \".git/MyContracts/KenyaProcurementTransparency.sol\":30840:30854  _tender.exists */\n      0x06\n      add\n      0x00\n      swap1\n      sload\n      swap1\n      0x0100\n      exp\n      swap1\n      div\n      0xff\n      and\n        /* \".git/MyContracts/KenyaProcurementTransparency.sol\":30416:30865  return (... */\n      dup12\n      dup1\n      sload\n      tag_418\n      swap1\n      tag_305\n      jump\t// in\n    tag_418:\n      dup1\n      0x1f\n      add\n      0x20\n      dup1\n      swap2\n      div\n      mul\n      0x20\n      add\n      mload(0x40)\n      swap1\n      dup2\n      add\n      0x40\n      mstore\n      dup1\n      swap3\n      swap2\n      swap1\n      dup2\n      dup2\n      mstore\n      0x20\n      add\n      dup3\n      dup1\n      sload\n      tag_419\n      swap1\n      tag_305\n      jump\t// in\n    tag_419:\n      dup1\n      iszero\n      tag_420\n      jumpi\n      dup1\n      0x1f\n      lt\n      tag_421\n      jumpi\n      0x0100\n      dup1\n      dup4\n      sload\n      div\n      mul\n      dup4\n      mstore\n      swap2\n      0x20\n      add\n      swap2\n      jump(tag_420)\n    tag_421:\n      dup3\n      add\n      swap2\n      swap1\n      0x00\n      mstore\n      keccak256(0x00, 0x20)\n      swap1\n    tag_422:\n      dup2\n      sload\n      dup2\n      mstore\n      swap1\n      0x01\n      add\n      swap1\n      0x20\n      add\n      dup1\n      dup4\n      gt\n      tag_422\n      jumpi\n      dup3\n      swap1\n      sub\n      0x1f\n      and\n      dup3\n      add\n      swap2\n    tag_420:\n      pop\n      pop\n      pop\n      pop\n      pop\n      swap12\n      pop\n      dup11\n      dup1\n      sload\n      tag_423\n      swap1\n      tag_305\n      jump\t// in\n    tag_423:\n      dup1\n      0x1f\n      add\n      0x20\n      dup1\n      swap2\n      div\n      mul\n      0x20\n      add\n      mload(0x40)\n      swap1\n      dup2\n      add\n      0x40\n      mstore\n      dup1\n      swap3\n      swap2\n      swap1\n      dup2\n      dup2\n      mstore\n      0x20\n      add\n      dup3\n      dup1\n      sload\n      tag_424\n      swap1\n      tag_305\n      jump\t// in\n    tag_424:\n      dup1\n      iszero\n      tag_425\n      jumpi\n      dup1\n      0x1f\n      lt\n      tag_426\n      jumpi\n      0x0100\n      dup1\n      dup4\n      sload\n      div\n      mul\n      dup4\n      mstore\n      swap2\n      0x20\n      add\n      swap2\n      jump(tag_425)\n    tag_426:\n      dup3\n      add\n      swap2\n      swap1\n      0x00\n      mstore\n      keccak256(0x00, 0x20)\n      swap1\n    tag_427:\n      dup2\n      sload\n      dup2\n      mstore\n      swap1\n      0x01\n      add\n      swap1\n      0x20\n      add\n      dup1\n      dup4\n      gt\n      tag_427\n      jumpi\n      dup3\n      swap1\n      sub\n      0x1f\n      and\n      dup3\n      add\n      swap2\n    tag_425:\n      pop\n      pop\n      pop\n      pop\n      pop\n      swap11\n      pop\n      dup10\n      dup1\n      sload\n      tag_428\n      swap1\n      tag_305\n      jump\t// in\n    tag_428:\n      dup1\n      0x1f\n      add\n      0x20\n      dup1\n      swap2\n      div\n      mul\n      0x20\n      add\n      mload(0x40)\n      swap1\n      dup2\n      add\n      0x40\n      mstore\n      dup1\n      swap3\n      swap2\n      swap1\n      dup2\n      dup2\n      mstore\n      0x20\n      add\n      dup3\n      dup1\n      sload\n      tag_429\n      swap1\n      tag_305\n      jump\t// in\n    tag_429:\n      dup1\n      iszero\n      tag_430\n      jumpi\n      dup1\n      0x1f\n      lt\n      tag_431\n      jumpi\n      0x0100\n      dup1\n      dup4\n      sload\n      div\n      mul\n      dup4\n      mstore\n      swap2\n      0x20\n      add\n      swap2\n      jump(tag_430)\n    tag_431:\n      dup3\n      add\n      swap2\n      swap1\n      0x00\n      mstore\n      keccak256(0x00, 0x20)\n      swap1\n    tag_432:\n      dup2\n      sload\n      dup2\n      mstore\n      swap1\n      0x01\n      add\n      swap1\n      0x20\n      add\n      dup1\n      dup4\n      gt\n      tag_432\n      jumpi\n      dup3\n      swap1\n      sub\n      0x1f\n      and\n      dup3\n      add\n      swap2\n    tag_430:\n      pop\n      pop\n      pop\n      pop\n      pop\n      swap10\n      pop\n      dup2\n      dup1\n      sload\n      tag_433\n      swap1\n      tag_305\n      jump\t// in\n    tag_433:\n      dup1\n      0x1f\n      add\n      0x20\n      dup1\n      swap2\n      div\n      mul\n      0x20\n      add\n      mload(0x40)\n      swap1\n      dup2\n      add\n      0x40\n      mstore\n      dup1\n      swap3\n      swap2\n      swap1\n      dup2\n      dup2\n      mstore\n      0x20\n      add\n      dup3\n      dup1\n      sload\n      tag_434\n      swap1\n      tag_305\n      jump\t// in\n    tag_434:\n      dup1\n      iszero\n      tag_435\n      jumpi\n      dup1\n      0x1f\n      lt\n      tag_436\n      jumpi\n      0x0100\n      dup1\n      dup4\n      sload\n      div\n      mul\n      dup4\n      mstore\n      swap2\n      0x20\n      add\n      swap2\n      jump(tag_435)\n    tag_436:\n      dup3\n      add\n      swap2\n      swap1\n      0x00\n      mstore\n      keccak256(0x00, 0x20)\n      swap1\n    tag_437:\n      dup2\n      sload\n      dup2\n      mstore\n      swap1\n      0x01\n      add\n      swap1\n      0x20\n      add\n      dup1\n      dup4\n      gt\n      tag_437\n      jumpi\n      dup3\n      swap1\n      sub\n      0x1f\n      and\n      dup3\n      add\n      swap2\n    tag_435:\n      pop\n      pop\n      pop\n      pop\n      pop\n      swap2\n      pop\n      swap12\n      pop\n      swap12\n      pop\n      swap12\n      pop\n      swap12\n      pop\n      swap12\n      pop\n      swap12\n      pop\n      swap12\n      pop\n      swap12\n      pop\n      swap12\n      pop\n      swap12\n      pop\n      swap12\n      pop\n      swap12\n      pop\n        /* \".git/MyContracts/KenyaProcurementTransparency.sol\":29558:30873  function tender()... */\n      swap1\n      swap2\n      swap3\n      swap4\n      swap5\n      swap6\n      swap7\n      swap8\n      swap9\n      swap10\n      swap11\n      swap12\n      jump\t// out\n        /* \".git/MyContracts/KenyaProcurementTransparency.sol\":10767:11055  function transferAdmin(address _newAdmin) external onlyAdmin {... */\n    tag_145:\n        /* \".git/MyContracts/KenyaProcurementTransparency.sol\":5019:5024  admin */\n      and(sub(shl(0xa0, 0x01), 0x01), sload(0x00))\n        /* \".git/MyContracts/KenyaProcurementTransparency.sol\":5005:5015  msg.sender */\n      caller\n        /* \".git/MyContracts/KenyaProcurementTransparency.sol\":5005:5024  msg.sender != admin */\n      eq\n        /* \".git/MyContracts/KenyaProcurementTransparency.sol\":5001:5044  if (msg.sender != admin) revert OnlyAdmin() */\n      tag_440\n      jumpi\n        /* \".git/MyContracts/KenyaProcurementTransparency.sol\":5033:5044  OnlyAdmin() */\n      mload(0x40)\n      shl(0xe0, 0x47556579)\n      dup2\n      mstore\n      0x04\n      add\n      mload(0x40)\n      dup1\n      swap2\n      sub\n      swap1\n      revert\n        /* \".git/MyContracts/KenyaProcurementTransparency.sol\":5001:5044  if (msg.sender != admin) revert OnlyAdmin() */\n    tag_440:\n      sub(shl(0xa0, 0x01), 0x01)\n        /* \".git/MyContracts/KenyaProcurementTransparency.sol\":10843:10866  _newAdmin == address(0) */\n      dup2\n      and\n        /* \".git/MyContracts/KenyaProcurementTransparency.sol\":10839:10891  if (_newAdmin == address(0)) revert InvalidAddress() */\n      tag_442\n      jumpi\n        /* \".git/MyContracts/KenyaProcurementTransparency.sol\":10875:10891  InvalidAddress() */\n      mload(0x40)\n      shl(0xe0, 0xe6c4247b)\n      dup2\n      mstore\n      0x04\n      add\n      mload(0x40)\n      dup1\n      swap2\n      sub\n      swap1\n      revert\n        /* \".git/MyContracts/KenyaProcurementTransparency.sol\":10839:10891  if (_newAdmin == address(0)) revert InvalidAddress() */\n    tag_442:\n        /* \".git/MyContracts/KenyaProcurementTransparency.sol\":10919:10924  admin */\n      sload(0x00)\n      sub(shl(0xa0, 0x01), 0x01)\n      swap1\n      dup2\n      and\n        /* \".git/MyContracts/KenyaProcurementTransparency.sol\":10906:10924  _newAdmin == admin */\n      swap1\n      dup3\n      and\n      sub\n        /* \".git/MyContracts/KenyaProcurementTransparency.sol\":10902:10954  if (_newAdmin == admin) revert AlreadyCurrentAdmin() */\n      tag_443\n      jumpi\n        /* \".git/MyContracts/KenyaProcurementTransparency.sol\":10933:10954  AlreadyCurrentAdmin() */\n      mload(0x40)\n      shl(0xe2, 0x2263673f)\n      dup2\n      mstore\n      0x04\n      add\n      mload(0x40)\n      dup1\n      swap2\n      sub\n      swap1\n      revert\n        /* \".git/MyContracts/KenyaProcurementTransparency.sol\":10902:10954  if (_newAdmin == admin) revert AlreadyCurrentAdmin() */\n    tag_443:\n        /* \".git/MyContracts/KenyaProcurementTransparency.sol\":10965:10977  pendingAdmin */\n      0x01\n        /* \".git/MyContracts/KenyaProcurementTransparency.sol\":10965:10989  pendingAdmin = _newAdmin */\n      dup1\n      sload\n      not(sub(shl(0xa0, 0x01), 0x01))\n      and\n      sub(shl(0xa0, 0x01), 0x01)\n      dup4\n      dup2\n      and\n      swap2\n      dup3\n      or\n      swap1\n      swap3\n      sstore\n      0x00\n        /* \".git/MyContracts/KenyaProcurementTransparency.sol\":11030:11035  admin */\n      dup1\n      sload\n        /* \".git/MyContracts/KenyaProcurementTransparency.sol\":11007:11047  AdminTransferInitiated(admin, _newAdmin) */\n      mload(0x40)\n        /* \".git/MyContracts/KenyaProcurementTransparency.sol\":10965:10989  pendingAdmin = _newAdmin */\n      swap3\n      swap4\n        /* \".git/MyContracts/KenyaProcurementTransparency.sol\":11030:11035  admin */\n      and\n      swap2\n        /* \".git/MyContracts/KenyaProcurementTransparency.sol\":11007:11047  AdminTransferInitiated(admin, _newAdmin) */\n      0xb4d7bcb4d9a5d6ef6e827e3b1554e5a2578ad9ca843903d42b05d08bfa345894\n      swap2\n      swap1\n      log3\n        /* \".git/MyContracts/KenyaProcurementTransparency.sol\":10767:11055  function transferAdmin(address _newAdmin) external onlyAdmin {... */\n      pop\n      jump\t// out\n        /* \".git/MyContracts/KenyaProcurementTransparency.sol\":21197:21700  function submitDeliveryEvidence(bytes32 _deliveryEvidenceHash)... */\n    tag_149:\n        /* \".git/MyContracts/KenyaProcurementTransparency.sol\":5813:5827  _tender.exists */\n      and(0xff, sload(0x09))\n        /* \".git/MyContracts/KenyaProcurementTransparency.sol\":5808:5856  if (!_tender.exists) revert TenderDoesNotExist() */\n      tag_445\n      jumpi\n        /* \".git/MyContracts/KenyaProcurementTransparency.sol\":5836:5856  TenderDoesNotExist() */\n      mload(0x40)\n      shl(0xe1, 0x55e9e641)\n      dup2\n      mstore\n      0x04\n      add\n      mload(0x40)\n      dup1\n      swap2\n      sub\n      swap1\n      revert\n        /* \".git/MyContracts/KenyaProcurementTransparency.sol\":5808:5856  if (!_tender.exists) revert TenderDoesNotExist() */\n    tag_445:\n        /* \".git/MyContracts/KenyaProcurementTransparency.sol\":21318:21338  TenderStatus.Awarded */\n      0x03\n      dup1\n        /* \".git/MyContracts/KenyaProcurementTransparency.sol\":6562:6569  _status */\n      sload(0x02)\n      shl(0xa0, 0x01)\n      swap1\n      div\n      0xff\n      and\n        /* \".git/MyContracts/KenyaProcurementTransparency.sol\":6562:6588  _status != _expectedStatus */\n      0x07\n      dup2\n      gt\n      iszero\n      tag_450\n      jumpi\n      tag_450\n      tag_258\n      jump\t// in\n    tag_450:\n      eq\n        /* \".git/MyContracts/KenyaProcurementTransparency.sol\":6558:6617  if (_status != _expectedStatus) revert InvalidTenderStage() */\n      tag_451\n      jumpi\n        /* \".git/MyContracts/KenyaProcurementTransparency.sol\":6597:6617  InvalidTenderStage() */\n      mload(0x40)\n      shl(0xe6, 0x0187fa83)\n      dup2\n      mstore\n      0x04\n      add\n      mload(0x40)\n      dup1\n      swap2\n      sub\n      swap1\n      revert\n        /* \".git/MyContracts/KenyaProcurementTransparency.sol\":6558:6617  if (_status != _expectedStatus) revert InvalidTenderStage() */\n    tag_451:\n        /* \".git/MyContracts/KenyaProcurementTransparency.sol\":5451:5458  _winner */\n      and(sub(shl(0xa0, 0x01), 0x01), sload(0x0e))\n        /* \".git/MyContracts/KenyaProcurementTransparency.sol\":5437:5447  msg.sender */\n      caller\n        /* \".git/MyContracts/KenyaProcurementTransparency.sol\":5437:5458  msg.sender != _winner */\n      eq\n        /* \".git/MyContracts/KenyaProcurementTransparency.sol\":5433:5479  if (msg.sender != _winner) revert OnlyWinner() */\n      tag_453\n      jumpi\n        /* \".git/MyContracts/KenyaProcurementTransparency.sol\":5467:5479  OnlyWinner() */\n      mload(0x40)\n      shl(0xe0, 0x760576b9)\n      dup2\n      mstore\n      0x04\n      add\n      mload(0x40)\n      dup1\n      swap2\n      sub\n      swap1\n      revert\n        /* \".git/MyContracts/KenyaProcurementTransparency.sol\":5433:5479  if (msg.sender != _winner) revert OnlyWinner() */\n    tag_453:\n        /* \".git/MyContracts/KenyaProcurementTransparency.sol\":21380:21389  inspector */\n      and(sub(shl(0xa0, 0x01), 0x01), sload(0x02))\n        /* \".git/MyContracts/KenyaProcurementTransparency.sol\":21376:21434  if (inspector == address(0)) revert InspectorNotAssigned() */\n      tag_455\n      jumpi\n        /* \".git/MyContracts/KenyaProcurementTransparency.sol\":21412:21434  InspectorNotAssigned() */\n      mload(0x40)\n      shl(0xe0, 0xd6ea3663)\n      dup2\n      mstore\n      0x04\n      add\n      mload(0x40)\n      dup1\n      swap2\n      sub\n      swap1\n      revert\n        /* \".git/MyContracts/KenyaProcurementTransparency.sol\":21376:21434  if (inspector == address(0)) revert InspectorNotAssigned() */\n    tag_455:\n        /* \".git/MyContracts/KenyaProcurementTransparency.sol\":21449:21470  _deliveryEvidenceHash */\n      dup2\n        /* \".git/MyContracts/KenyaProcurementTransparency.sol\":21445:21522  if (_deliveryEvidenceHash == bytes32(0)) revert InvalidDeliveryEvidenceHash() */\n      tag_456\n      jumpi\n        /* \".git/MyContracts/KenyaProcurementTransparency.sol\":21493:21522  InvalidDeliveryEvidenceHash() */\n      mload(0x40)\n      shl(0xe2, 0x3d4aad4d)\n      dup2\n      mstore\n      0x04\n      add\n      mload(0x40)\n      dup1\n      swap2\n      sub\n      swap1\n      revert\n        /* \".git/MyContracts/KenyaProcurementTransparency.sol\":21445:21522  if (_deliveryEvidenceHash == bytes32(0)) revert InvalidDeliveryEvidenceHash() */\n    tag_456:\n        /* \".git/MyContracts/KenyaProcurementTransparency.sol\":21535:21555  deliveryEvidenceHash */\n      0x10\n        /* \".git/MyContracts/KenyaProcurementTransparency.sol\":21535:21579  deliveryEvidenceHash = _deliveryEvidenceHash */\n      dup3\n      swap1\n      sstore\n        /* \".git/MyContracts/KenyaProcurementTransparency.sol\":21590:21597  _status */\n      0x02\n        /* \".git/MyContracts/KenyaProcurementTransparency.sol\":21590:21622  _status = TenderStatus.Delivered */\n      dup1\n      sload\n      not(shl(0xa0, 0xff))\n      and\n      shl(0xa2, 0x01)\n      or\n      swap1\n      sstore\n        /* \".git/MyContracts/KenyaProcurementTransparency.sol\":21640:21692  DeliverySubmitted(msg.sender, _deliveryEvidenceHash) */\n      0x40\n      dup1\n      mload\n        /* \".git/MyContracts/KenyaProcurementTransparency.sol\":21658:21668  msg.sender */\n      caller\n        /* \"#utility.yul\":15727:15778   */\n      dup2\n      mstore\n        /* \"#utility.yul\":15809:15811   */\n      0x20\n        /* \"#utility.yul\":15794:15812   */\n      dup2\n      add\n        /* \"#utility.yul\":15787:15821   */\n      dup5\n      swap1\n      mstore\n        /* \".git/MyContracts/KenyaProcurementTransparency.sol\":21640:21692  DeliverySubmitted(msg.sender, _deliveryEvidenceHash) */\n      0xae1f4649889be6b26bcf006a04c674019d1ebafaa07f234652d80cb084e77c57\n      swap2\n        /* \"#utility.yul\":15700:15718   */\n      add\n        /* \".git/MyContracts/KenyaProcurementTransparency.sol\":21640:21692  DeliverySubmitted(msg.sender, _deliveryEvidenceHash) */\n      tag_266\n        /* \"#utility.yul\":15553:15827   */\n      jump\n        /* \".git/MyContracts/KenyaProcurementTransparency.sol\":27622:27919  function getLowestBidDetails()... */\n    tag_152:\n        /* \".git/MyContracts/KenyaProcurementTransparency.sol\":27863:27872  lowestBid */\n      sload(0x0f)\n        /* \".git/MyContracts/KenyaProcurementTransparency.sol\":27874:27881  _winner */\n      and(sub(shl(0xa0, 0x01), 0x01), sload(0x0e))\n        /* \".git/MyContracts/KenyaProcurementTransparency.sol\":27717:27740  uint256 lowestBidAmount */\n      0x00\n        /* \".git/MyContracts/KenyaProcurementTransparency.sol\":27883:27910  bidderDescriptions[_winner] */\n      dup2\n      dup2\n      mstore\n        /* \".git/MyContracts/KenyaProcurementTransparency.sol\":27883:27901  bidderDescriptions */\n      0x0b\n        /* \".git/MyContracts/KenyaProcurementTransparency.sol\":27883:27910  bidderDescriptions[_winner] */\n      0x20\n      mstore\n      0x40\n      dup2\n      keccak256\n        /* \".git/MyContracts/KenyaProcurementTransparency.sol\":27855:27911  return (lowestBid, _winner, bidderDescriptions[_winner]) */\n      dup1\n      sload\n        /* \".git/MyContracts/KenyaProcurementTransparency.sol\":27717:27740  uint256 lowestBidAmount */\n      swap2\n      swap4\n      dup5\n      swap4\n        /* \".git/MyContracts/KenyaProcurementTransparency.sol\":27790:27827  string memory lowestBidderDescription */\n      0x60\n      swap4\n        /* \".git/MyContracts/KenyaProcurementTransparency.sol\":27863:27872  lowestBid */\n      swap2\n      swap3\n        /* \".git/MyContracts/KenyaProcurementTransparency.sol\":27874:27881  _winner */\n      swap1\n      swap2\n        /* \".git/MyContracts/KenyaProcurementTransparency.sol\":27883:27910  bidderDescriptions[_winner] */\n      dup2\n      swap1\n        /* \".git/MyContracts/KenyaProcurementTransparency.sol\":27855:27911  return (lowestBid, _winner, bidderDescriptions[_winner]) */\n      tag_461\n      swap1\n      tag_305\n      jump\t// in\n    tag_461:\n      dup1\n      0x1f\n      add\n      0x20\n      dup1\n      swap2\n      div\n      mul\n      0x20\n      add\n      mload(0x40)\n      swap1\n      dup2\n      add\n      0x40\n      mstore\n      dup1\n      swap3\n      swap2\n      swap1\n      dup2\n      dup2\n      mstore\n      0x20\n      add\n      dup3\n      dup1\n      sload\n      tag_462\n      swap1\n      tag_305\n      jump\t// in\n    tag_462:\n      dup1\n      iszero\n      tag_463\n      jumpi\n      dup1\n      0x1f\n      lt\n      tag_464\n      jumpi\n      0x0100\n      dup1\n      dup4\n      sload\n      div\n      mul\n      dup4\n      mstore\n      swap2\n      0x20\n      add\n      swap2\n      jump(tag_463)\n    tag_464:\n      dup3\n      add\n      swap2\n      swap1\n      0x00\n      mstore\n      keccak256(0x00, 0x20)\n      swap1\n    tag_465:\n      dup2\n      sload\n      dup2\n      mstore\n      swap1\n      0x01\n      add\n      swap1\n      0x20\n      add\n      dup1\n      dup4\n      gt\n      tag_465\n      jumpi\n      dup3\n      swap1\n      sub\n      0x1f\n      and\n      dup3\n      add\n      swap2\n    tag_463:\n      pop\n      pop\n      pop\n      pop\n      pop\n      swap1\n      pop\n      swap3\n      pop\n      swap3\n      pop\n      swap3\n      pop\n        /* \".git/MyContracts/KenyaProcurementTransparency.sol\":27622:27919  function getLowestBidDetails()... */\n      swap1\n      swap2\n      swap3\n      jump\t// out\n        /* \".git/MyContracts/KenyaProcurementTransparency.sol\":17897:18956  function getDeliveryEvidenceHashWithLocalTime(... */\n    tag_159:\n        /* \".git/MyContracts/KenyaProcurementTransparency.sol\":5451:5458  _winner */\n      sload(0x0e)\n        /* \".git/MyContracts/KenyaProcurementTransparency.sol\":18308:18333  uint256 evidenceTimestamp */\n      0x00\n      swap1\n      dup2\n      swap1\n      sub(shl(0xa0, 0x01), 0x01)\n        /* \".git/MyContracts/KenyaProcurementTransparency.sol\":5451:5458  _winner */\n      and\n        /* \".git/MyContracts/KenyaProcurementTransparency.sol\":5437:5447  msg.sender */\n      caller\n        /* \".git/MyContracts/KenyaProcurementTransparency.sol\":5437:5458  msg.sender != _winner */\n      eq\n        /* \".git/MyContracts/KenyaProcurementTransparency.sol\":5433:5479  if (msg.sender != _winner) revert OnlyWinner() */\n      tag_467\n      jumpi\n        /* \".git/MyContracts/KenyaProcurementTransparency.sol\":5467:5479  OnlyWinner() */\n      mload(0x40)\n      shl(0xe0, 0x760576b9)\n      dup2\n      mstore\n      0x04\n      add\n      mload(0x40)\n      dup1\n      swap2\n      sub\n      swap1\n      revert\n        /* \".git/MyContracts/KenyaProcurementTransparency.sol\":5433:5479  if (msg.sender != _winner) revert OnlyWinner() */\n    tag_467:\n        /* \".git/MyContracts/KenyaProcurementTransparency.sol\":18422:18435  _documentType */\n      dup10\n        /* \".git/MyContracts/KenyaProcurementTransparency.sol\":18416:18443  bytes(_documentType).length */\n      mload\n        /* \".git/MyContracts/KenyaProcurementTransparency.sol\":18447:18448  0 */\n      0x00\n        /* \".git/MyContracts/KenyaProcurementTransparency.sol\":18416:18448  bytes(_documentType).length == 0 */\n      sub\n        /* \".git/MyContracts/KenyaProcurementTransparency.sol\":18412:18479  if (bytes(_documentType).length == 0) revert DocumentTypeRequired() */\n      tag_469\n      jumpi\n        /* \".git/MyContracts/KenyaProcurementTransparency.sol\":18457:18479  DocumentTypeRequired() */\n      mload(0x40)\n      shl(0xe2, 0x0a132199)\n      dup2\n      mstore\n      0x04\n      add\n      mload(0x40)\n      dup1\n      swap2\n      sub\n      swap1\n      revert\n        /* \".git/MyContracts/KenyaProcurementTransparency.sol\":18412:18479  if (bytes(_documentType).length == 0) revert DocumentTypeRequired() */\n    tag_469:\n        /* \".git/MyContracts/KenyaProcurementTransparency.sol\":18500:18516  _referenceNumber */\n      dup9\n        /* \".git/MyContracts/KenyaProcurementTransparency.sol\":18494:18524  bytes(_referenceNumber).length */\n      mload\n        /* \".git/MyContracts/KenyaProcurementTransparency.sol\":18528:18529  0 */\n      0x00\n        /* \".git/MyContracts/KenyaProcurementTransparency.sol\":18494:18529  bytes(_referenceNumber).length == 0 */\n      sub\n        /* \".git/MyContracts/KenyaProcurementTransparency.sol\":18490:18563  if (bytes(_referenceNumber).length == 0) revert ReferenceNumberRequired() */\n      tag_470\n      jumpi\n        /* \".git/MyContracts/KenyaProcurementTransparency.sol\":18538:18563  ReferenceNumberRequired() */\n      mload(0x40)\n      shl(0xe1, 0x19b507db)\n      dup2\n      mstore\n      0x04\n      add\n      mload(0x40)\n      dup1\n      swap2\n      sub\n      swap1\n      revert\n        /* \".git/MyContracts/KenyaProcurementTransparency.sol\":18490:18563  if (bytes(_referenceNumber).length == 0) revert ReferenceNumberRequired() */\n    tag_470:\n        /* \".git/MyContracts/KenyaProcurementTransparency.sol\":18596:18801  _toTimestampWithOffset(... */\n      tag_471\n        /* \".git/MyContracts/KenyaProcurementTransparency.sol\":18633:18646  _evidenceYear */\n      dup9\n        /* \".git/MyContracts/KenyaProcurementTransparency.sol\":18661:18675  _evidenceMonth */\n      dup9\n        /* \".git/MyContracts/KenyaProcurementTransparency.sol\":18690:18702  _evidenceDay */\n      dup9\n        /* \".git/MyContracts/KenyaProcurementTransparency.sol\":18717:18730  _evidenceHour */\n      dup9\n        /* \".git/MyContracts/KenyaProcurementTransparency.sol\":18745:18760  _evidenceMinute */\n      dup9\n        /* \".git/MyContracts/KenyaProcurementTransparency.sol\":18775:18790  _utcOffsetHours */\n      dup9\n        /* \".git/MyContracts/KenyaProcurementTransparency.sol\":18596:18618  _toTimestampWithOffset */\n      tag_472\n        /* \".git/MyContracts/KenyaProcurementTransparency.sol\":18596:18801  _toTimestampWithOffset(... */\n      jump\t// in\n    tag_471:\n        /* \".git/MyContracts/KenyaProcurementTransparency.sol\":18576:18801  evidenceTimestamp = _toTimestampWithOffset(... */\n      swap2\n      pop\n        /* \".git/MyContracts/KenyaProcurementTransparency.sol\":18886:18899  _documentType */\n      dup10\n        /* \".git/MyContracts/KenyaProcurementTransparency.sol\":18901:18917  _referenceNumber */\n      dup10\n        /* \".git/MyContracts/KenyaProcurementTransparency.sol\":18919:18936  evidenceTimestamp */\n      dup4\n        /* \".git/MyContracts/KenyaProcurementTransparency.sol\":18869:18937  abi.encodePacked(_documentType, _referenceNumber, evidenceTimestamp) */\n      add(0x20, mload(0x40))\n      tag_473\n      swap4\n      swap3\n      swap2\n      swap1\n      tag_474\n      jump\t// in\n    tag_473:\n      mload(0x40)\n      0x20\n      dup2\n      dup4\n      sub\n      sub\n      dup2\n      mstore\n      swap1\n      0x40\n      mstore\n        /* \".git/MyContracts/KenyaProcurementTransparency.sol\":18845:18948  keccak256(... */\n      dup1\n      mload\n      swap1\n      0x20\n      add\n      keccak256\n        /* \".git/MyContracts/KenyaProcurementTransparency.sol\":18814:18948  deliveryEvidenceComputedHash = keccak256(... */\n      swap1\n      pop\n        /* \".git/MyContracts/KenyaProcurementTransparency.sol\":17897:18956  function getDeliveryEvidenceHashWithLocalTime(... */\n      swap9\n      pop\n      swap9\n      swap7\n      pop\n      pop\n      pop\n      pop\n      pop\n      pop\n      pop\n      jump\t// out\n        /* \".git/MyContracts/KenyaProcurementTransparency.sol\":19991:21027  function getInspectionReportHashWithLocalTime(... */\n    tag_165:\n        /* \".git/MyContracts/KenyaProcurementTransparency.sol\":5182:5191  inspector */\n      sload(0x02)\n        /* \".git/MyContracts/KenyaProcurementTransparency.sol\":20395:20418  uint256 reportTimestamp */\n      0x00\n      swap1\n      dup2\n      swap1\n      sub(shl(0xa0, 0x01), 0x01)\n        /* \".git/MyContracts/KenyaProcurementTransparency.sol\":5182:5191  inspector */\n      and\n        /* \".git/MyContracts/KenyaProcurementTransparency.sol\":5178:5236  if (inspector == address(0)) revert InspectorNotAssigned() */\n      tag_476\n      jumpi\n        /* \".git/MyContracts/KenyaProcurementTransparency.sol\":5214:5236  InspectorNotAssigned() */\n      mload(0x40)\n      shl(0xe0, 0xd6ea3663)\n      dup2\n      mstore\n      0x04\n      add\n      mload(0x40)\n      dup1\n      swap2\n      sub\n      swap1\n      revert\n        /* \".git/MyContracts/KenyaProcurementTransparency.sol\":5178:5236  if (inspector == address(0)) revert InspectorNotAssigned() */\n    tag_476:\n        /* \".git/MyContracts/KenyaProcurementTransparency.sol\":5265:5274  inspector */\n      and(sub(shl(0xa0, 0x01), 0x01), sload(0x02))\n        /* \".git/MyContracts/KenyaProcurementTransparency.sol\":5251:5261  msg.sender */\n      caller\n        /* \".git/MyContracts/KenyaProcurementTransparency.sol\":5251:5274  msg.sender != inspector */\n      eq\n        /* \".git/MyContracts/KenyaProcurementTransparency.sol\":5247:5298  if (msg.sender != inspector) revert OnlyInspector() */\n      tag_467\n      jumpi\n        /* \".git/MyContracts/KenyaProcurementTransparency.sol\":5283:5298  OnlyInspector() */\n      mload(0x40)\n      shl(0xe0, 0x9864fbb3)\n      dup2\n      mstore\n      0x04\n      add\n      mload(0x40)\n      dup1\n      swap2\n      sub\n      swap1\n      revert\n        /* \".git/MyContracts/KenyaProcurementTransparency.sol\":11171:11437  function acceptAdminRole() external {... */\n    tag_169:\n        /* \".git/MyContracts/KenyaProcurementTransparency.sol\":11236:11248  pendingAdmin */\n      and(sub(shl(0xa0, 0x01), 0x01), sload(0x01))\n        /* \".git/MyContracts/KenyaProcurementTransparency.sol\":11222:11232  msg.sender */\n      caller\n        /* \".git/MyContracts/KenyaProcurementTransparency.sol\":11222:11248  msg.sender != pendingAdmin */\n      eq\n        /* \".git/MyContracts/KenyaProcurementTransparency.sol\":11218:11274  if (msg.sender != pendingAdmin) revert NotPendingAdmin() */\n      tag_484\n      jumpi\n        /* \".git/MyContracts/KenyaProcurementTransparency.sol\":11257:11274  NotPendingAdmin() */\n      mload(0x40)\n      shl(0xe0, 0x058d9a1b)\n      dup2\n      mstore\n      0x04\n      add\n      mload(0x40)\n      dup1\n      swap2\n      sub\n      swap1\n      revert\n        /* \".git/MyContracts/KenyaProcurementTransparency.sol\":11218:11274  if (msg.sender != pendingAdmin) revert NotPendingAdmin() */\n    tag_484:\n        /* \".git/MyContracts/KenyaProcurementTransparency.sol\":11287:11303  address oldAdmin */\n      0x00\n        /* \".git/MyContracts/KenyaProcurementTransparency.sol\":11306:11311  admin */\n      dup1\n      sload\n      0x01\n        /* \".git/MyContracts/KenyaProcurementTransparency.sol\":11330:11342  pendingAdmin */\n      dup1\n      sload\n      sub(shl(0xa0, 0x01), 0x01)\n      dup1\n      dup3\n      and\n      not(sub(shl(0xa0, 0x01), 0x01))\n        /* \".git/MyContracts/KenyaProcurementTransparency.sol\":11322:11342  admin = pendingAdmin */\n      dup1\n      dup7\n      and\n      dup3\n      or\n      dup8\n      sstore\n        /* \".git/MyContracts/KenyaProcurementTransparency.sol\":11353:11378  pendingAdmin = address(0) */\n      swap1\n      swap3\n      and\n      swap1\n      swap3\n      sstore\n        /* \".git/MyContracts/KenyaProcurementTransparency.sol\":11396:11429  AdminTransferred(oldAdmin, admin) */\n      mload(0x40)\n        /* \".git/MyContracts/KenyaProcurementTransparency.sol\":11306:11311  admin */\n      swap2\n      swap1\n      swap3\n      and\n      swap3\n      dup4\n      swap2\n        /* \".git/MyContracts/KenyaProcurementTransparency.sol\":11396:11429  AdminTransferred(oldAdmin, admin) */\n      0xf8ccb027dfcd135e000e9d45e6cc2d662578a8825d4c45b5e32e0adf67e79ec6\n      swap2\n        /* \".git/MyContracts/KenyaProcurementTransparency.sol\":11287:11303  address oldAdmin */\n      swap1\n        /* \".git/MyContracts/KenyaProcurementTransparency.sol\":11396:11429  AdminTransferred(oldAdmin, admin) */\n      log3\n        /* \".git/MyContracts/KenyaProcurementTransparency.sol\":11207:11437  {... */\n      pop\n        /* \".git/MyContracts/KenyaProcurementTransparency.sol\":11171:11437  function acceptAdminRole() external {... */\n      jump\t// out\n        /* \".git/MyContracts/KenyaProcurementTransparency.sol\":8501:9987  function createTenderWithLocalTime(... */\n    tag_180:\n        /* \".git/MyContracts/KenyaProcurementTransparency.sol\":5019:5024  admin */\n      and(sub(shl(0xa0, 0x01), 0x01), sload(0x00))\n        /* \".git/MyContracts/KenyaProcurementTransparency.sol\":5005:5015  msg.sender */\n      caller\n        /* \".git/MyContracts/KenyaProcurementTransparency.sol\":5005:5024  msg.sender != admin */\n      eq\n        /* \".git/MyContracts/KenyaProcurementTransparency.sol\":5001:5044  if (msg.sender != admin) revert OnlyAdmin() */\n      tag_487\n      jumpi\n        /* \".git/MyContracts/KenyaProcurementTransparency.sol\":5033:5044  OnlyAdmin() */\n      mload(0x40)\n      shl(0xe0, 0x47556579)\n      dup2\n      mstore\n      0x04\n      add\n      mload(0x40)\n      dup1\n      swap2\n      sub\n      swap1\n      revert\n        /* \".git/MyContracts/KenyaProcurementTransparency.sol\":5001:5044  if (msg.sender != admin) revert OnlyAdmin() */\n    tag_487:\n        /* \".git/MyContracts/KenyaProcurementTransparency.sol\":9005:9019  _tender.exists */\n      and(0xff, sload(0x09))\n        /* \".git/MyContracts/KenyaProcurementTransparency.sol\":9001:9050  if (_tender.exists) revert TenderAlreadyCreated() */\n      iszero\n      tag_489\n      jumpi\n        /* \".git/MyContracts/KenyaProcurementTransparency.sol\":9028:9050  TenderAlreadyCreated() */\n      mload(0x40)\n      shl(0xe0, 0xa669250b)\n      dup2\n      mstore\n      0x04\n      add\n      mload(0x40)\n      dup1\n      swap2\n      sub\n      swap1\n      revert\n        /* \".git/MyContracts/KenyaProcurementTransparency.sol\":9001:9050  if (_tender.exists) revert TenderAlreadyCreated() */\n    tag_489:\n        /* \".git/MyContracts/KenyaProcurementTransparency.sol\":9065:9080  _contractAmount */\n      dup2\n        /* \".git/MyContracts/KenyaProcurementTransparency.sol\":9084:9085  0 */\n      0x00\n        /* \".git/MyContracts/KenyaProcurementTransparency.sol\":9065:9085  _contractAmount == 0 */\n      sub\n        /* \".git/MyContracts/KenyaProcurementTransparency.sol\":9061:9131  if (_contractAmount == 0) revert ContractAmountMustBeGreaterThanZero() */\n      tag_490\n      jumpi\n        /* \".git/MyContracts/KenyaProcurementTransparency.sol\":9094:9131  ContractAmountMustBeGreaterThanZero() */\n      mload(0x40)\n      shl(0xe3, 0x1906e033)\n      dup2\n      mstore\n      0x04\n      add\n      mload(0x40)\n      dup1\n      swap2\n      sub\n      swap1\n      revert\n        /* \".git/MyContracts/KenyaProcurementTransparency.sol\":9061:9131  if (_contractAmount == 0) revert ContractAmountMustBeGreaterThanZero() */\n    tag_490:\n        /* \".git/MyContracts/KenyaProcurementTransparency.sol\":9144:9170  uint256 submissionDeadline */\n      0x00\n        /* \".git/MyContracts/KenyaProcurementTransparency.sol\":9173:9428  _toTimestampWithOffset(... */\n      tag_491\n        /* \".git/MyContracts/KenyaProcurementTransparency.sol\":9210:9233  _submissionDeadlineYear */\n      dup10\n        /* \".git/MyContracts/KenyaProcurementTransparency.sol\":9248:9272  _submissionDeadlineMonth */\n      dup10\n        /* \".git/MyContracts/KenyaProcurementTransparency.sol\":9287:9309  _submissionDeadlineDay */\n      dup10\n        /* \".git/MyContracts/KenyaProcurementTransparency.sol\":9324:9347  _submissionDeadlineHour */\n      dup10\n        /* \".git/MyContracts/KenyaProcurementTransparency.sol\":9362:9387  _submissionDeadlineMinute */\n      dup10\n        /* \".git/MyContracts/KenyaProcurementTransparency.sol\":9402:9417  _utcOffsetHours */\n      dup10\n        /* \".git/MyContracts/KenyaProcurementTransparency.sol\":9173:9195  _toTimestampWithOffset */\n      tag_472\n        /* \".git/MyContracts/KenyaProcurementTransparency.sol\":9173:9428  _toTimestampWithOffset(... */\n      jump\t// in\n    tag_491:\n        /* \".git/MyContracts/KenyaProcurementTransparency.sol\":9144:9428  uint256 submissionDeadline = _toTimestampWithOffset(... */\n      swap1\n      pop\n        /* \".git/MyContracts/KenyaProcurementTransparency.sol\":9467:9482  block.timestamp */\n      timestamp\n        /* \".git/MyContracts/KenyaProcurementTransparency.sol\":9445:9463  submissionDeadline */\n      dup2\n        /* \".git/MyContracts/KenyaProcurementTransparency.sol\":9445:9482  submissionDeadline <= block.timestamp */\n      gt\n        /* \".git/MyContracts/KenyaProcurementTransparency.sol\":9441:9515  if (submissionDeadline <= block.timestamp) revert DeadlineMustBeInFuture() */\n      tag_492\n      jumpi\n        /* \".git/MyContracts/KenyaProcurementTransparency.sol\":9491:9515  DeadlineMustBeInFuture() */\n      mload(0x40)\n      shl(0xe0, 0x0642ce77)\n      dup2\n      mstore\n      0x04\n      add\n      mload(0x40)\n      dup1\n      swap2\n      sub\n      swap1\n      revert\n        /* \".git/MyContracts/KenyaProcurementTransparency.sol\":9441:9515  if (submissionDeadline <= block.timestamp) revert DeadlineMustBeInFuture() */\n    tag_492:\n        /* \".git/MyContracts/KenyaProcurementTransparency.sol\":9538:9845  Tender({... */\n      0x40\n      dup1\n      mload\n      0xe0\n      dup2\n      add\n      dup3\n      mstore\n      dup14\n      dup2\n      mstore\n      0x20\n      dup2\n      add\n      dup14\n      swap1\n      mstore\n      swap1\n      dup2\n      add\n      dup12\n      swap1\n      mstore\n      0x60\n      dup2\n      add\n      dup3\n      swap1\n      mstore\n      0x80\n      dup2\n      add\n      dup5\n      swap1\n      mstore\n      0xa0\n      dup2\n      add\n      dup4\n      swap1\n      mstore\n        /* \".git/MyContracts/KenyaProcurementTransparency.sol\":9829:9833  true */\n      0x01\n        /* \".git/MyContracts/KenyaProcurementTransparency.sol\":9538:9845  Tender({... */\n      0xc0\n      dup3\n      add\n      mstore\n        /* \".git/MyContracts/KenyaProcurementTransparency.sol\":9528:9535  _tender */\n      0x03\n      dup1\n        /* \".git/MyContracts/KenyaProcurementTransparency.sol\":9528:9845  _tender = Tender({... */\n      tag_493\n        /* \".git/MyContracts/KenyaProcurementTransparency.sol\":9574:9587  _tenderNumber */\n      dup16\n        /* \".git/MyContracts/KenyaProcurementTransparency.sol\":9528:9535  _tender */\n      dup3\n        /* \".git/MyContracts/KenyaProcurementTransparency.sol\":9528:9845  _tender = Tender({... */\n      tag_326\n      jump\t// in\n    tag_493:\n      pop\n      0x20\n      dup3\n      add\n      mload\n      0x01\n      dup3\n      add\n      swap1\n      tag_494\n      swap1\n      dup3\n      tag_326\n      jump\t// in\n    tag_494:\n      pop\n      0x40\n      dup3\n      add\n      mload\n      0x02\n      dup3\n      add\n      swap1\n      tag_495\n      swap1\n      dup3\n      tag_326\n      jump\t// in\n    tag_495:\n      pop\n      0x60\n      dup3\n      add\n      mload\n      0x03\n      dup3\n      add\n      sstore\n      0x80\n      dup3\n      add\n      mload\n      0x04\n      dup3\n      add\n      sstore\n      0xa0\n      dup3\n      add\n      mload\n      0x05\n      dup3\n      add\n      swap1\n      tag_496\n      swap1\n      dup3\n      tag_326\n      jump\t// in\n    tag_496:\n      pop\n      0xc0\n      swap2\n      swap1\n      swap2\n      add\n      mload\n      0x06\n      swap1\n      swap2\n      add\n      dup1\n      sload\n      not(0xff)\n      and\n      swap2\n      iszero\n      iszero\n      swap2\n      swap1\n      swap2\n      or\n      swap1\n      sstore\n        /* \".git/MyContracts/KenyaProcurementTransparency.sol\":9858:9865  _status */\n      0x02\n        /* \".git/MyContracts/KenyaProcurementTransparency.sol\":9858:9888  _status = TenderStatus.Created */\n      dup1\n      sload\n      not(shl(0xa0, 0xff))\n      and\n      swap1\n      sstore\n        /* \".git/MyContracts/KenyaProcurementTransparency.sol\":9906:9979  TenderCreated(_tenderNumber, _title, submissionDeadline, _contractAmount) */\n      mload(0x40)\n      0x1b8026edb59eb0a93ac326ac7a523b0055a7bd12f595a560e2e75e798f1d20f1\n      swap1\n      tag_499\n      swap1\n        /* \".git/MyContracts/KenyaProcurementTransparency.sol\":9920:9933  _tenderNumber */\n      dup15\n      swap1\n        /* \".git/MyContracts/KenyaProcurementTransparency.sol\":9935:9941  _title */\n      dup15\n      swap1\n        /* \".git/MyContracts/KenyaProcurementTransparency.sol\":9943:9961  submissionDeadline */\n      dup6\n      swap1\n        /* \".git/MyContracts/KenyaProcurementTransparency.sol\":9963:9978  _contractAmount */\n      dup9\n      swap1\n        /* \".git/MyContracts/KenyaProcurementTransparency.sol\":9906:9979  TenderCreated(_tenderNumber, _title, submissionDeadline, _contractAmount) */\n      tag_500\n      jump\t// in\n    tag_499:\n      mload(0x40)\n      dup1\n      swap2\n      sub\n      swap1\n      log1\n        /* \".git/MyContracts/KenyaProcurementTransparency.sol\":8990:9987  {... */\n      pop\n        /* \".git/MyContracts/KenyaProcurementTransparency.sol\":8501:9987  function createTenderWithLocalTime(... */\n      pop\n      pop\n      pop\n      pop\n      pop\n      pop\n      pop\n      pop\n      pop\n      pop\n      pop\n      jump\t// out\n        /* \".git/MyContracts/KenyaProcurementTransparency.sol\":25948:26175  function getBidderProfile(address _bidder)... */\n    tag_184:\n      sub(shl(0xa0, 0x01), 0x01)\n        /* \".git/MyContracts/KenyaProcurementTransparency.sol\":26111:26137  registeredBidders[_bidder] */\n      dup2\n      and\n        /* \".git/MyContracts/KenyaProcurementTransparency.sol\":26041:26058  bool isRegistered */\n      0x00\n        /* \".git/MyContracts/KenyaProcurementTransparency.sol\":26111:26137  registeredBidders[_bidder] */\n      swap1\n      dup2\n      mstore\n        /* \".git/MyContracts/KenyaProcurementTransparency.sol\":26111:26128  registeredBidders */\n      0x0a\n        /* \".git/MyContracts/KenyaProcurementTransparency.sol\":26111:26137  registeredBidders[_bidder] */\n      0x20\n      swap1\n      dup2\n      mstore\n      0x40\n      dup1\n      dup4\n      keccak256\n      sload\n        /* \".git/MyContracts/KenyaProcurementTransparency.sol\":26139:26157  bidderDescriptions */\n      0x0b\n        /* \".git/MyContracts/KenyaProcurementTransparency.sol\":26139:26166  bidderDescriptions[_bidder] */\n      swap1\n      swap3\n      mstore\n      dup3\n      keccak256\n        /* \".git/MyContracts/KenyaProcurementTransparency.sol\":26103:26167  return (registeredBidders[_bidder], bidderDescriptions[_bidder]) */\n      dup1\n      sload\n        /* \".git/MyContracts/KenyaProcurementTransparency.sol\":26060:26085  string memory description */\n      0x60\n      swap3\n        /* \".git/MyContracts/KenyaProcurementTransparency.sol\":26111:26137  registeredBidders[_bidder] */\n      0xff\n      and\n      swap2\n        /* \".git/MyContracts/KenyaProcurementTransparency.sol\":26139:26166  bidderDescriptions[_bidder] */\n      swap1\n      dup2\n      swap1\n        /* \".git/MyContracts/KenyaProcurementTransparency.sol\":26103:26167  return (registeredBidders[_bidder], bidderDescriptions[_bidder]) */\n      tag_502\n      swap1\n      tag_305\n      jump\t// in\n    tag_502:\n      dup1\n      0x1f\n      add\n      0x20\n      dup1\n      swap2\n      div\n      mul\n      0x20\n      add\n      mload(0x40)\n      swap1\n      dup2\n      add\n      0x40\n      mstore\n      dup1\n      swap3\n      swap2\n      swap1\n      dup2\n      dup2\n      mstore\n      0x20\n      add\n      dup3\n      dup1\n      sload\n      tag_503\n      swap1\n      tag_305\n      jump\t// in\n    tag_503:\n      dup1\n      iszero\n      tag_504\n      jumpi\n      dup1\n      0x1f\n      lt\n      tag_505\n      jumpi\n      0x0100\n      dup1\n      dup4\n      sload\n      div\n      mul\n      dup4\n      mstore\n      swap2\n      0x20\n      add\n      swap2\n      jump(tag_504)\n    tag_505:\n      dup3\n      add\n      swap2\n      swap1\n      0x00\n      mstore\n      keccak256(0x00, 0x20)\n      swap1\n    tag_506:\n      dup2\n      sload\n      dup2\n      mstore\n      swap1\n      0x01\n      add\n      swap1\n      0x20\n      add\n      dup1\n      dup4\n      gt\n      tag_506\n      jumpi\n      dup3\n      swap1\n      sub\n      0x1f\n      and\n      dup3\n      add\n      swap2\n    tag_504:\n      pop\n      pop\n      pop\n      pop\n      pop\n      swap1\n      pop\n      swap2\n      pop\n      swap2\n      pop\n        /* \".git/MyContracts/KenyaProcurementTransparency.sol\":25948:26175  function getBidderProfile(address _bidder)... */\n      swap2\n      pop\n      swap2\n      jump\t// out\n        /* \".git/MyContracts/KenyaProcurementTransparency.sol\":1509:1561  mapping(address => string) public bidderDescriptions */\n    tag_190:\n      mstore(0x20, 0x0b)\n      0x00\n      swap1\n      dup2\n      mstore\n      0x40\n      swap1\n      keccak256\n      dup1\n      sload\n      tag_304\n      swap1\n      tag_305\n      jump\t// in\n        /* \".git/MyContracts/KenyaProcurementTransparency.sol\":24911:25686  function getAllRegisteredBidders()... */\n    tag_198:\n        /* \".git/MyContracts/KenyaProcurementTransparency.sol\":25168:25178  bidderList */\n      0x0d\n        /* \".git/MyContracts/KenyaProcurementTransparency.sol\":25168:25185  bidderList.length */\n      sload\n        /* \".git/MyContracts/KenyaProcurementTransparency.sol\":25010:25034  uint256[] memory indexes */\n      0x60\n      swap1\n      dup2\n      swap1\n      dup2\n      swap1\n        /* \".git/MyContracts/KenyaProcurementTransparency.sol\":25168:25185  bidderList.length */\n      dup1\n      sub(shl(0x40, 0x01), 0x01)\n        /* \".git/MyContracts/KenyaProcurementTransparency.sol\":25208:25228  new uint256[](count) */\n      dup2\n      gt\n      iszero\n      tag_514\n      jumpi\n      tag_514\n      tag_515\n      jump\t// in\n    tag_514:\n      mload(0x40)\n      swap1\n      dup1\n      dup3\n      mstore\n      dup1\n      0x20\n      mul\n      0x20\n      add\n      dup3\n      add\n      0x40\n      mstore\n      dup1\n      iszero\n      tag_516\n      jumpi\n      dup2\n      0x20\n      add\n      0x20\n      dup3\n      mul\n      dup1\n      calldatasize\n      dup4\n      calldatacopy\n      add\n      swap1\n      pop\n    tag_516:\n      pop\n        /* \".git/MyContracts/KenyaProcurementTransparency.sol\":25198:25228  indexes = new uint256[](count) */\n      swap4\n      pop\n        /* \".git/MyContracts/KenyaProcurementTransparency.sol\":25271:25276  count */\n      dup1\n      sub(shl(0x40, 0x01), 0x01)\n        /* \".git/MyContracts/KenyaProcurementTransparency.sol\":25257:25277  new address[](count) */\n      dup2\n      gt\n      iszero\n      tag_518\n      jumpi\n      tag_518\n      tag_515\n      jump\t// in\n    tag_518:\n      mload(0x40)\n      swap1\n      dup1\n      dup3\n      mstore\n      dup1\n      0x20\n      mul\n      0x20\n      add\n      dup3\n      add\n      0x40\n      mstore\n      dup1\n      iszero\n      tag_519\n      jumpi\n      dup2\n      0x20\n      add\n      0x20\n      dup3\n      mul\n      dup1\n      calldatasize\n      dup4\n      calldatacopy\n      add\n      swap1\n      pop\n    tag_519:\n      pop\n        /* \".git/MyContracts/KenyaProcurementTransparency.sol\":25239:25277  bidderAddresses = new address[](count) */\n      swap3\n      pop\n        /* \".git/MyContracts/KenyaProcurementTransparency.sol\":25316:25321  count */\n      dup1\n      sub(shl(0x40, 0x01), 0x01)\n        /* \".git/MyContracts/KenyaProcurementTransparency.sol\":25303:25322  new string[](count) */\n      dup2\n      gt\n      iszero\n      tag_521\n      jumpi\n      tag_521\n      tag_515\n      jump\t// in\n    tag_521:\n      mload(0x40)\n      swap1\n      dup1\n      dup3\n      mstore\n      dup1\n      0x20\n      mul\n      0x20\n      add\n      dup3\n      add\n      0x40\n      mstore\n      dup1\n      iszero\n      tag_522\n      jumpi\n      dup2\n      0x20\n      add\n    tag_523:\n      0x60\n      dup2\n      mstore\n      0x20\n      add\n      swap1\n      0x01\n      swap1\n      sub\n      swap1\n      dup2\n      tag_523\n      jumpi\n      swap1\n      pop\n    tag_522:\n      pop\n        /* \".git/MyContracts/KenyaProcurementTransparency.sol\":25288:25322  descriptions = new string[](count) */\n      swap2\n      pop\n        /* \".git/MyContracts/KenyaProcurementTransparency.sol\":25340:25349  uint256 i */\n      0x00\n        /* \".git/MyContracts/KenyaProcurementTransparency.sol\":25335:25619  for (uint256 i = 0; i < count; ) {... */\n    tag_524:\n        /* \".git/MyContracts/KenyaProcurementTransparency.sol\":25359:25364  count */\n      dup2\n        /* \".git/MyContracts/KenyaProcurementTransparency.sol\":25355:25356  i */\n      dup2\n        /* \".git/MyContracts/KenyaProcurementTransparency.sol\":25355:25364  i < count */\n      lt\n        /* \".git/MyContracts/KenyaProcurementTransparency.sol\":25335:25619  for (uint256 i = 0; i < count; ) {... */\n      iszero\n      tag_525\n      jumpi\n        /* \".git/MyContracts/KenyaProcurementTransparency.sol\":25383:25397  address bidder */\n      0x00\n        /* \".git/MyContracts/KenyaProcurementTransparency.sol\":25400:25410  bidderList */\n      0x0d\n        /* \".git/MyContracts/KenyaProcurementTransparency.sol\":25411:25412  i */\n      dup3\n        /* \".git/MyContracts/KenyaProcurementTransparency.sol\":25400:25413  bidderList[i] */\n      dup2\n      sload\n      dup2\n      lt\n      tag_528\n      jumpi\n      tag_528\n      tag_407\n      jump\t// in\n    tag_528:\n      swap1\n      0x00\n      mstore\n      keccak256(0x00, 0x20)\n      add\n      0x00\n      swap1\n      sload\n      swap1\n      0x0100\n      exp\n      swap1\n      div\n      sub(shl(0xa0, 0x01), 0x01)\n      and\n        /* \".git/MyContracts/KenyaProcurementTransparency.sol\":25383:25413  address bidder = bidderList[i] */\n      swap1\n      pop\n        /* \".git/MyContracts/KenyaProcurementTransparency.sol\":25441:25442  i */\n      dup2\n        /* \".git/MyContracts/KenyaProcurementTransparency.sol\":25428:25435  indexes */\n      dup7\n        /* \".git/MyContracts/KenyaProcurementTransparency.sol\":25436:25437  i */\n      dup4\n        /* \".git/MyContracts/KenyaProcurementTransparency.sol\":25428:25438  indexes[i] */\n      dup2\n      mload\n      dup2\n      lt\n      tag_531\n      jumpi\n      tag_531\n      tag_407\n      jump\t// in\n    tag_531:\n      0x20\n      mul\n      0x20\n      add\n      add\n        /* \".git/MyContracts/KenyaProcurementTransparency.sol\":25428:25442  indexes[i] = i */\n      dup2\n      dup2\n      mstore\n      pop\n      pop\n        /* \".git/MyContracts/KenyaProcurementTransparency.sol\":25478:25484  bidder */\n      dup1\n        /* \".git/MyContracts/KenyaProcurementTransparency.sol\":25457:25472  bidderAddresses */\n      dup6\n        /* \".git/MyContracts/KenyaProcurementTransparency.sol\":25473:25474  i */\n      dup4\n        /* \".git/MyContracts/KenyaProcurementTransparency.sol\":25457:25475  bidderAddresses[i] */\n      dup2\n      mload\n      dup2\n      lt\n      tag_533\n      jumpi\n      tag_533\n      tag_407\n      jump\t// in\n    tag_533:\n      sub(shl(0xa0, 0x01), 0x01)\n        /* \".git/MyContracts/KenyaProcurementTransparency.sol\":25457:25484  bidderAddresses[i] = bidder */\n      swap3\n      dup4\n      and\n        /* \".git/MyContracts/KenyaProcurementTransparency.sol\":25457:25475  bidderAddresses[i] */\n      0x20\n      swap2\n      dup3\n      mul\n      swap3\n      swap1\n      swap3\n      add\n      dup2\n      add\n        /* \".git/MyContracts/KenyaProcurementTransparency.sol\":25457:25484  bidderAddresses[i] = bidder */\n      swap2\n      swap1\n      swap2\n      mstore\n        /* \".git/MyContracts/KenyaProcurementTransparency.sol\":25517:25543  bidderDescriptions[bidder] */\n      swap1\n      dup3\n      and\n      0x00\n      swap1\n      dup2\n      mstore\n        /* \".git/MyContracts/KenyaProcurementTransparency.sol\":25517:25535  bidderDescriptions */\n      0x0b\n        /* \".git/MyContracts/KenyaProcurementTransparency.sol\":25517:25543  bidderDescriptions[bidder] */\n      swap1\n      swap2\n      mstore\n      0x40\n      swap1\n      keccak256\n        /* \".git/MyContracts/KenyaProcurementTransparency.sol\":25499:25543  descriptions[i] = bidderDescriptions[bidder] */\n      dup1\n      sload\n      tag_534\n      swap1\n      tag_305\n      jump\t// in\n    tag_534:\n      dup1\n      0x1f\n      add\n      0x20\n      dup1\n      swap2\n      div\n      mul\n      0x20\n      add\n      mload(0x40)\n      swap1\n      dup2\n      add\n      0x40\n      mstore\n      dup1\n      swap3\n      swap2\n      swap1\n      dup2\n      dup2\n      mstore\n      0x20\n      add\n      dup3\n      dup1\n      sload\n      tag_535\n      swap1\n      tag_305\n      jump\t// in\n    tag_535:\n      dup1\n      iszero\n      tag_536\n      jumpi\n      dup1\n      0x1f\n      lt\n      tag_537\n      jumpi\n      0x0100\n      dup1\n      dup4\n      sload\n      div\n      mul\n      dup4\n      mstore\n      swap2\n      0x20\n      add\n      swap2\n      jump(tag_536)\n    tag_537:\n      dup3\n      add\n      swap2\n      swap1\n      0x00\n      mstore\n      keccak256(0x00, 0x20)\n      swap1\n    tag_538:\n      dup2\n      sload\n      dup2\n      mstore\n      swap1\n      0x01\n      add\n      swap1\n      0x20\n      add\n      dup1\n      dup4\n      gt\n      tag_538\n      jumpi\n      dup3\n      swap1\n      sub\n      0x1f\n      and\n      dup3\n      add\n      swap2\n    tag_536:\n      pop\n      pop\n      pop\n      pop\n      pop\n        /* \".git/MyContracts/KenyaProcurementTransparency.sol\":25499:25511  descriptions */\n      dup5\n        /* \".git/MyContracts/KenyaProcurementTransparency.sol\":25512:25513  i */\n      dup4\n        /* \".git/MyContracts/KenyaProcurementTransparency.sol\":25499:25514  descriptions[i] */\n      dup2\n      mload\n      dup2\n      lt\n      tag_540\n      jumpi\n      tag_540\n      tag_407\n      jump\t// in\n    tag_540:\n      0x20\n      swap1\n      dup2\n      mul\n      swap2\n      swap1\n      swap2\n      add\n      add\n        /* \".git/MyContracts/KenyaProcurementTransparency.sol\":25499:25543  descriptions[i] = bidderDescriptions[bidder] */\n      mstore\n      pop\n        /* \".git/MyContracts/KenyaProcurementTransparency.sol\":25589:25592  ++i */\n      0x01\n      add\n        /* \".git/MyContracts/KenyaProcurementTransparency.sol\":25335:25619  for (uint256 i = 0; i < count; ) {... */\n      jump(tag_524)\n    tag_525:\n      pop\n        /* \".git/MyContracts/KenyaProcurementTransparency.sol\":25631:25678  return (indexes, bidderAddresses, descriptions) */\n      pop\n        /* \".git/MyContracts/KenyaProcurementTransparency.sol\":24911:25686  function getAllRegisteredBidders()... */\n      swap1\n      swap2\n      swap3\n      jump\t// out\n        /* \".git/MyContracts/KenyaProcurementTransparency.sol\":23052:23187  function fundContract() external payable onlyAdmin {... */\n    tag_206:\n        /* \".git/MyContracts/KenyaProcurementTransparency.sol\":5019:5024  admin */\n      and(sub(shl(0xa0, 0x01), 0x01), sload(0x00))\n        /* \".git/MyContracts/KenyaProcurementTransparency.sol\":5005:5015  msg.sender */\n      caller\n        /* \".git/MyContracts/KenyaProcurementTransparency.sol\":5005:5024  msg.sender != admin */\n      eq\n        /* \".git/MyContracts/KenyaProcurementTransparency.sol\":5001:5044  if (msg.sender != admin) revert OnlyAdmin() */\n      tag_542\n      jumpi\n        /* \".git/MyContracts/KenyaProcurementTransparency.sol\":5033:5044  OnlyAdmin() */\n      mload(0x40)\n      shl(0xe0, 0x47556579)\n      dup2\n      mstore\n      0x04\n      add\n      mload(0x40)\n      dup1\n      swap2\n      sub\n      swap1\n      revert\n        /* \".git/MyContracts/KenyaProcurementTransparency.sol\":5001:5044  if (msg.sender != admin) revert OnlyAdmin() */\n    tag_542:\n        /* \".git/MyContracts/KenyaProcurementTransparency.sol\":23119:23179  ContractFunded(msg.sender, msg.value, address(this).balance) */\n      0x40\n      dup1\n      mload\n        /* \".git/MyContracts/KenyaProcurementTransparency.sol\":23146:23155  msg.value */\n      callvalue\n        /* \"#utility.yul\":8851:8876   */\n      dup2\n      mstore\n        /* \".git/MyContracts/KenyaProcurementTransparency.sol\":23157:23178  address(this).balance */\n      selfbalance\n        /* \"#utility.yul\":8907:8909   */\n      0x20\n        /* \"#utility.yul\":8892:8910   */\n      dup3\n      add\n        /* \"#utility.yul\":8885:8919   */\n      mstore\n        /* \".git/MyContracts/KenyaProcurementTransparency.sol\":23134:23144  msg.sender */\n      caller\n      swap2\n        /* \".git/MyContracts/KenyaProcurementTransparency.sol\":23119:23179  ContractFunded(msg.sender, msg.value, address(this).balance) */\n      0x3b31cbadfd3fd939750f09d3bdbd6c0531dde23f05d55dcc202798f39d090895\n      swap2\n        /* \"#utility.yul\":8824:8842   */\n      add\n        /* \".git/MyContracts/KenyaProcurementTransparency.sol\":23119:23179  ContractFunded(msg.sender, msg.value, address(this).balance) */\n      mload(0x40)\n      dup1\n      swap2\n      sub\n      swap1\n      log2\n        /* \".git/MyContracts/KenyaProcurementTransparency.sol\":23052:23187  function fundContract() external payable onlyAdmin {... */\n      jump\t// out\n        /* \".git/MyContracts/KenyaProcurementTransparency.sol\":16438:16732  function awardTender()... */\n    tag_217:\n        /* \".git/MyContracts/KenyaProcurementTransparency.sol\":5019:5024  admin */\n      and(sub(shl(0xa0, 0x01), 0x01), sload(0x00))\n        /* \".git/MyContracts/KenyaProcurementTransparency.sol\":5005:5015  msg.sender */\n      caller\n        /* \".git/MyContracts/KenyaProcurementTransparency.sol\":5005:5024  msg.sender != admin */\n      eq\n        /* \".git/MyContracts/KenyaProcurementTransparency.sol\":5001:5044  if (msg.sender != admin) revert OnlyAdmin() */\n      tag_548\n      jumpi\n        /* \".git/MyContracts/KenyaProcurementTransparency.sol\":5033:5044  OnlyAdmin() */\n      mload(0x40)\n      shl(0xe0, 0x47556579)\n      dup2\n      mstore\n      0x04\n      add\n      mload(0x40)\n      dup1\n      swap2\n      sub\n      swap1\n      revert\n        /* \".git/MyContracts/KenyaProcurementTransparency.sol\":5001:5044  if (msg.sender != admin) revert OnlyAdmin() */\n    tag_548:\n        /* \".git/MyContracts/KenyaProcurementTransparency.sol\":5813:5827  _tender.exists */\n      and(0xff, sload(0x09))\n        /* \".git/MyContracts/KenyaProcurementTransparency.sol\":5808:5856  if (!_tender.exists) revert TenderDoesNotExist() */\n      tag_550\n      jumpi\n        /* \".git/MyContracts/KenyaProcurementTransparency.sol\":5836:5856  TenderDoesNotExist() */\n      mload(0x40)\n      shl(0xe1, 0x55e9e641)\n      dup2\n      mstore\n      0x04\n      add\n      mload(0x40)\n      dup1\n      swap2\n      sub\n      swap1\n      revert\n        /* \".git/MyContracts/KenyaProcurementTransparency.sol\":5808:5856  if (!_tender.exists) revert TenderDoesNotExist() */\n    tag_550:\n        /* \".git/MyContracts/KenyaProcurementTransparency.sol\":16538:16560  TenderStatus.Evaluated */\n      0x02\n      dup1\n        /* \".git/MyContracts/KenyaProcurementTransparency.sol\":6562:6569  _status */\n      sload(0x02)\n      shl(0xa0, 0x01)\n      swap1\n      div\n      0xff\n      and\n        /* \".git/MyContracts/KenyaProcurementTransparency.sol\":6562:6588  _status != _expectedStatus */\n      0x07\n      dup2\n      gt\n      iszero\n      tag_555\n      jumpi\n      tag_555\n      tag_258\n      jump\t// in\n    tag_555:\n      eq\n        /* \".git/MyContracts/KenyaProcurementTransparency.sol\":6558:6617  if (_status != _expectedStatus) revert InvalidTenderStage() */\n      tag_556\n      jumpi\n        /* \".git/MyContracts/KenyaProcurementTransparency.sol\":6597:6617  InvalidTenderStage() */\n      mload(0x40)\n      shl(0xe6, 0x0187fa83)\n      dup2\n      mstore\n      0x04\n      add\n      mload(0x40)\n      dup1\n      swap2\n      sub\n      swap1\n      revert\n        /* \".git/MyContracts/KenyaProcurementTransparency.sol\":6558:6617  if (_status != _expectedStatus) revert InvalidTenderStage() */\n    tag_556:\n        /* \".git/MyContracts/KenyaProcurementTransparency.sol\":16582:16589  _winner */\n      and(sub(shl(0xa0, 0x01), 0x01), sload(0x0e))\n        /* \".git/MyContracts/KenyaProcurementTransparency.sol\":16578:16630  if (_winner == address(0)) revert NoWinnerSelected() */\n      tag_558\n      jumpi\n        /* \".git/MyContracts/KenyaProcurementTransparency.sol\":16612:16630  NoWinnerSelected() */\n      mload(0x40)\n      shl(0xe2, 0x368f2b97)\n      dup2\n      mstore\n      0x04\n      add\n      mload(0x40)\n      dup1\n      swap2\n      sub\n      swap1\n      revert\n        /* \".git/MyContracts/KenyaProcurementTransparency.sol\":16578:16630  if (_winner == address(0)) revert NoWinnerSelected() */\n    tag_558:\n        /* \".git/MyContracts/KenyaProcurementTransparency.sol\":16643:16650  _status */\n      0x02\n        /* \".git/MyContracts/KenyaProcurementTransparency.sol\":16643:16673  _status = TenderStatus.Awarded */\n      dup1\n      sload\n      not(shl(0xa0, 0xff))\n      and\n      shl(0xa0, 0x03)\n      or\n      swap1\n      sstore\n        /* \".git/MyContracts/KenyaProcurementTransparency.sol\":16705:16712  _winner */\n      sload(0x0e)\n        /* \".git/MyContracts/KenyaProcurementTransparency.sol\":16714:16723  lowestBid */\n      sload(0x0f)\n        /* \".git/MyContracts/KenyaProcurementTransparency.sol\":16691:16724  TenderAwarded(_winner, lowestBid) */\n      0x40\n      dup1\n      mload\n      sub(shl(0xa0, 0x01), 0x01)\n        /* \".git/MyContracts/KenyaProcurementTransparency.sol\":16705:16712  _winner */\n      swap1\n      swap4\n      and\n        /* \"#utility.yul\":15727:15778   */\n      dup4\n      mstore\n        /* \"#utility.yul\":15809:15811   */\n      0x20\n        /* \"#utility.yul\":15794:15812   */\n      dup4\n      add\n        /* \"#utility.yul\":15787:15821   */\n      swap2\n      swap1\n      swap2\n      mstore\n        /* \".git/MyContracts/KenyaProcurementTransparency.sol\":16691:16724  TenderAwarded(_winner, lowestBid) */\n      0xb973b46a8f1e88b970a622bf0cf618b80895efa9af0b01edd9b2608fb8a6914e\n      swap2\n        /* \"#utility.yul\":15700:15718   */\n      add\n        /* \".git/MyContracts/KenyaProcurementTransparency.sol\":16691:16724  TenderAwarded(_winner, lowestBid) */\n      tag_372\n        /* \"#utility.yul\":15553:15827   */\n      jump\n        /* \".git/MyContracts/KenyaProcurementTransparency.sol\":23280:23960  function releasePayment()... */\n    tag_220:\n        /* \".git/MyContracts/KenyaProcurementTransparency.sol\":5019:5024  admin */\n      and(sub(shl(0xa0, 0x01), 0x01), sload(0x00))\n        /* \".git/MyContracts/KenyaProcurementTransparency.sol\":5005:5015  msg.sender */\n      caller\n        /* \".git/MyContracts/KenyaProcurementTransparency.sol\":5005:5024  msg.sender != admin */\n      eq\n        /* \".git/MyContracts/KenyaProcurementTransparency.sol\":5001:5044  if (msg.sender != admin) revert OnlyAdmin() */\n      tag_563\n      jumpi\n        /* \".git/MyContracts/KenyaProcurementTransparency.sol\":5033:5044  OnlyAdmin() */\n      mload(0x40)\n      shl(0xe0, 0x47556579)\n      dup2\n      mstore\n      0x04\n      add\n      mload(0x40)\n      dup1\n      swap2\n      sub\n      swap1\n      revert\n        /* \".git/MyContracts/KenyaProcurementTransparency.sol\":5001:5044  if (msg.sender != admin) revert OnlyAdmin() */\n    tag_563:\n        /* \".git/MyContracts/KenyaProcurementTransparency.sol\":5813:5827  _tender.exists */\n      and(0xff, sload(0x09))\n        /* \".git/MyContracts/KenyaProcurementTransparency.sol\":5808:5856  if (!_tender.exists) revert TenderDoesNotExist() */\n      tag_565\n      jumpi\n        /* \".git/MyContracts/KenyaProcurementTransparency.sol\":5836:5856  TenderDoesNotExist() */\n      mload(0x40)\n      shl(0xe1, 0x55e9e641)\n      dup2\n      mstore\n      0x04\n      add\n      mload(0x40)\n      dup1\n      swap2\n      sub\n      swap1\n      revert\n        /* \".git/MyContracts/KenyaProcurementTransparency.sol\":5808:5856  if (!_tender.exists) revert TenderDoesNotExist() */\n    tag_565:\n        /* \".git/MyContracts/KenyaProcurementTransparency.sol\":23383:23404  TenderStatus.Accepted */\n      0x06\n      dup1\n        /* \".git/MyContracts/KenyaProcurementTransparency.sol\":6562:6569  _status */\n      sload(0x02)\n      shl(0xa0, 0x01)\n      swap1\n      div\n      0xff\n      and\n        /* \".git/MyContracts/KenyaProcurementTransparency.sol\":6562:6588  _status != _expectedStatus */\n      0x07\n      dup2\n      gt\n      iszero\n      tag_570\n      jumpi\n      tag_570\n      tag_258\n      jump\t// in\n    tag_570:\n      eq\n        /* \".git/MyContracts/KenyaProcurementTransparency.sol\":6558:6617  if (_status != _expectedStatus) revert InvalidTenderStage() */\n      tag_571\n      jumpi\n        /* \".git/MyContracts/KenyaProcurementTransparency.sol\":6597:6617  InvalidTenderStage() */\n      mload(0x40)\n      shl(0xe6, 0x0187fa83)\n      dup2\n      mstore\n      0x04\n      add\n      mload(0x40)\n      dup1\n      swap2\n      sub\n      swap1\n      revert\n        /* \".git/MyContracts/KenyaProcurementTransparency.sol\":6558:6617  if (_status != _expectedStatus) revert InvalidTenderStage() */\n    tag_571:\n        /* \".git/MyContracts/KenyaProcurementTransparency.sol\":6750:6757  _locked */\n      sload(0x13)\n      0x0100\n      swap1\n      div\n      0xff\n      and\n        /* \".git/MyContracts/KenyaProcurementTransparency.sol\":6746:6786  if (_locked) revert ReentrancyDetected() */\n      iszero\n      tag_573\n      jumpi\n        /* \".git/MyContracts/KenyaProcurementTransparency.sol\":6766:6786  ReentrancyDetected() */\n      mload(0x40)\n      shl(0xe0, 0xc5f2be51)\n      dup2\n      mstore\n      0x04\n      add\n      mload(0x40)\n      dup1\n      swap2\n      sub\n      swap1\n      revert\n        /* \".git/MyContracts/KenyaProcurementTransparency.sol\":6746:6786  if (_locked) revert ReentrancyDetected() */\n    tag_573:\n        /* \".git/MyContracts/KenyaProcurementTransparency.sol\":6797:6804  _locked */\n      0x13\n        /* \".git/MyContracts/KenyaProcurementTransparency.sol\":6797:6811  _locked = true */\n      dup1\n      sload\n      not(0xff00)\n      dup2\n      and\n      0x0100\n      or\n      swap1\n      swap2\n      sstore\n      0xff\n        /* \".git/MyContracts/KenyaProcurementTransparency.sol\":23448:23463  paymentReleased */\n      and\n        /* \".git/MyContracts/KenyaProcurementTransparency.sol\":23444:23496  if (paymentReleased) revert PaymentAlreadyReleased() */\n      iszero\n      tag_575\n      jumpi\n        /* \".git/MyContracts/KenyaProcurementTransparency.sol\":23472:23496  PaymentAlreadyReleased() */\n      mload(0x40)\n      shl(0xe6, 0x017cbd45)\n      dup2\n      mstore\n      0x04\n      add\n      mload(0x40)\n      dup1\n      swap2\n      sub\n      swap1\n      revert\n        /* \".git/MyContracts/KenyaProcurementTransparency.sol\":23444:23496  if (paymentReleased) revert PaymentAlreadyReleased() */\n    tag_575:\n        /* \".git/MyContracts/KenyaProcurementTransparency.sol\":23511:23518  _winner */\n      and(sub(shl(0xa0, 0x01), 0x01), sload(0x0e))\n        /* \".git/MyContracts/KenyaProcurementTransparency.sol\":23507:23555  if (_winner == address(0)) revert WinnerNotSet() */\n      tag_576\n      jumpi\n        /* \".git/MyContracts/KenyaProcurementTransparency.sol\":23541:23555  WinnerNotSet() */\n      mload(0x40)\n      shl(0xe0, 0xd5881ca9)\n      dup2\n      mstore\n      0x04\n      add\n      mload(0x40)\n      dup1\n      swap2\n      sub\n      swap1\n      revert\n        /* \".git/MyContracts/KenyaProcurementTransparency.sol\":23507:23555  if (_winner == address(0)) revert WinnerNotSet() */\n    tag_576:\n        /* \".git/MyContracts/KenyaProcurementTransparency.sol\":23570:23579  lowestBid */\n      sload(0x0f)\n        /* \".git/MyContracts/KenyaProcurementTransparency.sol\":23583:23584  0 */\n      0x00\n        /* \".git/MyContracts/KenyaProcurementTransparency.sol\":23570:23584  lowestBid == 0 */\n      sub\n        /* \".git/MyContracts/KenyaProcurementTransparency.sol\":23566:23610  if (lowestBid == 0) revert LowestBidNotSet() */\n      tag_577\n      jumpi\n        /* \".git/MyContracts/KenyaProcurementTransparency.sol\":23593:23610  LowestBidNotSet() */\n      mload(0x40)\n      shl(0xe0, 0x0c12fe7d)\n      dup2\n      mstore\n      0x04\n      add\n      mload(0x40)\n      dup1\n      swap2\n      sub\n      swap1\n      revert\n        /* \".git/MyContracts/KenyaProcurementTransparency.sol\":23566:23610  if (lowestBid == 0) revert LowestBidNotSet() */\n    tag_577:\n        /* \".git/MyContracts/KenyaProcurementTransparency.sol\":23649:23658  lowestBid */\n      sload(0x0f)\n        /* \".git/MyContracts/KenyaProcurementTransparency.sol\":23625:23646  address(this).balance */\n      selfbalance\n        /* \".git/MyContracts/KenyaProcurementTransparency.sol\":23625:23658  address(this).balance < lowestBid */\n      lt\n        /* \".git/MyContracts/KenyaProcurementTransparency.sol\":23621:23696  if (address(this).balance < lowestBid) revert InsufficientContractBalance() */\n      iszero\n      tag_578\n      jumpi\n        /* \".git/MyContracts/KenyaProcurementTransparency.sol\":23667:23696  InsufficientContractBalance() */\n      mload(0x40)\n      shl(0xe0, 0x786e0a99)\n      dup2\n      mstore\n      0x04\n      add\n      mload(0x40)\n      dup1\n      swap2\n      sub\n      swap1\n      revert\n        /* \".git/MyContracts/KenyaProcurementTransparency.sol\":23621:23696  if (address(this).balance < lowestBid) revert InsufficientContractBalance() */\n    tag_578:\n        /* \".git/MyContracts/KenyaProcurementTransparency.sol\":23709:23724  paymentReleased */\n      0x13\n        /* \".git/MyContracts/KenyaProcurementTransparency.sol\":23709:23731  paymentReleased = true */\n      dup1\n      sload\n      not(0xff)\n      and\n        /* \".git/MyContracts/KenyaProcurementTransparency.sol\":23727:23731  true */\n      0x01\n        /* \".git/MyContracts/KenyaProcurementTransparency.sol\":23709:23731  paymentReleased = true */\n      or\n      swap1\n      sstore\n        /* \".git/MyContracts/KenyaProcurementTransparency.sol\":23742:23749  _status */\n      0x02\n        /* \".git/MyContracts/KenyaProcurementTransparency.sol\":23742:23769  _status = TenderStatus.Paid */\n      dup1\n      sload\n      not(shl(0xa0, 0xff))\n      and\n      shl(0xa0, 0x07)\n      or\n      swap1\n      sstore\n        /* \".git/MyContracts/KenyaProcurementTransparency.sol\":23809:23816  _winner */\n      sload(0x0e)\n        /* \".git/MyContracts/KenyaProcurementTransparency.sol\":23830:23839  lowestBid */\n      sload(0x0f)\n        /* \".git/MyContracts/KenyaProcurementTransparency.sol\":23801:23844  payable(_winner).call{value: lowestBid}(\"\") */\n      mload(0x40)\n      0x00\n      swap3\n      sub(shl(0xa0, 0x01), 0x01)\n        /* \".git/MyContracts/KenyaProcurementTransparency.sol\":23809:23816  _winner */\n      and\n      swap2\n        /* \".git/MyContracts/KenyaProcurementTransparency.sol\":23830:23839  lowestBid */\n      swap1\n      dup4\n        /* \".git/MyContracts/KenyaProcurementTransparency.sol\":23801:23844  payable(_winner).call{value: lowestBid}(\"\") */\n      dup2\n      dup2\n      dup2\n        /* \".git/MyContracts/KenyaProcurementTransparency.sol\":23830:23839  lowestBid */\n      dup6\n        /* \".git/MyContracts/KenyaProcurementTransparency.sol\":23809:23816  _winner */\n      dup8\n        /* \".git/MyContracts/KenyaProcurementTransparency.sol\":23801:23844  payable(_winner).call{value: lowestBid}(\"\") */\n      gas\n      call\n      swap3\n      pop\n      pop\n      pop\n      returndatasize\n      dup1\n      0x00\n      dup2\n      eq\n      tag_585\n      jumpi\n      mload(0x40)\n      swap2\n      pop\n      and(add(returndatasize, 0x3f), not(0x1f))\n      dup3\n      add\n      0x40\n      mstore\n      returndatasize\n      dup3\n      mstore\n      returndatasize\n      0x00\n      0x20\n      dup5\n      add\n      returndatacopy\n      jump(tag_584)\n    tag_585:\n      0x60\n      swap2\n      pop\n    tag_584:\n      pop\n        /* \".git/MyContracts/KenyaProcurementTransparency.sol\":23782:23844  (bool success, ) = payable(_winner).call{value: lowestBid}(\"\") */\n      pop\n      swap1\n      pop\n        /* \".git/MyContracts/KenyaProcurementTransparency.sol\":23860:23867  success */\n      dup1\n        /* \".git/MyContracts/KenyaProcurementTransparency.sol\":23855:23899  if (!success) revert PaymentTransferFailed() */\n      tag_586\n      jumpi\n        /* \".git/MyContracts/KenyaProcurementTransparency.sol\":23876:23899  PaymentTransferFailed() */\n      mload(0x40)\n      shl(0xe0, 0x2ee66eed)\n      dup2\n      mstore\n      0x04\n      add\n      mload(0x40)\n      dup1\n      swap2\n      sub\n      swap1\n      revert\n        /* \".git/MyContracts/KenyaProcurementTransparency.sol\":23855:23899  if (!success) revert PaymentTransferFailed() */\n    tag_586:\n        /* \".git/MyContracts/KenyaProcurementTransparency.sol\":23933:23940  _winner */\n      sload(0x0e)\n        /* \".git/MyContracts/KenyaProcurementTransparency.sol\":23942:23951  lowestBid */\n      sload(0x0f)\n        /* \".git/MyContracts/KenyaProcurementTransparency.sol\":23917:23952  PaymentReleased(_winner, lowestBid) */\n      0x40\n      dup1\n      mload\n      sub(shl(0xa0, 0x01), 0x01)\n        /* \".git/MyContracts/KenyaProcurementTransparency.sol\":23933:23940  _winner */\n      swap1\n      swap4\n      and\n        /* \"#utility.yul\":15727:15778   */\n      dup4\n      mstore\n        /* \"#utility.yul\":15809:15811   */\n      0x20\n        /* \"#utility.yul\":15794:15812   */\n      dup4\n      add\n        /* \"#utility.yul\":15787:15821   */\n      swap2\n      swap1\n      swap2\n      mstore\n        /* \".git/MyContracts/KenyaProcurementTransparency.sol\":23917:23952  PaymentReleased(_winner, lowestBid) */\n      0xdf20fd1e76bc69d672e4814fafb2c449bba3a5369d8359adf9e05e6fde87b056\n      swap2\n        /* \"#utility.yul\":15700:15718   */\n      add\n        /* \".git/MyContracts/KenyaProcurementTransparency.sol\":23917:23952  PaymentReleased(_winner, lowestBid) */\n      mload(0x40)\n      dup1\n      swap2\n      sub\n      swap1\n      log1\n      pop\n      pop\n        /* \".git/MyContracts/KenyaProcurementTransparency.sol\":6834:6841  _locked */\n      0x13\n        /* \".git/MyContracts/KenyaProcurementTransparency.sol\":6834:6849  _locked = false */\n      dup1\n      sload\n      not(0xff00)\n      and\n      swap1\n      sstore\n        /* \".git/MyContracts/KenyaProcurementTransparency.sol\":23280:23960  function releasePayment()... */\n      jump\t// out\n        /* \".git/MyContracts/KenyaProcurementTransparency.sol\":1610:1637  address[] public bidderList */\n    tag_225:\n      0x0d\n      dup2\n      dup2\n      sload\n      dup2\n      lt\n      tag_588\n      jumpi\n      0x00\n      dup1\n      revert\n    tag_588:\n      0x00\n      swap2\n      dup3\n      mstore\n      0x20\n      swap1\n      swap2\n      keccak256\n      add\n      sload\n      sub(shl(0xa0, 0x01), 0x01)\n      and\n      swap1\n      pop\n      dup2\n      jump\t// out\n        /* \".git/MyContracts/KenyaProcurementTransparency.sol\":27087:27317  function winner()... */\n    tag_229:\n        /* \".git/MyContracts/KenyaProcurementTransparency.sol\":27272:27279  _winner */\n      and(sub(shl(0xa0, 0x01), 0x01), sload(0x0e))\n        /* \".git/MyContracts/KenyaProcurementTransparency.sol\":27169:27190  address winnerAddress */\n      0x00\n        /* \".git/MyContracts/KenyaProcurementTransparency.sol\":27281:27308  bidderDescriptions[_winner] */\n      dup2\n      dup2\n      mstore\n        /* \".git/MyContracts/KenyaProcurementTransparency.sol\":27281:27299  bidderDescriptions */\n      0x0b\n        /* \".git/MyContracts/KenyaProcurementTransparency.sol\":27281:27308  bidderDescriptions[_winner] */\n      0x20\n      mstore\n      0x40\n      dup2\n      keccak256\n        /* \".git/MyContracts/KenyaProcurementTransparency.sol\":27264:27309  return (_winner, bidderDescriptions[_winner]) */\n      dup1\n      sload\n        /* \".git/MyContracts/KenyaProcurementTransparency.sol\":27169:27190  address winnerAddress */\n      swap2\n      swap3\n        /* \".git/MyContracts/KenyaProcurementTransparency.sol\":27205:27236  string memory winnerDescription */\n      0x60\n      swap3\n        /* \".git/MyContracts/KenyaProcurementTransparency.sol\":27272:27279  _winner */\n      swap1\n      swap2\n        /* \".git/MyContracts/KenyaProcurementTransparency.sol\":27281:27308  bidderDescriptions[_winner] */\n      swap1\n      dup2\n      swap1\n        /* \".git/MyContracts/KenyaProcurementTransparency.sol\":27264:27309  return (_winner, bidderDescriptions[_winner]) */\n      tag_591\n      swap1\n      tag_305\n      jump\t// in\n    tag_591:\n      dup1\n      0x1f\n      add\n      0x20\n      dup1\n      swap2\n      div\n      mul\n      0x20\n      add\n      mload(0x40)\n      swap1\n      dup2\n      add\n      0x40\n      mstore\n      dup1\n      swap3\n      swap2\n      swap1\n      dup2\n      dup2\n      mstore\n      0x20\n      add\n      dup3\n      dup1\n      sload\n      tag_592\n      swap1\n      tag_305\n      jump\t// in\n    tag_592:\n      dup1\n      iszero\n      tag_593\n      jumpi\n      dup1\n      0x1f\n      lt\n      tag_594\n      jumpi\n      0x0100\n      dup1\n      dup4\n      sload\n      div\n      mul\n      dup4\n      mstore\n      swap2\n      0x20\n      add\n      swap2\n      jump(tag_593)\n    tag_594:\n      dup3\n      add\n      swap2\n      swap1\n      0x00\n      mstore\n      keccak256(0x00, 0x20)\n      swap1\n    tag_595:\n      dup2\n      sload\n      dup2\n      mstore\n      swap1\n      0x01\n      add\n      swap1\n      0x20\n      add\n      dup1\n      dup4\n      gt\n      tag_595\n      jumpi\n      dup3\n      swap1\n      sub\n      0x1f\n      and\n      dup3\n      add\n      swap2\n    tag_593:\n      pop\n      pop\n      pop\n      pop\n      pop\n      swap1\n      pop\n      swap2\n      pop\n      swap2\n      pop\n        /* \".git/MyContracts/KenyaProcurementTransparency.sol\":27087:27317  function winner()... */\n      swap1\n      swap2\n      jump\t// out\n        /* \".git/MyContracts/KenyaProcurementTransparency.sol\":33121:34072  function getTenderSummary()... */\n    tag_234:\n        /* \".git/MyContracts/KenyaProcurementTransparency.sol\":33802:33828  _tender.submissionDeadline */\n      sload(0x06)\n        /* \".git/MyContracts/KenyaProcurementTransparency.sol\":33843:33865  _tender.contractAmount */\n      sload(0x07)\n        /* \".git/MyContracts/KenyaProcurementTransparency.sol\":33768:33787  _tender.description */\n      0x02\n        /* \".git/MyContracts/KenyaProcurementTransparency.sol\":33920:33927  _status */\n      sload\n        /* \".git/MyContracts/KenyaProcurementTransparency.sol\":33213:33239  string memory tenderNumber */\n      0x60\n      swap3\n      dup4\n      swap3\n      dup4\n      swap3\n        /* \".git/MyContracts/KenyaProcurementTransparency.sol\":33328:33363  uint256 submissionDeadlineTimestamp */\n      0x00\n      swap3\n      dup4\n      swap3\n        /* \".git/MyContracts/KenyaProcurementTransparency.sol\":33213:33239  string memory tenderNumber */\n      dup6\n      swap3\n        /* \".git/MyContracts/KenyaProcurementTransparency.sol\":33328:33363  uint256 submissionDeadlineTimestamp */\n      dup5\n      swap3\n        /* \".git/MyContracts/KenyaProcurementTransparency.sol\":33213:33239  string memory tenderNumber */\n      dup5\n      swap3\n        /* \".git/MyContracts/KenyaProcurementTransparency.sol\":33328:33363  uint256 submissionDeadlineTimestamp */\n      dup5\n      swap3\n        /* \".git/MyContracts/KenyaProcurementTransparency.sol\":33213:33239  string memory tenderNumber */\n      dup5\n      swap3\n        /* \".git/MyContracts/KenyaProcurementTransparency.sol\":33328:33363  uint256 submissionDeadlineTimestamp */\n      dup5\n      swap3\n        /* \".git/MyContracts/KenyaProcurementTransparency.sol\":33705:33712  _tender */\n      0x03\n      swap3\n        /* \".git/MyContracts/KenyaProcurementTransparency.sol\":33740:33753  _tender.title */\n      0x04\n      swap3\n        /* \".git/MyContracts/KenyaProcurementTransparency.sol\":33768:33787  _tender.description */\n      0x05\n      swap3\n        /* \".git/MyContracts/KenyaProcurementTransparency.sol\":33802:33828  _tender.submissionDeadline */\n      swap1\n      swap2\n        /* \".git/MyContracts/KenyaProcurementTransparency.sol\":33880:33905  _tender.qualificationNote */\n      0x08\n      swap1\n      shl(0xa0, 0x01)\n        /* \".git/MyContracts/KenyaProcurementTransparency.sol\":33920:33927  _status */\n      swap1\n      div\n      0xff\n      and\n        /* \".git/MyContracts/KenyaProcurementTransparency.sol\":33942:33965  _getStatusText(_status) */\n      tag_597\n        /* \".git/MyContracts/KenyaProcurementTransparency.sol\":33920:33927  _status */\n      dup2\n        /* \".git/MyContracts/KenyaProcurementTransparency.sol\":33942:33956  _getStatusText */\n      tag_285\n        /* \".git/MyContracts/KenyaProcurementTransparency.sol\":33942:33965  _getStatusText(_status) */\n      jump\t// in\n    tag_597:\n        /* \".git/MyContracts/KenyaProcurementTransparency.sol\":33980:33987  _winner */\n      and(sub(shl(0xa0, 0x01), 0x01), sload(0x0e))\n      0x00\n        /* \".git/MyContracts/KenyaProcurementTransparency.sol\":34002:34029  bidderDescriptions[_winner] */\n      dup2\n      dup2\n      mstore\n        /* \".git/MyContracts/KenyaProcurementTransparency.sol\":34002:34020  bidderDescriptions */\n      0x0b\n        /* \".git/MyContracts/KenyaProcurementTransparency.sol\":34002:34029  bidderDescriptions[_winner] */\n      0x20\n      mstore\n      0x40\n      swap1\n      keccak256\n        /* \".git/MyContracts/KenyaProcurementTransparency.sol\":34044:34053  lowestBid */\n      sload(0x0f)\n        /* \".git/MyContracts/KenyaProcurementTransparency.sol\":33683:34064  return (... */\n      dup11\n      sload\n      dup12\n      swap1\n      tag_598\n      swap1\n      tag_305\n      jump\t// in\n    tag_598:\n      dup1\n      0x1f\n      add\n      0x20\n      dup1\n      swap2\n      div\n      mul\n      0x20\n      add\n      mload(0x40)\n      swap1\n      dup2\n      add\n      0x40\n      mstore\n      dup1\n      swap3\n      swap2\n      swap1\n      dup2\n      dup2\n      mstore\n      0x20\n      add\n      dup3\n      dup1\n      sload\n      tag_599\n      swap1\n      tag_305\n      jump\t// in\n    tag_599:\n      dup1\n      iszero\n      tag_600\n      jumpi\n      dup1\n      0x1f\n      lt\n      tag_601\n      jumpi\n      0x0100\n      dup1\n      dup4\n      sload\n      div\n      mul\n      dup4\n      mstore\n      swap2\n      0x20\n      add\n      swap2\n      jump(tag_600)\n    tag_601:\n      dup3\n      add\n      swap2\n      swap1\n      0x00\n      mstore\n      keccak256(0x00, 0x20)\n      swap1\n    tag_602:\n      dup2\n      sload\n      dup2\n      mstore\n      swap1\n      0x01\n      add\n      swap1\n      0x20\n      add\n      dup1\n      dup4\n      gt\n      tag_602\n      jumpi\n      dup3\n      swap1\n      sub\n      0x1f\n      and\n      dup3\n      add\n      swap2\n    tag_600:\n      pop\n      pop\n      pop\n      pop\n      pop\n      swap11\n      pop\n      dup10\n      dup1\n      sload\n      tag_603\n      swap1\n      tag_305\n      jump\t// in\n    tag_603:\n      dup1\n      0x1f\n      add\n      0x20\n      dup1\n      swap2\n      div\n      mul\n      0x20\n      add\n      mload(0x40)\n      swap1\n      dup2\n      add\n      0x40\n      mstore\n      dup1\n      swap3\n      swap2\n      swap1\n      dup2\n      dup2\n      mstore\n      0x20\n      add\n      dup3\n      dup1\n      sload\n      tag_604\n      swap1\n      tag_305\n      jump\t// in\n    tag_604:\n      dup1\n      iszero\n      tag_605\n      jumpi\n      dup1\n      0x1f\n      lt\n      tag_606\n      jumpi\n      0x0100\n      dup1\n      dup4\n      sload\n      div\n      mul\n      dup4\n      mstore\n      swap2\n      0x20\n      add\n      swap2\n      jump(tag_605)\n    tag_606:\n      dup3\n      add\n      swap2\n      swap1\n      0x00\n      mstore\n      keccak256(0x00, 0x20)\n      swap1\n    tag_607:\n      dup2\n      sload\n      dup2\n      mstore\n      swap1\n      0x01\n      add\n      swap1\n      0x20\n      add\n      dup1\n      dup4\n      gt\n      tag_607\n      jumpi\n      dup3\n      swap1\n      sub\n      0x1f\n      and\n      dup3\n      add\n      swap2\n    tag_605:\n      pop\n      pop\n      pop\n      pop\n      pop\n      swap10\n      pop\n      dup9\n      dup1\n      sload\n      tag_608\n      swap1\n      tag_305\n      jump\t// in\n    tag_608:\n      dup1\n      0x1f\n      add\n      0x20\n      dup1\n      swap2\n      div\n      mul\n      0x20\n      add\n      mload(0x40)\n      swap1\n      dup2\n      add\n      0x40\n      mstore\n      dup1\n      swap3\n      swap2\n      swap1\n      dup2\n      dup2\n      mstore\n      0x20\n      add\n      dup3\n      dup1\n      sload\n      tag_609\n      swap1\n      tag_305\n      jump\t// in\n    tag_609:\n      dup1\n      iszero\n      tag_610\n      jumpi\n      dup1\n      0x1f\n      lt\n      tag_611\n      jumpi\n      0x0100\n      dup1\n      dup4\n      sload\n      div\n      mul\n      dup4\n      mstore\n      swap2\n      0x20\n      add\n      swap2\n      jump(tag_610)\n    tag_611:\n      dup3\n      add\n      swap2\n      swap1\n      0x00\n      mstore\n      keccak256(0x00, 0x20)\n      swap1\n    tag_612:\n      dup2\n      sload\n      dup2\n      mstore\n      swap1\n      0x01\n      add\n      swap1\n      0x20\n      add\n      dup1\n      dup4\n      gt\n      tag_612\n      jumpi\n      dup3\n      swap1\n      sub\n      0x1f\n      and\n      dup3\n      add\n      swap2\n    tag_610:\n      pop\n      pop\n      pop\n      pop\n      pop\n      swap9\n      pop\n      dup6\n      dup1\n      sload\n      tag_613\n      swap1\n      tag_305\n      jump\t// in\n    tag_613:\n      dup1\n      0x1f\n      add\n      0x20\n      dup1\n      swap2\n      div\n      mul\n      0x20\n      add\n      mload(0x40)\n      swap1\n      dup2\n      add\n      0x40\n      mstore\n      dup1\n      swap3\n      swap2\n      swap1\n      dup2\n      dup2\n      mstore\n      0x20\n      add\n      dup3\n      dup1\n      sload\n      tag_614\n      swap1\n      tag_305\n      jump\t// in\n    tag_614:\n      dup1\n      iszero\n      tag_615\n      jumpi\n      dup1\n      0x1f\n      lt\n      tag_616\n      jumpi\n      0x0100\n      dup1\n      dup4\n      sload\n      div\n      mul\n      dup4\n      mstore\n      swap2\n      0x20\n      add\n      swap2\n      jump(tag_615)\n    tag_616:\n      dup3\n      add\n      swap2\n      swap1\n      0x00\n      mstore\n      keccak256(0x00, 0x20)\n      swap1\n    tag_617:\n      dup2\n      sload\n      dup2\n      mstore\n      swap1\n      0x01\n      add\n      swap1\n      0x20\n      add\n      dup1\n      dup4\n      gt\n      tag_617\n      jumpi\n      dup3\n      swap1\n      sub\n      0x1f\n      and\n      dup3\n      add\n      swap2\n    tag_615:\n      pop\n      pop\n      pop\n      pop\n      pop\n      swap6\n      pop\n      dup2\n      dup1\n      sload\n      tag_618\n      swap1\n      tag_305\n      jump\t// in\n    tag_618:\n      dup1\n      0x1f\n      add\n      0x20\n      dup1\n      swap2\n      div\n      mul\n      0x20\n      add\n      mload(0x40)\n      swap1\n      dup2\n      add\n      0x40\n      mstore\n      dup1\n      swap3\n      swap2\n      swap1\n      dup2\n      dup2\n      mstore\n      0x20\n      add\n      dup3\n      dup1\n      sload\n      tag_619\n      swap1\n      tag_305\n      jump\t// in\n    tag_619:\n      dup1\n      iszero\n      tag_620\n      jumpi\n      dup1\n      0x1f\n      lt\n      tag_621\n      jumpi\n      0x0100\n      dup1\n      dup4\n      sload\n      div\n      mul\n      dup4\n      mstore\n      swap2\n      0x20\n      add\n      swap2\n      jump(tag_620)\n    tag_621:\n      dup3\n      add\n      swap2\n      swap1\n      0x00\n      mstore\n      keccak256(0x00, 0x20)\n      swap1\n    tag_622:\n      dup2\n      sload\n      dup2\n      mstore\n      swap1\n      0x01\n      add\n      swap1\n      0x20\n      add\n      dup1\n      dup4\n      gt\n      tag_622\n      jumpi\n      dup3\n      swap1\n      sub\n      0x1f\n      and\n      dup3\n      add\n      swap2\n    tag_620:\n      pop\n      pop\n      pop\n      pop\n      pop\n      swap2\n      pop\n      swap11\n      pop\n      swap11\n      pop\n      swap11\n      pop\n      swap11\n      pop\n      swap11\n      pop\n      swap11\n      pop\n      swap11\n      pop\n      swap11\n      pop\n      swap11\n      pop\n      swap11\n      pop\n      swap11\n      pop\n        /* \".git/MyContracts/KenyaProcurementTransparency.sol\":33121:34072  function getTenderSummary()... */\n      swap1\n      swap2\n      swap3\n      swap4\n      swap5\n      swap6\n      swap7\n      swap8\n      swap9\n      swap10\n      swap11\n      jump\t// out\n        /* \".git/MyContracts/KenyaProcurementTransparency.sol\":12848:13079  function getSealedBidHash(uint256 _amount, string memory _secret)... */\n    tag_248:\n        /* \".git/MyContracts/KenyaProcurementTransparency.sol\":5644:5654  msg.sender */\n      caller\n        /* \".git/MyContracts/KenyaProcurementTransparency.sol\":12994:13001  bytes32 */\n      0x00\n        /* \".git/MyContracts/KenyaProcurementTransparency.sol\":5626:5655  registeredBidders[msg.sender] */\n      swap1\n      dup2\n      mstore\n        /* \".git/MyContracts/KenyaProcurementTransparency.sol\":5626:5643  registeredBidders */\n      0x0a\n        /* \".git/MyContracts/KenyaProcurementTransparency.sol\":5626:5655  registeredBidders[msg.sender] */\n      0x20\n      mstore\n      0x40\n      dup2\n      keccak256\n      sload\n      0xff\n      and\n        /* \".git/MyContracts/KenyaProcurementTransparency.sol\":5621:5685  if (!registeredBidders[msg.sender]) revert NotRegisteredBidder() */\n      tag_624\n      jumpi\n        /* \".git/MyContracts/KenyaProcurementTransparency.sol\":5664:5685  NotRegisteredBidder() */\n      mload(0x40)\n      shl(0xe5, 0x02f9ce37)\n      dup2\n      mstore\n      0x04\n      add\n      mload(0x40)\n      dup1\n      swap2\n      sub\n      swap1\n      revert\n        /* \".git/MyContracts/KenyaProcurementTransparency.sol\":5621:5685  if (!registeredBidders[msg.sender]) revert NotRegisteredBidder() */\n    tag_624:\n        /* \".git/MyContracts/KenyaProcurementTransparency.sol\":13053:13060  _amount */\n      dup3\n        /* \".git/MyContracts/KenyaProcurementTransparency.sol\":13062:13069  _secret */\n      dup3\n        /* \".git/MyContracts/KenyaProcurementTransparency.sol\":13036:13070  abi.encodePacked(_amount, _secret) */\n      add(0x20, mload(0x40))\n      tag_626\n      swap3\n      swap2\n      swap1\n      tag_300\n      jump\t// in\n    tag_626:\n      mload(0x40)\n      0x20\n      dup2\n      dup4\n      sub\n      sub\n      dup2\n      mstore\n      swap1\n      0x40\n      mstore\n        /* \".git/MyContracts/KenyaProcurementTransparency.sol\":13026:13071  keccak256(abi.encodePacked(_amount, _secret)) */\n      dup1\n      mload\n      swap1\n      0x20\n      add\n      keccak256\n        /* \".git/MyContracts/KenyaProcurementTransparency.sol\":13019:13071  return keccak256(abi.encodePacked(_amount, _secret)) */\n      swap1\n      pop\n        /* \".git/MyContracts/KenyaProcurementTransparency.sol\":5696:5697  _ */\n    tag_625:\n        /* \".git/MyContracts/KenyaProcurementTransparency.sol\":12848:13079  function getSealedBidHash(uint256 _amount, string memory _secret)... */\n      swap3\n      swap2\n      pop\n      pop\n      jump\t// out\n        /* \".git/MyContracts/KenyaProcurementTransparency.sol\":38943:39692  function _getStatusText(TenderStatus _currentStatus)... */\n    tag_285:\n        /* \".git/MyContracts/KenyaProcurementTransparency.sol\":39046:39070  string memory statusText */\n      0x60\n        /* \".git/MyContracts/KenyaProcurementTransparency.sol\":39110:39130  TenderStatus.Created */\n      0x00\n        /* \".git/MyContracts/KenyaProcurementTransparency.sol\":39092:39106  _currentStatus */\n      dup3\n        /* \".git/MyContracts/KenyaProcurementTransparency.sol\":39092:39130  _currentStatus == TenderStatus.Created */\n      0x07\n      dup2\n      gt\n      iszero\n      tag_631\n      jumpi\n      tag_631\n      tag_258\n      jump\t// in\n    tag_631:\n      sub\n        /* \".git/MyContracts/KenyaProcurementTransparency.sol\":39088:39148  if (_currentStatus == TenderStatus.Created) return \"Created\" */\n      tag_632\n      jumpi\n      pop\n      pop\n        /* \".git/MyContracts/KenyaProcurementTransparency.sol\":39132:39148  return \"Created\" */\n      0x40\n      dup1\n      mload\n      dup1\n      dup3\n      add\n      swap1\n      swap2\n      mstore\n      0x07\n      dup2\n      mstore\n      shl(0xca, 0x10dc99585d1959)\n      0x20\n      dup3\n      add\n      mstore\n      swap1\n        /* \".git/MyContracts/KenyaProcurementTransparency.sol\":38943:39692  function _getStatusText(TenderStatus _currentStatus)... */\n      jump\t// out\n        /* \".git/MyContracts/KenyaProcurementTransparency.sol\":39088:39148  if (_currentStatus == TenderStatus.Created) return \"Created\" */\n    tag_632:\n        /* \".git/MyContracts/KenyaProcurementTransparency.sol\":39181:39204  TenderStatus.RevealOpen */\n      0x01\n        /* \".git/MyContracts/KenyaProcurementTransparency.sol\":39163:39177  _currentStatus */\n      dup3\n        /* \".git/MyContracts/KenyaProcurementTransparency.sol\":39163:39204  _currentStatus == TenderStatus.RevealOpen */\n      0x07\n      dup2\n      gt\n      iszero\n      tag_636\n      jumpi\n      tag_636\n      tag_258\n      jump\t// in\n    tag_636:\n      sub\n        /* \".git/MyContracts/KenyaProcurementTransparency.sol\":39159:39225  if (_currentStatus == TenderStatus.RevealOpen) return \"RevealOpen\" */\n      tag_637\n      jumpi\n      pop\n      pop\n        /* \".git/MyContracts/KenyaProcurementTransparency.sol\":39206:39225  return \"RevealOpen\" */\n      0x40\n      dup1\n      mload\n      dup1\n      dup3\n      add\n      swap1\n      swap2\n      mstore\n      0x0a\n      dup2\n      mstore\n      shl(0xb1, 0x2932bb32b0b627b832b7)\n      0x20\n      dup3\n      add\n      mstore\n      swap1\n        /* \".git/MyContracts/KenyaProcurementTransparency.sol\":38943:39692  function _getStatusText(TenderStatus _currentStatus)... */\n      jump\t// out\n        /* \".git/MyContracts/KenyaProcurementTransparency.sol\":39159:39225  if (_currentStatus == TenderStatus.RevealOpen) return \"RevealOpen\" */\n    tag_637:\n        /* \".git/MyContracts/KenyaProcurementTransparency.sol\":39258:39280  TenderStatus.Evaluated */\n      0x02\n        /* \".git/MyContracts/KenyaProcurementTransparency.sol\":39240:39254  _currentStatus */\n      dup3\n        /* \".git/MyContracts/KenyaProcurementTransparency.sol\":39240:39280  _currentStatus == TenderStatus.Evaluated */\n      0x07\n      dup2\n      gt\n      iszero\n      tag_641\n      jumpi\n      tag_641\n      tag_258\n      jump\t// in\n    tag_641:\n      sub\n        /* \".git/MyContracts/KenyaProcurementTransparency.sol\":39236:39300  if (_currentStatus == TenderStatus.Evaluated) return \"Evaluated\" */\n      tag_642\n      jumpi\n      pop\n      pop\n        /* \".git/MyContracts/KenyaProcurementTransparency.sol\":39282:39300  return \"Evaluated\" */\n      0x40\n      dup1\n      mload\n      dup1\n      dup3\n      add\n      swap1\n      swap2\n      mstore\n      0x09\n      dup2\n      mstore\n      shl(0xba, 0x115d985b1d585d1959)\n      0x20\n      dup3\n      add\n      mstore\n      swap1\n        /* \".git/MyContracts/KenyaProcurementTransparency.sol\":38943:39692  function _getStatusText(TenderStatus _currentStatus)... */\n      jump\t// out\n        /* \".git/MyContracts/KenyaProcurementTransparency.sol\":39236:39300  if (_currentStatus == TenderStatus.Evaluated) return \"Evaluated\" */\n    tag_642:\n        /* \".git/MyContracts/KenyaProcurementTransparency.sol\":39333:39353  TenderStatus.Awarded */\n      0x03\n        /* \".git/MyContracts/KenyaProcurementTransparency.sol\":39315:39329  _currentStatus */\n      dup3\n        /* \".git/MyContracts/KenyaProcurementTransparency.sol\":39315:39353  _currentStatus == TenderStatus.Awarded */\n      0x07\n      dup2\n      gt\n      iszero\n      tag_646\n      jumpi\n      tag_646\n      tag_258\n      jump\t// in\n    tag_646:\n      sub\n        /* \".git/MyContracts/KenyaProcurementTransparency.sol\":39311:39371  if (_currentStatus == TenderStatus.Awarded) return \"Awarded\" */\n      tag_647\n      jumpi\n      pop\n      pop\n        /* \".git/MyContracts/KenyaProcurementTransparency.sol\":39355:39371  return \"Awarded\" */\n      0x40\n      dup1\n      mload\n      dup1\n      dup3\n      add\n      swap1\n      swap2\n      mstore\n      0x07\n      dup2\n      mstore\n      shl(0xca, 0x105dd85c991959)\n      0x20\n      dup3\n      add\n      mstore\n      swap1\n        /* \".git/MyContracts/KenyaProcurementTransparency.sol\":38943:39692  function _getStatusText(TenderStatus _currentStatus)... */\n      jump\t// out\n        /* \".git/MyContracts/KenyaProcurementTransparency.sol\":39311:39371  if (_currentStatus == TenderStatus.Awarded) return \"Awarded\" */\n    tag_647:\n        /* \".git/MyContracts/KenyaProcurementTransparency.sol\":39404:39426  TenderStatus.Delivered */\n      0x04\n        /* \".git/MyContracts/KenyaProcurementTransparency.sol\":39386:39400  _currentStatus */\n      dup3\n        /* \".git/MyContracts/KenyaProcurementTransparency.sol\":39386:39426  _currentStatus == TenderStatus.Delivered */\n      0x07\n      dup2\n      gt\n      iszero\n      tag_651\n      jumpi\n      tag_651\n      tag_258\n      jump\t// in\n    tag_651:\n      sub\n        /* \".git/MyContracts/KenyaProcurementTransparency.sol\":39382:39446  if (_currentStatus == TenderStatus.Delivered) return \"Delivered\" */\n      tag_652\n      jumpi\n      pop\n      pop\n        /* \".git/MyContracts/KenyaProcurementTransparency.sol\":39428:39446  return \"Delivered\" */\n      0x40\n      dup1\n      mload\n      dup1\n      dup3\n      add\n      swap1\n      swap2\n      mstore\n      0x09\n      dup2\n      mstore\n      shl(0xba, 0x11195b1a5d995c9959)\n      0x20\n      dup3\n      add\n      mstore\n      swap1\n        /* \".git/MyContracts/KenyaProcurementTransparency.sol\":38943:39692  function _getStatusText(TenderStatus _currentStatus)... */\n      jump\t// out\n        /* \".git/MyContracts/KenyaProcurementTransparency.sol\":39382:39446  if (_currentStatus == TenderStatus.Delivered) return \"Delivered\" */\n    tag_652:\n        /* \".git/MyContracts/KenyaProcurementTransparency.sol\":39479:39500  TenderStatus.Rejected */\n      0x05\n        /* \".git/MyContracts/KenyaProcurementTransparency.sol\":39461:39475  _currentStatus */\n      dup3\n        /* \".git/MyContracts/KenyaProcurementTransparency.sol\":39461:39500  _currentStatus == TenderStatus.Rejected */\n      0x07\n      dup2\n      gt\n      iszero\n      tag_656\n      jumpi\n      tag_656\n      tag_258\n      jump\t// in\n    tag_656:\n      sub\n        /* \".git/MyContracts/KenyaProcurementTransparency.sol\":39457:39519  if (_currentStatus == TenderStatus.Rejected) return \"Rejected\" */\n      tag_657\n      jumpi\n      pop\n      pop\n        /* \".git/MyContracts/KenyaProcurementTransparency.sol\":39502:39519  return \"Rejected\" */\n      0x40\n      dup1\n      mload\n      dup1\n      dup3\n      add\n      swap1\n      swap2\n      mstore\n      0x08\n      dup2\n      mstore\n      shl(0xc2, 0x14995a9958dd1959)\n      0x20\n      dup3\n      add\n      mstore\n      swap1\n        /* \".git/MyContracts/KenyaProcurementTransparency.sol\":38943:39692  function _getStatusText(TenderStatus _currentStatus)... */\n      jump\t// out\n        /* \".git/MyContracts/KenyaProcurementTransparency.sol\":39457:39519  if (_currentStatus == TenderStatus.Rejected) return \"Rejected\" */\n    tag_657:\n        /* \".git/MyContracts/KenyaProcurementTransparency.sol\":39552:39573  TenderStatus.Accepted */\n      0x06\n        /* \".git/MyContracts/KenyaProcurementTransparency.sol\":39534:39548  _currentStatus */\n      dup3\n        /* \".git/MyContracts/KenyaProcurementTransparency.sol\":39534:39573  _currentStatus == TenderStatus.Accepted */\n      0x07\n      dup2\n      gt\n      iszero\n      tag_661\n      jumpi\n      tag_661\n      tag_258\n      jump\t// in\n    tag_661:\n      sub\n        /* \".git/MyContracts/KenyaProcurementTransparency.sol\":39530:39592  if (_currentStatus == TenderStatus.Accepted) return \"Accepted\" */\n      tag_662\n      jumpi\n      pop\n      pop\n        /* \".git/MyContracts/KenyaProcurementTransparency.sol\":39575:39592  return \"Accepted\" */\n      0x40\n      dup1\n      mload\n      dup1\n      dup3\n      add\n      swap1\n      swap2\n      mstore\n      0x08\n      dup2\n      mstore\n      shl(0xc2, 0x1058d8d95c1d1959)\n      0x20\n      dup3\n      add\n      mstore\n      swap1\n        /* \".git/MyContracts/KenyaProcurementTransparency.sol\":38943:39692  function _getStatusText(TenderStatus _currentStatus)... */\n      jump\t// out\n        /* \".git/MyContracts/KenyaProcurementTransparency.sol\":39530:39592  if (_currentStatus == TenderStatus.Accepted) return \"Accepted\" */\n    tag_662:\n        /* \".git/MyContracts/KenyaProcurementTransparency.sol\":39625:39642  TenderStatus.Paid */\n      0x07\n        /* \".git/MyContracts/KenyaProcurementTransparency.sol\":39607:39621  _currentStatus */\n      dup3\n        /* \".git/MyContracts/KenyaProcurementTransparency.sol\":39607:39642  _currentStatus == TenderStatus.Paid */\n      0x07\n      dup2\n      gt\n      iszero\n      tag_666\n      jumpi\n      tag_666\n      tag_258\n      jump\t// in\n    tag_666:\n      sub\n        /* \".git/MyContracts/KenyaProcurementTransparency.sol\":39603:39657  if (_currentStatus == TenderStatus.Paid) return \"Paid\" */\n      tag_667\n      jumpi\n      pop\n      pop\n        /* \".git/MyContracts/KenyaProcurementTransparency.sol\":39644:39657  return \"Paid\" */\n      0x40\n      dup1\n      mload\n      dup1\n      dup3\n      add\n      swap1\n      swap2\n      mstore\n      0x04\n      dup2\n      mstore\n      shl(0xe2, 0x14185a59)\n      0x20\n      dup3\n      add\n      mstore\n      swap1\n        /* \".git/MyContracts/KenyaProcurementTransparency.sol\":38943:39692  function _getStatusText(TenderStatus _currentStatus)... */\n      jump\t// out\n        /* \".git/MyContracts/KenyaProcurementTransparency.sol\":39603:39657  if (_currentStatus == TenderStatus.Paid) return \"Paid\" */\n    tag_667:\n      pop\n      pop\n        /* \".git/MyContracts/KenyaProcurementTransparency.sol\":39668:39684  return \"Unknown\" */\n      0x40\n      dup1\n      mload\n      dup1\n      dup3\n      add\n      swap1\n      swap2\n      mstore\n      0x07\n      dup2\n      mstore\n      shl(0xc9, 0x2ab735b737bbb7)\n      0x20\n      dup3\n      add\n      mstore\n      swap1\n        /* \".git/MyContracts/KenyaProcurementTransparency.sol\":38943:39692  function _getStatusText(TenderStatus _currentStatus)... */\n      jump\t// out\n        /* \".git/MyContracts/KenyaProcurementTransparency.sol\":36046:37334  function _timestampToDateTime(uint256 timestamp)... */\n    tag_333:\n        /* \".git/MyContracts/KenyaProcurementTransparency.sol\":36425:36429  1970 */\n      0x07b2\n        /* \".git/MyContracts/KenyaProcurementTransparency.sol\":36159:36171  uint256 year */\n      0x00\n      dup1\n      dup1\n      dup1\n      dup1\n      dup1\n      dup1\n        /* \".git/MyContracts/KenyaProcurementTransparency.sol\":36440:36722  while (true) {... */\n    tag_669:\n        /* \".git/MyContracts/KenyaProcurementTransparency.sol\":36484:36509  _isLeapYear(uint16(year)) */\n      tag_671\n        /* \".git/MyContracts/KenyaProcurementTransparency.sol\":36503:36507  year */\n      dup9\n        /* \".git/MyContracts/KenyaProcurementTransparency.sol\":36484:36495  _isLeapYear */\n      tag_672\n        /* \".git/MyContracts/KenyaProcurementTransparency.sol\":36484:36509  _isLeapYear(uint16(year)) */\n      jump\t// in\n    tag_671:\n        /* \".git/MyContracts/KenyaProcurementTransparency.sol\":36484:36531  _isLeapYear(uint16(year)) ? 366 days : 365 days */\n      tag_673\n      jumpi\n        /* \".git/MyContracts/KenyaProcurementTransparency.sol\":36523:36531  365 days */\n      0x01e13380\n        /* \".git/MyContracts/KenyaProcurementTransparency.sol\":36484:36531  _isLeapYear(uint16(year)) ? 366 days : 365 days */\n      jump(tag_674)\n    tag_673:\n        /* \".git/MyContracts/KenyaProcurementTransparency.sol\":36512:36520  366 days */\n      0x01e28500\n        /* \".git/MyContracts/KenyaProcurementTransparency.sol\":36484:36531  _isLeapYear(uint16(year)) ? 366 days : 365 days */\n    tag_674:\n        /* \".git/MyContracts/KenyaProcurementTransparency.sol\":36468:36531  secondsInYear = _isLeapYear(uint16(year)) ? 366 days : 365 days */\n      0xffffffff\n      and\n      swap2\n      pop\n        /* \".git/MyContracts/KenyaProcurementTransparency.sol\":36588:36597  timestamp */\n      dup9\n        /* \".git/MyContracts/KenyaProcurementTransparency.sol\":36550:36585  secondsAccountedFor + secondsInYear */\n      tag_675\n        /* \".git/MyContracts/KenyaProcurementTransparency.sol\":36468:36531  secondsInYear = _isLeapYear(uint16(year)) ? 366 days : 365 days */\n      dup4\n        /* \".git/MyContracts/KenyaProcurementTransparency.sol\":36550:36569  secondsAccountedFor */\n      dup6\n        /* \".git/MyContracts/KenyaProcurementTransparency.sol\":36550:36585  secondsAccountedFor + secondsInYear */\n      tag_676\n      jump\t// in\n    tag_675:\n        /* \".git/MyContracts/KenyaProcurementTransparency.sol\":36550:36597  secondsAccountedFor + secondsInYear > timestamp */\n      gt\n        /* \".git/MyContracts/KenyaProcurementTransparency.sol\":36618:36623  break */\n      tag_670\n        /* \".git/MyContracts/KenyaProcurementTransparency.sol\":36546:36639  if (secondsAccountedFor + secondsInYear > timestamp) {... */\n      jumpi\n        /* \".git/MyContracts/KenyaProcurementTransparency.sol\":36653:36689  secondsAccountedFor += secondsInYear */\n      tag_678\n        /* \".git/MyContracts/KenyaProcurementTransparency.sol\":36676:36689  secondsInYear */\n      dup3\n        /* \".git/MyContracts/KenyaProcurementTransparency.sol\":36653:36689  secondsAccountedFor += secondsInYear */\n      dup5\n      tag_676\n      jump\t// in\n    tag_678:\n      swap3\n      pop\n        /* \".git/MyContracts/KenyaProcurementTransparency.sol\":36704:36710  year++ */\n      dup8\n      tag_679\n      dup2\n      tag_680\n      jump\t// in\n    tag_679:\n      swap9\n      pop\n      pop\n        /* \".git/MyContracts/KenyaProcurementTransparency.sol\":36440:36722  while (true) {... */\n      jump(tag_669)\n    tag_670:\n        /* \".git/MyContracts/KenyaProcurementTransparency.sol\":36742:36743  1 */\n      0x01\n        /* \".git/MyContracts/KenyaProcurementTransparency.sol\":36734:36743  month = 1 */\n      swap7\n      pop\n        /* \".git/MyContracts/KenyaProcurementTransparency.sol\":36754:37030  while (true) {... */\n    tag_681:\n        /* \".git/MyContracts/KenyaProcurementTransparency.sol\":36799:36827  _getDaysInMonth(year, month) */\n      tag_683\n        /* \".git/MyContracts/KenyaProcurementTransparency.sol\":36815:36819  year */\n      dup9\n        /* \".git/MyContracts/KenyaProcurementTransparency.sol\":36821:36826  month */\n      dup9\n        /* \".git/MyContracts/KenyaProcurementTransparency.sol\":36799:36814  _getDaysInMonth */\n      tag_684\n        /* \".git/MyContracts/KenyaProcurementTransparency.sol\":36799:36827  _getDaysInMonth(year, month) */\n      jump\t// in\n    tag_683:\n        /* \".git/MyContracts/KenyaProcurementTransparency.sol\":36799:36836  _getDaysInMonth(year, month) * 1 days */\n      tag_685\n      swap1\n        /* \".git/MyContracts/KenyaProcurementTransparency.sol\":36830:36836  1 days */\n      0x015180\n        /* \".git/MyContracts/KenyaProcurementTransparency.sol\":36799:36836  _getDaysInMonth(year, month) * 1 days */\n      tag_686\n      jump\t// in\n    tag_685:\n        /* \".git/MyContracts/KenyaProcurementTransparency.sol\":36782:36836  secondsInMonth = _getDaysInMonth(year, month) * 1 days */\n      swap1\n      pop\n        /* \".git/MyContracts/KenyaProcurementTransparency.sol\":36894:36903  timestamp */\n      dup9\n        /* \".git/MyContracts/KenyaProcurementTransparency.sol\":36855:36891  secondsAccountedFor + secondsInMonth */\n      tag_687\n        /* \".git/MyContracts/KenyaProcurementTransparency.sol\":36782:36836  secondsInMonth = _getDaysInMonth(year, month) * 1 days */\n      dup3\n        /* \".git/MyContracts/KenyaProcurementTransparency.sol\":36855:36874  secondsAccountedFor */\n      dup6\n        /* \".git/MyContracts/KenyaProcurementTransparency.sol\":36855:36891  secondsAccountedFor + secondsInMonth */\n      tag_676\n      jump\t// in\n    tag_687:\n        /* \".git/MyContracts/KenyaProcurementTransparency.sol\":36855:36903  secondsAccountedFor + secondsInMonth > timestamp */\n      gt\n        /* \".git/MyContracts/KenyaProcurementTransparency.sol\":36924:36929  break */\n      tag_682\n        /* \".git/MyContracts/KenyaProcurementTransparency.sol\":36851:36945  if (secondsAccountedFor + secondsInMonth > timestamp) {... */\n      jumpi\n        /* \".git/MyContracts/KenyaProcurementTransparency.sol\":36959:36996  secondsAccountedFor += secondsInMonth */\n      tag_689\n        /* \".git/MyContracts/KenyaProcurementTransparency.sol\":36982:36996  secondsInMonth */\n      dup2\n        /* \".git/MyContracts/KenyaProcurementTransparency.sol\":36959:36996  secondsAccountedFor += secondsInMonth */\n      dup5\n      tag_676\n      jump\t// in\n    tag_689:\n      swap3\n      pop\n        /* \".git/MyContracts/KenyaProcurementTransparency.sol\":37011:37018  month++ */\n      dup7\n      tag_690\n      dup2\n      tag_680\n      jump\t// in\n    tag_690:\n      swap8\n      pop\n      pop\n        /* \".git/MyContracts/KenyaProcurementTransparency.sol\":36754:37030  while (true) {... */\n      jump(tag_681)\n    tag_682:\n        /* \".git/MyContracts/KenyaProcurementTransparency.sol\":37085:37091  1 days */\n      0x015180\n        /* \".git/MyContracts/KenyaProcurementTransparency.sol\":37050:37081  timestamp - secondsAccountedFor */\n      tag_691\n        /* \".git/MyContracts/KenyaProcurementTransparency.sol\":37062:37081  secondsAccountedFor */\n      dup5\n        /* \".git/MyContracts/KenyaProcurementTransparency.sol\":37050:37059  timestamp */\n      dup12\n        /* \".git/MyContracts/KenyaProcurementTransparency.sol\":37050:37081  timestamp - secondsAccountedFor */\n      tag_692\n      jump\t// in\n    tag_691:\n        /* \".git/MyContracts/KenyaProcurementTransparency.sol\":37049:37091  (timestamp - secondsAccountedFor) / 1 days */\n      tag_693\n      swap2\n      swap1\n      tag_694\n      jump\t// in\n    tag_693:\n        /* \".git/MyContracts/KenyaProcurementTransparency.sol\":37048:37096  ((timestamp - secondsAccountedFor) / 1 days) + 1 */\n      tag_695\n      swap1\n        /* \".git/MyContracts/KenyaProcurementTransparency.sol\":37095:37096  1 */\n      0x01\n        /* \".git/MyContracts/KenyaProcurementTransparency.sol\":37048:37096  ((timestamp - secondsAccountedFor) / 1 days) + 1 */\n      tag_676\n      jump\t// in\n    tag_695:\n        /* \".git/MyContracts/KenyaProcurementTransparency.sol\":37042:37096  day = ((timestamp - secondsAccountedFor) / 1 days) + 1 */\n      swap6\n      pop\n        /* \".git/MyContracts/KenyaProcurementTransparency.sol\":37131:37138  day - 1 */\n      tag_696\n        /* \".git/MyContracts/KenyaProcurementTransparency.sol\":37137:37138  1 */\n      0x01\n        /* \".git/MyContracts/KenyaProcurementTransparency.sol\":37042:37096  day = ((timestamp - secondsAccountedFor) / 1 days) + 1 */\n      dup8\n        /* \".git/MyContracts/KenyaProcurementTransparency.sol\":37131:37138  day - 1 */\n      tag_692\n      jump\t// in\n    tag_696:\n        /* \".git/MyContracts/KenyaProcurementTransparency.sol\":37130:37148  (day - 1) * 1 days */\n      tag_697\n      swap1\n        /* \".git/MyContracts/KenyaProcurementTransparency.sol\":37142:37148  1 days */\n      0x015180\n        /* \".git/MyContracts/KenyaProcurementTransparency.sol\":37130:37148  (day - 1) * 1 days */\n      tag_686\n      jump\t// in\n    tag_697:\n        /* \".git/MyContracts/KenyaProcurementTransparency.sol\":37107:37148  secondsAccountedFor += (day - 1) * 1 days */\n      tag_698\n      swap1\n      dup5\n      tag_676\n      jump\t// in\n    tag_698:\n      swap3\n      pop\n        /* \".git/MyContracts/KenyaProcurementTransparency.sol\":37204:37211  1 hours */\n      0x0e10\n        /* \".git/MyContracts/KenyaProcurementTransparency.sol\":37169:37200  timestamp - secondsAccountedFor */\n      tag_699\n        /* \".git/MyContracts/KenyaProcurementTransparency.sol\":37107:37148  secondsAccountedFor += (day - 1) * 1 days */\n      dup5\n        /* \".git/MyContracts/KenyaProcurementTransparency.sol\":37169:37178  timestamp */\n      dup12\n        /* \".git/MyContracts/KenyaProcurementTransparency.sol\":37169:37200  timestamp - secondsAccountedFor */\n      tag_692\n      jump\t// in\n    tag_699:\n        /* \".git/MyContracts/KenyaProcurementTransparency.sol\":37168:37211  (timestamp - secondsAccountedFor) / 1 hours */\n      tag_700\n      swap2\n      swap1\n      tag_694\n      jump\t// in\n    tag_700:\n        /* \".git/MyContracts/KenyaProcurementTransparency.sol\":37161:37211  hour = (timestamp - secondsAccountedFor) / 1 hours */\n      swap5\n      pop\n        /* \".git/MyContracts/KenyaProcurementTransparency.sol\":37245:37259  hour * 1 hours */\n      tag_701\n        /* \".git/MyContracts/KenyaProcurementTransparency.sol\":37161:37211  hour = (timestamp - secondsAccountedFor) / 1 hours */\n      dup6\n        /* \".git/MyContracts/KenyaProcurementTransparency.sol\":37252:37259  1 hours */\n      0x0e10\n        /* \".git/MyContracts/KenyaProcurementTransparency.sol\":37245:37259  hour * 1 hours */\n      tag_686\n      jump\t// in\n    tag_701:\n        /* \".git/MyContracts/KenyaProcurementTransparency.sol\":37222:37259  secondsAccountedFor += hour * 1 hours */\n      tag_702\n      swap1\n      dup5\n      tag_676\n      jump\t// in\n    tag_702:\n      swap3\n      pop\n        /* \".git/MyContracts/KenyaProcurementTransparency.sol\":37317:37326  1 minutes */\n      0x3c\n        /* \".git/MyContracts/KenyaProcurementTransparency.sol\":37282:37313  timestamp - secondsAccountedFor */\n      tag_703\n        /* \".git/MyContracts/KenyaProcurementTransparency.sol\":37222:37259  secondsAccountedFor += hour * 1 hours */\n      dup5\n        /* \".git/MyContracts/KenyaProcurementTransparency.sol\":37282:37291  timestamp */\n      dup12\n        /* \".git/MyContracts/KenyaProcurementTransparency.sol\":37282:37313  timestamp - secondsAccountedFor */\n      tag_692\n      jump\t// in\n    tag_703:\n        /* \".git/MyContracts/KenyaProcurementTransparency.sol\":37281:37326  (timestamp - secondsAccountedFor) / 1 minutes */\n      tag_704\n      swap2\n      swap1\n      tag_694\n      jump\t// in\n    tag_704:\n        /* \".git/MyContracts/KenyaProcurementTransparency.sol\":37272:37326  minute = (timestamp - secondsAccountedFor) / 1 minutes */\n      swap4\n      pop\n        /* \".git/MyContracts/KenyaProcurementTransparency.sol\":36298:37334  {... */\n      pop\n      pop\n      pop\n        /* \".git/MyContracts/KenyaProcurementTransparency.sol\":36046:37334  function _timestampToDateTime(uint256 timestamp)... */\n      swap2\n      swap4\n      swap6\n      swap1\n      swap3\n      swap5\n      pop\n      jump\t// out\n        /* \".git/MyContracts/KenyaProcurementTransparency.sol\":34767:35724  function _toTimestampWithOffset(... */\n    tag_472:\n        /* \".git/MyContracts/KenyaProcurementTransparency.sol\":34978:34995  uint256 timestamp */\n      0x00\n        /* \".git/MyContracts/KenyaProcurementTransparency.sol\":35019:35023  1970 */\n      0x07b2\n        /* \".git/MyContracts/KenyaProcurementTransparency.sol\":35012:35016  year */\n      dup8\n        /* \".git/MyContracts/KenyaProcurementTransparency.sol\":35012:35023  year < 1970 */\n      lt\n        /* \".git/MyContracts/KenyaProcurementTransparency.sol\":35012:35038  year < 1970 || year > 2100 */\n      dup1\n      tag_706\n      jumpi\n      pop\n        /* \".git/MyContracts/KenyaProcurementTransparency.sol\":35034:35038  2100 */\n      0x0834\n        /* \".git/MyContracts/KenyaProcurementTransparency.sol\":35027:35031  year */\n      dup8\n        /* \".git/MyContracts/KenyaProcurementTransparency.sol\":35027:35038  year > 2100 */\n      gt\n        /* \".git/MyContracts/KenyaProcurementTransparency.sol\":35012:35038  year < 1970 || year > 2100 */\n    tag_706:\n        /* \".git/MyContracts/KenyaProcurementTransparency.sol\":35008:35060  if (year < 1970 || year > 2100) revert InvalidYear() */\n      iszero\n      tag_707\n      jumpi\n        /* \".git/MyContracts/KenyaProcurementTransparency.sol\":35047:35060  InvalidYear() */\n      mload(0x40)\n      shl(0xe0, 0x87870bd7)\n      dup2\n      mstore\n      0x04\n      add\n      mload(0x40)\n      dup1\n      swap2\n      sub\n      swap1\n      revert\n        /* \".git/MyContracts/KenyaProcurementTransparency.sol\":35008:35060  if (year < 1970 || year > 2100) revert InvalidYear() */\n    tag_707:\n        /* \".git/MyContracts/KenyaProcurementTransparency.sol\":35083:35084  1 */\n      0x01\n        /* \".git/MyContracts/KenyaProcurementTransparency.sol\":35075:35080  month */\n      dup7\n        /* \".git/MyContracts/KenyaProcurementTransparency.sol\":35075:35084  month < 1 */\n      lt\n        /* \".git/MyContracts/KenyaProcurementTransparency.sol\":35075:35098  month < 1 || month > 12 */\n      dup1\n      tag_708\n      jumpi\n      pop\n        /* \".git/MyContracts/KenyaProcurementTransparency.sol\":35096:35098  12 */\n      0x0c\n        /* \".git/MyContracts/KenyaProcurementTransparency.sol\":35088:35093  month */\n      dup7\n        /* \".git/MyContracts/KenyaProcurementTransparency.sol\":35088:35098  month > 12 */\n      gt\n        /* \".git/MyContracts/KenyaProcurementTransparency.sol\":35075:35098  month < 1 || month > 12 */\n    tag_708:\n        /* \".git/MyContracts/KenyaProcurementTransparency.sol\":35071:35121  if (month < 1 || month > 12) revert InvalidMonth() */\n      iszero\n      tag_709\n      jumpi\n        /* \".git/MyContracts/KenyaProcurementTransparency.sol\":35107:35121  InvalidMonth() */\n      mload(0x40)\n      shl(0xe1, 0x735a134b)\n      dup2\n      mstore\n      0x04\n      add\n      mload(0x40)\n      dup1\n      swap2\n      sub\n      swap1\n      revert\n        /* \".git/MyContracts/KenyaProcurementTransparency.sol\":35071:35121  if (month < 1 || month > 12) revert InvalidMonth() */\n    tag_709:\n        /* \".git/MyContracts/KenyaProcurementTransparency.sol\":35144:35146  24 */\n      0x18\n        /* \".git/MyContracts/KenyaProcurementTransparency.sol\":35136:35140  hour */\n      dup5\n        /* \".git/MyContracts/KenyaProcurementTransparency.sol\":35136:35146  hour >= 24 */\n      lt\n        /* \".git/MyContracts/KenyaProcurementTransparency.sol\":35132:35168  if (hour >= 24) revert InvalidHour() */\n      tag_710\n      jumpi\n        /* \".git/MyContracts/KenyaProcurementTransparency.sol\":35155:35168  InvalidHour() */\n      mload(0x40)\n      shl(0xe0, 0x41a4a6b3)\n      dup2\n      mstore\n      0x04\n      add\n      mload(0x40)\n      dup1\n      swap2\n      sub\n      swap1\n      revert\n        /* \".git/MyContracts/KenyaProcurementTransparency.sol\":35132:35168  if (hour >= 24) revert InvalidHour() */\n    tag_710:\n        /* \".git/MyContracts/KenyaProcurementTransparency.sol\":35193:35195  60 */\n      0x3c\n        /* \".git/MyContracts/KenyaProcurementTransparency.sol\":35183:35189  minute */\n      dup4\n        /* \".git/MyContracts/KenyaProcurementTransparency.sol\":35183:35195  minute >= 60 */\n      lt\n        /* \".git/MyContracts/KenyaProcurementTransparency.sol\":35179:35219  if (minute >= 60) revert InvalidMinute() */\n      tag_711\n      jumpi\n        /* \".git/MyContracts/KenyaProcurementTransparency.sol\":35204:35219  InvalidMinute() */\n      mload(0x40)\n      shl(0xe2, 0x2ce35c9b)\n      dup2\n      mstore\n      0x04\n      add\n      mload(0x40)\n      dup1\n      swap2\n      sub\n      swap1\n      revert\n        /* \".git/MyContracts/KenyaProcurementTransparency.sol\":35179:35219  if (minute >= 60) revert InvalidMinute() */\n    tag_711:\n      not(0x0b)\n        /* \".git/MyContracts/KenyaProcurementTransparency.sol\":35234:35248  utcOffsetHours */\n      dup3\n        /* \".git/MyContracts/KenyaProcurementTransparency.sol\":35234:35254  utcOffsetHours < -12 */\n      slt\n        /* \".git/MyContracts/KenyaProcurementTransparency.sol\":35234:35277  utcOffsetHours < -12 || utcOffsetHours > 14 */\n      dup1\n      tag_712\n      jumpi\n      pop\n        /* \".git/MyContracts/KenyaProcurementTransparency.sol\":35275:35277  14 */\n      0x0e\n        /* \".git/MyContracts/KenyaProcurementTransparency.sol\":35258:35272  utcOffsetHours */\n      dup3\n        /* \".git/MyContracts/KenyaProcurementTransparency.sol\":35258:35277  utcOffsetHours > 14 */\n      sgt\n        /* \".git/MyContracts/KenyaProcurementTransparency.sol\":35234:35277  utcOffsetHours < -12 || utcOffsetHours > 14 */\n    tag_712:\n        /* \".git/MyContracts/KenyaProcurementTransparency.sol\":35230:35304  if (utcOffsetHours < -12 || utcOffsetHours > 14) revert InvalidUtcOffset() */\n      iszero\n      tag_713\n      jumpi\n        /* \".git/MyContracts/KenyaProcurementTransparency.sol\":35286:35304  InvalidUtcOffset() */\n      mload(0x40)\n      shl(0xe1, 0x01d2b089)\n      dup2\n      mstore\n      0x04\n      add\n      mload(0x40)\n      dup1\n      swap2\n      sub\n      swap1\n      revert\n        /* \".git/MyContracts/KenyaProcurementTransparency.sol\":35230:35304  if (utcOffsetHours < -12 || utcOffsetHours > 14) revert InvalidUtcOffset() */\n    tag_713:\n        /* \".git/MyContracts/KenyaProcurementTransparency.sol\":35317:35336  uint256 daysInMonth */\n      0x00\n        /* \".git/MyContracts/KenyaProcurementTransparency.sol\":35339:35367  _getDaysInMonth(year, month) */\n      tag_714\n        /* \".git/MyContracts/KenyaProcurementTransparency.sol\":35355:35359  year */\n      dup9\n        /* \".git/MyContracts/KenyaProcurementTransparency.sol\":35361:35366  month */\n      dup9\n        /* \".git/MyContracts/KenyaProcurementTransparency.sol\":35339:35354  _getDaysInMonth */\n      tag_684\n        /* \".git/MyContracts/KenyaProcurementTransparency.sol\":35339:35367  _getDaysInMonth(year, month) */\n      jump\t// in\n    tag_714:\n        /* \".git/MyContracts/KenyaProcurementTransparency.sol\":35317:35367  uint256 daysInMonth = _getDaysInMonth(year, month) */\n      swap1\n      pop\n        /* \".git/MyContracts/KenyaProcurementTransparency.sol\":35388:35389  1 */\n      0x01\n        /* \".git/MyContracts/KenyaProcurementTransparency.sol\":35382:35385  day */\n      dup7\n        /* \".git/MyContracts/KenyaProcurementTransparency.sol\":35382:35389  day < 1 */\n      lt\n        /* \".git/MyContracts/KenyaProcurementTransparency.sol\":35382:35410  day < 1 || day > daysInMonth */\n      dup1\n      tag_715\n      jumpi\n      pop\n        /* \".git/MyContracts/KenyaProcurementTransparency.sol\":35399:35410  daysInMonth */\n      dup1\n        /* \".git/MyContracts/KenyaProcurementTransparency.sol\":35393:35396  day */\n      dup7\n        /* \".git/MyContracts/KenyaProcurementTransparency.sol\":35393:35410  day > daysInMonth */\n      gt\n        /* \".git/MyContracts/KenyaProcurementTransparency.sol\":35382:35410  day < 1 || day > daysInMonth */\n    tag_715:\n        /* \".git/MyContracts/KenyaProcurementTransparency.sol\":35378:35431  if (day < 1 || day > daysInMonth) revert InvalidDay() */\n      iszero\n      tag_716\n      jumpi\n        /* \".git/MyContracts/KenyaProcurementTransparency.sol\":35419:35431  InvalidDay() */\n      mload(0x40)\n      shl(0xe2, 0x0b046f89)\n      dup2\n      mstore\n      0x04\n      add\n      mload(0x40)\n      dup1\n      swap2\n      sub\n      swap1\n      revert\n        /* \".git/MyContracts/KenyaProcurementTransparency.sol\":35378:35431  if (day < 1 || day > daysInMonth) revert InvalidDay() */\n    tag_716:\n        /* \".git/MyContracts/KenyaProcurementTransparency.sol\":35456:35503  _toTimestamp(year, month, day, hour, minute, 0) */\n      tag_717\n        /* \".git/MyContracts/KenyaProcurementTransparency.sol\":35469:35473  year */\n      dup9\n        /* \".git/MyContracts/KenyaProcurementTransparency.sol\":35475:35480  month */\n      dup9\n        /* \".git/MyContracts/KenyaProcurementTransparency.sol\":35482:35485  day */\n      dup9\n        /* \".git/MyContracts/KenyaProcurementTransparency.sol\":35487:35491  hour */\n      dup9\n        /* \".git/MyContracts/KenyaProcurementTransparency.sol\":35493:35499  minute */\n      dup9\n        /* \".git/MyContracts/KenyaProcurementTransparency.sol\":35501:35502  0 */\n      0x00\n        /* \".git/MyContracts/KenyaProcurementTransparency.sol\":35456:35468  _toTimestamp */\n      tag_718\n        /* \".git/MyContracts/KenyaProcurementTransparency.sol\":35456:35503  _toTimestamp(year, month, day, hour, minute, 0) */\n      jump\t// in\n    tag_717:\n        /* \".git/MyContracts/KenyaProcurementTransparency.sol\":35444:35503  timestamp = _toTimestamp(year, month, day, hour, minute, 0) */\n      swap2\n      pop\n        /* \".git/MyContracts/KenyaProcurementTransparency.sol\":35537:35538  0 */\n      0x00\n        /* \".git/MyContracts/KenyaProcurementTransparency.sol\":35520:35534  utcOffsetHours */\n      dup4\n        /* \".git/MyContracts/KenyaProcurementTransparency.sol\":35520:35538  utcOffsetHours > 0 */\n      sgt\n        /* \".git/MyContracts/KenyaProcurementTransparency.sol\":35516:35717  if (utcOffsetHours > 0) {... */\n      iszero\n      tag_719\n      jumpi\n        /* \".git/MyContracts/KenyaProcurementTransparency.sol\":35568:35601  uint256(utcOffsetHours) * 1 hours */\n      tag_720\n        /* \".git/MyContracts/KenyaProcurementTransparency.sol\":35576:35590  utcOffsetHours */\n      dup4\n        /* \".git/MyContracts/KenyaProcurementTransparency.sol\":35594:35601  1 hours */\n      0x0e10\n        /* \".git/MyContracts/KenyaProcurementTransparency.sol\":35568:35601  uint256(utcOffsetHours) * 1 hours */\n      tag_686\n      jump\t// in\n    tag_720:\n        /* \".git/MyContracts/KenyaProcurementTransparency.sol\":35555:35601  timestamp -= uint256(utcOffsetHours) * 1 hours */\n      tag_721\n      swap1\n      dup4\n      tag_692\n      jump\t// in\n    tag_721:\n      swap2\n      pop\n        /* \".git/MyContracts/KenyaProcurementTransparency.sol\":35516:35717  if (utcOffsetHours > 0) {... */\n      jump(tag_723)\n    tag_719:\n        /* \".git/MyContracts/KenyaProcurementTransparency.sol\":35640:35641  0 */\n      0x00\n        /* \".git/MyContracts/KenyaProcurementTransparency.sol\":35623:35637  utcOffsetHours */\n      dup4\n        /* \".git/MyContracts/KenyaProcurementTransparency.sol\":35623:35641  utcOffsetHours < 0 */\n      slt\n        /* \".git/MyContracts/KenyaProcurementTransparency.sol\":35619:35717  if (utcOffsetHours < 0) {... */\n      iszero\n      tag_723\n      jumpi\n        /* \".git/MyContracts/KenyaProcurementTransparency.sol\":35679:35694  -utcOffsetHours */\n      tag_724\n        /* \".git/MyContracts/KenyaProcurementTransparency.sol\":35680:35694  utcOffsetHours */\n      dup4\n        /* \".git/MyContracts/KenyaProcurementTransparency.sol\":35679:35694  -utcOffsetHours */\n      tag_725\n      jump\t// in\n    tag_724:\n        /* \".git/MyContracts/KenyaProcurementTransparency.sol\":35671:35705  uint256(-utcOffsetHours) * 1 hours */\n      tag_726\n      swap1\n        /* \".git/MyContracts/KenyaProcurementTransparency.sol\":35698:35705  1 hours */\n      0x0e10\n        /* \".git/MyContracts/KenyaProcurementTransparency.sol\":35671:35705  uint256(-utcOffsetHours) * 1 hours */\n      tag_686\n      jump\t// in\n    tag_726:\n        /* \".git/MyContracts/KenyaProcurementTransparency.sol\":35658:35705  timestamp += uint256(-utcOffsetHours) * 1 hours */\n      tag_727\n      swap1\n      dup4\n      tag_676\n      jump\t// in\n    tag_727:\n      swap2\n      pop\n        /* \".git/MyContracts/KenyaProcurementTransparency.sol\":35619:35717  if (utcOffsetHours < 0) {... */\n    tag_723:\n        /* \".git/MyContracts/KenyaProcurementTransparency.sol\":34997:35724  {... */\n      pop\n        /* \".git/MyContracts/KenyaProcurementTransparency.sol\":34767:35724  function _toTimestampWithOffset(... */\n      swap7\n      swap6\n      pop\n      pop\n      pop\n      pop\n      pop\n      pop\n      jump\t// out\n        /* \".git/MyContracts/KenyaProcurementTransparency.sol\":40394:40616  function _isLeapYear(uint16 year) internal pure returns (bool) {... */\n    tag_672:\n        /* \".git/MyContracts/KenyaProcurementTransparency.sol\":40451:40455  bool */\n      0x00\n        /* \".git/MyContracts/KenyaProcurementTransparency.sol\":40472:40480  year % 4 */\n      tag_729\n        /* \".git/MyContracts/KenyaProcurementTransparency.sol\":40479:40480  4 */\n      0x04\n        /* \".git/MyContracts/KenyaProcurementTransparency.sol\":40472:40476  year */\n      dup4\n        /* \".git/MyContracts/KenyaProcurementTransparency.sol\":40472:40480  year % 4 */\n      tag_730\n      jump\t// in\n    tag_729:\n        /* \".git/MyContracts/KenyaProcurementTransparency.sol\":40472:40485  year % 4 != 0 */\n      0xffff\n      and\n      iszero\n        /* \".git/MyContracts/KenyaProcurementTransparency.sol\":40468:40499  if (year % 4 != 0) return false */\n      tag_731\n      jumpi\n      pop\n        /* \".git/MyContracts/KenyaProcurementTransparency.sol\":40494:40499  false */\n      0x00\n      swap2\n        /* \".git/MyContracts/KenyaProcurementTransparency.sol\":40394:40616  function _isLeapYear(uint16 year) internal pure returns (bool) {... */\n      swap1\n      pop\n      jump\t// out\n        /* \".git/MyContracts/KenyaProcurementTransparency.sol\":40468:40499  if (year % 4 != 0) return false */\n    tag_731:\n        /* \".git/MyContracts/KenyaProcurementTransparency.sol\":40514:40524  year % 100 */\n      tag_732\n        /* \".git/MyContracts/KenyaProcurementTransparency.sol\":40521:40524  100 */\n      0x64\n        /* \".git/MyContracts/KenyaProcurementTransparency.sol\":40514:40518  year */\n      dup4\n        /* \".git/MyContracts/KenyaProcurementTransparency.sol\":40514:40524  year % 100 */\n      tag_730\n      jump\t// in\n    tag_732:\n        /* \".git/MyContracts/KenyaProcurementTransparency.sol\":40514:40529  year % 100 != 0 */\n      0xffff\n      and\n      iszero\n        /* \".git/MyContracts/KenyaProcurementTransparency.sol\":40510:40542  if (year % 100 != 0) return true */\n      tag_733\n      jumpi\n      pop\n        /* \".git/MyContracts/KenyaProcurementTransparency.sol\":40538:40542  true */\n      0x01\n      swap2\n        /* \".git/MyContracts/KenyaProcurementTransparency.sol\":40394:40616  function _isLeapYear(uint16 year) internal pure returns (bool) {... */\n      swap1\n      pop\n      jump\t// out\n        /* \".git/MyContracts/KenyaProcurementTransparency.sol\":40510:40542  if (year % 100 != 0) return true */\n    tag_733:\n        /* \".git/MyContracts/KenyaProcurementTransparency.sol\":40557:40567  year % 400 */\n      tag_734\n        /* \".git/MyContracts/KenyaProcurementTransparency.sol\":40564:40567  400 */\n      0x0190\n        /* \".git/MyContracts/KenyaProcurementTransparency.sol\":40557:40561  year */\n      dup4\n        /* \".git/MyContracts/KenyaProcurementTransparency.sol\":40557:40567  year % 400 */\n      tag_730\n      jump\t// in\n    tag_734:\n        /* \".git/MyContracts/KenyaProcurementTransparency.sol\":40557:40572  year % 400 != 0 */\n      0xffff\n      and\n      iszero\n        /* \".git/MyContracts/KenyaProcurementTransparency.sol\":40553:40586  if (year % 400 != 0) return false */\n      tag_735\n      jumpi\n      pop\n        /* \".git/MyContracts/KenyaProcurementTransparency.sol\":40581:40586  false */\n      0x00\n      swap2\n        /* \".git/MyContracts/KenyaProcurementTransparency.sol\":40394:40616  function _isLeapYear(uint16 year) internal pure returns (bool) {... */\n      swap1\n      pop\n      jump\t// out\n        /* \".git/MyContracts/KenyaProcurementTransparency.sol\":40553:40586  if (year % 400 != 0) return false */\n    tag_735:\n      pop\n        /* \".git/MyContracts/KenyaProcurementTransparency.sol\":40604:40608  true */\n      0x01\n      swap2\n        /* \".git/MyContracts/KenyaProcurementTransparency.sol\":40394:40616  function _isLeapYear(uint16 year) internal pure returns (bool) {... */\n      swap1\n      pop\n      jump\t// out\n        /* \".git/MyContracts/KenyaProcurementTransparency.sol\":39882:40238  function _getDaysInMonth(uint256 year, uint256 month) internal pure returns (uint256) {... */\n    tag_684:\n        /* \".git/MyContracts/KenyaProcurementTransparency.sol\":39959:39966  uint256 */\n      0x00\n        /* \".git/MyContracts/KenyaProcurementTransparency.sol\":39983:39988  month */\n      dup2\n        /* \".git/MyContracts/KenyaProcurementTransparency.sol\":39992:39993  2 */\n      0x02\n        /* \".git/MyContracts/KenyaProcurementTransparency.sol\":39983:39993  month == 2 */\n      sub\n        /* \".git/MyContracts/KenyaProcurementTransparency.sol\":39979:40231  if (month == 2) {... */\n      tag_737\n      jumpi\n        /* \".git/MyContracts/KenyaProcurementTransparency.sol\":40017:40042  _isLeapYear(uint16(year)) */\n      tag_738\n        /* \".git/MyContracts/KenyaProcurementTransparency.sol\":40036:40040  year */\n      dup4\n        /* \".git/MyContracts/KenyaProcurementTransparency.sol\":40017:40028  _isLeapYear */\n      tag_672\n        /* \".git/MyContracts/KenyaProcurementTransparency.sol\":40017:40042  _isLeapYear(uint16(year)) */\n      jump\t// in\n    tag_738:\n        /* \".git/MyContracts/KenyaProcurementTransparency.sol\":40017:40052  _isLeapYear(uint16(year)) ? 29 : 28 */\n      tag_739\n      jumpi\n        /* \".git/MyContracts/KenyaProcurementTransparency.sol\":40050:40052  28 */\n      0x1c\n        /* \".git/MyContracts/KenyaProcurementTransparency.sol\":40017:40052  _isLeapYear(uint16(year)) ? 29 : 28 */\n      jump(tag_740)\n    tag_739:\n        /* \".git/MyContracts/KenyaProcurementTransparency.sol\":40045:40047  29 */\n      0x1d\n        /* \".git/MyContracts/KenyaProcurementTransparency.sol\":40017:40052  _isLeapYear(uint16(year)) ? 29 : 28 */\n    tag_740:\n        /* \".git/MyContracts/KenyaProcurementTransparency.sol\":40010:40052  return _isLeapYear(uint16(year)) ? 29 : 28 */\n      0xff\n      and\n      swap1\n      pop\n      jump(tag_625)\n        /* \".git/MyContracts/KenyaProcurementTransparency.sol\":39979:40231  if (month == 2) {... */\n    tag_737:\n        /* \".git/MyContracts/KenyaProcurementTransparency.sol\":40088:40093  month */\n      dup2\n        /* \".git/MyContracts/KenyaProcurementTransparency.sol\":40097:40098  4 */\n      0x04\n        /* \".git/MyContracts/KenyaProcurementTransparency.sol\":40088:40098  month == 4 */\n      eq\n        /* \".git/MyContracts/KenyaProcurementTransparency.sol\":40088:40112  month == 4 || month == 6 */\n      dup1\n      tag_742\n      jumpi\n      pop\n        /* \".git/MyContracts/KenyaProcurementTransparency.sol\":40102:40107  month */\n      dup2\n        /* \".git/MyContracts/KenyaProcurementTransparency.sol\":40111:40112  6 */\n      0x06\n        /* \".git/MyContracts/KenyaProcurementTransparency.sol\":40102:40112  month == 6 */\n      eq\n        /* \".git/MyContracts/KenyaProcurementTransparency.sol\":40088:40112  month == 4 || month == 6 */\n    tag_742:\n        /* \".git/MyContracts/KenyaProcurementTransparency.sol\":40088:40126  month == 4 || month == 6 || month == 9 */\n      dup1\n      tag_743\n      jumpi\n      pop\n        /* \".git/MyContracts/KenyaProcurementTransparency.sol\":40116:40121  month */\n      dup2\n        /* \".git/MyContracts/KenyaProcurementTransparency.sol\":40125:40126  9 */\n      0x09\n        /* \".git/MyContracts/KenyaProcurementTransparency.sol\":40116:40126  month == 9 */\n      eq\n        /* \".git/MyContracts/KenyaProcurementTransparency.sol\":40088:40126  month == 4 || month == 6 || month == 9 */\n    tag_743:\n        /* \".git/MyContracts/KenyaProcurementTransparency.sol\":40088:40141  month == 4 || month == 6 || month == 9 || month == 11 */\n      dup1\n      tag_744\n      jumpi\n      pop\n        /* \".git/MyContracts/KenyaProcurementTransparency.sol\":40130:40135  month */\n      dup2\n        /* \".git/MyContracts/KenyaProcurementTransparency.sol\":40139:40141  11 */\n      0x0b\n        /* \".git/MyContracts/KenyaProcurementTransparency.sol\":40130:40141  month == 11 */\n      eq\n        /* \".git/MyContracts/KenyaProcurementTransparency.sol\":40088:40141  month == 4 || month == 6 || month == 9 || month == 11 */\n    tag_744:\n        /* \".git/MyContracts/KenyaProcurementTransparency.sol\":40070:40231  if (... */\n      iszero\n      tag_745\n      jumpi\n      pop\n        /* \".git/MyContracts/KenyaProcurementTransparency.sol\":40175:40177  30 */\n      0x1e\n        /* \".git/MyContracts/KenyaProcurementTransparency.sol\":40168:40177  return 30 */\n      jump(tag_625)\n        /* \".git/MyContracts/KenyaProcurementTransparency.sol\":40070:40231  if (... */\n    tag_745:\n      pop\n        /* \".git/MyContracts/KenyaProcurementTransparency.sol\":40217:40219  31 */\n      0x1f\n        /* \".git/MyContracts/KenyaProcurementTransparency.sol\":40210:40219  return 31 */\n      jump(tag_625)\n        /* \".git/MyContracts/KenyaProcurementTransparency.sol\":37680:38737  function _toTimestamp(... */\n    tag_718:\n        /* \".git/MyContracts/KenyaProcurementTransparency.sol\":37874:37891  uint256 timestamp */\n      0x00\n        /* \".git/MyContracts/KenyaProcurementTransparency.sol\":37934:37938  1970 */\n      0x07b2\n        /* \".git/MyContracts/KenyaProcurementTransparency.sol\":37925:38180  for (i = 1970; i < year; ) {... */\n    tag_748:\n        /* \".git/MyContracts/KenyaProcurementTransparency.sol\":37944:37948  year */\n      dup8\n        /* \".git/MyContracts/KenyaProcurementTransparency.sol\":37940:37941  i */\n      dup2\n        /* \".git/MyContracts/KenyaProcurementTransparency.sol\":37940:37948  i < year */\n      0xffff\n      and\n      lt\n        /* \".git/MyContracts/KenyaProcurementTransparency.sol\":37925:38180  for (i = 1970; i < year; ) {... */\n      iszero\n      tag_749\n      jumpi\n        /* \".git/MyContracts/KenyaProcurementTransparency.sol\":37971:37985  _isLeapYear(i) */\n      tag_751\n        /* \".git/MyContracts/KenyaProcurementTransparency.sol\":37983:37984  i */\n      dup2\n        /* \".git/MyContracts/KenyaProcurementTransparency.sol\":37971:37982  _isLeapYear */\n      tag_672\n        /* \".git/MyContracts/KenyaProcurementTransparency.sol\":37971:37985  _isLeapYear(i) */\n      jump\t// in\n    tag_751:\n        /* \".git/MyContracts/KenyaProcurementTransparency.sol\":37967:38105  if (_isLeapYear(i)) {... */\n      iszero\n      tag_752\n      jumpi\n        /* \".git/MyContracts/KenyaProcurementTransparency.sol\":38006:38027  timestamp += 366 days */\n      tag_753\n        /* \".git/MyContracts/KenyaProcurementTransparency.sol\":38019:38027  366 days */\n      0x01e28500\n        /* \".git/MyContracts/KenyaProcurementTransparency.sol\":38006:38027  timestamp += 366 days */\n      dup4\n      tag_676\n      jump\t// in\n    tag_753:\n      swap2\n      pop\n        /* \".git/MyContracts/KenyaProcurementTransparency.sol\":37967:38105  if (_isLeapYear(i)) {... */\n      jump(tag_754)\n    tag_752:\n        /* \".git/MyContracts/KenyaProcurementTransparency.sol\":38068:38089  timestamp += 365 days */\n      tag_755\n        /* \".git/MyContracts/KenyaProcurementTransparency.sol\":38081:38089  365 days */\n      0x01e13380\n        /* \".git/MyContracts/KenyaProcurementTransparency.sol\":38068:38089  timestamp += 365 days */\n      dup4\n      tag_676\n      jump\t// in\n    tag_755:\n      swap2\n      pop\n        /* \".git/MyContracts/KenyaProcurementTransparency.sol\":37967:38105  if (_isLeapYear(i)) {... */\n    tag_754:\n        /* \".git/MyContracts/KenyaProcurementTransparency.sol\":38150:38153  ++i */\n      0x01\n      add\n        /* \".git/MyContracts/KenyaProcurementTransparency.sol\":37925:38180  for (i = 1970; i < year; ) {... */\n      jump(tag_748)\n    tag_749:\n        /* \".git/MyContracts/KenyaProcurementTransparency.sol\":38192:38313  uint8[12] memory monthDays = [... */\n      0x40\n      dup1\n      mload\n      0x0180\n      dup2\n      add\n      dup3\n      mstore\n        /* \".git/MyContracts/KenyaProcurementTransparency.sol\":38242:38244  31 */\n      0x1f\n        /* \".git/MyContracts/KenyaProcurementTransparency.sol\":38192:38313  uint8[12] memory monthDays = [... */\n      dup1\n      dup3\n      mstore\n        /* \".git/MyContracts/KenyaProcurementTransparency.sol\":38247:38249  28 */\n      0x1c\n        /* \".git/MyContracts/KenyaProcurementTransparency.sol\":38192:38313  uint8[12] memory monthDays = [... */\n      0x20\n      dup4\n      add\n      mstore\n      swap2\n      dup2\n      add\n      dup3\n      swap1\n      mstore\n        /* \".git/MyContracts/KenyaProcurementTransparency.sol\":38255:38257  30 */\n      0x1e\n        /* \".git/MyContracts/KenyaProcurementTransparency.sol\":38192:38313  uint8[12] memory monthDays = [... */\n      0x60\n      dup3\n      add\n      dup2\n      swap1\n      mstore\n      0x80\n      dup3\n      add\n      dup4\n      swap1\n      mstore\n      0xa0\n      dup3\n      add\n      dup2\n      swap1\n      mstore\n      0xc0\n      dup3\n      add\n      dup4\n      swap1\n      mstore\n      0xe0\n      dup3\n      add\n      dup4\n      swap1\n      mstore\n      0x0100\n      dup3\n      add\n      dup2\n      swap1\n      mstore\n      0x0120\n      dup3\n      add\n      dup4\n      swap1\n      mstore\n      0x0140\n      dup3\n      add\n      mstore\n      0x0160\n      dup2\n      add\n      swap2\n      swap1\n      swap2\n      mstore\n        /* \".git/MyContracts/KenyaProcurementTransparency.sol\":38330:38355  _isLeapYear(uint16(year)) */\n      tag_756\n        /* \".git/MyContracts/KenyaProcurementTransparency.sol\":38349:38353  year */\n      dup10\n        /* \".git/MyContracts/KenyaProcurementTransparency.sol\":38330:38341  _isLeapYear */\n      tag_672\n        /* \".git/MyContracts/KenyaProcurementTransparency.sol\":38330:38355  _isLeapYear(uint16(year)) */\n      jump\t// in\n    tag_756:\n        /* \".git/MyContracts/KenyaProcurementTransparency.sol\":38326:38401  if (_isLeapYear(uint16(year))) {... */\n      iszero\n      tag_757\n      jumpi\n        /* \".git/MyContracts/KenyaProcurementTransparency.sol\":38387:38389  29 */\n      0x1d\n        /* \".git/MyContracts/KenyaProcurementTransparency.sol\":38372:38384  monthDays[1] */\n      0x20\n      dup3\n      add\n        /* \".git/MyContracts/KenyaProcurementTransparency.sol\":38372:38389  monthDays[1] = 29 */\n      mstore\n        /* \".git/MyContracts/KenyaProcurementTransparency.sol\":38326:38401  if (_isLeapYear(uint16(year))) {... */\n    tag_757:\n        /* \".git/MyContracts/KenyaProcurementTransparency.sol\":38422:38423  1 */\n      0x01\n        /* \".git/MyContracts/KenyaProcurementTransparency.sol\":38418:38423  i = 1 */\n      swap2\n      pop\n        /* \".git/MyContracts/KenyaProcurementTransparency.sol\":38413:38576  for (i = 1; i < month; ) {... */\n    tag_760:\n        /* \".git/MyContracts/KenyaProcurementTransparency.sol\":38429:38434  month */\n      dup8\n        /* \".git/MyContracts/KenyaProcurementTransparency.sol\":38425:38426  i */\n      dup3\n        /* \".git/MyContracts/KenyaProcurementTransparency.sol\":38425:38434  i < month */\n      0xffff\n      and\n      lt\n        /* \".git/MyContracts/KenyaProcurementTransparency.sol\":38413:38576  for (i = 1; i < month; ) {... */\n      iszero\n      tag_761\n      jumpi\n        /* \".git/MyContracts/KenyaProcurementTransparency.sol\":38474:38483  monthDays */\n      dup1\n        /* \".git/MyContracts/KenyaProcurementTransparency.sol\":38484:38489  i - 1 */\n      tag_763\n        /* \".git/MyContracts/KenyaProcurementTransparency.sol\":38488:38489  1 */\n      0x01\n        /* \".git/MyContracts/KenyaProcurementTransparency.sol\":38484:38485  i */\n      dup5\n        /* \".git/MyContracts/KenyaProcurementTransparency.sol\":38484:38489  i - 1 */\n      tag_764\n      jump\t// in\n    tag_763:\n        /* \".git/MyContracts/KenyaProcurementTransparency.sol\":38474:38490  monthDays[i - 1] */\n      0xffff\n      and\n      0x0c\n      dup2\n      lt\n      tag_766\n      jumpi\n      tag_766\n      tag_407\n      jump\t// in\n    tag_766:\n      0x20\n      mul\n      add\n      mload\n        /* \".git/MyContracts/KenyaProcurementTransparency.sol\":38466:38500  uint256(monthDays[i - 1]) * 1 days */\n      tag_767\n      swap1\n        /* \".git/MyContracts/KenyaProcurementTransparency.sol\":38466:38491  uint256(monthDays[i - 1]) */\n      0xff\n      and\n        /* \".git/MyContracts/KenyaProcurementTransparency.sol\":38494:38500  1 days */\n      0x015180\n        /* \".git/MyContracts/KenyaProcurementTransparency.sol\":38466:38500  uint256(monthDays[i - 1]) * 1 days */\n      tag_686\n      jump\t// in\n    tag_767:\n        /* \".git/MyContracts/KenyaProcurementTransparency.sol\":38453:38500  timestamp += uint256(monthDays[i - 1]) * 1 days */\n      tag_768\n      swap1\n      dup5\n      tag_676\n      jump\t// in\n    tag_768:\n      swap3\n      pop\n        /* \".git/MyContracts/KenyaProcurementTransparency.sol\":38546:38549  ++i */\n      dup2\n      0x01\n      add\n      swap2\n      pop\n        /* \".git/MyContracts/KenyaProcurementTransparency.sol\":38413:38576  for (i = 1; i < month; ) {... */\n      jump(tag_760)\n    tag_761:\n        /* \".git/MyContracts/KenyaProcurementTransparency.sol\":38602:38609  day - 1 */\n      tag_769\n        /* \".git/MyContracts/KenyaProcurementTransparency.sol\":38608:38609  1 */\n      0x01\n        /* \".git/MyContracts/KenyaProcurementTransparency.sol\":38602:38605  day */\n      dup9\n        /* \".git/MyContracts/KenyaProcurementTransparency.sol\":38602:38609  day - 1 */\n      tag_692\n      jump\t// in\n    tag_769:\n        /* \".git/MyContracts/KenyaProcurementTransparency.sol\":38601:38619  (day - 1) * 1 days */\n      tag_770\n      swap1\n        /* \".git/MyContracts/KenyaProcurementTransparency.sol\":38613:38619  1 days */\n      0x015180\n        /* \".git/MyContracts/KenyaProcurementTransparency.sol\":38601:38619  (day - 1) * 1 days */\n      tag_686\n      jump\t// in\n    tag_770:\n        /* \".git/MyContracts/KenyaProcurementTransparency.sol\":38588:38619  timestamp += (day - 1) * 1 days */\n      tag_771\n      swap1\n      dup5\n      tag_676\n      jump\t// in\n    tag_771:\n      swap3\n      pop\n        /* \".git/MyContracts/KenyaProcurementTransparency.sol\":38643:38657  hour * 1 hours */\n      tag_772\n        /* \".git/MyContracts/KenyaProcurementTransparency.sol\":38643:38647  hour */\n      dup7\n        /* \".git/MyContracts/KenyaProcurementTransparency.sol\":38650:38657  1 hours */\n      0x0e10\n        /* \".git/MyContracts/KenyaProcurementTransparency.sol\":38643:38657  hour * 1 hours */\n      tag_686\n      jump\t// in\n    tag_772:\n        /* \".git/MyContracts/KenyaProcurementTransparency.sol\":38630:38657  timestamp += hour * 1 hours */\n      tag_773\n      swap1\n      dup5\n      tag_676\n      jump\t// in\n    tag_773:\n      swap3\n      pop\n        /* \".git/MyContracts/KenyaProcurementTransparency.sol\":38681:38699  minute * 1 minutes */\n      tag_774\n        /* \".git/MyContracts/KenyaProcurementTransparency.sol\":38681:38687  minute */\n      dup6\n        /* \".git/MyContracts/KenyaProcurementTransparency.sol\":38690:38699  1 minutes */\n      0x3c\n        /* \".git/MyContracts/KenyaProcurementTransparency.sol\":38681:38699  minute * 1 minutes */\n      tag_686\n      jump\t// in\n    tag_774:\n        /* \".git/MyContracts/KenyaProcurementTransparency.sol\":38668:38699  timestamp += minute * 1 minutes */\n      tag_775\n      swap1\n      dup5\n      tag_676\n      jump\t// in\n    tag_775:\n      swap3\n      pop\n        /* \".git/MyContracts/KenyaProcurementTransparency.sol\":38710:38729  timestamp += second */\n      tag_776\n        /* \".git/MyContracts/KenyaProcurementTransparency.sol\":38723:38729  second */\n      dup5\n        /* \".git/MyContracts/KenyaProcurementTransparency.sol\":38668:38699  timestamp += minute * 1 minutes */\n      dup5\n        /* \".git/MyContracts/KenyaProcurementTransparency.sol\":38710:38729  timestamp += second */\n      tag_676\n      jump\t// in\n    tag_776:\n      swap10\n        /* \".git/MyContracts/KenyaProcurementTransparency.sol\":37680:38737  function _toTimestamp(... */\n      swap9\n      pop\n      pop\n      pop\n      pop\n      pop\n      pop\n      pop\n      pop\n      pop\n      jump\t// out\n        /* \"#utility.yul\":14:194   */\n    tag_55:\n        /* \"#utility.yul\":73:79   */\n      0x00\n        /* \"#utility.yul\":126:128   */\n      0x20\n        /* \"#utility.yul\":114:123   */\n      dup3\n        /* \"#utility.yul\":105:112   */\n      dup5\n        /* \"#utility.yul\":101:124   */\n      sub\n        /* \"#utility.yul\":97:129   */\n      slt\n        /* \"#utility.yul\":94:146   */\n      iszero\n      tag_790\n      jumpi\n        /* \"#utility.yul\":142:143   */\n      0x00\n        /* \"#utility.yul\":139:140   */\n      0x00\n        /* \"#utility.yul\":132:144   */\n      revert\n        /* \"#utility.yul\":94:146   */\n    tag_790:\n      pop\n        /* \"#utility.yul\":165:188   */\n      calldataload\n      swap2\n        /* \"#utility.yul\":14:194   */\n      swap1\n      pop\n      jump\t// out\n        /* \"#utility.yul\":199:326   */\n    tag_258:\n        /* \"#utility.yul\":260:270   */\n      0x4e487b71\n        /* \"#utility.yul\":255:258   */\n      0xe0\n        /* \"#utility.yul\":251:271   */\n      shl\n        /* \"#utility.yul\":248:249   */\n      0x00\n        /* \"#utility.yul\":241:272   */\n      mstore\n        /* \"#utility.yul\":291:295   */\n      0x21\n        /* \"#utility.yul\":288:289   */\n      0x04\n        /* \"#utility.yul\":281:296   */\n      mstore\n        /* \"#utility.yul\":315:319   */\n      0x24\n        /* \"#utility.yul\":312:313   */\n      0x00\n        /* \"#utility.yul\":305:320   */\n      revert\n        /* \"#utility.yul\":331:571   */\n    tag_777:\n        /* \"#utility.yul\":415:416   */\n      0x08\n        /* \"#utility.yul\":408:413   */\n      dup2\n        /* \"#utility.yul\":405:417   */\n      lt\n        /* \"#utility.yul\":395:538   */\n      tag_793\n      jumpi\n        /* \"#utility.yul\":460:470   */\n      0x4e487b71\n        /* \"#utility.yul\":455:458   */\n      0xe0\n        /* \"#utility.yul\":451:471   */\n      shl\n        /* \"#utility.yul\":448:449   */\n      0x00\n        /* \"#utility.yul\":441:472   */\n      mstore\n        /* \"#utility.yul\":495:499   */\n      0x21\n        /* \"#utility.yul\":492:493   */\n      0x04\n        /* \"#utility.yul\":485:500   */\n      mstore\n        /* \"#utility.yul\":523:527   */\n      0x24\n        /* \"#utility.yul\":520:521   */\n      0x00\n        /* \"#utility.yul\":513:528   */\n      revert\n        /* \"#utility.yul\":395:538   */\n    tag_793:\n        /* \"#utility.yul\":547:565   */\n      swap1\n      mstore\n        /* \"#utility.yul\":331:571   */\n      jump\t// out\n        /* \"#utility.yul\":576:876   */\n    tag_778:\n        /* \"#utility.yul\":629:632   */\n      0x00\n        /* \"#utility.yul\":667:672   */\n      dup2\n        /* \"#utility.yul\":661:673   */\n      mload\n        /* \"#utility.yul\":694:700   */\n      dup1\n        /* \"#utility.yul\":689:692   */\n      dup5\n        /* \"#utility.yul\":682:701   */\n      mstore\n        /* \"#utility.yul\":750:756   */\n      dup1\n        /* \"#utility.yul\":743:747   */\n      0x20\n        /* \"#utility.yul\":736:741   */\n      dup5\n        /* \"#utility.yul\":732:748   */\n      add\n        /* \"#utility.yul\":725:729   */\n      0x20\n        /* \"#utility.yul\":720:723   */\n      dup7\n        /* \"#utility.yul\":716:730   */\n      add\n        /* \"#utility.yul\":710:757   */\n      mcopy\n        /* \"#utility.yul\":802:803   */\n      0x00\n        /* \"#utility.yul\":795:799   */\n      0x20\n        /* \"#utility.yul\":786:792   */\n      dup3\n        /* \"#utility.yul\":781:784   */\n      dup7\n        /* \"#utility.yul\":777:793   */\n      add\n        /* \"#utility.yul\":773:800   */\n      add\n        /* \"#utility.yul\":766:804   */\n      mstore\n        /* \"#utility.yul\":865:869   */\n      0x20\n        /* \"#utility.yul\":858:860   */\n      0x1f\n        /* \"#utility.yul\":854:861   */\n      not\n        /* \"#utility.yul\":849:851   */\n      0x1f\n        /* \"#utility.yul\":841:847   */\n      dup4\n        /* \"#utility.yul\":837:852   */\n      add\n        /* \"#utility.yul\":833:862   */\n      and\n        /* \"#utility.yul\":828:831   */\n      dup6\n        /* \"#utility.yul\":824:863   */\n      add\n        /* \"#utility.yul\":820:870   */\n      add\n        /* \"#utility.yul\":813:870   */\n      swap2\n      pop\n      pop\n        /* \"#utility.yul\":576:876   */\n      swap3\n      swap2\n      pop\n      pop\n      jump\t// out\n        /* \"#utility.yul\":881:1218   */\n    tag_64:\n        /* \"#utility.yul\":1053:1100   */\n      tag_796\n        /* \"#utility.yul\":1090:1099   */\n      dup2\n        /* \"#utility.yul\":1082:1088   */\n      dup5\n        /* \"#utility.yul\":1053:1100   */\n      tag_777\n      jump\t// in\n    tag_796:\n        /* \"#utility.yul\":1136:1138   */\n      0x40\n        /* \"#utility.yul\":1131:1133   */\n      0x20\n        /* \"#utility.yul\":1120:1129   */\n      dup3\n        /* \"#utility.yul\":1116:1134   */\n      add\n        /* \"#utility.yul\":1109:1139   */\n      mstore\n        /* \"#utility.yul\":1034:1038   */\n      0x00\n        /* \"#utility.yul\":1156:1212   */\n      tag_797\n        /* \"#utility.yul\":1208:1210   */\n      0x40\n        /* \"#utility.yul\":1197:1206   */\n      dup4\n        /* \"#utility.yul\":1193:1211   */\n      add\n        /* \"#utility.yul\":1185:1191   */\n      dup5\n        /* \"#utility.yul\":1156:1212   */\n      tag_778\n      jump\t// in\n    tag_797:\n        /* \"#utility.yul\":1148:1212   */\n      swap5\n        /* \"#utility.yul\":881:1218   */\n      swap4\n      pop\n      pop\n      pop\n      pop\n      jump\t// out\n        /* \"#utility.yul\":1223:1350   */\n    tag_515:\n        /* \"#utility.yul\":1284:1294   */\n      0x4e487b71\n        /* \"#utility.yul\":1279:1282   */\n      0xe0\n        /* \"#utility.yul\":1275:1295   */\n      shl\n        /* \"#utility.yul\":1272:1273   */\n      0x00\n        /* \"#utility.yul\":1265:1296   */\n      mstore\n        /* \"#utility.yul\":1315:1319   */\n      0x41\n        /* \"#utility.yul\":1312:1313   */\n      0x04\n        /* \"#utility.yul\":1305:1320   */\n      mstore\n        /* \"#utility.yul\":1339:1343   */\n      0x24\n        /* \"#utility.yul\":1336:1337   */\n      0x00\n        /* \"#utility.yul\":1329:1344   */\n      revert\n        /* \"#utility.yul\":1355:2081   */\n    tag_779:\n        /* \"#utility.yul\":1398:1403   */\n      0x00\n        /* \"#utility.yul\":1451:1454   */\n      dup3\n        /* \"#utility.yul\":1444:1448   */\n      0x1f\n        /* \"#utility.yul\":1436:1442   */\n      dup4\n        /* \"#utility.yul\":1432:1449   */\n      add\n        /* \"#utility.yul\":1428:1455   */\n      slt\n        /* \"#utility.yul\":1418:1473   */\n      tag_800\n      jumpi\n        /* \"#utility.yul\":1469:1470   */\n      0x00\n        /* \"#utility.yul\":1466:1467   */\n      0x00\n        /* \"#utility.yul\":1459:1471   */\n      revert\n        /* \"#utility.yul\":1418:1473   */\n    tag_800:\n        /* \"#utility.yul\":1509:1515   */\n      dup2\n        /* \"#utility.yul\":1496:1516   */\n      calldataload\n      sub(shl(0x40, 0x01), 0x01)\n        /* \"#utility.yul\":1531:1537   */\n      dup2\n        /* \"#utility.yul\":1528:1558   */\n      gt\n        /* \"#utility.yul\":1525:1581   */\n      iszero\n      tag_802\n      jumpi\n        /* \"#utility.yul\":1561:1579   */\n      tag_802\n      tag_515\n      jump\t// in\n    tag_802:\n        /* \"#utility.yul\":1610:1612   */\n      0x40\n        /* \"#utility.yul\":1604:1613   */\n      mload\n        /* \"#utility.yul\":1702:1704   */\n      0x1f\n        /* \"#utility.yul\":1664:1681   */\n      dup3\n      add\n      not(0x1f)\n        /* \"#utility.yul\":1660:1691   */\n      swap1\n      dup2\n      and\n        /* \"#utility.yul\":1693:1695   */\n      0x3f\n        /* \"#utility.yul\":1656:1696   */\n      add\n        /* \"#utility.yul\":1652:1706   */\n      and\n        /* \"#utility.yul\":1640:1707   */\n      dup2\n      add\n      sub(shl(0x40, 0x01), 0x01)\n        /* \"#utility.yul\":1722:1756   */\n      dup2\n      gt\n        /* \"#utility.yul\":1758:1780   */\n      dup3\n      dup3\n      lt\n        /* \"#utility.yul\":1719:1781   */\n      or\n        /* \"#utility.yul\":1716:1804   */\n      iszero\n      tag_804\n      jumpi\n        /* \"#utility.yul\":1784:1802   */\n      tag_804\n      tag_515\n      jump\t// in\n    tag_804:\n        /* \"#utility.yul\":1820:1822   */\n      0x40\n        /* \"#utility.yul\":1813:1835   */\n      mstore\n        /* \"#utility.yul\":1844:1866   */\n      dup2\n      dup2\n      mstore\n        /* \"#utility.yul\":1885:1904   */\n      dup4\n      dup3\n      add\n        /* \"#utility.yul\":1906:1910   */\n      0x20\n        /* \"#utility.yul\":1881:1911   */\n      add\n        /* \"#utility.yul\":1878:1917   */\n      dup6\n      lt\n        /* \"#utility.yul\":1875:1934   */\n      iszero\n      tag_805\n      jumpi\n        /* \"#utility.yul\":1930:1931   */\n      0x00\n        /* \"#utility.yul\":1927:1928   */\n      0x00\n        /* \"#utility.yul\":1920:1932   */\n      revert\n        /* \"#utility.yul\":1875:1934   */\n    tag_805:\n        /* \"#utility.yul\":1994:2000   */\n      dup2\n        /* \"#utility.yul\":1987:1991   */\n      0x20\n        /* \"#utility.yul\":1979:1985   */\n      dup6\n        /* \"#utility.yul\":1975:1992   */\n      add\n        /* \"#utility.yul\":1968:1972   */\n      0x20\n        /* \"#utility.yul\":1960:1966   */\n      dup4\n        /* \"#utility.yul\":1956:1973   */\n      add\n        /* \"#utility.yul\":1943:2001   */\n      calldatacopy\n        /* \"#utility.yul\":2049:2050   */\n      0x00\n        /* \"#utility.yul\":2021:2040   */\n      swap2\n      dup2\n      add\n        /* \"#utility.yul\":2042:2046   */\n      0x20\n        /* \"#utility.yul\":2017:2047   */\n      add\n        /* \"#utility.yul\":2010:2051   */\n      swap2\n      swap1\n      swap2\n      mstore\n        /* \"#utility.yul\":2025:2031   */\n      swap4\n        /* \"#utility.yul\":1355:2081   */\n      swap3\n      pop\n      pop\n      pop\n      jump\t// out\n        /* \"#utility.yul\":2086:2522   */\n    tag_68:\n        /* \"#utility.yul\":2164:2170   */\n      0x00\n        /* \"#utility.yul\":2172:2178   */\n      0x00\n        /* \"#utility.yul\":2225:2227   */\n      0x40\n        /* \"#utility.yul\":2213:2222   */\n      dup4\n        /* \"#utility.yul\":2204:2211   */\n      dup6\n        /* \"#utility.yul\":2200:2223   */\n      sub\n        /* \"#utility.yul\":2196:2228   */\n      slt\n        /* \"#utility.yul\":2193:2245   */\n      iszero\n      tag_807\n      jumpi\n        /* \"#utility.yul\":2241:2242   */\n      0x00\n        /* \"#utility.yul\":2238:2239   */\n      0x00\n        /* \"#utility.yul\":2231:2243   */\n      revert\n        /* \"#utility.yul\":2193:2245   */\n    tag_807:\n        /* \"#utility.yul\":2286:2309   */\n      dup3\n      calldataload\n      swap2\n      pop\n        /* \"#utility.yul\":2384:2386   */\n      0x20\n        /* \"#utility.yul\":2369:2387   */\n      dup4\n      add\n        /* \"#utility.yul\":2356:2388   */\n      calldataload\n      sub(shl(0x40, 0x01), 0x01)\n        /* \"#utility.yul\":2400:2430   */\n      dup2\n      gt\n        /* \"#utility.yul\":2397:2447   */\n      iszero\n      tag_808\n      jumpi\n        /* \"#utility.yul\":2443:2444   */\n      0x00\n        /* \"#utility.yul\":2440:2441   */\n      0x00\n        /* \"#utility.yul\":2433:2445   */\n      revert\n        /* \"#utility.yul\":2397:2447   */\n    tag_808:\n        /* \"#utility.yul\":2466:2516   */\n      tag_809\n        /* \"#utility.yul\":2508:2515   */\n      dup6\n        /* \"#utility.yul\":2499:2505   */\n      dup3\n        /* \"#utility.yul\":2488:2497   */\n      dup7\n        /* \"#utility.yul\":2484:2506   */\n      add\n        /* \"#utility.yul\":2466:2516   */\n      tag_779\n      jump\t// in\n    tag_809:\n        /* \"#utility.yul\":2456:2516   */\n      swap2\n      pop\n      pop\n        /* \"#utility.yul\":2086:2522   */\n      swap3\n      pop\n      swap3\n      swap1\n      pop\n      jump\t// out\n        /* \"#utility.yul\":2735:2966   */\n    tag_79:\n        /* \"#utility.yul\":2884:2886   */\n      0x20\n        /* \"#utility.yul\":2873:2882   */\n      dup2\n        /* \"#utility.yul\":2866:2887   */\n      mstore\n        /* \"#utility.yul\":2847:2851   */\n      0x00\n        /* \"#utility.yul\":2904:2960   */\n      tag_812\n        /* \"#utility.yul\":2956:2958   */\n      0x20\n        /* \"#utility.yul\":2945:2954   */\n      dup4\n        /* \"#utility.yul\":2941:2959   */\n      add\n        /* \"#utility.yul\":2933:2939   */\n      dup5\n        /* \"#utility.yul\":2904:2960   */\n      tag_778\n      jump\t// in\n    tag_812:\n        /* \"#utility.yul\":2896:2960   */\n      swap4\n        /* \"#utility.yul\":2735:2966   */\n      swap3\n      pop\n      pop\n      pop\n      jump\t// out\n        /* \"#utility.yul\":3153:3326   */\n    tag_780:\n        /* \"#utility.yul\":3221:3241   */\n      dup1\n      calldataload\n      sub(shl(0xa0, 0x01), 0x01)\n        /* \"#utility.yul\":3270:3301   */\n      dup2\n      and\n        /* \"#utility.yul\":3260:3302   */\n      dup2\n      eq\n        /* \"#utility.yul\":3250:3320   */\n      tag_815\n      jumpi\n        /* \"#utility.yul\":3316:3317   */\n      0x00\n        /* \"#utility.yul\":3313:3314   */\n      0x00\n        /* \"#utility.yul\":3306:3318   */\n      revert\n        /* \"#utility.yul\":3250:3320   */\n    tag_815:\n        /* \"#utility.yul\":3153:3326   */\n      swap2\n      swap1\n      pop\n      jump\t// out\n        /* \"#utility.yul\":3331:3517   */\n    tag_88:\n        /* \"#utility.yul\":3390:3396   */\n      0x00\n        /* \"#utility.yul\":3443:3445   */\n      0x20\n        /* \"#utility.yul\":3431:3440   */\n      dup3\n        /* \"#utility.yul\":3422:3429   */\n      dup5\n        /* \"#utility.yul\":3418:3441   */\n      sub\n        /* \"#utility.yul\":3414:3446   */\n      slt\n        /* \"#utility.yul\":3411:3463   */\n      iszero\n      tag_817\n      jumpi\n        /* \"#utility.yul\":3459:3460   */\n      0x00\n        /* \"#utility.yul\":3456:3457   */\n      0x00\n        /* \"#utility.yul\":3449:3461   */\n      revert\n        /* \"#utility.yul\":3411:3463   */\n    tag_817:\n        /* \"#utility.yul\":3482:3511   */\n      tag_812\n        /* \"#utility.yul\":3501:3510   */\n      dup3\n        /* \"#utility.yul\":3482:3511   */\n      tag_780\n      jump\t// in\n        /* \"#utility.yul\":3714:4110   */\n    tag_95:\n        /* \"#utility.yul\":3792:3798   */\n      0x00\n        /* \"#utility.yul\":3800:3806   */\n      0x00\n        /* \"#utility.yul\":3853:3855   */\n      0x40\n        /* \"#utility.yul\":3841:3850   */\n      dup4\n        /* \"#utility.yul\":3832:3839   */\n      dup6\n        /* \"#utility.yul\":3828:3851   */\n      sub\n        /* \"#utility.yul\":3824:3856   */\n      slt\n        /* \"#utility.yul\":3821:3873   */\n      iszero\n      tag_821\n      jumpi\n        /* \"#utility.yul\":3869:3870   */\n      0x00\n        /* \"#utility.yul\":3866:3867   */\n      0x00\n        /* \"#utility.yul\":3859:3871   */\n      revert\n        /* \"#utility.yul\":3821:3873   */\n    tag_821:\n        /* \"#utility.yul\":3892:3921   */\n      tag_822\n        /* \"#utility.yul\":3911:3920   */\n      dup4\n        /* \"#utility.yul\":3892:3921   */\n      tag_780\n      jump\t// in\n    tag_822:\n        /* \"#utility.yul\":3882:3921   */\n      swap2\n      pop\n        /* \"#utility.yul\":3972:3974   */\n      0x20\n        /* \"#utility.yul\":3961:3970   */\n      dup4\n        /* \"#utility.yul\":3957:3975   */\n      add\n        /* \"#utility.yul\":3944:3976   */\n      calldataload\n      sub(shl(0x40, 0x01), 0x01)\n        /* \"#utility.yul\":3991:3997   */\n      dup2\n        /* \"#utility.yul\":3988:4018   */\n      gt\n        /* \"#utility.yul\":3985:4035   */\n      iszero\n      tag_808\n      jumpi\n        /* \"#utility.yul\":4031:4032   */\n      0x00\n        /* \"#utility.yul\":4028:4029   */\n      0x00\n        /* \"#utility.yul\":4021:4033   */\n      revert\n        /* \"#utility.yul\":4655:4977   */\n    tag_105:\n        /* \"#utility.yul\":4724:4730   */\n      0x00\n        /* \"#utility.yul\":4777:4779   */\n      0x20\n        /* \"#utility.yul\":4765:4774   */\n      dup3\n        /* \"#utility.yul\":4756:4763   */\n      dup5\n        /* \"#utility.yul\":4752:4775   */\n      sub\n        /* \"#utility.yul\":4748:4780   */\n      slt\n        /* \"#utility.yul\":4745:4797   */\n      iszero\n      tag_827\n      jumpi\n        /* \"#utility.yul\":4793:4794   */\n      0x00\n        /* \"#utility.yul\":4790:4791   */\n      0x00\n        /* \"#utility.yul\":4783:4795   */\n      revert\n        /* \"#utility.yul\":4745:4797   */\n    tag_827:\n        /* \"#utility.yul\":4833:4842   */\n      dup2\n        /* \"#utility.yul\":4820:4843   */\n      calldataload\n      sub(shl(0x40, 0x01), 0x01)\n        /* \"#utility.yul\":4858:4864   */\n      dup2\n        /* \"#utility.yul\":4855:4885   */\n      gt\n        /* \"#utility.yul\":4852:4902   */\n      iszero\n      tag_828\n      jumpi\n        /* \"#utility.yul\":4898:4899   */\n      0x00\n        /* \"#utility.yul\":4895:4896   */\n      0x00\n        /* \"#utility.yul\":4888:4900   */\n      revert\n        /* \"#utility.yul\":4852:4902   */\n    tag_828:\n        /* \"#utility.yul\":4921:4971   */\n      tag_797\n        /* \"#utility.yul\":4963:4970   */\n      dup5\n        /* \"#utility.yul\":4954:4960   */\n      dup3\n        /* \"#utility.yul\":4943:4952   */\n      dup6\n        /* \"#utility.yul\":4939:4961   */\n      add\n        /* \"#utility.yul\":4921:4971   */\n      tag_779\n      jump\t// in\n        /* \"#utility.yul\":5662:7007   */\n    tag_137:\n        /* \"#utility.yul\":6175:6178   */\n      0x0180\n        /* \"#utility.yul\":6164:6173   */\n      dup2\n        /* \"#utility.yul\":6157:6179   */\n      mstore\n        /* \"#utility.yul\":6138:6142   */\n      0x00\n        /* \"#utility.yul\":6202:6259   */\n      tag_833\n        /* \"#utility.yul\":6254:6257   */\n      0x0180\n        /* \"#utility.yul\":6243:6252   */\n      dup4\n        /* \"#utility.yul\":6239:6258   */\n      add\n        /* \"#utility.yul\":6231:6237   */\n      dup16\n        /* \"#utility.yul\":6202:6259   */\n      tag_778\n      jump\t// in\n    tag_833:\n        /* \"#utility.yul\":6307:6316   */\n      dup3\n        /* \"#utility.yul\":6299:6305   */\n      dup2\n        /* \"#utility.yul\":6295:6317   */\n      sub\n        /* \"#utility.yul\":6290:6292   */\n      0x20\n        /* \"#utility.yul\":6279:6288   */\n      dup5\n        /* \"#utility.yul\":6275:6293   */\n      add\n        /* \"#utility.yul\":6268:6318   */\n      mstore\n        /* \"#utility.yul\":6341:6385   */\n      tag_834\n        /* \"#utility.yul\":6378:6384   */\n      dup2\n        /* \"#utility.yul\":6370:6376   */\n      dup16\n        /* \"#utility.yul\":6341:6385   */\n      tag_778\n      jump\t// in\n    tag_834:\n        /* \"#utility.yul\":6327:6385   */\n      swap1\n      pop\n        /* \"#utility.yul\":6433:6442   */\n      dup3\n        /* \"#utility.yul\":6425:6431   */\n      dup2\n        /* \"#utility.yul\":6421:6443   */\n      sub\n        /* \"#utility.yul\":6416:6418   */\n      0x40\n        /* \"#utility.yul\":6405:6414   */\n      dup5\n        /* \"#utility.yul\":6401:6419   */\n      add\n        /* \"#utility.yul\":6394:6444   */\n      mstore\n        /* \"#utility.yul\":6467:6511   */\n      tag_835\n        /* \"#utility.yul\":6504:6510   */\n      dup2\n        /* \"#utility.yul\":6496:6502   */\n      dup15\n        /* \"#utility.yul\":6467:6511   */\n      tag_778\n      jump\t// in\n    tag_835:\n        /* \"#utility.yul\":6453:6511   */\n      swap1\n      pop\n        /* \"#utility.yul\":6547:6553   */\n      dup12\n        /* \"#utility.yul\":6542:6544   */\n      0x60\n        /* \"#utility.yul\":6531:6540   */\n      dup5\n        /* \"#utility.yul\":6527:6545   */\n      add\n        /* \"#utility.yul\":6520:6554   */\n      mstore\n        /* \"#utility.yul\":6591:6597   */\n      dup11\n        /* \"#utility.yul\":6585:6588   */\n      0x80\n        /* \"#utility.yul\":6574:6583   */\n      dup5\n        /* \"#utility.yul\":6570:6589   */\n      add\n        /* \"#utility.yul\":6563:6598   */\n      mstore\n        /* \"#utility.yul\":6635:6641   */\n      dup10\n        /* \"#utility.yul\":6629:6632   */\n      0xa0\n        /* \"#utility.yul\":6618:6627   */\n      dup5\n        /* \"#utility.yul\":6614:6633   */\n      add\n        /* \"#utility.yul\":6607:6642   */\n      mstore\n        /* \"#utility.yul\":6679:6685   */\n      dup9\n        /* \"#utility.yul\":6673:6676   */\n      0xc0\n        /* \"#utility.yul\":6662:6671   */\n      dup5\n        /* \"#utility.yul\":6658:6677   */\n      add\n        /* \"#utility.yul\":6651:6686   */\n      mstore\n        /* \"#utility.yul\":6723:6729   */\n      dup8\n        /* \"#utility.yul\":6717:6720   */\n      0xe0\n        /* \"#utility.yul\":6706:6715   */\n      dup5\n        /* \"#utility.yul\":6702:6721   */\n      add\n        /* \"#utility.yul\":6695:6730   */\n      mstore\n        /* \"#utility.yul\":6767:6773   */\n      dup7\n        /* \"#utility.yul\":6761:6764   */\n      0x0100\n        /* \"#utility.yul\":6750:6759   */\n      dup5\n        /* \"#utility.yul\":6746:6765   */\n      add\n        /* \"#utility.yul\":6739:6774   */\n      mstore\n        /* \"#utility.yul\":6811:6817   */\n      dup6\n        /* \"#utility.yul\":6805:6808   */\n      0x0120\n        /* \"#utility.yul\":6794:6803   */\n      dup5\n        /* \"#utility.yul\":6790:6809   */\n      add\n        /* \"#utility.yul\":6783:6818   */\n      mstore\n        /* \"#utility.yul\":6867:6876   */\n      dup3\n        /* \"#utility.yul\":6859:6865   */\n      dup2\n        /* \"#utility.yul\":6855:6877   */\n      sub\n        /* \"#utility.yul\":6849:6852   */\n      0x0140\n        /* \"#utility.yul\":6838:6847   */\n      dup5\n        /* \"#utility.yul\":6834:6853   */\n      add\n        /* \"#utility.yul\":6827:6878   */\n      mstore\n        /* \"#utility.yul\":6895:6940   */\n      tag_836\n        /* \"#utility.yul\":6933:6939   */\n      dup2\n        /* \"#utility.yul\":6924:6931   */\n      dup7\n        /* \"#utility.yul\":6895:6940   */\n      tag_778\n      jump\t// in\n    tag_836:\n        /* \"#utility.yul\":6887:6940   */\n      swap2\n      pop\n      pop\n        /* \"#utility.yul\":6991:6998   */\n      dup3\n        /* \"#utility.yul\":6984:6999   */\n      iszero\n        /* \"#utility.yul\":6977:7000   */\n      iszero\n        /* \"#utility.yul\":6971:6974   */\n      0x0160\n        /* \"#utility.yul\":6960:6969   */\n      dup4\n        /* \"#utility.yul\":6956:6975   */\n      add\n        /* \"#utility.yul\":6949:7001   */\n      mstore\n        /* \"#utility.yul\":5662:7007   */\n      swap14\n      swap13\n      pop\n      pop\n      pop\n      pop\n      pop\n      pop\n      pop\n      pop\n      pop\n      pop\n      pop\n      pop\n      pop\n      jump\t// out\n        /* \"#utility.yul\":7012:7411   */\n    tag_154:\n        /* \"#utility.yul\":7199:7224   */\n      dup4\n      dup2\n      mstore\n      sub(shl(0xa0, 0x01), 0x01)\n        /* \"#utility.yul\":7260:7292   */\n      dup4\n      and\n        /* \"#utility.yul\":7255:7257   */\n      0x20\n        /* \"#utility.yul\":7240:7258   */\n      dup3\n      add\n        /* \"#utility.yul\":7233:7293   */\n      mstore\n        /* \"#utility.yul\":7329:7331   */\n      0x60\n        /* \"#utility.yul\":7324:7326   */\n      0x40\n        /* \"#utility.yul\":7309:7327   */\n      dup3\n      add\n        /* \"#utility.yul\":7302:7332   */\n      dup2\n      swap1\n      mstore\n      0x00\n      swap1\n        /* \"#utility.yul\":7349:7405   */\n      tag_838\n      swap1\n        /* \"#utility.yul\":7386:7404   */\n      dup4\n      add\n        /* \"#utility.yul\":7378:7384   */\n      dup5\n        /* \"#utility.yul\":7349:7405   */\n      tag_778\n      jump\t// in\n    tag_838:\n        /* \"#utility.yul\":7341:7405   */\n      swap6\n        /* \"#utility.yul\":7012:7411   */\n      swap5\n      pop\n      pop\n      pop\n      pop\n      pop\n      jump\t// out\n        /* \"#utility.yul\":7416:8672   */\n    tag_158:\n        /* \"#utility.yul\":7557:7563   */\n      0x00\n        /* \"#utility.yul\":7565:7571   */\n      0x00\n        /* \"#utility.yul\":7573:7579   */\n      0x00\n        /* \"#utility.yul\":7581:7587   */\n      0x00\n        /* \"#utility.yul\":7589:7595   */\n      0x00\n        /* \"#utility.yul\":7597:7603   */\n      0x00\n        /* \"#utility.yul\":7605:7611   */\n      0x00\n        /* \"#utility.yul\":7613:7619   */\n      0x00\n        /* \"#utility.yul\":7666:7669   */\n      0x0100\n        /* \"#utility.yul\":7654:7663   */\n      dup10\n        /* \"#utility.yul\":7645:7652   */\n      dup12\n        /* \"#utility.yul\":7641:7664   */\n      sub\n        /* \"#utility.yul\":7637:7670   */\n      slt\n        /* \"#utility.yul\":7634:7687   */\n      iszero\n      tag_840\n      jumpi\n        /* \"#utility.yul\":7683:7684   */\n      0x00\n        /* \"#utility.yul\":7680:7681   */\n      0x00\n        /* \"#utility.yul\":7673:7685   */\n      revert\n        /* \"#utility.yul\":7634:7687   */\n    tag_840:\n        /* \"#utility.yul\":7723:7732   */\n      dup9\n        /* \"#utility.yul\":7710:7733   */\n      calldataload\n      sub(shl(0x40, 0x01), 0x01)\n        /* \"#utility.yul\":7748:7754   */\n      dup2\n        /* \"#utility.yul\":7745:7775   */\n      gt\n        /* \"#utility.yul\":7742:7792   */\n      iszero\n      tag_841\n      jumpi\n        /* \"#utility.yul\":7788:7789   */\n      0x00\n        /* \"#utility.yul\":7785:7786   */\n      0x00\n        /* \"#utility.yul\":7778:7790   */\n      revert\n        /* \"#utility.yul\":7742:7792   */\n    tag_841:\n        /* \"#utility.yul\":7811:7861   */\n      tag_842\n        /* \"#utility.yul\":7853:7860   */\n      dup12\n        /* \"#utility.yul\":7844:7850   */\n      dup3\n        /* \"#utility.yul\":7833:7842   */\n      dup13\n        /* \"#utility.yul\":7829:7851   */\n      add\n        /* \"#utility.yul\":7811:7861   */\n      tag_779\n      jump\t// in\n    tag_842:\n        /* \"#utility.yul\":7801:7861   */\n      swap9\n      pop\n      pop\n        /* \"#utility.yul\":7914:7916   */\n      0x20\n        /* \"#utility.yul\":7903:7912   */\n      dup10\n        /* \"#utility.yul\":7899:7917   */\n      add\n        /* \"#utility.yul\":7886:7918   */\n      calldataload\n      sub(shl(0x40, 0x01), 0x01)\n        /* \"#utility.yul\":7933:7941   */\n      dup2\n        /* \"#utility.yul\":7930:7962   */\n      gt\n        /* \"#utility.yul\":7927:7979   */\n      iszero\n      tag_843\n      jumpi\n        /* \"#utility.yul\":7975:7976   */\n      0x00\n        /* \"#utility.yul\":7972:7973   */\n      0x00\n        /* \"#utility.yul\":7965:7977   */\n      revert\n        /* \"#utility.yul\":7927:7979   */\n    tag_843:\n        /* \"#utility.yul\":7998:8050   */\n      tag_844\n        /* \"#utility.yul\":8042:8049   */\n      dup12\n        /* \"#utility.yul\":8031:8039   */\n      dup3\n        /* \"#utility.yul\":8020:8029   */\n      dup13\n        /* \"#utility.yul\":8016:8040   */\n      add\n        /* \"#utility.yul\":7998:8050   */\n      tag_779\n      jump\t// in\n    tag_844:\n        /* \"#utility.yul\":7416:8672   */\n      swap9\n      swap12\n        /* \"#utility.yul\":7988:8050   */\n      swap9\n      swap11\n      pop\n      pop\n      pop\n      pop\n        /* \"#utility.yul\":8119:8121   */\n      0x40\n        /* \"#utility.yul\":8104:8122   */\n      dup8\n      add\n        /* \"#utility.yul\":8091:8123   */\n      calldataload\n      swap7\n        /* \"#utility.yul\":8220:8222   */\n      0x60\n        /* \"#utility.yul\":8205:8223   */\n      dup2\n      add\n        /* \"#utility.yul\":8192:8224   */\n      calldataload\n      swap7\n        /* \"#utility.yul\":8323:8326   */\n      0x80\n        /* \"#utility.yul\":8308:8327   */\n      dup3\n      add\n        /* \"#utility.yul\":8295:8328   */\n      calldataload\n      swap7\n      pop\n        /* \"#utility.yul\":8427:8430   */\n      0xa0\n        /* \"#utility.yul\":8412:8431   */\n      dup3\n      add\n        /* \"#utility.yul\":8399:8432   */\n      calldataload\n      swap6\n      pop\n        /* \"#utility.yul\":8531:8534   */\n      0xc0\n        /* \"#utility.yul\":8516:8535   */\n      dup3\n      add\n        /* \"#utility.yul\":8503:8536   */\n      calldataload\n      swap5\n      pop\n        /* \"#utility.yul\":8635:8638   */\n      0xe0\n        /* \"#utility.yul\":8620:8639   */\n      swap1\n      swap2\n      add\n        /* \"#utility.yul\":8607:8640   */\n      calldataload\n      swap3\n      pop\n        /* \"#utility.yul\":7416:8672   */\n      swap1\n      pop\n      jump\t// out\n        /* \"#utility.yul\":9356:11169   */\n    tag_179:\n        /* \"#utility.yul\":9544:9550   */\n      0x00\n        /* \"#utility.yul\":9552:9558   */\n      0x00\n        /* \"#utility.yul\":9560:9566   */\n      0x00\n        /* \"#utility.yul\":9568:9574   */\n      0x00\n        /* \"#utility.yul\":9576:9582   */\n      0x00\n        /* \"#utility.yul\":9584:9590   */\n      0x00\n        /* \"#utility.yul\":9592:9598   */\n      0x00\n        /* \"#utility.yul\":9600:9606   */\n      0x00\n        /* \"#utility.yul\":9608:9614   */\n      0x00\n        /* \"#utility.yul\":9616:9622   */\n      0x00\n        /* \"#utility.yul\":9624:9631   */\n      0x00\n        /* \"#utility.yul\":9678:9681   */\n      0x0160\n        /* \"#utility.yul\":9666:9675   */\n      dup13\n        /* \"#utility.yul\":9657:9664   */\n      dup15\n        /* \"#utility.yul\":9653:9676   */\n      sub\n        /* \"#utility.yul\":9649:9682   */\n      slt\n        /* \"#utility.yul\":9646:9699   */\n      iszero\n      tag_848\n      jumpi\n        /* \"#utility.yul\":9695:9696   */\n      0x00\n        /* \"#utility.yul\":9692:9693   */\n      0x00\n        /* \"#utility.yul\":9685:9697   */\n      revert\n        /* \"#utility.yul\":9646:9699   */\n    tag_848:\n        /* \"#utility.yul\":9735:9744   */\n      dup12\n        /* \"#utility.yul\":9722:9745   */\n      calldataload\n      sub(shl(0x40, 0x01), 0x01)\n        /* \"#utility.yul\":9760:9766   */\n      dup2\n        /* \"#utility.yul\":9757:9787   */\n      gt\n        /* \"#utility.yul\":9754:9804   */\n      iszero\n      tag_849\n      jumpi\n        /* \"#utility.yul\":9800:9801   */\n      0x00\n        /* \"#utility.yul\":9797:9798   */\n      0x00\n        /* \"#utility.yul\":9790:9802   */\n      revert\n        /* \"#utility.yul\":9754:9804   */\n    tag_849:\n        /* \"#utility.yul\":9823:9873   */\n      tag_850\n        /* \"#utility.yul\":9865:9872   */\n      dup15\n        /* \"#utility.yul\":9856:9862   */\n      dup3\n        /* \"#utility.yul\":9845:9854   */\n      dup16\n        /* \"#utility.yul\":9841:9863   */\n      add\n        /* \"#utility.yul\":9823:9873   */\n      tag_779\n      jump\t// in\n    tag_850:\n        /* \"#utility.yul\":9813:9873   */\n      swap12\n      pop\n      pop\n        /* \"#utility.yul\":9926:9928   */\n      0x20\n        /* \"#utility.yul\":9915:9924   */\n      dup13\n        /* \"#utility.yul\":9911:9929   */\n      add\n        /* \"#utility.yul\":9898:9930   */\n      calldataload\n      sub(shl(0x40, 0x01), 0x01)\n        /* \"#utility.yul\":9945:9953   */\n      dup2\n        /* \"#utility.yul\":9942:9974   */\n      gt\n        /* \"#utility.yul\":9939:9991   */\n      iszero\n      tag_851\n      jumpi\n        /* \"#utility.yul\":9987:9988   */\n      0x00\n        /* \"#utility.yul\":9984:9985   */\n      0x00\n        /* \"#utility.yul\":9977:9989   */\n      revert\n        /* \"#utility.yul\":9939:9991   */\n    tag_851:\n        /* \"#utility.yul\":10010:10062   */\n      tag_852\n        /* \"#utility.yul\":10054:10061   */\n      dup15\n        /* \"#utility.yul\":10043:10051   */\n      dup3\n        /* \"#utility.yul\":10032:10041   */\n      dup16\n        /* \"#utility.yul\":10028:10052   */\n      add\n        /* \"#utility.yul\":10010:10062   */\n      tag_779\n      jump\t// in\n    tag_852:\n        /* \"#utility.yul\":10000:10062   */\n      swap11\n      pop\n      pop\n        /* \"#utility.yul\":10115:10117   */\n      0x40\n        /* \"#utility.yul\":10104:10113   */\n      dup13\n        /* \"#utility.yul\":10100:10118   */\n      add\n        /* \"#utility.yul\":10087:10119   */\n      calldataload\n      sub(shl(0x40, 0x01), 0x01)\n        /* \"#utility.yul\":10134:10142   */\n      dup2\n        /* \"#utility.yul\":10131:10163   */\n      gt\n        /* \"#utility.yul\":10128:10180   */\n      iszero\n      tag_853\n      jumpi\n        /* \"#utility.yul\":10176:10177   */\n      0x00\n        /* \"#utility.yul\":10173:10174   */\n      0x00\n        /* \"#utility.yul\":10166:10178   */\n      revert\n        /* \"#utility.yul\":10128:10180   */\n    tag_853:\n        /* \"#utility.yul\":10199:10251   */\n      tag_854\n        /* \"#utility.yul\":10243:10250   */\n      dup15\n        /* \"#utility.yul\":10232:10240   */\n      dup3\n        /* \"#utility.yul\":10221:10230   */\n      dup16\n        /* \"#utility.yul\":10217:10241   */\n      add\n        /* \"#utility.yul\":10199:10251   */\n      tag_779\n      jump\t// in\n    tag_854:\n        /* \"#utility.yul\":10189:10251   */\n      swap10\n      pop\n      pop\n        /* \"#utility.yul\":10320:10322   */\n      0x60\n        /* \"#utility.yul\":10305:10323   */\n      dup13\n      add\n        /* \"#utility.yul\":10292:10324   */\n      calldataload\n      swap8\n      pop\n        /* \"#utility.yul\":10421:10424   */\n      0x80\n        /* \"#utility.yul\":10406:10425   */\n      dup13\n      add\n        /* \"#utility.yul\":10393:10426   */\n      calldataload\n      swap7\n      pop\n        /* \"#utility.yul\":10525:10528   */\n      0xa0\n        /* \"#utility.yul\":10510:10529   */\n      dup13\n      add\n        /* \"#utility.yul\":10497:10530   */\n      calldataload\n      swap6\n      pop\n        /* \"#utility.yul\":10629:10632   */\n      0xc0\n        /* \"#utility.yul\":10614:10633   */\n      dup13\n      add\n        /* \"#utility.yul\":10601:10634   */\n      calldataload\n      swap5\n      pop\n        /* \"#utility.yul\":10733:10736   */\n      0xe0\n        /* \"#utility.yul\":10718:10737   */\n      dup13\n      add\n        /* \"#utility.yul\":10705:10738   */\n      calldataload\n      swap4\n      pop\n        /* \"#utility.yul\":10837:10840   */\n      0x0100\n        /* \"#utility.yul\":10822:10841   */\n      dup13\n      add\n        /* \"#utility.yul\":10809:10842   */\n      calldataload\n      swap3\n      pop\n        /* \"#utility.yul\":10941:10944   */\n      0x0120\n        /* \"#utility.yul\":10926:10945   */\n      dup13\n      add\n        /* \"#utility.yul\":10913:10946   */\n      calldataload\n      swap2\n      pop\n        /* \"#utility.yul\":11025:11028   */\n      0x0140\n        /* \"#utility.yul\":11010:11029   */\n      dup13\n      add\n        /* \"#utility.yul\":10997:11030   */\n      calldataload\n      sub(shl(0x40, 0x01), 0x01)\n        /* \"#utility.yul\":11042:11074   */\n      dup2\n      gt\n        /* \"#utility.yul\":11039:11091   */\n      iszero\n      tag_855\n      jumpi\n        /* \"#utility.yul\":11087:11088   */\n      0x00\n        /* \"#utility.yul\":11084:11085   */\n      0x00\n        /* \"#utility.yul\":11077:11089   */\n      revert\n        /* \"#utility.yul\":11039:11091   */\n    tag_855:\n        /* \"#utility.yul\":11111:11163   */\n      tag_856\n        /* \"#utility.yul\":11155:11162   */\n      dup15\n        /* \"#utility.yul\":11144:11152   */\n      dup3\n        /* \"#utility.yul\":11133:11142   */\n      dup16\n        /* \"#utility.yul\":11129:11153   */\n      add\n        /* \"#utility.yul\":11111:11163   */\n      tag_779\n      jump\t// in\n    tag_856:\n        /* \"#utility.yul\":11100:11163   */\n      swap2\n      pop\n      pop\n        /* \"#utility.yul\":9356:11169   */\n      swap3\n      swap6\n      swap9\n      swap12\n      pop\n      swap3\n      swap6\n      swap9\n      swap12\n      swap1\n      swap4\n      swap7\n      swap10\n      pop\n      jump\t// out\n        /* \"#utility.yul\":11174:11486   */\n    tag_186:\n        /* \"#utility.yul\":11359:11365   */\n      dup3\n        /* \"#utility.yul\":11352:11366   */\n      iszero\n        /* \"#utility.yul\":11345:11367   */\n      iszero\n        /* \"#utility.yul\":11334:11343   */\n      dup2\n        /* \"#utility.yul\":11327:11368   */\n      mstore\n        /* \"#utility.yul\":11404:11406   */\n      0x40\n        /* \"#utility.yul\":11399:11401   */\n      0x20\n        /* \"#utility.yul\":11388:11397   */\n      dup3\n        /* \"#utility.yul\":11384:11402   */\n      add\n        /* \"#utility.yul\":11377:11407   */\n      mstore\n        /* \"#utility.yul\":11308:11312   */\n      0x00\n        /* \"#utility.yul\":11424:11480   */\n      tag_797\n        /* \"#utility.yul\":11476:11478   */\n      0x40\n        /* \"#utility.yul\":11465:11474   */\n      dup4\n        /* \"#utility.yul\":11461:11479   */\n      add\n        /* \"#utility.yul\":11453:11459   */\n      dup5\n        /* \"#utility.yul\":11424:11480   */\n      tag_778\n      jump\t// in\n        /* \"#utility.yul\":11491:12081   */\n    tag_781:\n        /* \"#utility.yul\":11543:11546   */\n      0x00\n        /* \"#utility.yul\":11574:11577   */\n      dup3\n        /* \"#utility.yul\":11606:11611   */\n      dup3\n        /* \"#utility.yul\":11600:11612   */\n      mload\n        /* \"#utility.yul\":11633:11639   */\n      dup1\n        /* \"#utility.yul\":11628:11631   */\n      dup6\n        /* \"#utility.yul\":11621:11640   */\n      mstore\n        /* \"#utility.yul\":11665:11669   */\n      0x20\n        /* \"#utility.yul\":11660:11663   */\n      dup6\n        /* \"#utility.yul\":11656:11670   */\n      add\n        /* \"#utility.yul\":11649:11670   */\n      swap5\n      pop\n        /* \"#utility.yul\":11723:11727   */\n      0x20\n        /* \"#utility.yul\":11713:11719   */\n      dup2\n        /* \"#utility.yul\":11710:11711   */\n      0x05\n        /* \"#utility.yul\":11706:11720   */\n      shl\n        /* \"#utility.yul\":11699:11704   */\n      dup4\n        /* \"#utility.yul\":11695:11721   */\n      add\n        /* \"#utility.yul\":11691:11728   */\n      add\n        /* \"#utility.yul\":11762:11766   */\n      0x20\n        /* \"#utility.yul\":11755:11760   */\n      dup6\n        /* \"#utility.yul\":11751:11767   */\n      add\n        /* \"#utility.yul\":11785:11786   */\n      0x00\n        /* \"#utility.yul\":11795:12055   */\n    tag_860:\n        /* \"#utility.yul\":11809:11815   */\n      dup4\n        /* \"#utility.yul\":11806:11807   */\n      dup2\n        /* \"#utility.yul\":11803:11816   */\n      lt\n        /* \"#utility.yul\":11795:12055   */\n      iszero\n      tag_862\n      jumpi\n        /* \"#utility.yul\":11896:11898   */\n      0x1f\n        /* \"#utility.yul\":11892:11899   */\n      not\n        /* \"#utility.yul\":11884:11889   */\n      dup6\n        /* \"#utility.yul\":11878:11882   */\n      dup5\n        /* \"#utility.yul\":11874:11890   */\n      sub\n        /* \"#utility.yul\":11870:11900   */\n      add\n        /* \"#utility.yul\":11865:11868   */\n      dup9\n        /* \"#utility.yul\":11858:11901   */\n      mstore\n        /* \"#utility.yul\":11922:11971   */\n      tag_863\n        /* \"#utility.yul\":11966:11970   */\n      dup4\n        /* \"#utility.yul\":11957:11963   */\n      dup4\n        /* \"#utility.yul\":11951:11964   */\n      mload\n        /* \"#utility.yul\":11922:11971   */\n      tag_778\n      jump\t// in\n    tag_863:\n        /* \"#utility.yul\":12006:12010   */\n      0x20\n        /* \"#utility.yul\":12031:12045   */\n      swap9\n      dup10\n      add\n      swap9\n        /* \"#utility.yul\":11914:11971   */\n      swap1\n      swap4\n      pop\n        /* \"#utility.yul\":11994:12011   */\n      swap2\n      swap1\n      swap2\n      add\n      swap1\n        /* \"#utility.yul\":11831:11832   */\n      0x01\n        /* \"#utility.yul\":11824:11833   */\n      add\n        /* \"#utility.yul\":11795:12055   */\n      jump(tag_860)\n    tag_862:\n      pop\n        /* \"#utility.yul\":12071:12075   */\n      swap1\n      swap7\n        /* \"#utility.yul\":11491:12081   */\n      swap6\n      pop\n      pop\n      pop\n      pop\n      pop\n      pop\n      jump\t// out\n        /* \"#utility.yul\":12086:13451   */\n    tag_200:\n        /* \"#utility.yul\":12452:12454   */\n      0x60\n        /* \"#utility.yul\":12464:12485   */\n      dup1\n      dup3\n      mstore\n        /* \"#utility.yul\":12534:12547   */\n      dup5\n      mload\n        /* \"#utility.yul\":12437:12455   */\n      swap1\n      dup3\n      add\n        /* \"#utility.yul\":12556:12578   */\n      dup2\n      swap1\n      mstore\n        /* \"#utility.yul\":12404:12408   */\n      0x00\n      swap1\n        /* \"#utility.yul\":12648:12652   */\n      0x20\n        /* \"#utility.yul\":12636:12653   */\n      dup7\n      add\n      swap1\n        /* \"#utility.yul\":12609:12612   */\n      0x80\n        /* \"#utility.yul\":12594:12613   */\n      dup5\n      add\n      swap1\n        /* \"#utility.yul\":12404:12408   */\n      dup4\n        /* \"#utility.yul\":12681:12854   */\n    tag_865:\n        /* \"#utility.yul\":12695:12701   */\n      dup2\n        /* \"#utility.yul\":12692:12693   */\n      dup2\n        /* \"#utility.yul\":12689:12702   */\n      lt\n        /* \"#utility.yul\":12681:12854   */\n      iszero\n      tag_867\n      jumpi\n        /* \"#utility.yul\":12756:12769   */\n      dup4\n      mload\n        /* \"#utility.yul\":12744:12770   */\n      dup4\n      mstore\n        /* \"#utility.yul\":12799:12803   */\n      0x20\n        /* \"#utility.yul\":12827:12844   */\n      swap4\n      dup5\n      add\n      swap4\n        /* \"#utility.yul\":12790:12804   */\n      swap1\n      swap3\n      add\n      swap2\n        /* \"#utility.yul\":12717:12718   */\n      0x01\n        /* \"#utility.yul\":12710:12719   */\n      add\n        /* \"#utility.yul\":12681:12854   */\n      jump(tag_865)\n    tag_867:\n      pop\n      pop\n        /* \"#utility.yul\":12892:12911   */\n      dup4\n      dup2\n      sub\n        /* \"#utility.yul\":12885:12889   */\n      0x20\n        /* \"#utility.yul\":12870:12890   */\n      dup1\n      dup7\n      add\n        /* \"#utility.yul\":12863:12912   */\n      swap2\n      swap1\n      swap2\n      mstore\n        /* \"#utility.yul\":12962:12975   */\n      dup7\n      mload\n        /* \"#utility.yul\":12984:13005   */\n      dup1\n      dup4\n      mstore\n        /* \"#utility.yul\":13023:13037   */\n      swap2\n      dup2\n      add\n      swap3\n      pop\n        /* \"#utility.yul\":13062:13079   */\n      dup7\n      add\n      swap1\n        /* \"#utility.yul\":13099:13100   */\n      0x00\n        /* \"#utility.yul\":13109:13328   */\n    tag_868:\n        /* \"#utility.yul\":13125:13133   */\n      dup2\n        /* \"#utility.yul\":13120:13123   */\n      dup2\n        /* \"#utility.yul\":13117:13134   */\n      lt\n        /* \"#utility.yul\":13109:13328   */\n      iszero\n      tag_870\n      jumpi\n        /* \"#utility.yul\":13198:13213   */\n      dup3\n      mload\n      sub(shl(0xa0, 0x01), 0x01)\n        /* \"#utility.yul\":13194:13235   */\n      and\n        /* \"#utility.yul\":13180:13236   */\n      dup5\n      mstore\n        /* \"#utility.yul\":13269:13273   */\n      0x20\n        /* \"#utility.yul\":13258:13274   */\n      swap4\n      dup5\n      add\n      swap4\n        /* \"#utility.yul\":13299:13318   */\n      swap1\n      swap3\n      add\n      swap2\n        /* \"#utility.yul\":13232:13233   */\n      0x01\n        /* \"#utility.yul\":13144:13155   */\n      add\n        /* \"#utility.yul\":13109:13328   */\n      jump(tag_868)\n    tag_870:\n        /* \"#utility.yul\":13113:13116   */\n      pop\n      pop\n      pop\n        /* \"#utility.yul\":13375:13384   */\n      dup3\n        /* \"#utility.yul\":13368:13373   */\n      dup2\n        /* \"#utility.yul\":13364:13385   */\n      sub\n        /* \"#utility.yul\":13359:13361   */\n      0x40\n        /* \"#utility.yul\":13348:13357   */\n      dup5\n        /* \"#utility.yul\":13344:13362   */\n      add\n        /* \"#utility.yul\":13337:13386   */\n      mstore\n        /* \"#utility.yul\":13403:13445   */\n      tag_871\n        /* \"#utility.yul\":13439:13444   */\n      dup2\n        /* \"#utility.yul\":13431:13437   */\n      dup6\n        /* \"#utility.yul\":13403:13445   */\n      tag_781\n      jump\t// in\n    tag_871:\n        /* \"#utility.yul\":13395:13445   */\n      swap7\n        /* \"#utility.yul\":12086:13451   */\n      swap6\n      pop\n      pop\n      pop\n      pop\n      pop\n      pop\n      jump\t// out\n        /* \"#utility.yul\":13687:14015   */\n    tag_231:\n      sub(shl(0xa0, 0x01), 0x01)\n        /* \"#utility.yul\":13864:13896   */\n      dup4\n      and\n        /* \"#utility.yul\":13846:13897   */\n      dup2\n      mstore\n        /* \"#utility.yul\":13933:13935   */\n      0x40\n        /* \"#utility.yul\":13928:13930   */\n      0x20\n        /* \"#utility.yul\":13913:13931   */\n      dup3\n      add\n        /* \"#utility.yul\":13906:13936   */\n      dup2\n      swap1\n      mstore\n      0x00\n      swap1\n        /* \"#utility.yul\":13953:14009   */\n      tag_797\n      swap1\n        /* \"#utility.yul\":13990:14008   */\n      dup4\n      add\n        /* \"#utility.yul\":13982:13988   */\n      dup5\n        /* \"#utility.yul\":13953:14009   */\n      tag_778\n      jump\t// in\n        /* \"#utility.yul\":14020:15548   */\n    tag_236:\n        /* \"#utility.yul\":14563:14566   */\n      0x0160\n        /* \"#utility.yul\":14552:14561   */\n      dup2\n        /* \"#utility.yul\":14545:14567   */\n      mstore\n        /* \"#utility.yul\":14526:14530   */\n      0x00\n        /* \"#utility.yul\":14590:14647   */\n      tag_877\n        /* \"#utility.yul\":14642:14645   */\n      0x0160\n        /* \"#utility.yul\":14631:14640   */\n      dup4\n        /* \"#utility.yul\":14627:14646   */\n      add\n        /* \"#utility.yul\":14619:14625   */\n      dup15\n        /* \"#utility.yul\":14590:14647   */\n      tag_778\n      jump\t// in\n    tag_877:\n        /* \"#utility.yul\":14695:14704   */\n      dup3\n        /* \"#utility.yul\":14687:14693   */\n      dup2\n        /* \"#utility.yul\":14683:14705   */\n      sub\n        /* \"#utility.yul\":14678:14680   */\n      0x20\n        /* \"#utility.yul\":14667:14676   */\n      dup5\n        /* \"#utility.yul\":14663:14681   */\n      add\n        /* \"#utility.yul\":14656:14706   */\n      mstore\n        /* \"#utility.yul\":14729:14773   */\n      tag_878\n        /* \"#utility.yul\":14766:14772   */\n      dup2\n        /* \"#utility.yul\":14758:14764   */\n      dup15\n        /* \"#utility.yul\":14729:14773   */\n      tag_778\n      jump\t// in\n    tag_878:\n        /* \"#utility.yul\":14715:14773   */\n      swap1\n      pop\n        /* \"#utility.yul\":14821:14830   */\n      dup3\n        /* \"#utility.yul\":14813:14819   */\n      dup2\n        /* \"#utility.yul\":14809:14831   */\n      sub\n        /* \"#utility.yul\":14804:14806   */\n      0x40\n        /* \"#utility.yul\":14793:14802   */\n      dup5\n        /* \"#utility.yul\":14789:14807   */\n      add\n        /* \"#utility.yul\":14782:14832   */\n      mstore\n        /* \"#utility.yul\":14855:14899   */\n      tag_879\n        /* \"#utility.yul\":14892:14898   */\n      dup2\n        /* \"#utility.yul\":14884:14890   */\n      dup14\n        /* \"#utility.yul\":14855:14899   */\n      tag_778\n      jump\t// in\n    tag_879:\n        /* \"#utility.yul\":14841:14899   */\n      swap1\n      pop\n        /* \"#utility.yul\":14935:14941   */\n      dup11\n        /* \"#utility.yul\":14930:14932   */\n      0x60\n        /* \"#utility.yul\":14919:14928   */\n      dup5\n        /* \"#utility.yul\":14915:14933   */\n      add\n        /* \"#utility.yul\":14908:14942   */\n      mstore\n        /* \"#utility.yul\":14979:14985   */\n      dup10\n        /* \"#utility.yul\":14973:14976   */\n      0x80\n        /* \"#utility.yul\":14962:14971   */\n      dup5\n        /* \"#utility.yul\":14958:14977   */\n      add\n        /* \"#utility.yul\":14951:14986   */\n      mstore\n        /* \"#utility.yul\":15035:15044   */\n      dup3\n        /* \"#utility.yul\":15027:15033   */\n      dup2\n        /* \"#utility.yul\":15023:15045   */\n      sub\n        /* \"#utility.yul\":15017:15020   */\n      0xa0\n        /* \"#utility.yul\":15006:15015   */\n      dup5\n        /* \"#utility.yul\":15002:15021   */\n      add\n        /* \"#utility.yul\":14995:15046   */\n      mstore\n        /* \"#utility.yul\":15069:15113   */\n      tag_880\n        /* \"#utility.yul\":15106:15112   */\n      dup2\n        /* \"#utility.yul\":15098:15104   */\n      dup11\n        /* \"#utility.yul\":15069:15113   */\n      tag_778\n      jump\t// in\n    tag_880:\n        /* \"#utility.yul\":15055:15113   */\n      swap1\n      pop\n        /* \"#utility.yul\":15122:15179   */\n      tag_881\n        /* \"#utility.yul\":15174:15177   */\n      0xc0\n        /* \"#utility.yul\":15163:15172   */\n      dup5\n        /* \"#utility.yul\":15159:15178   */\n      add\n        /* \"#utility.yul\":15151:15157   */\n      dup10\n        /* \"#utility.yul\":15122:15179   */\n      tag_777\n      jump\t// in\n    tag_881:\n        /* \"#utility.yul\":15228:15237   */\n      dup3\n        /* \"#utility.yul\":15220:15226   */\n      dup2\n        /* \"#utility.yul\":15216:15238   */\n      sub\n        /* \"#utility.yul\":15210:15213   */\n      0xe0\n        /* \"#utility.yul\":15199:15208   */\n      dup5\n        /* \"#utility.yul\":15195:15214   */\n      add\n        /* \"#utility.yul\":15188:15239   */\n      mstore\n        /* \"#utility.yul\":15262:15306   */\n      tag_882\n        /* \"#utility.yul\":15299:15305   */\n      dup2\n        /* \"#utility.yul\":15291:15297   */\n      dup9\n        /* \"#utility.yul\":15262:15306   */\n      tag_778\n      jump\t// in\n    tag_882:\n      sub(shl(0xa0, 0x01), 0x01)\n        /* \"#utility.yul\":15343:15375   */\n      dup8\n      and\n        /* \"#utility.yul\":15337:15340   */\n      0x0100\n        /* \"#utility.yul\":15322:15341   */\n      dup6\n      add\n        /* \"#utility.yul\":15315:15376   */\n      mstore\n        /* \"#utility.yul\":15413:15435   */\n      dup4\n      dup2\n      sub\n        /* \"#utility.yul\":15407:15410   */\n      0x0120\n        /* \"#utility.yul\":15392:15411   */\n      dup6\n      add\n        /* \"#utility.yul\":15385:15436   */\n      mstore\n        /* \"#utility.yul\":15248:15306   */\n      swap1\n      pop\n        /* \"#utility.yul\":15453:15497   */\n      tag_883\n        /* \"#utility.yul\":15248:15306   */\n      dup2\n        /* \"#utility.yul\":15482:15488   */\n      dup7\n        /* \"#utility.yul\":15453:15497   */\n      tag_778\n      jump\t// in\n    tag_883:\n        /* \"#utility.yul\":15445:15497   */\n      swap2\n      pop\n      pop\n        /* \"#utility.yul\":15534:15541   */\n      dup3\n        /* \"#utility.yul\":15528:15531   */\n      0x0140\n        /* \"#utility.yul\":15517:15526   */\n      dup4\n        /* \"#utility.yul\":15513:15532   */\n      add\n        /* \"#utility.yul\":15506:15542   */\n      mstore\n        /* \"#utility.yul\":14020:15548   */\n      swap13\n      swap12\n      pop\n      pop\n      pop\n      pop\n      pop\n      pop\n      pop\n      pop\n      pop\n      pop\n      pop\n      pop\n      jump\t// out\n        /* \"#utility.yul\":15832:16044   */\n    tag_782:\n        /* \"#utility.yul\":15874:15877   */\n      0x00\n        /* \"#utility.yul\":15912:15917   */\n      dup2\n        /* \"#utility.yul\":15906:15918   */\n      mload\n        /* \"#utility.yul\":15956:15962   */\n      dup1\n        /* \"#utility.yul\":15949:15953   */\n      0x20\n        /* \"#utility.yul\":15942:15947   */\n      dup5\n        /* \"#utility.yul\":15938:15954   */\n      add\n        /* \"#utility.yul\":15933:15936   */\n      dup6\n        /* \"#utility.yul\":15927:15963   */\n      mcopy\n        /* \"#utility.yul\":16018:16019   */\n      0x00\n        /* \"#utility.yul\":15982:15998   */\n      swap4\n      add\n        /* \"#utility.yul\":16007:16020   */\n      swap3\n      dup4\n      mstore\n      pop\n        /* \"#utility.yul\":15982:15998   */\n      swap1\n      swap2\n        /* \"#utility.yul\":15832:16044   */\n      swap1\n      pop\n      jump\t// out\n        /* \"#utility.yul\":16049:16306   */\n    tag_300:\n        /* \"#utility.yul\":16238:16244   */\n      dup3\n        /* \"#utility.yul\":16233:16236   */\n      dup2\n        /* \"#utility.yul\":16226:16245   */\n      mstore\n        /* \"#utility.yul\":16208:16211   */\n      0x00\n        /* \"#utility.yul\":16261:16300   */\n      tag_797\n        /* \"#utility.yul\":16296:16298   */\n      0x20\n        /* \"#utility.yul\":16291:16294   */\n      dup4\n        /* \"#utility.yul\":16287:16299   */\n      add\n        /* \"#utility.yul\":16279:16285   */\n      dup5\n        /* \"#utility.yul\":16261:16300   */\n      tag_782\n      jump\t// in\n        /* \"#utility.yul\":16590:16970   */\n    tag_305:\n        /* \"#utility.yul\":16669:16670   */\n      0x01\n        /* \"#utility.yul\":16665:16677   */\n      dup2\n      dup2\n      shr\n      swap1\n        /* \"#utility.yul\":16712:16724   */\n      dup3\n      and\n      dup1\n        /* \"#utility.yul\":16733:16794   */\n      tag_890\n      jumpi\n        /* \"#utility.yul\":16787:16791   */\n      0x7f\n        /* \"#utility.yul\":16779:16785   */\n      dup3\n        /* \"#utility.yul\":16775:16792   */\n      and\n        /* \"#utility.yul\":16765:16792   */\n      swap2\n      pop\n        /* \"#utility.yul\":16733:16794   */\n    tag_890:\n        /* \"#utility.yul\":16840:16842   */\n      0x20\n        /* \"#utility.yul\":16832:16838   */\n      dup3\n        /* \"#utility.yul\":16829:16843   */\n      lt\n        /* \"#utility.yul\":16809:16827   */\n      dup2\n        /* \"#utility.yul\":16806:16844   */\n      sub\n        /* \"#utility.yul\":16803:16964   */\n      tag_891\n      jumpi\n        /* \"#utility.yul\":16886:16896   */\n      0x4e487b71\n        /* \"#utility.yul\":16881:16884   */\n      0xe0\n        /* \"#utility.yul\":16877:16897   */\n      shl\n        /* \"#utility.yul\":16874:16875   */\n      0x00\n        /* \"#utility.yul\":16867:16898   */\n      mstore\n        /* \"#utility.yul\":16921:16925   */\n      0x22\n        /* \"#utility.yul\":16918:16919   */\n      0x04\n        /* \"#utility.yul\":16911:16926   */\n      mstore\n        /* \"#utility.yul\":16949:16953   */\n      0x24\n        /* \"#utility.yul\":16946:16947   */\n      0x00\n        /* \"#utility.yul\":16939:16954   */\n      revert\n        /* \"#utility.yul\":16803:16964   */\n    tag_891:\n      pop\n        /* \"#utility.yul\":16590:16970   */\n      swap2\n      swap1\n      pop\n      jump\t// out\n        /* \"#utility.yul\":17101:17619   */\n    tag_784:\n        /* \"#utility.yul\":17203:17205   */\n      0x1f\n        /* \"#utility.yul\":17198:17201   */\n      dup3\n        /* \"#utility.yul\":17195:17206   */\n      gt\n        /* \"#utility.yul\":17192:17613   */\n      iszero\n      tag_894\n      jumpi\n        /* \"#utility.yul\":17239:17244   */\n      dup1\n        /* \"#utility.yul\":17236:17237   */\n      0x00\n        /* \"#utility.yul\":17229:17245   */\n      mstore\n        /* \"#utility.yul\":17283:17287   */\n      0x20\n        /* \"#utility.yul\":17280:17281   */\n      0x00\n        /* \"#utility.yul\":17270:17288   */\n      keccak256\n        /* \"#utility.yul\":17353:17355   */\n      0x1f\n        /* \"#utility.yul\":17341:17351   */\n      dup5\n        /* \"#utility.yul\":17337:17356   */\n      add\n        /* \"#utility.yul\":17334:17335   */\n      0x05\n        /* \"#utility.yul\":17330:17357   */\n      shr\n        /* \"#utility.yul\":17324:17328   */\n      dup2\n        /* \"#utility.yul\":17320:17358   */\n      add\n        /* \"#utility.yul\":17389:17393   */\n      0x20\n        /* \"#utility.yul\":17377:17387   */\n      dup6\n        /* \"#utility.yul\":17374:17394   */\n      lt\n        /* \"#utility.yul\":17371:17418   */\n      iszero\n      tag_895\n      jumpi\n      pop\n        /* \"#utility.yul\":17412:17416   */\n      dup1\n        /* \"#utility.yul\":17371:17418   */\n    tag_895:\n        /* \"#utility.yul\":17467:17469   */\n      0x1f\n        /* \"#utility.yul\":17462:17465   */\n      dup5\n        /* \"#utility.yul\":17458:17470   */\n      add\n        /* \"#utility.yul\":17455:17456   */\n      0x05\n        /* \"#utility.yul\":17451:17471   */\n      shr\n        /* \"#utility.yul\":17445:17449   */\n      dup3\n        /* \"#utility.yul\":17441:17472   */\n      add\n        /* \"#utility.yul\":17431:17472   */\n      swap2\n      pop\n        /* \"#utility.yul\":17522:17603   */\n    tag_896:\n        /* \"#utility.yul\":17540:17542   */\n      dup2\n        /* \"#utility.yul\":17533:17538   */\n      dup2\n        /* \"#utility.yul\":17530:17543   */\n      lt\n        /* \"#utility.yul\":17522:17603   */\n      iszero\n      tag_898\n      jumpi\n        /* \"#utility.yul\":17599:17600   */\n      0x00\n        /* \"#utility.yul\":17585:17601   */\n      dup2\n      sstore\n        /* \"#utility.yul\":17566:17567   */\n      0x01\n        /* \"#utility.yul\":17555:17568   */\n      add\n        /* \"#utility.yul\":17522:17603   */\n      jump(tag_896)\n    tag_898:\n        /* \"#utility.yul\":17526:17529   */\n      pop\n      pop\n        /* \"#utility.yul\":17192:17613   */\n    tag_894:\n        /* \"#utility.yul\":17101:17619   */\n      pop\n      pop\n      pop\n      jump\t// out\n        /* \"#utility.yul\":17795:19094   */\n    tag_326:\n        /* \"#utility.yul\":17921:17924   */\n      dup2\n        /* \"#utility.yul\":17915:17925   */\n      mload\n      sub(shl(0x40, 0x01), 0x01)\n        /* \"#utility.yul\":17940:17946   */\n      dup2\n        /* \"#utility.yul\":17937:17967   */\n      gt\n        /* \"#utility.yul\":17934:17990   */\n      iszero\n      tag_902\n      jumpi\n        /* \"#utility.yul\":17970:17988   */\n      tag_902\n      tag_515\n      jump\t// in\n    tag_902:\n        /* \"#utility.yul\":17999:18096   */\n      tag_903\n        /* \"#utility.yul\":18089:18095   */\n      dup2\n        /* \"#utility.yul\":18049:18087   */\n      tag_904\n        /* \"#utility.yul\":18081:18085   */\n      dup5\n        /* \"#utility.yul\":18075:18086   */\n      sload\n        /* \"#utility.yul\":18049:18087   */\n      tag_305\n      jump\t// in\n    tag_904:\n        /* \"#utility.yul\":18043:18047   */\n      dup5\n        /* \"#utility.yul\":17999:18096   */\n      tag_784\n      jump\t// in\n    tag_903:\n        /* \"#utility.yul\":18145:18149   */\n      0x20\n        /* \"#utility.yul\":18176:18178   */\n      0x1f\n        /* \"#utility.yul\":18165:18179   */\n      dup3\n      gt\n        /* \"#utility.yul\":18193:18194   */\n      0x01\n        /* \"#utility.yul\":18188:18837   */\n      dup2\n      eq\n      tag_906\n      jumpi\n        /* \"#utility.yul\":18881:18882   */\n      0x00\n        /* \"#utility.yul\":18898:18904   */\n      dup4\n        /* \"#utility.yul\":18895:18984   */\n      iszero\n      tag_907\n      jumpi\n      pop\n        /* \"#utility.yul\":18950:18969   */\n      dup5\n      dup3\n      add\n        /* \"#utility.yul\":18944:18970   */\n      mload\n        /* \"#utility.yul\":18895:18984   */\n    tag_907:\n      not(0x00)\n        /* \"#utility.yul\":17752:17753   */\n      0x03\n        /* \"#utility.yul\":17748:17759   */\n      dup6\n      swap1\n      shl\n        /* \"#utility.yul\":17744:17768   */\n      shr\n        /* \"#utility.yul\":17740:17769   */\n      not\n        /* \"#utility.yul\":17730:17770   */\n      and\n        /* \"#utility.yul\":17776:17777   */\n      0x01\n        /* \"#utility.yul\":17772:17783   */\n      dup5\n      swap1\n      shl\n        /* \"#utility.yul\":17727:17784   */\n      or\n        /* \"#utility.yul\":18997:19078   */\n      dup5\n      sstore\n        /* \"#utility.yul\":18158:19088   */\n      jump(tag_898)\n        /* \"#utility.yul\":18188:18837   */\n    tag_906:\n        /* \"#utility.yul\":17048:17049   */\n      0x00\n        /* \"#utility.yul\":17041:17055   */\n      dup5\n      dup2\n      mstore\n        /* \"#utility.yul\":17085:17089   */\n      0x20\n        /* \"#utility.yul\":17072:17090   */\n      dup2\n      keccak256\n      not(0x1f)\n        /* \"#utility.yul\":18224:18244   */\n      dup6\n      and\n      swap2\n        /* \"#utility.yul\":18342:18564   */\n    tag_910:\n        /* \"#utility.yul\":18356:18363   */\n      dup3\n        /* \"#utility.yul\":18353:18354   */\n      dup2\n        /* \"#utility.yul\":18350:18364   */\n      lt\n        /* \"#utility.yul\":18342:18564   */\n      iszero\n      tag_912\n      jumpi\n        /* \"#utility.yul\":18438:18457   */\n      dup8\n      dup6\n      add\n        /* \"#utility.yul\":18432:18458   */\n      mload\n        /* \"#utility.yul\":18417:18459   */\n      dup3\n      sstore\n        /* \"#utility.yul\":18545:18549   */\n      0x20\n        /* \"#utility.yul\":18530:18550   */\n      swap5\n      dup6\n      add\n      swap5\n        /* \"#utility.yul\":18498:18499   */\n      0x01\n        /* \"#utility.yul\":18486:18500   */\n      swap1\n      swap3\n      add\n      swap2\n        /* \"#utility.yul\":18372:18384   */\n      add\n        /* \"#utility.yul\":18342:18564   */\n      jump(tag_910)\n    tag_912:\n        /* \"#utility.yul\":18346:18349   */\n      pop\n        /* \"#utility.yul\":18592:18598   */\n      dup5\n        /* \"#utility.yul\":18583:18590   */\n      dup3\n        /* \"#utility.yul\":18580:18599   */\n      lt\n        /* \"#utility.yul\":18577:18778   */\n      iszero\n      tag_913\n      jumpi\n        /* \"#utility.yul\":18653:18672   */\n      dup7\n      dup5\n      add\n        /* \"#utility.yul\":18647:18673   */\n      mload\n      not(0x00)\n        /* \"#utility.yul\":18736:18737   */\n      0x03\n        /* \"#utility.yul\":18732:18746   */\n      dup8\n      swap1\n      shl\n        /* \"#utility.yul\":18748:18751   */\n      0xf8\n        /* \"#utility.yul\":18728:18752   */\n      and\n        /* \"#utility.yul\":18724:18761   */\n      shr\n        /* \"#utility.yul\":18720:18762   */\n      not\n        /* \"#utility.yul\":18705:18763   */\n      and\n        /* \"#utility.yul\":18690:18764   */\n      dup2\n      sstore\n        /* \"#utility.yul\":18577:18778   */\n    tag_913:\n      pop\n      pop\n      pop\n      pop\n        /* \"#utility.yul\":18824:18825   */\n      0x01\n        /* \"#utility.yul\":18808:18822   */\n      swap1\n      dup2\n      shl\n        /* \"#utility.yul\":18804:18826   */\n      add\n        /* \"#utility.yul\":18791:18827   */\n      swap1\n      sstore\n      pop\n        /* \"#utility.yul\":17795:19094   */\n      jump\t// out\n        /* \"#utility.yul\":19099:19226   */\n    tag_407:\n        /* \"#utility.yul\":19160:19170   */\n      0x4e487b71\n        /* \"#utility.yul\":19155:19158   */\n      0xe0\n        /* \"#utility.yul\":19151:19171   */\n      shl\n        /* \"#utility.yul\":19148:19149   */\n      0x00\n        /* \"#utility.yul\":19141:19172   */\n      mstore\n        /* \"#utility.yul\":19191:19195   */\n      0x32\n        /* \"#utility.yul\":19188:19189   */\n      0x04\n        /* \"#utility.yul\":19181:19196   */\n      mstore\n        /* \"#utility.yul\":19215:19219   */\n      0x24\n        /* \"#utility.yul\":19212:19213   */\n      0x00\n        /* \"#utility.yul\":19205:19220   */\n      revert\n        /* \"#utility.yul\":19231:19592   */\n    tag_474:\n        /* \"#utility.yul\":19438:19441   */\n      0x00\n        /* \"#utility.yul\":19469:19526   */\n      tag_916\n        /* \"#utility.yul\":19495:19525   */\n      tag_917\n        /* \"#utility.yul\":19521:19524   */\n      dup4\n        /* \"#utility.yul\":19513:19519   */\n      dup8\n        /* \"#utility.yul\":19495:19525   */\n      tag_782\n      jump\t// in\n    tag_917:\n        /* \"#utility.yul\":19487:19493   */\n      dup6\n        /* \"#utility.yul\":19469:19526   */\n      tag_782\n      jump\t// in\n    tag_916:\n        /* \"#utility.yul\":19535:19556   */\n      swap3\n      dup4\n      mstore\n      pop\n      pop\n        /* \"#utility.yul\":19583:19585   */\n      0x20\n        /* \"#utility.yul\":19572:19586   */\n      add\n      swap3\n        /* \"#utility.yul\":19231:19592   */\n      swap2\n      pop\n      pop\n      jump\t// out\n        /* \"#utility.yul\":19597:20146   */\n    tag_500:\n        /* \"#utility.yul\":19850:19853   */\n      0x80\n        /* \"#utility.yul\":19839:19848   */\n      dup2\n        /* \"#utility.yul\":19832:19854   */\n      mstore\n        /* \"#utility.yul\":19813:19817   */\n      0x00\n        /* \"#utility.yul\":19877:19934   */\n      tag_919\n        /* \"#utility.yul\":19929:19932   */\n      0x80\n        /* \"#utility.yul\":19918:19927   */\n      dup4\n        /* \"#utility.yul\":19914:19933   */\n      add\n        /* \"#utility.yul\":19906:19912   */\n      dup8\n        /* \"#utility.yul\":19877:19934   */\n      tag_778\n      jump\t// in\n    tag_919:\n        /* \"#utility.yul\":19982:19991   */\n      dup3\n        /* \"#utility.yul\":19974:19980   */\n      dup2\n        /* \"#utility.yul\":19970:19992   */\n      sub\n        /* \"#utility.yul\":19965:19967   */\n      0x20\n        /* \"#utility.yul\":19954:19963   */\n      dup5\n        /* \"#utility.yul\":19950:19968   */\n      add\n        /* \"#utility.yul\":19943:19993   */\n      mstore\n        /* \"#utility.yul\":20010:20054   */\n      tag_920\n        /* \"#utility.yul\":20047:20053   */\n      dup2\n        /* \"#utility.yul\":20039:20045   */\n      dup8\n        /* \"#utility.yul\":20010:20054   */\n      tag_778\n      jump\t// in\n    tag_920:\n        /* \"#utility.yul\":20085:20087   */\n      0x40\n        /* \"#utility.yul\":20070:20088   */\n      dup5\n      add\n        /* \"#utility.yul\":20063:20097   */\n      swap6\n      swap1\n      swap6\n      mstore\n      pop\n      pop\n        /* \"#utility.yul\":20128:20130   */\n      0x60\n        /* \"#utility.yul\":20113:20131   */\n      add\n        /* \"#utility.yul\":20106:20140   */\n      mstore\n        /* \"#utility.yul\":20002:20054   */\n      swap3\n        /* \"#utility.yul\":19597:20146   */\n      swap2\n      pop\n      pop\n      jump\t// out\n        /* \"#utility.yul\":20614:20741   */\n    tag_786:\n        /* \"#utility.yul\":20675:20685   */\n      0x4e487b71\n        /* \"#utility.yul\":20670:20673   */\n      0xe0\n        /* \"#utility.yul\":20666:20686   */\n      shl\n        /* \"#utility.yul\":20663:20664   */\n      0x00\n        /* \"#utility.yul\":20656:20687   */\n      mstore\n        /* \"#utility.yul\":20706:20710   */\n      0x11\n        /* \"#utility.yul\":20703:20704   */\n      0x04\n        /* \"#utility.yul\":20696:20711   */\n      mstore\n        /* \"#utility.yul\":20730:20734   */\n      0x24\n        /* \"#utility.yul\":20727:20728   */\n      0x00\n        /* \"#utility.yul\":20720:20735   */\n      revert\n        /* \"#utility.yul\":20746:20871   */\n    tag_676:\n        /* \"#utility.yul\":20811:20820   */\n      dup1\n      dup3\n      add\n        /* \"#utility.yul\":20832:20842   */\n      dup1\n      dup3\n      gt\n        /* \"#utility.yul\":20829:20865   */\n      iszero\n      tag_625\n      jumpi\n        /* \"#utility.yul\":20845:20863   */\n      tag_625\n      tag_786\n      jump\t// in\n        /* \"#utility.yul\":20876:21011   */\n    tag_680:\n        /* \"#utility.yul\":20915:20918   */\n      0x00\n        /* \"#utility.yul\":20936:20953   */\n      0x01\n      dup3\n      add\n        /* \"#utility.yul\":20933:20976   */\n      tag_929\n      jumpi\n        /* \"#utility.yul\":20956:20974   */\n      tag_929\n      tag_786\n      jump\t// in\n    tag_929:\n      pop\n        /* \"#utility.yul\":21003:21004   */\n      0x01\n        /* \"#utility.yul\":20992:21005   */\n      add\n      swap1\n        /* \"#utility.yul\":20876:21011   */\n      jump\t// out\n        /* \"#utility.yul\":21016:21184   */\n    tag_686:\n        /* \"#utility.yul\":21089:21098   */\n      dup1\n      dup3\n      mul\n        /* \"#utility.yul\":21120:21129   */\n      dup2\n      iszero\n        /* \"#utility.yul\":21137:21152   */\n      dup3\n      dup3\n      div\n        /* \"#utility.yul\":21131:21153   */\n      dup5\n      eq\n        /* \"#utility.yul\":21117:21154   */\n      or\n        /* \"#utility.yul\":21107:21178   */\n      tag_625\n      jumpi\n        /* \"#utility.yul\":21158:21176   */\n      tag_625\n      tag_786\n      jump\t// in\n        /* \"#utility.yul\":21189:21317   */\n    tag_692:\n        /* \"#utility.yul\":21256:21265   */\n      dup2\n      dup2\n      sub\n        /* \"#utility.yul\":21277:21288   */\n      dup2\n      dup2\n      gt\n        /* \"#utility.yul\":21274:21311   */\n      iszero\n      tag_625\n      jumpi\n        /* \"#utility.yul\":21291:21309   */\n      tag_625\n      tag_786\n      jump\t// in\n        /* \"#utility.yul\":21322:21449   */\n    tag_787:\n        /* \"#utility.yul\":21383:21393   */\n      0x4e487b71\n        /* \"#utility.yul\":21378:21381   */\n      0xe0\n        /* \"#utility.yul\":21374:21394   */\n      shl\n        /* \"#utility.yul\":21371:21372   */\n      0x00\n        /* \"#utility.yul\":21364:21395   */\n      mstore\n        /* \"#utility.yul\":21414:21418   */\n      0x12\n        /* \"#utility.yul\":21411:21412   */\n      0x04\n        /* \"#utility.yul\":21404:21419   */\n      mstore\n        /* \"#utility.yul\":21438:21442   */\n      0x24\n        /* \"#utility.yul\":21435:21436   */\n      0x00\n        /* \"#utility.yul\":21428:21443   */\n      revert\n        /* \"#utility.yul\":21454:21574   */\n    tag_694:\n        /* \"#utility.yul\":21494:21495   */\n      0x00\n        /* \"#utility.yul\":21520:21521   */\n      dup3\n        /* \"#utility.yul\":21510:21545   */\n      tag_939\n      jumpi\n        /* \"#utility.yul\":21525:21543   */\n      tag_939\n      tag_787\n      jump\t// in\n    tag_939:\n      pop\n        /* \"#utility.yul\":21559:21568   */\n      div\n      swap1\n        /* \"#utility.yul\":21454:21574   */\n      jump\t// out\n        /* \"#utility.yul\":21579:21715   */\n    tag_725:\n        /* \"#utility.yul\":21614:21617   */\n      0x00\n      shl(0xff, 0x01)\n        /* \"#utility.yul\":21635:21657   */\n      dup3\n      add\n        /* \"#utility.yul\":21632:21680   */\n      tag_942\n      jumpi\n        /* \"#utility.yul\":21660:21678   */\n      tag_942\n      tag_786\n      jump\t// in\n    tag_942:\n      pop\n        /* \"#utility.yul\":21700:21701   */\n      0x00\n        /* \"#utility.yul\":21696:21709   */\n      sub\n      swap1\n        /* \"#utility.yul\":21579:21715   */\n      jump\t// out\n        /* \"#utility.yul\":21720:21882   */\n    tag_730:\n        /* \"#utility.yul\":21751:21752   */\n      0x00\n        /* \"#utility.yul\":21785:21791   */\n      0xffff\n        /* \"#utility.yul\":21782:21783   */\n      dup4\n        /* \"#utility.yul\":21778:21792   */\n      and\n        /* \"#utility.yul\":21811:21814   */\n      dup1\n        /* \"#utility.yul\":21801:21838   */\n      tag_945\n      jumpi\n        /* \"#utility.yul\":21818:21836   */\n      tag_945\n      tag_787\n      jump\t// in\n    tag_945:\n        /* \"#utility.yul\":21872:21875   */\n      dup1\n        /* \"#utility.yul\":21863:21869   */\n      0xffff\n        /* \"#utility.yul\":21860:21861   */\n      dup5\n        /* \"#utility.yul\":21856:21870   */\n      and\n        /* \"#utility.yul\":21852:21876   */\n      mod\n        /* \"#utility.yul\":21847:21876   */\n      swap2\n      pop\n      pop\n        /* \"#utility.yul\":21720:21882   */\n      swap3\n      swap2\n      pop\n      pop\n      jump\t// out\n        /* \"#utility.yul\":21887:22045   */\n    tag_764:\n        /* \"#utility.yul\":21980:21986   */\n      0xffff\n        /* \"#utility.yul\":21973:21987   */\n      dup3\n      dup2\n      and\n        /* \"#utility.yul\":21957:21971   */\n      dup3\n      dup3\n      and\n        /* \"#utility.yul\":21953:21988   */\n      sub\n      swap1\n        /* \"#utility.yul\":22000:22016   */\n      dup2\n      gt\n        /* \"#utility.yul\":21997:22039   */\n      iszero\n      tag_625\n      jumpi\n        /* \"#utility.yul\":22019:22037   */\n      tag_625\n      tag_786\n      jump\t// in\n\n    auxdata: 0xa2646970667358221220e1c2bedb54743d2ef97aa0643b1ba9032f98845adacff0c0a071b94eb3e5f26e64736f6c634300081f0033\n}\n",
				"bytecode": {
					"linkReferences": {},
					"object": "60806040525f80546001600160a01b031916331790556139c5806100225f395ff3fe608060405260043610610254575f3560e01c8063808e52cf1161013f578063bd097e21116100b3578063d3584e8411610078578063d3584e84146107cd578063dfbf53ae146107ec578063e3c608ef1461080e578063ed2cee9e14610839578063f851a44014610858578063fa1380b814610876575f5ffd5b8063bd097e2114610770578063c63735b314610778578063c87da02d14610791578063d0112863146107a5578063d116c8c4146107b9575f5ffd5b8063905249a311610104578063905249a3146106b857806390c7825a146106d75780639134e02b14610704578063a4a0014414610723578063b6cf8a3514610738578063b6f3d2561461075b575f5ffd5b8063808e52cf146105845780638899b7cc146105a75780638c257ef8146105db5780638c3d7301146105fa5780638d07ae9f1461060e575f5ffd5b80634c5aed38116101d6578063592fd0281161019b578063592fd0281461047557806362ea82db146104895780636cb55d1a146105085780636f9fb98a1461053457806375829def146105465780637bd2a5da14610565575f5ffd5b80634c5aed38146103f05780634cc4f50d1461040f5780634e5cbf611461042357806353321ae6146104425780635459b48e14610461575f5ffd5b806326bd89261161021c57806326bd89261461030e5780632e9e8e591461032f578063356e7ccb1461035257806336dc1a881461039057806343902707146103af575f5ffd5b80630bd58917146102585780630bf3676714610279578063200d2ed21461028d5780632163b8c5146102b857806326782247146102d7575b5f5ffd5b348015610263575f5ffd5b5061027761027236600461305e565b610895565b005b348015610284575f5ffd5b506102776109bf565b348015610298575f5ffd5b506102a1610aab565b6040516102af9291906130d7565b60405180910390f35b3480156102c3575f5ffd5b506102776102d236600461319b565b610ace565b3480156102e2575f5ffd5b506001546102f6906001600160a01b031681565b6040516001600160a01b0390911681526020016102af565b348015610319575f5ffd5b50610322610c74565b6040516102af91906131de565b34801561033a575f5ffd5b5061034460105481565b6040519081526020016102af565b34801561035d575f5ffd5b5061038061036c366004613212565b600a6020525f908152604090205460ff1681565b60405190151581526020016102af565b34801561039b575f5ffd5b506102776103aa36600461322b565b610d00565b3480156103ba575f5ffd5b506103c3610eef565b604080519687526020870195909552938501929092526060840152608083015260a082015260c0016102af565b3480156103fb575f5ffd5b5061027761040a36600461325f565b610f3f565b34801561041a575f5ffd5b50610344606481565b34801561042e575f5ffd5b5061027761043d366004613212565b611068565b34801561044d575f5ffd5b5061027761045c36600461305e565b6111c0565b34801561046c575f5ffd5b50610322611376565b348015610480575f5ffd5b50610277611394565b348015610494575f5ffd5b506104d76104a3366004613212565b600c6020525f90815260409020805460018201546002830154600390930154919260ff808316936101009093048116921685565b6040516102af9594939291909485529215156020850152901515604084015260608301521515608082015260a00190565b348015610513575f5ffd5b5061051c611588565b6040516102af9c9b9a99989796959493929190613290565b34801561053f575f5ffd5b5047610344565b348015610551575f5ffd5b50610277610560366004613212565b61183b565b348015610570575f5ffd5b5061027761057f36600461305e565b61190a565b34801561058f575f5ffd5b50610598611a2c565b6040516102af93929190613328565b3480156105b2575f5ffd5b506105c66105c136600461335a565b611ae9565b604080519283526020830191909152016102af565b3480156105e6575f5ffd5b506105c66105f536600461335a565b611ba4565b348015610605575f5ffd5b50610277611bfc565b348015610619575f5ffd5b50610694610628366004613212565b6001600160a01b03165f908152600c6020908152604091829020825160a08101845281548152600182015460ff80821615159483018590526101009091048116151594820185905260028301546060830181905260039093015416151560809091018190529193909190565b604080519415158552921515602085015291830152151560608201526080016102af565b3480156106c3575f5ffd5b506102776106d23660046133ef565b611c80565b3480156106e2575f5ffd5b506106f66106f1366004613212565b611e2a565b6040516102af9291906134e7565b34801561070f575f5ffd5b5061032261071e366004613212565b611ee8565b34801561072e575f5ffd5b5061034460115481565b348015610743575f5ffd5b5061074c611f00565b6040516102af9392919061355b565b348015610766575f5ffd5b50610344600f5481565b61027761212b565b348015610783575f5ffd5b506013546103809060ff1681565b34801561079c575f5ffd5b50600d54610344565b3480156107b0575f5ffd5b50610277612191565b3480156107c4575f5ffd5b506102776122a0565b3480156107d8575f5ffd5b506102f66107e736600461305e565b6124e1565b3480156107f7575f5ffd5b50610800612509565b6040516102af9291906135f7565b348015610819575f5ffd5b506108226125bd565b6040516102af9b9a9998979695949392919061361a565b348015610844575f5ffd5b506002546102f6906001600160a01b031681565b348015610863575f5ffd5b505f546102f6906001600160a01b031681565b348015610881575f5ffd5b5061034461089036600461319b565b6128f0565b6002546001600160a01b03166108be5760405163d6ea366360e01b815260040160405180910390fd5b6002546001600160a01b031633146108e957604051639864fbb360e01b815260040160405180910390fd5b60095460ff1661090c576040516355e9e64160e11b815260040160405180910390fd5b600480600254600160a01b900460ff16600781111561092d5761092d613075565b1461094b57604051630187fa8360e61b815260040160405180910390fd5b816109695760405163a60d7f3960e01b815260040160405180910390fd5b60118290556002805460ff60a01b1916600360a11b17905560408051338152602081018490527fef94af06cfa9a76c638dd1a1cfb86b07f938febf05374e3675aeced1f805205e91015b60405180910390a15050565b5f546001600160a01b031633146109e957604051634755657960e01b815260040160405180910390fd5b60095460ff16610a0c576040516355e9e64160e11b815260040160405180910390fd5b600654421015610a2f57604051633efbccb160e01b815260040160405180910390fd5b5f80600254600160a01b900460ff166007811115610a4f57610a4f613075565b14610a6d57604051630187fa8360e61b815260040160405180910390fd5b6002805460ff60a01b1916600160a01b1790556040517f2fd2f8fcbb75b0a142d3952ad3f5e92dd16aab6c8bbbd304bdb97066b33c062c905f90a150565b6002545f90606090600160a01b900460ff16610ac681612951565b915091509091565b60095460ff16610af1576040516355e9e64160e11b815260040160405180910390fd5b335f908152600a602052604090205460ff16610b20576040516302f9ce3760e51b815260040160405180910390fd5b600180600254600160a01b900460ff166007811115610b4157610b41613075565b14610b5f57604051630187fa8360e61b815260040160405180910390fd5b335f908152600c60205260409020600181015460ff16610b92576040516351f3783160e11b815260040160405180910390fd5b6001810154610100900460ff1615610bbd57604051638509cf4f60e01b815260040160405180910390fd5b5f8484604051602001610bd19291906136eb565b604051602081830303815290604052805190602001209050815f01548114610c0c5760405163f0f96d3560e01b815260040160405180910390fd5b6001828101805461ff0019166101001790556002830186905560038301805460ff1916909117905560408051338152602081018790527f9891bd98143d5a2c5f29be9a7ef8e5d7b723746fb3b75220234af7aa6caeecfe910160405180910390a15050505050565b60128054610c81906136fc565b80601f0160208091040260200160405190810160405280929190818152602001828054610cad906136fc565b8015610cf85780601f10610ccf57610100808354040283529160200191610cf8565b820191905f5260205f20905b815481529060010190602001808311610cdb57829003601f168201915b505050505081565b5f546001600160a01b03163314610d2a57604051634755657960e01b815260040160405180910390fd5b60095460ff16610d4d576040516355e9e64160e11b815260040160405180910390fd5b5f80600254600160a01b900460ff166007811115610d6d57610d6d613075565b14610d8b57604051630187fa8360e61b815260040160405180910390fd5b6001600160a01b038316610db25760405163e6c4247b60e01b815260040160405180910390fd5b6001600160a01b0383165f908152600a602052604090205460ff1615610deb57604051636a7c46f760e11b815260040160405180910390fd5b81515f03610e0c57604051633e61080d60e01b815260040160405180910390fd5b600d54606411610e2f57604051635b7d9a0d60e01b815260040160405180910390fd5b6001600160a01b0383165f908152600a60209081526040808320805460ff19166001179055600b9091529020610e658382613780565b50600d80546001810182555f919091527fd7b6990105719101dabeb77144f2a3385c8033acd3af97e9423a695e81ad1eb50180546001600160a01b0319166001600160a01b0385161790556040517f164b6120673b4b59137ef128c1c6d39e2de27d8baa1ddeda0db16ea4e15e97f690610ee290859085906135f7565b60405180910390a1505050565b6009545f908190819081908190819060ff16610f1e576040516355e9e64160e11b815260040160405180910390fd5b600654610f2a90612b5b565b6006549b949a50929850909650945092509050565b6002546001600160a01b0316610f685760405163d6ea366360e01b815260040160405180910390fd5b6002546001600160a01b03163314610f9357604051639864fbb360e01b815260040160405180910390fd5b60095460ff16610fb6576040516355e9e64160e11b815260040160405180910390fd5b600480600254600160a01b900460ff166007811115610fd757610fd7613075565b14610ff557604051630187fa8360e61b815260040160405180910390fd5b81515f036110165760405163bc7fd33160e01b815260040160405180910390fd5b60126110228382613780565b506002805460ff60a01b1916600560a01b1790556040517f52fca0fcdda16f4a5f819b60bb9c2f99458433351b90e6fcb3e221fe03b10280906109b390339085906135f7565b5f546001600160a01b0316331461109257604051634755657960e01b815260040160405180910390fd5b60095460ff166110b5576040516355e9e64160e11b815260040160405180910390fd5b6001600160a01b0381166110dc5760405163e6c4247b60e01b815260040160405180910390fd5b6006600254600160a01b900460ff1660078111156110fc576110fc613075565b148061112557506005600254600160a01b900460ff16600781111561112357611123613075565b145b8061114d57506007600254600160a01b900460ff16600781111561114b5761114b613075565b145b1561116b57604051632a28912d60e11b815260040160405180910390fd5b600280546001600160a01b0319166001600160a01b0383169081179091556040519081527fc7b11d63d071f03c4b488a3a44ee58c8a449f16b0ee289dd25af95c15c9f8e3a906020015b60405180910390a150565b60095460ff166111e3576040516355e9e64160e11b815260040160405180910390fd5b335f908152600a602052604090205460ff16611212576040516302f9ce3760e51b815260040160405180910390fd5b60065442106112345760405163764b8e3360e11b815260040160405180910390fd5b5f80600254600160a01b900460ff16600781111561125457611254613075565b1461127257604051630187fa8360e61b815260040160405180910390fd5b335f908152600c602052604090206001015460ff16156112a5576040516318f3c2ef60e11b815260040160405180910390fd5b816112c357604051631fda924160e31b815260040160405180910390fd5b6040805160a081018252838152600160208083018281525f848601818152606086018281526080870183815233808552600c8752938990209751885593519587018054925161ffff1990931696151561ff00191696909617610100921515929092029190911790945592516002850155516003909301805460ff19169315159390931790925591519182527f88c5a0d081e0c7a69b5817581ffa85b19d71703bc581bb5c09fa253c527a055e91016109b3565b60025460609061138f90600160a01b900460ff16612951565b905090565b5f546001600160a01b031633146113be57604051634755657960e01b815260040160405180910390fd5b60095460ff166113e1576040516355e9e64160e11b815260040160405180910390fd5b600180600254600160a01b900460ff16600781111561140257611402613075565b1461142057604051630187fa8360e61b815260040160405180910390fd5b600d545f905f1990825b818110156114ea575f600d82815481106114465761144661383a565b5f9182526020808320909101546001600160a01b0316808352600c8252604092839020835160a08101855281548152600182015460ff808216151595830195909552610100900484161515948101949094526002810154606085015260030154909116158015608084018190529193506114c1575080604001515b80156114d05750848160600151105b156114e057806060015194508195505b505060010161142a565b506001600160a01b038316611512576040516313b9371b60e11b815260040160405180910390fd5b600e80546001600160a01b0319166001600160a01b038516908117909155600f8390556002805460ff60a01b1916600160a11b179055604080519182526020820184905280517f44a8e45b0547725a1b190fe91fba127f673b8cec941ceaf8b3e2e67d61055dfe9281900390910190a150505050565b60608060605f5f5f5f5f5f5f60605f6115a46003800154612b5b565b809850819950829a50839b50849c50505050505060035f016003600101600360020160038001548b8b8b8b8b600360040154600360050160036006015f9054906101000a900460ff168b80546115f9906136fc565b80601f0160208091040260200160405190810160405280929190818152602001828054611625906136fc565b80156116705780601f1061164757610100808354040283529160200191611670565b820191905f5260205f20905b81548152906001019060200180831161165357829003601f168201915b50505050509b508a8054611683906136fc565b80601f01602080910402602001604051908101604052809291908181526020018280546116af906136fc565b80156116fa5780601f106116d1576101008083540402835291602001916116fa565b820191905f5260205f20905b8154815290600101906020018083116116dd57829003601f168201915b50505050509a5089805461170d906136fc565b80601f0160208091040260200160405190810160405280929190818152602001828054611739906136fc565b80156117845780601f1061175b57610100808354040283529160200191611784565b820191905f5260205f20905b81548152906001019060200180831161176757829003601f168201915b50505050509950818054611797906136fc565b80601f01602080910402602001604051908101604052809291908181526020018280546117c3906136fc565b801561180e5780601f106117e55761010080835404028352916020019161180e565b820191905f5260205f20905b8154815290600101906020018083116117f157829003601f168201915b505050505091509b509b509b509b509b509b509b509b509b509b509b509b50909192939495969798999a9b565b5f546001600160a01b0316331461186557604051634755657960e01b815260040160405180910390fd5b6001600160a01b03811661188c5760405163e6c4247b60e01b815260040160405180910390fd5b5f546001600160a01b03908116908216036118ba57604051632263673f60e21b815260040160405180910390fd5b600180546001600160a01b0319166001600160a01b038381169182179092555f8054604051929316917fb4d7bcb4d9a5d6ef6e827e3b1554e5a2578ad9ca843903d42b05d08bfa3458949190a350565b60095460ff1661192d576040516355e9e64160e11b815260040160405180910390fd5b600380600254600160a01b900460ff16600781111561194e5761194e613075565b1461196c57604051630187fa8360e61b815260040160405180910390fd5b600e546001600160a01b031633146119975760405163760576b960e01b815260040160405180910390fd5b6002546001600160a01b03166119c05760405163d6ea366360e01b815260040160405180910390fd5b816119de57604051633d4aad4d60e21b815260040160405180910390fd5b60108290556002805460ff60a01b1916600160a21b17905560408051338152602081018490527fae1f4649889be6b26bcf006a04c674019d1ebafaa07f234652d80cb084e77c5791016109b3565b600f54600e546001600160a01b03165f818152600b60205260408120805491938493606093919290918190611a60906136fc565b80601f0160208091040260200160405190810160405280929190818152602001828054611a8c906136fc565b8015611ad75780601f10611aae57610100808354040283529160200191611ad7565b820191905f5260205f20905b815481529060010190602001808311611aba57829003601f168201915b50505050509050925092509250909192565b600e545f9081906001600160a01b03163314611b185760405163760576b960e01b815260040160405180910390fd5b89515f03611b3957604051630a13219960e21b815260040160405180910390fd5b88515f03611b5a576040516319b507db60e11b815260040160405180910390fd5b611b68888888888888612ca3565b9150898983604051602001611b7f9392919061384e565b6040516020818303038152906040528051906020012090509850989650505050505050565b6002545f9081906001600160a01b0316611bd15760405163d6ea366360e01b815260040160405180910390fd5b6002546001600160a01b03163314611b1857604051639864fbb360e01b815260040160405180910390fd5b6001546001600160a01b03163314611c275760405163058d9a1b60e01b815260040160405180910390fd5b5f8054600180546001600160a01b038082166001600160a01b031980861682178755909216909255604051919092169283917ff8ccb027dfcd135e000e9d45e6cc2d662578a8825d4c45b5e32e0adf67e79ec69190a350565b5f546001600160a01b03163314611caa57604051634755657960e01b815260040160405180910390fd5b60095460ff1615611cce5760405163a669250b60e01b815260040160405180910390fd5b815f03611cee57604051631906e03360e31b815260040160405180910390fd5b5f611cfd898989898989612ca3565b9050428111611d1f57604051630642ce7760e01b815260040160405180910390fd5b6040805160e0810182528d8152602081018d90529081018b9052606081018290526080810184905260a08101839052600160c0820152600380611d628f82613780565b5060208201516001820190611d779082613780565b5060408201516002820190611d8c9082613780565b50606082015160038201556080820151600482015560a08201516005820190611db59082613780565b5060c091909101516006909101805460ff19169115159190911790556002805460ff60a01b191690556040517f1b8026edb59eb0a93ac326ac7a523b0055a7bd12f595a560e2e75e798f1d20f190611e14908e908e9085908890613870565b60405180910390a1505050505050505050505050565b6001600160a01b0381165f908152600a6020908152604080832054600b9092528220805460609260ff1691908190611e61906136fc565b80601f0160208091040260200160405190810160405280929190818152602001828054611e8d906136fc565b8015611ed85780601f10611eaf57610100808354040283529160200191611ed8565b820191905f5260205f20905b815481529060010190602001808311611ebb57829003601f168201915b5050505050905091509150915091565b600b6020525f908152604090208054610c81906136fc565b600d5460609081908190806001600160401b03811115611f2257611f226130fe565b604051908082528060200260200182016040528015611f4b578160200160208202803683370190505b509350806001600160401b03811115611f6657611f666130fe565b604051908082528060200260200182016040528015611f8f578160200160208202803683370190505b509250806001600160401b03811115611faa57611faa6130fe565b604051908082528060200260200182016040528015611fdd57816020015b6060815260200190600190039081611fc85790505b5091505f5b81811015612124575f600d8281548110611ffe57611ffe61383a565b905f5260205f20015f9054906101000a90046001600160a01b031690508186838151811061202e5761202e61383a565b6020026020010181815250508085838151811061204d5761204d61383a565b6001600160a01b039283166020918202929092018101919091529082165f908152600b909152604090208054612082906136fc565b80601f01602080910402602001604051908101604052809291908181526020018280546120ae906136fc565b80156120f95780601f106120d0576101008083540402835291602001916120f9565b820191905f5260205f20905b8154815290600101906020018083116120dc57829003601f168201915b50505050508483815181106121105761211061383a565b602090810291909101015250600101611fe2565b5050909192565b5f546001600160a01b0316331461215557604051634755657960e01b815260040160405180910390fd5b6040805134815247602082015233917f3b31cbadfd3fd939750f09d3bdbd6c0531dde23f05d55dcc202798f39d090895910160405180910390a2565b5f546001600160a01b031633146121bb57604051634755657960e01b815260040160405180910390fd5b60095460ff166121de576040516355e9e64160e11b815260040160405180910390fd5b600280600254600160a01b900460ff1660078111156121ff576121ff613075565b1461221d57604051630187fa8360e61b815260040160405180910390fd5b600e546001600160a01b03166122465760405163368f2b9760e21b815260040160405180910390fd5b6002805460ff60a01b1916600360a01b179055600e54600f54604080516001600160a01b03909316835260208301919091527fb973b46a8f1e88b970a622bf0cf618b80895efa9af0b01edd9b2608fb8a6914e91016111b5565b5f546001600160a01b031633146122ca57604051634755657960e01b815260040160405180910390fd5b60095460ff166122ed576040516355e9e64160e11b815260040160405180910390fd5b600680600254600160a01b900460ff16600781111561230e5761230e613075565b1461232c57604051630187fa8360e61b815260040160405180910390fd5b601354610100900460ff16156123555760405163c5f2be5160e01b815260040160405180910390fd5b6013805461ff001981166101001790915560ff16156123875760405163017cbd4560e61b815260040160405180910390fd5b600e546001600160a01b03166123b05760405163d5881ca960e01b815260040160405180910390fd5b600f545f036123d257604051630c12fe7d60e01b815260040160405180910390fd5b600f544710156123f55760405163786e0a9960e01b815260040160405180910390fd5b6013805460ff191660011790556002805460ff60a01b1916600760a01b179055600e54600f546040515f926001600160a01b031691908381818185875af1925050503d805f8114612461576040519150601f19603f3d011682016040523d82523d5f602084013e612466565b606091505b505090508061248857604051632ee66eed60e01b815260040160405180910390fd5b600e54600f54604080516001600160a01b03909316835260208301919091527fdf20fd1e76bc69d672e4814fafb2c449bba3a5369d8359adf9e05e6fde87b056910160405180910390a150506013805461ff0019169055565b600d81815481106124f0575f80fd5b5f918252602090912001546001600160a01b0316905081565b600e546001600160a01b03165f818152600b60205260408120805491926060929091908190612537906136fc565b80601f0160208091040260200160405190810160405280929190818152602001828054612563906136fc565b80156125ae5780601f10612585576101008083540402835291602001916125ae565b820191905f5260205f20905b81548152906001019060200180831161259157829003601f168201915b50505050509050915091509091565b600654600754600254606092839283925f9283928592849284928492849284926003926004926005929091600890600160a01b900460ff166125fe81612951565b600e546001600160a01b03165f818152600b60205260409020600f548a548b90612627906136fc565b80601f0160208091040260200160405190810160405280929190818152602001828054612653906136fc565b801561269e5780601f106126755761010080835404028352916020019161269e565b820191905f5260205f20905b81548152906001019060200180831161268157829003601f168201915b50505050509a508980546126b1906136fc565b80601f01602080910402602001604051908101604052809291908181526020018280546126dd906136fc565b80156127285780601f106126ff57610100808354040283529160200191612728565b820191905f5260205f20905b81548152906001019060200180831161270b57829003601f168201915b5050505050995088805461273b906136fc565b80601f0160208091040260200160405190810160405280929190818152602001828054612767906136fc565b80156127b25780601f10612789576101008083540402835291602001916127b2565b820191905f5260205f20905b81548152906001019060200180831161279557829003601f168201915b505050505098508580546127c5906136fc565b80601f01602080910402602001604051908101604052809291908181526020018280546127f1906136fc565b801561283c5780601f106128135761010080835404028352916020019161283c565b820191905f5260205f20905b81548152906001019060200180831161281f57829003601f168201915b5050505050955081805461284f906136fc565b80601f016020809104026020016040519081016040528092919081815260200182805461287b906136fc565b80156128c65780601f1061289d576101008083540402835291602001916128c6565b820191905f5260205f20905b8154815290600101906020018083116128a957829003601f168201915b505050505091509a509a509a509a509a509a509a509a509a509a509a50909192939495969798999a565b335f908152600a602052604081205460ff1661291f576040516302f9ce3760e51b815260040160405180910390fd5b82826040516020016129329291906136eb565b6040516020818303038152906040528051906020012090505b92915050565b60605f82600781111561296657612966613075565b0361298e57505060408051808201909152600781526610dc99585d195960ca1b602082015290565b60018260078111156129a2576129a2613075565b036129cd57505060408051808201909152600a8152692932bb32b0b627b832b760b11b602082015290565b60028260078111156129e1576129e1613075565b03612a0b575050604080518082019091526009815268115d985b1d585d195960ba1b602082015290565b6003826007811115612a1f57612a1f613075565b03612a47575050604080518082019091526007815266105dd85c99195960ca1b602082015290565b6004826007811115612a5b57612a5b613075565b03612a8557505060408051808201909152600981526811195b1a5d995c995960ba1b602082015290565b6005826007811115612a9957612a99613075565b03612ac257505060408051808201909152600881526714995a9958dd195960c21b602082015290565b6006826007811115612ad657612ad6613075565b03612aff5750506040805180820190915260088152671058d8d95c1d195960c21b602082015290565b6007826007811115612b1357612b13613075565b03612b3857505060408051808201909152600481526314185a5960e21b602082015290565b50506040805180820190915260078152662ab735b737bbb760c91b602082015290565b6107b25f8080808080805b612b6f88612e13565b612b7d576301e13380612b83565b6301e285005b63ffffffff16915088612b9683856138bc565b11612bb957612ba582846138bc565b925087612bb1816138cf565b985050612b66565b600196505b612bc88888612e6f565b612bd590620151806138e7565b905088612be282856138bc565b11612c0557612bf181846138bc565b925086612bfd816138cf565b975050612bbe565b62015180612c13848b6138fe565b612c1d9190613925565b612c289060016138bc565b9550612c356001876138fe565b612c4290620151806138e7565b612c4c90846138bc565b9250610e10612c5b848b6138fe565b612c659190613925565b9450612c7385610e106138e7565b612c7d90846138bc565b9250603c612c8b848b6138fe565b612c959190613925565b935050505091939590929450565b5f6107b2871080612cb5575061083487115b15612cd3576040516387870bd760e01b815260040160405180910390fd5b6001861080612ce25750600c86115b15612d005760405163735a134b60e11b815260040160405180910390fd5b60188410612d21576040516341a4a6b360e01b815260040160405180910390fd5b603c8310612d4257604051632ce35c9b60e21b815260040160405180910390fd5b600b19821280612d525750600e82135b15612d70576040516301d2b08960e11b815260040160405180910390fd5b5f612d7b8888612e6f565b90506001861080612d8b57508086115b15612da957604051630b046f8960e21b815260040160405180910390fd5b612db788888888885f612ed3565b91505f831315612dde57612dcd83610e106138e7565b612dd790836138fe565b9150612e08565b5f831215612e0857612def83613938565b612dfb90610e106138e7565b612e0590836138bc565b91505b509695505050505050565b5f612e1f600483613952565b61ffff1615612e2f57505f919050565b612e3a606483613952565b61ffff1615612e4b57506001919050565b612e5761019083613952565b61ffff1615612e6757505f919050565b506001919050565b5f81600203612e9957612e8183612e13565b612e8c57601c612e8f565b601d5b60ff16905061294b565b8160041480612ea85750816006145b80612eb35750816009145b80612ebe575081600b145b15612ecb5750601e61294b565b50601f61294b565b5f6107b25b878161ffff161015612f2057612eed81612e13565b15612f0757612f006301e28500836138bc565b9150612f18565b612f156301e13380836138bc565b91505b600101612ed8565b6040805161018081018252601f808252601c6020830152918101829052601e606082018190526080820183905260a0820181905260c0820183905260e0820183905261010082018190526101208201839052610140820152610160810191909152612f8a89612e13565b15612f9757601d60208201525b600191505b878261ffff161015612ff45780612fb4600184613975565b61ffff16600c8110612fc857612fc861383a565b6020020151612fdd9060ff16620151806138e7565b612fe790846138bc565b9250816001019150612f9c565b612fff6001886138fe565b61300c90620151806138e7565b61301690846138bc565b925061302486610e106138e7565b61302e90846138bc565b925061303b85603c6138e7565b61304590846138bc565b925061305184846138bc565b9998505050505050505050565b5f6020828403121561306e575f5ffd5b5035919050565b634e487b7160e01b5f52602160045260245ffd5b600881106130a557634e487b7160e01b5f52602160045260245ffd5b9052565b5f81518084528060208401602086015e5f602082860101526020601f19601f83011685010191505092915050565b6130e18184613089565b604060208201525f6130f660408301846130a9565b949350505050565b634e487b7160e01b5f52604160045260245ffd5b5f82601f830112613121575f5ffd5b81356001600160401b0381111561313a5761313a6130fe565b604051601f8201601f19908116603f011681016001600160401b0381118282101715613168576131686130fe565b60405281815283820160200185101561317f575f5ffd5b816020850160208301375f918101602001919091529392505050565b5f5f604083850312156131ac575f5ffd5b8235915060208301356001600160401b038111156131c8575f5ffd5b6131d485828601613112565b9150509250929050565b602081525f6131f060208301846130a9565b9392505050565b80356001600160a01b038116811461320d575f5ffd5b919050565b5f60208284031215613222575f5ffd5b6131f0826131f7565b5f5f6040838503121561323c575f5ffd5b613245836131f7565b915060208301356001600160401b038111156131c8575f5ffd5b5f6020828403121561326f575f5ffd5b81356001600160401b03811115613284575f5ffd5b6130f684828501613112565b61018081525f6132a461018083018f6130a9565b82810360208401526132b6818f6130a9565b905082810360408401526132ca818e6130a9565b90508b60608401528a60808401528960a08401528860c08401528760e0840152866101008401528561012084015282810361014084015261330b81866130a9565b9150508215156101608301529d9c50505050505050505050505050565b8381526001600160a01b03831660208201526060604082018190525f90613351908301846130a9565b95945050505050565b5f5f5f5f5f5f5f5f610100898b031215613372575f5ffd5b88356001600160401b03811115613387575f5ffd5b6133938b828c01613112565b98505060208901356001600160401b038111156133ae575f5ffd5b6133ba8b828c01613112565b989b989a505050506040870135966060810135966080820135965060a0820135955060c0820135945060e09091013592509050565b5f5f5f5f5f5f5f5f5f5f5f6101608c8e03121561340a575f5ffd5b8b356001600160401b0381111561341f575f5ffd5b61342b8e828f01613112565b9b505060208c01356001600160401b03811115613446575f5ffd5b6134528e828f01613112565b9a505060408c01356001600160401b0381111561346d575f5ffd5b6134798e828f01613112565b99505060608c0135975060808c0135965060a08c0135955060c08c0135945060e08c013593506101008c013592506101208c013591506101408c01356001600160401b038111156134c8575f5ffd5b6134d48e828f01613112565b9150509295989b509295989b9093969950565b8215158152604060208201525f6130f660408301846130a9565b5f82825180855260208501945060208160051b830101602085015f5b8381101561354f57601f198584030188526135398383516130a9565b602098890198909350919091019060010161351d565b50909695505050505050565b606080825284519082018190525f9060208601906080840190835b81811015613594578351835260209384019390920191600101613576565b5050838103602080860191909152865180835291810192508601905f5b818110156135d85782516001600160a01b03168452602093840193909201916001016135b1565b50505082810360408401526135ed8185613501565b9695505050505050565b6001600160a01b03831681526040602082018190525f906130f6908301846130a9565b61016081525f61362e61016083018e6130a9565b8281036020840152613640818e6130a9565b90508281036040840152613654818d6130a9565b90508a606084015289608084015282810360a0840152613674818a6130a9565b905061368360c0840189613089565b82810360e084015261369581886130a9565b6001600160a01b03871661010085015283810361012085015290506136ba81866130a9565b915050826101408301529c9b505050505050505050505050565b5f81518060208401855e5f93019283525090919050565b8281525f6130f660208301846136d4565b600181811c9082168061371057607f821691505b60208210810361372e57634e487b7160e01b5f52602260045260245ffd5b50919050565b601f82111561377b57805f5260205f20601f840160051c810160208510156137595750805b601f840160051c820191505b81811015613778575f8155600101613765565b50505b505050565b81516001600160401b03811115613799576137996130fe565b6137ad816137a784546136fc565b84613734565b6020601f8211600181146137df575f83156137c85750848201515b5f19600385901b1c1916600184901b178455613778565b5f84815260208120601f198516915b8281101561380e57878501518255602094850194600190920191016137ee565b508482101561382b57868401515f19600387901b60f8161c191681555b50505050600190811b01905550565b634e487b7160e01b5f52603260045260245ffd5b5f61386261385c83876136d4565b856136d4565b928352505060200192915050565b608081525f61388260808301876130a9565b828103602084015261389481876130a9565b604084019590955250506060015292915050565b634e487b7160e01b5f52601160045260245ffd5b8082018082111561294b5761294b6138a8565b5f600182016138e0576138e06138a8565b5060010190565b808202811582820484141761294b5761294b6138a8565b8181038181111561294b5761294b6138a8565b634e487b7160e01b5f52601260045260245ffd5b5f8261393357613933613911565b500490565b5f600160ff1b820161394c5761394c6138a8565b505f0390565b5f61ffff83168061396557613965613911565b8061ffff84160691505092915050565b61ffff828116828216039081111561294b5761294b6138a856fea2646970667358221220e1c2bedb54743d2ef97aa0643b1ba9032f98845adacff0c0a071b94eb3e5f26e64736f6c634300081f0033",
					"opcodes": "PUSH1 0x80 PUSH1 0x40 MSTORE PUSH0 DUP1 SLOAD PUSH1 0x1 PUSH1 0x1 PUSH1 0xA0 SHL SUB NOT AND CALLER OR SWAP1 SSTORE PUSH2 0x39C5 DUP1 PUSH2 0x22 PUSH0 CODECOPY PUSH0 RETURN INVALID PUSH1 0x80 PUSH1 0x40 MSTORE PUSH1 0x4 CALLDATASIZE LT PUSH2 0x254 JUMPI PUSH0 CALLDATALOAD PUSH1 0xE0 SHR DUP1 PUSH4 0x808E52CF GT PUSH2 0x13F JUMPI DUP1 PUSH4 0xBD097E21 GT PUSH2 0xB3 JUMPI DUP1 PUSH4 0xD3584E84 GT PUSH2 0x78 JUMPI DUP1 PUSH4 0xD3584E84 EQ PUSH2 0x7CD JUMPI DUP1 PUSH4 0xDFBF53AE EQ PUSH2 0x7EC JUMPI DUP1 PUSH4 0xE3C608EF EQ PUSH2 0x80E JUMPI DUP1 PUSH4 0xED2CEE9E EQ PUSH2 0x839 JUMPI DUP1 PUSH4 0xF851A440 EQ PUSH2 0x858 JUMPI DUP1 PUSH4 0xFA1380B8 EQ PUSH2 0x876 JUMPI PUSH0 PUSH0 REVERT JUMPDEST DUP1 PUSH4 0xBD097E21 EQ PUSH2 0x770 JUMPI DUP1 PUSH4 0xC63735B3 EQ PUSH2 0x778 JUMPI DUP1 PUSH4 0xC87DA02D EQ PUSH2 0x791 JUMPI DUP1 PUSH4 0xD0112863 EQ PUSH2 0x7A5 JUMPI DUP1 PUSH4 0xD116C8C4 EQ PUSH2 0x7B9 JUMPI PUSH0 PUSH0 REVERT JUMPDEST DUP1 PUSH4 0x905249A3 GT PUSH2 0x104 JUMPI DUP1 PUSH4 0x905249A3 EQ PUSH2 0x6B8 JUMPI DUP1 PUSH4 0x90C7825A EQ PUSH2 0x6D7 JUMPI DUP1 PUSH4 0x9134E02B EQ PUSH2 0x704 JUMPI DUP1 PUSH4 0xA4A00144 EQ PUSH2 0x723 JUMPI DUP1 PUSH4 0xB6CF8A35 EQ PUSH2 0x738 JUMPI DUP1 PUSH4 0xB6F3D256 EQ PUSH2 0x75B JUMPI PUSH0 PUSH0 REVERT JUMPDEST DUP1 PUSH4 0x808E52CF EQ PUSH2 0x584 JUMPI DUP1 PUSH4 0x8899B7CC EQ PUSH2 0x5A7 JUMPI DUP1 PUSH4 0x8C257EF8 EQ PUSH2 0x5DB JUMPI DUP1 PUSH4 0x8C3D7301 EQ PUSH2 0x5FA JUMPI DUP1 PUSH4 0x8D07AE9F EQ PUSH2 0x60E JUMPI PUSH0 PUSH0 REVERT JUMPDEST DUP1 PUSH4 0x4C5AED38 GT PUSH2 0x1D6 JUMPI DUP1 PUSH4 0x592FD028 GT PUSH2 0x19B JUMPI DUP1 PUSH4 0x592FD028 EQ PUSH2 0x475 JUMPI DUP1 PUSH4 0x62EA82DB EQ PUSH2 0x489 JUMPI DUP1 PUSH4 0x6CB55D1A EQ PUSH2 0x508 JUMPI DUP1 PUSH4 0x6F9FB98A EQ PUSH2 0x534 JUMPI DUP1 PUSH4 0x75829DEF EQ PUSH2 0x546 JUMPI DUP1 PUSH4 0x7BD2A5DA EQ PUSH2 0x565 JUMPI PUSH0 PUSH0 REVERT JUMPDEST DUP1 PUSH4 0x4C5AED38 EQ PUSH2 0x3F0 JUMPI DUP1 PUSH4 0x4CC4F50D EQ PUSH2 0x40F JUMPI DUP1 PUSH4 0x4E5CBF61 EQ PUSH2 0x423 JUMPI DUP1 PUSH4 0x53321AE6 EQ PUSH2 0x442 JUMPI DUP1 PUSH4 0x5459B48E EQ PUSH2 0x461 JUMPI PUSH0 PUSH0 REVERT JUMPDEST DUP1 PUSH4 0x26BD8926 GT PUSH2 0x21C JUMPI DUP1 PUSH4 0x26BD8926 EQ PUSH2 0x30E JUMPI DUP1 PUSH4 0x2E9E8E59 EQ PUSH2 0x32F JUMPI DUP1 PUSH4 0x356E7CCB EQ PUSH2 0x352 JUMPI DUP1 PUSH4 0x36DC1A88 EQ PUSH2 0x390 JUMPI DUP1 PUSH4 0x43902707 EQ PUSH2 0x3AF JUMPI PUSH0 PUSH0 REVERT JUMPDEST DUP1 PUSH4 0xBD58917 EQ PUSH2 0x258 JUMPI DUP1 PUSH4 0xBF36767 EQ PUSH2 0x279 JUMPI DUP1 PUSH4 0x200D2ED2 EQ PUSH2 0x28D JUMPI DUP1 PUSH4 0x2163B8C5 EQ PUSH2 0x2B8 JUMPI DUP1 PUSH4 0x26782247 EQ PUSH2 0x2D7 JUMPI JUMPDEST PUSH0 PUSH0 REVERT JUMPDEST CALLVALUE DUP1 ISZERO PUSH2 0x263 JUMPI PUSH0 PUSH0 REVERT JUMPDEST POP PUSH2 0x277 PUSH2 0x272 CALLDATASIZE PUSH1 0x4 PUSH2 0x305E JUMP JUMPDEST PUSH2 0x895 JUMP JUMPDEST STOP JUMPDEST CALLVALUE DUP1 ISZERO PUSH2 0x284 JUMPI PUSH0 PUSH0 REVERT JUMPDEST POP PUSH2 0x277 PUSH2 0x9BF JUMP JUMPDEST CALLVALUE DUP1 ISZERO PUSH2 0x298 JUMPI PUSH0 PUSH0 REVERT JUMPDEST POP PUSH2 0x2A1 PUSH2 0xAAB JUMP JUMPDEST PUSH1 0x40 MLOAD PUSH2 0x2AF SWAP3 SWAP2 SWAP1 PUSH2 0x30D7 JUMP JUMPDEST PUSH1 0x40 MLOAD DUP1 SWAP2 SUB SWAP1 RETURN JUMPDEST CALLVALUE DUP1 ISZERO PUSH2 0x2C3 JUMPI PUSH0 PUSH0 REVERT JUMPDEST POP PUSH2 0x277 PUSH2 0x2D2 CALLDATASIZE PUSH1 0x4 PUSH2 0x319B JUMP JUMPDEST PUSH2 0xACE JUMP JUMPDEST CALLVALUE DUP1 ISZERO PUSH2 0x2E2 JUMPI PUSH0 PUSH0 REVERT JUMPDEST POP PUSH1 0x1 SLOAD PUSH2 0x2F6 SWAP1 PUSH1 0x1 PUSH1 0x1 PUSH1 0xA0 SHL SUB AND DUP2 JUMP JUMPDEST PUSH1 0x40 MLOAD PUSH1 0x1 PUSH1 0x1 PUSH1 0xA0 SHL SUB SWAP1 SWAP2 AND DUP2 MSTORE PUSH1 0x20 ADD PUSH2 0x2AF JUMP JUMPDEST CALLVALUE DUP1 ISZERO PUSH2 0x319 JUMPI PUSH0 PUSH0 REVERT JUMPDEST POP PUSH2 0x322 PUSH2 0xC74 JUMP JUMPDEST PUSH1 0x40 MLOAD PUSH2 0x2AF SWAP2 SWAP1 PUSH2 0x31DE JUMP JUMPDEST CALLVALUE DUP1 ISZERO PUSH2 0x33A JUMPI PUSH0 PUSH0 REVERT JUMPDEST POP PUSH2 0x344 PUSH1 0x10 SLOAD DUP2 JUMP JUMPDEST PUSH1 0x40 MLOAD SWAP1 DUP2 MSTORE PUSH1 0x20 ADD PUSH2 0x2AF JUMP JUMPDEST CALLVALUE DUP1 ISZERO PUSH2 0x35D JUMPI PUSH0 PUSH0 REVERT JUMPDEST POP PUSH2 0x380 PUSH2 0x36C CALLDATASIZE PUSH1 0x4 PUSH2 0x3212 JUMP JUMPDEST PUSH1 0xA PUSH1 0x20 MSTORE PUSH0 SWAP1 DUP2 MSTORE PUSH1 0x40 SWAP1 KECCAK256 SLOAD PUSH1 0xFF AND DUP2 JUMP JUMPDEST PUSH1 0x40 MLOAD SWAP1 ISZERO ISZERO DUP2 MSTORE PUSH1 0x20 ADD PUSH2 0x2AF JUMP JUMPDEST CALLVALUE DUP1 ISZERO PUSH2 0x39B JUMPI PUSH0 PUSH0 REVERT JUMPDEST POP PUSH2 0x277 PUSH2 0x3AA CALLDATASIZE PUSH1 0x4 PUSH2 0x322B JUMP JUMPDEST PUSH2 0xD00 JUMP JUMPDEST CALLVALUE DUP1 ISZERO PUSH2 0x3BA JUMPI PUSH0 PUSH0 REVERT JUMPDEST POP PUSH2 0x3C3 PUSH2 0xEEF JUMP JUMPDEST PUSH1 0x40 DUP1 MLOAD SWAP7 DUP8 MSTORE PUSH1 0x20 DUP8 ADD SWAP6 SWAP1 SWAP6 MSTORE SWAP4 DUP6 ADD SWAP3 SWAP1 SWAP3 MSTORE PUSH1 0x60 DUP5 ADD MSTORE PUSH1 0x80 DUP4 ADD MSTORE PUSH1 0xA0 DUP3 ADD MSTORE PUSH1 0xC0 ADD PUSH2 0x2AF JUMP JUMPDEST CALLVALUE DUP1 ISZERO PUSH2 0x3FB JUMPI PUSH0 PUSH0 REVERT JUMPDEST POP PUSH2 0x277 PUSH2 0x40A CALLDATASIZE PUSH1 0x4 PUSH2 0x325F JUMP JUMPDEST PUSH2 0xF3F JUMP JUMPDEST CALLVALUE DUP1 ISZERO PUSH2 0x41A JUMPI PUSH0 PUSH0 REVERT JUMPDEST POP PUSH2 0x344 PUSH1 0x64 DUP2 JUMP JUMPDEST CALLVALUE DUP1 ISZERO PUSH2 0x42E JUMPI PUSH0 PUSH0 REVERT JUMPDEST POP PUSH2 0x277 PUSH2 0x43D CALLDATASIZE PUSH1 0x4 PUSH2 0x3212 JUMP JUMPDEST PUSH2 0x1068 JUMP JUMPDEST CALLVALUE DUP1 ISZERO PUSH2 0x44D JUMPI PUSH0 PUSH0 REVERT JUMPDEST POP PUSH2 0x277 PUSH2 0x45C CALLDATASIZE PUSH1 0x4 PUSH2 0x305E JUMP JUMPDEST PUSH2 0x11C0 JUMP JUMPDEST CALLVALUE DUP1 ISZERO PUSH2 0x46C JUMPI PUSH0 PUSH0 REVERT JUMPDEST POP PUSH2 0x322 PUSH2 0x1376 JUMP JUMPDEST CALLVALUE DUP1 ISZERO PUSH2 0x480 JUMPI PUSH0 PUSH0 REVERT JUMPDEST POP PUSH2 0x277 PUSH2 0x1394 JUMP JUMPDEST CALLVALUE DUP1 ISZERO PUSH2 0x494 JUMPI PUSH0 PUSH0 REVERT JUMPDEST POP PUSH2 0x4D7 PUSH2 0x4A3 CALLDATASIZE PUSH1 0x4 PUSH2 0x3212 JUMP JUMPDEST PUSH1 0xC PUSH1 0x20 MSTORE PUSH0 SWAP1 DUP2 MSTORE PUSH1 0x40 SWAP1 KECCAK256 DUP1 SLOAD PUSH1 0x1 DUP3 ADD SLOAD PUSH1 0x2 DUP4 ADD SLOAD PUSH1 0x3 SWAP1 SWAP4 ADD SLOAD SWAP2 SWAP3 PUSH1 0xFF DUP1 DUP4 AND SWAP4 PUSH2 0x100 SWAP1 SWAP4 DIV DUP2 AND SWAP3 AND DUP6 JUMP JUMPDEST PUSH1 0x40 MLOAD PUSH2 0x2AF SWAP6 SWAP5 SWAP4 SWAP3 SWAP2 SWAP1 SWAP5 DUP6 MSTORE SWAP3 ISZERO ISZERO PUSH1 0x20 DUP6 ADD MSTORE SWAP1 ISZERO ISZERO PUSH1 0x40 DUP5 ADD MSTORE PUSH1 0x60 DUP4 ADD MSTORE ISZERO ISZERO PUSH1 0x80 DUP3 ADD MSTORE PUSH1 0xA0 ADD SWAP1 JUMP JUMPDEST CALLVALUE DUP1 ISZERO PUSH2 0x513 JUMPI PUSH0 PUSH0 REVERT JUMPDEST POP PUSH2 0x51C PUSH2 0x1588 JUMP JUMPDEST PUSH1 0x40 MLOAD PUSH2 0x2AF SWAP13 SWAP12 SWAP11 SWAP10 SWAP9 SWAP8 SWAP7 SWAP6 SWAP5 SWAP4 SWAP3 SWAP2 SWAP1 PUSH2 0x3290 JUMP JUMPDEST CALLVALUE DUP1 ISZERO PUSH2 0x53F JUMPI PUSH0 PUSH0 REVERT JUMPDEST POP SELFBALANCE PUSH2 0x344 JUMP JUMPDEST CALLVALUE DUP1 ISZERO PUSH2 0x551 JUMPI PUSH0 PUSH0 REVERT JUMPDEST POP PUSH2 0x277 PUSH2 0x560 CALLDATASIZE PUSH1 0x4 PUSH2 0x3212 JUMP JUMPDEST PUSH2 0x183B JUMP JUMPDEST CALLVALUE DUP1 ISZERO PUSH2 0x570 JUMPI PUSH0 PUSH0 REVERT JUMPDEST POP PUSH2 0x277 PUSH2 0x57F CALLDATASIZE PUSH1 0x4 PUSH2 0x305E JUMP JUMPDEST PUSH2 0x190A JUMP JUMPDEST CALLVALUE DUP1 ISZERO PUSH2 0x58F JUMPI PUSH0 PUSH0 REVERT JUMPDEST POP PUSH2 0x598 PUSH2 0x1A2C JUMP JUMPDEST PUSH1 0x40 MLOAD PUSH2 0x2AF SWAP4 SWAP3 SWAP2 SWAP1 PUSH2 0x3328 JUMP JUMPDEST CALLVALUE DUP1 ISZERO PUSH2 0x5B2 JUMPI PUSH0 PUSH0 REVERT JUMPDEST POP PUSH2 0x5C6 PUSH2 0x5C1 CALLDATASIZE PUSH1 0x4 PUSH2 0x335A JUMP JUMPDEST PUSH2 0x1AE9 JUMP JUMPDEST PUSH1 0x40 DUP1 MLOAD SWAP3 DUP4 MSTORE PUSH1 0x20 DUP4 ADD SWAP2 SWAP1 SWAP2 MSTORE ADD PUSH2 0x2AF JUMP JUMPDEST CALLVALUE DUP1 ISZERO PUSH2 0x5E6 JUMPI PUSH0 PUSH0 REVERT JUMPDEST POP PUSH2 0x5C6 PUSH2 0x5F5 CALLDATASIZE PUSH1 0x4 PUSH2 0x335A JUMP JUMPDEST PUSH2 0x1BA4 JUMP JUMPDEST CALLVALUE DUP1 ISZERO PUSH2 0x605 JUMPI PUSH0 PUSH0 REVERT JUMPDEST POP PUSH2 0x277 PUSH2 0x1BFC JUMP JUMPDEST CALLVALUE DUP1 ISZERO PUSH2 0x619 JUMPI PUSH0 PUSH0 REVERT JUMPDEST POP PUSH2 0x694 PUSH2 0x628 CALLDATASIZE PUSH1 0x4 PUSH2 0x3212 JUMP JUMPDEST PUSH1 0x1 PUSH1 0x1 PUSH1 0xA0 SHL SUB AND PUSH0 SWAP1 DUP2 MSTORE PUSH1 0xC PUSH1 0x20 SWAP1 DUP2 MSTORE PUSH1 0x40 SWAP2 DUP3 SWAP1 KECCAK256 DUP3 MLOAD PUSH1 0xA0 DUP2 ADD DUP5 MSTORE DUP2 SLOAD DUP2 MSTORE PUSH1 0x1 DUP3 ADD SLOAD PUSH1 0xFF DUP1 DUP3 AND ISZERO ISZERO SWAP5 DUP4 ADD DUP6 SWAP1 MSTORE PUSH2 0x100 SWAP1 SWAP2 DIV DUP2 AND ISZERO ISZERO SWAP5 DUP3 ADD DUP6 SWAP1 MSTORE PUSH1 0x2 DUP4 ADD SLOAD PUSH1 0x60 DUP4 ADD DUP2 SWAP1 MSTORE PUSH1 0x3 SWAP1 SWAP4 ADD SLOAD AND ISZERO ISZERO PUSH1 0x80 SWAP1 SWAP2 ADD DUP2 SWAP1 MSTORE SWAP2 SWAP4 SWAP1 SWAP2 SWAP1 JUMP JUMPDEST PUSH1 0x40 DUP1 MLOAD SWAP5 ISZERO ISZERO DUP6 MSTORE SWAP3 ISZERO ISZERO PUSH1 0x20 DUP6 ADD MSTORE SWAP2 DUP4 ADD MSTORE ISZERO ISZERO PUSH1 0x60 DUP3 ADD MSTORE PUSH1 0x80 ADD PUSH2 0x2AF JUMP JUMPDEST CALLVALUE DUP1 ISZERO PUSH2 0x6C3 JUMPI PUSH0 PUSH0 REVERT JUMPDEST POP PUSH2 0x277 PUSH2 0x6D2 CALLDATASIZE PUSH1 0x4 PUSH2 0x33EF JUMP JUMPDEST PUSH2 0x1C80 JUMP JUMPDEST CALLVALUE DUP1 ISZERO PUSH2 0x6E2 JUMPI PUSH0 PUSH0 REVERT JUMPDEST POP PUSH2 0x6F6 PUSH2 0x6F1 CALLDATASIZE PUSH1 0x4 PUSH2 0x3212 JUMP JUMPDEST PUSH2 0x1E2A JUMP JUMPDEST PUSH1 0x40 MLOAD PUSH2 0x2AF SWAP3 SWAP2 SWAP1 PUSH2 0x34E7 JUMP JUMPDEST CALLVALUE DUP1 ISZERO PUSH2 0x70F JUMPI PUSH0 PUSH0 REVERT JUMPDEST POP PUSH2 0x322 PUSH2 0x71E CALLDATASIZE PUSH1 0x4 PUSH2 0x3212 JUMP JUMPDEST PUSH2 0x1EE8 JUMP JUMPDEST CALLVALUE DUP1 ISZERO PUSH2 0x72E JUMPI PUSH0 PUSH0 REVERT JUMPDEST POP PUSH2 0x344 PUSH1 0x11 SLOAD DUP2 JUMP JUMPDEST CALLVALUE DUP1 ISZERO PUSH2 0x743 JUMPI PUSH0 PUSH0 REVERT JUMPDEST POP PUSH2 0x74C PUSH2 0x1F00 JUMP JUMPDEST PUSH1 0x40 MLOAD PUSH2 0x2AF SWAP4 SWAP3 SWAP2 SWAP1 PUSH2 0x355B JUMP JUMPDEST CALLVALUE DUP1 ISZERO PUSH2 0x766 JUMPI PUSH0 PUSH0 REVERT JUMPDEST POP PUSH2 0x344 PUSH1 0xF SLOAD DUP2 JUMP JUMPDEST PUSH2 0x277 PUSH2 0x212B JUMP JUMPDEST CALLVALUE DUP1 ISZERO PUSH2 0x783 JUMPI PUSH0 PUSH0 REVERT JUMPDEST POP PUSH1 0x13 SLOAD PUSH2 0x380 SWAP1 PUSH1 0xFF AND DUP2 JUMP JUMPDEST CALLVALUE DUP1 ISZERO PUSH2 0x79C JUMPI PUSH0 PUSH0 REVERT JUMPDEST POP PUSH1 0xD SLOAD PUSH2 0x344 JUMP JUMPDEST CALLVALUE DUP1 ISZERO PUSH2 0x7B0 JUMPI PUSH0 PUSH0 REVERT JUMPDEST POP PUSH2 0x277 PUSH2 0x2191 JUMP JUMPDEST CALLVALUE DUP1 ISZERO PUSH2 0x7C4 JUMPI PUSH0 PUSH0 REVERT JUMPDEST POP PUSH2 0x277 PUSH2 0x22A0 JUMP JUMPDEST CALLVALUE DUP1 ISZERO PUSH2 0x7D8 JUMPI PUSH0 PUSH0 REVERT JUMPDEST POP PUSH2 0x2F6 PUSH2 0x7E7 CALLDATASIZE PUSH1 0x4 PUSH2 0x305E JUMP JUMPDEST PUSH2 0x24E1 JUMP JUMPDEST CALLVALUE DUP1 ISZERO PUSH2 0x7F7 JUMPI PUSH0 PUSH0 REVERT JUMPDEST POP PUSH2 0x800 PUSH2 0x2509 JUMP JUMPDEST PUSH1 0x40 MLOAD PUSH2 0x2AF SWAP3 SWAP2 SWAP1 PUSH2 0x35F7 JUMP JUMPDEST CALLVALUE DUP1 ISZERO PUSH2 0x819 JUMPI PUSH0 PUSH0 REVERT JUMPDEST POP PUSH2 0x822 PUSH2 0x25BD JUMP JUMPDEST PUSH1 0x40 MLOAD PUSH2 0x2AF SWAP12 SWAP11 SWAP10 SWAP9 SWAP8 SWAP7 SWAP6 SWAP5 SWAP4 SWAP3 SWAP2 SWAP1 PUSH2 0x361A JUMP JUMPDEST CALLVALUE DUP1 ISZERO PUSH2 0x844 JUMPI PUSH0 PUSH0 REVERT JUMPDEST POP PUSH1 0x2 SLOAD PUSH2 0x2F6 SWAP1 PUSH1 0x1 PUSH1 0x1 PUSH1 0xA0 SHL SUB AND DUP2 JUMP JUMPDEST CALLVALUE DUP1 ISZERO PUSH2 0x863 JUMPI PUSH0 PUSH0 REVERT JUMPDEST POP PUSH0 SLOAD PUSH2 0x2F6 SWAP1 PUSH1 0x1 PUSH1 0x1 PUSH1 0xA0 SHL SUB AND DUP2 JUMP JUMPDEST CALLVALUE DUP1 ISZERO PUSH2 0x881 JUMPI PUSH0 PUSH0 REVERT JUMPDEST POP PUSH2 0x344 PUSH2 0x890 CALLDATASIZE PUSH1 0x4 PUSH2 0x319B JUMP JUMPDEST PUSH2 0x28F0 JUMP JUMPDEST PUSH1 0x2 SLOAD PUSH1 0x1 PUSH1 0x1 PUSH1 0xA0 SHL SUB AND PUSH2 0x8BE JUMPI PUSH1 0x40 MLOAD PUSH4 0xD6EA3663 PUSH1 0xE0 SHL DUP2 MSTORE PUSH1 0x4 ADD PUSH1 0x40 MLOAD DUP1 SWAP2 SUB SWAP1 REVERT JUMPDEST PUSH1 0x2 SLOAD PUSH1 0x1 PUSH1 0x1 PUSH1 0xA0 SHL SUB AND CALLER EQ PUSH2 0x8E9 JUMPI PUSH1 0x40 MLOAD PUSH4 0x9864FBB3 PUSH1 0xE0 SHL DUP2 MSTORE PUSH1 0x4 ADD PUSH1 0x40 MLOAD DUP1 SWAP2 SUB SWAP1 REVERT JUMPDEST PUSH1 0x9 SLOAD PUSH1 0xFF AND PUSH2 0x90C JUMPI PUSH1 0x40 MLOAD PUSH4 0x55E9E641 PUSH1 0xE1 SHL DUP2 MSTORE PUSH1 0x4 ADD PUSH1 0x40 MLOAD DUP1 SWAP2 SUB SWAP1 REVERT JUMPDEST PUSH1 0x4 DUP1 PUSH1 0x2 SLOAD PUSH1 0x1 PUSH1 0xA0 SHL SWAP1 DIV PUSH1 0xFF AND PUSH1 0x7 DUP2 GT ISZERO PUSH2 0x92D JUMPI PUSH2 0x92D PUSH2 0x3075 JUMP JUMPDEST EQ PUSH2 0x94B JUMPI PUSH1 0x40 MLOAD PUSH4 0x187FA83 PUSH1 0xE6 SHL DUP2 MSTORE PUSH1 0x4 ADD PUSH1 0x40 MLOAD DUP1 SWAP2 SUB SWAP1 REVERT JUMPDEST DUP2 PUSH2 0x969 JUMPI PUSH1 0x40 MLOAD PUSH4 0xA60D7F39 PUSH1 0xE0 SHL DUP2 MSTORE PUSH1 0x4 ADD PUSH1 0x40 MLOAD DUP1 SWAP2 SUB SWAP1 REVERT JUMPDEST PUSH1 0x11 DUP3 SWAP1 SSTORE PUSH1 0x2 DUP1 SLOAD PUSH1 0xFF PUSH1 0xA0 SHL NOT AND PUSH1 0x3 PUSH1 0xA1 SHL OR SWAP1 SSTORE PUSH1 0x40 DUP1 MLOAD CALLER DUP2 MSTORE PUSH1 0x20 DUP2 ADD DUP5 SWAP1 MSTORE PUSH32 0xEF94AF06CFA9A76C638DD1A1CFB86B07F938FEBF05374E3675AECED1F805205E SWAP2 ADD JUMPDEST PUSH1 0x40 MLOAD DUP1 SWAP2 SUB SWAP1 LOG1 POP POP JUMP JUMPDEST PUSH0 SLOAD PUSH1 0x1 PUSH1 0x1 PUSH1 0xA0 SHL SUB AND CALLER EQ PUSH2 0x9E9 JUMPI PUSH1 0x40 MLOAD PUSH4 0x47556579 PUSH1 0xE0 SHL DUP2 MSTORE PUSH1 0x4 ADD PUSH1 0x40 MLOAD DUP1 SWAP2 SUB SWAP1 REVERT JUMPDEST PUSH1 0x9 SLOAD PUSH1 0xFF AND PUSH2 0xA0C JUMPI PUSH1 0x40 MLOAD PUSH4 0x55E9E641 PUSH1 0xE1 SHL DUP2 MSTORE PUSH1 0x4 ADD PUSH1 0x40 MLOAD DUP1 SWAP2 SUB SWAP1 REVERT JUMPDEST PUSH1 0x6 SLOAD TIMESTAMP LT ISZERO PUSH2 0xA2F JUMPI PUSH1 0x40 MLOAD PUSH4 0x3EFBCCB1 PUSH1 0xE0 SHL DUP2 MSTORE PUSH1 0x4 ADD PUSH1 0x40 MLOAD DUP1 SWAP2 SUB SWAP1 REVERT JUMPDEST PUSH0 DUP1 PUSH1 0x2 SLOAD PUSH1 0x1 PUSH1 0xA0 SHL SWAP1 DIV PUSH1 0xFF AND PUSH1 0x7 DUP2 GT ISZERO PUSH2 0xA4F JUMPI PUSH2 0xA4F PUSH2 0x3075 JUMP JUMPDEST EQ PUSH2 0xA6D JUMPI PUSH1 0x40 MLOAD PUSH4 0x187FA83 PUSH1 0xE6 SHL DUP2 MSTORE PUSH1 0x4 ADD PUSH1 0x40 MLOAD DUP1 SWAP2 SUB SWAP1 REVERT JUMPDEST PUSH1 0x2 DUP1 SLOAD PUSH1 0xFF PUSH1 0xA0 SHL NOT AND PUSH1 0x1 PUSH1 0xA0 SHL OR SWAP1 SSTORE PUSH1 0x40 MLOAD PUSH32 0x2FD2F8FCBB75B0A142D3952AD3F5E92DD16AAB6C8BBBD304BDB97066B33C062C SWAP1 PUSH0 SWAP1 LOG1 POP JUMP JUMPDEST PUSH1 0x2 SLOAD PUSH0 SWAP1 PUSH1 0x60 SWAP1 PUSH1 0x1 PUSH1 0xA0 SHL SWAP1 DIV PUSH1 0xFF AND PUSH2 0xAC6 DUP2 PUSH2 0x2951 JUMP JUMPDEST SWAP2 POP SWAP2 POP SWAP1 SWAP2 JUMP JUMPDEST PUSH1 0x9 SLOAD PUSH1 0xFF AND PUSH2 0xAF1 JUMPI PUSH1 0x40 MLOAD PUSH4 0x55E9E641 PUSH1 0xE1 SHL DUP2 MSTORE PUSH1 0x4 ADD PUSH1 0x40 MLOAD DUP1 SWAP2 SUB SWAP1 REVERT JUMPDEST CALLER PUSH0 SWAP1 DUP2 MSTORE PUSH1 0xA PUSH1 0x20 MSTORE PUSH1 0x40 SWAP1 KECCAK256 SLOAD PUSH1 0xFF AND PUSH2 0xB20 JUMPI PUSH1 0x40 MLOAD PUSH4 0x2F9CE37 PUSH1 0xE5 SHL DUP2 MSTORE PUSH1 0x4 ADD PUSH1 0x40 MLOAD DUP1 SWAP2 SUB SWAP1 REVERT JUMPDEST PUSH1 0x1 DUP1 PUSH1 0x2 SLOAD PUSH1 0x1 PUSH1 0xA0 SHL SWAP1 DIV PUSH1 0xFF AND PUSH1 0x7 DUP2 GT ISZERO PUSH2 0xB41 JUMPI PUSH2 0xB41 PUSH2 0x3075 JUMP JUMPDEST EQ PUSH2 0xB5F JUMPI PUSH1 0x40 MLOAD PUSH4 0x187FA83 PUSH1 0xE6 SHL DUP2 MSTORE PUSH1 0x4 ADD PUSH1 0x40 MLOAD DUP1 SWAP2 SUB SWAP1 REVERT JUMPDEST CALLER PUSH0 SWAP1 DUP2 MSTORE PUSH1 0xC PUSH1 0x20 MSTORE PUSH1 0x40 SWAP1 KECCAK256 PUSH1 0x1 DUP2 ADD SLOAD PUSH1 0xFF AND PUSH2 0xB92 JUMPI PUSH1 0x40 MLOAD PUSH4 0x51F37831 PUSH1 0xE1 SHL DUP2 MSTORE PUSH1 0x4 ADD PUSH1 0x40 MLOAD DUP1 SWAP2 SUB SWAP1 REVERT JUMPDEST PUSH1 0x1 DUP2 ADD SLOAD PUSH2 0x100 SWAP1 DIV PUSH1 0xFF AND ISZERO PUSH2 0xBBD JUMPI PUSH1 0x40 MLOAD PUSH4 0x8509CF4F PUSH1 0xE0 SHL DUP2 MSTORE PUSH1 0x4 ADD PUSH1 0x40 MLOAD DUP1 SWAP2 SUB SWAP1 REVERT JUMPDEST PUSH0 DUP5 DUP5 PUSH1 0x40 MLOAD PUSH1 0x20 ADD PUSH2 0xBD1 SWAP3 SWAP2 SWAP1 PUSH2 0x36EB JUMP JUMPDEST PUSH1 0x40 MLOAD PUSH1 0x20 DUP2 DUP4 SUB SUB DUP2 MSTORE SWAP1 PUSH1 0x40 MSTORE DUP1 MLOAD SWAP1 PUSH1 0x20 ADD KECCAK256 SWAP1 POP DUP2 PUSH0 ADD SLOAD DUP2 EQ PUSH2 0xC0C JUMPI PUSH1 0x40 MLOAD PUSH4 0xF0F96D35 PUSH1 0xE0 SHL DUP2 MSTORE PUSH1 0x4 ADD PUSH1 0x40 MLOAD DUP1 SWAP2 SUB SWAP1 REVERT JUMPDEST PUSH1 0x1 DUP3 DUP2 ADD DUP1 SLOAD PUSH2 0xFF00 NOT AND PUSH2 0x100 OR SWAP1 SSTORE PUSH1 0x2 DUP4 ADD DUP7 SWAP1 SSTORE PUSH1 0x3 DUP4 ADD DUP1 SLOAD PUSH1 0xFF NOT AND SWAP1 SWAP2 OR SWAP1 SSTORE PUSH1 0x40 DUP1 MLOAD CALLER DUP2 MSTORE PUSH1 0x20 DUP2 ADD DUP8 SWAP1 MSTORE PUSH32 0x9891BD98143D5A2C5F29BE9A7EF8E5D7B723746FB3B75220234AF7AA6CAEECFE SWAP2 ADD PUSH1 0x40 MLOAD DUP1 SWAP2 SUB SWAP1 LOG1 POP POP POP POP POP JUMP JUMPDEST PUSH1 0x12 DUP1 SLOAD PUSH2 0xC81 SWAP1 PUSH2 0x36FC JUMP JUMPDEST DUP1 PUSH1 0x1F ADD PUSH1 0x20 DUP1 SWAP2 DIV MUL PUSH1 0x20 ADD PUSH1 0x40 MLOAD SWAP1 DUP2 ADD PUSH1 0x40 MSTORE DUP1 SWAP3 SWAP2 SWAP1 DUP2 DUP2 MSTORE PUSH1 0x20 ADD DUP3 DUP1 SLOAD PUSH2 0xCAD SWAP1 PUSH2 0x36FC JUMP JUMPDEST DUP1 ISZERO PUSH2 0xCF8 JUMPI DUP1 PUSH1 0x1F LT PUSH2 0xCCF JUMPI PUSH2 0x100 DUP1 DUP4 SLOAD DIV MUL DUP4 MSTORE SWAP2 PUSH1 0x20 ADD SWAP2 PUSH2 0xCF8 JUMP JUMPDEST DUP3 ADD SWAP2 SWAP1 PUSH0 MSTORE PUSH1 0x20 PUSH0 KECCAK256 SWAP1 JUMPDEST DUP2 SLOAD DUP2 MSTORE SWAP1 PUSH1 0x1 ADD SWAP1 PUSH1 0x20 ADD DUP1 DUP4 GT PUSH2 0xCDB JUMPI DUP3 SWAP1 SUB PUSH1 0x1F AND DUP3 ADD SWAP2 JUMPDEST POP POP POP POP POP DUP2 JUMP JUMPDEST PUSH0 SLOAD PUSH1 0x1 PUSH1 0x1 PUSH1 0xA0 SHL SUB AND CALLER EQ PUSH2 0xD2A JUMPI PUSH1 0x40 MLOAD PUSH4 0x47556579 PUSH1 0xE0 SHL DUP2 MSTORE PUSH1 0x4 ADD PUSH1 0x40 MLOAD DUP1 SWAP2 SUB SWAP1 REVERT JUMPDEST PUSH1 0x9 SLOAD PUSH1 0xFF AND PUSH2 0xD4D JUMPI PUSH1 0x40 MLOAD PUSH4 0x55E9E641 PUSH1 0xE1 SHL DUP2 MSTORE PUSH1 0x4 ADD PUSH1 0x40 MLOAD DUP1 SWAP2 SUB SWAP1 REVERT JUMPDEST PUSH0 DUP1 PUSH1 0x2 SLOAD PUSH1 0x1 PUSH1 0xA0 SHL SWAP1 DIV PUSH1 0xFF AND PUSH1 0x7 DUP2 GT ISZERO PUSH2 0xD6D JUMPI PUSH2 0xD6D PUSH2 0x3075 JUMP JUMPDEST EQ PUSH2 0xD8B JUMPI PUSH1 0x40 MLOAD PUSH4 0x187FA83 PUSH1 0xE6 SHL DUP2 MSTORE PUSH1 0x4 ADD PUSH1 0x40 MLOAD DUP1 SWAP2 SUB SWAP1 REVERT JUMPDEST PUSH1 0x1 PUSH1 0x1 PUSH1 0xA0 SHL SUB DUP4 AND PUSH2 0xDB2 JUMPI PUSH1 0x40 MLOAD PUSH4 0xE6C4247B PUSH1 0xE0 SHL DUP2 MSTORE PUSH1 0x4 ADD PUSH1 0x40 MLOAD DUP1 SWAP2 SUB SWAP1 REVERT JUMPDEST PUSH1 0x1 PUSH1 0x1 PUSH1 0xA0 SHL SUB DUP4 AND PUSH0 SWAP1 DUP2 MSTORE PUSH1 0xA PUSH1 0x20 MSTORE PUSH1 0x40 SWAP1 KECCAK256 SLOAD PUSH1 0xFF AND ISZERO PUSH2 0xDEB JUMPI PUSH1 0x40 MLOAD PUSH4 0x6A7C46F7 PUSH1 0xE1 SHL DUP2 MSTORE PUSH1 0x4 ADD PUSH1 0x40 MLOAD DUP1 SWAP2 SUB SWAP1 REVERT JUMPDEST DUP2 MLOAD PUSH0 SUB PUSH2 0xE0C JUMPI PUSH1 0x40 MLOAD PUSH4 0x3E61080D PUSH1 0xE0 SHL DUP2 MSTORE PUSH1 0x4 ADD PUSH1 0x40 MLOAD DUP1 SWAP2 SUB SWAP1 REVERT JUMPDEST PUSH1 0xD SLOAD PUSH1 0x64 GT PUSH2 0xE2F JUMPI PUSH1 0x40 MLOAD PUSH4 0x5B7D9A0D PUSH1 0xE0 SHL DUP2 MSTORE PUSH1 0x4 ADD PUSH1 0x40 MLOAD DUP1 SWAP2 SUB SWAP1 REVERT JUMPDEST PUSH1 0x1 PUSH1 0x1 PUSH1 0xA0 SHL SUB DUP4 AND PUSH0 SWAP1 DUP2 MSTORE PUSH1 0xA PUSH1 0x20 SWAP1 DUP2 MSTORE PUSH1 0x40 DUP1 DUP4 KECCAK256 DUP1 SLOAD PUSH1 0xFF NOT AND PUSH1 0x1 OR SWAP1 SSTORE PUSH1 0xB SWAP1 SWAP2 MSTORE SWAP1 KECCAK256 PUSH2 0xE65 DUP4 DUP3 PUSH2 0x3780 JUMP JUMPDEST POP PUSH1 0xD DUP1 SLOAD PUSH1 0x1 DUP2 ADD DUP3 SSTORE PUSH0 SWAP2 SWAP1 SWAP2 MSTORE PUSH32 0xD7B6990105719101DABEB77144F2A3385C8033ACD3AF97E9423A695E81AD1EB5 ADD DUP1 SLOAD PUSH1 0x1 PUSH1 0x1 PUSH1 0xA0 SHL SUB NOT AND PUSH1 0x1 PUSH1 0x1 PUSH1 0xA0 SHL SUB DUP6 AND OR SWAP1 SSTORE PUSH1 0x40 MLOAD PUSH32 0x164B6120673B4B59137EF128C1C6D39E2DE27D8BAA1DDEDA0DB16EA4E15E97F6 SWAP1 PUSH2 0xEE2 SWAP1 DUP6 SWAP1 DUP6 SWAP1 PUSH2 0x35F7 JUMP JUMPDEST PUSH1 0x40 MLOAD DUP1 SWAP2 SUB SWAP1 LOG1 POP POP POP JUMP JUMPDEST PUSH1 0x9 SLOAD PUSH0 SWAP1 DUP2 SWAP1 DUP2 SWAP1 DUP2 SWAP1 DUP2 SWAP1 DUP2 SWAP1 PUSH1 0xFF AND PUSH2 0xF1E JUMPI PUSH1 0x40 MLOAD PUSH4 0x55E9E641 PUSH1 0xE1 SHL DUP2 MSTORE PUSH1 0x4 ADD PUSH1 0x40 MLOAD DUP1 SWAP2 SUB SWAP1 REVERT JUMPDEST PUSH1 0x6 SLOAD PUSH2 0xF2A SWAP1 PUSH2 0x2B5B JUMP JUMPDEST PUSH1 0x6 SLOAD SWAP12 SWAP5 SWAP11 POP SWAP3 SWAP9 POP SWAP1 SWAP7 POP SWAP5 POP SWAP3 POP SWAP1 POP JUMP JUMPDEST PUSH1 0x2 SLOAD PUSH1 0x1 PUSH1 0x1 PUSH1 0xA0 SHL SUB AND PUSH2 0xF68 JUMPI PUSH1 0x40 MLOAD PUSH4 0xD6EA3663 PUSH1 0xE0 SHL DUP2 MSTORE PUSH1 0x4 ADD PUSH1 0x40 MLOAD DUP1 SWAP2 SUB SWAP1 REVERT JUMPDEST PUSH1 0x2 SLOAD PUSH1 0x1 PUSH1 0x1 PUSH1 0xA0 SHL SUB AND CALLER EQ PUSH2 0xF93 JUMPI PUSH1 0x40 MLOAD PUSH4 0x9864FBB3 PUSH1 0xE0 SHL DUP2 MSTORE PUSH1 0x4 ADD PUSH1 0x40 MLOAD DUP1 SWAP2 SUB SWAP1 REVERT JUMPDEST PUSH1 0x9 SLOAD PUSH1 0xFF AND PUSH2 0xFB6 JUMPI PUSH1 0x40 MLOAD PUSH4 0x55E9E641 PUSH1 0xE1 SHL DUP2 MSTORE PUSH1 0x4 ADD PUSH1 0x40 MLOAD DUP1 SWAP2 SUB SWAP1 REVERT JUMPDEST PUSH1 0x4 DUP1 PUSH1 0x2 SLOAD PUSH1 0x1 PUSH1 0xA0 SHL SWAP1 DIV PUSH1 0xFF AND PUSH1 0x7 DUP2 GT ISZERO PUSH2 0xFD7 JUMPI PUSH2 0xFD7 PUSH2 0x3075 JUMP JUMPDEST EQ PUSH2 0xFF5 JUMPI PUSH1 0x40 MLOAD PUSH4 0x187FA83 PUSH1 0xE6 SHL DUP2 MSTORE PUSH1 0x4 ADD PUSH1 0x40 MLOAD DUP1 SWAP2 SUB SWAP1 REVERT JUMPDEST DUP2 MLOAD PUSH0 SUB PUSH2 0x1016 JUMPI PUSH1 0x40 MLOAD PUSH4 0xBC7FD331 PUSH1 0xE0 SHL DUP2 MSTORE PUSH1 0x4 ADD PUSH1 0x40 MLOAD DUP1 SWAP2 SUB SWAP1 REVERT JUMPDEST PUSH1 0x12 PUSH2 0x1022 DUP4 DUP3 PUSH2 0x3780 JUMP JUMPDEST POP PUSH1 0x2 DUP1 SLOAD PUSH1 0xFF PUSH1 0xA0 SHL NOT AND PUSH1 0x5 PUSH1 0xA0 SHL OR SWAP1 SSTORE PUSH1 0x40 MLOAD PUSH32 0x52FCA0FCDDA16F4A5F819B60BB9C2F99458433351B90E6FCB3E221FE03B10280 SWAP1 PUSH2 0x9B3 SWAP1 CALLER SWAP1 DUP6 SWAP1 PUSH2 0x35F7 JUMP JUMPDEST PUSH0 SLOAD PUSH1 0x1 PUSH1 0x1 PUSH1 0xA0 SHL SUB AND CALLER EQ PUSH2 0x1092 JUMPI PUSH1 0x40 MLOAD PUSH4 0x47556579 PUSH1 0xE0 SHL DUP2 MSTORE PUSH1 0x4 ADD PUSH1 0x40 MLOAD DUP1 SWAP2 SUB SWAP1 REVERT JUMPDEST PUSH1 0x9 SLOAD PUSH1 0xFF AND PUSH2 0x10B5 JUMPI PUSH1 0x40 MLOAD PUSH4 0x55E9E641 PUSH1 0xE1 SHL DUP2 MSTORE PUSH1 0x4 ADD PUSH1 0x40 MLOAD DUP1 SWAP2 SUB SWAP1 REVERT JUMPDEST PUSH1 0x1 PUSH1 0x1 PUSH1 0xA0 SHL SUB DUP2 AND PUSH2 0x10DC JUMPI PUSH1 0x40 MLOAD PUSH4 0xE6C4247B PUSH1 0xE0 SHL DUP2 MSTORE PUSH1 0x4 ADD PUSH1 0x40 MLOAD DUP1 SWAP2 SUB SWAP1 REVERT JUMPDEST PUSH1 0x6 PUSH1 0x2 SLOAD PUSH1 0x1 PUSH1 0xA0 SHL SWAP1 DIV PUSH1 0xFF AND PUSH1 0x7 DUP2 GT ISZERO PUSH2 0x10FC JUMPI PUSH2 0x10FC PUSH2 0x3075 JUMP JUMPDEST EQ DUP1 PUSH2 0x1125 JUMPI POP PUSH1 0x5 PUSH1 0x2 SLOAD PUSH1 0x1 PUSH1 0xA0 SHL SWAP1 DIV PUSH1 0xFF AND PUSH1 0x7 DUP2 GT ISZERO PUSH2 0x1123 JUMPI PUSH2 0x1123 PUSH2 0x3075 JUMP JUMPDEST EQ JUMPDEST DUP1 PUSH2 0x114D JUMPI POP PUSH1 0x7 PUSH1 0x2 SLOAD PUSH1 0x1 PUSH1 0xA0 SHL SWAP1 DIV PUSH1 0xFF AND PUSH1 0x7 DUP2 GT ISZERO PUSH2 0x114B JUMPI PUSH2 0x114B PUSH2 0x3075 JUMP JUMPDEST EQ JUMPDEST ISZERO PUSH2 0x116B JUMPI PUSH1 0x40 MLOAD PUSH4 0x2A28912D PUSH1 0xE1 SHL DUP2 MSTORE PUSH1 0x4 ADD PUSH1 0x40 MLOAD DUP1 SWAP2 SUB SWAP1 REVERT JUMPDEST PUSH1 0x2 DUP1 SLOAD PUSH1 0x1 PUSH1 0x1 PUSH1 0xA0 SHL SUB NOT AND PUSH1 0x1 PUSH1 0x1 PUSH1 0xA0 SHL SUB DUP4 AND SWAP1 DUP2 OR SWAP1 SWAP2 SSTORE PUSH1 0x40 MLOAD SWAP1 DUP2 MSTORE PUSH32 0xC7B11D63D071F03C4B488A3A44EE58C8A449F16B0EE289DD25AF95C15C9F8E3A SWAP1 PUSH1 0x20 ADD JUMPDEST PUSH1 0x40 MLOAD DUP1 SWAP2 SUB SWAP1 LOG1 POP JUMP JUMPDEST PUSH1 0x9 SLOAD PUSH1 0xFF AND PUSH2 0x11E3 JUMPI PUSH1 0x40 MLOAD PUSH4 0x55E9E641 PUSH1 0xE1 SHL DUP2 MSTORE PUSH1 0x4 ADD PUSH1 0x40 MLOAD DUP1 SWAP2 SUB SWAP1 REVERT JUMPDEST CALLER PUSH0 SWAP1 DUP2 MSTORE PUSH1 0xA PUSH1 0x20 MSTORE PUSH1 0x40 SWAP1 KECCAK256 SLOAD PUSH1 0xFF AND PUSH2 0x1212 JUMPI PUSH1 0x40 MLOAD PUSH4 0x2F9CE37 PUSH1 0xE5 SHL DUP2 MSTORE PUSH1 0x4 ADD PUSH1 0x40 MLOAD DUP1 SWAP2 SUB SWAP1 REVERT JUMPDEST PUSH1 0x6 SLOAD TIMESTAMP LT PUSH2 0x1234 JUMPI PUSH1 0x40 MLOAD PUSH4 0x764B8E33 PUSH1 0xE1 SHL DUP2 MSTORE PUSH1 0x4 ADD PUSH1 0x40 MLOAD DUP1 SWAP2 SUB SWAP1 REVERT JUMPDEST PUSH0 DUP1 PUSH1 0x2 SLOAD PUSH1 0x1 PUSH1 0xA0 SHL SWAP1 DIV PUSH1 0xFF AND PUSH1 0x7 DUP2 GT ISZERO PUSH2 0x1254 JUMPI PUSH2 0x1254 PUSH2 0x3075 JUMP JUMPDEST EQ PUSH2 0x1272 JUMPI PUSH1 0x40 MLOAD PUSH4 0x187FA83 PUSH1 0xE6 SHL DUP2 MSTORE PUSH1 0x4 ADD PUSH1 0x40 MLOAD DUP1 SWAP2 SUB SWAP1 REVERT JUMPDEST CALLER PUSH0 SWAP1 DUP2 MSTORE PUSH1 0xC PUSH1 0x20 MSTORE PUSH1 0x40 SWAP1 KECCAK256 PUSH1 0x1 ADD SLOAD PUSH1 0xFF AND ISZERO PUSH2 0x12A5 JUMPI PUSH1 0x40 MLOAD PUSH4 0x18F3C2EF PUSH1 0xE1 SHL DUP2 MSTORE PUSH1 0x4 ADD PUSH1 0x40 MLOAD DUP1 SWAP2 SUB SWAP1 REVERT JUMPDEST DUP2 PUSH2 0x12C3 JUMPI PUSH1 0x40 MLOAD PUSH4 0x1FDA9241 PUSH1 0xE3 SHL DUP2 MSTORE PUSH1 0x4 ADD PUSH1 0x40 MLOAD DUP1 SWAP2 SUB SWAP1 REVERT JUMPDEST PUSH1 0x40 DUP1 MLOAD PUSH1 0xA0 DUP2 ADD DUP3 MSTORE DUP4 DUP2 MSTORE PUSH1 0x1 PUSH1 0x20 DUP1 DUP4 ADD DUP3 DUP2 MSTORE PUSH0 DUP5 DUP7 ADD DUP2 DUP2 MSTORE PUSH1 0x60 DUP7 ADD DUP3 DUP2 MSTORE PUSH1 0x80 DUP8 ADD DUP4 DUP2 MSTORE CALLER DUP1 DUP6 MSTORE PUSH1 0xC DUP8 MSTORE SWAP4 DUP10 SWAP1 KECCAK256 SWAP8 MLOAD DUP9 SSTORE SWAP4 MLOAD SWAP6 DUP8 ADD DUP1 SLOAD SWAP3 MLOAD PUSH2 0xFFFF NOT SWAP1 SWAP4 AND SWAP7 ISZERO ISZERO PUSH2 0xFF00 NOT AND SWAP7 SWAP1 SWAP7 OR PUSH2 0x100 SWAP3 ISZERO ISZERO SWAP3 SWAP1 SWAP3 MUL SWAP2 SWAP1 SWAP2 OR SWAP1 SWAP5 SSTORE SWAP3 MLOAD PUSH1 0x2 DUP6 ADD SSTORE MLOAD PUSH1 0x3 SWAP1 SWAP4 ADD DUP1 SLOAD PUSH1 0xFF NOT AND SWAP4 ISZERO ISZERO SWAP4 SWAP1 SWAP4 OR SWAP1 SWAP3 SSTORE SWAP2 MLOAD SWAP2 DUP3 MSTORE PUSH32 0x88C5A0D081E0C7A69B5817581FFA85B19D71703BC581BB5C09FA253C527A055E SWAP2 ADD PUSH2 0x9B3 JUMP JUMPDEST PUSH1 0x2 SLOAD PUSH1 0x60 SWAP1 PUSH2 0x138F SWAP1 PUSH1 0x1 PUSH1 0xA0 SHL SWAP1 DIV PUSH1 0xFF AND PUSH2 0x2951 JUMP JUMPDEST SWAP1 POP SWAP1 JUMP JUMPDEST PUSH0 SLOAD PUSH1 0x1 PUSH1 0x1 PUSH1 0xA0 SHL SUB AND CALLER EQ PUSH2 0x13BE JUMPI PUSH1 0x40 MLOAD PUSH4 0x47556579 PUSH1 0xE0 SHL DUP2 MSTORE PUSH1 0x4 ADD PUSH1 0x40 MLOAD DUP1 SWAP2 SUB SWAP1 REVERT JUMPDEST PUSH1 0x9 SLOAD PUSH1 0xFF AND PUSH2 0x13E1 JUMPI PUSH1 0x40 MLOAD PUSH4 0x55E9E641 PUSH1 0xE1 SHL DUP2 MSTORE PUSH1 0x4 ADD PUSH1 0x40 MLOAD DUP1 SWAP2 SUB SWAP1 REVERT JUMPDEST PUSH1 0x1 DUP1 PUSH1 0x2 SLOAD PUSH1 0x1 PUSH1 0xA0 SHL SWAP1 DIV PUSH1 0xFF AND PUSH1 0x7 DUP2 GT ISZERO PUSH2 0x1402 JUMPI PUSH2 0x1402 PUSH2 0x3075 JUMP JUMPDEST EQ PUSH2 0x1420 JUMPI PUSH1 0x40 MLOAD PUSH4 0x187FA83 PUSH1 0xE6 SHL DUP2 MSTORE PUSH1 0x4 ADD PUSH1 0x40 MLOAD DUP1 SWAP2 SUB SWAP1 REVERT JUMPDEST PUSH1 0xD SLOAD PUSH0 SWAP1 PUSH0 NOT SWAP1 DUP3 JUMPDEST DUP2 DUP2 LT ISZERO PUSH2 0x14EA JUMPI PUSH0 PUSH1 0xD DUP3 DUP2 SLOAD DUP2 LT PUSH2 0x1446 JUMPI PUSH2 0x1446 PUSH2 0x383A JUMP JUMPDEST PUSH0 SWAP2 DUP3 MSTORE PUSH1 0x20 DUP1 DUP4 KECCAK256 SWAP1 SWAP2 ADD SLOAD PUSH1 0x1 PUSH1 0x1 PUSH1 0xA0 SHL SUB AND DUP1 DUP4 MSTORE PUSH1 0xC DUP3 MSTORE PUSH1 0x40 SWAP3 DUP4 SWAP1 KECCAK256 DUP4 MLOAD PUSH1 0xA0 DUP2 ADD DUP6 MSTORE DUP2 SLOAD DUP2 MSTORE PUSH1 0x1 DUP3 ADD SLOAD PUSH1 0xFF DUP1 DUP3 AND ISZERO ISZERO SWAP6 DUP4 ADD SWAP6 SWAP1 SWAP6 MSTORE PUSH2 0x100 SWAP1 DIV DUP5 AND ISZERO ISZERO SWAP5 DUP2 ADD SWAP5 SWAP1 SWAP5 MSTORE PUSH1 0x2 DUP2 ADD SLOAD PUSH1 0x60 DUP6 ADD MSTORE PUSH1 0x3 ADD SLOAD SWAP1 SWAP2 AND ISZERO DUP1 ISZERO PUSH1 0x80 DUP5 ADD DUP2 SWAP1 MSTORE SWAP2 SWAP4 POP PUSH2 0x14C1 JUMPI POP DUP1 PUSH1 0x40 ADD MLOAD JUMPDEST DUP1 ISZERO PUSH2 0x14D0 JUMPI POP DUP5 DUP2 PUSH1 0x60 ADD MLOAD LT JUMPDEST ISZERO PUSH2 0x14E0 JUMPI DUP1 PUSH1 0x60 ADD MLOAD SWAP5 POP DUP2 SWAP6 POP JUMPDEST POP POP PUSH1 0x1 ADD PUSH2 0x142A JUMP JUMPDEST POP PUSH1 0x1 PUSH1 0x1 PUSH1 0xA0 SHL SUB DUP4 AND PUSH2 0x1512 JUMPI PUSH1 0x40 MLOAD PUSH4 0x13B9371B PUSH1 0xE1 SHL DUP2 MSTORE PUSH1 0x4 ADD PUSH1 0x40 MLOAD DUP1 SWAP2 SUB SWAP1 REVERT JUMPDEST PUSH1 0xE DUP1 SLOAD PUSH1 0x1 PUSH1 0x1 PUSH1 0xA0 SHL SUB NOT AND PUSH1 0x1 PUSH1 0x1 PUSH1 0xA0 SHL SUB DUP6 AND SWAP1 DUP2 OR SWAP1 SWAP2 SSTORE PUSH1 0xF DUP4 SWAP1 SSTORE PUSH1 0x2 DUP1 SLOAD PUSH1 0xFF PUSH1 0xA0 SHL NOT AND PUSH1 0x1 PUSH1 0xA1 SHL OR SWAP1 SSTORE PUSH1 0x40 DUP1 MLOAD SWAP2 DUP3 MSTORE PUSH1 0x20 DUP3 ADD DUP5 SWAP1 MSTORE DUP1 MLOAD PUSH32 0x44A8E45B0547725A1B190FE91FBA127F673B8CEC941CEAF8B3E2E67D61055DFE SWAP3 DUP2 SWAP1 SUB SWAP1 SWAP2 ADD SWAP1 LOG1 POP POP POP POP JUMP JUMPDEST PUSH1 0x60 DUP1 PUSH1 0x60 PUSH0 PUSH0 PUSH0 PUSH0 PUSH0 PUSH0 PUSH0 PUSH1 0x60 PUSH0 PUSH2 0x15A4 PUSH1 0x3 DUP1 ADD SLOAD PUSH2 0x2B5B JUMP JUMPDEST DUP1 SWAP9 POP DUP2 SWAP10 POP DUP3 SWAP11 POP DUP4 SWAP12 POP DUP5 SWAP13 POP POP POP POP POP POP PUSH1 0x3 PUSH0 ADD PUSH1 0x3 PUSH1 0x1 ADD PUSH1 0x3 PUSH1 0x2 ADD PUSH1 0x3 DUP1 ADD SLOAD DUP12 DUP12 DUP12 DUP12 DUP12 PUSH1 0x3 PUSH1 0x4 ADD SLOAD PUSH1 0x3 PUSH1 0x5 ADD PUSH1 0x3 PUSH1 0x6 ADD PUSH0 SWAP1 SLOAD SWAP1 PUSH2 0x100 EXP SWAP1 DIV PUSH1 0xFF AND DUP12 DUP1 SLOAD PUSH2 0x15F9 SWAP1 PUSH2 0x36FC JUMP JUMPDEST DUP1 PUSH1 0x1F ADD PUSH1 0x20 DUP1 SWAP2 DIV MUL PUSH1 0x20 ADD PUSH1 0x40 MLOAD SWAP1 DUP2 ADD PUSH1 0x40 MSTORE DUP1 SWAP3 SWAP2 SWAP1 DUP2 DUP2 MSTORE PUSH1 0x20 ADD DUP3 DUP1 SLOAD PUSH2 0x1625 SWAP1 PUSH2 0x36FC JUMP JUMPDEST DUP1 ISZERO PUSH2 0x1670 JUMPI DUP1 PUSH1 0x1F LT PUSH2 0x1647 JUMPI PUSH2 0x100 DUP1 DUP4 SLOAD DIV MUL DUP4 MSTORE SWAP2 PUSH1 0x20 ADD SWAP2 PUSH2 0x1670 JUMP JUMPDEST DUP3 ADD SWAP2 SWAP1 PUSH0 MSTORE PUSH1 0x20 PUSH0 KECCAK256 SWAP1 JUMPDEST DUP2 SLOAD DUP2 MSTORE SWAP1 PUSH1 0x1 ADD SWAP1 PUSH1 0x20 ADD DUP1 DUP4 GT PUSH2 0x1653 JUMPI DUP3 SWAP1 SUB PUSH1 0x1F AND DUP3 ADD SWAP2 JUMPDEST POP POP POP POP POP SWAP12 POP DUP11 DUP1 SLOAD PUSH2 0x1683 SWAP1 PUSH2 0x36FC JUMP JUMPDEST DUP1 PUSH1 0x1F ADD PUSH1 0x20 DUP1 SWAP2 DIV MUL PUSH1 0x20 ADD PUSH1 0x40 MLOAD SWAP1 DUP2 ADD PUSH1 0x40 MSTORE DUP1 SWAP3 SWAP2 SWAP1 DUP2 DUP2 MSTORE PUSH1 0x20 ADD DUP3 DUP1 SLOAD PUSH2 0x16AF SWAP1 PUSH2 0x36FC JUMP JUMPDEST DUP1 ISZERO PUSH2 0x16FA JUMPI DUP1 PUSH1 0x1F LT PUSH2 0x16D1 JUMPI PUSH2 0x100 DUP1 DUP4 SLOAD DIV MUL DUP4 MSTORE SWAP2 PUSH1 0x20 ADD SWAP2 PUSH2 0x16FA JUMP JUMPDEST DUP3 ADD SWAP2 SWAP1 PUSH0 MSTORE PUSH1 0x20 PUSH0 KECCAK256 SWAP1 JUMPDEST DUP2 SLOAD DUP2 MSTORE SWAP1 PUSH1 0x1 ADD SWAP1 PUSH1 0x20 ADD DUP1 DUP4 GT PUSH2 0x16DD JUMPI DUP3 SWAP1 SUB PUSH1 0x1F AND DUP3 ADD SWAP2 JUMPDEST POP POP POP POP POP SWAP11 POP DUP10 DUP1 SLOAD PUSH2 0x170D SWAP1 PUSH2 0x36FC JUMP JUMPDEST DUP1 PUSH1 0x1F ADD PUSH1 0x20 DUP1 SWAP2 DIV MUL PUSH1 0x20 ADD PUSH1 0x40 MLOAD SWAP1 DUP2 ADD PUSH1 0x40 MSTORE DUP1 SWAP3 SWAP2 SWAP1 DUP2 DUP2 MSTORE PUSH1 0x20 ADD DUP3 DUP1 SLOAD PUSH2 0x1739 SWAP1 PUSH2 0x36FC JUMP JUMPDEST DUP1 ISZERO PUSH2 0x1784 JUMPI DUP1 PUSH1 0x1F LT PUSH2 0x175B JUMPI PUSH2 0x100 DUP1 DUP4 SLOAD DIV MUL DUP4 MSTORE SWAP2 PUSH1 0x20 ADD SWAP2 PUSH2 0x1784 JUMP JUMPDEST DUP3 ADD SWAP2 SWAP1 PUSH0 MSTORE PUSH1 0x20 PUSH0 KECCAK256 SWAP1 JUMPDEST DUP2 SLOAD DUP2 MSTORE SWAP1 PUSH1 0x1 ADD SWAP1 PUSH1 0x20 ADD DUP1 DUP4 GT PUSH2 0x1767 JUMPI DUP3 SWAP1 SUB PUSH1 0x1F AND DUP3 ADD SWAP2 JUMPDEST POP POP POP POP POP SWAP10 POP DUP2 DUP1 SLOAD PUSH2 0x1797 SWAP1 PUSH2 0x36FC JUMP JUMPDEST DUP1 PUSH1 0x1F ADD PUSH1 0x20 DUP1 SWAP2 DIV MUL PUSH1 0x20 ADD PUSH1 0x40 MLOAD SWAP1 DUP2 ADD PUSH1 0x40 MSTORE DUP1 SWAP3 SWAP2 SWAP1 DUP2 DUP2 MSTORE PUSH1 0x20 ADD DUP3 DUP1 SLOAD PUSH2 0x17C3 SWAP1 PUSH2 0x36FC JUMP JUMPDEST DUP1 ISZERO PUSH2 0x180E JUMPI DUP1 PUSH1 0x1F LT PUSH2 0x17E5 JUMPI PUSH2 0x100 DUP1 DUP4 SLOAD DIV MUL DUP4 MSTORE SWAP2 PUSH1 0x20 ADD SWAP2 PUSH2 0x180E JUMP JUMPDEST DUP3 ADD SWAP2 SWAP1 PUSH0 MSTORE PUSH1 0x20 PUSH0 KECCAK256 SWAP1 JUMPDEST DUP2 SLOAD DUP2 MSTORE SWAP1 PUSH1 0x1 ADD SWAP1 PUSH1 0x20 ADD DUP1 DUP4 GT PUSH2 0x17F1 JUMPI DUP3 SWAP1 SUB PUSH1 0x1F AND DUP3 ADD SWAP2 JUMPDEST POP POP POP POP POP SWAP2 POP SWAP12 POP SWAP12 POP SWAP12 POP SWAP12 POP SWAP12 POP SWAP12 POP SWAP12 POP SWAP12 POP SWAP12 POP SWAP12 POP SWAP12 POP SWAP12 POP SWAP1 SWAP2 SWAP3 SWAP4 SWAP5 SWAP6 SWAP7 SWAP8 SWAP9 SWAP10 SWAP11 SWAP12 JUMP JUMPDEST PUSH0 SLOAD PUSH1 0x1 PUSH1 0x1 PUSH1 0xA0 SHL SUB AND CALLER EQ PUSH2 0x1865 JUMPI PUSH1 0x40 MLOAD PUSH4 0x47556579 PUSH1 0xE0 SHL DUP2 MSTORE PUSH1 0x4 ADD PUSH1 0x40 MLOAD DUP1 SWAP2 SUB SWAP1 REVERT JUMPDEST PUSH1 0x1 PUSH1 0x1 PUSH1 0xA0 SHL SUB DUP2 AND PUSH2 0x188C JUMPI PUSH1 0x40 MLOAD PUSH4 0xE6C4247B PUSH1 0xE0 SHL DUP2 MSTORE PUSH1 0x4 ADD PUSH1 0x40 MLOAD DUP1 SWAP2 SUB SWAP1 REVERT JUMPDEST PUSH0 SLOAD PUSH1 0x1 PUSH1 0x1 PUSH1 0xA0 SHL SUB SWAP1 DUP2 AND SWAP1 DUP3 AND SUB PUSH2 0x18BA JUMPI PUSH1 0x40 MLOAD PUSH4 0x2263673F PUSH1 0xE2 SHL DUP2 MSTORE PUSH1 0x4 ADD PUSH1 0x40 MLOAD DUP1 SWAP2 SUB SWAP1 REVERT JUMPDEST PUSH1 0x1 DUP1 SLOAD PUSH1 0x1 PUSH1 0x1 PUSH1 0xA0 SHL SUB NOT AND PUSH1 0x1 PUSH1 0x1 PUSH1 0xA0 SHL SUB DUP4 DUP2 AND SWAP2 DUP3 OR SWAP1 SWAP3 SSTORE PUSH0 DUP1 SLOAD PUSH1 0x40 MLOAD SWAP3 SWAP4 AND SWAP2 PUSH32 0xB4D7BCB4D9A5D6EF6E827E3B1554E5A2578AD9CA843903D42B05D08BFA345894 SWAP2 SWAP1 LOG3 POP JUMP JUMPDEST PUSH1 0x9 SLOAD PUSH1 0xFF AND PUSH2 0x192D JUMPI PUSH1 0x40 MLOAD PUSH4 0x55E9E641 PUSH1 0xE1 SHL DUP2 MSTORE PUSH1 0x4 ADD PUSH1 0x40 MLOAD DUP1 SWAP2 SUB SWAP1 REVERT JUMPDEST PUSH1 0x3 DUP1 PUSH1 0x2 SLOAD PUSH1 0x1 PUSH1 0xA0 SHL SWAP1 DIV PUSH1 0xFF AND PUSH1 0x7 DUP2 GT ISZERO PUSH2 0x194E JUMPI PUSH2 0x194E PUSH2 0x3075 JUMP JUMPDEST EQ PUSH2 0x196C JUMPI PUSH1 0x40 MLOAD PUSH4 0x187FA83 PUSH1 0xE6 SHL DUP2 MSTORE PUSH1 0x4 ADD PUSH1 0x40 MLOAD DUP1 SWAP2 SUB SWAP1 REVERT JUMPDEST PUSH1 0xE SLOAD PUSH1 0x1 PUSH1 0x1 PUSH1 0xA0 SHL SUB AND CALLER EQ PUSH2 0x1997 JUMPI PUSH1 0x40 MLOAD PUSH4 0x760576B9 PUSH1 0xE0 SHL DUP2 MSTORE PUSH1 0x4 ADD PUSH1 0x40 MLOAD DUP1 SWAP2 SUB SWAP1 REVERT JUMPDEST PUSH1 0x2 SLOAD PUSH1 0x1 PUSH1 0x1 PUSH1 0xA0 SHL SUB AND PUSH2 0x19C0 JUMPI PUSH1 0x40 MLOAD PUSH4 0xD6EA3663 PUSH1 0xE0 SHL DUP2 MSTORE PUSH1 0x4 ADD PUSH1 0x40 MLOAD DUP1 SWAP2 SUB SWAP1 REVERT JUMPDEST DUP2 PUSH2 0x19DE JUMPI PUSH1 0x40 MLOAD PUSH4 0x3D4AAD4D PUSH1 0xE2 SHL DUP2 MSTORE PUSH1 0x4 ADD PUSH1 0x40 MLOAD DUP1 SWAP2 SUB SWAP1 REVERT JUMPDEST PUSH1 0x10 DUP3 SWAP1 SSTORE PUSH1 0x2 DUP1 SLOAD PUSH1 0xFF PUSH1 0xA0 SHL NOT AND PUSH1 0x1 PUSH1 0xA2 SHL OR SWAP1 SSTORE PUSH1 0x40 DUP1 MLOAD CALLER DUP2 MSTORE PUSH1 0x20 DUP2 ADD DUP5 SWAP1 MSTORE PUSH32 0xAE1F4649889BE6B26BCF006A04C674019D1EBAFAA07F234652D80CB084E77C57 SWAP2 ADD PUSH2 0x9B3 JUMP JUMPDEST PUSH1 0xF SLOAD PUSH1 0xE SLOAD PUSH1 0x1 PUSH1 0x1 PUSH1 0xA0 SHL SUB AND PUSH0 DUP2 DUP2 MSTORE PUSH1 0xB PUSH1 0x20 MSTORE PUSH1 0x40 DUP2 KECCAK256 DUP1 SLOAD SWAP2 SWAP4 DUP5 SWAP4 PUSH1 0x60 SWAP4 SWAP2 SWAP3 SWAP1 SWAP2 DUP2 SWAP1 PUSH2 0x1A60 SWAP1 PUSH2 0x36FC JUMP JUMPDEST DUP1 PUSH1 0x1F ADD PUSH1 0x20 DUP1 SWAP2 DIV MUL PUSH1 0x20 ADD PUSH1 0x40 MLOAD SWAP1 DUP2 ADD PUSH1 0x40 MSTORE DUP1 SWAP3 SWAP2 SWAP1 DUP2 DUP2 MSTORE PUSH1 0x20 ADD DUP3 DUP1 SLOAD PUSH2 0x1A8C SWAP1 PUSH2 0x36FC JUMP JUMPDEST DUP1 ISZERO PUSH2 0x1AD7 JUMPI DUP1 PUSH1 0x1F LT PUSH2 0x1AAE JUMPI PUSH2 0x100 DUP1 DUP4 SLOAD DIV MUL DUP4 MSTORE SWAP2 PUSH1 0x20 ADD SWAP2 PUSH2 0x1AD7 JUMP JUMPDEST DUP3 ADD SWAP2 SWAP1 PUSH0 MSTORE PUSH1 0x20 PUSH0 KECCAK256 SWAP1 JUMPDEST DUP2 SLOAD DUP2 MSTORE SWAP1 PUSH1 0x1 ADD SWAP1 PUSH1 0x20 ADD DUP1 DUP4 GT PUSH2 0x1ABA JUMPI DUP3 SWAP1 SUB PUSH1 0x1F AND DUP3 ADD SWAP2 JUMPDEST POP POP POP POP POP SWAP1 POP SWAP3 POP SWAP3 POP SWAP3 POP SWAP1 SWAP2 SWAP3 JUMP JUMPDEST PUSH1 0xE SLOAD PUSH0 SWAP1 DUP2 SWAP1 PUSH1 0x1 PUSH1 0x1 PUSH1 0xA0 SHL SUB AND CALLER EQ PUSH2 0x1B18 JUMPI PUSH1 0x40 MLOAD PUSH4 0x760576B9 PUSH1 0xE0 SHL DUP2 MSTORE PUSH1 0x4 ADD PUSH1 0x40 MLOAD DUP1 SWAP2 SUB SWAP1 REVERT JUMPDEST DUP10 MLOAD PUSH0 SUB PUSH2 0x1B39 JUMPI PUSH1 0x40 MLOAD PUSH4 0xA132199 PUSH1 0xE2 SHL DUP2 MSTORE PUSH1 0x4 ADD PUSH1 0x40 MLOAD DUP1 SWAP2 SUB SWAP1 REVERT JUMPDEST DUP9 MLOAD PUSH0 SUB PUSH2 0x1B5A JUMPI PUSH1 0x40 MLOAD PUSH4 0x19B507DB PUSH1 0xE1 SHL DUP2 MSTORE PUSH1 0x4 ADD PUSH1 0x40 MLOAD DUP1 SWAP2 SUB SWAP1 REVERT JUMPDEST PUSH2 0x1B68 DUP9 DUP9 DUP9 DUP9 DUP9 DUP9 PUSH2 0x2CA3 JUMP JUMPDEST SWAP2 POP DUP10 DUP10 DUP4 PUSH1 0x40 MLOAD PUSH1 0x20 ADD PUSH2 0x1B7F SWAP4 SWAP3 SWAP2 SWAP1 PUSH2 0x384E JUMP JUMPDEST PUSH1 0x40 MLOAD PUSH1 0x20 DUP2 DUP4 SUB SUB DUP2 MSTORE SWAP1 PUSH1 0x40 MSTORE DUP1 MLOAD SWAP1 PUSH1 0x20 ADD KECCAK256 SWAP1 POP SWAP9 POP SWAP9 SWAP7 POP POP POP POP POP POP POP JUMP JUMPDEST PUSH1 0x2 SLOAD PUSH0 SWAP1 DUP2 SWAP1 PUSH1 0x1 PUSH1 0x1 PUSH1 0xA0 SHL SUB AND PUSH2 0x1BD1 JUMPI PUSH1 0x40 MLOAD PUSH4 0xD6EA3663 PUSH1 0xE0 SHL DUP2 MSTORE PUSH1 0x4 ADD PUSH1 0x40 MLOAD DUP1 SWAP2 SUB SWAP1 REVERT JUMPDEST PUSH1 0x2 SLOAD PUSH1 0x1 PUSH1 0x1 PUSH1 0xA0 SHL SUB AND CALLER EQ PUSH2 0x1B18 JUMPI PUSH1 0x40 MLOAD PUSH4 0x9864FBB3 PUSH1 0xE0 SHL DUP2 MSTORE PUSH1 0x4 ADD PUSH1 0x40 MLOAD DUP1 SWAP2 SUB SWAP1 REVERT JUMPDEST PUSH1 0x1 SLOAD PUSH1 0x1 PUSH1 0x1 PUSH1 0xA0 SHL SUB AND CALLER EQ PUSH2 0x1C27 JUMPI PUSH1 0x40 MLOAD PUSH4 0x58D9A1B PUSH1 0xE0 SHL DUP2 MSTORE PUSH1 0x4 ADD PUSH1 0x40 MLOAD DUP1 SWAP2 SUB SWAP1 REVERT JUMPDEST PUSH0 DUP1 SLOAD PUSH1 0x1 DUP1 SLOAD PUSH1 0x1 PUSH1 0x1 PUSH1 0xA0 SHL SUB DUP1 DUP3 AND PUSH1 0x1 PUSH1 0x1 PUSH1 0xA0 SHL SUB NOT DUP1 DUP7 AND DUP3 OR DUP8 SSTORE SWAP1 SWAP3 AND SWAP1 SWAP3 SSTORE PUSH1 0x40 MLOAD SWAP2 SWAP1 SWAP3 AND SWAP3 DUP4 SWAP2 PUSH32 0xF8CCB027DFCD135E000E9D45E6CC2D662578A8825D4C45B5E32E0ADF67E79EC6 SWAP2 SWAP1 LOG3 POP JUMP JUMPDEST PUSH0 SLOAD PUSH1 0x1 PUSH1 0x1 PUSH1 0xA0 SHL SUB AND CALLER EQ PUSH2 0x1CAA JUMPI PUSH1 0x40 MLOAD PUSH4 0x47556579 PUSH1 0xE0 SHL DUP2 MSTORE PUSH1 0x4 ADD PUSH1 0x40 MLOAD DUP1 SWAP2 SUB SWAP1 REVERT JUMPDEST PUSH1 0x9 SLOAD PUSH1 0xFF AND ISZERO PUSH2 0x1CCE JUMPI PUSH1 0x40 MLOAD PUSH4 0xA669250B PUSH1 0xE0 SHL DUP2 MSTORE PUSH1 0x4 ADD PUSH1 0x40 MLOAD DUP1 SWAP2 SUB SWAP1 REVERT JUMPDEST DUP2 PUSH0 SUB PUSH2 0x1CEE JUMPI PUSH1 0x40 MLOAD PUSH4 0x1906E033 PUSH1 0xE3 SHL DUP2 MSTORE PUSH1 0x4 ADD PUSH1 0x40 MLOAD DUP1 SWAP2 SUB SWAP1 REVERT JUMPDEST PUSH0 PUSH2 0x1CFD DUP10 DUP10 DUP10 DUP10 DUP10 DUP10 PUSH2 0x2CA3 JUMP JUMPDEST SWAP1 POP TIMESTAMP DUP2 GT PUSH2 0x1D1F JUMPI PUSH1 0x40 MLOAD PUSH4 0x642CE77 PUSH1 0xE0 SHL DUP2 MSTORE PUSH1 0x4 ADD PUSH1 0x40 MLOAD DUP1 SWAP2 SUB SWAP1 REVERT JUMPDEST PUSH1 0x40 DUP1 MLOAD PUSH1 0xE0 DUP2 ADD DUP3 MSTORE DUP14 DUP2 MSTORE PUSH1 0x20 DUP2 ADD DUP14 SWAP1 MSTORE SWAP1 DUP2 ADD DUP12 SWAP1 MSTORE PUSH1 0x60 DUP2 ADD DUP3 SWAP1 MSTORE PUSH1 0x80 DUP2 ADD DUP5 SWAP1 MSTORE PUSH1 0xA0 DUP2 ADD DUP4 SWAP1 MSTORE PUSH1 0x1 PUSH1 0xC0 DUP3 ADD MSTORE PUSH1 0x3 DUP1 PUSH2 0x1D62 DUP16 DUP3 PUSH2 0x3780 JUMP JUMPDEST POP PUSH1 0x20 DUP3 ADD MLOAD PUSH1 0x1 DUP3 ADD SWAP1 PUSH2 0x1D77 SWAP1 DUP3 PUSH2 0x3780 JUMP JUMPDEST POP PUSH1 0x40 DUP3 ADD MLOAD PUSH1 0x2 DUP3 ADD SWAP1 PUSH2 0x1D8C SWAP1 DUP3 PUSH2 0x3780 JUMP JUMPDEST POP PUSH1 0x60 DUP3 ADD MLOAD PUSH1 0x3 DUP3 ADD SSTORE PUSH1 0x80 DUP3 ADD MLOAD PUSH1 0x4 DUP3 ADD SSTORE PUSH1 0xA0 DUP3 ADD MLOAD PUSH1 0x5 DUP3 ADD SWAP1 PUSH2 0x1DB5 SWAP1 DUP3 PUSH2 0x3780 JUMP JUMPDEST POP PUSH1 0xC0 SWAP2 SWAP1 SWAP2 ADD MLOAD PUSH1 0x6 SWAP1 SWAP2 ADD DUP1 SLOAD PUSH1 0xFF NOT AND SWAP2 ISZERO ISZERO SWAP2 SWAP1 SWAP2 OR SWAP1 SSTORE PUSH1 0x2 DUP1 SLOAD PUSH1 0xFF PUSH1 0xA0 SHL NOT AND SWAP1 SSTORE PUSH1 0x40 MLOAD PUSH32 0x1B8026EDB59EB0A93AC326AC7A523B0055A7BD12F595A560E2E75E798F1D20F1 SWAP1 PUSH2 0x1E14 SWAP1 DUP15 SWAP1 DUP15 SWAP1 DUP6 SWAP1 DUP9 SWAP1 PUSH2 0x3870 JUMP JUMPDEST PUSH1 0x40 MLOAD DUP1 SWAP2 SUB SWAP1 LOG1 POP POP POP POP POP POP POP POP POP POP POP POP JUMP JUMPDEST PUSH1 0x1 PUSH1 0x1 PUSH1 0xA0 SHL SUB DUP2 AND PUSH0 SWAP1 DUP2 MSTORE PUSH1 0xA PUSH1 0x20 SWAP1 DUP2 MSTORE PUSH1 0x40 DUP1 DUP4 KECCAK256 SLOAD PUSH1 0xB SWAP1 SWAP3 MSTORE DUP3 KECCAK256 DUP1 SLOAD PUSH1 0x60 SWAP3 PUSH1 0xFF AND SWAP2 SWAP1 DUP2 SWAP1 PUSH2 0x1E61 SWAP1 PUSH2 0x36FC JUMP JUMPDEST DUP1 PUSH1 0x1F ADD PUSH1 0x20 DUP1 SWAP2 DIV MUL PUSH1 0x20 ADD PUSH1 0x40 MLOAD SWAP1 DUP2 ADD PUSH1 0x40 MSTORE DUP1 SWAP3 SWAP2 SWAP1 DUP2 DUP2 MSTORE PUSH1 0x20 ADD DUP3 DUP1 SLOAD PUSH2 0x1E8D SWAP1 PUSH2 0x36FC JUMP JUMPDEST DUP1 ISZERO PUSH2 0x1ED8 JUMPI DUP1 PUSH1 0x1F LT PUSH2 0x1EAF JUMPI PUSH2 0x100 DUP1 DUP4 SLOAD DIV MUL DUP4 MSTORE SWAP2 PUSH1 0x20 ADD SWAP2 PUSH2 0x1ED8 JUMP JUMPDEST DUP3 ADD SWAP2 SWAP1 PUSH0 MSTORE PUSH1 0x20 PUSH0 KECCAK256 SWAP1 JUMPDEST DUP2 SLOAD DUP2 MSTORE SWAP1 PUSH1 0x1 ADD SWAP1 PUSH1 0x20 ADD DUP1 DUP4 GT PUSH2 0x1EBB JUMPI DUP3 SWAP1 SUB PUSH1 0x1F AND DUP3 ADD SWAP2 JUMPDEST POP POP POP POP POP SWAP1 POP SWAP2 POP SWAP2 POP SWAP2 POP SWAP2 JUMP JUMPDEST PUSH1 0xB PUSH1 0x20 MSTORE PUSH0 SWAP1 DUP2 MSTORE PUSH1 0x40 SWAP1 KECCAK256 DUP1 SLOAD PUSH2 0xC81 SWAP1 PUSH2 0x36FC JUMP JUMPDEST PUSH1 0xD SLOAD PUSH1 0x60 SWAP1 DUP2 SWAP1 DUP2 SWAP1 DUP1 PUSH1 0x1 PUSH1 0x1 PUSH1 0x40 SHL SUB DUP2 GT ISZERO PUSH2 0x1F22 JUMPI PUSH2 0x1F22 PUSH2 0x30FE JUMP JUMPDEST PUSH1 0x40 MLOAD SWAP1 DUP1 DUP3 MSTORE DUP1 PUSH1 0x20 MUL PUSH1 0x20 ADD DUP3 ADD PUSH1 0x40 MSTORE DUP1 ISZERO PUSH2 0x1F4B JUMPI DUP2 PUSH1 0x20 ADD PUSH1 0x20 DUP3 MUL DUP1 CALLDATASIZE DUP4 CALLDATACOPY ADD SWAP1 POP JUMPDEST POP SWAP4 POP DUP1 PUSH1 0x1 PUSH1 0x1 PUSH1 0x40 SHL SUB DUP2 GT ISZERO PUSH2 0x1F66 JUMPI PUSH2 0x1F66 PUSH2 0x30FE JUMP JUMPDEST PUSH1 0x40 MLOAD SWAP1 DUP1 DUP3 MSTORE DUP1 PUSH1 0x20 MUL PUSH1 0x20 ADD DUP3 ADD PUSH1 0x40 MSTORE DUP1 ISZERO PUSH2 0x1F8F JUMPI DUP2 PUSH1 0x20 ADD PUSH1 0x20 DUP3 MUL DUP1 CALLDATASIZE DUP4 CALLDATACOPY ADD SWAP1 POP JUMPDEST POP SWAP3 POP DUP1 PUSH1 0x1 PUSH1 0x1 PUSH1 0x40 SHL SUB DUP2 GT ISZERO PUSH2 0x1FAA JUMPI PUSH2 0x1FAA PUSH2 0x30FE JUMP JUMPDEST PUSH1 0x40 MLOAD SWAP1 DUP1 DUP3 MSTORE DUP1 PUSH1 0x20 MUL PUSH1 0x20 ADD DUP3 ADD PUSH1 0x40 MSTORE DUP1 ISZERO PUSH2 0x1FDD JUMPI DUP2 PUSH1 0x20 ADD JUMPDEST PUSH1 0x60 DUP2 MSTORE PUSH1 0x20 ADD SWAP1 PUSH1 0x1 SWAP1 SUB SWAP1 DUP2 PUSH2 0x1FC8 JUMPI SWAP1 POP JUMPDEST POP SWAP2 POP PUSH0 JUMPDEST DUP2 DUP2 LT ISZERO PUSH2 0x2124 JUMPI PUSH0 PUSH1 0xD DUP3 DUP2 SLOAD DUP2 LT PUSH2 0x1FFE JUMPI PUSH2 0x1FFE PUSH2 0x383A JUMP JUMPDEST SWAP1 PUSH0 MSTORE PUSH1 0x20 PUSH0 KECCAK256 ADD PUSH0 SWAP1 SLOAD SWAP1 PUSH2 0x100 EXP SWAP1 DIV PUSH1 0x1 PUSH1 0x1 PUSH1 0xA0 SHL SUB AND SWAP1 POP DUP2 DUP7 DUP4 DUP2 MLOAD DUP2 LT PUSH2 0x202E JUMPI PUSH2 0x202E PUSH2 0x383A JUMP JUMPDEST PUSH1 0x20 MUL PUSH1 0x20 ADD ADD DUP2 DUP2 MSTORE POP POP DUP1 DUP6 DUP4 DUP2 MLOAD DUP2 LT PUSH2 0x204D JUMPI PUSH2 0x204D PUSH2 0x383A JUMP JUMPDEST PUSH1 0x1 PUSH1 0x1 PUSH1 0xA0 SHL SUB SWAP3 DUP4 AND PUSH1 0x20 SWAP2 DUP3 MUL SWAP3 SWAP1 SWAP3 ADD DUP2 ADD SWAP2 SWAP1 SWAP2 MSTORE SWAP1 DUP3 AND PUSH0 SWAP1 DUP2 MSTORE PUSH1 0xB SWAP1 SWAP2 MSTORE PUSH1 0x40 SWAP1 KECCAK256 DUP1 SLOAD PUSH2 0x2082 SWAP1 PUSH2 0x36FC JUMP JUMPDEST DUP1 PUSH1 0x1F ADD PUSH1 0x20 DUP1 SWAP2 DIV MUL PUSH1 0x20 ADD PUSH1 0x40 MLOAD SWAP1 DUP2 ADD PUSH1 0x40 MSTORE DUP1 SWAP3 SWAP2 SWAP1 DUP2 DUP2 MSTORE PUSH1 0x20 ADD DUP3 DUP1 SLOAD PUSH2 0x20AE SWAP1 PUSH2 0x36FC JUMP JUMPDEST DUP1 ISZERO PUSH2 0x20F9 JUMPI DUP1 PUSH1 0x1F LT PUSH2 0x20D0 JUMPI PUSH2 0x100 DUP1 DUP4 SLOAD DIV MUL DUP4 MSTORE SWAP2 PUSH1 0x20 ADD SWAP2 PUSH2 0x20F9 JUMP JUMPDEST DUP3 ADD SWAP2 SWAP1 PUSH0 MSTORE PUSH1 0x20 PUSH0 KECCAK256 SWAP1 JUMPDEST DUP2 SLOAD DUP2 MSTORE SWAP1 PUSH1 0x1 ADD SWAP1 PUSH1 0x20 ADD DUP1 DUP4 GT PUSH2 0x20DC JUMPI DUP3 SWAP1 SUB PUSH1 0x1F AND DUP3 ADD SWAP2 JUMPDEST POP POP POP POP POP DUP5 DUP4 DUP2 MLOAD DUP2 LT PUSH2 0x2110 JUMPI PUSH2 0x2110 PUSH2 0x383A JUMP JUMPDEST PUSH1 0x20 SWAP1 DUP2 MUL SWAP2 SWAP1 SWAP2 ADD ADD MSTORE POP PUSH1 0x1 ADD PUSH2 0x1FE2 JUMP JUMPDEST POP POP SWAP1 SWAP2 SWAP3 JUMP JUMPDEST PUSH0 SLOAD PUSH1 0x1 PUSH1 0x1 PUSH1 0xA0 SHL SUB AND CALLER EQ PUSH2 0x2155 JUMPI PUSH1 0x40 MLOAD PUSH4 0x47556579 PUSH1 0xE0 SHL DUP2 MSTORE PUSH1 0x4 ADD PUSH1 0x40 MLOAD DUP1 SWAP2 SUB SWAP1 REVERT JUMPDEST PUSH1 0x40 DUP1 MLOAD CALLVALUE DUP2 MSTORE SELFBALANCE PUSH1 0x20 DUP3 ADD MSTORE CALLER SWAP2 PUSH32 0x3B31CBADFD3FD939750F09D3BDBD6C0531DDE23F05D55DCC202798F39D090895 SWAP2 ADD PUSH1 0x40 MLOAD DUP1 SWAP2 SUB SWAP1 LOG2 JUMP JUMPDEST PUSH0 SLOAD PUSH1 0x1 PUSH1 0x1 PUSH1 0xA0 SHL SUB AND CALLER EQ PUSH2 0x21BB JUMPI PUSH1 0x40 MLOAD PUSH4 0x47556579 PUSH1 0xE0 SHL DUP2 MSTORE PUSH1 0x4 ADD PUSH1 0x40 MLOAD DUP1 SWAP2 SUB SWAP1 REVERT JUMPDEST PUSH1 0x9 SLOAD PUSH1 0xFF AND PUSH2 0x21DE JUMPI PUSH1 0x40 MLOAD PUSH4 0x55E9E641 PUSH1 0xE1 SHL DUP2 MSTORE PUSH1 0x4 ADD PUSH1 0x40 MLOAD DUP1 SWAP2 SUB SWAP1 REVERT JUMPDEST PUSH1 0x2 DUP1 PUSH1 0x2 SLOAD PUSH1 0x1 PUSH1 0xA0 SHL SWAP1 DIV PUSH1 0xFF AND PUSH1 0x7 DUP2 GT ISZERO PUSH2 0x21FF JUMPI PUSH2 0x21FF PUSH2 0x3075 JUMP JUMPDEST EQ PUSH2 0x221D JUMPI PUSH1 0x40 MLOAD PUSH4 0x187FA83 PUSH1 0xE6 SHL DUP2 MSTORE PUSH1 0x4 ADD PUSH1 0x40 MLOAD DUP1 SWAP2 SUB SWAP1 REVERT JUMPDEST PUSH1 0xE SLOAD PUSH1 0x1 PUSH1 0x1 PUSH1 0xA0 SHL SUB AND PUSH2 0x2246 JUMPI PUSH1 0x40 MLOAD PUSH4 0x368F2B97 PUSH1 0xE2 SHL DUP2 MSTORE PUSH1 0x4 ADD PUSH1 0x40 MLOAD DUP1 SWAP2 SUB SWAP1 REVERT JUMPDEST PUSH1 0x2 DUP1 SLOAD PUSH1 0xFF PUSH1 0xA0 SHL NOT AND PUSH1 0x3 PUSH1 0xA0 SHL OR SWAP1 SSTORE PUSH1 0xE SLOAD PUSH1 0xF SLOAD PUSH1 0x40 DUP1 MLOAD PUSH1 0x1 PUSH1 0x1 PUSH1 0xA0 SHL SUB SWAP1 SWAP4 AND DUP4 MSTORE PUSH1 0x20 DUP4 ADD SWAP2 SWAP1 SWAP2 MSTORE PUSH32 0xB973B46A8F1E88B970A622BF0CF618B80895EFA9AF0B01EDD9B2608FB8A6914E SWAP2 ADD PUSH2 0x11B5 JUMP JUMPDEST PUSH0 SLOAD PUSH1 0x1 PUSH1 0x1 PUSH1 0xA0 SHL SUB AND CALLER EQ PUSH2 0x22CA JUMPI PUSH1 0x40 MLOAD PUSH4 0x47556579 PUSH1 0xE0 SHL DUP2 MSTORE PUSH1 0x4 ADD PUSH1 0x40 MLOAD DUP1 SWAP2 SUB SWAP1 REVERT JUMPDEST PUSH1 0x9 SLOAD PUSH1 0xFF AND PUSH2 0x22ED JUMPI PUSH1 0x40 MLOAD PUSH4 0x55E9E641 PUSH1 0xE1 SHL DUP2 MSTORE PUSH1 0x4 ADD PUSH1 0x40 MLOAD DUP1 SWAP2 SUB SWAP1 REVERT JUMPDEST PUSH1 0x6 DUP1 PUSH1 0x2 SLOAD PUSH1 0x1 PUSH1 0xA0 SHL SWAP1 DIV PUSH1 0xFF AND PUSH1 0x7 DUP2 GT ISZERO PUSH2 0x230E JUMPI PUSH2 0x230E PUSH2 0x3075 JUMP JUMPDEST EQ PUSH2 0x232C JUMPI PUSH1 0x40 MLOAD PUSH4 0x187FA83 PUSH1 0xE6 SHL DUP2 MSTORE PUSH1 0x4 ADD PUSH1 0x40 MLOAD DUP1 SWAP2 SUB SWAP1 REVERT JUMPDEST PUSH1 0x13 SLOAD PUSH2 0x100 SWAP1 DIV PUSH1 0xFF AND ISZERO PUSH2 0x2355 JUMPI PUSH1 0x40 MLOAD PUSH4 0xC5F2BE51 PUSH1 0xE0 SHL DUP2 MSTORE PUSH1 0x4 ADD PUSH1 0x40 MLOAD DUP1 SWAP2 SUB SWAP1 REVERT JUMPDEST PUSH1 0x13 DUP1 SLOAD PUSH2 0xFF00 NOT DUP2 AND PUSH2 0x100 OR SWAP1 SWAP2 SSTORE PUSH1 0xFF AND ISZERO PUSH2 0x2387 JUMPI PUSH1 0x40 MLOAD PUSH4 0x17CBD45 PUSH1 0xE6 SHL DUP2 MSTORE PUSH1 0x4 ADD PUSH1 0x40 MLOAD DUP1 SWAP2 SUB SWAP1 REVERT JUMPDEST PUSH1 0xE SLOAD PUSH1 0x1 PUSH1 0x1 PUSH1 0xA0 SHL SUB AND PUSH2 0x23B0 JUMPI PUSH1 0x40 MLOAD PUSH4 0xD5881CA9 PUSH1 0xE0 SHL DUP2 MSTORE PUSH1 0x4 ADD PUSH1 0x40 MLOAD DUP1 SWAP2 SUB SWAP1 REVERT JUMPDEST PUSH1 0xF SLOAD PUSH0 SUB PUSH2 0x23D2 JUMPI PUSH1 0x40 MLOAD PUSH4 0xC12FE7D PUSH1 0xE0 SHL DUP2 MSTORE PUSH1 0x4 ADD PUSH1 0x40 MLOAD DUP1 SWAP2 SUB SWAP1 REVERT JUMPDEST PUSH1 0xF SLOAD SELFBALANCE LT ISZERO PUSH2 0x23F5 JUMPI PUSH1 0x40 MLOAD PUSH4 0x786E0A99 PUSH1 0xE0 SHL DUP2 MSTORE PUSH1 0x4 ADD PUSH1 0x40 MLOAD DUP1 SWAP2 SUB SWAP1 REVERT JUMPDEST PUSH1 0x13 DUP1 SLOAD PUSH1 0xFF NOT AND PUSH1 0x1 OR SWAP1 SSTORE PUSH1 0x2 DUP1 SLOAD PUSH1 0xFF PUSH1 0xA0 SHL NOT AND PUSH1 0x7 PUSH1 0xA0 SHL OR SWAP1 SSTORE PUSH1 0xE SLOAD PUSH1 0xF SLOAD PUSH1 0x40 MLOAD PUSH0 SWAP3 PUSH1 0x1 PUSH1 0x1 PUSH1 0xA0 SHL SUB AND SWAP2 SWAP1 DUP4 DUP2 DUP2 DUP2 DUP6 DUP8 GAS CALL SWAP3 POP POP POP RETURNDATASIZE DUP1 PUSH0 DUP2 EQ PUSH2 0x2461 JUMPI PUSH1 0x40 MLOAD SWAP2 POP PUSH1 0x1F NOT PUSH1 0x3F RETURNDATASIZE ADD AND DUP3 ADD PUSH1 0x40 MSTORE RETURNDATASIZE DUP3 MSTORE RETURNDATASIZE PUSH0 PUSH1 0x20 DUP5 ADD RETURNDATACOPY PUSH2 0x2466 JUMP JUMPDEST PUSH1 0x60 SWAP2 POP JUMPDEST POP POP SWAP1 POP DUP1 PUSH2 0x2488 JUMPI PUSH1 0x40 MLOAD PUSH4 0x2EE66EED PUSH1 0xE0 SHL DUP2 MSTORE PUSH1 0x4 ADD PUSH1 0x40 MLOAD DUP1 SWAP2 SUB SWAP1 REVERT JUMPDEST PUSH1 0xE SLOAD PUSH1 0xF SLOAD PUSH1 0x40 DUP1 MLOAD PUSH1 0x1 PUSH1 0x1 PUSH1 0xA0 SHL SUB SWAP1 SWAP4 AND DUP4 MSTORE PUSH1 0x20 DUP4 ADD SWAP2 SWAP1 SWAP2 MSTORE PUSH32 0xDF20FD1E76BC69D672E4814FAFB2C449BBA3A5369D8359ADF9E05E6FDE87B056 SWAP2 ADD PUSH1 0x40 MLOAD DUP1 SWAP2 SUB SWAP1 LOG1 POP POP PUSH1 0x13 DUP1 SLOAD PUSH2 0xFF00 NOT AND SWAP1 SSTORE JUMP JUMPDEST PUSH1 0xD DUP2 DUP2 SLOAD DUP2 LT PUSH2 0x24F0 JUMPI PUSH0 DUP1 REVERT JUMPDEST PUSH0 SWAP2 DUP3 MSTORE PUSH1 0x20 SWAP1 SWAP2 KECCAK256 ADD SLOAD PUSH1 0x1 PUSH1 0x1 PUSH1 0xA0 SHL SUB AND SWAP1 POP DUP2 JUMP JUMPDEST PUSH1 0xE SLOAD PUSH1 0x1 PUSH1 0x1 PUSH1 0xA0 SHL SUB AND PUSH0 DUP2 DUP2 MSTORE PUSH1 0xB PUSH1 0x20 MSTORE PUSH1 0x40 DUP2 KECCAK256 DUP1 SLOAD SWAP2 SWAP3 PUSH1 0x60 SWAP3 SWAP1 SWAP2 SWAP1 DUP2 SWAP1 PUSH2 0x2537 SWAP1 PUSH2 0x36FC JUMP JUMPDEST DUP1 PUSH1 0x1F ADD PUSH1 0x20 DUP1 SWAP2 DIV MUL PUSH1 0x20 ADD PUSH1 0x40 MLOAD SWAP1 DUP2 ADD PUSH1 0x40 MSTORE DUP1 SWAP3 SWAP2 SWAP1 DUP2 DUP2 MSTORE PUSH1 0x20 ADD DUP3 DUP1 SLOAD PUSH2 0x2563 SWAP1 PUSH2 0x36FC JUMP JUMPDEST DUP1 ISZERO PUSH2 0x25AE JUMPI DUP1 PUSH1 0x1F LT PUSH2 0x2585 JUMPI PUSH2 0x100 DUP1 DUP4 SLOAD DIV MUL DUP4 MSTORE SWAP2 PUSH1 0x20 ADD SWAP2 PUSH2 0x25AE JUMP JUMPDEST DUP3 ADD SWAP2 SWAP1 PUSH0 MSTORE PUSH1 0x20 PUSH0 KECCAK256 SWAP1 JUMPDEST DUP2 SLOAD DUP2 MSTORE SWAP1 PUSH1 0x1 ADD SWAP1 PUSH1 0x20 ADD DUP1 DUP4 GT PUSH2 0x2591 JUMPI DUP3 SWAP1 SUB PUSH1 0x1F AND DUP3 ADD SWAP2 JUMPDEST POP POP POP POP POP SWAP1 POP SWAP2 POP SWAP2 POP SWAP1 SWAP2 JUMP JUMPDEST PUSH1 0x6 SLOAD PUSH1 0x7 SLOAD PUSH1 0x2 SLOAD PUSH1 0x60 SWAP3 DUP4 SWAP3 DUP4 SWAP3 PUSH0 SWAP3 DUP4 SWAP3 DUP6 SWAP3 DUP5 SWAP3 DUP5 SWAP3 DUP5 SWAP3 DUP5 SWAP3 DUP5 SWAP3 PUSH1 0x3 SWAP3 PUSH1 0x4 SWAP3 PUSH1 0x5 SWAP3 SWAP1 SWAP2 PUSH1 0x8 SWAP1 PUSH1 0x1 PUSH1 0xA0 SHL SWAP1 DIV PUSH1 0xFF AND PUSH2 0x25FE DUP2 PUSH2 0x2951 JUMP JUMPDEST PUSH1 0xE SLOAD PUSH1 0x1 PUSH1 0x1 PUSH1 0xA0 SHL SUB AND PUSH0 DUP2 DUP2 MSTORE PUSH1 0xB PUSH1 0x20 MSTORE PUSH1 0x40 SWAP1 KECCAK256 PUSH1 0xF SLOAD DUP11 SLOAD DUP12 SWAP1 PUSH2 0x2627 SWAP1 PUSH2 0x36FC JUMP JUMPDEST DUP1 PUSH1 0x1F ADD PUSH1 0x20 DUP1 SWAP2 DIV MUL PUSH1 0x20 ADD PUSH1 0x40 MLOAD SWAP1 DUP2 ADD PUSH1 0x40 MSTORE DUP1 SWAP3 SWAP2 SWAP1 DUP2 DUP2 MSTORE PUSH1 0x20 ADD DUP3 DUP1 SLOAD PUSH2 0x2653 SWAP1 PUSH2 0x36FC JUMP JUMPDEST DUP1 ISZERO PUSH2 0x269E JUMPI DUP1 PUSH1 0x1F LT PUSH2 0x2675 JUMPI PUSH2 0x100 DUP1 DUP4 SLOAD DIV MUL DUP4 MSTORE SWAP2 PUSH1 0x20 ADD SWAP2 PUSH2 0x269E JUMP JUMPDEST DUP3 ADD SWAP2 SWAP1 PUSH0 MSTORE PUSH1 0x20 PUSH0 KECCAK256 SWAP1 JUMPDEST DUP2 SLOAD DUP2 MSTORE SWAP1 PUSH1 0x1 ADD SWAP1 PUSH1 0x20 ADD DUP1 DUP4 GT PUSH2 0x2681 JUMPI DUP3 SWAP1 SUB PUSH1 0x1F AND DUP3 ADD SWAP2 JUMPDEST POP POP POP POP POP SWAP11 POP DUP10 DUP1 SLOAD PUSH2 0x26B1 SWAP1 PUSH2 0x36FC JUMP JUMPDEST DUP1 PUSH1 0x1F ADD PUSH1 0x20 DUP1 SWAP2 DIV MUL PUSH1 0x20 ADD PUSH1 0x40 MLOAD SWAP1 DUP2 ADD PUSH1 0x40 MSTORE DUP1 SWAP3 SWAP2 SWAP1 DUP2 DUP2 MSTORE PUSH1 0x20 ADD DUP3 DUP1 SLOAD PUSH2 0x26DD SWAP1 PUSH2 0x36FC JUMP JUMPDEST DUP1 ISZERO PUSH2 0x2728 JUMPI DUP1 PUSH1 0x1F LT PUSH2 0x26FF JUMPI PUSH2 0x100 DUP1 DUP4 SLOAD DIV MUL DUP4 MSTORE SWAP2 PUSH1 0x20 ADD SWAP2 PUSH2 0x2728 JUMP JUMPDEST DUP3 ADD SWAP2 SWAP1 PUSH0 MSTORE PUSH1 0x20 PUSH0 KECCAK256 SWAP1 JUMPDEST DUP2 SLOAD DUP2 MSTORE SWAP1 PUSH1 0x1 ADD SWAP1 PUSH1 0x20 ADD DUP1 DUP4 GT PUSH2 0x270B JUMPI DUP3 SWAP1 SUB PUSH1 0x1F AND DUP3 ADD SWAP2 JUMPDEST POP POP POP POP POP SWAP10 POP DUP9 DUP1 SLOAD PUSH2 0x273B SWAP1 PUSH2 0x36FC JUMP JUMPDEST DUP1 PUSH1 0x1F ADD PUSH1 0x20 DUP1 SWAP2 DIV MUL PUSH1 0x20 ADD PUSH1 0x40 MLOAD SWAP1 DUP2 ADD PUSH1 0x40 MSTORE DUP1 SWAP3 SWAP2 SWAP1 DUP2 DUP2 MSTORE PUSH1 0x20 ADD DUP3 DUP1 SLOAD PUSH2 0x2767 SWAP1 PUSH2 0x36FC JUMP JUMPDEST DUP1 ISZERO PUSH2 0x27B2 JUMPI DUP1 PUSH1 0x1F LT PUSH2 0x2789 JUMPI PUSH2 0x100 DUP1 DUP4 SLOAD DIV MUL DUP4 MSTORE SWAP2 PUSH1 0x20 ADD SWAP2 PUSH2 0x27B2 JUMP JUMPDEST DUP3 ADD SWAP2 SWAP1 PUSH0 MSTORE PUSH1 0x20 PUSH0 KECCAK256 SWAP1 JUMPDEST DUP2 SLOAD DUP2 MSTORE SWAP1 PUSH1 0x1 ADD SWAP1 PUSH1 0x20 ADD DUP1 DUP4 GT PUSH2 0x2795 JUMPI DUP3 SWAP1 SUB PUSH1 0x1F AND DUP3 ADD SWAP2 JUMPDEST POP POP POP POP POP SWAP9 POP DUP6 DUP1 SLOAD PUSH2 0x27C5 SWAP1 PUSH2 0x36FC JUMP JUMPDEST DUP1 PUSH1 0x1F ADD PUSH1 0x20 DUP1 SWAP2 DIV MUL PUSH1 0x20 ADD PUSH1 0x40 MLOAD SWAP1 DUP2 ADD PUSH1 0x40 MSTORE DUP1 SWAP3 SWAP2 SWAP1 DUP2 DUP2 MSTORE PUSH1 0x20 ADD DUP3 DUP1 SLOAD PUSH2 0x27F1 SWAP1 PUSH2 0x36FC JUMP JUMPDEST DUP1 ISZERO PUSH2 0x283C JUMPI DUP1 PUSH1 0x1F LT PUSH2 0x2813 JUMPI PUSH2 0x100 DUP1 DUP4 SLOAD DIV MUL DUP4 MSTORE SWAP2 PUSH1 0x20 ADD SWAP2 PUSH2 0x283C JUMP JUMPDEST DUP3 ADD SWAP2 SWAP1 PUSH0 MSTORE PUSH1 0x20 PUSH0 KECCAK256 SWAP1 JUMPDEST DUP2 SLOAD DUP2 MSTORE SWAP1 PUSH1 0x1 ADD SWAP1 PUSH1 0x20 ADD DUP1 DUP4 GT PUSH2 0x281F JUMPI DUP3 SWAP1 SUB PUSH1 0x1F AND DUP3 ADD SWAP2 JUMPDEST POP POP POP POP POP SWAP6 POP DUP2 DUP1 SLOAD PUSH2 0x284F SWAP1 PUSH2 0x36FC JUMP JUMPDEST DUP1 PUSH1 0x1F ADD PUSH1 0x20 DUP1 SWAP2 DIV MUL PUSH1 0x20 ADD PUSH1 0x40 MLOAD SWAP1 DUP2 ADD PUSH1 0x40 MSTORE DUP1 SWAP3 SWAP2 SWAP1 DUP2 DUP2 MSTORE PUSH1 0x20 ADD DUP3 DUP1 SLOAD PUSH2 0x287B SWAP1 PUSH2 0x36FC JUMP JUMPDEST DUP1 ISZERO PUSH2 0x28C6 JUMPI DUP1 PUSH1 0x1F LT PUSH2 0x289D JUMPI PUSH2 0x100 DUP1 DUP4 SLOAD DIV MUL DUP4 MSTORE SWAP2 PUSH1 0x20 ADD SWAP2 PUSH2 0x28C6 JUMP JUMPDEST DUP3 ADD SWAP2 SWAP1 PUSH0 MSTORE PUSH1 0x20 PUSH0 KECCAK256 SWAP1 JUMPDEST DUP2 SLOAD DUP2 MSTORE SWAP1 PUSH1 0x1 ADD SWAP1 PUSH1 0x20 ADD DUP1 DUP4 GT PUSH2 0x28A9 JUMPI DUP3 SWAP1 SUB PUSH1 0x1F AND DUP3 ADD SWAP2 JUMPDEST POP POP POP POP POP SWAP2 POP SWAP11 POP SWAP11 POP SWAP11 POP SWAP11 POP SWAP11 POP SWAP11 POP SWAP11 POP SWAP11 POP SWAP11 POP SWAP11 POP SWAP11 POP SWAP1 SWAP2 SWAP3 SWAP4 SWAP5 SWAP6 SWAP7 SWAP8 SWAP9 SWAP10 SWAP11 JUMP JUMPDEST CALLER PUSH0 SWAP1 DUP2 MSTORE PUSH1 0xA PUSH1 0x20 MSTORE PUSH1 0x40 DUP2 KECCAK256 SLOAD PUSH1 0xFF AND PUSH2 0x291F JUMPI PUSH1 0x40 MLOAD PUSH4 0x2F9CE37 PUSH1 0xE5 SHL DUP2 MSTORE PUSH1 0x4 ADD PUSH1 0x40 MLOAD DUP1 SWAP2 SUB SWAP1 REVERT JUMPDEST DUP3 DUP3 PUSH1 0x40 MLOAD PUSH1 0x20 ADD PUSH2 0x2932 SWAP3 SWAP2 SWAP1 PUSH2 0x36EB JUMP JUMPDEST PUSH1 0x40 MLOAD PUSH1 0x20 DUP2 DUP4 SUB SUB DUP2 MSTORE SWAP1 PUSH1 0x40 MSTORE DUP1 MLOAD SWAP1 PUSH1 0x20 ADD KECCAK256 SWAP1 POP JUMPDEST SWAP3 SWAP2 POP POP JUMP JUMPDEST PUSH1 0x60 PUSH0 DUP3 PUSH1 0x7 DUP2 GT ISZERO PUSH2 0x2966 JUMPI PUSH2 0x2966 PUSH2 0x3075 JUMP JUMPDEST SUB PUSH2 0x298E JUMPI POP POP PUSH1 0x40 DUP1 MLOAD DUP1 DUP3 ADD SWAP1 SWAP2 MSTORE PUSH1 0x7 DUP2 MSTORE PUSH7 0x10DC99585D1959 PUSH1 0xCA SHL PUSH1 0x20 DUP3 ADD MSTORE SWAP1 JUMP JUMPDEST PUSH1 0x1 DUP3 PUSH1 0x7 DUP2 GT ISZERO PUSH2 0x29A2 JUMPI PUSH2 0x29A2 PUSH2 0x3075 JUMP JUMPDEST SUB PUSH2 0x29CD JUMPI POP POP PUSH1 0x40 DUP1 MLOAD DUP1 DUP3 ADD SWAP1 SWAP2 MSTORE PUSH1 0xA DUP2 MSTORE PUSH10 0x2932BB32B0B627B832B7 PUSH1 0xB1 SHL PUSH1 0x20 DUP3 ADD MSTORE SWAP1 JUMP JUMPDEST PUSH1 0x2 DUP3 PUSH1 0x7 DUP2 GT ISZERO PUSH2 0x29E1 JUMPI PUSH2 0x29E1 PUSH2 0x3075 JUMP JUMPDEST SUB PUSH2 0x2A0B JUMPI POP POP PUSH1 0x40 DUP1 MLOAD DUP1 DUP3 ADD SWAP1 SWAP2 MSTORE PUSH1 0x9 DUP2 MSTORE PUSH9 0x115D985B1D585D1959 PUSH1 0xBA SHL PUSH1 0x20 DUP3 ADD MSTORE SWAP1 JUMP JUMPDEST PUSH1 0x3 DUP3 PUSH1 0x7 DUP2 GT ISZERO PUSH2 0x2A1F JUMPI PUSH2 0x2A1F PUSH2 0x3075 JUMP JUMPDEST SUB PUSH2 0x2A47 JUMPI POP POP PUSH1 0x40 DUP1 MLOAD DUP1 DUP3 ADD SWAP1 SWAP2 MSTORE PUSH1 0x7 DUP2 MSTORE PUSH7 0x105DD85C991959 PUSH1 0xCA SHL PUSH1 0x20 DUP3 ADD MSTORE SWAP1 JUMP JUMPDEST PUSH1 0x4 DUP3 PUSH1 0x7 DUP2 GT ISZERO PUSH2 0x2A5B JUMPI PUSH2 0x2A5B PUSH2 0x3075 JUMP JUMPDEST SUB PUSH2 0x2A85 JUMPI POP POP PUSH1 0x40 DUP1 MLOAD DUP1 DUP3 ADD SWAP1 SWAP2 MSTORE PUSH1 0x9 DUP2 MSTORE PUSH9 0x11195B1A5D995C9959 PUSH1 0xBA SHL PUSH1 0x20 DUP3 ADD MSTORE SWAP1 JUMP JUMPDEST PUSH1 0x5 DUP3 PUSH1 0x7 DUP2 GT ISZERO PUSH2 0x2A99 JUMPI PUSH2 0x2A99 PUSH2 0x3075 JUMP JUMPDEST SUB PUSH2 0x2AC2 JUMPI POP POP PUSH1 0x40 DUP1 MLOAD DUP1 DUP3 ADD SWAP1 SWAP2 MSTORE PUSH1 0x8 DUP2 MSTORE PUSH8 0x14995A9958DD1959 PUSH1 0xC2 SHL PUSH1 0x20 DUP3 ADD MSTORE SWAP1 JUMP JUMPDEST PUSH1 0x6 DUP3 PUSH1 0x7 DUP2 GT ISZERO PUSH2 0x2AD6 JUMPI PUSH2 0x2AD6 PUSH2 0x3075 JUMP JUMPDEST SUB PUSH2 0x2AFF JUMPI POP POP PUSH1 0x40 DUP1 MLOAD DUP1 DUP3 ADD SWAP1 SWAP2 MSTORE PUSH1 0x8 DUP2 MSTORE PUSH8 0x1058D8D95C1D1959 PUSH1 0xC2 SHL PUSH1 0x20 DUP3 ADD MSTORE SWAP1 JUMP JUMPDEST PUSH1 0x7 DUP3 PUSH1 0x7 DUP2 GT ISZERO PUSH2 0x2B13 JUMPI PUSH2 0x2B13 PUSH2 0x3075 JUMP JUMPDEST SUB PUSH2 0x2B38 JUMPI POP POP PUSH1 0x40 DUP1 MLOAD DUP1 DUP3 ADD SWAP1 SWAP2 MSTORE PUSH1 0x4 DUP2 MSTORE PUSH4 0x14185A59 PUSH1 0xE2 SHL PUSH1 0x20 DUP3 ADD MSTORE SWAP1 JUMP JUMPDEST POP POP PUSH1 0x40 DUP1 MLOAD DUP1 DUP3 ADD SWAP1 SWAP2 MSTORE PUSH1 0x7 DUP2 MSTORE PUSH7 0x2AB735B737BBB7 PUSH1 0xC9 SHL PUSH1 0x20 DUP3 ADD MSTORE SWAP1 JUMP JUMPDEST PUSH2 0x7B2 PUSH0 DUP1 DUP1 DUP1 DUP1 DUP1 DUP1 JUMPDEST PUSH2 0x2B6F DUP9 PUSH2 0x2E13 JUMP JUMPDEST PUSH2 0x2B7D JUMPI PUSH4 0x1E13380 PUSH2 0x2B83 JUMP JUMPDEST PUSH4 0x1E28500 JUMPDEST PUSH4 0xFFFFFFFF AND SWAP2 POP DUP9 PUSH2 0x2B96 DUP4 DUP6 PUSH2 0x38BC JUMP JUMPDEST GT PUSH2 0x2BB9 JUMPI PUSH2 0x2BA5 DUP3 DUP5 PUSH2 0x38BC JUMP JUMPDEST SWAP3 POP DUP8 PUSH2 0x2BB1 DUP2 PUSH2 0x38CF JUMP JUMPDEST SWAP9 POP POP PUSH2 0x2B66 JUMP JUMPDEST PUSH1 0x1 SWAP7 POP JUMPDEST PUSH2 0x2BC8 DUP9 DUP9 PUSH2 0x2E6F JUMP JUMPDEST PUSH2 0x2BD5 SWAP1 PUSH3 0x15180 PUSH2 0x38E7 JUMP JUMPDEST SWAP1 POP DUP9 PUSH2 0x2BE2 DUP3 DUP6 PUSH2 0x38BC JUMP JUMPDEST GT PUSH2 0x2C05 JUMPI PUSH2 0x2BF1 DUP2 DUP5 PUSH2 0x38BC JUMP JUMPDEST SWAP3 POP DUP7 PUSH2 0x2BFD DUP2 PUSH2 0x38CF JUMP JUMPDEST SWAP8 POP POP PUSH2 0x2BBE JUMP JUMPDEST PUSH3 0x15180 PUSH2 0x2C13 DUP5 DUP12 PUSH2 0x38FE JUMP JUMPDEST PUSH2 0x2C1D SWAP2 SWAP1 PUSH2 0x3925 JUMP JUMPDEST PUSH2 0x2C28 SWAP1 PUSH1 0x1 PUSH2 0x38BC JUMP JUMPDEST SWAP6 POP PUSH2 0x2C35 PUSH1 0x1 DUP8 PUSH2 0x38FE JUMP JUMPDEST PUSH2 0x2C42 SWAP1 PUSH3 0x15180 PUSH2 0x38E7 JUMP JUMPDEST PUSH2 0x2C4C SWAP1 DUP5 PUSH2 0x38BC JUMP JUMPDEST SWAP3 POP PUSH2 0xE10 PUSH2 0x2C5B DUP5 DUP12 PUSH2 0x38FE JUMP JUMPDEST PUSH2 0x2C65 SWAP2 SWAP1 PUSH2 0x3925 JUMP JUMPDEST SWAP5 POP PUSH2 0x2C73 DUP6 PUSH2 0xE10 PUSH2 0x38E7 JUMP JUMPDEST PUSH2 0x2C7D SWAP1 DUP5 PUSH2 0x38BC JUMP JUMPDEST SWAP3 POP PUSH1 0x3C PUSH2 0x2C8B DUP5 DUP12 PUSH2 0x38FE JUMP JUMPDEST PUSH2 0x2C95 SWAP2 SWAP1 PUSH2 0x3925 JUMP JUMPDEST SWAP4 POP POP POP POP SWAP2 SWAP4 SWAP6 SWAP1 SWAP3 SWAP5 POP JUMP JUMPDEST PUSH0 PUSH2 0x7B2 DUP8 LT DUP1 PUSH2 0x2CB5 JUMPI POP PUSH2 0x834 DUP8 GT JUMPDEST ISZERO PUSH2 0x2CD3 JUMPI PUSH1 0x40 MLOAD PUSH4 0x87870BD7 PUSH1 0xE0 SHL DUP2 MSTORE PUSH1 0x4 ADD PUSH1 0x40 MLOAD DUP1 SWAP2 SUB SWAP1 REVERT JUMPDEST PUSH1 0x1 DUP7 LT DUP1 PUSH2 0x2CE2 JUMPI POP PUSH1 0xC DUP7 GT JUMPDEST ISZERO PUSH2 0x2D00 JUMPI PUSH1 0x40 MLOAD PUSH4 0x735A134B PUSH1 0xE1 SHL DUP2 MSTORE PUSH1 0x4 ADD PUSH1 0x40 MLOAD DUP1 SWAP2 SUB SWAP1 REVERT JUMPDEST PUSH1 0x18 DUP5 LT PUSH2 0x2D21 JUMPI PUSH1 0x40 MLOAD PUSH4 0x41A4A6B3 PUSH1 0xE0 SHL DUP2 MSTORE PUSH1 0x4 ADD PUSH1 0x40 MLOAD DUP1 SWAP2 SUB SWAP1 REVERT JUMPDEST PUSH1 0x3C DUP4 LT PUSH2 0x2D42 JUMPI PUSH1 0x40 MLOAD PUSH4 0x2CE35C9B PUSH1 0xE2 SHL DUP2 MSTORE PUSH1 0x4 ADD PUSH1 0x40 MLOAD DUP1 SWAP2 SUB SWAP1 REVERT JUMPDEST PUSH1 0xB NOT DUP3 SLT DUP1 PUSH2 0x2D52 JUMPI POP PUSH1 0xE DUP3 SGT JUMPDEST ISZERO PUSH2 0x2D70 JUMPI PUSH1 0x40 MLOAD PUSH4 0x1D2B089 PUSH1 0xE1 SHL DUP2 MSTORE PUSH1 0x4 ADD PUSH1 0x40 MLOAD DUP1 SWAP2 SUB SWAP1 REVERT JUMPDEST PUSH0 PUSH2 0x2D7B DUP9 DUP9 PUSH2 0x2E6F JUMP JUMPDEST SWAP1 POP PUSH1 0x1 DUP7 LT DUP1 PUSH2 0x2D8B JUMPI POP DUP1 DUP7 GT JUMPDEST ISZERO PUSH2 0x2DA9 JUMPI PUSH1 0x40 MLOAD PUSH4 0xB046F89 PUSH1 0xE2 SHL DUP2 MSTORE PUSH1 0x4 ADD PUSH1 0x40 MLOAD DUP1 SWAP2 SUB SWAP1 REVERT JUMPDEST PUSH2 0x2DB7 DUP9 DUP9 DUP9 DUP9 DUP9 PUSH0 PUSH2 0x2ED3 JUMP JUMPDEST SWAP2 POP PUSH0 DUP4 SGT ISZERO PUSH2 0x2DDE JUMPI PUSH2 0x2DCD DUP4 PUSH2 0xE10 PUSH2 0x38E7 JUMP JUMPDEST PUSH2 0x2DD7 SWAP1 DUP4 PUSH2 0x38FE JUMP JUMPDEST SWAP2 POP PUSH2 0x2E08 JUMP JUMPDEST PUSH0 DUP4 SLT ISZERO PUSH2 0x2E08 JUMPI PUSH2 0x2DEF DUP4 PUSH2 0x3938 JUMP JUMPDEST PUSH2 0x2DFB SWAP1 PUSH2 0xE10 PUSH2 0x38E7 JUMP JUMPDEST PUSH2 0x2E05 SWAP1 DUP4 PUSH2 0x38BC JUMP JUMPDEST SWAP2 POP JUMPDEST POP SWAP7 SWAP6 POP POP POP POP POP POP JUMP JUMPDEST PUSH0 PUSH2 0x2E1F PUSH1 0x4 DUP4 PUSH2 0x3952 JUMP JUMPDEST PUSH2 0xFFFF AND ISZERO PUSH2 0x2E2F JUMPI POP PUSH0 SWAP2 SWAP1 POP JUMP JUMPDEST PUSH2 0x2E3A PUSH1 0x64 DUP4 PUSH2 0x3952 JUMP JUMPDEST PUSH2 0xFFFF AND ISZERO PUSH2 0x2E4B JUMPI POP PUSH1 0x1 SWAP2 SWAP1 POP JUMP JUMPDEST PUSH2 0x2E57 PUSH2 0x190 DUP4 PUSH2 0x3952 JUMP JUMPDEST PUSH2 0xFFFF AND ISZERO PUSH2 0x2E67 JUMPI POP PUSH0 SWAP2 SWAP1 POP JUMP JUMPDEST POP PUSH1 0x1 SWAP2 SWAP1 POP JUMP JUMPDEST PUSH0 DUP2 PUSH1 0x2 SUB PUSH2 0x2E99 JUMPI PUSH2 0x2E81 DUP4 PUSH2 0x2E13 JUMP JUMPDEST PUSH2 0x2E8C JUMPI PUSH1 0x1C PUSH2 0x2E8F JUMP JUMPDEST PUSH1 0x1D JUMPDEST PUSH1 0xFF AND SWAP1 POP PUSH2 0x294B JUMP JUMPDEST DUP2 PUSH1 0x4 EQ DUP1 PUSH2 0x2EA8 JUMPI POP DUP2 PUSH1 0x6 EQ JUMPDEST DUP1 PUSH2 0x2EB3 JUMPI POP DUP2 PUSH1 0x9 EQ JUMPDEST DUP1 PUSH2 0x2EBE JUMPI POP DUP2 PUSH1 0xB EQ JUMPDEST ISZERO PUSH2 0x2ECB JUMPI POP PUSH1 0x1E PUSH2 0x294B JUMP JUMPDEST POP PUSH1 0x1F PUSH2 0x294B JUMP JUMPDEST PUSH0 PUSH2 0x7B2 JUMPDEST DUP8 DUP2 PUSH2 0xFFFF AND LT ISZERO PUSH2 0x2F20 JUMPI PUSH2 0x2EED DUP2 PUSH2 0x2E13 JUMP JUMPDEST ISZERO PUSH2 0x2F07 JUMPI PUSH2 0x2F00 PUSH4 0x1E28500 DUP4 PUSH2 0x38BC JUMP JUMPDEST SWAP2 POP PUSH2 0x2F18 JUMP JUMPDEST PUSH2 0x2F15 PUSH4 0x1E13380 DUP4 PUSH2 0x38BC JUMP JUMPDEST SWAP2 POP JUMPDEST PUSH1 0x1 ADD PUSH2 0x2ED8 JUMP JUMPDEST PUSH1 0x40 DUP1 MLOAD PUSH2 0x180 DUP2 ADD DUP3 MSTORE PUSH1 0x1F DUP1 DUP3 MSTORE PUSH1 0x1C PUSH1 0x20 DUP4 ADD MSTORE SWAP2 DUP2 ADD DUP3 SWAP1 MSTORE PUSH1 0x1E PUSH1 0x60 DUP3 ADD DUP2 SWAP1 MSTORE PUSH1 0x80 DUP3 ADD DUP4 SWAP1 MSTORE PUSH1 0xA0 DUP3 ADD DUP2 SWAP1 MSTORE PUSH1 0xC0 DUP3 ADD DUP4 SWAP1 MSTORE PUSH1 0xE0 DUP3 ADD DUP4 SWAP1 MSTORE PUSH2 0x100 DUP3 ADD DUP2 SWAP1 MSTORE PUSH2 0x120 DUP3 ADD DUP4 SWAP1 MSTORE PUSH2 0x140 DUP3 ADD MSTORE PUSH2 0x160 DUP2 ADD SWAP2 SWAP1 SWAP2 MSTORE PUSH2 0x2F8A DUP10 PUSH2 0x2E13 JUMP JUMPDEST ISZERO PUSH2 0x2F97 JUMPI PUSH1 0x1D PUSH1 0x20 DUP3 ADD MSTORE JUMPDEST PUSH1 0x1 SWAP2 POP JUMPDEST DUP8 DUP3 PUSH2 0xFFFF AND LT ISZERO PUSH2 0x2FF4 JUMPI DUP1 PUSH2 0x2FB4 PUSH1 0x1 DUP5 PUSH2 0x3975 JUMP JUMPDEST PUSH2 0xFFFF AND PUSH1 0xC DUP2 LT PUSH2 0x2FC8 JUMPI PUSH2 0x2FC8 PUSH2 0x383A JUMP JUMPDEST PUSH1 0x20 MUL ADD MLOAD PUSH2 0x2FDD SWAP1 PUSH1 0xFF AND PUSH3 0x15180 PUSH2 0x38E7 JUMP JUMPDEST PUSH2 0x2FE7 SWAP1 DUP5 PUSH2 0x38BC JUMP JUMPDEST SWAP3 POP DUP2 PUSH1 0x1 ADD SWAP2 POP PUSH2 0x2F9C JUMP JUMPDEST PUSH2 0x2FFF PUSH1 0x1 DUP9 PUSH2 0x38FE JUMP JUMPDEST PUSH2 0x300C SWAP1 PUSH3 0x15180 PUSH2 0x38E7 JUMP JUMPDEST PUSH2 0x3016 SWAP1 DUP5 PUSH2 0x38BC JUMP JUMPDEST SWAP3 POP PUSH2 0x3024 DUP7 PUSH2 0xE10 PUSH2 0x38E7 JUMP JUMPDEST PUSH2 0x302E SWAP1 DUP5 PUSH2 0x38BC JUMP JUMPDEST SWAP3 POP PUSH2 0x303B DUP6 PUSH1 0x3C PUSH2 0x38E7 JUMP JUMPDEST PUSH2 0x3045 SWAP1 DUP5 PUSH2 0x38BC JUMP JUMPDEST SWAP3 POP PUSH2 0x3051 DUP5 DUP5 PUSH2 0x38BC JUMP JUMPDEST SWAP10 SWAP9 POP POP POP POP POP POP POP POP POP JUMP JUMPDEST PUSH0 PUSH1 0x20 DUP3 DUP5 SUB SLT ISZERO PUSH2 0x306E JUMPI PUSH0 PUSH0 REVERT JUMPDEST POP CALLDATALOAD SWAP2 SWAP1 POP JUMP JUMPDEST PUSH4 0x4E487B71 PUSH1 0xE0 SHL PUSH0 MSTORE PUSH1 0x21 PUSH1 0x4 MSTORE PUSH1 0x24 PUSH0 REVERT JUMPDEST PUSH1 0x8 DUP2 LT PUSH2 0x30A5 JUMPI PUSH4 0x4E487B71 PUSH1 0xE0 SHL PUSH0 MSTORE PUSH1 0x21 PUSH1 0x4 MSTORE PUSH1 0x24 PUSH0 REVERT JUMPDEST SWAP1 MSTORE JUMP JUMPDEST PUSH0 DUP2 MLOAD DUP1 DUP5 MSTORE DUP1 PUSH1 0x20 DUP5 ADD PUSH1 0x20 DUP7 ADD MCOPY PUSH0 PUSH1 0x20 DUP3 DUP7 ADD ADD MSTORE PUSH1 0x20 PUSH1 0x1F NOT PUSH1 0x1F DUP4 ADD AND DUP6 ADD ADD SWAP2 POP POP SWAP3 SWAP2 POP POP JUMP JUMPDEST PUSH2 0x30E1 DUP2 DUP5 PUSH2 0x3089 JUMP JUMPDEST PUSH1 0x40 PUSH1 0x20 DUP3 ADD MSTORE PUSH0 PUSH2 0x30F6 PUSH1 0x40 DUP4 ADD DUP5 PUSH2 0x30A9 JUMP JUMPDEST SWAP5 SWAP4 POP POP POP POP JUMP JUMPDEST PUSH4 0x4E487B71 PUSH1 0xE0 SHL PUSH0 MSTORE PUSH1 0x41 PUSH1 0x4 MSTORE PUSH1 0x24 PUSH0 REVERT JUMPDEST PUSH0 DUP3 PUSH1 0x1F DUP4 ADD SLT PUSH2 0x3121 JUMPI PUSH0 PUSH0 REVERT JUMPDEST DUP2 CALLDATALOAD PUSH1 0x1 PUSH1 0x1 PUSH1 0x40 SHL SUB DUP2 GT ISZERO PUSH2 0x313A JUMPI PUSH2 0x313A PUSH2 0x30FE JUMP JUMPDEST PUSH1 0x40 MLOAD PUSH1 0x1F DUP3 ADD PUSH1 0x1F NOT SWAP1 DUP2 AND PUSH1 0x3F ADD AND DUP2 ADD PUSH1 0x1 PUSH1 0x1 PUSH1 0x40 SHL SUB DUP2 GT DUP3 DUP3 LT OR ISZERO PUSH2 0x3168 JUMPI PUSH2 0x3168 PUSH2 0x30FE JUMP JUMPDEST PUSH1 0x40 MSTORE DUP2 DUP2 MSTORE DUP4 DUP3 ADD PUSH1 0x20 ADD DUP6 LT ISZERO PUSH2 0x317F JUMPI PUSH0 PUSH0 REVERT JUMPDEST DUP2 PUSH1 0x20 DUP6 ADD PUSH1 0x20 DUP4 ADD CALLDATACOPY PUSH0 SWAP2 DUP2 ADD PUSH1 0x20 ADD SWAP2 SWAP1 SWAP2 MSTORE SWAP4 SWAP3 POP POP POP JUMP JUMPDEST PUSH0 PUSH0 PUSH1 0x40 DUP4 DUP6 SUB SLT ISZERO PUSH2 0x31AC JUMPI PUSH0 PUSH0 REVERT JUMPDEST DUP3 CALLDATALOAD SWAP2 POP PUSH1 0x20 DUP4 ADD CALLDATALOAD PUSH1 0x1 PUSH1 0x1 PUSH1 0x40 SHL SUB DUP2 GT ISZERO PUSH2 0x31C8 JUMPI PUSH0 PUSH0 REVERT JUMPDEST PUSH2 0x31D4 DUP6 DUP3 DUP7 ADD PUSH2 0x3112 JUMP JUMPDEST SWAP2 POP POP SWAP3 POP SWAP3 SWAP1 POP JUMP JUMPDEST PUSH1 0x20 DUP2 MSTORE PUSH0 PUSH2 0x31F0 PUSH1 0x20 DUP4 ADD DUP5 PUSH2 0x30A9 JUMP JUMPDEST SWAP4 SWAP3 POP POP POP JUMP JUMPDEST DUP1 CALLDATALOAD PUSH1 0x1 PUSH1 0x1 PUSH1 0xA0 SHL SUB DUP2 AND DUP2 EQ PUSH2 0x320D JUMPI PUSH0 PUSH0 REVERT JUMPDEST SWAP2 SWAP1 POP JUMP JUMPDEST PUSH0 PUSH1 0x20 DUP3 DUP5 SUB SLT ISZERO PUSH2 0x3222 JUMPI PUSH0 PUSH0 REVERT JUMPDEST PUSH2 0x31F0 DUP3 PUSH2 0x31F7 JUMP JUMPDEST PUSH0 PUSH0 PUSH1 0x40 DUP4 DUP6 SUB SLT ISZERO PUSH2 0x323C JUMPI PUSH0 PUSH0 REVERT JUMPDEST PUSH2 0x3245 DUP4 PUSH2 0x31F7 JUMP JUMPDEST SWAP2 POP PUSH1 0x20 DUP4 ADD CALLDATALOAD PUSH1 0x1 PUSH1 0x1 PUSH1 0x40 SHL SUB DUP2 GT ISZERO PUSH2 0x31C8 JUMPI PUSH0 PUSH0 REVERT JUMPDEST PUSH0 PUSH1 0x20 DUP3 DUP5 SUB SLT ISZERO PUSH2 0x326F JUMPI PUSH0 PUSH0 REVERT JUMPDEST DUP2 CALLDATALOAD PUSH1 0x1 PUSH1 0x1 PUSH1 0x40 SHL SUB DUP2 GT ISZERO PUSH2 0x3284 JUMPI PUSH0 PUSH0 REVERT JUMPDEST PUSH2 0x30F6 DUP5 DUP3 DUP6 ADD PUSH2 0x3112 JUMP JUMPDEST PUSH2 0x180 DUP2 MSTORE PUSH0 PUSH2 0x32A4 PUSH2 0x180 DUP4 ADD DUP16 PUSH2 0x30A9 JUMP JUMPDEST DUP3 DUP2 SUB PUSH1 0x20 DUP5 ADD MSTORE PUSH2 0x32B6 DUP2 DUP16 PUSH2 0x30A9 JUMP JUMPDEST SWAP1 POP DUP3 DUP2 SUB PUSH1 0x40 DUP5 ADD MSTORE PUSH2 0x32CA DUP2 DUP15 PUSH2 0x30A9 JUMP JUMPDEST SWAP1 POP DUP12 PUSH1 0x60 DUP5 ADD MSTORE DUP11 PUSH1 0x80 DUP5 ADD MSTORE DUP10 PUSH1 0xA0 DUP5 ADD MSTORE DUP9 PUSH1 0xC0 DUP5 ADD MSTORE DUP8 PUSH1 0xE0 DUP5 ADD MSTORE DUP7 PUSH2 0x100 DUP5 ADD MSTORE DUP6 PUSH2 0x120 DUP5 ADD MSTORE DUP3 DUP2 SUB PUSH2 0x140 DUP5 ADD MSTORE PUSH2 0x330B DUP2 DUP7 PUSH2 0x30A9 JUMP JUMPDEST SWAP2 POP POP DUP3 ISZERO ISZERO PUSH2 0x160 DUP4 ADD MSTORE SWAP14 SWAP13 POP POP POP POP POP POP POP POP POP POP POP POP POP JUMP JUMPDEST DUP4 DUP2 MSTORE PUSH1 0x1 PUSH1 0x1 PUSH1 0xA0 SHL SUB DUP4 AND PUSH1 0x20 DUP3 ADD MSTORE PUSH1 0x60 PUSH1 0x40 DUP3 ADD DUP2 SWAP1 MSTORE PUSH0 SWAP1 PUSH2 0x3351 SWAP1 DUP4 ADD DUP5 PUSH2 0x30A9 JUMP JUMPDEST SWAP6 SWAP5 POP POP POP POP POP JUMP JUMPDEST PUSH0 PUSH0 PUSH0 PUSH0 PUSH0 PUSH0 PUSH0 PUSH0 PUSH2 0x100 DUP10 DUP12 SUB SLT ISZERO PUSH2 0x3372 JUMPI PUSH0 PUSH0 REVERT JUMPDEST DUP9 CALLDATALOAD PUSH1 0x1 PUSH1 0x1 PUSH1 0x40 SHL SUB DUP2 GT ISZERO PUSH2 0x3387 JUMPI PUSH0 PUSH0 REVERT JUMPDEST PUSH2 0x3393 DUP12 DUP3 DUP13 ADD PUSH2 0x3112 JUMP JUMPDEST SWAP9 POP POP PUSH1 0x20 DUP10 ADD CALLDATALOAD PUSH1 0x1 PUSH1 0x1 PUSH1 0x40 SHL SUB DUP2 GT ISZERO PUSH2 0x33AE JUMPI PUSH0 PUSH0 REVERT JUMPDEST PUSH2 0x33BA DUP12 DUP3 DUP13 ADD PUSH2 0x3112 JUMP JUMPDEST SWAP9 SWAP12 SWAP9 SWAP11 POP POP POP POP PUSH1 0x40 DUP8 ADD CALLDATALOAD SWAP7 PUSH1 0x60 DUP2 ADD CALLDATALOAD SWAP7 PUSH1 0x80 DUP3 ADD CALLDATALOAD SWAP7 POP PUSH1 0xA0 DUP3 ADD CALLDATALOAD SWAP6 POP PUSH1 0xC0 DUP3 ADD CALLDATALOAD SWAP5 POP PUSH1 0xE0 SWAP1 SWAP2 ADD CALLDATALOAD SWAP3 POP SWAP1 POP JUMP JUMPDEST PUSH0 PUSH0 PUSH0 PUSH0 PUSH0 PUSH0 PUSH0 PUSH0 PUSH0 PUSH0 PUSH0 PUSH2 0x160 DUP13 DUP15 SUB SLT ISZERO PUSH2 0x340A JUMPI PUSH0 PUSH0 REVERT JUMPDEST DUP12 CALLDATALOAD PUSH1 0x1 PUSH1 0x1 PUSH1 0x40 SHL SUB DUP2 GT ISZERO PUSH2 0x341F JUMPI PUSH0 PUSH0 REVERT JUMPDEST PUSH2 0x342B DUP15 DUP3 DUP16 ADD PUSH2 0x3112 JUMP JUMPDEST SWAP12 POP POP PUSH1 0x20 DUP13 ADD CALLDATALOAD PUSH1 0x1 PUSH1 0x1 PUSH1 0x40 SHL SUB DUP2 GT ISZERO PUSH2 0x3446 JUMPI PUSH0 PUSH0 REVERT JUMPDEST PUSH2 0x3452 DUP15 DUP3 DUP16 ADD PUSH2 0x3112 JUMP JUMPDEST SWAP11 POP POP PUSH1 0x40 DUP13 ADD CALLDATALOAD PUSH1 0x1 PUSH1 0x1 PUSH1 0x40 SHL SUB DUP2 GT ISZERO PUSH2 0x346D JUMPI PUSH0 PUSH0 REVERT JUMPDEST PUSH2 0x3479 DUP15 DUP3 DUP16 ADD PUSH2 0x3112 JUMP JUMPDEST SWAP10 POP POP PUSH1 0x60 DUP13 ADD CALLDATALOAD SWAP8 POP PUSH1 0x80 DUP13 ADD CALLDATALOAD SWAP7 POP PUSH1 0xA0 DUP13 ADD CALLDATALOAD SWAP6 POP PUSH1 0xC0 DUP13 ADD CALLDATALOAD SWAP5 POP PUSH1 0xE0 DUP13 ADD CALLDATALOAD SWAP4 POP PUSH2 0x100 DUP13 ADD CALLDATALOAD SWAP3 POP PUSH2 0x120 DUP13 ADD CALLDATALOAD SWAP2 POP PUSH2 0x140 DUP13 ADD CALLDATALOAD PUSH1 0x1 PUSH1 0x1 PUSH1 0x40 SHL SUB DUP2 GT ISZERO PUSH2 0x34C8 JUMPI PUSH0 PUSH0 REVERT JUMPDEST PUSH2 0x34D4 DUP15 DUP3 DUP16 ADD PUSH2 0x3112 JUMP JUMPDEST SWAP2 POP POP SWAP3 SWAP6 SWAP9 SWAP12 POP SWAP3 SWAP6 SWAP9 SWAP12 SWAP1 SWAP4 SWAP7 SWAP10 POP JUMP JUMPDEST DUP3 ISZERO ISZERO DUP2 MSTORE PUSH1 0x40 PUSH1 0x20 DUP3 ADD MSTORE PUSH0 PUSH2 0x30F6 PUSH1 0x40 DUP4 ADD DUP5 PUSH2 0x30A9 JUMP JUMPDEST PUSH0 DUP3 DUP3 MLOAD DUP1 DUP6 MSTORE PUSH1 0x20 DUP6 ADD SWAP5 POP PUSH1 0x20 DUP2 PUSH1 0x5 SHL DUP4 ADD ADD PUSH1 0x20 DUP6 ADD PUSH0 JUMPDEST DUP4 DUP2 LT ISZERO PUSH2 0x354F JUMPI PUSH1 0x1F NOT DUP6 DUP5 SUB ADD DUP9 MSTORE PUSH2 0x3539 DUP4 DUP4 MLOAD PUSH2 0x30A9 JUMP JUMPDEST PUSH1 0x20 SWAP9 DUP10 ADD SWAP9 SWAP1 SWAP4 POP SWAP2 SWAP1 SWAP2 ADD SWAP1 PUSH1 0x1 ADD PUSH2 0x351D JUMP JUMPDEST POP SWAP1 SWAP7 SWAP6 POP POP POP POP POP POP JUMP JUMPDEST PUSH1 0x60 DUP1 DUP3 MSTORE DUP5 MLOAD SWAP1 DUP3 ADD DUP2 SWAP1 MSTORE PUSH0 SWAP1 PUSH1 0x20 DUP7 ADD SWAP1 PUSH1 0x80 DUP5 ADD SWAP1 DUP4 JUMPDEST DUP2 DUP2 LT ISZERO PUSH2 0x3594 JUMPI DUP4 MLOAD DUP4 MSTORE PUSH1 0x20 SWAP4 DUP5 ADD SWAP4 SWAP1 SWAP3 ADD SWAP2 PUSH1 0x1 ADD PUSH2 0x3576 JUMP JUMPDEST POP POP DUP4 DUP2 SUB PUSH1 0x20 DUP1 DUP7 ADD SWAP2 SWAP1 SWAP2 MSTORE DUP7 MLOAD DUP1 DUP4 MSTORE SWAP2 DUP2 ADD SWAP3 POP DUP7 ADD SWAP1 PUSH0 JUMPDEST DUP2 DUP2 LT ISZERO PUSH2 0x35D8 JUMPI DUP3 MLOAD PUSH1 0x1 PUSH1 0x1 PUSH1 0xA0 SHL SUB AND DUP5 MSTORE PUSH1 0x20 SWAP4 DUP5 ADD SWAP4 SWAP1 SWAP3 ADD SWAP2 PUSH1 0x1 ADD PUSH2 0x35B1 JUMP JUMPDEST POP POP POP DUP3 DUP2 SUB PUSH1 0x40 DUP5 ADD MSTORE PUSH2 0x35ED DUP2 DUP6 PUSH2 0x3501 JUMP JUMPDEST SWAP7 SWAP6 POP POP POP POP POP POP JUMP JUMPDEST PUSH1 0x1 PUSH1 0x1 PUSH1 0xA0 SHL SUB DUP4 AND DUP2 MSTORE PUSH1 0x40 PUSH1 0x20 DUP3 ADD DUP2 SWAP1 MSTORE PUSH0 SWAP1 PUSH2 0x30F6 SWAP1 DUP4 ADD DUP5 PUSH2 0x30A9 JUMP JUMPDEST PUSH2 0x160 DUP2 MSTORE PUSH0 PUSH2 0x362E PUSH2 0x160 DUP4 ADD DUP15 PUSH2 0x30A9 JUMP JUMPDEST DUP3 DUP2 SUB PUSH1 0x20 DUP5 ADD MSTORE PUSH2 0x3640 DUP2 DUP15 PUSH2 0x30A9 JUMP JUMPDEST SWAP1 POP DUP3 DUP2 SUB PUSH1 0x40 DUP5 ADD MSTORE PUSH2 0x3654 DUP2 DUP14 PUSH2 0x30A9 JUMP JUMPDEST SWAP1 POP DUP11 PUSH1 0x60 DUP5 ADD MSTORE DUP10 PUSH1 0x80 DUP5 ADD MSTORE DUP3 DUP2 SUB PUSH1 0xA0 DUP5 ADD MSTORE PUSH2 0x3674 DUP2 DUP11 PUSH2 0x30A9 JUMP JUMPDEST SWAP1 POP PUSH2 0x3683 PUSH1 0xC0 DUP5 ADD DUP10 PUSH2 0x3089 JUMP JUMPDEST DUP3 DUP2 SUB PUSH1 0xE0 DUP5 ADD MSTORE PUSH2 0x3695 DUP2 DUP9 PUSH2 0x30A9 JUMP JUMPDEST PUSH1 0x1 PUSH1 0x1 PUSH1 0xA0 SHL SUB DUP8 AND PUSH2 0x100 DUP6 ADD MSTORE DUP4 DUP2 SUB PUSH2 0x120 DUP6 ADD MSTORE SWAP1 POP PUSH2 0x36BA DUP2 DUP7 PUSH2 0x30A9 JUMP JUMPDEST SWAP2 POP POP DUP3 PUSH2 0x140 DUP4 ADD MSTORE SWAP13 SWAP12 POP POP POP POP POP POP POP POP POP POP POP POP JUMP JUMPDEST PUSH0 DUP2 MLOAD DUP1 PUSH1 0x20 DUP5 ADD DUP6 MCOPY PUSH0 SWAP4 ADD SWAP3 DUP4 MSTORE POP SWAP1 SWAP2 SWAP1 POP JUMP JUMPDEST DUP3 DUP2 MSTORE PUSH0 PUSH2 0x30F6 PUSH1 0x20 DUP4 ADD DUP5 PUSH2 0x36D4 JUMP JUMPDEST PUSH1 0x1 DUP2 DUP2 SHR SWAP1 DUP3 AND DUP1 PUSH2 0x3710 JUMPI PUSH1 0x7F DUP3 AND SWAP2 POP JUMPDEST PUSH1 0x20 DUP3 LT DUP2 SUB PUSH2 0x372E JUMPI PUSH4 0x4E487B71 PUSH1 0xE0 SHL PUSH0 MSTORE PUSH1 0x22 PUSH1 0x4 MSTORE PUSH1 0x24 PUSH0 REVERT JUMPDEST POP SWAP2 SWAP1 POP JUMP JUMPDEST PUSH1 0x1F DUP3 GT ISZERO PUSH2 0x377B JUMPI DUP1 PUSH0 MSTORE PUSH1 0x20 PUSH0 KECCAK256 PUSH1 0x1F DUP5 ADD PUSH1 0x5 SHR DUP2 ADD PUSH1 0x20 DUP6 LT ISZERO PUSH2 0x3759 JUMPI POP DUP1 JUMPDEST PUSH1 0x1F DUP5 ADD PUSH1 0x5 SHR DUP3 ADD SWAP2 POP JUMPDEST DUP2 DUP2 LT ISZERO PUSH2 0x3778 JUMPI PUSH0 DUP2 SSTORE PUSH1 0x1 ADD PUSH2 0x3765 JUMP JUMPDEST POP POP JUMPDEST POP POP POP JUMP JUMPDEST DUP2 MLOAD PUSH1 0x1 PUSH1 0x1 PUSH1 0x40 SHL SUB DUP2 GT ISZERO PUSH2 0x3799 JUMPI PUSH2 0x3799 PUSH2 0x30FE JUMP JUMPDEST PUSH2 0x37AD DUP2 PUSH2 0x37A7 DUP5 SLOAD PUSH2 0x36FC JUMP JUMPDEST DUP5 PUSH2 0x3734 JUMP JUMPDEST PUSH1 0x20 PUSH1 0x1F DUP3 GT PUSH1 0x1 DUP2 EQ PUSH2 0x37DF JUMPI PUSH0 DUP4 ISZERO PUSH2 0x37C8 JUMPI POP DUP5 DUP3 ADD MLOAD JUMPDEST PUSH0 NOT PUSH1 0x3 DUP6 SWAP1 SHL SHR NOT AND PUSH1 0x1 DUP5 SWAP1 SHL OR DUP5 SSTORE PUSH2 0x3778 JUMP JUMPDEST PUSH0 DUP5 DUP2 MSTORE PUSH1 0x20 DUP2 KECCAK256 PUSH1 0x1F NOT DUP6 AND SWAP2 JUMPDEST DUP3 DUP2 LT ISZERO PUSH2 0x380E JUMPI DUP8 DUP6 ADD MLOAD DUP3 SSTORE PUSH1 0x20 SWAP5 DUP6 ADD SWAP5 PUSH1 0x1 SWAP1 SWAP3 ADD SWAP2 ADD PUSH2 0x37EE JUMP JUMPDEST POP DUP5 DUP3 LT ISZERO PUSH2 0x382B JUMPI DUP7 DUP5 ADD MLOAD PUSH0 NOT PUSH1 0x3 DUP8 SWAP1 SHL PUSH1 0xF8 AND SHR NOT AND DUP2 SSTORE JUMPDEST POP POP POP POP PUSH1 0x1 SWAP1 DUP2 SHL ADD SWAP1 SSTORE POP JUMP JUMPDEST PUSH4 0x4E487B71 PUSH1 0xE0 SHL PUSH0 MSTORE PUSH1 0x32 PUSH1 0x4 MSTORE PUSH1 0x24 PUSH0 REVERT JUMPDEST PUSH0 PUSH2 0x3862 PUSH2 0x385C DUP4 DUP8 PUSH2 0x36D4 JUMP JUMPDEST DUP6 PUSH2 0x36D4 JUMP JUMPDEST SWAP3 DUP4 MSTORE POP POP PUSH1 0x20 ADD SWAP3 SWAP2 POP POP JUMP JUMPDEST PUSH1 0x80 DUP2 MSTORE PUSH0 PUSH2 0x3882 PUSH1 0x80 DUP4 ADD DUP8 PUSH2 0x30A9 JUMP JUMPDEST DUP3 DUP2 SUB PUSH1 0x20 DUP5 ADD MSTORE PUSH2 0x3894 DUP2 DUP8 PUSH2 0x30A9 JUMP JUMPDEST PUSH1 0x40 DUP5 ADD SWAP6 SWAP1 SWAP6 MSTORE POP POP PUSH1 0x60 ADD MSTORE SWAP3 SWAP2 POP POP JUMP JUMPDEST PUSH4 0x4E487B71 PUSH1 0xE0 SHL PUSH0 MSTORE PUSH1 0x11 PUSH1 0x4 MSTORE PUSH1 0x24 PUSH0 REVERT JUMPDEST DUP1 DUP3 ADD DUP1 DUP3 GT ISZERO PUSH2 0x294B JUMPI PUSH2 0x294B PUSH2 0x38A8 JUMP JUMPDEST PUSH0 PUSH1 0x1 DUP3 ADD PUSH2 0x38E0 JUMPI PUSH2 0x38E0 PUSH2 0x38A8 JUMP JUMPDEST POP PUSH1 0x1 ADD SWAP1 JUMP JUMPDEST DUP1 DUP3 MUL DUP2 ISZERO DUP3 DUP3 DIV DUP5 EQ OR PUSH2 0x294B JUMPI PUSH2 0x294B PUSH2 0x38A8 JUMP JUMPDEST DUP2 DUP2 SUB DUP2 DUP2 GT ISZERO PUSH2 0x294B JUMPI PUSH2 0x294B PUSH2 0x38A8 JUMP JUMPDEST PUSH4 0x4E487B71 PUSH1 0xE0 SHL PUSH0 MSTORE PUSH1 0x12 PUSH1 0x4 MSTORE PUSH1 0x24 PUSH0 REVERT JUMPDEST PUSH0 DUP3 PUSH2 0x3933 JUMPI PUSH2 0x3933 PUSH2 0x3911 JUMP JUMPDEST POP DIV SWAP1 JUMP JUMPDEST PUSH0 PUSH1 0x1 PUSH1 0xFF SHL DUP3 ADD PUSH2 0x394C JUMPI PUSH2 0x394C PUSH2 0x38A8 JUMP JUMPDEST POP PUSH0 SUB SWAP1 JUMP JUMPDEST PUSH0 PUSH2 0xFFFF DUP4 AND DUP1 PUSH2 0x3965 JUMPI PUSH2 0x3965 PUSH2 0x3911 JUMP JUMPDEST DUP1 PUSH2 0xFFFF DUP5 AND MOD SWAP2 POP POP SWAP3 SWAP2 POP POP JUMP JUMPDEST PUSH2 0xFFFF DUP3 DUP2 AND DUP3 DUP3 AND SUB SWAP1 DUP2 GT ISZERO PUSH2 0x294B JUMPI PUSH2 0x294B PUSH2 0x38A8 JUMP INVALID LOG2 PUSH5 0x6970667358 0x22 SLT KECCAK256 RJUMPI 0xC2BE 0xDB SLOAD PUSH21 0x3D2EF97AA0643B1BA9032F98845ADACFF0C0A071B9 0x4E 0xB3 JUMPF 0xF26E PUSH5 0x736F6C6343 STOP ADDMOD 0x1F STOP CALLER "
				},
				"gasEstimates": {
					"creation": {
						"codeDepositCost": "2957800",
						"executionCost": "27455",
						"totalCost": "2985255"
					},
					"external": {
						"MAX_BIDDERS()": "262",
						"acceptAdminRole()": "52419",
						"acceptDelivery(bytes32)": "56539",
						"admin()": "2467",
						"awardTender()": "38640",
						"bidderDescriptions(address)": "infinite",
						"bidderList(uint256)": "4655",
						"bids(address)": "9068",
						"createTenderWithLocalTime(string,string,string,uint256,uint256,uint256,uint256,uint256,int256,uint256,string)": "infinite",
						"deliveryEvidenceHash()": "2362",
						"evaluateTender()": "infinite",
						"fundContract()": "4015",
						"getAllRegisteredBidders()": "infinite",
						"getBidDetails(address)": "9264",
						"getBidderCount()": "2380",
						"getBidderProfile(address)": "infinite",
						"getContractBalance()": "304",
						"getCurrentStatusText()": "infinite",
						"getDeliveryEvidenceHashWithLocalTime(string,string,uint256,uint256,uint256,uint256,uint256,int256)": "infinite",
						"getInspectionReportHashWithLocalTime(string,string,uint256,uint256,uint256,uint256,uint256,int256)": "infinite",
						"getLowestBidDetails()": "infinite",
						"getSealedBidHash(uint256,string)": "infinite",
						"getSubmissionDeadlineReadable()": "infinite",
						"getTenderSummary()": "infinite",
						"inspectionReportHash()": "2405",
						"inspector()": "2446",
						"lowestBid()": "2449",
						"openRevealPhase()": "33778",
						"paymentReleased()": "2376",
						"pendingAdmin()": "2471",
						"registerBidder(address,string)": "infinite",
						"registeredBidders(address)": "2618",
						"rejectDelivery(string)": "infinite",
						"rejectionReason()": "infinite",
						"releasePayment()": "infinite",
						"revealBid(uint256,string)": "infinite",
						"setInspector(address)": "36539",
						"status()": "infinite",
						"submitDeliveryEvidence(bytes32)": "56658",
						"submitSealedBid(bytes32)": "88116",
						"tender()": "infinite",
						"transferAdmin(address)": "32659",
						"winner()": "infinite"
					},
					"internal": {
						"_getDaysInMonth(uint256,uint256)": "infinite",
						"_getStatusText(enum KenyaProcurementTransparency.TenderStatus)": "infinite",
						"_isLeapYear(uint16)": "infinite",
						"_timestampToDateTime(uint256)": "infinite",
						"_toTimestamp(uint256,uint256,uint256,uint256,uint256,uint256)": "infinite",
						"_toTimestampWithOffset(uint256,uint256,uint256,uint256,uint256,int256)": "infinite"
					}
				},
				"methodIdentifiers": {
					"MAX_BIDDERS()": "4cc4f50d",
					"acceptAdminRole()": "8c3d7301",
					"acceptDelivery(bytes32)": "0bd58917",
					"admin()": "f851a440",
					"awardTender()": "d0112863",
					"bidderDescriptions(address)": "9134e02b",
					"bidderList(uint256)": "d3584e84",
					"bids(address)": "62ea82db",
					"createTenderWithLocalTime(string,string,string,uint256,uint256,uint256,uint256,uint256,int256,uint256,string)": "905249a3",
					"deliveryEvidenceHash()": "2e9e8e59",
					"evaluateTender()": "592fd028",
					"fundContract()": "bd097e21",
					"getAllRegisteredBidders()": "b6cf8a35",
					"getBidDetails(address)": "8d07ae9f",
					"getBidderCount()": "c87da02d",
					"getBidderProfile(address)": "90c7825a",
					"getContractBalance()": "6f9fb98a",
					"getCurrentStatusText()": "5459b48e",
					"getDeliveryEvidenceHashWithLocalTime(string,string,uint256,uint256,uint256,uint256,uint256,int256)": "8899b7cc",
					"getInspectionReportHashWithLocalTime(string,string,uint256,uint256,uint256,uint256,uint256,int256)": "8c257ef8",
					"getLowestBidDetails()": "808e52cf",
					"getSealedBidHash(uint256,string)": "fa1380b8",
					"getSubmissionDeadlineReadable()": "43902707",
					"getTenderSummary()": "e3c608ef",
					"inspectionReportHash()": "a4a00144",
					"inspector()": "ed2cee9e",
					"lowestBid()": "b6f3d256",
					"openRevealPhase()": "0bf36767",
					"paymentReleased()": "c63735b3",
					"pendingAdmin()": "26782247",
					"registerBidder(address,string)": "36dc1a88",
					"registeredBidders(address)": "356e7ccb",
					"rejectDelivery(string)": "4c5aed38",
					"rejectionReason()": "26bd8926",
					"releasePayment()": "d116c8c4",
					"revealBid(uint256,string)": "2163b8c5",
					"setInspector(address)": "4e5cbf61",
					"status()": "200d2ed2",
					"submitDeliveryEvidence(bytes32)": "7bd2a5da",
					"submitSealedBid(bytes32)": "53321ae6",
					"tender()": "6cb55d1a",
					"transferAdmin(address)": "75829def",
					"winner()": "dfbf53ae"
				}
			},
			"storageLayout": {
				"storage": [
					{
						"astId": 4,
						"contract": ".git/MyContracts/KenyaProcurementTransparency.sol:KenyaProcurementTransparency",
						"label": "admin",
						"offset": 0,
						"slot": "0",
						"type": "t_address"
					},
					{
						"astId": 6,
						"contract": ".git/MyContracts/KenyaProcurementTransparency.sol:KenyaProcurementTransparency",
						"label": "pendingAdmin",
						"offset": 0,
						"slot": "1",
						"type": "t_address"
					},
					{
						"astId": 8,
						"contract": ".git/MyContracts/KenyaProcurementTransparency.sol:KenyaProcurementTransparency",
						"label": "inspector",
						"offset": 0,
						"slot": "2",
						"type": "t_address"
					},
					{
						"astId": 24,
						"contract": ".git/MyContracts/KenyaProcurementTransparency.sol:KenyaProcurementTransparency",
						"label": "_status",
						"offset": 20,
						"slot": "2",
						"type": "t_enum(TenderStatus)21"
					},
					{
						"astId": 55,
						"contract": ".git/MyContracts/KenyaProcurementTransparency.sol:KenyaProcurementTransparency",
						"label": "_tender",
						"offset": 0,
						"slot": "3",
						"type": "t_struct(Tender)40_storage"
					},
					{
						"astId": 59,
						"contract": ".git/MyContracts/KenyaProcurementTransparency.sol:KenyaProcurementTransparency",
						"label": "registeredBidders",
						"offset": 0,
						"slot": "10",
						"type": "t_mapping(t_address,t_bool)"
					},
					{
						"astId": 63,
						"contract": ".git/MyContracts/KenyaProcurementTransparency.sol:KenyaProcurementTransparency",
						"label": "bidderDescriptions",
						"offset": 0,
						"slot": "11",
						"type": "t_mapping(t_address,t_string_storage)"
					},
					{
						"astId": 68,
						"contract": ".git/MyContracts/KenyaProcurementTransparency.sol:KenyaProcurementTransparency",
						"label": "bids",
						"offset": 0,
						"slot": "12",
						"type": "t_mapping(t_address,t_struct(Bid)52_storage)"
					},
					{
						"astId": 71,
						"contract": ".git/MyContracts/KenyaProcurementTransparency.sol:KenyaProcurementTransparency",
						"label": "bidderList",
						"offset": 0,
						"slot": "13",
						"type": "t_array(t_address)dyn_storage"
					},
					{
						"astId": 73,
						"contract": ".git/MyContracts/KenyaProcurementTransparency.sol:KenyaProcurementTransparency",
						"label": "_winner",
						"offset": 0,
						"slot": "14",
						"type": "t_address"
					},
					{
						"astId": 75,
						"contract": ".git/MyContracts/KenyaProcurementTransparency.sol:KenyaProcurementTransparency",
						"label": "lowestBid",
						"offset": 0,
						"slot": "15",
						"type": "t_uint256"
					},
					{
						"astId": 77,
						"contract": ".git/MyContracts/KenyaProcurementTransparency.sol:KenyaProcurementTransparency",
						"label": "deliveryEvidenceHash",
						"offset": 0,
						"slot": "16",
						"type": "t_bytes32"
					},
					{
						"astId": 79,
						"contract": ".git/MyContracts/KenyaProcurementTransparency.sol:KenyaProcurementTransparency",
						"label": "inspectionReportHash",
						"offset": 0,
						"slot": "17",
						"type": "t_bytes32"
					},
					{
						"astId": 81,
						"contract": ".git/MyContracts/KenyaProcurementTransparency.sol:KenyaProcurementTransparency",
						"label": "rejectionReason",
						"offset": 0,
						"slot": "18",
						"type": "t_string_storage"
					},
					{
						"astId": 83,
						"contract": ".git/MyContracts/KenyaProcurementTransparency.sol:KenyaProcurementTransparency",
						"label": "paymentReleased",
						"offset": 0,
						"slot": "19",
						"type": "t_bool"
					},
					{
						"astId": 395,
						"contract": ".git/MyContracts/KenyaProcurementTransparency.sol:KenyaProcurementTransparency",
						"label": "_locked",
						"offset": 1,
						"slot": "19",
						"type": "t_bool"
					}
				],
				"types": {
					"t_address": {
						"encoding": "inplace",
						"label": "address",
						"numberOfBytes": "20"
					},
					"t_array(t_address)dyn_storage": {
						"base": "t_address",
						"encoding": "dynamic_array",
						"label": "address[]",
						"numberOfBytes": "32"
					},
					"t_bool": {
						"encoding": "inplace",
						"label": "bool",
						"numberOfBytes": "1"
					},
					"t_bytes32": {
						"encoding": "inplace",
						"label": "bytes32",
						"numberOfBytes": "32"
					},
					"t_enum(TenderStatus)21": {
						"encoding": "inplace",
						"label": "enum KenyaProcurementTransparency.TenderStatus",
						"numberOfBytes": "1"
					},
					"t_mapping(t_address,t_bool)": {
						"encoding": "mapping",
						"key": "t_address",
						"label": "mapping(address => bool)",
						"numberOfBytes": "32",
						"value": "t_bool"
					},
					"t_mapping(t_address,t_string_storage)": {
						"encoding": "mapping",
						"key": "t_address",
						"label": "mapping(address => string)",
						"numberOfBytes": "32",
						"value": "t_string_storage"
					},
					"t_mapping(t_address,t_struct(Bid)52_storage)": {
						"encoding": "mapping",
						"key": "t_address",
						"label": "mapping(address => struct KenyaProcurementTransparency.Bid)",
						"numberOfBytes": "32",
						"value": "t_struct(Bid)52_storage"
					},
					"t_string_storage": {
						"encoding": "bytes",
						"label": "string",
						"numberOfBytes": "32"
					},
					"t_struct(Bid)52_storage": {
						"encoding": "inplace",
						"label": "struct KenyaProcurementTransparency.Bid",
						"members": [
							{
								"astId": 43,
								"contract": ".git/MyContracts/KenyaProcurementTransparency.sol:KenyaProcurementTransparency",
								"label": "sealedBidHash",
								"offset": 0,
								"slot": "0",
								"type": "t_bytes32"
							},
							{
								"astId": 45,
								"contract": ".git/MyContracts/KenyaProcurementTransparency.sol:KenyaProcurementTransparency",
								"label": "submitted",
								"offset": 0,
								"slot": "1",
								"type": "t_bool"
							},
							{
								"astId": 47,
								"contract": ".git/MyContracts/KenyaProcurementTransparency.sol:KenyaProcurementTransparency",
								"label": "revealed",
								"offset": 1,
								"slot": "1",
								"type": "t_bool"
							},
							{
								"astId": 49,
								"contract": ".git/MyContracts/KenyaProcurementTransparency.sol:KenyaProcurementTransparency",
								"label": "amount",
								"offset": 0,
								"slot": "2",
								"type": "t_uint256"
							},
							{
								"astId": 51,
								"contract": ".git/MyContracts/KenyaProcurementTransparency.sol:KenyaProcurementTransparency",
								"label": "valid",
								"offset": 0,
								"slot": "3",
								"type": "t_bool"
							}
						],
						"numberOfBytes": "128"
					},
					"t_struct(Tender)40_storage": {
						"encoding": "inplace",
						"label": "struct KenyaProcurementTransparency.Tender",
						"members": [
							{
								"astId": 27,
								"contract": ".git/MyContracts/KenyaProcurementTransparency.sol:KenyaProcurementTransparency",
								"label": "tenderNumber",
								"offset": 0,
								"slot": "0",
								"type": "t_string_storage"
							},
							{
								"astId": 29,
								"contract": ".git/MyContracts/KenyaProcurementTransparency.sol:KenyaProcurementTransparency",
								"label": "title",
								"offset": 0,
								"slot": "1",
								"type": "t_string_storage"
							},
							{
								"astId": 31,
								"contract": ".git/MyContracts/KenyaProcurementTransparency.sol:KenyaProcurementTransparency",
								"label": "description",
								"offset": 0,
								"slot": "2",
								"type": "t_string_storage"
							},
							{
								"astId": 33,
								"contract": ".git/MyContracts/KenyaProcurementTransparency.sol:KenyaProcurementTransparency",
								"label": "submissionDeadline",
								"offset": 0,
								"slot": "3",
								"type": "t_uint256"
							},
							{
								"astId": 35,
								"contract": ".git/MyContracts/KenyaProcurementTransparency.sol:KenyaProcurementTransparency",
								"label": "contractAmount",
								"offset": 0,
								"slot": "4",
								"type": "t_uint256"
							},
							{
								"astId": 37,
								"contract": ".git/MyContracts/KenyaProcurementTransparency.sol:KenyaProcurementTransparency",
								"label": "qualificationNote",
								"offset": 0,
								"slot": "5",
								"type": "t_string_storage"
							},
							{
								"astId": 39,
								"contract": ".git/MyContracts/KenyaProcurementTransparency.sol:KenyaProcurementTransparency",
								"label": "exists",
								"offset": 0,
								"slot": "6",
								"type": "t_bool"
							}
						],
						"numberOfBytes": "224"
					},
					"t_uint256": {
						"encoding": "inplace",
						"label": "uint256",
						"numberOfBytes": "32"
					}
				}
			},
			"userdoc": {
				"kind": "user",
				"methods": {
					"acceptAdminRole()": {
						"notice": "Accepts the pending admin role."
					},
					"acceptDelivery(bytes32)": {
						"notice": "Accepts delivery after successful inspection."
					},
					"awardTender()": {
						"notice": "Finalizes the winning bidder after evaluation."
					},
					"constructor": {
						"notice": "Sets the deployer as the initial admin."
					},
					"createTenderWithLocalTime(string,string,string,uint256,uint256,uint256,uint256,uint256,int256,uint256,string)": {
						"notice": "Creates the tender using local date, time, and UTC offset."
					},
					"evaluateTender()": {
						"notice": "Evaluates all valid revealed bids and selects the lowest bid."
					},
					"fundContract()": {
						"notice": "Allows the admin to fund the contract with ETH for later payment."
					},
					"getAllRegisteredBidders()": {
						"notice": "Returns all registered bidders with their indexes, addresses, and descriptions."
					},
					"getBidDetails(address)": {
						"notice": "Returns bid details for a given bidder address."
					},
					"getBidderCount()": {
						"notice": "Returns the number of registered bidders."
					},
					"getBidderProfile(address)": {
						"notice": "Returns registered bidder details for a specific address."
					},
					"getContractBalance()": {
						"notice": "Returns the ETH balance currently held by the contract."
					},
					"getCurrentStatusText()": {
						"notice": "Returns the current tender status as text."
					},
					"getDeliveryEvidenceHashWithLocalTime(string,string,uint256,uint256,uint256,uint256,uint256,int256)": {
						"notice": "Generates a structured hash for delivery evidence using readable local date and time."
					},
					"getInspectionReportHashWithLocalTime(string,string,uint256,uint256,uint256,uint256,uint256,int256)": {
						"notice": "Generates a structured hash for inspection reports using readable local date and time."
					},
					"getLowestBidDetails()": {
						"notice": "Returns the lowest bid details including bidder identity."
					},
					"getSealedBidHash(uint256,string)": {
						"notice": "Returns the hash used for creating a sealed bid commitment."
					},
					"getSubmissionDeadlineReadable()": {
						"notice": "Returns the submission deadline in human-readable UTC form."
					},
					"getTenderSummary()": {
						"notice": "Returns a summary of the current tender and award state."
					},
					"openRevealPhase()": {
						"notice": "Opens the reveal phase after the submission deadline."
					},
					"registerBidder(address,string)": {
						"notice": "Registers a bidder address on the on-chain whitelist."
					},
					"rejectDelivery(string)": {
						"notice": "Rejects delivery and records the reason."
					},
					"releasePayment()": {
						"notice": "Releases payment to the winning bidder after inspection acceptance."
					},
					"revealBid(uint256,string)": {
						"notice": "Reveals a previously committed bid."
					},
					"setInspector(address)": {
						"notice": "Assigns or updates the inspector address."
					},
					"status()": {
						"notice": "Returns the current tender status as both enum value and readable text."
					},
					"submitDeliveryEvidence(bytes32)": {
						"notice": "Allows only the winner to submit delivery evidence."
					},
					"submitSealedBid(bytes32)": {
						"notice": "Allows a registered bidder to submit a sealed bid hash."
					},
					"tender()": {
						"notice": "Returns tender details with both raw and human-readable submission deadline fields."
					},
					"transferAdmin(address)": {
						"notice": "Initiates transfer of admin authority to a new address."
					},
					"winner()": {
						"notice": "Returns the current winning bidder address and description."
					}
				},
				"notice": "A blockchain-based public procurement prototype for transparent tendering, delivery verification, inspection, and conditional payment.",
				"version": 1
			}
		}
	}
}