{
	".git/MyContracts/KenyaProcurementTransparency0.sol": {
		"KenyaProcurementTransparency": {
			"abi": [
				{
					"inputs": [],
					"stateMutability": "payable",
					"type": "constructor"
				},
				{
					"inputs": [],
					"name": "InspectorNotAssigned",
					"type": "error"
				},
				{
					"inputs": [],
					"name": "InvalidTenderStage",
					"type": "error"
				},
				{
					"inputs": [],
					"name": "NotRegisteredBidder",
					"type": "error"
				},
				{
					"inputs": [],
					"name": "OnlyAdmin",
					"type": "error"
				},
				{
					"inputs": [],
					"name": "OnlyInspector",
					"type": "error"
				},
				{
					"inputs": [],
					"name": "SubmissionDeadlineNotReached",
					"type": "error"
				},
				{
					"inputs": [],
					"name": "SubmissionDeadlinePassed",
					"type": "error"
				},
				{
					"inputs": [],
					"name": "TenderDoesNotExist",
					"type": "error"
				},
				{
					"anonymous": false,
					"inputs": [
						{
							"indexed": true,
							"internalType": "address",
							"name": "currentAdmin",
							"type": "address"
						},
						{
							"indexed": true,
							"internalType": "address",
							"name": "newAdmin",
							"type": "address"
						}
					],
					"name": "AdminTransferInitiated",
					"type": "event"
				},
				{
					"anonymous": false,
					"inputs": [
						{
							"indexed": true,
							"internalType": "address",
							"name": "oldAdmin",
							"type": "address"
						},
						{
							"indexed": true,
							"internalType": "address",
							"name": "newAdmin",
							"type": "address"
						}
					],
					"name": "AdminTransferred",
					"type": "event"
				},
				{
					"anonymous": false,
					"inputs": [
						{
							"indexed": false,
							"internalType": "address",
							"name": "bidder",
							"type": "address"
						},
						{
							"indexed": false,
							"internalType": "uint256",
							"name": "amount",
							"type": "uint256"
						}
					],
					"name": "BidRevealed",
					"type": "event"
				},
				{
					"anonymous": false,
					"inputs": [
						{
							"indexed": false,
							"internalType": "address",
							"name": "bidder",
							"type": "address"
						}
					],
					"name": "BidSubmitted",
					"type": "event"
				},
				{
					"anonymous": false,
					"inputs": [
						{
							"indexed": false,
							"internalType": "address",
							"name": "bidder",
							"type": "address"
						},
						{
							"indexed": false,
							"internalType": "string",
							"name": "description",
							"type": "string"
						}
					],
					"name": "BidderRegistered",
					"type": "event"
				},
				{
					"anonymous": false,
					"inputs": [
						{
							"indexed": false,
							"internalType": "address",
							"name": "inspector",
							"type": "address"
						},
						{
							"indexed": false,
							"internalType": "bytes32",
							"name": "inspectionReportHash",
							"type": "bytes32"
						}
					],
					"name": "DeliveryAccepted",
					"type": "event"
				},
				{
					"anonymous": false,
					"inputs": [
						{
							"indexed": false,
							"internalType": "address",
							"name": "inspector",
							"type": "address"
						},
						{
							"indexed": false,
							"internalType": "string",
							"name": "reason",
							"type": "string"
						}
					],
					"name": "DeliveryRejected",
					"type": "event"
				},
				{
					"anonymous": false,
					"inputs": [
						{
							"indexed": false,
							"internalType": "address",
							"name": "winner",
							"type": "address"
						},
						{
							"indexed": false,
							"internalType": "bytes32",
							"name": "deliveryEvidenceHash",
							"type": "bytes32"
						}
					],
					"name": "DeliverySubmitted",
					"type": "event"
				},
				{
					"anonymous": false,
					"inputs": [
						{
							"indexed": false,
							"internalType": "address",
							"name": "inspector",
							"type": "address"
						}
					],
					"name": "InspectorAssigned",
					"type": "event"
				},
				{
					"anonymous": false,
					"inputs": [
						{
							"indexed": false,
							"internalType": "address",
							"name": "winner",
							"type": "address"
						},
						{
							"indexed": false,
							"internalType": "uint256",
							"name": "amount",
							"type": "uint256"
						}
					],
					"name": "PaymentReleased",
					"type": "event"
				},
				{
					"anonymous": false,
					"inputs": [],
					"name": "RevealPhaseOpened",
					"type": "event"
				},
				{
					"anonymous": false,
					"inputs": [
						{
							"indexed": false,
							"internalType": "address",
							"name": "winner",
							"type": "address"
						},
						{
							"indexed": false,
							"internalType": "uint256",
							"name": "amount",
							"type": "uint256"
						}
					],
					"name": "TenderAwarded",
					"type": "event"
				},
				{
					"anonymous": false,
					"inputs": [
						{
							"indexed": false,
							"internalType": "string",
							"name": "tenderNumber",
							"type": "string"
						},
						{
							"indexed": false,
							"internalType": "string",
							"name": "title",
							"type": "string"
						},
						{
							"indexed": false,
							"internalType": "uint256",
							"name": "submissionDeadline",
							"type": "uint256"
						},
						{
							"indexed": false,
							"internalType": "uint256",
							"name": "contractAmount",
							"type": "uint256"
						}
					],
					"name": "TenderCreated",
					"type": "event"
				},
				{
					"anonymous": false,
					"inputs": [
						{
							"indexed": false,
							"internalType": "address",
							"name": "winner",
							"type": "address"
						},
						{
							"indexed": false,
							"internalType": "uint256",
							"name": "lowestBid",
							"type": "uint256"
						}
					],
					"name": "TenderEvaluated",
					"type": "event"
				},
				{
					"inputs": [],
					"name": "acceptAdminRole",
					"outputs": [],
					"stateMutability": "nonpayable",
					"type": "function"
				},
				{
					"inputs": [
						{
							"internalType": "bytes32",
							"name": "_inspectionReportHash",
							"type": "bytes32"
						}
					],
					"name": "acceptDelivery",
					"outputs": [],
					"stateMutability": "nonpayable",
					"type": "function"
				},
				{
					"inputs": [],
					"name": "admin",
					"outputs": [
						{
							"internalType": "address",
							"name": "",
							"type": "address"
						}
					],
					"stateMutability": "view",
					"type": "function"
				},
				{
					"inputs": [],
					"name": "awardTender",
					"outputs": [],
					"stateMutability": "nonpayable",
					"type": "function"
				},
				{
					"inputs": [
						{
							"internalType": "address",
							"name": "",
							"type": "address"
						}
					],
					"name": "bidderDescriptions",
					"outputs": [
						{
							"internalType": "string",
							"name": "",
							"type": "string"
						}
					],
					"stateMutability": "view",
					"type": "function"
				},
				{
					"inputs": [
						{
							"internalType": "uint256",
							"name": "",
							"type": "uint256"
						}
					],
					"name": "bidderList",
					"outputs": [
						{
							"internalType": "address",
							"name": "",
							"type": "address"
						}
					],
					"stateMutability": "view",
					"type": "function"
				},
				{
					"inputs": [
						{
							"internalType": "address",
							"name": "",
							"type": "address"
						}
					],
					"name": "bids",
					"outputs": [
						{
							"internalType": "bytes32",
							"name": "sealedBidHash",
							"type": "bytes32"
						},
						{
							"internalType": "bool",
							"name": "submitted",
							"type": "bool"
						},
						{
							"internalType": "bool",
							"name": "revealed",
							"type": "bool"
						},
						{
							"internalType": "uint256",
							"name": "amount",
							"type": "uint256"
						},
						{
							"internalType": "bool",
							"name": "valid",
							"type": "bool"
						}
					],
					"stateMutability": "view",
					"type": "function"
				},
				{
					"inputs": [
						{
							"internalType": "string",
							"name": "_tenderNumber",
							"type": "string"
						},
						{
							"internalType": "string",
							"name": "_title",
							"type": "string"
						},
						{
							"internalType": "string",
							"name": "_description",
							"type": "string"
						},
						{
							"internalType": "uint256",
							"name": "_year",
							"type": "uint256"
						},
						{
							"internalType": "uint256",
							"name": "_month",
							"type": "uint256"
						},
						{
							"internalType": "uint256",
							"name": "_day",
							"type": "uint256"
						},
						{
							"internalType": "uint256",
							"name": "_hour",
							"type": "uint256"
						},
						{
							"internalType": "uint256",
							"name": "_minute",
							"type": "uint256"
						},
						{
							"internalType": "int256",
							"name": "_utcOffsetHours",
							"type": "int256"
						},
						{
							"internalType": "uint256",
							"name": "_contractAmount",
							"type": "uint256"
						},
						{
							"internalType": "string",
							"name": "_qualificationNote",
							"type": "string"
						}
					],
					"name": "createTenderWithLocalTime",
					"outputs": [],
					"stateMutability": "nonpayable",
					"type": "function"
				},
				{
					"inputs": [],
					"name": "deliveryEvidenceHash",
					"outputs": [
						{
							"internalType": "bytes32",
							"name": "",
							"type": "bytes32"
						}
					],
					"stateMutability": "view",
					"type": "function"
				},
				{
					"inputs": [],
					"name": "evaluateTender",
					"outputs": [],
					"stateMutability": "nonpayable",
					"type": "function"
				},
				{
					"inputs": [],
					"name": "fundContract",
					"outputs": [],
					"stateMutability": "payable",
					"type": "function"
				},
				{
					"inputs": [],
					"name": "getAllRegisteredBidders",
					"outputs": [
						{
							"internalType": "uint256[]",
							"name": "indexes",
							"type": "uint256[]"
						},
						{
							"internalType": "address[]",
							"name": "bidderAddresses",
							"type": "address[]"
						},
						{
							"internalType": "string[]",
							"name": "descriptions",
							"type": "string[]"
						}
					],
					"stateMutability": "view",
					"type": "function"
				},
				{
					"inputs": [
						{
							"internalType": "address",
							"name": "_bidder",
							"type": "address"
						}
					],
					"name": "getBidDetails",
					"outputs": [
						{
							"internalType": "bool",
							"name": "submitted",
							"type": "bool"
						},
						{
							"internalType": "bool",
							"name": "revealed",
							"type": "bool"
						},
						{
							"internalType": "uint256",
							"name": "amount",
							"type": "uint256"
						},
						{
							"internalType": "bool",
							"name": "valid",
							"type": "bool"
						}
					],
					"stateMutability": "view",
					"type": "function"
				},
				{
					"inputs": [],
					"name": "getBidderCount",
					"outputs": [
						{
							"internalType": "uint256",
							"name": "",
							"type": "uint256"
						}
					],
					"stateMutability": "view",
					"type": "function"
				},
				{
					"inputs": [
						{
							"internalType": "address",
							"name": "_bidder",
							"type": "address"
						}
					],
					"name": "getBidderProfile",
					"outputs": [
						{
							"internalType": "bool",
							"name": "isRegistered",
							"type": "bool"
						},
						{
							"internalType": "string",
							"name": "description",
							"type": "string"
						}
					],
					"stateMutability": "view",
					"type": "function"
				},
				{
					"inputs": [],
					"name": "getContractBalance",
					"outputs": [
						{
							"internalType": "uint256",
							"name": "",
							"type": "uint256"
						}
					],
					"stateMutability": "view",
					"type": "function"
				},
				{
					"inputs": [
						{
							"internalType": "uint256",
							"name": "_amount",
							"type": "uint256"
						},
						{
							"internalType": "string",
							"name": "_secret",
							"type": "string"
						}
					],
					"name": "getPackedHash",
					"outputs": [
						{
							"internalType": "bytes32",
							"name": "",
							"type": "bytes32"
						}
					],
					"stateMutability": "pure",
					"type": "function"
				},
				{
					"inputs": [],
					"name": "getTenderSummary",
					"outputs": [
						{
							"internalType": "string",
							"name": "tenderNumber",
							"type": "string"
						},
						{
							"internalType": "string",
							"name": "title",
							"type": "string"
						},
						{
							"internalType": "string",
							"name": "description",
							"type": "string"
						},
						{
							"internalType": "uint256",
							"name": "submissionDeadline",
							"type": "uint256"
						},
						{
							"internalType": "uint256",
							"name": "contractAmount",
							"type": "uint256"
						},
						{
							"internalType": "string",
							"name": "qualificationNote",
							"type": "string"
						},
						{
							"internalType": "enum KenyaProcurementTransparency.TenderStatus",
							"name": "currentStatus",
							"type": "uint8"
						},
						{
							"internalType": "address",
							"name": "currentWinner",
							"type": "address"
						},
						{
							"internalType": "uint256",
							"name": "winningBid",
							"type": "uint256"
						}
					],
					"stateMutability": "view",
					"type": "function"
				},
				{
					"inputs": [],
					"name": "inspectionReportHash",
					"outputs": [
						{
							"internalType": "bytes32",
							"name": "",
							"type": "bytes32"
						}
					],
					"stateMutability": "view",
					"type": "function"
				},
				{
					"inputs": [],
					"name": "inspector",
					"outputs": [
						{
							"internalType": "address",
							"name": "",
							"type": "address"
						}
					],
					"stateMutability": "view",
					"type": "function"
				},
				{
					"inputs": [],
					"name": "lowestBid",
					"outputs": [
						{
							"internalType": "uint256",
							"name": "",
							"type": "uint256"
						}
					],
					"stateMutability": "view",
					"type": "function"
				},
				{
					"inputs": [],
					"name": "openRevealPhase",
					"outputs": [],
					"stateMutability": "nonpayable",
					"type": "function"
				},
				{
					"inputs": [],
					"name": "paymentReleased",
					"outputs": [
						{
							"internalType": "bool",
							"name": "",
							"type": "bool"
						}
					],
					"stateMutability": "view",
					"type": "function"
				},
				{
					"inputs": [],
					"name": "pendingAdmin",
					"outputs": [
						{
							"internalType": "address",
							"name": "",
							"type": "address"
						}
					],
					"stateMutability": "view",
					"type": "function"
				},
				{
					"inputs": [
						{
							"internalType": "address",
							"name": "_bidder",
							"type": "address"
						},
						{
							"internalType": "string",
							"name": "_description",
							"type": "string"
						}
					],
					"name": "registerBidder",
					"outputs": [],
					"stateMutability": "nonpayable",
					"type": "function"
				},
				{
					"inputs": [
						{
							"internalType": "address",
							"name": "",
							"type": "address"
						}
					],
					"name": "registeredBidders",
					"outputs": [
						{
							"internalType": "bool",
							"name": "",
							"type": "bool"
						}
					],
					"stateMutability": "view",
					"type": "function"
				},
				{
					"inputs": [
						{
							"internalType": "string",
							"name": "_reason",
							"type": "string"
						}
					],
					"name": "rejectDelivery",
					"outputs": [],
					"stateMutability": "nonpayable",
					"type": "function"
				},
				{
					"inputs": [],
					"name": "rejectionReason",
					"outputs": [
						{
							"internalType": "string",
							"name": "",
							"type": "string"
						}
					],
					"stateMutability": "view",
					"type": "function"
				},
				{
					"inputs": [],
					"name": "releasePayment",
					"outputs": [],
					"stateMutability": "nonpayable",
					"type": "function"
				},
				{
					"inputs": [
						{
							"internalType": "uint256",
							"name": "_amount",
							"type": "uint256"
						},
						{
							"internalType": "string",
							"name": "_secret",
							"type": "string"
						}
					],
					"name": "revealBid",
					"outputs": [],
					"stateMutability": "nonpayable",
					"type": "function"
				},
				{
					"inputs": [
						{
							"internalType": "address",
							"name": "_inspector",
							"type": "address"
						}
					],
					"name": "setInspector",
					"outputs": [],
					"stateMutability": "nonpayable",
					"type": "function"
				},
				{
					"inputs": [],
					"name": "status",
					"outputs": [
						{
							"internalType": "enum KenyaProcurementTransparency.TenderStatus",
							"name": "",
							"type": "uint8"
						}
					],
					"stateMutability": "view",
					"type": "function"
				},
				{
					"inputs": [
						{
							"internalType": "bytes32",
							"name": "_deliveryEvidenceHash",
							"type": "bytes32"
						}
					],
					"name": "submitDeliveryEvidence",
					"outputs": [],
					"stateMutability": "nonpayable",
					"type": "function"
				},
				{
					"inputs": [
						{
							"internalType": "bytes32",
							"name": "_sealedBidHash",
							"type": "bytes32"
						}
					],
					"name": "submitSealedBid",
					"outputs": [],
					"stateMutability": "nonpayable",
					"type": "function"
				},
				{
					"inputs": [],
					"name": "tender",
					"outputs": [
						{
							"internalType": "string",
							"name": "tenderNumber",
							"type": "string"
						},
						{
							"internalType": "string",
							"name": "title",
							"type": "string"
						},
						{
							"internalType": "string",
							"name": "description",
							"type": "string"
						},
						{
							"internalType": "uint256",
							"name": "submissionDeadline",
							"type": "uint256"
						},
						{
							"internalType": "uint256",
							"name": "contractAmount",
							"type": "uint256"
						},
						{
							"internalType": "string",
							"name": "qualificationNote",
							"type": "string"
						},
						{
							"internalType": "bool",
							"name": "exists",
							"type": "bool"
						}
					],
					"stateMutability": "view",
					"type": "function"
				},
				{
					"inputs": [
						{
							"internalType": "address",
							"name": "_newAdmin",
							"type": "address"
						}
					],
					"name": "transferAdmin",
					"outputs": [],
					"stateMutability": "nonpayable",
					"type": "function"
				},
				{
					"inputs": [],
					"name": "winner",
					"outputs": [
						{
							"internalType": "address",
							"name": "",
							"type": "address"
						}
					],
					"stateMutability": "view",
					"type": "function"
				}
			],
			"devdoc": {
				"author": "OpenAI",
				"details": "This contract demonstrates sealed bidding, role-based access control, state-driven workflow enforcement, and auditability for academic use.",
				"kind": "dev",
				"methods": {
					"acceptAdminRole()": {
						"details": "Must be called by the pending admin address."
					},
					"acceptDelivery(bytes32)": {
						"params": {
							"_inspectionReportHash": "Hash of the inspection or acceptance report."
						}
					},
					"createTenderWithLocalTime(string,string,string,uint256,uint256,uint256,uint256,uint256,int256,uint256,string)": {
						"details": "Improves usability by converting human-readable local time into Unix time internally.",
						"params": {
							"_contractAmount": "Payment amount to be released after acceptance.",
							"_day": "Calendar day.",
							"_description": "Tender description.",
							"_hour": "Hour in 24-hour format.",
							"_minute": "Minute.",
							"_month": "Calendar month (1-12).",
							"_qualificationNote": "Eligibility or qualification requirement.",
							"_tenderNumber": "Official tender reference number.",
							"_title": "Tender title.",
							"_utcOffsetHours": "UTC offset in hours (e.g. 3 for EAT).",
							"_year": "Calendar year."
						}
					},
					"evaluateTender()": {
						"details": "Simplified prototype logic: lowest responsive revealed bid wins."
					},
					"getAllRegisteredBidders()": {
						"returns": {
							"bidderAddresses": "Registered bidder wallet addresses.",
							"descriptions": "Registered bidder descriptions or company names.",
							"indexes": "Sequential indexes of bidders in bidderList."
						}
					},
					"getBidDetails(address)": {
						"params": {
							"_bidder": "Address of the bidder."
						},
						"returns": {
							"amount": "The revealed amount.",
							"revealed": "Whether the bid was revealed.",
							"submitted": "Whether a bid was submitted.",
							"valid": "Whether the bid is considered valid."
						}
					},
					"getBidderCount()": {
						"returns": {
							"_0": "Total bidder count."
						}
					},
					"getBidderProfile(address)": {
						"params": {
							"_bidder": "Address of the bidder."
						},
						"returns": {
							"description": "Supplier description or company name.",
							"isRegistered": "Whether the address is registered."
						}
					},
					"getContractBalance()": {
						"returns": {
							"_0": "The contract balance in wei."
						}
					},
					"getPackedHash(uint256,string)": {
						"details": "This helper is intended to simplify sealed-bid preparation without a separate helper contract.",
						"params": {
							"_amount": "Bid amount.",
							"_secret": "Secret phrase used for bid commitment."
						},
						"returns": {
							"_0": "The keccak256 packed hash of amount and secret."
						}
					},
					"getTenderSummary()": {
						"returns": {
							"contractAmount": "Payment amount for the contract.",
							"currentStatus": "Current lifecycle stage.",
							"currentWinner": "Address of the current winner.",
							"description": "Tender description.",
							"qualificationNote": "Supplier qualification requirement.",
							"submissionDeadline": "Tender submission deadline.",
							"tenderNumber": "Tender reference number.",
							"title": "Tender title.",
							"winningBid": "Lowest revealed valid bid."
						}
					},
					"registerBidder(address,string)": {
						"params": {
							"_bidder": "Address of the supplier allowed to participate.",
							"_description": "Supplier description or company name."
						}
					},
					"rejectDelivery(string)": {
						"params": {
							"_reason": "Textual reason for rejection."
						}
					},
					"revealBid(uint256,string)": {
						"params": {
							"_amount": "Bid amount.",
							"_secret": "Secret string originally used to generate the sealed hash."
						}
					},
					"setInspector(address)": {
						"details": "Inspector can be changed only before final inspection/payment stages.",
						"params": {
							"_inspector": "Address of the inspection authority."
						}
					},
					"submitDeliveryEvidence(bytes32)": {
						"params": {
							"_deliveryEvidenceHash": "Hash of the delivery note, invoice, or delivery proof."
						}
					},
					"submitSealedBid(bytes32)": {
						"details": "Bid must be submitted before the deadline and only once.",
						"params": {
							"_sealedBidHash": "keccak256 hash of bid amount and secret."
						}
					},
					"transferAdmin(address)": {
						"params": {
							"_newAdmin": "Address proposed as the next admin."
						}
					}
				},
				"title": "KenyaProcurementTransparency",
				"version": 1
			},
			"evm": {
				"assembly": "    /* \".git/MyContracts/KenyaProcurementTransparency0.sol\":430:25285  contract KenyaProcurementTransparency {... */\n  mstore(0x40, 0x80)\n    /* \".git/MyContracts/KenyaProcurementTransparency0.sol\":5406:5411  admin */\n  0x00\n    /* \".git/MyContracts/KenyaProcurementTransparency0.sol\":5406:5424  admin = msg.sender */\n  dup1\n  sload\n  not(sub(shl(0xa0, 0x01), 0x01))\n  and\n    /* \".git/MyContracts/KenyaProcurementTransparency0.sol\":5414:5424  msg.sender */\n  caller\n    /* \".git/MyContracts/KenyaProcurementTransparency0.sol\":5406:5424  admin = msg.sender */\n  or\n  swap1\n  sstore\n    /* \".git/MyContracts/KenyaProcurementTransparency0.sol\":430:25285  contract KenyaProcurementTransparency {... */\n  dataSize(sub_0)\n  dup1\n  dataOffset(sub_0)\n  0x00\n  codecopy\n  0x00\n  return\nstop\n\nsub_0: assembly {\n        /* \".git/MyContracts/KenyaProcurementTransparency0.sol\":430:25285  contract KenyaProcurementTransparency {... */\n      mstore(0x40, 0x80)\n      jumpi(tag_1, lt(calldatasize, 0x04))\n      shr(0xe0, calldataload(0x00))\n      dup1\n      0x7bd2a5da\n      gt\n      tag_39\n      jumpi\n      dup1\n      0xbd097e21\n      gt\n      tag_40\n      jumpi\n      dup1\n      0xd3584e84\n      gt\n      tag_41\n      jumpi\n      dup1\n      0xd3584e84\n      eq\n      tag_34\n      jumpi\n      dup1\n      0xdfbf53ae\n      eq\n      tag_35\n      jumpi\n      dup1\n      0xe3c608ef\n      eq\n      tag_36\n      jumpi\n      dup1\n      0xed2cee9e\n      eq\n      tag_37\n      jumpi\n      dup1\n      0xf851a440\n      eq\n      tag_38\n      jumpi\n      revert(0x00, 0x00)\n    tag_41:\n      dup1\n      0xbd097e21\n      eq\n      tag_29\n      jumpi\n      dup1\n      0xc63735b3\n      eq\n      tag_30\n      jumpi\n      dup1\n      0xc87da02d\n      eq\n      tag_31\n      jumpi\n      dup1\n      0xd0112863\n      eq\n      tag_32\n      jumpi\n      dup1\n      0xd116c8c4\n      eq\n      tag_33\n      jumpi\n      revert(0x00, 0x00)\n    tag_40:\n      dup1\n      0x90c7825a\n      gt\n      tag_42\n      jumpi\n      dup1\n      0x90c7825a\n      eq\n      tag_24\n      jumpi\n      dup1\n      0x9134e02b\n      eq\n      tag_25\n      jumpi\n      dup1\n      0xa4a00144\n      eq\n      tag_26\n      jumpi\n      dup1\n      0xb6cf8a35\n      eq\n      tag_27\n      jumpi\n      dup1\n      0xb6f3d256\n      eq\n      tag_28\n      jumpi\n      revert(0x00, 0x00)\n    tag_42:\n      dup1\n      0x7bd2a5da\n      eq\n      tag_20\n      jumpi\n      dup1\n      0x8c3d7301\n      eq\n      tag_21\n      jumpi\n      dup1\n      0x8d07ae9f\n      eq\n      tag_22\n      jumpi\n      dup1\n      0x905249a3\n      eq\n      tag_23\n      jumpi\n      revert(0x00, 0x00)\n    tag_39:\n      dup1\n      0x3c8c4091\n      gt\n      tag_43\n      jumpi\n      dup1\n      0x592fd028\n      gt\n      tag_44\n      jumpi\n      dup1\n      0x592fd028\n      eq\n      tag_15\n      jumpi\n      dup1\n      0x62ea82db\n      eq\n      tag_16\n      jumpi\n      dup1\n      0x6cb55d1a\n      eq\n      tag_17\n      jumpi\n      dup1\n      0x6f9fb98a\n      eq\n      tag_18\n      jumpi\n      dup1\n      0x75829def\n      eq\n      tag_19\n      jumpi\n      revert(0x00, 0x00)\n    tag_44:\n      dup1\n      0x3c8c4091\n      eq\n      tag_11\n      jumpi\n      dup1\n      0x4c5aed38\n      eq\n      tag_12\n      jumpi\n      dup1\n      0x4e5cbf61\n      eq\n      tag_13\n      jumpi\n      dup1\n      0x53321ae6\n      eq\n      tag_14\n      jumpi\n      revert(0x00, 0x00)\n    tag_43:\n      dup1\n      0x26782247\n      gt\n      tag_45\n      jumpi\n      dup1\n      0x26782247\n      eq\n      tag_6\n      jumpi\n      dup1\n      0x26bd8926\n      eq\n      tag_7\n      jumpi\n      dup1\n      0x2e9e8e59\n      eq\n      tag_8\n      jumpi\n      dup1\n      0x356e7ccb\n      eq\n      tag_9\n      jumpi\n      dup1\n      0x36dc1a88\n      eq\n      tag_10\n      jumpi\n      revert(0x00, 0x00)\n    tag_45:\n      dup1\n      0x0bd58917\n      eq\n      tag_2\n      jumpi\n      dup1\n      0x0bf36767\n      eq\n      tag_3\n      jumpi\n      dup1\n      0x200d2ed2\n      eq\n      tag_4\n      jumpi\n      dup1\n      0x2163b8c5\n      eq\n      tag_5\n      jumpi\n    tag_1:\n      revert(0x00, 0x00)\n        /* \".git/MyContracts/KenyaProcurementTransparency0.sol\":15414:15843  function acceptDelivery(bytes32 _inspectionReportHash)... */\n    tag_2:\n      callvalue\n      dup1\n      iszero\n      tag_46\n      jumpi\n      revert(0x00, 0x00)\n    tag_46:\n      pop\n      tag_47\n      tag_48\n      calldatasize\n      0x04\n      tag_49\n      jump\t// in\n    tag_48:\n      tag_50\n      jump\t// in\n    tag_47:\n      stop\n        /* \".git/MyContracts/KenyaProcurementTransparency0.sol\":11618:11858  function openRevealPhase()... */\n    tag_3:\n      callvalue\n      dup1\n      iszero\n      tag_51\n      jumpi\n      revert(0x00, 0x00)\n    tag_51:\n      pop\n      tag_47\n      tag_53\n      jump\t// in\n        /* \".git/MyContracts/KenyaProcurementTransparency0.sol\":829:855  TenderStatus public status */\n    tag_4:\n      callvalue\n      dup1\n      iszero\n      tag_54\n      jumpi\n      revert(0x00, 0x00)\n    tag_54:\n      pop\n      sload(0x02)\n      tag_55\n      swap1\n      shl(0xa0, 0x01)\n      swap1\n      div\n      0xff\n      and\n      dup2\n      jump\n    tag_55:\n      mload(0x40)\n      tag_57\n      swap2\n      swap1\n      tag_58\n      jump\t// in\n    tag_57:\n      mload(0x40)\n      dup1\n      swap2\n      sub\n      swap1\n      return\n        /* \".git/MyContracts/KenyaProcurementTransparency0.sol\":12038:12732  function revealBid(uint256 _amount, string memory _secret)... */\n    tag_5:\n      callvalue\n      dup1\n      iszero\n      tag_59\n      jumpi\n      revert(0x00, 0x00)\n    tag_59:\n      pop\n      tag_47\n      tag_61\n      calldatasize\n      0x04\n      tag_62\n      jump\t// in\n    tag_61:\n      tag_63\n      jump\t// in\n        /* \".git/MyContracts/KenyaProcurementTransparency0.sol\":502:529  address public pendingAdmin */\n    tag_6:\n      callvalue\n      dup1\n      iszero\n      tag_64\n      jumpi\n      revert(0x00, 0x00)\n    tag_64:\n      pop\n      sload(0x01)\n      tag_65\n      swap1\n      sub(shl(0xa0, 0x01), 0x01)\n      and\n      dup2\n      jump\n    tag_65:\n      mload(0x40)\n      sub(shl(0xa0, 0x01), 0x01)\n        /* \"#utility.yul\":2261:2293   */\n      swap1\n      swap2\n      and\n        /* \"#utility.yul\":2243:2294   */\n      dup2\n      mstore\n        /* \"#utility.yul\":2231:2233   */\n      0x20\n        /* \"#utility.yul\":2216:2234   */\n      add\n        /* \".git/MyContracts/KenyaProcurementTransparency0.sol\":502:529  address public pendingAdmin */\n      tag_57\n        /* \"#utility.yul\":2097:2300   */\n      jump\n        /* \".git/MyContracts/KenyaProcurementTransparency0.sol\":1735:1764  string public rejectionReason */\n    tag_7:\n      callvalue\n      dup1\n      iszero\n      tag_69\n      jumpi\n      revert(0x00, 0x00)\n    tag_69:\n      pop\n      tag_70\n      tag_71\n      jump\t// in\n    tag_70:\n      mload(0x40)\n      tag_57\n      swap2\n      swap1\n      tag_73\n      jump\t// in\n        /* \".git/MyContracts/KenyaProcurementTransparency0.sol\":1651:1686  bytes32 public deliveryEvidenceHash */\n    tag_8:\n      callvalue\n      dup1\n      iszero\n      tag_74\n      jumpi\n      revert(0x00, 0x00)\n    tag_74:\n      pop\n      tag_75\n      sload(0x10)\n      dup2\n      jump\n    tag_75:\n      mload(0x40)\n        /* \"#utility.yul\":2970:2995   */\n      swap1\n      dup2\n      mstore\n        /* \"#utility.yul\":2958:2960   */\n      0x20\n        /* \"#utility.yul\":2943:2961   */\n      add\n        /* \".git/MyContracts/KenyaProcurementTransparency0.sol\":1651:1686  bytes32 public deliveryEvidenceHash */\n      tag_57\n        /* \"#utility.yul\":2824:3001   */\n      jump\n        /* \".git/MyContracts/KenyaProcurementTransparency0.sol\":1399:1448  mapping(address => bool) public registeredBidders */\n    tag_9:\n      callvalue\n      dup1\n      iszero\n      tag_79\n      jumpi\n      revert(0x00, 0x00)\n    tag_79:\n      pop\n      tag_80\n      tag_81\n      calldatasize\n      0x04\n      tag_82\n      jump\t// in\n    tag_81:\n      mstore(0x20, 0x0a)\n      0x00\n      swap1\n      dup2\n      mstore\n      0x40\n      swap1\n      keccak256\n      sload\n      0xff\n      and\n      dup2\n      jump\n    tag_80:\n      mload(0x40)\n        /* \"#utility.yul\":3540:3554   */\n      swap1\n      iszero\n        /* \"#utility.yul\":3533:3555   */\n      iszero\n        /* \"#utility.yul\":3515:3556   */\n      dup2\n      mstore\n        /* \"#utility.yul\":3503:3505   */\n      0x20\n        /* \"#utility.yul\":3488:3506   */\n      add\n        /* \".git/MyContracts/KenyaProcurementTransparency0.sol\":1399:1448  mapping(address => bool) public registeredBidders */\n      tag_57\n        /* \"#utility.yul\":3375:3562   */\n      jump\n        /* \".git/MyContracts/KenyaProcurementTransparency0.sol\":9410:9999  function registerBidder(address _bidder, string memory _description)... */\n    tag_10:\n      callvalue\n      dup1\n      iszero\n      tag_86\n      jumpi\n      revert(0x00, 0x00)\n    tag_86:\n      pop\n      tag_47\n      tag_88\n      calldatasize\n      0x04\n      tag_89\n      jump\t// in\n    tag_88:\n      tag_90\n      jump\t// in\n        /* \".git/MyContracts/KenyaProcurementTransparency0.sol\":10529:10727  function getPackedHash(uint256 _amount, string memory _secret)... */\n    tag_11:\n      callvalue\n      dup1\n      iszero\n      tag_91\n      jumpi\n      revert(0x00, 0x00)\n    tag_91:\n      pop\n      tag_75\n      tag_93\n      calldatasize\n      0x04\n      tag_62\n      jump\t// in\n    tag_93:\n      tag_94\n      jump\t// in\n        /* \".git/MyContracts/KenyaProcurementTransparency0.sol\":15963:16326  function rejectDelivery(string memory _reason)... */\n    tag_12:\n      callvalue\n      dup1\n      iszero\n      tag_96\n      jumpi\n      revert(0x00, 0x00)\n    tag_96:\n      pop\n      tag_47\n      tag_98\n      calldatasize\n      0x04\n      tag_99\n      jump\t// in\n    tag_98:\n      tag_100\n      jump\t// in\n        /* \".git/MyContracts/KenyaProcurementTransparency0.sol\":7914:8378  function setInspector(address _inspector) external onlyAdmin tenderExists {... */\n    tag_13:\n      callvalue\n      dup1\n      iszero\n      tag_101\n      jumpi\n      revert(0x00, 0x00)\n    tag_101:\n      pop\n      tag_47\n      tag_103\n      calldatasize\n      0x04\n      tag_82\n      jump\t// in\n    tag_103:\n      tag_104\n      jump\t// in\n        /* \".git/MyContracts/KenyaProcurementTransparency0.sol\":10951:11539  function submitSealedBid(bytes32 _sealedBidHash)... */\n    tag_14:\n      callvalue\n      dup1\n      iszero\n      tag_105\n      jumpi\n      revert(0x00, 0x00)\n    tag_105:\n      pop\n      tag_47\n      tag_107\n      calldatasize\n      0x04\n      tag_49\n      jump\t// in\n    tag_107:\n      tag_108\n      jump\t// in\n        /* \".git/MyContracts/KenyaProcurementTransparency0.sol\":13091:13973  function evaluateTender()... */\n    tag_15:\n      callvalue\n      dup1\n      iszero\n      tag_109\n      jumpi\n      revert(0x00, 0x00)\n    tag_109:\n      pop\n      tag_47\n      tag_111\n      jump\t// in\n        /* \".git/MyContracts/KenyaProcurementTransparency0.sol\":1514:1549  mapping(address => Bid) public bids */\n    tag_16:\n      callvalue\n      dup1\n      iszero\n      tag_112\n      jumpi\n      revert(0x00, 0x00)\n    tag_112:\n      pop\n      tag_113\n      tag_114\n      calldatasize\n      0x04\n      tag_82\n      jump\t// in\n    tag_114:\n      mstore(0x20, 0x0c)\n      0x00\n      swap1\n      dup2\n      mstore\n      0x40\n      swap1\n      keccak256\n      dup1\n      sload\n      0x01\n      dup3\n      add\n      sload\n      0x02\n      dup4\n      add\n      sload\n      0x03\n      swap1\n      swap4\n      add\n      sload\n      swap2\n      swap3\n      0xff\n      dup1\n      dup4\n      and\n      swap4\n      0x0100\n      swap1\n      swap4\n      div\n      dup2\n      and\n      swap3\n      and\n      dup6\n      jump\n    tag_113:\n      mload(0x40)\n      tag_57\n      swap6\n      swap5\n      swap4\n      swap3\n      swap2\n      swap1\n        /* \"#utility.yul\":4536:4561   */\n      swap5\n      dup6\n      mstore\n        /* \"#utility.yul\":4604:4618   */\n      swap3\n      iszero\n        /* \"#utility.yul\":4597:4619   */\n      iszero\n        /* \"#utility.yul\":4592:4594   */\n      0x20\n        /* \"#utility.yul\":4577:4595   */\n      dup6\n      add\n        /* \"#utility.yul\":4570:4620   */\n      mstore\n        /* \"#utility.yul\":4663:4677   */\n      swap1\n      iszero\n        /* \"#utility.yul\":4656:4678   */\n      iszero\n        /* \"#utility.yul\":4651:4653   */\n      0x40\n        /* \"#utility.yul\":4636:4654   */\n      dup5\n      add\n        /* \"#utility.yul\":4629:4679   */\n      mstore\n        /* \"#utility.yul\":4710:4712   */\n      0x60\n        /* \"#utility.yul\":4695:4713   */\n      dup4\n      add\n        /* \"#utility.yul\":4688:4722   */\n      mstore\n        /* \"#utility.yul\":4766:4780   */\n      iszero\n        /* \"#utility.yul\":4759:4781   */\n      iszero\n        /* \"#utility.yul\":4753:4756   */\n      0x80\n        /* \"#utility.yul\":4738:4757   */\n      dup3\n      add\n        /* \"#utility.yul\":4731:4782   */\n      mstore\n        /* \"#utility.yul\":4523:4526   */\n      0xa0\n        /* \"#utility.yul\":4508:4527   */\n      add\n      swap1\n        /* \"#utility.yul\":4295:4788   */\n      jump\n        /* \".git/MyContracts/KenyaProcurementTransparency0.sol\":1370:1390  Tender public tender */\n    tag_17:\n      callvalue\n      dup1\n      iszero\n      tag_118\n      jumpi\n      revert(0x00, 0x00)\n    tag_118:\n      pop\n      tag_119\n      tag_120\n      jump\t// in\n    tag_119:\n      mload(0x40)\n      tag_57\n      swap8\n      swap7\n      swap6\n      swap5\n      swap4\n      swap3\n      swap2\n      swap1\n      tag_122\n      jump\t// in\n        /* \".git/MyContracts/KenyaProcurementTransparency0.sol\":17625:17734  function getContractBalance() external view returns (uint256) {... */\n    tag_18:\n      callvalue\n      dup1\n      iszero\n      tag_123\n      jumpi\n      revert(0x00, 0x00)\n    tag_123:\n      pop\n        /* \".git/MyContracts/KenyaProcurementTransparency0.sol\":17705:17726  address(this).balance */\n      selfbalance\n        /* \".git/MyContracts/KenyaProcurementTransparency0.sol\":17625:17734  function getContractBalance() external view returns (uint256) {... */\n      jump(tag_75)\n        /* \".git/MyContracts/KenyaProcurementTransparency0.sol\":8521:8810  function transferAdmin(address _newAdmin) external onlyAdmin {... */\n    tag_19:\n      callvalue\n      dup1\n      iszero\n      tag_128\n      jumpi\n      revert(0x00, 0x00)\n    tag_128:\n      pop\n      tag_47\n      tag_130\n      calldatasize\n      0x04\n      tag_82\n      jump\t// in\n    tag_130:\n      tag_131\n      jump\t// in\n        /* \".git/MyContracts/KenyaProcurementTransparency0.sol\":14702:15260  function submitDeliveryEvidence(bytes32 _deliveryEvidenceHash)... */\n    tag_20:\n      callvalue\n      dup1\n      iszero\n      tag_132\n      jumpi\n      revert(0x00, 0x00)\n    tag_132:\n      pop\n      tag_47\n      tag_134\n      calldatasize\n      0x04\n      tag_49\n      jump\t// in\n    tag_134:\n      tag_135\n      jump\t// in\n        /* \".git/MyContracts/KenyaProcurementTransparency0.sol\":8926:9192  function acceptAdminRole() external {... */\n    tag_21:\n      callvalue\n      dup1\n      iszero\n      tag_136\n      jumpi\n      revert(0x00, 0x00)\n    tag_136:\n      pop\n      tag_47\n      tag_138\n      jump\t// in\n        /* \".git/MyContracts/KenyaProcurementTransparency0.sol\":19802:20128  function getBidDetails(address _bidder)... */\n    tag_22:\n      callvalue\n      dup1\n      iszero\n      tag_139\n      jumpi\n      revert(0x00, 0x00)\n    tag_139:\n      pop\n      tag_140\n      tag_141\n      calldatasize\n      0x04\n      tag_82\n      jump\t// in\n    tag_141:\n      sub(shl(0xa0, 0x01), 0x01)\n        /* \".git/MyContracts/KenyaProcurementTransparency0.sol\":20045:20058  bids[_bidder] */\n      and\n        /* \".git/MyContracts/KenyaProcurementTransparency0.sol\":19906:19920  bool submitted */\n      0x00\n        /* \".git/MyContracts/KenyaProcurementTransparency0.sol\":20045:20058  bids[_bidder] */\n      swap1\n      dup2\n      mstore\n        /* \".git/MyContracts/KenyaProcurementTransparency0.sol\":20045:20049  bids */\n      0x0c\n        /* \".git/MyContracts/KenyaProcurementTransparency0.sol\":20045:20058  bids[_bidder] */\n      0x20\n      swap1\n      dup2\n      mstore\n      0x40\n      swap2\n      dup3\n      swap1\n      keccak256\n        /* \".git/MyContracts/KenyaProcurementTransparency0.sol\":20030:20058  Bid memory b = bids[_bidder] */\n      dup3\n      mload\n      0xa0\n      dup2\n      add\n      dup5\n      mstore\n      dup2\n      sload\n      dup2\n      mstore\n      0x01\n      dup3\n      add\n      sload\n      0xff\n      dup1\n      dup3\n      and\n      iszero\n      iszero\n      swap5\n      dup4\n      add\n      dup6\n      swap1\n      mstore\n      0x0100\n      swap1\n      swap2\n      div\n      dup2\n      and\n      iszero\n      iszero\n      swap5\n      dup3\n      add\n      dup6\n      swap1\n      mstore\n      0x02\n      dup4\n      add\n      sload\n      0x60\n      dup4\n      add\n      dup2\n      swap1\n      mstore\n      0x03\n      swap1\n      swap4\n      add\n      sload\n      and\n      iszero\n      iszero\n      0x80\n      swap1\n      swap2\n      add\n      dup2\n      swap1\n      mstore\n      swap2\n      swap4\n      swap1\n      swap2\n      swap1\n        /* \".git/MyContracts/KenyaProcurementTransparency0.sol\":19802:20128  function getBidDetails(address _bidder)... */\n      jump\n    tag_140:\n      0x40\n      dup1\n      mload\n        /* \"#utility.yul\":6155:6169   */\n      swap5\n      iszero\n        /* \"#utility.yul\":6148:6170   */\n      iszero\n        /* \"#utility.yul\":6130:6171   */\n      dup6\n      mstore\n        /* \"#utility.yul\":6214:6228   */\n      swap3\n      iszero\n        /* \"#utility.yul\":6207:6229   */\n      iszero\n        /* \"#utility.yul\":6202:6204   */\n      0x20\n        /* \"#utility.yul\":6187:6205   */\n      dup6\n      add\n        /* \"#utility.yul\":6180:6230   */\n      mstore\n        /* \"#utility.yul\":6246:6264   */\n      swap2\n      dup4\n      add\n        /* \"#utility.yul\":6239:6273   */\n      mstore\n        /* \"#utility.yul\":6316:6330   */\n      iszero\n        /* \"#utility.yul\":6309:6331   */\n      iszero\n        /* \"#utility.yul\":6304:6306   */\n      0x60\n        /* \"#utility.yul\":6289:6307   */\n      dup3\n      add\n        /* \"#utility.yul\":6282:6332   */\n      mstore\n        /* \"#utility.yul\":6117:6120   */\n      0x80\n        /* \"#utility.yul\":6102:6121   */\n      add\n        /* \".git/MyContracts/KenyaProcurementTransparency0.sol\":19802:20128  function getBidDetails(address _bidder)... */\n      tag_57\n        /* \"#utility.yul\":5917:6338   */\n      jump\n        /* \".git/MyContracts/KenyaProcurementTransparency0.sol\":6387:7699  function createTenderWithLocalTime(... */\n    tag_23:\n      callvalue\n      dup1\n      iszero\n      tag_145\n      jumpi\n      revert(0x00, 0x00)\n    tag_145:\n      pop\n      tag_47\n      tag_147\n      calldatasize\n      0x04\n      tag_148\n      jump\t// in\n    tag_147:\n      tag_149\n      jump\t// in\n        /* \".git/MyContracts/KenyaProcurementTransparency0.sol\":19238:19465  function getBidderProfile(address _bidder)... */\n    tag_24:\n      callvalue\n      dup1\n      iszero\n      tag_150\n      jumpi\n      revert(0x00, 0x00)\n    tag_150:\n      pop\n      tag_151\n      tag_152\n      calldatasize\n      0x04\n      tag_82\n      jump\t// in\n    tag_152:\n      tag_153\n      jump\t// in\n    tag_151:\n      mload(0x40)\n      tag_57\n      swap3\n      swap2\n      swap1\n      tag_155\n      jump\t// in\n        /* \".git/MyContracts/KenyaProcurementTransparency0.sol\":1455:1507  mapping(address => string) public bidderDescriptions */\n    tag_25:\n      callvalue\n      dup1\n      iszero\n      tag_156\n      jumpi\n      revert(0x00, 0x00)\n    tag_156:\n      pop\n      tag_70\n      tag_158\n      calldatasize\n      0x04\n      tag_82\n      jump\t// in\n    tag_158:\n      tag_159\n      jump\t// in\n        /* \".git/MyContracts/KenyaProcurementTransparency0.sol\":1693:1728  bytes32 public inspectionReportHash */\n    tag_26:\n      callvalue\n      dup1\n      iszero\n      tag_161\n      jumpi\n      revert(0x00, 0x00)\n    tag_161:\n      pop\n      tag_75\n      sload(0x11)\n      dup2\n      jump\n        /* \".git/MyContracts/KenyaProcurementTransparency0.sol\":18262:18976  function getAllRegisteredBidders()... */\n    tag_27:\n      callvalue\n      dup1\n      iszero\n      tag_165\n      jumpi\n      revert(0x00, 0x00)\n    tag_165:\n      pop\n      tag_166\n      tag_167\n      jump\t// in\n    tag_166:\n      mload(0x40)\n      tag_57\n      swap4\n      swap3\n      swap2\n      swap1\n      tag_169\n      jump\t// in\n        /* \".git/MyContracts/KenyaProcurementTransparency0.sol\":1620:1644  uint256 public lowestBid */\n    tag_28:\n      callvalue\n      dup1\n      iszero\n      tag_170\n      jumpi\n      revert(0x00, 0x00)\n    tag_170:\n      pop\n      tag_75\n      sload(0x0f)\n      dup2\n      jump\n        /* \".git/MyContracts/KenyaProcurementTransparency0.sol\":16609:16662  function fundContract() external payable onlyAdmin {} */\n    tag_29:\n      tag_47\n      tag_175\n      jump\t// in\n        /* \".git/MyContracts/KenyaProcurementTransparency0.sol\":1771:1798  bool public paymentReleased */\n    tag_30:\n      callvalue\n      dup1\n      iszero\n      tag_176\n      jumpi\n      revert(0x00, 0x00)\n    tag_176:\n      pop\n      sload(0x13)\n      tag_80\n      swap1\n      0xff\n      and\n      dup2\n      jump\n        /* \".git/MyContracts/KenyaProcurementTransparency0.sol\":17838:17939  function getBidderCount() external view returns (uint256) {... */\n    tag_31:\n      callvalue\n      dup1\n      iszero\n      tag_180\n      jumpi\n      revert(0x00, 0x00)\n    tag_180:\n      pop\n        /* \".git/MyContracts/KenyaProcurementTransparency0.sol\":17914:17924  bidderList */\n      0x0d\n        /* \".git/MyContracts/KenyaProcurementTransparency0.sol\":17914:17931  bidderList.length */\n      sload\n        /* \".git/MyContracts/KenyaProcurementTransparency0.sol\":17838:17939  function getBidderCount() external view returns (uint256) {... */\n      jump(tag_75)\n        /* \".git/MyContracts/KenyaProcurementTransparency0.sol\":14045:14336  function awardTender()... */\n    tag_32:\n      callvalue\n      dup1\n      iszero\n      tag_184\n      jumpi\n      revert(0x00, 0x00)\n    tag_184:\n      pop\n      tag_47\n      tag_186\n      jump\t// in\n        /* \".git/MyContracts/KenyaProcurementTransparency0.sol\":16755:17311  function releasePayment()... */\n    tag_33:\n      callvalue\n      dup1\n      iszero\n      tag_187\n      jumpi\n      revert(0x00, 0x00)\n    tag_187:\n      pop\n      tag_47\n      tag_189\n      jump\t// in\n        /* \".git/MyContracts/KenyaProcurementTransparency0.sol\":1556:1583  address[] public bidderList */\n    tag_34:\n      callvalue\n      dup1\n      iszero\n      tag_190\n      jumpi\n      revert(0x00, 0x00)\n    tag_190:\n      pop\n      tag_65\n      tag_192\n      calldatasize\n      0x04\n      tag_49\n      jump\t// in\n    tag_192:\n      tag_194\n      jump\t// in\n        /* \".git/MyContracts/KenyaProcurementTransparency0.sol\":1592:1613  address public winner */\n    tag_35:\n      callvalue\n      dup1\n      iszero\n      tag_196\n      jumpi\n      revert(0x00, 0x00)\n    tag_196:\n      pop\n      sload(0x0e)\n      tag_65\n      swap1\n      sub(shl(0xa0, 0x01), 0x01)\n      and\n      dup2\n      jump\n        /* \".git/MyContracts/KenyaProcurementTransparency0.sol\":20724:21479  function getTenderSummary()... */\n    tag_36:\n      callvalue\n      dup1\n      iszero\n      tag_200\n      jumpi\n      revert(0x00, 0x00)\n    tag_200:\n      pop\n      tag_201\n      tag_202\n      jump\t// in\n    tag_201:\n      mload(0x40)\n      tag_57\n      swap10\n      swap9\n      swap8\n      swap7\n      swap6\n      swap5\n      swap4\n      swap3\n      swap2\n      swap1\n      tag_204\n      jump\t// in\n        /* \".git/MyContracts/KenyaProcurementTransparency0.sol\":536:560  address public inspector */\n    tag_37:\n      callvalue\n      dup1\n      iszero\n      tag_205\n      jumpi\n      revert(0x00, 0x00)\n    tag_205:\n      pop\n      sload(0x02)\n      tag_65\n      swap1\n      sub(shl(0xa0, 0x01), 0x01)\n      and\n      dup2\n      jump\n        /* \".git/MyContracts/KenyaProcurementTransparency0.sol\":475:495  address public admin */\n    tag_38:\n      callvalue\n      dup1\n      iszero\n      tag_209\n      jumpi\n      revert(0x00, 0x00)\n    tag_209:\n      pop\n      sload(0x00)\n      tag_65\n      swap1\n      sub(shl(0xa0, 0x01), 0x01)\n      and\n      dup2\n      jump\n        /* \".git/MyContracts/KenyaProcurementTransparency0.sol\":15414:15843  function acceptDelivery(bytes32 _inspectionReportHash)... */\n    tag_50:\n        /* \".git/MyContracts/KenyaProcurementTransparency0.sol\":3878:3887  inspector */\n      and(sub(shl(0xa0, 0x01), 0x01), sload(0x02))\n        /* \".git/MyContracts/KenyaProcurementTransparency0.sol\":3874:3932  if (inspector == address(0)) revert InspectorNotAssigned() */\n      tag_214\n      jumpi\n        /* \".git/MyContracts/KenyaProcurementTransparency0.sol\":3910:3932  InspectorNotAssigned() */\n      mload(0x40)\n      shl(0xe0, 0xd6ea3663)\n      dup2\n      mstore\n      0x04\n      add\n      mload(0x40)\n      dup1\n      swap2\n      sub\n      swap1\n      revert\n        /* \".git/MyContracts/KenyaProcurementTransparency0.sol\":3874:3932  if (inspector == address(0)) revert InspectorNotAssigned() */\n    tag_214:\n        /* \".git/MyContracts/KenyaProcurementTransparency0.sol\":3961:3970  inspector */\n      and(sub(shl(0xa0, 0x01), 0x01), sload(0x02))\n        /* \".git/MyContracts/KenyaProcurementTransparency0.sol\":3947:3957  msg.sender */\n      caller\n        /* \".git/MyContracts/KenyaProcurementTransparency0.sol\":3947:3970  msg.sender != inspector */\n      eq\n        /* \".git/MyContracts/KenyaProcurementTransparency0.sol\":3943:3994  if (msg.sender != inspector) revert OnlyInspector() */\n      tag_215\n      jumpi\n        /* \".git/MyContracts/KenyaProcurementTransparency0.sol\":3979:3994  OnlyInspector() */\n      mload(0x40)\n      shl(0xe0, 0x9864fbb3)\n      dup2\n      mstore\n      0x04\n      add\n      mload(0x40)\n      dup1\n      swap2\n      sub\n      swap1\n      revert\n        /* \".git/MyContracts/KenyaProcurementTransparency0.sol\":3943:3994  if (msg.sender != inspector) revert OnlyInspector() */\n    tag_215:\n        /* \".git/MyContracts/KenyaProcurementTransparency0.sol\":4328:4341  tender.exists */\n      and(0xff, sload(0x09))\n        /* \".git/MyContracts/KenyaProcurementTransparency0.sol\":4323:4370  if (!tender.exists) revert TenderDoesNotExist() */\n      tag_217\n      jumpi\n        /* \".git/MyContracts/KenyaProcurementTransparency0.sol\":4350:4370  TenderDoesNotExist() */\n      mload(0x40)\n      shl(0xe1, 0x55e9e641)\n      dup2\n      mstore\n      0x04\n      add\n      mload(0x40)\n      dup1\n      swap2\n      sub\n      swap1\n      revert\n        /* \".git/MyContracts/KenyaProcurementTransparency0.sol\":4323:4370  if (!tender.exists) revert TenderDoesNotExist() */\n    tag_217:\n        /* \".git/MyContracts/KenyaProcurementTransparency0.sol\":15550:15572  TenderStatus.Delivered */\n      0x04\n      dup1\n        /* \".git/MyContracts/KenyaProcurementTransparency0.sol\":5058:5064  status */\n      sload(0x02)\n      shl(0xa0, 0x01)\n      swap1\n      div\n      0xff\n      and\n        /* \".git/MyContracts/KenyaProcurementTransparency0.sol\":5058:5075  status != _status */\n      0x07\n      dup2\n      gt\n      iszero\n      tag_223\n      jumpi\n      tag_223\n      tag_221\n      jump\t// in\n    tag_223:\n      eq\n        /* \".git/MyContracts/KenyaProcurementTransparency0.sol\":5054:5104  if (status != _status) revert InvalidTenderStage() */\n      tag_224\n      jumpi\n        /* \".git/MyContracts/KenyaProcurementTransparency0.sol\":5084:5104  InvalidTenderStage() */\n      mload(0x40)\n      shl(0xe6, 0x0187fa83)\n      dup2\n      mstore\n      0x04\n      add\n      mload(0x40)\n      dup1\n      swap2\n      sub\n      swap1\n      revert\n        /* \".git/MyContracts/KenyaProcurementTransparency0.sol\":5054:5104  if (status != _status) revert InvalidTenderStage() */\n    tag_224:\n        /* \".git/MyContracts/KenyaProcurementTransparency0.sol\":15598:15619  _inspectionReportHash */\n      dup2\n        /* \".git/MyContracts/KenyaProcurementTransparency0.sol\":15590:15668  require(_inspectionReportHash != bytes32(0), \"Invalid inspection report hash\") */\n      tag_226\n      jumpi\n      mload(0x40)\n      shl(0xe5, 0x461bcd)\n      dup2\n      mstore\n        /* \"#utility.yul\":11991:11993   */\n      0x20\n        /* \".git/MyContracts/KenyaProcurementTransparency0.sol\":15590:15668  require(_inspectionReportHash != bytes32(0), \"Invalid inspection report hash\") */\n      0x04\n      dup3\n      add\n        /* \"#utility.yul\":11973:11994   */\n      mstore\n        /* \"#utility.yul\":12030:12032   */\n      0x1e\n        /* \"#utility.yul\":12010:12028   */\n      0x24\n      dup3\n      add\n        /* \"#utility.yul\":12003:12033   */\n      mstore\n        /* \"#utility.yul\":12069:12101   */\n      0x496e76616c696420696e7370656374696f6e207265706f727420686173680000\n        /* \"#utility.yul\":12049:12067   */\n      0x44\n      dup3\n      add\n        /* \"#utility.yul\":12042:12102   */\n      mstore\n        /* \"#utility.yul\":12119:12137   */\n      0x64\n      add\n        /* \".git/MyContracts/KenyaProcurementTransparency0.sol\":15590:15668  require(_inspectionReportHash != bytes32(0), \"Invalid inspection report hash\") */\n    tag_227:\n      mload(0x40)\n      dup1\n      swap2\n      sub\n      swap1\n      revert\n    tag_226:\n        /* \".git/MyContracts/KenyaProcurementTransparency0.sol\":15681:15701  inspectionReportHash */\n      0x11\n        /* \".git/MyContracts/KenyaProcurementTransparency0.sol\":15681:15725  inspectionReportHash = _inspectionReportHash */\n      dup3\n      swap1\n      sstore\n        /* \".git/MyContracts/KenyaProcurementTransparency0.sol\":15736:15742  status */\n      0x02\n        /* \".git/MyContracts/KenyaProcurementTransparency0.sol\":15736:15766  status = TenderStatus.Accepted */\n      dup1\n      sload\n      not(shl(0xa0, 0xff))\n      and\n      shl(0xa1, 0x03)\n      or\n      swap1\n      sstore\n        /* \".git/MyContracts/KenyaProcurementTransparency0.sol\":15784:15835  DeliveryAccepted(msg.sender, _inspectionReportHash) */\n      0x40\n      dup1\n      mload\n        /* \".git/MyContracts/KenyaProcurementTransparency0.sol\":15801:15811  msg.sender */\n      caller\n        /* \"#utility.yul\":12322:12373   */\n      dup2\n      mstore\n        /* \"#utility.yul\":12404:12406   */\n      0x20\n        /* \"#utility.yul\":12389:12407   */\n      dup2\n      add\n        /* \"#utility.yul\":12382:12416   */\n      dup5\n      swap1\n      mstore\n        /* \".git/MyContracts/KenyaProcurementTransparency0.sol\":15784:15835  DeliveryAccepted(msg.sender, _inspectionReportHash) */\n      0xef94af06cfa9a76c638dd1a1cfb86b07f938febf05374e3675aeced1f805205e\n      swap2\n        /* \"#utility.yul\":12295:12313   */\n      add\n        /* \".git/MyContracts/KenyaProcurementTransparency0.sol\":15784:15835  DeliveryAccepted(msg.sender, _inspectionReportHash) */\n    tag_231:\n      mload(0x40)\n      dup1\n      swap2\n      sub\n      swap1\n      log1\n        /* \".git/MyContracts/KenyaProcurementTransparency0.sol\":4381:4382  _ */\n      pop\n        /* \".git/MyContracts/KenyaProcurementTransparency0.sol\":15414:15843  function acceptDelivery(bytes32 _inspectionReportHash)... */\n      pop\n      jump\t// out\n        /* \".git/MyContracts/KenyaProcurementTransparency0.sol\":11618:11858  function openRevealPhase()... */\n    tag_53:\n        /* \".git/MyContracts/KenyaProcurementTransparency0.sol\":3715:3720  admin */\n      and(sub(shl(0xa0, 0x01), 0x01), sload(0x00))\n        /* \".git/MyContracts/KenyaProcurementTransparency0.sol\":3701:3711  msg.sender */\n      caller\n        /* \".git/MyContracts/KenyaProcurementTransparency0.sol\":3701:3720  msg.sender != admin */\n      eq\n        /* \".git/MyContracts/KenyaProcurementTransparency0.sol\":3697:3740  if (msg.sender != admin) revert OnlyAdmin() */\n      tag_234\n      jumpi\n        /* \".git/MyContracts/KenyaProcurementTransparency0.sol\":3729:3740  OnlyAdmin() */\n      mload(0x40)\n      shl(0xe0, 0x47556579)\n      dup2\n      mstore\n      0x04\n      add\n      mload(0x40)\n      dup1\n      swap2\n      sub\n      swap1\n      revert\n        /* \".git/MyContracts/KenyaProcurementTransparency0.sol\":3697:3740  if (msg.sender != admin) revert OnlyAdmin() */\n    tag_234:\n        /* \".git/MyContracts/KenyaProcurementTransparency0.sol\":4328:4341  tender.exists */\n      and(0xff, sload(0x09))\n        /* \".git/MyContracts/KenyaProcurementTransparency0.sol\":4323:4370  if (!tender.exists) revert TenderDoesNotExist() */\n      tag_236\n      jumpi\n        /* \".git/MyContracts/KenyaProcurementTransparency0.sol\":4350:4370  TenderDoesNotExist() */\n      mload(0x40)\n      shl(0xe1, 0x55e9e641)\n      dup2\n      mstore\n      0x04\n      add\n      mload(0x40)\n      dup1\n      swap2\n      sub\n      swap1\n      revert\n        /* \".git/MyContracts/KenyaProcurementTransparency0.sol\":4323:4370  if (!tender.exists) revert TenderDoesNotExist() */\n    tag_236:\n        /* \".git/MyContracts/KenyaProcurementTransparency0.sol\":4773:4798  tender.submissionDeadline */\n      sload(0x06)\n        /* \".git/MyContracts/KenyaProcurementTransparency0.sol\":4755:4770  block.timestamp */\n      timestamp\n        /* \".git/MyContracts/KenyaProcurementTransparency0.sol\":4755:4798  block.timestamp < tender.submissionDeadline */\n      lt\n        /* \".git/MyContracts/KenyaProcurementTransparency0.sol\":4751:4837  if (block.timestamp < tender.submissionDeadline) revert SubmissionDeadlineNotReached() */\n      iszero\n      tag_238\n      jumpi\n        /* \".git/MyContracts/KenyaProcurementTransparency0.sol\":4807:4837  SubmissionDeadlineNotReached() */\n      mload(0x40)\n      shl(0xe0, 0x3efbccb1)\n      dup2\n      mstore\n      0x04\n      add\n      mload(0x40)\n      dup1\n      swap2\n      sub\n      swap1\n      revert\n        /* \".git/MyContracts/KenyaProcurementTransparency0.sol\":4751:4837  if (block.timestamp < tender.submissionDeadline) revert SubmissionDeadlineNotReached() */\n    tag_238:\n        /* \".git/MyContracts/KenyaProcurementTransparency0.sol\":11745:11765  TenderStatus.Created */\n      0x00\n      dup1\n        /* \".git/MyContracts/KenyaProcurementTransparency0.sol\":5058:5064  status */\n      sload(0x02)\n      shl(0xa0, 0x01)\n      swap1\n      div\n      0xff\n      and\n        /* \".git/MyContracts/KenyaProcurementTransparency0.sol\":5058:5075  status != _status */\n      0x07\n      dup2\n      gt\n      iszero\n      tag_243\n      jumpi\n      tag_243\n      tag_221\n      jump\t// in\n    tag_243:\n      eq\n        /* \".git/MyContracts/KenyaProcurementTransparency0.sol\":5054:5104  if (status != _status) revert InvalidTenderStage() */\n      tag_244\n      jumpi\n        /* \".git/MyContracts/KenyaProcurementTransparency0.sol\":5084:5104  InvalidTenderStage() */\n      mload(0x40)\n      shl(0xe6, 0x0187fa83)\n      dup2\n      mstore\n      0x04\n      add\n      mload(0x40)\n      dup1\n      swap2\n      sub\n      swap1\n      revert\n        /* \".git/MyContracts/KenyaProcurementTransparency0.sol\":5054:5104  if (status != _status) revert InvalidTenderStage() */\n    tag_244:\n        /* \".git/MyContracts/KenyaProcurementTransparency0.sol\":11783:11789  status */\n      0x02\n        /* \".git/MyContracts/KenyaProcurementTransparency0.sol\":11783:11815  status = TenderStatus.RevealOpen */\n      dup1\n      sload\n      not(shl(0xa0, 0xff))\n      and\n      shl(0xa0, 0x01)\n      or\n      swap1\n      sstore\n        /* \".git/MyContracts/KenyaProcurementTransparency0.sol\":11831:11850  RevealPhaseOpened() */\n      mload(0x40)\n      0x2fd2f8fcbb75b0a142d3952ad3f5e92dd16aab6c8bbbd304bdb97066b33c062c\n      swap1\n      0x00\n      swap1\n      log1\n        /* \".git/MyContracts/KenyaProcurementTransparency0.sol\":4848:4849  _ */\n      pop\n        /* \".git/MyContracts/KenyaProcurementTransparency0.sol\":11618:11858  function openRevealPhase()... */\n      jump\t// out\n        /* \".git/MyContracts/KenyaProcurementTransparency0.sol\":12038:12732  function revealBid(uint256 _amount, string memory _secret)... */\n    tag_63:\n        /* \".git/MyContracts/KenyaProcurementTransparency0.sol\":4328:4341  tender.exists */\n      and(0xff, sload(0x09))\n        /* \".git/MyContracts/KenyaProcurementTransparency0.sol\":4323:4370  if (!tender.exists) revert TenderDoesNotExist() */\n      tag_249\n      jumpi\n        /* \".git/MyContracts/KenyaProcurementTransparency0.sol\":4350:4370  TenderDoesNotExist() */\n      mload(0x40)\n      shl(0xe1, 0x55e9e641)\n      dup2\n      mstore\n      0x04\n      add\n      mload(0x40)\n      dup1\n      swap2\n      sub\n      swap1\n      revert\n        /* \".git/MyContracts/KenyaProcurementTransparency0.sol\":4323:4370  if (!tender.exists) revert TenderDoesNotExist() */\n    tag_249:\n        /* \".git/MyContracts/KenyaProcurementTransparency0.sol\":4159:4169  msg.sender */\n      caller\n        /* \".git/MyContracts/KenyaProcurementTransparency0.sol\":4141:4170  registeredBidders[msg.sender] */\n      0x00\n      swap1\n      dup2\n      mstore\n        /* \".git/MyContracts/KenyaProcurementTransparency0.sol\":4141:4158  registeredBidders */\n      0x0a\n        /* \".git/MyContracts/KenyaProcurementTransparency0.sol\":4141:4170  registeredBidders[msg.sender] */\n      0x20\n      mstore\n      0x40\n      swap1\n      keccak256\n      sload\n      0xff\n      and\n        /* \".git/MyContracts/KenyaProcurementTransparency0.sol\":4136:4200  if (!registeredBidders[msg.sender]) revert NotRegisteredBidder() */\n      tag_251\n      jumpi\n        /* \".git/MyContracts/KenyaProcurementTransparency0.sol\":4179:4200  NotRegisteredBidder() */\n      mload(0x40)\n      shl(0xe5, 0x02f9ce37)\n      dup2\n      mstore\n      0x04\n      add\n      mload(0x40)\n      dup1\n      swap2\n      sub\n      swap1\n      revert\n        /* \".git/MyContracts/KenyaProcurementTransparency0.sol\":4136:4200  if (!registeredBidders[msg.sender]) revert NotRegisteredBidder() */\n    tag_251:\n        /* \".git/MyContracts/KenyaProcurementTransparency0.sol\":12185:12208  TenderStatus.RevealOpen */\n      0x01\n      dup1\n        /* \".git/MyContracts/KenyaProcurementTransparency0.sol\":5058:5064  status */\n      sload(0x02)\n      shl(0xa0, 0x01)\n      swap1\n      div\n      0xff\n      and\n        /* \".git/MyContracts/KenyaProcurementTransparency0.sol\":5058:5075  status != _status */\n      0x07\n      dup2\n      gt\n      iszero\n      tag_256\n      jumpi\n      tag_256\n      tag_221\n      jump\t// in\n    tag_256:\n      eq\n        /* \".git/MyContracts/KenyaProcurementTransparency0.sol\":5054:5104  if (status != _status) revert InvalidTenderStage() */\n      tag_257\n      jumpi\n        /* \".git/MyContracts/KenyaProcurementTransparency0.sol\":5084:5104  InvalidTenderStage() */\n      mload(0x40)\n      shl(0xe6, 0x0187fa83)\n      dup2\n      mstore\n      0x04\n      add\n      mload(0x40)\n      dup1\n      swap2\n      sub\n      swap1\n      revert\n        /* \".git/MyContracts/KenyaProcurementTransparency0.sol\":5054:5104  if (status != _status) revert InvalidTenderStage() */\n    tag_257:\n        /* \".git/MyContracts/KenyaProcurementTransparency0.sol\":12255:12265  msg.sender */\n      caller\n        /* \".git/MyContracts/KenyaProcurementTransparency0.sol\":12226:12247  Bid storage bidderBid */\n      0x00\n        /* \".git/MyContracts/KenyaProcurementTransparency0.sol\":12250:12266  bids[msg.sender] */\n      swap1\n      dup2\n      mstore\n        /* \".git/MyContracts/KenyaProcurementTransparency0.sol\":12250:12254  bids */\n      0x0c\n        /* \".git/MyContracts/KenyaProcurementTransparency0.sol\":12250:12266  bids[msg.sender] */\n      0x20\n      mstore\n      0x40\n      swap1\n      keccak256\n        /* \".git/MyContracts/KenyaProcurementTransparency0.sol\":12287:12306  bidderBid.submitted */\n      0x01\n      dup2\n      add\n      sload\n      0xff\n      and\n        /* \".git/MyContracts/KenyaProcurementTransparency0.sol\":12279:12327  require(bidderBid.submitted, \"No bid submitted\") */\n      tag_259\n      jumpi\n      mload(0x40)\n      shl(0xe5, 0x461bcd)\n      dup2\n      mstore\n        /* \"#utility.yul\":12629:12631   */\n      0x20\n        /* \".git/MyContracts/KenyaProcurementTransparency0.sol\":12279:12327  require(bidderBid.submitted, \"No bid submitted\") */\n      0x04\n      dup3\n      add\n        /* \"#utility.yul\":12611:12632   */\n      mstore\n        /* \"#utility.yul\":12668:12670   */\n      0x10\n        /* \"#utility.yul\":12648:12666   */\n      0x24\n      dup3\n      add\n        /* \"#utility.yul\":12641:12671   */\n      mstore\n      shl(0x82, 0x139bc8189a59081cdd589b5a5d1d1959)\n        /* \"#utility.yul\":12687:12705   */\n      0x44\n      dup3\n      add\n        /* \"#utility.yul\":12680:12726   */\n      mstore\n        /* \"#utility.yul\":12743:12761   */\n      0x64\n      add\n        /* \".git/MyContracts/KenyaProcurementTransparency0.sol\":12279:12327  require(bidderBid.submitted, \"No bid submitted\") */\n      tag_227\n        /* \"#utility.yul\":12427:12767   */\n      jump\n        /* \".git/MyContracts/KenyaProcurementTransparency0.sol\":12279:12327  require(bidderBid.submitted, \"No bid submitted\") */\n    tag_259:\n        /* \".git/MyContracts/KenyaProcurementTransparency0.sol\":12347:12365  bidderBid.revealed */\n      0x01\n      dup2\n      add\n      sload\n      0x0100\n      swap1\n      div\n      0xff\n      and\n        /* \".git/MyContracts/KenyaProcurementTransparency0.sol\":12346:12365  !bidderBid.revealed */\n      iszero\n        /* \".git/MyContracts/KenyaProcurementTransparency0.sol\":12338:12390  require(!bidderBid.revealed, \"Bid already revealed\") */\n      tag_262\n      jumpi\n      mload(0x40)\n      shl(0xe5, 0x461bcd)\n      dup2\n      mstore\n        /* \"#utility.yul\":12974:12976   */\n      0x20\n        /* \".git/MyContracts/KenyaProcurementTransparency0.sol\":12338:12390  require(!bidderBid.revealed, \"Bid already revealed\") */\n      0x04\n      dup3\n      add\n        /* \"#utility.yul\":12956:12977   */\n      mstore\n        /* \"#utility.yul\":13013:13015   */\n      0x14\n        /* \"#utility.yul\":12993:13011   */\n      0x24\n      dup3\n      add\n        /* \"#utility.yul\":12986:13016   */\n      mstore\n      shl(0x62, 0x109a5908185b1c9958591e481c995d99585b1959)\n        /* \"#utility.yul\":13032:13050   */\n      0x44\n      dup3\n      add\n        /* \"#utility.yul\":13025:13075   */\n      mstore\n        /* \"#utility.yul\":13092:13110   */\n      0x64\n      add\n        /* \".git/MyContracts/KenyaProcurementTransparency0.sol\":12338:12390  require(!bidderBid.revealed, \"Bid already revealed\") */\n      tag_227\n        /* \"#utility.yul\":12772:13116   */\n      jump\n        /* \".git/MyContracts/KenyaProcurementTransparency0.sol\":12338:12390  require(!bidderBid.revealed, \"Bid already revealed\") */\n    tag_262:\n        /* \".git/MyContracts/KenyaProcurementTransparency0.sol\":12403:12423  bytes32 computedHash */\n      0x00\n        /* \".git/MyContracts/KenyaProcurementTransparency0.sol\":12453:12460  _amount */\n      dup5\n        /* \".git/MyContracts/KenyaProcurementTransparency0.sol\":12462:12469  _secret */\n      dup5\n        /* \".git/MyContracts/KenyaProcurementTransparency0.sol\":12436:12470  abi.encodePacked(_amount, _secret) */\n      add(0x20, mload(0x40))\n      tag_265\n      swap3\n      swap2\n      swap1\n      tag_266\n      jump\t// in\n    tag_265:\n      mload(0x40)\n      0x20\n      dup2\n      dup4\n      sub\n      sub\n      dup2\n      mstore\n      swap1\n      0x40\n      mstore\n        /* \".git/MyContracts/KenyaProcurementTransparency0.sol\":12426:12471  keccak256(abi.encodePacked(_amount, _secret)) */\n      dup1\n      mload\n      swap1\n      0x20\n      add\n      keccak256\n        /* \".git/MyContracts/KenyaProcurementTransparency0.sol\":12403:12471  bytes32 computedHash = keccak256(abi.encodePacked(_amount, _secret)) */\n      swap1\n      pop\n        /* \".git/MyContracts/KenyaProcurementTransparency0.sol\":12506:12515  bidderBid */\n      dup2\n        /* \".git/MyContracts/KenyaProcurementTransparency0.sol\":12506:12529  bidderBid.sealedBidHash */\n      0x00\n      add\n      sload\n        /* \".git/MyContracts/KenyaProcurementTransparency0.sol\":12490:12502  computedHash */\n      dup2\n        /* \".git/MyContracts/KenyaProcurementTransparency0.sol\":12490:12529  computedHash == bidderBid.sealedBidHash */\n      eq\n        /* \".git/MyContracts/KenyaProcurementTransparency0.sol\":12482:12566  require(computedHash == bidderBid.sealedBidHash, \"Reveal does not match sealed bid\") */\n      tag_267\n      jumpi\n      mload(0x40)\n      shl(0xe5, 0x461bcd)\n      dup2\n      mstore\n        /* \"#utility.yul\":13703:13705   */\n      0x20\n        /* \".git/MyContracts/KenyaProcurementTransparency0.sol\":12482:12566  require(computedHash == bidderBid.sealedBidHash, \"Reveal does not match sealed bid\") */\n      0x04\n      dup3\n      add\n        /* \"#utility.yul\":13685:13706   */\n      dup2\n      swap1\n      mstore\n        /* \"#utility.yul\":13722:13740   */\n      0x24\n      dup3\n      add\n        /* \"#utility.yul\":13715:13745   */\n      mstore\n        /* \"#utility.yul\":13781:13815   */\n      0x52657665616c20646f6573206e6f74206d61746368207365616c656420626964\n        /* \"#utility.yul\":13761:13779   */\n      0x44\n      dup3\n      add\n        /* \"#utility.yul\":13754:13816   */\n      mstore\n        /* \"#utility.yul\":13833:13851   */\n      0x64\n      add\n        /* \".git/MyContracts/KenyaProcurementTransparency0.sol\":12482:12566  require(computedHash == bidderBid.sealedBidHash, \"Reveal does not match sealed bid\") */\n      tag_227\n        /* \"#utility.yul\":13501:13857   */\n      jump\n        /* \".git/MyContracts/KenyaProcurementTransparency0.sol\":12482:12566  require(computedHash == bidderBid.sealedBidHash, \"Reveal does not match sealed bid\") */\n    tag_267:\n        /* \".git/MyContracts/KenyaProcurementTransparency0.sol\":12600:12604  true */\n      0x01\n        /* \".git/MyContracts/KenyaProcurementTransparency0.sol\":12579:12597  bidderBid.revealed */\n      dup3\n      dup2\n      add\n        /* \".git/MyContracts/KenyaProcurementTransparency0.sol\":12579:12604  bidderBid.revealed = true */\n      dup1\n      sload\n      not(0xff00)\n      and\n      0x0100\n      or\n      swap1\n      sstore\n        /* \".git/MyContracts/KenyaProcurementTransparency0.sol\":12615:12631  bidderBid.amount */\n      0x02\n      dup4\n      add\n        /* \".git/MyContracts/KenyaProcurementTransparency0.sol\":12615:12641  bidderBid.amount = _amount */\n      dup7\n      swap1\n      sstore\n        /* \".git/MyContracts/KenyaProcurementTransparency0.sol\":12652:12667  bidderBid.valid */\n      0x03\n      dup4\n      add\n        /* \".git/MyContracts/KenyaProcurementTransparency0.sol\":12652:12674  bidderBid.valid = true */\n      dup1\n      sload\n      not(0xff)\n      and\n      swap1\n      swap2\n      or\n      swap1\n      sstore\n        /* \".git/MyContracts/KenyaProcurementTransparency0.sol\":12692:12724  BidRevealed(msg.sender, _amount) */\n      0x40\n      dup1\n      mload\n        /* \".git/MyContracts/KenyaProcurementTransparency0.sol\":12704:12714  msg.sender */\n      caller\n        /* \"#utility.yul\":12322:12373   */\n      dup2\n      mstore\n        /* \"#utility.yul\":12404:12406   */\n      0x20\n        /* \"#utility.yul\":12389:12407   */\n      dup2\n      add\n        /* \"#utility.yul\":12382:12416   */\n      dup8\n      swap1\n      mstore\n        /* \".git/MyContracts/KenyaProcurementTransparency0.sol\":12692:12724  BidRevealed(msg.sender, _amount) */\n      0x9891bd98143d5a2c5f29be9a7ef8e5d7b723746fb3b75220234af7aa6caeecfe\n      swap2\n        /* \"#utility.yul\":12295:12313   */\n      add\n        /* \".git/MyContracts/KenyaProcurementTransparency0.sol\":12692:12724  BidRevealed(msg.sender, _amount) */\n      mload(0x40)\n      dup1\n      swap2\n      sub\n      swap1\n      log1\n        /* \".git/MyContracts/KenyaProcurementTransparency0.sol\":12215:12732  {... */\n      pop\n      pop\n        /* \".git/MyContracts/KenyaProcurementTransparency0.sol\":4211:4212  _ */\n      pop\n        /* \".git/MyContracts/KenyaProcurementTransparency0.sol\":12038:12732  function revealBid(uint256 _amount, string memory _secret)... */\n      pop\n      pop\n      jump\t// out\n        /* \".git/MyContracts/KenyaProcurementTransparency0.sol\":1735:1764  string public rejectionReason */\n    tag_71:\n      0x12\n      dup1\n      sload\n      tag_272\n      swap1\n      tag_273\n      jump\t// in\n    tag_272:\n      dup1\n      0x1f\n      add\n      0x20\n      dup1\n      swap2\n      div\n      mul\n      0x20\n      add\n      mload(0x40)\n      swap1\n      dup2\n      add\n      0x40\n      mstore\n      dup1\n      swap3\n      swap2\n      swap1\n      dup2\n      dup2\n      mstore\n      0x20\n      add\n      dup3\n      dup1\n      sload\n      tag_274\n      swap1\n      tag_273\n      jump\t// in\n    tag_274:\n      dup1\n      iszero\n      tag_275\n      jumpi\n      dup1\n      0x1f\n      lt\n      tag_276\n      jumpi\n      0x0100\n      dup1\n      dup4\n      sload\n      div\n      mul\n      dup4\n      mstore\n      swap2\n      0x20\n      add\n      swap2\n      jump(tag_275)\n    tag_276:\n      dup3\n      add\n      swap2\n      swap1\n      0x00\n      mstore\n      keccak256(0x00, 0x20)\n      swap1\n    tag_277:\n      dup2\n      sload\n      dup2\n      mstore\n      swap1\n      0x01\n      add\n      swap1\n      0x20\n      add\n      dup1\n      dup4\n      gt\n      tag_277\n      jumpi\n      dup3\n      swap1\n      sub\n      0x1f\n      and\n      dup3\n      add\n      swap2\n    tag_275:\n      pop\n      pop\n      pop\n      pop\n      pop\n      dup2\n      jump\t// out\n        /* \".git/MyContracts/KenyaProcurementTransparency0.sol\":9410:9999  function registerBidder(address _bidder, string memory _description)... */\n    tag_90:\n        /* \".git/MyContracts/KenyaProcurementTransparency0.sol\":3715:3720  admin */\n      and(sub(shl(0xa0, 0x01), 0x01), sload(0x00))\n        /* \".git/MyContracts/KenyaProcurementTransparency0.sol\":3701:3711  msg.sender */\n      caller\n        /* \".git/MyContracts/KenyaProcurementTransparency0.sol\":3701:3720  msg.sender != admin */\n      eq\n        /* \".git/MyContracts/KenyaProcurementTransparency0.sol\":3697:3740  if (msg.sender != admin) revert OnlyAdmin() */\n      tag_279\n      jumpi\n        /* \".git/MyContracts/KenyaProcurementTransparency0.sol\":3729:3740  OnlyAdmin() */\n      mload(0x40)\n      shl(0xe0, 0x47556579)\n      dup2\n      mstore\n      0x04\n      add\n      mload(0x40)\n      dup1\n      swap2\n      sub\n      swap1\n      revert\n        /* \".git/MyContracts/KenyaProcurementTransparency0.sol\":3697:3740  if (msg.sender != admin) revert OnlyAdmin() */\n    tag_279:\n        /* \".git/MyContracts/KenyaProcurementTransparency0.sol\":4328:4341  tender.exists */\n      and(0xff, sload(0x09))\n        /* \".git/MyContracts/KenyaProcurementTransparency0.sol\":4323:4370  if (!tender.exists) revert TenderDoesNotExist() */\n      tag_281\n      jumpi\n        /* \".git/MyContracts/KenyaProcurementTransparency0.sol\":4350:4370  TenderDoesNotExist() */\n      mload(0x40)\n      shl(0xe1, 0x55e9e641)\n      dup2\n      mstore\n      0x04\n      add\n      mload(0x40)\n      dup1\n      swap2\n      sub\n      swap1\n      revert\n        /* \".git/MyContracts/KenyaProcurementTransparency0.sol\":4323:4370  if (!tender.exists) revert TenderDoesNotExist() */\n    tag_281:\n        /* \".git/MyContracts/KenyaProcurementTransparency0.sol\":9556:9576  TenderStatus.Created */\n      0x00\n      dup1\n        /* \".git/MyContracts/KenyaProcurementTransparency0.sol\":5058:5064  status */\n      sload(0x02)\n      shl(0xa0, 0x01)\n      swap1\n      div\n      0xff\n      and\n        /* \".git/MyContracts/KenyaProcurementTransparency0.sol\":5058:5075  status != _status */\n      0x07\n      dup2\n      gt\n      iszero\n      tag_286\n      jumpi\n      tag_286\n      tag_221\n      jump\t// in\n    tag_286:\n      eq\n        /* \".git/MyContracts/KenyaProcurementTransparency0.sol\":5054:5104  if (status != _status) revert InvalidTenderStage() */\n      tag_287\n      jumpi\n        /* \".git/MyContracts/KenyaProcurementTransparency0.sol\":5084:5104  InvalidTenderStage() */\n      mload(0x40)\n      shl(0xe6, 0x0187fa83)\n      dup2\n      mstore\n      0x04\n      add\n      mload(0x40)\n      dup1\n      swap2\n      sub\n      swap1\n      revert\n        /* \".git/MyContracts/KenyaProcurementTransparency0.sol\":5054:5104  if (status != _status) revert InvalidTenderStage() */\n    tag_287:\n      sub(shl(0xa0, 0x01), 0x01)\n        /* \".git/MyContracts/KenyaProcurementTransparency0.sol\":9602:9623  _bidder != address(0) */\n      dup4\n      and\n        /* \".git/MyContracts/KenyaProcurementTransparency0.sol\":9594:9650  require(_bidder != address(0), \"Invalid bidder address\") */\n      tag_289\n      jumpi\n      mload(0x40)\n      shl(0xe5, 0x461bcd)\n      dup2\n      mstore\n        /* \"#utility.yul\":14728:14730   */\n      0x20\n        /* \".git/MyContracts/KenyaProcurementTransparency0.sol\":9594:9650  require(_bidder != address(0), \"Invalid bidder address\") */\n      0x04\n      dup3\n      add\n        /* \"#utility.yul\":14710:14731   */\n      mstore\n        /* \"#utility.yul\":14767:14769   */\n      0x16\n        /* \"#utility.yul\":14747:14765   */\n      0x24\n      dup3\n      add\n        /* \"#utility.yul\":14740:14770   */\n      mstore\n      shl(0x50, 0x496e76616c6964206269646465722061646472657373)\n        /* \"#utility.yul\":14786:14804   */\n      0x44\n      dup3\n      add\n        /* \"#utility.yul\":14779:14831   */\n      mstore\n        /* \"#utility.yul\":14848:14866   */\n      0x64\n      add\n        /* \".git/MyContracts/KenyaProcurementTransparency0.sol\":9594:9650  require(_bidder != address(0), \"Invalid bidder address\") */\n      tag_227\n        /* \"#utility.yul\":14526:14872   */\n      jump\n        /* \".git/MyContracts/KenyaProcurementTransparency0.sol\":9594:9650  require(_bidder != address(0), \"Invalid bidder address\") */\n    tag_289:\n      sub(shl(0xa0, 0x01), 0x01)\n        /* \".git/MyContracts/KenyaProcurementTransparency0.sol\":9670:9696  registeredBidders[_bidder] */\n      dup4\n      and\n      0x00\n      swap1\n      dup2\n      mstore\n        /* \".git/MyContracts/KenyaProcurementTransparency0.sol\":9670:9687  registeredBidders */\n      0x0a\n        /* \".git/MyContracts/KenyaProcurementTransparency0.sol\":9670:9696  registeredBidders[_bidder] */\n      0x20\n      mstore\n      0x40\n      swap1\n      keccak256\n      sload\n      0xff\n      and\n        /* \".git/MyContracts/KenyaProcurementTransparency0.sol\":9669:9696  !registeredBidders[_bidder] */\n      iszero\n        /* \".git/MyContracts/KenyaProcurementTransparency0.sol\":9661:9726  require(!registeredBidders[_bidder], \"Bidder already registered\") */\n      tag_292\n      jumpi\n      mload(0x40)\n      shl(0xe5, 0x461bcd)\n      dup2\n      mstore\n        /* \"#utility.yul\":15079:15081   */\n      0x20\n        /* \".git/MyContracts/KenyaProcurementTransparency0.sol\":9661:9726  require(!registeredBidders[_bidder], \"Bidder already registered\") */\n      0x04\n      dup3\n      add\n        /* \"#utility.yul\":15061:15082   */\n      mstore\n        /* \"#utility.yul\":15118:15120   */\n      0x19\n        /* \"#utility.yul\":15098:15116   */\n      0x24\n      dup3\n      add\n        /* \"#utility.yul\":15091:15121   */\n      mstore\n        /* \"#utility.yul\":15157:15184   */\n      0x42696464657220616c7265616479207265676973746572656400000000000000\n        /* \"#utility.yul\":15137:15155   */\n      0x44\n      dup3\n      add\n        /* \"#utility.yul\":15130:15185   */\n      mstore\n        /* \"#utility.yul\":15202:15220   */\n      0x64\n      add\n        /* \".git/MyContracts/KenyaProcurementTransparency0.sol\":9661:9726  require(!registeredBidders[_bidder], \"Bidder already registered\") */\n      tag_227\n        /* \"#utility.yul\":14877:15226   */\n      jump\n        /* \".git/MyContracts/KenyaProcurementTransparency0.sol\":9661:9726  require(!registeredBidders[_bidder], \"Bidder already registered\") */\n    tag_292:\n        /* \".git/MyContracts/KenyaProcurementTransparency0.sol\":9774:9775  0 */\n      0x00\n        /* \".git/MyContracts/KenyaProcurementTransparency0.sol\":9751:9763  _description */\n      dup3\n        /* \".git/MyContracts/KenyaProcurementTransparency0.sol\":9745:9771  bytes(_description).length */\n      mload\n        /* \".git/MyContracts/KenyaProcurementTransparency0.sol\":9745:9775  bytes(_description).length > 0 */\n      gt\n        /* \".git/MyContracts/KenyaProcurementTransparency0.sol\":9737:9800  require(bytes(_description).length > 0, \"Description required\") */\n      tag_295\n      jumpi\n      mload(0x40)\n      shl(0xe5, 0x461bcd)\n      dup2\n      mstore\n        /* \"#utility.yul\":15433:15435   */\n      0x20\n        /* \".git/MyContracts/KenyaProcurementTransparency0.sol\":9737:9800  require(bytes(_description).length > 0, \"Description required\") */\n      0x04\n      dup3\n      add\n        /* \"#utility.yul\":15415:15436   */\n      mstore\n        /* \"#utility.yul\":15472:15474   */\n      0x14\n        /* \"#utility.yul\":15452:15470   */\n      0x24\n      dup3\n      add\n        /* \"#utility.yul\":15445:15475   */\n      mstore\n      shl(0x62, 0x11195cd8dc9a5c1d1a5bdb881c995c5d5a5c9959)\n        /* \"#utility.yul\":15491:15509   */\n      0x44\n      dup3\n      add\n        /* \"#utility.yul\":15484:15534   */\n      mstore\n        /* \"#utility.yul\":15551:15569   */\n      0x64\n      add\n        /* \".git/MyContracts/KenyaProcurementTransparency0.sol\":9737:9800  require(bytes(_description).length > 0, \"Description required\") */\n      tag_227\n        /* \"#utility.yul\":15231:15575   */\n      jump\n        /* \".git/MyContracts/KenyaProcurementTransparency0.sol\":9737:9800  require(bytes(_description).length > 0, \"Description required\") */\n    tag_295:\n      sub(shl(0xa0, 0x01), 0x01)\n        /* \".git/MyContracts/KenyaProcurementTransparency0.sol\":9813:9839  registeredBidders[_bidder] */\n      dup4\n      and\n      0x00\n      swap1\n      dup2\n      mstore\n        /* \".git/MyContracts/KenyaProcurementTransparency0.sol\":9813:9830  registeredBidders */\n      0x0a\n        /* \".git/MyContracts/KenyaProcurementTransparency0.sol\":9813:9839  registeredBidders[_bidder] */\n      0x20\n      swap1\n      dup2\n      mstore\n      0x40\n      dup1\n      dup4\n      keccak256\n        /* \".git/MyContracts/KenyaProcurementTransparency0.sol\":9813:9846  registeredBidders[_bidder] = true */\n      dup1\n      sload\n      not(0xff)\n      and\n        /* \".git/MyContracts/KenyaProcurementTransparency0.sol\":9842:9846  true */\n      0x01\n        /* \".git/MyContracts/KenyaProcurementTransparency0.sol\":9813:9846  registeredBidders[_bidder] = true */\n      or\n      swap1\n      sstore\n        /* \".git/MyContracts/KenyaProcurementTransparency0.sol\":9857:9875  bidderDescriptions */\n      0x0b\n        /* \".git/MyContracts/KenyaProcurementTransparency0.sol\":9857:9884  bidderDescriptions[_bidder] */\n      swap1\n      swap2\n      mstore\n      swap1\n      keccak256\n        /* \".git/MyContracts/KenyaProcurementTransparency0.sol\":9857:9899  bidderDescriptions[_bidder] = _description */\n      tag_298\n        /* \".git/MyContracts/KenyaProcurementTransparency0.sol\":9887:9899  _description */\n      dup4\n        /* \".git/MyContracts/KenyaProcurementTransparency0.sol\":9857:9884  bidderDescriptions[_bidder] */\n      dup3\n        /* \".git/MyContracts/KenyaProcurementTransparency0.sol\":9857:9899  bidderDescriptions[_bidder] = _description */\n      tag_299\n      jump\t// in\n    tag_298:\n      pop\n        /* \".git/MyContracts/KenyaProcurementTransparency0.sol\":9910:9920  bidderList */\n      0x0d\n        /* \".git/MyContracts/KenyaProcurementTransparency0.sol\":9910:9934  bidderList.push(_bidder) */\n      dup1\n      sload\n      0x01\n      dup2\n      add\n      dup3\n      sstore\n      0x00\n      swap2\n      swap1\n      swap2\n      mstore\n      0xd7b6990105719101dabeb77144f2a3385c8033acd3af97e9423a695e81ad1eb5\n      add\n      dup1\n      sload\n      not(sub(shl(0xa0, 0x01), 0x01))\n      and\n      sub(shl(0xa0, 0x01), 0x01)\n      dup6\n      and\n      or\n      swap1\n      sstore\n        /* \".git/MyContracts/KenyaProcurementTransparency0.sol\":9952:9991  BidderRegistered(_bidder, _description) */\n      mload(0x40)\n      0x164b6120673b4b59137ef128c1c6d39e2de27d8baa1ddeda0db16ea4e15e97f6\n      swap1\n      tag_301\n      swap1\n        /* \".git/MyContracts/KenyaProcurementTransparency0.sol\":9910:9934  bidderList.push(_bidder) */\n      dup6\n      swap1\n        /* \".git/MyContracts/KenyaProcurementTransparency0.sol\":9978:9990  _description */\n      dup6\n      swap1\n        /* \".git/MyContracts/KenyaProcurementTransparency0.sol\":9952:9991  BidderRegistered(_bidder, _description) */\n      tag_302\n      jump\t// in\n    tag_301:\n      mload(0x40)\n      dup1\n      swap2\n      sub\n      swap1\n      log1\n        /* \".git/MyContracts/KenyaProcurementTransparency0.sol\":4381:4382  _ */\n      pop\n        /* \".git/MyContracts/KenyaProcurementTransparency0.sol\":9410:9999  function registerBidder(address _bidder, string memory _description)... */\n      pop\n      pop\n      jump\t// out\n        /* \".git/MyContracts/KenyaProcurementTransparency0.sol\":10529:10727  function getPackedHash(uint256 _amount, string memory _secret)... */\n    tag_94:\n        /* \".git/MyContracts/KenyaProcurementTransparency0.sol\":10642:10649  bytes32 */\n      0x00\n        /* \".git/MyContracts/KenyaProcurementTransparency0.sol\":10701:10708  _amount */\n      dup3\n        /* \".git/MyContracts/KenyaProcurementTransparency0.sol\":10710:10717  _secret */\n      dup3\n        /* \".git/MyContracts/KenyaProcurementTransparency0.sol\":10684:10718  abi.encodePacked(_amount, _secret) */\n      add(0x20, mload(0x40))\n      tag_304\n      swap3\n      swap2\n      swap1\n      tag_266\n      jump\t// in\n    tag_304:\n      mload(0x40)\n      0x20\n      dup2\n      dup4\n      sub\n      sub\n      dup2\n      mstore\n      swap1\n      0x40\n      mstore\n        /* \".git/MyContracts/KenyaProcurementTransparency0.sol\":10674:10719  keccak256(abi.encodePacked(_amount, _secret)) */\n      dup1\n      mload\n      swap1\n      0x20\n      add\n      keccak256\n        /* \".git/MyContracts/KenyaProcurementTransparency0.sol\":10667:10719  return keccak256(abi.encodePacked(_amount, _secret)) */\n      swap1\n      pop\n        /* \".git/MyContracts/KenyaProcurementTransparency0.sol\":10529:10727  function getPackedHash(uint256 _amount, string memory _secret)... */\n    tag_303:\n      swap3\n      swap2\n      pop\n      pop\n      jump\t// out\n        /* \".git/MyContracts/KenyaProcurementTransparency0.sol\":15963:16326  function rejectDelivery(string memory _reason)... */\n    tag_100:\n        /* \".git/MyContracts/KenyaProcurementTransparency0.sol\":3878:3887  inspector */\n      and(sub(shl(0xa0, 0x01), 0x01), sload(0x02))\n        /* \".git/MyContracts/KenyaProcurementTransparency0.sol\":3874:3932  if (inspector == address(0)) revert InspectorNotAssigned() */\n      tag_306\n      jumpi\n        /* \".git/MyContracts/KenyaProcurementTransparency0.sol\":3910:3932  InspectorNotAssigned() */\n      mload(0x40)\n      shl(0xe0, 0xd6ea3663)\n      dup2\n      mstore\n      0x04\n      add\n      mload(0x40)\n      dup1\n      swap2\n      sub\n      swap1\n      revert\n        /* \".git/MyContracts/KenyaProcurementTransparency0.sol\":3874:3932  if (inspector == address(0)) revert InspectorNotAssigned() */\n    tag_306:\n        /* \".git/MyContracts/KenyaProcurementTransparency0.sol\":3961:3970  inspector */\n      and(sub(shl(0xa0, 0x01), 0x01), sload(0x02))\n        /* \".git/MyContracts/KenyaProcurementTransparency0.sol\":3947:3957  msg.sender */\n      caller\n        /* \".git/MyContracts/KenyaProcurementTransparency0.sol\":3947:3970  msg.sender != inspector */\n      eq\n        /* \".git/MyContracts/KenyaProcurementTransparency0.sol\":3943:3994  if (msg.sender != inspector) revert OnlyInspector() */\n      tag_307\n      jumpi\n        /* \".git/MyContracts/KenyaProcurementTransparency0.sol\":3979:3994  OnlyInspector() */\n      mload(0x40)\n      shl(0xe0, 0x9864fbb3)\n      dup2\n      mstore\n      0x04\n      add\n      mload(0x40)\n      dup1\n      swap2\n      sub\n      swap1\n      revert\n        /* \".git/MyContracts/KenyaProcurementTransparency0.sol\":3943:3994  if (msg.sender != inspector) revert OnlyInspector() */\n    tag_307:\n        /* \".git/MyContracts/KenyaProcurementTransparency0.sol\":4328:4341  tender.exists */\n      and(0xff, sload(0x09))\n        /* \".git/MyContracts/KenyaProcurementTransparency0.sol\":4323:4370  if (!tender.exists) revert TenderDoesNotExist() */\n      tag_309\n      jumpi\n        /* \".git/MyContracts/KenyaProcurementTransparency0.sol\":4350:4370  TenderDoesNotExist() */\n      mload(0x40)\n      shl(0xe1, 0x55e9e641)\n      dup2\n      mstore\n      0x04\n      add\n      mload(0x40)\n      dup1\n      swap2\n      sub\n      swap1\n      revert\n        /* \".git/MyContracts/KenyaProcurementTransparency0.sol\":4323:4370  if (!tender.exists) revert TenderDoesNotExist() */\n    tag_309:\n        /* \".git/MyContracts/KenyaProcurementTransparency0.sol\":16091:16113  TenderStatus.Delivered */\n      0x04\n      dup1\n        /* \".git/MyContracts/KenyaProcurementTransparency0.sol\":5058:5064  status */\n      sload(0x02)\n      shl(0xa0, 0x01)\n      swap1\n      div\n      0xff\n      and\n        /* \".git/MyContracts/KenyaProcurementTransparency0.sol\":5058:5075  status != _status */\n      0x07\n      dup2\n      gt\n      iszero\n      tag_314\n      jumpi\n      tag_314\n      tag_221\n      jump\t// in\n    tag_314:\n      eq\n        /* \".git/MyContracts/KenyaProcurementTransparency0.sol\":5054:5104  if (status != _status) revert InvalidTenderStage() */\n      tag_315\n      jumpi\n        /* \".git/MyContracts/KenyaProcurementTransparency0.sol\":5084:5104  InvalidTenderStage() */\n      mload(0x40)\n      shl(0xe6, 0x0187fa83)\n      dup2\n      mstore\n      0x04\n      add\n      mload(0x40)\n      dup1\n      swap2\n      sub\n      swap1\n      revert\n        /* \".git/MyContracts/KenyaProcurementTransparency0.sol\":5054:5104  if (status != _status) revert InvalidTenderStage() */\n    tag_315:\n        /* \".git/MyContracts/KenyaProcurementTransparency0.sol\":16163:16164  0 */\n      0x00\n        /* \".git/MyContracts/KenyaProcurementTransparency0.sol\":16145:16152  _reason */\n      dup3\n        /* \".git/MyContracts/KenyaProcurementTransparency0.sol\":16139:16160  bytes(_reason).length */\n      mload\n        /* \".git/MyContracts/KenyaProcurementTransparency0.sol\":16139:16164  bytes(_reason).length > 0 */\n      gt\n        /* \".git/MyContracts/KenyaProcurementTransparency0.sol\":16131:16184  require(bytes(_reason).length > 0, \"Reason required\") */\n      tag_317\n      jumpi\n      mload(0x40)\n      shl(0xe5, 0x461bcd)\n      dup2\n      mstore\n        /* \"#utility.yul\":18228:18230   */\n      0x20\n        /* \".git/MyContracts/KenyaProcurementTransparency0.sol\":16131:16184  require(bytes(_reason).length > 0, \"Reason required\") */\n      0x04\n      dup3\n      add\n        /* \"#utility.yul\":18210:18231   */\n      mstore\n        /* \"#utility.yul\":18267:18269   */\n      0x0f\n        /* \"#utility.yul\":18247:18265   */\n      0x24\n      dup3\n      add\n        /* \"#utility.yul\":18240:18270   */\n      mstore\n      shl(0x8a, 0x1499585cdbdb881c995c5d5a5c9959)\n        /* \"#utility.yul\":18286:18304   */\n      0x44\n      dup3\n      add\n        /* \"#utility.yul\":18279:18324   */\n      mstore\n        /* \"#utility.yul\":18341:18359   */\n      0x64\n      add\n        /* \".git/MyContracts/KenyaProcurementTransparency0.sol\":16131:16184  require(bytes(_reason).length > 0, \"Reason required\") */\n      tag_227\n        /* \"#utility.yul\":18026:18365   */\n      jump\n        /* \".git/MyContracts/KenyaProcurementTransparency0.sol\":16131:16184  require(bytes(_reason).length > 0, \"Reason required\") */\n    tag_317:\n        /* \".git/MyContracts/KenyaProcurementTransparency0.sol\":16197:16212  rejectionReason */\n      0x12\n        /* \".git/MyContracts/KenyaProcurementTransparency0.sol\":16197:16222  rejectionReason = _reason */\n      tag_320\n        /* \".git/MyContracts/KenyaProcurementTransparency0.sol\":16215:16222  _reason */\n      dup4\n        /* \".git/MyContracts/KenyaProcurementTransparency0.sol\":16197:16212  rejectionReason */\n      dup3\n        /* \".git/MyContracts/KenyaProcurementTransparency0.sol\":16197:16222  rejectionReason = _reason */\n      tag_299\n      jump\t// in\n    tag_320:\n      pop\n        /* \".git/MyContracts/KenyaProcurementTransparency0.sol\":16233:16239  status */\n      0x02\n        /* \".git/MyContracts/KenyaProcurementTransparency0.sol\":16233:16263  status = TenderStatus.Rejected */\n      dup1\n      sload\n      not(shl(0xa0, 0xff))\n      and\n      shl(0xa0, 0x05)\n      or\n      swap1\n      sstore\n        /* \".git/MyContracts/KenyaProcurementTransparency0.sol\":16281:16318  DeliveryRejected(msg.sender, _reason) */\n      mload(0x40)\n      0x52fca0fcdda16f4a5f819b60bb9c2f99458433351b90e6fcb3e221fe03b10280\n      swap1\n      tag_231\n      swap1\n        /* \".git/MyContracts/KenyaProcurementTransparency0.sol\":16298:16308  msg.sender */\n      caller\n      swap1\n        /* \".git/MyContracts/KenyaProcurementTransparency0.sol\":16310:16317  _reason */\n      dup6\n      swap1\n        /* \".git/MyContracts/KenyaProcurementTransparency0.sol\":16281:16318  DeliveryRejected(msg.sender, _reason) */\n      tag_302\n      jump\t// in\n        /* \".git/MyContracts/KenyaProcurementTransparency0.sol\":7914:8378  function setInspector(address _inspector) external onlyAdmin tenderExists {... */\n    tag_104:\n        /* \".git/MyContracts/KenyaProcurementTransparency0.sol\":3715:3720  admin */\n      and(sub(shl(0xa0, 0x01), 0x01), sload(0x00))\n        /* \".git/MyContracts/KenyaProcurementTransparency0.sol\":3701:3711  msg.sender */\n      caller\n        /* \".git/MyContracts/KenyaProcurementTransparency0.sol\":3701:3720  msg.sender != admin */\n      eq\n        /* \".git/MyContracts/KenyaProcurementTransparency0.sol\":3697:3740  if (msg.sender != admin) revert OnlyAdmin() */\n      tag_325\n      jumpi\n        /* \".git/MyContracts/KenyaProcurementTransparency0.sol\":3729:3740  OnlyAdmin() */\n      mload(0x40)\n      shl(0xe0, 0x47556579)\n      dup2\n      mstore\n      0x04\n      add\n      mload(0x40)\n      dup1\n      swap2\n      sub\n      swap1\n      revert\n        /* \".git/MyContracts/KenyaProcurementTransparency0.sol\":3697:3740  if (msg.sender != admin) revert OnlyAdmin() */\n    tag_325:\n        /* \".git/MyContracts/KenyaProcurementTransparency0.sol\":4328:4341  tender.exists */\n      and(0xff, sload(0x09))\n        /* \".git/MyContracts/KenyaProcurementTransparency0.sol\":4323:4370  if (!tender.exists) revert TenderDoesNotExist() */\n      tag_327\n      jumpi\n        /* \".git/MyContracts/KenyaProcurementTransparency0.sol\":4350:4370  TenderDoesNotExist() */\n      mload(0x40)\n      shl(0xe1, 0x55e9e641)\n      dup2\n      mstore\n      0x04\n      add\n      mload(0x40)\n      dup1\n      swap2\n      sub\n      swap1\n      revert\n        /* \".git/MyContracts/KenyaProcurementTransparency0.sol\":4323:4370  if (!tender.exists) revert TenderDoesNotExist() */\n    tag_327:\n      sub(shl(0xa0, 0x01), 0x01)\n        /* \".git/MyContracts/KenyaProcurementTransparency0.sol\":8007:8031  _inspector != address(0) */\n      dup2\n      and\n        /* \".git/MyContracts/KenyaProcurementTransparency0.sol\":7999:8061  require(_inspector != address(0), \"Invalid inspector address\") */\n      tag_329\n      jumpi\n      mload(0x40)\n      shl(0xe5, 0x461bcd)\n      dup2\n      mstore\n        /* \"#utility.yul\":18572:18574   */\n      0x20\n        /* \".git/MyContracts/KenyaProcurementTransparency0.sol\":7999:8061  require(_inspector != address(0), \"Invalid inspector address\") */\n      0x04\n      dup3\n      add\n        /* \"#utility.yul\":18554:18575   */\n      mstore\n        /* \"#utility.yul\":18611:18613   */\n      0x19\n        /* \"#utility.yul\":18591:18609   */\n      0x24\n      dup3\n      add\n        /* \"#utility.yul\":18584:18614   */\n      mstore\n        /* \"#utility.yul\":18650:18677   */\n      0x496e76616c696420696e73706563746f72206164647265737300000000000000\n        /* \"#utility.yul\":18630:18648   */\n      0x44\n      dup3\n      add\n        /* \"#utility.yul\":18623:18678   */\n      mstore\n        /* \"#utility.yul\":18695:18713   */\n      0x64\n      add\n        /* \".git/MyContracts/KenyaProcurementTransparency0.sol\":7999:8061  require(_inspector != address(0), \"Invalid inspector address\") */\n      tag_227\n        /* \"#utility.yul\":18370:18719   */\n      jump\n        /* \".git/MyContracts/KenyaProcurementTransparency0.sol\":7999:8061  require(_inspector != address(0), \"Invalid inspector address\") */\n    tag_329:\n        /* \".git/MyContracts/KenyaProcurementTransparency0.sol\":8104:8125  TenderStatus.Accepted */\n      0x06\n        /* \".git/MyContracts/KenyaProcurementTransparency0.sol\":8094:8100  status */\n      sload(0x02)\n      shl(0xa0, 0x01)\n      swap1\n      div\n      0xff\n      and\n        /* \".git/MyContracts/KenyaProcurementTransparency0.sol\":8094:8125  status != TenderStatus.Accepted */\n      0x07\n      dup2\n      gt\n      iszero\n      tag_335\n      jumpi\n      tag_335\n      tag_221\n      jump\t// in\n    tag_335:\n      eq\n      iszero\n        /* \".git/MyContracts/KenyaProcurementTransparency0.sol\":8094:8177  status != TenderStatus.Accepted &&... */\n      dup1\n      iszero\n      tag_336\n      jumpi\n      pop\n        /* \".git/MyContracts/KenyaProcurementTransparency0.sol\":8156:8177  TenderStatus.Rejected */\n      0x05\n        /* \".git/MyContracts/KenyaProcurementTransparency0.sol\":8146:8152  status */\n      sload(0x02)\n      shl(0xa0, 0x01)\n      swap1\n      div\n      0xff\n      and\n        /* \".git/MyContracts/KenyaProcurementTransparency0.sol\":8146:8177  status != TenderStatus.Rejected */\n      0x07\n      dup2\n      gt\n      iszero\n      tag_340\n      jumpi\n      tag_340\n      tag_221\n      jump\t// in\n    tag_340:\n      eq\n      iszero\n        /* \".git/MyContracts/KenyaProcurementTransparency0.sol\":8094:8177  status != TenderStatus.Accepted &&... */\n    tag_336:\n        /* \".git/MyContracts/KenyaProcurementTransparency0.sol\":8094:8225  status != TenderStatus.Accepted &&... */\n      dup1\n      iszero\n      tag_341\n      jumpi\n      pop\n        /* \".git/MyContracts/KenyaProcurementTransparency0.sol\":8208:8225  TenderStatus.Paid */\n      0x07\n        /* \".git/MyContracts/KenyaProcurementTransparency0.sol\":8198:8204  status */\n      sload(0x02)\n      shl(0xa0, 0x01)\n      swap1\n      div\n      0xff\n      and\n        /* \".git/MyContracts/KenyaProcurementTransparency0.sol\":8198:8225  status != TenderStatus.Paid */\n      0x07\n      dup2\n      gt\n      iszero\n      tag_345\n      jumpi\n      tag_345\n      tag_221\n      jump\t// in\n    tag_345:\n      eq\n      iszero\n        /* \".git/MyContracts/KenyaProcurementTransparency0.sol\":8094:8225  status != TenderStatus.Accepted &&... */\n    tag_341:\n        /* \".git/MyContracts/KenyaProcurementTransparency0.sol\":8072:8290  require(... */\n      tag_346\n      jumpi\n      mload(0x40)\n      shl(0xe5, 0x461bcd)\n      dup2\n      mstore\n        /* \"#utility.yul\":18926:18928   */\n      0x20\n        /* \".git/MyContracts/KenyaProcurementTransparency0.sol\":8072:8290  require(... */\n      0x04\n      dup3\n      add\n        /* \"#utility.yul\":18908:18929   */\n      mstore\n        /* \"#utility.yul\":18965:18967   */\n      0x25\n        /* \"#utility.yul\":18945:18963   */\n      0x24\n      dup3\n      add\n        /* \"#utility.yul\":18938:18968   */\n      mstore\n        /* \"#utility.yul\":19004:19038   */\n      0x43616e6e6f74206368616e676520696e73706563746f72206174207468697320\n        /* \"#utility.yul\":18984:19002   */\n      0x44\n      dup3\n      add\n        /* \"#utility.yul\":18977:19039   */\n      mstore\n      shl(0xd8, 0x7374616765)\n        /* \"#utility.yul\":19055:19073   */\n      0x64\n      dup3\n      add\n        /* \"#utility.yul\":19048:19083   */\n      mstore\n        /* \"#utility.yul\":19100:19119   */\n      0x84\n      add\n        /* \".git/MyContracts/KenyaProcurementTransparency0.sol\":8072:8290  require(... */\n      tag_227\n        /* \"#utility.yul\":18724:19125   */\n      jump\n        /* \".git/MyContracts/KenyaProcurementTransparency0.sol\":8072:8290  require(... */\n    tag_346:\n        /* \".git/MyContracts/KenyaProcurementTransparency0.sol\":8303:8312  inspector */\n      0x02\n        /* \".git/MyContracts/KenyaProcurementTransparency0.sol\":8303:8325  inspector = _inspector */\n      dup1\n      sload\n      not(sub(shl(0xa0, 0x01), 0x01))\n      and\n      sub(shl(0xa0, 0x01), 0x01)\n      dup4\n      and\n      swap1\n      dup2\n      or\n      swap1\n      swap2\n      sstore\n        /* \".git/MyContracts/KenyaProcurementTransparency0.sol\":8341:8370  InspectorAssigned(_inspector) */\n      mload(0x40)\n        /* \"#utility.yul\":2243:2294   */\n      swap1\n      dup2\n      mstore\n        /* \".git/MyContracts/KenyaProcurementTransparency0.sol\":8341:8370  InspectorAssigned(_inspector) */\n      0xc7b11d63d071f03c4b488a3a44ee58c8a449f16b0ee289dd25af95c15c9f8e3a\n      swap1\n        /* \"#utility.yul\":2231:2233   */\n      0x20\n        /* \"#utility.yul\":2216:2234   */\n      add\n        /* \".git/MyContracts/KenyaProcurementTransparency0.sol\":8341:8370  InspectorAssigned(_inspector) */\n    tag_349:\n      mload(0x40)\n      dup1\n      swap2\n      sub\n      swap1\n      log1\n        /* \".git/MyContracts/KenyaProcurementTransparency0.sol\":7914:8378  function setInspector(address _inspector) external onlyAdmin tenderExists {... */\n      pop\n      jump\t// out\n        /* \".git/MyContracts/KenyaProcurementTransparency0.sol\":10951:11539  function submitSealedBid(bytes32 _sealedBidHash)... */\n    tag_108:\n        /* \".git/MyContracts/KenyaProcurementTransparency0.sol\":4328:4341  tender.exists */\n      and(0xff, sload(0x09))\n        /* \".git/MyContracts/KenyaProcurementTransparency0.sol\":4323:4370  if (!tender.exists) revert TenderDoesNotExist() */\n      tag_351\n      jumpi\n        /* \".git/MyContracts/KenyaProcurementTransparency0.sol\":4350:4370  TenderDoesNotExist() */\n      mload(0x40)\n      shl(0xe1, 0x55e9e641)\n      dup2\n      mstore\n      0x04\n      add\n      mload(0x40)\n      dup1\n      swap2\n      sub\n      swap1\n      revert\n        /* \".git/MyContracts/KenyaProcurementTransparency0.sol\":4323:4370  if (!tender.exists) revert TenderDoesNotExist() */\n    tag_351:\n        /* \".git/MyContracts/KenyaProcurementTransparency0.sol\":4159:4169  msg.sender */\n      caller\n        /* \".git/MyContracts/KenyaProcurementTransparency0.sol\":4141:4170  registeredBidders[msg.sender] */\n      0x00\n      swap1\n      dup2\n      mstore\n        /* \".git/MyContracts/KenyaProcurementTransparency0.sol\":4141:4158  registeredBidders */\n      0x0a\n        /* \".git/MyContracts/KenyaProcurementTransparency0.sol\":4141:4170  registeredBidders[msg.sender] */\n      0x20\n      mstore\n      0x40\n      swap1\n      keccak256\n      sload\n      0xff\n      and\n        /* \".git/MyContracts/KenyaProcurementTransparency0.sol\":4136:4200  if (!registeredBidders[msg.sender]) revert NotRegisteredBidder() */\n      tag_353\n      jumpi\n        /* \".git/MyContracts/KenyaProcurementTransparency0.sol\":4179:4200  NotRegisteredBidder() */\n      mload(0x40)\n      shl(0xe5, 0x02f9ce37)\n      dup2\n      mstore\n      0x04\n      add\n      mload(0x40)\n      dup1\n      swap2\n      sub\n      swap1\n      revert\n        /* \".git/MyContracts/KenyaProcurementTransparency0.sol\":4136:4200  if (!registeredBidders[msg.sender]) revert NotRegisteredBidder() */\n    tag_353:\n        /* \".git/MyContracts/KenyaProcurementTransparency0.sol\":4543:4568  tender.submissionDeadline */\n      sload(0x06)\n        /* \".git/MyContracts/KenyaProcurementTransparency0.sol\":4524:4539  block.timestamp */\n      timestamp\n        /* \".git/MyContracts/KenyaProcurementTransparency0.sol\":4524:4568  block.timestamp >= tender.submissionDeadline */\n      lt\n        /* \".git/MyContracts/KenyaProcurementTransparency0.sol\":4520:4603  if (block.timestamp >= tender.submissionDeadline) revert SubmissionDeadlinePassed() */\n      tag_355\n      jumpi\n        /* \".git/MyContracts/KenyaProcurementTransparency0.sol\":4577:4603  SubmissionDeadlinePassed() */\n      mload(0x40)\n      shl(0xe1, 0x764b8e33)\n      dup2\n      mstore\n      0x04\n      add\n      mload(0x40)\n      dup1\n      swap2\n      sub\n      swap1\n      revert\n        /* \".git/MyContracts/KenyaProcurementTransparency0.sol\":4520:4603  if (block.timestamp >= tender.submissionDeadline) revert SubmissionDeadlinePassed() */\n    tag_355:\n        /* \".git/MyContracts/KenyaProcurementTransparency0.sol\":11112:11132  TenderStatus.Created */\n      0x00\n      dup1\n        /* \".git/MyContracts/KenyaProcurementTransparency0.sol\":5058:5064  status */\n      sload(0x02)\n      shl(0xa0, 0x01)\n      swap1\n      div\n      0xff\n      and\n        /* \".git/MyContracts/KenyaProcurementTransparency0.sol\":5058:5075  status != _status */\n      0x07\n      dup2\n      gt\n      iszero\n      tag_360\n      jumpi\n      tag_360\n      tag_221\n      jump\t// in\n    tag_360:\n      eq\n        /* \".git/MyContracts/KenyaProcurementTransparency0.sol\":5054:5104  if (status != _status) revert InvalidTenderStage() */\n      tag_361\n      jumpi\n        /* \".git/MyContracts/KenyaProcurementTransparency0.sol\":5084:5104  InvalidTenderStage() */\n      mload(0x40)\n      shl(0xe6, 0x0187fa83)\n      dup2\n      mstore\n      0x04\n      add\n      mload(0x40)\n      dup1\n      swap2\n      sub\n      swap1\n      revert\n        /* \".git/MyContracts/KenyaProcurementTransparency0.sol\":5054:5104  if (status != _status) revert InvalidTenderStage() */\n    tag_361:\n        /* \".git/MyContracts/KenyaProcurementTransparency0.sol\":11164:11174  msg.sender */\n      caller\n        /* \".git/MyContracts/KenyaProcurementTransparency0.sol\":11159:11175  bids[msg.sender] */\n      0x00\n      swap1\n      dup2\n      mstore\n        /* \".git/MyContracts/KenyaProcurementTransparency0.sol\":11159:11163  bids */\n      0x0c\n        /* \".git/MyContracts/KenyaProcurementTransparency0.sol\":11159:11175  bids[msg.sender] */\n      0x20\n      mstore\n      0x40\n      swap1\n      keccak256\n        /* \".git/MyContracts/KenyaProcurementTransparency0.sol\":11159:11185  bids[msg.sender].submitted */\n      0x01\n      add\n      sload\n      0xff\n      and\n        /* \".git/MyContracts/KenyaProcurementTransparency0.sol\":11158:11185  !bids[msg.sender].submitted */\n      iszero\n        /* \".git/MyContracts/KenyaProcurementTransparency0.sol\":11150:11211  require(!bids[msg.sender].submitted, \"Bid already submitted\") */\n      tag_363\n      jumpi\n      mload(0x40)\n      shl(0xe5, 0x461bcd)\n      dup2\n      mstore\n        /* \"#utility.yul\":19332:19334   */\n      0x20\n        /* \".git/MyContracts/KenyaProcurementTransparency0.sol\":11150:11211  require(!bids[msg.sender].submitted, \"Bid already submitted\") */\n      0x04\n      dup3\n      add\n        /* \"#utility.yul\":19314:19335   */\n      mstore\n        /* \"#utility.yul\":19371:19373   */\n      0x15\n        /* \"#utility.yul\":19351:19369   */\n      0x24\n      dup3\n      add\n        /* \"#utility.yul\":19344:19374   */\n      mstore\n      shl(0x5a, 0x109a5908185b1c9958591e481cdd589b5a5d1d1959)\n        /* \"#utility.yul\":19390:19408   */\n      0x44\n      dup3\n      add\n        /* \"#utility.yul\":19383:19434   */\n      mstore\n        /* \"#utility.yul\":19451:19469   */\n      0x64\n      add\n        /* \".git/MyContracts/KenyaProcurementTransparency0.sol\":11150:11211  require(!bids[msg.sender].submitted, \"Bid already submitted\") */\n      tag_227\n        /* \"#utility.yul\":19130:19475   */\n      jump\n        /* \".git/MyContracts/KenyaProcurementTransparency0.sol\":11150:11211  require(!bids[msg.sender].submitted, \"Bid already submitted\") */\n    tag_363:\n        /* \".git/MyContracts/KenyaProcurementTransparency0.sol\":11230:11244  _sealedBidHash */\n      dup2\n        /* \".git/MyContracts/KenyaProcurementTransparency0.sol\":11222:11286  require(_sealedBidHash != bytes32(0), \"Invalid sealed bid hash\") */\n      tag_366\n      jumpi\n      mload(0x40)\n      shl(0xe5, 0x461bcd)\n      dup2\n      mstore\n        /* \"#utility.yul\":19682:19684   */\n      0x20\n        /* \".git/MyContracts/KenyaProcurementTransparency0.sol\":11222:11286  require(_sealedBidHash != bytes32(0), \"Invalid sealed bid hash\") */\n      0x04\n      dup3\n      add\n        /* \"#utility.yul\":19664:19685   */\n      mstore\n        /* \"#utility.yul\":19721:19723   */\n      0x17\n        /* \"#utility.yul\":19701:19719   */\n      0x24\n      dup3\n      add\n        /* \"#utility.yul\":19694:19724   */\n      mstore\n        /* \"#utility.yul\":19760:19785   */\n      0x496e76616c6964207365616c6564206269642068617368000000000000000000\n        /* \"#utility.yul\":19740:19758   */\n      0x44\n      dup3\n      add\n        /* \"#utility.yul\":19733:19786   */\n      mstore\n        /* \"#utility.yul\":19803:19821   */\n      0x64\n      add\n        /* \".git/MyContracts/KenyaProcurementTransparency0.sol\":11222:11286  require(_sealedBidHash != bytes32(0), \"Invalid sealed bid hash\") */\n      tag_227\n        /* \"#utility.yul\":19480:19827   */\n      jump\n        /* \".git/MyContracts/KenyaProcurementTransparency0.sol\":11222:11286  require(_sealedBidHash != bytes32(0), \"Invalid sealed bid hash\") */\n    tag_366:\n        /* \".git/MyContracts/KenyaProcurementTransparency0.sol\":11318:11489  Bid({... */\n      0x40\n      dup1\n      mload\n      0xa0\n      dup2\n      add\n      dup3\n      mstore\n      dup4\n      dup2\n      mstore\n        /* \".git/MyContracts/KenyaProcurementTransparency0.sol\":11392:11396  true */\n      0x01\n        /* \".git/MyContracts/KenyaProcurementTransparency0.sol\":11318:11489  Bid({... */\n      0x20\n      dup1\n      dup4\n      add\n      dup3\n      dup2\n      mstore\n      0x00\n      dup5\n      dup7\n      add\n      dup2\n      dup2\n      mstore\n      0x60\n      dup7\n      add\n      dup3\n      dup2\n      mstore\n      0x80\n      dup8\n      add\n      dup4\n      dup2\n      mstore\n        /* \".git/MyContracts/KenyaProcurementTransparency0.sol\":11304:11314  msg.sender */\n      caller\n        /* \".git/MyContracts/KenyaProcurementTransparency0.sol\":11299:11315  bids[msg.sender] */\n      dup1\n      dup6\n      mstore\n        /* \".git/MyContracts/KenyaProcurementTransparency0.sol\":11299:11303  bids */\n      0x0c\n        /* \".git/MyContracts/KenyaProcurementTransparency0.sol\":11299:11315  bids[msg.sender] */\n      dup8\n      mstore\n      swap4\n      dup10\n      swap1\n      keccak256\n        /* \".git/MyContracts/KenyaProcurementTransparency0.sol\":11299:11489  bids[msg.sender] = Bid({... */\n      swap8\n      mload\n      dup9\n      sstore\n      swap4\n      mload\n      swap6\n      dup8\n      add\n      dup1\n      sload\n      swap3\n      mload\n      not(0xffff)\n      swap1\n      swap4\n      and\n      swap7\n      iszero\n      iszero\n      not(0xff00)\n      and\n      swap7\n      swap1\n      swap7\n      or\n      0x0100\n      swap3\n      iszero\n      iszero\n      swap3\n      swap1\n      swap3\n      mul\n      swap2\n      swap1\n      swap2\n      or\n      swap1\n      swap5\n      sstore\n      swap3\n      mload\n      0x02\n      dup6\n      add\n      sstore\n      mload\n      0x03\n      swap1\n      swap4\n      add\n      dup1\n      sload\n      not(0xff)\n      and\n      swap4\n      iszero\n      iszero\n      swap4\n      swap1\n      swap4\n      or\n      swap1\n      swap3\n      sstore\n        /* \".git/MyContracts/KenyaProcurementTransparency0.sol\":11507:11531  BidSubmitted(msg.sender) */\n      swap2\n      mload\n        /* \"#utility.yul\":2243:2294   */\n      swap2\n      dup3\n      mstore\n        /* \".git/MyContracts/KenyaProcurementTransparency0.sol\":11507:11531  BidSubmitted(msg.sender) */\n      0x88c5a0d081e0c7a69b5817581ffa85b19d71703bc581bb5c09fa253c527a055e\n      swap2\n        /* \"#utility.yul\":2216:2234   */\n      add\n        /* \".git/MyContracts/KenyaProcurementTransparency0.sol\":11507:11531  BidSubmitted(msg.sender) */\n      tag_231\n        /* \"#utility.yul\":2097:2300   */\n      jump\n        /* \".git/MyContracts/KenyaProcurementTransparency0.sol\":13091:13973  function evaluateTender()... */\n    tag_111:\n        /* \".git/MyContracts/KenyaProcurementTransparency0.sol\":3715:3720  admin */\n      and(sub(shl(0xa0, 0x01), 0x01), sload(0x00))\n        /* \".git/MyContracts/KenyaProcurementTransparency0.sol\":3701:3711  msg.sender */\n      caller\n        /* \".git/MyContracts/KenyaProcurementTransparency0.sol\":3701:3720  msg.sender != admin */\n      eq\n        /* \".git/MyContracts/KenyaProcurementTransparency0.sol\":3697:3740  if (msg.sender != admin) revert OnlyAdmin() */\n      tag_371\n      jumpi\n        /* \".git/MyContracts/KenyaProcurementTransparency0.sol\":3729:3740  OnlyAdmin() */\n      mload(0x40)\n      shl(0xe0, 0x47556579)\n      dup2\n      mstore\n      0x04\n      add\n      mload(0x40)\n      dup1\n      swap2\n      sub\n      swap1\n      revert\n        /* \".git/MyContracts/KenyaProcurementTransparency0.sol\":3697:3740  if (msg.sender != admin) revert OnlyAdmin() */\n    tag_371:\n        /* \".git/MyContracts/KenyaProcurementTransparency0.sol\":4328:4341  tender.exists */\n      and(0xff, sload(0x09))\n        /* \".git/MyContracts/KenyaProcurementTransparency0.sol\":4323:4370  if (!tender.exists) revert TenderDoesNotExist() */\n      tag_373\n      jumpi\n        /* \".git/MyContracts/KenyaProcurementTransparency0.sol\":4350:4370  TenderDoesNotExist() */\n      mload(0x40)\n      shl(0xe1, 0x55e9e641)\n      dup2\n      mstore\n      0x04\n      add\n      mload(0x40)\n      dup1\n      swap2\n      sub\n      swap1\n      revert\n        /* \".git/MyContracts/KenyaProcurementTransparency0.sol\":4323:4370  if (!tender.exists) revert TenderDoesNotExist() */\n    tag_373:\n        /* \".git/MyContracts/KenyaProcurementTransparency0.sol\":13194:13217  TenderStatus.RevealOpen */\n      0x01\n      dup1\n        /* \".git/MyContracts/KenyaProcurementTransparency0.sol\":5058:5064  status */\n      sload(0x02)\n      shl(0xa0, 0x01)\n      swap1\n      div\n      0xff\n      and\n        /* \".git/MyContracts/KenyaProcurementTransparency0.sol\":5058:5075  status != _status */\n      0x07\n      dup2\n      gt\n      iszero\n      tag_378\n      jumpi\n      tag_378\n      tag_221\n      jump\t// in\n    tag_378:\n      eq\n        /* \".git/MyContracts/KenyaProcurementTransparency0.sol\":5054:5104  if (status != _status) revert InvalidTenderStage() */\n      tag_379\n      jumpi\n        /* \".git/MyContracts/KenyaProcurementTransparency0.sol\":5084:5104  InvalidTenderStage() */\n      mload(0x40)\n      shl(0xe6, 0x0187fa83)\n      dup2\n      mstore\n      0x04\n      add\n      mload(0x40)\n      dup1\n      swap2\n      sub\n      swap1\n      revert\n        /* \".git/MyContracts/KenyaProcurementTransparency0.sol\":5054:5104  if (status != _status) revert InvalidTenderStage() */\n    tag_379:\n        /* \".git/MyContracts/KenyaProcurementTransparency0.sol\":13235:13253  address bestBidder */\n      0x00\n      not(0x00)\n      dup2\n        /* \".git/MyContracts/KenyaProcurementTransparency0.sol\":13328:13730  for (uint256 i = 0; i < bidderList.length; i++) {... */\n    tag_381:\n        /* \".git/MyContracts/KenyaProcurementTransparency0.sol\":13352:13362  bidderList */\n      0x0d\n        /* \".git/MyContracts/KenyaProcurementTransparency0.sol\":13352:13369  bidderList.length */\n      sload\n        /* \".git/MyContracts/KenyaProcurementTransparency0.sol\":13348:13369  i < bidderList.length */\n      dup2\n      lt\n        /* \".git/MyContracts/KenyaProcurementTransparency0.sol\":13328:13730  for (uint256 i = 0; i < bidderList.length; i++) {... */\n      iszero\n      tag_382\n      jumpi\n        /* \".git/MyContracts/KenyaProcurementTransparency0.sol\":13391:13405  address bidder */\n      0x00\n        /* \".git/MyContracts/KenyaProcurementTransparency0.sol\":13408:13418  bidderList */\n      0x0d\n        /* \".git/MyContracts/KenyaProcurementTransparency0.sol\":13419:13420  i */\n      dup3\n        /* \".git/MyContracts/KenyaProcurementTransparency0.sol\":13408:13421  bidderList[i] */\n      dup2\n      sload\n      dup2\n      lt\n      tag_385\n      jumpi\n      tag_385\n      tag_386\n      jump\t// in\n    tag_385:\n      0x00\n      swap2\n      dup3\n      mstore\n      0x20\n      dup1\n      dup4\n      keccak256\n      swap1\n      swap2\n      add\n      sload\n      sub(shl(0xa0, 0x01), 0x01)\n      and\n        /* \".git/MyContracts/KenyaProcurementTransparency0.sol\":13460:13472  bids[bidder] */\n      dup1\n      dup4\n      mstore\n        /* \".git/MyContracts/KenyaProcurementTransparency0.sol\":13460:13464  bids */\n      0x0c\n        /* \".git/MyContracts/KenyaProcurementTransparency0.sol\":13460:13472  bids[bidder] */\n      dup3\n      mstore\n      0x40\n      swap3\n      dup4\n      swap1\n      keccak256\n        /* \".git/MyContracts/KenyaProcurementTransparency0.sol\":13436:13472  Bid memory currentBid = bids[bidder] */\n      dup4\n      mload\n      0xa0\n      dup2\n      add\n      dup6\n      mstore\n      dup2\n      sload\n      dup2\n      mstore\n        /* \".git/MyContracts/KenyaProcurementTransparency0.sol\":13408:13421  bidderList[i] */\n      0x01\n        /* \".git/MyContracts/KenyaProcurementTransparency0.sol\":13436:13472  Bid memory currentBid = bids[bidder] */\n      dup3\n      add\n      sload\n      0xff\n      dup1\n      dup3\n      and\n      iszero\n      iszero\n      swap6\n      dup4\n      add\n      swap6\n      swap1\n      swap6\n      mstore\n        /* \".git/MyContracts/KenyaProcurementTransparency0.sol\":13408:13421  bidderList[i] */\n      0x0100\n        /* \".git/MyContracts/KenyaProcurementTransparency0.sol\":13436:13472  Bid memory currentBid = bids[bidder] */\n      swap1\n      div\n      dup5\n      and\n      iszero\n      iszero\n      swap5\n      dup2\n      add\n      swap5\n      swap1\n      swap5\n      mstore\n      0x02\n      dup2\n      add\n      sload\n      0x60\n      dup6\n      add\n      mstore\n      0x03\n      add\n      sload\n      swap1\n      swap2\n      and\n      iszero\n      dup1\n      iszero\n      0x80\n      dup5\n      add\n      dup2\n      swap1\n      mstore\n        /* \".git/MyContracts/KenyaProcurementTransparency0.sol\":13408:13421  bidderList[i] */\n      swap2\n      swap4\n      pop\n        /* \".git/MyContracts/KenyaProcurementTransparency0.sol\":13493:13532  currentBid.valid && currentBid.revealed */\n      tag_388\n      jumpi\n      pop\n        /* \".git/MyContracts/KenyaProcurementTransparency0.sol\":13513:13523  currentBid */\n      dup1\n        /* \".git/MyContracts/KenyaProcurementTransparency0.sol\":13513:13532  currentBid.revealed */\n      0x40\n      add\n      mload\n        /* \".git/MyContracts/KenyaProcurementTransparency0.sol\":13493:13532  currentBid.valid && currentBid.revealed */\n    tag_388:\n        /* \".git/MyContracts/KenyaProcurementTransparency0.sol\":13489:13719  if (currentBid.valid && currentBid.revealed) {... */\n      iszero\n      tag_390\n      jumpi\n        /* \".git/MyContracts/KenyaProcurementTransparency0.sol\":13577:13587  bestAmount */\n      dup4\n        /* \".git/MyContracts/KenyaProcurementTransparency0.sol\":13557:13567  currentBid */\n      dup2\n        /* \".git/MyContracts/KenyaProcurementTransparency0.sol\":13557:13574  currentBid.amount */\n      0x60\n      add\n      mload\n        /* \".git/MyContracts/KenyaProcurementTransparency0.sol\":13557:13587  currentBid.amount < bestAmount */\n      lt\n        /* \".git/MyContracts/KenyaProcurementTransparency0.sol\":13553:13704  if (currentBid.amount < bestAmount) {... */\n      iszero\n      tag_390\n      jumpi\n        /* \".git/MyContracts/KenyaProcurementTransparency0.sol\":13625:13635  currentBid */\n      dup1\n        /* \".git/MyContracts/KenyaProcurementTransparency0.sol\":13625:13642  currentBid.amount */\n      0x60\n      add\n      mload\n        /* \".git/MyContracts/KenyaProcurementTransparency0.sol\":13612:13642  bestAmount = currentBid.amount */\n      swap4\n      pop\n        /* \".git/MyContracts/KenyaProcurementTransparency0.sol\":13678:13684  bidder */\n      dup2\n        /* \".git/MyContracts/KenyaProcurementTransparency0.sol\":13665:13684  bestBidder = bidder */\n      swap5\n      pop\n        /* \".git/MyContracts/KenyaProcurementTransparency0.sol\":13553:13704  if (currentBid.amount < bestAmount) {... */\n    tag_390:\n      pop\n      pop\n        /* \".git/MyContracts/KenyaProcurementTransparency0.sol\":13371:13374  i++ */\n      0x01\n      add\n        /* \".git/MyContracts/KenyaProcurementTransparency0.sol\":13328:13730  for (uint256 i = 0; i < bidderList.length; i++) {... */\n      jump(tag_381)\n    tag_382:\n      pop\n      sub(shl(0xa0, 0x01), 0x01)\n        /* \".git/MyContracts/KenyaProcurementTransparency0.sol\":13750:13774  bestBidder != address(0) */\n      dup3\n      and\n        /* \".git/MyContracts/KenyaProcurementTransparency0.sol\":13742:13801  require(bestBidder != address(0), \"No valid revealed bids\") */\n      tag_391\n      jumpi\n      mload(0x40)\n      shl(0xe5, 0x461bcd)\n      dup2\n      mstore\n        /* \"#utility.yul\":20166:20168   */\n      0x20\n        /* \".git/MyContracts/KenyaProcurementTransparency0.sol\":13742:13801  require(bestBidder != address(0), \"No valid revealed bids\") */\n      0x04\n      dup3\n      add\n        /* \"#utility.yul\":20148:20169   */\n      mstore\n        /* \"#utility.yul\":20205:20207   */\n      0x16\n        /* \"#utility.yul\":20185:20203   */\n      0x24\n      dup3\n      add\n        /* \"#utility.yul\":20178:20208   */\n      mstore\n      shl(0x50, 0x4e6f2076616c69642072657665616c65642062696473)\n        /* \"#utility.yul\":20224:20242   */\n      0x44\n      dup3\n      add\n        /* \"#utility.yul\":20217:20269   */\n      mstore\n        /* \"#utility.yul\":20286:20304   */\n      0x64\n      add\n        /* \".git/MyContracts/KenyaProcurementTransparency0.sol\":13742:13801  require(bestBidder != address(0), \"No valid revealed bids\") */\n      tag_227\n        /* \"#utility.yul\":19964:20310   */\n      jump\n        /* \".git/MyContracts/KenyaProcurementTransparency0.sol\":13742:13801  require(bestBidder != address(0), \"No valid revealed bids\") */\n    tag_391:\n        /* \".git/MyContracts/KenyaProcurementTransparency0.sol\":13814:13820  winner */\n      0x0e\n        /* \".git/MyContracts/KenyaProcurementTransparency0.sol\":13814:13833  winner = bestBidder */\n      dup1\n      sload\n      not(sub(shl(0xa0, 0x01), 0x01))\n      and\n      sub(shl(0xa0, 0x01), 0x01)\n      dup5\n      and\n      swap1\n      dup2\n      or\n      swap1\n      swap2\n      sstore\n        /* \".git/MyContracts/KenyaProcurementTransparency0.sol\":13844:13853  lowestBid */\n      0x0f\n        /* \".git/MyContracts/KenyaProcurementTransparency0.sol\":13844:13866  lowestBid = bestAmount */\n      dup3\n      swap1\n      sstore\n        /* \".git/MyContracts/KenyaProcurementTransparency0.sol\":13886:13908  TenderStatus.Evaluated */\n      0x02\n        /* \".git/MyContracts/KenyaProcurementTransparency0.sol\":13877:13908  status = TenderStatus.Evaluated */\n      dup1\n      sload\n      not(shl(0xa0, 0xff))\n      and\n      shl(0xa1, 0x01)\n      or\n      swap1\n      sstore\n        /* \".git/MyContracts/KenyaProcurementTransparency0.sol\":13926:13965  TenderEvaluated(bestBidder, bestAmount) */\n      0x40\n      dup1\n      mload\n        /* \"#utility.yul\":12322:12373   */\n      swap2\n      dup3\n      mstore\n        /* \"#utility.yul\":12404:12406   */\n      0x20\n        /* \"#utility.yul\":12389:12407   */\n      dup3\n      add\n        /* \"#utility.yul\":12382:12416   */\n      dup4\n      swap1\n      mstore\n        /* \".git/MyContracts/KenyaProcurementTransparency0.sol\":13926:13965  TenderEvaluated(bestBidder, bestAmount) */\n      0x44a8e45b0547725a1b190fe91fba127f673b8cec941ceaf8b3e2e67d61055dfe\n      swap2\n        /* \"#utility.yul\":12295:12313   */\n      add\n        /* \".git/MyContracts/KenyaProcurementTransparency0.sol\":13926:13965  TenderEvaluated(bestBidder, bestAmount) */\n      tag_301\n        /* \"#utility.yul\":12148:12422   */\n      jump\n        /* \".git/MyContracts/KenyaProcurementTransparency0.sol\":1370:1390  Tender public tender */\n    tag_120:\n      0x03\n      dup1\n      sload\n      dup2\n      swap1\n      tag_397\n      swap1\n      tag_273\n      jump\t// in\n    tag_397:\n      dup1\n      0x1f\n      add\n      0x20\n      dup1\n      swap2\n      div\n      mul\n      0x20\n      add\n      mload(0x40)\n      swap1\n      dup2\n      add\n      0x40\n      mstore\n      dup1\n      swap3\n      swap2\n      swap1\n      dup2\n      dup2\n      mstore\n      0x20\n      add\n      dup3\n      dup1\n      sload\n      tag_398\n      swap1\n      tag_273\n      jump\t// in\n    tag_398:\n      dup1\n      iszero\n      tag_399\n      jumpi\n      dup1\n      0x1f\n      lt\n      tag_400\n      jumpi\n      0x0100\n      dup1\n      dup4\n      sload\n      div\n      mul\n      dup4\n      mstore\n      swap2\n      0x20\n      add\n      swap2\n      jump(tag_399)\n    tag_400:\n      dup3\n      add\n      swap2\n      swap1\n      0x00\n      mstore\n      keccak256(0x00, 0x20)\n      swap1\n    tag_401:\n      dup2\n      sload\n      dup2\n      mstore\n      swap1\n      0x01\n      add\n      swap1\n      0x20\n      add\n      dup1\n      dup4\n      gt\n      tag_401\n      jumpi\n      dup3\n      swap1\n      sub\n      0x1f\n      and\n      dup3\n      add\n      swap2\n    tag_399:\n      pop\n      pop\n      pop\n      pop\n      pop\n      swap1\n      dup1\n      0x01\n      add\n      dup1\n      sload\n      tag_402\n      swap1\n      tag_273\n      jump\t// in\n    tag_402:\n      dup1\n      0x1f\n      add\n      0x20\n      dup1\n      swap2\n      div\n      mul\n      0x20\n      add\n      mload(0x40)\n      swap1\n      dup2\n      add\n      0x40\n      mstore\n      dup1\n      swap3\n      swap2\n      swap1\n      dup2\n      dup2\n      mstore\n      0x20\n      add\n      dup3\n      dup1\n      sload\n      tag_403\n      swap1\n      tag_273\n      jump\t// in\n    tag_403:\n      dup1\n      iszero\n      tag_404\n      jumpi\n      dup1\n      0x1f\n      lt\n      tag_405\n      jumpi\n      0x0100\n      dup1\n      dup4\n      sload\n      div\n      mul\n      dup4\n      mstore\n      swap2\n      0x20\n      add\n      swap2\n      jump(tag_404)\n    tag_405:\n      dup3\n      add\n      swap2\n      swap1\n      0x00\n      mstore\n      keccak256(0x00, 0x20)\n      swap1\n    tag_406:\n      dup2\n      sload\n      dup2\n      mstore\n      swap1\n      0x01\n      add\n      swap1\n      0x20\n      add\n      dup1\n      dup4\n      gt\n      tag_406\n      jumpi\n      dup3\n      swap1\n      sub\n      0x1f\n      and\n      dup3\n      add\n      swap2\n    tag_404:\n      pop\n      pop\n      pop\n      pop\n      pop\n      swap1\n      dup1\n      0x02\n      add\n      dup1\n      sload\n      tag_407\n      swap1\n      tag_273\n      jump\t// in\n    tag_407:\n      dup1\n      0x1f\n      add\n      0x20\n      dup1\n      swap2\n      div\n      mul\n      0x20\n      add\n      mload(0x40)\n      swap1\n      dup2\n      add\n      0x40\n      mstore\n      dup1\n      swap3\n      swap2\n      swap1\n      dup2\n      dup2\n      mstore\n      0x20\n      add\n      dup3\n      dup1\n      sload\n      tag_408\n      swap1\n      tag_273\n      jump\t// in\n    tag_408:\n      dup1\n      iszero\n      tag_409\n      jumpi\n      dup1\n      0x1f\n      lt\n      tag_410\n      jumpi\n      0x0100\n      dup1\n      dup4\n      sload\n      div\n      mul\n      dup4\n      mstore\n      swap2\n      0x20\n      add\n      swap2\n      jump(tag_409)\n    tag_410:\n      dup3\n      add\n      swap2\n      swap1\n      0x00\n      mstore\n      keccak256(0x00, 0x20)\n      swap1\n    tag_411:\n      dup2\n      sload\n      dup2\n      mstore\n      swap1\n      0x01\n      add\n      swap1\n      0x20\n      add\n      dup1\n      dup4\n      gt\n      tag_411\n      jumpi\n      dup3\n      swap1\n      sub\n      0x1f\n      and\n      dup3\n      add\n      swap2\n    tag_409:\n      pop\n      pop\n      pop\n      pop\n      pop\n      swap1\n      dup1\n      0x03\n      add\n      sload\n      swap1\n      dup1\n      0x04\n      add\n      sload\n      swap1\n      dup1\n      0x05\n      add\n      dup1\n      sload\n      tag_412\n      swap1\n      tag_273\n      jump\t// in\n    tag_412:\n      dup1\n      0x1f\n      add\n      0x20\n      dup1\n      swap2\n      div\n      mul\n      0x20\n      add\n      mload(0x40)\n      swap1\n      dup2\n      add\n      0x40\n      mstore\n      dup1\n      swap3\n      swap2\n      swap1\n      dup2\n      dup2\n      mstore\n      0x20\n      add\n      dup3\n      dup1\n      sload\n      tag_413\n      swap1\n      tag_273\n      jump\t// in\n    tag_413:\n      dup1\n      iszero\n      tag_414\n      jumpi\n      dup1\n      0x1f\n      lt\n      tag_415\n      jumpi\n      0x0100\n      dup1\n      dup4\n      sload\n      div\n      mul\n      dup4\n      mstore\n      swap2\n      0x20\n      add\n      swap2\n      jump(tag_414)\n    tag_415:\n      dup3\n      add\n      swap2\n      swap1\n      0x00\n      mstore\n      keccak256(0x00, 0x20)\n      swap1\n    tag_416:\n      dup2\n      sload\n      dup2\n      mstore\n      swap1\n      0x01\n      add\n      swap1\n      0x20\n      add\n      dup1\n      dup4\n      gt\n      tag_416\n      jumpi\n      dup3\n      swap1\n      sub\n      0x1f\n      and\n      dup3\n      add\n      swap2\n    tag_414:\n      pop\n      pop\n      pop\n      0x06\n      swap1\n      swap4\n      add\n      sload\n      swap2\n      swap3\n      pop\n      pop\n      0xff\n      and\n      dup8\n      jump\t// out\n        /* \".git/MyContracts/KenyaProcurementTransparency0.sol\":8521:8810  function transferAdmin(address _newAdmin) external onlyAdmin {... */\n    tag_131:\n        /* \".git/MyContracts/KenyaProcurementTransparency0.sol\":3715:3720  admin */\n      and(sub(shl(0xa0, 0x01), 0x01), sload(0x00))\n        /* \".git/MyContracts/KenyaProcurementTransparency0.sol\":3701:3711  msg.sender */\n      caller\n        /* \".git/MyContracts/KenyaProcurementTransparency0.sol\":3701:3720  msg.sender != admin */\n      eq\n        /* \".git/MyContracts/KenyaProcurementTransparency0.sol\":3697:3740  if (msg.sender != admin) revert OnlyAdmin() */\n      tag_419\n      jumpi\n        /* \".git/MyContracts/KenyaProcurementTransparency0.sol\":3729:3740  OnlyAdmin() */\n      mload(0x40)\n      shl(0xe0, 0x47556579)\n      dup2\n      mstore\n      0x04\n      add\n      mload(0x40)\n      dup1\n      swap2\n      sub\n      swap1\n      revert\n        /* \".git/MyContracts/KenyaProcurementTransparency0.sol\":3697:3740  if (msg.sender != admin) revert OnlyAdmin() */\n    tag_419:\n      sub(shl(0xa0, 0x01), 0x01)\n        /* \".git/MyContracts/KenyaProcurementTransparency0.sol\":8601:8624  _newAdmin != address(0) */\n      dup2\n      and\n        /* \".git/MyContracts/KenyaProcurementTransparency0.sol\":8593:8646  require(_newAdmin != address(0), \"Invalid new admin\") */\n      tag_421\n      jumpi\n      mload(0x40)\n      shl(0xe5, 0x461bcd)\n      dup2\n      mstore\n        /* \"#utility.yul\":20517:20519   */\n      0x20\n        /* \".git/MyContracts/KenyaProcurementTransparency0.sol\":8593:8646  require(_newAdmin != address(0), \"Invalid new admin\") */\n      0x04\n      dup3\n      add\n        /* \"#utility.yul\":20499:20520   */\n      mstore\n        /* \"#utility.yul\":20556:20558   */\n      0x11\n        /* \"#utility.yul\":20536:20554   */\n      0x24\n      dup3\n      add\n        /* \"#utility.yul\":20529:20559   */\n      mstore\n      shl(0x79, 0x24b73b30b634b2103732bb9030b236b4b7)\n        /* \"#utility.yul\":20575:20593   */\n      0x44\n      dup3\n      add\n        /* \"#utility.yul\":20568:20615   */\n      mstore\n        /* \"#utility.yul\":20632:20650   */\n      0x64\n      add\n        /* \".git/MyContracts/KenyaProcurementTransparency0.sol\":8593:8646  require(_newAdmin != address(0), \"Invalid new admin\") */\n      tag_227\n        /* \"#utility.yul\":20315:20656   */\n      jump\n        /* \".git/MyContracts/KenyaProcurementTransparency0.sol\":8593:8646  require(_newAdmin != address(0), \"Invalid new admin\") */\n    tag_421:\n        /* \".git/MyContracts/KenyaProcurementTransparency0.sol\":8678:8683  admin */\n      sload(0x00)\n      sub(shl(0xa0, 0x01), 0x01)\n      swap1\n      dup2\n      and\n        /* \".git/MyContracts/KenyaProcurementTransparency0.sol\":8665:8683  _newAdmin != admin */\n      swap1\n      dup3\n      and\n      sub\n        /* \".git/MyContracts/KenyaProcurementTransparency0.sol\":8657:8709  require(_newAdmin != admin, \"Already current admin\") */\n      tag_424\n      jumpi\n      mload(0x40)\n      shl(0xe5, 0x461bcd)\n      dup2\n      mstore\n        /* \"#utility.yul\":20863:20865   */\n      0x20\n        /* \".git/MyContracts/KenyaProcurementTransparency0.sol\":8657:8709  require(_newAdmin != admin, \"Already current admin\") */\n      0x04\n      dup3\n      add\n        /* \"#utility.yul\":20845:20866   */\n      mstore\n        /* \"#utility.yul\":20902:20904   */\n      0x15\n        /* \"#utility.yul\":20882:20900   */\n      0x24\n      dup3\n      add\n        /* \"#utility.yul\":20875:20905   */\n      mstore\n      shl(0x59, 0x20b63932b0b23c9031bab93932b73a1030b236b4b7)\n        /* \"#utility.yul\":20921:20939   */\n      0x44\n      dup3\n      add\n        /* \"#utility.yul\":20914:20965   */\n      mstore\n        /* \"#utility.yul\":20982:21000   */\n      0x64\n      add\n        /* \".git/MyContracts/KenyaProcurementTransparency0.sol\":8657:8709  require(_newAdmin != admin, \"Already current admin\") */\n      tag_227\n        /* \"#utility.yul\":20661:21006   */\n      jump\n        /* \".git/MyContracts/KenyaProcurementTransparency0.sol\":8657:8709  require(_newAdmin != admin, \"Already current admin\") */\n    tag_424:\n        /* \".git/MyContracts/KenyaProcurementTransparency0.sol\":8720:8732  pendingAdmin */\n      0x01\n        /* \".git/MyContracts/KenyaProcurementTransparency0.sol\":8720:8744  pendingAdmin = _newAdmin */\n      dup1\n      sload\n      not(sub(shl(0xa0, 0x01), 0x01))\n      and\n      sub(shl(0xa0, 0x01), 0x01)\n      dup4\n      dup2\n      and\n      swap2\n      dup3\n      or\n      swap1\n      swap3\n      sstore\n      0x00\n        /* \".git/MyContracts/KenyaProcurementTransparency0.sol\":8785:8790  admin */\n      dup1\n      sload\n        /* \".git/MyContracts/KenyaProcurementTransparency0.sol\":8762:8802  AdminTransferInitiated(admin, _newAdmin) */\n      mload(0x40)\n        /* \".git/MyContracts/KenyaProcurementTransparency0.sol\":8720:8744  pendingAdmin = _newAdmin */\n      swap3\n      swap4\n        /* \".git/MyContracts/KenyaProcurementTransparency0.sol\":8785:8790  admin */\n      and\n      swap2\n        /* \".git/MyContracts/KenyaProcurementTransparency0.sol\":8762:8802  AdminTransferInitiated(admin, _newAdmin) */\n      0xb4d7bcb4d9a5d6ef6e827e3b1554e5a2578ad9ca843903d42b05d08bfa345894\n      swap2\n      swap1\n      log3\n        /* \".git/MyContracts/KenyaProcurementTransparency0.sol\":8521:8810  function transferAdmin(address _newAdmin) external onlyAdmin {... */\n      pop\n      jump\t// out\n        /* \".git/MyContracts/KenyaProcurementTransparency0.sol\":14702:15260  function submitDeliveryEvidence(bytes32 _deliveryEvidenceHash)... */\n    tag_135:\n        /* \".git/MyContracts/KenyaProcurementTransparency0.sol\":4328:4341  tender.exists */\n      and(0xff, sload(0x09))\n        /* \".git/MyContracts/KenyaProcurementTransparency0.sol\":4323:4370  if (!tender.exists) revert TenderDoesNotExist() */\n      tag_428\n      jumpi\n        /* \".git/MyContracts/KenyaProcurementTransparency0.sol\":4350:4370  TenderDoesNotExist() */\n      mload(0x40)\n      shl(0xe1, 0x55e9e641)\n      dup2\n      mstore\n      0x04\n      add\n      mload(0x40)\n      dup1\n      swap2\n      sub\n      swap1\n      revert\n        /* \".git/MyContracts/KenyaProcurementTransparency0.sol\":4323:4370  if (!tender.exists) revert TenderDoesNotExist() */\n    tag_428:\n        /* \".git/MyContracts/KenyaProcurementTransparency0.sol\":14823:14843  TenderStatus.Awarded */\n      0x03\n      dup1\n        /* \".git/MyContracts/KenyaProcurementTransparency0.sol\":5058:5064  status */\n      sload(0x02)\n      shl(0xa0, 0x01)\n      swap1\n      div\n      0xff\n      and\n        /* \".git/MyContracts/KenyaProcurementTransparency0.sol\":5058:5075  status != _status */\n      0x07\n      dup2\n      gt\n      iszero\n      tag_433\n      jumpi\n      tag_433\n      tag_221\n      jump\t// in\n    tag_433:\n      eq\n        /* \".git/MyContracts/KenyaProcurementTransparency0.sol\":5054:5104  if (status != _status) revert InvalidTenderStage() */\n      tag_434\n      jumpi\n        /* \".git/MyContracts/KenyaProcurementTransparency0.sol\":5084:5104  InvalidTenderStage() */\n      mload(0x40)\n      shl(0xe6, 0x0187fa83)\n      dup2\n      mstore\n      0x04\n      add\n      mload(0x40)\n      dup1\n      swap2\n      sub\n      swap1\n      revert\n        /* \".git/MyContracts/KenyaProcurementTransparency0.sol\":5054:5104  if (status != _status) revert InvalidTenderStage() */\n    tag_434:\n        /* \".git/MyContracts/KenyaProcurementTransparency0.sol\":14865:14874  inspector */\n      and(sub(shl(0xa0, 0x01), 0x01), sload(0x02))\n        /* \".git/MyContracts/KenyaProcurementTransparency0.sol\":14861:14919  if (inspector == address(0)) revert InspectorNotAssigned() */\n      tag_436\n      jumpi\n        /* \".git/MyContracts/KenyaProcurementTransparency0.sol\":14897:14919  InspectorNotAssigned() */\n      mload(0x40)\n      shl(0xe0, 0xd6ea3663)\n      dup2\n      mstore\n      0x04\n      add\n      mload(0x40)\n      dup1\n      swap2\n      sub\n      swap1\n      revert\n        /* \".git/MyContracts/KenyaProcurementTransparency0.sol\":14861:14919  if (inspector == address(0)) revert InspectorNotAssigned() */\n    tag_436:\n        /* \".git/MyContracts/KenyaProcurementTransparency0.sol\":14952:14958  winner */\n      and(sub(shl(0xa0, 0x01), 0x01), sload(0x0e))\n        /* \".git/MyContracts/KenyaProcurementTransparency0.sol\":14938:14948  msg.sender */\n      caller\n        /* \".git/MyContracts/KenyaProcurementTransparency0.sol\":14938:14958  msg.sender == winner */\n      eq\n        /* \".git/MyContracts/KenyaProcurementTransparency0.sol\":14930:14994  require(msg.sender == winner, \"Only winner can submit delivery\") */\n      tag_437\n      jumpi\n      mload(0x40)\n      shl(0xe5, 0x461bcd)\n      dup2\n      mstore\n        /* \"#utility.yul\":21213:21215   */\n      0x20\n        /* \".git/MyContracts/KenyaProcurementTransparency0.sol\":14930:14994  require(msg.sender == winner, \"Only winner can submit delivery\") */\n      0x04\n      dup3\n      add\n        /* \"#utility.yul\":21195:21216   */\n      mstore\n        /* \"#utility.yul\":21252:21254   */\n      0x1f\n        /* \"#utility.yul\":21232:21250   */\n      0x24\n      dup3\n      add\n        /* \"#utility.yul\":21225:21255   */\n      mstore\n        /* \"#utility.yul\":21291:21324   */\n      0x4f6e6c792077696e6e65722063616e207375626d69742064656c697665727900\n        /* \"#utility.yul\":21271:21289   */\n      0x44\n      dup3\n      add\n        /* \"#utility.yul\":21264:21325   */\n      mstore\n        /* \"#utility.yul\":21342:21360   */\n      0x64\n      add\n        /* \".git/MyContracts/KenyaProcurementTransparency0.sol\":14930:14994  require(msg.sender == winner, \"Only winner can submit delivery\") */\n      tag_227\n        /* \"#utility.yul\":21011:21366   */\n      jump\n        /* \".git/MyContracts/KenyaProcurementTransparency0.sol\":14930:14994  require(msg.sender == winner, \"Only winner can submit delivery\") */\n    tag_437:\n        /* \".git/MyContracts/KenyaProcurementTransparency0.sol\":15013:15034  _deliveryEvidenceHash */\n      dup2\n        /* \".git/MyContracts/KenyaProcurementTransparency0.sol\":15005:15083  require(_deliveryEvidenceHash != bytes32(0), \"Invalid delivery evidence hash\") */\n      tag_440\n      jumpi\n      mload(0x40)\n      shl(0xe5, 0x461bcd)\n      dup2\n      mstore\n        /* \"#utility.yul\":21573:21575   */\n      0x20\n        /* \".git/MyContracts/KenyaProcurementTransparency0.sol\":15005:15083  require(_deliveryEvidenceHash != bytes32(0), \"Invalid delivery evidence hash\") */\n      0x04\n      dup3\n      add\n        /* \"#utility.yul\":21555:21576   */\n      mstore\n        /* \"#utility.yul\":21612:21614   */\n      0x1e\n        /* \"#utility.yul\":21592:21610   */\n      0x24\n      dup3\n      add\n        /* \"#utility.yul\":21585:21615   */\n      mstore\n        /* \"#utility.yul\":21651:21683   */\n      0x496e76616c69642064656c69766572792065766964656e636520686173680000\n        /* \"#utility.yul\":21631:21649   */\n      0x44\n      dup3\n      add\n        /* \"#utility.yul\":21624:21684   */\n      mstore\n        /* \"#utility.yul\":21701:21719   */\n      0x64\n      add\n        /* \".git/MyContracts/KenyaProcurementTransparency0.sol\":15005:15083  require(_deliveryEvidenceHash != bytes32(0), \"Invalid delivery evidence hash\") */\n      tag_227\n        /* \"#utility.yul\":21371:21725   */\n      jump\n        /* \".git/MyContracts/KenyaProcurementTransparency0.sol\":15005:15083  require(_deliveryEvidenceHash != bytes32(0), \"Invalid delivery evidence hash\") */\n    tag_440:\n        /* \".git/MyContracts/KenyaProcurementTransparency0.sol\":15096:15116  deliveryEvidenceHash */\n      0x10\n        /* \".git/MyContracts/KenyaProcurementTransparency0.sol\":15096:15140  deliveryEvidenceHash = _deliveryEvidenceHash */\n      dup3\n      swap1\n      sstore\n        /* \".git/MyContracts/KenyaProcurementTransparency0.sol\":15151:15157  status */\n      0x02\n        /* \".git/MyContracts/KenyaProcurementTransparency0.sol\":15151:15182  status = TenderStatus.Delivered */\n      dup1\n      sload\n      not(shl(0xa0, 0xff))\n      and\n      shl(0xa2, 0x01)\n      or\n      swap1\n      sstore\n        /* \".git/MyContracts/KenyaProcurementTransparency0.sol\":15200:15252  DeliverySubmitted(msg.sender, _deliveryEvidenceHash) */\n      0x40\n      dup1\n      mload\n        /* \".git/MyContracts/KenyaProcurementTransparency0.sol\":15218:15228  msg.sender */\n      caller\n        /* \"#utility.yul\":12322:12373   */\n      dup2\n      mstore\n        /* \"#utility.yul\":12404:12406   */\n      0x20\n        /* \"#utility.yul\":12389:12407   */\n      dup2\n      add\n        /* \"#utility.yul\":12382:12416   */\n      dup5\n      swap1\n      mstore\n        /* \".git/MyContracts/KenyaProcurementTransparency0.sol\":15200:15252  DeliverySubmitted(msg.sender, _deliveryEvidenceHash) */\n      0xae1f4649889be6b26bcf006a04c674019d1ebafaa07f234652d80cb084e77c57\n      swap2\n        /* \"#utility.yul\":12295:12313   */\n      add\n        /* \".git/MyContracts/KenyaProcurementTransparency0.sol\":15200:15252  DeliverySubmitted(msg.sender, _deliveryEvidenceHash) */\n      tag_231\n        /* \"#utility.yul\":12148:12422   */\n      jump\n        /* \".git/MyContracts/KenyaProcurementTransparency0.sol\":8926:9192  function acceptAdminRole() external {... */\n    tag_138:\n        /* \".git/MyContracts/KenyaProcurementTransparency0.sol\":8995:9007  pendingAdmin */\n      and(sub(shl(0xa0, 0x01), 0x01), sload(0x01))\n        /* \".git/MyContracts/KenyaProcurementTransparency0.sol\":8981:8991  msg.sender */\n      caller\n        /* \".git/MyContracts/KenyaProcurementTransparency0.sol\":8981:9007  msg.sender == pendingAdmin */\n      eq\n        /* \".git/MyContracts/KenyaProcurementTransparency0.sol\":8973:9029  require(msg.sender == pendingAdmin, \"Not pending admin\") */\n      tag_447\n      jumpi\n      mload(0x40)\n      shl(0xe5, 0x461bcd)\n      dup2\n      mstore\n        /* \"#utility.yul\":21932:21934   */\n      0x20\n        /* \".git/MyContracts/KenyaProcurementTransparency0.sol\":8973:9029  require(msg.sender == pendingAdmin, \"Not pending admin\") */\n      0x04\n      dup3\n      add\n        /* \"#utility.yul\":21914:21935   */\n      mstore\n        /* \"#utility.yul\":21971:21973   */\n      0x11\n        /* \"#utility.yul\":21951:21969   */\n      0x24\n      dup3\n      add\n        /* \"#utility.yul\":21944:21974   */\n      mstore\n      shl(0x79, 0x2737ba103832b73234b7339030b236b4b7)\n        /* \"#utility.yul\":21990:22008   */\n      0x44\n      dup3\n      add\n        /* \"#utility.yul\":21983:22030   */\n      mstore\n        /* \"#utility.yul\":22047:22065   */\n      0x64\n      add\n        /* \".git/MyContracts/KenyaProcurementTransparency0.sol\":8973:9029  require(msg.sender == pendingAdmin, \"Not pending admin\") */\n      tag_227\n        /* \"#utility.yul\":21730:22071   */\n      jump\n        /* \".git/MyContracts/KenyaProcurementTransparency0.sol\":8973:9029  require(msg.sender == pendingAdmin, \"Not pending admin\") */\n    tag_447:\n        /* \".git/MyContracts/KenyaProcurementTransparency0.sol\":9042:9058  address oldAdmin */\n      0x00\n        /* \".git/MyContracts/KenyaProcurementTransparency0.sol\":9061:9066  admin */\n      dup1\n      sload\n      0x01\n        /* \".git/MyContracts/KenyaProcurementTransparency0.sol\":9085:9097  pendingAdmin */\n      dup1\n      sload\n      sub(shl(0xa0, 0x01), 0x01)\n      dup1\n      dup3\n      and\n      not(sub(shl(0xa0, 0x01), 0x01))\n        /* \".git/MyContracts/KenyaProcurementTransparency0.sol\":9077:9097  admin = pendingAdmin */\n      dup1\n      dup7\n      and\n      dup3\n      or\n      dup8\n      sstore\n        /* \".git/MyContracts/KenyaProcurementTransparency0.sol\":9108:9133  pendingAdmin = address(0) */\n      swap1\n      swap3\n      and\n      swap1\n      swap3\n      sstore\n        /* \".git/MyContracts/KenyaProcurementTransparency0.sol\":9151:9184  AdminTransferred(oldAdmin, admin) */\n      mload(0x40)\n        /* \".git/MyContracts/KenyaProcurementTransparency0.sol\":9061:9066  admin */\n      swap2\n      swap1\n      swap3\n      and\n      swap3\n      dup4\n      swap2\n        /* \".git/MyContracts/KenyaProcurementTransparency0.sol\":9151:9184  AdminTransferred(oldAdmin, admin) */\n      0xf8ccb027dfcd135e000e9d45e6cc2d662578a8825d4c45b5e32e0adf67e79ec6\n      swap2\n        /* \".git/MyContracts/KenyaProcurementTransparency0.sol\":9042:9058  address oldAdmin */\n      swap1\n        /* \".git/MyContracts/KenyaProcurementTransparency0.sol\":9151:9184  AdminTransferred(oldAdmin, admin) */\n      log3\n        /* \".git/MyContracts/KenyaProcurementTransparency0.sol\":8962:9192  {... */\n      pop\n        /* \".git/MyContracts/KenyaProcurementTransparency0.sol\":8926:9192  function acceptAdminRole() external {... */\n      jump\t// out\n        /* \".git/MyContracts/KenyaProcurementTransparency0.sol\":6387:7699  function createTenderWithLocalTime(... */\n    tag_149:\n        /* \".git/MyContracts/KenyaProcurementTransparency0.sol\":3715:3720  admin */\n      and(sub(shl(0xa0, 0x01), 0x01), sload(0x00))\n        /* \".git/MyContracts/KenyaProcurementTransparency0.sol\":3701:3711  msg.sender */\n      caller\n        /* \".git/MyContracts/KenyaProcurementTransparency0.sol\":3701:3720  msg.sender != admin */\n      eq\n        /* \".git/MyContracts/KenyaProcurementTransparency0.sol\":3697:3740  if (msg.sender != admin) revert OnlyAdmin() */\n      tag_452\n      jumpi\n        /* \".git/MyContracts/KenyaProcurementTransparency0.sol\":3729:3740  OnlyAdmin() */\n      mload(0x40)\n      shl(0xe0, 0x47556579)\n      dup2\n      mstore\n      0x04\n      add\n      mload(0x40)\n      dup1\n      swap2\n      sub\n      swap1\n      revert\n        /* \".git/MyContracts/KenyaProcurementTransparency0.sol\":3697:3740  if (msg.sender != admin) revert OnlyAdmin() */\n    tag_452:\n        /* \".git/MyContracts/KenyaProcurementTransparency0.sol\":6806:6819  tender.exists */\n      and(0xff, sload(0x09))\n        /* \".git/MyContracts/KenyaProcurementTransparency0.sol\":6805:6819  !tender.exists */\n      iszero\n        /* \".git/MyContracts/KenyaProcurementTransparency0.sol\":6797:6846  require(!tender.exists, \"Tender already created\") */\n      tag_454\n      jumpi\n      mload(0x40)\n      shl(0xe5, 0x461bcd)\n      dup2\n      mstore\n        /* \"#utility.yul\":22278:22280   */\n      0x20\n        /* \".git/MyContracts/KenyaProcurementTransparency0.sol\":6797:6846  require(!tender.exists, \"Tender already created\") */\n      0x04\n      dup3\n      add\n        /* \"#utility.yul\":22260:22281   */\n      mstore\n        /* \"#utility.yul\":22317:22319   */\n      0x16\n        /* \"#utility.yul\":22297:22315   */\n      0x24\n      dup3\n      add\n        /* \"#utility.yul\":22290:22320   */\n      mstore\n      shl(0x52, 0x15195b99195c88185b1c9958591e4818dc99585d1959)\n        /* \"#utility.yul\":22336:22354   */\n      0x44\n      dup3\n      add\n        /* \"#utility.yul\":22329:22381   */\n      mstore\n        /* \"#utility.yul\":22398:22416   */\n      0x64\n      add\n        /* \".git/MyContracts/KenyaProcurementTransparency0.sol\":6797:6846  require(!tender.exists, \"Tender already created\") */\n      tag_227\n        /* \"#utility.yul\":22076:22422   */\n      jump\n        /* \".git/MyContracts/KenyaProcurementTransparency0.sol\":6797:6846  require(!tender.exists, \"Tender already created\") */\n    tag_454:\n        /* \".git/MyContracts/KenyaProcurementTransparency0.sol\":6883:6884  0 */\n      0x00\n        /* \".git/MyContracts/KenyaProcurementTransparency0.sol\":6865:6880  _contractAmount */\n      dup3\n        /* \".git/MyContracts/KenyaProcurementTransparency0.sol\":6865:6884  _contractAmount > 0 */\n      gt\n        /* \".git/MyContracts/KenyaProcurementTransparency0.sol\":6857:6930  require(_contractAmount > 0, \"Contract amount must be greater than zero\") */\n      tag_457\n      jumpi\n      mload(0x40)\n      shl(0xe5, 0x461bcd)\n      dup2\n      mstore\n        /* \"#utility.yul\":22629:22631   */\n      0x20\n        /* \".git/MyContracts/KenyaProcurementTransparency0.sol\":6857:6930  require(_contractAmount > 0, \"Contract amount must be greater than zero\") */\n      0x04\n      dup3\n      add\n        /* \"#utility.yul\":22611:22632   */\n      mstore\n        /* \"#utility.yul\":22668:22670   */\n      0x29\n        /* \"#utility.yul\":22648:22666   */\n      0x24\n      dup3\n      add\n        /* \"#utility.yul\":22641:22671   */\n      mstore\n        /* \"#utility.yul\":22707:22741   */\n      0x436f6e747261637420616d6f756e74206d757374206265206772656174657220\n        /* \"#utility.yul\":22687:22705   */\n      0x44\n      dup3\n      add\n        /* \"#utility.yul\":22680:22742   */\n      mstore\n      shl(0xb8, 0x7468616e207a65726f)\n        /* \"#utility.yul\":22758:22776   */\n      0x64\n      dup3\n      add\n        /* \"#utility.yul\":22751:22790   */\n      mstore\n        /* \"#utility.yul\":22807:22826   */\n      0x84\n      add\n        /* \".git/MyContracts/KenyaProcurementTransparency0.sol\":6857:6930  require(_contractAmount > 0, \"Contract amount must be greater than zero\") */\n      tag_227\n        /* \"#utility.yul\":22427:22832   */\n      jump\n        /* \".git/MyContracts/KenyaProcurementTransparency0.sol\":6857:6930  require(_contractAmount > 0, \"Contract amount must be greater than zero\") */\n    tag_457:\n        /* \".git/MyContracts/KenyaProcurementTransparency0.sol\":6943:6969  uint256 submissionDeadline */\n      0x00\n        /* \".git/MyContracts/KenyaProcurementTransparency0.sol\":6972:7137  _toTimestampWithOffset(... */\n      tag_460\n        /* \".git/MyContracts/KenyaProcurementTransparency0.sol\":7009:7014  _year */\n      dup10\n        /* \".git/MyContracts/KenyaProcurementTransparency0.sol\":7029:7035  _month */\n      dup10\n        /* \".git/MyContracts/KenyaProcurementTransparency0.sol\":7050:7054  _day */\n      dup10\n        /* \".git/MyContracts/KenyaProcurementTransparency0.sol\":7069:7074  _hour */\n      dup10\n        /* \".git/MyContracts/KenyaProcurementTransparency0.sol\":7089:7096  _minute */\n      dup10\n        /* \".git/MyContracts/KenyaProcurementTransparency0.sol\":7111:7126  _utcOffsetHours */\n      dup10\n        /* \".git/MyContracts/KenyaProcurementTransparency0.sol\":6972:6994  _toTimestampWithOffset */\n      tag_461\n        /* \".git/MyContracts/KenyaProcurementTransparency0.sol\":6972:7137  _toTimestampWithOffset(... */\n      jump\t// in\n    tag_460:\n        /* \".git/MyContracts/KenyaProcurementTransparency0.sol\":6943:7137  uint256 submissionDeadline = _toTimestampWithOffset(... */\n      swap1\n      pop\n        /* \".git/MyContracts/KenyaProcurementTransparency0.sol\":7179:7194  block.timestamp */\n      timestamp\n        /* \".git/MyContracts/KenyaProcurementTransparency0.sol\":7158:7176  submissionDeadline */\n      dup2\n        /* \".git/MyContracts/KenyaProcurementTransparency0.sol\":7158:7194  submissionDeadline > block.timestamp */\n      gt\n        /* \".git/MyContracts/KenyaProcurementTransparency0.sol\":7150:7229  require(submissionDeadline > block.timestamp, \"Deadline must be in the future\") */\n      tag_462\n      jumpi\n      mload(0x40)\n      shl(0xe5, 0x461bcd)\n      dup2\n      mstore\n        /* \"#utility.yul\":23039:23041   */\n      0x20\n        /* \".git/MyContracts/KenyaProcurementTransparency0.sol\":7150:7229  require(submissionDeadline > block.timestamp, \"Deadline must be in the future\") */\n      0x04\n      dup3\n      add\n        /* \"#utility.yul\":23021:23042   */\n      mstore\n        /* \"#utility.yul\":23078:23080   */\n      0x1e\n        /* \"#utility.yul\":23058:23076   */\n      0x24\n      dup3\n      add\n        /* \"#utility.yul\":23051:23081   */\n      mstore\n        /* \"#utility.yul\":23117:23149   */\n      0x446561646c696e65206d75737420626520696e20746865206675747572650000\n        /* \"#utility.yul\":23097:23115   */\n      0x44\n      dup3\n      add\n        /* \"#utility.yul\":23090:23150   */\n      mstore\n        /* \"#utility.yul\":23167:23185   */\n      0x64\n      add\n        /* \".git/MyContracts/KenyaProcurementTransparency0.sol\":7150:7229  require(submissionDeadline > block.timestamp, \"Deadline must be in the future\") */\n      tag_227\n        /* \"#utility.yul\":22837:23191   */\n      jump\n        /* \".git/MyContracts/KenyaProcurementTransparency0.sol\":7150:7229  require(submissionDeadline > block.timestamp, \"Deadline must be in the future\") */\n    tag_462:\n        /* \".git/MyContracts/KenyaProcurementTransparency0.sol\":7251:7558  Tender({... */\n      0x40\n      dup1\n      mload\n      0xe0\n      dup2\n      add\n      dup3\n      mstore\n      dup14\n      dup2\n      mstore\n      0x20\n      dup2\n      add\n      dup14\n      swap1\n      mstore\n      swap1\n      dup2\n      add\n      dup12\n      swap1\n      mstore\n      0x60\n      dup2\n      add\n      dup3\n      swap1\n      mstore\n      0x80\n      dup2\n      add\n      dup5\n      swap1\n      mstore\n      0xa0\n      dup2\n      add\n      dup4\n      swap1\n      mstore\n        /* \".git/MyContracts/KenyaProcurementTransparency0.sol\":7542:7546  true */\n      0x01\n        /* \".git/MyContracts/KenyaProcurementTransparency0.sol\":7251:7558  Tender({... */\n      0xc0\n      dup3\n      add\n      mstore\n        /* \".git/MyContracts/KenyaProcurementTransparency0.sol\":7242:7248  tender */\n      0x03\n      dup1\n        /* \".git/MyContracts/KenyaProcurementTransparency0.sol\":7242:7558  tender = Tender({... */\n      tag_465\n        /* \".git/MyContracts/KenyaProcurementTransparency0.sol\":7287:7300  _tenderNumber */\n      dup16\n        /* \".git/MyContracts/KenyaProcurementTransparency0.sol\":7242:7248  tender */\n      dup3\n        /* \".git/MyContracts/KenyaProcurementTransparency0.sol\":7242:7558  tender = Tender({... */\n      tag_299\n      jump\t// in\n    tag_465:\n      pop\n      0x20\n      dup3\n      add\n      mload\n      0x01\n      dup3\n      add\n      swap1\n      tag_466\n      swap1\n      dup3\n      tag_299\n      jump\t// in\n    tag_466:\n      pop\n      0x40\n      dup3\n      add\n      mload\n      0x02\n      dup3\n      add\n      swap1\n      tag_467\n      swap1\n      dup3\n      tag_299\n      jump\t// in\n    tag_467:\n      pop\n      0x60\n      dup3\n      add\n      mload\n      0x03\n      dup3\n      add\n      sstore\n      0x80\n      dup3\n      add\n      mload\n      0x04\n      dup3\n      add\n      sstore\n      0xa0\n      dup3\n      add\n      mload\n      0x05\n      dup3\n      add\n      swap1\n      tag_468\n      swap1\n      dup3\n      tag_299\n      jump\t// in\n    tag_468:\n      pop\n      0xc0\n      swap2\n      swap1\n      swap2\n      add\n      mload\n      0x06\n      swap1\n      swap2\n      add\n      dup1\n      sload\n      not(0xff)\n      and\n      swap2\n      iszero\n      iszero\n      swap2\n      swap1\n      swap2\n      or\n      swap1\n      sstore\n        /* \".git/MyContracts/KenyaProcurementTransparency0.sol\":7571:7577  status */\n      0x02\n        /* \".git/MyContracts/KenyaProcurementTransparency0.sol\":7571:7600  status = TenderStatus.Created */\n      dup1\n      sload\n      not(shl(0xa0, 0xff))\n      and\n      swap1\n      sstore\n        /* \".git/MyContracts/KenyaProcurementTransparency0.sol\":7618:7691  TenderCreated(_tenderNumber, _title, submissionDeadline, _contractAmount) */\n      mload(0x40)\n      0x1b8026edb59eb0a93ac326ac7a523b0055a7bd12f595a560e2e75e798f1d20f1\n      swap1\n      tag_471\n      swap1\n        /* \".git/MyContracts/KenyaProcurementTransparency0.sol\":7632:7645  _tenderNumber */\n      dup15\n      swap1\n        /* \".git/MyContracts/KenyaProcurementTransparency0.sol\":7647:7653  _title */\n      dup15\n      swap1\n        /* \".git/MyContracts/KenyaProcurementTransparency0.sol\":7655:7673  submissionDeadline */\n      dup6\n      swap1\n        /* \".git/MyContracts/KenyaProcurementTransparency0.sol\":7675:7690  _contractAmount */\n      dup9\n      swap1\n        /* \".git/MyContracts/KenyaProcurementTransparency0.sol\":7618:7691  TenderCreated(_tenderNumber, _title, submissionDeadline, _contractAmount) */\n      tag_472\n      jump\t// in\n    tag_471:\n      mload(0x40)\n      dup1\n      swap2\n      sub\n      swap1\n      log1\n        /* \".git/MyContracts/KenyaProcurementTransparency0.sol\":6786:7699  {... */\n      pop\n        /* \".git/MyContracts/KenyaProcurementTransparency0.sol\":6387:7699  function createTenderWithLocalTime(... */\n      pop\n      pop\n      pop\n      pop\n      pop\n      pop\n      pop\n      pop\n      pop\n      pop\n      pop\n      jump\t// out\n        /* \".git/MyContracts/KenyaProcurementTransparency0.sol\":19238:19465  function getBidderProfile(address _bidder)... */\n    tag_153:\n      sub(shl(0xa0, 0x01), 0x01)\n        /* \".git/MyContracts/KenyaProcurementTransparency0.sol\":19401:19427  registeredBidders[_bidder] */\n      dup2\n      and\n        /* \".git/MyContracts/KenyaProcurementTransparency0.sol\":19331:19348  bool isRegistered */\n      0x00\n        /* \".git/MyContracts/KenyaProcurementTransparency0.sol\":19401:19427  registeredBidders[_bidder] */\n      swap1\n      dup2\n      mstore\n        /* \".git/MyContracts/KenyaProcurementTransparency0.sol\":19401:19418  registeredBidders */\n      0x0a\n        /* \".git/MyContracts/KenyaProcurementTransparency0.sol\":19401:19427  registeredBidders[_bidder] */\n      0x20\n      swap1\n      dup2\n      mstore\n      0x40\n      dup1\n      dup4\n      keccak256\n      sload\n        /* \".git/MyContracts/KenyaProcurementTransparency0.sol\":19429:19447  bidderDescriptions */\n      0x0b\n        /* \".git/MyContracts/KenyaProcurementTransparency0.sol\":19429:19456  bidderDescriptions[_bidder] */\n      swap1\n      swap3\n      mstore\n      dup3\n      keccak256\n        /* \".git/MyContracts/KenyaProcurementTransparency0.sol\":19393:19457  return (registeredBidders[_bidder], bidderDescriptions[_bidder]) */\n      dup1\n      sload\n        /* \".git/MyContracts/KenyaProcurementTransparency0.sol\":19350:19375  string memory description */\n      0x60\n      swap3\n        /* \".git/MyContracts/KenyaProcurementTransparency0.sol\":19401:19427  registeredBidders[_bidder] */\n      0xff\n      and\n      swap2\n        /* \".git/MyContracts/KenyaProcurementTransparency0.sol\":19429:19456  bidderDescriptions[_bidder] */\n      swap1\n      dup2\n      swap1\n        /* \".git/MyContracts/KenyaProcurementTransparency0.sol\":19393:19457  return (registeredBidders[_bidder], bidderDescriptions[_bidder]) */\n      tag_474\n      swap1\n      tag_273\n      jump\t// in\n    tag_474:\n      dup1\n      0x1f\n      add\n      0x20\n      dup1\n      swap2\n      div\n      mul\n      0x20\n      add\n      mload(0x40)\n      swap1\n      dup2\n      add\n      0x40\n      mstore\n      dup1\n      swap3\n      swap2\n      swap1\n      dup2\n      dup2\n      mstore\n      0x20\n      add\n      dup3\n      dup1\n      sload\n      tag_475\n      swap1\n      tag_273\n      jump\t// in\n    tag_475:\n      dup1\n      iszero\n      tag_476\n      jumpi\n      dup1\n      0x1f\n      lt\n      tag_477\n      jumpi\n      0x0100\n      dup1\n      dup4\n      sload\n      div\n      mul\n      dup4\n      mstore\n      swap2\n      0x20\n      add\n      swap2\n      jump(tag_476)\n    tag_477:\n      dup3\n      add\n      swap2\n      swap1\n      0x00\n      mstore\n      keccak256(0x00, 0x20)\n      swap1\n    tag_478:\n      dup2\n      sload\n      dup2\n      mstore\n      swap1\n      0x01\n      add\n      swap1\n      0x20\n      add\n      dup1\n      dup4\n      gt\n      tag_478\n      jumpi\n      dup3\n      swap1\n      sub\n      0x1f\n      and\n      dup3\n      add\n      swap2\n    tag_476:\n      pop\n      pop\n      pop\n      pop\n      pop\n      swap1\n      pop\n      swap2\n      pop\n      swap2\n      pop\n        /* \".git/MyContracts/KenyaProcurementTransparency0.sol\":19238:19465  function getBidderProfile(address _bidder)... */\n      swap2\n      pop\n      swap2\n      jump\t// out\n        /* \".git/MyContracts/KenyaProcurementTransparency0.sol\":1455:1507  mapping(address => string) public bidderDescriptions */\n    tag_159:\n      mstore(0x20, 0x0b)\n      0x00\n      swap1\n      dup2\n      mstore\n      0x40\n      swap1\n      keccak256\n      dup1\n      sload\n      tag_272\n      swap1\n      tag_273\n      jump\t// in\n        /* \".git/MyContracts/KenyaProcurementTransparency0.sol\":18262:18976  function getAllRegisteredBidders()... */\n    tag_167:\n        /* \".git/MyContracts/KenyaProcurementTransparency0.sol\":18519:18529  bidderList */\n      0x0d\n        /* \".git/MyContracts/KenyaProcurementTransparency0.sol\":18519:18536  bidderList.length */\n      sload\n        /* \".git/MyContracts/KenyaProcurementTransparency0.sol\":18361:18385  uint256[] memory indexes */\n      0x60\n      swap1\n      dup2\n      swap1\n      dup2\n      swap1\n        /* \".git/MyContracts/KenyaProcurementTransparency0.sol\":18519:18536  bidderList.length */\n      dup1\n      sub(shl(0x40, 0x01), 0x01)\n        /* \".git/MyContracts/KenyaProcurementTransparency0.sol\":18559:18579  new uint256[](count) */\n      dup2\n      gt\n      iszero\n      tag_486\n      jumpi\n      tag_486\n      tag_487\n      jump\t// in\n    tag_486:\n      mload(0x40)\n      swap1\n      dup1\n      dup3\n      mstore\n      dup1\n      0x20\n      mul\n      0x20\n      add\n      dup3\n      add\n      0x40\n      mstore\n      dup1\n      iszero\n      tag_488\n      jumpi\n      dup2\n      0x20\n      add\n      0x20\n      dup3\n      mul\n      dup1\n      calldatasize\n      dup4\n      calldatacopy\n      add\n      swap1\n      pop\n    tag_488:\n      pop\n        /* \".git/MyContracts/KenyaProcurementTransparency0.sol\":18549:18579  indexes = new uint256[](count) */\n      swap4\n      pop\n        /* \".git/MyContracts/KenyaProcurementTransparency0.sol\":18622:18627  count */\n      dup1\n      sub(shl(0x40, 0x01), 0x01)\n        /* \".git/MyContracts/KenyaProcurementTransparency0.sol\":18608:18628  new address[](count) */\n      dup2\n      gt\n      iszero\n      tag_490\n      jumpi\n      tag_490\n      tag_487\n      jump\t// in\n    tag_490:\n      mload(0x40)\n      swap1\n      dup1\n      dup3\n      mstore\n      dup1\n      0x20\n      mul\n      0x20\n      add\n      dup3\n      add\n      0x40\n      mstore\n      dup1\n      iszero\n      tag_491\n      jumpi\n      dup2\n      0x20\n      add\n      0x20\n      dup3\n      mul\n      dup1\n      calldatasize\n      dup4\n      calldatacopy\n      add\n      swap1\n      pop\n    tag_491:\n      pop\n        /* \".git/MyContracts/KenyaProcurementTransparency0.sol\":18590:18628  bidderAddresses = new address[](count) */\n      swap3\n      pop\n        /* \".git/MyContracts/KenyaProcurementTransparency0.sol\":18667:18672  count */\n      dup1\n      sub(shl(0x40, 0x01), 0x01)\n        /* \".git/MyContracts/KenyaProcurementTransparency0.sol\":18654:18673  new string[](count) */\n      dup2\n      gt\n      iszero\n      tag_493\n      jumpi\n      tag_493\n      tag_487\n      jump\t// in\n    tag_493:\n      mload(0x40)\n      swap1\n      dup1\n      dup3\n      mstore\n      dup1\n      0x20\n      mul\n      0x20\n      add\n      dup3\n      add\n      0x40\n      mstore\n      dup1\n      iszero\n      tag_494\n      jumpi\n      dup2\n      0x20\n      add\n    tag_495:\n      0x60\n      dup2\n      mstore\n      0x20\n      add\n      swap1\n      0x01\n      swap1\n      sub\n      swap1\n      dup2\n      tag_495\n      jumpi\n      swap1\n      pop\n    tag_494:\n      pop\n        /* \".git/MyContracts/KenyaProcurementTransparency0.sol\":18639:18673  descriptions = new string[](count) */\n      swap2\n      pop\n        /* \".git/MyContracts/KenyaProcurementTransparency0.sol\":18691:18700  uint256 i */\n      0x00\n        /* \".git/MyContracts/KenyaProcurementTransparency0.sol\":18686:18909  for (uint256 i = 0; i < count; i++) {... */\n    tag_496:\n        /* \".git/MyContracts/KenyaProcurementTransparency0.sol\":18710:18715  count */\n      dup2\n        /* \".git/MyContracts/KenyaProcurementTransparency0.sol\":18706:18707  i */\n      dup2\n        /* \".git/MyContracts/KenyaProcurementTransparency0.sol\":18706:18715  i < count */\n      lt\n        /* \".git/MyContracts/KenyaProcurementTransparency0.sol\":18686:18909  for (uint256 i = 0; i < count; i++) {... */\n      iszero\n      tag_497\n      jumpi\n        /* \".git/MyContracts/KenyaProcurementTransparency0.sol\":18737:18751  address bidder */\n      0x00\n        /* \".git/MyContracts/KenyaProcurementTransparency0.sol\":18754:18764  bidderList */\n      0x0d\n        /* \".git/MyContracts/KenyaProcurementTransparency0.sol\":18765:18766  i */\n      dup3\n        /* \".git/MyContracts/KenyaProcurementTransparency0.sol\":18754:18767  bidderList[i] */\n      dup2\n      sload\n      dup2\n      lt\n      tag_500\n      jumpi\n      tag_500\n      tag_386\n      jump\t// in\n    tag_500:\n      swap1\n      0x00\n      mstore\n      keccak256(0x00, 0x20)\n      add\n      0x00\n      swap1\n      sload\n      swap1\n      0x0100\n      exp\n      swap1\n      div\n      sub(shl(0xa0, 0x01), 0x01)\n      and\n        /* \".git/MyContracts/KenyaProcurementTransparency0.sol\":18737:18767  address bidder = bidderList[i] */\n      swap1\n      pop\n        /* \".git/MyContracts/KenyaProcurementTransparency0.sol\":18795:18796  i */\n      dup2\n        /* \".git/MyContracts/KenyaProcurementTransparency0.sol\":18782:18789  indexes */\n      dup7\n        /* \".git/MyContracts/KenyaProcurementTransparency0.sol\":18790:18791  i */\n      dup4\n        /* \".git/MyContracts/KenyaProcurementTransparency0.sol\":18782:18792  indexes[i] */\n      dup2\n      mload\n      dup2\n      lt\n      tag_503\n      jumpi\n      tag_503\n      tag_386\n      jump\t// in\n    tag_503:\n      0x20\n      mul\n      0x20\n      add\n      add\n        /* \".git/MyContracts/KenyaProcurementTransparency0.sol\":18782:18796  indexes[i] = i */\n      dup2\n      dup2\n      mstore\n      pop\n      pop\n        /* \".git/MyContracts/KenyaProcurementTransparency0.sol\":18832:18838  bidder */\n      dup1\n        /* \".git/MyContracts/KenyaProcurementTransparency0.sol\":18811:18826  bidderAddresses */\n      dup6\n        /* \".git/MyContracts/KenyaProcurementTransparency0.sol\":18827:18828  i */\n      dup4\n        /* \".git/MyContracts/KenyaProcurementTransparency0.sol\":18811:18829  bidderAddresses[i] */\n      dup2\n      mload\n      dup2\n      lt\n      tag_505\n      jumpi\n      tag_505\n      tag_386\n      jump\t// in\n    tag_505:\n      sub(shl(0xa0, 0x01), 0x01)\n        /* \".git/MyContracts/KenyaProcurementTransparency0.sol\":18811:18838  bidderAddresses[i] = bidder */\n      swap3\n      dup4\n      and\n        /* \".git/MyContracts/KenyaProcurementTransparency0.sol\":18811:18829  bidderAddresses[i] */\n      0x20\n      swap2\n      dup3\n      mul\n      swap3\n      swap1\n      swap3\n      add\n      dup2\n      add\n        /* \".git/MyContracts/KenyaProcurementTransparency0.sol\":18811:18838  bidderAddresses[i] = bidder */\n      swap2\n      swap1\n      swap2\n      mstore\n        /* \".git/MyContracts/KenyaProcurementTransparency0.sol\":18871:18897  bidderDescriptions[bidder] */\n      swap1\n      dup3\n      and\n      0x00\n      swap1\n      dup2\n      mstore\n        /* \".git/MyContracts/KenyaProcurementTransparency0.sol\":18871:18889  bidderDescriptions */\n      0x0b\n        /* \".git/MyContracts/KenyaProcurementTransparency0.sol\":18871:18897  bidderDescriptions[bidder] */\n      swap1\n      swap2\n      mstore\n      0x40\n      swap1\n      keccak256\n        /* \".git/MyContracts/KenyaProcurementTransparency0.sol\":18853:18897  descriptions[i] = bidderDescriptions[bidder] */\n      dup1\n      sload\n      tag_506\n      swap1\n      tag_273\n      jump\t// in\n    tag_506:\n      dup1\n      0x1f\n      add\n      0x20\n      dup1\n      swap2\n      div\n      mul\n      0x20\n      add\n      mload(0x40)\n      swap1\n      dup2\n      add\n      0x40\n      mstore\n      dup1\n      swap3\n      swap2\n      swap1\n      dup2\n      dup2\n      mstore\n      0x20\n      add\n      dup3\n      dup1\n      sload\n      tag_507\n      swap1\n      tag_273\n      jump\t// in\n    tag_507:\n      dup1\n      iszero\n      tag_508\n      jumpi\n      dup1\n      0x1f\n      lt\n      tag_509\n      jumpi\n      0x0100\n      dup1\n      dup4\n      sload\n      div\n      mul\n      dup4\n      mstore\n      swap2\n      0x20\n      add\n      swap2\n      jump(tag_508)\n    tag_509:\n      dup3\n      add\n      swap2\n      swap1\n      0x00\n      mstore\n      keccak256(0x00, 0x20)\n      swap1\n    tag_510:\n      dup2\n      sload\n      dup2\n      mstore\n      swap1\n      0x01\n      add\n      swap1\n      0x20\n      add\n      dup1\n      dup4\n      gt\n      tag_510\n      jumpi\n      dup3\n      swap1\n      sub\n      0x1f\n      and\n      dup3\n      add\n      swap2\n    tag_508:\n      pop\n      pop\n      pop\n      pop\n      pop\n        /* \".git/MyContracts/KenyaProcurementTransparency0.sol\":18853:18865  descriptions */\n      dup5\n        /* \".git/MyContracts/KenyaProcurementTransparency0.sol\":18866:18867  i */\n      dup4\n        /* \".git/MyContracts/KenyaProcurementTransparency0.sol\":18853:18868  descriptions[i] */\n      dup2\n      mload\n      dup2\n      lt\n      tag_512\n      jumpi\n      tag_512\n      tag_386\n      jump\t// in\n    tag_512:\n      0x20\n      swap1\n      dup2\n      mul\n      swap2\n      swap1\n      swap2\n      add\n      add\n        /* \".git/MyContracts/KenyaProcurementTransparency0.sol\":18853:18897  descriptions[i] = bidderDescriptions[bidder] */\n      mstore\n      pop\n        /* \".git/MyContracts/KenyaProcurementTransparency0.sol\":18717:18720  i++ */\n      0x01\n      add\n        /* \".git/MyContracts/KenyaProcurementTransparency0.sol\":18686:18909  for (uint256 i = 0; i < count; i++) {... */\n      jump(tag_496)\n    tag_497:\n      pop\n        /* \".git/MyContracts/KenyaProcurementTransparency0.sol\":18921:18968  return (indexes, bidderAddresses, descriptions) */\n      pop\n        /* \".git/MyContracts/KenyaProcurementTransparency0.sol\":18262:18976  function getAllRegisteredBidders()... */\n      swap1\n      swap2\n      swap3\n      jump\t// out\n        /* \".git/MyContracts/KenyaProcurementTransparency0.sol\":16609:16662  function fundContract() external payable onlyAdmin {} */\n    tag_175:\n        /* \".git/MyContracts/KenyaProcurementTransparency0.sol\":3715:3720  admin */\n      and(sub(shl(0xa0, 0x01), 0x01), sload(0x00))\n        /* \".git/MyContracts/KenyaProcurementTransparency0.sol\":3701:3711  msg.sender */\n      caller\n        /* \".git/MyContracts/KenyaProcurementTransparency0.sol\":3701:3720  msg.sender != admin */\n      eq\n        /* \".git/MyContracts/KenyaProcurementTransparency0.sol\":3697:3740  if (msg.sender != admin) revert OnlyAdmin() */\n      tag_514\n      jumpi\n        /* \".git/MyContracts/KenyaProcurementTransparency0.sol\":3729:3740  OnlyAdmin() */\n      mload(0x40)\n      shl(0xe0, 0x47556579)\n      dup2\n      mstore\n      0x04\n      add\n      mload(0x40)\n      dup1\n      swap2\n      sub\n      swap1\n      revert\n        /* \".git/MyContracts/KenyaProcurementTransparency0.sol\":3697:3740  if (msg.sender != admin) revert OnlyAdmin() */\n    tag_514:\n        /* \".git/MyContracts/KenyaProcurementTransparency0.sol\":16609:16662  function fundContract() external payable onlyAdmin {} */\n      jump\t// out\n        /* \".git/MyContracts/KenyaProcurementTransparency0.sol\":14045:14336  function awardTender()... */\n    tag_186:\n        /* \".git/MyContracts/KenyaProcurementTransparency0.sol\":3715:3720  admin */\n      and(sub(shl(0xa0, 0x01), 0x01), sload(0x00))\n        /* \".git/MyContracts/KenyaProcurementTransparency0.sol\":3701:3711  msg.sender */\n      caller\n        /* \".git/MyContracts/KenyaProcurementTransparency0.sol\":3701:3720  msg.sender != admin */\n      eq\n        /* \".git/MyContracts/KenyaProcurementTransparency0.sol\":3697:3740  if (msg.sender != admin) revert OnlyAdmin() */\n      tag_518\n      jumpi\n        /* \".git/MyContracts/KenyaProcurementTransparency0.sol\":3729:3740  OnlyAdmin() */\n      mload(0x40)\n      shl(0xe0, 0x47556579)\n      dup2\n      mstore\n      0x04\n      add\n      mload(0x40)\n      dup1\n      swap2\n      sub\n      swap1\n      revert\n        /* \".git/MyContracts/KenyaProcurementTransparency0.sol\":3697:3740  if (msg.sender != admin) revert OnlyAdmin() */\n    tag_518:\n        /* \".git/MyContracts/KenyaProcurementTransparency0.sol\":4328:4341  tender.exists */\n      and(0xff, sload(0x09))\n        /* \".git/MyContracts/KenyaProcurementTransparency0.sol\":4323:4370  if (!tender.exists) revert TenderDoesNotExist() */\n      tag_520\n      jumpi\n        /* \".git/MyContracts/KenyaProcurementTransparency0.sol\":4350:4370  TenderDoesNotExist() */\n      mload(0x40)\n      shl(0xe1, 0x55e9e641)\n      dup2\n      mstore\n      0x04\n      add\n      mload(0x40)\n      dup1\n      swap2\n      sub\n      swap1\n      revert\n        /* \".git/MyContracts/KenyaProcurementTransparency0.sol\":4323:4370  if (!tender.exists) revert TenderDoesNotExist() */\n    tag_520:\n        /* \".git/MyContracts/KenyaProcurementTransparency0.sol\":14145:14167  TenderStatus.Evaluated */\n      0x02\n      dup1\n        /* \".git/MyContracts/KenyaProcurementTransparency0.sol\":5058:5064  status */\n      sload(0x02)\n      shl(0xa0, 0x01)\n      swap1\n      div\n      0xff\n      and\n        /* \".git/MyContracts/KenyaProcurementTransparency0.sol\":5058:5075  status != _status */\n      0x07\n      dup2\n      gt\n      iszero\n      tag_525\n      jumpi\n      tag_525\n      tag_221\n      jump\t// in\n    tag_525:\n      eq\n        /* \".git/MyContracts/KenyaProcurementTransparency0.sol\":5054:5104  if (status != _status) revert InvalidTenderStage() */\n      tag_526\n      jumpi\n        /* \".git/MyContracts/KenyaProcurementTransparency0.sol\":5084:5104  InvalidTenderStage() */\n      mload(0x40)\n      shl(0xe6, 0x0187fa83)\n      dup2\n      mstore\n      0x04\n      add\n      mload(0x40)\n      dup1\n      swap2\n      sub\n      swap1\n      revert\n        /* \".git/MyContracts/KenyaProcurementTransparency0.sol\":5054:5104  if (status != _status) revert InvalidTenderStage() */\n    tag_526:\n        /* \".git/MyContracts/KenyaProcurementTransparency0.sol\":14193:14199  winner */\n      and(sub(shl(0xa0, 0x01), 0x01), sload(0x0e))\n        /* \".git/MyContracts/KenyaProcurementTransparency0.sol\":14185:14236  require(winner != address(0), \"No winner selected\") */\n      tag_528\n      jumpi\n      mload(0x40)\n      shl(0xe5, 0x461bcd)\n      dup2\n      mstore\n        /* \"#utility.yul\":23930:23932   */\n      0x20\n        /* \".git/MyContracts/KenyaProcurementTransparency0.sol\":14185:14236  require(winner != address(0), \"No winner selected\") */\n      0x04\n      dup3\n      add\n        /* \"#utility.yul\":23912:23933   */\n      mstore\n        /* \"#utility.yul\":23969:23971   */\n      0x12\n        /* \"#utility.yul\":23949:23967   */\n      0x24\n      dup3\n      add\n        /* \"#utility.yul\":23942:23972   */\n      mstore\n      shl(0x72, 0x139bc81dda5b9b995c881cd95b1958dd1959)\n        /* \"#utility.yul\":23988:24006   */\n      0x44\n      dup3\n      add\n        /* \"#utility.yul\":23981:24029   */\n      mstore\n        /* \"#utility.yul\":24046:24064   */\n      0x64\n      add\n        /* \".git/MyContracts/KenyaProcurementTransparency0.sol\":14185:14236  require(winner != address(0), \"No winner selected\") */\n      tag_227\n        /* \"#utility.yul\":23728:24070   */\n      jump\n        /* \".git/MyContracts/KenyaProcurementTransparency0.sol\":14185:14236  require(winner != address(0), \"No winner selected\") */\n    tag_528:\n        /* \".git/MyContracts/KenyaProcurementTransparency0.sol\":14249:14255  status */\n      0x02\n        /* \".git/MyContracts/KenyaProcurementTransparency0.sol\":14249:14278  status = TenderStatus.Awarded */\n      dup1\n      sload\n      not(shl(0xa0, 0xff))\n      and\n      shl(0xa0, 0x03)\n      or\n      swap1\n      sstore\n        /* \".git/MyContracts/KenyaProcurementTransparency0.sol\":14310:14316  winner */\n      sload(0x0e)\n        /* \".git/MyContracts/KenyaProcurementTransparency0.sol\":14318:14327  lowestBid */\n      sload(0x0f)\n        /* \".git/MyContracts/KenyaProcurementTransparency0.sol\":14296:14328  TenderAwarded(winner, lowestBid) */\n      0x40\n      dup1\n      mload\n      sub(shl(0xa0, 0x01), 0x01)\n        /* \".git/MyContracts/KenyaProcurementTransparency0.sol\":14310:14316  winner */\n      swap1\n      swap4\n      and\n        /* \"#utility.yul\":12322:12373   */\n      dup4\n      mstore\n        /* \"#utility.yul\":12404:12406   */\n      0x20\n        /* \"#utility.yul\":12389:12407   */\n      dup4\n      add\n        /* \"#utility.yul\":12382:12416   */\n      swap2\n      swap1\n      swap2\n      mstore\n        /* \".git/MyContracts/KenyaProcurementTransparency0.sol\":14296:14328  TenderAwarded(winner, lowestBid) */\n      0xb973b46a8f1e88b970a622bf0cf618b80895efa9af0b01edd9b2608fb8a6914e\n      swap2\n        /* \"#utility.yul\":12295:12313   */\n      add\n        /* \".git/MyContracts/KenyaProcurementTransparency0.sol\":14296:14328  TenderAwarded(winner, lowestBid) */\n      tag_349\n        /* \"#utility.yul\":12148:12422   */\n      jump\n        /* \".git/MyContracts/KenyaProcurementTransparency0.sol\":16755:17311  function releasePayment()... */\n    tag_189:\n        /* \".git/MyContracts/KenyaProcurementTransparency0.sol\":3715:3720  admin */\n      and(sub(shl(0xa0, 0x01), 0x01), sload(0x00))\n        /* \".git/MyContracts/KenyaProcurementTransparency0.sol\":3701:3711  msg.sender */\n      caller\n        /* \".git/MyContracts/KenyaProcurementTransparency0.sol\":3701:3720  msg.sender != admin */\n      eq\n        /* \".git/MyContracts/KenyaProcurementTransparency0.sol\":3697:3740  if (msg.sender != admin) revert OnlyAdmin() */\n      tag_535\n      jumpi\n        /* \".git/MyContracts/KenyaProcurementTransparency0.sol\":3729:3740  OnlyAdmin() */\n      mload(0x40)\n      shl(0xe0, 0x47556579)\n      dup2\n      mstore\n      0x04\n      add\n      mload(0x40)\n      dup1\n      swap2\n      sub\n      swap1\n      revert\n        /* \".git/MyContracts/KenyaProcurementTransparency0.sol\":3697:3740  if (msg.sender != admin) revert OnlyAdmin() */\n    tag_535:\n        /* \".git/MyContracts/KenyaProcurementTransparency0.sol\":4328:4341  tender.exists */\n      and(0xff, sload(0x09))\n        /* \".git/MyContracts/KenyaProcurementTransparency0.sol\":4323:4370  if (!tender.exists) revert TenderDoesNotExist() */\n      tag_537\n      jumpi\n        /* \".git/MyContracts/KenyaProcurementTransparency0.sol\":4350:4370  TenderDoesNotExist() */\n      mload(0x40)\n      shl(0xe1, 0x55e9e641)\n      dup2\n      mstore\n      0x04\n      add\n      mload(0x40)\n      dup1\n      swap2\n      sub\n      swap1\n      revert\n        /* \".git/MyContracts/KenyaProcurementTransparency0.sol\":4323:4370  if (!tender.exists) revert TenderDoesNotExist() */\n    tag_537:\n        /* \".git/MyContracts/KenyaProcurementTransparency0.sol\":16858:16879  TenderStatus.Accepted */\n      0x06\n      dup1\n        /* \".git/MyContracts/KenyaProcurementTransparency0.sol\":5058:5064  status */\n      sload(0x02)\n      shl(0xa0, 0x01)\n      swap1\n      div\n      0xff\n      and\n        /* \".git/MyContracts/KenyaProcurementTransparency0.sol\":5058:5075  status != _status */\n      0x07\n      dup2\n      gt\n      iszero\n      tag_542\n      jumpi\n      tag_542\n      tag_221\n      jump\t// in\n    tag_542:\n      eq\n        /* \".git/MyContracts/KenyaProcurementTransparency0.sol\":5054:5104  if (status != _status) revert InvalidTenderStage() */\n      tag_543\n      jumpi\n        /* \".git/MyContracts/KenyaProcurementTransparency0.sol\":5084:5104  InvalidTenderStage() */\n      mload(0x40)\n      shl(0xe6, 0x0187fa83)\n      dup2\n      mstore\n      0x04\n      add\n      mload(0x40)\n      dup1\n      swap2\n      sub\n      swap1\n      revert\n        /* \".git/MyContracts/KenyaProcurementTransparency0.sol\":5054:5104  if (status != _status) revert InvalidTenderStage() */\n    tag_543:\n        /* \".git/MyContracts/KenyaProcurementTransparency0.sol\":16906:16921  paymentReleased */\n      and(0xff, sload(0x13))\n        /* \".git/MyContracts/KenyaProcurementTransparency0.sol\":16905:16921  !paymentReleased */\n      iszero\n        /* \".git/MyContracts/KenyaProcurementTransparency0.sol\":16897:16950  require(!paymentReleased, \"Payment already released\") */\n      tag_545\n      jumpi\n      mload(0x40)\n      shl(0xe5, 0x461bcd)\n      dup2\n      mstore\n        /* \"#utility.yul\":24277:24279   */\n      0x20\n        /* \".git/MyContracts/KenyaProcurementTransparency0.sol\":16897:16950  require(!paymentReleased, \"Payment already released\") */\n      0x04\n      dup3\n      add\n        /* \"#utility.yul\":24259:24280   */\n      mstore\n        /* \"#utility.yul\":24316:24318   */\n      0x18\n        /* \"#utility.yul\":24296:24314   */\n      0x24\n      dup3\n      add\n        /* \"#utility.yul\":24289:24319   */\n      mstore\n        /* \"#utility.yul\":24355:24381   */\n      0x5061796d656e7420616c72656164792072656c65617365640000000000000000\n        /* \"#utility.yul\":24335:24353   */\n      0x44\n      dup3\n      add\n        /* \"#utility.yul\":24328:24382   */\n      mstore\n        /* \"#utility.yul\":24399:24417   */\n      0x64\n      add\n        /* \".git/MyContracts/KenyaProcurementTransparency0.sol\":16897:16950  require(!paymentReleased, \"Payment already released\") */\n      tag_227\n        /* \"#utility.yul\":24075:24423   */\n      jump\n        /* \".git/MyContracts/KenyaProcurementTransparency0.sol\":16897:16950  require(!paymentReleased, \"Payment already released\") */\n    tag_545:\n        /* \".git/MyContracts/KenyaProcurementTransparency0.sol\":16969:16975  winner */\n      and(sub(shl(0xa0, 0x01), 0x01), sload(0x0e))\n        /* \".git/MyContracts/KenyaProcurementTransparency0.sol\":16961:17008  require(winner != address(0), \"Winner not set\") */\n      tag_548\n      jumpi\n      mload(0x40)\n      shl(0xe5, 0x461bcd)\n      dup2\n      mstore\n        /* \"#utility.yul\":24630:24632   */\n      0x20\n        /* \".git/MyContracts/KenyaProcurementTransparency0.sol\":16961:17008  require(winner != address(0), \"Winner not set\") */\n      0x04\n      dup3\n      add\n        /* \"#utility.yul\":24612:24633   */\n      mstore\n        /* \"#utility.yul\":24669:24671   */\n      0x0e\n        /* \"#utility.yul\":24649:24667   */\n      0x24\n      dup3\n      add\n        /* \"#utility.yul\":24642:24672   */\n      mstore\n      shl(0x92, 0x15da5b9b995c881b9bdd081cd95d)\n        /* \"#utility.yul\":24688:24706   */\n      0x44\n      dup3\n      add\n        /* \"#utility.yul\":24681:24725   */\n      mstore\n        /* \"#utility.yul\":24742:24760   */\n      0x64\n      add\n        /* \".git/MyContracts/KenyaProcurementTransparency0.sol\":16961:17008  require(winner != address(0), \"Winner not set\") */\n      tag_227\n        /* \"#utility.yul\":24428:24766   */\n      jump\n        /* \".git/MyContracts/KenyaProcurementTransparency0.sol\":16961:17008  require(winner != address(0), \"Winner not set\") */\n    tag_548:\n        /* \".git/MyContracts/KenyaProcurementTransparency0.sol\":17052:17073  tender.contractAmount */\n      sload(0x07)\n        /* \".git/MyContracts/KenyaProcurementTransparency0.sol\":17027:17048  address(this).balance */\n      selfbalance\n        /* \".git/MyContracts/KenyaProcurementTransparency0.sol\":17027:17073  address(this).balance >= tender.contractAmount */\n      lt\n      iszero\n        /* \".git/MyContracts/KenyaProcurementTransparency0.sol\":17019:17107  require(address(this).balance >= tender.contractAmount, \"Insufficient contract balance\") */\n      tag_551\n      jumpi\n      mload(0x40)\n      shl(0xe5, 0x461bcd)\n      dup2\n      mstore\n        /* \"#utility.yul\":24973:24975   */\n      0x20\n        /* \".git/MyContracts/KenyaProcurementTransparency0.sol\":17019:17107  require(address(this).balance >= tender.contractAmount, \"Insufficient contract balance\") */\n      0x04\n      dup3\n      add\n        /* \"#utility.yul\":24955:24976   */\n      mstore\n        /* \"#utility.yul\":25012:25014   */\n      0x1d\n        /* \"#utility.yul\":24992:25010   */\n      0x24\n      dup3\n      add\n        /* \"#utility.yul\":24985:25015   */\n      mstore\n        /* \"#utility.yul\":25051:25082   */\n      0x496e73756666696369656e7420636f6e74726163742062616c616e6365000000\n        /* \"#utility.yul\":25031:25049   */\n      0x44\n      dup3\n      add\n        /* \"#utility.yul\":25024:25083   */\n      mstore\n        /* \"#utility.yul\":25100:25118   */\n      0x64\n      add\n        /* \".git/MyContracts/KenyaProcurementTransparency0.sol\":17019:17107  require(address(this).balance >= tender.contractAmount, \"Insufficient contract balance\") */\n      tag_227\n        /* \"#utility.yul\":24771:25124   */\n      jump\n        /* \".git/MyContracts/KenyaProcurementTransparency0.sol\":17019:17107  require(address(this).balance >= tender.contractAmount, \"Insufficient contract balance\") */\n    tag_551:\n        /* \".git/MyContracts/KenyaProcurementTransparency0.sol\":17120:17135  paymentReleased */\n      0x13\n        /* \".git/MyContracts/KenyaProcurementTransparency0.sol\":17120:17142  paymentReleased = true */\n      dup1\n      sload\n      not(0xff)\n      and\n        /* \".git/MyContracts/KenyaProcurementTransparency0.sol\":17138:17142  true */\n      0x01\n        /* \".git/MyContracts/KenyaProcurementTransparency0.sol\":17120:17142  paymentReleased = true */\n      or\n      swap1\n      sstore\n        /* \".git/MyContracts/KenyaProcurementTransparency0.sol\":17153:17159  status */\n      0x02\n        /* \".git/MyContracts/KenyaProcurementTransparency0.sol\":17153:17179  status = TenderStatus.Paid */\n      dup1\n      sload\n      not(shl(0xa0, 0xff))\n      and\n      shl(0xa0, 0x07)\n      or\n      swap1\n      sstore\n        /* \".git/MyContracts/KenyaProcurementTransparency0.sol\":17200:17206  winner */\n      sload(0x0e)\n        /* \".git/MyContracts/KenyaProcurementTransparency0.sol\":17162:17179  TenderStatus.Paid */\n      0x07\n        /* \".git/MyContracts/KenyaProcurementTransparency0.sol\":17217:17238  tender.contractAmount */\n      sload\n        /* \".git/MyContracts/KenyaProcurementTransparency0.sol\":17192:17239  payable(winner).transfer(tender.contractAmount) */\n      mload(0x40)\n      sub(shl(0xa0, 0x01), 0x01)\n        /* \".git/MyContracts/KenyaProcurementTransparency0.sol\":17200:17206  winner */\n      swap1\n      swap3\n      and\n      swap2\n        /* \".git/MyContracts/KenyaProcurementTransparency0.sol\":17192:17239  payable(winner).transfer(tender.contractAmount) */\n      dup2\n      iszero\n      0x08fc\n      mul\n      swap2\n        /* \".git/MyContracts/KenyaProcurementTransparency0.sol\":17217:17238  tender.contractAmount */\n      swap1\n      0x00\n        /* \".git/MyContracts/KenyaProcurementTransparency0.sol\":17192:17239  payable(winner).transfer(tender.contractAmount) */\n      dup2\n      dup2\n      dup2\n        /* \".git/MyContracts/KenyaProcurementTransparency0.sol\":17217:17238  tender.contractAmount */\n      dup6\n        /* \".git/MyContracts/KenyaProcurementTransparency0.sol\":17200:17206  winner */\n      dup9\n        /* \".git/MyContracts/KenyaProcurementTransparency0.sol\":17192:17239  payable(winner).transfer(tender.contractAmount) */\n      dup9\n      call\n      swap4\n      pop\n      pop\n      pop\n      pop\n      iszero\n      dup1\n      iszero\n      tag_557\n      jumpi\n      returndatacopy(0x00, 0x00, returndatasize)\n      revert(0x00, returndatasize)\n    tag_557:\n      pop\n        /* \".git/MyContracts/KenyaProcurementTransparency0.sol\":17273:17279  winner */\n      sload(0x0e)\n        /* \".git/MyContracts/KenyaProcurementTransparency0.sol\":17281:17302  tender.contractAmount */\n      sload(0x07)\n        /* \".git/MyContracts/KenyaProcurementTransparency0.sol\":17257:17303  PaymentReleased(winner, tender.contractAmount) */\n      0x40\n      dup1\n      mload\n      sub(shl(0xa0, 0x01), 0x01)\n        /* \".git/MyContracts/KenyaProcurementTransparency0.sol\":17273:17279  winner */\n      swap1\n      swap4\n      and\n        /* \"#utility.yul\":12322:12373   */\n      dup4\n      mstore\n        /* \"#utility.yul\":12404:12406   */\n      0x20\n        /* \"#utility.yul\":12389:12407   */\n      dup4\n      add\n        /* \"#utility.yul\":12382:12416   */\n      swap2\n      swap1\n      swap2\n      mstore\n        /* \".git/MyContracts/KenyaProcurementTransparency0.sol\":17257:17303  PaymentReleased(winner, tender.contractAmount) */\n      0xdf20fd1e76bc69d672e4814fafb2c449bba3a5369d8359adf9e05e6fde87b056\n      swap2\n        /* \"#utility.yul\":12295:12313   */\n      add\n        /* \".git/MyContracts/KenyaProcurementTransparency0.sol\":17257:17303  PaymentReleased(winner, tender.contractAmount) */\n      tag_349\n        /* \"#utility.yul\":12148:12422   */\n      jump\n        /* \".git/MyContracts/KenyaProcurementTransparency0.sol\":1556:1583  address[] public bidderList */\n    tag_194:\n      0x0d\n      dup2\n      dup2\n      sload\n      dup2\n      lt\n      tag_559\n      jumpi\n      0x00\n      dup1\n      revert\n    tag_559:\n      0x00\n      swap2\n      dup3\n      mstore\n      0x20\n      swap1\n      swap2\n      keccak256\n      add\n      sload\n      sub(shl(0xa0, 0x01), 0x01)\n      and\n      swap1\n      pop\n      dup2\n      jump\t// out\n        /* \".git/MyContracts/KenyaProcurementTransparency0.sol\":20724:21479  function getTenderSummary()... */\n    tag_202:\n        /* \".git/MyContracts/KenyaProcurementTransparency0.sol\":20816:20842  string memory tenderNumber */\n      0x60\n        /* \".git/MyContracts/KenyaProcurementTransparency0.sol\":20857:20876  string memory title */\n      dup1\n        /* \".git/MyContracts/KenyaProcurementTransparency0.sol\":20891:20916  string memory description */\n      0x60\n        /* \".git/MyContracts/KenyaProcurementTransparency0.sol\":20931:20957  uint256 submissionDeadline */\n      0x00\n        /* \".git/MyContracts/KenyaProcurementTransparency0.sol\":20972:20994  uint256 contractAmount */\n      0x00\n        /* \".git/MyContracts/KenyaProcurementTransparency0.sol\":21009:21040  string memory qualificationNote */\n      0x60\n        /* \".git/MyContracts/KenyaProcurementTransparency0.sol\":21055:21081  TenderStatus currentStatus */\n      0x00\n        /* \".git/MyContracts/KenyaProcurementTransparency0.sol\":21096:21117  address currentWinner */\n      0x00\n        /* \".git/MyContracts/KenyaProcurementTransparency0.sol\":21132:21150  uint256 winningBid */\n      0x00\n        /* \".git/MyContracts/KenyaProcurementTransparency0.sol\":21200:21206  tender */\n      0x03\n        /* \".git/MyContracts/KenyaProcurementTransparency0.sol\":21200:21219  tender.tenderNumber */\n      0x00\n      add\n        /* \".git/MyContracts/KenyaProcurementTransparency0.sol\":21234:21240  tender */\n      0x03\n        /* \".git/MyContracts/KenyaProcurementTransparency0.sol\":21234:21246  tender.title */\n      0x01\n      add\n        /* \".git/MyContracts/KenyaProcurementTransparency0.sol\":21261:21267  tender */\n      0x03\n        /* \".git/MyContracts/KenyaProcurementTransparency0.sol\":21261:21279  tender.description */\n      0x02\n      add\n        /* \".git/MyContracts/KenyaProcurementTransparency0.sol\":21294:21300  tender */\n      0x03\n        /* \".git/MyContracts/KenyaProcurementTransparency0.sol\":21294:21319  tender.submissionDeadline */\n      dup1\n      add\n      sload\n        /* \".git/MyContracts/KenyaProcurementTransparency0.sol\":21334:21340  tender */\n      0x03\n        /* \".git/MyContracts/KenyaProcurementTransparency0.sol\":21334:21355  tender.contractAmount */\n      0x04\n      add\n      sload\n        /* \".git/MyContracts/KenyaProcurementTransparency0.sol\":21370:21376  tender */\n      0x03\n        /* \".git/MyContracts/KenyaProcurementTransparency0.sol\":21370:21394  tender.qualificationNote */\n      0x05\n      add\n        /* \".git/MyContracts/KenyaProcurementTransparency0.sol\":21409:21415  status */\n      0x02\n      0x14\n      swap1\n      sload\n      swap1\n      0x0100\n      exp\n      swap1\n      div\n      0xff\n      and\n        /* \".git/MyContracts/KenyaProcurementTransparency0.sol\":21430:21436  winner */\n      0x0e\n      0x00\n      swap1\n      sload\n      swap1\n      0x0100\n      exp\n      swap1\n      div\n      sub(shl(0xa0, 0x01), 0x01)\n      and\n        /* \".git/MyContracts/KenyaProcurementTransparency0.sol\":21451:21460  lowestBid */\n      sload(0x0f)\n        /* \".git/MyContracts/KenyaProcurementTransparency0.sol\":21178:21471  return (... */\n      dup9\n      dup1\n      sload\n      tag_562\n      swap1\n      tag_273\n      jump\t// in\n    tag_562:\n      dup1\n      0x1f\n      add\n      0x20\n      dup1\n      swap2\n      div\n      mul\n      0x20\n      add\n      mload(0x40)\n      swap1\n      dup2\n      add\n      0x40\n      mstore\n      dup1\n      swap3\n      swap2\n      swap1\n      dup2\n      dup2\n      mstore\n      0x20\n      add\n      dup3\n      dup1\n      sload\n      tag_563\n      swap1\n      tag_273\n      jump\t// in\n    tag_563:\n      dup1\n      iszero\n      tag_564\n      jumpi\n      dup1\n      0x1f\n      lt\n      tag_565\n      jumpi\n      0x0100\n      dup1\n      dup4\n      sload\n      div\n      mul\n      dup4\n      mstore\n      swap2\n      0x20\n      add\n      swap2\n      jump(tag_564)\n    tag_565:\n      dup3\n      add\n      swap2\n      swap1\n      0x00\n      mstore\n      keccak256(0x00, 0x20)\n      swap1\n    tag_566:\n      dup2\n      sload\n      dup2\n      mstore\n      swap1\n      0x01\n      add\n      swap1\n      0x20\n      add\n      dup1\n      dup4\n      gt\n      tag_566\n      jumpi\n      dup3\n      swap1\n      sub\n      0x1f\n      and\n      dup3\n      add\n      swap2\n    tag_564:\n      pop\n      pop\n      pop\n      pop\n      pop\n      swap9\n      pop\n      dup8\n      dup1\n      sload\n      tag_567\n      swap1\n      tag_273\n      jump\t// in\n    tag_567:\n      dup1\n      0x1f\n      add\n      0x20\n      dup1\n      swap2\n      div\n      mul\n      0x20\n      add\n      mload(0x40)\n      swap1\n      dup2\n      add\n      0x40\n      mstore\n      dup1\n      swap3\n      swap2\n      swap1\n      dup2\n      dup2\n      mstore\n      0x20\n      add\n      dup3\n      dup1\n      sload\n      tag_568\n      swap1\n      tag_273\n      jump\t// in\n    tag_568:\n      dup1\n      iszero\n      tag_569\n      jumpi\n      dup1\n      0x1f\n      lt\n      tag_570\n      jumpi\n      0x0100\n      dup1\n      dup4\n      sload\n      div\n      mul\n      dup4\n      mstore\n      swap2\n      0x20\n      add\n      swap2\n      jump(tag_569)\n    tag_570:\n      dup3\n      add\n      swap2\n      swap1\n      0x00\n      mstore\n      keccak256(0x00, 0x20)\n      swap1\n    tag_571:\n      dup2\n      sload\n      dup2\n      mstore\n      swap1\n      0x01\n      add\n      swap1\n      0x20\n      add\n      dup1\n      dup4\n      gt\n      tag_571\n      jumpi\n      dup3\n      swap1\n      sub\n      0x1f\n      and\n      dup3\n      add\n      swap2\n    tag_569:\n      pop\n      pop\n      pop\n      pop\n      pop\n      swap8\n      pop\n      dup7\n      dup1\n      sload\n      tag_572\n      swap1\n      tag_273\n      jump\t// in\n    tag_572:\n      dup1\n      0x1f\n      add\n      0x20\n      dup1\n      swap2\n      div\n      mul\n      0x20\n      add\n      mload(0x40)\n      swap1\n      dup2\n      add\n      0x40\n      mstore\n      dup1\n      swap3\n      swap2\n      swap1\n      dup2\n      dup2\n      mstore\n      0x20\n      add\n      dup3\n      dup1\n      sload\n      tag_573\n      swap1\n      tag_273\n      jump\t// in\n    tag_573:\n      dup1\n      iszero\n      tag_574\n      jumpi\n      dup1\n      0x1f\n      lt\n      tag_575\n      jumpi\n      0x0100\n      dup1\n      dup4\n      sload\n      div\n      mul\n      dup4\n      mstore\n      swap2\n      0x20\n      add\n      swap2\n      jump(tag_574)\n    tag_575:\n      dup3\n      add\n      swap2\n      swap1\n      0x00\n      mstore\n      keccak256(0x00, 0x20)\n      swap1\n    tag_576:\n      dup2\n      sload\n      dup2\n      mstore\n      swap1\n      0x01\n      add\n      swap1\n      0x20\n      add\n      dup1\n      dup4\n      gt\n      tag_576\n      jumpi\n      dup3\n      swap1\n      sub\n      0x1f\n      and\n      dup3\n      add\n      swap2\n    tag_574:\n      pop\n      pop\n      pop\n      pop\n      pop\n      swap7\n      pop\n      dup4\n      dup1\n      sload\n      tag_577\n      swap1\n      tag_273\n      jump\t// in\n    tag_577:\n      dup1\n      0x1f\n      add\n      0x20\n      dup1\n      swap2\n      div\n      mul\n      0x20\n      add\n      mload(0x40)\n      swap1\n      dup2\n      add\n      0x40\n      mstore\n      dup1\n      swap3\n      swap2\n      swap1\n      dup2\n      dup2\n      mstore\n      0x20\n      add\n      dup3\n      dup1\n      sload\n      tag_578\n      swap1\n      tag_273\n      jump\t// in\n    tag_578:\n      dup1\n      iszero\n      tag_579\n      jumpi\n      dup1\n      0x1f\n      lt\n      tag_580\n      jumpi\n      0x0100\n      dup1\n      dup4\n      sload\n      div\n      mul\n      dup4\n      mstore\n      swap2\n      0x20\n      add\n      swap2\n      jump(tag_579)\n    tag_580:\n      dup3\n      add\n      swap2\n      swap1\n      0x00\n      mstore\n      keccak256(0x00, 0x20)\n      swap1\n    tag_581:\n      dup2\n      sload\n      dup2\n      mstore\n      swap1\n      0x01\n      add\n      swap1\n      0x20\n      add\n      dup1\n      dup4\n      gt\n      tag_581\n      jumpi\n      dup3\n      swap1\n      sub\n      0x1f\n      and\n      dup3\n      add\n      swap2\n    tag_579:\n      pop\n      pop\n      pop\n      pop\n      pop\n      swap4\n      pop\n      swap9\n      pop\n      swap9\n      pop\n      swap9\n      pop\n      swap9\n      pop\n      swap9\n      pop\n      swap9\n      pop\n      swap9\n      pop\n      swap9\n      pop\n      swap9\n      pop\n        /* \".git/MyContracts/KenyaProcurementTransparency0.sol\":20724:21479  function getTenderSummary()... */\n      swap1\n      swap2\n      swap3\n      swap4\n      swap5\n      swap6\n      swap7\n      swap8\n      swap9\n      jump\t// out\n        /* \".git/MyContracts/KenyaProcurementTransparency0.sol\":22174:23132  function _toTimestampWithOffset(... */\n    tag_461:\n        /* \".git/MyContracts/KenyaProcurementTransparency0.sol\":22385:22402  uint256 timestamp */\n      0x00\n        /* \".git/MyContracts/KenyaProcurementTransparency0.sol\":22431:22435  1970 */\n      0x07b2\n        /* \".git/MyContracts/KenyaProcurementTransparency0.sol\":22423:22427  year */\n      dup8\n        /* \".git/MyContracts/KenyaProcurementTransparency0.sol\":22423:22435  year >= 1970 */\n      lt\n      iszero\n        /* \".git/MyContracts/KenyaProcurementTransparency0.sol\":22423:22451  year >= 1970 && year <= 2100 */\n      dup1\n      iszero\n      tag_583\n      jumpi\n      pop\n        /* \".git/MyContracts/KenyaProcurementTransparency0.sol\":22447:22451  2100 */\n      0x0834\n        /* \".git/MyContracts/KenyaProcurementTransparency0.sol\":22439:22443  year */\n      dup8\n        /* \".git/MyContracts/KenyaProcurementTransparency0.sol\":22439:22451  year <= 2100 */\n      gt\n      iszero\n        /* \".git/MyContracts/KenyaProcurementTransparency0.sol\":22423:22451  year >= 1970 && year <= 2100 */\n    tag_583:\n        /* \".git/MyContracts/KenyaProcurementTransparency0.sol\":22415:22468  require(year >= 1970 && year <= 2100, \"Invalid year\") */\n      tag_584\n      jumpi\n      mload(0x40)\n      shl(0xe5, 0x461bcd)\n      dup2\n      mstore\n        /* \"#utility.yul\":25331:25333   */\n      0x20\n        /* \".git/MyContracts/KenyaProcurementTransparency0.sol\":22415:22468  require(year >= 1970 && year <= 2100, \"Invalid year\") */\n      0x04\n      dup3\n      add\n        /* \"#utility.yul\":25313:25334   */\n      mstore\n        /* \"#utility.yul\":25370:25372   */\n      0x0c\n        /* \"#utility.yul\":25350:25368   */\n      0x24\n      dup3\n      add\n        /* \"#utility.yul\":25343:25373   */\n      mstore\n      shl(0xa1, 0x24b73b30b634b2103cb2b0b9)\n        /* \"#utility.yul\":25389:25407   */\n      0x44\n      dup3\n      add\n        /* \"#utility.yul\":25382:25424   */\n      mstore\n        /* \"#utility.yul\":25441:25459   */\n      0x64\n      add\n        /* \".git/MyContracts/KenyaProcurementTransparency0.sol\":22415:22468  require(year >= 1970 && year <= 2100, \"Invalid year\") */\n      tag_227\n        /* \"#utility.yul\":25129:25465   */\n      jump\n        /* \".git/MyContracts/KenyaProcurementTransparency0.sol\":22415:22468  require(year >= 1970 && year <= 2100, \"Invalid year\") */\n    tag_584:\n        /* \".git/MyContracts/KenyaProcurementTransparency0.sol\":22496:22497  1 */\n      0x01\n        /* \".git/MyContracts/KenyaProcurementTransparency0.sol\":22487:22492  month */\n      dup7\n        /* \".git/MyContracts/KenyaProcurementTransparency0.sol\":22487:22497  month >= 1 */\n      lt\n      iszero\n        /* \".git/MyContracts/KenyaProcurementTransparency0.sol\":22487:22512  month >= 1 && month <= 12 */\n      dup1\n      iszero\n      tag_587\n      jumpi\n      pop\n        /* \".git/MyContracts/KenyaProcurementTransparency0.sol\":22510:22512  12 */\n      0x0c\n        /* \".git/MyContracts/KenyaProcurementTransparency0.sol\":22501:22506  month */\n      dup7\n        /* \".git/MyContracts/KenyaProcurementTransparency0.sol\":22501:22512  month <= 12 */\n      gt\n      iszero\n        /* \".git/MyContracts/KenyaProcurementTransparency0.sol\":22487:22512  month >= 1 && month <= 12 */\n    tag_587:\n        /* \".git/MyContracts/KenyaProcurementTransparency0.sol\":22479:22530  require(month >= 1 && month <= 12, \"Invalid month\") */\n      tag_588\n      jumpi\n      mload(0x40)\n      shl(0xe5, 0x461bcd)\n      dup2\n      mstore\n        /* \"#utility.yul\":25672:25674   */\n      0x20\n        /* \".git/MyContracts/KenyaProcurementTransparency0.sol\":22479:22530  require(month >= 1 && month <= 12, \"Invalid month\") */\n      0x04\n      dup3\n      add\n        /* \"#utility.yul\":25654:25675   */\n      mstore\n        /* \"#utility.yul\":25711:25713   */\n      0x0d\n        /* \"#utility.yul\":25691:25709   */\n      0x24\n      dup3\n      add\n        /* \"#utility.yul\":25684:25714   */\n      mstore\n      shl(0x9b, 0x092dcecc2d8d2c840dadedce8d)\n        /* \"#utility.yul\":25730:25748   */\n      0x44\n      dup3\n      add\n        /* \"#utility.yul\":25723:25766   */\n      mstore\n        /* \"#utility.yul\":25783:25801   */\n      0x64\n      add\n        /* \".git/MyContracts/KenyaProcurementTransparency0.sol\":22479:22530  require(month >= 1 && month <= 12, \"Invalid month\") */\n      tag_227\n        /* \"#utility.yul\":25470:25807   */\n      jump\n        /* \".git/MyContracts/KenyaProcurementTransparency0.sol\":22479:22530  require(month >= 1 && month <= 12, \"Invalid month\") */\n    tag_588:\n        /* \".git/MyContracts/KenyaProcurementTransparency0.sol\":22556:22558  24 */\n      0x18\n        /* \".git/MyContracts/KenyaProcurementTransparency0.sol\":22549:22553  hour */\n      dup5\n        /* \".git/MyContracts/KenyaProcurementTransparency0.sol\":22549:22558  hour < 24 */\n      lt\n        /* \".git/MyContracts/KenyaProcurementTransparency0.sol\":22541:22575  require(hour < 24, \"Invalid hour\") */\n      tag_591\n      jumpi\n      mload(0x40)\n      shl(0xe5, 0x461bcd)\n      dup2\n      mstore\n        /* \"#utility.yul\":26014:26016   */\n      0x20\n        /* \".git/MyContracts/KenyaProcurementTransparency0.sol\":22541:22575  require(hour < 24, \"Invalid hour\") */\n      0x04\n      dup3\n      add\n        /* \"#utility.yul\":25996:26017   */\n      mstore\n        /* \"#utility.yul\":26053:26055   */\n      0x0c\n        /* \"#utility.yul\":26033:26051   */\n      0x24\n      dup3\n      add\n        /* \"#utility.yul\":26026:26056   */\n      mstore\n      shl(0xa1, 0x24b73b30b634b2103437bab9)\n        /* \"#utility.yul\":26072:26090   */\n      0x44\n      dup3\n      add\n        /* \"#utility.yul\":26065:26107   */\n      mstore\n        /* \"#utility.yul\":26124:26142   */\n      0x64\n      add\n        /* \".git/MyContracts/KenyaProcurementTransparency0.sol\":22541:22575  require(hour < 24, \"Invalid hour\") */\n      tag_227\n        /* \"#utility.yul\":25812:26148   */\n      jump\n        /* \".git/MyContracts/KenyaProcurementTransparency0.sol\":22541:22575  require(hour < 24, \"Invalid hour\") */\n    tag_591:\n        /* \".git/MyContracts/KenyaProcurementTransparency0.sol\":22603:22605  60 */\n      0x3c\n        /* \".git/MyContracts/KenyaProcurementTransparency0.sol\":22594:22600  minute */\n      dup4\n        /* \".git/MyContracts/KenyaProcurementTransparency0.sol\":22594:22605  minute < 60 */\n      lt\n        /* \".git/MyContracts/KenyaProcurementTransparency0.sol\":22586:22624  require(minute < 60, \"Invalid minute\") */\n      tag_594\n      jumpi\n      mload(0x40)\n      shl(0xe5, 0x461bcd)\n      dup2\n      mstore\n        /* \"#utility.yul\":26355:26357   */\n      0x20\n        /* \".git/MyContracts/KenyaProcurementTransparency0.sol\":22586:22624  require(minute < 60, \"Invalid minute\") */\n      0x04\n      dup3\n      add\n        /* \"#utility.yul\":26337:26358   */\n      mstore\n        /* \"#utility.yul\":26394:26396   */\n      0x0e\n        /* \"#utility.yul\":26374:26392   */\n      0x24\n      dup3\n      add\n        /* \"#utility.yul\":26367:26397   */\n      mstore\n      shl(0x90, 0x496e76616c6964206d696e757465)\n        /* \"#utility.yul\":26413:26431   */\n      0x44\n      dup3\n      add\n        /* \"#utility.yul\":26406:26450   */\n      mstore\n        /* \"#utility.yul\":26467:26485   */\n      0x64\n      add\n        /* \".git/MyContracts/KenyaProcurementTransparency0.sol\":22586:22624  require(minute < 60, \"Invalid minute\") */\n      tag_227\n        /* \"#utility.yul\":26153:26491   */\n      jump\n        /* \".git/MyContracts/KenyaProcurementTransparency0.sol\":22586:22624  require(minute < 60, \"Invalid minute\") */\n    tag_594:\n      not(0x0b)\n        /* \".git/MyContracts/KenyaProcurementTransparency0.sol\":22643:22657  utcOffsetHours */\n      dup3\n        /* \".git/MyContracts/KenyaProcurementTransparency0.sol\":22643:22664  utcOffsetHours >= -12 */\n      slt\n      iszero\n        /* \".git/MyContracts/KenyaProcurementTransparency0.sol\":22643:22688  utcOffsetHours >= -12 && utcOffsetHours <= 14 */\n      dup1\n      iszero\n      tag_597\n      jumpi\n      pop\n        /* \".git/MyContracts/KenyaProcurementTransparency0.sol\":22686:22688  14 */\n      0x0e\n        /* \".git/MyContracts/KenyaProcurementTransparency0.sol\":22668:22682  utcOffsetHours */\n      dup3\n        /* \".git/MyContracts/KenyaProcurementTransparency0.sol\":22668:22688  utcOffsetHours <= 14 */\n      sgt\n      iszero\n        /* \".git/MyContracts/KenyaProcurementTransparency0.sol\":22643:22688  utcOffsetHours >= -12 && utcOffsetHours <= 14 */\n    tag_597:\n        /* \".git/MyContracts/KenyaProcurementTransparency0.sol\":22635:22711  require(utcOffsetHours >= -12 && utcOffsetHours <= 14, \"Invalid UTC offset\") */\n      tag_598\n      jumpi\n      mload(0x40)\n      shl(0xe5, 0x461bcd)\n      dup2\n      mstore\n        /* \"#utility.yul\":26698:26700   */\n      0x20\n        /* \".git/MyContracts/KenyaProcurementTransparency0.sol\":22635:22711  require(utcOffsetHours >= -12 && utcOffsetHours <= 14, \"Invalid UTC offset\") */\n      0x04\n      dup3\n      add\n        /* \"#utility.yul\":26680:26701   */\n      mstore\n        /* \"#utility.yul\":26737:26739   */\n      0x12\n        /* \"#utility.yul\":26717:26735   */\n      0x24\n      dup3\n      add\n        /* \"#utility.yul\":26710:26740   */\n      mstore\n      shl(0x72, 0x125b9d985b1a5908155510c81bd9999cd95d)\n        /* \"#utility.yul\":26756:26774   */\n      0x44\n      dup3\n      add\n        /* \"#utility.yul\":26749:26797   */\n      mstore\n        /* \"#utility.yul\":26814:26832   */\n      0x64\n      add\n        /* \".git/MyContracts/KenyaProcurementTransparency0.sol\":22635:22711  require(utcOffsetHours >= -12 && utcOffsetHours <= 14, \"Invalid UTC offset\") */\n      tag_227\n        /* \"#utility.yul\":26496:26838   */\n      jump\n        /* \".git/MyContracts/KenyaProcurementTransparency0.sol\":22635:22711  require(utcOffsetHours >= -12 && utcOffsetHours <= 14, \"Invalid UTC offset\") */\n    tag_598:\n        /* \".git/MyContracts/KenyaProcurementTransparency0.sol\":22724:22743  uint256 daysInMonth */\n      0x00\n        /* \".git/MyContracts/KenyaProcurementTransparency0.sol\":22746:22774  _getDaysInMonth(year, month) */\n      tag_601\n        /* \".git/MyContracts/KenyaProcurementTransparency0.sol\":22762:22766  year */\n      dup9\n        /* \".git/MyContracts/KenyaProcurementTransparency0.sol\":22768:22773  month */\n      dup9\n        /* \".git/MyContracts/KenyaProcurementTransparency0.sol\":22746:22761  _getDaysInMonth */\n      tag_602\n        /* \".git/MyContracts/KenyaProcurementTransparency0.sol\":22746:22774  _getDaysInMonth(year, month) */\n      jump\t// in\n    tag_601:\n        /* \".git/MyContracts/KenyaProcurementTransparency0.sol\":22724:22774  uint256 daysInMonth = _getDaysInMonth(year, month) */\n      swap1\n      pop\n        /* \".git/MyContracts/KenyaProcurementTransparency0.sol\":22800:22801  1 */\n      0x01\n        /* \".git/MyContracts/KenyaProcurementTransparency0.sol\":22793:22796  day */\n      dup7\n        /* \".git/MyContracts/KenyaProcurementTransparency0.sol\":22793:22801  day >= 1 */\n      lt\n      iszero\n        /* \".git/MyContracts/KenyaProcurementTransparency0.sol\":22793:22823  day >= 1 && day <= daysInMonth */\n      dup1\n      iszero\n      tag_603\n      jumpi\n      pop\n        /* \".git/MyContracts/KenyaProcurementTransparency0.sol\":22812:22823  daysInMonth */\n      dup1\n        /* \".git/MyContracts/KenyaProcurementTransparency0.sol\":22805:22808  day */\n      dup7\n        /* \".git/MyContracts/KenyaProcurementTransparency0.sol\":22805:22823  day <= daysInMonth */\n      gt\n      iszero\n        /* \".git/MyContracts/KenyaProcurementTransparency0.sol\":22793:22823  day >= 1 && day <= daysInMonth */\n    tag_603:\n        /* \".git/MyContracts/KenyaProcurementTransparency0.sol\":22785:22839  require(day >= 1 && day <= daysInMonth, \"Invalid day\") */\n      tag_604\n      jumpi\n      mload(0x40)\n      shl(0xe5, 0x461bcd)\n      dup2\n      mstore\n        /* \"#utility.yul\":27045:27047   */\n      0x20\n        /* \".git/MyContracts/KenyaProcurementTransparency0.sol\":22785:22839  require(day >= 1 && day <= daysInMonth, \"Invalid day\") */\n      0x04\n      dup3\n      add\n        /* \"#utility.yul\":27027:27048   */\n      mstore\n        /* \"#utility.yul\":27084:27086   */\n      0x0b\n        /* \"#utility.yul\":27064:27082   */\n      0x24\n      dup3\n      add\n        /* \"#utility.yul\":27057:27087   */\n      mstore\n      shl(0xa8, 0x496e76616c696420646179)\n        /* \"#utility.yul\":27103:27121   */\n      0x44\n      dup3\n      add\n        /* \"#utility.yul\":27096:27137   */\n      mstore\n        /* \"#utility.yul\":27154:27172   */\n      0x64\n      add\n        /* \".git/MyContracts/KenyaProcurementTransparency0.sol\":22785:22839  require(day >= 1 && day <= daysInMonth, \"Invalid day\") */\n      tag_227\n        /* \"#utility.yul\":26843:27178   */\n      jump\n        /* \".git/MyContracts/KenyaProcurementTransparency0.sol\":22785:22839  require(day >= 1 && day <= daysInMonth, \"Invalid day\") */\n    tag_604:\n        /* \".git/MyContracts/KenyaProcurementTransparency0.sol\":22864:22911  _toTimestamp(year, month, day, hour, minute, 0) */\n      tag_607\n        /* \".git/MyContracts/KenyaProcurementTransparency0.sol\":22877:22881  year */\n      dup9\n        /* \".git/MyContracts/KenyaProcurementTransparency0.sol\":22883:22888  month */\n      dup9\n        /* \".git/MyContracts/KenyaProcurementTransparency0.sol\":22890:22893  day */\n      dup9\n        /* \".git/MyContracts/KenyaProcurementTransparency0.sol\":22895:22899  hour */\n      dup9\n        /* \".git/MyContracts/KenyaProcurementTransparency0.sol\":22901:22907  minute */\n      dup9\n        /* \".git/MyContracts/KenyaProcurementTransparency0.sol\":22909:22910  0 */\n      0x00\n        /* \".git/MyContracts/KenyaProcurementTransparency0.sol\":22864:22876  _toTimestamp */\n      tag_608\n        /* \".git/MyContracts/KenyaProcurementTransparency0.sol\":22864:22911  _toTimestamp(year, month, day, hour, minute, 0) */\n      jump\t// in\n    tag_607:\n        /* \".git/MyContracts/KenyaProcurementTransparency0.sol\":22852:22911  timestamp = _toTimestamp(year, month, day, hour, minute, 0) */\n      swap2\n      pop\n        /* \".git/MyContracts/KenyaProcurementTransparency0.sol\":22945:22946  0 */\n      0x00\n        /* \".git/MyContracts/KenyaProcurementTransparency0.sol\":22928:22942  utcOffsetHours */\n      dup4\n        /* \".git/MyContracts/KenyaProcurementTransparency0.sol\":22928:22946  utcOffsetHours > 0 */\n      sgt\n        /* \".git/MyContracts/KenyaProcurementTransparency0.sol\":22924:23125  if (utcOffsetHours > 0) {... */\n      iszero\n      tag_609\n      jumpi\n        /* \".git/MyContracts/KenyaProcurementTransparency0.sol\":22976:23009  uint256(utcOffsetHours) * 1 hours */\n      tag_610\n        /* \".git/MyContracts/KenyaProcurementTransparency0.sol\":22984:22998  utcOffsetHours */\n      dup4\n        /* \".git/MyContracts/KenyaProcurementTransparency0.sol\":23002:23009  1 hours */\n      0x0e10\n        /* \".git/MyContracts/KenyaProcurementTransparency0.sol\":22976:23009  uint256(utcOffsetHours) * 1 hours */\n      tag_611\n      jump\t// in\n    tag_610:\n        /* \".git/MyContracts/KenyaProcurementTransparency0.sol\":22963:23009  timestamp -= uint256(utcOffsetHours) * 1 hours */\n      tag_612\n      swap1\n      dup4\n      tag_613\n      jump\t// in\n    tag_612:\n      swap2\n      pop\n        /* \".git/MyContracts/KenyaProcurementTransparency0.sol\":22924:23125  if (utcOffsetHours > 0) {... */\n      jump(tag_615)\n    tag_609:\n        /* \".git/MyContracts/KenyaProcurementTransparency0.sol\":23048:23049  0 */\n      0x00\n        /* \".git/MyContracts/KenyaProcurementTransparency0.sol\":23031:23045  utcOffsetHours */\n      dup4\n        /* \".git/MyContracts/KenyaProcurementTransparency0.sol\":23031:23049  utcOffsetHours < 0 */\n      slt\n        /* \".git/MyContracts/KenyaProcurementTransparency0.sol\":23027:23125  if (utcOffsetHours < 0) {... */\n      iszero\n      tag_615\n      jumpi\n        /* \".git/MyContracts/KenyaProcurementTransparency0.sol\":23087:23102  -utcOffsetHours */\n      tag_616\n        /* \".git/MyContracts/KenyaProcurementTransparency0.sol\":23088:23102  utcOffsetHours */\n      dup4\n        /* \".git/MyContracts/KenyaProcurementTransparency0.sol\":23087:23102  -utcOffsetHours */\n      tag_617\n      jump\t// in\n    tag_616:\n        /* \".git/MyContracts/KenyaProcurementTransparency0.sol\":23079:23113  uint256(-utcOffsetHours) * 1 hours */\n      tag_618\n      swap1\n        /* \".git/MyContracts/KenyaProcurementTransparency0.sol\":23106:23113  1 hours */\n      0x0e10\n        /* \".git/MyContracts/KenyaProcurementTransparency0.sol\":23079:23113  uint256(-utcOffsetHours) * 1 hours */\n      tag_611\n      jump\t// in\n    tag_618:\n        /* \".git/MyContracts/KenyaProcurementTransparency0.sol\":23066:23113  timestamp += uint256(-utcOffsetHours) * 1 hours */\n      tag_619\n      swap1\n      dup4\n      tag_620\n      jump\t// in\n    tag_619:\n      swap2\n      pop\n        /* \".git/MyContracts/KenyaProcurementTransparency0.sol\":23027:23125  if (utcOffsetHours < 0) {... */\n    tag_615:\n        /* \".git/MyContracts/KenyaProcurementTransparency0.sol\":22404:23132  {... */\n      pop\n        /* \".git/MyContracts/KenyaProcurementTransparency0.sol\":22174:23132  function _toTimestampWithOffset(... */\n      swap7\n      swap6\n      pop\n      pop\n      pop\n      pop\n      pop\n      pop\n      jump\t// out\n        /* \".git/MyContracts/KenyaProcurementTransparency0.sol\":24548:24904  function _getDaysInMonth(uint256 year, uint256 month) internal pure returns (uint256) {... */\n    tag_602:\n        /* \".git/MyContracts/KenyaProcurementTransparency0.sol\":24625:24632  uint256 */\n      0x00\n        /* \".git/MyContracts/KenyaProcurementTransparency0.sol\":24649:24654  month */\n      dup2\n        /* \".git/MyContracts/KenyaProcurementTransparency0.sol\":24658:24659  2 */\n      0x02\n        /* \".git/MyContracts/KenyaProcurementTransparency0.sol\":24649:24659  month == 2 */\n      sub\n        /* \".git/MyContracts/KenyaProcurementTransparency0.sol\":24645:24897  if (month == 2) {... */\n      tag_622\n      jumpi\n        /* \".git/MyContracts/KenyaProcurementTransparency0.sol\":24683:24708  _isLeapYear(uint16(year)) */\n      tag_623\n        /* \".git/MyContracts/KenyaProcurementTransparency0.sol\":24702:24706  year */\n      dup4\n        /* \".git/MyContracts/KenyaProcurementTransparency0.sol\":24683:24694  _isLeapYear */\n      tag_624\n        /* \".git/MyContracts/KenyaProcurementTransparency0.sol\":24683:24708  _isLeapYear(uint16(year)) */\n      jump\t// in\n    tag_623:\n        /* \".git/MyContracts/KenyaProcurementTransparency0.sol\":24683:24718  _isLeapYear(uint16(year)) ? 29 : 28 */\n      tag_625\n      jumpi\n        /* \".git/MyContracts/KenyaProcurementTransparency0.sol\":24716:24718  28 */\n      0x1c\n        /* \".git/MyContracts/KenyaProcurementTransparency0.sol\":24683:24718  _isLeapYear(uint16(year)) ? 29 : 28 */\n      jump(tag_626)\n    tag_625:\n        /* \".git/MyContracts/KenyaProcurementTransparency0.sol\":24711:24713  29 */\n      0x1d\n        /* \".git/MyContracts/KenyaProcurementTransparency0.sol\":24683:24718  _isLeapYear(uint16(year)) ? 29 : 28 */\n    tag_626:\n        /* \".git/MyContracts/KenyaProcurementTransparency0.sol\":24676:24718  return _isLeapYear(uint16(year)) ? 29 : 28 */\n      0xff\n      and\n      swap1\n      pop\n      jump(tag_303)\n        /* \".git/MyContracts/KenyaProcurementTransparency0.sol\":24645:24897  if (month == 2) {... */\n    tag_622:\n        /* \".git/MyContracts/KenyaProcurementTransparency0.sol\":24754:24759  month */\n      dup2\n        /* \".git/MyContracts/KenyaProcurementTransparency0.sol\":24763:24764  4 */\n      0x04\n        /* \".git/MyContracts/KenyaProcurementTransparency0.sol\":24754:24764  month == 4 */\n      eq\n        /* \".git/MyContracts/KenyaProcurementTransparency0.sol\":24754:24778  month == 4 || month == 6 */\n      dup1\n      tag_628\n      jumpi\n      pop\n        /* \".git/MyContracts/KenyaProcurementTransparency0.sol\":24768:24773  month */\n      dup2\n        /* \".git/MyContracts/KenyaProcurementTransparency0.sol\":24777:24778  6 */\n      0x06\n        /* \".git/MyContracts/KenyaProcurementTransparency0.sol\":24768:24778  month == 6 */\n      eq\n        /* \".git/MyContracts/KenyaProcurementTransparency0.sol\":24754:24778  month == 4 || month == 6 */\n    tag_628:\n        /* \".git/MyContracts/KenyaProcurementTransparency0.sol\":24754:24792  month == 4 || month == 6 || month == 9 */\n      dup1\n      tag_629\n      jumpi\n      pop\n        /* \".git/MyContracts/KenyaProcurementTransparency0.sol\":24782:24787  month */\n      dup2\n        /* \".git/MyContracts/KenyaProcurementTransparency0.sol\":24791:24792  9 */\n      0x09\n        /* \".git/MyContracts/KenyaProcurementTransparency0.sol\":24782:24792  month == 9 */\n      eq\n        /* \".git/MyContracts/KenyaProcurementTransparency0.sol\":24754:24792  month == 4 || month == 6 || month == 9 */\n    tag_629:\n        /* \".git/MyContracts/KenyaProcurementTransparency0.sol\":24754:24807  month == 4 || month == 6 || month == 9 || month == 11 */\n      dup1\n      tag_630\n      jumpi\n      pop\n        /* \".git/MyContracts/KenyaProcurementTransparency0.sol\":24796:24801  month */\n      dup2\n        /* \".git/MyContracts/KenyaProcurementTransparency0.sol\":24805:24807  11 */\n      0x0b\n        /* \".git/MyContracts/KenyaProcurementTransparency0.sol\":24796:24807  month == 11 */\n      eq\n        /* \".git/MyContracts/KenyaProcurementTransparency0.sol\":24754:24807  month == 4 || month == 6 || month == 9 || month == 11 */\n    tag_630:\n        /* \".git/MyContracts/KenyaProcurementTransparency0.sol\":24736:24897  if (... */\n      iszero\n      tag_631\n      jumpi\n      pop\n        /* \".git/MyContracts/KenyaProcurementTransparency0.sol\":24841:24843  30 */\n      0x1e\n        /* \".git/MyContracts/KenyaProcurementTransparency0.sol\":24834:24843  return 30 */\n      jump(tag_303)\n        /* \".git/MyContracts/KenyaProcurementTransparency0.sol\":24736:24897  if (... */\n    tag_631:\n      pop\n        /* \".git/MyContracts/KenyaProcurementTransparency0.sol\":24883:24885  31 */\n      0x1f\n        /* \".git/MyContracts/KenyaProcurementTransparency0.sol\":24876:24885  return 31 */\n      jump(tag_303)\n        /* \".git/MyContracts/KenyaProcurementTransparency0.sol\":23478:24358  function _toTimestamp(... */\n    tag_608:\n        /* \".git/MyContracts/KenyaProcurementTransparency0.sol\":23672:23689  uint256 timestamp */\n      0x00\n        /* \".git/MyContracts/KenyaProcurementTransparency0.sol\":23732:23736  1970 */\n      0x07b2\n        /* \".git/MyContracts/KenyaProcurementTransparency0.sol\":23723:23862  for (i = 1970; i < year; i++) {... */\n    tag_634:\n        /* \".git/MyContracts/KenyaProcurementTransparency0.sol\":23742:23746  year */\n      dup8\n        /* \".git/MyContracts/KenyaProcurementTransparency0.sol\":23738:23739  i */\n      dup2\n        /* \".git/MyContracts/KenyaProcurementTransparency0.sol\":23738:23746  i < year */\n      0xffff\n      and\n      lt\n        /* \".git/MyContracts/KenyaProcurementTransparency0.sol\":23723:23862  for (i = 1970; i < year; i++) {... */\n      iszero\n      tag_635\n      jumpi\n        /* \".git/MyContracts/KenyaProcurementTransparency0.sol\":23772:23786  _isLeapYear(i) */\n      tag_637\n        /* \".git/MyContracts/KenyaProcurementTransparency0.sol\":23784:23785  i */\n      dup2\n        /* \".git/MyContracts/KenyaProcurementTransparency0.sol\":23772:23783  _isLeapYear */\n      tag_624\n        /* \".git/MyContracts/KenyaProcurementTransparency0.sol\":23772:23786  _isLeapYear(i) */\n      jump\t// in\n    tag_637:\n        /* \".git/MyContracts/KenyaProcurementTransparency0.sol\":23768:23850  if (_isLeapYear(i)) timestamp += 366 days;... */\n      iszero\n      tag_638\n      jumpi\n        /* \".git/MyContracts/KenyaProcurementTransparency0.sol\":23788:23809  timestamp += 366 days */\n      tag_639\n        /* \".git/MyContracts/KenyaProcurementTransparency0.sol\":23801:23809  366 days */\n      0x01e28500\n        /* \".git/MyContracts/KenyaProcurementTransparency0.sol\":23788:23809  timestamp += 366 days */\n      dup4\n      tag_620\n      jump\t// in\n    tag_639:\n      swap2\n      pop\n        /* \".git/MyContracts/KenyaProcurementTransparency0.sol\":23768:23850  if (_isLeapYear(i)) timestamp += 366 days;... */\n      jump(tag_640)\n    tag_638:\n        /* \".git/MyContracts/KenyaProcurementTransparency0.sol\":23829:23850  timestamp += 365 days */\n      tag_641\n        /* \".git/MyContracts/KenyaProcurementTransparency0.sol\":23842:23850  365 days */\n      0x01e13380\n        /* \".git/MyContracts/KenyaProcurementTransparency0.sol\":23829:23850  timestamp += 365 days */\n      dup4\n      tag_620\n      jump\t// in\n    tag_641:\n      swap2\n      pop\n        /* \".git/MyContracts/KenyaProcurementTransparency0.sol\":23768:23850  if (_isLeapYear(i)) timestamp += 366 days;... */\n    tag_640:\n        /* \".git/MyContracts/KenyaProcurementTransparency0.sol\":23748:23751  i++ */\n      dup1\n      tag_642\n      dup2\n      tag_643\n      jump\t// in\n    tag_642:\n      swap2\n      pop\n      pop\n        /* \".git/MyContracts/KenyaProcurementTransparency0.sol\":23723:23862  for (i = 1970; i < year; i++) {... */\n      jump(tag_634)\n    tag_635:\n        /* \".git/MyContracts/KenyaProcurementTransparency0.sol\":23874:23995  uint8[12] memory monthDays = [... */\n      0x40\n      dup1\n      mload\n      0x0180\n      dup2\n      add\n      dup3\n      mstore\n        /* \".git/MyContracts/KenyaProcurementTransparency0.sol\":23924:23926  31 */\n      0x1f\n        /* \".git/MyContracts/KenyaProcurementTransparency0.sol\":23874:23995  uint8[12] memory monthDays = [... */\n      dup1\n      dup3\n      mstore\n        /* \".git/MyContracts/KenyaProcurementTransparency0.sol\":23929:23931  28 */\n      0x1c\n        /* \".git/MyContracts/KenyaProcurementTransparency0.sol\":23874:23995  uint8[12] memory monthDays = [... */\n      0x20\n      dup4\n      add\n      mstore\n      swap2\n      dup2\n      add\n      dup3\n      swap1\n      mstore\n        /* \".git/MyContracts/KenyaProcurementTransparency0.sol\":23937:23939  30 */\n      0x1e\n        /* \".git/MyContracts/KenyaProcurementTransparency0.sol\":23874:23995  uint8[12] memory monthDays = [... */\n      0x60\n      dup3\n      add\n      dup2\n      swap1\n      mstore\n      0x80\n      dup3\n      add\n      dup4\n      swap1\n      mstore\n      0xa0\n      dup3\n      add\n      dup2\n      swap1\n      mstore\n      0xc0\n      dup3\n      add\n      dup4\n      swap1\n      mstore\n      0xe0\n      dup3\n      add\n      dup4\n      swap1\n      mstore\n      0x0100\n      dup3\n      add\n      dup2\n      swap1\n      mstore\n      0x0120\n      dup3\n      add\n      dup4\n      swap1\n      mstore\n      0x0140\n      dup3\n      add\n      mstore\n      0x0160\n      dup2\n      add\n      swap2\n      swap1\n      swap2\n      mstore\n        /* \".git/MyContracts/KenyaProcurementTransparency0.sol\":24012:24037  _isLeapYear(uint16(year)) */\n      tag_644\n        /* \".git/MyContracts/KenyaProcurementTransparency0.sol\":24031:24035  year */\n      dup10\n        /* \".git/MyContracts/KenyaProcurementTransparency0.sol\":24012:24023  _isLeapYear */\n      tag_624\n        /* \".git/MyContracts/KenyaProcurementTransparency0.sol\":24012:24037  _isLeapYear(uint16(year)) */\n      jump\t// in\n    tag_644:\n        /* \".git/MyContracts/KenyaProcurementTransparency0.sol\":24008:24083  if (_isLeapYear(uint16(year))) {... */\n      iszero\n      tag_645\n      jumpi\n        /* \".git/MyContracts/KenyaProcurementTransparency0.sol\":24069:24071  29 */\n      0x1d\n        /* \".git/MyContracts/KenyaProcurementTransparency0.sol\":24054:24066  monthDays[1] */\n      0x20\n      dup3\n      add\n        /* \".git/MyContracts/KenyaProcurementTransparency0.sol\":24054:24071  monthDays[1] = 29 */\n      mstore\n        /* \".git/MyContracts/KenyaProcurementTransparency0.sol\":24008:24083  if (_isLeapYear(uint16(year))) {... */\n    tag_645:\n        /* \".git/MyContracts/KenyaProcurementTransparency0.sol\":24104:24105  1 */\n      0x01\n        /* \".git/MyContracts/KenyaProcurementTransparency0.sol\":24100:24105  i = 1 */\n      swap2\n      pop\n        /* \".git/MyContracts/KenyaProcurementTransparency0.sol\":24095:24197  for (i = 1; i < month; i++) {... */\n    tag_648:\n        /* \".git/MyContracts/KenyaProcurementTransparency0.sol\":24111:24116  month */\n      dup8\n        /* \".git/MyContracts/KenyaProcurementTransparency0.sol\":24107:24108  i */\n      dup3\n        /* \".git/MyContracts/KenyaProcurementTransparency0.sol\":24107:24116  i < month */\n      0xffff\n      and\n      lt\n        /* \".git/MyContracts/KenyaProcurementTransparency0.sol\":24095:24197  for (i = 1; i < month; i++) {... */\n      iszero\n      tag_649\n      jumpi\n        /* \".git/MyContracts/KenyaProcurementTransparency0.sol\":24159:24168  monthDays */\n      dup1\n        /* \".git/MyContracts/KenyaProcurementTransparency0.sol\":24169:24174  i - 1 */\n      tag_651\n        /* \".git/MyContracts/KenyaProcurementTransparency0.sol\":24173:24174  1 */\n      0x01\n        /* \".git/MyContracts/KenyaProcurementTransparency0.sol\":24169:24170  i */\n      dup5\n        /* \".git/MyContracts/KenyaProcurementTransparency0.sol\":24169:24174  i - 1 */\n      tag_652\n      jump\t// in\n    tag_651:\n        /* \".git/MyContracts/KenyaProcurementTransparency0.sol\":24159:24175  monthDays[i - 1] */\n      0xffff\n      and\n      0x0c\n      dup2\n      lt\n      tag_654\n      jumpi\n      tag_654\n      tag_386\n      jump\t// in\n    tag_654:\n      0x20\n      mul\n      add\n      mload\n        /* \".git/MyContracts/KenyaProcurementTransparency0.sol\":24151:24185  uint256(monthDays[i - 1]) * 1 days */\n      tag_655\n      swap1\n        /* \".git/MyContracts/KenyaProcurementTransparency0.sol\":24151:24176  uint256(monthDays[i - 1]) */\n      0xff\n      and\n        /* \".git/MyContracts/KenyaProcurementTransparency0.sol\":24179:24185  1 days */\n      0x015180\n        /* \".git/MyContracts/KenyaProcurementTransparency0.sol\":24151:24185  uint256(monthDays[i - 1]) * 1 days */\n      tag_611\n      jump\t// in\n    tag_655:\n        /* \".git/MyContracts/KenyaProcurementTransparency0.sol\":24138:24185  timestamp += uint256(monthDays[i - 1]) * 1 days */\n      tag_656\n      swap1\n      dup5\n      tag_620\n      jump\t// in\n    tag_656:\n      swap3\n      pop\n        /* \".git/MyContracts/KenyaProcurementTransparency0.sol\":24118:24121  i++ */\n      dup2\n      tag_657\n      dup2\n      tag_643\n      jump\t// in\n    tag_657:\n      swap3\n      pop\n      pop\n        /* \".git/MyContracts/KenyaProcurementTransparency0.sol\":24095:24197  for (i = 1; i < month; i++) {... */\n      jump(tag_648)\n    tag_649:\n        /* \".git/MyContracts/KenyaProcurementTransparency0.sol\":24223:24230  day - 1 */\n      tag_658\n        /* \".git/MyContracts/KenyaProcurementTransparency0.sol\":24229:24230  1 */\n      0x01\n        /* \".git/MyContracts/KenyaProcurementTransparency0.sol\":24223:24226  day */\n      dup9\n        /* \".git/MyContracts/KenyaProcurementTransparency0.sol\":24223:24230  day - 1 */\n      tag_613\n      jump\t// in\n    tag_658:\n        /* \".git/MyContracts/KenyaProcurementTransparency0.sol\":24222:24240  (day - 1) * 1 days */\n      tag_659\n      swap1\n        /* \".git/MyContracts/KenyaProcurementTransparency0.sol\":24234:24240  1 days */\n      0x015180\n        /* \".git/MyContracts/KenyaProcurementTransparency0.sol\":24222:24240  (day - 1) * 1 days */\n      tag_611\n      jump\t// in\n    tag_659:\n        /* \".git/MyContracts/KenyaProcurementTransparency0.sol\":24209:24240  timestamp += (day - 1) * 1 days */\n      tag_660\n      swap1\n      dup5\n      tag_620\n      jump\t// in\n    tag_660:\n      swap3\n      pop\n        /* \".git/MyContracts/KenyaProcurementTransparency0.sol\":24264:24278  hour * 1 hours */\n      tag_661\n        /* \".git/MyContracts/KenyaProcurementTransparency0.sol\":24264:24268  hour */\n      dup7\n        /* \".git/MyContracts/KenyaProcurementTransparency0.sol\":24271:24278  1 hours */\n      0x0e10\n        /* \".git/MyContracts/KenyaProcurementTransparency0.sol\":24264:24278  hour * 1 hours */\n      tag_611\n      jump\t// in\n    tag_661:\n        /* \".git/MyContracts/KenyaProcurementTransparency0.sol\":24251:24278  timestamp += hour * 1 hours */\n      tag_662\n      swap1\n      dup5\n      tag_620\n      jump\t// in\n    tag_662:\n      swap3\n      pop\n        /* \".git/MyContracts/KenyaProcurementTransparency0.sol\":24302:24320  minute * 1 minutes */\n      tag_663\n        /* \".git/MyContracts/KenyaProcurementTransparency0.sol\":24302:24308  minute */\n      dup6\n        /* \".git/MyContracts/KenyaProcurementTransparency0.sol\":24311:24320  1 minutes */\n      0x3c\n        /* \".git/MyContracts/KenyaProcurementTransparency0.sol\":24302:24320  minute * 1 minutes */\n      tag_611\n      jump\t// in\n    tag_663:\n        /* \".git/MyContracts/KenyaProcurementTransparency0.sol\":24289:24320  timestamp += minute * 1 minutes */\n      tag_664\n      swap1\n      dup5\n      tag_620\n      jump\t// in\n    tag_664:\n      swap3\n      pop\n        /* \".git/MyContracts/KenyaProcurementTransparency0.sol\":24331:24350  timestamp += second */\n      tag_665\n        /* \".git/MyContracts/KenyaProcurementTransparency0.sol\":24344:24350  second */\n      dup5\n        /* \".git/MyContracts/KenyaProcurementTransparency0.sol\":24289:24320  timestamp += minute * 1 minutes */\n      dup5\n        /* \".git/MyContracts/KenyaProcurementTransparency0.sol\":24331:24350  timestamp += second */\n      tag_620\n      jump\t// in\n    tag_665:\n      swap10\n        /* \".git/MyContracts/KenyaProcurementTransparency0.sol\":23478:24358  function _toTimestamp(... */\n      swap9\n      pop\n      pop\n      pop\n      pop\n      pop\n      pop\n      pop\n      pop\n      pop\n      jump\t// out\n        /* \".git/MyContracts/KenyaProcurementTransparency0.sol\":25060:25282  function _isLeapYear(uint16 year) internal pure returns (bool) {... */\n    tag_624:\n        /* \".git/MyContracts/KenyaProcurementTransparency0.sol\":25117:25121  bool */\n      0x00\n        /* \".git/MyContracts/KenyaProcurementTransparency0.sol\":25138:25146  year % 4 */\n      tag_667\n        /* \".git/MyContracts/KenyaProcurementTransparency0.sol\":25145:25146  4 */\n      0x04\n        /* \".git/MyContracts/KenyaProcurementTransparency0.sol\":25138:25142  year */\n      dup4\n        /* \".git/MyContracts/KenyaProcurementTransparency0.sol\":25138:25146  year % 4 */\n      tag_668\n      jump\t// in\n    tag_667:\n        /* \".git/MyContracts/KenyaProcurementTransparency0.sol\":25138:25151  year % 4 != 0 */\n      0xffff\n      and\n      iszero\n        /* \".git/MyContracts/KenyaProcurementTransparency0.sol\":25134:25165  if (year % 4 != 0) return false */\n      tag_669\n      jumpi\n      pop\n        /* \".git/MyContracts/KenyaProcurementTransparency0.sol\":25160:25165  false */\n      0x00\n      swap2\n        /* \".git/MyContracts/KenyaProcurementTransparency0.sol\":25060:25282  function _isLeapYear(uint16 year) internal pure returns (bool) {... */\n      swap1\n      pop\n      jump\t// out\n        /* \".git/MyContracts/KenyaProcurementTransparency0.sol\":25134:25165  if (year % 4 != 0) return false */\n    tag_669:\n        /* \".git/MyContracts/KenyaProcurementTransparency0.sol\":25180:25190  year % 100 */\n      tag_670\n        /* \".git/MyContracts/KenyaProcurementTransparency0.sol\":25187:25190  100 */\n      0x64\n        /* \".git/MyContracts/KenyaProcurementTransparency0.sol\":25180:25184  year */\n      dup4\n        /* \".git/MyContracts/KenyaProcurementTransparency0.sol\":25180:25190  year % 100 */\n      tag_668\n      jump\t// in\n    tag_670:\n        /* \".git/MyContracts/KenyaProcurementTransparency0.sol\":25180:25195  year % 100 != 0 */\n      0xffff\n      and\n      iszero\n        /* \".git/MyContracts/KenyaProcurementTransparency0.sol\":25176:25208  if (year % 100 != 0) return true */\n      tag_671\n      jumpi\n      pop\n        /* \".git/MyContracts/KenyaProcurementTransparency0.sol\":25204:25208  true */\n      0x01\n      swap2\n        /* \".git/MyContracts/KenyaProcurementTransparency0.sol\":25060:25282  function _isLeapYear(uint16 year) internal pure returns (bool) {... */\n      swap1\n      pop\n      jump\t// out\n        /* \".git/MyContracts/KenyaProcurementTransparency0.sol\":25176:25208  if (year % 100 != 0) return true */\n    tag_671:\n        /* \".git/MyContracts/KenyaProcurementTransparency0.sol\":25223:25233  year % 400 */\n      tag_672\n        /* \".git/MyContracts/KenyaProcurementTransparency0.sol\":25230:25233  400 */\n      0x0190\n        /* \".git/MyContracts/KenyaProcurementTransparency0.sol\":25223:25227  year */\n      dup4\n        /* \".git/MyContracts/KenyaProcurementTransparency0.sol\":25223:25233  year % 400 */\n      tag_668\n      jump\t// in\n    tag_672:\n        /* \".git/MyContracts/KenyaProcurementTransparency0.sol\":25223:25238  year % 400 != 0 */\n      0xffff\n      and\n      iszero\n        /* \".git/MyContracts/KenyaProcurementTransparency0.sol\":25219:25252  if (year % 400 != 0) return false */\n      tag_673\n      jumpi\n      pop\n        /* \".git/MyContracts/KenyaProcurementTransparency0.sol\":25247:25252  false */\n      0x00\n      swap2\n        /* \".git/MyContracts/KenyaProcurementTransparency0.sol\":25060:25282  function _isLeapYear(uint16 year) internal pure returns (bool) {... */\n      swap1\n      pop\n      jump\t// out\n        /* \".git/MyContracts/KenyaProcurementTransparency0.sol\":25219:25252  if (year % 400 != 0) return false */\n    tag_673:\n      pop\n        /* \".git/MyContracts/KenyaProcurementTransparency0.sol\":25270:25274  true */\n      0x01\n      swap2\n        /* \".git/MyContracts/KenyaProcurementTransparency0.sol\":25060:25282  function _isLeapYear(uint16 year) internal pure returns (bool) {... */\n      swap1\n      pop\n      jump\t// out\n        /* \"#utility.yul\":14:194   */\n    tag_49:\n        /* \"#utility.yul\":73:79   */\n      0x00\n        /* \"#utility.yul\":126:128   */\n      0x20\n        /* \"#utility.yul\":114:123   */\n      dup3\n        /* \"#utility.yul\":105:112   */\n      dup5\n        /* \"#utility.yul\":101:124   */\n      sub\n        /* \"#utility.yul\":97:129   */\n      slt\n        /* \"#utility.yul\":94:146   */\n      iszero\n      tag_685\n      jumpi\n        /* \"#utility.yul\":142:143   */\n      0x00\n        /* \"#utility.yul\":139:140   */\n      0x00\n        /* \"#utility.yul\":132:144   */\n      revert\n        /* \"#utility.yul\":94:146   */\n    tag_685:\n      pop\n        /* \"#utility.yul\":165:188   */\n      calldataload\n      swap2\n        /* \"#utility.yul\":14:194   */\n      swap1\n      pop\n      jump\t// out\n        /* \"#utility.yul\":199:326   */\n    tag_221:\n        /* \"#utility.yul\":260:270   */\n      0x4e487b71\n        /* \"#utility.yul\":255:258   */\n      0xe0\n        /* \"#utility.yul\":251:271   */\n      shl\n        /* \"#utility.yul\":248:249   */\n      0x00\n        /* \"#utility.yul\":241:272   */\n      mstore\n        /* \"#utility.yul\":291:295   */\n      0x21\n        /* \"#utility.yul\":288:289   */\n      0x04\n        /* \"#utility.yul\":281:296   */\n      mstore\n        /* \"#utility.yul\":315:319   */\n      0x24\n        /* \"#utility.yul\":312:313   */\n      0x00\n        /* \"#utility.yul\":305:320   */\n      revert\n        /* \"#utility.yul\":331:571   */\n    tag_674:\n        /* \"#utility.yul\":415:416   */\n      0x08\n        /* \"#utility.yul\":408:413   */\n      dup2\n        /* \"#utility.yul\":405:417   */\n      lt\n        /* \"#utility.yul\":395:538   */\n      tag_688\n      jumpi\n        /* \"#utility.yul\":460:470   */\n      0x4e487b71\n        /* \"#utility.yul\":455:458   */\n      0xe0\n        /* \"#utility.yul\":451:471   */\n      shl\n        /* \"#utility.yul\":448:449   */\n      0x00\n        /* \"#utility.yul\":441:472   */\n      mstore\n        /* \"#utility.yul\":495:499   */\n      0x21\n        /* \"#utility.yul\":492:493   */\n      0x04\n        /* \"#utility.yul\":485:500   */\n      mstore\n        /* \"#utility.yul\":523:527   */\n      0x24\n        /* \"#utility.yul\":520:521   */\n      0x00\n        /* \"#utility.yul\":513:528   */\n      revert\n        /* \"#utility.yul\":395:538   */\n    tag_688:\n        /* \"#utility.yul\":547:565   */\n      swap1\n      mstore\n        /* \"#utility.yul\":331:571   */\n      jump\t// out\n        /* \"#utility.yul\":576:788   */\n    tag_58:\n        /* \"#utility.yul\":723:725   */\n      0x20\n        /* \"#utility.yul\":708:726   */\n      dup2\n      add\n        /* \"#utility.yul\":735:782   */\n      tag_303\n        /* \"#utility.yul\":712:721   */\n      dup3\n        /* \"#utility.yul\":764:770   */\n      dup5\n        /* \"#utility.yul\":735:782   */\n      tag_674\n      jump\t// in\n        /* \"#utility.yul\":793:920   */\n    tag_487:\n        /* \"#utility.yul\":854:864   */\n      0x4e487b71\n        /* \"#utility.yul\":849:852   */\n      0xe0\n        /* \"#utility.yul\":845:865   */\n      shl\n        /* \"#utility.yul\":842:843   */\n      0x00\n        /* \"#utility.yul\":835:866   */\n      mstore\n        /* \"#utility.yul\":885:889   */\n      0x41\n        /* \"#utility.yul\":882:883   */\n      0x04\n        /* \"#utility.yul\":875:890   */\n      mstore\n        /* \"#utility.yul\":909:913   */\n      0x24\n        /* \"#utility.yul\":906:907   */\n      0x00\n        /* \"#utility.yul\":899:914   */\n      revert\n        /* \"#utility.yul\":925:1651   */\n    tag_675:\n        /* \"#utility.yul\":968:973   */\n      0x00\n        /* \"#utility.yul\":1021:1024   */\n      dup3\n        /* \"#utility.yul\":1014:1018   */\n      0x1f\n        /* \"#utility.yul\":1006:1012   */\n      dup4\n        /* \"#utility.yul\":1002:1019   */\n      add\n        /* \"#utility.yul\":998:1025   */\n      slt\n        /* \"#utility.yul\":988:1043   */\n      tag_693\n      jumpi\n        /* \"#utility.yul\":1039:1040   */\n      0x00\n        /* \"#utility.yul\":1036:1037   */\n      0x00\n        /* \"#utility.yul\":1029:1041   */\n      revert\n        /* \"#utility.yul\":988:1043   */\n    tag_693:\n        /* \"#utility.yul\":1079:1085   */\n      dup2\n        /* \"#utility.yul\":1066:1086   */\n      calldataload\n      sub(shl(0x40, 0x01), 0x01)\n        /* \"#utility.yul\":1101:1107   */\n      dup2\n        /* \"#utility.yul\":1098:1128   */\n      gt\n        /* \"#utility.yul\":1095:1151   */\n      iszero\n      tag_695\n      jumpi\n        /* \"#utility.yul\":1131:1149   */\n      tag_695\n      tag_487\n      jump\t// in\n    tag_695:\n        /* \"#utility.yul\":1180:1182   */\n      0x40\n        /* \"#utility.yul\":1174:1183   */\n      mload\n        /* \"#utility.yul\":1272:1274   */\n      0x1f\n        /* \"#utility.yul\":1234:1251   */\n      dup3\n      add\n      not(0x1f)\n        /* \"#utility.yul\":1230:1261   */\n      swap1\n      dup2\n      and\n        /* \"#utility.yul\":1263:1265   */\n      0x3f\n        /* \"#utility.yul\":1226:1266   */\n      add\n        /* \"#utility.yul\":1222:1276   */\n      and\n        /* \"#utility.yul\":1210:1277   */\n      dup2\n      add\n      sub(shl(0x40, 0x01), 0x01)\n        /* \"#utility.yul\":1292:1326   */\n      dup2\n      gt\n        /* \"#utility.yul\":1328:1350   */\n      dup3\n      dup3\n      lt\n        /* \"#utility.yul\":1289:1351   */\n      or\n        /* \"#utility.yul\":1286:1374   */\n      iszero\n      tag_697\n      jumpi\n        /* \"#utility.yul\":1354:1372   */\n      tag_697\n      tag_487\n      jump\t// in\n    tag_697:\n        /* \"#utility.yul\":1390:1392   */\n      0x40\n        /* \"#utility.yul\":1383:1405   */\n      mstore\n        /* \"#utility.yul\":1414:1436   */\n      dup2\n      dup2\n      mstore\n        /* \"#utility.yul\":1455:1474   */\n      dup4\n      dup3\n      add\n        /* \"#utility.yul\":1476:1480   */\n      0x20\n        /* \"#utility.yul\":1451:1481   */\n      add\n        /* \"#utility.yul\":1448:1487   */\n      dup6\n      lt\n        /* \"#utility.yul\":1445:1504   */\n      iszero\n      tag_698\n      jumpi\n        /* \"#utility.yul\":1500:1501   */\n      0x00\n        /* \"#utility.yul\":1497:1498   */\n      0x00\n        /* \"#utility.yul\":1490:1502   */\n      revert\n        /* \"#utility.yul\":1445:1504   */\n    tag_698:\n        /* \"#utility.yul\":1564:1570   */\n      dup2\n        /* \"#utility.yul\":1557:1561   */\n      0x20\n        /* \"#utility.yul\":1549:1555   */\n      dup6\n        /* \"#utility.yul\":1545:1562   */\n      add\n        /* \"#utility.yul\":1538:1542   */\n      0x20\n        /* \"#utility.yul\":1530:1536   */\n      dup4\n        /* \"#utility.yul\":1526:1543   */\n      add\n        /* \"#utility.yul\":1513:1571   */\n      calldatacopy\n        /* \"#utility.yul\":1619:1620   */\n      0x00\n        /* \"#utility.yul\":1591:1610   */\n      swap2\n      dup2\n      add\n        /* \"#utility.yul\":1612:1616   */\n      0x20\n        /* \"#utility.yul\":1587:1617   */\n      add\n        /* \"#utility.yul\":1580:1621   */\n      swap2\n      swap1\n      swap2\n      mstore\n        /* \"#utility.yul\":1595:1601   */\n      swap4\n        /* \"#utility.yul\":925:1651   */\n      swap3\n      pop\n      pop\n      pop\n      jump\t// out\n        /* \"#utility.yul\":1656:2092   */\n    tag_62:\n        /* \"#utility.yul\":1734:1740   */\n      0x00\n        /* \"#utility.yul\":1742:1748   */\n      0x00\n        /* \"#utility.yul\":1795:1797   */\n      0x40\n        /* \"#utility.yul\":1783:1792   */\n      dup4\n        /* \"#utility.yul\":1774:1781   */\n      dup6\n        /* \"#utility.yul\":1770:1793   */\n      sub\n        /* \"#utility.yul\":1766:1798   */\n      slt\n        /* \"#utility.yul\":1763:1815   */\n      iszero\n      tag_700\n      jumpi\n        /* \"#utility.yul\":1811:1812   */\n      0x00\n        /* \"#utility.yul\":1808:1809   */\n      0x00\n        /* \"#utility.yul\":1801:1813   */\n      revert\n        /* \"#utility.yul\":1763:1815   */\n    tag_700:\n        /* \"#utility.yul\":1856:1879   */\n      dup3\n      calldataload\n      swap2\n      pop\n        /* \"#utility.yul\":1954:1956   */\n      0x20\n        /* \"#utility.yul\":1939:1957   */\n      dup4\n      add\n        /* \"#utility.yul\":1926:1958   */\n      calldataload\n      sub(shl(0x40, 0x01), 0x01)\n        /* \"#utility.yul\":1970:2000   */\n      dup2\n      gt\n        /* \"#utility.yul\":1967:2017   */\n      iszero\n      tag_701\n      jumpi\n        /* \"#utility.yul\":2013:2014   */\n      0x00\n        /* \"#utility.yul\":2010:2011   */\n      0x00\n        /* \"#utility.yul\":2003:2015   */\n      revert\n        /* \"#utility.yul\":1967:2017   */\n    tag_701:\n        /* \"#utility.yul\":2036:2086   */\n      tag_702\n        /* \"#utility.yul\":2078:2085   */\n      dup6\n        /* \"#utility.yul\":2069:2075   */\n      dup3\n        /* \"#utility.yul\":2058:2067   */\n      dup7\n        /* \"#utility.yul\":2054:2076   */\n      add\n        /* \"#utility.yul\":2036:2086   */\n      tag_675\n      jump\t// in\n    tag_702:\n        /* \"#utility.yul\":2026:2086   */\n      swap2\n      pop\n      pop\n        /* \"#utility.yul\":1656:2092   */\n      swap3\n      pop\n      swap3\n      swap1\n      pop\n      jump\t// out\n        /* \"#utility.yul\":2305:2594   */\n    tag_676:\n        /* \"#utility.yul\":2347:2350   */\n      0x00\n        /* \"#utility.yul\":2385:2390   */\n      dup2\n        /* \"#utility.yul\":2379:2391   */\n      mload\n        /* \"#utility.yul\":2412:2418   */\n      dup1\n        /* \"#utility.yul\":2407:2410   */\n      dup5\n        /* \"#utility.yul\":2400:2419   */\n      mstore\n        /* \"#utility.yul\":2468:2474   */\n      dup1\n        /* \"#utility.yul\":2461:2465   */\n      0x20\n        /* \"#utility.yul\":2454:2459   */\n      dup5\n        /* \"#utility.yul\":2450:2466   */\n      add\n        /* \"#utility.yul\":2443:2447   */\n      0x20\n        /* \"#utility.yul\":2438:2441   */\n      dup7\n        /* \"#utility.yul\":2434:2448   */\n      add\n        /* \"#utility.yul\":2428:2475   */\n      mcopy\n        /* \"#utility.yul\":2520:2521   */\n      0x00\n        /* \"#utility.yul\":2513:2517   */\n      0x20\n        /* \"#utility.yul\":2504:2510   */\n      dup3\n        /* \"#utility.yul\":2499:2502   */\n      dup7\n        /* \"#utility.yul\":2495:2511   */\n      add\n        /* \"#utility.yul\":2491:2518   */\n      add\n        /* \"#utility.yul\":2484:2522   */\n      mstore\n        /* \"#utility.yul\":2583:2587   */\n      0x20\n        /* \"#utility.yul\":2576:2578   */\n      0x1f\n        /* \"#utility.yul\":2572:2579   */\n      not\n        /* \"#utility.yul\":2567:2569   */\n      0x1f\n        /* \"#utility.yul\":2559:2565   */\n      dup4\n        /* \"#utility.yul\":2555:2570   */\n      add\n        /* \"#utility.yul\":2551:2580   */\n      and\n        /* \"#utility.yul\":2546:2549   */\n      dup6\n        /* \"#utility.yul\":2542:2581   */\n      add\n        /* \"#utility.yul\":2538:2588   */\n      add\n        /* \"#utility.yul\":2531:2588   */\n      swap2\n      pop\n      pop\n        /* \"#utility.yul\":2305:2594   */\n      swap3\n      swap2\n      pop\n      pop\n      jump\t// out\n        /* \"#utility.yul\":2599:2819   */\n    tag_73:\n        /* \"#utility.yul\":2748:2750   */\n      0x20\n        /* \"#utility.yul\":2737:2746   */\n      dup2\n        /* \"#utility.yul\":2730:2751   */\n      mstore\n        /* \"#utility.yul\":2711:2715   */\n      0x00\n        /* \"#utility.yul\":2768:2813   */\n      tag_706\n        /* \"#utility.yul\":2809:2811   */\n      0x20\n        /* \"#utility.yul\":2798:2807   */\n      dup4\n        /* \"#utility.yul\":2794:2812   */\n      add\n        /* \"#utility.yul\":2786:2792   */\n      dup5\n        /* \"#utility.yul\":2768:2813   */\n      tag_676\n      jump\t// in\n    tag_706:\n        /* \"#utility.yul\":2760:2813   */\n      swap4\n        /* \"#utility.yul\":2599:2819   */\n      swap3\n      pop\n      pop\n      pop\n      jump\t// out\n        /* \"#utility.yul\":3006:3179   */\n    tag_677:\n        /* \"#utility.yul\":3074:3094   */\n      dup1\n      calldataload\n      sub(shl(0xa0, 0x01), 0x01)\n        /* \"#utility.yul\":3123:3154   */\n      dup2\n      and\n        /* \"#utility.yul\":3113:3155   */\n      dup2\n      eq\n        /* \"#utility.yul\":3103:3173   */\n      tag_709\n      jumpi\n        /* \"#utility.yul\":3169:3170   */\n      0x00\n        /* \"#utility.yul\":3166:3167   */\n      0x00\n        /* \"#utility.yul\":3159:3171   */\n      revert\n        /* \"#utility.yul\":3103:3173   */\n    tag_709:\n        /* \"#utility.yul\":3006:3179   */\n      swap2\n      swap1\n      pop\n      jump\t// out\n        /* \"#utility.yul\":3184:3370   */\n    tag_82:\n        /* \"#utility.yul\":3243:3249   */\n      0x00\n        /* \"#utility.yul\":3296:3298   */\n      0x20\n        /* \"#utility.yul\":3284:3293   */\n      dup3\n        /* \"#utility.yul\":3275:3282   */\n      dup5\n        /* \"#utility.yul\":3271:3294   */\n      sub\n        /* \"#utility.yul\":3267:3299   */\n      slt\n        /* \"#utility.yul\":3264:3316   */\n      iszero\n      tag_711\n      jumpi\n        /* \"#utility.yul\":3312:3313   */\n      0x00\n        /* \"#utility.yul\":3309:3310   */\n      0x00\n        /* \"#utility.yul\":3302:3314   */\n      revert\n        /* \"#utility.yul\":3264:3316   */\n    tag_711:\n        /* \"#utility.yul\":3335:3364   */\n      tag_706\n        /* \"#utility.yul\":3354:3363   */\n      dup3\n        /* \"#utility.yul\":3335:3364   */\n      tag_677\n      jump\t// in\n        /* \"#utility.yul\":3567:3963   */\n    tag_89:\n        /* \"#utility.yul\":3645:3651   */\n      0x00\n        /* \"#utility.yul\":3653:3659   */\n      0x00\n        /* \"#utility.yul\":3706:3708   */\n      0x40\n        /* \"#utility.yul\":3694:3703   */\n      dup4\n        /* \"#utility.yul\":3685:3692   */\n      dup6\n        /* \"#utility.yul\":3681:3704   */\n      sub\n        /* \"#utility.yul\":3677:3709   */\n      slt\n        /* \"#utility.yul\":3674:3726   */\n      iszero\n      tag_715\n      jumpi\n        /* \"#utility.yul\":3722:3723   */\n      0x00\n        /* \"#utility.yul\":3719:3720   */\n      0x00\n        /* \"#utility.yul\":3712:3724   */\n      revert\n        /* \"#utility.yul\":3674:3726   */\n    tag_715:\n        /* \"#utility.yul\":3745:3774   */\n      tag_716\n        /* \"#utility.yul\":3764:3773   */\n      dup4\n        /* \"#utility.yul\":3745:3774   */\n      tag_677\n      jump\t// in\n    tag_716:\n        /* \"#utility.yul\":3735:3774   */\n      swap2\n      pop\n        /* \"#utility.yul\":3825:3827   */\n      0x20\n        /* \"#utility.yul\":3814:3823   */\n      dup4\n        /* \"#utility.yul\":3810:3828   */\n      add\n        /* \"#utility.yul\":3797:3829   */\n      calldataload\n      sub(shl(0x40, 0x01), 0x01)\n        /* \"#utility.yul\":3844:3850   */\n      dup2\n        /* \"#utility.yul\":3841:3871   */\n      gt\n        /* \"#utility.yul\":3838:3888   */\n      iszero\n      tag_701\n      jumpi\n        /* \"#utility.yul\":3884:3885   */\n      0x00\n        /* \"#utility.yul\":3881:3882   */\n      0x00\n        /* \"#utility.yul\":3874:3886   */\n      revert\n        /* \"#utility.yul\":3968:4290   */\n    tag_99:\n        /* \"#utility.yul\":4037:4043   */\n      0x00\n        /* \"#utility.yul\":4090:4092   */\n      0x20\n        /* \"#utility.yul\":4078:4087   */\n      dup3\n        /* \"#utility.yul\":4069:4076   */\n      dup5\n        /* \"#utility.yul\":4065:4088   */\n      sub\n        /* \"#utility.yul\":4061:4093   */\n      slt\n        /* \"#utility.yul\":4058:4110   */\n      iszero\n      tag_720\n      jumpi\n        /* \"#utility.yul\":4106:4107   */\n      0x00\n        /* \"#utility.yul\":4103:4104   */\n      0x00\n        /* \"#utility.yul\":4096:4108   */\n      revert\n        /* \"#utility.yul\":4058:4110   */\n    tag_720:\n        /* \"#utility.yul\":4146:4155   */\n      dup2\n        /* \"#utility.yul\":4133:4156   */\n      calldataload\n      sub(shl(0x40, 0x01), 0x01)\n        /* \"#utility.yul\":4171:4177   */\n      dup2\n        /* \"#utility.yul\":4168:4198   */\n      gt\n        /* \"#utility.yul\":4165:4215   */\n      iszero\n      tag_721\n      jumpi\n        /* \"#utility.yul\":4211:4212   */\n      0x00\n        /* \"#utility.yul\":4208:4209   */\n      0x00\n        /* \"#utility.yul\":4201:4213   */\n      revert\n        /* \"#utility.yul\":4165:4215   */\n    tag_721:\n        /* \"#utility.yul\":4234:4284   */\n      tag_722\n        /* \"#utility.yul\":4276:4283   */\n      dup5\n        /* \"#utility.yul\":4267:4273   */\n      dup3\n        /* \"#utility.yul\":4256:4265   */\n      dup6\n        /* \"#utility.yul\":4252:4274   */\n      add\n        /* \"#utility.yul\":4234:4284   */\n      tag_675\n      jump\t// in\n    tag_722:\n        /* \"#utility.yul\":4224:4284   */\n      swap5\n        /* \"#utility.yul\":3968:4290   */\n      swap4\n      pop\n      pop\n      pop\n      pop\n      jump\t// out\n        /* \"#utility.yul\":4793:5730   */\n    tag_122:\n        /* \"#utility.yul\":5164:5167   */\n      0xe0\n        /* \"#utility.yul\":5153:5162   */\n      dup2\n        /* \"#utility.yul\":5146:5168   */\n      mstore\n        /* \"#utility.yul\":5127:5131   */\n      0x00\n        /* \"#utility.yul\":5191:5237   */\n      tag_725\n        /* \"#utility.yul\":5232:5235   */\n      0xe0\n        /* \"#utility.yul\":5221:5230   */\n      dup4\n        /* \"#utility.yul\":5217:5236   */\n      add\n        /* \"#utility.yul\":5209:5215   */\n      dup11\n        /* \"#utility.yul\":5191:5237   */\n      tag_676\n      jump\t// in\n    tag_725:\n        /* \"#utility.yul\":5285:5294   */\n      dup3\n        /* \"#utility.yul\":5277:5283   */\n      dup2\n        /* \"#utility.yul\":5273:5295   */\n      sub\n        /* \"#utility.yul\":5268:5270   */\n      0x20\n        /* \"#utility.yul\":5257:5266   */\n      dup5\n        /* \"#utility.yul\":5253:5271   */\n      add\n        /* \"#utility.yul\":5246:5296   */\n      mstore\n        /* \"#utility.yul\":5319:5352   */\n      tag_726\n        /* \"#utility.yul\":5345:5351   */\n      dup2\n        /* \"#utility.yul\":5337:5343   */\n      dup11\n        /* \"#utility.yul\":5319:5352   */\n      tag_676\n      jump\t// in\n    tag_726:\n        /* \"#utility.yul\":5305:5352   */\n      swap1\n      pop\n        /* \"#utility.yul\":5400:5409   */\n      dup3\n        /* \"#utility.yul\":5392:5398   */\n      dup2\n        /* \"#utility.yul\":5388:5410   */\n      sub\n        /* \"#utility.yul\":5383:5385   */\n      0x40\n        /* \"#utility.yul\":5372:5381   */\n      dup5\n        /* \"#utility.yul\":5368:5386   */\n      add\n        /* \"#utility.yul\":5361:5411   */\n      mstore\n        /* \"#utility.yul\":5434:5467   */\n      tag_727\n        /* \"#utility.yul\":5460:5466   */\n      dup2\n        /* \"#utility.yul\":5452:5458   */\n      dup10\n        /* \"#utility.yul\":5434:5467   */\n      tag_676\n      jump\t// in\n    tag_727:\n        /* \"#utility.yul\":5420:5467   */\n      swap1\n      pop\n        /* \"#utility.yul\":5503:5509   */\n      dup7\n        /* \"#utility.yul\":5498:5500   */\n      0x60\n        /* \"#utility.yul\":5487:5496   */\n      dup5\n        /* \"#utility.yul\":5483:5501   */\n      add\n        /* \"#utility.yul\":5476:5510   */\n      mstore\n        /* \"#utility.yul\":5547:5553   */\n      dup6\n        /* \"#utility.yul\":5541:5544   */\n      0x80\n        /* \"#utility.yul\":5530:5539   */\n      dup5\n        /* \"#utility.yul\":5526:5545   */\n      add\n        /* \"#utility.yul\":5519:5554   */\n      mstore\n        /* \"#utility.yul\":5603:5612   */\n      dup3\n        /* \"#utility.yul\":5595:5601   */\n      dup2\n        /* \"#utility.yul\":5591:5613   */\n      sub\n        /* \"#utility.yul\":5585:5588   */\n      0xa0\n        /* \"#utility.yul\":5574:5583   */\n      dup5\n        /* \"#utility.yul\":5570:5589   */\n      add\n        /* \"#utility.yul\":5563:5614   */\n      mstore\n        /* \"#utility.yul\":5631:5664   */\n      tag_728\n        /* \"#utility.yul\":5657:5663   */\n      dup2\n        /* \"#utility.yul\":5649:5655   */\n      dup7\n        /* \"#utility.yul\":5631:5664   */\n      tag_676\n      jump\t// in\n    tag_728:\n        /* \"#utility.yul\":5623:5664   */\n      swap2\n      pop\n      pop\n        /* \"#utility.yul\":5715:5721   */\n      dup3\n        /* \"#utility.yul\":5708:5722   */\n      iszero\n        /* \"#utility.yul\":5701:5723   */\n      iszero\n        /* \"#utility.yul\":5695:5698   */\n      0xc0\n        /* \"#utility.yul\":5684:5693   */\n      dup4\n        /* \"#utility.yul\":5680:5699   */\n      add\n        /* \"#utility.yul\":5673:5724   */\n      mstore\n        /* \"#utility.yul\":4793:5730   */\n      swap9\n      swap8\n      pop\n      pop\n      pop\n      pop\n      pop\n      pop\n      pop\n      pop\n      jump\t// out\n        /* \"#utility.yul\":6343:8156   */\n    tag_148:\n        /* \"#utility.yul\":6531:6537   */\n      0x00\n        /* \"#utility.yul\":6539:6545   */\n      0x00\n        /* \"#utility.yul\":6547:6553   */\n      0x00\n        /* \"#utility.yul\":6555:6561   */\n      0x00\n        /* \"#utility.yul\":6563:6569   */\n      0x00\n        /* \"#utility.yul\":6571:6577   */\n      0x00\n        /* \"#utility.yul\":6579:6585   */\n      0x00\n        /* \"#utility.yul\":6587:6593   */\n      0x00\n        /* \"#utility.yul\":6595:6601   */\n      0x00\n        /* \"#utility.yul\":6603:6609   */\n      0x00\n        /* \"#utility.yul\":6611:6618   */\n      0x00\n        /* \"#utility.yul\":6665:6668   */\n      0x0160\n        /* \"#utility.yul\":6653:6662   */\n      dup13\n        /* \"#utility.yul\":6644:6651   */\n      dup15\n        /* \"#utility.yul\":6640:6663   */\n      sub\n        /* \"#utility.yul\":6636:6669   */\n      slt\n        /* \"#utility.yul\":6633:6686   */\n      iszero\n      tag_732\n      jumpi\n        /* \"#utility.yul\":6682:6683   */\n      0x00\n        /* \"#utility.yul\":6679:6680   */\n      0x00\n        /* \"#utility.yul\":6672:6684   */\n      revert\n        /* \"#utility.yul\":6633:6686   */\n    tag_732:\n        /* \"#utility.yul\":6722:6731   */\n      dup12\n        /* \"#utility.yul\":6709:6732   */\n      calldataload\n      sub(shl(0x40, 0x01), 0x01)\n        /* \"#utility.yul\":6747:6753   */\n      dup2\n        /* \"#utility.yul\":6744:6774   */\n      gt\n        /* \"#utility.yul\":6741:6791   */\n      iszero\n      tag_733\n      jumpi\n        /* \"#utility.yul\":6787:6788   */\n      0x00\n        /* \"#utility.yul\":6784:6785   */\n      0x00\n        /* \"#utility.yul\":6777:6789   */\n      revert\n        /* \"#utility.yul\":6741:6791   */\n    tag_733:\n        /* \"#utility.yul\":6810:6860   */\n      tag_734\n        /* \"#utility.yul\":6852:6859   */\n      dup15\n        /* \"#utility.yul\":6843:6849   */\n      dup3\n        /* \"#utility.yul\":6832:6841   */\n      dup16\n        /* \"#utility.yul\":6828:6850   */\n      add\n        /* \"#utility.yul\":6810:6860   */\n      tag_675\n      jump\t// in\n    tag_734:\n        /* \"#utility.yul\":6800:6860   */\n      swap12\n      pop\n      pop\n        /* \"#utility.yul\":6913:6915   */\n      0x20\n        /* \"#utility.yul\":6902:6911   */\n      dup13\n        /* \"#utility.yul\":6898:6916   */\n      add\n        /* \"#utility.yul\":6885:6917   */\n      calldataload\n      sub(shl(0x40, 0x01), 0x01)\n        /* \"#utility.yul\":6932:6940   */\n      dup2\n        /* \"#utility.yul\":6929:6961   */\n      gt\n        /* \"#utility.yul\":6926:6978   */\n      iszero\n      tag_735\n      jumpi\n        /* \"#utility.yul\":6974:6975   */\n      0x00\n        /* \"#utility.yul\":6971:6972   */\n      0x00\n        /* \"#utility.yul\":6964:6976   */\n      revert\n        /* \"#utility.yul\":6926:6978   */\n    tag_735:\n        /* \"#utility.yul\":6997:7049   */\n      tag_736\n        /* \"#utility.yul\":7041:7048   */\n      dup15\n        /* \"#utility.yul\":7030:7038   */\n      dup3\n        /* \"#utility.yul\":7019:7028   */\n      dup16\n        /* \"#utility.yul\":7015:7039   */\n      add\n        /* \"#utility.yul\":6997:7049   */\n      tag_675\n      jump\t// in\n    tag_736:\n        /* \"#utility.yul\":6987:7049   */\n      swap11\n      pop\n      pop\n        /* \"#utility.yul\":7102:7104   */\n      0x40\n        /* \"#utility.yul\":7091:7100   */\n      dup13\n        /* \"#utility.yul\":7087:7105   */\n      add\n        /* \"#utility.yul\":7074:7106   */\n      calldataload\n      sub(shl(0x40, 0x01), 0x01)\n        /* \"#utility.yul\":7121:7129   */\n      dup2\n        /* \"#utility.yul\":7118:7150   */\n      gt\n        /* \"#utility.yul\":7115:7167   */\n      iszero\n      tag_737\n      jumpi\n        /* \"#utility.yul\":7163:7164   */\n      0x00\n        /* \"#utility.yul\":7160:7161   */\n      0x00\n        /* \"#utility.yul\":7153:7165   */\n      revert\n        /* \"#utility.yul\":7115:7167   */\n    tag_737:\n        /* \"#utility.yul\":7186:7238   */\n      tag_738\n        /* \"#utility.yul\":7230:7237   */\n      dup15\n        /* \"#utility.yul\":7219:7227   */\n      dup3\n        /* \"#utility.yul\":7208:7217   */\n      dup16\n        /* \"#utility.yul\":7204:7228   */\n      add\n        /* \"#utility.yul\":7186:7238   */\n      tag_675\n      jump\t// in\n    tag_738:\n        /* \"#utility.yul\":7176:7238   */\n      swap10\n      pop\n      pop\n        /* \"#utility.yul\":7307:7309   */\n      0x60\n        /* \"#utility.yul\":7292:7310   */\n      dup13\n      add\n        /* \"#utility.yul\":7279:7311   */\n      calldataload\n      swap8\n      pop\n        /* \"#utility.yul\":7408:7411   */\n      0x80\n        /* \"#utility.yul\":7393:7412   */\n      dup13\n      add\n        /* \"#utility.yul\":7380:7413   */\n      calldataload\n      swap7\n      pop\n        /* \"#utility.yul\":7512:7515   */\n      0xa0\n        /* \"#utility.yul\":7497:7516   */\n      dup13\n      add\n        /* \"#utility.yul\":7484:7517   */\n      calldataload\n      swap6\n      pop\n        /* \"#utility.yul\":7616:7619   */\n      0xc0\n        /* \"#utility.yul\":7601:7620   */\n      dup13\n      add\n        /* \"#utility.yul\":7588:7621   */\n      calldataload\n      swap5\n      pop\n        /* \"#utility.yul\":7720:7723   */\n      0xe0\n        /* \"#utility.yul\":7705:7724   */\n      dup13\n      add\n        /* \"#utility.yul\":7692:7725   */\n      calldataload\n      swap4\n      pop\n        /* \"#utility.yul\":7824:7827   */\n      0x0100\n        /* \"#utility.yul\":7809:7828   */\n      dup13\n      add\n        /* \"#utility.yul\":7796:7829   */\n      calldataload\n      swap3\n      pop\n        /* \"#utility.yul\":7928:7931   */\n      0x0120\n        /* \"#utility.yul\":7913:7932   */\n      dup13\n      add\n        /* \"#utility.yul\":7900:7933   */\n      calldataload\n      swap2\n      pop\n        /* \"#utility.yul\":8012:8015   */\n      0x0140\n        /* \"#utility.yul\":7997:8016   */\n      dup13\n      add\n        /* \"#utility.yul\":7984:8017   */\n      calldataload\n      sub(shl(0x40, 0x01), 0x01)\n        /* \"#utility.yul\":8029:8061   */\n      dup2\n      gt\n        /* \"#utility.yul\":8026:8078   */\n      iszero\n      tag_739\n      jumpi\n        /* \"#utility.yul\":8074:8075   */\n      0x00\n        /* \"#utility.yul\":8071:8072   */\n      0x00\n        /* \"#utility.yul\":8064:8076   */\n      revert\n        /* \"#utility.yul\":8026:8078   */\n    tag_739:\n        /* \"#utility.yul\":8098:8150   */\n      tag_740\n        /* \"#utility.yul\":8142:8149   */\n      dup15\n        /* \"#utility.yul\":8131:8139   */\n      dup3\n        /* \"#utility.yul\":8120:8129   */\n      dup16\n        /* \"#utility.yul\":8116:8140   */\n      add\n        /* \"#utility.yul\":8098:8150   */\n      tag_675\n      jump\t// in\n    tag_740:\n        /* \"#utility.yul\":8087:8150   */\n      swap2\n      pop\n      pop\n        /* \"#utility.yul\":6343:8156   */\n      swap3\n      swap6\n      swap9\n      swap12\n      pop\n      swap3\n      swap6\n      swap9\n      swap12\n      swap1\n      swap4\n      swap7\n      swap10\n      pop\n      jump\t// out\n        /* \"#utility.yul\":8161:8462   */\n    tag_155:\n        /* \"#utility.yul\":8346:8352   */\n      dup3\n        /* \"#utility.yul\":8339:8353   */\n      iszero\n        /* \"#utility.yul\":8332:8354   */\n      iszero\n        /* \"#utility.yul\":8321:8330   */\n      dup2\n        /* \"#utility.yul\":8314:8355   */\n      mstore\n        /* \"#utility.yul\":8391:8393   */\n      0x40\n        /* \"#utility.yul\":8386:8388   */\n      0x20\n        /* \"#utility.yul\":8375:8384   */\n      dup3\n        /* \"#utility.yul\":8371:8389   */\n      add\n        /* \"#utility.yul\":8364:8394   */\n      mstore\n        /* \"#utility.yul\":8295:8299   */\n      0x00\n        /* \"#utility.yul\":8411:8456   */\n      tag_722\n        /* \"#utility.yul\":8452:8454   */\n      0x40\n        /* \"#utility.yul\":8441:8450   */\n      dup4\n        /* \"#utility.yul\":8437:8455   */\n      add\n        /* \"#utility.yul\":8429:8435   */\n      dup5\n        /* \"#utility.yul\":8411:8456   */\n      tag_676\n      jump\t// in\n        /* \"#utility.yul\":8467:9046   */\n    tag_678:\n        /* \"#utility.yul\":8519:8522   */\n      0x00\n        /* \"#utility.yul\":8550:8553   */\n      dup3\n        /* \"#utility.yul\":8582:8587   */\n      dup3\n        /* \"#utility.yul\":8576:8588   */\n      mload\n        /* \"#utility.yul\":8609:8615   */\n      dup1\n        /* \"#utility.yul\":8604:8607   */\n      dup6\n        /* \"#utility.yul\":8597:8616   */\n      mstore\n        /* \"#utility.yul\":8641:8645   */\n      0x20\n        /* \"#utility.yul\":8636:8639   */\n      dup6\n        /* \"#utility.yul\":8632:8646   */\n      add\n        /* \"#utility.yul\":8625:8646   */\n      swap5\n      pop\n        /* \"#utility.yul\":8699:8703   */\n      0x20\n        /* \"#utility.yul\":8689:8695   */\n      dup2\n        /* \"#utility.yul\":8686:8687   */\n      0x05\n        /* \"#utility.yul\":8682:8696   */\n      shl\n        /* \"#utility.yul\":8675:8680   */\n      dup4\n        /* \"#utility.yul\":8671:8697   */\n      add\n        /* \"#utility.yul\":8667:8704   */\n      add\n        /* \"#utility.yul\":8738:8742   */\n      0x20\n        /* \"#utility.yul\":8731:8736   */\n      dup6\n        /* \"#utility.yul\":8727:8743   */\n      add\n        /* \"#utility.yul\":8761:8762   */\n      0x00\n        /* \"#utility.yul\":8771:9020   */\n    tag_744:\n        /* \"#utility.yul\":8785:8791   */\n      dup4\n        /* \"#utility.yul\":8782:8783   */\n      dup2\n        /* \"#utility.yul\":8779:8792   */\n      lt\n        /* \"#utility.yul\":8771:9020   */\n      iszero\n      tag_746\n      jumpi\n        /* \"#utility.yul\":8872:8874   */\n      0x1f\n        /* \"#utility.yul\":8868:8875   */\n      not\n        /* \"#utility.yul\":8860:8865   */\n      dup6\n        /* \"#utility.yul\":8854:8858   */\n      dup5\n        /* \"#utility.yul\":8850:8866   */\n      sub\n        /* \"#utility.yul\":8846:8876   */\n      add\n        /* \"#utility.yul\":8841:8844   */\n      dup9\n        /* \"#utility.yul\":8834:8877   */\n      mstore\n        /* \"#utility.yul\":8898:8936   */\n      tag_747\n        /* \"#utility.yul\":8931:8935   */\n      dup4\n        /* \"#utility.yul\":8922:8928   */\n      dup4\n        /* \"#utility.yul\":8916:8929   */\n      mload\n        /* \"#utility.yul\":8898:8936   */\n      tag_676\n      jump\t// in\n    tag_747:\n        /* \"#utility.yul\":8971:8975   */\n      0x20\n        /* \"#utility.yul\":8996:9010   */\n      swap9\n      dup10\n      add\n      swap9\n        /* \"#utility.yul\":8890:8936   */\n      swap1\n      swap4\n      pop\n        /* \"#utility.yul\":8959:8976   */\n      swap2\n      swap1\n      swap2\n      add\n      swap1\n        /* \"#utility.yul\":8807:8808   */\n      0x01\n        /* \"#utility.yul\":8800:8809   */\n      add\n        /* \"#utility.yul\":8771:9020   */\n      jump(tag_744)\n    tag_746:\n      pop\n        /* \"#utility.yul\":9036:9040   */\n      swap1\n      swap7\n        /* \"#utility.yul\":8467:9046   */\n      swap6\n      pop\n      pop\n      pop\n      pop\n      pop\n      pop\n      jump\t// out\n        /* \"#utility.yul\":9051:10416   */\n    tag_169:\n        /* \"#utility.yul\":9417:9419   */\n      0x60\n        /* \"#utility.yul\":9429:9450   */\n      dup1\n      dup3\n      mstore\n        /* \"#utility.yul\":9499:9512   */\n      dup5\n      mload\n        /* \"#utility.yul\":9402:9420   */\n      swap1\n      dup3\n      add\n        /* \"#utility.yul\":9521:9543   */\n      dup2\n      swap1\n      mstore\n        /* \"#utility.yul\":9369:9373   */\n      0x00\n      swap1\n        /* \"#utility.yul\":9613:9617   */\n      0x20\n        /* \"#utility.yul\":9601:9618   */\n      dup7\n      add\n      swap1\n        /* \"#utility.yul\":9574:9577   */\n      0x80\n        /* \"#utility.yul\":9559:9578   */\n      dup5\n      add\n      swap1\n        /* \"#utility.yul\":9369:9373   */\n      dup4\n        /* \"#utility.yul\":9646:9819   */\n    tag_749:\n        /* \"#utility.yul\":9660:9666   */\n      dup2\n        /* \"#utility.yul\":9657:9658   */\n      dup2\n        /* \"#utility.yul\":9654:9667   */\n      lt\n        /* \"#utility.yul\":9646:9819   */\n      iszero\n      tag_751\n      jumpi\n        /* \"#utility.yul\":9721:9734   */\n      dup4\n      mload\n        /* \"#utility.yul\":9709:9735   */\n      dup4\n      mstore\n        /* \"#utility.yul\":9764:9768   */\n      0x20\n        /* \"#utility.yul\":9792:9809   */\n      swap4\n      dup5\n      add\n      swap4\n        /* \"#utility.yul\":9755:9769   */\n      swap1\n      swap3\n      add\n      swap2\n        /* \"#utility.yul\":9682:9683   */\n      0x01\n        /* \"#utility.yul\":9675:9684   */\n      add\n        /* \"#utility.yul\":9646:9819   */\n      jump(tag_749)\n    tag_751:\n      pop\n      pop\n        /* \"#utility.yul\":9857:9876   */\n      dup4\n      dup2\n      sub\n        /* \"#utility.yul\":9850:9854   */\n      0x20\n        /* \"#utility.yul\":9835:9855   */\n      dup1\n      dup7\n      add\n        /* \"#utility.yul\":9828:9877   */\n      swap2\n      swap1\n      swap2\n      mstore\n        /* \"#utility.yul\":9927:9940   */\n      dup7\n      mload\n        /* \"#utility.yul\":9949:9970   */\n      dup1\n      dup4\n      mstore\n        /* \"#utility.yul\":9988:10002   */\n      swap2\n      dup2\n      add\n      swap3\n      pop\n        /* \"#utility.yul\":10027:10044   */\n      dup7\n      add\n      swap1\n        /* \"#utility.yul\":10064:10065   */\n      0x00\n        /* \"#utility.yul\":10074:10293   */\n    tag_752:\n        /* \"#utility.yul\":10090:10098   */\n      dup2\n        /* \"#utility.yul\":10085:10088   */\n      dup2\n        /* \"#utility.yul\":10082:10099   */\n      lt\n        /* \"#utility.yul\":10074:10293   */\n      iszero\n      tag_754\n      jumpi\n        /* \"#utility.yul\":10163:10178   */\n      dup3\n      mload\n      sub(shl(0xa0, 0x01), 0x01)\n        /* \"#utility.yul\":10159:10200   */\n      and\n        /* \"#utility.yul\":10145:10201   */\n      dup5\n      mstore\n        /* \"#utility.yul\":10234:10238   */\n      0x20\n        /* \"#utility.yul\":10223:10239   */\n      swap4\n      dup5\n      add\n      swap4\n        /* \"#utility.yul\":10264:10283   */\n      swap1\n      swap3\n      add\n      swap2\n        /* \"#utility.yul\":10197:10198   */\n      0x01\n        /* \"#utility.yul\":10109:10120   */\n      add\n        /* \"#utility.yul\":10074:10293   */\n      jump(tag_752)\n    tag_754:\n        /* \"#utility.yul\":10078:10081   */\n      pop\n      pop\n      pop\n        /* \"#utility.yul\":10340:10349   */\n      dup3\n        /* \"#utility.yul\":10333:10338   */\n      dup2\n        /* \"#utility.yul\":10329:10350   */\n      sub\n        /* \"#utility.yul\":10324:10326   */\n      0x40\n        /* \"#utility.yul\":10313:10322   */\n      dup5\n        /* \"#utility.yul\":10309:10327   */\n      add\n        /* \"#utility.yul\":10302:10351   */\n      mstore\n        /* \"#utility.yul\":10368:10410   */\n      tag_755\n        /* \"#utility.yul\":10404:10409   */\n      dup2\n        /* \"#utility.yul\":10396:10402   */\n      dup6\n        /* \"#utility.yul\":10368:10410   */\n      tag_678\n      jump\t// in\n    tag_755:\n        /* \"#utility.yul\":10360:10410   */\n      swap7\n        /* \"#utility.yul\":9051:10416   */\n      swap6\n      pop\n      pop\n      pop\n      pop\n      pop\n      pop\n      jump\t// out\n        /* \"#utility.yul\":10652:11784   */\n    tag_204:\n        /* \"#utility.yul\":11098:11101   */\n      0x0120\n        /* \"#utility.yul\":11087:11096   */\n      dup2\n        /* \"#utility.yul\":11080:11102   */\n      mstore\n        /* \"#utility.yul\":11061:11065   */\n      0x00\n        /* \"#utility.yul\":11125:11171   */\n      tag_759\n        /* \"#utility.yul\":11166:11169   */\n      0x0120\n        /* \"#utility.yul\":11155:11164   */\n      dup4\n        /* \"#utility.yul\":11151:11170   */\n      add\n        /* \"#utility.yul\":11143:11149   */\n      dup13\n        /* \"#utility.yul\":11125:11171   */\n      tag_676\n      jump\t// in\n    tag_759:\n        /* \"#utility.yul\":11219:11228   */\n      dup3\n        /* \"#utility.yul\":11211:11217   */\n      dup2\n        /* \"#utility.yul\":11207:11229   */\n      sub\n        /* \"#utility.yul\":11202:11204   */\n      0x20\n        /* \"#utility.yul\":11191:11200   */\n      dup5\n        /* \"#utility.yul\":11187:11205   */\n      add\n        /* \"#utility.yul\":11180:11230   */\n      mstore\n        /* \"#utility.yul\":11253:11286   */\n      tag_760\n        /* \"#utility.yul\":11279:11285   */\n      dup2\n        /* \"#utility.yul\":11271:11277   */\n      dup13\n        /* \"#utility.yul\":11253:11286   */\n      tag_676\n      jump\t// in\n    tag_760:\n        /* \"#utility.yul\":11239:11286   */\n      swap1\n      pop\n        /* \"#utility.yul\":11334:11343   */\n      dup3\n        /* \"#utility.yul\":11326:11332   */\n      dup2\n        /* \"#utility.yul\":11322:11344   */\n      sub\n        /* \"#utility.yul\":11317:11319   */\n      0x40\n        /* \"#utility.yul\":11306:11315   */\n      dup5\n        /* \"#utility.yul\":11302:11320   */\n      add\n        /* \"#utility.yul\":11295:11345   */\n      mstore\n        /* \"#utility.yul\":11368:11401   */\n      tag_761\n        /* \"#utility.yul\":11394:11400   */\n      dup2\n        /* \"#utility.yul\":11386:11392   */\n      dup12\n        /* \"#utility.yul\":11368:11401   */\n      tag_676\n      jump\t// in\n    tag_761:\n        /* \"#utility.yul\":11354:11401   */\n      swap1\n      pop\n        /* \"#utility.yul\":11437:11443   */\n      dup9\n        /* \"#utility.yul\":11432:11434   */\n      0x60\n        /* \"#utility.yul\":11421:11430   */\n      dup5\n        /* \"#utility.yul\":11417:11435   */\n      add\n        /* \"#utility.yul\":11410:11444   */\n      mstore\n        /* \"#utility.yul\":11481:11487   */\n      dup8\n        /* \"#utility.yul\":11475:11478   */\n      0x80\n        /* \"#utility.yul\":11464:11473   */\n      dup5\n        /* \"#utility.yul\":11460:11479   */\n      add\n        /* \"#utility.yul\":11453:11488   */\n      mstore\n        /* \"#utility.yul\":11537:11546   */\n      dup3\n        /* \"#utility.yul\":11529:11535   */\n      dup2\n        /* \"#utility.yul\":11525:11547   */\n      sub\n        /* \"#utility.yul\":11519:11522   */\n      0xa0\n        /* \"#utility.yul\":11508:11517   */\n      dup5\n        /* \"#utility.yul\":11504:11523   */\n      add\n        /* \"#utility.yul\":11497:11548   */\n      mstore\n        /* \"#utility.yul\":11565:11598   */\n      tag_762\n        /* \"#utility.yul\":11591:11597   */\n      dup2\n        /* \"#utility.yul\":11583:11589   */\n      dup9\n        /* \"#utility.yul\":11565:11598   */\n      tag_676\n      jump\t// in\n    tag_762:\n        /* \"#utility.yul\":11557:11598   */\n      swap2\n      pop\n      pop\n        /* \"#utility.yul\":11607:11664   */\n      tag_763\n        /* \"#utility.yul\":11659:11662   */\n      0xc0\n        /* \"#utility.yul\":11648:11657   */\n      dup4\n        /* \"#utility.yul\":11644:11663   */\n      add\n        /* \"#utility.yul\":11636:11642   */\n      dup7\n        /* \"#utility.yul\":11607:11664   */\n      tag_674\n      jump\t// in\n    tag_763:\n      sub(shl(0xa0, 0x01), 0x01)\n        /* \"#utility.yul\":11701:11733   */\n      swap4\n      swap1\n      swap4\n      and\n        /* \"#utility.yul\":11695:11698   */\n      0xe0\n        /* \"#utility.yul\":11680:11699   */\n      dup3\n      add\n        /* \"#utility.yul\":11673:11734   */\n      mstore\n        /* \"#utility.yul\":11765:11768   */\n      0x0100\n        /* \"#utility.yul\":11750:11769   */\n      add\n        /* \"#utility.yul\":11743:11778   */\n      mstore\n        /* \"#utility.yul\":10652:11784   */\n      swap8\n      swap7\n      pop\n      pop\n      pop\n      pop\n      pop\n      pop\n      pop\n      jump\t// out\n        /* \"#utility.yul\":13121:13496   */\n    tag_266:\n        /* \"#utility.yul\":13310:13316   */\n      dup3\n        /* \"#utility.yul\":13305:13308   */\n      dup2\n        /* \"#utility.yul\":13298:13317   */\n      mstore\n        /* \"#utility.yul\":13280:13283   */\n      0x00\n        /* \"#utility.yul\":13346:13352   */\n      dup3\n        /* \"#utility.yul\":13340:13353   */\n      mload\n        /* \"#utility.yul\":13399:13405   */\n      dup1\n        /* \"#utility.yul\":13394:13396   */\n      0x20\n        /* \"#utility.yul\":13386:13392   */\n      dup6\n        /* \"#utility.yul\":13382:13397   */\n      add\n        /* \"#utility.yul\":13377:13379   */\n      0x20\n        /* \"#utility.yul\":13372:13375   */\n      dup6\n        /* \"#utility.yul\":13368:13380   */\n      add\n        /* \"#utility.yul\":13362:13406   */\n      mcopy\n        /* \"#utility.yul\":13470:13471   */\n      0x00\n        /* \"#utility.yul\":13429:13445   */\n      swap3\n      add\n        /* \"#utility.yul\":13447:13449   */\n      0x20\n        /* \"#utility.yul\":13425:13450   */\n      add\n        /* \"#utility.yul\":13459:13472   */\n      swap2\n      dup3\n      mstore\n      pop\n        /* \"#utility.yul\":13425:13450   */\n      swap3\n        /* \"#utility.yul\":13121:13496   */\n      swap2\n      pop\n      pop\n      jump\t// out\n        /* \"#utility.yul\":14141:14521   */\n    tag_273:\n        /* \"#utility.yul\":14220:14221   */\n      0x01\n        /* \"#utility.yul\":14216:14228   */\n      dup2\n      dup2\n      shr\n      swap1\n        /* \"#utility.yul\":14263:14275   */\n      dup3\n      and\n      dup1\n        /* \"#utility.yul\":14284:14345   */\n      tag_772\n      jumpi\n        /* \"#utility.yul\":14338:14342   */\n      0x7f\n        /* \"#utility.yul\":14330:14336   */\n      dup3\n        /* \"#utility.yul\":14326:14343   */\n      and\n        /* \"#utility.yul\":14316:14343   */\n      swap2\n      pop\n        /* \"#utility.yul\":14284:14345   */\n    tag_772:\n        /* \"#utility.yul\":14391:14393   */\n      0x20\n        /* \"#utility.yul\":14383:14389   */\n      dup3\n        /* \"#utility.yul\":14380:14394   */\n      lt\n        /* \"#utility.yul\":14360:14378   */\n      dup2\n        /* \"#utility.yul\":14357:14395   */\n      sub\n        /* \"#utility.yul\":14354:14515   */\n      tag_773\n      jumpi\n        /* \"#utility.yul\":14437:14447   */\n      0x4e487b71\n        /* \"#utility.yul\":14432:14435   */\n      0xe0\n        /* \"#utility.yul\":14428:14448   */\n      shl\n        /* \"#utility.yul\":14425:14426   */\n      0x00\n        /* \"#utility.yul\":14418:14449   */\n      mstore\n        /* \"#utility.yul\":14472:14476   */\n      0x22\n        /* \"#utility.yul\":14469:14470   */\n      0x04\n        /* \"#utility.yul\":14462:14477   */\n      mstore\n        /* \"#utility.yul\":14500:14504   */\n      0x24\n        /* \"#utility.yul\":14497:14498   */\n      0x00\n        /* \"#utility.yul\":14490:14505   */\n      revert\n        /* \"#utility.yul\":14354:14515   */\n    tag_773:\n      pop\n        /* \"#utility.yul\":14141:14521   */\n      swap2\n      swap1\n      pop\n      jump\t// out\n        /* \"#utility.yul\":15706:16224   */\n    tag_680:\n        /* \"#utility.yul\":15808:15810   */\n      0x1f\n        /* \"#utility.yul\":15803:15806   */\n      dup3\n        /* \"#utility.yul\":15800:15811   */\n      gt\n        /* \"#utility.yul\":15797:16218   */\n      iszero\n      tag_779\n      jumpi\n        /* \"#utility.yul\":15844:15849   */\n      dup1\n        /* \"#utility.yul\":15841:15842   */\n      0x00\n        /* \"#utility.yul\":15834:15850   */\n      mstore\n        /* \"#utility.yul\":15888:15892   */\n      0x20\n        /* \"#utility.yul\":15885:15886   */\n      0x00\n        /* \"#utility.yul\":15875:15893   */\n      keccak256\n        /* \"#utility.yul\":15958:15960   */\n      0x1f\n        /* \"#utility.yul\":15946:15956   */\n      dup5\n        /* \"#utility.yul\":15942:15961   */\n      add\n        /* \"#utility.yul\":15939:15940   */\n      0x05\n        /* \"#utility.yul\":15935:15962   */\n      shr\n        /* \"#utility.yul\":15929:15933   */\n      dup2\n        /* \"#utility.yul\":15925:15963   */\n      add\n        /* \"#utility.yul\":15994:15998   */\n      0x20\n        /* \"#utility.yul\":15982:15992   */\n      dup6\n        /* \"#utility.yul\":15979:15999   */\n      lt\n        /* \"#utility.yul\":15976:16023   */\n      iszero\n      tag_780\n      jumpi\n      pop\n        /* \"#utility.yul\":16017:16021   */\n      dup1\n        /* \"#utility.yul\":15976:16023   */\n    tag_780:\n        /* \"#utility.yul\":16072:16074   */\n      0x1f\n        /* \"#utility.yul\":16067:16070   */\n      dup5\n        /* \"#utility.yul\":16063:16075   */\n      add\n        /* \"#utility.yul\":16060:16061   */\n      0x05\n        /* \"#utility.yul\":16056:16076   */\n      shr\n        /* \"#utility.yul\":16050:16054   */\n      dup3\n        /* \"#utility.yul\":16046:16077   */\n      add\n        /* \"#utility.yul\":16036:16077   */\n      swap2\n      pop\n        /* \"#utility.yul\":16127:16208   */\n    tag_781:\n        /* \"#utility.yul\":16145:16147   */\n      dup2\n        /* \"#utility.yul\":16138:16143   */\n      dup2\n        /* \"#utility.yul\":16135:16148   */\n      lt\n        /* \"#utility.yul\":16127:16208   */\n      iszero\n      tag_783\n      jumpi\n        /* \"#utility.yul\":16204:16205   */\n      0x00\n        /* \"#utility.yul\":16190:16206   */\n      dup2\n      sstore\n        /* \"#utility.yul\":16171:16172   */\n      0x01\n        /* \"#utility.yul\":16160:16173   */\n      add\n        /* \"#utility.yul\":16127:16208   */\n      jump(tag_781)\n    tag_783:\n        /* \"#utility.yul\":16131:16134   */\n      pop\n      pop\n        /* \"#utility.yul\":15797:16218   */\n    tag_779:\n        /* \"#utility.yul\":15706:16224   */\n      pop\n      pop\n      pop\n      jump\t// out\n        /* \"#utility.yul\":16400:17699   */\n    tag_299:\n        /* \"#utility.yul\":16526:16529   */\n      dup2\n        /* \"#utility.yul\":16520:16530   */\n      mload\n      sub(shl(0x40, 0x01), 0x01)\n        /* \"#utility.yul\":16545:16551   */\n      dup2\n        /* \"#utility.yul\":16542:16572   */\n      gt\n        /* \"#utility.yul\":16539:16595   */\n      iszero\n      tag_787\n      jumpi\n        /* \"#utility.yul\":16575:16593   */\n      tag_787\n      tag_487\n      jump\t// in\n    tag_787:\n        /* \"#utility.yul\":16604:16701   */\n      tag_788\n        /* \"#utility.yul\":16694:16700   */\n      dup2\n        /* \"#utility.yul\":16654:16692   */\n      tag_789\n        /* \"#utility.yul\":16686:16690   */\n      dup5\n        /* \"#utility.yul\":16680:16691   */\n      sload\n        /* \"#utility.yul\":16654:16692   */\n      tag_273\n      jump\t// in\n    tag_789:\n        /* \"#utility.yul\":16648:16652   */\n      dup5\n        /* \"#utility.yul\":16604:16701   */\n      tag_680\n      jump\t// in\n    tag_788:\n        /* \"#utility.yul\":16750:16754   */\n      0x20\n        /* \"#utility.yul\":16781:16783   */\n      0x1f\n        /* \"#utility.yul\":16770:16784   */\n      dup3\n      gt\n        /* \"#utility.yul\":16798:16799   */\n      0x01\n        /* \"#utility.yul\":16793:17442   */\n      dup2\n      eq\n      tag_791\n      jumpi\n        /* \"#utility.yul\":17486:17487   */\n      0x00\n        /* \"#utility.yul\":17503:17509   */\n      dup4\n        /* \"#utility.yul\":17500:17589   */\n      iszero\n      tag_792\n      jumpi\n      pop\n        /* \"#utility.yul\":17555:17574   */\n      dup5\n      dup3\n      add\n        /* \"#utility.yul\":17549:17575   */\n      mload\n        /* \"#utility.yul\":17500:17589   */\n    tag_792:\n      not(0x00)\n        /* \"#utility.yul\":16357:16358   */\n      0x03\n        /* \"#utility.yul\":16353:16364   */\n      dup6\n      swap1\n      shl\n        /* \"#utility.yul\":16349:16373   */\n      shr\n        /* \"#utility.yul\":16345:16374   */\n      not\n        /* \"#utility.yul\":16335:16375   */\n      and\n        /* \"#utility.yul\":16381:16382   */\n      0x01\n        /* \"#utility.yul\":16377:16388   */\n      dup5\n      swap1\n      shl\n        /* \"#utility.yul\":16332:16389   */\n      or\n        /* \"#utility.yul\":17602:17683   */\n      dup5\n      sstore\n        /* \"#utility.yul\":16763:17693   */\n      jump(tag_783)\n        /* \"#utility.yul\":16793:17442   */\n    tag_791:\n        /* \"#utility.yul\":15653:15654   */\n      0x00\n        /* \"#utility.yul\":15646:15660   */\n      dup5\n      dup2\n      mstore\n        /* \"#utility.yul\":15690:15694   */\n      0x20\n        /* \"#utility.yul\":15677:15695   */\n      dup2\n      keccak256\n      not(0x1f)\n        /* \"#utility.yul\":16829:16849   */\n      dup6\n      and\n      swap2\n        /* \"#utility.yul\":16947:17169   */\n    tag_795:\n        /* \"#utility.yul\":16961:16968   */\n      dup3\n        /* \"#utility.yul\":16958:16959   */\n      dup2\n        /* \"#utility.yul\":16955:16969   */\n      lt\n        /* \"#utility.yul\":16947:17169   */\n      iszero\n      tag_797\n      jumpi\n        /* \"#utility.yul\":17043:17062   */\n      dup8\n      dup6\n      add\n        /* \"#utility.yul\":17037:17063   */\n      mload\n        /* \"#utility.yul\":17022:17064   */\n      dup3\n      sstore\n        /* \"#utility.yul\":17150:17154   */\n      0x20\n        /* \"#utility.yul\":17135:17155   */\n      swap5\n      dup6\n      add\n      swap5\n        /* \"#utility.yul\":17103:17104   */\n      0x01\n        /* \"#utility.yul\":17091:17105   */\n      swap1\n      swap3\n      add\n      swap2\n        /* \"#utility.yul\":16977:16989   */\n      add\n        /* \"#utility.yul\":16947:17169   */\n      jump(tag_795)\n    tag_797:\n        /* \"#utility.yul\":16951:16954   */\n      pop\n        /* \"#utility.yul\":17197:17203   */\n      dup5\n        /* \"#utility.yul\":17188:17195   */\n      dup3\n        /* \"#utility.yul\":17185:17204   */\n      lt\n        /* \"#utility.yul\":17182:17383   */\n      iszero\n      tag_798\n      jumpi\n        /* \"#utility.yul\":17258:17277   */\n      dup7\n      dup5\n      add\n        /* \"#utility.yul\":17252:17278   */\n      mload\n      not(0x00)\n        /* \"#utility.yul\":17341:17342   */\n      0x03\n        /* \"#utility.yul\":17337:17351   */\n      dup8\n      swap1\n      shl\n        /* \"#utility.yul\":17353:17356   */\n      0xf8\n        /* \"#utility.yul\":17333:17357   */\n      and\n        /* \"#utility.yul\":17329:17366   */\n      shr\n        /* \"#utility.yul\":17325:17367   */\n      not\n        /* \"#utility.yul\":17310:17368   */\n      and\n        /* \"#utility.yul\":17295:17369   */\n      dup2\n      sstore\n        /* \"#utility.yul\":17182:17383   */\n    tag_798:\n      pop\n      pop\n      pop\n      pop\n        /* \"#utility.yul\":17429:17430   */\n      0x01\n        /* \"#utility.yul\":17413:17427   */\n      swap1\n      dup2\n      shl\n        /* \"#utility.yul\":17409:17431   */\n      add\n        /* \"#utility.yul\":17396:17432   */\n      swap1\n      sstore\n      pop\n        /* \"#utility.yul\":16400:17699   */\n      jump\t// out\n        /* \"#utility.yul\":17704:18021   */\n    tag_302:\n      sub(shl(0xa0, 0x01), 0x01)\n        /* \"#utility.yul\":17881:17913   */\n      dup4\n      and\n        /* \"#utility.yul\":17863:17914   */\n      dup2\n      mstore\n        /* \"#utility.yul\":17950:17952   */\n      0x40\n        /* \"#utility.yul\":17945:17947   */\n      0x20\n        /* \"#utility.yul\":17930:17948   */\n      dup3\n      add\n        /* \"#utility.yul\":17923:17953   */\n      dup2\n      swap1\n      mstore\n      0x00\n      swap1\n        /* \"#utility.yul\":17970:18015   */\n      tag_722\n      swap1\n        /* \"#utility.yul\":17996:18014   */\n      dup4\n      add\n        /* \"#utility.yul\":17988:17994   */\n      dup5\n        /* \"#utility.yul\":17970:18015   */\n      tag_676\n      jump\t// in\n        /* \"#utility.yul\":19832:19959   */\n    tag_386:\n        /* \"#utility.yul\":19893:19903   */\n      0x4e487b71\n        /* \"#utility.yul\":19888:19891   */\n      0xe0\n        /* \"#utility.yul\":19884:19904   */\n      shl\n        /* \"#utility.yul\":19881:19882   */\n      0x00\n        /* \"#utility.yul\":19874:19905   */\n      mstore\n        /* \"#utility.yul\":19924:19928   */\n      0x32\n        /* \"#utility.yul\":19921:19922   */\n      0x04\n        /* \"#utility.yul\":19914:19929   */\n      mstore\n        /* \"#utility.yul\":19948:19952   */\n      0x24\n        /* \"#utility.yul\":19945:19946   */\n      0x00\n        /* \"#utility.yul\":19938:19953   */\n      revert\n        /* \"#utility.yul\":23196:23723   */\n    tag_472:\n        /* \"#utility.yul\":23449:23452   */\n      0x80\n        /* \"#utility.yul\":23438:23447   */\n      dup2\n        /* \"#utility.yul\":23431:23453   */\n      mstore\n        /* \"#utility.yul\":23412:23416   */\n      0x00\n        /* \"#utility.yul\":23476:23522   */\n      tag_817\n        /* \"#utility.yul\":23517:23520   */\n      0x80\n        /* \"#utility.yul\":23506:23515   */\n      dup4\n        /* \"#utility.yul\":23502:23521   */\n      add\n        /* \"#utility.yul\":23494:23500   */\n      dup8\n        /* \"#utility.yul\":23476:23522   */\n      tag_676\n      jump\t// in\n    tag_817:\n        /* \"#utility.yul\":23570:23579   */\n      dup3\n        /* \"#utility.yul\":23562:23568   */\n      dup2\n        /* \"#utility.yul\":23558:23580   */\n      sub\n        /* \"#utility.yul\":23553:23555   */\n      0x20\n        /* \"#utility.yul\":23542:23551   */\n      dup5\n        /* \"#utility.yul\":23538:23556   */\n      add\n        /* \"#utility.yul\":23531:23581   */\n      mstore\n        /* \"#utility.yul\":23598:23631   */\n      tag_818\n        /* \"#utility.yul\":23624:23630   */\n      dup2\n        /* \"#utility.yul\":23616:23622   */\n      dup8\n        /* \"#utility.yul\":23598:23631   */\n      tag_676\n      jump\t// in\n    tag_818:\n        /* \"#utility.yul\":23662:23664   */\n      0x40\n        /* \"#utility.yul\":23647:23665   */\n      dup5\n      add\n        /* \"#utility.yul\":23640:23674   */\n      swap6\n      swap1\n      swap6\n      mstore\n      pop\n      pop\n        /* \"#utility.yul\":23705:23707   */\n      0x60\n        /* \"#utility.yul\":23690:23708   */\n      add\n        /* \"#utility.yul\":23683:23717   */\n      mstore\n        /* \"#utility.yul\":23590:23631   */\n      swap3\n        /* \"#utility.yul\":23196:23723   */\n      swap2\n      pop\n      pop\n      jump\t// out\n        /* \"#utility.yul\":27183:27310   */\n    tag_682:\n        /* \"#utility.yul\":27244:27254   */\n      0x4e487b71\n        /* \"#utility.yul\":27239:27242   */\n      0xe0\n        /* \"#utility.yul\":27235:27255   */\n      shl\n        /* \"#utility.yul\":27232:27233   */\n      0x00\n        /* \"#utility.yul\":27225:27256   */\n      mstore\n        /* \"#utility.yul\":27275:27279   */\n      0x11\n        /* \"#utility.yul\":27272:27273   */\n      0x04\n        /* \"#utility.yul\":27265:27280   */\n      mstore\n        /* \"#utility.yul\":27299:27303   */\n      0x24\n        /* \"#utility.yul\":27296:27297   */\n      0x00\n        /* \"#utility.yul\":27289:27304   */\n      revert\n        /* \"#utility.yul\":27315:27483   */\n    tag_611:\n        /* \"#utility.yul\":27388:27397   */\n      dup1\n      dup3\n      mul\n        /* \"#utility.yul\":27419:27428   */\n      dup2\n      iszero\n        /* \"#utility.yul\":27436:27451   */\n      dup3\n      dup3\n      div\n        /* \"#utility.yul\":27430:27452   */\n      dup5\n      eq\n        /* \"#utility.yul\":27416:27453   */\n      or\n        /* \"#utility.yul\":27406:27477   */\n      tag_303\n      jumpi\n        /* \"#utility.yul\":27457:27475   */\n      tag_303\n      tag_682\n      jump\t// in\n        /* \"#utility.yul\":27488:27616   */\n    tag_613:\n        /* \"#utility.yul\":27555:27564   */\n      dup2\n      dup2\n      sub\n        /* \"#utility.yul\":27576:27587   */\n      dup2\n      dup2\n      gt\n        /* \"#utility.yul\":27573:27610   */\n      iszero\n      tag_303\n      jumpi\n        /* \"#utility.yul\":27590:27608   */\n      tag_303\n      tag_682\n      jump\t// in\n        /* \"#utility.yul\":27621:27757   */\n    tag_617:\n        /* \"#utility.yul\":27656:27659   */\n      0x00\n      shl(0xff, 0x01)\n        /* \"#utility.yul\":27677:27699   */\n      dup3\n      add\n        /* \"#utility.yul\":27674:27722   */\n      tag_838\n      jumpi\n        /* \"#utility.yul\":27702:27720   */\n      tag_838\n      tag_682\n      jump\t// in\n    tag_838:\n      pop\n        /* \"#utility.yul\":27742:27743   */\n      0x00\n        /* \"#utility.yul\":27738:27751   */\n      sub\n      swap1\n        /* \"#utility.yul\":27621:27757   */\n      jump\t// out\n        /* \"#utility.yul\":27762:27887   */\n    tag_620:\n        /* \"#utility.yul\":27827:27836   */\n      dup1\n      dup3\n      add\n        /* \"#utility.yul\":27848:27858   */\n      dup1\n      dup3\n      gt\n        /* \"#utility.yul\":27845:27881   */\n      iszero\n      tag_303\n      jumpi\n        /* \"#utility.yul\":27861:27879   */\n      tag_303\n      tag_682\n      jump\t// in\n        /* \"#utility.yul\":27892:28072   */\n    tag_643:\n        /* \"#utility.yul\":27930:27933   */\n      0x00\n        /* \"#utility.yul\":27974:27980   */\n      0xffff\n        /* \"#utility.yul\":27967:27972   */\n      dup3\n        /* \"#utility.yul\":27963:27981   */\n      and\n        /* \"#utility.yul\":28005:28011   */\n      0xffff\n        /* \"#utility.yul\":27996:28003   */\n      dup2\n        /* \"#utility.yul\":27993:28012   */\n      sub\n        /* \"#utility.yul\":27990:28035   */\n      tag_844\n      jumpi\n        /* \"#utility.yul\":28015:28033   */\n      tag_844\n      tag_682\n      jump\t// in\n    tag_844:\n        /* \"#utility.yul\":28064:28065   */\n      0x01\n        /* \"#utility.yul\":28051:28066   */\n      add\n      swap3\n        /* \"#utility.yul\":27892:28072   */\n      swap2\n      pop\n      pop\n      jump\t// out\n        /* \"#utility.yul\":28077:28235   */\n    tag_652:\n        /* \"#utility.yul\":28170:28176   */\n      0xffff\n        /* \"#utility.yul\":28163:28177   */\n      dup3\n      dup2\n      and\n        /* \"#utility.yul\":28147:28161   */\n      dup3\n      dup3\n      and\n        /* \"#utility.yul\":28143:28178   */\n      sub\n      swap1\n        /* \"#utility.yul\":28190:28206   */\n      dup2\n      gt\n        /* \"#utility.yul\":28187:28229   */\n      iszero\n      tag_303\n      jumpi\n        /* \"#utility.yul\":28209:28227   */\n      tag_303\n      tag_682\n      jump\t// in\n        /* \"#utility.yul\":28240:28499   */\n    tag_668:\n        /* \"#utility.yul\":28271:28272   */\n      0x00\n        /* \"#utility.yul\":28305:28311   */\n      0xffff\n        /* \"#utility.yul\":28302:28303   */\n      dup4\n        /* \"#utility.yul\":28298:28312   */\n      and\n        /* \"#utility.yul\":28331:28334   */\n      dup1\n        /* \"#utility.yul\":28321:28455   */\n      tag_849\n      jumpi\n        /* \"#utility.yul\":28377:28387   */\n      0x4e487b71\n        /* \"#utility.yul\":28372:28375   */\n      0xe0\n        /* \"#utility.yul\":28368:28388   */\n      shl\n        /* \"#utility.yul\":28365:28366   */\n      0x00\n        /* \"#utility.yul\":28358:28389   */\n      mstore\n        /* \"#utility.yul\":28412:28416   */\n      0x12\n        /* \"#utility.yul\":28409:28410   */\n      0x04\n        /* \"#utility.yul\":28402:28417   */\n      mstore\n        /* \"#utility.yul\":28440:28444   */\n      0x24\n        /* \"#utility.yul\":28437:28438   */\n      0x00\n        /* \"#utility.yul\":28430:28445   */\n      revert\n        /* \"#utility.yul\":28321:28455   */\n    tag_849:\n        /* \"#utility.yul\":28489:28492   */\n      dup1\n        /* \"#utility.yul\":28480:28486   */\n      0xffff\n        /* \"#utility.yul\":28477:28478   */\n      dup5\n        /* \"#utility.yul\":28473:28487   */\n      and\n        /* \"#utility.yul\":28469:28493   */\n      mod\n        /* \"#utility.yul\":28464:28493   */\n      swap2\n      pop\n      pop\n        /* \"#utility.yul\":28240:28499   */\n      swap3\n      swap2\n      pop\n      pop\n      jump\t// out\n\n    auxdata: 0xa26469706673582212203b3f7b8ab1dab90984f818cb5cbc420fea3eef53f584c46e879187893ee082fa64736f6c634300081f0033\n}\n",
				"bytecode": {
					"linkReferences": {},
					"object": "60806040525f80546001600160a01b0319163317905561339d806100225f395ff3fe608060405260043610610212575f3560e01c80637bd2a5da1161011e578063bd097e21116100a8578063d3584e841161006d578063d3584e84146106d1578063dfbf53ae146106f0578063e3c608ef1461070f578063ed2cee9e14610738578063f851a44014610757575f5ffd5b8063bd097e2114610674578063c63735b31461067c578063c87da02d14610695578063d0112863146106a9578063d116c8c4146106bd575f5ffd5b806390c7825a116100ee57806390c7825a146105db5780639134e02b14610608578063a4a0014414610627578063b6cf8a351461063c578063b6f3d2561461065f575f5ffd5b80637bd2a5da146104df5780638c3d7301146104fe5780638d07ae9f14610512578063905249a3146105bc575f5ffd5b80633c8c40911161019f578063592fd0281161016f578063592fd028146103f457806362ea82db146104085780636cb55d1a146104875780636f9fb98a146104ae57806375829def146104c0575f5ffd5b80633c8c4091146103785780634c5aed38146103975780634e5cbf61146103b657806353321ae6146103d5575f5ffd5b806326782247116101e557806326782247146102a057806326bd8926146102d75780632e9e8e59146102f8578063356e7ccb1461031b57806336dc1a8814610359575f5ffd5b80630bd58917146102165780630bf3676714610237578063200d2ed21461024b5780632163b8c514610281575b5f5ffd5b348015610221575f5ffd5b50610235610230366004612ba3565b610775565b005b348015610242575f5ffd5b506102356108d3565b348015610256575f5ffd5b5060025461026b90600160a01b900460ff1681565b6040516102789190612bee565b60405180910390f35b34801561028c575f5ffd5b5061023561029b366004612c99565b6109bf565b3480156102ab575f5ffd5b506001546102bf906001600160a01b031681565b6040516001600160a01b039091168152602001610278565b3480156102e2575f5ffd5b506102eb610bdc565b6040516102789190612d0a565b348015610303575f5ffd5b5061030d60105481565b604051908152602001610278565b348015610326575f5ffd5b50610349610335366004612d3e565b600a6020525f908152604090205460ff1681565b6040519015158152602001610278565b348015610364575f5ffd5b50610235610373366004612d57565b610c68565b348015610383575f5ffd5b5061030d610392366004612c99565b610eb1565b3480156103a2575f5ffd5b506102356103b1366004612d8b565b610ee4565b3480156103c1575f5ffd5b506102356103d0366004612d3e565b61102e565b3480156103e0575f5ffd5b506102356103ef366004612ba3565b6111f6565b3480156103ff575f5ffd5b50610235611402565b348015610413575f5ffd5b50610456610422366004612d3e565b600c6020525f90815260409020805460018201546002830154600390930154919260ff808316936101009093048116921685565b6040516102789594939291909485529215156020850152901515604084015260608301521515608082015260a00190565b348015610492575f5ffd5b5061049b61160e565b6040516102789796959493929190612dc4565b3480156104b9575f5ffd5b504761030d565b3480156104cb575f5ffd5b506102356104da366004612d3e565b611857565b3480156104ea575f5ffd5b506102356104f9366004612ba3565b611970565b348015610509575f5ffd5b50610235611af0565b34801561051d575f5ffd5b5061059861052c366004612d3e565b6001600160a01b03165f908152600c6020908152604091829020825160a08101845281548152600182015460ff80821615159483018590526101009091048116151594820185905260028301546060830181905260039093015416151560809091018190529193909190565b60408051941515855292151560208501529183015215156060820152608001610278565b3480156105c7575f5ffd5b506102356105d6366004612e33565b611b97565b3480156105e6575f5ffd5b506105fa6105f5366004612d3e565b611dd9565b604051610278929190612f2b565b348015610613575f5ffd5b506102eb610622366004612d3e565b611e97565b348015610632575f5ffd5b5061030d60115481565b348015610647575f5ffd5b50610650611eaf565b60405161027893929190612f9f565b34801561066a575f5ffd5b5061030d600f5481565b6102356120da565b348015610687575f5ffd5b506013546103499060ff1681565b3480156106a0575f5ffd5b50600d5461030d565b3480156106b4575f5ffd5b50610235612106565b3480156106c8575f5ffd5b50610235612239565b3480156106dc575f5ffd5b506102bf6106eb366004612ba3565b612454565b3480156106fb575f5ffd5b50600e546102bf906001600160a01b031681565b34801561071a575f5ffd5b5061072361247c565b6040516102789998979695949392919061303b565b348015610743575f5ffd5b506002546102bf906001600160a01b031681565b348015610762575f5ffd5b505f546102bf906001600160a01b031681565b6002546001600160a01b031661079e5760405163d6ea366360e01b815260040160405180910390fd5b6002546001600160a01b031633146107c957604051639864fbb360e01b815260040160405180910390fd5b60095460ff166107ec576040516355e9e64160e11b815260040160405180910390fd5b600480600254600160a01b900460ff16600781111561080d5761080d612bba565b1461082b57604051630187fa8360e61b815260040160405180910390fd5b8161087d5760405162461bcd60e51b815260206004820152601e60248201527f496e76616c696420696e7370656374696f6e207265706f72742068617368000060448201526064015b60405180910390fd5b60118290556002805460ff60a01b1916600360a11b17905560408051338152602081018490527fef94af06cfa9a76c638dd1a1cfb86b07f938febf05374e3675aeced1f805205e91015b60405180910390a15050565b5f546001600160a01b031633146108fd57604051634755657960e01b815260040160405180910390fd5b60095460ff16610920576040516355e9e64160e11b815260040160405180910390fd5b60065442101561094357604051633efbccb160e01b815260040160405180910390fd5b5f80600254600160a01b900460ff16600781111561096357610963612bba565b1461098157604051630187fa8360e61b815260040160405180910390fd5b6002805460ff60a01b1916600160a01b1790556040517f2fd2f8fcbb75b0a142d3952ad3f5e92dd16aab6c8bbbd304bdb97066b33c062c905f90a150565b60095460ff166109e2576040516355e9e64160e11b815260040160405180910390fd5b335f908152600a602052604090205460ff16610a11576040516302f9ce3760e51b815260040160405180910390fd5b600180600254600160a01b900460ff166007811115610a3257610a32612bba565b14610a5057604051630187fa8360e61b815260040160405180910390fd5b335f908152600c60205260409020600181015460ff16610aa55760405162461bcd60e51b815260206004820152601060248201526f139bc8189a59081cdd589b5a5d1d195960821b6044820152606401610874565b6001810154610100900460ff1615610af65760405162461bcd60e51b8152602060048201526014602482015273109a5908185b1c9958591e481c995d99585b195960621b6044820152606401610874565b5f8484604051602001610b0a9291906130c6565b604051602081830303815290604052805190602001209050815f01548114610b745760405162461bcd60e51b815260206004820181905260248201527f52657665616c20646f6573206e6f74206d61746368207365616c6564206269646044820152606401610874565b6001828101805461ff0019166101001790556002830186905560038301805460ff1916909117905560408051338152602081018790527f9891bd98143d5a2c5f29be9a7ef8e5d7b723746fb3b75220234af7aa6caeecfe910160405180910390a15050505050565b60128054610be9906130e6565b80601f0160208091040260200160405190810160405280929190818152602001828054610c15906130e6565b8015610c605780601f10610c3757610100808354040283529160200191610c60565b820191905f5260205f20905b815481529060010190602001808311610c4357829003601f168201915b505050505081565b5f546001600160a01b03163314610c9257604051634755657960e01b815260040160405180910390fd5b60095460ff16610cb5576040516355e9e64160e11b815260040160405180910390fd5b5f80600254600160a01b900460ff166007811115610cd557610cd5612bba565b14610cf357604051630187fa8360e61b815260040160405180910390fd5b6001600160a01b038316610d425760405162461bcd60e51b8152602060048201526016602482015275496e76616c696420626964646572206164647265737360501b6044820152606401610874565b6001600160a01b0383165f908152600a602052604090205460ff1615610daa5760405162461bcd60e51b815260206004820152601960248201527f42696464657220616c72656164792072656769737465726564000000000000006044820152606401610874565b5f825111610df15760405162461bcd60e51b815260206004820152601460248201527311195cd8dc9a5c1d1a5bdb881c995c5d5a5c995960621b6044820152606401610874565b6001600160a01b0383165f908152600a60209081526040808320805460ff19166001179055600b9091529020610e27838261316a565b50600d80546001810182555f919091527fd7b6990105719101dabeb77144f2a3385c8033acd3af97e9423a695e81ad1eb50180546001600160a01b0319166001600160a01b0385161790556040517f164b6120673b4b59137ef128c1c6d39e2de27d8baa1ddeda0db16ea4e15e97f690610ea49085908590613224565b60405180910390a1505050565b5f8282604051602001610ec59291906130c6565b6040516020818303038152906040528051906020012090505b92915050565b6002546001600160a01b0316610f0d5760405163d6ea366360e01b815260040160405180910390fd5b6002546001600160a01b03163314610f3857604051639864fbb360e01b815260040160405180910390fd5b60095460ff16610f5b576040516355e9e64160e11b815260040160405180910390fd5b600480600254600160a01b900460ff166007811115610f7c57610f7c612bba565b14610f9a57604051630187fa8360e61b815260040160405180910390fd5b5f825111610fdc5760405162461bcd60e51b815260206004820152600f60248201526e1499585cdbdb881c995c5d5a5c9959608a1b6044820152606401610874565b6012610fe8838261316a565b506002805460ff60a01b1916600560a01b1790556040517f52fca0fcdda16f4a5f819b60bb9c2f99458433351b90e6fcb3e221fe03b10280906108c79033908590613224565b5f546001600160a01b0316331461105857604051634755657960e01b815260040160405180910390fd5b60095460ff1661107b576040516355e9e64160e11b815260040160405180910390fd5b6001600160a01b0381166110d15760405162461bcd60e51b815260206004820152601960248201527f496e76616c696420696e73706563746f722061646472657373000000000000006044820152606401610874565b6006600254600160a01b900460ff1660078111156110f1576110f1612bba565b1415801561111d57506005600254600160a01b900460ff16600781111561111a5761111a612bba565b14155b801561114757506007600254600160a01b900460ff16600781111561114457611144612bba565b14155b6111a15760405162461bcd60e51b815260206004820152602560248201527f43616e6e6f74206368616e676520696e73706563746f72206174207468697320604482015264737461676560d81b6064820152608401610874565b600280546001600160a01b0319166001600160a01b0383169081179091556040519081527fc7b11d63d071f03c4b488a3a44ee58c8a449f16b0ee289dd25af95c15c9f8e3a906020015b60405180910390a150565b60095460ff16611219576040516355e9e64160e11b815260040160405180910390fd5b335f908152600a602052604090205460ff16611248576040516302f9ce3760e51b815260040160405180910390fd5b600654421061126a5760405163764b8e3360e11b815260040160405180910390fd5b5f80600254600160a01b900460ff16600781111561128a5761128a612bba565b146112a857604051630187fa8360e61b815260040160405180910390fd5b335f908152600c602052604090206001015460ff16156113025760405162461bcd60e51b8152602060048201526015602482015274109a5908185b1c9958591e481cdd589b5a5d1d1959605a1b6044820152606401610874565b8161134f5760405162461bcd60e51b815260206004820152601760248201527f496e76616c6964207365616c65642062696420686173680000000000000000006044820152606401610874565b6040805160a081018252838152600160208083018281525f848601818152606086018281526080870183815233808552600c8752938990209751885593519587018054925161ffff1990931696151561ff00191696909617610100921515929092029190911790945592516002850155516003909301805460ff19169315159390931790925591519182527f88c5a0d081e0c7a69b5817581ffa85b19d71703bc581bb5c09fa253c527a055e91016108c7565b5f546001600160a01b0316331461142c57604051634755657960e01b815260040160405180910390fd5b60095460ff1661144f576040516355e9e64160e11b815260040160405180910390fd5b600180600254600160a01b900460ff16600781111561147057611470612bba565b1461148e57604051630187fa8360e61b815260040160405180910390fd5b5f5f19815b600d54811015611552575f600d82815481106114b1576114b1613247565b5f9182526020808320909101546001600160a01b0316808352600c8252604092839020835160a08101855281548152600182015460ff8082161515958301959095526101009004841615159481019490945260028101546060850152600301549091161580156080840181905291935061152c575080604001515b1561154857838160600151101561154857806060015193508194505b5050600101611493565b506001600160a01b0382166115a25760405162461bcd60e51b81526020600482015260166024820152754e6f2076616c69642072657665616c6564206269647360501b6044820152606401610874565b600e80546001600160a01b0319166001600160a01b038416908117909155600f8290556002805460ff60a01b1916600160a11b17905560408051918252602082018390527f44a8e45b0547725a1b190fe91fba127f673b8cec941ceaf8b3e2e67d61055dfe9101610ea4565b60038054819061161d906130e6565b80601f0160208091040260200160405190810160405280929190818152602001828054611649906130e6565b80156116945780601f1061166b57610100808354040283529160200191611694565b820191905f5260205f20905b81548152906001019060200180831161167757829003601f168201915b5050505050908060010180546116a9906130e6565b80601f01602080910402602001604051908101604052809291908181526020018280546116d5906130e6565b80156117205780601f106116f757610100808354040283529160200191611720565b820191905f5260205f20905b81548152906001019060200180831161170357829003601f168201915b505050505090806002018054611735906130e6565b80601f0160208091040260200160405190810160405280929190818152602001828054611761906130e6565b80156117ac5780601f10611783576101008083540402835291602001916117ac565b820191905f5260205f20905b81548152906001019060200180831161178f57829003601f168201915b5050505050908060030154908060040154908060050180546117cd906130e6565b80601f01602080910402602001604051908101604052809291908181526020018280546117f9906130e6565b80156118445780601f1061181b57610100808354040283529160200191611844565b820191905f5260205f20905b81548152906001019060200180831161182757829003601f168201915b5050506006909301549192505060ff1687565b5f546001600160a01b0316331461188157604051634755657960e01b815260040160405180910390fd5b6001600160a01b0381166118cb5760405162461bcd60e51b815260206004820152601160248201527024b73b30b634b2103732bb9030b236b4b760791b6044820152606401610874565b5f546001600160a01b03908116908216036119205760405162461bcd60e51b815260206004820152601560248201527420b63932b0b23c9031bab93932b73a1030b236b4b760591b6044820152606401610874565b600180546001600160a01b0319166001600160a01b038381169182179092555f8054604051929316917fb4d7bcb4d9a5d6ef6e827e3b1554e5a2578ad9ca843903d42b05d08bfa3458949190a350565b60095460ff16611993576040516355e9e64160e11b815260040160405180910390fd5b600380600254600160a01b900460ff1660078111156119b4576119b4612bba565b146119d257604051630187fa8360e61b815260040160405180910390fd5b6002546001600160a01b03166119fb5760405163d6ea366360e01b815260040160405180910390fd5b600e546001600160a01b03163314611a555760405162461bcd60e51b815260206004820152601f60248201527f4f6e6c792077696e6e65722063616e207375626d69742064656c6976657279006044820152606401610874565b81611aa25760405162461bcd60e51b815260206004820152601e60248201527f496e76616c69642064656c69766572792065766964656e6365206861736800006044820152606401610874565b60108290556002805460ff60a01b1916600160a21b17905560408051338152602081018490527fae1f4649889be6b26bcf006a04c674019d1ebafaa07f234652d80cb084e77c5791016108c7565b6001546001600160a01b03163314611b3e5760405162461bcd60e51b81526020600482015260116024820152702737ba103832b73234b7339030b236b4b760791b6044820152606401610874565b5f8054600180546001600160a01b038082166001600160a01b031980861682178755909216909255604051919092169283917ff8ccb027dfcd135e000e9d45e6cc2d662578a8825d4c45b5e32e0adf67e79ec69190a350565b5f546001600160a01b03163314611bc157604051634755657960e01b815260040160405180910390fd5b60095460ff1615611c0d5760405162461bcd60e51b815260206004820152601660248201527515195b99195c88185b1c9958591e4818dc99585d195960521b6044820152606401610874565b5f8211611c6e5760405162461bcd60e51b815260206004820152602960248201527f436f6e747261637420616d6f756e74206d7573742062652067726561746572206044820152687468616e207a65726f60b81b6064820152608401610874565b5f611c7d898989898989612713565b9050428111611cce5760405162461bcd60e51b815260206004820152601e60248201527f446561646c696e65206d75737420626520696e207468652066757475726500006044820152606401610874565b6040805160e0810182528d8152602081018d90529081018b9052606081018290526080810184905260a08101839052600160c0820152600380611d118f8261316a565b5060208201516001820190611d26908261316a565b5060408201516002820190611d3b908261316a565b50606082015160038201556080820151600482015560a08201516005820190611d64908261316a565b5060c091909101516006909101805460ff19169115159190911790556002805460ff60a01b191690556040517f1b8026edb59eb0a93ac326ac7a523b0055a7bd12f595a560e2e75e798f1d20f190611dc3908e908e908590889061325b565b60405180910390a1505050505050505050505050565b6001600160a01b0381165f908152600a6020908152604080832054600b9092528220805460609260ff1691908190611e10906130e6565b80601f0160208091040260200160405190810160405280929190818152602001828054611e3c906130e6565b8015611e875780601f10611e5e57610100808354040283529160200191611e87565b820191905f5260205f20905b815481529060010190602001808311611e6a57829003601f168201915b5050505050905091509150915091565b600b6020525f908152604090208054610be9906130e6565b600d5460609081908190806001600160401b03811115611ed157611ed1612bfc565b604051908082528060200260200182016040528015611efa578160200160208202803683370190505b509350806001600160401b03811115611f1557611f15612bfc565b604051908082528060200260200182016040528015611f3e578160200160208202803683370190505b509250806001600160401b03811115611f5957611f59612bfc565b604051908082528060200260200182016040528015611f8c57816020015b6060815260200190600190039081611f775790505b5091505f5b818110156120d3575f600d8281548110611fad57611fad613247565b905f5260205f20015f9054906101000a90046001600160a01b0316905081868381518110611fdd57611fdd613247565b60200260200101818152505080858381518110611ffc57611ffc613247565b6001600160a01b039283166020918202929092018101919091529082165f908152600b909152604090208054612031906130e6565b80601f016020809104026020016040519081016040528092919081815260200182805461205d906130e6565b80156120a85780601f1061207f576101008083540402835291602001916120a8565b820191905f5260205f20905b81548152906001019060200180831161208b57829003601f168201915b50505050508483815181106120bf576120bf613247565b602090810291909101015250600101611f91565b5050909192565b5f546001600160a01b0316331461210457604051634755657960e01b815260040160405180910390fd5b565b5f546001600160a01b0316331461213057604051634755657960e01b815260040160405180910390fd5b60095460ff16612153576040516355e9e64160e11b815260040160405180910390fd5b600280600254600160a01b900460ff16600781111561217457612174612bba565b1461219257604051630187fa8360e61b815260040160405180910390fd5b600e546001600160a01b03166121df5760405162461bcd60e51b8152602060048201526012602482015271139bc81dda5b9b995c881cd95b1958dd195960721b6044820152606401610874565b6002805460ff60a01b1916600360a01b179055600e54600f54604080516001600160a01b03909316835260208301919091527fb973b46a8f1e88b970a622bf0cf618b80895efa9af0b01edd9b2608fb8a6914e91016111eb565b5f546001600160a01b0316331461226357604051634755657960e01b815260040160405180910390fd5b60095460ff16612286576040516355e9e64160e11b815260040160405180910390fd5b600680600254600160a01b900460ff1660078111156122a7576122a7612bba565b146122c557604051630187fa8360e61b815260040160405180910390fd5b60135460ff16156123185760405162461bcd60e51b815260206004820152601860248201527f5061796d656e7420616c72656164792072656c656173656400000000000000006044820152606401610874565b600e546001600160a01b03166123615760405162461bcd60e51b815260206004820152600e60248201526d15da5b9b995c881b9bdd081cd95d60921b6044820152606401610874565b6007544710156123b35760405162461bcd60e51b815260206004820152601d60248201527f496e73756666696369656e7420636f6e74726163742062616c616e63650000006044820152606401610874565b6013805460ff191660011790556002805460ff60a01b1916600760a01b179055600e546007546040516001600160a01b039092169181156108fc0291905f818181858888f1935050505015801561240c573d5f5f3e3d5ffd5b50600e54600754604080516001600160a01b03909316835260208301919091527fdf20fd1e76bc69d672e4814fafb2c449bba3a5369d8359adf9e05e6fde87b05691016111eb565b600d8181548110612463575f80fd5b5f918252602090912001546001600160a01b0316905081565b60608060605f5f60605f5f5f60035f016003600101600360020160038001546003600401546003600501600260149054906101000a900460ff16600e5f9054906101000a90046001600160a01b0316600f548880546124da906130e6565b80601f0160208091040260200160405190810160405280929190818152602001828054612506906130e6565b80156125515780601f1061252857610100808354040283529160200191612551565b820191905f5260205f20905b81548152906001019060200180831161253457829003601f168201915b50505050509850878054612564906130e6565b80601f0160208091040260200160405190810160405280929190818152602001828054612590906130e6565b80156125db5780601f106125b2576101008083540402835291602001916125db565b820191905f5260205f20905b8154815290600101906020018083116125be57829003601f168201915b505050505097508680546125ee906130e6565b80601f016020809104026020016040519081016040528092919081815260200182805461261a906130e6565b80156126655780601f1061263c57610100808354040283529160200191612665565b820191905f5260205f20905b81548152906001019060200180831161264857829003601f168201915b50505050509650838054612678906130e6565b80601f01602080910402602001604051908101604052809291908181526020018280546126a4906130e6565b80156126ef5780601f106126c6576101008083540402835291602001916126ef565b820191905f5260205f20905b8154815290600101906020018083116126d257829003601f168201915b50505050509350985098509850985098509850985098509850909192939495969798565b5f6107b2871015801561272857506108348711155b6127635760405162461bcd60e51b815260206004820152600c60248201526b24b73b30b634b2103cb2b0b960a11b6044820152606401610874565b600186101580156127755750600c8611155b6127b15760405162461bcd60e51b815260206004820152600d60248201526c092dcecc2d8d2c840dadedce8d609b1b6044820152606401610874565b601884106127f05760405162461bcd60e51b815260206004820152600c60248201526b24b73b30b634b2103437bab960a11b6044820152606401610874565b603c83106128315760405162461bcd60e51b815260206004820152600e60248201526d496e76616c6964206d696e75746560901b6044820152606401610874565b600b1982121580156128445750600e8213155b6128855760405162461bcd60e51b8152602060048201526012602482015271125b9d985b1a5908155510c81bd9999cd95d60721b6044820152606401610874565b5f6128908888612947565b9050600186101580156128a35750808611155b6128dd5760405162461bcd60e51b815260206004820152600b60248201526a496e76616c69642064617960a81b6044820152606401610874565b6128eb88888888885f6129ab565b91505f8313156129125761290183610e106132a7565b61290b90836132be565b915061293c565b5f83121561293c57612923836132d1565b61292f90610e106132a7565b61293990836132eb565b91505b509695505050505050565b5f816002036129715761295983612b47565b61296457601c612967565b601d5b60ff169050610ede565b81600414806129805750816006145b8061298b5750816009145b80612996575081600b145b156129a35750601e610ede565b50601f610ede565b5f6107b25b878161ffff161015612a02576129c581612b47565b156129df576129d86301e28500836132eb565b91506129f0565b6129ed6301e13380836132eb565b91505b806129fa816132fe565b9150506129b0565b6040805161018081018252601f808252601c6020830152918101829052601e606082018190526080820183905260a0820181905260c0820183905260e0820183905261010082018190526101208201839052610140820152610160810191909152612a6c89612b47565b15612a7957601d60208201525b600191505b878261ffff161015612add5780612a9660018461331e565b61ffff16600c8110612aaa57612aaa613247565b6020020151612abf9060ff16620151806132a7565b612ac990846132eb565b925081612ad5816132fe565b925050612a7e565b612ae86001886132be565b612af590620151806132a7565b612aff90846132eb565b9250612b0d86610e106132a7565b612b1790846132eb565b9250612b2485603c6132a7565b612b2e90846132eb565b9250612b3a84846132eb565b9998505050505050505050565b5f612b53600483613338565b61ffff1615612b6357505f919050565b612b6e606483613338565b61ffff1615612b7f57506001919050565b612b8b61019083613338565b61ffff1615612b9b57505f919050565b506001919050565b5f60208284031215612bb3575f5ffd5b5035919050565b634e487b7160e01b5f52602160045260245ffd5b60088110612bea57634e487b7160e01b5f52602160045260245ffd5b9052565b60208101610ede8284612bce565b634e487b7160e01b5f52604160045260245ffd5b5f82601f830112612c1f575f5ffd5b81356001600160401b03811115612c3857612c38612bfc565b604051601f8201601f19908116603f011681016001600160401b0381118282101715612c6657612c66612bfc565b604052818152838201602001851015612c7d575f5ffd5b816020850160208301375f918101602001919091529392505050565b5f5f60408385031215612caa575f5ffd5b8235915060208301356001600160401b03811115612cc6575f5ffd5b612cd285828601612c10565b9150509250929050565b5f81518084528060208401602086015e5f602082860101526020601f19601f83011685010191505092915050565b602081525f612d1c6020830184612cdc565b9392505050565b80356001600160a01b0381168114612d39575f5ffd5b919050565b5f60208284031215612d4e575f5ffd5b612d1c82612d23565b5f5f60408385031215612d68575f5ffd5b612d7183612d23565b915060208301356001600160401b03811115612cc6575f5ffd5b5f60208284031215612d9b575f5ffd5b81356001600160401b03811115612db0575f5ffd5b612dbc84828501612c10565b949350505050565b60e081525f612dd660e083018a612cdc565b8281036020840152612de8818a612cdc565b90508281036040840152612dfc8189612cdc565b905086606084015285608084015282810360a0840152612e1c8186612cdc565b91505082151560c083015298975050505050505050565b5f5f5f5f5f5f5f5f5f5f5f6101608c8e031215612e4e575f5ffd5b8b356001600160401b03811115612e63575f5ffd5b612e6f8e828f01612c10565b9b505060208c01356001600160401b03811115612e8a575f5ffd5b612e968e828f01612c10565b9a505060408c01356001600160401b03811115612eb1575f5ffd5b612ebd8e828f01612c10565b99505060608c0135975060808c0135965060a08c0135955060c08c0135945060e08c013593506101008c013592506101208c013591506101408c01356001600160401b03811115612f0c575f5ffd5b612f188e828f01612c10565b9150509295989b509295989b9093969950565b8215158152604060208201525f612dbc6040830184612cdc565b5f82825180855260208501945060208160051b830101602085015f5b83811015612f9357601f19858403018852612f7d838351612cdc565b6020988901989093509190910190600101612f61565b50909695505050505050565b606080825284519082018190525f9060208601906080840190835b81811015612fd8578351835260209384019390920191600101612fba565b5050838103602080860191909152865180835291810192508601905f5b8181101561301c5782516001600160a01b0316845260209384019390920191600101612ff5565b50505082810360408401526130318185612f45565b9695505050505050565b61012081525f61304f61012083018c612cdc565b8281036020840152613061818c612cdc565b90508281036040840152613075818b612cdc565b905088606084015287608084015282810360a08401526130958188612cdc565b9150506130a560c0830186612bce565b6001600160a01b039390931660e08201526101000152979650505050505050565b8281525f82518060208501602085015e5f92016020019182525092915050565b600181811c908216806130fa57607f821691505b60208210810361311857634e487b7160e01b5f52602260045260245ffd5b50919050565b601f82111561316557805f5260205f20601f840160051c810160208510156131435750805b601f840160051c820191505b81811015613162575f815560010161314f565b50505b505050565b81516001600160401b0381111561318357613183612bfc565b6131978161319184546130e6565b8461311e565b6020601f8211600181146131c9575f83156131b25750848201515b5f19600385901b1c1916600184901b178455613162565b5f84815260208120601f198516915b828110156131f857878501518255602094850194600190920191016131d8565b508482101561321557868401515f19600387901b60f8161c191681555b50505050600190811b01905550565b6001600160a01b03831681526040602082018190525f90612dbc90830184612cdc565b634e487b7160e01b5f52603260045260245ffd5b608081525f61326d6080830187612cdc565b828103602084015261327f8187612cdc565b604084019590955250506060015292915050565b634e487b7160e01b5f52601160045260245ffd5b8082028115828204841417610ede57610ede613293565b81810381811115610ede57610ede613293565b5f600160ff1b82016132e5576132e5613293565b505f0390565b80820180821115610ede57610ede613293565b5f61ffff821661ffff810361331557613315613293565b60010192915050565b61ffff8281168282160390811115610ede57610ede613293565b5f61ffff83168061335757634e487b7160e01b5f52601260045260245ffd5b8061ffff8416069150509291505056fea26469706673582212203b3f7b8ab1dab90984f818cb5cbc420fea3eef53f584c46e879187893ee082fa64736f6c634300081f0033",
					"opcodes": "PUSH1 0x80 PUSH1 0x40 MSTORE PUSH0 DUP1 SLOAD PUSH1 0x1 PUSH1 0x1 PUSH1 0xA0 SHL SUB NOT AND CALLER OR SWAP1 SSTORE PUSH2 0x339D DUP1 PUSH2 0x22 PUSH0 CODECOPY PUSH0 RETURN INVALID PUSH1 0x80 PUSH1 0x40 MSTORE PUSH1 0x4 CALLDATASIZE LT PUSH2 0x212 JUMPI PUSH0 CALLDATALOAD PUSH1 0xE0 SHR DUP1 PUSH4 0x7BD2A5DA GT PUSH2 0x11E JUMPI DUP1 PUSH4 0xBD097E21 GT PUSH2 0xA8 JUMPI DUP1 PUSH4 0xD3584E84 GT PUSH2 0x6D JUMPI DUP1 PUSH4 0xD3584E84 EQ PUSH2 0x6D1 JUMPI DUP1 PUSH4 0xDFBF53AE EQ PUSH2 0x6F0 JUMPI DUP1 PUSH4 0xE3C608EF EQ PUSH2 0x70F JUMPI DUP1 PUSH4 0xED2CEE9E EQ PUSH2 0x738 JUMPI DUP1 PUSH4 0xF851A440 EQ PUSH2 0x757 JUMPI PUSH0 PUSH0 REVERT JUMPDEST DUP1 PUSH4 0xBD097E21 EQ PUSH2 0x674 JUMPI DUP1 PUSH4 0xC63735B3 EQ PUSH2 0x67C JUMPI DUP1 PUSH4 0xC87DA02D EQ PUSH2 0x695 JUMPI DUP1 PUSH4 0xD0112863 EQ PUSH2 0x6A9 JUMPI DUP1 PUSH4 0xD116C8C4 EQ PUSH2 0x6BD JUMPI PUSH0 PUSH0 REVERT JUMPDEST DUP1 PUSH4 0x90C7825A GT PUSH2 0xEE JUMPI DUP1 PUSH4 0x90C7825A EQ PUSH2 0x5DB JUMPI DUP1 PUSH4 0x9134E02B EQ PUSH2 0x608 JUMPI DUP1 PUSH4 0xA4A00144 EQ PUSH2 0x627 JUMPI DUP1 PUSH4 0xB6CF8A35 EQ PUSH2 0x63C JUMPI DUP1 PUSH4 0xB6F3D256 EQ PUSH2 0x65F JUMPI PUSH0 PUSH0 REVERT JUMPDEST DUP1 PUSH4 0x7BD2A5DA EQ PUSH2 0x4DF JUMPI DUP1 PUSH4 0x8C3D7301 EQ PUSH2 0x4FE JUMPI DUP1 PUSH4 0x8D07AE9F EQ PUSH2 0x512 JUMPI DUP1 PUSH4 0x905249A3 EQ PUSH2 0x5BC JUMPI PUSH0 PUSH0 REVERT JUMPDEST DUP1 PUSH4 0x3C8C4091 GT PUSH2 0x19F JUMPI DUP1 PUSH4 0x592FD028 GT PUSH2 0x16F JUMPI DUP1 PUSH4 0x592FD028 EQ PUSH2 0x3F4 JUMPI DUP1 PUSH4 0x62EA82DB EQ PUSH2 0x408 JUMPI DUP1 PUSH4 0x6CB55D1A EQ PUSH2 0x487 JUMPI DUP1 PUSH4 0x6F9FB98A EQ PUSH2 0x4AE JUMPI DUP1 PUSH4 0x75829DEF EQ PUSH2 0x4C0 JUMPI PUSH0 PUSH0 REVERT JUMPDEST DUP1 PUSH4 0x3C8C4091 EQ PUSH2 0x378 JUMPI DUP1 PUSH4 0x4C5AED38 EQ PUSH2 0x397 JUMPI DUP1 PUSH4 0x4E5CBF61 EQ PUSH2 0x3B6 JUMPI DUP1 PUSH4 0x53321AE6 EQ PUSH2 0x3D5 JUMPI PUSH0 PUSH0 REVERT JUMPDEST DUP1 PUSH4 0x26782247 GT PUSH2 0x1E5 JUMPI DUP1 PUSH4 0x26782247 EQ PUSH2 0x2A0 JUMPI DUP1 PUSH4 0x26BD8926 EQ PUSH2 0x2D7 JUMPI DUP1 PUSH4 0x2E9E8E59 EQ PUSH2 0x2F8 JUMPI DUP1 PUSH4 0x356E7CCB EQ PUSH2 0x31B JUMPI DUP1 PUSH4 0x36DC1A88 EQ PUSH2 0x359 JUMPI PUSH0 PUSH0 REVERT JUMPDEST DUP1 PUSH4 0xBD58917 EQ PUSH2 0x216 JUMPI DUP1 PUSH4 0xBF36767 EQ PUSH2 0x237 JUMPI DUP1 PUSH4 0x200D2ED2 EQ PUSH2 0x24B JUMPI DUP1 PUSH4 0x2163B8C5 EQ PUSH2 0x281 JUMPI JUMPDEST PUSH0 PUSH0 REVERT JUMPDEST CALLVALUE DUP1 ISZERO PUSH2 0x221 JUMPI PUSH0 PUSH0 REVERT JUMPDEST POP PUSH2 0x235 PUSH2 0x230 CALLDATASIZE PUSH1 0x4 PUSH2 0x2BA3 JUMP JUMPDEST PUSH2 0x775 JUMP JUMPDEST STOP JUMPDEST CALLVALUE DUP1 ISZERO PUSH2 0x242 JUMPI PUSH0 PUSH0 REVERT JUMPDEST POP PUSH2 0x235 PUSH2 0x8D3 JUMP JUMPDEST CALLVALUE DUP1 ISZERO PUSH2 0x256 JUMPI PUSH0 PUSH0 REVERT JUMPDEST POP PUSH1 0x2 SLOAD PUSH2 0x26B SWAP1 PUSH1 0x1 PUSH1 0xA0 SHL SWAP1 DIV PUSH1 0xFF AND DUP2 JUMP JUMPDEST PUSH1 0x40 MLOAD PUSH2 0x278 SWAP2 SWAP1 PUSH2 0x2BEE JUMP JUMPDEST PUSH1 0x40 MLOAD DUP1 SWAP2 SUB SWAP1 RETURN JUMPDEST CALLVALUE DUP1 ISZERO PUSH2 0x28C JUMPI PUSH0 PUSH0 REVERT JUMPDEST POP PUSH2 0x235 PUSH2 0x29B CALLDATASIZE PUSH1 0x4 PUSH2 0x2C99 JUMP JUMPDEST PUSH2 0x9BF JUMP JUMPDEST CALLVALUE DUP1 ISZERO PUSH2 0x2AB JUMPI PUSH0 PUSH0 REVERT JUMPDEST POP PUSH1 0x1 SLOAD PUSH2 0x2BF SWAP1 PUSH1 0x1 PUSH1 0x1 PUSH1 0xA0 SHL SUB AND DUP2 JUMP JUMPDEST PUSH1 0x40 MLOAD PUSH1 0x1 PUSH1 0x1 PUSH1 0xA0 SHL SUB SWAP1 SWAP2 AND DUP2 MSTORE PUSH1 0x20 ADD PUSH2 0x278 JUMP JUMPDEST CALLVALUE DUP1 ISZERO PUSH2 0x2E2 JUMPI PUSH0 PUSH0 REVERT JUMPDEST POP PUSH2 0x2EB PUSH2 0xBDC JUMP JUMPDEST PUSH1 0x40 MLOAD PUSH2 0x278 SWAP2 SWAP1 PUSH2 0x2D0A JUMP JUMPDEST CALLVALUE DUP1 ISZERO PUSH2 0x303 JUMPI PUSH0 PUSH0 REVERT JUMPDEST POP PUSH2 0x30D PUSH1 0x10 SLOAD DUP2 JUMP JUMPDEST PUSH1 0x40 MLOAD SWAP1 DUP2 MSTORE PUSH1 0x20 ADD PUSH2 0x278 JUMP JUMPDEST CALLVALUE DUP1 ISZERO PUSH2 0x326 JUMPI PUSH0 PUSH0 REVERT JUMPDEST POP PUSH2 0x349 PUSH2 0x335 CALLDATASIZE PUSH1 0x4 PUSH2 0x2D3E JUMP JUMPDEST PUSH1 0xA PUSH1 0x20 MSTORE PUSH0 SWAP1 DUP2 MSTORE PUSH1 0x40 SWAP1 KECCAK256 SLOAD PUSH1 0xFF AND DUP2 JUMP JUMPDEST PUSH1 0x40 MLOAD SWAP1 ISZERO ISZERO DUP2 MSTORE PUSH1 0x20 ADD PUSH2 0x278 JUMP JUMPDEST CALLVALUE DUP1 ISZERO PUSH2 0x364 JUMPI PUSH0 PUSH0 REVERT JUMPDEST POP PUSH2 0x235 PUSH2 0x373 CALLDATASIZE PUSH1 0x4 PUSH2 0x2D57 JUMP JUMPDEST PUSH2 0xC68 JUMP JUMPDEST CALLVALUE DUP1 ISZERO PUSH2 0x383 JUMPI PUSH0 PUSH0 REVERT JUMPDEST POP PUSH2 0x30D PUSH2 0x392 CALLDATASIZE PUSH1 0x4 PUSH2 0x2C99 JUMP JUMPDEST PUSH2 0xEB1 JUMP JUMPDEST CALLVALUE DUP1 ISZERO PUSH2 0x3A2 JUMPI PUSH0 PUSH0 REVERT JUMPDEST POP PUSH2 0x235 PUSH2 0x3B1 CALLDATASIZE PUSH1 0x4 PUSH2 0x2D8B JUMP JUMPDEST PUSH2 0xEE4 JUMP JUMPDEST CALLVALUE DUP1 ISZERO PUSH2 0x3C1 JUMPI PUSH0 PUSH0 REVERT JUMPDEST POP PUSH2 0x235 PUSH2 0x3D0 CALLDATASIZE PUSH1 0x4 PUSH2 0x2D3E JUMP JUMPDEST PUSH2 0x102E JUMP JUMPDEST CALLVALUE DUP1 ISZERO PUSH2 0x3E0 JUMPI PUSH0 PUSH0 REVERT JUMPDEST POP PUSH2 0x235 PUSH2 0x3EF CALLDATASIZE PUSH1 0x4 PUSH2 0x2BA3 JUMP JUMPDEST PUSH2 0x11F6 JUMP JUMPDEST CALLVALUE DUP1 ISZERO PUSH2 0x3FF JUMPI PUSH0 PUSH0 REVERT JUMPDEST POP PUSH2 0x235 PUSH2 0x1402 JUMP JUMPDEST CALLVALUE DUP1 ISZERO PUSH2 0x413 JUMPI PUSH0 PUSH0 REVERT JUMPDEST POP PUSH2 0x456 PUSH2 0x422 CALLDATASIZE PUSH1 0x4 PUSH2 0x2D3E JUMP JUMPDEST PUSH1 0xC PUSH1 0x20 MSTORE PUSH0 SWAP1 DUP2 MSTORE PUSH1 0x40 SWAP1 KECCAK256 DUP1 SLOAD PUSH1 0x1 DUP3 ADD SLOAD PUSH1 0x2 DUP4 ADD SLOAD PUSH1 0x3 SWAP1 SWAP4 ADD SLOAD SWAP2 SWAP3 PUSH1 0xFF DUP1 DUP4 AND SWAP4 PUSH2 0x100 SWAP1 SWAP4 DIV DUP2 AND SWAP3 AND DUP6 JUMP JUMPDEST PUSH1 0x40 MLOAD PUSH2 0x278 SWAP6 SWAP5 SWAP4 SWAP3 SWAP2 SWAP1 SWAP5 DUP6 MSTORE SWAP3 ISZERO ISZERO PUSH1 0x20 DUP6 ADD MSTORE SWAP1 ISZERO ISZERO PUSH1 0x40 DUP5 ADD MSTORE PUSH1 0x60 DUP4 ADD MSTORE ISZERO ISZERO PUSH1 0x80 DUP3 ADD MSTORE PUSH1 0xA0 ADD SWAP1 JUMP JUMPDEST CALLVALUE DUP1 ISZERO PUSH2 0x492 JUMPI PUSH0 PUSH0 REVERT JUMPDEST POP PUSH2 0x49B PUSH2 0x160E JUMP JUMPDEST PUSH1 0x40 MLOAD PUSH2 0x278 SWAP8 SWAP7 SWAP6 SWAP5 SWAP4 SWAP3 SWAP2 SWAP1 PUSH2 0x2DC4 JUMP JUMPDEST CALLVALUE DUP1 ISZERO PUSH2 0x4B9 JUMPI PUSH0 PUSH0 REVERT JUMPDEST POP SELFBALANCE PUSH2 0x30D JUMP JUMPDEST CALLVALUE DUP1 ISZERO PUSH2 0x4CB JUMPI PUSH0 PUSH0 REVERT JUMPDEST POP PUSH2 0x235 PUSH2 0x4DA CALLDATASIZE PUSH1 0x4 PUSH2 0x2D3E JUMP JUMPDEST PUSH2 0x1857 JUMP JUMPDEST CALLVALUE DUP1 ISZERO PUSH2 0x4EA JUMPI PUSH0 PUSH0 REVERT JUMPDEST POP PUSH2 0x235 PUSH2 0x4F9 CALLDATASIZE PUSH1 0x4 PUSH2 0x2BA3 JUMP JUMPDEST PUSH2 0x1970 JUMP JUMPDEST CALLVALUE DUP1 ISZERO PUSH2 0x509 JUMPI PUSH0 PUSH0 REVERT JUMPDEST POP PUSH2 0x235 PUSH2 0x1AF0 JUMP JUMPDEST CALLVALUE DUP1 ISZERO PUSH2 0x51D JUMPI PUSH0 PUSH0 REVERT JUMPDEST POP PUSH2 0x598 PUSH2 0x52C CALLDATASIZE PUSH1 0x4 PUSH2 0x2D3E JUMP JUMPDEST PUSH1 0x1 PUSH1 0x1 PUSH1 0xA0 SHL SUB AND PUSH0 SWAP1 DUP2 MSTORE PUSH1 0xC PUSH1 0x20 SWAP1 DUP2 MSTORE PUSH1 0x40 SWAP2 DUP3 SWAP1 KECCAK256 DUP3 MLOAD PUSH1 0xA0 DUP2 ADD DUP5 MSTORE DUP2 SLOAD DUP2 MSTORE PUSH1 0x1 DUP3 ADD SLOAD PUSH1 0xFF DUP1 DUP3 AND ISZERO ISZERO SWAP5 DUP4 ADD DUP6 SWAP1 MSTORE PUSH2 0x100 SWAP1 SWAP2 DIV DUP2 AND ISZERO ISZERO SWAP5 DUP3 ADD DUP6 SWAP1 MSTORE PUSH1 0x2 DUP4 ADD SLOAD PUSH1 0x60 DUP4 ADD DUP2 SWAP1 MSTORE PUSH1 0x3 SWAP1 SWAP4 ADD SLOAD AND ISZERO ISZERO PUSH1 0x80 SWAP1 SWAP2 ADD DUP2 SWAP1 MSTORE SWAP2 SWAP4 SWAP1 SWAP2 SWAP1 JUMP JUMPDEST PUSH1 0x40 DUP1 MLOAD SWAP5 ISZERO ISZERO DUP6 MSTORE SWAP3 ISZERO ISZERO PUSH1 0x20 DUP6 ADD MSTORE SWAP2 DUP4 ADD MSTORE ISZERO ISZERO PUSH1 0x60 DUP3 ADD MSTORE PUSH1 0x80 ADD PUSH2 0x278 JUMP JUMPDEST CALLVALUE DUP1 ISZERO PUSH2 0x5C7 JUMPI PUSH0 PUSH0 REVERT JUMPDEST POP PUSH2 0x235 PUSH2 0x5D6 CALLDATASIZE PUSH1 0x4 PUSH2 0x2E33 JUMP JUMPDEST PUSH2 0x1B97 JUMP JUMPDEST CALLVALUE DUP1 ISZERO PUSH2 0x5E6 JUMPI PUSH0 PUSH0 REVERT JUMPDEST POP PUSH2 0x5FA PUSH2 0x5F5 CALLDATASIZE PUSH1 0x4 PUSH2 0x2D3E JUMP JUMPDEST PUSH2 0x1DD9 JUMP JUMPDEST PUSH1 0x40 MLOAD PUSH2 0x278 SWAP3 SWAP2 SWAP1 PUSH2 0x2F2B JUMP JUMPDEST CALLVALUE DUP1 ISZERO PUSH2 0x613 JUMPI PUSH0 PUSH0 REVERT JUMPDEST POP PUSH2 0x2EB PUSH2 0x622 CALLDATASIZE PUSH1 0x4 PUSH2 0x2D3E JUMP JUMPDEST PUSH2 0x1E97 JUMP JUMPDEST CALLVALUE DUP1 ISZERO PUSH2 0x632 JUMPI PUSH0 PUSH0 REVERT JUMPDEST POP PUSH2 0x30D PUSH1 0x11 SLOAD DUP2 JUMP JUMPDEST CALLVALUE DUP1 ISZERO PUSH2 0x647 JUMPI PUSH0 PUSH0 REVERT JUMPDEST POP PUSH2 0x650 PUSH2 0x1EAF JUMP JUMPDEST PUSH1 0x40 MLOAD PUSH2 0x278 SWAP4 SWAP3 SWAP2 SWAP1 PUSH2 0x2F9F JUMP JUMPDEST CALLVALUE DUP1 ISZERO PUSH2 0x66A JUMPI PUSH0 PUSH0 REVERT JUMPDEST POP PUSH2 0x30D PUSH1 0xF SLOAD DUP2 JUMP JUMPDEST PUSH2 0x235 PUSH2 0x20DA JUMP JUMPDEST CALLVALUE DUP1 ISZERO PUSH2 0x687 JUMPI PUSH0 PUSH0 REVERT JUMPDEST POP PUSH1 0x13 SLOAD PUSH2 0x349 SWAP1 PUSH1 0xFF AND DUP2 JUMP JUMPDEST CALLVALUE DUP1 ISZERO PUSH2 0x6A0 JUMPI PUSH0 PUSH0 REVERT JUMPDEST POP PUSH1 0xD SLOAD PUSH2 0x30D JUMP JUMPDEST CALLVALUE DUP1 ISZERO PUSH2 0x6B4 JUMPI PUSH0 PUSH0 REVERT JUMPDEST POP PUSH2 0x235 PUSH2 0x2106 JUMP JUMPDEST CALLVALUE DUP1 ISZERO PUSH2 0x6C8 JUMPI PUSH0 PUSH0 REVERT JUMPDEST POP PUSH2 0x235 PUSH2 0x2239 JUMP JUMPDEST CALLVALUE DUP1 ISZERO PUSH2 0x6DC JUMPI PUSH0 PUSH0 REVERT JUMPDEST POP PUSH2 0x2BF PUSH2 0x6EB CALLDATASIZE PUSH1 0x4 PUSH2 0x2BA3 JUMP JUMPDEST PUSH2 0x2454 JUMP JUMPDEST CALLVALUE DUP1 ISZERO PUSH2 0x6FB JUMPI PUSH0 PUSH0 REVERT JUMPDEST POP PUSH1 0xE SLOAD PUSH2 0x2BF SWAP1 PUSH1 0x1 PUSH1 0x1 PUSH1 0xA0 SHL SUB AND DUP2 JUMP JUMPDEST CALLVALUE DUP1 ISZERO PUSH2 0x71A JUMPI PUSH0 PUSH0 REVERT JUMPDEST POP PUSH2 0x723 PUSH2 0x247C JUMP JUMPDEST PUSH1 0x40 MLOAD PUSH2 0x278 SWAP10 SWAP9 SWAP8 SWAP7 SWAP6 SWAP5 SWAP4 SWAP3 SWAP2 SWAP1 PUSH2 0x303B JUMP JUMPDEST CALLVALUE DUP1 ISZERO PUSH2 0x743 JUMPI PUSH0 PUSH0 REVERT JUMPDEST POP PUSH1 0x2 SLOAD PUSH2 0x2BF SWAP1 PUSH1 0x1 PUSH1 0x1 PUSH1 0xA0 SHL SUB AND DUP2 JUMP JUMPDEST CALLVALUE DUP1 ISZERO PUSH2 0x762 JUMPI PUSH0 PUSH0 REVERT JUMPDEST POP PUSH0 SLOAD PUSH2 0x2BF SWAP1 PUSH1 0x1 PUSH1 0x1 PUSH1 0xA0 SHL SUB AND DUP2 JUMP JUMPDEST PUSH1 0x2 SLOAD PUSH1 0x1 PUSH1 0x1 PUSH1 0xA0 SHL SUB AND PUSH2 0x79E JUMPI PUSH1 0x40 MLOAD PUSH4 0xD6EA3663 PUSH1 0xE0 SHL DUP2 MSTORE PUSH1 0x4 ADD PUSH1 0x40 MLOAD DUP1 SWAP2 SUB SWAP1 REVERT JUMPDEST PUSH1 0x2 SLOAD PUSH1 0x1 PUSH1 0x1 PUSH1 0xA0 SHL SUB AND CALLER EQ PUSH2 0x7C9 JUMPI PUSH1 0x40 MLOAD PUSH4 0x9864FBB3 PUSH1 0xE0 SHL DUP2 MSTORE PUSH1 0x4 ADD PUSH1 0x40 MLOAD DUP1 SWAP2 SUB SWAP1 REVERT JUMPDEST PUSH1 0x9 SLOAD PUSH1 0xFF AND PUSH2 0x7EC JUMPI PUSH1 0x40 MLOAD PUSH4 0x55E9E641 PUSH1 0xE1 SHL DUP2 MSTORE PUSH1 0x4 ADD PUSH1 0x40 MLOAD DUP1 SWAP2 SUB SWAP1 REVERT JUMPDEST PUSH1 0x4 DUP1 PUSH1 0x2 SLOAD PUSH1 0x1 PUSH1 0xA0 SHL SWAP1 DIV PUSH1 0xFF AND PUSH1 0x7 DUP2 GT ISZERO PUSH2 0x80D JUMPI PUSH2 0x80D PUSH2 0x2BBA JUMP JUMPDEST EQ PUSH2 0x82B JUMPI PUSH1 0x40 MLOAD PUSH4 0x187FA83 PUSH1 0xE6 SHL DUP2 MSTORE PUSH1 0x4 ADD PUSH1 0x40 MLOAD DUP1 SWAP2 SUB SWAP1 REVERT JUMPDEST DUP2 PUSH2 0x87D JUMPI PUSH1 0x40 MLOAD PUSH3 0x461BCD PUSH1 0xE5 SHL DUP2 MSTORE PUSH1 0x20 PUSH1 0x4 DUP3 ADD MSTORE PUSH1 0x1E PUSH1 0x24 DUP3 ADD MSTORE PUSH32 0x496E76616C696420696E7370656374696F6E207265706F727420686173680000 PUSH1 0x44 DUP3 ADD MSTORE PUSH1 0x64 ADD JUMPDEST PUSH1 0x40 MLOAD DUP1 SWAP2 SUB SWAP1 REVERT JUMPDEST PUSH1 0x11 DUP3 SWAP1 SSTORE PUSH1 0x2 DUP1 SLOAD PUSH1 0xFF PUSH1 0xA0 SHL NOT AND PUSH1 0x3 PUSH1 0xA1 SHL OR SWAP1 SSTORE PUSH1 0x40 DUP1 MLOAD CALLER DUP2 MSTORE PUSH1 0x20 DUP2 ADD DUP5 SWAP1 MSTORE PUSH32 0xEF94AF06CFA9A76C638DD1A1CFB86B07F938FEBF05374E3675AECED1F805205E SWAP2 ADD JUMPDEST PUSH1 0x40 MLOAD DUP1 SWAP2 SUB SWAP1 LOG1 POP POP JUMP JUMPDEST PUSH0 SLOAD PUSH1 0x1 PUSH1 0x1 PUSH1 0xA0 SHL SUB AND CALLER EQ PUSH2 0x8FD JUMPI PUSH1 0x40 MLOAD PUSH4 0x47556579 PUSH1 0xE0 SHL DUP2 MSTORE PUSH1 0x4 ADD PUSH1 0x40 MLOAD DUP1 SWAP2 SUB SWAP1 REVERT JUMPDEST PUSH1 0x9 SLOAD PUSH1 0xFF AND PUSH2 0x920 JUMPI PUSH1 0x40 MLOAD PUSH4 0x55E9E641 PUSH1 0xE1 SHL DUP2 MSTORE PUSH1 0x4 ADD PUSH1 0x40 MLOAD DUP1 SWAP2 SUB SWAP1 REVERT JUMPDEST PUSH1 0x6 SLOAD TIMESTAMP LT ISZERO PUSH2 0x943 JUMPI PUSH1 0x40 MLOAD PUSH4 0x3EFBCCB1 PUSH1 0xE0 SHL DUP2 MSTORE PUSH1 0x4 ADD PUSH1 0x40 MLOAD DUP1 SWAP2 SUB SWAP1 REVERT JUMPDEST PUSH0 DUP1 PUSH1 0x2 SLOAD PUSH1 0x1 PUSH1 0xA0 SHL SWAP1 DIV PUSH1 0xFF AND PUSH1 0x7 DUP2 GT ISZERO PUSH2 0x963 JUMPI PUSH2 0x963 PUSH2 0x2BBA JUMP JUMPDEST EQ PUSH2 0x981 JUMPI PUSH1 0x40 MLOAD PUSH4 0x187FA83 PUSH1 0xE6 SHL DUP2 MSTORE PUSH1 0x4 ADD PUSH1 0x40 MLOAD DUP1 SWAP2 SUB SWAP1 REVERT JUMPDEST PUSH1 0x2 DUP1 SLOAD PUSH1 0xFF PUSH1 0xA0 SHL NOT AND PUSH1 0x1 PUSH1 0xA0 SHL OR SWAP1 SSTORE PUSH1 0x40 MLOAD PUSH32 0x2FD2F8FCBB75B0A142D3952AD3F5E92DD16AAB6C8BBBD304BDB97066B33C062C SWAP1 PUSH0 SWAP1 LOG1 POP JUMP JUMPDEST PUSH1 0x9 SLOAD PUSH1 0xFF AND PUSH2 0x9E2 JUMPI PUSH1 0x40 MLOAD PUSH4 0x55E9E641 PUSH1 0xE1 SHL DUP2 MSTORE PUSH1 0x4 ADD PUSH1 0x40 MLOAD DUP1 SWAP2 SUB SWAP1 REVERT JUMPDEST CALLER PUSH0 SWAP1 DUP2 MSTORE PUSH1 0xA PUSH1 0x20 MSTORE PUSH1 0x40 SWAP1 KECCAK256 SLOAD PUSH1 0xFF AND PUSH2 0xA11 JUMPI PUSH1 0x40 MLOAD PUSH4 0x2F9CE37 PUSH1 0xE5 SHL DUP2 MSTORE PUSH1 0x4 ADD PUSH1 0x40 MLOAD DUP1 SWAP2 SUB SWAP1 REVERT JUMPDEST PUSH1 0x1 DUP1 PUSH1 0x2 SLOAD PUSH1 0x1 PUSH1 0xA0 SHL SWAP1 DIV PUSH1 0xFF AND PUSH1 0x7 DUP2 GT ISZERO PUSH2 0xA32 JUMPI PUSH2 0xA32 PUSH2 0x2BBA JUMP JUMPDEST EQ PUSH2 0xA50 JUMPI PUSH1 0x40 MLOAD PUSH4 0x187FA83 PUSH1 0xE6 SHL DUP2 MSTORE PUSH1 0x4 ADD PUSH1 0x40 MLOAD DUP1 SWAP2 SUB SWAP1 REVERT JUMPDEST CALLER PUSH0 SWAP1 DUP2 MSTORE PUSH1 0xC PUSH1 0x20 MSTORE PUSH1 0x40 SWAP1 KECCAK256 PUSH1 0x1 DUP2 ADD SLOAD PUSH1 0xFF AND PUSH2 0xAA5 JUMPI PUSH1 0x40 MLOAD PUSH3 0x461BCD PUSH1 0xE5 SHL DUP2 MSTORE PUSH1 0x20 PUSH1 0x4 DUP3 ADD MSTORE PUSH1 0x10 PUSH1 0x24 DUP3 ADD MSTORE PUSH16 0x139BC8189A59081CDD589B5A5D1D1959 PUSH1 0x82 SHL PUSH1 0x44 DUP3 ADD MSTORE PUSH1 0x64 ADD PUSH2 0x874 JUMP JUMPDEST PUSH1 0x1 DUP2 ADD SLOAD PUSH2 0x100 SWAP1 DIV PUSH1 0xFF AND ISZERO PUSH2 0xAF6 JUMPI PUSH1 0x40 MLOAD PUSH3 0x461BCD PUSH1 0xE5 SHL DUP2 MSTORE PUSH1 0x20 PUSH1 0x4 DUP3 ADD MSTORE PUSH1 0x14 PUSH1 0x24 DUP3 ADD MSTORE PUSH20 0x109A5908185B1C9958591E481C995D99585B1959 PUSH1 0x62 SHL PUSH1 0x44 DUP3 ADD MSTORE PUSH1 0x64 ADD PUSH2 0x874 JUMP JUMPDEST PUSH0 DUP5 DUP5 PUSH1 0x40 MLOAD PUSH1 0x20 ADD PUSH2 0xB0A SWAP3 SWAP2 SWAP1 PUSH2 0x30C6 JUMP JUMPDEST PUSH1 0x40 MLOAD PUSH1 0x20 DUP2 DUP4 SUB SUB DUP2 MSTORE SWAP1 PUSH1 0x40 MSTORE DUP1 MLOAD SWAP1 PUSH1 0x20 ADD KECCAK256 SWAP1 POP DUP2 PUSH0 ADD SLOAD DUP2 EQ PUSH2 0xB74 JUMPI PUSH1 0x40 MLOAD PUSH3 0x461BCD PUSH1 0xE5 SHL DUP2 MSTORE PUSH1 0x20 PUSH1 0x4 DUP3 ADD DUP2 SWAP1 MSTORE PUSH1 0x24 DUP3 ADD MSTORE PUSH32 0x52657665616C20646F6573206E6F74206D61746368207365616C656420626964 PUSH1 0x44 DUP3 ADD MSTORE PUSH1 0x64 ADD PUSH2 0x874 JUMP JUMPDEST PUSH1 0x1 DUP3 DUP2 ADD DUP1 SLOAD PUSH2 0xFF00 NOT AND PUSH2 0x100 OR SWAP1 SSTORE PUSH1 0x2 DUP4 ADD DUP7 SWAP1 SSTORE PUSH1 0x3 DUP4 ADD DUP1 SLOAD PUSH1 0xFF NOT AND SWAP1 SWAP2 OR SWAP1 SSTORE PUSH1 0x40 DUP1 MLOAD CALLER DUP2 MSTORE PUSH1 0x20 DUP2 ADD DUP8 SWAP1 MSTORE PUSH32 0x9891BD98143D5A2C5F29BE9A7EF8E5D7B723746FB3B75220234AF7AA6CAEECFE SWAP2 ADD PUSH1 0x40 MLOAD DUP1 SWAP2 SUB SWAP1 LOG1 POP POP POP POP POP JUMP JUMPDEST PUSH1 0x12 DUP1 SLOAD PUSH2 0xBE9 SWAP1 PUSH2 0x30E6 JUMP JUMPDEST DUP1 PUSH1 0x1F ADD PUSH1 0x20 DUP1 SWAP2 DIV MUL PUSH1 0x20 ADD PUSH1 0x40 MLOAD SWAP1 DUP2 ADD PUSH1 0x40 MSTORE DUP1 SWAP3 SWAP2 SWAP1 DUP2 DUP2 MSTORE PUSH1 0x20 ADD DUP3 DUP1 SLOAD PUSH2 0xC15 SWAP1 PUSH2 0x30E6 JUMP JUMPDEST DUP1 ISZERO PUSH2 0xC60 JUMPI DUP1 PUSH1 0x1F LT PUSH2 0xC37 JUMPI PUSH2 0x100 DUP1 DUP4 SLOAD DIV MUL DUP4 MSTORE SWAP2 PUSH1 0x20 ADD SWAP2 PUSH2 0xC60 JUMP JUMPDEST DUP3 ADD SWAP2 SWAP1 PUSH0 MSTORE PUSH1 0x20 PUSH0 KECCAK256 SWAP1 JUMPDEST DUP2 SLOAD DUP2 MSTORE SWAP1 PUSH1 0x1 ADD SWAP1 PUSH1 0x20 ADD DUP1 DUP4 GT PUSH2 0xC43 JUMPI DUP3 SWAP1 SUB PUSH1 0x1F AND DUP3 ADD SWAP2 JUMPDEST POP POP POP POP POP DUP2 JUMP JUMPDEST PUSH0 SLOAD PUSH1 0x1 PUSH1 0x1 PUSH1 0xA0 SHL SUB AND CALLER EQ PUSH2 0xC92 JUMPI PUSH1 0x40 MLOAD PUSH4 0x47556579 PUSH1 0xE0 SHL DUP2 MSTORE PUSH1 0x4 ADD PUSH1 0x40 MLOAD DUP1 SWAP2 SUB SWAP1 REVERT JUMPDEST PUSH1 0x9 SLOAD PUSH1 0xFF AND PUSH2 0xCB5 JUMPI PUSH1 0x40 MLOAD PUSH4 0x55E9E641 PUSH1 0xE1 SHL DUP2 MSTORE PUSH1 0x4 ADD PUSH1 0x40 MLOAD DUP1 SWAP2 SUB SWAP1 REVERT JUMPDEST PUSH0 DUP1 PUSH1 0x2 SLOAD PUSH1 0x1 PUSH1 0xA0 SHL SWAP1 DIV PUSH1 0xFF AND PUSH1 0x7 DUP2 GT ISZERO PUSH2 0xCD5 JUMPI PUSH2 0xCD5 PUSH2 0x2BBA JUMP JUMPDEST EQ PUSH2 0xCF3 JUMPI PUSH1 0x40 MLOAD PUSH4 0x187FA83 PUSH1 0xE6 SHL DUP2 MSTORE PUSH1 0x4 ADD PUSH1 0x40 MLOAD DUP1 SWAP2 SUB SWAP1 REVERT JUMPDEST PUSH1 0x1 PUSH1 0x1 PUSH1 0xA0 SHL SUB DUP4 AND PUSH2 0xD42 JUMPI PUSH1 0x40 MLOAD PUSH3 0x461BCD PUSH1 0xE5 SHL DUP2 MSTORE PUSH1 0x20 PUSH1 0x4 DUP3 ADD MSTORE PUSH1 0x16 PUSH1 0x24 DUP3 ADD MSTORE PUSH22 0x496E76616C6964206269646465722061646472657373 PUSH1 0x50 SHL PUSH1 0x44 DUP3 ADD MSTORE PUSH1 0x64 ADD PUSH2 0x874 JUMP JUMPDEST PUSH1 0x1 PUSH1 0x1 PUSH1 0xA0 SHL SUB DUP4 AND PUSH0 SWAP1 DUP2 MSTORE PUSH1 0xA PUSH1 0x20 MSTORE PUSH1 0x40 SWAP1 KECCAK256 SLOAD PUSH1 0xFF AND ISZERO PUSH2 0xDAA JUMPI PUSH1 0x40 MLOAD PUSH3 0x461BCD PUSH1 0xE5 SHL DUP2 MSTORE PUSH1 0x20 PUSH1 0x4 DUP3 ADD MSTORE PUSH1 0x19 PUSH1 0x24 DUP3 ADD MSTORE PUSH32 0x42696464657220616C7265616479207265676973746572656400000000000000 PUSH1 0x44 DUP3 ADD MSTORE PUSH1 0x64 ADD PUSH2 0x874 JUMP JUMPDEST PUSH0 DUP3 MLOAD GT PUSH2 0xDF1 JUMPI PUSH1 0x40 MLOAD PUSH3 0x461BCD PUSH1 0xE5 SHL DUP2 MSTORE PUSH1 0x20 PUSH1 0x4 DUP3 ADD MSTORE PUSH1 0x14 PUSH1 0x24 DUP3 ADD MSTORE PUSH20 0x11195CD8DC9A5C1D1A5BDB881C995C5D5A5C9959 PUSH1 0x62 SHL PUSH1 0x44 DUP3 ADD MSTORE PUSH1 0x64 ADD PUSH2 0x874 JUMP JUMPDEST PUSH1 0x1 PUSH1 0x1 PUSH1 0xA0 SHL SUB DUP4 AND PUSH0 SWAP1 DUP2 MSTORE PUSH1 0xA PUSH1 0x20 SWAP1 DUP2 MSTORE PUSH1 0x40 DUP1 DUP4 KECCAK256 DUP1 SLOAD PUSH1 0xFF NOT AND PUSH1 0x1 OR SWAP1 SSTORE PUSH1 0xB SWAP1 SWAP2 MSTORE SWAP1 KECCAK256 PUSH2 0xE27 DUP4 DUP3 PUSH2 0x316A JUMP JUMPDEST POP PUSH1 0xD DUP1 SLOAD PUSH1 0x1 DUP2 ADD DUP3 SSTORE PUSH0 SWAP2 SWAP1 SWAP2 MSTORE PUSH32 0xD7B6990105719101DABEB77144F2A3385C8033ACD3AF97E9423A695E81AD1EB5 ADD DUP1 SLOAD PUSH1 0x1 PUSH1 0x1 PUSH1 0xA0 SHL SUB NOT AND PUSH1 0x1 PUSH1 0x1 PUSH1 0xA0 SHL SUB DUP6 AND OR SWAP1 SSTORE PUSH1 0x40 MLOAD PUSH32 0x164B6120673B4B59137EF128C1C6D39E2DE27D8BAA1DDEDA0DB16EA4E15E97F6 SWAP1 PUSH2 0xEA4 SWAP1 DUP6 SWAP1 DUP6 SWAP1 PUSH2 0x3224 JUMP JUMPDEST PUSH1 0x40 MLOAD DUP1 SWAP2 SUB SWAP1 LOG1 POP POP POP JUMP JUMPDEST PUSH0 DUP3 DUP3 PUSH1 0x40 MLOAD PUSH1 0x20 ADD PUSH2 0xEC5 SWAP3 SWAP2 SWAP1 PUSH2 0x30C6 JUMP JUMPDEST PUSH1 0x40 MLOAD PUSH1 0x20 DUP2 DUP4 SUB SUB DUP2 MSTORE SWAP1 PUSH1 0x40 MSTORE DUP1 MLOAD SWAP1 PUSH1 0x20 ADD KECCAK256 SWAP1 POP JUMPDEST SWAP3 SWAP2 POP POP JUMP JUMPDEST PUSH1 0x2 SLOAD PUSH1 0x1 PUSH1 0x1 PUSH1 0xA0 SHL SUB AND PUSH2 0xF0D JUMPI PUSH1 0x40 MLOAD PUSH4 0xD6EA3663 PUSH1 0xE0 SHL DUP2 MSTORE PUSH1 0x4 ADD PUSH1 0x40 MLOAD DUP1 SWAP2 SUB SWAP1 REVERT JUMPDEST PUSH1 0x2 SLOAD PUSH1 0x1 PUSH1 0x1 PUSH1 0xA0 SHL SUB AND CALLER EQ PUSH2 0xF38 JUMPI PUSH1 0x40 MLOAD PUSH4 0x9864FBB3 PUSH1 0xE0 SHL DUP2 MSTORE PUSH1 0x4 ADD PUSH1 0x40 MLOAD DUP1 SWAP2 SUB SWAP1 REVERT JUMPDEST PUSH1 0x9 SLOAD PUSH1 0xFF AND PUSH2 0xF5B JUMPI PUSH1 0x40 MLOAD PUSH4 0x55E9E641 PUSH1 0xE1 SHL DUP2 MSTORE PUSH1 0x4 ADD PUSH1 0x40 MLOAD DUP1 SWAP2 SUB SWAP1 REVERT JUMPDEST PUSH1 0x4 DUP1 PUSH1 0x2 SLOAD PUSH1 0x1 PUSH1 0xA0 SHL SWAP1 DIV PUSH1 0xFF AND PUSH1 0x7 DUP2 GT ISZERO PUSH2 0xF7C JUMPI PUSH2 0xF7C PUSH2 0x2BBA JUMP JUMPDEST EQ PUSH2 0xF9A JUMPI PUSH1 0x40 MLOAD PUSH4 0x187FA83 PUSH1 0xE6 SHL DUP2 MSTORE PUSH1 0x4 ADD PUSH1 0x40 MLOAD DUP1 SWAP2 SUB SWAP1 REVERT JUMPDEST PUSH0 DUP3 MLOAD GT PUSH2 0xFDC JUMPI PUSH1 0x40 MLOAD PUSH3 0x461BCD PUSH1 0xE5 SHL DUP2 MSTORE PUSH1 0x20 PUSH1 0x4 DUP3 ADD MSTORE PUSH1 0xF PUSH1 0x24 DUP3 ADD MSTORE PUSH15 0x1499585CDBDB881C995C5D5A5C9959 PUSH1 0x8A SHL PUSH1 0x44 DUP3 ADD MSTORE PUSH1 0x64 ADD PUSH2 0x874 JUMP JUMPDEST PUSH1 0x12 PUSH2 0xFE8 DUP4 DUP3 PUSH2 0x316A JUMP JUMPDEST POP PUSH1 0x2 DUP1 SLOAD PUSH1 0xFF PUSH1 0xA0 SHL NOT AND PUSH1 0x5 PUSH1 0xA0 SHL OR SWAP1 SSTORE PUSH1 0x40 MLOAD PUSH32 0x52FCA0FCDDA16F4A5F819B60BB9C2F99458433351B90E6FCB3E221FE03B10280 SWAP1 PUSH2 0x8C7 SWAP1 CALLER SWAP1 DUP6 SWAP1 PUSH2 0x3224 JUMP JUMPDEST PUSH0 SLOAD PUSH1 0x1 PUSH1 0x1 PUSH1 0xA0 SHL SUB AND CALLER EQ PUSH2 0x1058 JUMPI PUSH1 0x40 MLOAD PUSH4 0x47556579 PUSH1 0xE0 SHL DUP2 MSTORE PUSH1 0x4 ADD PUSH1 0x40 MLOAD DUP1 SWAP2 SUB SWAP1 REVERT JUMPDEST PUSH1 0x9 SLOAD PUSH1 0xFF AND PUSH2 0x107B JUMPI PUSH1 0x40 MLOAD PUSH4 0x55E9E641 PUSH1 0xE1 SHL DUP2 MSTORE PUSH1 0x4 ADD PUSH1 0x40 MLOAD DUP1 SWAP2 SUB SWAP1 REVERT JUMPDEST PUSH1 0x1 PUSH1 0x1 PUSH1 0xA0 SHL SUB DUP2 AND PUSH2 0x10D1 JUMPI PUSH1 0x40 MLOAD PUSH3 0x461BCD PUSH1 0xE5 SHL DUP2 MSTORE PUSH1 0x20 PUSH1 0x4 DUP3 ADD MSTORE PUSH1 0x19 PUSH1 0x24 DUP3 ADD MSTORE PUSH32 0x496E76616C696420696E73706563746F72206164647265737300000000000000 PUSH1 0x44 DUP3 ADD MSTORE PUSH1 0x64 ADD PUSH2 0x874 JUMP JUMPDEST PUSH1 0x6 PUSH1 0x2 SLOAD PUSH1 0x1 PUSH1 0xA0 SHL SWAP1 DIV PUSH1 0xFF AND PUSH1 0x7 DUP2 GT ISZERO PUSH2 0x10F1 JUMPI PUSH2 0x10F1 PUSH2 0x2BBA JUMP JUMPDEST EQ ISZERO DUP1 ISZERO PUSH2 0x111D JUMPI POP PUSH1 0x5 PUSH1 0x2 SLOAD PUSH1 0x1 PUSH1 0xA0 SHL SWAP1 DIV PUSH1 0xFF AND PUSH1 0x7 DUP2 GT ISZERO PUSH2 0x111A JUMPI PUSH2 0x111A PUSH2 0x2BBA JUMP JUMPDEST EQ ISZERO JUMPDEST DUP1 ISZERO PUSH2 0x1147 JUMPI POP PUSH1 0x7 PUSH1 0x2 SLOAD PUSH1 0x1 PUSH1 0xA0 SHL SWAP1 DIV PUSH1 0xFF AND PUSH1 0x7 DUP2 GT ISZERO PUSH2 0x1144 JUMPI PUSH2 0x1144 PUSH2 0x2BBA JUMP JUMPDEST EQ ISZERO JUMPDEST PUSH2 0x11A1 JUMPI PUSH1 0x40 MLOAD PUSH3 0x461BCD PUSH1 0xE5 SHL DUP2 MSTORE PUSH1 0x20 PUSH1 0x4 DUP3 ADD MSTORE PUSH1 0x25 PUSH1 0x24 DUP3 ADD MSTORE PUSH32 0x43616E6E6F74206368616E676520696E73706563746F72206174207468697320 PUSH1 0x44 DUP3 ADD MSTORE PUSH5 0x7374616765 PUSH1 0xD8 SHL PUSH1 0x64 DUP3 ADD MSTORE PUSH1 0x84 ADD PUSH2 0x874 JUMP JUMPDEST PUSH1 0x2 DUP1 SLOAD PUSH1 0x1 PUSH1 0x1 PUSH1 0xA0 SHL SUB NOT AND PUSH1 0x1 PUSH1 0x1 PUSH1 0xA0 SHL SUB DUP4 AND SWAP1 DUP2 OR SWAP1 SWAP2 SSTORE PUSH1 0x40 MLOAD SWAP1 DUP2 MSTORE PUSH32 0xC7B11D63D071F03C4B488A3A44EE58C8A449F16B0EE289DD25AF95C15C9F8E3A SWAP1 PUSH1 0x20 ADD JUMPDEST PUSH1 0x40 MLOAD DUP1 SWAP2 SUB SWAP1 LOG1 POP JUMP JUMPDEST PUSH1 0x9 SLOAD PUSH1 0xFF AND PUSH2 0x1219 JUMPI PUSH1 0x40 MLOAD PUSH4 0x55E9E641 PUSH1 0xE1 SHL DUP2 MSTORE PUSH1 0x4 ADD PUSH1 0x40 MLOAD DUP1 SWAP2 SUB SWAP1 REVERT JUMPDEST CALLER PUSH0 SWAP1 DUP2 MSTORE PUSH1 0xA PUSH1 0x20 MSTORE PUSH1 0x40 SWAP1 KECCAK256 SLOAD PUSH1 0xFF AND PUSH2 0x1248 JUMPI PUSH1 0x40 MLOAD PUSH4 0x2F9CE37 PUSH1 0xE5 SHL DUP2 MSTORE PUSH1 0x4 ADD PUSH1 0x40 MLOAD DUP1 SWAP2 SUB SWAP1 REVERT JUMPDEST PUSH1 0x6 SLOAD TIMESTAMP LT PUSH2 0x126A JUMPI PUSH1 0x40 MLOAD PUSH4 0x764B8E33 PUSH1 0xE1 SHL DUP2 MSTORE PUSH1 0x4 ADD PUSH1 0x40 MLOAD DUP1 SWAP2 SUB SWAP1 REVERT JUMPDEST PUSH0 DUP1 PUSH1 0x2 SLOAD PUSH1 0x1 PUSH1 0xA0 SHL SWAP1 DIV PUSH1 0xFF AND PUSH1 0x7 DUP2 GT ISZERO PUSH2 0x128A JUMPI PUSH2 0x128A PUSH2 0x2BBA JUMP JUMPDEST EQ PUSH2 0x12A8 JUMPI PUSH1 0x40 MLOAD PUSH4 0x187FA83 PUSH1 0xE6 SHL DUP2 MSTORE PUSH1 0x4 ADD PUSH1 0x40 MLOAD DUP1 SWAP2 SUB SWAP1 REVERT JUMPDEST CALLER PUSH0 SWAP1 DUP2 MSTORE PUSH1 0xC PUSH1 0x20 MSTORE PUSH1 0x40 SWAP1 KECCAK256 PUSH1 0x1 ADD SLOAD PUSH1 0xFF AND ISZERO PUSH2 0x1302 JUMPI PUSH1 0x40 MLOAD PUSH3 0x461BCD PUSH1 0xE5 SHL DUP2 MSTORE PUSH1 0x20 PUSH1 0x4 DUP3 ADD MSTORE PUSH1 0x15 PUSH1 0x24 DUP3 ADD MSTORE PUSH21 0x109A5908185B1C9958591E481CDD589B5A5D1D1959 PUSH1 0x5A SHL PUSH1 0x44 DUP3 ADD MSTORE PUSH1 0x64 ADD PUSH2 0x874 JUMP JUMPDEST DUP2 PUSH2 0x134F JUMPI PUSH1 0x40 MLOAD PUSH3 0x461BCD PUSH1 0xE5 SHL DUP2 MSTORE PUSH1 0x20 PUSH1 0x4 DUP3 ADD MSTORE PUSH1 0x17 PUSH1 0x24 DUP3 ADD MSTORE PUSH32 0x496E76616C6964207365616C6564206269642068617368000000000000000000 PUSH1 0x44 DUP3 ADD MSTORE PUSH1 0x64 ADD PUSH2 0x874 JUMP JUMPDEST PUSH1 0x40 DUP1 MLOAD PUSH1 0xA0 DUP2 ADD DUP3 MSTORE DUP4 DUP2 MSTORE PUSH1 0x1 PUSH1 0x20 DUP1 DUP4 ADD DUP3 DUP2 MSTORE PUSH0 DUP5 DUP7 ADD DUP2 DUP2 MSTORE PUSH1 0x60 DUP7 ADD DUP3 DUP2 MSTORE PUSH1 0x80 DUP8 ADD DUP4 DUP2 MSTORE CALLER DUP1 DUP6 MSTORE PUSH1 0xC DUP8 MSTORE SWAP4 DUP10 SWAP1 KECCAK256 SWAP8 MLOAD DUP9 SSTORE SWAP4 MLOAD SWAP6 DUP8 ADD DUP1 SLOAD SWAP3 MLOAD PUSH2 0xFFFF NOT SWAP1 SWAP4 AND SWAP7 ISZERO ISZERO PUSH2 0xFF00 NOT AND SWAP7 SWAP1 SWAP7 OR PUSH2 0x100 SWAP3 ISZERO ISZERO SWAP3 SWAP1 SWAP3 MUL SWAP2 SWAP1 SWAP2 OR SWAP1 SWAP5 SSTORE SWAP3 MLOAD PUSH1 0x2 DUP6 ADD SSTORE MLOAD PUSH1 0x3 SWAP1 SWAP4 ADD DUP1 SLOAD PUSH1 0xFF NOT AND SWAP4 ISZERO ISZERO SWAP4 SWAP1 SWAP4 OR SWAP1 SWAP3 SSTORE SWAP2 MLOAD SWAP2 DUP3 MSTORE PUSH32 0x88C5A0D081E0C7A69B5817581FFA85B19D71703BC581BB5C09FA253C527A055E SWAP2 ADD PUSH2 0x8C7 JUMP JUMPDEST PUSH0 SLOAD PUSH1 0x1 PUSH1 0x1 PUSH1 0xA0 SHL SUB AND CALLER EQ PUSH2 0x142C JUMPI PUSH1 0x40 MLOAD PUSH4 0x47556579 PUSH1 0xE0 SHL DUP2 MSTORE PUSH1 0x4 ADD PUSH1 0x40 MLOAD DUP1 SWAP2 SUB SWAP1 REVERT JUMPDEST PUSH1 0x9 SLOAD PUSH1 0xFF AND PUSH2 0x144F JUMPI PUSH1 0x40 MLOAD PUSH4 0x55E9E641 PUSH1 0xE1 SHL DUP2 MSTORE PUSH1 0x4 ADD PUSH1 0x40 MLOAD DUP1 SWAP2 SUB SWAP1 REVERT JUMPDEST PUSH1 0x1 DUP1 PUSH1 0x2 SLOAD PUSH1 0x1 PUSH1 0xA0 SHL SWAP1 DIV PUSH1 0xFF AND PUSH1 0x7 DUP2 GT ISZERO PUSH2 0x1470 JUMPI PUSH2 0x1470 PUSH2 0x2BBA JUMP JUMPDEST EQ PUSH2 0x148E JUMPI PUSH1 0x40 MLOAD PUSH4 0x187FA83 PUSH1 0xE6 SHL DUP2 MSTORE PUSH1 0x4 ADD PUSH1 0x40 MLOAD DUP1 SWAP2 SUB SWAP1 REVERT JUMPDEST PUSH0 PUSH0 NOT DUP2 JUMPDEST PUSH1 0xD SLOAD DUP2 LT ISZERO PUSH2 0x1552 JUMPI PUSH0 PUSH1 0xD DUP3 DUP2 SLOAD DUP2 LT PUSH2 0x14B1 JUMPI PUSH2 0x14B1 PUSH2 0x3247 JUMP JUMPDEST PUSH0 SWAP2 DUP3 MSTORE PUSH1 0x20 DUP1 DUP4 KECCAK256 SWAP1 SWAP2 ADD SLOAD PUSH1 0x1 PUSH1 0x1 PUSH1 0xA0 SHL SUB AND DUP1 DUP4 MSTORE PUSH1 0xC DUP3 MSTORE PUSH1 0x40 SWAP3 DUP4 SWAP1 KECCAK256 DUP4 MLOAD PUSH1 0xA0 DUP2 ADD DUP6 MSTORE DUP2 SLOAD DUP2 MSTORE PUSH1 0x1 DUP3 ADD SLOAD PUSH1 0xFF DUP1 DUP3 AND ISZERO ISZERO SWAP6 DUP4 ADD SWAP6 SWAP1 SWAP6 MSTORE PUSH2 0x100 SWAP1 DIV DUP5 AND ISZERO ISZERO SWAP5 DUP2 ADD SWAP5 SWAP1 SWAP5 MSTORE PUSH1 0x2 DUP2 ADD SLOAD PUSH1 0x60 DUP6 ADD MSTORE PUSH1 0x3 ADD SLOAD SWAP1 SWAP2 AND ISZERO DUP1 ISZERO PUSH1 0x80 DUP5 ADD DUP2 SWAP1 MSTORE SWAP2 SWAP4 POP PUSH2 0x152C JUMPI POP DUP1 PUSH1 0x40 ADD MLOAD JUMPDEST ISZERO PUSH2 0x1548 JUMPI DUP4 DUP2 PUSH1 0x60 ADD MLOAD LT ISZERO PUSH2 0x1548 JUMPI DUP1 PUSH1 0x60 ADD MLOAD SWAP4 POP DUP2 SWAP5 POP JUMPDEST POP POP PUSH1 0x1 ADD PUSH2 0x1493 JUMP JUMPDEST POP PUSH1 0x1 PUSH1 0x1 PUSH1 0xA0 SHL SUB DUP3 AND PUSH2 0x15A2 JUMPI PUSH1 0x40 MLOAD PUSH3 0x461BCD PUSH1 0xE5 SHL DUP2 MSTORE PUSH1 0x20 PUSH1 0x4 DUP3 ADD MSTORE PUSH1 0x16 PUSH1 0x24 DUP3 ADD MSTORE PUSH22 0x4E6F2076616C69642072657665616C65642062696473 PUSH1 0x50 SHL PUSH1 0x44 DUP3 ADD MSTORE PUSH1 0x64 ADD PUSH2 0x874 JUMP JUMPDEST PUSH1 0xE DUP1 SLOAD PUSH1 0x1 PUSH1 0x1 PUSH1 0xA0 SHL SUB NOT AND PUSH1 0x1 PUSH1 0x1 PUSH1 0xA0 SHL SUB DUP5 AND SWAP1 DUP2 OR SWAP1 SWAP2 SSTORE PUSH1 0xF DUP3 SWAP1 SSTORE PUSH1 0x2 DUP1 SLOAD PUSH1 0xFF PUSH1 0xA0 SHL NOT AND PUSH1 0x1 PUSH1 0xA1 SHL OR SWAP1 SSTORE PUSH1 0x40 DUP1 MLOAD SWAP2 DUP3 MSTORE PUSH1 0x20 DUP3 ADD DUP4 SWAP1 MSTORE PUSH32 0x44A8E45B0547725A1B190FE91FBA127F673B8CEC941CEAF8B3E2E67D61055DFE SWAP2 ADD PUSH2 0xEA4 JUMP JUMPDEST PUSH1 0x3 DUP1 SLOAD DUP2 SWAP1 PUSH2 0x161D SWAP1 PUSH2 0x30E6 JUMP JUMPDEST DUP1 PUSH1 0x1F ADD PUSH1 0x20 DUP1 SWAP2 DIV MUL PUSH1 0x20 ADD PUSH1 0x40 MLOAD SWAP1 DUP2 ADD PUSH1 0x40 MSTORE DUP1 SWAP3 SWAP2 SWAP1 DUP2 DUP2 MSTORE PUSH1 0x20 ADD DUP3 DUP1 SLOAD PUSH2 0x1649 SWAP1 PUSH2 0x30E6 JUMP JUMPDEST DUP1 ISZERO PUSH2 0x1694 JUMPI DUP1 PUSH1 0x1F LT PUSH2 0x166B JUMPI PUSH2 0x100 DUP1 DUP4 SLOAD DIV MUL DUP4 MSTORE SWAP2 PUSH1 0x20 ADD SWAP2 PUSH2 0x1694 JUMP JUMPDEST DUP3 ADD SWAP2 SWAP1 PUSH0 MSTORE PUSH1 0x20 PUSH0 KECCAK256 SWAP1 JUMPDEST DUP2 SLOAD DUP2 MSTORE SWAP1 PUSH1 0x1 ADD SWAP1 PUSH1 0x20 ADD DUP1 DUP4 GT PUSH2 0x1677 JUMPI DUP3 SWAP1 SUB PUSH1 0x1F AND DUP3 ADD SWAP2 JUMPDEST POP POP POP POP POP SWAP1 DUP1 PUSH1 0x1 ADD DUP1 SLOAD PUSH2 0x16A9 SWAP1 PUSH2 0x30E6 JUMP JUMPDEST DUP1 PUSH1 0x1F ADD PUSH1 0x20 DUP1 SWAP2 DIV MUL PUSH1 0x20 ADD PUSH1 0x40 MLOAD SWAP1 DUP2 ADD PUSH1 0x40 MSTORE DUP1 SWAP3 SWAP2 SWAP1 DUP2 DUP2 MSTORE PUSH1 0x20 ADD DUP3 DUP1 SLOAD PUSH2 0x16D5 SWAP1 PUSH2 0x30E6 JUMP JUMPDEST DUP1 ISZERO PUSH2 0x1720 JUMPI DUP1 PUSH1 0x1F LT PUSH2 0x16F7 JUMPI PUSH2 0x100 DUP1 DUP4 SLOAD DIV MUL DUP4 MSTORE SWAP2 PUSH1 0x20 ADD SWAP2 PUSH2 0x1720 JUMP JUMPDEST DUP3 ADD SWAP2 SWAP1 PUSH0 MSTORE PUSH1 0x20 PUSH0 KECCAK256 SWAP1 JUMPDEST DUP2 SLOAD DUP2 MSTORE SWAP1 PUSH1 0x1 ADD SWAP1 PUSH1 0x20 ADD DUP1 DUP4 GT PUSH2 0x1703 JUMPI DUP3 SWAP1 SUB PUSH1 0x1F AND DUP3 ADD SWAP2 JUMPDEST POP POP POP POP POP SWAP1 DUP1 PUSH1 0x2 ADD DUP1 SLOAD PUSH2 0x1735 SWAP1 PUSH2 0x30E6 JUMP JUMPDEST DUP1 PUSH1 0x1F ADD PUSH1 0x20 DUP1 SWAP2 DIV MUL PUSH1 0x20 ADD PUSH1 0x40 MLOAD SWAP1 DUP2 ADD PUSH1 0x40 MSTORE DUP1 SWAP3 SWAP2 SWAP1 DUP2 DUP2 MSTORE PUSH1 0x20 ADD DUP3 DUP1 SLOAD PUSH2 0x1761 SWAP1 PUSH2 0x30E6 JUMP JUMPDEST DUP1 ISZERO PUSH2 0x17AC JUMPI DUP1 PUSH1 0x1F LT PUSH2 0x1783 JUMPI PUSH2 0x100 DUP1 DUP4 SLOAD DIV MUL DUP4 MSTORE SWAP2 PUSH1 0x20 ADD SWAP2 PUSH2 0x17AC JUMP JUMPDEST DUP3 ADD SWAP2 SWAP1 PUSH0 MSTORE PUSH1 0x20 PUSH0 KECCAK256 SWAP1 JUMPDEST DUP2 SLOAD DUP2 MSTORE SWAP1 PUSH1 0x1 ADD SWAP1 PUSH1 0x20 ADD DUP1 DUP4 GT PUSH2 0x178F JUMPI DUP3 SWAP1 SUB PUSH1 0x1F AND DUP3 ADD SWAP2 JUMPDEST POP POP POP POP POP SWAP1 DUP1 PUSH1 0x3 ADD SLOAD SWAP1 DUP1 PUSH1 0x4 ADD SLOAD SWAP1 DUP1 PUSH1 0x5 ADD DUP1 SLOAD PUSH2 0x17CD SWAP1 PUSH2 0x30E6 JUMP JUMPDEST DUP1 PUSH1 0x1F ADD PUSH1 0x20 DUP1 SWAP2 DIV MUL PUSH1 0x20 ADD PUSH1 0x40 MLOAD SWAP1 DUP2 ADD PUSH1 0x40 MSTORE DUP1 SWAP3 SWAP2 SWAP1 DUP2 DUP2 MSTORE PUSH1 0x20 ADD DUP3 DUP1 SLOAD PUSH2 0x17F9 SWAP1 PUSH2 0x30E6 JUMP JUMPDEST DUP1 ISZERO PUSH2 0x1844 JUMPI DUP1 PUSH1 0x1F LT PUSH2 0x181B JUMPI PUSH2 0x100 DUP1 DUP4 SLOAD DIV MUL DUP4 MSTORE SWAP2 PUSH1 0x20 ADD SWAP2 PUSH2 0x1844 JUMP JUMPDEST DUP3 ADD SWAP2 SWAP1 PUSH0 MSTORE PUSH1 0x20 PUSH0 KECCAK256 SWAP1 JUMPDEST DUP2 SLOAD DUP2 MSTORE SWAP1 PUSH1 0x1 ADD SWAP1 PUSH1 0x20 ADD DUP1 DUP4 GT PUSH2 0x1827 JUMPI DUP3 SWAP1 SUB PUSH1 0x1F AND DUP3 ADD SWAP2 JUMPDEST POP POP POP PUSH1 0x6 SWAP1 SWAP4 ADD SLOAD SWAP2 SWAP3 POP POP PUSH1 0xFF AND DUP8 JUMP JUMPDEST PUSH0 SLOAD PUSH1 0x1 PUSH1 0x1 PUSH1 0xA0 SHL SUB AND CALLER EQ PUSH2 0x1881 JUMPI PUSH1 0x40 MLOAD PUSH4 0x47556579 PUSH1 0xE0 SHL DUP2 MSTORE PUSH1 0x4 ADD PUSH1 0x40 MLOAD DUP1 SWAP2 SUB SWAP1 REVERT JUMPDEST PUSH1 0x1 PUSH1 0x1 PUSH1 0xA0 SHL SUB DUP2 AND PUSH2 0x18CB JUMPI PUSH1 0x40 MLOAD PUSH3 0x461BCD PUSH1 0xE5 SHL DUP2 MSTORE PUSH1 0x20 PUSH1 0x4 DUP3 ADD MSTORE PUSH1 0x11 PUSH1 0x24 DUP3 ADD MSTORE PUSH17 0x24B73B30B634B2103732BB9030B236B4B7 PUSH1 0x79 SHL PUSH1 0x44 DUP3 ADD MSTORE PUSH1 0x64 ADD PUSH2 0x874 JUMP JUMPDEST PUSH0 SLOAD PUSH1 0x1 PUSH1 0x1 PUSH1 0xA0 SHL SUB SWAP1 DUP2 AND SWAP1 DUP3 AND SUB PUSH2 0x1920 JUMPI PUSH1 0x40 MLOAD PUSH3 0x461BCD PUSH1 0xE5 SHL DUP2 MSTORE PUSH1 0x20 PUSH1 0x4 DUP3 ADD MSTORE PUSH1 0x15 PUSH1 0x24 DUP3 ADD MSTORE PUSH21 0x20B63932B0B23C9031BAB93932B73A1030B236B4B7 PUSH1 0x59 SHL PUSH1 0x44 DUP3 ADD MSTORE PUSH1 0x64 ADD PUSH2 0x874 JUMP JUMPDEST PUSH1 0x1 DUP1 SLOAD PUSH1 0x1 PUSH1 0x1 PUSH1 0xA0 SHL SUB NOT AND PUSH1 0x1 PUSH1 0x1 PUSH1 0xA0 SHL SUB DUP4 DUP2 AND SWAP2 DUP3 OR SWAP1 SWAP3 SSTORE PUSH0 DUP1 SLOAD PUSH1 0x40 MLOAD SWAP3 SWAP4 AND SWAP2 PUSH32 0xB4D7BCB4D9A5D6EF6E827E3B1554E5A2578AD9CA843903D42B05D08BFA345894 SWAP2 SWAP1 LOG3 POP JUMP JUMPDEST PUSH1 0x9 SLOAD PUSH1 0xFF AND PUSH2 0x1993 JUMPI PUSH1 0x40 MLOAD PUSH4 0x55E9E641 PUSH1 0xE1 SHL DUP2 MSTORE PUSH1 0x4 ADD PUSH1 0x40 MLOAD DUP1 SWAP2 SUB SWAP1 REVERT JUMPDEST PUSH1 0x3 DUP1 PUSH1 0x2 SLOAD PUSH1 0x1 PUSH1 0xA0 SHL SWAP1 DIV PUSH1 0xFF AND PUSH1 0x7 DUP2 GT ISZERO PUSH2 0x19B4 JUMPI PUSH2 0x19B4 PUSH2 0x2BBA JUMP JUMPDEST EQ PUSH2 0x19D2 JUMPI PUSH1 0x40 MLOAD PUSH4 0x187FA83 PUSH1 0xE6 SHL DUP2 MSTORE PUSH1 0x4 ADD PUSH1 0x40 MLOAD DUP1 SWAP2 SUB SWAP1 REVERT JUMPDEST PUSH1 0x2 SLOAD PUSH1 0x1 PUSH1 0x1 PUSH1 0xA0 SHL SUB AND PUSH2 0x19FB JUMPI PUSH1 0x40 MLOAD PUSH4 0xD6EA3663 PUSH1 0xE0 SHL DUP2 MSTORE PUSH1 0x4 ADD PUSH1 0x40 MLOAD DUP1 SWAP2 SUB SWAP1 REVERT JUMPDEST PUSH1 0xE SLOAD PUSH1 0x1 PUSH1 0x1 PUSH1 0xA0 SHL SUB AND CALLER EQ PUSH2 0x1A55 JUMPI PUSH1 0x40 MLOAD PUSH3 0x461BCD PUSH1 0xE5 SHL DUP2 MSTORE PUSH1 0x20 PUSH1 0x4 DUP3 ADD MSTORE PUSH1 0x1F PUSH1 0x24 DUP3 ADD MSTORE PUSH32 0x4F6E6C792077696E6E65722063616E207375626D69742064656C697665727900 PUSH1 0x44 DUP3 ADD MSTORE PUSH1 0x64 ADD PUSH2 0x874 JUMP JUMPDEST DUP2 PUSH2 0x1AA2 JUMPI PUSH1 0x40 MLOAD PUSH3 0x461BCD PUSH1 0xE5 SHL DUP2 MSTORE PUSH1 0x20 PUSH1 0x4 DUP3 ADD MSTORE PUSH1 0x1E PUSH1 0x24 DUP3 ADD MSTORE PUSH32 0x496E76616C69642064656C69766572792065766964656E636520686173680000 PUSH1 0x44 DUP3 ADD MSTORE PUSH1 0x64 ADD PUSH2 0x874 JUMP JUMPDEST PUSH1 0x10 DUP3 SWAP1 SSTORE PUSH1 0x2 DUP1 SLOAD PUSH1 0xFF PUSH1 0xA0 SHL NOT AND PUSH1 0x1 PUSH1 0xA2 SHL OR SWAP1 SSTORE PUSH1 0x40 DUP1 MLOAD CALLER DUP2 MSTORE PUSH1 0x20 DUP2 ADD DUP5 SWAP1 MSTORE PUSH32 0xAE1F4649889BE6B26BCF006A04C674019D1EBAFAA07F234652D80CB084E77C57 SWAP2 ADD PUSH2 0x8C7 JUMP JUMPDEST PUSH1 0x1 SLOAD PUSH1 0x1 PUSH1 0x1 PUSH1 0xA0 SHL SUB AND CALLER EQ PUSH2 0x1B3E JUMPI PUSH1 0x40 MLOAD PUSH3 0x461BCD PUSH1 0xE5 SHL DUP2 MSTORE PUSH1 0x20 PUSH1 0x4 DUP3 ADD MSTORE PUSH1 0x11 PUSH1 0x24 DUP3 ADD MSTORE PUSH17 0x2737BA103832B73234B7339030B236B4B7 PUSH1 0x79 SHL PUSH1 0x44 DUP3 ADD MSTORE PUSH1 0x64 ADD PUSH2 0x874 JUMP JUMPDEST PUSH0 DUP1 SLOAD PUSH1 0x1 DUP1 SLOAD PUSH1 0x1 PUSH1 0x1 PUSH1 0xA0 SHL SUB DUP1 DUP3 AND PUSH1 0x1 PUSH1 0x1 PUSH1 0xA0 SHL SUB NOT DUP1 DUP7 AND DUP3 OR DUP8 SSTORE SWAP1 SWAP3 AND SWAP1 SWAP3 SSTORE PUSH1 0x40 MLOAD SWAP2 SWAP1 SWAP3 AND SWAP3 DUP4 SWAP2 PUSH32 0xF8CCB027DFCD135E000E9D45E6CC2D662578A8825D4C45B5E32E0ADF67E79EC6 SWAP2 SWAP1 LOG3 POP JUMP JUMPDEST PUSH0 SLOAD PUSH1 0x1 PUSH1 0x1 PUSH1 0xA0 SHL SUB AND CALLER EQ PUSH2 0x1BC1 JUMPI PUSH1 0x40 MLOAD PUSH4 0x47556579 PUSH1 0xE0 SHL DUP2 MSTORE PUSH1 0x4 ADD PUSH1 0x40 MLOAD DUP1 SWAP2 SUB SWAP1 REVERT JUMPDEST PUSH1 0x9 SLOAD PUSH1 0xFF AND ISZERO PUSH2 0x1C0D JUMPI PUSH1 0x40 MLOAD PUSH3 0x461BCD PUSH1 0xE5 SHL DUP2 MSTORE PUSH1 0x20 PUSH1 0x4 DUP3 ADD MSTORE PUSH1 0x16 PUSH1 0x24 DUP3 ADD MSTORE PUSH22 0x15195B99195C88185B1C9958591E4818DC99585D1959 PUSH1 0x52 SHL PUSH1 0x44 DUP3 ADD MSTORE PUSH1 0x64 ADD PUSH2 0x874 JUMP JUMPDEST PUSH0 DUP3 GT PUSH2 0x1C6E JUMPI PUSH1 0x40 MLOAD PUSH3 0x461BCD PUSH1 0xE5 SHL DUP2 MSTORE PUSH1 0x20 PUSH1 0x4 DUP3 ADD MSTORE PUSH1 0x29 PUSH1 0x24 DUP3 ADD MSTORE PUSH32 0x436F6E747261637420616D6F756E74206D757374206265206772656174657220 PUSH1 0x44 DUP3 ADD MSTORE PUSH9 0x7468616E207A65726F PUSH1 0xB8 SHL PUSH1 0x64 DUP3 ADD MSTORE PUSH1 0x84 ADD PUSH2 0x874 JUMP JUMPDEST PUSH0 PUSH2 0x1C7D DUP10 DUP10 DUP10 DUP10 DUP10 DUP10 PUSH2 0x2713 JUMP JUMPDEST SWAP1 POP TIMESTAMP DUP2 GT PUSH2 0x1CCE JUMPI PUSH1 0x40 MLOAD PUSH3 0x461BCD PUSH1 0xE5 SHL DUP2 MSTORE PUSH1 0x20 PUSH1 0x4 DUP3 ADD MSTORE PUSH1 0x1E PUSH1 0x24 DUP3 ADD MSTORE PUSH32 0x446561646C696E65206D75737420626520696E20746865206675747572650000 PUSH1 0x44 DUP3 ADD MSTORE PUSH1 0x64 ADD PUSH2 0x874 JUMP JUMPDEST PUSH1 0x40 DUP1 MLOAD PUSH1 0xE0 DUP2 ADD DUP3 MSTORE DUP14 DUP2 MSTORE PUSH1 0x20 DUP2 ADD DUP14 SWAP1 MSTORE SWAP1 DUP2 ADD DUP12 SWAP1 MSTORE PUSH1 0x60 DUP2 ADD DUP3 SWAP1 MSTORE PUSH1 0x80 DUP2 ADD DUP5 SWAP1 MSTORE PUSH1 0xA0 DUP2 ADD DUP4 SWAP1 MSTORE PUSH1 0x1 PUSH1 0xC0 DUP3 ADD MSTORE PUSH1 0x3 DUP1 PUSH2 0x1D11 DUP16 DUP3 PUSH2 0x316A JUMP JUMPDEST POP PUSH1 0x20 DUP3 ADD MLOAD PUSH1 0x1 DUP3 ADD SWAP1 PUSH2 0x1D26 SWAP1 DUP3 PUSH2 0x316A JUMP JUMPDEST POP PUSH1 0x40 DUP3 ADD MLOAD PUSH1 0x2 DUP3 ADD SWAP1 PUSH2 0x1D3B SWAP1 DUP3 PUSH2 0x316A JUMP JUMPDEST POP PUSH1 0x60 DUP3 ADD MLOAD PUSH1 0x3 DUP3 ADD SSTORE PUSH1 0x80 DUP3 ADD MLOAD PUSH1 0x4 DUP3 ADD SSTORE PUSH1 0xA0 DUP3 ADD MLOAD PUSH1 0x5 DUP3 ADD SWAP1 PUSH2 0x1D64 SWAP1 DUP3 PUSH2 0x316A JUMP JUMPDEST POP PUSH1 0xC0 SWAP2 SWAP1 SWAP2 ADD MLOAD PUSH1 0x6 SWAP1 SWAP2 ADD DUP1 SLOAD PUSH1 0xFF NOT AND SWAP2 ISZERO ISZERO SWAP2 SWAP1 SWAP2 OR SWAP1 SSTORE PUSH1 0x2 DUP1 SLOAD PUSH1 0xFF PUSH1 0xA0 SHL NOT AND SWAP1 SSTORE PUSH1 0x40 MLOAD PUSH32 0x1B8026EDB59EB0A93AC326AC7A523B0055A7BD12F595A560E2E75E798F1D20F1 SWAP1 PUSH2 0x1DC3 SWAP1 DUP15 SWAP1 DUP15 SWAP1 DUP6 SWAP1 DUP9 SWAP1 PUSH2 0x325B JUMP JUMPDEST PUSH1 0x40 MLOAD DUP1 SWAP2 SUB SWAP1 LOG1 POP POP POP POP POP POP POP POP POP POP POP POP JUMP JUMPDEST PUSH1 0x1 PUSH1 0x1 PUSH1 0xA0 SHL SUB DUP2 AND PUSH0 SWAP1 DUP2 MSTORE PUSH1 0xA PUSH1 0x20 SWAP1 DUP2 MSTORE PUSH1 0x40 DUP1 DUP4 KECCAK256 SLOAD PUSH1 0xB SWAP1 SWAP3 MSTORE DUP3 KECCAK256 DUP1 SLOAD PUSH1 0x60 SWAP3 PUSH1 0xFF AND SWAP2 SWAP1 DUP2 SWAP1 PUSH2 0x1E10 SWAP1 PUSH2 0x30E6 JUMP JUMPDEST DUP1 PUSH1 0x1F ADD PUSH1 0x20 DUP1 SWAP2 DIV MUL PUSH1 0x20 ADD PUSH1 0x40 MLOAD SWAP1 DUP2 ADD PUSH1 0x40 MSTORE DUP1 SWAP3 SWAP2 SWAP1 DUP2 DUP2 MSTORE PUSH1 0x20 ADD DUP3 DUP1 SLOAD PUSH2 0x1E3C SWAP1 PUSH2 0x30E6 JUMP JUMPDEST DUP1 ISZERO PUSH2 0x1E87 JUMPI DUP1 PUSH1 0x1F LT PUSH2 0x1E5E JUMPI PUSH2 0x100 DUP1 DUP4 SLOAD DIV MUL DUP4 MSTORE SWAP2 PUSH1 0x20 ADD SWAP2 PUSH2 0x1E87 JUMP JUMPDEST DUP3 ADD SWAP2 SWAP1 PUSH0 MSTORE PUSH1 0x20 PUSH0 KECCAK256 SWAP1 JUMPDEST DUP2 SLOAD DUP2 MSTORE SWAP1 PUSH1 0x1 ADD SWAP1 PUSH1 0x20 ADD DUP1 DUP4 GT PUSH2 0x1E6A JUMPI DUP3 SWAP1 SUB PUSH1 0x1F AND DUP3 ADD SWAP2 JUMPDEST POP POP POP POP POP SWAP1 POP SWAP2 POP SWAP2 POP SWAP2 POP SWAP2 JUMP JUMPDEST PUSH1 0xB PUSH1 0x20 MSTORE PUSH0 SWAP1 DUP2 MSTORE PUSH1 0x40 SWAP1 KECCAK256 DUP1 SLOAD PUSH2 0xBE9 SWAP1 PUSH2 0x30E6 JUMP JUMPDEST PUSH1 0xD SLOAD PUSH1 0x60 SWAP1 DUP2 SWAP1 DUP2 SWAP1 DUP1 PUSH1 0x1 PUSH1 0x1 PUSH1 0x40 SHL SUB DUP2 GT ISZERO PUSH2 0x1ED1 JUMPI PUSH2 0x1ED1 PUSH2 0x2BFC JUMP JUMPDEST PUSH1 0x40 MLOAD SWAP1 DUP1 DUP3 MSTORE DUP1 PUSH1 0x20 MUL PUSH1 0x20 ADD DUP3 ADD PUSH1 0x40 MSTORE DUP1 ISZERO PUSH2 0x1EFA JUMPI DUP2 PUSH1 0x20 ADD PUSH1 0x20 DUP3 MUL DUP1 CALLDATASIZE DUP4 CALLDATACOPY ADD SWAP1 POP JUMPDEST POP SWAP4 POP DUP1 PUSH1 0x1 PUSH1 0x1 PUSH1 0x40 SHL SUB DUP2 GT ISZERO PUSH2 0x1F15 JUMPI PUSH2 0x1F15 PUSH2 0x2BFC JUMP JUMPDEST PUSH1 0x40 MLOAD SWAP1 DUP1 DUP3 MSTORE DUP1 PUSH1 0x20 MUL PUSH1 0x20 ADD DUP3 ADD PUSH1 0x40 MSTORE DUP1 ISZERO PUSH2 0x1F3E JUMPI DUP2 PUSH1 0x20 ADD PUSH1 0x20 DUP3 MUL DUP1 CALLDATASIZE DUP4 CALLDATACOPY ADD SWAP1 POP JUMPDEST POP SWAP3 POP DUP1 PUSH1 0x1 PUSH1 0x1 PUSH1 0x40 SHL SUB DUP2 GT ISZERO PUSH2 0x1F59 JUMPI PUSH2 0x1F59 PUSH2 0x2BFC JUMP JUMPDEST PUSH1 0x40 MLOAD SWAP1 DUP1 DUP3 MSTORE DUP1 PUSH1 0x20 MUL PUSH1 0x20 ADD DUP3 ADD PUSH1 0x40 MSTORE DUP1 ISZERO PUSH2 0x1F8C JUMPI DUP2 PUSH1 0x20 ADD JUMPDEST PUSH1 0x60 DUP2 MSTORE PUSH1 0x20 ADD SWAP1 PUSH1 0x1 SWAP1 SUB SWAP1 DUP2 PUSH2 0x1F77 JUMPI SWAP1 POP JUMPDEST POP SWAP2 POP PUSH0 JUMPDEST DUP2 DUP2 LT ISZERO PUSH2 0x20D3 JUMPI PUSH0 PUSH1 0xD DUP3 DUP2 SLOAD DUP2 LT PUSH2 0x1FAD JUMPI PUSH2 0x1FAD PUSH2 0x3247 JUMP JUMPDEST SWAP1 PUSH0 MSTORE PUSH1 0x20 PUSH0 KECCAK256 ADD PUSH0 SWAP1 SLOAD SWAP1 PUSH2 0x100 EXP SWAP1 DIV PUSH1 0x1 PUSH1 0x1 PUSH1 0xA0 SHL SUB AND SWAP1 POP DUP2 DUP7 DUP4 DUP2 MLOAD DUP2 LT PUSH2 0x1FDD JUMPI PUSH2 0x1FDD PUSH2 0x3247 JUMP JUMPDEST PUSH1 0x20 MUL PUSH1 0x20 ADD ADD DUP2 DUP2 MSTORE POP POP DUP1 DUP6 DUP4 DUP2 MLOAD DUP2 LT PUSH2 0x1FFC JUMPI PUSH2 0x1FFC PUSH2 0x3247 JUMP JUMPDEST PUSH1 0x1 PUSH1 0x1 PUSH1 0xA0 SHL SUB SWAP3 DUP4 AND PUSH1 0x20 SWAP2 DUP3 MUL SWAP3 SWAP1 SWAP3 ADD DUP2 ADD SWAP2 SWAP1 SWAP2 MSTORE SWAP1 DUP3 AND PUSH0 SWAP1 DUP2 MSTORE PUSH1 0xB SWAP1 SWAP2 MSTORE PUSH1 0x40 SWAP1 KECCAK256 DUP1 SLOAD PUSH2 0x2031 SWAP1 PUSH2 0x30E6 JUMP JUMPDEST DUP1 PUSH1 0x1F ADD PUSH1 0x20 DUP1 SWAP2 DIV MUL PUSH1 0x20 ADD PUSH1 0x40 MLOAD SWAP1 DUP2 ADD PUSH1 0x40 MSTORE DUP1 SWAP3 SWAP2 SWAP1 DUP2 DUP2 MSTORE PUSH1 0x20 ADD DUP3 DUP1 SLOAD PUSH2 0x205D SWAP1 PUSH2 0x30E6 JUMP JUMPDEST DUP1 ISZERO PUSH2 0x20A8 JUMPI DUP1 PUSH1 0x1F LT PUSH2 0x207F JUMPI PUSH2 0x100 DUP1 DUP4 SLOAD DIV MUL DUP4 MSTORE SWAP2 PUSH1 0x20 ADD SWAP2 PUSH2 0x20A8 JUMP JUMPDEST DUP3 ADD SWAP2 SWAP1 PUSH0 MSTORE PUSH1 0x20 PUSH0 KECCAK256 SWAP1 JUMPDEST DUP2 SLOAD DUP2 MSTORE SWAP1 PUSH1 0x1 ADD SWAP1 PUSH1 0x20 ADD DUP1 DUP4 GT PUSH2 0x208B JUMPI DUP3 SWAP1 SUB PUSH1 0x1F AND DUP3 ADD SWAP2 JUMPDEST POP POP POP POP POP DUP5 DUP4 DUP2 MLOAD DUP2 LT PUSH2 0x20BF JUMPI PUSH2 0x20BF PUSH2 0x3247 JUMP JUMPDEST PUSH1 0x20 SWAP1 DUP2 MUL SWAP2 SWAP1 SWAP2 ADD ADD MSTORE POP PUSH1 0x1 ADD PUSH2 0x1F91 JUMP JUMPDEST POP POP SWAP1 SWAP2 SWAP3 JUMP JUMPDEST PUSH0 SLOAD PUSH1 0x1 PUSH1 0x1 PUSH1 0xA0 SHL SUB AND CALLER EQ PUSH2 0x2104 JUMPI PUSH1 0x40 MLOAD PUSH4 0x47556579 PUSH1 0xE0 SHL DUP2 MSTORE PUSH1 0x4 ADD PUSH1 0x40 MLOAD DUP1 SWAP2 SUB SWAP1 REVERT JUMPDEST JUMP JUMPDEST PUSH0 SLOAD PUSH1 0x1 PUSH1 0x1 PUSH1 0xA0 SHL SUB AND CALLER EQ PUSH2 0x2130 JUMPI PUSH1 0x40 MLOAD PUSH4 0x47556579 PUSH1 0xE0 SHL DUP2 MSTORE PUSH1 0x4 ADD PUSH1 0x40 MLOAD DUP1 SWAP2 SUB SWAP1 REVERT JUMPDEST PUSH1 0x9 SLOAD PUSH1 0xFF AND PUSH2 0x2153 JUMPI PUSH1 0x40 MLOAD PUSH4 0x55E9E641 PUSH1 0xE1 SHL DUP2 MSTORE PUSH1 0x4 ADD PUSH1 0x40 MLOAD DUP1 SWAP2 SUB SWAP1 REVERT JUMPDEST PUSH1 0x2 DUP1 PUSH1 0x2 SLOAD PUSH1 0x1 PUSH1 0xA0 SHL SWAP1 DIV PUSH1 0xFF AND PUSH1 0x7 DUP2 GT ISZERO PUSH2 0x2174 JUMPI PUSH2 0x2174 PUSH2 0x2BBA JUMP JUMPDEST EQ PUSH2 0x2192 JUMPI PUSH1 0x40 MLOAD PUSH4 0x187FA83 PUSH1 0xE6 SHL DUP2 MSTORE PUSH1 0x4 ADD PUSH1 0x40 MLOAD DUP1 SWAP2 SUB SWAP1 REVERT JUMPDEST PUSH1 0xE SLOAD PUSH1 0x1 PUSH1 0x1 PUSH1 0xA0 SHL SUB AND PUSH2 0x21DF JUMPI PUSH1 0x40 MLOAD PUSH3 0x461BCD PUSH1 0xE5 SHL DUP2 MSTORE PUSH1 0x20 PUSH1 0x4 DUP3 ADD MSTORE PUSH1 0x12 PUSH1 0x24 DUP3 ADD MSTORE PUSH18 0x139BC81DDA5B9B995C881CD95B1958DD1959 PUSH1 0x72 SHL PUSH1 0x44 DUP3 ADD MSTORE PUSH1 0x64 ADD PUSH2 0x874 JUMP JUMPDEST PUSH1 0x2 DUP1 SLOAD PUSH1 0xFF PUSH1 0xA0 SHL NOT AND PUSH1 0x3 PUSH1 0xA0 SHL OR SWAP1 SSTORE PUSH1 0xE SLOAD PUSH1 0xF SLOAD PUSH1 0x40 DUP1 MLOAD PUSH1 0x1 PUSH1 0x1 PUSH1 0xA0 SHL SUB SWAP1 SWAP4 AND DUP4 MSTORE PUSH1 0x20 DUP4 ADD SWAP2 SWAP1 SWAP2 MSTORE PUSH32 0xB973B46A8F1E88B970A622BF0CF618B80895EFA9AF0B01EDD9B2608FB8A6914E SWAP2 ADD PUSH2 0x11EB JUMP JUMPDEST PUSH0 SLOAD PUSH1 0x1 PUSH1 0x1 PUSH1 0xA0 SHL SUB AND CALLER EQ PUSH2 0x2263 JUMPI PUSH1 0x40 MLOAD PUSH4 0x47556579 PUSH1 0xE0 SHL DUP2 MSTORE PUSH1 0x4 ADD PUSH1 0x40 MLOAD DUP1 SWAP2 SUB SWAP1 REVERT JUMPDEST PUSH1 0x9 SLOAD PUSH1 0xFF AND PUSH2 0x2286 JUMPI PUSH1 0x40 MLOAD PUSH4 0x55E9E641 PUSH1 0xE1 SHL DUP2 MSTORE PUSH1 0x4 ADD PUSH1 0x40 MLOAD DUP1 SWAP2 SUB SWAP1 REVERT JUMPDEST PUSH1 0x6 DUP1 PUSH1 0x2 SLOAD PUSH1 0x1 PUSH1 0xA0 SHL SWAP1 DIV PUSH1 0xFF AND PUSH1 0x7 DUP2 GT ISZERO PUSH2 0x22A7 JUMPI PUSH2 0x22A7 PUSH2 0x2BBA JUMP JUMPDEST EQ PUSH2 0x22C5 JUMPI PUSH1 0x40 MLOAD PUSH4 0x187FA83 PUSH1 0xE6 SHL DUP2 MSTORE PUSH1 0x4 ADD PUSH1 0x40 MLOAD DUP1 SWAP2 SUB SWAP1 REVERT JUMPDEST PUSH1 0x13 SLOAD PUSH1 0xFF AND ISZERO PUSH2 0x2318 JUMPI PUSH1 0x40 MLOAD PUSH3 0x461BCD PUSH1 0xE5 SHL DUP2 MSTORE PUSH1 0x20 PUSH1 0x4 DUP3 ADD MSTORE PUSH1 0x18 PUSH1 0x24 DUP3 ADD MSTORE PUSH32 0x5061796D656E7420616C72656164792072656C65617365640000000000000000 PUSH1 0x44 DUP3 ADD MSTORE PUSH1 0x64 ADD PUSH2 0x874 JUMP JUMPDEST PUSH1 0xE SLOAD PUSH1 0x1 PUSH1 0x1 PUSH1 0xA0 SHL SUB AND PUSH2 0x2361 JUMPI PUSH1 0x40 MLOAD PUSH3 0x461BCD PUSH1 0xE5 SHL DUP2 MSTORE PUSH1 0x20 PUSH1 0x4 DUP3 ADD MSTORE PUSH1 0xE PUSH1 0x24 DUP3 ADD MSTORE PUSH14 0x15DA5B9B995C881B9BDD081CD95D PUSH1 0x92 SHL PUSH1 0x44 DUP3 ADD MSTORE PUSH1 0x64 ADD PUSH2 0x874 JUMP JUMPDEST PUSH1 0x7 SLOAD SELFBALANCE LT ISZERO PUSH2 0x23B3 JUMPI PUSH1 0x40 MLOAD PUSH3 0x461BCD PUSH1 0xE5 SHL DUP2 MSTORE PUSH1 0x20 PUSH1 0x4 DUP3 ADD MSTORE PUSH1 0x1D PUSH1 0x24 DUP3 ADD MSTORE PUSH32 0x496E73756666696369656E7420636F6E74726163742062616C616E6365000000 PUSH1 0x44 DUP3 ADD MSTORE PUSH1 0x64 ADD PUSH2 0x874 JUMP JUMPDEST PUSH1 0x13 DUP1 SLOAD PUSH1 0xFF NOT AND PUSH1 0x1 OR SWAP1 SSTORE PUSH1 0x2 DUP1 SLOAD PUSH1 0xFF PUSH1 0xA0 SHL NOT AND PUSH1 0x7 PUSH1 0xA0 SHL OR SWAP1 SSTORE PUSH1 0xE SLOAD PUSH1 0x7 SLOAD PUSH1 0x40 MLOAD PUSH1 0x1 PUSH1 0x1 PUSH1 0xA0 SHL SUB SWAP1 SWAP3 AND SWAP2 DUP2 ISZERO PUSH2 0x8FC MUL SWAP2 SWAP1 PUSH0 DUP2 DUP2 DUP2 DUP6 DUP9 DUP9 CALL SWAP4 POP POP POP POP ISZERO DUP1 ISZERO PUSH2 0x240C JUMPI RETURNDATASIZE PUSH0 PUSH0 RETURNDATACOPY RETURNDATASIZE PUSH0 REVERT JUMPDEST POP PUSH1 0xE SLOAD PUSH1 0x7 SLOAD PUSH1 0x40 DUP1 MLOAD PUSH1 0x1 PUSH1 0x1 PUSH1 0xA0 SHL SUB SWAP1 SWAP4 AND DUP4 MSTORE PUSH1 0x20 DUP4 ADD SWAP2 SWAP1 SWAP2 MSTORE PUSH32 0xDF20FD1E76BC69D672E4814FAFB2C449BBA3A5369D8359ADF9E05E6FDE87B056 SWAP2 ADD PUSH2 0x11EB JUMP JUMPDEST PUSH1 0xD DUP2 DUP2 SLOAD DUP2 LT PUSH2 0x2463 JUMPI PUSH0 DUP1 REVERT JUMPDEST PUSH0 SWAP2 DUP3 MSTORE PUSH1 0x20 SWAP1 SWAP2 KECCAK256 ADD SLOAD PUSH1 0x1 PUSH1 0x1 PUSH1 0xA0 SHL SUB AND SWAP1 POP DUP2 JUMP JUMPDEST PUSH1 0x60 DUP1 PUSH1 0x60 PUSH0 PUSH0 PUSH1 0x60 PUSH0 PUSH0 PUSH0 PUSH1 0x3 PUSH0 ADD PUSH1 0x3 PUSH1 0x1 ADD PUSH1 0x3 PUSH1 0x2 ADD PUSH1 0x3 DUP1 ADD SLOAD PUSH1 0x3 PUSH1 0x4 ADD SLOAD PUSH1 0x3 PUSH1 0x5 ADD PUSH1 0x2 PUSH1 0x14 SWAP1 SLOAD SWAP1 PUSH2 0x100 EXP SWAP1 DIV PUSH1 0xFF AND PUSH1 0xE PUSH0 SWAP1 SLOAD SWAP1 PUSH2 0x100 EXP SWAP1 DIV PUSH1 0x1 PUSH1 0x1 PUSH1 0xA0 SHL SUB AND PUSH1 0xF SLOAD DUP9 DUP1 SLOAD PUSH2 0x24DA SWAP1 PUSH2 0x30E6 JUMP JUMPDEST DUP1 PUSH1 0x1F ADD PUSH1 0x20 DUP1 SWAP2 DIV MUL PUSH1 0x20 ADD PUSH1 0x40 MLOAD SWAP1 DUP2 ADD PUSH1 0x40 MSTORE DUP1 SWAP3 SWAP2 SWAP1 DUP2 DUP2 MSTORE PUSH1 0x20 ADD DUP3 DUP1 SLOAD PUSH2 0x2506 SWAP1 PUSH2 0x30E6 JUMP JUMPDEST DUP1 ISZERO PUSH2 0x2551 JUMPI DUP1 PUSH1 0x1F LT PUSH2 0x2528 JUMPI PUSH2 0x100 DUP1 DUP4 SLOAD DIV MUL DUP4 MSTORE SWAP2 PUSH1 0x20 ADD SWAP2 PUSH2 0x2551 JUMP JUMPDEST DUP3 ADD SWAP2 SWAP1 PUSH0 MSTORE PUSH1 0x20 PUSH0 KECCAK256 SWAP1 JUMPDEST DUP2 SLOAD DUP2 MSTORE SWAP1 PUSH1 0x1 ADD SWAP1 PUSH1 0x20 ADD DUP1 DUP4 GT PUSH2 0x2534 JUMPI DUP3 SWAP1 SUB PUSH1 0x1F AND DUP3 ADD SWAP2 JUMPDEST POP POP POP POP POP SWAP9 POP DUP8 DUP1 SLOAD PUSH2 0x2564 SWAP1 PUSH2 0x30E6 JUMP JUMPDEST DUP1 PUSH1 0x1F ADD PUSH1 0x20 DUP1 SWAP2 DIV MUL PUSH1 0x20 ADD PUSH1 0x40 MLOAD SWAP1 DUP2 ADD PUSH1 0x40 MSTORE DUP1 SWAP3 SWAP2 SWAP1 DUP2 DUP2 MSTORE PUSH1 0x20 ADD DUP3 DUP1 SLOAD PUSH2 0x2590 SWAP1 PUSH2 0x30E6 JUMP JUMPDEST DUP1 ISZERO PUSH2 0x25DB JUMPI DUP1 PUSH1 0x1F LT PUSH2 0x25B2 JUMPI PUSH2 0x100 DUP1 DUP4 SLOAD DIV MUL DUP4 MSTORE SWAP2 PUSH1 0x20 ADD SWAP2 PUSH2 0x25DB JUMP JUMPDEST DUP3 ADD SWAP2 SWAP1 PUSH0 MSTORE PUSH1 0x20 PUSH0 KECCAK256 SWAP1 JUMPDEST DUP2 SLOAD DUP2 MSTORE SWAP1 PUSH1 0x1 ADD SWAP1 PUSH1 0x20 ADD DUP1 DUP4 GT PUSH2 0x25BE JUMPI DUP3 SWAP1 SUB PUSH1 0x1F AND DUP3 ADD SWAP2 JUMPDEST POP POP POP POP POP SWAP8 POP DUP7 DUP1 SLOAD PUSH2 0x25EE SWAP1 PUSH2 0x30E6 JUMP JUMPDEST DUP1 PUSH1 0x1F ADD PUSH1 0x20 DUP1 SWAP2 DIV MUL PUSH1 0x20 ADD PUSH1 0x40 MLOAD SWAP1 DUP2 ADD PUSH1 0x40 MSTORE DUP1 SWAP3 SWAP2 SWAP1 DUP2 DUP2 MSTORE PUSH1 0x20 ADD DUP3 DUP1 SLOAD PUSH2 0x261A SWAP1 PUSH2 0x30E6 JUMP JUMPDEST DUP1 ISZERO PUSH2 0x2665 JUMPI DUP1 PUSH1 0x1F LT PUSH2 0x263C JUMPI PUSH2 0x100 DUP1 DUP4 SLOAD DIV MUL DUP4 MSTORE SWAP2 PUSH1 0x20 ADD SWAP2 PUSH2 0x2665 JUMP JUMPDEST DUP3 ADD SWAP2 SWAP1 PUSH0 MSTORE PUSH1 0x20 PUSH0 KECCAK256 SWAP1 JUMPDEST DUP2 SLOAD DUP2 MSTORE SWAP1 PUSH1 0x1 ADD SWAP1 PUSH1 0x20 ADD DUP1 DUP4 GT PUSH2 0x2648 JUMPI DUP3 SWAP1 SUB PUSH1 0x1F AND DUP3 ADD SWAP2 JUMPDEST POP POP POP POP POP SWAP7 POP DUP4 DUP1 SLOAD PUSH2 0x2678 SWAP1 PUSH2 0x30E6 JUMP JUMPDEST DUP1 PUSH1 0x1F ADD PUSH1 0x20 DUP1 SWAP2 DIV MUL PUSH1 0x20 ADD PUSH1 0x40 MLOAD SWAP1 DUP2 ADD PUSH1 0x40 MSTORE DUP1 SWAP3 SWAP2 SWAP1 DUP2 DUP2 MSTORE PUSH1 0x20 ADD DUP3 DUP1 SLOAD PUSH2 0x26A4 SWAP1 PUSH2 0x30E6 JUMP JUMPDEST DUP1 ISZERO PUSH2 0x26EF JUMPI DUP1 PUSH1 0x1F LT PUSH2 0x26C6 JUMPI PUSH2 0x100 DUP1 DUP4 SLOAD DIV MUL DUP4 MSTORE SWAP2 PUSH1 0x20 ADD SWAP2 PUSH2 0x26EF JUMP JUMPDEST DUP3 ADD SWAP2 SWAP1 PUSH0 MSTORE PUSH1 0x20 PUSH0 KECCAK256 SWAP1 JUMPDEST DUP2 SLOAD DUP2 MSTORE SWAP1 PUSH1 0x1 ADD SWAP1 PUSH1 0x20 ADD DUP1 DUP4 GT PUSH2 0x26D2 JUMPI DUP3 SWAP1 SUB PUSH1 0x1F AND DUP3 ADD SWAP2 JUMPDEST POP POP POP POP POP SWAP4 POP SWAP9 POP SWAP9 POP SWAP9 POP SWAP9 POP SWAP9 POP SWAP9 POP SWAP9 POP SWAP9 POP SWAP9 POP SWAP1 SWAP2 SWAP3 SWAP4 SWAP5 SWAP6 SWAP7 SWAP8 SWAP9 JUMP JUMPDEST PUSH0 PUSH2 0x7B2 DUP8 LT ISZERO DUP1 ISZERO PUSH2 0x2728 JUMPI POP PUSH2 0x834 DUP8 GT ISZERO JUMPDEST PUSH2 0x2763 JUMPI PUSH1 0x40 MLOAD PUSH3 0x461BCD PUSH1 0xE5 SHL DUP2 MSTORE PUSH1 0x20 PUSH1 0x4 DUP3 ADD MSTORE PUSH1 0xC PUSH1 0x24 DUP3 ADD MSTORE PUSH12 0x24B73B30B634B2103CB2B0B9 PUSH1 0xA1 SHL PUSH1 0x44 DUP3 ADD MSTORE PUSH1 0x64 ADD PUSH2 0x874 JUMP JUMPDEST PUSH1 0x1 DUP7 LT ISZERO DUP1 ISZERO PUSH2 0x2775 JUMPI POP PUSH1 0xC DUP7 GT ISZERO JUMPDEST PUSH2 0x27B1 JUMPI PUSH1 0x40 MLOAD PUSH3 0x461BCD PUSH1 0xE5 SHL DUP2 MSTORE PUSH1 0x20 PUSH1 0x4 DUP3 ADD MSTORE PUSH1 0xD PUSH1 0x24 DUP3 ADD MSTORE PUSH13 0x92DCECC2D8D2C840DADEDCE8D PUSH1 0x9B SHL PUSH1 0x44 DUP3 ADD MSTORE PUSH1 0x64 ADD PUSH2 0x874 JUMP JUMPDEST PUSH1 0x18 DUP5 LT PUSH2 0x27F0 JUMPI PUSH1 0x40 MLOAD PUSH3 0x461BCD PUSH1 0xE5 SHL DUP2 MSTORE PUSH1 0x20 PUSH1 0x4 DUP3 ADD MSTORE PUSH1 0xC PUSH1 0x24 DUP3 ADD MSTORE PUSH12 0x24B73B30B634B2103437BAB9 PUSH1 0xA1 SHL PUSH1 0x44 DUP3 ADD MSTORE PUSH1 0x64 ADD PUSH2 0x874 JUMP JUMPDEST PUSH1 0x3C DUP4 LT PUSH2 0x2831 JUMPI PUSH1 0x40 MLOAD PUSH3 0x461BCD PUSH1 0xE5 SHL DUP2 MSTORE PUSH1 0x20 PUSH1 0x4 DUP3 ADD MSTORE PUSH1 0xE PUSH1 0x24 DUP3 ADD MSTORE PUSH14 0x496E76616C6964206D696E757465 PUSH1 0x90 SHL PUSH1 0x44 DUP3 ADD MSTORE PUSH1 0x64 ADD PUSH2 0x874 JUMP JUMPDEST PUSH1 0xB NOT DUP3 SLT ISZERO DUP1 ISZERO PUSH2 0x2844 JUMPI POP PUSH1 0xE DUP3 SGT ISZERO JUMPDEST PUSH2 0x2885 JUMPI PUSH1 0x40 MLOAD PUSH3 0x461BCD PUSH1 0xE5 SHL DUP2 MSTORE PUSH1 0x20 PUSH1 0x4 DUP3 ADD MSTORE PUSH1 0x12 PUSH1 0x24 DUP3 ADD MSTORE PUSH18 0x125B9D985B1A5908155510C81BD9999CD95D PUSH1 0x72 SHL PUSH1 0x44 DUP3 ADD MSTORE PUSH1 0x64 ADD PUSH2 0x874 JUMP JUMPDEST PUSH0 PUSH2 0x2890 DUP9 DUP9 PUSH2 0x2947 JUMP JUMPDEST SWAP1 POP PUSH1 0x1 DUP7 LT ISZERO DUP1 ISZERO PUSH2 0x28A3 JUMPI POP DUP1 DUP7 GT ISZERO JUMPDEST PUSH2 0x28DD JUMPI PUSH1 0x40 MLOAD PUSH3 0x461BCD PUSH1 0xE5 SHL DUP2 MSTORE PUSH1 0x20 PUSH1 0x4 DUP3 ADD MSTORE PUSH1 0xB PUSH1 0x24 DUP3 ADD MSTORE PUSH11 0x496E76616C696420646179 PUSH1 0xA8 SHL PUSH1 0x44 DUP3 ADD MSTORE PUSH1 0x64 ADD PUSH2 0x874 JUMP JUMPDEST PUSH2 0x28EB DUP9 DUP9 DUP9 DUP9 DUP9 PUSH0 PUSH2 0x29AB JUMP JUMPDEST SWAP2 POP PUSH0 DUP4 SGT ISZERO PUSH2 0x2912 JUMPI PUSH2 0x2901 DUP4 PUSH2 0xE10 PUSH2 0x32A7 JUMP JUMPDEST PUSH2 0x290B SWAP1 DUP4 PUSH2 0x32BE JUMP JUMPDEST SWAP2 POP PUSH2 0x293C JUMP JUMPDEST PUSH0 DUP4 SLT ISZERO PUSH2 0x293C JUMPI PUSH2 0x2923 DUP4 PUSH2 0x32D1 JUMP JUMPDEST PUSH2 0x292F SWAP1 PUSH2 0xE10 PUSH2 0x32A7 JUMP JUMPDEST PUSH2 0x2939 SWAP1 DUP4 PUSH2 0x32EB JUMP JUMPDEST SWAP2 POP JUMPDEST POP SWAP7 SWAP6 POP POP POP POP POP POP JUMP JUMPDEST PUSH0 DUP2 PUSH1 0x2 SUB PUSH2 0x2971 JUMPI PUSH2 0x2959 DUP4 PUSH2 0x2B47 JUMP JUMPDEST PUSH2 0x2964 JUMPI PUSH1 0x1C PUSH2 0x2967 JUMP JUMPDEST PUSH1 0x1D JUMPDEST PUSH1 0xFF AND SWAP1 POP PUSH2 0xEDE JUMP JUMPDEST DUP2 PUSH1 0x4 EQ DUP1 PUSH2 0x2980 JUMPI POP DUP2 PUSH1 0x6 EQ JUMPDEST DUP1 PUSH2 0x298B JUMPI POP DUP2 PUSH1 0x9 EQ JUMPDEST DUP1 PUSH2 0x2996 JUMPI POP DUP2 PUSH1 0xB EQ JUMPDEST ISZERO PUSH2 0x29A3 JUMPI POP PUSH1 0x1E PUSH2 0xEDE JUMP JUMPDEST POP PUSH1 0x1F PUSH2 0xEDE JUMP JUMPDEST PUSH0 PUSH2 0x7B2 JUMPDEST DUP8 DUP2 PUSH2 0xFFFF AND LT ISZERO PUSH2 0x2A02 JUMPI PUSH2 0x29C5 DUP2 PUSH2 0x2B47 JUMP JUMPDEST ISZERO PUSH2 0x29DF JUMPI PUSH2 0x29D8 PUSH4 0x1E28500 DUP4 PUSH2 0x32EB JUMP JUMPDEST SWAP2 POP PUSH2 0x29F0 JUMP JUMPDEST PUSH2 0x29ED PUSH4 0x1E13380 DUP4 PUSH2 0x32EB JUMP JUMPDEST SWAP2 POP JUMPDEST DUP1 PUSH2 0x29FA DUP2 PUSH2 0x32FE JUMP JUMPDEST SWAP2 POP POP PUSH2 0x29B0 JUMP JUMPDEST PUSH1 0x40 DUP1 MLOAD PUSH2 0x180 DUP2 ADD DUP3 MSTORE PUSH1 0x1F DUP1 DUP3 MSTORE PUSH1 0x1C PUSH1 0x20 DUP4 ADD MSTORE SWAP2 DUP2 ADD DUP3 SWAP1 MSTORE PUSH1 0x1E PUSH1 0x60 DUP3 ADD DUP2 SWAP1 MSTORE PUSH1 0x80 DUP3 ADD DUP4 SWAP1 MSTORE PUSH1 0xA0 DUP3 ADD DUP2 SWAP1 MSTORE PUSH1 0xC0 DUP3 ADD DUP4 SWAP1 MSTORE PUSH1 0xE0 DUP3 ADD DUP4 SWAP1 MSTORE PUSH2 0x100 DUP3 ADD DUP2 SWAP1 MSTORE PUSH2 0x120 DUP3 ADD DUP4 SWAP1 MSTORE PUSH2 0x140 DUP3 ADD MSTORE PUSH2 0x160 DUP2 ADD SWAP2 SWAP1 SWAP2 MSTORE PUSH2 0x2A6C DUP10 PUSH2 0x2B47 JUMP JUMPDEST ISZERO PUSH2 0x2A79 JUMPI PUSH1 0x1D PUSH1 0x20 DUP3 ADD MSTORE JUMPDEST PUSH1 0x1 SWAP2 POP JUMPDEST DUP8 DUP3 PUSH2 0xFFFF AND LT ISZERO PUSH2 0x2ADD JUMPI DUP1 PUSH2 0x2A96 PUSH1 0x1 DUP5 PUSH2 0x331E JUMP JUMPDEST PUSH2 0xFFFF AND PUSH1 0xC DUP2 LT PUSH2 0x2AAA JUMPI PUSH2 0x2AAA PUSH2 0x3247 JUMP JUMPDEST PUSH1 0x20 MUL ADD MLOAD PUSH2 0x2ABF SWAP1 PUSH1 0xFF AND PUSH3 0x15180 PUSH2 0x32A7 JUMP JUMPDEST PUSH2 0x2AC9 SWAP1 DUP5 PUSH2 0x32EB JUMP JUMPDEST SWAP3 POP DUP2 PUSH2 0x2AD5 DUP2 PUSH2 0x32FE JUMP JUMPDEST SWAP3 POP POP PUSH2 0x2A7E JUMP JUMPDEST PUSH2 0x2AE8 PUSH1 0x1 DUP9 PUSH2 0x32BE JUMP JUMPDEST PUSH2 0x2AF5 SWAP1 PUSH3 0x15180 PUSH2 0x32A7 JUMP JUMPDEST PUSH2 0x2AFF SWAP1 DUP5 PUSH2 0x32EB JUMP JUMPDEST SWAP3 POP PUSH2 0x2B0D DUP7 PUSH2 0xE10 PUSH2 0x32A7 JUMP JUMPDEST PUSH2 0x2B17 SWAP1 DUP5 PUSH2 0x32EB JUMP JUMPDEST SWAP3 POP PUSH2 0x2B24 DUP6 PUSH1 0x3C PUSH2 0x32A7 JUMP JUMPDEST PUSH2 0x2B2E SWAP1 DUP5 PUSH2 0x32EB JUMP JUMPDEST SWAP3 POP PUSH2 0x2B3A DUP5 DUP5 PUSH2 0x32EB JUMP JUMPDEST SWAP10 SWAP9 POP POP POP POP POP POP POP POP POP JUMP JUMPDEST PUSH0 PUSH2 0x2B53 PUSH1 0x4 DUP4 PUSH2 0x3338 JUMP JUMPDEST PUSH2 0xFFFF AND ISZERO PUSH2 0x2B63 JUMPI POP PUSH0 SWAP2 SWAP1 POP JUMP JUMPDEST PUSH2 0x2B6E PUSH1 0x64 DUP4 PUSH2 0x3338 JUMP JUMPDEST PUSH2 0xFFFF AND ISZERO PUSH2 0x2B7F JUMPI POP PUSH1 0x1 SWAP2 SWAP1 POP JUMP JUMPDEST PUSH2 0x2B8B PUSH2 0x190 DUP4 PUSH2 0x3338 JUMP JUMPDEST PUSH2 0xFFFF AND ISZERO PUSH2 0x2B9B JUMPI POP PUSH0 SWAP2 SWAP1 POP JUMP JUMPDEST POP PUSH1 0x1 SWAP2 SWAP1 POP JUMP JUMPDEST PUSH0 PUSH1 0x20 DUP3 DUP5 SUB SLT ISZERO PUSH2 0x2BB3 JUMPI PUSH0 PUSH0 REVERT JUMPDEST POP CALLDATALOAD SWAP2 SWAP1 POP JUMP JUMPDEST PUSH4 0x4E487B71 PUSH1 0xE0 SHL PUSH0 MSTORE PUSH1 0x21 PUSH1 0x4 MSTORE PUSH1 0x24 PUSH0 REVERT JUMPDEST PUSH1 0x8 DUP2 LT PUSH2 0x2BEA JUMPI PUSH4 0x4E487B71 PUSH1 0xE0 SHL PUSH0 MSTORE PUSH1 0x21 PUSH1 0x4 MSTORE PUSH1 0x24 PUSH0 REVERT JUMPDEST SWAP1 MSTORE JUMP JUMPDEST PUSH1 0x20 DUP2 ADD PUSH2 0xEDE DUP3 DUP5 PUSH2 0x2BCE JUMP JUMPDEST PUSH4 0x4E487B71 PUSH1 0xE0 SHL PUSH0 MSTORE PUSH1 0x41 PUSH1 0x4 MSTORE PUSH1 0x24 PUSH0 REVERT JUMPDEST PUSH0 DUP3 PUSH1 0x1F DUP4 ADD SLT PUSH2 0x2C1F JUMPI PUSH0 PUSH0 REVERT JUMPDEST DUP2 CALLDATALOAD PUSH1 0x1 PUSH1 0x1 PUSH1 0x40 SHL SUB DUP2 GT ISZERO PUSH2 0x2C38 JUMPI PUSH2 0x2C38 PUSH2 0x2BFC JUMP JUMPDEST PUSH1 0x40 MLOAD PUSH1 0x1F DUP3 ADD PUSH1 0x1F NOT SWAP1 DUP2 AND PUSH1 0x3F ADD AND DUP2 ADD PUSH1 0x1 PUSH1 0x1 PUSH1 0x40 SHL SUB DUP2 GT DUP3 DUP3 LT OR ISZERO PUSH2 0x2C66 JUMPI PUSH2 0x2C66 PUSH2 0x2BFC JUMP JUMPDEST PUSH1 0x40 MSTORE DUP2 DUP2 MSTORE DUP4 DUP3 ADD PUSH1 0x20 ADD DUP6 LT ISZERO PUSH2 0x2C7D JUMPI PUSH0 PUSH0 REVERT JUMPDEST DUP2 PUSH1 0x20 DUP6 ADD PUSH1 0x20 DUP4 ADD CALLDATACOPY PUSH0 SWAP2 DUP2 ADD PUSH1 0x20 ADD SWAP2 SWAP1 SWAP2 MSTORE SWAP4 SWAP3 POP POP POP JUMP JUMPDEST PUSH0 PUSH0 PUSH1 0x40 DUP4 DUP6 SUB SLT ISZERO PUSH2 0x2CAA JUMPI PUSH0 PUSH0 REVERT JUMPDEST DUP3 CALLDATALOAD SWAP2 POP PUSH1 0x20 DUP4 ADD CALLDATALOAD PUSH1 0x1 PUSH1 0x1 PUSH1 0x40 SHL SUB DUP2 GT ISZERO PUSH2 0x2CC6 JUMPI PUSH0 PUSH0 REVERT JUMPDEST PUSH2 0x2CD2 DUP6 DUP3 DUP7 ADD PUSH2 0x2C10 JUMP JUMPDEST SWAP2 POP POP SWAP3 POP SWAP3 SWAP1 POP JUMP JUMPDEST PUSH0 DUP2 MLOAD DUP1 DUP5 MSTORE DUP1 PUSH1 0x20 DUP5 ADD PUSH1 0x20 DUP7 ADD MCOPY PUSH0 PUSH1 0x20 DUP3 DUP7 ADD ADD MSTORE PUSH1 0x20 PUSH1 0x1F NOT PUSH1 0x1F DUP4 ADD AND DUP6 ADD ADD SWAP2 POP POP SWAP3 SWAP2 POP POP JUMP JUMPDEST PUSH1 0x20 DUP2 MSTORE PUSH0 PUSH2 0x2D1C PUSH1 0x20 DUP4 ADD DUP5 PUSH2 0x2CDC JUMP JUMPDEST SWAP4 SWAP3 POP POP POP JUMP JUMPDEST DUP1 CALLDATALOAD PUSH1 0x1 PUSH1 0x1 PUSH1 0xA0 SHL SUB DUP2 AND DUP2 EQ PUSH2 0x2D39 JUMPI PUSH0 PUSH0 REVERT JUMPDEST SWAP2 SWAP1 POP JUMP JUMPDEST PUSH0 PUSH1 0x20 DUP3 DUP5 SUB SLT ISZERO PUSH2 0x2D4E JUMPI PUSH0 PUSH0 REVERT JUMPDEST PUSH2 0x2D1C DUP3 PUSH2 0x2D23 JUMP JUMPDEST PUSH0 PUSH0 PUSH1 0x40 DUP4 DUP6 SUB SLT ISZERO PUSH2 0x2D68 JUMPI PUSH0 PUSH0 REVERT JUMPDEST PUSH2 0x2D71 DUP4 PUSH2 0x2D23 JUMP JUMPDEST SWAP2 POP PUSH1 0x20 DUP4 ADD CALLDATALOAD PUSH1 0x1 PUSH1 0x1 PUSH1 0x40 SHL SUB DUP2 GT ISZERO PUSH2 0x2CC6 JUMPI PUSH0 PUSH0 REVERT JUMPDEST PUSH0 PUSH1 0x20 DUP3 DUP5 SUB SLT ISZERO PUSH2 0x2D9B JUMPI PUSH0 PUSH0 REVERT JUMPDEST DUP2 CALLDATALOAD PUSH1 0x1 PUSH1 0x1 PUSH1 0x40 SHL SUB DUP2 GT ISZERO PUSH2 0x2DB0 JUMPI PUSH0 PUSH0 REVERT JUMPDEST PUSH2 0x2DBC DUP5 DUP3 DUP6 ADD PUSH2 0x2C10 JUMP JUMPDEST SWAP5 SWAP4 POP POP POP POP JUMP JUMPDEST PUSH1 0xE0 DUP2 MSTORE PUSH0 PUSH2 0x2DD6 PUSH1 0xE0 DUP4 ADD DUP11 PUSH2 0x2CDC JUMP JUMPDEST DUP3 DUP2 SUB PUSH1 0x20 DUP5 ADD MSTORE PUSH2 0x2DE8 DUP2 DUP11 PUSH2 0x2CDC JUMP JUMPDEST SWAP1 POP DUP3 DUP2 SUB PUSH1 0x40 DUP5 ADD MSTORE PUSH2 0x2DFC DUP2 DUP10 PUSH2 0x2CDC JUMP JUMPDEST SWAP1 POP DUP7 PUSH1 0x60 DUP5 ADD MSTORE DUP6 PUSH1 0x80 DUP5 ADD MSTORE DUP3 DUP2 SUB PUSH1 0xA0 DUP5 ADD MSTORE PUSH2 0x2E1C DUP2 DUP7 PUSH2 0x2CDC JUMP JUMPDEST SWAP2 POP POP DUP3 ISZERO ISZERO PUSH1 0xC0 DUP4 ADD MSTORE SWAP9 SWAP8 POP POP POP POP POP POP POP POP JUMP JUMPDEST PUSH0 PUSH0 PUSH0 PUSH0 PUSH0 PUSH0 PUSH0 PUSH0 PUSH0 PUSH0 PUSH0 PUSH2 0x160 DUP13 DUP15 SUB SLT ISZERO PUSH2 0x2E4E JUMPI PUSH0 PUSH0 REVERT JUMPDEST DUP12 CALLDATALOAD PUSH1 0x1 PUSH1 0x1 PUSH1 0x40 SHL SUB DUP2 GT ISZERO PUSH2 0x2E63 JUMPI PUSH0 PUSH0 REVERT JUMPDEST PUSH2 0x2E6F DUP15 DUP3 DUP16 ADD PUSH2 0x2C10 JUMP JUMPDEST SWAP12 POP POP PUSH1 0x20 DUP13 ADD CALLDATALOAD PUSH1 0x1 PUSH1 0x1 PUSH1 0x40 SHL SUB DUP2 GT ISZERO PUSH2 0x2E8A JUMPI PUSH0 PUSH0 REVERT JUMPDEST PUSH2 0x2E96 DUP15 DUP3 DUP16 ADD PUSH2 0x2C10 JUMP JUMPDEST SWAP11 POP POP PUSH1 0x40 DUP13 ADD CALLDATALOAD PUSH1 0x1 PUSH1 0x1 PUSH1 0x40 SHL SUB DUP2 GT ISZERO PUSH2 0x2EB1 JUMPI PUSH0 PUSH0 REVERT JUMPDEST PUSH2 0x2EBD DUP15 DUP3 DUP16 ADD PUSH2 0x2C10 JUMP JUMPDEST SWAP10 POP POP PUSH1 0x60 DUP13 ADD CALLDATALOAD SWAP8 POP PUSH1 0x80 DUP13 ADD CALLDATALOAD SWAP7 POP PUSH1 0xA0 DUP13 ADD CALLDATALOAD SWAP6 POP PUSH1 0xC0 DUP13 ADD CALLDATALOAD SWAP5 POP PUSH1 0xE0 DUP13 ADD CALLDATALOAD SWAP4 POP PUSH2 0x100 DUP13 ADD CALLDATALOAD SWAP3 POP PUSH2 0x120 DUP13 ADD CALLDATALOAD SWAP2 POP PUSH2 0x140 DUP13 ADD CALLDATALOAD PUSH1 0x1 PUSH1 0x1 PUSH1 0x40 SHL SUB DUP2 GT ISZERO PUSH2 0x2F0C JUMPI PUSH0 PUSH0 REVERT JUMPDEST PUSH2 0x2F18 DUP15 DUP3 DUP16 ADD PUSH2 0x2C10 JUMP JUMPDEST SWAP2 POP POP SWAP3 SWAP6 SWAP9 SWAP12 POP SWAP3 SWAP6 SWAP9 SWAP12 SWAP1 SWAP4 SWAP7 SWAP10 POP JUMP JUMPDEST DUP3 ISZERO ISZERO DUP2 MSTORE PUSH1 0x40 PUSH1 0x20 DUP3 ADD MSTORE PUSH0 PUSH2 0x2DBC PUSH1 0x40 DUP4 ADD DUP5 PUSH2 0x2CDC JUMP JUMPDEST PUSH0 DUP3 DUP3 MLOAD DUP1 DUP6 MSTORE PUSH1 0x20 DUP6 ADD SWAP5 POP PUSH1 0x20 DUP2 PUSH1 0x5 SHL DUP4 ADD ADD PUSH1 0x20 DUP6 ADD PUSH0 JUMPDEST DUP4 DUP2 LT ISZERO PUSH2 0x2F93 JUMPI PUSH1 0x1F NOT DUP6 DUP5 SUB ADD DUP9 MSTORE PUSH2 0x2F7D DUP4 DUP4 MLOAD PUSH2 0x2CDC JUMP JUMPDEST PUSH1 0x20 SWAP9 DUP10 ADD SWAP9 SWAP1 SWAP4 POP SWAP2 SWAP1 SWAP2 ADD SWAP1 PUSH1 0x1 ADD PUSH2 0x2F61 JUMP JUMPDEST POP SWAP1 SWAP7 SWAP6 POP POP POP POP POP POP JUMP JUMPDEST PUSH1 0x60 DUP1 DUP3 MSTORE DUP5 MLOAD SWAP1 DUP3 ADD DUP2 SWAP1 MSTORE PUSH0 SWAP1 PUSH1 0x20 DUP7 ADD SWAP1 PUSH1 0x80 DUP5 ADD SWAP1 DUP4 JUMPDEST DUP2 DUP2 LT ISZERO PUSH2 0x2FD8 JUMPI DUP4 MLOAD DUP4 MSTORE PUSH1 0x20 SWAP4 DUP5 ADD SWAP4 SWAP1 SWAP3 ADD SWAP2 PUSH1 0x1 ADD PUSH2 0x2FBA JUMP JUMPDEST POP POP DUP4 DUP2 SUB PUSH1 0x20 DUP1 DUP7 ADD SWAP2 SWAP1 SWAP2 MSTORE DUP7 MLOAD DUP1 DUP4 MSTORE SWAP2 DUP2 ADD SWAP3 POP DUP7 ADD SWAP1 PUSH0 JUMPDEST DUP2 DUP2 LT ISZERO PUSH2 0x301C JUMPI DUP3 MLOAD PUSH1 0x1 PUSH1 0x1 PUSH1 0xA0 SHL SUB AND DUP5 MSTORE PUSH1 0x20 SWAP4 DUP5 ADD SWAP4 SWAP1 SWAP3 ADD SWAP2 PUSH1 0x1 ADD PUSH2 0x2FF5 JUMP JUMPDEST POP POP POP DUP3 DUP2 SUB PUSH1 0x40 DUP5 ADD MSTORE PUSH2 0x3031 DUP2 DUP6 PUSH2 0x2F45 JUMP JUMPDEST SWAP7 SWAP6 POP POP POP POP POP POP JUMP JUMPDEST PUSH2 0x120 DUP2 MSTORE PUSH0 PUSH2 0x304F PUSH2 0x120 DUP4 ADD DUP13 PUSH2 0x2CDC JUMP JUMPDEST DUP3 DUP2 SUB PUSH1 0x20 DUP5 ADD MSTORE PUSH2 0x3061 DUP2 DUP13 PUSH2 0x2CDC JUMP JUMPDEST SWAP1 POP DUP3 DUP2 SUB PUSH1 0x40 DUP5 ADD MSTORE PUSH2 0x3075 DUP2 DUP12 PUSH2 0x2CDC JUMP JUMPDEST SWAP1 POP DUP9 PUSH1 0x60 DUP5 ADD MSTORE DUP8 PUSH1 0x80 DUP5 ADD MSTORE DUP3 DUP2 SUB PUSH1 0xA0 DUP5 ADD MSTORE PUSH2 0x3095 DUP2 DUP9 PUSH2 0x2CDC JUMP JUMPDEST SWAP2 POP POP PUSH2 0x30A5 PUSH1 0xC0 DUP4 ADD DUP7 PUSH2 0x2BCE JUMP JUMPDEST PUSH1 0x1 PUSH1 0x1 PUSH1 0xA0 SHL SUB SWAP4 SWAP1 SWAP4 AND PUSH1 0xE0 DUP3 ADD MSTORE PUSH2 0x100 ADD MSTORE SWAP8 SWAP7 POP POP POP POP POP POP POP JUMP JUMPDEST DUP3 DUP2 MSTORE PUSH0 DUP3 MLOAD DUP1 PUSH1 0x20 DUP6 ADD PUSH1 0x20 DUP6 ADD MCOPY PUSH0 SWAP3 ADD PUSH1 0x20 ADD SWAP2 DUP3 MSTORE POP SWAP3 SWAP2 POP POP JUMP JUMPDEST PUSH1 0x1 DUP2 DUP2 SHR SWAP1 DUP3 AND DUP1 PUSH2 0x30FA JUMPI PUSH1 0x7F DUP3 AND SWAP2 POP JUMPDEST PUSH1 0x20 DUP3 LT DUP2 SUB PUSH2 0x3118 JUMPI PUSH4 0x4E487B71 PUSH1 0xE0 SHL PUSH0 MSTORE PUSH1 0x22 PUSH1 0x4 MSTORE PUSH1 0x24 PUSH0 REVERT JUMPDEST POP SWAP2 SWAP1 POP JUMP JUMPDEST PUSH1 0x1F DUP3 GT ISZERO PUSH2 0x3165 JUMPI DUP1 PUSH0 MSTORE PUSH1 0x20 PUSH0 KECCAK256 PUSH1 0x1F DUP5 ADD PUSH1 0x5 SHR DUP2 ADD PUSH1 0x20 DUP6 LT ISZERO PUSH2 0x3143 JUMPI POP DUP1 JUMPDEST PUSH1 0x1F DUP5 ADD PUSH1 0x5 SHR DUP3 ADD SWAP2 POP JUMPDEST DUP2 DUP2 LT ISZERO PUSH2 0x3162 JUMPI PUSH0 DUP2 SSTORE PUSH1 0x1 ADD PUSH2 0x314F JUMP JUMPDEST POP POP JUMPDEST POP POP POP JUMP JUMPDEST DUP2 MLOAD PUSH1 0x1 PUSH1 0x1 PUSH1 0x40 SHL SUB DUP2 GT ISZERO PUSH2 0x3183 JUMPI PUSH2 0x3183 PUSH2 0x2BFC JUMP JUMPDEST PUSH2 0x3197 DUP2 PUSH2 0x3191 DUP5 SLOAD PUSH2 0x30E6 JUMP JUMPDEST DUP5 PUSH2 0x311E JUMP JUMPDEST PUSH1 0x20 PUSH1 0x1F DUP3 GT PUSH1 0x1 DUP2 EQ PUSH2 0x31C9 JUMPI PUSH0 DUP4 ISZERO PUSH2 0x31B2 JUMPI POP DUP5 DUP3 ADD MLOAD JUMPDEST PUSH0 NOT PUSH1 0x3 DUP6 SWAP1 SHL SHR NOT AND PUSH1 0x1 DUP5 SWAP1 SHL OR DUP5 SSTORE PUSH2 0x3162 JUMP JUMPDEST PUSH0 DUP5 DUP2 MSTORE PUSH1 0x20 DUP2 KECCAK256 PUSH1 0x1F NOT DUP6 AND SWAP2 JUMPDEST DUP3 DUP2 LT ISZERO PUSH2 0x31F8 JUMPI DUP8 DUP6 ADD MLOAD DUP3 SSTORE PUSH1 0x20 SWAP5 DUP6 ADD SWAP5 PUSH1 0x1 SWAP1 SWAP3 ADD SWAP2 ADD PUSH2 0x31D8 JUMP JUMPDEST POP DUP5 DUP3 LT ISZERO PUSH2 0x3215 JUMPI DUP7 DUP5 ADD MLOAD PUSH0 NOT PUSH1 0x3 DUP8 SWAP1 SHL PUSH1 0xF8 AND SHR NOT AND DUP2 SSTORE JUMPDEST POP POP POP POP PUSH1 0x1 SWAP1 DUP2 SHL ADD SWAP1 SSTORE POP JUMP JUMPDEST PUSH1 0x1 PUSH1 0x1 PUSH1 0xA0 SHL SUB DUP4 AND DUP2 MSTORE PUSH1 0x40 PUSH1 0x20 DUP3 ADD DUP2 SWAP1 MSTORE PUSH0 SWAP1 PUSH2 0x2DBC SWAP1 DUP4 ADD DUP5 PUSH2 0x2CDC JUMP JUMPDEST PUSH4 0x4E487B71 PUSH1 0xE0 SHL PUSH0 MSTORE PUSH1 0x32 PUSH1 0x4 MSTORE PUSH1 0x24 PUSH0 REVERT JUMPDEST PUSH1 0x80 DUP2 MSTORE PUSH0 PUSH2 0x326D PUSH1 0x80 DUP4 ADD DUP8 PUSH2 0x2CDC JUMP JUMPDEST DUP3 DUP2 SUB PUSH1 0x20 DUP5 ADD MSTORE PUSH2 0x327F DUP2 DUP8 PUSH2 0x2CDC JUMP JUMPDEST PUSH1 0x40 DUP5 ADD SWAP6 SWAP1 SWAP6 MSTORE POP POP PUSH1 0x60 ADD MSTORE SWAP3 SWAP2 POP POP JUMP JUMPDEST PUSH4 0x4E487B71 PUSH1 0xE0 SHL PUSH0 MSTORE PUSH1 0x11 PUSH1 0x4 MSTORE PUSH1 0x24 PUSH0 REVERT JUMPDEST DUP1 DUP3 MUL DUP2 ISZERO DUP3 DUP3 DIV DUP5 EQ OR PUSH2 0xEDE JUMPI PUSH2 0xEDE PUSH2 0x3293 JUMP JUMPDEST DUP2 DUP2 SUB DUP2 DUP2 GT ISZERO PUSH2 0xEDE JUMPI PUSH2 0xEDE PUSH2 0x3293 JUMP JUMPDEST PUSH0 PUSH1 0x1 PUSH1 0xFF SHL DUP3 ADD PUSH2 0x32E5 JUMPI PUSH2 0x32E5 PUSH2 0x3293 JUMP JUMPDEST POP PUSH0 SUB SWAP1 JUMP JUMPDEST DUP1 DUP3 ADD DUP1 DUP3 GT ISZERO PUSH2 0xEDE JUMPI PUSH2 0xEDE PUSH2 0x3293 JUMP JUMPDEST PUSH0 PUSH2 0xFFFF DUP3 AND PUSH2 0xFFFF DUP2 SUB PUSH2 0x3315 JUMPI PUSH2 0x3315 PUSH2 0x3293 JUMP JUMPDEST PUSH1 0x1 ADD SWAP3 SWAP2 POP POP JUMP JUMPDEST PUSH2 0xFFFF DUP3 DUP2 AND DUP3 DUP3 AND SUB SWAP1 DUP2 GT ISZERO PUSH2 0xEDE JUMPI PUSH2 0xEDE PUSH2 0x3293 JUMP JUMPDEST PUSH0 PUSH2 0xFFFF DUP4 AND DUP1 PUSH2 0x3357 JUMPI PUSH4 0x4E487B71 PUSH1 0xE0 SHL PUSH0 MSTORE PUSH1 0x12 PUSH1 0x4 MSTORE PUSH1 0x24 PUSH0 REVERT JUMPDEST DUP1 PUSH2 0xFFFF DUP5 AND MOD SWAP2 POP POP SWAP3 SWAP2 POP POP JUMP INVALID LOG2 PUSH5 0x6970667358 0x22 SLT KECCAK256 EXTCODESIZE EXTCODEHASH PUSH28 0x8AB1DAB90984F818CB5CBC420FEA3EEF53F584C46E879187893EE082 STATICCALL PUSH5 0x736F6C6343 STOP ADDMOD 0x1F STOP CALLER "
				},
				"gasEstimates": {
					"creation": {
						"codeDepositCost": "2642600",
						"executionCost": "27070",
						"totalCost": "2669670"
					},
					"external": {
						"acceptAdminRole()": "52375",
						"acceptDelivery(bytes32)": "56539",
						"admin()": "2467",
						"awardTender()": "38640",
						"bidderDescriptions(address)": "infinite",
						"bidderList(uint256)": "4655",
						"bids(address)": "9068",
						"createTenderWithLocalTime(string,string,string,uint256,uint256,uint256,uint256,uint256,int256,uint256,string)": "infinite",
						"deliveryEvidenceHash()": "2384",
						"evaluateTender()": "infinite",
						"fundContract()": "2344",
						"getAllRegisteredBidders()": "infinite",
						"getBidDetails(address)": "9220",
						"getBidderCount()": "2380",
						"getBidderProfile(address)": "infinite",
						"getContractBalance()": "304",
						"getPackedHash(uint256,string)": "infinite",
						"getTenderSummary()": "infinite",
						"inspectionReportHash()": "2383",
						"inspector()": "2446",
						"lowestBid()": "2427",
						"openRevealPhase()": "33778",
						"paymentReleased()": "2376",
						"pendingAdmin()": "2382",
						"registerBidder(address,string)": "infinite",
						"registeredBidders(address)": "2640",
						"rejectDelivery(string)": "infinite",
						"rejectionReason()": "infinite",
						"releasePayment()": "infinite",
						"revealBid(uint256,string)": "infinite",
						"setInspector(address)": "36551",
						"status()": "2492",
						"submitDeliveryEvidence(bytes32)": "56549",
						"submitSealedBid(bytes32)": "88116",
						"tender()": "infinite",
						"transferAdmin(address)": "32659",
						"winner()": "2402"
					},
					"internal": {
						"_getDaysInMonth(uint256,uint256)": "infinite",
						"_isLeapYear(uint16)": "infinite",
						"_toTimestamp(uint256,uint256,uint256,uint256,uint256,uint256)": "infinite",
						"_toTimestampWithOffset(uint256,uint256,uint256,uint256,uint256,int256)": "infinite"
					}
				},
				"methodIdentifiers": {
					"acceptAdminRole()": "8c3d7301",
					"acceptDelivery(bytes32)": "0bd58917",
					"admin()": "f851a440",
					"awardTender()": "d0112863",
					"bidderDescriptions(address)": "9134e02b",
					"bidderList(uint256)": "d3584e84",
					"bids(address)": "62ea82db",
					"createTenderWithLocalTime(string,string,string,uint256,uint256,uint256,uint256,uint256,int256,uint256,string)": "905249a3",
					"deliveryEvidenceHash()": "2e9e8e59",
					"evaluateTender()": "592fd028",
					"fundContract()": "bd097e21",
					"getAllRegisteredBidders()": "b6cf8a35",
					"getBidDetails(address)": "8d07ae9f",
					"getBidderCount()": "c87da02d",
					"getBidderProfile(address)": "90c7825a",
					"getContractBalance()": "6f9fb98a",
					"getPackedHash(uint256,string)": "3c8c4091",
					"getTenderSummary()": "e3c608ef",
					"inspectionReportHash()": "a4a00144",
					"inspector()": "ed2cee9e",
					"lowestBid()": "b6f3d256",
					"openRevealPhase()": "0bf36767",
					"paymentReleased()": "c63735b3",
					"pendingAdmin()": "26782247",
					"registerBidder(address,string)": "36dc1a88",
					"registeredBidders(address)": "356e7ccb",
					"rejectDelivery(string)": "4c5aed38",
					"rejectionReason()": "26bd8926",
					"releasePayment()": "d116c8c4",
					"revealBid(uint256,string)": "2163b8c5",
					"setInspector(address)": "4e5cbf61",
					"status()": "200d2ed2",
					"submitDeliveryEvidence(bytes32)": "7bd2a5da",
					"submitSealedBid(bytes32)": "53321ae6",
					"tender()": "6cb55d1a",
					"transferAdmin(address)": "75829def",
					"winner()": "dfbf53ae"
				}
			},
			"storageLayout": {
				"storage": [
					{
						"astId": 4,
						"contract": ".git/MyContracts/KenyaProcurementTransparency0.sol:KenyaProcurementTransparency",
						"label": "admin",
						"offset": 0,
						"slot": "0",
						"type": "t_address"
					},
					{
						"astId": 6,
						"contract": ".git/MyContracts/KenyaProcurementTransparency0.sol:KenyaProcurementTransparency",
						"label": "pendingAdmin",
						"offset": 0,
						"slot": "1",
						"type": "t_address"
					},
					{
						"astId": 8,
						"contract": ".git/MyContracts/KenyaProcurementTransparency0.sol:KenyaProcurementTransparency",
						"label": "inspector",
						"offset": 0,
						"slot": "2",
						"type": "t_address"
					},
					{
						"astId": 21,
						"contract": ".git/MyContracts/KenyaProcurementTransparency0.sol:KenyaProcurementTransparency",
						"label": "status",
						"offset": 20,
						"slot": "2",
						"type": "t_enum(TenderStatus)18"
					},
					{
						"astId": 52,
						"contract": ".git/MyContracts/KenyaProcurementTransparency0.sol:KenyaProcurementTransparency",
						"label": "tender",
						"offset": 0,
						"slot": "3",
						"type": "t_struct(Tender)37_storage"
					},
					{
						"astId": 56,
						"contract": ".git/MyContracts/KenyaProcurementTransparency0.sol:KenyaProcurementTransparency",
						"label": "registeredBidders",
						"offset": 0,
						"slot": "10",
						"type": "t_mapping(t_address,t_bool)"
					},
					{
						"astId": 60,
						"contract": ".git/MyContracts/KenyaProcurementTransparency0.sol:KenyaProcurementTransparency",
						"label": "bidderDescriptions",
						"offset": 0,
						"slot": "11",
						"type": "t_mapping(t_address,t_string_storage)"
					},
					{
						"astId": 65,
						"contract": ".git/MyContracts/KenyaProcurementTransparency0.sol:KenyaProcurementTransparency",
						"label": "bids",
						"offset": 0,
						"slot": "12",
						"type": "t_mapping(t_address,t_struct(Bid)49_storage)"
					},
					{
						"astId": 68,
						"contract": ".git/MyContracts/KenyaProcurementTransparency0.sol:KenyaProcurementTransparency",
						"label": "bidderList",
						"offset": 0,
						"slot": "13",
						"type": "t_array(t_address)dyn_storage"
					},
					{
						"astId": 70,
						"contract": ".git/MyContracts/KenyaProcurementTransparency0.sol:KenyaProcurementTransparency",
						"label": "winner",
						"offset": 0,
						"slot": "14",
						"type": "t_address"
					},
					{
						"astId": 72,
						"contract": ".git/MyContracts/KenyaProcurementTransparency0.sol:KenyaProcurementTransparency",
						"label": "lowestBid",
						"offset": 0,
						"slot": "15",
						"type": "t_uint256"
					},
					{
						"astId": 74,
						"contract": ".git/MyContracts/KenyaProcurementTransparency0.sol:KenyaProcurementTransparency",
						"label": "deliveryEvidenceHash",
						"offset": 0,
						"slot": "16",
						"type": "t_bytes32"
					},
					{
						"astId": 76,
						"contract": ".git/MyContracts/KenyaProcurementTransparency0.sol:KenyaProcurementTransparency",
						"label": "inspectionReportHash",
						"offset": 0,
						"slot": "17",
						"type": "t_bytes32"
					},
					{
						"astId": 78,
						"contract": ".git/MyContracts/KenyaProcurementTransparency0.sol:KenyaProcurementTransparency",
						"label": "rejectionReason",
						"offset": 0,
						"slot": "18",
						"type": "t_string_storage"
					},
					{
						"astId": 80,
						"contract": ".git/MyContracts/KenyaProcurementTransparency0.sol:KenyaProcurementTransparency",
						"label": "paymentReleased",
						"offset": 0,
						"slot": "19",
						"type": "t_bool"
					}
				],
				"types": {
					"t_address": {
						"encoding": "inplace",
						"label": "address",
						"numberOfBytes": "20"
					},
					"t_array(t_address)dyn_storage": {
						"base": "t_address",
						"encoding": "dynamic_array",
						"label": "address[]",
						"numberOfBytes": "32"
					},
					"t_bool": {
						"encoding": "inplace",
						"label": "bool",
						"numberOfBytes": "1"
					},
					"t_bytes32": {
						"encoding": "inplace",
						"label": "bytes32",
						"numberOfBytes": "32"
					},
					"t_enum(TenderStatus)18": {
						"encoding": "inplace",
						"label": "enum KenyaProcurementTransparency.TenderStatus",
						"numberOfBytes": "1"
					},
					"t_mapping(t_address,t_bool)": {
						"encoding": "mapping",
						"key": "t_address",
						"label": "mapping(address => bool)",
						"numberOfBytes": "32",
						"value": "t_bool"
					},
					"t_mapping(t_address,t_string_storage)": {
						"encoding": "mapping",
						"key": "t_address",
						"label": "mapping(address => string)",
						"numberOfBytes": "32",
						"value": "t_string_storage"
					},
					"t_mapping(t_address,t_struct(Bid)49_storage)": {
						"encoding": "mapping",
						"key": "t_address",
						"label": "mapping(address => struct KenyaProcurementTransparency.Bid)",
						"numberOfBytes": "32",
						"value": "t_struct(Bid)49_storage"
					},
					"t_string_storage": {
						"encoding": "bytes",
						"label": "string",
						"numberOfBytes": "32"
					},
					"t_struct(Bid)49_storage": {
						"encoding": "inplace",
						"label": "struct KenyaProcurementTransparency.Bid",
						"members": [
							{
								"astId": 40,
								"contract": ".git/MyContracts/KenyaProcurementTransparency0.sol:KenyaProcurementTransparency",
								"label": "sealedBidHash",
								"offset": 0,
								"slot": "0",
								"type": "t_bytes32"
							},
							{
								"astId": 42,
								"contract": ".git/MyContracts/KenyaProcurementTransparency0.sol:KenyaProcurementTransparency",
								"label": "submitted",
								"offset": 0,
								"slot": "1",
								"type": "t_bool"
							},
							{
								"astId": 44,
								"contract": ".git/MyContracts/KenyaProcurementTransparency0.sol:KenyaProcurementTransparency",
								"label": "revealed",
								"offset": 1,
								"slot": "1",
								"type": "t_bool"
							},
							{
								"astId": 46,
								"contract": ".git/MyContracts/KenyaProcurementTransparency0.sol:KenyaProcurementTransparency",
								"label": "amount",
								"offset": 0,
								"slot": "2",
								"type": "t_uint256"
							},
							{
								"astId": 48,
								"contract": ".git/MyContracts/KenyaProcurementTransparency0.sol:KenyaProcurementTransparency",
								"label": "valid",
								"offset": 0,
								"slot": "3",
								"type": "t_bool"
							}
						],
						"numberOfBytes": "128"
					},
					"t_struct(Tender)37_storage": {
						"encoding": "inplace",
						"label": "struct KenyaProcurementTransparency.Tender",
						"members": [
							{
								"astId": 24,
								"contract": ".git/MyContracts/KenyaProcurementTransparency0.sol:KenyaProcurementTransparency",
								"label": "tenderNumber",
								"offset": 0,
								"slot": "0",
								"type": "t_string_storage"
							},
							{
								"astId": 26,
								"contract": ".git/MyContracts/KenyaProcurementTransparency0.sol:KenyaProcurementTransparency",
								"label": "title",
								"offset": 0,
								"slot": "1",
								"type": "t_string_storage"
							},
							{
								"astId": 28,
								"contract": ".git/MyContracts/KenyaProcurementTransparency0.sol:KenyaProcurementTransparency",
								"label": "description",
								"offset": 0,
								"slot": "2",
								"type": "t_string_storage"
							},
							{
								"astId": 30,
								"contract": ".git/MyContracts/KenyaProcurementTransparency0.sol:KenyaProcurementTransparency",
								"label": "submissionDeadline",
								"offset": 0,
								"slot": "3",
								"type": "t_uint256"
							},
							{
								"astId": 32,
								"contract": ".git/MyContracts/KenyaProcurementTransparency0.sol:KenyaProcurementTransparency",
								"label": "contractAmount",
								"offset": 0,
								"slot": "4",
								"type": "t_uint256"
							},
							{
								"astId": 34,
								"contract": ".git/MyContracts/KenyaProcurementTransparency0.sol:KenyaProcurementTransparency",
								"label": "qualificationNote",
								"offset": 0,
								"slot": "5",
								"type": "t_string_storage"
							},
							{
								"astId": 36,
								"contract": ".git/MyContracts/KenyaProcurementTransparency0.sol:KenyaProcurementTransparency",
								"label": "exists",
								"offset": 0,
								"slot": "6",
								"type": "t_bool"
							}
						],
						"numberOfBytes": "224"
					},
					"t_uint256": {
						"encoding": "inplace",
						"label": "uint256",
						"numberOfBytes": "32"
					}
				}
			},
			"userdoc": {
				"kind": "user",
				"methods": {
					"acceptAdminRole()": {
						"notice": "Accepts the pending admin role."
					},
					"acceptDelivery(bytes32)": {
						"notice": "Accepts delivery after successful inspection."
					},
					"awardTender()": {
						"notice": "Finalizes the winning bidder after evaluation."
					},
					"constructor": {
						"notice": "Sets the deployer as the initial admin."
					},
					"createTenderWithLocalTime(string,string,string,uint256,uint256,uint256,uint256,uint256,int256,uint256,string)": {
						"notice": "Creates the tender using local date, time, and UTC offset."
					},
					"evaluateTender()": {
						"notice": "Evaluates all valid revealed bids and selects the lowest bid."
					},
					"fundContract()": {
						"notice": "Allows the admin to fund the contract with ETH for later payment."
					},
					"getAllRegisteredBidders()": {
						"notice": "Returns all registered bidders with their indexes, addresses, and descriptions."
					},
					"getBidDetails(address)": {
						"notice": "Returns bid details for a given bidder address."
					},
					"getBidderCount()": {
						"notice": "Returns the number of registered bidders."
					},
					"getBidderProfile(address)": {
						"notice": "Returns registered bidder details for a specific address."
					},
					"getContractBalance()": {
						"notice": "Returns the ETH balance currently held by the contract."
					},
					"getPackedHash(uint256,string)": {
						"notice": "Returns the packed hash of a bid amount and secret."
					},
					"getTenderSummary()": {
						"notice": "Returns a summary of the current tender and award state."
					},
					"openRevealPhase()": {
						"notice": "Opens the reveal phase after the submission deadline."
					},
					"registerBidder(address,string)": {
						"notice": "Registers a bidder address on the on-chain whitelist."
					},
					"rejectDelivery(string)": {
						"notice": "Rejects delivery and records the reason."
					},
					"releasePayment()": {
						"notice": "Releases payment to the winning bidder after inspection acceptance."
					},
					"revealBid(uint256,string)": {
						"notice": "Reveals a previously committed bid."
					},
					"setInspector(address)": {
						"notice": "Assigns or updates the inspector address."
					},
					"submitDeliveryEvidence(bytes32)": {
						"notice": "Allows only the winner to submit delivery evidence."
					},
					"submitSealedBid(bytes32)": {
						"notice": "Allows a registered bidder to submit a sealed bid hash."
					},
					"transferAdmin(address)": {
						"notice": "Initiates transfer of admin authority to a new address."
					}
				},
				"notice": "A blockchain-based public procurement prototype for transparent tendering, delivery verification, inspection, and conditional payment.",
				"version": 1
			}
		}
	}
}