{
	".git/MyContracts/Voting.sol": {
		"Ballot": {
			"abi": [
				{
					"inputs": [
						{
							"internalType": "string[]",
							"name": "proposalNames",
							"type": "string[]"
						}
					],
					"stateMutability": "nonpayable",
					"type": "constructor"
				},
				{
					"anonymous": false,
					"inputs": [
						{
							"indexed": true,
							"internalType": "address",
							"name": "oldChairperson",
							"type": "address"
						},
						{
							"indexed": true,
							"internalType": "address",
							"name": "newChairperson",
							"type": "address"
						}
					],
					"name": "ChairpersonTransferred",
					"type": "event"
				},
				{
					"anonymous": false,
					"inputs": [
						{
							"indexed": false,
							"internalType": "string",
							"name": "name",
							"type": "string"
						}
					],
					"name": "ProposalCreated",
					"type": "event"
				},
				{
					"anonymous": false,
					"inputs": [
						{
							"indexed": true,
							"internalType": "address",
							"name": "voter",
							"type": "address"
						},
						{
							"indexed": true,
							"internalType": "uint256",
							"name": "proposal",
							"type": "uint256"
						}
					],
					"name": "VoteCast",
					"type": "event"
				},
				{
					"anonymous": false,
					"inputs": [
						{
							"indexed": true,
							"internalType": "address",
							"name": "voter",
							"type": "address"
						},
						{
							"indexed": true,
							"internalType": "address",
							"name": "delegate",
							"type": "address"
						}
					],
					"name": "VoteDelegated",
					"type": "event"
				},
				{
					"anonymous": false,
					"inputs": [
						{
							"indexed": true,
							"internalType": "address",
							"name": "voter",
							"type": "address"
						}
					],
					"name": "VoterAuthorized",
					"type": "event"
				},
				{
					"inputs": [],
					"name": "chairperson",
					"outputs": [
						{
							"internalType": "address",
							"name": "",
							"type": "address"
						}
					],
					"stateMutability": "view",
					"type": "function"
				},
				{
					"inputs": [
						{
							"internalType": "address",
							"name": "to",
							"type": "address"
						}
					],
					"name": "delegate",
					"outputs": [],
					"stateMutability": "nonpayable",
					"type": "function"
				},
				{
					"inputs": [
						{
							"internalType": "uint256",
							"name": "index",
							"type": "uint256"
						}
					],
					"name": "getProposal",
					"outputs": [
						{
							"internalType": "string",
							"name": "name",
							"type": "string"
						},
						{
							"internalType": "uint256",
							"name": "voteCount",
							"type": "uint256"
						}
					],
					"stateMutability": "view",
					"type": "function"
				},
				{
					"inputs": [],
					"name": "getProposalCount",
					"outputs": [
						{
							"internalType": "uint256",
							"name": "",
							"type": "uint256"
						}
					],
					"stateMutability": "view",
					"type": "function"
				},
				{
					"inputs": [
						{
							"internalType": "address",
							"name": "voter",
							"type": "address"
						}
					],
					"name": "giveRightToVote",
					"outputs": [],
					"stateMutability": "nonpayable",
					"type": "function"
				},
				{
					"inputs": [
						{
							"internalType": "uint256",
							"name": "",
							"type": "uint256"
						}
					],
					"name": "proposals",
					"outputs": [
						{
							"internalType": "string",
							"name": "name",
							"type": "string"
						},
						{
							"internalType": "uint256",
							"name": "voteCount",
							"type": "uint256"
						}
					],
					"stateMutability": "view",
					"type": "function"
				},
				{
					"inputs": [
						{
							"internalType": "address",
							"name": "newChairperson",
							"type": "address"
						}
					],
					"name": "transferChairperson",
					"outputs": [],
					"stateMutability": "nonpayable",
					"type": "function"
				},
				{
					"inputs": [
						{
							"internalType": "uint256",
							"name": "proposal",
							"type": "uint256"
						}
					],
					"name": "vote",
					"outputs": [],
					"stateMutability": "nonpayable",
					"type": "function"
				},
				{
					"inputs": [
						{
							"internalType": "address",
							"name": "",
							"type": "address"
						}
					],
					"name": "voters",
					"outputs": [
						{
							"internalType": "uint256",
							"name": "weight",
							"type": "uint256"
						},
						{
							"internalType": "bool",
							"name": "voted",
							"type": "bool"
						},
						{
							"internalType": "address",
							"name": "delegate",
							"type": "address"
						},
						{
							"internalType": "uint256",
							"name": "vote",
							"type": "uint256"
						}
					],
					"stateMutability": "view",
					"type": "function"
				},
				{
					"inputs": [],
					"name": "winnerName",
					"outputs": [
						{
							"internalType": "string",
							"name": "winnerName_",
							"type": "string"
						}
					],
					"stateMutability": "view",
					"type": "function"
				},
				{
					"inputs": [],
					"name": "winningProposal",
					"outputs": [
						{
							"internalType": "uint256",
							"name": "winningProposal_",
							"type": "uint256"
						}
					],
					"stateMutability": "view",
					"type": "function"
				}
			],
			"devdoc": {
				"details": "Implements a voting process with voter authorization and vote delegation.",
				"kind": "dev",
				"methods": {
					"delegate(address)": {
						"details": "Delegate your vote to another voter."
					},
					"getProposal(uint256)": {
						"details": "Returns a proposal by index."
					},
					"getProposalCount()": {
						"details": "Returns total number of proposals."
					},
					"giveRightToVote(address)": {
						"details": "Authorizes an address to vote. Only the chairperson can call this."
					},
					"transferChairperson(address)": {
						"details": "Transfers chairperson role to another address."
					},
					"vote(uint256)": {
						"details": "Cast your vote for a proposal."
					},
					"winnerName()": {
						"details": "Returns the name of the winning proposal."
					},
					"winningProposal()": {
						"details": "Returns the index of the winning proposal."
					}
				},
				"title": "Ballot",
				"version": 1
			},
			"evm": {
				"assembly": "    /* \".git/MyContracts/Voting.sol\":176:5213  contract Ballot {... */\n  mstore(0x40, 0x80)\n    /* \".git/MyContracts/Voting.sol\":1005:1562  constructor(string[] memory proposalNames) {... */\n  callvalue\n  dup1\n  iszero\n  tag_1\n  jumpi\n  revert(0x00, 0x00)\ntag_1:\n  pop\n  mload(0x40)\n  sub(codesize, bytecodeSize)\n  dup1\n  bytecodeSize\n  dup4\n  codecopy\n  dup2\n  add\n  0x40\n  dup2\n  swap1\n  mstore\n  tag_2\n  swap2\n  tag_3\n  jump\t// in\ntag_2:\n    /* \".git/MyContracts/Voting.sol\":1090:1091  0 */\n  0x00\n    /* \".git/MyContracts/Voting.sol\":1067:1080  proposalNames */\n  dup2\n    /* \".git/MyContracts/Voting.sol\":1067:1087  proposalNames.length */\n  mload\n    /* \".git/MyContracts/Voting.sol\":1067:1091  proposalNames.length > 0 */\n  gt\n    /* \".git/MyContracts/Voting.sol\":1059:1129  require(proposalNames.length > 0, \"At least one proposal is required\") */\n  tag_6\n  jumpi\n  mload(0x40)\n  shl(0xe5, 0x461bcd)\n  dup2\n  mstore\n    /* \"#utility.yul\":2223:2225   */\n  0x20\n    /* \".git/MyContracts/Voting.sol\":1059:1129  require(proposalNames.length > 0, \"At least one proposal is required\") */\n  0x04\n  dup3\n  add\n    /* \"#utility.yul\":2205:2226   */\n  mstore\n    /* \"#utility.yul\":2262:2264   */\n  0x21\n    /* \"#utility.yul\":2242:2260   */\n  0x24\n  dup3\n  add\n    /* \"#utility.yul\":2235:2265   */\n  mstore\n    /* \"#utility.yul\":2301:2335   */\n  0x4174206c65617374206f6e652070726f706f73616c2069732072657175697265\n    /* \"#utility.yul\":2281:2299   */\n  0x44\n  dup3\n  add\n    /* \"#utility.yul\":2274:2336   */\n  mstore\n  shl(0xfa, 0x19)\n    /* \"#utility.yul\":2352:2370   */\n  0x64\n  dup3\n  add\n    /* \"#utility.yul\":2345:2376   */\n  mstore\n    /* \"#utility.yul\":2393:2412   */\n  0x84\n  add\n    /* \".git/MyContracts/Voting.sol\":1059:1129  require(proposalNames.length > 0, \"At least one proposal is required\") */\ntag_7:\n  mload(0x40)\n  dup1\n  swap2\n  sub\n  swap1\n  revert\ntag_6:\n    /* \".git/MyContracts/Voting.sol\":1142:1153  chairperson */\n  0x00\n    /* \".git/MyContracts/Voting.sol\":1142:1166  chairperson = msg.sender */\n  dup1\n  sload\n  not(sub(shl(0xa0, 0x01), 0x01))\n  and\n    /* \".git/MyContracts/Voting.sol\":1156:1166  msg.sender */\n  caller\n    /* \".git/MyContracts/Voting.sol\":1142:1166  chairperson = msg.sender */\n  swap1\n  dup2\n  or\n  dup3\n  sstore\n    /* \".git/MyContracts/Voting.sol\":1177:1196  voters[chairperson] */\n  dup2\n  mstore\n    /* \".git/MyContracts/Voting.sol\":1142:1166  chairperson = msg.sender */\n  0x01\n    /* \".git/MyContracts/Voting.sol\":1177:1196  voters[chairperson] */\n  0x20\n  dup2\n  swap1\n  mstore\n  0x40\n  dup3\n  keccak256\n    /* \".git/MyContracts/Voting.sol\":1177:1207  voters[chairperson].weight = 1 */\n  sstore\n    /* \".git/MyContracts/Voting.sol\":1220:1555  for (uint256 i = 0; i < proposalNames.length; i++) {... */\ntag_9:\n    /* \".git/MyContracts/Voting.sol\":1244:1257  proposalNames */\n  dup2\n    /* \".git/MyContracts/Voting.sol\":1244:1264  proposalNames.length */\n  mload\n    /* \".git/MyContracts/Voting.sol\":1240:1241  i */\n  dup2\n    /* \".git/MyContracts/Voting.sol\":1240:1264  i < proposalNames.length */\n  lt\n    /* \".git/MyContracts/Voting.sol\":1220:1555  for (uint256 i = 0; i < proposalNames.length; i++) {... */\n  iszero\n  tag_10\n  jumpi\n    /* \".git/MyContracts/Voting.sol\":1327:1328  0 */\n  0x00\n    /* \".git/MyContracts/Voting.sol\":1300:1313  proposalNames */\n  dup3\n    /* \".git/MyContracts/Voting.sol\":1314:1315  i */\n  dup3\n    /* \".git/MyContracts/Voting.sol\":1300:1316  proposalNames[i] */\n  dup2\n  mload\n  dup2\n  lt\n  tag_13\n  jumpi\n  tag_13\n  tag_14\n  jump\t// in\ntag_13:\n  0x20\n  mul\n  0x20\n  add\n  add\n  mload\n    /* \".git/MyContracts/Voting.sol\":1294:1324  bytes(proposalNames[i]).length */\n  mload\n    /* \".git/MyContracts/Voting.sol\":1294:1328  bytes(proposalNames[i]).length > 0 */\n  gt\n    /* \".git/MyContracts/Voting.sol\":1286:1362  require(bytes(proposalNames[i]).length > 0, \"Proposal name cannot be empty\") */\n  tag_15\n  jumpi\n  mload(0x40)\n  shl(0xe5, 0x461bcd)\n  dup2\n  mstore\n    /* \"#utility.yul\":2757:2759   */\n  0x20\n    /* \".git/MyContracts/Voting.sol\":1286:1362  require(bytes(proposalNames[i]).length > 0, \"Proposal name cannot be empty\") */\n  0x04\n  dup3\n  add\n    /* \"#utility.yul\":2739:2760   */\n  mstore\n    /* \"#utility.yul\":2796:2798   */\n  0x1d\n    /* \"#utility.yul\":2776:2794   */\n  0x24\n  dup3\n  add\n    /* \"#utility.yul\":2769:2799   */\n  mstore\n    /* \"#utility.yul\":2835:2866   */\n  0x50726f706f73616c206e616d652063616e6e6f7420626520656d707479000000\n    /* \"#utility.yul\":2815:2833   */\n  0x44\n  dup3\n  add\n    /* \"#utility.yul\":2808:2867   */\n  mstore\n    /* \"#utility.yul\":2884:2902   */\n  0x64\n  add\n    /* \".git/MyContracts/Voting.sol\":1286:1362  require(bytes(proposalNames[i]).length > 0, \"Proposal name cannot be empty\") */\n  tag_7\n    /* \"#utility.yul\":2555:2908   */\n  jump\n    /* \".git/MyContracts/Voting.sol\":1286:1362  require(bytes(proposalNames[i]).length > 0, \"Proposal name cannot be empty\") */\ntag_15:\n    /* \".git/MyContracts/Voting.sol\":1377:1386  proposals */\n  0x02\n    /* \".git/MyContracts/Voting.sol\":1392:1489  Proposal({... */\n  mload(0x40)\n  dup1\n  0x40\n  add\n  0x40\n  mstore\n  dup1\n    /* \".git/MyContracts/Voting.sol\":1426:1439  proposalNames */\n  dup5\n    /* \".git/MyContracts/Voting.sol\":1440:1441  i */\n  dup5\n    /* \".git/MyContracts/Voting.sol\":1426:1442  proposalNames[i] */\n  dup2\n  mload\n  dup2\n  lt\n  tag_19\n  jumpi\n  tag_19\n  tag_14\n  jump\t// in\ntag_19:\n  0x20\n  swap1\n  dup2\n  mul\n  swap2\n  swap1\n  swap2\n  add\n  dup2\n  add\n  mload\n    /* \".git/MyContracts/Voting.sol\":1392:1489  Proposal({... */\n  dup3\n  mstore\n    /* \".git/MyContracts/Voting.sol\":1472:1473  0 */\n  0x00\n    /* \".git/MyContracts/Voting.sol\":1392:1489  Proposal({... */\n  swap2\n  dup2\n  add\n  dup3\n  swap1\n  mstore\n    /* \".git/MyContracts/Voting.sol\":1377:1490  proposals.push(Proposal({... */\n  dup4\n  sload\n  0x01\n  dup2\n  add\n  dup6\n  sstore\n  swap4\n  dup3\n  mstore\n  swap1\n  keccak256\n  dup2\n  mload\n  swap2\n  swap3\n  0x02\n  mul\n  add\n  swap1\n  dup2\n  swap1\n  tag_21\n  swap1\n  dup3\n  tag_22\n  jump\t// in\ntag_21:\n  pop\n  0x20\n  dup3\n  add\n  mload\n  dup2\n  0x01\n  add\n  sstore\n  pop\n  pop\n    /* \".git/MyContracts/Voting.sol\":1510:1543  ProposalCreated(proposalNames[i]) */\n  0xe8992a719ba38096a6af646873add24c8172489ca954def1b69b5565eb85c1bf\n    /* \".git/MyContracts/Voting.sol\":1526:1539  proposalNames */\n  dup3\n    /* \".git/MyContracts/Voting.sol\":1540:1541  i */\n  dup3\n    /* \".git/MyContracts/Voting.sol\":1526:1542  proposalNames[i] */\n  dup2\n  mload\n  dup2\n  lt\n  tag_24\n  jumpi\n  tag_24\n  tag_14\n  jump\t// in\ntag_24:\n  0x20\n  mul\n  0x20\n  add\n  add\n  mload\n    /* \".git/MyContracts/Voting.sol\":1510:1543  ProposalCreated(proposalNames[i]) */\n  mload(0x40)\n  tag_25\n  swap2\n  swap1\n  tag_26\n  jump\t// in\ntag_25:\n  mload(0x40)\n  dup1\n  swap2\n  sub\n  swap1\n  log1\n    /* \".git/MyContracts/Voting.sol\":1266:1269  i++ */\n  0x01\n  add\n    /* \".git/MyContracts/Voting.sol\":1220:1555  for (uint256 i = 0; i < proposalNames.length; i++) {... */\n  jump(tag_9)\ntag_10:\n  pop\n    /* \".git/MyContracts/Voting.sol\":1005:1562  constructor(string[] memory proposalNames) {... */\n  pop\n    /* \".git/MyContracts/Voting.sol\":176:5213  contract Ballot {... */\n  jump(tag_34)\n    /* \"#utility.yul\":14:141   */\ntag_28:\n    /* \"#utility.yul\":75:85   */\n  0x4e487b71\n    /* \"#utility.yul\":70:73   */\n  0xe0\n    /* \"#utility.yul\":66:86   */\n  shl\n    /* \"#utility.yul\":63:64   */\n  0x00\n    /* \"#utility.yul\":56:87   */\n  mstore\n    /* \"#utility.yul\":106:110   */\n  0x41\n    /* \"#utility.yul\":103:104   */\n  0x04\n    /* \"#utility.yul\":96:111   */\n  mstore\n    /* \"#utility.yul\":130:134   */\n  0x24\n    /* \"#utility.yul\":127:128   */\n  0x00\n    /* \"#utility.yul\":120:135   */\n  revert\n    /* \"#utility.yul\":146:421   */\ntag_29:\n    /* \"#utility.yul\":217:219   */\n  0x40\n    /* \"#utility.yul\":211:220   */\n  mload\n    /* \"#utility.yul\":282:284   */\n  0x1f\n    /* \"#utility.yul\":263:276   */\n  dup3\n  add\n  not(0x1f)\n    /* \"#utility.yul\":259:286   */\n  and\n    /* \"#utility.yul\":247:287   */\n  dup2\n  add\n  sub(shl(0x40, 0x01), 0x01)\n    /* \"#utility.yul\":302:336   */\n  dup2\n  gt\n    /* \"#utility.yul\":338:360   */\n  dup3\n  dup3\n  lt\n    /* \"#utility.yul\":299:361   */\n  or\n    /* \"#utility.yul\":296:384   */\n  iszero\n  tag_38\n  jumpi\n    /* \"#utility.yul\":364:382   */\n  tag_38\n  tag_28\n  jump\t// in\ntag_38:\n    /* \"#utility.yul\":400:402   */\n  0x40\n    /* \"#utility.yul\":393:415   */\n  mstore\n    /* \"#utility.yul\":146:421   */\n  swap2\n  swap1\n  pop\n  jump\t// out\n    /* \"#utility.yul\":426:2016   */\ntag_3:\n    /* \"#utility.yul\":531:537   */\n  0x00\n    /* \"#utility.yul\":584:586   */\n  0x20\n    /* \"#utility.yul\":572:581   */\n  dup3\n    /* \"#utility.yul\":563:570   */\n  dup5\n    /* \"#utility.yul\":559:582   */\n  sub\n    /* \"#utility.yul\":555:587   */\n  slt\n    /* \"#utility.yul\":552:604   */\n  iszero\n  tag_40\n  jumpi\n    /* \"#utility.yul\":600:601   */\n  0x00\n    /* \"#utility.yul\":597:598   */\n  0x00\n    /* \"#utility.yul\":590:602   */\n  revert\n    /* \"#utility.yul\":552:604   */\ntag_40:\n    /* \"#utility.yul\":627:643   */\n  dup2\n  mload\n  sub(shl(0x40, 0x01), 0x01)\n    /* \"#utility.yul\":655:685   */\n  dup2\n  gt\n    /* \"#utility.yul\":652:702   */\n  iszero\n  tag_41\n  jumpi\n    /* \"#utility.yul\":698:699   */\n  0x00\n    /* \"#utility.yul\":695:696   */\n  0x00\n    /* \"#utility.yul\":688:700   */\n  revert\n    /* \"#utility.yul\":652:702   */\ntag_41:\n    /* \"#utility.yul\":721:743   */\n  dup3\n  add\n    /* \"#utility.yul\":774:778   */\n  0x1f\n    /* \"#utility.yul\":766:779   */\n  dup2\n  add\n    /* \"#utility.yul\":762:789   */\n  dup5\n  sgt\n    /* \"#utility.yul\":752:807   */\n  tag_42\n  jumpi\n    /* \"#utility.yul\":803:804   */\n  0x00\n    /* \"#utility.yul\":800:801   */\n  0x00\n    /* \"#utility.yul\":793:805   */\n  revert\n    /* \"#utility.yul\":752:807   */\ntag_42:\n    /* \"#utility.yul\":830:839   */\n  dup1\n  mload\n  sub(shl(0x40, 0x01), 0x01)\n    /* \"#utility.yul\":851:881   */\n  dup2\n  gt\n    /* \"#utility.yul\":848:904   */\n  iszero\n  tag_44\n  jumpi\n    /* \"#utility.yul\":884:902   */\n  tag_44\n  tag_28\n  jump\t// in\ntag_44:\n    /* \"#utility.yul\":930:936   */\n  dup1\n    /* \"#utility.yul\":927:928   */\n  0x05\n    /* \"#utility.yul\":923:937   */\n  shl\n    /* \"#utility.yul\":957:985   */\n  tag_45\n    /* \"#utility.yul\":981:983   */\n  0x20\n    /* \"#utility.yul\":977:979   */\n  dup3\n    /* \"#utility.yul\":973:984   */\n  add\n    /* \"#utility.yul\":957:985   */\n  tag_29\n  jump\t// in\ntag_45:\n    /* \"#utility.yul\":1019:1038   */\n  swap2\n  dup3\n  mstore\n    /* \"#utility.yul\":1063:1065   */\n  0x20\n    /* \"#utility.yul\":1093:1104   */\n  dup2\n  dup5\n  add\n    /* \"#utility.yul\":1089:1109   */\n  dup2\n  add\n  swap3\n    /* \"#utility.yul\":1054:1066   */\n  swap1\n  dup2\n  add\n  swap1\n    /* \"#utility.yul\":1121:1140   */\n  dup8\n  dup5\n  gt\n    /* \"#utility.yul\":1118:1157   */\n  iszero\n  tag_46\n  jumpi\n    /* \"#utility.yul\":1153:1154   */\n  0x00\n    /* \"#utility.yul\":1150:1151   */\n  0x00\n    /* \"#utility.yul\":1143:1155   */\n  revert\n    /* \"#utility.yul\":1118:1157   */\ntag_46:\n    /* \"#utility.yul\":1185:1187   */\n  0x20\n    /* \"#utility.yul\":1181:1183   */\n  dup6\n    /* \"#utility.yul\":1177:1188   */\n  add\n    /* \"#utility.yul\":1166:1188   */\n  swap3\n  pop\n    /* \"#utility.yul\":1197:1986   */\ntag_47:\n    /* \"#utility.yul\":1213:1219   */\n  dup4\n    /* \"#utility.yul\":1208:1211   */\n  dup4\n    /* \"#utility.yul\":1205:1220   */\n  lt\n    /* \"#utility.yul\":1197:1986   */\n  iszero\n  tag_49\n  jumpi\n    /* \"#utility.yul\":1286:1296   */\n  dup3\n  mload\n  sub(shl(0x40, 0x01), 0x01)\n    /* \"#utility.yul\":1312:1347   */\n  dup2\n  gt\n    /* \"#utility.yul\":1309:1364   */\n  iszero\n  tag_50\n  jumpi\n    /* \"#utility.yul\":1360:1361   */\n  0x00\n    /* \"#utility.yul\":1357:1358   */\n  0x00\n    /* \"#utility.yul\":1350:1362   */\n  revert\n    /* \"#utility.yul\":1309:1364   */\ntag_50:\n    /* \"#utility.yul\":1387:1407   */\n  dup6\n  add\n    /* \"#utility.yul\":1442:1444   */\n  0x3f\n    /* \"#utility.yul\":1434:1445   */\n  dup2\n  add\n    /* \"#utility.yul\":1430:1455   */\n  dup10\n  sgt\n    /* \"#utility.yul\":1420:1473   */\n  tag_51\n  jumpi\n    /* \"#utility.yul\":1469:1470   */\n  0x00\n    /* \"#utility.yul\":1466:1467   */\n  0x00\n    /* \"#utility.yul\":1459:1471   */\n  revert\n    /* \"#utility.yul\":1420:1473   */\ntag_51:\n    /* \"#utility.yul\":1516:1518   */\n  0x20\n    /* \"#utility.yul\":1508:1519   */\n  dup2\n  add\n    /* \"#utility.yul\":1502:1520   */\n  mload\n  sub(shl(0x40, 0x01), 0x01)\n    /* \"#utility.yul\":1536:1568   */\n  dup2\n  gt\n    /* \"#utility.yul\":1533:1591   */\n  iszero\n  tag_53\n  jumpi\n    /* \"#utility.yul\":1571:1589   */\n  tag_53\n  tag_28\n  jump\t// in\ntag_53:\n    /* \"#utility.yul\":1619:1678   */\n  tag_54\n    /* \"#utility.yul\":1668:1670   */\n  0x1f\n    /* \"#utility.yul\":1643:1662   */\n  dup3\n  add\n  not(0x1f)\n    /* \"#utility.yul\":1639:1672   */\n  and\n    /* \"#utility.yul\":1674:1676   */\n  0x20\n    /* \"#utility.yul\":1635:1677   */\n  add\n    /* \"#utility.yul\":1619:1678   */\n  tag_29\n  jump\t// in\ntag_54:\n    /* \"#utility.yul\":1691:1716   */\n  dup2\n  dup2\n  mstore\n    /* \"#utility.yul\":1735:1770   */\n  0x40\n    /* \"#utility.yul\":1743:1760   */\n  dup4\n  dup4\n  add\n    /* \"#utility.yul\":1735:1770   */\n  add\n    /* \"#utility.yul\":1732:1780   */\n  dup12\n  lt\n    /* \"#utility.yul\":1729:1797   */\n  iszero\n  tag_55\n  jumpi\n    /* \"#utility.yul\":1793:1794   */\n  0x00\n    /* \"#utility.yul\":1790:1791   */\n  0x00\n    /* \"#utility.yul\":1783:1795   */\n  revert\n    /* \"#utility.yul\":1729:1797   */\ntag_55:\n    /* \"#utility.yul\":1847:1855   */\n  dup2\n    /* \"#utility.yul\":1842:1844   */\n  0x40\n    /* \"#utility.yul\":1838:1840   */\n  dup5\n    /* \"#utility.yul\":1834:1845   */\n  add\n    /* \"#utility.yul\":1829:1831   */\n  0x20\n    /* \"#utility.yul\":1820:1827   */\n  dup4\n    /* \"#utility.yul\":1816:1832   */\n  add\n    /* \"#utility.yul\":1810:1856   */\n  mcopy\n    /* \"#utility.yul\":1909:1910   */\n  0x00\n    /* \"#utility.yul\":1904:1906   */\n  0x20\n    /* \"#utility.yul\":1893:1901   */\n  dup4\n    /* \"#utility.yul\":1884:1891   */\n  dup4\n    /* \"#utility.yul\":1880:1902   */\n  add\n    /* \"#utility.yul\":1876:1907   */\n  add\n    /* \"#utility.yul\":1869:1911   */\n  mstore\n    /* \"#utility.yul\":1936:1943   */\n  dup1\n    /* \"#utility.yul\":1931:1934   */\n  dup6\n    /* \"#utility.yul\":1924:1944   */\n  mstore\n  pop\n  pop\n  pop\n    /* \"#utility.yul\":1973:1975   */\n  0x20\n    /* \"#utility.yul\":1968:1971   */\n  dup3\n    /* \"#utility.yul\":1964:1976   */\n  add\n    /* \"#utility.yul\":1957:1976   */\n  swap2\n  pop\n    /* \"#utility.yul\":1239:1241   */\n  0x20\n    /* \"#utility.yul\":1234:1237   */\n  dup4\n    /* \"#utility.yul\":1230:1242   */\n  add\n    /* \"#utility.yul\":1223:1242   */\n  swap3\n  pop\n    /* \"#utility.yul\":1197:1986   */\n  jump(tag_47)\ntag_49:\n    /* \"#utility.yul\":2005:2010   */\n  swap8\n    /* \"#utility.yul\":426:2016   */\n  swap7\n  pop\n  pop\n  pop\n  pop\n  pop\n  pop\n  pop\n  jump\t// out\n    /* \"#utility.yul\":2423:2550   */\ntag_14:\n    /* \"#utility.yul\":2484:2494   */\n  0x4e487b71\n    /* \"#utility.yul\":2479:2482   */\n  0xe0\n    /* \"#utility.yul\":2475:2495   */\n  shl\n    /* \"#utility.yul\":2472:2473   */\n  0x00\n    /* \"#utility.yul\":2465:2496   */\n  mstore\n    /* \"#utility.yul\":2515:2519   */\n  0x32\n    /* \"#utility.yul\":2512:2513   */\n  0x04\n    /* \"#utility.yul\":2505:2520   */\n  mstore\n    /* \"#utility.yul\":2539:2543   */\n  0x24\n    /* \"#utility.yul\":2536:2537   */\n  0x00\n    /* \"#utility.yul\":2529:2544   */\n  revert\n    /* \"#utility.yul\":2913:3293   */\ntag_30:\n    /* \"#utility.yul\":2992:2993   */\n  0x01\n    /* \"#utility.yul\":2988:3000   */\n  dup2\n  dup2\n  shr\n  swap1\n    /* \"#utility.yul\":3035:3047   */\n  dup3\n  and\n  dup1\n    /* \"#utility.yul\":3056:3117   */\n  tag_60\n  jumpi\n    /* \"#utility.yul\":3110:3114   */\n  0x7f\n    /* \"#utility.yul\":3102:3108   */\n  dup3\n    /* \"#utility.yul\":3098:3115   */\n  and\n    /* \"#utility.yul\":3088:3115   */\n  swap2\n  pop\n    /* \"#utility.yul\":3056:3117   */\ntag_60:\n    /* \"#utility.yul\":3163:3165   */\n  0x20\n    /* \"#utility.yul\":3155:3161   */\n  dup3\n    /* \"#utility.yul\":3152:3166   */\n  lt\n    /* \"#utility.yul\":3132:3150   */\n  dup2\n    /* \"#utility.yul\":3129:3167   */\n  sub\n    /* \"#utility.yul\":3126:3287   */\n  tag_61\n  jumpi\n    /* \"#utility.yul\":3209:3219   */\n  0x4e487b71\n    /* \"#utility.yul\":3204:3207   */\n  0xe0\n    /* \"#utility.yul\":3200:3220   */\n  shl\n    /* \"#utility.yul\":3197:3198   */\n  0x00\n    /* \"#utility.yul\":3190:3221   */\n  mstore\n    /* \"#utility.yul\":3244:3248   */\n  0x22\n    /* \"#utility.yul\":3241:3242   */\n  0x04\n    /* \"#utility.yul\":3234:3249   */\n  mstore\n    /* \"#utility.yul\":3272:3276   */\n  0x24\n    /* \"#utility.yul\":3269:3270   */\n  0x00\n    /* \"#utility.yul\":3262:3277   */\n  revert\n    /* \"#utility.yul\":3126:3287   */\ntag_61:\n  pop\n    /* \"#utility.yul\":2913:3293   */\n  swap2\n  swap1\n  pop\n  jump\t// out\n    /* \"#utility.yul\":3424:3942   */\ntag_32:\n    /* \"#utility.yul\":3526:3528   */\n  0x1f\n    /* \"#utility.yul\":3521:3524   */\n  dup3\n    /* \"#utility.yul\":3518:3529   */\n  gt\n    /* \"#utility.yul\":3515:3936   */\n  iszero\n  tag_64\n  jumpi\n    /* \"#utility.yul\":3562:3567   */\n  dup1\n    /* \"#utility.yul\":3559:3560   */\n  0x00\n    /* \"#utility.yul\":3552:3568   */\n  mstore\n    /* \"#utility.yul\":3606:3610   */\n  0x20\n    /* \"#utility.yul\":3603:3604   */\n  0x00\n    /* \"#utility.yul\":3593:3611   */\n  keccak256\n    /* \"#utility.yul\":3676:3678   */\n  0x1f\n    /* \"#utility.yul\":3664:3674   */\n  dup5\n    /* \"#utility.yul\":3660:3679   */\n  add\n    /* \"#utility.yul\":3657:3658   */\n  0x05\n    /* \"#utility.yul\":3653:3680   */\n  shr\n    /* \"#utility.yul\":3647:3651   */\n  dup2\n    /* \"#utility.yul\":3643:3681   */\n  add\n    /* \"#utility.yul\":3712:3716   */\n  0x20\n    /* \"#utility.yul\":3700:3710   */\n  dup6\n    /* \"#utility.yul\":3697:3717   */\n  lt\n    /* \"#utility.yul\":3694:3741   */\n  iszero\n  tag_65\n  jumpi\n  pop\n    /* \"#utility.yul\":3735:3739   */\n  dup1\n    /* \"#utility.yul\":3694:3741   */\ntag_65:\n    /* \"#utility.yul\":3790:3792   */\n  0x1f\n    /* \"#utility.yul\":3785:3788   */\n  dup5\n    /* \"#utility.yul\":3781:3793   */\n  add\n    /* \"#utility.yul\":3778:3779   */\n  0x05\n    /* \"#utility.yul\":3774:3794   */\n  shr\n    /* \"#utility.yul\":3768:3772   */\n  dup3\n    /* \"#utility.yul\":3764:3795   */\n  add\n    /* \"#utility.yul\":3754:3795   */\n  swap2\n  pop\n    /* \"#utility.yul\":3845:3926   */\ntag_66:\n    /* \"#utility.yul\":3863:3865   */\n  dup2\n    /* \"#utility.yul\":3856:3861   */\n  dup2\n    /* \"#utility.yul\":3853:3866   */\n  lt\n    /* \"#utility.yul\":3845:3926   */\n  iszero\n  tag_68\n  jumpi\n    /* \"#utility.yul\":3922:3923   */\n  0x00\n    /* \"#utility.yul\":3908:3924   */\n  dup2\n  sstore\n    /* \"#utility.yul\":3889:3890   */\n  0x01\n    /* \"#utility.yul\":3878:3891   */\n  add\n    /* \"#utility.yul\":3845:3926   */\n  jump(tag_66)\ntag_68:\n    /* \"#utility.yul\":3849:3852   */\n  pop\n  pop\n    /* \"#utility.yul\":3515:3936   */\ntag_64:\n    /* \"#utility.yul\":3424:3942   */\n  pop\n  pop\n  pop\n  jump\t// out\n    /* \"#utility.yul\":4118:5417   */\ntag_22:\n    /* \"#utility.yul\":4238:4248   */\n  dup2\n  mload\n  sub(shl(0x40, 0x01), 0x01)\n    /* \"#utility.yul\":4260:4290   */\n  dup2\n  gt\n    /* \"#utility.yul\":4257:4313   */\n  iszero\n  tag_72\n  jumpi\n    /* \"#utility.yul\":4293:4311   */\n  tag_72\n  tag_28\n  jump\t// in\ntag_72:\n    /* \"#utility.yul\":4322:4419   */\n  tag_73\n    /* \"#utility.yul\":4412:4418   */\n  dup2\n    /* \"#utility.yul\":4372:4410   */\n  tag_74\n    /* \"#utility.yul\":4404:4408   */\n  dup5\n    /* \"#utility.yul\":4398:4409   */\n  sload\n    /* \"#utility.yul\":4372:4410   */\n  tag_30\n  jump\t// in\ntag_74:\n    /* \"#utility.yul\":4366:4370   */\n  dup5\n    /* \"#utility.yul\":4322:4419   */\n  tag_32\n  jump\t// in\ntag_73:\n    /* \"#utility.yul\":4468:4472   */\n  0x20\n    /* \"#utility.yul\":4499:4501   */\n  0x1f\n    /* \"#utility.yul\":4488:4502   */\n  dup3\n  gt\n    /* \"#utility.yul\":4516:4517   */\n  0x01\n    /* \"#utility.yul\":4511:5160   */\n  dup2\n  eq\n  tag_76\n  jumpi\n    /* \"#utility.yul\":5204:5205   */\n  0x00\n    /* \"#utility.yul\":5221:5227   */\n  dup4\n    /* \"#utility.yul\":5218:5307   */\n  iszero\n  tag_77\n  jumpi\n  pop\n    /* \"#utility.yul\":5273:5292   */\n  dup5\n  dup3\n  add\n    /* \"#utility.yul\":5267:5293   */\n  mload\n    /* \"#utility.yul\":5218:5307   */\ntag_77:\n  not(0x00)\n    /* \"#utility.yul\":4075:4076   */\n  0x03\n    /* \"#utility.yul\":4071:4082   */\n  dup6\n  swap1\n  shl\n    /* \"#utility.yul\":4067:4091   */\n  shr\n    /* \"#utility.yul\":4063:4092   */\n  not\n    /* \"#utility.yul\":4053:4093   */\n  and\n    /* \"#utility.yul\":4099:4100   */\n  0x01\n    /* \"#utility.yul\":4095:4106   */\n  dup5\n  swap1\n  shl\n    /* \"#utility.yul\":4050:4107   */\n  or\n    /* \"#utility.yul\":5320:5401   */\n  dup5\n  sstore\n    /* \"#utility.yul\":4481:5411   */\n  jump(tag_68)\n    /* \"#utility.yul\":4511:5160   */\ntag_76:\n    /* \"#utility.yul\":3371:3372   */\n  0x00\n    /* \"#utility.yul\":3364:3378   */\n  dup5\n  dup2\n  mstore\n    /* \"#utility.yul\":3408:3412   */\n  0x20\n    /* \"#utility.yul\":3395:3413   */\n  dup2\n  keccak256\n  not(0x1f)\n    /* \"#utility.yul\":4547:4567   */\n  dup6\n  and\n  swap2\n    /* \"#utility.yul\":4665:4887   */\ntag_80:\n    /* \"#utility.yul\":4679:4686   */\n  dup3\n    /* \"#utility.yul\":4676:4677   */\n  dup2\n    /* \"#utility.yul\":4673:4687   */\n  lt\n    /* \"#utility.yul\":4665:4887   */\n  iszero\n  tag_82\n  jumpi\n    /* \"#utility.yul\":4761:4780   */\n  dup8\n  dup6\n  add\n    /* \"#utility.yul\":4755:4781   */\n  mload\n    /* \"#utility.yul\":4740:4782   */\n  dup3\n  sstore\n    /* \"#utility.yul\":4868:4872   */\n  0x20\n    /* \"#utility.yul\":4853:4873   */\n  swap5\n  dup6\n  add\n  swap5\n    /* \"#utility.yul\":4821:4822   */\n  0x01\n    /* \"#utility.yul\":4809:4823   */\n  swap1\n  swap3\n  add\n  swap2\n    /* \"#utility.yul\":4695:4707   */\n  add\n    /* \"#utility.yul\":4665:4887   */\n  jump(tag_80)\ntag_82:\n    /* \"#utility.yul\":4669:4672   */\n  pop\n    /* \"#utility.yul\":4915:4921   */\n  dup5\n    /* \"#utility.yul\":4906:4913   */\n  dup3\n    /* \"#utility.yul\":4903:4922   */\n  lt\n    /* \"#utility.yul\":4900:5101   */\n  iszero\n  tag_83\n  jumpi\n    /* \"#utility.yul\":4976:4995   */\n  dup7\n  dup5\n  add\n    /* \"#utility.yul\":4970:4996   */\n  mload\n  not(0x00)\n    /* \"#utility.yul\":5059:5060   */\n  0x03\n    /* \"#utility.yul\":5055:5069   */\n  dup8\n  swap1\n  shl\n    /* \"#utility.yul\":5071:5074   */\n  0xf8\n    /* \"#utility.yul\":5051:5075   */\n  and\n    /* \"#utility.yul\":5047:5084   */\n  shr\n    /* \"#utility.yul\":5043:5085   */\n  not\n    /* \"#utility.yul\":5028:5086   */\n  and\n    /* \"#utility.yul\":5013:5087   */\n  dup2\n  sstore\n    /* \"#utility.yul\":4900:5101   */\ntag_83:\n  pop\n  pop\n  pop\n  pop\n    /* \"#utility.yul\":5147:5148   */\n  0x01\n    /* \"#utility.yul\":5131:5145   */\n  swap1\n  dup2\n  shl\n    /* \"#utility.yul\":5127:5149   */\n  add\n    /* \"#utility.yul\":5114:5150   */\n  swap1\n  sstore\n  pop\n    /* \"#utility.yul\":4118:5417   */\n  jump\t// out\n    /* \"#utility.yul\":5422:5840   */\ntag_26:\n    /* \"#utility.yul\":5571:5573   */\n  0x20\n    /* \"#utility.yul\":5560:5569   */\n  dup2\n    /* \"#utility.yul\":5553:5574   */\n  mstore\n    /* \"#utility.yul\":5534:5538   */\n  0x00\n    /* \"#utility.yul\":5603:5609   */\n  dup3\n    /* \"#utility.yul\":5597:5610   */\n  mload\n    /* \"#utility.yul\":5646:5652   */\n  dup1\n    /* \"#utility.yul\":5641:5643   */\n  0x20\n    /* \"#utility.yul\":5630:5639   */\n  dup5\n    /* \"#utility.yul\":5626:5644   */\n  add\n    /* \"#utility.yul\":5619:5653   */\n  mstore\n    /* \"#utility.yul\":5705:5711   */\n  dup1\n    /* \"#utility.yul\":5700:5702   */\n  0x20\n    /* \"#utility.yul\":5692:5698   */\n  dup6\n    /* \"#utility.yul\":5688:5703   */\n  add\n    /* \"#utility.yul\":5683:5685   */\n  0x40\n    /* \"#utility.yul\":5672:5681   */\n  dup6\n    /* \"#utility.yul\":5668:5686   */\n  add\n    /* \"#utility.yul\":5662:5712   */\n  mcopy\n    /* \"#utility.yul\":5761:5762   */\n  0x00\n    /* \"#utility.yul\":5756:5758   */\n  0x40\n    /* \"#utility.yul\":5747:5753   */\n  dup3\n    /* \"#utility.yul\":5736:5745   */\n  dup6\n    /* \"#utility.yul\":5732:5754   */\n  add\n    /* \"#utility.yul\":5728:5759   */\n  add\n    /* \"#utility.yul\":5721:5763   */\n  mstore\n    /* \"#utility.yul\":5831:5833   */\n  0x40\n    /* \"#utility.yul\":5824:5826   */\n  0x1f\n    /* \"#utility.yul\":5820:5827   */\n  not\n    /* \"#utility.yul\":5815:5817   */\n  0x1f\n    /* \"#utility.yul\":5807:5813   */\n  dup4\n    /* \"#utility.yul\":5803:5818   */\n  add\n    /* \"#utility.yul\":5799:5828   */\n  and\n    /* \"#utility.yul\":5788:5797   */\n  dup5\n    /* \"#utility.yul\":5784:5829   */\n  add\n    /* \"#utility.yul\":5780:5834   */\n  add\n    /* \"#utility.yul\":5772:5834   */\n  swap2\n  pop\n  pop\n    /* \"#utility.yul\":5422:5840   */\n  swap3\n  swap2\n  pop\n  pop\n  jump\t// out\ntag_34:\n    /* \".git/MyContracts/Voting.sol\":176:5213  contract Ballot {... */\n  dataSize(sub_0)\n  dup1\n  dataOffset(sub_0)\n  0x00\n  codecopy\n  0x00\n  return\nstop\n\nsub_0: assembly {\n        /* \".git/MyContracts/Voting.sol\":176:5213  contract Ballot {... */\n      mstore(0x40, 0x80)\n      callvalue\n      dup1\n      iszero\n      tag_1\n      jumpi\n      revert(0x00, 0x00)\n    tag_1:\n      pop\n      jumpi(tag_2, lt(calldatasize, 0x04))\n      shr(0xe0, calldataload(0x00))\n      dup1\n      0x609ff1bd\n      gt\n      tag_14\n      jumpi\n      dup1\n      0x609ff1bd\n      eq\n      tag_8\n      jumpi\n      dup1\n      0x9e7b8d61\n      eq\n      tag_9\n      jumpi\n      dup1\n      0xa3ec138d\n      eq\n      tag_10\n      jumpi\n      dup1\n      0xc08cc02d\n      eq\n      tag_11\n      jumpi\n      dup1\n      0xc7f758a8\n      eq\n      tag_12\n      jumpi\n      dup1\n      0xe2ba53f0\n      eq\n      tag_13\n      jumpi\n      revert(0x00, 0x00)\n    tag_14:\n      dup1\n      0x0121b93f\n      eq\n      tag_3\n      jumpi\n      dup1\n      0x013cf08b\n      eq\n      tag_4\n      jumpi\n      dup1\n      0x2e4176cf\n      eq\n      tag_5\n      jumpi\n      dup1\n      0x5c19a95c\n      eq\n      tag_6\n      jumpi\n      dup1\n      0x5d8abde4\n      eq\n      tag_7\n      jumpi\n    tag_2:\n      revert(0x00, 0x00)\n        /* \".git/MyContracts/Voting.sol\":3056:3524  function vote(uint256 proposal) external {... */\n    tag_3:\n      tag_15\n      tag_16\n      calldatasize\n      0x04\n      tag_17\n      jump\t// in\n    tag_16:\n      tag_18\n      jump\t// in\n    tag_15:\n      stop\n        /* \".git/MyContracts/Voting.sol\":487:514  Proposal[] public proposals */\n    tag_4:\n      tag_19\n      tag_20\n      calldatasize\n      0x04\n      tag_17\n      jump\t// in\n    tag_20:\n      tag_21\n      jump\t// in\n    tag_19:\n      mload(0x40)\n      tag_22\n      swap3\n      swap2\n      swap1\n      tag_23\n      jump\t// in\n    tag_22:\n      mload(0x40)\n      dup1\n      swap2\n      sub\n      swap1\n      return\n        /* \".git/MyContracts/Voting.sol\":406:432  address public chairperson */\n    tag_5:\n      sload(0x00)\n      tag_24\n      swap1\n      sub(shl(0xa0, 0x01), 0x01)\n      and\n      dup2\n      jump\n    tag_24:\n      mload(0x40)\n      sub(shl(0xa0, 0x01), 0x01)\n        /* \"#utility.yul\":953:985   */\n      swap1\n      swap2\n      and\n        /* \"#utility.yul\":935:986   */\n      dup2\n      mstore\n        /* \"#utility.yul\":923:925   */\n      0x20\n        /* \"#utility.yul\":908:926   */\n      add\n        /* \".git/MyContracts/Voting.sol\":406:432  address public chairperson */\n      tag_22\n        /* \"#utility.yul\":789:992   */\n      jump\n        /* \".git/MyContracts/Voting.sol\":2111:2986  function delegate(address to) external {... */\n    tag_6:\n      tag_15\n      tag_29\n      calldatasize\n      0x04\n      tag_30\n      jump\t// in\n    tag_29:\n      tag_31\n      jump\t// in\n        /* \".git/MyContracts/Voting.sol\":4785:5210  function transferChairperson(address newChairperson) external onlyChairperson {... */\n    tag_7:\n      tag_15\n      tag_33\n      calldatasize\n      0x04\n      tag_30\n      jump\t// in\n    tag_33:\n      tag_34\n      jump\t// in\n        /* \".git/MyContracts/Voting.sol\":3606:3974  function winningProposal() public view returns (uint256 winningProposal_) {... */\n    tag_8:\n      tag_35\n      tag_36\n      jump\t// in\n    tag_35:\n      mload(0x40)\n        /* \"#utility.yul\":1434:1459   */\n      swap1\n      dup2\n      mstore\n        /* \"#utility.yul\":1422:1424   */\n      0x20\n        /* \"#utility.yul\":1407:1425   */\n      add\n        /* \".git/MyContracts/Voting.sol\":3606:3974  function winningProposal() public view returns (uint256 winningProposal_) {... */\n      tag_22\n        /* \"#utility.yul\":1288:1465   */\n      jump\n        /* \".git/MyContracts/Voting.sol\":1676:2035  function giveRightToVote(address voter) external onlyChairperson {... */\n    tag_9:\n      tag_15\n      tag_40\n      calldatasize\n      0x04\n      tag_30\n      jump\t// in\n    tag_40:\n      tag_41\n      jump\t// in\n        /* \".git/MyContracts/Voting.sol\":441:480  mapping(address => Voter) public voters */\n    tag_10:\n      tag_42\n      tag_43\n      calldatasize\n      0x04\n      tag_30\n      jump\t// in\n    tag_43:\n      0x01\n      0x20\n      dup2\n      swap1\n      mstore\n      0x00\n      swap2\n      dup3\n      mstore\n      0x40\n      swap1\n      swap2\n      keccak256\n      dup1\n      sload\n      swap2\n      dup2\n      add\n      sload\n      0x02\n      swap1\n      swap2\n      add\n      sload\n      0xff\n      dup3\n      and\n      swap2\n      0x0100\n      swap1\n      div\n      sub(shl(0xa0, 0x01), 0x01)\n      and\n      swap1\n      dup5\n      jump\n    tag_42:\n      mload(0x40)\n      tag_22\n      swap5\n      swap4\n      swap3\n      swap2\n      swap1\n        /* \"#utility.yul\":1695:1720   */\n      swap4\n      dup5\n      mstore\n        /* \"#utility.yul\":1763:1777   */\n      swap2\n      iszero\n        /* \"#utility.yul\":1756:1778   */\n      iszero\n        /* \"#utility.yul\":1751:1753   */\n      0x20\n        /* \"#utility.yul\":1736:1754   */\n      dup5\n      add\n        /* \"#utility.yul\":1729:1779   */\n      mstore\n      sub(shl(0xa0, 0x01), 0x01)\n        /* \"#utility.yul\":1815:1847   */\n      and\n        /* \"#utility.yul\":1810:1812   */\n      0x40\n        /* \"#utility.yul\":1795:1813   */\n      dup4\n      add\n        /* \"#utility.yul\":1788:1848   */\n      mstore\n        /* \"#utility.yul\":1879:1881   */\n      0x60\n        /* \"#utility.yul\":1864:1882   */\n      dup3\n      add\n        /* \"#utility.yul\":1857:1891   */\n      mstore\n        /* \"#utility.yul\":1682:1685   */\n      0x80\n        /* \"#utility.yul\":1667:1686   */\n      add\n      swap1\n        /* \"#utility.yul\":1470:1897   */\n      jump\n        /* \".git/MyContracts/Voting.sol\":4267:4369  function getProposalCount() external view returns (uint256) {... */\n    tag_11:\n        /* \".git/MyContracts/Voting.sol\":4345:4354  proposals */\n      0x02\n        /* \".git/MyContracts/Voting.sol\":4345:4361  proposals.length */\n      sload\n        /* \".git/MyContracts/Voting.sol\":4267:4369  function getProposalCount() external view returns (uint256) {... */\n      jump(tag_35)\n        /* \".git/MyContracts/Voting.sol\":4437:4699  function getProposal(uint256 index) external view returns (string memory name, uint256 voteCount) {... */\n    tag_12:\n      tag_19\n      tag_51\n      calldatasize\n      0x04\n      tag_17\n      jump\t// in\n    tag_51:\n      tag_52\n      jump\t// in\n        /* \".git/MyContracts/Voting.sol\":4055:4193  function winnerName() external view returns (string memory winnerName_) {... */\n    tag_13:\n      tag_54\n      tag_55\n      jump\t// in\n    tag_54:\n      mload(0x40)\n      tag_22\n      swap2\n      swap1\n      tag_57\n      jump\t// in\n        /* \".git/MyContracts/Voting.sol\":3056:3524  function vote(uint256 proposal) external {... */\n    tag_18:\n        /* \".git/MyContracts/Voting.sol\":3138:3148  msg.sender */\n      caller\n        /* \".git/MyContracts/Voting.sol\":3108:3128  Voter storage sender */\n      0x00\n        /* \".git/MyContracts/Voting.sol\":3131:3149  voters[msg.sender] */\n      swap1\n      dup2\n      mstore\n        /* \".git/MyContracts/Voting.sol\":3131:3137  voters */\n      0x01\n        /* \".git/MyContracts/Voting.sol\":3131:3149  voters[msg.sender] */\n      0x20\n      mstore\n      0x40\n      swap1\n      keccak256\n        /* \".git/MyContracts/Voting.sol\":3170:3183  sender.weight */\n      dup1\n      sload\n        /* \".git/MyContracts/Voting.sol\":3162:3217  require(sender.weight > 0, \"You have no right to vote\") */\n      tag_59\n      jumpi\n      mload(0x40)\n      shl(0xe5, 0x461bcd)\n      dup2\n      mstore\n        /* \"#utility.yul\":2329:2331   */\n      0x20\n        /* \".git/MyContracts/Voting.sol\":3162:3217  require(sender.weight > 0, \"You have no right to vote\") */\n      0x04\n      dup3\n      add\n        /* \"#utility.yul\":2311:2332   */\n      mstore\n        /* \"#utility.yul\":2368:2370   */\n      0x19\n        /* \"#utility.yul\":2348:2366   */\n      0x24\n      dup3\n      add\n        /* \"#utility.yul\":2341:2371   */\n      mstore\n      shl(0x38, 0x596f752068617665206e6f20726967687420746f20766f7465)\n        /* \"#utility.yul\":2387:2405   */\n      0x44\n      dup3\n      add\n        /* \"#utility.yul\":2380:2435   */\n      mstore\n        /* \"#utility.yul\":2452:2470   */\n      0x64\n      add\n        /* \".git/MyContracts/Voting.sol\":3162:3217  require(sender.weight > 0, \"You have no right to vote\") */\n    tag_60:\n      mload(0x40)\n      dup1\n      swap2\n      sub\n      swap1\n      revert\n    tag_59:\n        /* \".git/MyContracts/Voting.sol\":3237:3249  sender.voted */\n      0x01\n      dup2\n      add\n      sload\n      0xff\n      and\n        /* \".git/MyContracts/Voting.sol\":3236:3249  !sender.voted */\n      iszero\n        /* \".git/MyContracts/Voting.sol\":3228:3271  require(!sender.voted, \"You already voted\") */\n      tag_62\n      jumpi\n      mload(0x40)\n      shl(0xe5, 0x461bcd)\n      dup2\n      mstore\n        /* \"#utility.yul\":2683:2685   */\n      0x20\n        /* \".git/MyContracts/Voting.sol\":3228:3271  require(!sender.voted, \"You already voted\") */\n      0x04\n      dup3\n      add\n        /* \"#utility.yul\":2665:2686   */\n      mstore\n        /* \"#utility.yul\":2722:2724   */\n      0x11\n        /* \"#utility.yul\":2702:2720   */\n      0x24\n      dup3\n      add\n        /* \"#utility.yul\":2695:2725   */\n      mstore\n      shl(0x7a, 0x165bdd48185b1c9958591e481d9bdd1959)\n        /* \"#utility.yul\":2741:2759   */\n      0x44\n      dup3\n      add\n        /* \"#utility.yul\":2734:2781   */\n      mstore\n        /* \"#utility.yul\":2798:2816   */\n      0x64\n      add\n        /* \".git/MyContracts/Voting.sol\":3228:3271  require(!sender.voted, \"You already voted\") */\n      tag_60\n        /* \"#utility.yul\":2481:2822   */\n      jump\n        /* \".git/MyContracts/Voting.sol\":3228:3271  require(!sender.voted, \"You already voted\") */\n    tag_62:\n        /* \".git/MyContracts/Voting.sol\":3301:3310  proposals */\n      0x02\n        /* \".git/MyContracts/Voting.sol\":3301:3317  proposals.length */\n      sload\n        /* \".git/MyContracts/Voting.sol\":3290:3317  proposal < proposals.length */\n      dup3\n      lt\n        /* \".git/MyContracts/Voting.sol\":3282:3344  require(proposal < proposals.length, \"Invalid proposal index\") */\n      tag_65\n      jumpi\n      mload(0x40)\n      shl(0xe5, 0x461bcd)\n      dup2\n      mstore\n        /* \"#utility.yul\":3029:3031   */\n      0x20\n        /* \".git/MyContracts/Voting.sol\":3282:3344  require(proposal < proposals.length, \"Invalid proposal index\") */\n      0x04\n      dup3\n      add\n        /* \"#utility.yul\":3011:3032   */\n      mstore\n        /* \"#utility.yul\":3068:3070   */\n      0x16\n        /* \"#utility.yul\":3048:3066   */\n      0x24\n      dup3\n      add\n        /* \"#utility.yul\":3041:3071   */\n      mstore\n      shl(0x53, 0x092dcecc2d8d2c840e0e4dee0dee6c2d840d2dcc8caf)\n        /* \"#utility.yul\":3087:3105   */\n      0x44\n      dup3\n      add\n        /* \"#utility.yul\":3080:3132   */\n      mstore\n        /* \"#utility.yul\":3149:3167   */\n      0x64\n      add\n        /* \".git/MyContracts/Voting.sol\":3282:3344  require(proposal < proposals.length, \"Invalid proposal index\") */\n      tag_60\n        /* \"#utility.yul\":2827:3173   */\n      jump\n        /* \".git/MyContracts/Voting.sol\":3282:3344  require(proposal < proposals.length, \"Invalid proposal index\") */\n    tag_65:\n        /* \".git/MyContracts/Voting.sol\":3372:3376  true */\n      0x01\n        /* \".git/MyContracts/Voting.sol\":3357:3369  sender.voted */\n      dup2\n      dup2\n      add\n        /* \".git/MyContracts/Voting.sol\":3357:3376  sender.voted = true */\n      dup1\n      sload\n      not(0xff)\n      and\n      swap1\n      swap2\n      or\n      swap1\n      sstore\n        /* \".git/MyContracts/Voting.sol\":3387:3398  sender.vote */\n      0x02\n      dup1\n      dup3\n      add\n        /* \".git/MyContracts/Voting.sol\":3387:3409  sender.vote = proposal */\n      dup4\n      swap1\n      sstore\n        /* \".git/MyContracts/Voting.sol\":3455:3468  sender.weight */\n      dup2\n      sload\n        /* \".git/MyContracts/Voting.sol\":3422:3441  proposals[proposal] */\n      dup2\n      sload\n        /* \".git/MyContracts/Voting.sol\":3455:3468  sender.weight */\n      swap1\n      swap2\n        /* \".git/MyContracts/Voting.sol\":3387:3398  sender.vote */\n      swap1\n        /* \".git/MyContracts/Voting.sol\":3401:3409  proposal */\n      dup5\n      swap1\n        /* \".git/MyContracts/Voting.sol\":3422:3441  proposals[proposal] */\n      dup2\n      lt\n      tag_69\n      jumpi\n      tag_69\n      tag_70\n      jump\t// in\n    tag_69:\n      swap1\n      0x00\n      mstore\n      keccak256(0x00, 0x20)\n      swap1\n      0x02\n      mul\n      add\n        /* \".git/MyContracts/Voting.sol\":3422:3451  proposals[proposal].voteCount */\n      0x01\n      add\n      0x00\n        /* \".git/MyContracts/Voting.sol\":3422:3468  proposals[proposal].voteCount += sender.weight */\n      dup3\n      dup3\n      sload\n      tag_72\n      swap2\n      swap1\n      tag_73\n      jump\t// in\n    tag_72:\n      swap1\n      swap2\n      sstore\n      pop\n      pop\n        /* \".git/MyContracts/Voting.sol\":3486:3516  VoteCast(msg.sender, proposal) */\n      mload(0x40)\n        /* \".git/MyContracts/Voting.sol\":3507:3515  proposal */\n      dup3\n      swap1\n        /* \".git/MyContracts/Voting.sol\":3495:3505  msg.sender */\n      caller\n      swap1\n        /* \".git/MyContracts/Voting.sol\":3486:3516  VoteCast(msg.sender, proposal) */\n      0xa36cc2bebb74db33e9f88110a07ef56e1b31b24b4c4f51b54b1664266e29f45b\n      swap1\n      0x00\n      swap1\n      log3\n        /* \".git/MyContracts/Voting.sol\":3097:3524  {... */\n      pop\n        /* \".git/MyContracts/Voting.sol\":3056:3524  function vote(uint256 proposal) external {... */\n      pop\n      jump\t// out\n        /* \".git/MyContracts/Voting.sol\":487:514  Proposal[] public proposals */\n    tag_21:\n      0x02\n      dup2\n      dup2\n      sload\n      dup2\n      lt\n      tag_74\n      jumpi\n      0x00\n      dup1\n      revert\n    tag_74:\n      swap1\n      0x00\n      mstore\n      keccak256(0x00, 0x20)\n      swap1\n      0x02\n      mul\n      add\n      0x00\n      swap2\n      pop\n      swap1\n      pop\n      dup1\n      0x00\n      add\n      dup1\n      sload\n      tag_76\n      swap1\n      tag_77\n      jump\t// in\n    tag_76:\n      dup1\n      0x1f\n      add\n      0x20\n      dup1\n      swap2\n      div\n      mul\n      0x20\n      add\n      mload(0x40)\n      swap1\n      dup2\n      add\n      0x40\n      mstore\n      dup1\n      swap3\n      swap2\n      swap1\n      dup2\n      dup2\n      mstore\n      0x20\n      add\n      dup3\n      dup1\n      sload\n      tag_78\n      swap1\n      tag_77\n      jump\t// in\n    tag_78:\n      dup1\n      iszero\n      tag_79\n      jumpi\n      dup1\n      0x1f\n      lt\n      tag_80\n      jumpi\n      0x0100\n      dup1\n      dup4\n      sload\n      div\n      mul\n      dup4\n      mstore\n      swap2\n      0x20\n      add\n      swap2\n      jump(tag_79)\n    tag_80:\n      dup3\n      add\n      swap2\n      swap1\n      0x00\n      mstore\n      keccak256(0x00, 0x20)\n      swap1\n    tag_81:\n      dup2\n      sload\n      dup2\n      mstore\n      swap1\n      0x01\n      add\n      swap1\n      0x20\n      add\n      dup1\n      dup4\n      gt\n      tag_81\n      jumpi\n      dup3\n      swap1\n      sub\n      0x1f\n      and\n      dup3\n      add\n      swap2\n    tag_79:\n      pop\n      pop\n      pop\n      pop\n      pop\n      swap1\n      dup1\n      0x01\n      add\n      sload\n      swap1\n      pop\n      dup3\n      jump\t// out\n        /* \".git/MyContracts/Voting.sol\":2111:2986  function delegate(address to) external {... */\n    tag_31:\n        /* \".git/MyContracts/Voting.sol\":2191:2201  msg.sender */\n      caller\n        /* \".git/MyContracts/Voting.sol\":2161:2181  Voter storage sender */\n      0x00\n        /* \".git/MyContracts/Voting.sol\":2184:2202  voters[msg.sender] */\n      swap1\n      dup2\n      mstore\n        /* \".git/MyContracts/Voting.sol\":2184:2190  voters */\n      0x01\n        /* \".git/MyContracts/Voting.sol\":2184:2202  voters[msg.sender] */\n      0x20\n      mstore\n      0x40\n      swap1\n      keccak256\n        /* \".git/MyContracts/Voting.sol\":2223:2236  sender.weight */\n      dup1\n      sload\n        /* \".git/MyContracts/Voting.sol\":2215:2270  require(sender.weight > 0, \"You have no right to vote\") */\n      tag_83\n      jumpi\n      mload(0x40)\n      shl(0xe5, 0x461bcd)\n      dup2\n      mstore\n        /* \"#utility.yul\":2329:2331   */\n      0x20\n        /* \".git/MyContracts/Voting.sol\":2215:2270  require(sender.weight > 0, \"You have no right to vote\") */\n      0x04\n      dup3\n      add\n        /* \"#utility.yul\":2311:2332   */\n      mstore\n        /* \"#utility.yul\":2368:2370   */\n      0x19\n        /* \"#utility.yul\":2348:2366   */\n      0x24\n      dup3\n      add\n        /* \"#utility.yul\":2341:2371   */\n      mstore\n      shl(0x38, 0x596f752068617665206e6f20726967687420746f20766f7465)\n        /* \"#utility.yul\":2387:2405   */\n      0x44\n      dup3\n      add\n        /* \"#utility.yul\":2380:2435   */\n      mstore\n        /* \"#utility.yul\":2452:2470   */\n      0x64\n      add\n        /* \".git/MyContracts/Voting.sol\":2215:2270  require(sender.weight > 0, \"You have no right to vote\") */\n      tag_60\n        /* \"#utility.yul\":2127:2476   */\n      jump\n        /* \".git/MyContracts/Voting.sol\":2215:2270  require(sender.weight > 0, \"You have no right to vote\") */\n    tag_83:\n        /* \".git/MyContracts/Voting.sol\":2290:2302  sender.voted */\n      0x01\n      dup2\n      add\n      sload\n      0xff\n      and\n        /* \".git/MyContracts/Voting.sol\":2289:2302  !sender.voted */\n      iszero\n        /* \".git/MyContracts/Voting.sol\":2281:2324  require(!sender.voted, \"You already voted\") */\n      tag_85\n      jumpi\n      mload(0x40)\n      shl(0xe5, 0x461bcd)\n      dup2\n      mstore\n        /* \"#utility.yul\":2683:2685   */\n      0x20\n        /* \".git/MyContracts/Voting.sol\":2281:2324  require(!sender.voted, \"You already voted\") */\n      0x04\n      dup3\n      add\n        /* \"#utility.yul\":2665:2686   */\n      mstore\n        /* \"#utility.yul\":2722:2724   */\n      0x11\n        /* \"#utility.yul\":2702:2720   */\n      0x24\n      dup3\n      add\n        /* \"#utility.yul\":2695:2725   */\n      mstore\n      shl(0x7a, 0x165bdd48185b1c9958591e481d9bdd1959)\n        /* \"#utility.yul\":2741:2759   */\n      0x44\n      dup3\n      add\n        /* \"#utility.yul\":2734:2781   */\n      mstore\n        /* \"#utility.yul\":2798:2816   */\n      0x64\n      add\n        /* \".git/MyContracts/Voting.sol\":2281:2324  require(!sender.voted, \"You already voted\") */\n      tag_60\n        /* \"#utility.yul\":2481:2822   */\n      jump\n        /* \".git/MyContracts/Voting.sol\":2281:2324  require(!sender.voted, \"You already voted\") */\n    tag_85:\n        /* \".git/MyContracts/Voting.sol\":2349:2359  msg.sender */\n      caller\n      sub(shl(0xa0, 0x01), 0x01)\n        /* \".git/MyContracts/Voting.sol\":2343:2359  to != msg.sender */\n      dup4\n      and\n      sub\n        /* \".git/MyContracts/Voting.sol\":2335:2394  require(to != msg.sender, \"Self-delegation is not allowed\") */\n      tag_87\n      jumpi\n      mload(0x40)\n      shl(0xe5, 0x461bcd)\n      dup2\n      mstore\n        /* \"#utility.yul\":4124:4126   */\n      0x20\n        /* \".git/MyContracts/Voting.sol\":2335:2394  require(to != msg.sender, \"Self-delegation is not allowed\") */\n      0x04\n      dup3\n      add\n        /* \"#utility.yul\":4106:4127   */\n      mstore\n        /* \"#utility.yul\":4163:4165   */\n      0x1e\n        /* \"#utility.yul\":4143:4161   */\n      0x24\n      dup3\n      add\n        /* \"#utility.yul\":4136:4166   */\n      mstore\n        /* \"#utility.yul\":4202:4234   */\n      0x53656c662d64656c65676174696f6e206973206e6f7420616c6c6f7765640000\n        /* \"#utility.yul\":4182:4200   */\n      0x44\n      dup3\n      add\n        /* \"#utility.yul\":4175:4235   */\n      mstore\n        /* \"#utility.yul\":4252:4270   */\n      0x64\n      add\n        /* \".git/MyContracts/Voting.sol\":2335:2394  require(to != msg.sender, \"Self-delegation is not allowed\") */\n      tag_60\n        /* \"#utility.yul\":3922:4276   */\n      jump\n        /* \".git/MyContracts/Voting.sol\":2335:2394  require(to != msg.sender, \"Self-delegation is not allowed\") */\n    tag_87:\n      sub(shl(0xa0, 0x01), 0x01)\n        /* \".git/MyContracts/Voting.sol\":2414:2424  voters[to] */\n      dup3\n      dup2\n      and\n        /* \".git/MyContracts/Voting.sol\":2445:2446  0 */\n      0x00\n        /* \".git/MyContracts/Voting.sol\":2414:2424  voters[to] */\n      swap1\n      dup2\n      mstore\n        /* \".git/MyContracts/Voting.sol\":2414:2420  voters */\n      0x01\n        /* \".git/MyContracts/Voting.sol\":2414:2424  voters[to] */\n      0x20\n      dup2\n      swap1\n      mstore\n      0x40\n      swap1\n      swap2\n      keccak256\n        /* \".git/MyContracts/Voting.sol\":2414:2433  voters[to].delegate */\n      add\n      sload\n      0x0100\n      swap1\n      div\n      and\n        /* \".git/MyContracts/Voting.sol\":2414:2447  voters[to].delegate != address(0) */\n      iszero\n        /* \".git/MyContracts/Voting.sol\":2407:2568  while (voters[to].delegate != address(0)) {... */\n      tag_91\n      jumpi\n      sub(shl(0xa0, 0x01), 0x01)\n        /* \".git/MyContracts/Voting.sol\":2469:2479  voters[to] */\n      swap2\n      dup3\n      and\n      0x00\n      swap1\n      dup2\n      mstore\n        /* \".git/MyContracts/Voting.sol\":2469:2475  voters */\n      0x01\n        /* \".git/MyContracts/Voting.sol\":2469:2479  voters[to] */\n      0x20\n      dup2\n      swap1\n      mstore\n      0x40\n      swap1\n      swap2\n      keccak256\n        /* \".git/MyContracts/Voting.sol\":2469:2488  voters[to].delegate */\n      add\n      sload\n      0x0100\n      swap1\n      div\n      swap1\n      swap2\n      and\n      swap1\n        /* \".git/MyContracts/Voting.sol\":2517:2527  msg.sender */\n      caller\n        /* \".git/MyContracts/Voting.sol\":2511:2527  to != msg.sender */\n      dup3\n      sub\n        /* \".git/MyContracts/Voting.sol\":2503:2556  require(to != msg.sender, \"Delegation loop detected\") */\n      tag_92\n      jumpi\n      mload(0x40)\n      shl(0xe5, 0x461bcd)\n      dup2\n      mstore\n        /* \"#utility.yul\":4483:4485   */\n      0x20\n        /* \".git/MyContracts/Voting.sol\":2503:2556  require(to != msg.sender, \"Delegation loop detected\") */\n      0x04\n      dup3\n      add\n        /* \"#utility.yul\":4465:4486   */\n      mstore\n        /* \"#utility.yul\":4522:4524   */\n      0x18\n        /* \"#utility.yul\":4502:4520   */\n      0x24\n      dup3\n      add\n        /* \"#utility.yul\":4495:4525   */\n      mstore\n        /* \"#utility.yul\":4561:4587   */\n      0x44656c65676174696f6e206c6f6f702064657465637465640000000000000000\n        /* \"#utility.yul\":4541:4559   */\n      0x44\n      dup3\n      add\n        /* \"#utility.yul\":4534:4588   */\n      mstore\n        /* \"#utility.yul\":4605:4623   */\n      0x64\n      add\n        /* \".git/MyContracts/Voting.sol\":2503:2556  require(to != msg.sender, \"Delegation loop detected\") */\n      tag_60\n        /* \"#utility.yul\":4281:4629   */\n      jump\n        /* \".git/MyContracts/Voting.sol\":2503:2556  require(to != msg.sender, \"Delegation loop detected\") */\n    tag_92:\n        /* \".git/MyContracts/Voting.sol\":2407:2568  while (voters[to].delegate != address(0)) {... */\n      jump(tag_87)\n    tag_91:\n      sub(shl(0xa0, 0x01), 0x01)\n        /* \".git/MyContracts/Voting.sol\":2606:2616  voters[to] */\n      dup3\n      and\n        /* \".git/MyContracts/Voting.sol\":2580:2603  Voter storage delegate_ */\n      0x00\n        /* \".git/MyContracts/Voting.sol\":2606:2616  voters[to] */\n      swap1\n      dup2\n      mstore\n        /* \".git/MyContracts/Voting.sol\":2606:2612  voters */\n      0x01\n        /* \".git/MyContracts/Voting.sol\":2606:2616  voters[to] */\n      0x20\n      dup2\n      swap1\n      mstore\n      0x40\n      swap1\n      swap2\n      keccak256\n        /* \".git/MyContracts/Voting.sol\":2635:2651  delegate_.weight */\n      dup1\n      sload\n        /* \".git/MyContracts/Voting.sol\":2606:2616  voters[to] */\n      swap1\n      swap2\n      gt\n        /* \".git/MyContracts/Voting.sol\":2635:2656  delegate_.weight >= 1 */\n      iszero\n        /* \".git/MyContracts/Voting.sol\":2627:2690  require(delegate_.weight >= 1, \"Delegate has no right to vote\") */\n      tag_95\n      jumpi\n      mload(0x40)\n      shl(0xe5, 0x461bcd)\n      dup2\n      mstore\n        /* \"#utility.yul\":4836:4838   */\n      0x20\n        /* \".git/MyContracts/Voting.sol\":2627:2690  require(delegate_.weight >= 1, \"Delegate has no right to vote\") */\n      0x04\n      dup3\n      add\n        /* \"#utility.yul\":4818:4839   */\n      mstore\n        /* \"#utility.yul\":4875:4877   */\n      0x1d\n        /* \"#utility.yul\":4855:4873   */\n      0x24\n      dup3\n      add\n        /* \"#utility.yul\":4848:4878   */\n      mstore\n        /* \"#utility.yul\":4914:4945   */\n      0x44656c656761746520686173206e6f20726967687420746f20766f7465000000\n        /* \"#utility.yul\":4894:4912   */\n      0x44\n      dup3\n      add\n        /* \"#utility.yul\":4887:4946   */\n      mstore\n        /* \"#utility.yul\":4963:4981   */\n      0x64\n      add\n        /* \".git/MyContracts/Voting.sol\":2627:2690  require(delegate_.weight >= 1, \"Delegate has no right to vote\") */\n      tag_60\n        /* \"#utility.yul\":4634:4987   */\n      jump\n        /* \".git/MyContracts/Voting.sol\":2627:2690  require(delegate_.weight >= 1, \"Delegate has no right to vote\") */\n    tag_95:\n        /* \".git/MyContracts/Voting.sol\":2718:2722  true */\n      0x01\n        /* \".git/MyContracts/Voting.sol\":2703:2715  sender.voted */\n      dup3\n      dup2\n      add\n        /* \".git/MyContracts/Voting.sol\":2703:2722  sender.voted = true */\n      dup1\n      sload\n      not(sub(shl(0xa8, 0x01), 0x01))\n        /* \".git/MyContracts/Voting.sol\":2733:2753  sender.delegate = to */\n      and\n        /* \".git/MyContracts/Voting.sol\":2703:2722  sender.voted = true */\n      0x0100\n      sub(shl(0xa0, 0x01), 0x01)\n        /* \".git/MyContracts/Voting.sol\":2733:2753  sender.delegate = to */\n      dup8\n      and\n      mul\n      or\n      dup3\n      or\n      swap1\n      sstore\n        /* \".git/MyContracts/Voting.sol\":2770:2785  delegate_.voted */\n      dup2\n      add\n      sload\n        /* \".git/MyContracts/Voting.sol\":2703:2722  sender.voted = true */\n      0xff\n        /* \".git/MyContracts/Voting.sol\":2770:2785  delegate_.voted */\n      and\n        /* \".git/MyContracts/Voting.sol\":2766:2932  if (delegate_.voted) {... */\n      iszero\n      tag_98\n      jumpi\n        /* \".git/MyContracts/Voting.sol\":2841:2854  sender.weight */\n      dup2\n      sload\n        /* \".git/MyContracts/Voting.sol\":2802:2811  proposals */\n      0x02\n        /* \".git/MyContracts/Voting.sol\":2812:2826  delegate_.vote */\n      dup3\n      dup2\n      add\n      sload\n        /* \".git/MyContracts/Voting.sol\":2802:2827  proposals[delegate_.vote] */\n      dup2\n      sload\n      dup2\n      lt\n      tag_100\n      jumpi\n      tag_100\n      tag_70\n      jump\t// in\n    tag_100:\n      swap1\n      0x00\n      mstore\n      keccak256(0x00, 0x20)\n      swap1\n      0x02\n      mul\n      add\n        /* \".git/MyContracts/Voting.sol\":2802:2837  proposals[delegate_.vote].voteCount */\n      0x01\n      add\n      0x00\n        /* \".git/MyContracts/Voting.sol\":2802:2854  proposals[delegate_.vote].voteCount += sender.weight */\n      dup3\n      dup3\n      sload\n      tag_102\n      swap2\n      swap1\n      tag_73\n      jump\t// in\n    tag_102:\n      swap1\n      swap2\n      sstore\n      pop\n        /* \".git/MyContracts/Voting.sol\":2766:2932  if (delegate_.voted) {... */\n      tag_103\n      swap1\n      pop\n      jump\n    tag_98:\n        /* \".git/MyContracts/Voting.sol\":2907:2920  sender.weight */\n      dup2\n      sload\n        /* \".git/MyContracts/Voting.sol\":2887:2920  delegate_.weight += sender.weight */\n      dup2\n      sload\n        /* \".git/MyContracts/Voting.sol\":2887:2896  delegate_ */\n      dup3\n      swap1\n        /* \".git/MyContracts/Voting.sol\":2907:2920  sender.weight */\n      0x00\n      swap1\n        /* \".git/MyContracts/Voting.sol\":2887:2920  delegate_.weight += sender.weight */\n      tag_104\n      swap1\n        /* \".git/MyContracts/Voting.sol\":2907:2920  sender.weight */\n      dup5\n      swap1\n        /* \".git/MyContracts/Voting.sol\":2887:2920  delegate_.weight += sender.weight */\n      tag_73\n      jump\t// in\n    tag_104:\n      swap1\n      swap2\n      sstore\n      pop\n      pop\n        /* \".git/MyContracts/Voting.sol\":2766:2932  if (delegate_.voted) {... */\n    tag_103:\n        /* \".git/MyContracts/Voting.sol\":2949:2978  VoteDelegated(msg.sender, to) */\n      mload(0x40)\n      sub(shl(0xa0, 0x01), 0x01)\n      dup5\n      and\n      swap1\n        /* \".git/MyContracts/Voting.sol\":2963:2973  msg.sender */\n      caller\n      swap1\n        /* \".git/MyContracts/Voting.sol\":2949:2978  VoteDelegated(msg.sender, to) */\n      0xa0ff2fa6909fe4ddd94349fc9d8e2932f3dfe666216f3cc2aa3a72f5a03b655e\n      swap1\n      0x00\n      swap1\n      log3\n        /* \".git/MyContracts/Voting.sol\":2150:2986  {... */\n      pop\n      pop\n        /* \".git/MyContracts/Voting.sol\":2111:2986  function delegate(address to) external {... */\n      pop\n      jump\t// out\n        /* \".git/MyContracts/Voting.sol\":4785:5210  function transferChairperson(address newChairperson) external onlyChairperson {... */\n    tag_34:\n        /* \".git/MyContracts/Voting.sol\":921:932  chairperson */\n      and(sub(shl(0xa0, 0x01), 0x01), sload(0x00))\n        /* \".git/MyContracts/Voting.sol\":907:917  msg.sender */\n      caller\n        /* \".git/MyContracts/Voting.sol\":907:932  msg.sender == chairperson */\n      eq\n        /* \".git/MyContracts/Voting.sol\":899:977  require(msg.sender == chairperson, \"Only chairperson can perform this action\") */\n      tag_106\n      jumpi\n      mload(0x40)\n      shl(0xe5, 0x461bcd)\n      dup2\n      mstore\n      0x04\n      add\n      tag_60\n      swap1\n      tag_108\n      jump\t// in\n    tag_106:\n      sub(shl(0xa0, 0x01), 0x01)\n        /* \".git/MyContracts/Voting.sol\":4882:4910  newChairperson != address(0) */\n      dup2\n      and\n        /* \".git/MyContracts/Voting.sol\":4874:4930  require(newChairperson != address(0), \"Invalid address\") */\n      tag_110\n      jumpi\n      mload(0x40)\n      shl(0xe5, 0x461bcd)\n      dup2\n      mstore\n        /* \"#utility.yul\":5603:5605   */\n      0x20\n        /* \".git/MyContracts/Voting.sol\":4874:4930  require(newChairperson != address(0), \"Invalid address\") */\n      0x04\n      dup3\n      add\n        /* \"#utility.yul\":5585:5606   */\n      mstore\n        /* \"#utility.yul\":5642:5644   */\n      0x0f\n        /* \"#utility.yul\":5622:5640   */\n      0x24\n      dup3\n      add\n        /* \"#utility.yul\":5615:5645   */\n      mstore\n      shl(0x88, 0x496e76616c69642061646472657373)\n        /* \"#utility.yul\":5661:5679   */\n      0x44\n      dup3\n      add\n        /* \"#utility.yul\":5654:5699   */\n      mstore\n        /* \"#utility.yul\":5716:5734   */\n      0x64\n      add\n        /* \".git/MyContracts/Voting.sol\":4874:4930  require(newChairperson != address(0), \"Invalid address\") */\n      tag_60\n        /* \"#utility.yul\":5401:5740   */\n      jump\n        /* \".git/MyContracts/Voting.sol\":4874:4930  require(newChairperson != address(0), \"Invalid address\") */\n    tag_110:\n        /* \".git/MyContracts/Voting.sol\":4943:4965  address oldChairperson */\n      0x00\n        /* \".git/MyContracts/Voting.sol\":4968:4979  chairperson */\n      dup1\n      sload\n      sub(shl(0xa0, 0x01), 0x01)\n        /* \".git/MyContracts/Voting.sol\":4990:5018  chairperson = newChairperson */\n      dup4\n      dup2\n      and\n      not(sub(shl(0xa0, 0x01), 0x01))\n      dup4\n      and\n      dup2\n      or\n      dup5\n      sstore\n        /* \".git/MyContracts/Voting.sol\":5035:5057  voters[newChairperson] */\n      dup4\n      mstore\n        /* \".git/MyContracts/Voting.sol\":4968:4979  chairperson */\n      0x01\n        /* \".git/MyContracts/Voting.sol\":5035:5057  voters[newChairperson] */\n      0x20\n      mstore\n      0x40\n      dup4\n      keccak256\n        /* \".git/MyContracts/Voting.sol\":5035:5064  voters[newChairperson].weight */\n      sload\n        /* \".git/MyContracts/Voting.sol\":4968:4979  chairperson */\n      swap2\n      and\n      swap2\n        /* \".git/MyContracts/Voting.sol\":5035:5069  voters[newChairperson].weight == 0 */\n      sub\n        /* \".git/MyContracts/Voting.sol\":5031:5131  if (voters[newChairperson].weight == 0) {... */\n      tag_113\n      jumpi\n      sub(shl(0xa0, 0x01), 0x01)\n        /* \".git/MyContracts/Voting.sol\":5086:5108  voters[newChairperson] */\n      dup3\n      and\n      0x00\n      swap1\n      dup2\n      mstore\n        /* \".git/MyContracts/Voting.sol\":5118:5119  1 */\n      0x01\n        /* \".git/MyContracts/Voting.sol\":5086:5108  voters[newChairperson] */\n      0x20\n      dup2\n      swap1\n      mstore\n      0x40\n      swap1\n      swap2\n      keccak256\n        /* \".git/MyContracts/Voting.sol\":5086:5119  voters[newChairperson].weight = 1 */\n      sstore\n        /* \".git/MyContracts/Voting.sol\":5031:5131  if (voters[newChairperson].weight == 0) {... */\n    tag_113:\n        /* \".git/MyContracts/Voting.sol\":5187:5201  newChairperson */\n      dup2\n      sub(shl(0xa0, 0x01), 0x01)\n        /* \".git/MyContracts/Voting.sol\":5148:5202  ChairpersonTransferred(oldChairperson, newChairperson) */\n      and\n        /* \".git/MyContracts/Voting.sol\":5171:5185  oldChairperson */\n      dup2\n      sub(shl(0xa0, 0x01), 0x01)\n        /* \".git/MyContracts/Voting.sol\":5148:5202  ChairpersonTransferred(oldChairperson, newChairperson) */\n      and\n      0x8846b6d32a102a467f880daa3eec7654c2a1c6df6e2f9eb4c9b7802e87178444\n      mload(0x40)\n      mload(0x40)\n      dup1\n      swap2\n      sub\n      swap1\n      log3\n        /* \".git/MyContracts/Voting.sol\":4863:5210  {... */\n      pop\n        /* \".git/MyContracts/Voting.sol\":4785:5210  function transferChairperson(address newChairperson) external onlyChairperson {... */\n      pop\n      jump\t// out\n        /* \".git/MyContracts/Voting.sol\":3606:3974  function winningProposal() public view returns (uint256 winningProposal_) {... */\n    tag_36:\n        /* \".git/MyContracts/Voting.sol\":3654:3678  uint256 winningProposal_ */\n      0x00\n      dup1\n      dup1\n        /* \".git/MyContracts/Voting.sol\":3732:3967  for (uint256 p = 0; p < proposals.length; p++) {... */\n    tag_115:\n        /* \".git/MyContracts/Voting.sol\":3756:3765  proposals */\n      0x02\n        /* \".git/MyContracts/Voting.sol\":3756:3772  proposals.length */\n      sload\n        /* \".git/MyContracts/Voting.sol\":3752:3772  p < proposals.length */\n      dup2\n      lt\n        /* \".git/MyContracts/Voting.sol\":3732:3967  for (uint256 p = 0; p < proposals.length; p++) {... */\n      iszero\n      tag_116\n      jumpi\n        /* \".git/MyContracts/Voting.sol\":3823:3839  winningVoteCount */\n      dup2\n        /* \".git/MyContracts/Voting.sol\":3798:3807  proposals */\n      0x02\n        /* \".git/MyContracts/Voting.sol\":3808:3809  p */\n      dup3\n        /* \".git/MyContracts/Voting.sol\":3798:3810  proposals[p] */\n      dup2\n      sload\n      dup2\n      lt\n      tag_119\n      jumpi\n      tag_119\n      tag_70\n      jump\t// in\n    tag_119:\n      swap1\n      0x00\n      mstore\n      keccak256(0x00, 0x20)\n      swap1\n      0x02\n      mul\n      add\n        /* \".git/MyContracts/Voting.sol\":3798:3820  proposals[p].voteCount */\n      0x01\n      add\n      sload\n        /* \".git/MyContracts/Voting.sol\":3798:3839  proposals[p].voteCount > winningVoteCount */\n      gt\n        /* \".git/MyContracts/Voting.sol\":3794:3956  if (proposals[p].voteCount > winningVoteCount) {... */\n      iszero\n      tag_121\n      jumpi\n        /* \".git/MyContracts/Voting.sol\":3879:3888  proposals */\n      0x02\n        /* \".git/MyContracts/Voting.sol\":3889:3890  p */\n      dup2\n        /* \".git/MyContracts/Voting.sol\":3879:3891  proposals[p] */\n      dup2\n      sload\n      dup2\n      lt\n      tag_123\n      jumpi\n      tag_123\n      tag_70\n      jump\t// in\n    tag_123:\n      swap1\n      0x00\n      mstore\n      keccak256(0x00, 0x20)\n      swap1\n      0x02\n      mul\n      add\n        /* \".git/MyContracts/Voting.sol\":3879:3901  proposals[p].voteCount */\n      0x01\n      add\n      sload\n        /* \".git/MyContracts/Voting.sol\":3860:3901  winningVoteCount = proposals[p].voteCount */\n      swap2\n      pop\n        /* \".git/MyContracts/Voting.sol\":3939:3940  p */\n      dup1\n        /* \".git/MyContracts/Voting.sol\":3920:3940  winningProposal_ = p */\n      swap3\n      pop\n        /* \".git/MyContracts/Voting.sol\":3794:3956  if (proposals[p].voteCount > winningVoteCount) {... */\n    tag_121:\n        /* \".git/MyContracts/Voting.sol\":3774:3777  p++ */\n      0x01\n      add\n        /* \".git/MyContracts/Voting.sol\":3732:3967  for (uint256 p = 0; p < proposals.length; p++) {... */\n      jump(tag_115)\n    tag_116:\n      pop\n        /* \".git/MyContracts/Voting.sol\":3680:3974  {... */\n      pop\n        /* \".git/MyContracts/Voting.sol\":3606:3974  function winningProposal() public view returns (uint256 winningProposal_) {... */\n      swap1\n      jump\t// out\n        /* \".git/MyContracts/Voting.sol\":1676:2035  function giveRightToVote(address voter) external onlyChairperson {... */\n    tag_41:\n        /* \".git/MyContracts/Voting.sol\":921:932  chairperson */\n      and(sub(shl(0xa0, 0x01), 0x01), sload(0x00))\n        /* \".git/MyContracts/Voting.sol\":907:917  msg.sender */\n      caller\n        /* \".git/MyContracts/Voting.sol\":907:932  msg.sender == chairperson */\n      eq\n        /* \".git/MyContracts/Voting.sol\":899:977  require(msg.sender == chairperson, \"Only chairperson can perform this action\") */\n      tag_126\n      jumpi\n      mload(0x40)\n      shl(0xe5, 0x461bcd)\n      dup2\n      mstore\n      0x04\n      add\n      tag_60\n      swap1\n      tag_108\n      jump\t// in\n    tag_126:\n      sub(shl(0xa0, 0x01), 0x01)\n        /* \".git/MyContracts/Voting.sol\":1760:1779  voter != address(0) */\n      dup2\n      and\n        /* \".git/MyContracts/Voting.sol\":1752:1805  require(voter != address(0), \"Invalid voter address\") */\n      tag_129\n      jumpi\n      mload(0x40)\n      shl(0xe5, 0x461bcd)\n      dup2\n      mstore\n        /* \"#utility.yul\":5947:5949   */\n      0x20\n        /* \".git/MyContracts/Voting.sol\":1752:1805  require(voter != address(0), \"Invalid voter address\") */\n      0x04\n      dup3\n      add\n        /* \"#utility.yul\":5929:5950   */\n      mstore\n        /* \"#utility.yul\":5986:5988   */\n      0x15\n        /* \"#utility.yul\":5966:5984   */\n      0x24\n      dup3\n      add\n        /* \"#utility.yul\":5959:5989   */\n      mstore\n      shl(0x58, 0x496e76616c696420766f7465722061646472657373)\n        /* \"#utility.yul\":6005:6023   */\n      0x44\n      dup3\n      add\n        /* \"#utility.yul\":5998:6049   */\n      mstore\n        /* \"#utility.yul\":6066:6084   */\n      0x64\n      add\n        /* \".git/MyContracts/Voting.sol\":1752:1805  require(voter != address(0), \"Invalid voter address\") */\n      tag_60\n        /* \"#utility.yul\":5745:6090   */\n      jump\n        /* \".git/MyContracts/Voting.sol\":1752:1805  require(voter != address(0), \"Invalid voter address\") */\n    tag_129:\n      sub(shl(0xa0, 0x01), 0x01)\n        /* \".git/MyContracts/Voting.sol\":1825:1838  voters[voter] */\n      dup2\n      and\n      0x00\n      swap1\n      dup2\n      mstore\n        /* \".git/MyContracts/Voting.sol\":1825:1831  voters */\n      0x01\n        /* \".git/MyContracts/Voting.sol\":1825:1838  voters[voter] */\n      0x20\n      dup2\n      swap1\n      mstore\n      0x40\n      swap1\n      swap2\n      keccak256\n        /* \".git/MyContracts/Voting.sol\":1825:1844  voters[voter].voted */\n      add\n      sload\n      0xff\n      and\n        /* \".git/MyContracts/Voting.sol\":1824:1844  !voters[voter].voted */\n      iszero\n        /* \".git/MyContracts/Voting.sol\":1816:1872  require(!voters[voter].voted, \"Voter has already voted\") */\n      tag_132\n      jumpi\n      mload(0x40)\n      shl(0xe5, 0x461bcd)\n      dup2\n      mstore\n        /* \"#utility.yul\":6297:6299   */\n      0x20\n        /* \".git/MyContracts/Voting.sol\":1816:1872  require(!voters[voter].voted, \"Voter has already voted\") */\n      0x04\n      dup3\n      add\n        /* \"#utility.yul\":6279:6300   */\n      mstore\n        /* \"#utility.yul\":6336:6338   */\n      0x17\n        /* \"#utility.yul\":6316:6334   */\n      0x24\n      dup3\n      add\n        /* \"#utility.yul\":6309:6339   */\n      mstore\n        /* \"#utility.yul\":6375:6400   */\n      0x566f7465722068617320616c726561647920766f746564000000000000000000\n        /* \"#utility.yul\":6355:6373   */\n      0x44\n      dup3\n      add\n        /* \"#utility.yul\":6348:6401   */\n      mstore\n        /* \"#utility.yul\":6418:6436   */\n      0x64\n      add\n        /* \".git/MyContracts/Voting.sol\":1816:1872  require(!voters[voter].voted, \"Voter has already voted\") */\n      tag_60\n        /* \"#utility.yul\":6095:6442   */\n      jump\n        /* \".git/MyContracts/Voting.sol\":1816:1872  require(!voters[voter].voted, \"Voter has already voted\") */\n    tag_132:\n      sub(shl(0xa0, 0x01), 0x01)\n        /* \".git/MyContracts/Voting.sol\":1891:1904  voters[voter] */\n      dup2\n      and\n      0x00\n      swap1\n      dup2\n      mstore\n        /* \".git/MyContracts/Voting.sol\":1891:1897  voters */\n      0x01\n        /* \".git/MyContracts/Voting.sol\":1891:1904  voters[voter] */\n      0x20\n      mstore\n      0x40\n      swap1\n      keccak256\n        /* \".git/MyContracts/Voting.sol\":1891:1911  voters[voter].weight */\n      sload\n        /* \".git/MyContracts/Voting.sol\":1891:1916  voters[voter].weight == 0 */\n      iszero\n        /* \".git/MyContracts/Voting.sol\":1883:1952  require(voters[voter].weight == 0, \"Voter already has voting rights\") */\n      tag_135\n      jumpi\n      mload(0x40)\n      shl(0xe5, 0x461bcd)\n      dup2\n      mstore\n        /* \"#utility.yul\":6649:6651   */\n      0x20\n        /* \".git/MyContracts/Voting.sol\":1883:1952  require(voters[voter].weight == 0, \"Voter already has voting rights\") */\n      0x04\n      dup3\n      add\n        /* \"#utility.yul\":6631:6652   */\n      mstore\n        /* \"#utility.yul\":6688:6690   */\n      0x1f\n        /* \"#utility.yul\":6668:6686   */\n      0x24\n      dup3\n      add\n        /* \"#utility.yul\":6661:6691   */\n      mstore\n        /* \"#utility.yul\":6727:6760   */\n      0x566f74657220616c72656164792068617320766f74696e672072696768747300\n        /* \"#utility.yul\":6707:6725   */\n      0x44\n      dup3\n      add\n        /* \"#utility.yul\":6700:6761   */\n      mstore\n        /* \"#utility.yul\":6778:6796   */\n      0x64\n      add\n        /* \".git/MyContracts/Voting.sol\":1883:1952  require(voters[voter].weight == 0, \"Voter already has voting rights\") */\n      tag_60\n        /* \"#utility.yul\":6447:6802   */\n      jump\n        /* \".git/MyContracts/Voting.sol\":1883:1952  require(voters[voter].weight == 0, \"Voter already has voting rights\") */\n    tag_135:\n      sub(shl(0xa0, 0x01), 0x01)\n        /* \".git/MyContracts/Voting.sol\":1965:1978  voters[voter] */\n      dup2\n      and\n      0x00\n      dup2\n      dup2\n      mstore\n        /* \".git/MyContracts/Voting.sol\":1988:1989  1 */\n      0x01\n        /* \".git/MyContracts/Voting.sol\":1965:1978  voters[voter] */\n      0x20\n      dup2\n      swap1\n      mstore\n      0x40\n      dup1\n      dup4\n      keccak256\n        /* \".git/MyContracts/Voting.sol\":1965:1989  voters[voter].weight = 1 */\n      swap2\n      swap1\n      swap2\n      sstore\n        /* \".git/MyContracts/Voting.sol\":2005:2027  VoterAuthorized(voter) */\n      mload\n      0x0ca65a9f1f88bd7257ac852d1062853358f81cdc56f9634dcbeed6090f8dfb43\n      swap2\n        /* \".git/MyContracts/Voting.sol\":1965:1978  voters[voter] */\n      swap1\n        /* \".git/MyContracts/Voting.sol\":2005:2027  VoterAuthorized(voter) */\n      log2\n        /* \".git/MyContracts/Voting.sol\":1676:2035  function giveRightToVote(address voter) external onlyChairperson {... */\n      pop\n      jump\t// out\n        /* \".git/MyContracts/Voting.sol\":4437:4699  function getProposal(uint256 index) external view returns (string memory name, uint256 voteCount) {... */\n    tag_52:\n        /* \".git/MyContracts/Voting.sol\":4562:4571  proposals */\n      0x02\n        /* \".git/MyContracts/Voting.sol\":4562:4578  proposals.length */\n      sload\n        /* \".git/MyContracts/Voting.sol\":4496:4514  string memory name */\n      0x60\n      swap1\n        /* \".git/MyContracts/Voting.sol\":4516:4533  uint256 voteCount */\n      0x00\n      swap1\n        /* \".git/MyContracts/Voting.sol\":4554:4578  index < proposals.length */\n      dup4\n      lt\n        /* \".git/MyContracts/Voting.sol\":4546:4605  require(index < proposals.length, \"Invalid proposal index\") */\n      tag_140\n      jumpi\n      mload(0x40)\n      shl(0xe5, 0x461bcd)\n      dup2\n      mstore\n        /* \"#utility.yul\":3029:3031   */\n      0x20\n        /* \".git/MyContracts/Voting.sol\":4546:4605  require(index < proposals.length, \"Invalid proposal index\") */\n      0x04\n      dup3\n      add\n        /* \"#utility.yul\":3011:3032   */\n      mstore\n        /* \"#utility.yul\":3068:3070   */\n      0x16\n        /* \"#utility.yul\":3048:3066   */\n      0x24\n      dup3\n      add\n        /* \"#utility.yul\":3041:3071   */\n      mstore\n      shl(0x53, 0x092dcecc2d8d2c840e0e4dee0dee6c2d840d2dcc8caf)\n        /* \"#utility.yul\":3087:3105   */\n      0x44\n      dup3\n      add\n        /* \"#utility.yul\":3080:3132   */\n      mstore\n        /* \"#utility.yul\":3149:3167   */\n      0x64\n      add\n        /* \".git/MyContracts/Voting.sol\":4546:4605  require(index < proposals.length, \"Invalid proposal index\") */\n      tag_60\n        /* \"#utility.yul\":2827:3173   */\n      jump\n        /* \".git/MyContracts/Voting.sol\":4546:4605  require(index < proposals.length, \"Invalid proposal index\") */\n    tag_140:\n        /* \".git/MyContracts/Voting.sol\":4616:4633  Proposal memory p */\n      0x00\n        /* \".git/MyContracts/Voting.sol\":4636:4645  proposals */\n      0x02\n        /* \".git/MyContracts/Voting.sol\":4646:4651  index */\n      dup5\n        /* \".git/MyContracts/Voting.sol\":4636:4652  proposals[index] */\n      dup2\n      sload\n      dup2\n      lt\n      tag_143\n      jumpi\n      tag_143\n      tag_70\n      jump\t// in\n    tag_143:\n      swap1\n      0x00\n      mstore\n      keccak256(0x00, 0x20)\n      swap1\n      0x02\n      mul\n      add\n        /* \".git/MyContracts/Voting.sol\":4616:4652  Proposal memory p = proposals[index] */\n      mload(0x40)\n      dup1\n      0x40\n      add\n      0x40\n      mstore\n      swap1\n      dup2\n      0x00\n      dup3\n      add\n      dup1\n      sload\n      tag_145\n      swap1\n      tag_77\n      jump\t// in\n    tag_145:\n      dup1\n      0x1f\n      add\n      0x20\n      dup1\n      swap2\n      div\n      mul\n      0x20\n      add\n      mload(0x40)\n      swap1\n      dup2\n      add\n      0x40\n      mstore\n      dup1\n      swap3\n      swap2\n      swap1\n      dup2\n      dup2\n      mstore\n      0x20\n      add\n      dup3\n      dup1\n      sload\n      tag_146\n      swap1\n      tag_77\n      jump\t// in\n    tag_146:\n      dup1\n      iszero\n      tag_147\n      jumpi\n      dup1\n      0x1f\n      lt\n      tag_148\n      jumpi\n      0x0100\n      dup1\n      dup4\n      sload\n      div\n      mul\n      dup4\n      mstore\n      swap2\n      0x20\n      add\n      swap2\n      jump(tag_147)\n    tag_148:\n      dup3\n      add\n      swap2\n      swap1\n      0x00\n      mstore\n      keccak256(0x00, 0x20)\n      swap1\n    tag_149:\n      dup2\n      sload\n      dup2\n      mstore\n      swap1\n      0x01\n      add\n      swap1\n      0x20\n      add\n      dup1\n      dup4\n      gt\n      tag_149\n      jumpi\n      dup3\n      swap1\n      sub\n      0x1f\n      and\n      dup3\n      add\n      swap2\n    tag_147:\n      pop\n      pop\n      pop\n      swap2\n      dup4\n      mstore\n      pop\n      pop\n      0x01\n      swap2\n      swap1\n      swap2\n      add\n      sload\n      0x20\n      swap2\n      dup3\n      add\n      mstore\n        /* \".git/MyContracts/Voting.sol\":4671:4677  p.name */\n      dup2\n      mload\n        /* \".git/MyContracts/Voting.sol\":4679:4690  p.voteCount */\n      swap2\n      add\n      mload\n        /* \".git/MyContracts/Voting.sol\":4671:4677  p.name */\n      swap1\n      swap6\n        /* \".git/MyContracts/Voting.sol\":4679:4690  p.voteCount */\n      swap1\n      swap5\n      pop\n        /* \".git/MyContracts/Voting.sol\":4437:4699  function getProposal(uint256 index) external view returns (string memory name, uint256 voteCount) {... */\n      swap3\n      pop\n      pop\n      pop\n      jump\t// out\n        /* \".git/MyContracts/Voting.sol\":4055:4193  function winnerName() external view returns (string memory winnerName_) {... */\n    tag_55:\n        /* \".git/MyContracts/Voting.sol\":4100:4125  string memory winnerName_ */\n      0x60\n        /* \".git/MyContracts/Voting.sol\":4152:4161  proposals */\n      0x02\n        /* \".git/MyContracts/Voting.sol\":4162:4179  winningProposal() */\n      tag_151\n        /* \".git/MyContracts/Voting.sol\":4162:4177  winningProposal */\n      tag_36\n        /* \".git/MyContracts/Voting.sol\":4162:4179  winningProposal() */\n      jump\t// in\n    tag_151:\n        /* \".git/MyContracts/Voting.sol\":4152:4180  proposals[winningProposal()] */\n      dup2\n      sload\n      dup2\n      lt\n      tag_153\n      jumpi\n      tag_153\n      tag_70\n      jump\t// in\n    tag_153:\n      swap1\n      0x00\n      mstore\n      keccak256(0x00, 0x20)\n      swap1\n      0x02\n      mul\n      add\n        /* \".git/MyContracts/Voting.sol\":4152:4185  proposals[winningProposal()].name */\n      0x00\n      add\n        /* \".git/MyContracts/Voting.sol\":4138:4185  winnerName_ = proposals[winningProposal()].name */\n      dup1\n      sload\n      tag_155\n      swap1\n      tag_77\n      jump\t// in\n    tag_155:\n      dup1\n      0x1f\n      add\n      0x20\n      dup1\n      swap2\n      div\n      mul\n      0x20\n      add\n      mload(0x40)\n      swap1\n      dup2\n      add\n      0x40\n      mstore\n      dup1\n      swap3\n      swap2\n      swap1\n      dup2\n      dup2\n      mstore\n      0x20\n      add\n      dup3\n      dup1\n      sload\n      tag_156\n      swap1\n      tag_77\n      jump\t// in\n    tag_156:\n      dup1\n      iszero\n      tag_157\n      jumpi\n      dup1\n      0x1f\n      lt\n      tag_158\n      jumpi\n      0x0100\n      dup1\n      dup4\n      sload\n      div\n      mul\n      dup4\n      mstore\n      swap2\n      0x20\n      add\n      swap2\n      jump(tag_157)\n    tag_158:\n      dup3\n      add\n      swap2\n      swap1\n      0x00\n      mstore\n      keccak256(0x00, 0x20)\n      swap1\n    tag_159:\n      dup2\n      sload\n      dup2\n      mstore\n      swap1\n      0x01\n      add\n      swap1\n      0x20\n      add\n      dup1\n      dup4\n      gt\n      tag_159\n      jumpi\n      dup3\n      swap1\n      sub\n      0x1f\n      and\n      dup3\n      add\n      swap2\n    tag_157:\n      pop\n      pop\n      pop\n      pop\n      pop\n      swap1\n      pop\n        /* \".git/MyContracts/Voting.sol\":4055:4193  function winnerName() external view returns (string memory winnerName_) {... */\n      swap1\n      jump\t// out\n        /* \"#utility.yul\":14:194   */\n    tag_17:\n        /* \"#utility.yul\":73:79   */\n      0x00\n        /* \"#utility.yul\":126:128   */\n      0x20\n        /* \"#utility.yul\":114:123   */\n      dup3\n        /* \"#utility.yul\":105:112   */\n      dup5\n        /* \"#utility.yul\":101:124   */\n      sub\n        /* \"#utility.yul\":97:129   */\n      slt\n        /* \"#utility.yul\":94:146   */\n      iszero\n      tag_163\n      jumpi\n        /* \"#utility.yul\":142:143   */\n      0x00\n        /* \"#utility.yul\":139:140   */\n      0x00\n        /* \"#utility.yul\":132:144   */\n      revert\n        /* \"#utility.yul\":94:146   */\n    tag_163:\n      pop\n        /* \"#utility.yul\":165:188   */\n      calldataload\n      swap2\n        /* \"#utility.yul\":14:194   */\n      swap1\n      pop\n      jump\t// out\n        /* \"#utility.yul\":199:488   */\n    tag_160:\n        /* \"#utility.yul\":241:244   */\n      0x00\n        /* \"#utility.yul\":279:284   */\n      dup2\n        /* \"#utility.yul\":273:285   */\n      mload\n        /* \"#utility.yul\":306:312   */\n      dup1\n        /* \"#utility.yul\":301:304   */\n      dup5\n        /* \"#utility.yul\":294:313   */\n      mstore\n        /* \"#utility.yul\":362:368   */\n      dup1\n        /* \"#utility.yul\":355:359   */\n      0x20\n        /* \"#utility.yul\":348:353   */\n      dup5\n        /* \"#utility.yul\":344:360   */\n      add\n        /* \"#utility.yul\":337:341   */\n      0x20\n        /* \"#utility.yul\":332:335   */\n      dup7\n        /* \"#utility.yul\":328:342   */\n      add\n        /* \"#utility.yul\":322:369   */\n      mcopy\n        /* \"#utility.yul\":414:415   */\n      0x00\n        /* \"#utility.yul\":407:411   */\n      0x20\n        /* \"#utility.yul\":398:404   */\n      dup3\n        /* \"#utility.yul\":393:396   */\n      dup7\n        /* \"#utility.yul\":389:405   */\n      add\n        /* \"#utility.yul\":385:412   */\n      add\n        /* \"#utility.yul\":378:416   */\n      mstore\n        /* \"#utility.yul\":477:481   */\n      0x20\n        /* \"#utility.yul\":470:472   */\n      0x1f\n        /* \"#utility.yul\":466:473   */\n      not\n        /* \"#utility.yul\":461:463   */\n      0x1f\n        /* \"#utility.yul\":453:459   */\n      dup4\n        /* \"#utility.yul\":449:464   */\n      add\n        /* \"#utility.yul\":445:474   */\n      and\n        /* \"#utility.yul\":440:443   */\n      dup6\n        /* \"#utility.yul\":436:475   */\n      add\n        /* \"#utility.yul\":432:482   */\n      add\n        /* \"#utility.yul\":425:482   */\n      swap2\n      pop\n      pop\n        /* \"#utility.yul\":199:488   */\n      swap3\n      swap2\n      pop\n      pop\n      jump\t// out\n        /* \"#utility.yul\":493:784   */\n    tag_23:\n        /* \"#utility.yul\":670:672   */\n      0x40\n        /* \"#utility.yul\":659:668   */\n      dup2\n        /* \"#utility.yul\":652:673   */\n      mstore\n        /* \"#utility.yul\":633:637   */\n      0x00\n        /* \"#utility.yul\":690:735   */\n      tag_166\n        /* \"#utility.yul\":731:733   */\n      0x40\n        /* \"#utility.yul\":720:729   */\n      dup4\n        /* \"#utility.yul\":716:734   */\n      add\n        /* \"#utility.yul\":708:714   */\n      dup6\n        /* \"#utility.yul\":690:735   */\n      tag_160\n      jump\t// in\n    tag_166:\n        /* \"#utility.yul\":682:735   */\n      swap1\n      pop\n        /* \"#utility.yul\":771:777   */\n      dup3\n        /* \"#utility.yul\":766:768   */\n      0x20\n        /* \"#utility.yul\":755:764   */\n      dup4\n        /* \"#utility.yul\":751:769   */\n      add\n        /* \"#utility.yul\":744:778   */\n      mstore\n        /* \"#utility.yul\":493:784   */\n      swap4\n      swap3\n      pop\n      pop\n      pop\n      jump\t// out\n        /* \"#utility.yul\":997:1283   */\n    tag_30:\n        /* \"#utility.yul\":1056:1062   */\n      0x00\n        /* \"#utility.yul\":1109:1111   */\n      0x20\n        /* \"#utility.yul\":1097:1106   */\n      dup3\n        /* \"#utility.yul\":1088:1095   */\n      dup5\n        /* \"#utility.yul\":1084:1107   */\n      sub\n        /* \"#utility.yul\":1080:1112   */\n      slt\n        /* \"#utility.yul\":1077:1129   */\n      iszero\n      tag_169\n      jumpi\n        /* \"#utility.yul\":1125:1126   */\n      0x00\n        /* \"#utility.yul\":1122:1123   */\n      0x00\n        /* \"#utility.yul\":1115:1127   */\n      revert\n        /* \"#utility.yul\":1077:1129   */\n    tag_169:\n        /* \"#utility.yul\":1151:1174   */\n      dup2\n      calldataload\n      sub(shl(0xa0, 0x01), 0x01)\n        /* \"#utility.yul\":1203:1234   */\n      dup2\n      and\n        /* \"#utility.yul\":1193:1235   */\n      dup2\n      eq\n        /* \"#utility.yul\":1183:1253   */\n      tag_170\n      jumpi\n        /* \"#utility.yul\":1249:1250   */\n      0x00\n        /* \"#utility.yul\":1246:1247   */\n      0x00\n        /* \"#utility.yul\":1239:1251   */\n      revert\n        /* \"#utility.yul\":1183:1253   */\n    tag_170:\n        /* \"#utility.yul\":1272:1277   */\n      swap4\n        /* \"#utility.yul\":997:1283   */\n      swap3\n      pop\n      pop\n      pop\n      jump\t// out\n        /* \"#utility.yul\":1902:2122   */\n    tag_57:\n        /* \"#utility.yul\":2051:2053   */\n      0x20\n        /* \"#utility.yul\":2040:2049   */\n      dup2\n        /* \"#utility.yul\":2033:2054   */\n      mstore\n        /* \"#utility.yul\":2014:2018   */\n      0x00\n        /* \"#utility.yul\":2071:2116   */\n      tag_170\n        /* \"#utility.yul\":2112:2114   */\n      0x20\n        /* \"#utility.yul\":2101:2110   */\n      dup4\n        /* \"#utility.yul\":2097:2115   */\n      add\n        /* \"#utility.yul\":2089:2095   */\n      dup5\n        /* \"#utility.yul\":2071:2116   */\n      tag_160\n      jump\t// in\n        /* \"#utility.yul\":3178:3305   */\n    tag_70:\n        /* \"#utility.yul\":3239:3249   */\n      0x4e487b71\n        /* \"#utility.yul\":3234:3237   */\n      0xe0\n        /* \"#utility.yul\":3230:3250   */\n      shl\n        /* \"#utility.yul\":3227:3228   */\n      0x00\n        /* \"#utility.yul\":3220:3251   */\n      mstore\n        /* \"#utility.yul\":3270:3274   */\n      0x32\n        /* \"#utility.yul\":3267:3268   */\n      0x04\n        /* \"#utility.yul\":3260:3275   */\n      mstore\n        /* \"#utility.yul\":3294:3298   */\n      0x24\n        /* \"#utility.yul\":3291:3292   */\n      0x00\n        /* \"#utility.yul\":3284:3299   */\n      revert\n        /* \"#utility.yul\":3310:3532   */\n    tag_73:\n        /* \"#utility.yul\":3375:3384   */\n      dup1\n      dup3\n      add\n        /* \"#utility.yul\":3396:3406   */\n      dup1\n      dup3\n      gt\n        /* \"#utility.yul\":3393:3526   */\n      iszero\n      tag_180\n      jumpi\n        /* \"#utility.yul\":3448:3458   */\n      0x4e487b71\n        /* \"#utility.yul\":3443:3446   */\n      0xe0\n        /* \"#utility.yul\":3439:3459   */\n      shl\n        /* \"#utility.yul\":3436:3437   */\n      0x00\n        /* \"#utility.yul\":3429:3460   */\n      mstore\n        /* \"#utility.yul\":3483:3487   */\n      0x11\n        /* \"#utility.yul\":3480:3481   */\n      0x04\n        /* \"#utility.yul\":3473:3488   */\n      mstore\n        /* \"#utility.yul\":3511:3515   */\n      0x24\n        /* \"#utility.yul\":3508:3509   */\n      0x00\n        /* \"#utility.yul\":3501:3516   */\n      revert\n        /* \"#utility.yul\":3393:3526   */\n    tag_180:\n        /* \"#utility.yul\":3310:3532   */\n      swap3\n      swap2\n      pop\n      pop\n      jump\t// out\n        /* \"#utility.yul\":3537:3917   */\n    tag_77:\n        /* \"#utility.yul\":3616:3617   */\n      0x01\n        /* \"#utility.yul\":3612:3624   */\n      dup2\n      dup2\n      shr\n      swap1\n        /* \"#utility.yul\":3659:3671   */\n      dup3\n      and\n      dup1\n        /* \"#utility.yul\":3680:3741   */\n      tag_182\n      jumpi\n        /* \"#utility.yul\":3734:3738   */\n      0x7f\n        /* \"#utility.yul\":3726:3732   */\n      dup3\n        /* \"#utility.yul\":3722:3739   */\n      and\n        /* \"#utility.yul\":3712:3739   */\n      swap2\n      pop\n        /* \"#utility.yul\":3680:3741   */\n    tag_182:\n        /* \"#utility.yul\":3787:3789   */\n      0x20\n        /* \"#utility.yul\":3779:3785   */\n      dup3\n        /* \"#utility.yul\":3776:3790   */\n      lt\n        /* \"#utility.yul\":3756:3774   */\n      dup2\n        /* \"#utility.yul\":3753:3791   */\n      sub\n        /* \"#utility.yul\":3750:3911   */\n      tag_183\n      jumpi\n        /* \"#utility.yul\":3833:3843   */\n      0x4e487b71\n        /* \"#utility.yul\":3828:3831   */\n      0xe0\n        /* \"#utility.yul\":3824:3844   */\n      shl\n        /* \"#utility.yul\":3821:3822   */\n      0x00\n        /* \"#utility.yul\":3814:3845   */\n      mstore\n        /* \"#utility.yul\":3868:3872   */\n      0x22\n        /* \"#utility.yul\":3865:3866   */\n      0x04\n        /* \"#utility.yul\":3858:3873   */\n      mstore\n        /* \"#utility.yul\":3896:3900   */\n      0x24\n        /* \"#utility.yul\":3893:3894   */\n      0x00\n        /* \"#utility.yul\":3886:3901   */\n      revert\n        /* \"#utility.yul\":3750:3911   */\n    tag_183:\n      pop\n        /* \"#utility.yul\":3537:3917   */\n      swap2\n      swap1\n      pop\n      jump\t// out\n        /* \"#utility.yul\":4992:5396   */\n    tag_108:\n        /* \"#utility.yul\":5194:5196   */\n      0x20\n        /* \"#utility.yul\":5176:5197   */\n      dup1\n      dup3\n      mstore\n        /* \"#utility.yul\":5233:5235   */\n      0x28\n        /* \"#utility.yul\":5213:5231   */\n      swap1\n      dup3\n      add\n        /* \"#utility.yul\":5206:5236   */\n      mstore\n        /* \"#utility.yul\":5272:5306   */\n      0x4f6e6c79206368616972706572736f6e2063616e20706572666f726d20746869\n        /* \"#utility.yul\":5267:5269   */\n      0x40\n        /* \"#utility.yul\":5252:5270   */\n      dup3\n      add\n        /* \"#utility.yul\":5245:5307   */\n      mstore\n      shl(0xc1, 0x399030b1ba34b7b7)\n        /* \"#utility.yul\":5338:5340   */\n      0x60\n        /* \"#utility.yul\":5323:5341   */\n      dup3\n      add\n        /* \"#utility.yul\":5316:5354   */\n      mstore\n        /* \"#utility.yul\":5386:5389   */\n      0x80\n        /* \"#utility.yul\":5371:5390   */\n      add\n      swap1\n        /* \"#utility.yul\":4992:5396   */\n      jump\t// out\n\n    auxdata: 0xa2646970667358221220cfb34d8fc0c8efe0108d304372f9080a57646ba03a33b802ac18e35c414b483a64736f6c634300081f0033\n}\n",
				"bytecode": {
					"linkReferences": {},
					"object": "608060405234801561000f575f5ffd5b5060405161123d38038061123d83398101604081905261002e91610227565b5f81511161008d5760405162461bcd60e51b815260206004820152602160248201527f4174206c65617374206f6e652070726f706f73616c20697320726571756972656044820152601960fa1b60648201526084015b60405180910390fd5b5f80546001600160a01b03191633908117825581526001602081905260408220555b81518110156101dc575f8282815181106100cb576100cb61034b565b602002602001015151116101215760405162461bcd60e51b815260206004820152601d60248201527f50726f706f73616c206e616d652063616e6e6f7420626520656d7074790000006044820152606401610084565b600260405180604001604052808484815181106101405761014061034b565b60209081029190910181015182525f91810182905283546001810185559382529020815191926002020190819061017790826103e3565b506020820151816001015550507fe8992a719ba38096a6af646873add24c8172489ca954def1b69b5565eb85c1bf8282815181106101b7576101b761034b565b60200260200101516040516101cc919061049d565b60405180910390a16001016100af565b50506104d2565b634e487b7160e01b5f52604160045260245ffd5b604051601f8201601f191681016001600160401b038111828210171561021f5761021f6101e3565b604052919050565b5f60208284031215610237575f5ffd5b81516001600160401b0381111561024c575f5ffd5b8201601f8101841361025c575f5ffd5b80516001600160401b03811115610275576102756101e3565b8060051b610285602082016101f7565b918252602081840181019290810190878411156102a0575f5ffd5b6020850192505b838310156103405782516001600160401b038111156102c4575f5ffd5b8501603f810189136102d4575f5ffd5b60208101516001600160401b038111156102f0576102f06101e3565b610303601f8201601f19166020016101f7565b8181526040838301018b1015610317575f5ffd5b8160408401602083015e5f602083830101528085525050506020820191506020830192506102a7565b979650505050505050565b634e487b7160e01b5f52603260045260245ffd5b600181811c9082168061037357607f821691505b60208210810361039157634e487b7160e01b5f52602260045260245ffd5b50919050565b601f8211156103de57805f5260205f20601f840160051c810160208510156103bc5750805b601f840160051c820191505b818110156103db575f81556001016103c8565b50505b505050565b81516001600160401b038111156103fc576103fc6101e3565b6104108161040a845461035f565b84610397565b6020601f821160018114610442575f831561042b5750848201515b5f19600385901b1c1916600184901b1784556103db565b5f84815260208120601f198516915b828110156104715787850151825560209485019460019092019101610451565b508482101561048e57868401515f19600387901b60f8161c191681555b50505050600190811b01905550565b602081525f82518060208401528060208501604085015e5f604082850101526040601f19601f83011684010191505092915050565b610d5e806104df5f395ff3fe608060405234801561000f575f5ffd5b50600436106100a6575f3560e01c8063609ff1bd1161006e578063609ff1bd146101395780639e7b8d611461014f578063a3ec138d14610162578063c08cc02d146101d2578063c7f758a8146101da578063e2ba53f0146101ed575f5ffd5b80630121b93f146100aa578063013cf08b146100bf5780632e4176cf146100e95780635c19a95c146101135780635d8abde414610126575b5f5ffd5b6100bd6100b8366004610bca565b610202565b005b6100d26100cd366004610bca565b610373565b6040516100e0929190610c0f565b60405180910390f35b5f546100fb906001600160a01b031681565b6040516001600160a01b0390911681526020016100e0565b6100bd610121366004610c30565b610428565b6100bd610134366004610c30565b6106f1565b6101416107f3565b6040519081526020016100e0565b6100bd61015d366004610c30565b610861565b6101a3610170366004610c30565b600160208190525f918252604090912080549181015460029091015460ff82169161010090046001600160a01b03169084565b6040516100e0949392919093845291151560208401526001600160a01b03166040830152606082015260800190565b600254610141565b6100d26101e8366004610bca565b6109ef565b6101f5610b14565b6040516100e09190610c5d565b335f908152600160205260409020805461025f5760405162461bcd60e51b8152602060048201526019602482015278596f752068617665206e6f20726967687420746f20766f746560381b60448201526064015b60405180910390fd5b600181015460ff16156102a85760405162461bcd60e51b8152602060048201526011602482015270165bdd48185b1c9958591e481d9bdd1959607a1b6044820152606401610256565b60025482106102f25760405162461bcd60e51b8152602060048201526016602482015275092dcecc2d8d2c840e0e4dee0dee6c2d840d2dcc8caf60531b6044820152606401610256565b6001818101805460ff191690911790556002808201839055815481549091908490811061032157610321610c6f565b905f5260205f2090600202016001015f82825461033e9190610c83565b9091555050604051829033907fa36cc2bebb74db33e9f88110a07ef56e1b31b24b4c4f51b54b1664266e29f45b905f90a35050565b60028181548110610382575f80fd5b905f5260205f2090600202015f91509050805f0180546103a190610ca8565b80601f01602080910402602001604051908101604052809291908181526020018280546103cd90610ca8565b80156104185780601f106103ef57610100808354040283529160200191610418565b820191905f5260205f20905b8154815290600101906020018083116103fb57829003601f168201915b5050505050908060010154905082565b335f90815260016020526040902080546104805760405162461bcd60e51b8152602060048201526019602482015278596f752068617665206e6f20726967687420746f20766f746560381b6044820152606401610256565b600181015460ff16156104c95760405162461bcd60e51b8152602060048201526011602482015270165bdd48185b1c9958591e481d9bdd1959607a1b6044820152606401610256565b336001600160a01b038316036105215760405162461bcd60e51b815260206004820152601e60248201527f53656c662d64656c65676174696f6e206973206e6f7420616c6c6f77656400006044820152606401610256565b6001600160a01b038281165f9081526001602081905260409091200154610100900416156105c3576001600160a01b039182165f90815260016020819052604090912001546101009004909116903382036105be5760405162461bcd60e51b815260206004820152601860248201527f44656c65676174696f6e206c6f6f7020646574656374656400000000000000006044820152606401610256565b610521565b6001600160a01b0382165f90815260016020819052604090912080549091111561062f5760405162461bcd60e51b815260206004820152601d60248201527f44656c656761746520686173206e6f20726967687420746f20766f74650000006044820152606401610256565b600182810180546001600160a81b0319166101006001600160a01b03871602178217905581015460ff161561069e5781546002828101548154811061067657610676610c6f565b905f5260205f2090600202016001015f8282546106939190610c83565b909155506106b79050565b8154815482905f906106b1908490610c83565b90915550505b6040516001600160a01b0384169033907fa0ff2fa6909fe4ddd94349fc9d8e2932f3dfe666216f3cc2aa3a72f5a03b655e905f90a3505050565b5f546001600160a01b0316331461071a5760405162461bcd60e51b815260040161025690610ce0565b6001600160a01b0381166107625760405162461bcd60e51b815260206004820152600f60248201526e496e76616c6964206164647265737360881b6044820152606401610256565b5f80546001600160a01b038381166001600160a01b0319831681178455835260016020526040832054911691036107af576001600160a01b0382165f908152600160208190526040909120555b816001600160a01b0316816001600160a01b03167f8846b6d32a102a467f880daa3eec7654c2a1c6df6e2f9eb4c9b7802e8717844460405160405180910390a35050565b5f80805b60025481101561085c57816002828154811061081557610815610c6f565b905f5260205f209060020201600101541115610854576002818154811061083e5761083e610c6f565b905f5260205f2090600202016001015491508092505b6001016107f7565b505090565b5f546001600160a01b0316331461088a5760405162461bcd60e51b815260040161025690610ce0565b6001600160a01b0381166108d85760405162461bcd60e51b8152602060048201526015602482015274496e76616c696420766f746572206164647265737360581b6044820152606401610256565b6001600160a01b0381165f908152600160208190526040909120015460ff16156109445760405162461bcd60e51b815260206004820152601760248201527f566f7465722068617320616c726561647920766f7465640000000000000000006044820152606401610256565b6001600160a01b0381165f90815260016020526040902054156109a95760405162461bcd60e51b815260206004820152601f60248201527f566f74657220616c72656164792068617320766f74696e6720726967687473006044820152606401610256565b6001600160a01b0381165f81815260016020819052604080832091909155517f0ca65a9f1f88bd7257ac852d1062853358f81cdc56f9634dcbeed6090f8dfb439190a250565b6002546060905f908310610a3e5760405162461bcd60e51b8152602060048201526016602482015275092dcecc2d8d2c840e0e4dee0dee6c2d840d2dcc8caf60531b6044820152606401610256565b5f60028481548110610a5257610a52610c6f565b905f5260205f2090600202016040518060400160405290815f82018054610a7890610ca8565b80601f0160208091040260200160405190810160405280929190818152602001828054610aa490610ca8565b8015610aef5780601f10610ac657610100808354040283529160200191610aef565b820191905f5260205f20905b815481529060010190602001808311610ad257829003601f168201915b5050509183525050600191909101546020918201528151910151909590945092505050565b60606002610b206107f3565b81548110610b3057610b30610c6f565b905f5260205f2090600202015f018054610b4990610ca8565b80601f0160208091040260200160405190810160405280929190818152602001828054610b7590610ca8565b8015610bc05780601f10610b9757610100808354040283529160200191610bc0565b820191905f5260205f20905b815481529060010190602001808311610ba357829003601f168201915b5050505050905090565b5f60208284031215610bda575f5ffd5b5035919050565b5f81518084528060208401602086015e5f602082860101526020601f19601f83011685010191505092915050565b604081525f610c216040830185610be1565b90508260208301529392505050565b5f60208284031215610c40575f5ffd5b81356001600160a01b0381168114610c56575f5ffd5b9392505050565b602081525f610c566020830184610be1565b634e487b7160e01b5f52603260045260245ffd5b80820180821115610ca257634e487b7160e01b5f52601160045260245ffd5b92915050565b600181811c90821680610cbc57607f821691505b602082108103610cda57634e487b7160e01b5f52602260045260245ffd5b50919050565b60208082526028908201527f4f6e6c79206368616972706572736f6e2063616e20706572666f726d20746869604082015267399030b1ba34b7b760c11b60608201526080019056fea2646970667358221220cfb34d8fc0c8efe0108d304372f9080a57646ba03a33b802ac18e35c414b483a64736f6c634300081f0033",
					"opcodes": "PUSH1 0x80 PUSH1 0x40 MSTORE CALLVALUE DUP1 ISZERO PUSH2 0xF JUMPI PUSH0 PUSH0 REVERT JUMPDEST POP PUSH1 0x40 MLOAD PUSH2 0x123D CODESIZE SUB DUP1 PUSH2 0x123D DUP4 CODECOPY DUP2 ADD PUSH1 0x40 DUP2 SWAP1 MSTORE PUSH2 0x2E SWAP2 PUSH2 0x227 JUMP JUMPDEST PUSH0 DUP2 MLOAD GT PUSH2 0x8D JUMPI PUSH1 0x40 MLOAD PUSH3 0x461BCD PUSH1 0xE5 SHL DUP2 MSTORE PUSH1 0x20 PUSH1 0x4 DUP3 ADD MSTORE PUSH1 0x21 PUSH1 0x24 DUP3 ADD MSTORE PUSH32 0x4174206C65617374206F6E652070726F706F73616C2069732072657175697265 PUSH1 0x44 DUP3 ADD MSTORE PUSH1 0x19 PUSH1 0xFA SHL PUSH1 0x64 DUP3 ADD MSTORE PUSH1 0x84 ADD JUMPDEST PUSH1 0x40 MLOAD DUP1 SWAP2 SUB SWAP1 REVERT JUMPDEST PUSH0 DUP1 SLOAD PUSH1 0x1 PUSH1 0x1 PUSH1 0xA0 SHL SUB NOT AND CALLER SWAP1 DUP2 OR DUP3 SSTORE DUP2 MSTORE PUSH1 0x1 PUSH1 0x20 DUP2 SWAP1 MSTORE PUSH1 0x40 DUP3 KECCAK256 SSTORE JUMPDEST DUP2 MLOAD DUP2 LT ISZERO PUSH2 0x1DC JUMPI PUSH0 DUP3 DUP3 DUP2 MLOAD DUP2 LT PUSH2 0xCB JUMPI PUSH2 0xCB PUSH2 0x34B JUMP JUMPDEST PUSH1 0x20 MUL PUSH1 0x20 ADD ADD MLOAD MLOAD GT PUSH2 0x121 JUMPI PUSH1 0x40 MLOAD PUSH3 0x461BCD PUSH1 0xE5 SHL DUP2 MSTORE PUSH1 0x20 PUSH1 0x4 DUP3 ADD MSTORE PUSH1 0x1D PUSH1 0x24 DUP3 ADD MSTORE PUSH32 0x50726F706F73616C206E616D652063616E6E6F7420626520656D707479000000 PUSH1 0x44 DUP3 ADD MSTORE PUSH1 0x64 ADD PUSH2 0x84 JUMP JUMPDEST PUSH1 0x2 PUSH1 0x40 MLOAD DUP1 PUSH1 0x40 ADD PUSH1 0x40 MSTORE DUP1 DUP5 DUP5 DUP2 MLOAD DUP2 LT PUSH2 0x140 JUMPI PUSH2 0x140 PUSH2 0x34B JUMP JUMPDEST PUSH1 0x20 SWAP1 DUP2 MUL SWAP2 SWAP1 SWAP2 ADD DUP2 ADD MLOAD DUP3 MSTORE PUSH0 SWAP2 DUP2 ADD DUP3 SWAP1 MSTORE DUP4 SLOAD PUSH1 0x1 DUP2 ADD DUP6 SSTORE SWAP4 DUP3 MSTORE SWAP1 KECCAK256 DUP2 MLOAD SWAP2 SWAP3 PUSH1 0x2 MUL ADD SWAP1 DUP2 SWAP1 PUSH2 0x177 SWAP1 DUP3 PUSH2 0x3E3 JUMP JUMPDEST POP PUSH1 0x20 DUP3 ADD MLOAD DUP2 PUSH1 0x1 ADD SSTORE POP POP PUSH32 0xE8992A719BA38096A6AF646873ADD24C8172489CA954DEF1B69B5565EB85C1BF DUP3 DUP3 DUP2 MLOAD DUP2 LT PUSH2 0x1B7 JUMPI PUSH2 0x1B7 PUSH2 0x34B JUMP JUMPDEST PUSH1 0x20 MUL PUSH1 0x20 ADD ADD MLOAD PUSH1 0x40 MLOAD PUSH2 0x1CC SWAP2 SWAP1 PUSH2 0x49D JUMP JUMPDEST PUSH1 0x40 MLOAD DUP1 SWAP2 SUB SWAP1 LOG1 PUSH1 0x1 ADD PUSH2 0xAF JUMP JUMPDEST POP POP PUSH2 0x4D2 JUMP JUMPDEST PUSH4 0x4E487B71 PUSH1 0xE0 SHL PUSH0 MSTORE PUSH1 0x41 PUSH1 0x4 MSTORE PUSH1 0x24 PUSH0 REVERT JUMPDEST PUSH1 0x40 MLOAD PUSH1 0x1F DUP3 ADD PUSH1 0x1F NOT AND DUP2 ADD PUSH1 0x1 PUSH1 0x1 PUSH1 0x40 SHL SUB DUP2 GT DUP3 DUP3 LT OR ISZERO PUSH2 0x21F JUMPI PUSH2 0x21F PUSH2 0x1E3 JUMP JUMPDEST PUSH1 0x40 MSTORE SWAP2 SWAP1 POP JUMP JUMPDEST PUSH0 PUSH1 0x20 DUP3 DUP5 SUB SLT ISZERO PUSH2 0x237 JUMPI PUSH0 PUSH0 REVERT JUMPDEST DUP2 MLOAD PUSH1 0x1 PUSH1 0x1 PUSH1 0x40 SHL SUB DUP2 GT ISZERO PUSH2 0x24C JUMPI PUSH0 PUSH0 REVERT JUMPDEST DUP3 ADD PUSH1 0x1F DUP2 ADD DUP5 SGT PUSH2 0x25C JUMPI PUSH0 PUSH0 REVERT JUMPDEST DUP1 MLOAD PUSH1 0x1 PUSH1 0x1 PUSH1 0x40 SHL SUB DUP2 GT ISZERO PUSH2 0x275 JUMPI PUSH2 0x275 PUSH2 0x1E3 JUMP JUMPDEST DUP1 PUSH1 0x5 SHL PUSH2 0x285 PUSH1 0x20 DUP3 ADD PUSH2 0x1F7 JUMP JUMPDEST SWAP2 DUP3 MSTORE PUSH1 0x20 DUP2 DUP5 ADD DUP2 ADD SWAP3 SWAP1 DUP2 ADD SWAP1 DUP8 DUP5 GT ISZERO PUSH2 0x2A0 JUMPI PUSH0 PUSH0 REVERT JUMPDEST PUSH1 0x20 DUP6 ADD SWAP3 POP JUMPDEST DUP4 DUP4 LT ISZERO PUSH2 0x340 JUMPI DUP3 MLOAD PUSH1 0x1 PUSH1 0x1 PUSH1 0x40 SHL SUB DUP2 GT ISZERO PUSH2 0x2C4 JUMPI PUSH0 PUSH0 REVERT JUMPDEST DUP6 ADD PUSH1 0x3F DUP2 ADD DUP10 SGT PUSH2 0x2D4 JUMPI PUSH0 PUSH0 REVERT JUMPDEST PUSH1 0x20 DUP2 ADD MLOAD PUSH1 0x1 PUSH1 0x1 PUSH1 0x40 SHL SUB DUP2 GT ISZERO PUSH2 0x2F0 JUMPI PUSH2 0x2F0 PUSH2 0x1E3 JUMP JUMPDEST PUSH2 0x303 PUSH1 0x1F DUP3 ADD PUSH1 0x1F NOT AND PUSH1 0x20 ADD PUSH2 0x1F7 JUMP JUMPDEST DUP2 DUP2 MSTORE PUSH1 0x40 DUP4 DUP4 ADD ADD DUP12 LT ISZERO PUSH2 0x317 JUMPI PUSH0 PUSH0 REVERT JUMPDEST DUP2 PUSH1 0x40 DUP5 ADD PUSH1 0x20 DUP4 ADD MCOPY PUSH0 PUSH1 0x20 DUP4 DUP4 ADD ADD MSTORE DUP1 DUP6 MSTORE POP POP POP PUSH1 0x20 DUP3 ADD SWAP2 POP PUSH1 0x20 DUP4 ADD SWAP3 POP PUSH2 0x2A7 JUMP JUMPDEST SWAP8 SWAP7 POP POP POP POP POP POP POP JUMP JUMPDEST PUSH4 0x4E487B71 PUSH1 0xE0 SHL PUSH0 MSTORE PUSH1 0x32 PUSH1 0x4 MSTORE PUSH1 0x24 PUSH0 REVERT JUMPDEST PUSH1 0x1 DUP2 DUP2 SHR SWAP1 DUP3 AND DUP1 PUSH2 0x373 JUMPI PUSH1 0x7F DUP3 AND SWAP2 POP JUMPDEST PUSH1 0x20 DUP3 LT DUP2 SUB PUSH2 0x391 JUMPI PUSH4 0x4E487B71 PUSH1 0xE0 SHL PUSH0 MSTORE PUSH1 0x22 PUSH1 0x4 MSTORE PUSH1 0x24 PUSH0 REVERT JUMPDEST POP SWAP2 SWAP1 POP JUMP JUMPDEST PUSH1 0x1F DUP3 GT ISZERO PUSH2 0x3DE JUMPI DUP1 PUSH0 MSTORE PUSH1 0x20 PUSH0 KECCAK256 PUSH1 0x1F DUP5 ADD PUSH1 0x5 SHR DUP2 ADD PUSH1 0x20 DUP6 LT ISZERO PUSH2 0x3BC JUMPI POP DUP1 JUMPDEST PUSH1 0x1F DUP5 ADD PUSH1 0x5 SHR DUP3 ADD SWAP2 POP JUMPDEST DUP2 DUP2 LT ISZERO PUSH2 0x3DB JUMPI PUSH0 DUP2 SSTORE PUSH1 0x1 ADD PUSH2 0x3C8 JUMP JUMPDEST POP POP JUMPDEST POP POP POP JUMP JUMPDEST DUP2 MLOAD PUSH1 0x1 PUSH1 0x1 PUSH1 0x40 SHL SUB DUP2 GT ISZERO PUSH2 0x3FC JUMPI PUSH2 0x3FC PUSH2 0x1E3 JUMP JUMPDEST PUSH2 0x410 DUP2 PUSH2 0x40A DUP5 SLOAD PUSH2 0x35F JUMP JUMPDEST DUP5 PUSH2 0x397 JUMP JUMPDEST PUSH1 0x20 PUSH1 0x1F DUP3 GT PUSH1 0x1 DUP2 EQ PUSH2 0x442 JUMPI PUSH0 DUP4 ISZERO PUSH2 0x42B JUMPI POP DUP5 DUP3 ADD MLOAD JUMPDEST PUSH0 NOT PUSH1 0x3 DUP6 SWAP1 SHL SHR NOT AND PUSH1 0x1 DUP5 SWAP1 SHL OR DUP5 SSTORE PUSH2 0x3DB JUMP JUMPDEST PUSH0 DUP5 DUP2 MSTORE PUSH1 0x20 DUP2 KECCAK256 PUSH1 0x1F NOT DUP6 AND SWAP2 JUMPDEST DUP3 DUP2 LT ISZERO PUSH2 0x471 JUMPI DUP8 DUP6 ADD MLOAD DUP3 SSTORE PUSH1 0x20 SWAP5 DUP6 ADD SWAP5 PUSH1 0x1 SWAP1 SWAP3 ADD SWAP2 ADD PUSH2 0x451 JUMP JUMPDEST POP DUP5 DUP3 LT ISZERO PUSH2 0x48E JUMPI DUP7 DUP5 ADD MLOAD PUSH0 NOT PUSH1 0x3 DUP8 SWAP1 SHL PUSH1 0xF8 AND SHR NOT AND DUP2 SSTORE JUMPDEST POP POP POP POP PUSH1 0x1 SWAP1 DUP2 SHL ADD SWAP1 SSTORE POP JUMP JUMPDEST PUSH1 0x20 DUP2 MSTORE PUSH0 DUP3 MLOAD DUP1 PUSH1 0x20 DUP5 ADD MSTORE DUP1 PUSH1 0x20 DUP6 ADD PUSH1 0x40 DUP6 ADD MCOPY PUSH0 PUSH1 0x40 DUP3 DUP6 ADD ADD MSTORE PUSH1 0x40 PUSH1 0x1F NOT PUSH1 0x1F DUP4 ADD AND DUP5 ADD ADD SWAP2 POP POP SWAP3 SWAP2 POP POP JUMP JUMPDEST PUSH2 0xD5E DUP1 PUSH2 0x4DF PUSH0 CODECOPY PUSH0 RETURN INVALID PUSH1 0x80 PUSH1 0x40 MSTORE CALLVALUE DUP1 ISZERO PUSH2 0xF JUMPI PUSH0 PUSH0 REVERT JUMPDEST POP PUSH1 0x4 CALLDATASIZE LT PUSH2 0xA6 JUMPI PUSH0 CALLDATALOAD PUSH1 0xE0 SHR DUP1 PUSH4 0x609FF1BD GT PUSH2 0x6E JUMPI DUP1 PUSH4 0x609FF1BD EQ PUSH2 0x139 JUMPI DUP1 PUSH4 0x9E7B8D61 EQ PUSH2 0x14F JUMPI DUP1 PUSH4 0xA3EC138D EQ PUSH2 0x162 JUMPI DUP1 PUSH4 0xC08CC02D EQ PUSH2 0x1D2 JUMPI DUP1 PUSH4 0xC7F758A8 EQ PUSH2 0x1DA JUMPI DUP1 PUSH4 0xE2BA53F0 EQ PUSH2 0x1ED JUMPI PUSH0 PUSH0 REVERT JUMPDEST DUP1 PUSH4 0x121B93F EQ PUSH2 0xAA JUMPI DUP1 PUSH4 0x13CF08B EQ PUSH2 0xBF JUMPI DUP1 PUSH4 0x2E4176CF EQ PUSH2 0xE9 JUMPI DUP1 PUSH4 0x5C19A95C EQ PUSH2 0x113 JUMPI DUP1 PUSH4 0x5D8ABDE4 EQ PUSH2 0x126 JUMPI JUMPDEST PUSH0 PUSH0 REVERT JUMPDEST PUSH2 0xBD PUSH2 0xB8 CALLDATASIZE PUSH1 0x4 PUSH2 0xBCA JUMP JUMPDEST PUSH2 0x202 JUMP JUMPDEST STOP JUMPDEST PUSH2 0xD2 PUSH2 0xCD CALLDATASIZE PUSH1 0x4 PUSH2 0xBCA JUMP JUMPDEST PUSH2 0x373 JUMP JUMPDEST PUSH1 0x40 MLOAD PUSH2 0xE0 SWAP3 SWAP2 SWAP1 PUSH2 0xC0F JUMP JUMPDEST PUSH1 0x40 MLOAD DUP1 SWAP2 SUB SWAP1 RETURN JUMPDEST PUSH0 SLOAD PUSH2 0xFB SWAP1 PUSH1 0x1 PUSH1 0x1 PUSH1 0xA0 SHL SUB AND DUP2 JUMP JUMPDEST PUSH1 0x40 MLOAD PUSH1 0x1 PUSH1 0x1 PUSH1 0xA0 SHL SUB SWAP1 SWAP2 AND DUP2 MSTORE PUSH1 0x20 ADD PUSH2 0xE0 JUMP JUMPDEST PUSH2 0xBD PUSH2 0x121 CALLDATASIZE PUSH1 0x4 PUSH2 0xC30 JUMP JUMPDEST PUSH2 0x428 JUMP JUMPDEST PUSH2 0xBD PUSH2 0x134 CALLDATASIZE PUSH1 0x4 PUSH2 0xC30 JUMP JUMPDEST PUSH2 0x6F1 JUMP JUMPDEST PUSH2 0x141 PUSH2 0x7F3 JUMP JUMPDEST PUSH1 0x40 MLOAD SWAP1 DUP2 MSTORE PUSH1 0x20 ADD PUSH2 0xE0 JUMP JUMPDEST PUSH2 0xBD PUSH2 0x15D CALLDATASIZE PUSH1 0x4 PUSH2 0xC30 JUMP JUMPDEST PUSH2 0x861 JUMP JUMPDEST PUSH2 0x1A3 PUSH2 0x170 CALLDATASIZE PUSH1 0x4 PUSH2 0xC30 JUMP JUMPDEST PUSH1 0x1 PUSH1 0x20 DUP2 SWAP1 MSTORE PUSH0 SWAP2 DUP3 MSTORE PUSH1 0x40 SWAP1 SWAP2 KECCAK256 DUP1 SLOAD SWAP2 DUP2 ADD SLOAD PUSH1 0x2 SWAP1 SWAP2 ADD SLOAD PUSH1 0xFF DUP3 AND SWAP2 PUSH2 0x100 SWAP1 DIV PUSH1 0x1 PUSH1 0x1 PUSH1 0xA0 SHL SUB AND SWAP1 DUP5 JUMP JUMPDEST PUSH1 0x40 MLOAD PUSH2 0xE0 SWAP5 SWAP4 SWAP3 SWAP2 SWAP1 SWAP4 DUP5 MSTORE SWAP2 ISZERO ISZERO PUSH1 0x20 DUP5 ADD MSTORE PUSH1 0x1 PUSH1 0x1 PUSH1 0xA0 SHL SUB AND PUSH1 0x40 DUP4 ADD MSTORE PUSH1 0x60 DUP3 ADD MSTORE PUSH1 0x80 ADD SWAP1 JUMP JUMPDEST PUSH1 0x2 SLOAD PUSH2 0x141 JUMP JUMPDEST PUSH2 0xD2 PUSH2 0x1E8 CALLDATASIZE PUSH1 0x4 PUSH2 0xBCA JUMP JUMPDEST PUSH2 0x9EF JUMP JUMPDEST PUSH2 0x1F5 PUSH2 0xB14 JUMP JUMPDEST PUSH1 0x40 MLOAD PUSH2 0xE0 SWAP2 SWAP1 PUSH2 0xC5D JUMP JUMPDEST CALLER PUSH0 SWAP1 DUP2 MSTORE PUSH1 0x1 PUSH1 0x20 MSTORE PUSH1 0x40 SWAP1 KECCAK256 DUP1 SLOAD PUSH2 0x25F JUMPI PUSH1 0x40 MLOAD PUSH3 0x461BCD PUSH1 0xE5 SHL DUP2 MSTORE PUSH1 0x20 PUSH1 0x4 DUP3 ADD MSTORE PUSH1 0x19 PUSH1 0x24 DUP3 ADD MSTORE PUSH25 0x596F752068617665206E6F20726967687420746F20766F7465 PUSH1 0x38 SHL PUSH1 0x44 DUP3 ADD MSTORE PUSH1 0x64 ADD JUMPDEST PUSH1 0x40 MLOAD DUP1 SWAP2 SUB SWAP1 REVERT JUMPDEST PUSH1 0x1 DUP2 ADD SLOAD PUSH1 0xFF AND ISZERO PUSH2 0x2A8 JUMPI PUSH1 0x40 MLOAD PUSH3 0x461BCD PUSH1 0xE5 SHL DUP2 MSTORE PUSH1 0x20 PUSH1 0x4 DUP3 ADD MSTORE PUSH1 0x11 PUSH1 0x24 DUP3 ADD MSTORE PUSH17 0x165BDD48185B1C9958591E481D9BDD1959 PUSH1 0x7A SHL PUSH1 0x44 DUP3 ADD MSTORE PUSH1 0x64 ADD PUSH2 0x256 JUMP JUMPDEST PUSH1 0x2 SLOAD DUP3 LT PUSH2 0x2F2 JUMPI PUSH1 0x40 MLOAD PUSH3 0x461BCD PUSH1 0xE5 SHL DUP2 MSTORE PUSH1 0x20 PUSH1 0x4 DUP3 ADD MSTORE PUSH1 0x16 PUSH1 0x24 DUP3 ADD MSTORE PUSH22 0x92DCECC2D8D2C840E0E4DEE0DEE6C2D840D2DCC8CAF PUSH1 0x53 SHL PUSH1 0x44 DUP3 ADD MSTORE PUSH1 0x64 ADD PUSH2 0x256 JUMP JUMPDEST PUSH1 0x1 DUP2 DUP2 ADD DUP1 SLOAD PUSH1 0xFF NOT AND SWAP1 SWAP2 OR SWAP1 SSTORE PUSH1 0x2 DUP1 DUP3 ADD DUP4 SWAP1 SSTORE DUP2 SLOAD DUP2 SLOAD SWAP1 SWAP2 SWAP1 DUP5 SWAP1 DUP2 LT PUSH2 0x321 JUMPI PUSH2 0x321 PUSH2 0xC6F JUMP JUMPDEST SWAP1 PUSH0 MSTORE PUSH1 0x20 PUSH0 KECCAK256 SWAP1 PUSH1 0x2 MUL ADD PUSH1 0x1 ADD PUSH0 DUP3 DUP3 SLOAD PUSH2 0x33E SWAP2 SWAP1 PUSH2 0xC83 JUMP JUMPDEST SWAP1 SWAP2 SSTORE POP POP PUSH1 0x40 MLOAD DUP3 SWAP1 CALLER SWAP1 PUSH32 0xA36CC2BEBB74DB33E9F88110A07EF56E1B31B24B4C4F51B54B1664266E29F45B SWAP1 PUSH0 SWAP1 LOG3 POP POP JUMP JUMPDEST PUSH1 0x2 DUP2 DUP2 SLOAD DUP2 LT PUSH2 0x382 JUMPI PUSH0 DUP1 REVERT JUMPDEST SWAP1 PUSH0 MSTORE PUSH1 0x20 PUSH0 KECCAK256 SWAP1 PUSH1 0x2 MUL ADD PUSH0 SWAP2 POP SWAP1 POP DUP1 PUSH0 ADD DUP1 SLOAD PUSH2 0x3A1 SWAP1 PUSH2 0xCA8 JUMP JUMPDEST DUP1 PUSH1 0x1F ADD PUSH1 0x20 DUP1 SWAP2 DIV MUL PUSH1 0x20 ADD PUSH1 0x40 MLOAD SWAP1 DUP2 ADD PUSH1 0x40 MSTORE DUP1 SWAP3 SWAP2 SWAP1 DUP2 DUP2 MSTORE PUSH1 0x20 ADD DUP3 DUP1 SLOAD PUSH2 0x3CD SWAP1 PUSH2 0xCA8 JUMP JUMPDEST DUP1 ISZERO PUSH2 0x418 JUMPI DUP1 PUSH1 0x1F LT PUSH2 0x3EF JUMPI PUSH2 0x100 DUP1 DUP4 SLOAD DIV MUL DUP4 MSTORE SWAP2 PUSH1 0x20 ADD SWAP2 PUSH2 0x418 JUMP JUMPDEST DUP3 ADD SWAP2 SWAP1 PUSH0 MSTORE PUSH1 0x20 PUSH0 KECCAK256 SWAP1 JUMPDEST DUP2 SLOAD DUP2 MSTORE SWAP1 PUSH1 0x1 ADD SWAP1 PUSH1 0x20 ADD DUP1 DUP4 GT PUSH2 0x3FB JUMPI DUP3 SWAP1 SUB PUSH1 0x1F AND DUP3 ADD SWAP2 JUMPDEST POP POP POP POP POP SWAP1 DUP1 PUSH1 0x1 ADD SLOAD SWAP1 POP DUP3 JUMP JUMPDEST CALLER PUSH0 SWAP1 DUP2 MSTORE PUSH1 0x1 PUSH1 0x20 MSTORE PUSH1 0x40 SWAP1 KECCAK256 DUP1 SLOAD PUSH2 0x480 JUMPI PUSH1 0x40 MLOAD PUSH3 0x461BCD PUSH1 0xE5 SHL DUP2 MSTORE PUSH1 0x20 PUSH1 0x4 DUP3 ADD MSTORE PUSH1 0x19 PUSH1 0x24 DUP3 ADD MSTORE PUSH25 0x596F752068617665206E6F20726967687420746F20766F7465 PUSH1 0x38 SHL PUSH1 0x44 DUP3 ADD MSTORE PUSH1 0x64 ADD PUSH2 0x256 JUMP JUMPDEST PUSH1 0x1 DUP2 ADD SLOAD PUSH1 0xFF AND ISZERO PUSH2 0x4C9 JUMPI PUSH1 0x40 MLOAD PUSH3 0x461BCD PUSH1 0xE5 SHL DUP2 MSTORE PUSH1 0x20 PUSH1 0x4 DUP3 ADD MSTORE PUSH1 0x11 PUSH1 0x24 DUP3 ADD MSTORE PUSH17 0x165BDD48185B1C9958591E481D9BDD1959 PUSH1 0x7A SHL PUSH1 0x44 DUP3 ADD MSTORE PUSH1 0x64 ADD PUSH2 0x256 JUMP JUMPDEST CALLER PUSH1 0x1 PUSH1 0x1 PUSH1 0xA0 SHL SUB DUP4 AND SUB PUSH2 0x521 JUMPI PUSH1 0x40 MLOAD PUSH3 0x461BCD PUSH1 0xE5 SHL DUP2 MSTORE PUSH1 0x20 PUSH1 0x4 DUP3 ADD MSTORE PUSH1 0x1E PUSH1 0x24 DUP3 ADD MSTORE PUSH32 0x53656C662D64656C65676174696F6E206973206E6F7420616C6C6F7765640000 PUSH1 0x44 DUP3 ADD MSTORE PUSH1 0x64 ADD PUSH2 0x256 JUMP JUMPDEST PUSH1 0x1 PUSH1 0x1 PUSH1 0xA0 SHL SUB DUP3 DUP2 AND PUSH0 SWAP1 DUP2 MSTORE PUSH1 0x1 PUSH1 0x20 DUP2 SWAP1 MSTORE PUSH1 0x40 SWAP1 SWAP2 KECCAK256 ADD SLOAD PUSH2 0x100 SWAP1 DIV AND ISZERO PUSH2 0x5C3 JUMPI PUSH1 0x1 PUSH1 0x1 PUSH1 0xA0 SHL SUB SWAP2 DUP3 AND PUSH0 SWAP1 DUP2 MSTORE PUSH1 0x1 PUSH1 0x20 DUP2 SWAP1 MSTORE PUSH1 0x40 SWAP1 SWAP2 KECCAK256 ADD SLOAD PUSH2 0x100 SWAP1 DIV SWAP1 SWAP2 AND SWAP1 CALLER DUP3 SUB PUSH2 0x5BE JUMPI PUSH1 0x40 MLOAD PUSH3 0x461BCD PUSH1 0xE5 SHL DUP2 MSTORE PUSH1 0x20 PUSH1 0x4 DUP3 ADD MSTORE PUSH1 0x18 PUSH1 0x24 DUP3 ADD MSTORE PUSH32 0x44656C65676174696F6E206C6F6F702064657465637465640000000000000000 PUSH1 0x44 DUP3 ADD MSTORE PUSH1 0x64 ADD PUSH2 0x256 JUMP JUMPDEST PUSH2 0x521 JUMP JUMPDEST PUSH1 0x1 PUSH1 0x1 PUSH1 0xA0 SHL SUB DUP3 AND PUSH0 SWAP1 DUP2 MSTORE PUSH1 0x1 PUSH1 0x20 DUP2 SWAP1 MSTORE PUSH1 0x40 SWAP1 SWAP2 KECCAK256 DUP1 SLOAD SWAP1 SWAP2 GT ISZERO PUSH2 0x62F JUMPI PUSH1 0x40 MLOAD PUSH3 0x461BCD PUSH1 0xE5 SHL DUP2 MSTORE PUSH1 0x20 PUSH1 0x4 DUP3 ADD MSTORE PUSH1 0x1D PUSH1 0x24 DUP3 ADD MSTORE PUSH32 0x44656C656761746520686173206E6F20726967687420746F20766F7465000000 PUSH1 0x44 DUP3 ADD MSTORE PUSH1 0x64 ADD PUSH2 0x256 JUMP JUMPDEST PUSH1 0x1 DUP3 DUP2 ADD DUP1 SLOAD PUSH1 0x1 PUSH1 0x1 PUSH1 0xA8 SHL SUB NOT AND PUSH2 0x100 PUSH1 0x1 PUSH1 0x1 PUSH1 0xA0 SHL SUB DUP8 AND MUL OR DUP3 OR SWAP1 SSTORE DUP2 ADD SLOAD PUSH1 0xFF AND ISZERO PUSH2 0x69E JUMPI DUP2 SLOAD PUSH1 0x2 DUP3 DUP2 ADD SLOAD DUP2 SLOAD DUP2 LT PUSH2 0x676 JUMPI PUSH2 0x676 PUSH2 0xC6F JUMP JUMPDEST SWAP1 PUSH0 MSTORE PUSH1 0x20 PUSH0 KECCAK256 SWAP1 PUSH1 0x2 MUL ADD PUSH1 0x1 ADD PUSH0 DUP3 DUP3 SLOAD PUSH2 0x693 SWAP2 SWAP1 PUSH2 0xC83 JUMP JUMPDEST SWAP1 SWAP2 SSTORE POP PUSH2 0x6B7 SWAP1 POP JUMP JUMPDEST DUP2 SLOAD DUP2 SLOAD DUP3 SWAP1 PUSH0 SWAP1 PUSH2 0x6B1 SWAP1 DUP5 SWAP1 PUSH2 0xC83 JUMP JUMPDEST SWAP1 SWAP2 SSTORE POP POP JUMPDEST PUSH1 0x40 MLOAD PUSH1 0x1 PUSH1 0x1 PUSH1 0xA0 SHL SUB DUP5 AND SWAP1 CALLER SWAP1 PUSH32 0xA0FF2FA6909FE4DDD94349FC9D8E2932F3DFE666216F3CC2AA3A72F5A03B655E SWAP1 PUSH0 SWAP1 LOG3 POP POP POP JUMP JUMPDEST PUSH0 SLOAD PUSH1 0x1 PUSH1 0x1 PUSH1 0xA0 SHL SUB AND CALLER EQ PUSH2 0x71A JUMPI PUSH1 0x40 MLOAD PUSH3 0x461BCD PUSH1 0xE5 SHL DUP2 MSTORE PUSH1 0x4 ADD PUSH2 0x256 SWAP1 PUSH2 0xCE0 JUMP JUMPDEST PUSH1 0x1 PUSH1 0x1 PUSH1 0xA0 SHL SUB DUP2 AND PUSH2 0x762 JUMPI PUSH1 0x40 MLOAD PUSH3 0x461BCD PUSH1 0xE5 SHL DUP2 MSTORE PUSH1 0x20 PUSH1 0x4 DUP3 ADD MSTORE PUSH1 0xF PUSH1 0x24 DUP3 ADD MSTORE PUSH15 0x496E76616C69642061646472657373 PUSH1 0x88 SHL PUSH1 0x44 DUP3 ADD MSTORE PUSH1 0x64 ADD PUSH2 0x256 JUMP JUMPDEST PUSH0 DUP1 SLOAD PUSH1 0x1 PUSH1 0x1 PUSH1 0xA0 SHL SUB DUP4 DUP2 AND PUSH1 0x1 PUSH1 0x1 PUSH1 0xA0 SHL SUB NOT DUP4 AND DUP2 OR DUP5 SSTORE DUP4 MSTORE PUSH1 0x1 PUSH1 0x20 MSTORE PUSH1 0x40 DUP4 KECCAK256 SLOAD SWAP2 AND SWAP2 SUB PUSH2 0x7AF JUMPI PUSH1 0x1 PUSH1 0x1 PUSH1 0xA0 SHL SUB DUP3 AND PUSH0 SWAP1 DUP2 MSTORE PUSH1 0x1 PUSH1 0x20 DUP2 SWAP1 MSTORE PUSH1 0x40 SWAP1 SWAP2 KECCAK256 SSTORE JUMPDEST DUP2 PUSH1 0x1 PUSH1 0x1 PUSH1 0xA0 SHL SUB AND DUP2 PUSH1 0x1 PUSH1 0x1 PUSH1 0xA0 SHL SUB AND PUSH32 0x8846B6D32A102A467F880DAA3EEC7654C2A1C6DF6E2F9EB4C9B7802E87178444 PUSH1 0x40 MLOAD PUSH1 0x40 MLOAD DUP1 SWAP2 SUB SWAP1 LOG3 POP POP JUMP JUMPDEST PUSH0 DUP1 DUP1 JUMPDEST PUSH1 0x2 SLOAD DUP2 LT ISZERO PUSH2 0x85C JUMPI DUP2 PUSH1 0x2 DUP3 DUP2 SLOAD DUP2 LT PUSH2 0x815 JUMPI PUSH2 0x815 PUSH2 0xC6F JUMP JUMPDEST SWAP1 PUSH0 MSTORE PUSH1 0x20 PUSH0 KECCAK256 SWAP1 PUSH1 0x2 MUL ADD PUSH1 0x1 ADD SLOAD GT ISZERO PUSH2 0x854 JUMPI PUSH1 0x2 DUP2 DUP2 SLOAD DUP2 LT PUSH2 0x83E JUMPI PUSH2 0x83E PUSH2 0xC6F JUMP JUMPDEST SWAP1 PUSH0 MSTORE PUSH1 0x20 PUSH0 KECCAK256 SWAP1 PUSH1 0x2 MUL ADD PUSH1 0x1 ADD SLOAD SWAP2 POP DUP1 SWAP3 POP JUMPDEST PUSH1 0x1 ADD PUSH2 0x7F7 JUMP JUMPDEST POP POP SWAP1 JUMP JUMPDEST PUSH0 SLOAD PUSH1 0x1 PUSH1 0x1 PUSH1 0xA0 SHL SUB AND CALLER EQ PUSH2 0x88A JUMPI PUSH1 0x40 MLOAD PUSH3 0x461BCD PUSH1 0xE5 SHL DUP2 MSTORE PUSH1 0x4 ADD PUSH2 0x256 SWAP1 PUSH2 0xCE0 JUMP JUMPDEST PUSH1 0x1 PUSH1 0x1 PUSH1 0xA0 SHL SUB DUP2 AND PUSH2 0x8D8 JUMPI PUSH1 0x40 MLOAD PUSH3 0x461BCD PUSH1 0xE5 SHL DUP2 MSTORE PUSH1 0x20 PUSH1 0x4 DUP3 ADD MSTORE PUSH1 0x15 PUSH1 0x24 DUP3 ADD MSTORE PUSH21 0x496E76616C696420766F7465722061646472657373 PUSH1 0x58 SHL PUSH1 0x44 DUP3 ADD MSTORE PUSH1 0x64 ADD PUSH2 0x256 JUMP JUMPDEST PUSH1 0x1 PUSH1 0x1 PUSH1 0xA0 SHL SUB DUP2 AND PUSH0 SWAP1 DUP2 MSTORE PUSH1 0x1 PUSH1 0x20 DUP2 SWAP1 MSTORE PUSH1 0x40 SWAP1 SWAP2 KECCAK256 ADD SLOAD PUSH1 0xFF AND ISZERO PUSH2 0x944 JUMPI PUSH1 0x40 MLOAD PUSH3 0x461BCD PUSH1 0xE5 SHL DUP2 MSTORE PUSH1 0x20 PUSH1 0x4 DUP3 ADD MSTORE PUSH1 0x17 PUSH1 0x24 DUP3 ADD MSTORE PUSH32 0x566F7465722068617320616C726561647920766F746564000000000000000000 PUSH1 0x44 DUP3 ADD MSTORE PUSH1 0x64 ADD PUSH2 0x256 JUMP JUMPDEST PUSH1 0x1 PUSH1 0x1 PUSH1 0xA0 SHL SUB DUP2 AND PUSH0 SWAP1 DUP2 MSTORE PUSH1 0x1 PUSH1 0x20 MSTORE PUSH1 0x40 SWAP1 KECCAK256 SLOAD ISZERO PUSH2 0x9A9 JUMPI PUSH1 0x40 MLOAD PUSH3 0x461BCD PUSH1 0xE5 SHL DUP2 MSTORE PUSH1 0x20 PUSH1 0x4 DUP3 ADD MSTORE PUSH1 0x1F PUSH1 0x24 DUP3 ADD MSTORE PUSH32 0x566F74657220616C72656164792068617320766F74696E672072696768747300 PUSH1 0x44 DUP3 ADD MSTORE PUSH1 0x64 ADD PUSH2 0x256 JUMP JUMPDEST PUSH1 0x1 PUSH1 0x1 PUSH1 0xA0 SHL SUB DUP2 AND PUSH0 DUP2 DUP2 MSTORE PUSH1 0x1 PUSH1 0x20 DUP2 SWAP1 MSTORE PUSH1 0x40 DUP1 DUP4 KECCAK256 SWAP2 SWAP1 SWAP2 SSTORE MLOAD PUSH32 0xCA65A9F1F88BD7257AC852D1062853358F81CDC56F9634DCBEED6090F8DFB43 SWAP2 SWAP1 LOG2 POP JUMP JUMPDEST PUSH1 0x2 SLOAD PUSH1 0x60 SWAP1 PUSH0 SWAP1 DUP4 LT PUSH2 0xA3E JUMPI PUSH1 0x40 MLOAD PUSH3 0x461BCD PUSH1 0xE5 SHL DUP2 MSTORE PUSH1 0x20 PUSH1 0x4 DUP3 ADD MSTORE PUSH1 0x16 PUSH1 0x24 DUP3 ADD MSTORE PUSH22 0x92DCECC2D8D2C840E0E4DEE0DEE6C2D840D2DCC8CAF PUSH1 0x53 SHL PUSH1 0x44 DUP3 ADD MSTORE PUSH1 0x64 ADD PUSH2 0x256 JUMP JUMPDEST PUSH0 PUSH1 0x2 DUP5 DUP2 SLOAD DUP2 LT PUSH2 0xA52 JUMPI PUSH2 0xA52 PUSH2 0xC6F JUMP JUMPDEST SWAP1 PUSH0 MSTORE PUSH1 0x20 PUSH0 KECCAK256 SWAP1 PUSH1 0x2 MUL ADD PUSH1 0x40 MLOAD DUP1 PUSH1 0x40 ADD PUSH1 0x40 MSTORE SWAP1 DUP2 PUSH0 DUP3 ADD DUP1 SLOAD PUSH2 0xA78 SWAP1 PUSH2 0xCA8 JUMP JUMPDEST DUP1 PUSH1 0x1F ADD PUSH1 0x20 DUP1 SWAP2 DIV MUL PUSH1 0x20 ADD PUSH1 0x40 MLOAD SWAP1 DUP2 ADD PUSH1 0x40 MSTORE DUP1 SWAP3 SWAP2 SWAP1 DUP2 DUP2 MSTORE PUSH1 0x20 ADD DUP3 DUP1 SLOAD PUSH2 0xAA4 SWAP1 PUSH2 0xCA8 JUMP JUMPDEST DUP1 ISZERO PUSH2 0xAEF JUMPI DUP1 PUSH1 0x1F LT PUSH2 0xAC6 JUMPI PUSH2 0x100 DUP1 DUP4 SLOAD DIV MUL DUP4 MSTORE SWAP2 PUSH1 0x20 ADD SWAP2 PUSH2 0xAEF JUMP JUMPDEST DUP3 ADD SWAP2 SWAP1 PUSH0 MSTORE PUSH1 0x20 PUSH0 KECCAK256 SWAP1 JUMPDEST DUP2 SLOAD DUP2 MSTORE SWAP1 PUSH1 0x1 ADD SWAP1 PUSH1 0x20 ADD DUP1 DUP4 GT PUSH2 0xAD2 JUMPI DUP3 SWAP1 SUB PUSH1 0x1F AND DUP3 ADD SWAP2 JUMPDEST POP POP POP SWAP2 DUP4 MSTORE POP POP PUSH1 0x1 SWAP2 SWAP1 SWAP2 ADD SLOAD PUSH1 0x20 SWAP2 DUP3 ADD MSTORE DUP2 MLOAD SWAP2 ADD MLOAD SWAP1 SWAP6 SWAP1 SWAP5 POP SWAP3 POP POP POP JUMP JUMPDEST PUSH1 0x60 PUSH1 0x2 PUSH2 0xB20 PUSH2 0x7F3 JUMP JUMPDEST DUP2 SLOAD DUP2 LT PUSH2 0xB30 JUMPI PUSH2 0xB30 PUSH2 0xC6F JUMP JUMPDEST SWAP1 PUSH0 MSTORE PUSH1 0x20 PUSH0 KECCAK256 SWAP1 PUSH1 0x2 MUL ADD PUSH0 ADD DUP1 SLOAD PUSH2 0xB49 SWAP1 PUSH2 0xCA8 JUMP JUMPDEST DUP1 PUSH1 0x1F ADD PUSH1 0x20 DUP1 SWAP2 DIV MUL PUSH1 0x20 ADD PUSH1 0x40 MLOAD SWAP1 DUP2 ADD PUSH1 0x40 MSTORE DUP1 SWAP3 SWAP2 SWAP1 DUP2 DUP2 MSTORE PUSH1 0x20 ADD DUP3 DUP1 SLOAD PUSH2 0xB75 SWAP1 PUSH2 0xCA8 JUMP JUMPDEST DUP1 ISZERO PUSH2 0xBC0 JUMPI DUP1 PUSH1 0x1F LT PUSH2 0xB97 JUMPI PUSH2 0x100 DUP1 DUP4 SLOAD DIV MUL DUP4 MSTORE SWAP2 PUSH1 0x20 ADD SWAP2 PUSH2 0xBC0 JUMP JUMPDEST DUP3 ADD SWAP2 SWAP1 PUSH0 MSTORE PUSH1 0x20 PUSH0 KECCAK256 SWAP1 JUMPDEST DUP2 SLOAD DUP2 MSTORE SWAP1 PUSH1 0x1 ADD SWAP1 PUSH1 0x20 ADD DUP1 DUP4 GT PUSH2 0xBA3 JUMPI DUP3 SWAP1 SUB PUSH1 0x1F AND DUP3 ADD SWAP2 JUMPDEST POP POP POP POP POP SWAP1 POP SWAP1 JUMP JUMPDEST PUSH0 PUSH1 0x20 DUP3 DUP5 SUB SLT ISZERO PUSH2 0xBDA JUMPI PUSH0 PUSH0 REVERT JUMPDEST POP CALLDATALOAD SWAP2 SWAP1 POP JUMP JUMPDEST PUSH0 DUP2 MLOAD DUP1 DUP5 MSTORE DUP1 PUSH1 0x20 DUP5 ADD PUSH1 0x20 DUP7 ADD MCOPY PUSH0 PUSH1 0x20 DUP3 DUP7 ADD ADD MSTORE PUSH1 0x20 PUSH1 0x1F NOT PUSH1 0x1F DUP4 ADD AND DUP6 ADD ADD SWAP2 POP POP SWAP3 SWAP2 POP POP JUMP JUMPDEST PUSH1 0x40 DUP2 MSTORE PUSH0 PUSH2 0xC21 PUSH1 0x40 DUP4 ADD DUP6 PUSH2 0xBE1 JUMP JUMPDEST SWAP1 POP DUP3 PUSH1 0x20 DUP4 ADD MSTORE SWAP4 SWAP3 POP POP POP JUMP JUMPDEST PUSH0 PUSH1 0x20 DUP3 DUP5 SUB SLT ISZERO PUSH2 0xC40 JUMPI PUSH0 PUSH0 REVERT JUMPDEST DUP2 CALLDATALOAD PUSH1 0x1 PUSH1 0x1 PUSH1 0xA0 SHL SUB DUP2 AND DUP2 EQ PUSH2 0xC56 JUMPI PUSH0 PUSH0 REVERT JUMPDEST SWAP4 SWAP3 POP POP POP JUMP JUMPDEST PUSH1 0x20 DUP2 MSTORE PUSH0 PUSH2 0xC56 PUSH1 0x20 DUP4 ADD DUP5 PUSH2 0xBE1 JUMP JUMPDEST PUSH4 0x4E487B71 PUSH1 0xE0 SHL PUSH0 MSTORE PUSH1 0x32 PUSH1 0x4 MSTORE PUSH1 0x24 PUSH0 REVERT JUMPDEST DUP1 DUP3 ADD DUP1 DUP3 GT ISZERO PUSH2 0xCA2 JUMPI PUSH4 0x4E487B71 PUSH1 0xE0 SHL PUSH0 MSTORE PUSH1 0x11 PUSH1 0x4 MSTORE PUSH1 0x24 PUSH0 REVERT JUMPDEST SWAP3 SWAP2 POP POP JUMP JUMPDEST PUSH1 0x1 DUP2 DUP2 SHR SWAP1 DUP3 AND DUP1 PUSH2 0xCBC JUMPI PUSH1 0x7F DUP3 AND SWAP2 POP JUMPDEST PUSH1 0x20 DUP3 LT DUP2 SUB PUSH2 0xCDA JUMPI PUSH4 0x4E487B71 PUSH1 0xE0 SHL PUSH0 MSTORE PUSH1 0x22 PUSH1 0x4 MSTORE PUSH1 0x24 PUSH0 REVERT JUMPDEST POP SWAP2 SWAP1 POP JUMP JUMPDEST PUSH1 0x20 DUP1 DUP3 MSTORE PUSH1 0x28 SWAP1 DUP3 ADD MSTORE PUSH32 0x4F6E6C79206368616972706572736F6E2063616E20706572666F726D20746869 PUSH1 0x40 DUP3 ADD MSTORE PUSH8 0x399030B1BA34B7B7 PUSH1 0xC1 SHL PUSH1 0x60 DUP3 ADD MSTORE PUSH1 0x80 ADD SWAP1 JUMP INVALID LOG2 PUSH5 0x6970667358 0x22 SLT KECCAK256 0xCF 0xB3 0x4D DUP16 0xC0 0xC8 0xEF RJUMP 0x108D ADDRESS NUMBER PUSH19 0xF9080A57646BA03A33B802AC18E35C414B483A PUSH5 0x736F6C6343 STOP ADDMOD 0x1F STOP CALLER "
				},
				"gasEstimates": {
					"creation": {
						"codeDepositCost": "684400",
						"executionCost": "infinite",
						"totalCost": "infinite"
					},
					"external": {
						"chairperson()": "2380",
						"delegate(address)": "infinite",
						"getProposal(uint256)": "infinite",
						"getProposalCount()": "2357",
						"giveRightToVote(address)": "30237",
						"proposals(uint256)": "infinite",
						"transferChairperson(address)": "52750",
						"vote(uint256)": "83151",
						"voters(address)": "6892",
						"winnerName()": "infinite",
						"winningProposal()": "infinite"
					}
				},
				"methodIdentifiers": {
					"chairperson()": "2e4176cf",
					"delegate(address)": "5c19a95c",
					"getProposal(uint256)": "c7f758a8",
					"getProposalCount()": "c08cc02d",
					"giveRightToVote(address)": "9e7b8d61",
					"proposals(uint256)": "013cf08b",
					"transferChairperson(address)": "5d8abde4",
					"vote(uint256)": "0121b93f",
					"voters(address)": "a3ec138d",
					"winnerName()": "e2ba53f0",
					"winningProposal()": "609ff1bd"
				}
			},
			"storageLayout": {
				"storage": [
					{
						"astId": 18,
						"contract": ".git/MyContracts/Voting.sol:Ballot",
						"label": "chairperson",
						"offset": 0,
						"slot": "0",
						"type": "t_address"
					},
					{
						"astId": 23,
						"contract": ".git/MyContracts/Voting.sol:Ballot",
						"label": "voters",
						"offset": 0,
						"slot": "1",
						"type": "t_mapping(t_address,t_struct(Voter)11_storage)"
					},
					{
						"astId": 27,
						"contract": ".git/MyContracts/Voting.sol:Ballot",
						"label": "proposals",
						"offset": 0,
						"slot": "2",
						"type": "t_array(t_struct(Proposal)16_storage)dyn_storage"
					}
				],
				"types": {
					"t_address": {
						"encoding": "inplace",
						"label": "address",
						"numberOfBytes": "20"
					},
					"t_array(t_struct(Proposal)16_storage)dyn_storage": {
						"base": "t_struct(Proposal)16_storage",
						"encoding": "dynamic_array",
						"label": "struct Ballot.Proposal[]",
						"numberOfBytes": "32"
					},
					"t_bool": {
						"encoding": "inplace",
						"label": "bool",
						"numberOfBytes": "1"
					},
					"t_mapping(t_address,t_struct(Voter)11_storage)": {
						"encoding": "mapping",
						"key": "t_address",
						"label": "mapping(address => struct Ballot.Voter)",
						"numberOfBytes": "32",
						"value": "t_struct(Voter)11_storage"
					},
					"t_string_storage": {
						"encoding": "bytes",
						"label": "string",
						"numberOfBytes": "32"
					},
					"t_struct(Proposal)16_storage": {
						"encoding": "inplace",
						"label": "struct Ballot.Proposal",
						"members": [
							{
								"astId": 13,
								"contract": ".git/MyContracts/Voting.sol:Ballot",
								"label": "name",
								"offset": 0,
								"slot": "0",
								"type": "t_string_storage"
							},
							{
								"astId": 15,
								"contract": ".git/MyContracts/Voting.sol:Ballot",
								"label": "voteCount",
								"offset": 0,
								"slot": "1",
								"type": "t_uint256"
							}
						],
						"numberOfBytes": "64"
					},
					"t_struct(Voter)11_storage": {
						"encoding": "inplace",
						"label": "struct Ballot.Voter",
						"members": [
							{
								"astId": 4,
								"contract": ".git/MyContracts/Voting.sol:Ballot",
								"label": "weight",
								"offset": 0,
								"slot": "0",
								"type": "t_uint256"
							},
							{
								"astId": 6,
								"contract": ".git/MyContracts/Voting.sol:Ballot",
								"label": "voted",
								"offset": 0,
								"slot": "1",
								"type": "t_bool"
							},
							{
								"astId": 8,
								"contract": ".git/MyContracts/Voting.sol:Ballot",
								"label": "delegate",
								"offset": 1,
								"slot": "1",
								"type": "t_address"
							},
							{
								"astId": 10,
								"contract": ".git/MyContracts/Voting.sol:Ballot",
								"label": "vote",
								"offset": 0,
								"slot": "2",
								"type": "t_uint256"
							}
						],
						"numberOfBytes": "96"
					},
					"t_uint256": {
						"encoding": "inplace",
						"label": "uint256",
						"numberOfBytes": "32"
					}
				}
			},
			"userdoc": {
				"kind": "user",
				"methods": {},
				"version": 1
			}
		}
	}
}