{
	".git/MyContracts/RealEstateSale.sol": {
		"RealEstateSale": {
			"abi": [
				{
					"inputs": [],
					"stateMutability": "nonpayable",
					"type": "constructor"
				},
				{
					"anonymous": false,
					"inputs": [
						{
							"indexed": true,
							"internalType": "address",
							"name": "buyer",
							"type": "address"
						},
						{
							"indexed": false,
							"internalType": "uint256",
							"name": "amount",
							"type": "uint256"
						}
					],
					"name": "BalancePaid",
					"type": "event"
				},
				{
					"anonymous": false,
					"inputs": [
						{
							"indexed": true,
							"internalType": "address",
							"name": "seller",
							"type": "address"
						}
					],
					"name": "InspectionApproved",
					"type": "event"
				},
				{
					"anonymous": false,
					"inputs": [
						{
							"indexed": false,
							"internalType": "string",
							"name": "propertyId",
							"type": "string"
						},
						{
							"indexed": false,
							"internalType": "string",
							"name": "propertyAddress",
							"type": "string"
						},
						{
							"indexed": false,
							"internalType": "uint256",
							"name": "salePrice",
							"type": "uint256"
						},
						{
							"indexed": false,
							"internalType": "uint256",
							"name": "depositAmount",
							"type": "uint256"
						}
					],
					"name": "PropertyListed",
					"type": "event"
				},
				{
					"anonymous": false,
					"inputs": [
						{
							"indexed": true,
							"internalType": "address",
							"name": "buyer",
							"type": "address"
						},
						{
							"indexed": false,
							"internalType": "uint256",
							"name": "depositPaid",
							"type": "uint256"
						}
					],
					"name": "PropertyReserved",
					"type": "event"
				},
				{
					"anonymous": false,
					"inputs": [
						{
							"indexed": true,
							"internalType": "address",
							"name": "seller",
							"type": "address"
						},
						{
							"indexed": true,
							"internalType": "address",
							"name": "buyer",
							"type": "address"
						},
						{
							"indexed": false,
							"internalType": "uint256",
							"name": "refundedAmount",
							"type": "uint256"
						}
					],
					"name": "SaleCancelled",
					"type": "event"
				},
				{
					"anonymous": false,
					"inputs": [
						{
							"indexed": true,
							"internalType": "address",
							"name": "seller",
							"type": "address"
						},
						{
							"indexed": true,
							"internalType": "address",
							"name": "buyer",
							"type": "address"
						},
						{
							"indexed": false,
							"internalType": "uint256",
							"name": "totalPaid",
							"type": "uint256"
						}
					],
					"name": "SaleCompleted",
					"type": "event"
				},
				{
					"inputs": [],
					"name": "approveInspection",
					"outputs": [],
					"stateMutability": "nonpayable",
					"type": "function"
				},
				{
					"inputs": [],
					"name": "buyer",
					"outputs": [
						{
							"internalType": "address",
							"name": "",
							"type": "address"
						}
					],
					"stateMutability": "view",
					"type": "function"
				},
				{
					"inputs": [],
					"name": "cancelSale",
					"outputs": [],
					"stateMutability": "nonpayable",
					"type": "function"
				},
				{
					"inputs": [],
					"name": "cancelled",
					"outputs": [
						{
							"internalType": "bool",
							"name": "",
							"type": "bool"
						}
					],
					"stateMutability": "view",
					"type": "function"
				},
				{
					"inputs": [],
					"name": "currentOwner",
					"outputs": [
						{
							"internalType": "address",
							"name": "",
							"type": "address"
						}
					],
					"stateMutability": "view",
					"type": "function"
				},
				{
					"inputs": [],
					"name": "depositAmount",
					"outputs": [
						{
							"internalType": "uint256",
							"name": "",
							"type": "uint256"
						}
					],
					"stateMutability": "view",
					"type": "function"
				},
				{
					"inputs": [],
					"name": "finalizeSale",
					"outputs": [],
					"stateMutability": "nonpayable",
					"type": "function"
				},
				{
					"inputs": [],
					"name": "getContractBalance",
					"outputs": [
						{
							"internalType": "uint256",
							"name": "",
							"type": "uint256"
						}
					],
					"stateMutability": "view",
					"type": "function"
				},
				{
					"inputs": [],
					"name": "inspectionApproved",
					"outputs": [
						{
							"internalType": "bool",
							"name": "",
							"type": "bool"
						}
					],
					"stateMutability": "view",
					"type": "function"
				},
				{
					"inputs": [],
					"name": "isListed",
					"outputs": [
						{
							"internalType": "bool",
							"name": "",
							"type": "bool"
						}
					],
					"stateMutability": "view",
					"type": "function"
				},
				{
					"inputs": [],
					"name": "isReserved",
					"outputs": [
						{
							"internalType": "bool",
							"name": "",
							"type": "bool"
						}
					],
					"stateMutability": "view",
					"type": "function"
				},
				{
					"inputs": [
						{
							"internalType": "string",
							"name": "_propertyId",
							"type": "string"
						},
						{
							"internalType": "string",
							"name": "_propertyAddress",
							"type": "string"
						},
						{
							"internalType": "uint256",
							"name": "_salePrice",
							"type": "uint256"
						},
						{
							"internalType": "uint256",
							"name": "_depositAmount",
							"type": "uint256"
						}
					],
					"name": "listProperty",
					"outputs": [],
					"stateMutability": "nonpayable",
					"type": "function"
				},
				{
					"inputs": [],
					"name": "payRemainingBalance",
					"outputs": [],
					"stateMutability": "payable",
					"type": "function"
				},
				{
					"inputs": [],
					"name": "propertyAddress",
					"outputs": [
						{
							"internalType": "string",
							"name": "",
							"type": "string"
						}
					],
					"stateMutability": "view",
					"type": "function"
				},
				{
					"inputs": [],
					"name": "propertyId",
					"outputs": [
						{
							"internalType": "string",
							"name": "",
							"type": "string"
						}
					],
					"stateMutability": "view",
					"type": "function"
				},
				{
					"inputs": [],
					"name": "reserveProperty",
					"outputs": [],
					"stateMutability": "payable",
					"type": "function"
				},
				{
					"inputs": [],
					"name": "saleCompleted",
					"outputs": [
						{
							"internalType": "bool",
							"name": "",
							"type": "bool"
						}
					],
					"stateMutability": "view",
					"type": "function"
				},
				{
					"inputs": [],
					"name": "salePrice",
					"outputs": [
						{
							"internalType": "uint256",
							"name": "",
							"type": "uint256"
						}
					],
					"stateMutability": "view",
					"type": "function"
				},
				{
					"inputs": [],
					"name": "seller",
					"outputs": [
						{
							"internalType": "address",
							"name": "",
							"type": "address"
						}
					],
					"stateMutability": "view",
					"type": "function"
				},
				{
					"inputs": [],
					"name": "state",
					"outputs": [
						{
							"internalType": "enum RealEstateSale.SaleState",
							"name": "",
							"type": "uint8"
						}
					],
					"stateMutability": "view",
					"type": "function"
				}
			],
			"devdoc": {
				"details": "Academic/demo use only. Does not replace legal conveyancing.",
				"kind": "dev",
				"methods": {
					"cancelSale()": {
						"details": "If buyer already paid deposit/balance, funds are refunded to buyer"
					},
					"currentOwner()": {
						"details": "Before completion, seller is treated as owner; after completion, buyer is treated as owner"
					}
				},
				"title": "RealEstateSale",
				"version": 1
			},
			"evm": {
				"assembly": "    /* \".git/MyContracts/RealEstateSale.sol\":229:5852  contract RealEstateSale {... */\n  mstore(0x40, 0x80)\n    /* \".git/MyContracts/RealEstateSale.sol\":1767:1855  constructor() {... */\n  callvalue\n  dup1\n  iszero\n  tag_1\n  jumpi\n  revert(0x00, 0x00)\ntag_1:\n  pop\n    /* \".git/MyContracts/RealEstateSale.sol\":1792:1798  seller */\n  0x00\n    /* \".git/MyContracts/RealEstateSale.sol\":1792:1811  seller = msg.sender */\n  dup1\n  sload\n    /* \".git/MyContracts/RealEstateSale.sol\":1801:1811  msg.sender */\n  caller\n  not(sub(shl(0xa0, 0x01), 0x01))\n    /* \".git/MyContracts/RealEstateSale.sol\":1792:1811  seller = msg.sender */\n  swap1\n  swap2\n  and\n  or\n  swap1\n  sstore\n    /* \".git/MyContracts/RealEstateSale.sol\":1822:1827  state */\n  0x06\n    /* \".git/MyContracts/RealEstateSale.sol\":1822:1847  state = SaleState.Created */\n  dup1\n  sload\n  not(shl(0x28, 0xff))\n  and\n  swap1\n  sstore\n    /* \".git/MyContracts/RealEstateSale.sol\":229:5852  contract RealEstateSale {... */\n  dataSize(sub_0)\n  dup1\n  dataOffset(sub_0)\n  0x00\n  codecopy\n  0x00\n  return\nstop\n\nsub_0: assembly {\n        /* \".git/MyContracts/RealEstateSale.sol\":229:5852  contract RealEstateSale {... */\n      mstore(0x40, 0x80)\n      jumpi(tag_1, lt(calldatasize, 0x04))\n      shr(0xe0, calldataload(0x00))\n      dup1\n      0x9a82a09a\n      gt\n      tag_22\n      jumpi\n      dup1\n      0xe7e10490\n      gt\n      tag_23\n      jumpi\n      dup1\n      0xe7e10490\n      eq\n      tag_17\n      jumpi\n      dup1\n      0xec6b720b\n      eq\n      tag_18\n      jumpi\n      dup1\n      0xee7a3b8e\n      eq\n      tag_19\n      jumpi\n      dup1\n      0xf51f96dd\n      eq\n      tag_20\n      jumpi\n      dup1\n      0xfb5bc457\n      eq\n      tag_21\n      jumpi\n      revert(0x00, 0x00)\n    tag_23:\n      dup1\n      0x9a82a09a\n      eq\n      tag_12\n      jumpi\n      dup1\n      0xb387ef92\n      eq\n      tag_13\n      jumpi\n      dup1\n      0xc19d93fb\n      eq\n      tag_14\n      jumpi\n      dup1\n      0xd910b05a\n      eq\n      tag_15\n      jumpi\n      dup1\n      0xded26e34\n      eq\n      tag_16\n      jumpi\n      revert(0x00, 0x00)\n    tag_22:\n      dup1\n      0x66f0c134\n      gt\n      tag_24\n      jumpi\n      dup1\n      0x66f0c134\n      eq\n      tag_7\n      jumpi\n      dup1\n      0x6f9fb98a\n      eq\n      tag_8\n      jumpi\n      dup1\n      0x7150d8ae\n      eq\n      tag_9\n      jumpi\n      dup1\n      0x7437ef75\n      eq\n      tag_10\n      jumpi\n      dup1\n      0x78261878\n      eq\n      tag_11\n      jumpi\n      revert(0x00, 0x00)\n    tag_24:\n      dup1\n      0x08551a53\n      eq\n      tag_2\n      jumpi\n      dup1\n      0x32e0b69c\n      eq\n      tag_3\n      jumpi\n      dup1\n      0x419759f5\n      eq\n      tag_4\n      jumpi\n      dup1\n      0x58a687ec\n      eq\n      tag_5\n      jumpi\n      dup1\n      0x66440d71\n      eq\n      tag_6\n      jumpi\n    tag_1:\n      revert(0x00, 0x00)\n        /* \".git/MyContracts/RealEstateSale.sol\":260:281  address public seller */\n    tag_2:\n      callvalue\n      dup1\n      iszero\n      tag_25\n      jumpi\n      revert(0x00, 0x00)\n    tag_25:\n      pop\n      sload(0x00)\n      tag_26\n      swap1\n      sub(shl(0xa0, 0x01), 0x01)\n      and\n      dup2\n      jump\n    tag_26:\n      mload(0x40)\n      sub(shl(0xa0, 0x01), 0x01)\n        /* \"#utility.yul\":178:210   */\n      swap1\n      swap2\n      and\n        /* \"#utility.yul\":160:211   */\n      dup2\n      mstore\n        /* \"#utility.yul\":148:150   */\n      0x20\n        /* \"#utility.yul\":133:151   */\n      add\n        /* \".git/MyContracts/RealEstateSale.sol\":260:281  address public seller */\n    tag_28:\n      mload(0x40)\n      dup1\n      swap2\n      sub\n      swap1\n      return\n        /* \".git/MyContracts/RealEstateSale.sol\":508:538  bool public inspectionApproved */\n    tag_3:\n      callvalue\n      dup1\n      iszero\n      tag_30\n      jumpi\n      revert(0x00, 0x00)\n    tag_30:\n      pop\n      sload(0x06)\n      tag_31\n      swap1\n      0x010000\n      swap1\n      div\n      0xff\n      and\n      dup2\n      jump\n    tag_31:\n      mload(0x40)\n        /* \"#utility.yul\":387:401   */\n      swap1\n      iszero\n        /* \"#utility.yul\":380:402   */\n      iszero\n        /* \"#utility.yul\":362:403   */\n      dup2\n      mstore\n        /* \"#utility.yul\":350:352   */\n      0x20\n        /* \"#utility.yul\":335:353   */\n      add\n        /* \".git/MyContracts/RealEstateSale.sol\":508:538  bool public inspectionApproved */\n      tag_28\n        /* \"#utility.yul\":222:409   */\n      jump\n        /* \".git/MyContracts/RealEstateSale.sol\":415:443  uint256 public depositAmount */\n    tag_4:\n      callvalue\n      dup1\n      iszero\n      tag_35\n      jumpi\n      revert(0x00, 0x00)\n    tag_35:\n      pop\n      tag_36\n      sload(0x05)\n      dup2\n      jump\n    tag_36:\n      mload(0x40)\n        /* \"#utility.yul\":560:585   */\n      swap1\n      dup2\n      mstore\n        /* \"#utility.yul\":548:550   */\n      0x20\n        /* \"#utility.yul\":533:551   */\n      add\n        /* \".git/MyContracts/RealEstateSale.sol\":415:443  uint256 public depositAmount */\n      tag_28\n        /* \"#utility.yul\":414:591   */\n      jump\n        /* \".git/MyContracts/RealEstateSale.sol\":4284:4797  function finalizeSale() external onlySeller notCompleted notCancelled {... */\n    tag_5:\n      callvalue\n      dup1\n      iszero\n      tag_40\n      jumpi\n      revert(0x00, 0x00)\n    tag_40:\n      pop\n      tag_41\n      tag_42\n      jump\t// in\n    tag_41:\n      stop\n        /* \".git/MyContracts/RealEstateSale.sol\":348:377  string public propertyAddress */\n    tag_6:\n      callvalue\n      dup1\n      iszero\n      tag_43\n      jumpi\n      revert(0x00, 0x00)\n    tag_43:\n      pop\n      tag_44\n      tag_45\n      jump\t// in\n    tag_44:\n      mload(0x40)\n      tag_28\n      swap2\n      swap1\n      tag_47\n      jump\t// in\n        /* \".git/MyContracts/RealEstateSale.sol\":3782:4193  function payRemainingBalance() external payable onlyBuyer notCompleted notCancelled {... */\n    tag_7:\n      tag_41\n      tag_49\n      jump\t// in\n        /* \".git/MyContracts/RealEstateSale.sol\":5398:5507  function getContractBalance() external view returns (uint256) {... */\n    tag_8:\n      callvalue\n      dup1\n      iszero\n      tag_50\n      jumpi\n      revert(0x00, 0x00)\n    tag_50:\n      pop\n        /* \".git/MyContracts/RealEstateSale.sol\":5478:5499  address(this).balance */\n      selfbalance\n        /* \".git/MyContracts/RealEstateSale.sol\":5398:5507  function getContractBalance() external view returns (uint256) {... */\n      jump(tag_36)\n        /* \".git/MyContracts/RealEstateSale.sol\":288:308  address public buyer */\n    tag_9:\n      callvalue\n      dup1\n      iszero\n      tag_54\n      jumpi\n      revert(0x00, 0x00)\n    tag_54:\n      pop\n      sload(0x01)\n      tag_26\n      swap1\n      sub(shl(0xa0, 0x01), 0x01)\n      and\n      dup2\n      jump\n        /* \".git/MyContracts/RealEstateSale.sol\":1932:2756  function listProperty(... */\n    tag_10:\n      callvalue\n      dup1\n      iszero\n      tag_58\n      jumpi\n      revert(0x00, 0x00)\n    tag_58:\n      pop\n      tag_41\n      tag_60\n      calldatasize\n      0x04\n      tag_61\n      jump\t// in\n    tag_60:\n      tag_62\n      jump\t// in\n        /* \".git/MyContracts/RealEstateSale.sol\":545:570  bool public saleCompleted */\n    tag_11:\n      callvalue\n      dup1\n      iszero\n      tag_63\n      jumpi\n      revert(0x00, 0x00)\n    tag_63:\n      pop\n      sload(0x06)\n      tag_31\n      swap1\n      0x01000000\n      swap1\n      div\n      0xff\n      and\n      dup2\n      jump\n        /* \".git/MyContracts/RealEstateSale.sol\":577:598  bool public cancelled */\n    tag_12:\n      callvalue\n      dup1\n      iszero\n      tag_67\n      jumpi\n      revert(0x00, 0x00)\n    tag_67:\n      pop\n      sload(0x06)\n      tag_31\n      swap1\n      shl(0x20, 0x01)\n      swap1\n      div\n      0xff\n      and\n      dup2\n      jump\n        /* \".git/MyContracts/RealEstateSale.sol\":5693:5849  function currentOwner() external view returns (address) {... */\n    tag_13:\n      callvalue\n      dup1\n      iszero\n      tag_71\n      jumpi\n      revert(0x00, 0x00)\n    tag_71:\n      pop\n      tag_26\n      tag_73\n      jump\t// in\n        /* \".git/MyContracts/RealEstateSale.sol\":750:772  SaleState public state */\n    tag_14:\n      callvalue\n      dup1\n      iszero\n      tag_75\n      jumpi\n      revert(0x00, 0x00)\n    tag_75:\n      pop\n      sload(0x06)\n      tag_76\n      swap1\n      0x010000000000\n      swap1\n      div\n      0xff\n      and\n      dup2\n      jump\n    tag_76:\n      mload(0x40)\n      tag_28\n      swap2\n      swap1\n      tag_79\n      jump\t// in\n        /* \".git/MyContracts/RealEstateSale.sol\":452:472  bool public isListed */\n    tag_15:\n      callvalue\n      dup1\n      iszero\n      tag_80\n      jumpi\n      revert(0x00, 0x00)\n    tag_80:\n      pop\n      sload(0x06)\n      tag_31\n      swap1\n      0xff\n      and\n      dup2\n      jump\n        /* \".git/MyContracts/RealEstateSale.sol\":2848:3264  function reserveProperty() external payable notCompleted notCancelled {... */\n    tag_16:\n      tag_41\n      tag_85\n      jump\t// in\n        /* \".git/MyContracts/RealEstateSale.sol\":4955:5334  function cancelSale() external onlySeller notCompleted notCancelled {... */\n    tag_17:\n      callvalue\n      dup1\n      iszero\n      tag_86\n      jumpi\n      revert(0x00, 0x00)\n    tag_86:\n      pop\n      tag_41\n      tag_88\n      jump\t// in\n        /* \".git/MyContracts/RealEstateSale.sol\":3361:3692  function approveInspection() external onlySeller notCompleted notCancelled {... */\n    tag_18:\n      callvalue\n      dup1\n      iszero\n      tag_89\n      jumpi\n      revert(0x00, 0x00)\n    tag_89:\n      pop\n      tag_41\n      tag_91\n      jump\t// in\n        /* \".git/MyContracts/RealEstateSale.sol\":317:341  string public propertyId */\n    tag_19:\n      callvalue\n      dup1\n      iszero\n      tag_92\n      jumpi\n      revert(0x00, 0x00)\n    tag_92:\n      pop\n      tag_44\n      tag_94\n      jump\t// in\n        /* \".git/MyContracts/RealEstateSale.sol\":384:408  uint256 public salePrice */\n    tag_20:\n      callvalue\n      dup1\n      iszero\n      tag_96\n      jumpi\n      revert(0x00, 0x00)\n    tag_96:\n      pop\n      tag_36\n      sload(0x04)\n      dup2\n      jump\n        /* \".git/MyContracts/RealEstateSale.sol\":479:501  bool public isReserved */\n    tag_21:\n      callvalue\n      dup1\n      iszero\n      tag_100\n      jumpi\n      revert(0x00, 0x00)\n    tag_100:\n      pop\n      sload(0x06)\n      tag_31\n      swap1\n      0x0100\n      swap1\n      div\n      0xff\n      and\n      dup2\n      jump\n        /* \".git/MyContracts/RealEstateSale.sol\":4284:4797  function finalizeSale() external onlySeller notCompleted notCancelled {... */\n    tag_42:\n        /* \".git/MyContracts/RealEstateSale.sol\":1375:1381  seller */\n      and(sub(shl(0xa0, 0x01), 0x01), sload(0x00))\n        /* \".git/MyContracts/RealEstateSale.sol\":1361:1371  msg.sender */\n      caller\n        /* \".git/MyContracts/RealEstateSale.sol\":1361:1381  msg.sender == seller */\n      eq\n        /* \".git/MyContracts/RealEstateSale.sol\":1353:1411  require(msg.sender == seller, \"Only seller can call this\") */\n      tag_105\n      jumpi\n      mload(0x40)\n      shl(0xe5, 0x461bcd)\n      dup2\n      mstore\n      0x04\n      add\n      tag_106\n      swap1\n      tag_107\n      jump\t// in\n    tag_106:\n      mload(0x40)\n      dup1\n      swap2\n      sub\n      swap1\n      revert\n    tag_105:\n        /* \".git/MyContracts/RealEstateSale.sol\":1599:1612  saleCompleted */\n      sload(0x06)\n      0x01000000\n      swap1\n      div\n      0xff\n      and\n        /* \".git/MyContracts/RealEstateSale.sol\":1598:1612  !saleCompleted */\n      iszero\n        /* \".git/MyContracts/RealEstateSale.sol\":1590:1639  require(!saleCompleted, \"Sale already completed\") */\n      tag_109\n      jumpi\n      mload(0x40)\n      shl(0xe5, 0x461bcd)\n      dup2\n      mstore\n      0x04\n      add\n      tag_106\n      swap1\n      tag_111\n      jump\t// in\n    tag_109:\n        /* \".git/MyContracts/RealEstateSale.sol\":1711:1720  cancelled */\n      sload(0x06)\n      shl(0x20, 0x01)\n      swap1\n      div\n      0xff\n      and\n        /* \".git/MyContracts/RealEstateSale.sol\":1710:1720  !cancelled */\n      iszero\n        /* \".git/MyContracts/RealEstateSale.sol\":1702:1739  require(!cancelled, \"Sale cancelled\") */\n      tag_113\n      jumpi\n      mload(0x40)\n      shl(0xe5, 0x461bcd)\n      dup2\n      mstore\n      0x04\n      add\n      tag_106\n      swap1\n      tag_115\n      jump\t// in\n    tag_113:\n        /* \".git/MyContracts/RealEstateSale.sol\":4373:4383  isReserved */\n      sload(0x06)\n      0x0100\n      swap1\n      div\n      0xff\n      and\n        /* \".git/MyContracts/RealEstateSale.sol\":4365:4409  require(isReserved, \"Property not reserved\") */\n      tag_117\n      jumpi\n      mload(0x40)\n      shl(0xe5, 0x461bcd)\n      dup2\n      mstore\n      0x04\n      add\n      tag_106\n      swap1\n      tag_119\n      jump\t// in\n    tag_117:\n        /* \".git/MyContracts/RealEstateSale.sol\":4428:4446  inspectionApproved */\n      sload(0x06)\n      0x010000\n      swap1\n      div\n      0xff\n      and\n        /* \".git/MyContracts/RealEstateSale.sol\":4420:4474  require(inspectionApproved, \"Inspection not approved\") */\n      tag_120\n      jumpi\n      mload(0x40)\n      shl(0xe5, 0x461bcd)\n      dup2\n      mstore\n        /* \"#utility.yul\":4833:4835   */\n      0x20\n        /* \".git/MyContracts/RealEstateSale.sol\":4420:4474  require(inspectionApproved, \"Inspection not approved\") */\n      0x04\n      dup3\n      add\n        /* \"#utility.yul\":4815:4836   */\n      mstore\n        /* \"#utility.yul\":4872:4874   */\n      0x17\n        /* \"#utility.yul\":4852:4870   */\n      0x24\n      dup3\n      add\n        /* \"#utility.yul\":4845:4875   */\n      mstore\n      shl(0x4a, 0x125b9cdc1958dd1a5bdb881b9bdd08185c1c1c9bdd9959)\n        /* \"#utility.yul\":4891:4909   */\n      0x44\n      dup3\n      add\n        /* \"#utility.yul\":4884:4937   */\n      mstore\n        /* \"#utility.yul\":4954:4972   */\n      0x64\n      add\n        /* \".git/MyContracts/RealEstateSale.sol\":4420:4474  require(inspectionApproved, \"Inspection not approved\") */\n      tag_106\n        /* \"#utility.yul\":4631:4978   */\n      jump\n        /* \".git/MyContracts/RealEstateSale.sol\":4420:4474  require(inspectionApproved, \"Inspection not approved\") */\n    tag_120:\n        /* \".git/MyContracts/RealEstateSale.sol\":4518:4527  salePrice */\n      sload(0x04)\n        /* \".git/MyContracts/RealEstateSale.sol\":4493:4514  address(this).balance */\n      selfbalance\n        /* \".git/MyContracts/RealEstateSale.sol\":4493:4527  address(this).balance == salePrice */\n      eq\n        /* \".git/MyContracts/RealEstateSale.sol\":4485:4561  require(address(this).balance == salePrice, \"Full payment not yet received\") */\n      tag_123\n      jumpi\n      mload(0x40)\n      shl(0xe5, 0x461bcd)\n      dup2\n      mstore\n        /* \"#utility.yul\":5185:5187   */\n      0x20\n        /* \".git/MyContracts/RealEstateSale.sol\":4485:4561  require(address(this).balance == salePrice, \"Full payment not yet received\") */\n      0x04\n      dup3\n      add\n        /* \"#utility.yul\":5167:5188   */\n      mstore\n        /* \"#utility.yul\":5224:5226   */\n      0x1d\n        /* \"#utility.yul\":5204:5222   */\n      0x24\n      dup3\n      add\n        /* \"#utility.yul\":5197:5227   */\n      mstore\n        /* \"#utility.yul\":5263:5294   */\n      0x46756c6c207061796d656e74206e6f7420796574207265636569766564000000\n        /* \"#utility.yul\":5243:5261   */\n      0x44\n      dup3\n      add\n        /* \"#utility.yul\":5236:5295   */\n      mstore\n        /* \"#utility.yul\":5312:5330   */\n      0x64\n      add\n        /* \".git/MyContracts/RealEstateSale.sol\":4485:4561  require(address(this).balance == salePrice, \"Full payment not yet received\") */\n      tag_106\n        /* \"#utility.yul\":4983:5336   */\n      jump\n        /* \".git/MyContracts/RealEstateSale.sol\":4485:4561  require(address(this).balance == salePrice, \"Full payment not yet received\") */\n    tag_123:\n        /* \".git/MyContracts/RealEstateSale.sol\":4574:4587  saleCompleted */\n      0x06\n        /* \".git/MyContracts/RealEstateSale.sol\":4574:4594  saleCompleted = true */\n      dup1\n      sload\n      not(0xff00ff000000)\n        /* \".git/MyContracts/RealEstateSale.sol\":4605:4632  state = SaleState.Completed */\n      and\n      0x040001000000\n      or\n      swap1\n      sstore\n      0x00\n        /* \".git/MyContracts/RealEstateSale.sol\":4705:4711  seller */\n      dup1\n      sload\n        /* \".git/MyContracts/RealEstateSale.sol\":4697:4732  payable(seller).transfer(totalPaid) */\n      mload(0x40)\n        /* \".git/MyContracts/RealEstateSale.sol\":4665:4686  address(this).balance */\n      selfbalance\n      swap3\n      sub(shl(0xa0, 0x01), 0x01)\n        /* \".git/MyContracts/RealEstateSale.sol\":4705:4711  seller */\n      swap1\n      swap3\n      and\n      swap2\n        /* \".git/MyContracts/RealEstateSale.sol\":4697:4732  payable(seller).transfer(totalPaid) */\n      dup4\n      iszero\n      0x08fc\n      mul\n      swap2\n        /* \".git/MyContracts/RealEstateSale.sol\":4665:4686  address(this).balance */\n      dup5\n      swap2\n        /* \".git/MyContracts/RealEstateSale.sol\":4697:4732  payable(seller).transfer(totalPaid) */\n      dup2\n      dup2\n      dup2\n        /* \".git/MyContracts/RealEstateSale.sol\":4665:4686  address(this).balance */\n      dup6\n        /* \".git/MyContracts/RealEstateSale.sol\":4705:4711  seller */\n      dup9\n        /* \".git/MyContracts/RealEstateSale.sol\":4697:4732  payable(seller).transfer(totalPaid) */\n      dup9\n      call\n      swap4\n      pop\n      pop\n      pop\n      pop\n      iszero\n      dup1\n      iszero\n      tag_130\n      jumpi\n      returndatacopy(0x00, 0x00, returndatasize)\n      revert(0x00, returndatasize)\n    tag_130:\n      pop\n        /* \".git/MyContracts/RealEstateSale.sol\":4772:4777  buyer */\n      sload(0x01)\n      0x00\n        /* \".git/MyContracts/RealEstateSale.sol\":4764:4770  seller */\n      sload\n        /* \".git/MyContracts/RealEstateSale.sol\":4750:4789  SaleCompleted(seller, buyer, totalPaid) */\n      mload(0x40)\n        /* \"#utility.yul\":560:585   */\n      dup4\n      dup2\n      mstore\n      sub(shl(0xa0, 0x01), 0x01)\n        /* \".git/MyContracts/RealEstateSale.sol\":4772:4777  buyer */\n      swap3\n      dup4\n      and\n      swap3\n        /* \".git/MyContracts/RealEstateSale.sol\":4764:4770  seller */\n      swap1\n      swap2\n      and\n      swap1\n        /* \".git/MyContracts/RealEstateSale.sol\":4750:4789  SaleCompleted(seller, buyer, totalPaid) */\n      0xd096fdd1c0eb5b28e18d287f828bb68ae24b538e91b557555b53efa3d92a9ef0\n      swap1\n        /* \"#utility.yul\":548:550   */\n      0x20\n        /* \"#utility.yul\":533:551   */\n      add\n        /* \".git/MyContracts/RealEstateSale.sol\":4750:4789  SaleCompleted(seller, buyer, totalPaid) */\n    tag_131:\n      mload(0x40)\n      dup1\n      swap2\n      sub\n      swap1\n      log3\n        /* \".git/MyContracts/RealEstateSale.sol\":4354:4797  {... */\n      pop\n        /* \".git/MyContracts/RealEstateSale.sol\":4284:4797  function finalizeSale() external onlySeller notCompleted notCancelled {... */\n      jump\t// out\n        /* \".git/MyContracts/RealEstateSale.sol\":348:377  string public propertyAddress */\n    tag_45:\n      0x03\n      dup1\n      sload\n      tag_132\n      swap1\n      tag_133\n      jump\t// in\n    tag_132:\n      dup1\n      0x1f\n      add\n      0x20\n      dup1\n      swap2\n      div\n      mul\n      0x20\n      add\n      mload(0x40)\n      swap1\n      dup2\n      add\n      0x40\n      mstore\n      dup1\n      swap3\n      swap2\n      swap1\n      dup2\n      dup2\n      mstore\n      0x20\n      add\n      dup3\n      dup1\n      sload\n      tag_134\n      swap1\n      tag_133\n      jump\t// in\n    tag_134:\n      dup1\n      iszero\n      tag_135\n      jumpi\n      dup1\n      0x1f\n      lt\n      tag_136\n      jumpi\n      0x0100\n      dup1\n      dup4\n      sload\n      div\n      mul\n      dup4\n      mstore\n      swap2\n      0x20\n      add\n      swap2\n      jump(tag_135)\n    tag_136:\n      dup3\n      add\n      swap2\n      swap1\n      0x00\n      mstore\n      keccak256(0x00, 0x20)\n      swap1\n    tag_137:\n      dup2\n      sload\n      dup2\n      mstore\n      swap1\n      0x01\n      add\n      swap1\n      0x20\n      add\n      dup1\n      dup4\n      gt\n      tag_137\n      jumpi\n      dup3\n      swap1\n      sub\n      0x1f\n      and\n      dup3\n      add\n      swap2\n    tag_135:\n      pop\n      pop\n      pop\n      pop\n      pop\n      dup2\n      jump\t// out\n        /* \".git/MyContracts/RealEstateSale.sol\":3782:4193  function payRemainingBalance() external payable onlyBuyer notCompleted notCancelled {... */\n    tag_49:\n        /* \".git/MyContracts/RealEstateSale.sol\":1493:1498  buyer */\n      and(sub(shl(0xa0, 0x01), 0x01), sload(0x01))\n        /* \".git/MyContracts/RealEstateSale.sol\":1479:1489  msg.sender */\n      caller\n        /* \".git/MyContracts/RealEstateSale.sol\":1479:1498  msg.sender == buyer */\n      eq\n        /* \".git/MyContracts/RealEstateSale.sol\":1471:1527  require(msg.sender == buyer, \"Only buyer can call this\") */\n      tag_139\n      jumpi\n      mload(0x40)\n      shl(0xe5, 0x461bcd)\n      dup2\n      mstore\n        /* \"#utility.yul\":5928:5930   */\n      0x20\n        /* \".git/MyContracts/RealEstateSale.sol\":1471:1527  require(msg.sender == buyer, \"Only buyer can call this\") */\n      0x04\n      dup3\n      add\n        /* \"#utility.yul\":5910:5931   */\n      mstore\n        /* \"#utility.yul\":5967:5969   */\n      0x18\n        /* \"#utility.yul\":5947:5965   */\n      0x24\n      dup3\n      add\n        /* \"#utility.yul\":5940:5970   */\n      mstore\n        /* \"#utility.yul\":6006:6032   */\n      0x4f6e6c792062757965722063616e2063616c6c20746869730000000000000000\n        /* \"#utility.yul\":5986:6004   */\n      0x44\n      dup3\n      add\n        /* \"#utility.yul\":5979:6033   */\n      mstore\n        /* \"#utility.yul\":6050:6068   */\n      0x64\n      add\n        /* \".git/MyContracts/RealEstateSale.sol\":1471:1527  require(msg.sender == buyer, \"Only buyer can call this\") */\n      tag_106\n        /* \"#utility.yul\":5726:6074   */\n      jump\n        /* \".git/MyContracts/RealEstateSale.sol\":1471:1527  require(msg.sender == buyer, \"Only buyer can call this\") */\n    tag_139:\n        /* \".git/MyContracts/RealEstateSale.sol\":1599:1612  saleCompleted */\n      sload(0x06)\n      0x01000000\n      swap1\n      div\n      0xff\n      and\n        /* \".git/MyContracts/RealEstateSale.sol\":1598:1612  !saleCompleted */\n      iszero\n        /* \".git/MyContracts/RealEstateSale.sol\":1590:1639  require(!saleCompleted, \"Sale already completed\") */\n      tag_143\n      jumpi\n      mload(0x40)\n      shl(0xe5, 0x461bcd)\n      dup2\n      mstore\n      0x04\n      add\n      tag_106\n      swap1\n      tag_111\n      jump\t// in\n    tag_143:\n        /* \".git/MyContracts/RealEstateSale.sol\":1711:1720  cancelled */\n      sload(0x06)\n      shl(0x20, 0x01)\n      swap1\n      div\n      0xff\n      and\n        /* \".git/MyContracts/RealEstateSale.sol\":1710:1720  !cancelled */\n      iszero\n        /* \".git/MyContracts/RealEstateSale.sol\":1702:1739  require(!cancelled, \"Sale cancelled\") */\n      tag_146\n      jumpi\n      mload(0x40)\n      shl(0xe5, 0x461bcd)\n      dup2\n      mstore\n      0x04\n      add\n      tag_106\n      swap1\n      tag_115\n      jump\t// in\n    tag_146:\n        /* \".git/MyContracts/RealEstateSale.sol\":3885:3895  isReserved */\n      sload(0x06)\n      0x0100\n      swap1\n      div\n      0xff\n      and\n        /* \".git/MyContracts/RealEstateSale.sol\":3877:3921  require(isReserved, \"Property not reserved\") */\n      tag_149\n      jumpi\n      mload(0x40)\n      shl(0xe5, 0x461bcd)\n      dup2\n      mstore\n      0x04\n      add\n      tag_106\n      swap1\n      tag_119\n      jump\t// in\n    tag_149:\n        /* \".git/MyContracts/RealEstateSale.sol\":3940:3958  inspectionApproved */\n      sload(0x06)\n      0x010000\n      swap1\n      div\n      0xff\n      and\n        /* \".git/MyContracts/RealEstateSale.sol\":3932:3986  require(inspectionApproved, \"Inspection not approved\") */\n      tag_151\n      jumpi\n      mload(0x40)\n      shl(0xe5, 0x461bcd)\n      dup2\n      mstore\n        /* \"#utility.yul\":4833:4835   */\n      0x20\n        /* \".git/MyContracts/RealEstateSale.sol\":3932:3986  require(inspectionApproved, \"Inspection not approved\") */\n      0x04\n      dup3\n      add\n        /* \"#utility.yul\":4815:4836   */\n      mstore\n        /* \"#utility.yul\":4872:4874   */\n      0x17\n        /* \"#utility.yul\":4852:4870   */\n      0x24\n      dup3\n      add\n        /* \"#utility.yul\":4845:4875   */\n      mstore\n      shl(0x4a, 0x125b9cdc1958dd1a5bdb881b9bdd08185c1c1c9bdd9959)\n        /* \"#utility.yul\":4891:4909   */\n      0x44\n      dup3\n      add\n        /* \"#utility.yul\":4884:4937   */\n      mstore\n        /* \"#utility.yul\":4954:4972   */\n      0x64\n      add\n        /* \".git/MyContracts/RealEstateSale.sol\":3932:3986  require(inspectionApproved, \"Inspection not approved\") */\n      tag_106\n        /* \"#utility.yul\":4631:4978   */\n      jump\n        /* \".git/MyContracts/RealEstateSale.sol\":3932:3986  require(inspectionApproved, \"Inspection not approved\") */\n    tag_151:\n        /* \".git/MyContracts/RealEstateSale.sol\":3999:4024  uint256 requiredRemaining */\n      0x00\n        /* \".git/MyContracts/RealEstateSale.sol\":4039:4052  depositAmount */\n      sload(0x05)\n        /* \".git/MyContracts/RealEstateSale.sol\":4027:4036  salePrice */\n      sload(0x04)\n        /* \".git/MyContracts/RealEstateSale.sol\":4027:4052  salePrice - depositAmount */\n      tag_153\n      swap2\n      swap1\n      tag_154\n      jump\t// in\n    tag_153:\n        /* \".git/MyContracts/RealEstateSale.sol\":3999:4052  uint256 requiredRemaining = salePrice - depositAmount */\n      swap1\n      pop\n        /* \".git/MyContracts/RealEstateSale.sol\":4084:4101  requiredRemaining */\n      dup1\n        /* \".git/MyContracts/RealEstateSale.sol\":4071:4080  msg.value */\n      callvalue\n        /* \".git/MyContracts/RealEstateSale.sol\":4071:4101  msg.value == requiredRemaining */\n      eq\n        /* \".git/MyContracts/RealEstateSale.sol\":4063:4133  require(msg.value == requiredRemaining, \"Incorrect remaining balance\") */\n      tag_155\n      jumpi\n      mload(0x40)\n      shl(0xe5, 0x461bcd)\n      dup2\n      mstore\n        /* \"#utility.yul\":6511:6513   */\n      0x20\n        /* \".git/MyContracts/RealEstateSale.sol\":4063:4133  require(msg.value == requiredRemaining, \"Incorrect remaining balance\") */\n      0x04\n      dup3\n      add\n        /* \"#utility.yul\":6493:6514   */\n      mstore\n        /* \"#utility.yul\":6550:6552   */\n      0x1b\n        /* \"#utility.yul\":6530:6548   */\n      0x24\n      dup3\n      add\n        /* \"#utility.yul\":6523:6553   */\n      mstore\n        /* \"#utility.yul\":6589:6618   */\n      0x496e636f72726563742072656d61696e696e672062616c616e63650000000000\n        /* \"#utility.yul\":6569:6587   */\n      0x44\n      dup3\n      add\n        /* \"#utility.yul\":6562:6619   */\n      mstore\n        /* \"#utility.yul\":6636:6654   */\n      0x64\n      add\n        /* \".git/MyContracts/RealEstateSale.sol\":4063:4133  require(msg.value == requiredRemaining, \"Incorrect remaining balance\") */\n      tag_106\n        /* \"#utility.yul\":6309:6660   */\n      jump\n        /* \".git/MyContracts/RealEstateSale.sol\":4063:4133  require(msg.value == requiredRemaining, \"Incorrect remaining balance\") */\n    tag_155:\n        /* \".git/MyContracts/RealEstateSale.sol\":4151:4185  BalancePaid(msg.sender, msg.value) */\n      mload(0x40)\n        /* \".git/MyContracts/RealEstateSale.sol\":4175:4184  msg.value */\n      callvalue\n        /* \"#utility.yul\":560:585   */\n      dup2\n      mstore\n        /* \".git/MyContracts/RealEstateSale.sol\":4163:4173  msg.sender */\n      caller\n      swap1\n        /* \".git/MyContracts/RealEstateSale.sol\":4151:4185  BalancePaid(msg.sender, msg.value) */\n      0xc6ae9bb0c1de45f8255b2c0caa301476e99b054a2bd36b9908be1f6d96256cd8\n      swap1\n        /* \"#utility.yul\":548:550   */\n      0x20\n        /* \"#utility.yul\":533:551   */\n      add\n        /* \".git/MyContracts/RealEstateSale.sol\":4151:4185  BalancePaid(msg.sender, msg.value) */\n      mload(0x40)\n      dup1\n      swap2\n      sub\n      swap1\n      log2\n        /* \".git/MyContracts/RealEstateSale.sol\":3866:4193  {... */\n      pop\n        /* \".git/MyContracts/RealEstateSale.sol\":3782:4193  function payRemainingBalance() external payable onlyBuyer notCompleted notCancelled {... */\n      jump\t// out\n        /* \".git/MyContracts/RealEstateSale.sol\":1932:2756  function listProperty(... */\n    tag_62:\n        /* \".git/MyContracts/RealEstateSale.sol\":1375:1381  seller */\n      and(sub(shl(0xa0, 0x01), 0x01), sload(0x00))\n        /* \".git/MyContracts/RealEstateSale.sol\":1361:1371  msg.sender */\n      caller\n        /* \".git/MyContracts/RealEstateSale.sol\":1361:1381  msg.sender == seller */\n      eq\n        /* \".git/MyContracts/RealEstateSale.sol\":1353:1411  require(msg.sender == seller, \"Only seller can call this\") */\n      tag_161\n      jumpi\n      mload(0x40)\n      shl(0xe5, 0x461bcd)\n      dup2\n      mstore\n      0x04\n      add\n      tag_106\n      swap1\n      tag_107\n      jump\t// in\n    tag_161:\n        /* \".git/MyContracts/RealEstateSale.sol\":1599:1612  saleCompleted */\n      sload(0x06)\n      0x01000000\n      swap1\n      div\n      0xff\n      and\n        /* \".git/MyContracts/RealEstateSale.sol\":1598:1612  !saleCompleted */\n      iszero\n        /* \".git/MyContracts/RealEstateSale.sol\":1590:1639  require(!saleCompleted, \"Sale already completed\") */\n      tag_164\n      jumpi\n      mload(0x40)\n      shl(0xe5, 0x461bcd)\n      dup2\n      mstore\n      0x04\n      add\n      tag_106\n      swap1\n      tag_111\n      jump\t// in\n    tag_164:\n        /* \".git/MyContracts/RealEstateSale.sol\":1711:1720  cancelled */\n      sload(0x06)\n      shl(0x20, 0x01)\n      swap1\n      div\n      0xff\n      and\n        /* \".git/MyContracts/RealEstateSale.sol\":1710:1720  !cancelled */\n      iszero\n        /* \".git/MyContracts/RealEstateSale.sol\":1702:1739  require(!cancelled, \"Sale cancelled\") */\n      tag_167\n      jumpi\n      mload(0x40)\n      shl(0xe5, 0x461bcd)\n      dup2\n      mstore\n      0x04\n      add\n      tag_106\n      swap1\n      tag_115\n      jump\t// in\n    tag_167:\n        /* \".git/MyContracts/RealEstateSale.sol\":2166:2174  isListed */\n      and(0xff, sload(0x06))\n        /* \".git/MyContracts/RealEstateSale.sol\":2165:2174  !isListed */\n      iszero\n        /* \".git/MyContracts/RealEstateSale.sol\":2157:2202  require(!isListed, \"Property already listed\") */\n      tag_170\n      jumpi\n      mload(0x40)\n      shl(0xe5, 0x461bcd)\n      dup2\n      mstore\n        /* \"#utility.yul\":6867:6869   */\n      0x20\n        /* \".git/MyContracts/RealEstateSale.sol\":2157:2202  require(!isListed, \"Property already listed\") */\n      0x04\n      dup3\n      add\n        /* \"#utility.yul\":6849:6870   */\n      mstore\n        /* \"#utility.yul\":6906:6908   */\n      0x17\n        /* \"#utility.yul\":6886:6904   */\n      0x24\n      dup3\n      add\n        /* \"#utility.yul\":6879:6909   */\n      mstore\n        /* \"#utility.yul\":6945:6970   */\n      0x50726f706572747920616c7265616479206c6973746564000000000000000000\n        /* \"#utility.yul\":6925:6943   */\n      0x44\n      dup3\n      add\n        /* \"#utility.yul\":6918:6971   */\n      mstore\n        /* \"#utility.yul\":6988:7006   */\n      0x64\n      add\n        /* \".git/MyContracts/RealEstateSale.sol\":2157:2202  require(!isListed, \"Property already listed\") */\n      tag_106\n        /* \"#utility.yul\":6665:7012   */\n      jump\n        /* \".git/MyContracts/RealEstateSale.sol\":2157:2202  require(!isListed, \"Property already listed\") */\n    tag_170:\n        /* \".git/MyContracts/RealEstateSale.sol\":2234:2235  0 */\n      0x00\n        /* \".git/MyContracts/RealEstateSale.sol\":2221:2231  _salePrice */\n      dup3\n        /* \".git/MyContracts/RealEstateSale.sol\":2221:2235  _salePrice > 0 */\n      gt\n        /* \".git/MyContracts/RealEstateSale.sol\":2213:2276  require(_salePrice > 0, \"Sale price must be greater than zero\") */\n      tag_173\n      jumpi\n      mload(0x40)\n      shl(0xe5, 0x461bcd)\n      dup2\n      mstore\n        /* \"#utility.yul\":7219:7221   */\n      0x20\n        /* \".git/MyContracts/RealEstateSale.sol\":2213:2276  require(_salePrice > 0, \"Sale price must be greater than zero\") */\n      0x04\n      dup3\n      add\n        /* \"#utility.yul\":7201:7222   */\n      mstore\n        /* \"#utility.yul\":7258:7260   */\n      0x24\n        /* \"#utility.yul\":7238:7256   */\n      dup1\n      dup3\n      add\n        /* \"#utility.yul\":7231:7261   */\n      mstore\n        /* \"#utility.yul\":7297:7331   */\n      0x53616c65207072696365206d7573742062652067726561746572207468616e20\n        /* \"#utility.yul\":7277:7295   */\n      0x44\n      dup3\n      add\n        /* \"#utility.yul\":7270:7332   */\n      mstore\n      shl(0xe0, 0x7a65726f)\n        /* \"#utility.yul\":7348:7366   */\n      0x64\n      dup3\n      add\n        /* \"#utility.yul\":7341:7375   */\n      mstore\n        /* \"#utility.yul\":7392:7411   */\n      0x84\n      add\n        /* \".git/MyContracts/RealEstateSale.sol\":2213:2276  require(_salePrice > 0, \"Sale price must be greater than zero\") */\n      tag_106\n        /* \"#utility.yul\":7017:7417   */\n      jump\n        /* \".git/MyContracts/RealEstateSale.sol\":2213:2276  require(_salePrice > 0, \"Sale price must be greater than zero\") */\n    tag_173:\n        /* \".git/MyContracts/RealEstateSale.sol\":2312:2313  0 */\n      0x00\n        /* \".git/MyContracts/RealEstateSale.sol\":2295:2309  _depositAmount */\n      dup2\n        /* \".git/MyContracts/RealEstateSale.sol\":2295:2313  _depositAmount > 0 */\n      gt\n        /* \".git/MyContracts/RealEstateSale.sol\":2287:2351  require(_depositAmount > 0, \"Deposit must be greater than zero\") */\n      tag_176\n      jumpi\n      mload(0x40)\n      shl(0xe5, 0x461bcd)\n      dup2\n      mstore\n        /* \"#utility.yul\":7624:7626   */\n      0x20\n        /* \".git/MyContracts/RealEstateSale.sol\":2287:2351  require(_depositAmount > 0, \"Deposit must be greater than zero\") */\n      0x04\n      dup3\n      add\n        /* \"#utility.yul\":7606:7627   */\n      mstore\n        /* \"#utility.yul\":7663:7665   */\n      0x21\n        /* \"#utility.yul\":7643:7661   */\n      0x24\n      dup3\n      add\n        /* \"#utility.yul\":7636:7666   */\n      mstore\n        /* \"#utility.yul\":7702:7736   */\n      0x4465706f736974206d7573742062652067726561746572207468616e207a6572\n        /* \"#utility.yul\":7682:7700   */\n      0x44\n      dup3\n      add\n        /* \"#utility.yul\":7675:7737   */\n      mstore\n      shl(0xf8, 0x6f)\n        /* \"#utility.yul\":7753:7771   */\n      0x64\n      dup3\n      add\n        /* \"#utility.yul\":7746:7777   */\n      mstore\n        /* \"#utility.yul\":7794:7813   */\n      0x84\n      add\n        /* \".git/MyContracts/RealEstateSale.sol\":2287:2351  require(_depositAmount > 0, \"Deposit must be greater than zero\") */\n      tag_106\n        /* \"#utility.yul\":7422:7819   */\n      jump\n        /* \".git/MyContracts/RealEstateSale.sol\":2287:2351  require(_depositAmount > 0, \"Deposit must be greater than zero\") */\n    tag_176:\n        /* \".git/MyContracts/RealEstateSale.sol\":2387:2397  _salePrice */\n      dup2\n        /* \".git/MyContracts/RealEstateSale.sol\":2370:2384  _depositAmount */\n      dup2\n        /* \".git/MyContracts/RealEstateSale.sol\":2370:2397  _depositAmount < _salePrice */\n      lt\n        /* \".git/MyContracts/RealEstateSale.sol\":2362:2438  require(_depositAmount < _salePrice, \"Deposit must be less than sale price\") */\n      tag_179\n      jumpi\n      mload(0x40)\n      shl(0xe5, 0x461bcd)\n      dup2\n      mstore\n        /* \"#utility.yul\":8026:8028   */\n      0x20\n        /* \".git/MyContracts/RealEstateSale.sol\":2362:2438  require(_depositAmount < _salePrice, \"Deposit must be less than sale price\") */\n      0x04\n      dup3\n      add\n        /* \"#utility.yul\":8008:8029   */\n      mstore\n        /* \"#utility.yul\":8065:8067   */\n      0x24\n        /* \"#utility.yul\":8045:8063   */\n      dup1\n      dup3\n      add\n        /* \"#utility.yul\":8038:8068   */\n      mstore\n        /* \"#utility.yul\":8104:8138   */\n      0x4465706f736974206d757374206265206c657373207468616e2073616c652070\n        /* \"#utility.yul\":8084:8102   */\n      0x44\n      dup3\n      add\n        /* \"#utility.yul\":8077:8139   */\n      mstore\n      shl(0xe0, 0x72696365)\n        /* \"#utility.yul\":8155:8173   */\n      0x64\n      dup3\n      add\n        /* \"#utility.yul\":8148:8182   */\n      mstore\n        /* \"#utility.yul\":8199:8218   */\n      0x84\n      add\n        /* \".git/MyContracts/RealEstateSale.sol\":2362:2438  require(_depositAmount < _salePrice, \"Deposit must be less than sale price\") */\n      tag_106\n        /* \"#utility.yul\":7824:8224   */\n      jump\n        /* \".git/MyContracts/RealEstateSale.sol\":2362:2438  require(_depositAmount < _salePrice, \"Deposit must be less than sale price\") */\n    tag_179:\n        /* \".git/MyContracts/RealEstateSale.sol\":2451:2461  propertyId */\n      0x02\n        /* \".git/MyContracts/RealEstateSale.sol\":2451:2475  propertyId = _propertyId */\n      tag_182\n        /* \".git/MyContracts/RealEstateSale.sol\":2464:2475  _propertyId */\n      dup6\n        /* \".git/MyContracts/RealEstateSale.sol\":2451:2461  propertyId */\n      dup3\n        /* \".git/MyContracts/RealEstateSale.sol\":2451:2475  propertyId = _propertyId */\n      tag_183\n      jump\t// in\n    tag_182:\n      pop\n        /* \".git/MyContracts/RealEstateSale.sol\":2486:2501  propertyAddress */\n      0x03\n        /* \".git/MyContracts/RealEstateSale.sol\":2486:2520  propertyAddress = _propertyAddress */\n      tag_184\n        /* \".git/MyContracts/RealEstateSale.sol\":2504:2520  _propertyAddress */\n      dup5\n        /* \".git/MyContracts/RealEstateSale.sol\":2486:2501  propertyAddress */\n      dup3\n        /* \".git/MyContracts/RealEstateSale.sol\":2486:2520  propertyAddress = _propertyAddress */\n      tag_183\n      jump\t// in\n    tag_184:\n      pop\n        /* \".git/MyContracts/RealEstateSale.sol\":2531:2540  salePrice */\n      0x04\n        /* \".git/MyContracts/RealEstateSale.sol\":2531:2553  salePrice = _salePrice */\n      dup3\n      swap1\n      sstore\n        /* \".git/MyContracts/RealEstateSale.sol\":2564:2577  depositAmount */\n      0x05\n        /* \".git/MyContracts/RealEstateSale.sol\":2564:2594  depositAmount = _depositAmount */\n      dup2\n      swap1\n      sstore\n        /* \".git/MyContracts/RealEstateSale.sol\":2607:2615  isListed */\n      0x06\n        /* \".git/MyContracts/RealEstateSale.sol\":2607:2622  isListed = true */\n      dup1\n      sload\n      not(0xff00000000ff)\n        /* \".git/MyContracts/RealEstateSale.sol\":2633:2657  state = SaleState.Listed */\n      and\n      0x010000000001\n      or\n      swap1\n      sstore\n        /* \".git/MyContracts/RealEstateSale.sol\":2675:2748  PropertyListed(_propertyId, _propertyAddress, _salePrice, _depositAmount) */\n      mload(0x40)\n      0x19d23ad9da59f590aa0282f2a1a34ce021fb72dbd77096651099e2201fdae01c\n      swap1\n      tag_187\n      swap1\n        /* \".git/MyContracts/RealEstateSale.sol\":2690:2701  _propertyId */\n      dup7\n      swap1\n        /* \".git/MyContracts/RealEstateSale.sol\":2703:2719  _propertyAddress */\n      dup7\n      swap1\n        /* \".git/MyContracts/RealEstateSale.sol\":2531:2553  salePrice = _salePrice */\n      dup7\n      swap1\n        /* \".git/MyContracts/RealEstateSale.sol\":2564:2594  depositAmount = _depositAmount */\n      dup7\n      swap1\n        /* \".git/MyContracts/RealEstateSale.sol\":2675:2748  PropertyListed(_propertyId, _propertyAddress, _salePrice, _depositAmount) */\n      tag_188\n      jump\t// in\n    tag_187:\n      mload(0x40)\n      dup1\n      swap2\n      sub\n      swap1\n      log1\n        /* \".git/MyContracts/RealEstateSale.sol\":1932:2756  function listProperty(... */\n      pop\n      pop\n      pop\n      pop\n      jump\t// out\n        /* \".git/MyContracts/RealEstateSale.sol\":5693:5849  function currentOwner() external view returns (address) {... */\n    tag_73:\n        /* \".git/MyContracts/RealEstateSale.sol\":5764:5777  saleCompleted */\n      sload(0x06)\n        /* \".git/MyContracts/RealEstateSale.sol\":5740:5747  address */\n      0x00\n      swap1\n        /* \".git/MyContracts/RealEstateSale.sol\":5764:5777  saleCompleted */\n      0x01000000\n      swap1\n      div\n      0xff\n      and\n        /* \".git/MyContracts/RealEstateSale.sol\":5760:5818  if (saleCompleted) {... */\n      iszero\n      tag_190\n      jumpi\n      pop\n        /* \".git/MyContracts/RealEstateSale.sol\":5801:5806  buyer */\n      and(sub(shl(0xa0, 0x01), 0x01), sload(0x01))\n      swap1\n        /* \".git/MyContracts/RealEstateSale.sol\":5693:5849  function currentOwner() external view returns (address) {... */\n      jump\t// out\n        /* \".git/MyContracts/RealEstateSale.sol\":5760:5818  if (saleCompleted) {... */\n    tag_190:\n      pop\n        /* \".git/MyContracts/RealEstateSale.sol\":5835:5841  seller */\n      and(sub(shl(0xa0, 0x01), 0x01), sload(0x00))\n      swap1\n        /* \".git/MyContracts/RealEstateSale.sol\":5693:5849  function currentOwner() external view returns (address) {... */\n      jump\t// out\n        /* \".git/MyContracts/RealEstateSale.sol\":2848:3264  function reserveProperty() external payable notCompleted notCancelled {... */\n    tag_85:\n        /* \".git/MyContracts/RealEstateSale.sol\":1599:1612  saleCompleted */\n      sload(0x06)\n      0x01000000\n      swap1\n      div\n      0xff\n      and\n        /* \".git/MyContracts/RealEstateSale.sol\":1598:1612  !saleCompleted */\n      iszero\n        /* \".git/MyContracts/RealEstateSale.sol\":1590:1639  require(!saleCompleted, \"Sale already completed\") */\n      tag_192\n      jumpi\n      mload(0x40)\n      shl(0xe5, 0x461bcd)\n      dup2\n      mstore\n      0x04\n      add\n      tag_106\n      swap1\n      tag_111\n      jump\t// in\n    tag_192:\n        /* \".git/MyContracts/RealEstateSale.sol\":1711:1720  cancelled */\n      sload(0x06)\n      shl(0x20, 0x01)\n      swap1\n      div\n      0xff\n      and\n        /* \".git/MyContracts/RealEstateSale.sol\":1710:1720  !cancelled */\n      iszero\n        /* \".git/MyContracts/RealEstateSale.sol\":1702:1739  require(!cancelled, \"Sale cancelled\") */\n      tag_195\n      jumpi\n      mload(0x40)\n      shl(0xe5, 0x461bcd)\n      dup2\n      mstore\n      0x04\n      add\n      tag_106\n      swap1\n      tag_115\n      jump\t// in\n    tag_195:\n        /* \".git/MyContracts/RealEstateSale.sol\":2937:2945  isListed */\n      and(0xff, sload(0x06))\n        /* \".git/MyContracts/RealEstateSale.sol\":2929:2969  require(isListed, \"Property not listed\") */\n      tag_198\n      jumpi\n      mload(0x40)\n      shl(0xe5, 0x461bcd)\n      dup2\n      mstore\n        /* \"#utility.yul\":11087:11089   */\n      0x20\n        /* \".git/MyContracts/RealEstateSale.sol\":2929:2969  require(isListed, \"Property not listed\") */\n      0x04\n      dup3\n      add\n        /* \"#utility.yul\":11069:11090   */\n      mstore\n        /* \"#utility.yul\":11126:11128   */\n      0x13\n        /* \"#utility.yul\":11106:11124   */\n      0x24\n      dup3\n      add\n        /* \"#utility.yul\":11099:11129   */\n      mstore\n      shl(0x6a, 0x141c9bdc195c9d1e481b9bdd081b1a5cdd1959)\n        /* \"#utility.yul\":11145:11163   */\n      0x44\n      dup3\n      add\n        /* \"#utility.yul\":11138:11187   */\n      mstore\n        /* \"#utility.yul\":11204:11222   */\n      0x64\n      add\n        /* \".git/MyContracts/RealEstateSale.sol\":2929:2969  require(isListed, \"Property not listed\") */\n      tag_106\n        /* \"#utility.yul\":10885:11228   */\n      jump\n        /* \".git/MyContracts/RealEstateSale.sol\":2929:2969  require(isListed, \"Property not listed\") */\n    tag_198:\n        /* \".git/MyContracts/RealEstateSale.sol\":2989:2999  isReserved */\n      sload(0x06)\n      0x0100\n      swap1\n      div\n      0xff\n      and\n        /* \".git/MyContracts/RealEstateSale.sol\":2988:2999  !isReserved */\n      iszero\n        /* \".git/MyContracts/RealEstateSale.sol\":2980:3029  require(!isReserved, \"Property already reserved\") */\n      tag_201\n      jumpi\n      mload(0x40)\n      shl(0xe5, 0x461bcd)\n      dup2\n      mstore\n        /* \"#utility.yul\":11435:11437   */\n      0x20\n        /* \".git/MyContracts/RealEstateSale.sol\":2980:3029  require(!isReserved, \"Property already reserved\") */\n      0x04\n      dup3\n      add\n        /* \"#utility.yul\":11417:11438   */\n      mstore\n        /* \"#utility.yul\":11474:11476   */\n      0x19\n        /* \"#utility.yul\":11454:11472   */\n      0x24\n      dup3\n      add\n        /* \"#utility.yul\":11447:11477   */\n      mstore\n        /* \"#utility.yul\":11513:11540   */\n      0x50726f706572747920616c726561647920726573657276656400000000000000\n        /* \"#utility.yul\":11493:11511   */\n      0x44\n      dup3\n      add\n        /* \"#utility.yul\":11486:11541   */\n      mstore\n        /* \"#utility.yul\":11558:11576   */\n      0x64\n      add\n        /* \".git/MyContracts/RealEstateSale.sol\":2980:3029  require(!isReserved, \"Property already reserved\") */\n      tag_106\n        /* \"#utility.yul\":11233:11582   */\n      jump\n        /* \".git/MyContracts/RealEstateSale.sol\":2980:3029  require(!isReserved, \"Property already reserved\") */\n    tag_201:\n        /* \".git/MyContracts/RealEstateSale.sol\":3061:3074  depositAmount */\n      sload(0x05)\n        /* \".git/MyContracts/RealEstateSale.sol\":3048:3057  msg.value */\n      callvalue\n        /* \".git/MyContracts/RealEstateSale.sol\":3048:3074  msg.value == depositAmount */\n      eq\n        /* \".git/MyContracts/RealEstateSale.sol\":3040:3103  require(msg.value == depositAmount, \"Incorrect deposit amount\") */\n      tag_204\n      jumpi\n      mload(0x40)\n      shl(0xe5, 0x461bcd)\n      dup2\n      mstore\n        /* \"#utility.yul\":11789:11791   */\n      0x20\n        /* \".git/MyContracts/RealEstateSale.sol\":3040:3103  require(msg.value == depositAmount, \"Incorrect deposit amount\") */\n      0x04\n      dup3\n      add\n        /* \"#utility.yul\":11771:11792   */\n      mstore\n        /* \"#utility.yul\":11828:11830   */\n      0x18\n        /* \"#utility.yul\":11808:11826   */\n      0x24\n      dup3\n      add\n        /* \"#utility.yul\":11801:11831   */\n      mstore\n        /* \"#utility.yul\":11867:11893   */\n      0x496e636f7272656374206465706f73697420616d6f756e740000000000000000\n        /* \"#utility.yul\":11847:11865   */\n      0x44\n      dup3\n      add\n        /* \"#utility.yul\":11840:11894   */\n      mstore\n        /* \"#utility.yul\":11911:11929   */\n      0x64\n      add\n        /* \".git/MyContracts/RealEstateSale.sol\":3040:3103  require(msg.value == depositAmount, \"Incorrect deposit amount\") */\n      tag_106\n        /* \"#utility.yul\":11587:11935   */\n      jump\n        /* \".git/MyContracts/RealEstateSale.sol\":3040:3103  require(msg.value == depositAmount, \"Incorrect deposit amount\") */\n    tag_204:\n        /* \".git/MyContracts/RealEstateSale.sol\":3116:3121  buyer */\n      0x01\n        /* \".git/MyContracts/RealEstateSale.sol\":3116:3134  buyer = msg.sender */\n      dup1\n      sload\n      not(sub(shl(0xa0, 0x01), 0x01))\n      and\n        /* \".git/MyContracts/RealEstateSale.sol\":3124:3134  msg.sender */\n      caller\n        /* \".git/MyContracts/RealEstateSale.sol\":3116:3134  buyer = msg.sender */\n      swap1\n      dup2\n      or\n      swap1\n      swap2\n      sstore\n        /* \".git/MyContracts/RealEstateSale.sol\":3145:3155  isReserved */\n      0x06\n        /* \".git/MyContracts/RealEstateSale.sol\":3145:3162  isReserved = true */\n      dup1\n      sload\n      not(0xff000000ff00)\n        /* \".git/MyContracts/RealEstateSale.sol\":3173:3199  state = SaleState.Reserved */\n      and\n      0x020000000100\n      or\n      swap1\n      sstore\n        /* \".git/MyContracts/RealEstateSale.sol\":3217:3256  PropertyReserved(msg.sender, msg.value) */\n      0x40\n      dup1\n      mload\n        /* \".git/MyContracts/RealEstateSale.sol\":3246:3255  msg.value */\n      callvalue\n        /* \"#utility.yul\":560:585   */\n      dup2\n      mstore\n        /* \".git/MyContracts/RealEstateSale.sol\":3217:3256  PropertyReserved(msg.sender, msg.value) */\n      swap1\n      mload\n      0x214226d2009848f7db18f69a9c9833167e0509539f9135a6d23569869554300d\n      swap2\n      dup2\n      swap1\n      sub\n        /* \"#utility.yul\":548:550   */\n      0x20\n        /* \".git/MyContracts/RealEstateSale.sol\":3217:3256  PropertyReserved(msg.sender, msg.value) */\n      add\n      swap1\n      log2\n        /* \".git/MyContracts/RealEstateSale.sol\":2848:3264  function reserveProperty() external payable notCompleted notCancelled {... */\n      jump\t// out\n        /* \".git/MyContracts/RealEstateSale.sol\":4955:5334  function cancelSale() external onlySeller notCompleted notCancelled {... */\n    tag_88:\n        /* \".git/MyContracts/RealEstateSale.sol\":1375:1381  seller */\n      and(sub(shl(0xa0, 0x01), 0x01), sload(0x00))\n        /* \".git/MyContracts/RealEstateSale.sol\":1361:1371  msg.sender */\n      caller\n        /* \".git/MyContracts/RealEstateSale.sol\":1361:1381  msg.sender == seller */\n      eq\n        /* \".git/MyContracts/RealEstateSale.sol\":1353:1411  require(msg.sender == seller, \"Only seller can call this\") */\n      tag_211\n      jumpi\n      mload(0x40)\n      shl(0xe5, 0x461bcd)\n      dup2\n      mstore\n      0x04\n      add\n      tag_106\n      swap1\n      tag_107\n      jump\t// in\n    tag_211:\n        /* \".git/MyContracts/RealEstateSale.sol\":1599:1612  saleCompleted */\n      sload(0x06)\n      0x01000000\n      swap1\n      div\n      0xff\n      and\n        /* \".git/MyContracts/RealEstateSale.sol\":1598:1612  !saleCompleted */\n      iszero\n        /* \".git/MyContracts/RealEstateSale.sol\":1590:1639  require(!saleCompleted, \"Sale already completed\") */\n      tag_214\n      jumpi\n      mload(0x40)\n      shl(0xe5, 0x461bcd)\n      dup2\n      mstore\n      0x04\n      add\n      tag_106\n      swap1\n      tag_111\n      jump\t// in\n    tag_214:\n        /* \".git/MyContracts/RealEstateSale.sol\":1711:1720  cancelled */\n      sload(0x06)\n      shl(0x20, 0x01)\n      swap1\n      div\n      0xff\n      and\n        /* \".git/MyContracts/RealEstateSale.sol\":1710:1720  !cancelled */\n      iszero\n        /* \".git/MyContracts/RealEstateSale.sol\":1702:1739  require(!cancelled, \"Sale cancelled\") */\n      tag_217\n      jumpi\n      mload(0x40)\n      shl(0xe5, 0x461bcd)\n      dup2\n      mstore\n      0x04\n      add\n      tag_106\n      swap1\n      tag_115\n      jump\t// in\n    tag_217:\n        /* \".git/MyContracts/RealEstateSale.sol\":5034:5043  cancelled */\n      0x06\n        /* \".git/MyContracts/RealEstateSale.sol\":5034:5050  cancelled = true */\n      dup1\n      sload\n      not(0xffff00000000)\n        /* \".git/MyContracts/RealEstateSale.sol\":5061:5088  state = SaleState.Cancelled */\n      and\n      0x050100000000\n      or\n      swap1\n      sstore\n        /* \".git/MyContracts/RealEstateSale.sol\":5124:5145  address(this).balance */\n      selfbalance\n        /* \".git/MyContracts/RealEstateSale.sol\":5162:5178  refundAmount > 0 */\n      dup1\n      iszero\n      dup1\n      iszero\n      swap1\n        /* \".git/MyContracts/RealEstateSale.sol\":5162:5201  refundAmount > 0 && buyer != address(0) */\n      tag_222\n      jumpi\n      pop\n        /* \".git/MyContracts/RealEstateSale.sol\":5182:5187  buyer */\n      and(sub(shl(0xa0, 0x01), 0x01), sload(0x01))\n        /* \".git/MyContracts/RealEstateSale.sol\":5182:5201  buyer != address(0) */\n      iszero\n      iszero\n        /* \".git/MyContracts/RealEstateSale.sol\":5162:5201  refundAmount > 0 && buyer != address(0) */\n    tag_222:\n        /* \".git/MyContracts/RealEstateSale.sol\":5158:5267  if (refundAmount > 0 && buyer != address(0)) {... */\n      iszero\n      tag_223\n      jumpi\n        /* \".git/MyContracts/RealEstateSale.sol\":5226:5231  buyer */\n      sload(0x01)\n        /* \".git/MyContracts/RealEstateSale.sol\":5218:5255  payable(buyer).transfer(refundAmount) */\n      mload(0x40)\n      sub(shl(0xa0, 0x01), 0x01)\n        /* \".git/MyContracts/RealEstateSale.sol\":5226:5231  buyer */\n      swap1\n      swap2\n      and\n      swap1\n        /* \".git/MyContracts/RealEstateSale.sol\":5218:5255  payable(buyer).transfer(refundAmount) */\n      dup3\n      iszero\n      0x08fc\n      mul\n      swap1\n        /* \".git/MyContracts/RealEstateSale.sol\":5242:5254  refundAmount */\n      dup4\n      swap1\n        /* \".git/MyContracts/RealEstateSale.sol\":5226:5231  buyer */\n      0x00\n        /* \".git/MyContracts/RealEstateSale.sol\":5218:5255  payable(buyer).transfer(refundAmount) */\n      dup2\n        /* \".git/MyContracts/RealEstateSale.sol\":5226:5231  buyer */\n      dup2\n        /* \".git/MyContracts/RealEstateSale.sol\":5218:5255  payable(buyer).transfer(refundAmount) */\n      dup2\n        /* \".git/MyContracts/RealEstateSale.sol\":5242:5254  refundAmount */\n      dup6\n        /* \".git/MyContracts/RealEstateSale.sol\":5226:5231  buyer */\n      dup9\n        /* \".git/MyContracts/RealEstateSale.sol\":5218:5255  payable(buyer).transfer(refundAmount) */\n      dup9\n      call\n      swap4\n      pop\n      pop\n      pop\n      pop\n      iszero\n      dup1\n      iszero\n      tag_225\n      jumpi\n      returndatacopy(0x00, 0x00, returndatasize)\n      revert(0x00, returndatasize)\n    tag_225:\n      pop\n        /* \".git/MyContracts/RealEstateSale.sol\":5158:5267  if (refundAmount > 0 && buyer != address(0)) {... */\n    tag_223:\n        /* \".git/MyContracts/RealEstateSale.sol\":5306:5311  buyer */\n      sload(0x01)\n      0x00\n        /* \".git/MyContracts/RealEstateSale.sol\":5298:5304  seller */\n      sload\n        /* \".git/MyContracts/RealEstateSale.sol\":5284:5326  SaleCancelled(seller, buyer, refundAmount) */\n      mload(0x40)\n        /* \"#utility.yul\":560:585   */\n      dup4\n      dup2\n      mstore\n      sub(shl(0xa0, 0x01), 0x01)\n        /* \".git/MyContracts/RealEstateSale.sol\":5306:5311  buyer */\n      swap3\n      dup4\n      and\n      swap3\n        /* \".git/MyContracts/RealEstateSale.sol\":5298:5304  seller */\n      swap1\n      swap2\n      and\n      swap1\n        /* \".git/MyContracts/RealEstateSale.sol\":5284:5326  SaleCancelled(seller, buyer, refundAmount) */\n      0x8dcbcc19445d8231a7895431f4e4912f7d57775b251dcffa5e98e092f009abfd\n      swap1\n        /* \"#utility.yul\":548:550   */\n      0x20\n        /* \"#utility.yul\":533:551   */\n      add\n        /* \".git/MyContracts/RealEstateSale.sol\":5284:5326  SaleCancelled(seller, buyer, refundAmount) */\n      tag_131\n        /* \"#utility.yul\":414:591   */\n      jump\n        /* \".git/MyContracts/RealEstateSale.sol\":3361:3692  function approveInspection() external onlySeller notCompleted notCancelled {... */\n    tag_91:\n        /* \".git/MyContracts/RealEstateSale.sol\":1375:1381  seller */\n      and(sub(shl(0xa0, 0x01), 0x01), sload(0x00))\n        /* \".git/MyContracts/RealEstateSale.sol\":1361:1371  msg.sender */\n      caller\n        /* \".git/MyContracts/RealEstateSale.sol\":1361:1381  msg.sender == seller */\n      eq\n        /* \".git/MyContracts/RealEstateSale.sol\":1353:1411  require(msg.sender == seller, \"Only seller can call this\") */\n      tag_228\n      jumpi\n      mload(0x40)\n      shl(0xe5, 0x461bcd)\n      dup2\n      mstore\n      0x04\n      add\n      tag_106\n      swap1\n      tag_107\n      jump\t// in\n    tag_228:\n        /* \".git/MyContracts/RealEstateSale.sol\":1599:1612  saleCompleted */\n      sload(0x06)\n      0x01000000\n      swap1\n      div\n      0xff\n      and\n        /* \".git/MyContracts/RealEstateSale.sol\":1598:1612  !saleCompleted */\n      iszero\n        /* \".git/MyContracts/RealEstateSale.sol\":1590:1639  require(!saleCompleted, \"Sale already completed\") */\n      tag_231\n      jumpi\n      mload(0x40)\n      shl(0xe5, 0x461bcd)\n      dup2\n      mstore\n      0x04\n      add\n      tag_106\n      swap1\n      tag_111\n      jump\t// in\n    tag_231:\n        /* \".git/MyContracts/RealEstateSale.sol\":1711:1720  cancelled */\n      sload(0x06)\n      shl(0x20, 0x01)\n      swap1\n      div\n      0xff\n      and\n        /* \".git/MyContracts/RealEstateSale.sol\":1710:1720  !cancelled */\n      iszero\n        /* \".git/MyContracts/RealEstateSale.sol\":1702:1739  require(!cancelled, \"Sale cancelled\") */\n      tag_234\n      jumpi\n      mload(0x40)\n      shl(0xe5, 0x461bcd)\n      dup2\n      mstore\n      0x04\n      add\n      tag_106\n      swap1\n      tag_115\n      jump\t// in\n    tag_234:\n        /* \".git/MyContracts/RealEstateSale.sol\":3455:3465  isReserved */\n      sload(0x06)\n      0x0100\n      swap1\n      div\n      0xff\n      and\n        /* \".git/MyContracts/RealEstateSale.sol\":3447:3491  require(isReserved, \"Property not reserved\") */\n      tag_237\n      jumpi\n      mload(0x40)\n      shl(0xe5, 0x461bcd)\n      dup2\n      mstore\n      0x04\n      add\n      tag_106\n      swap1\n      tag_119\n      jump\t// in\n    tag_237:\n        /* \".git/MyContracts/RealEstateSale.sol\":3511:3529  inspectionApproved */\n      sload(0x06)\n      0x010000\n      swap1\n      div\n      0xff\n      and\n        /* \".git/MyContracts/RealEstateSale.sol\":3510:3529  !inspectionApproved */\n      iszero\n        /* \".git/MyContracts/RealEstateSale.sol\":3502:3561  require(!inspectionApproved, \"Inspection already approved\") */\n      tag_239\n      jumpi\n      mload(0x40)\n      shl(0xe5, 0x461bcd)\n      dup2\n      mstore\n        /* \"#utility.yul\":12142:12144   */\n      0x20\n        /* \".git/MyContracts/RealEstateSale.sol\":3502:3561  require(!inspectionApproved, \"Inspection already approved\") */\n      0x04\n      dup3\n      add\n        /* \"#utility.yul\":12124:12145   */\n      mstore\n        /* \"#utility.yul\":12181:12183   */\n      0x1b\n        /* \"#utility.yul\":12161:12179   */\n      0x24\n      dup3\n      add\n        /* \"#utility.yul\":12154:12184   */\n      mstore\n        /* \"#utility.yul\":12220:12249   */\n      0x496e7370656374696f6e20616c726561647920617070726f7665640000000000\n        /* \"#utility.yul\":12200:12218   */\n      0x44\n      dup3\n      add\n        /* \"#utility.yul\":12193:12250   */\n      mstore\n        /* \"#utility.yul\":12267:12285   */\n      0x64\n      add\n        /* \".git/MyContracts/RealEstateSale.sol\":3502:3561  require(!inspectionApproved, \"Inspection already approved\") */\n      tag_106\n        /* \"#utility.yul\":11940:12291   */\n      jump\n        /* \".git/MyContracts/RealEstateSale.sol\":3502:3561  require(!inspectionApproved, \"Inspection already approved\") */\n    tag_239:\n        /* \".git/MyContracts/RealEstateSale.sol\":3574:3592  inspectionApproved */\n      0x06\n        /* \".git/MyContracts/RealEstateSale.sol\":3574:3599  inspectionApproved = true */\n      dup1\n      sload\n      not(0xff0000ff0000)\n        /* \".git/MyContracts/RealEstateSale.sol\":3610:3636  state = SaleState.Approved */\n      and\n      0x030000010000\n      or\n      swap1\n      sstore\n        /* \".git/MyContracts/RealEstateSale.sol\":3654:3684  InspectionApproved(msg.sender) */\n      mload(0x40)\n        /* \".git/MyContracts/RealEstateSale.sol\":3673:3683  msg.sender */\n      caller\n      swap1\n        /* \".git/MyContracts/RealEstateSale.sol\":3654:3684  InspectionApproved(msg.sender) */\n      0xd7e33d3cef6b64fa87b1c62da6417f1e22349e0e4636f9265ad88a646a671f05\n      swap1\n      0x00\n      swap1\n      log2\n        /* \".git/MyContracts/RealEstateSale.sol\":3361:3692  function approveInspection() external onlySeller notCompleted notCancelled {... */\n      jump\t// out\n        /* \".git/MyContracts/RealEstateSale.sol\":317:341  string public propertyId */\n    tag_94:\n      0x02\n      dup1\n      sload\n      tag_132\n      swap1\n      tag_133\n      jump\t// in\n        /* \"#utility.yul\":596:885   */\n    tag_249:\n        /* \"#utility.yul\":638:641   */\n      0x00\n        /* \"#utility.yul\":676:681   */\n      dup2\n        /* \"#utility.yul\":670:682   */\n      mload\n        /* \"#utility.yul\":703:709   */\n      dup1\n        /* \"#utility.yul\":698:701   */\n      dup5\n        /* \"#utility.yul\":691:710   */\n      mstore\n        /* \"#utility.yul\":759:765   */\n      dup1\n        /* \"#utility.yul\":752:756   */\n      0x20\n        /* \"#utility.yul\":745:750   */\n      dup5\n        /* \"#utility.yul\":741:757   */\n      add\n        /* \"#utility.yul\":734:738   */\n      0x20\n        /* \"#utility.yul\":729:732   */\n      dup7\n        /* \"#utility.yul\":725:739   */\n      add\n        /* \"#utility.yul\":719:766   */\n      mcopy\n        /* \"#utility.yul\":811:812   */\n      0x00\n        /* \"#utility.yul\":804:808   */\n      0x20\n        /* \"#utility.yul\":795:801   */\n      dup3\n        /* \"#utility.yul\":790:793   */\n      dup7\n        /* \"#utility.yul\":786:802   */\n      add\n        /* \"#utility.yul\":782:809   */\n      add\n        /* \"#utility.yul\":775:813   */\n      mstore\n        /* \"#utility.yul\":874:878   */\n      0x20\n        /* \"#utility.yul\":867:869   */\n      0x1f\n        /* \"#utility.yul\":863:870   */\n      not\n        /* \"#utility.yul\":858:860   */\n      0x1f\n        /* \"#utility.yul\":850:856   */\n      dup4\n        /* \"#utility.yul\":846:861   */\n      add\n        /* \"#utility.yul\":842:871   */\n      and\n        /* \"#utility.yul\":837:840   */\n      dup6\n        /* \"#utility.yul\":833:872   */\n      add\n        /* \"#utility.yul\":829:879   */\n      add\n        /* \"#utility.yul\":822:879   */\n      swap2\n      pop\n      pop\n        /* \"#utility.yul\":596:885   */\n      swap3\n      swap2\n      pop\n      pop\n      jump\t// out\n        /* \"#utility.yul\":890:1110   */\n    tag_47:\n        /* \"#utility.yul\":1039:1041   */\n      0x20\n        /* \"#utility.yul\":1028:1037   */\n      dup2\n        /* \"#utility.yul\":1021:1042   */\n      mstore\n        /* \"#utility.yul\":1002:1006   */\n      0x00\n        /* \"#utility.yul\":1059:1104   */\n      tag_261\n        /* \"#utility.yul\":1100:1102   */\n      0x20\n        /* \"#utility.yul\":1089:1098   */\n      dup4\n        /* \"#utility.yul\":1085:1103   */\n      add\n        /* \"#utility.yul\":1077:1083   */\n      dup5\n        /* \"#utility.yul\":1059:1104   */\n      tag_249\n      jump\t// in\n    tag_261:\n        /* \"#utility.yul\":1051:1104   */\n      swap4\n        /* \"#utility.yul\":890:1110   */\n      swap3\n      pop\n      pop\n      pop\n      jump\t// out\n        /* \"#utility.yul\":1115:1242   */\n    tag_250:\n        /* \"#utility.yul\":1176:1186   */\n      0x4e487b71\n        /* \"#utility.yul\":1171:1174   */\n      0xe0\n        /* \"#utility.yul\":1167:1187   */\n      shl\n        /* \"#utility.yul\":1164:1165   */\n      0x00\n        /* \"#utility.yul\":1157:1188   */\n      mstore\n        /* \"#utility.yul\":1207:1211   */\n      0x41\n        /* \"#utility.yul\":1204:1205   */\n      0x04\n        /* \"#utility.yul\":1197:1212   */\n      mstore\n        /* \"#utility.yul\":1231:1235   */\n      0x24\n        /* \"#utility.yul\":1228:1229   */\n      0x00\n        /* \"#utility.yul\":1221:1236   */\n      revert\n        /* \"#utility.yul\":1247:1973   */\n    tag_251:\n        /* \"#utility.yul\":1290:1295   */\n      0x00\n        /* \"#utility.yul\":1343:1346   */\n      dup3\n        /* \"#utility.yul\":1336:1340   */\n      0x1f\n        /* \"#utility.yul\":1328:1334   */\n      dup4\n        /* \"#utility.yul\":1324:1341   */\n      add\n        /* \"#utility.yul\":1320:1347   */\n      slt\n        /* \"#utility.yul\":1310:1365   */\n      tag_264\n      jumpi\n        /* \"#utility.yul\":1361:1362   */\n      0x00\n        /* \"#utility.yul\":1358:1359   */\n      0x00\n        /* \"#utility.yul\":1351:1363   */\n      revert\n        /* \"#utility.yul\":1310:1365   */\n    tag_264:\n        /* \"#utility.yul\":1401:1407   */\n      dup2\n        /* \"#utility.yul\":1388:1408   */\n      calldataload\n        /* \"#utility.yul\":1431:1449   */\n      0xffffffffffffffff\n        /* \"#utility.yul\":1423:1429   */\n      dup2\n        /* \"#utility.yul\":1420:1450   */\n      gt\n        /* \"#utility.yul\":1417:1473   */\n      iszero\n      tag_266\n      jumpi\n        /* \"#utility.yul\":1453:1471   */\n      tag_266\n      tag_250\n      jump\t// in\n    tag_266:\n        /* \"#utility.yul\":1502:1504   */\n      0x40\n        /* \"#utility.yul\":1496:1505   */\n      mload\n        /* \"#utility.yul\":1594:1596   */\n      0x1f\n        /* \"#utility.yul\":1556:1573   */\n      dup3\n      add\n      not(0x1f)\n        /* \"#utility.yul\":1552:1583   */\n      swap1\n      dup2\n      and\n        /* \"#utility.yul\":1585:1587   */\n      0x3f\n        /* \"#utility.yul\":1548:1588   */\n      add\n        /* \"#utility.yul\":1544:1598   */\n      and\n        /* \"#utility.yul\":1532:1599   */\n      dup2\n      add\n        /* \"#utility.yul\":1629:1647   */\n      0xffffffffffffffff\n        /* \"#utility.yul\":1614:1648   */\n      dup2\n      gt\n        /* \"#utility.yul\":1650:1672   */\n      dup3\n      dup3\n      lt\n        /* \"#utility.yul\":1611:1673   */\n      or\n        /* \"#utility.yul\":1608:1696   */\n      iszero\n      tag_268\n      jumpi\n        /* \"#utility.yul\":1676:1694   */\n      tag_268\n      tag_250\n      jump\t// in\n    tag_268:\n        /* \"#utility.yul\":1712:1714   */\n      0x40\n        /* \"#utility.yul\":1705:1727   */\n      mstore\n        /* \"#utility.yul\":1736:1758   */\n      dup2\n      dup2\n      mstore\n        /* \"#utility.yul\":1777:1796   */\n      dup4\n      dup3\n      add\n        /* \"#utility.yul\":1798:1802   */\n      0x20\n        /* \"#utility.yul\":1773:1803   */\n      add\n        /* \"#utility.yul\":1770:1809   */\n      dup6\n      lt\n        /* \"#utility.yul\":1767:1826   */\n      iszero\n      tag_269\n      jumpi\n        /* \"#utility.yul\":1822:1823   */\n      0x00\n        /* \"#utility.yul\":1819:1820   */\n      0x00\n        /* \"#utility.yul\":1812:1824   */\n      revert\n        /* \"#utility.yul\":1767:1826   */\n    tag_269:\n        /* \"#utility.yul\":1886:1892   */\n      dup2\n        /* \"#utility.yul\":1879:1883   */\n      0x20\n        /* \"#utility.yul\":1871:1877   */\n      dup6\n        /* \"#utility.yul\":1867:1884   */\n      add\n        /* \"#utility.yul\":1860:1864   */\n      0x20\n        /* \"#utility.yul\":1852:1858   */\n      dup4\n        /* \"#utility.yul\":1848:1865   */\n      add\n        /* \"#utility.yul\":1835:1893   */\n      calldatacopy\n        /* \"#utility.yul\":1941:1942   */\n      0x00\n        /* \"#utility.yul\":1913:1932   */\n      swap2\n      dup2\n      add\n        /* \"#utility.yul\":1934:1938   */\n      0x20\n        /* \"#utility.yul\":1909:1939   */\n      add\n        /* \"#utility.yul\":1902:1943   */\n      swap2\n      swap1\n      swap2\n      mstore\n        /* \"#utility.yul\":1917:1923   */\n      swap4\n        /* \"#utility.yul\":1247:1973   */\n      swap3\n      pop\n      pop\n      pop\n      jump\t// out\n        /* \"#utility.yul\":1978:2751   */\n    tag_61:\n        /* \"#utility.yul\":2084:2090   */\n      0x00\n        /* \"#utility.yul\":2092:2098   */\n      0x00\n        /* \"#utility.yul\":2100:2106   */\n      0x00\n        /* \"#utility.yul\":2108:2114   */\n      0x00\n        /* \"#utility.yul\":2161:2164   */\n      0x80\n        /* \"#utility.yul\":2149:2158   */\n      dup6\n        /* \"#utility.yul\":2140:2147   */\n      dup8\n        /* \"#utility.yul\":2136:2159   */\n      sub\n        /* \"#utility.yul\":2132:2165   */\n      slt\n        /* \"#utility.yul\":2129:2182   */\n      iszero\n      tag_271\n      jumpi\n        /* \"#utility.yul\":2178:2179   */\n      0x00\n        /* \"#utility.yul\":2175:2176   */\n      0x00\n        /* \"#utility.yul\":2168:2180   */\n      revert\n        /* \"#utility.yul\":2129:2182   */\n    tag_271:\n        /* \"#utility.yul\":2218:2227   */\n      dup5\n        /* \"#utility.yul\":2205:2228   */\n      calldataload\n        /* \"#utility.yul\":2251:2269   */\n      0xffffffffffffffff\n        /* \"#utility.yul\":2243:2249   */\n      dup2\n        /* \"#utility.yul\":2240:2270   */\n      gt\n        /* \"#utility.yul\":2237:2287   */\n      iszero\n      tag_272\n      jumpi\n        /* \"#utility.yul\":2283:2284   */\n      0x00\n        /* \"#utility.yul\":2280:2281   */\n      0x00\n        /* \"#utility.yul\":2273:2285   */\n      revert\n        /* \"#utility.yul\":2237:2287   */\n    tag_272:\n        /* \"#utility.yul\":2306:2356   */\n      tag_273\n        /* \"#utility.yul\":2348:2355   */\n      dup8\n        /* \"#utility.yul\":2339:2345   */\n      dup3\n        /* \"#utility.yul\":2328:2337   */\n      dup9\n        /* \"#utility.yul\":2324:2346   */\n      add\n        /* \"#utility.yul\":2306:2356   */\n      tag_251\n      jump\t// in\n    tag_273:\n        /* \"#utility.yul\":2296:2356   */\n      swap5\n      pop\n      pop\n        /* \"#utility.yul\":2409:2411   */\n      0x20\n        /* \"#utility.yul\":2398:2407   */\n      dup6\n        /* \"#utility.yul\":2394:2412   */\n      add\n        /* \"#utility.yul\":2381:2413   */\n      calldataload\n        /* \"#utility.yul\":2438:2456   */\n      0xffffffffffffffff\n        /* \"#utility.yul\":2428:2436   */\n      dup2\n        /* \"#utility.yul\":2425:2457   */\n      gt\n        /* \"#utility.yul\":2422:2474   */\n      iszero\n      tag_274\n      jumpi\n        /* \"#utility.yul\":2470:2471   */\n      0x00\n        /* \"#utility.yul\":2467:2468   */\n      0x00\n        /* \"#utility.yul\":2460:2472   */\n      revert\n        /* \"#utility.yul\":2422:2474   */\n    tag_274:\n        /* \"#utility.yul\":2493:2545   */\n      tag_275\n        /* \"#utility.yul\":2537:2544   */\n      dup8\n        /* \"#utility.yul\":2526:2534   */\n      dup3\n        /* \"#utility.yul\":2515:2524   */\n      dup9\n        /* \"#utility.yul\":2511:2535   */\n      add\n        /* \"#utility.yul\":2493:2545   */\n      tag_251\n      jump\t// in\n    tag_275:\n        /* \"#utility.yul\":1978:2751   */\n      swap5\n      swap8\n        /* \"#utility.yul\":2483:2545   */\n      swap5\n      swap7\n      pop\n      pop\n      pop\n      pop\n        /* \"#utility.yul\":2614:2616   */\n      0x40\n        /* \"#utility.yul\":2599:2617   */\n      dup4\n      add\n        /* \"#utility.yul\":2586:2618   */\n      calldataload\n      swap3\n        /* \"#utility.yul\":2715:2717   */\n      0x60\n        /* \"#utility.yul\":2700:2718   */\n      add\n        /* \"#utility.yul\":2687:2719   */\n      calldataload\n      swap2\n        /* \"#utility.yul\":1978:2751   */\n      swap1\n      pop\n      jump\t// out\n        /* \"#utility.yul\":2888:3228   */\n    tag_79:\n        /* \"#utility.yul\":3032:3034   */\n      0x20\n        /* \"#utility.yul\":3017:3035   */\n      dup2\n      add\n        /* \"#utility.yul\":3065:3066   */\n      0x06\n        /* \"#utility.yul\":3054:3067   */\n      dup4\n      lt\n        /* \"#utility.yul\":3044:3188   */\n      tag_278\n      jumpi\n        /* \"#utility.yul\":3110:3120   */\n      0x4e487b71\n        /* \"#utility.yul\":3105:3108   */\n      0xe0\n        /* \"#utility.yul\":3101:3121   */\n      shl\n        /* \"#utility.yul\":3098:3099   */\n      0x00\n        /* \"#utility.yul\":3091:3122   */\n      mstore\n        /* \"#utility.yul\":3145:3149   */\n      0x21\n        /* \"#utility.yul\":3142:3143   */\n      0x04\n        /* \"#utility.yul\":3135:3150   */\n      mstore\n        /* \"#utility.yul\":3173:3177   */\n      0x24\n        /* \"#utility.yul\":3170:3171   */\n      0x00\n        /* \"#utility.yul\":3163:3178   */\n      revert\n        /* \"#utility.yul\":3044:3188   */\n    tag_278:\n        /* \"#utility.yul\":3197:3222   */\n      swap2\n      swap1\n      mstore\n        /* \"#utility.yul\":2888:3228   */\n      swap1\n      jump\t// out\n        /* \"#utility.yul\":3233:3582   */\n    tag_107:\n        /* \"#utility.yul\":3435:3437   */\n      0x20\n        /* \"#utility.yul\":3417:3438   */\n      dup1\n      dup3\n      mstore\n        /* \"#utility.yul\":3474:3476   */\n      0x19\n        /* \"#utility.yul\":3454:3472   */\n      swap1\n      dup3\n      add\n        /* \"#utility.yul\":3447:3477   */\n      mstore\n        /* \"#utility.yul\":3513:3540   */\n      0x4f6e6c792073656c6c65722063616e2063616c6c207468697300000000000000\n        /* \"#utility.yul\":3508:3510   */\n      0x40\n        /* \"#utility.yul\":3493:3511   */\n      dup3\n      add\n        /* \"#utility.yul\":3486:3541   */\n      mstore\n        /* \"#utility.yul\":3573:3575   */\n      0x60\n        /* \"#utility.yul\":3558:3576   */\n      add\n      swap1\n        /* \"#utility.yul\":3233:3582   */\n      jump\t// out\n        /* \"#utility.yul\":3587:3933   */\n    tag_111:\n        /* \"#utility.yul\":3789:3791   */\n      0x20\n        /* \"#utility.yul\":3771:3792   */\n      dup1\n      dup3\n      mstore\n        /* \"#utility.yul\":3828:3830   */\n      0x16\n        /* \"#utility.yul\":3808:3826   */\n      swap1\n      dup3\n      add\n        /* \"#utility.yul\":3801:3831   */\n      mstore\n      shl(0x52, 0x14d85b1948185b1c9958591e4818dbdb5c1b195d1959)\n        /* \"#utility.yul\":3862:3864   */\n      0x40\n        /* \"#utility.yul\":3847:3865   */\n      dup3\n      add\n        /* \"#utility.yul\":3840:3892   */\n      mstore\n        /* \"#utility.yul\":3924:3926   */\n      0x60\n        /* \"#utility.yul\":3909:3927   */\n      add\n      swap1\n        /* \"#utility.yul\":3587:3933   */\n      jump\t// out\n        /* \"#utility.yul\":3938:4276   */\n    tag_115:\n        /* \"#utility.yul\":4140:4142   */\n      0x20\n        /* \"#utility.yul\":4122:4143   */\n      dup1\n      dup3\n      mstore\n        /* \"#utility.yul\":4179:4181   */\n      0x0e\n        /* \"#utility.yul\":4159:4177   */\n      swap1\n      dup3\n      add\n        /* \"#utility.yul\":4152:4182   */\n      mstore\n      shl(0x92, 0x14d85b194818d85b98d95b1b1959)\n        /* \"#utility.yul\":4213:4215   */\n      0x40\n        /* \"#utility.yul\":4198:4216   */\n      dup3\n      add\n        /* \"#utility.yul\":4191:4235   */\n      mstore\n        /* \"#utility.yul\":4267:4269   */\n      0x60\n        /* \"#utility.yul\":4252:4270   */\n      add\n      swap1\n        /* \"#utility.yul\":3938:4276   */\n      jump\t// out\n        /* \"#utility.yul\":4281:4626   */\n    tag_119:\n        /* \"#utility.yul\":4483:4485   */\n      0x20\n        /* \"#utility.yul\":4465:4486   */\n      dup1\n      dup3\n      mstore\n        /* \"#utility.yul\":4522:4524   */\n      0x15\n        /* \"#utility.yul\":4502:4520   */\n      swap1\n      dup3\n      add\n        /* \"#utility.yul\":4495:4525   */\n      mstore\n      shl(0x5a, 0x141c9bdc195c9d1e481b9bdd081c995cd95c9d9959)\n        /* \"#utility.yul\":4556:4558   */\n      0x40\n        /* \"#utility.yul\":4541:4559   */\n      dup3\n      add\n        /* \"#utility.yul\":4534:4585   */\n      mstore\n        /* \"#utility.yul\":4617:4619   */\n      0x60\n        /* \"#utility.yul\":4602:4620   */\n      add\n      swap1\n        /* \"#utility.yul\":4281:4626   */\n      jump\t// out\n        /* \"#utility.yul\":5341:5721   */\n    tag_133:\n        /* \"#utility.yul\":5420:5421   */\n      0x01\n        /* \"#utility.yul\":5416:5428   */\n      dup2\n      dup2\n      shr\n      swap1\n        /* \"#utility.yul\":5463:5475   */\n      dup3\n      and\n      dup1\n        /* \"#utility.yul\":5484:5545   */\n      tag_286\n      jumpi\n        /* \"#utility.yul\":5538:5542   */\n      0x7f\n        /* \"#utility.yul\":5530:5536   */\n      dup3\n        /* \"#utility.yul\":5526:5543   */\n      and\n        /* \"#utility.yul\":5516:5543   */\n      swap2\n      pop\n        /* \"#utility.yul\":5484:5545   */\n    tag_286:\n        /* \"#utility.yul\":5591:5593   */\n      0x20\n        /* \"#utility.yul\":5583:5589   */\n      dup3\n        /* \"#utility.yul\":5580:5594   */\n      lt\n        /* \"#utility.yul\":5560:5578   */\n      dup2\n        /* \"#utility.yul\":5557:5595   */\n      sub\n        /* \"#utility.yul\":5554:5715   */\n      tag_287\n      jumpi\n        /* \"#utility.yul\":5637:5647   */\n      0x4e487b71\n        /* \"#utility.yul\":5632:5635   */\n      0xe0\n        /* \"#utility.yul\":5628:5648   */\n      shl\n        /* \"#utility.yul\":5625:5626   */\n      0x00\n        /* \"#utility.yul\":5618:5649   */\n      mstore\n        /* \"#utility.yul\":5672:5676   */\n      0x22\n        /* \"#utility.yul\":5669:5670   */\n      0x04\n        /* \"#utility.yul\":5662:5677   */\n      mstore\n        /* \"#utility.yul\":5700:5704   */\n      0x24\n        /* \"#utility.yul\":5697:5698   */\n      0x00\n        /* \"#utility.yul\":5690:5705   */\n      revert\n        /* \"#utility.yul\":5554:5715   */\n    tag_287:\n      pop\n        /* \"#utility.yul\":5341:5721   */\n      swap2\n      swap1\n      pop\n      jump\t// out\n        /* \"#utility.yul\":6079:6304   */\n    tag_154:\n        /* \"#utility.yul\":6146:6155   */\n      dup2\n      dup2\n      sub\n        /* \"#utility.yul\":6167:6178   */\n      dup2\n      dup2\n      gt\n        /* \"#utility.yul\":6164:6298   */\n      iszero\n      tag_290\n      jumpi\n        /* \"#utility.yul\":6220:6230   */\n      0x4e487b71\n        /* \"#utility.yul\":6215:6218   */\n      0xe0\n        /* \"#utility.yul\":6211:6231   */\n      shl\n        /* \"#utility.yul\":6208:6209   */\n      0x00\n        /* \"#utility.yul\":6201:6232   */\n      mstore\n        /* \"#utility.yul\":6255:6259   */\n      0x11\n        /* \"#utility.yul\":6252:6253   */\n      0x04\n        /* \"#utility.yul\":6245:6260   */\n      mstore\n        /* \"#utility.yul\":6283:6287   */\n      0x24\n        /* \"#utility.yul\":6280:6281   */\n      0x00\n        /* \"#utility.yul\":6273:6288   */\n      revert\n        /* \"#utility.yul\":6164:6298   */\n    tag_290:\n        /* \"#utility.yul\":6079:6304   */\n      swap3\n      swap2\n      pop\n      pop\n      jump\t// out\n        /* \"#utility.yul\":8355:8873   */\n    tag_253:\n        /* \"#utility.yul\":8457:8459   */\n      0x1f\n        /* \"#utility.yul\":8452:8455   */\n      dup3\n        /* \"#utility.yul\":8449:8460   */\n      gt\n        /* \"#utility.yul\":8446:8867   */\n      iszero\n      tag_298\n      jumpi\n        /* \"#utility.yul\":8493:8498   */\n      dup1\n        /* \"#utility.yul\":8490:8491   */\n      0x00\n        /* \"#utility.yul\":8483:8499   */\n      mstore\n        /* \"#utility.yul\":8537:8541   */\n      0x20\n        /* \"#utility.yul\":8534:8535   */\n      0x00\n        /* \"#utility.yul\":8524:8542   */\n      keccak256\n        /* \"#utility.yul\":8607:8609   */\n      0x1f\n        /* \"#utility.yul\":8595:8605   */\n      dup5\n        /* \"#utility.yul\":8591:8610   */\n      add\n        /* \"#utility.yul\":8588:8589   */\n      0x05\n        /* \"#utility.yul\":8584:8611   */\n      shr\n        /* \"#utility.yul\":8578:8582   */\n      dup2\n        /* \"#utility.yul\":8574:8612   */\n      add\n        /* \"#utility.yul\":8643:8647   */\n      0x20\n        /* \"#utility.yul\":8631:8641   */\n      dup6\n        /* \"#utility.yul\":8628:8648   */\n      lt\n        /* \"#utility.yul\":8625:8672   */\n      iszero\n      tag_299\n      jumpi\n      pop\n        /* \"#utility.yul\":8666:8670   */\n      dup1\n        /* \"#utility.yul\":8625:8672   */\n    tag_299:\n        /* \"#utility.yul\":8721:8723   */\n      0x1f\n        /* \"#utility.yul\":8716:8719   */\n      dup5\n        /* \"#utility.yul\":8712:8724   */\n      add\n        /* \"#utility.yul\":8709:8710   */\n      0x05\n        /* \"#utility.yul\":8705:8725   */\n      shr\n        /* \"#utility.yul\":8699:8703   */\n      dup3\n        /* \"#utility.yul\":8695:8726   */\n      add\n        /* \"#utility.yul\":8685:8726   */\n      swap2\n      pop\n        /* \"#utility.yul\":8776:8857   */\n    tag_300:\n        /* \"#utility.yul\":8794:8796   */\n      dup2\n        /* \"#utility.yul\":8787:8792   */\n      dup2\n        /* \"#utility.yul\":8784:8797   */\n      lt\n        /* \"#utility.yul\":8776:8857   */\n      iszero\n      tag_302\n      jumpi\n        /* \"#utility.yul\":8853:8854   */\n      0x00\n        /* \"#utility.yul\":8839:8855   */\n      dup2\n      sstore\n        /* \"#utility.yul\":8820:8821   */\n      0x01\n        /* \"#utility.yul\":8809:8822   */\n      add\n        /* \"#utility.yul\":8776:8857   */\n      jump(tag_300)\n    tag_302:\n        /* \"#utility.yul\":8780:8783   */\n      pop\n      pop\n        /* \"#utility.yul\":8446:8867   */\n    tag_298:\n        /* \"#utility.yul\":8355:8873   */\n      pop\n      pop\n      pop\n      jump\t// out\n        /* \"#utility.yul\":9049:10348   */\n    tag_183:\n        /* \"#utility.yul\":9175:9178   */\n      dup2\n        /* \"#utility.yul\":9169:9179   */\n      mload\n        /* \"#utility.yul\":9202:9220   */\n      0xffffffffffffffff\n        /* \"#utility.yul\":9194:9200   */\n      dup2\n        /* \"#utility.yul\":9191:9221   */\n      gt\n        /* \"#utility.yul\":9188:9244   */\n      iszero\n      tag_306\n      jumpi\n        /* \"#utility.yul\":9224:9242   */\n      tag_306\n      tag_250\n      jump\t// in\n    tag_306:\n        /* \"#utility.yul\":9253:9350   */\n      tag_307\n        /* \"#utility.yul\":9343:9349   */\n      dup2\n        /* \"#utility.yul\":9303:9341   */\n      tag_308\n        /* \"#utility.yul\":9335:9339   */\n      dup5\n        /* \"#utility.yul\":9329:9340   */\n      sload\n        /* \"#utility.yul\":9303:9341   */\n      tag_133\n      jump\t// in\n    tag_308:\n        /* \"#utility.yul\":9297:9301   */\n      dup5\n        /* \"#utility.yul\":9253:9350   */\n      tag_253\n      jump\t// in\n    tag_307:\n        /* \"#utility.yul\":9399:9403   */\n      0x20\n        /* \"#utility.yul\":9430:9432   */\n      0x1f\n        /* \"#utility.yul\":9419:9433   */\n      dup3\n      gt\n        /* \"#utility.yul\":9447:9448   */\n      0x01\n        /* \"#utility.yul\":9442:10091   */\n      dup2\n      eq\n      tag_310\n      jumpi\n        /* \"#utility.yul\":10135:10136   */\n      0x00\n        /* \"#utility.yul\":10152:10158   */\n      dup4\n        /* \"#utility.yul\":10149:10238   */\n      iszero\n      tag_311\n      jumpi\n      pop\n        /* \"#utility.yul\":10204:10223   */\n      dup5\n      dup3\n      add\n        /* \"#utility.yul\":10198:10224   */\n      mload\n        /* \"#utility.yul\":10149:10238   */\n    tag_311:\n      not(0x00)\n        /* \"#utility.yul\":9006:9007   */\n      0x03\n        /* \"#utility.yul\":9002:9013   */\n      dup6\n      swap1\n      shl\n        /* \"#utility.yul\":8998:9022   */\n      shr\n        /* \"#utility.yul\":8994:9023   */\n      not\n        /* \"#utility.yul\":8984:9024   */\n      and\n        /* \"#utility.yul\":9030:9031   */\n      0x01\n        /* \"#utility.yul\":9026:9037   */\n      dup5\n      swap1\n      shl\n        /* \"#utility.yul\":8981:9038   */\n      or\n        /* \"#utility.yul\":10251:10332   */\n      dup5\n      sstore\n        /* \"#utility.yul\":9412:10342   */\n      jump(tag_302)\n        /* \"#utility.yul\":9442:10091   */\n    tag_310:\n        /* \"#utility.yul\":8302:8303   */\n      0x00\n        /* \"#utility.yul\":8295:8309   */\n      dup5\n      dup2\n      mstore\n        /* \"#utility.yul\":8339:8343   */\n      0x20\n        /* \"#utility.yul\":8326:8344   */\n      dup2\n      keccak256\n      not(0x1f)\n        /* \"#utility.yul\":9478:9498   */\n      dup6\n      and\n      swap2\n        /* \"#utility.yul\":9596:9818   */\n    tag_314:\n        /* \"#utility.yul\":9610:9617   */\n      dup3\n        /* \"#utility.yul\":9607:9608   */\n      dup2\n        /* \"#utility.yul\":9604:9618   */\n      lt\n        /* \"#utility.yul\":9596:9818   */\n      iszero\n      tag_316\n      jumpi\n        /* \"#utility.yul\":9692:9711   */\n      dup8\n      dup6\n      add\n        /* \"#utility.yul\":9686:9712   */\n      mload\n        /* \"#utility.yul\":9671:9713   */\n      dup3\n      sstore\n        /* \"#utility.yul\":9799:9803   */\n      0x20\n        /* \"#utility.yul\":9784:9804   */\n      swap5\n      dup6\n      add\n      swap5\n        /* \"#utility.yul\":9752:9753   */\n      0x01\n        /* \"#utility.yul\":9740:9754   */\n      swap1\n      swap3\n      add\n      swap2\n        /* \"#utility.yul\":9626:9638   */\n      add\n        /* \"#utility.yul\":9596:9818   */\n      jump(tag_314)\n    tag_316:\n        /* \"#utility.yul\":9600:9603   */\n      pop\n        /* \"#utility.yul\":9846:9852   */\n      dup5\n        /* \"#utility.yul\":9837:9844   */\n      dup3\n        /* \"#utility.yul\":9834:9853   */\n      lt\n        /* \"#utility.yul\":9831:10032   */\n      iszero\n      tag_317\n      jumpi\n        /* \"#utility.yul\":9907:9926   */\n      dup7\n      dup5\n      add\n        /* \"#utility.yul\":9901:9927   */\n      mload\n      not(0x00)\n        /* \"#utility.yul\":9990:9991   */\n      0x03\n        /* \"#utility.yul\":9986:10000   */\n      dup8\n      swap1\n      shl\n        /* \"#utility.yul\":10002:10005   */\n      0xf8\n        /* \"#utility.yul\":9982:10006   */\n      and\n        /* \"#utility.yul\":9978:10015   */\n      shr\n        /* \"#utility.yul\":9974:10016   */\n      not\n        /* \"#utility.yul\":9959:10017   */\n      and\n        /* \"#utility.yul\":9944:10018   */\n      dup2\n      sstore\n        /* \"#utility.yul\":9831:10032   */\n    tag_317:\n      pop\n      pop\n      pop\n      pop\n        /* \"#utility.yul\":10078:10079   */\n      0x01\n        /* \"#utility.yul\":10062:10076   */\n      swap1\n      dup2\n      shl\n        /* \"#utility.yul\":10058:10080   */\n      add\n        /* \"#utility.yul\":10045:10081   */\n      swap1\n      sstore\n      pop\n        /* \"#utility.yul\":9049:10348   */\n      jump\t// out\n        /* \"#utility.yul\":10353:10880   */\n    tag_188:\n        /* \"#utility.yul\":10606:10609   */\n      0x80\n        /* \"#utility.yul\":10595:10604   */\n      dup2\n        /* \"#utility.yul\":10588:10610   */\n      mstore\n        /* \"#utility.yul\":10569:10573   */\n      0x00\n        /* \"#utility.yul\":10633:10679   */\n      tag_319\n        /* \"#utility.yul\":10674:10677   */\n      0x80\n        /* \"#utility.yul\":10663:10672   */\n      dup4\n        /* \"#utility.yul\":10659:10678   */\n      add\n        /* \"#utility.yul\":10651:10657   */\n      dup8\n        /* \"#utility.yul\":10633:10679   */\n      tag_249\n      jump\t// in\n    tag_319:\n        /* \"#utility.yul\":10727:10736   */\n      dup3\n        /* \"#utility.yul\":10719:10725   */\n      dup2\n        /* \"#utility.yul\":10715:10737   */\n      sub\n        /* \"#utility.yul\":10710:10712   */\n      0x20\n        /* \"#utility.yul\":10699:10708   */\n      dup5\n        /* \"#utility.yul\":10695:10713   */\n      add\n        /* \"#utility.yul\":10688:10738   */\n      mstore\n        /* \"#utility.yul\":10755:10788   */\n      tag_320\n        /* \"#utility.yul\":10781:10787   */\n      dup2\n        /* \"#utility.yul\":10773:10779   */\n      dup8\n        /* \"#utility.yul\":10755:10788   */\n      tag_249\n      jump\t// in\n    tag_320:\n        /* \"#utility.yul\":10819:10821   */\n      0x40\n        /* \"#utility.yul\":10804:10822   */\n      dup5\n      add\n        /* \"#utility.yul\":10797:10831   */\n      swap6\n      swap1\n      swap6\n      mstore\n      pop\n      pop\n        /* \"#utility.yul\":10862:10864   */\n      0x60\n        /* \"#utility.yul\":10847:10865   */\n      add\n        /* \"#utility.yul\":10840:10874   */\n      mstore\n        /* \"#utility.yul\":10747:10788   */\n      swap3\n        /* \"#utility.yul\":10353:10880   */\n      swap2\n      pop\n      pop\n      jump\t// out\n\n    auxdata: 0xa26469706673582212208aa4fc7f469129d34cab3d67cacb931f7bc0ae2e93e6e5f9e47fc935ff88765864736f6c634300081f0033\n}\n",
				"bytecode": {
					"linkReferences": {},
					"object": "6080604052348015600e575f5ffd5b505f8054336001600160a01b03199091161790556006805460ff60281b1916905561124c8061003c5f395ff3fe60806040526004361061011b575f3560e01c80639a82a09a1161009d578063e7e1049011610062578063e7e10490146102df578063ec6b720b146102f3578063ee7a3b8e14610307578063f51f96dd1461031b578063fb5bc45714610330575f5ffd5b80639a82a09a1461025b578063b387ef921461027b578063c19d93fb1461028f578063d910b05a146102be578063ded26e34146102d7575f5ffd5b806366f0c134116100e357806366f0c134146101e35780636f9fb98a146101eb5780637150d8ae146101fd5780637437ef751461021c578063782618781461023b575f5ffd5b806308551a531461011f57806332e0b69c1461015a578063419759f51461018957806358a687ec146101ac57806366440d71146101c2575b5f5ffd5b34801561012a575f5ffd5b505f5461013d906001600160a01b031681565b6040516001600160a01b0390911681526020015b60405180910390f35b348015610165575f5ffd5b506006546101799062010000900460ff1681565b6040519015158152602001610151565b348015610194575f5ffd5b5061019e60055481565b604051908152602001610151565b3480156101b7575f5ffd5b506101c061034e565b005b3480156101cd575f5ffd5b506101d661053a565b6040516101519190610e6a565b6101c06105c6565b3480156101f6575f5ffd5b504761019e565b348015610208575f5ffd5b5060015461013d906001600160a01b031681565b348015610227575f5ffd5b506101c0610236366004610f22565b610787565b348015610246575f5ffd5b50600654610179906301000000900460ff1681565b348015610266575f5ffd5b5060065461017990600160201b900460ff1681565b348015610286575f5ffd5b5061013d6109e5565b34801561029a575f5ffd5b506006546102b19065010000000000900460ff1681565b6040516101519190610f96565b3480156102c9575f5ffd5b506006546101799060ff1681565b6101c0610a18565b3480156102ea575f5ffd5b506101c0610bbe565b3480156102fe575f5ffd5b506101c0610cef565b348015610312575f5ffd5b506101d6610e2f565b348015610326575f5ffd5b5061019e60045481565b34801561033b575f5ffd5b5060065461017990610100900460ff1681565b5f546001600160a01b031633146103805760405162461bcd60e51b815260040161037790610fbc565b60405180910390fd5b6006546301000000900460ff16156103aa5760405162461bcd60e51b815260040161037790610ff3565b600654600160201b900460ff16156103d45760405162461bcd60e51b815260040161037790611023565b600654610100900460ff166103fb5760405162461bcd60e51b81526004016103779061104b565b60065462010000900460ff1661044d5760405162461bcd60e51b8152602060048201526017602482015276125b9cdc1958dd1a5bdb881b9bdd08185c1c1c9bdd9959604a1b6044820152606401610377565b600454471461049e5760405162461bcd60e51b815260206004820152601d60248201527f46756c6c207061796d656e74206e6f74207965742072656365697665640000006044820152606401610377565b6006805465ff00ff0000001916650400010000001790555f805460405147926001600160a01b039092169183156108fc02918491818181858888f193505050501580156104ed573d5f5f3e3d5ffd5b506001545f546040518381526001600160a01b0392831692909116907fd096fdd1c0eb5b28e18d287f828bb68ae24b538e91b557555b53efa3d92a9ef0906020015b60405180910390a350565b600380546105479061107a565b80601f01602080910402602001604051908101604052809291908181526020018280546105739061107a565b80156105be5780601f10610595576101008083540402835291602001916105be565b820191905f5260205f20905b8154815290600101906020018083116105a157829003601f168201915b505050505081565b6001546001600160a01b031633146106205760405162461bcd60e51b815260206004820152601860248201527f4f6e6c792062757965722063616e2063616c6c207468697300000000000000006044820152606401610377565b6006546301000000900460ff161561064a5760405162461bcd60e51b815260040161037790610ff3565b600654600160201b900460ff16156106745760405162461bcd60e51b815260040161037790611023565b600654610100900460ff1661069b5760405162461bcd60e51b81526004016103779061104b565b60065462010000900460ff166106ed5760405162461bcd60e51b8152602060048201526017602482015276125b9cdc1958dd1a5bdb881b9bdd08185c1c1c9bdd9959604a1b6044820152606401610377565b5f6005546004546106fe91906110b2565b905080341461074f5760405162461bcd60e51b815260206004820152601b60248201527f496e636f72726563742072656d61696e696e672062616c616e636500000000006044820152606401610377565b60405134815233907fc6ae9bb0c1de45f8255b2c0caa301476e99b054a2bd36b9908be1f6d96256cd89060200160405180910390a250565b5f546001600160a01b031633146107b05760405162461bcd60e51b815260040161037790610fbc565b6006546301000000900460ff16156107da5760405162461bcd60e51b815260040161037790610ff3565b600654600160201b900460ff16156108045760405162461bcd60e51b815260040161037790611023565b60065460ff16156108575760405162461bcd60e51b815260206004820152601760248201527f50726f706572747920616c7265616479206c69737465640000000000000000006044820152606401610377565b5f82116108b25760405162461bcd60e51b8152602060048201526024808201527f53616c65207072696365206d7573742062652067726561746572207468616e206044820152637a65726f60e01b6064820152608401610377565b5f811161090b5760405162461bcd60e51b815260206004820152602160248201527f4465706f736974206d7573742062652067726561746572207468616e207a65726044820152606f60f81b6064820152608401610377565b8181106109665760405162461bcd60e51b8152602060048201526024808201527f4465706f736974206d757374206265206c657373207468616e2073616c6520706044820152637269636560e01b6064820152608401610377565b60026109728582611123565b50600361097f8482611123565b50600482905560058190556006805465ff00000000ff1916650100000000011790556040517f19d23ad9da59f590aa0282f2a1a34ce021fb72dbd77096651099e2201fdae01c906109d79086908690869086906111de565b60405180910390a150505050565b6006545f906301000000900460ff1615610a0957506001546001600160a01b031690565b505f546001600160a01b031690565b6006546301000000900460ff1615610a425760405162461bcd60e51b815260040161037790610ff3565b600654600160201b900460ff1615610a6c5760405162461bcd60e51b815260040161037790611023565b60065460ff16610ab45760405162461bcd60e51b8152602060048201526013602482015272141c9bdc195c9d1e481b9bdd081b1a5cdd1959606a1b6044820152606401610377565b600654610100900460ff1615610b0c5760405162461bcd60e51b815260206004820152601960248201527f50726f706572747920616c7265616479207265736572766564000000000000006044820152606401610377565b6005543414610b5d5760405162461bcd60e51b815260206004820152601860248201527f496e636f7272656374206465706f73697420616d6f756e7400000000000000006044820152606401610377565b600180546001600160a01b031916339081179091556006805465ff000000ff001916650200000001001790556040805134815290517f214226d2009848f7db18f69a9c9833167e0509539f9135a6d23569869554300d9181900360200190a2565b5f546001600160a01b03163314610be75760405162461bcd60e51b815260040161037790610fbc565b6006546301000000900460ff1615610c115760405162461bcd60e51b815260040161037790610ff3565b600654600160201b900460ff1615610c3b5760405162461bcd60e51b815260040161037790611023565b6006805465ffff00000000191665050100000000179055478015801590610c6c57506001546001600160a01b031615155b15610caa576001546040516001600160a01b039091169082156108fc029083905f818181858888f19350505050158015610ca8573d5f5f3e3d5ffd5b505b6001545f546040518381526001600160a01b0392831692909116907f8dcbcc19445d8231a7895431f4e4912f7d57775b251dcffa5e98e092f009abfd9060200161052f565b5f546001600160a01b03163314610d185760405162461bcd60e51b815260040161037790610fbc565b6006546301000000900460ff1615610d425760405162461bcd60e51b815260040161037790610ff3565b600654600160201b900460ff1615610d6c5760405162461bcd60e51b815260040161037790611023565b600654610100900460ff16610d935760405162461bcd60e51b81526004016103779061104b565b60065462010000900460ff1615610dec5760405162461bcd60e51b815260206004820152601b60248201527f496e7370656374696f6e20616c726561647920617070726f76656400000000006044820152606401610377565b6006805465ff0000ff000019166503000001000017905560405133907fd7e33d3cef6b64fa87b1c62da6417f1e22349e0e4636f9265ad88a646a671f05905f90a2565b600280546105479061107a565b5f81518084528060208401602086015e5f602082860101526020601f19601f83011685010191505092915050565b602081525f610e7c6020830184610e3c565b9392505050565b634e487b7160e01b5f52604160045260245ffd5b5f82601f830112610ea6575f5ffd5b813567ffffffffffffffff811115610ec057610ec0610e83565b604051601f8201601f19908116603f0116810167ffffffffffffffff81118282101715610eef57610eef610e83565b604052818152838201602001851015610f06575f5ffd5b816020850160208301375f918101602001919091529392505050565b5f5f5f5f60808587031215610f35575f5ffd5b843567ffffffffffffffff811115610f4b575f5ffd5b610f5787828801610e97565b945050602085013567ffffffffffffffff811115610f73575f5ffd5b610f7f87828801610e97565b949794965050505060408301359260600135919050565b6020810160068310610fb657634e487b7160e01b5f52602160045260245ffd5b91905290565b60208082526019908201527f4f6e6c792073656c6c65722063616e2063616c6c207468697300000000000000604082015260600190565b60208082526016908201527514d85b1948185b1c9958591e4818dbdb5c1b195d195960521b604082015260600190565b6020808252600e908201526d14d85b194818d85b98d95b1b195960921b604082015260600190565b602080825260159082015274141c9bdc195c9d1e481b9bdd081c995cd95c9d9959605a1b604082015260600190565b600181811c9082168061108e57607f821691505b6020821081036110ac57634e487b7160e01b5f52602260045260245ffd5b50919050565b818103818111156110d157634e487b7160e01b5f52601160045260245ffd5b92915050565b601f82111561111e57805f5260205f20601f840160051c810160208510156110fc5750805b601f840160051c820191505b8181101561111b575f8155600101611108565b50505b505050565b815167ffffffffffffffff81111561113d5761113d610e83565b6111518161114b845461107a565b846110d7565b6020601f821160018114611183575f831561116c5750848201515b5f19600385901b1c1916600184901b17845561111b565b5f84815260208120601f198516915b828110156111b25787850151825560209485019460019092019101611192565b50848210156111cf57868401515f19600387901b60f8161c191681555b50505050600190811b01905550565b608081525f6111f06080830187610e3c565b82810360208401526112028187610e3c565b60408401959095525050606001529291505056fea26469706673582212208aa4fc7f469129d34cab3d67cacb931f7bc0ae2e93e6e5f9e47fc935ff88765864736f6c634300081f0033",
					"opcodes": "PUSH1 0x80 PUSH1 0x40 MSTORE CALLVALUE DUP1 ISZERO PUSH1 0xE JUMPI PUSH0 PUSH0 REVERT JUMPDEST POP PUSH0 DUP1 SLOAD CALLER PUSH1 0x1 PUSH1 0x1 PUSH1 0xA0 SHL SUB NOT SWAP1 SWAP2 AND OR SWAP1 SSTORE PUSH1 0x6 DUP1 SLOAD PUSH1 0xFF PUSH1 0x28 SHL NOT AND SWAP1 SSTORE PUSH2 0x124C DUP1 PUSH2 0x3C PUSH0 CODECOPY PUSH0 RETURN INVALID PUSH1 0x80 PUSH1 0x40 MSTORE PUSH1 0x4 CALLDATASIZE LT PUSH2 0x11B JUMPI PUSH0 CALLDATALOAD PUSH1 0xE0 SHR DUP1 PUSH4 0x9A82A09A GT PUSH2 0x9D JUMPI DUP1 PUSH4 0xE7E10490 GT PUSH2 0x62 JUMPI DUP1 PUSH4 0xE7E10490 EQ PUSH2 0x2DF JUMPI DUP1 PUSH4 0xEC6B720B EQ PUSH2 0x2F3 JUMPI DUP1 PUSH4 0xEE7A3B8E EQ PUSH2 0x307 JUMPI DUP1 PUSH4 0xF51F96DD EQ PUSH2 0x31B JUMPI DUP1 PUSH4 0xFB5BC457 EQ PUSH2 0x330 JUMPI PUSH0 PUSH0 REVERT JUMPDEST DUP1 PUSH4 0x9A82A09A EQ PUSH2 0x25B JUMPI DUP1 PUSH4 0xB387EF92 EQ PUSH2 0x27B JUMPI DUP1 PUSH4 0xC19D93FB EQ PUSH2 0x28F JUMPI DUP1 PUSH4 0xD910B05A EQ PUSH2 0x2BE JUMPI DUP1 PUSH4 0xDED26E34 EQ PUSH2 0x2D7 JUMPI PUSH0 PUSH0 REVERT JUMPDEST DUP1 PUSH4 0x66F0C134 GT PUSH2 0xE3 JUMPI DUP1 PUSH4 0x66F0C134 EQ PUSH2 0x1E3 JUMPI DUP1 PUSH4 0x6F9FB98A EQ PUSH2 0x1EB JUMPI DUP1 PUSH4 0x7150D8AE EQ PUSH2 0x1FD JUMPI DUP1 PUSH4 0x7437EF75 EQ PUSH2 0x21C JUMPI DUP1 PUSH4 0x78261878 EQ PUSH2 0x23B JUMPI PUSH0 PUSH0 REVERT JUMPDEST DUP1 PUSH4 0x8551A53 EQ PUSH2 0x11F JUMPI DUP1 PUSH4 0x32E0B69C EQ PUSH2 0x15A JUMPI DUP1 PUSH4 0x419759F5 EQ PUSH2 0x189 JUMPI DUP1 PUSH4 0x58A687EC EQ PUSH2 0x1AC JUMPI DUP1 PUSH4 0x66440D71 EQ PUSH2 0x1C2 JUMPI JUMPDEST PUSH0 PUSH0 REVERT JUMPDEST CALLVALUE DUP1 ISZERO PUSH2 0x12A JUMPI PUSH0 PUSH0 REVERT JUMPDEST POP PUSH0 SLOAD PUSH2 0x13D SWAP1 PUSH1 0x1 PUSH1 0x1 PUSH1 0xA0 SHL SUB AND DUP2 JUMP JUMPDEST PUSH1 0x40 MLOAD PUSH1 0x1 PUSH1 0x1 PUSH1 0xA0 SHL SUB SWAP1 SWAP2 AND DUP2 MSTORE PUSH1 0x20 ADD JUMPDEST PUSH1 0x40 MLOAD DUP1 SWAP2 SUB SWAP1 RETURN JUMPDEST CALLVALUE DUP1 ISZERO PUSH2 0x165 JUMPI PUSH0 PUSH0 REVERT JUMPDEST POP PUSH1 0x6 SLOAD PUSH2 0x179 SWAP1 PUSH3 0x10000 SWAP1 DIV PUSH1 0xFF AND DUP2 JUMP JUMPDEST PUSH1 0x40 MLOAD SWAP1 ISZERO ISZERO DUP2 MSTORE PUSH1 0x20 ADD PUSH2 0x151 JUMP JUMPDEST CALLVALUE DUP1 ISZERO PUSH2 0x194 JUMPI PUSH0 PUSH0 REVERT JUMPDEST POP PUSH2 0x19E PUSH1 0x5 SLOAD DUP2 JUMP JUMPDEST PUSH1 0x40 MLOAD SWAP1 DUP2 MSTORE PUSH1 0x20 ADD PUSH2 0x151 JUMP JUMPDEST CALLVALUE DUP1 ISZERO PUSH2 0x1B7 JUMPI PUSH0 PUSH0 REVERT JUMPDEST POP PUSH2 0x1C0 PUSH2 0x34E JUMP JUMPDEST STOP JUMPDEST CALLVALUE DUP1 ISZERO PUSH2 0x1CD JUMPI PUSH0 PUSH0 REVERT JUMPDEST POP PUSH2 0x1D6 PUSH2 0x53A JUMP JUMPDEST PUSH1 0x40 MLOAD PUSH2 0x151 SWAP2 SWAP1 PUSH2 0xE6A JUMP JUMPDEST PUSH2 0x1C0 PUSH2 0x5C6 JUMP JUMPDEST CALLVALUE DUP1 ISZERO PUSH2 0x1F6 JUMPI PUSH0 PUSH0 REVERT JUMPDEST POP SELFBALANCE PUSH2 0x19E JUMP JUMPDEST CALLVALUE DUP1 ISZERO PUSH2 0x208 JUMPI PUSH0 PUSH0 REVERT JUMPDEST POP PUSH1 0x1 SLOAD PUSH2 0x13D SWAP1 PUSH1 0x1 PUSH1 0x1 PUSH1 0xA0 SHL SUB AND DUP2 JUMP JUMPDEST CALLVALUE DUP1 ISZERO PUSH2 0x227 JUMPI PUSH0 PUSH0 REVERT JUMPDEST POP PUSH2 0x1C0 PUSH2 0x236 CALLDATASIZE PUSH1 0x4 PUSH2 0xF22 JUMP JUMPDEST PUSH2 0x787 JUMP JUMPDEST CALLVALUE DUP1 ISZERO PUSH2 0x246 JUMPI PUSH0 PUSH0 REVERT JUMPDEST POP PUSH1 0x6 SLOAD PUSH2 0x179 SWAP1 PUSH4 0x1000000 SWAP1 DIV PUSH1 0xFF AND DUP2 JUMP JUMPDEST CALLVALUE DUP1 ISZERO PUSH2 0x266 JUMPI PUSH0 PUSH0 REVERT JUMPDEST POP PUSH1 0x6 SLOAD PUSH2 0x179 SWAP1 PUSH1 0x1 PUSH1 0x20 SHL SWAP1 DIV PUSH1 0xFF AND DUP2 JUMP JUMPDEST CALLVALUE DUP1 ISZERO PUSH2 0x286 JUMPI PUSH0 PUSH0 REVERT JUMPDEST POP PUSH2 0x13D PUSH2 0x9E5 JUMP JUMPDEST CALLVALUE DUP1 ISZERO PUSH2 0x29A JUMPI PUSH0 PUSH0 REVERT JUMPDEST POP PUSH1 0x6 SLOAD PUSH2 0x2B1 SWAP1 PUSH6 0x10000000000 SWAP1 DIV PUSH1 0xFF AND DUP2 JUMP JUMPDEST PUSH1 0x40 MLOAD PUSH2 0x151 SWAP2 SWAP1 PUSH2 0xF96 JUMP JUMPDEST CALLVALUE DUP1 ISZERO PUSH2 0x2C9 JUMPI PUSH0 PUSH0 REVERT JUMPDEST POP PUSH1 0x6 SLOAD PUSH2 0x179 SWAP1 PUSH1 0xFF AND DUP2 JUMP JUMPDEST PUSH2 0x1C0 PUSH2 0xA18 JUMP JUMPDEST CALLVALUE DUP1 ISZERO PUSH2 0x2EA JUMPI PUSH0 PUSH0 REVERT JUMPDEST POP PUSH2 0x1C0 PUSH2 0xBBE JUMP JUMPDEST CALLVALUE DUP1 ISZERO PUSH2 0x2FE JUMPI PUSH0 PUSH0 REVERT JUMPDEST POP PUSH2 0x1C0 PUSH2 0xCEF JUMP JUMPDEST CALLVALUE DUP1 ISZERO PUSH2 0x312 JUMPI PUSH0 PUSH0 REVERT JUMPDEST POP PUSH2 0x1D6 PUSH2 0xE2F JUMP JUMPDEST CALLVALUE DUP1 ISZERO PUSH2 0x326 JUMPI PUSH0 PUSH0 REVERT JUMPDEST POP PUSH2 0x19E PUSH1 0x4 SLOAD DUP2 JUMP JUMPDEST CALLVALUE DUP1 ISZERO PUSH2 0x33B JUMPI PUSH0 PUSH0 REVERT JUMPDEST POP PUSH1 0x6 SLOAD PUSH2 0x179 SWAP1 PUSH2 0x100 SWAP1 DIV PUSH1 0xFF AND DUP2 JUMP JUMPDEST PUSH0 SLOAD PUSH1 0x1 PUSH1 0x1 PUSH1 0xA0 SHL SUB AND CALLER EQ PUSH2 0x380 JUMPI PUSH1 0x40 MLOAD PUSH3 0x461BCD PUSH1 0xE5 SHL DUP2 MSTORE PUSH1 0x4 ADD PUSH2 0x377 SWAP1 PUSH2 0xFBC JUMP JUMPDEST PUSH1 0x40 MLOAD DUP1 SWAP2 SUB SWAP1 REVERT JUMPDEST PUSH1 0x6 SLOAD PUSH4 0x1000000 SWAP1 DIV PUSH1 0xFF AND ISZERO PUSH2 0x3AA JUMPI PUSH1 0x40 MLOAD PUSH3 0x461BCD PUSH1 0xE5 SHL DUP2 MSTORE PUSH1 0x4 ADD PUSH2 0x377 SWAP1 PUSH2 0xFF3 JUMP JUMPDEST PUSH1 0x6 SLOAD PUSH1 0x1 PUSH1 0x20 SHL SWAP1 DIV PUSH1 0xFF AND ISZERO PUSH2 0x3D4 JUMPI PUSH1 0x40 MLOAD PUSH3 0x461BCD PUSH1 0xE5 SHL DUP2 MSTORE PUSH1 0x4 ADD PUSH2 0x377 SWAP1 PUSH2 0x1023 JUMP JUMPDEST PUSH1 0x6 SLOAD PUSH2 0x100 SWAP1 DIV PUSH1 0xFF AND PUSH2 0x3FB JUMPI PUSH1 0x40 MLOAD PUSH3 0x461BCD PUSH1 0xE5 SHL DUP2 MSTORE PUSH1 0x4 ADD PUSH2 0x377 SWAP1 PUSH2 0x104B JUMP JUMPDEST PUSH1 0x6 SLOAD PUSH3 0x10000 SWAP1 DIV PUSH1 0xFF AND PUSH2 0x44D JUMPI PUSH1 0x40 MLOAD PUSH3 0x461BCD PUSH1 0xE5 SHL DUP2 MSTORE PUSH1 0x20 PUSH1 0x4 DUP3 ADD MSTORE PUSH1 0x17 PUSH1 0x24 DUP3 ADD MSTORE PUSH23 0x125B9CDC1958DD1A5BDB881B9BDD08185C1C1C9BDD9959 PUSH1 0x4A SHL PUSH1 0x44 DUP3 ADD MSTORE PUSH1 0x64 ADD PUSH2 0x377 JUMP JUMPDEST PUSH1 0x4 SLOAD SELFBALANCE EQ PUSH2 0x49E JUMPI PUSH1 0x40 MLOAD PUSH3 0x461BCD PUSH1 0xE5 SHL DUP2 MSTORE PUSH1 0x20 PUSH1 0x4 DUP3 ADD MSTORE PUSH1 0x1D PUSH1 0x24 DUP3 ADD MSTORE PUSH32 0x46756C6C207061796D656E74206E6F7420796574207265636569766564000000 PUSH1 0x44 DUP3 ADD MSTORE PUSH1 0x64 ADD PUSH2 0x377 JUMP JUMPDEST PUSH1 0x6 DUP1 SLOAD PUSH6 0xFF00FF000000 NOT AND PUSH6 0x40001000000 OR SWAP1 SSTORE PUSH0 DUP1 SLOAD PUSH1 0x40 MLOAD SELFBALANCE SWAP3 PUSH1 0x1 PUSH1 0x1 PUSH1 0xA0 SHL SUB SWAP1 SWAP3 AND SWAP2 DUP4 ISZERO PUSH2 0x8FC MUL SWAP2 DUP5 SWAP2 DUP2 DUP2 DUP2 DUP6 DUP9 DUP9 CALL SWAP4 POP POP POP POP ISZERO DUP1 ISZERO PUSH2 0x4ED JUMPI RETURNDATASIZE PUSH0 PUSH0 RETURNDATACOPY RETURNDATASIZE PUSH0 REVERT JUMPDEST POP PUSH1 0x1 SLOAD PUSH0 SLOAD PUSH1 0x40 MLOAD DUP4 DUP2 MSTORE PUSH1 0x1 PUSH1 0x1 PUSH1 0xA0 SHL SUB SWAP3 DUP4 AND SWAP3 SWAP1 SWAP2 AND SWAP1 PUSH32 0xD096FDD1C0EB5B28E18D287F828BB68AE24B538E91B557555B53EFA3D92A9EF0 SWAP1 PUSH1 0x20 ADD JUMPDEST PUSH1 0x40 MLOAD DUP1 SWAP2 SUB SWAP1 LOG3 POP JUMP JUMPDEST PUSH1 0x3 DUP1 SLOAD PUSH2 0x547 SWAP1 PUSH2 0x107A JUMP JUMPDEST DUP1 PUSH1 0x1F ADD PUSH1 0x20 DUP1 SWAP2 DIV MUL PUSH1 0x20 ADD PUSH1 0x40 MLOAD SWAP1 DUP2 ADD PUSH1 0x40 MSTORE DUP1 SWAP3 SWAP2 SWAP1 DUP2 DUP2 MSTORE PUSH1 0x20 ADD DUP3 DUP1 SLOAD PUSH2 0x573 SWAP1 PUSH2 0x107A JUMP JUMPDEST DUP1 ISZERO PUSH2 0x5BE JUMPI DUP1 PUSH1 0x1F LT PUSH2 0x595 JUMPI PUSH2 0x100 DUP1 DUP4 SLOAD DIV MUL DUP4 MSTORE SWAP2 PUSH1 0x20 ADD SWAP2 PUSH2 0x5BE JUMP JUMPDEST DUP3 ADD SWAP2 SWAP1 PUSH0 MSTORE PUSH1 0x20 PUSH0 KECCAK256 SWAP1 JUMPDEST DUP2 SLOAD DUP2 MSTORE SWAP1 PUSH1 0x1 ADD SWAP1 PUSH1 0x20 ADD DUP1 DUP4 GT PUSH2 0x5A1 JUMPI DUP3 SWAP1 SUB PUSH1 0x1F AND DUP3 ADD SWAP2 JUMPDEST POP POP POP POP POP DUP2 JUMP JUMPDEST PUSH1 0x1 SLOAD PUSH1 0x1 PUSH1 0x1 PUSH1 0xA0 SHL SUB AND CALLER EQ PUSH2 0x620 JUMPI PUSH1 0x40 MLOAD PUSH3 0x461BCD PUSH1 0xE5 SHL DUP2 MSTORE PUSH1 0x20 PUSH1 0x4 DUP3 ADD MSTORE PUSH1 0x18 PUSH1 0x24 DUP3 ADD MSTORE PUSH32 0x4F6E6C792062757965722063616E2063616C6C20746869730000000000000000 PUSH1 0x44 DUP3 ADD MSTORE PUSH1 0x64 ADD PUSH2 0x377 JUMP JUMPDEST PUSH1 0x6 SLOAD PUSH4 0x1000000 SWAP1 DIV PUSH1 0xFF AND ISZERO PUSH2 0x64A JUMPI PUSH1 0x40 MLOAD PUSH3 0x461BCD PUSH1 0xE5 SHL DUP2 MSTORE PUSH1 0x4 ADD PUSH2 0x377 SWAP1 PUSH2 0xFF3 JUMP JUMPDEST PUSH1 0x6 SLOAD PUSH1 0x1 PUSH1 0x20 SHL SWAP1 DIV PUSH1 0xFF AND ISZERO PUSH2 0x674 JUMPI PUSH1 0x40 MLOAD PUSH3 0x461BCD PUSH1 0xE5 SHL DUP2 MSTORE PUSH1 0x4 ADD PUSH2 0x377 SWAP1 PUSH2 0x1023 JUMP JUMPDEST PUSH1 0x6 SLOAD PUSH2 0x100 SWAP1 DIV PUSH1 0xFF AND PUSH2 0x69B JUMPI PUSH1 0x40 MLOAD PUSH3 0x461BCD PUSH1 0xE5 SHL DUP2 MSTORE PUSH1 0x4 ADD PUSH2 0x377 SWAP1 PUSH2 0x104B JUMP JUMPDEST PUSH1 0x6 SLOAD PUSH3 0x10000 SWAP1 DIV PUSH1 0xFF AND PUSH2 0x6ED JUMPI PUSH1 0x40 MLOAD PUSH3 0x461BCD PUSH1 0xE5 SHL DUP2 MSTORE PUSH1 0x20 PUSH1 0x4 DUP3 ADD MSTORE PUSH1 0x17 PUSH1 0x24 DUP3 ADD MSTORE PUSH23 0x125B9CDC1958DD1A5BDB881B9BDD08185C1C1C9BDD9959 PUSH1 0x4A SHL PUSH1 0x44 DUP3 ADD MSTORE PUSH1 0x64 ADD PUSH2 0x377 JUMP JUMPDEST PUSH0 PUSH1 0x5 SLOAD PUSH1 0x4 SLOAD PUSH2 0x6FE SWAP2 SWAP1 PUSH2 0x10B2 JUMP JUMPDEST SWAP1 POP DUP1 CALLVALUE EQ PUSH2 0x74F JUMPI PUSH1 0x40 MLOAD PUSH3 0x461BCD PUSH1 0xE5 SHL DUP2 MSTORE PUSH1 0x20 PUSH1 0x4 DUP3 ADD MSTORE PUSH1 0x1B PUSH1 0x24 DUP3 ADD MSTORE PUSH32 0x496E636F72726563742072656D61696E696E672062616C616E63650000000000 PUSH1 0x44 DUP3 ADD MSTORE PUSH1 0x64 ADD PUSH2 0x377 JUMP JUMPDEST PUSH1 0x40 MLOAD CALLVALUE DUP2 MSTORE CALLER SWAP1 PUSH32 0xC6AE9BB0C1DE45F8255B2C0CAA301476E99B054A2BD36B9908BE1F6D96256CD8 SWAP1 PUSH1 0x20 ADD PUSH1 0x40 MLOAD DUP1 SWAP2 SUB SWAP1 LOG2 POP JUMP JUMPDEST PUSH0 SLOAD PUSH1 0x1 PUSH1 0x1 PUSH1 0xA0 SHL SUB AND CALLER EQ PUSH2 0x7B0 JUMPI PUSH1 0x40 MLOAD PUSH3 0x461BCD PUSH1 0xE5 SHL DUP2 MSTORE PUSH1 0x4 ADD PUSH2 0x377 SWAP1 PUSH2 0xFBC JUMP JUMPDEST PUSH1 0x6 SLOAD PUSH4 0x1000000 SWAP1 DIV PUSH1 0xFF AND ISZERO PUSH2 0x7DA JUMPI PUSH1 0x40 MLOAD PUSH3 0x461BCD PUSH1 0xE5 SHL DUP2 MSTORE PUSH1 0x4 ADD PUSH2 0x377 SWAP1 PUSH2 0xFF3 JUMP JUMPDEST PUSH1 0x6 SLOAD PUSH1 0x1 PUSH1 0x20 SHL SWAP1 DIV PUSH1 0xFF AND ISZERO PUSH2 0x804 JUMPI PUSH1 0x40 MLOAD PUSH3 0x461BCD PUSH1 0xE5 SHL DUP2 MSTORE PUSH1 0x4 ADD PUSH2 0x377 SWAP1 PUSH2 0x1023 JUMP JUMPDEST PUSH1 0x6 SLOAD PUSH1 0xFF AND ISZERO PUSH2 0x857 JUMPI PUSH1 0x40 MLOAD PUSH3 0x461BCD PUSH1 0xE5 SHL DUP2 MSTORE PUSH1 0x20 PUSH1 0x4 DUP3 ADD MSTORE PUSH1 0x17 PUSH1 0x24 DUP3 ADD MSTORE PUSH32 0x50726F706572747920616C7265616479206C6973746564000000000000000000 PUSH1 0x44 DUP3 ADD MSTORE PUSH1 0x64 ADD PUSH2 0x377 JUMP JUMPDEST PUSH0 DUP3 GT PUSH2 0x8B2 JUMPI PUSH1 0x40 MLOAD PUSH3 0x461BCD PUSH1 0xE5 SHL DUP2 MSTORE PUSH1 0x20 PUSH1 0x4 DUP3 ADD MSTORE PUSH1 0x24 DUP1 DUP3 ADD MSTORE PUSH32 0x53616C65207072696365206D7573742062652067726561746572207468616E20 PUSH1 0x44 DUP3 ADD MSTORE PUSH4 0x7A65726F PUSH1 0xE0 SHL PUSH1 0x64 DUP3 ADD MSTORE PUSH1 0x84 ADD PUSH2 0x377 JUMP JUMPDEST PUSH0 DUP2 GT PUSH2 0x90B JUMPI PUSH1 0x40 MLOAD PUSH3 0x461BCD PUSH1 0xE5 SHL DUP2 MSTORE PUSH1 0x20 PUSH1 0x4 DUP3 ADD MSTORE PUSH1 0x21 PUSH1 0x24 DUP3 ADD MSTORE PUSH32 0x4465706F736974206D7573742062652067726561746572207468616E207A6572 PUSH1 0x44 DUP3 ADD MSTORE PUSH1 0x6F PUSH1 0xF8 SHL PUSH1 0x64 DUP3 ADD MSTORE PUSH1 0x84 ADD PUSH2 0x377 JUMP JUMPDEST DUP2 DUP2 LT PUSH2 0x966 JUMPI PUSH1 0x40 MLOAD PUSH3 0x461BCD PUSH1 0xE5 SHL DUP2 MSTORE PUSH1 0x20 PUSH1 0x4 DUP3 ADD MSTORE PUSH1 0x24 DUP1 DUP3 ADD MSTORE PUSH32 0x4465706F736974206D757374206265206C657373207468616E2073616C652070 PUSH1 0x44 DUP3 ADD MSTORE PUSH4 0x72696365 PUSH1 0xE0 SHL PUSH1 0x64 DUP3 ADD MSTORE PUSH1 0x84 ADD PUSH2 0x377 JUMP JUMPDEST PUSH1 0x2 PUSH2 0x972 DUP6 DUP3 PUSH2 0x1123 JUMP JUMPDEST POP PUSH1 0x3 PUSH2 0x97F DUP5 DUP3 PUSH2 0x1123 JUMP JUMPDEST POP PUSH1 0x4 DUP3 SWAP1 SSTORE PUSH1 0x5 DUP2 SWAP1 SSTORE PUSH1 0x6 DUP1 SLOAD PUSH6 0xFF00000000FF NOT AND PUSH6 0x10000000001 OR SWAP1 SSTORE PUSH1 0x40 MLOAD PUSH32 0x19D23AD9DA59F590AA0282F2A1A34CE021FB72DBD77096651099E2201FDAE01C SWAP1 PUSH2 0x9D7 SWAP1 DUP7 SWAP1 DUP7 SWAP1 DUP7 SWAP1 DUP7 SWAP1 PUSH2 0x11DE JUMP JUMPDEST PUSH1 0x40 MLOAD DUP1 SWAP2 SUB SWAP1 LOG1 POP POP POP POP JUMP JUMPDEST PUSH1 0x6 SLOAD PUSH0 SWAP1 PUSH4 0x1000000 SWAP1 DIV PUSH1 0xFF AND ISZERO PUSH2 0xA09 JUMPI POP PUSH1 0x1 SLOAD PUSH1 0x1 PUSH1 0x1 PUSH1 0xA0 SHL SUB AND SWAP1 JUMP JUMPDEST POP PUSH0 SLOAD PUSH1 0x1 PUSH1 0x1 PUSH1 0xA0 SHL SUB AND SWAP1 JUMP JUMPDEST PUSH1 0x6 SLOAD PUSH4 0x1000000 SWAP1 DIV PUSH1 0xFF AND ISZERO PUSH2 0xA42 JUMPI PUSH1 0x40 MLOAD PUSH3 0x461BCD PUSH1 0xE5 SHL DUP2 MSTORE PUSH1 0x4 ADD PUSH2 0x377 SWAP1 PUSH2 0xFF3 JUMP JUMPDEST PUSH1 0x6 SLOAD PUSH1 0x1 PUSH1 0x20 SHL SWAP1 DIV PUSH1 0xFF AND ISZERO PUSH2 0xA6C JUMPI PUSH1 0x40 MLOAD PUSH3 0x461BCD PUSH1 0xE5 SHL DUP2 MSTORE PUSH1 0x4 ADD PUSH2 0x377 SWAP1 PUSH2 0x1023 JUMP JUMPDEST PUSH1 0x6 SLOAD PUSH1 0xFF AND PUSH2 0xAB4 JUMPI PUSH1 0x40 MLOAD PUSH3 0x461BCD PUSH1 0xE5 SHL DUP2 MSTORE PUSH1 0x20 PUSH1 0x4 DUP3 ADD MSTORE PUSH1 0x13 PUSH1 0x24 DUP3 ADD MSTORE PUSH19 0x141C9BDC195C9D1E481B9BDD081B1A5CDD1959 PUSH1 0x6A SHL PUSH1 0x44 DUP3 ADD MSTORE PUSH1 0x64 ADD PUSH2 0x377 JUMP JUMPDEST PUSH1 0x6 SLOAD PUSH2 0x100 SWAP1 DIV PUSH1 0xFF AND ISZERO PUSH2 0xB0C JUMPI PUSH1 0x40 MLOAD PUSH3 0x461BCD PUSH1 0xE5 SHL DUP2 MSTORE PUSH1 0x20 PUSH1 0x4 DUP3 ADD MSTORE PUSH1 0x19 PUSH1 0x24 DUP3 ADD MSTORE PUSH32 0x50726F706572747920616C726561647920726573657276656400000000000000 PUSH1 0x44 DUP3 ADD MSTORE PUSH1 0x64 ADD PUSH2 0x377 JUMP JUMPDEST PUSH1 0x5 SLOAD CALLVALUE EQ PUSH2 0xB5D JUMPI PUSH1 0x40 MLOAD PUSH3 0x461BCD PUSH1 0xE5 SHL DUP2 MSTORE PUSH1 0x20 PUSH1 0x4 DUP3 ADD MSTORE PUSH1 0x18 PUSH1 0x24 DUP3 ADD MSTORE PUSH32 0x496E636F7272656374206465706F73697420616D6F756E740000000000000000 PUSH1 0x44 DUP3 ADD MSTORE PUSH1 0x64 ADD PUSH2 0x377 JUMP JUMPDEST PUSH1 0x1 DUP1 SLOAD PUSH1 0x1 PUSH1 0x1 PUSH1 0xA0 SHL SUB NOT AND CALLER SWAP1 DUP2 OR SWAP1 SWAP2 SSTORE PUSH1 0x6 DUP1 SLOAD PUSH6 0xFF000000FF00 NOT AND PUSH6 0x20000000100 OR SWAP1 SSTORE PUSH1 0x40 DUP1 MLOAD CALLVALUE DUP2 MSTORE SWAP1 MLOAD PUSH32 0x214226D2009848F7DB18F69A9C9833167E0509539F9135A6D23569869554300D SWAP2 DUP2 SWAP1 SUB PUSH1 0x20 ADD SWAP1 LOG2 JUMP JUMPDEST PUSH0 SLOAD PUSH1 0x1 PUSH1 0x1 PUSH1 0xA0 SHL SUB AND CALLER EQ PUSH2 0xBE7 JUMPI PUSH1 0x40 MLOAD PUSH3 0x461BCD PUSH1 0xE5 SHL DUP2 MSTORE PUSH1 0x4 ADD PUSH2 0x377 SWAP1 PUSH2 0xFBC JUMP JUMPDEST PUSH1 0x6 SLOAD PUSH4 0x1000000 SWAP1 DIV PUSH1 0xFF AND ISZERO PUSH2 0xC11 JUMPI PUSH1 0x40 MLOAD PUSH3 0x461BCD PUSH1 0xE5 SHL DUP2 MSTORE PUSH1 0x4 ADD PUSH2 0x377 SWAP1 PUSH2 0xFF3 JUMP JUMPDEST PUSH1 0x6 SLOAD PUSH1 0x1 PUSH1 0x20 SHL SWAP1 DIV PUSH1 0xFF AND ISZERO PUSH2 0xC3B JUMPI PUSH1 0x40 MLOAD PUSH3 0x461BCD PUSH1 0xE5 SHL DUP2 MSTORE PUSH1 0x4 ADD PUSH2 0x377 SWAP1 PUSH2 0x1023 JUMP JUMPDEST PUSH1 0x6 DUP1 SLOAD PUSH6 0xFFFF00000000 NOT AND PUSH6 0x50100000000 OR SWAP1 SSTORE SELFBALANCE DUP1 ISZERO DUP1 ISZERO SWAP1 PUSH2 0xC6C JUMPI POP PUSH1 0x1 SLOAD PUSH1 0x1 PUSH1 0x1 PUSH1 0xA0 SHL SUB AND ISZERO ISZERO JUMPDEST ISZERO PUSH2 0xCAA JUMPI PUSH1 0x1 SLOAD PUSH1 0x40 MLOAD PUSH1 0x1 PUSH1 0x1 PUSH1 0xA0 SHL SUB SWAP1 SWAP2 AND SWAP1 DUP3 ISZERO PUSH2 0x8FC MUL SWAP1 DUP4 SWAP1 PUSH0 DUP2 DUP2 DUP2 DUP6 DUP9 DUP9 CALL SWAP4 POP POP POP POP ISZERO DUP1 ISZERO PUSH2 0xCA8 JUMPI RETURNDATASIZE PUSH0 PUSH0 RETURNDATACOPY RETURNDATASIZE PUSH0 REVERT JUMPDEST POP JUMPDEST PUSH1 0x1 SLOAD PUSH0 SLOAD PUSH1 0x40 MLOAD DUP4 DUP2 MSTORE PUSH1 0x1 PUSH1 0x1 PUSH1 0xA0 SHL SUB SWAP3 DUP4 AND SWAP3 SWAP1 SWAP2 AND SWAP1 PUSH32 0x8DCBCC19445D8231A7895431F4E4912F7D57775B251DCFFA5E98E092F009ABFD SWAP1 PUSH1 0x20 ADD PUSH2 0x52F JUMP JUMPDEST PUSH0 SLOAD PUSH1 0x1 PUSH1 0x1 PUSH1 0xA0 SHL SUB AND CALLER EQ PUSH2 0xD18 JUMPI PUSH1 0x40 MLOAD PUSH3 0x461BCD PUSH1 0xE5 SHL DUP2 MSTORE PUSH1 0x4 ADD PUSH2 0x377 SWAP1 PUSH2 0xFBC JUMP JUMPDEST PUSH1 0x6 SLOAD PUSH4 0x1000000 SWAP1 DIV PUSH1 0xFF AND ISZERO PUSH2 0xD42 JUMPI PUSH1 0x40 MLOAD PUSH3 0x461BCD PUSH1 0xE5 SHL DUP2 MSTORE PUSH1 0x4 ADD PUSH2 0x377 SWAP1 PUSH2 0xFF3 JUMP JUMPDEST PUSH1 0x6 SLOAD PUSH1 0x1 PUSH1 0x20 SHL SWAP1 DIV PUSH1 0xFF AND ISZERO PUSH2 0xD6C JUMPI PUSH1 0x40 MLOAD PUSH3 0x461BCD PUSH1 0xE5 SHL DUP2 MSTORE PUSH1 0x4 ADD PUSH2 0x377 SWAP1 PUSH2 0x1023 JUMP JUMPDEST PUSH1 0x6 SLOAD PUSH2 0x100 SWAP1 DIV PUSH1 0xFF AND PUSH2 0xD93 JUMPI PUSH1 0x40 MLOAD PUSH3 0x461BCD PUSH1 0xE5 SHL DUP2 MSTORE PUSH1 0x4 ADD PUSH2 0x377 SWAP1 PUSH2 0x104B JUMP JUMPDEST PUSH1 0x6 SLOAD PUSH3 0x10000 SWAP1 DIV PUSH1 0xFF AND ISZERO PUSH2 0xDEC JUMPI PUSH1 0x40 MLOAD PUSH3 0x461BCD PUSH1 0xE5 SHL DUP2 MSTORE PUSH1 0x20 PUSH1 0x4 DUP3 ADD MSTORE PUSH1 0x1B PUSH1 0x24 DUP3 ADD MSTORE PUSH32 0x496E7370656374696F6E20616C726561647920617070726F7665640000000000 PUSH1 0x44 DUP3 ADD MSTORE PUSH1 0x64 ADD PUSH2 0x377 JUMP JUMPDEST PUSH1 0x6 DUP1 SLOAD PUSH6 0xFF0000FF0000 NOT AND PUSH6 0x30000010000 OR SWAP1 SSTORE PUSH1 0x40 MLOAD CALLER SWAP1 PUSH32 0xD7E33D3CEF6B64FA87B1C62DA6417F1E22349E0E4636F9265AD88A646A671F05 SWAP1 PUSH0 SWAP1 LOG2 JUMP JUMPDEST PUSH1 0x2 DUP1 SLOAD PUSH2 0x547 SWAP1 PUSH2 0x107A JUMP JUMPDEST PUSH0 DUP2 MLOAD DUP1 DUP5 MSTORE DUP1 PUSH1 0x20 DUP5 ADD PUSH1 0x20 DUP7 ADD MCOPY PUSH0 PUSH1 0x20 DUP3 DUP7 ADD ADD MSTORE PUSH1 0x20 PUSH1 0x1F NOT PUSH1 0x1F DUP4 ADD AND DUP6 ADD ADD SWAP2 POP POP SWAP3 SWAP2 POP POP JUMP JUMPDEST PUSH1 0x20 DUP2 MSTORE PUSH0 PUSH2 0xE7C PUSH1 0x20 DUP4 ADD DUP5 PUSH2 0xE3C JUMP JUMPDEST SWAP4 SWAP3 POP POP POP JUMP JUMPDEST PUSH4 0x4E487B71 PUSH1 0xE0 SHL PUSH0 MSTORE PUSH1 0x41 PUSH1 0x4 MSTORE PUSH1 0x24 PUSH0 REVERT JUMPDEST PUSH0 DUP3 PUSH1 0x1F DUP4 ADD SLT PUSH2 0xEA6 JUMPI PUSH0 PUSH0 REVERT JUMPDEST DUP2 CALLDATALOAD PUSH8 0xFFFFFFFFFFFFFFFF DUP2 GT ISZERO PUSH2 0xEC0 JUMPI PUSH2 0xEC0 PUSH2 0xE83 JUMP JUMPDEST PUSH1 0x40 MLOAD PUSH1 0x1F DUP3 ADD PUSH1 0x1F NOT SWAP1 DUP2 AND PUSH1 0x3F ADD AND DUP2 ADD PUSH8 0xFFFFFFFFFFFFFFFF DUP2 GT DUP3 DUP3 LT OR ISZERO PUSH2 0xEEF JUMPI PUSH2 0xEEF PUSH2 0xE83 JUMP JUMPDEST PUSH1 0x40 MSTORE DUP2 DUP2 MSTORE DUP4 DUP3 ADD PUSH1 0x20 ADD DUP6 LT ISZERO PUSH2 0xF06 JUMPI PUSH0 PUSH0 REVERT JUMPDEST DUP2 PUSH1 0x20 DUP6 ADD PUSH1 0x20 DUP4 ADD CALLDATACOPY PUSH0 SWAP2 DUP2 ADD PUSH1 0x20 ADD SWAP2 SWAP1 SWAP2 MSTORE SWAP4 SWAP3 POP POP POP JUMP JUMPDEST PUSH0 PUSH0 PUSH0 PUSH0 PUSH1 0x80 DUP6 DUP8 SUB SLT ISZERO PUSH2 0xF35 JUMPI PUSH0 PUSH0 REVERT JUMPDEST DUP5 CALLDATALOAD PUSH8 0xFFFFFFFFFFFFFFFF DUP2 GT ISZERO PUSH2 0xF4B JUMPI PUSH0 PUSH0 REVERT JUMPDEST PUSH2 0xF57 DUP8 DUP3 DUP9 ADD PUSH2 0xE97 JUMP JUMPDEST SWAP5 POP POP PUSH1 0x20 DUP6 ADD CALLDATALOAD PUSH8 0xFFFFFFFFFFFFFFFF DUP2 GT ISZERO PUSH2 0xF73 JUMPI PUSH0 PUSH0 REVERT JUMPDEST PUSH2 0xF7F DUP8 DUP3 DUP9 ADD PUSH2 0xE97 JUMP JUMPDEST SWAP5 SWAP8 SWAP5 SWAP7 POP POP POP POP PUSH1 0x40 DUP4 ADD CALLDATALOAD SWAP3 PUSH1 0x60 ADD CALLDATALOAD SWAP2 SWAP1 POP JUMP JUMPDEST PUSH1 0x20 DUP2 ADD PUSH1 0x6 DUP4 LT PUSH2 0xFB6 JUMPI PUSH4 0x4E487B71 PUSH1 0xE0 SHL PUSH0 MSTORE PUSH1 0x21 PUSH1 0x4 MSTORE PUSH1 0x24 PUSH0 REVERT JUMPDEST SWAP2 SWAP1 MSTORE SWAP1 JUMP JUMPDEST PUSH1 0x20 DUP1 DUP3 MSTORE PUSH1 0x19 SWAP1 DUP3 ADD MSTORE PUSH32 0x4F6E6C792073656C6C65722063616E2063616C6C207468697300000000000000 PUSH1 0x40 DUP3 ADD MSTORE PUSH1 0x60 ADD SWAP1 JUMP JUMPDEST PUSH1 0x20 DUP1 DUP3 MSTORE PUSH1 0x16 SWAP1 DUP3 ADD MSTORE PUSH22 0x14D85B1948185B1C9958591E4818DBDB5C1B195D1959 PUSH1 0x52 SHL PUSH1 0x40 DUP3 ADD MSTORE PUSH1 0x60 ADD SWAP1 JUMP JUMPDEST PUSH1 0x20 DUP1 DUP3 MSTORE PUSH1 0xE SWAP1 DUP3 ADD MSTORE PUSH14 0x14D85B194818D85B98D95B1B1959 PUSH1 0x92 SHL PUSH1 0x40 DUP3 ADD MSTORE PUSH1 0x60 ADD SWAP1 JUMP JUMPDEST PUSH1 0x20 DUP1 DUP3 MSTORE PUSH1 0x15 SWAP1 DUP3 ADD MSTORE PUSH21 0x141C9BDC195C9D1E481B9BDD081C995CD95C9D9959 PUSH1 0x5A SHL PUSH1 0x40 DUP3 ADD MSTORE PUSH1 0x60 ADD SWAP1 JUMP JUMPDEST PUSH1 0x1 DUP2 DUP2 SHR SWAP1 DUP3 AND DUP1 PUSH2 0x108E JUMPI PUSH1 0x7F DUP3 AND SWAP2 POP JUMPDEST PUSH1 0x20 DUP3 LT DUP2 SUB PUSH2 0x10AC JUMPI PUSH4 0x4E487B71 PUSH1 0xE0 SHL PUSH0 MSTORE PUSH1 0x22 PUSH1 0x4 MSTORE PUSH1 0x24 PUSH0 REVERT JUMPDEST POP SWAP2 SWAP1 POP JUMP JUMPDEST DUP2 DUP2 SUB DUP2 DUP2 GT ISZERO PUSH2 0x10D1 JUMPI PUSH4 0x4E487B71 PUSH1 0xE0 SHL PUSH0 MSTORE PUSH1 0x11 PUSH1 0x4 MSTORE PUSH1 0x24 PUSH0 REVERT JUMPDEST SWAP3 SWAP2 POP POP JUMP JUMPDEST PUSH1 0x1F DUP3 GT ISZERO PUSH2 0x111E JUMPI DUP1 PUSH0 MSTORE PUSH1 0x20 PUSH0 KECCAK256 PUSH1 0x1F DUP5 ADD PUSH1 0x5 SHR DUP2 ADD PUSH1 0x20 DUP6 LT ISZERO PUSH2 0x10FC JUMPI POP DUP1 JUMPDEST PUSH1 0x1F DUP5 ADD PUSH1 0x5 SHR DUP3 ADD SWAP2 POP JUMPDEST DUP2 DUP2 LT ISZERO PUSH2 0x111B JUMPI PUSH0 DUP2 SSTORE PUSH1 0x1 ADD PUSH2 0x1108 JUMP JUMPDEST POP POP JUMPDEST POP POP POP JUMP JUMPDEST DUP2 MLOAD PUSH8 0xFFFFFFFFFFFFFFFF DUP2 GT ISZERO PUSH2 0x113D JUMPI PUSH2 0x113D PUSH2 0xE83 JUMP JUMPDEST PUSH2 0x1151 DUP2 PUSH2 0x114B DUP5 SLOAD PUSH2 0x107A JUMP JUMPDEST DUP5 PUSH2 0x10D7 JUMP JUMPDEST PUSH1 0x20 PUSH1 0x1F DUP3 GT PUSH1 0x1 DUP2 EQ PUSH2 0x1183 JUMPI PUSH0 DUP4 ISZERO PUSH2 0x116C JUMPI POP DUP5 DUP3 ADD MLOAD JUMPDEST PUSH0 NOT PUSH1 0x3 DUP6 SWAP1 SHL SHR NOT AND PUSH1 0x1 DUP5 SWAP1 SHL OR DUP5 SSTORE PUSH2 0x111B JUMP JUMPDEST PUSH0 DUP5 DUP2 MSTORE PUSH1 0x20 DUP2 KECCAK256 PUSH1 0x1F NOT DUP6 AND SWAP2 JUMPDEST DUP3 DUP2 LT ISZERO PUSH2 0x11B2 JUMPI DUP8 DUP6 ADD MLOAD DUP3 SSTORE PUSH1 0x20 SWAP5 DUP6 ADD SWAP5 PUSH1 0x1 SWAP1 SWAP3 ADD SWAP2 ADD PUSH2 0x1192 JUMP JUMPDEST POP DUP5 DUP3 LT ISZERO PUSH2 0x11CF JUMPI DUP7 DUP5 ADD MLOAD PUSH0 NOT PUSH1 0x3 DUP8 SWAP1 SHL PUSH1 0xF8 AND SHR NOT AND DUP2 SSTORE JUMPDEST POP POP POP POP PUSH1 0x1 SWAP1 DUP2 SHL ADD SWAP1 SSTORE POP JUMP JUMPDEST PUSH1 0x80 DUP2 MSTORE PUSH0 PUSH2 0x11F0 PUSH1 0x80 DUP4 ADD DUP8 PUSH2 0xE3C JUMP JUMPDEST DUP3 DUP2 SUB PUSH1 0x20 DUP5 ADD MSTORE PUSH2 0x1202 DUP2 DUP8 PUSH2 0xE3C JUMP JUMPDEST PUSH1 0x40 DUP5 ADD SWAP6 SWAP1 SWAP6 MSTORE POP POP PUSH1 0x60 ADD MSTORE SWAP3 SWAP2 POP POP JUMP INVALID LOG2 PUSH5 0x6970667358 0x22 SLT KECCAK256 DUP11 LOG4 0xFC PUSH32 0x469129D34CAB3D67CACB931F7BC0AE2E93E6E5F9E47FC935FF88765864736F6C PUSH4 0x4300081F STOP CALLER "
				},
				"gasEstimates": {
					"creation": {
						"codeDepositCost": "936800",
						"executionCost": "49437",
						"totalCost": "986237"
					},
					"external": {
						"approveInspection()": "36248",
						"buyer()": "2392",
						"cancelSale()": "infinite",
						"cancelled()": "2349",
						"currentOwner()": "4522",
						"depositAmount()": "2362",
						"finalizeSale()": "infinite",
						"getContractBalance()": "238",
						"inspectionApproved()": "2366",
						"isListed()": "2398",
						"isReserved()": "2430",
						"listProperty(string,string,uint256,uint256)": "infinite",
						"payRemainingBalance()": "16578",
						"propertyAddress()": "infinite",
						"propertyId()": "infinite",
						"reserveProperty()": "60794",
						"saleCompleted()": "2431",
						"salePrice()": "2382",
						"seller()": "2348",
						"state()": "2428"
					}
				},
				"methodIdentifiers": {
					"approveInspection()": "ec6b720b",
					"buyer()": "7150d8ae",
					"cancelSale()": "e7e10490",
					"cancelled()": "9a82a09a",
					"currentOwner()": "b387ef92",
					"depositAmount()": "419759f5",
					"finalizeSale()": "58a687ec",
					"getContractBalance()": "6f9fb98a",
					"inspectionApproved()": "32e0b69c",
					"isListed()": "d910b05a",
					"isReserved()": "fb5bc457",
					"listProperty(string,string,uint256,uint256)": "7437ef75",
					"payRemainingBalance()": "66f0c134",
					"propertyAddress()": "66440d71",
					"propertyId()": "ee7a3b8e",
					"reserveProperty()": "ded26e34",
					"saleCompleted()": "78261878",
					"salePrice()": "f51f96dd",
					"seller()": "08551a53",
					"state()": "c19d93fb"
				}
			},
			"storageLayout": {
				"storage": [
					{
						"astId": 4,
						"contract": ".git/MyContracts/RealEstateSale.sol:RealEstateSale",
						"label": "seller",
						"offset": 0,
						"slot": "0",
						"type": "t_address"
					},
					{
						"astId": 6,
						"contract": ".git/MyContracts/RealEstateSale.sol:RealEstateSale",
						"label": "buyer",
						"offset": 0,
						"slot": "1",
						"type": "t_address"
					},
					{
						"astId": 8,
						"contract": ".git/MyContracts/RealEstateSale.sol:RealEstateSale",
						"label": "propertyId",
						"offset": 0,
						"slot": "2",
						"type": "t_string_storage"
					},
					{
						"astId": 10,
						"contract": ".git/MyContracts/RealEstateSale.sol:RealEstateSale",
						"label": "propertyAddress",
						"offset": 0,
						"slot": "3",
						"type": "t_string_storage"
					},
					{
						"astId": 12,
						"contract": ".git/MyContracts/RealEstateSale.sol:RealEstateSale",
						"label": "salePrice",
						"offset": 0,
						"slot": "4",
						"type": "t_uint256"
					},
					{
						"astId": 14,
						"contract": ".git/MyContracts/RealEstateSale.sol:RealEstateSale",
						"label": "depositAmount",
						"offset": 0,
						"slot": "5",
						"type": "t_uint256"
					},
					{
						"astId": 16,
						"contract": ".git/MyContracts/RealEstateSale.sol:RealEstateSale",
						"label": "isListed",
						"offset": 0,
						"slot": "6",
						"type": "t_bool"
					},
					{
						"astId": 18,
						"contract": ".git/MyContracts/RealEstateSale.sol:RealEstateSale",
						"label": "isReserved",
						"offset": 1,
						"slot": "6",
						"type": "t_bool"
					},
					{
						"astId": 20,
						"contract": ".git/MyContracts/RealEstateSale.sol:RealEstateSale",
						"label": "inspectionApproved",
						"offset": 2,
						"slot": "6",
						"type": "t_bool"
					},
					{
						"astId": 22,
						"contract": ".git/MyContracts/RealEstateSale.sol:RealEstateSale",
						"label": "saleCompleted",
						"offset": 3,
						"slot": "6",
						"type": "t_bool"
					},
					{
						"astId": 24,
						"contract": ".git/MyContracts/RealEstateSale.sol:RealEstateSale",
						"label": "cancelled",
						"offset": 4,
						"slot": "6",
						"type": "t_bool"
					},
					{
						"astId": 34,
						"contract": ".git/MyContracts/RealEstateSale.sol:RealEstateSale",
						"label": "state",
						"offset": 5,
						"slot": "6",
						"type": "t_enum(SaleState)31"
					}
				],
				"types": {
					"t_address": {
						"encoding": "inplace",
						"label": "address",
						"numberOfBytes": "20"
					},
					"t_bool": {
						"encoding": "inplace",
						"label": "bool",
						"numberOfBytes": "1"
					},
					"t_enum(SaleState)31": {
						"encoding": "inplace",
						"label": "enum RealEstateSale.SaleState",
						"numberOfBytes": "1"
					},
					"t_string_storage": {
						"encoding": "bytes",
						"label": "string",
						"numberOfBytes": "32"
					},
					"t_uint256": {
						"encoding": "inplace",
						"label": "uint256",
						"numberOfBytes": "32"
					}
				}
			},
			"userdoc": {
				"kind": "user",
				"methods": {
					"approveInspection()": {
						"notice": "Seller approves inspection / confirms deal can proceed"
					},
					"cancelSale()": {
						"notice": "Seller can cancel before completion"
					},
					"currentOwner()": {
						"notice": "Simple ownership view for demo purposes"
					},
					"finalizeSale()": {
						"notice": "Seller finalizes the sale and receives all funds"
					},
					"getContractBalance()": {
						"notice": "View contract balance"
					},
					"listProperty(string,string,uint256,uint256)": {
						"notice": "Seller lists the property for sale"
					},
					"payRemainingBalance()": {
						"notice": "Buyer pays the remaining balance after approval"
					},
					"reserveProperty()": {
						"notice": "Buyer reserves the property by paying the deposit"
					}
				},
				"notice": "Simple demo contract for selling a house in Remix",
				"version": 1
			}
		}
	}
}