{
	".git/MyContracts/KenyaProcurementTransparency.sol": {
		"KenyaProcurementTransparency": {
			"abi": [
				{
					"inputs": [],
					"stateMutability": "payable",
					"type": "constructor"
				},
				{
					"inputs": [],
					"name": "InspectorNotAssigned",
					"type": "error"
				},
				{
					"inputs": [],
					"name": "InvalidTenderStage",
					"type": "error"
				},
				{
					"inputs": [],
					"name": "NotRegisteredBidder",
					"type": "error"
				},
				{
					"inputs": [],
					"name": "OnlyAdmin",
					"type": "error"
				},
				{
					"inputs": [],
					"name": "OnlyInspector",
					"type": "error"
				},
				{
					"inputs": [],
					"name": "SubmissionDeadlineNotReached",
					"type": "error"
				},
				{
					"inputs": [],
					"name": "SubmissionDeadlinePassed",
					"type": "error"
				},
				{
					"inputs": [],
					"name": "TenderDoesNotExist",
					"type": "error"
				},
				{
					"anonymous": false,
					"inputs": [
						{
							"indexed": true,
							"internalType": "address",
							"name": "currentAdmin",
							"type": "address"
						},
						{
							"indexed": true,
							"internalType": "address",
							"name": "newAdmin",
							"type": "address"
						}
					],
					"name": "AdminTransferInitiated",
					"type": "event"
				},
				{
					"anonymous": false,
					"inputs": [
						{
							"indexed": true,
							"internalType": "address",
							"name": "oldAdmin",
							"type": "address"
						},
						{
							"indexed": true,
							"internalType": "address",
							"name": "newAdmin",
							"type": "address"
						}
					],
					"name": "AdminTransferred",
					"type": "event"
				},
				{
					"anonymous": false,
					"inputs": [
						{
							"indexed": false,
							"internalType": "address",
							"name": "bidder",
							"type": "address"
						},
						{
							"indexed": false,
							"internalType": "uint256",
							"name": "amount",
							"type": "uint256"
						}
					],
					"name": "BidRevealed",
					"type": "event"
				},
				{
					"anonymous": false,
					"inputs": [
						{
							"indexed": false,
							"internalType": "address",
							"name": "bidder",
							"type": "address"
						}
					],
					"name": "BidSubmitted",
					"type": "event"
				},
				{
					"anonymous": false,
					"inputs": [
						{
							"indexed": false,
							"internalType": "address",
							"name": "bidder",
							"type": "address"
						}
					],
					"name": "BidderRegistered",
					"type": "event"
				},
				{
					"anonymous": false,
					"inputs": [
						{
							"indexed": false,
							"internalType": "address",
							"name": "inspector",
							"type": "address"
						},
						{
							"indexed": false,
							"internalType": "bytes32",
							"name": "inspectionReportHash",
							"type": "bytes32"
						}
					],
					"name": "DeliveryAccepted",
					"type": "event"
				},
				{
					"anonymous": false,
					"inputs": [
						{
							"indexed": false,
							"internalType": "address",
							"name": "inspector",
							"type": "address"
						},
						{
							"indexed": false,
							"internalType": "string",
							"name": "reason",
							"type": "string"
						}
					],
					"name": "DeliveryRejected",
					"type": "event"
				},
				{
					"anonymous": false,
					"inputs": [
						{
							"indexed": false,
							"internalType": "address",
							"name": "winner",
							"type": "address"
						},
						{
							"indexed": false,
							"internalType": "bytes32",
							"name": "deliveryEvidenceHash",
							"type": "bytes32"
						}
					],
					"name": "DeliverySubmitted",
					"type": "event"
				},
				{
					"anonymous": false,
					"inputs": [
						{
							"indexed": false,
							"internalType": "address",
							"name": "inspector",
							"type": "address"
						}
					],
					"name": "InspectorAssigned",
					"type": "event"
				},
				{
					"anonymous": false,
					"inputs": [
						{
							"indexed": false,
							"internalType": "address",
							"name": "winner",
							"type": "address"
						},
						{
							"indexed": false,
							"internalType": "uint256",
							"name": "amount",
							"type": "uint256"
						}
					],
					"name": "PaymentReleased",
					"type": "event"
				},
				{
					"anonymous": false,
					"inputs": [],
					"name": "RevealPhaseOpened",
					"type": "event"
				},
				{
					"anonymous": false,
					"inputs": [
						{
							"indexed": false,
							"internalType": "address",
							"name": "winner",
							"type": "address"
						},
						{
							"indexed": false,
							"internalType": "uint256",
							"name": "amount",
							"type": "uint256"
						}
					],
					"name": "TenderAwarded",
					"type": "event"
				},
				{
					"anonymous": false,
					"inputs": [
						{
							"indexed": false,
							"internalType": "string",
							"name": "tenderNumber",
							"type": "string"
						},
						{
							"indexed": false,
							"internalType": "string",
							"name": "title",
							"type": "string"
						},
						{
							"indexed": false,
							"internalType": "uint256",
							"name": "submissionDeadline",
							"type": "uint256"
						},
						{
							"indexed": false,
							"internalType": "uint256",
							"name": "contractAmount",
							"type": "uint256"
						}
					],
					"name": "TenderCreated",
					"type": "event"
				},
				{
					"anonymous": false,
					"inputs": [
						{
							"indexed": false,
							"internalType": "address",
							"name": "winner",
							"type": "address"
						},
						{
							"indexed": false,
							"internalType": "uint256",
							"name": "lowestBid",
							"type": "uint256"
						}
					],
					"name": "TenderEvaluated",
					"type": "event"
				},
				{
					"inputs": [],
					"name": "acceptAdminRole",
					"outputs": [],
					"stateMutability": "nonpayable",
					"type": "function"
				},
				{
					"inputs": [
						{
							"internalType": "bytes32",
							"name": "_inspectionReportHash",
							"type": "bytes32"
						}
					],
					"name": "acceptDelivery",
					"outputs": [],
					"stateMutability": "nonpayable",
					"type": "function"
				},
				{
					"inputs": [],
					"name": "admin",
					"outputs": [
						{
							"internalType": "address",
							"name": "",
							"type": "address"
						}
					],
					"stateMutability": "view",
					"type": "function"
				},
				{
					"inputs": [],
					"name": "awardTender",
					"outputs": [],
					"stateMutability": "nonpayable",
					"type": "function"
				},
				{
					"inputs": [
						{
							"internalType": "uint256",
							"name": "",
							"type": "uint256"
						}
					],
					"name": "bidderList",
					"outputs": [
						{
							"internalType": "address",
							"name": "",
							"type": "address"
						}
					],
					"stateMutability": "view",
					"type": "function"
				},
				{
					"inputs": [
						{
							"internalType": "address",
							"name": "",
							"type": "address"
						}
					],
					"name": "bids",
					"outputs": [
						{
							"internalType": "bytes32",
							"name": "sealedBidHash",
							"type": "bytes32"
						},
						{
							"internalType": "bool",
							"name": "submitted",
							"type": "bool"
						},
						{
							"internalType": "bool",
							"name": "revealed",
							"type": "bool"
						},
						{
							"internalType": "uint256",
							"name": "amount",
							"type": "uint256"
						},
						{
							"internalType": "bool",
							"name": "valid",
							"type": "bool"
						}
					],
					"stateMutability": "view",
					"type": "function"
				},
				{
					"inputs": [
						{
							"internalType": "string",
							"name": "_tenderNumber",
							"type": "string"
						},
						{
							"internalType": "string",
							"name": "_title",
							"type": "string"
						},
						{
							"internalType": "string",
							"name": "_description",
							"type": "string"
						},
						{
							"internalType": "uint256",
							"name": "_year",
							"type": "uint256"
						},
						{
							"internalType": "uint256",
							"name": "_month",
							"type": "uint256"
						},
						{
							"internalType": "uint256",
							"name": "_day",
							"type": "uint256"
						},
						{
							"internalType": "uint256",
							"name": "_hour",
							"type": "uint256"
						},
						{
							"internalType": "uint256",
							"name": "_minute",
							"type": "uint256"
						},
						{
							"internalType": "int256",
							"name": "_utcOffsetHours",
							"type": "int256"
						},
						{
							"internalType": "uint256",
							"name": "_contractAmount",
							"type": "uint256"
						},
						{
							"internalType": "string",
							"name": "_qualificationNote",
							"type": "string"
						}
					],
					"name": "createTenderWithLocalTime",
					"outputs": [],
					"stateMutability": "nonpayable",
					"type": "function"
				},
				{
					"inputs": [],
					"name": "deliveryEvidenceHash",
					"outputs": [
						{
							"internalType": "bytes32",
							"name": "",
							"type": "bytes32"
						}
					],
					"stateMutability": "view",
					"type": "function"
				},
				{
					"inputs": [],
					"name": "evaluateTender",
					"outputs": [],
					"stateMutability": "nonpayable",
					"type": "function"
				},
				{
					"inputs": [],
					"name": "fundContract",
					"outputs": [],
					"stateMutability": "payable",
					"type": "function"
				},
				{
					"inputs": [
						{
							"internalType": "address",
							"name": "_bidder",
							"type": "address"
						}
					],
					"name": "getBidDetails",
					"outputs": [
						{
							"internalType": "bool",
							"name": "submitted",
							"type": "bool"
						},
						{
							"internalType": "bool",
							"name": "revealed",
							"type": "bool"
						},
						{
							"internalType": "uint256",
							"name": "amount",
							"type": "uint256"
						},
						{
							"internalType": "bool",
							"name": "valid",
							"type": "bool"
						}
					],
					"stateMutability": "view",
					"type": "function"
				},
				{
					"inputs": [],
					"name": "getBidderCount",
					"outputs": [
						{
							"internalType": "uint256",
							"name": "",
							"type": "uint256"
						}
					],
					"stateMutability": "view",
					"type": "function"
				},
				{
					"inputs": [],
					"name": "getContractBalance",
					"outputs": [
						{
							"internalType": "uint256",
							"name": "",
							"type": "uint256"
						}
					],
					"stateMutability": "view",
					"type": "function"
				},
				{
					"inputs": [
						{
							"internalType": "uint256",
							"name": "_amount",
							"type": "uint256"
						},
						{
							"internalType": "string",
							"name": "_secret",
							"type": "string"
						}
					],
					"name": "getPackedHash",
					"outputs": [
						{
							"internalType": "bytes32",
							"name": "",
							"type": "bytes32"
						}
					],
					"stateMutability": "pure",
					"type": "function"
				},
				{
					"inputs": [],
					"name": "getTenderSummary",
					"outputs": [
						{
							"internalType": "string",
							"name": "tenderNumber",
							"type": "string"
						},
						{
							"internalType": "string",
							"name": "title",
							"type": "string"
						},
						{
							"internalType": "string",
							"name": "description",
							"type": "string"
						},
						{
							"internalType": "uint256",
							"name": "submissionDeadline",
							"type": "uint256"
						},
						{
							"internalType": "uint256",
							"name": "contractAmount",
							"type": "uint256"
						},
						{
							"internalType": "string",
							"name": "qualificationNote",
							"type": "string"
						},
						{
							"internalType": "enum KenyaProcurementTransparency.TenderStatus",
							"name": "currentStatus",
							"type": "uint8"
						},
						{
							"internalType": "address",
							"name": "currentWinner",
							"type": "address"
						},
						{
							"internalType": "uint256",
							"name": "winningBid",
							"type": "uint256"
						}
					],
					"stateMutability": "view",
					"type": "function"
				},
				{
					"inputs": [],
					"name": "inspectionReportHash",
					"outputs": [
						{
							"internalType": "bytes32",
							"name": "",
							"type": "bytes32"
						}
					],
					"stateMutability": "view",
					"type": "function"
				},
				{
					"inputs": [],
					"name": "inspector",
					"outputs": [
						{
							"internalType": "address",
							"name": "",
							"type": "address"
						}
					],
					"stateMutability": "view",
					"type": "function"
				},
				{
					"inputs": [],
					"name": "lowestBid",
					"outputs": [
						{
							"internalType": "uint256",
							"name": "",
							"type": "uint256"
						}
					],
					"stateMutability": "view",
					"type": "function"
				},
				{
					"inputs": [],
					"name": "openRevealPhase",
					"outputs": [],
					"stateMutability": "nonpayable",
					"type": "function"
				},
				{
					"inputs": [],
					"name": "paymentReleased",
					"outputs": [
						{
							"internalType": "bool",
							"name": "",
							"type": "bool"
						}
					],
					"stateMutability": "view",
					"type": "function"
				},
				{
					"inputs": [],
					"name": "pendingAdmin",
					"outputs": [
						{
							"internalType": "address",
							"name": "",
							"type": "address"
						}
					],
					"stateMutability": "view",
					"type": "function"
				},
				{
					"inputs": [
						{
							"internalType": "address",
							"name": "_bidder",
							"type": "address"
						}
					],
					"name": "registerBidder",
					"outputs": [],
					"stateMutability": "nonpayable",
					"type": "function"
				},
				{
					"inputs": [
						{
							"internalType": "address",
							"name": "",
							"type": "address"
						}
					],
					"name": "registeredBidders",
					"outputs": [
						{
							"internalType": "bool",
							"name": "",
							"type": "bool"
						}
					],
					"stateMutability": "view",
					"type": "function"
				},
				{
					"inputs": [
						{
							"internalType": "string",
							"name": "_reason",
							"type": "string"
						}
					],
					"name": "rejectDelivery",
					"outputs": [],
					"stateMutability": "nonpayable",
					"type": "function"
				},
				{
					"inputs": [],
					"name": "rejectionReason",
					"outputs": [
						{
							"internalType": "string",
							"name": "",
							"type": "string"
						}
					],
					"stateMutability": "view",
					"type": "function"
				},
				{
					"inputs": [],
					"name": "releasePayment",
					"outputs": [],
					"stateMutability": "nonpayable",
					"type": "function"
				},
				{
					"inputs": [
						{
							"internalType": "uint256",
							"name": "_amount",
							"type": "uint256"
						},
						{
							"internalType": "string",
							"name": "_secret",
							"type": "string"
						}
					],
					"name": "revealBid",
					"outputs": [],
					"stateMutability": "nonpayable",
					"type": "function"
				},
				{
					"inputs": [
						{
							"internalType": "address",
							"name": "_inspector",
							"type": "address"
						}
					],
					"name": "setInspector",
					"outputs": [],
					"stateMutability": "nonpayable",
					"type": "function"
				},
				{
					"inputs": [],
					"name": "status",
					"outputs": [
						{
							"internalType": "enum KenyaProcurementTransparency.TenderStatus",
							"name": "",
							"type": "uint8"
						}
					],
					"stateMutability": "view",
					"type": "function"
				},
				{
					"inputs": [
						{
							"internalType": "bytes32",
							"name": "_deliveryEvidenceHash",
							"type": "bytes32"
						}
					],
					"name": "submitDeliveryEvidence",
					"outputs": [],
					"stateMutability": "nonpayable",
					"type": "function"
				},
				{
					"inputs": [
						{
							"internalType": "bytes32",
							"name": "_sealedBidHash",
							"type": "bytes32"
						}
					],
					"name": "submitSealedBid",
					"outputs": [],
					"stateMutability": "nonpayable",
					"type": "function"
				},
				{
					"inputs": [],
					"name": "tender",
					"outputs": [
						{
							"internalType": "string",
							"name": "tenderNumber",
							"type": "string"
						},
						{
							"internalType": "string",
							"name": "title",
							"type": "string"
						},
						{
							"internalType": "string",
							"name": "description",
							"type": "string"
						},
						{
							"internalType": "uint256",
							"name": "submissionDeadline",
							"type": "uint256"
						},
						{
							"internalType": "uint256",
							"name": "contractAmount",
							"type": "uint256"
						},
						{
							"internalType": "string",
							"name": "qualificationNote",
							"type": "string"
						},
						{
							"internalType": "bool",
							"name": "exists",
							"type": "bool"
						}
					],
					"stateMutability": "view",
					"type": "function"
				},
				{
					"inputs": [
						{
							"internalType": "address",
							"name": "_newAdmin",
							"type": "address"
						}
					],
					"name": "transferAdmin",
					"outputs": [],
					"stateMutability": "nonpayable",
					"type": "function"
				},
				{
					"inputs": [],
					"name": "winner",
					"outputs": [
						{
							"internalType": "address",
							"name": "",
							"type": "address"
						}
					],
					"stateMutability": "view",
					"type": "function"
				}
			],
			"devdoc": {
				"author": "OpenAI",
				"details": "This contract demonstrates sealed bidding, role-based access control, state-driven workflow enforcement, and auditability for academic use.",
				"kind": "dev",
				"methods": {
					"acceptAdminRole()": {
						"details": "Must be called by the pending admin address."
					},
					"acceptDelivery(bytes32)": {
						"params": {
							"_inspectionReportHash": "Hash of the inspection or acceptance report."
						}
					},
					"createTenderWithLocalTime(string,string,string,uint256,uint256,uint256,uint256,uint256,int256,uint256,string)": {
						"details": "Improves usability by converting human-readable local time into Unix time internally.",
						"params": {
							"_contractAmount": "Payment amount to be released after acceptance.",
							"_day": "Calendar day.",
							"_description": "Tender description.",
							"_hour": "Hour in 24-hour format.",
							"_minute": "Minute.",
							"_month": "Calendar month (1-12).",
							"_qualificationNote": "Eligibility or qualification requirement.",
							"_tenderNumber": "Official tender reference number.",
							"_title": "Tender title.",
							"_utcOffsetHours": "UTC offset in hours (e.g. 3 for EAT).",
							"_year": "Calendar year."
						}
					},
					"evaluateTender()": {
						"details": "Simplified prototype logic: lowest responsive revealed bid wins."
					},
					"getBidDetails(address)": {
						"params": {
							"_bidder": "Address of the bidder."
						},
						"returns": {
							"amount": "The revealed amount.",
							"revealed": "Whether the bid was revealed.",
							"submitted": "Whether a bid was submitted.",
							"valid": "Whether the bid is considered valid."
						}
					},
					"getBidderCount()": {
						"returns": {
							"_0": "Total bidder count."
						}
					},
					"getContractBalance()": {
						"returns": {
							"_0": "The contract balance in wei."
						}
					},
					"getPackedHash(uint256,string)": {
						"details": "This helper is intended to simplify sealed-bid preparation without a separate helper contract.",
						"params": {
							"_amount": "Bid amount.",
							"_secret": "Secret phrase used for bid commitment."
						},
						"returns": {
							"_0": "The keccak256 packed hash of amount and secret."
						}
					},
					"getTenderSummary()": {
						"returns": {
							"contractAmount": "Payment amount for the contract.",
							"currentStatus": "Current lifecycle stage.",
							"currentWinner": "Address of the current winner.",
							"description": "Tender description.",
							"qualificationNote": "Supplier qualification requirement.",
							"submissionDeadline": "Tender submission deadline.",
							"tenderNumber": "Tender reference number.",
							"title": "Tender title.",
							"winningBid": "Lowest revealed valid bid."
						}
					},
					"registerBidder(address)": {
						"params": {
							"_bidder": "Address of the supplier allowed to participate."
						}
					},
					"rejectDelivery(string)": {
						"params": {
							"_reason": "Textual reason for rejection."
						}
					},
					"revealBid(uint256,string)": {
						"params": {
							"_amount": "Bid amount.",
							"_secret": "Secret string originally used to generate the sealed hash."
						}
					},
					"setInspector(address)": {
						"details": "Inspector can be changed only before final inspection/payment stages.",
						"params": {
							"_inspector": "Address of the inspection authority."
						}
					},
					"submitDeliveryEvidence(bytes32)": {
						"params": {
							"_deliveryEvidenceHash": "Hash of the delivery note, invoice, or delivery proof."
						}
					},
					"submitSealedBid(bytes32)": {
						"details": "Bid must be submitted before the deadline and only once.",
						"params": {
							"_sealedBidHash": "keccak256 hash of bid amount and secret."
						}
					},
					"transferAdmin(address)": {
						"params": {
							"_newAdmin": "Address proposed as the next admin."
						}
					}
				},
				"title": "KenyaProcurementTransparency",
				"version": 1
			},
			"evm": {
				"assembly": "    /* \".git/MyContracts/KenyaProcurementTransparency.sol\":430:23444  contract KenyaProcurementTransparency {... */\n  mstore(0x40, 0x80)\n    /* \".git/MyContracts/KenyaProcurementTransparency.sol\":5327:5332  admin */\n  0x00\n    /* \".git/MyContracts/KenyaProcurementTransparency.sol\":5327:5345  admin = msg.sender */\n  dup1\n  sload\n  not(sub(shl(0xa0, 0x01), 0x01))\n  and\n    /* \".git/MyContracts/KenyaProcurementTransparency.sol\":5335:5345  msg.sender */\n  caller\n    /* \".git/MyContracts/KenyaProcurementTransparency.sol\":5327:5345  admin = msg.sender */\n  or\n  swap1\n  sstore\n    /* \".git/MyContracts/KenyaProcurementTransparency.sol\":430:23444  contract KenyaProcurementTransparency {... */\n  dataSize(sub_0)\n  dup1\n  dataOffset(sub_0)\n  0x00\n  codecopy\n  0x00\n  return\nstop\n\nsub_0: assembly {\n        /* \".git/MyContracts/KenyaProcurementTransparency.sol\":430:23444  contract KenyaProcurementTransparency {... */\n      mstore(0x40, 0x80)\n      jumpi(tag_1, lt(calldatasize, 0x04))\n      shr(0xe0, calldataload(0x00))\n      dup1\n      0x75829def\n      gt\n      tag_36\n      jumpi\n      dup1\n      0xc63735b3\n      gt\n      tag_37\n      jumpi\n      dup1\n      0xd3584e84\n      gt\n      tag_38\n      jumpi\n      dup1\n      0xd3584e84\n      eq\n      tag_31\n      jumpi\n      dup1\n      0xdfbf53ae\n      eq\n      tag_32\n      jumpi\n      dup1\n      0xe3c608ef\n      eq\n      tag_33\n      jumpi\n      dup1\n      0xed2cee9e\n      eq\n      tag_34\n      jumpi\n      dup1\n      0xf851a440\n      eq\n      tag_35\n      jumpi\n      revert(0x00, 0x00)\n    tag_38:\n      dup1\n      0xc63735b3\n      eq\n      tag_27\n      jumpi\n      dup1\n      0xc87da02d\n      eq\n      tag_28\n      jumpi\n      dup1\n      0xd0112863\n      eq\n      tag_29\n      jumpi\n      dup1\n      0xd116c8c4\n      eq\n      tag_30\n      jumpi\n      revert(0x00, 0x00)\n    tag_37:\n      dup1\n      0x905249a3\n      gt\n      tag_39\n      jumpi\n      dup1\n      0x905249a3\n      eq\n      tag_23\n      jumpi\n      dup1\n      0xa4a00144\n      eq\n      tag_24\n      jumpi\n      dup1\n      0xb6f3d256\n      eq\n      tag_25\n      jumpi\n      dup1\n      0xbd097e21\n      eq\n      tag_26\n      jumpi\n      revert(0x00, 0x00)\n    tag_39:\n      dup1\n      0x75829def\n      eq\n      tag_19\n      jumpi\n      dup1\n      0x7bd2a5da\n      eq\n      tag_20\n      jumpi\n      dup1\n      0x8c3d7301\n      eq\n      tag_21\n      jumpi\n      dup1\n      0x8d07ae9f\n      eq\n      tag_22\n      jumpi\n      revert(0x00, 0x00)\n    tag_36:\n      dup1\n      0x3c8c4091\n      gt\n      tag_40\n      jumpi\n      dup1\n      0x56f17082\n      gt\n      tag_41\n      jumpi\n      dup1\n      0x56f17082\n      eq\n      tag_14\n      jumpi\n      dup1\n      0x592fd028\n      eq\n      tag_15\n      jumpi\n      dup1\n      0x62ea82db\n      eq\n      tag_16\n      jumpi\n      dup1\n      0x6cb55d1a\n      eq\n      tag_17\n      jumpi\n      dup1\n      0x6f9fb98a\n      eq\n      tag_18\n      jumpi\n      revert(0x00, 0x00)\n    tag_41:\n      dup1\n      0x3c8c4091\n      eq\n      tag_10\n      jumpi\n      dup1\n      0x4c5aed38\n      eq\n      tag_11\n      jumpi\n      dup1\n      0x4e5cbf61\n      eq\n      tag_12\n      jumpi\n      dup1\n      0x53321ae6\n      eq\n      tag_13\n      jumpi\n      revert(0x00, 0x00)\n    tag_40:\n      dup1\n      0x26782247\n      gt\n      tag_42\n      jumpi\n      dup1\n      0x26782247\n      eq\n      tag_6\n      jumpi\n      dup1\n      0x26bd8926\n      eq\n      tag_7\n      jumpi\n      dup1\n      0x2e9e8e59\n      eq\n      tag_8\n      jumpi\n      dup1\n      0x356e7ccb\n      eq\n      tag_9\n      jumpi\n      revert(0x00, 0x00)\n    tag_42:\n      dup1\n      0x0bd58917\n      eq\n      tag_2\n      jumpi\n      dup1\n      0x0bf36767\n      eq\n      tag_3\n      jumpi\n      dup1\n      0x200d2ed2\n      eq\n      tag_4\n      jumpi\n      dup1\n      0x2163b8c5\n      eq\n      tag_5\n      jumpi\n    tag_1:\n      revert(0x00, 0x00)\n        /* \".git/MyContracts/KenyaProcurementTransparency.sol\":15099:15528  function acceptDelivery(bytes32 _inspectionReportHash)... */\n    tag_2:\n      callvalue\n      dup1\n      iszero\n      tag_43\n      jumpi\n      revert(0x00, 0x00)\n    tag_43:\n      pop\n      tag_44\n      tag_45\n      calldatasize\n      0x04\n      tag_46\n      jump\t// in\n    tag_45:\n      tag_47\n      jump\t// in\n    tag_44:\n      stop\n        /* \".git/MyContracts/KenyaProcurementTransparency.sol\":11303:11543  function openRevealPhase()... */\n    tag_3:\n      callvalue\n      dup1\n      iszero\n      tag_48\n      jumpi\n      revert(0x00, 0x00)\n    tag_48:\n      pop\n      tag_44\n      tag_50\n      jump\t// in\n        /* \".git/MyContracts/KenyaProcurementTransparency.sol\":829:855  TenderStatus public status */\n    tag_4:\n      callvalue\n      dup1\n      iszero\n      tag_51\n      jumpi\n      revert(0x00, 0x00)\n    tag_51:\n      pop\n      sload(0x02)\n      tag_52\n      swap1\n      shl(0xa0, 0x01)\n      swap1\n      div\n      0xff\n      and\n      dup2\n      jump\n    tag_52:\n      mload(0x40)\n      tag_54\n      swap2\n      swap1\n      tag_55\n      jump\t// in\n    tag_54:\n      mload(0x40)\n      dup1\n      swap2\n      sub\n      swap1\n      return\n        /* \".git/MyContracts/KenyaProcurementTransparency.sol\":11723:12417  function revealBid(uint256 _amount, string memory _secret)... */\n    tag_5:\n      callvalue\n      dup1\n      iszero\n      tag_56\n      jumpi\n      revert(0x00, 0x00)\n    tag_56:\n      pop\n      tag_44\n      tag_58\n      calldatasize\n      0x04\n      tag_59\n      jump\t// in\n    tag_58:\n      tag_60\n      jump\t// in\n        /* \".git/MyContracts/KenyaProcurementTransparency.sol\":502:529  address public pendingAdmin */\n    tag_6:\n      callvalue\n      dup1\n      iszero\n      tag_61\n      jumpi\n      revert(0x00, 0x00)\n    tag_61:\n      pop\n      sload(0x01)\n      tag_62\n      swap1\n      sub(shl(0xa0, 0x01), 0x01)\n      and\n      dup2\n      jump\n    tag_62:\n      mload(0x40)\n      sub(shl(0xa0, 0x01), 0x01)\n        /* \"#utility.yul\":2261:2293   */\n      swap1\n      swap2\n      and\n        /* \"#utility.yul\":2243:2294   */\n      dup2\n      mstore\n        /* \"#utility.yul\":2231:2233   */\n      0x20\n        /* \"#utility.yul\":2216:2234   */\n      add\n        /* \".git/MyContracts/KenyaProcurementTransparency.sol\":502:529  address public pendingAdmin */\n      tag_54\n        /* \"#utility.yul\":2097:2300   */\n      jump\n        /* \".git/MyContracts/KenyaProcurementTransparency.sol\":1676:1705  string public rejectionReason */\n    tag_7:\n      callvalue\n      dup1\n      iszero\n      tag_66\n      jumpi\n      revert(0x00, 0x00)\n    tag_66:\n      pop\n      tag_67\n      tag_68\n      jump\t// in\n    tag_67:\n      mload(0x40)\n      tag_54\n      swap2\n      swap1\n      tag_70\n      jump\t// in\n        /* \".git/MyContracts/KenyaProcurementTransparency.sol\":1592:1627  bytes32 public deliveryEvidenceHash */\n    tag_8:\n      callvalue\n      dup1\n      iszero\n      tag_71\n      jumpi\n      revert(0x00, 0x00)\n    tag_71:\n      pop\n      tag_72\n      sload(0x0f)\n      dup2\n      jump\n    tag_72:\n      mload(0x40)\n        /* \"#utility.yul\":2970:2995   */\n      swap1\n      dup2\n      mstore\n        /* \"#utility.yul\":2958:2960   */\n      0x20\n        /* \"#utility.yul\":2943:2961   */\n      add\n        /* \".git/MyContracts/KenyaProcurementTransparency.sol\":1592:1627  bytes32 public deliveryEvidenceHash */\n      tag_54\n        /* \"#utility.yul\":2824:3001   */\n      jump\n        /* \".git/MyContracts/KenyaProcurementTransparency.sol\":1399:1448  mapping(address => bool) public registeredBidders */\n    tag_9:\n      callvalue\n      dup1\n      iszero\n      tag_76\n      jumpi\n      revert(0x00, 0x00)\n    tag_76:\n      pop\n      tag_77\n      tag_78\n      calldatasize\n      0x04\n      tag_79\n      jump\t// in\n    tag_78:\n      mstore(0x20, 0x0a)\n      0x00\n      swap1\n      dup2\n      mstore\n      0x40\n      swap1\n      keccak256\n      sload\n      0xff\n      and\n      dup2\n      jump\n    tag_77:\n      mload(0x40)\n        /* \"#utility.yul\":3462:3476   */\n      swap1\n      iszero\n        /* \"#utility.yul\":3455:3477   */\n      iszero\n        /* \"#utility.yul\":3437:3478   */\n      dup2\n      mstore\n        /* \"#utility.yul\":3425:3427   */\n      0x20\n        /* \"#utility.yul\":3410:3428   */\n      add\n        /* \".git/MyContracts/KenyaProcurementTransparency.sol\":1399:1448  mapping(address => bool) public registeredBidders */\n      tag_54\n        /* \"#utility.yul\":3297:3484   */\n      jump\n        /* \".git/MyContracts/KenyaProcurementTransparency.sol\":10214:10412  function getPackedHash(uint256 _amount, string memory _secret)... */\n    tag_10:\n      callvalue\n      dup1\n      iszero\n      tag_83\n      jumpi\n      revert(0x00, 0x00)\n    tag_83:\n      pop\n      tag_72\n      tag_85\n      calldatasize\n      0x04\n      tag_59\n      jump\t// in\n    tag_85:\n      tag_86\n      jump\t// in\n        /* \".git/MyContracts/KenyaProcurementTransparency.sol\":15648:16011  function rejectDelivery(string memory _reason)... */\n    tag_11:\n      callvalue\n      dup1\n      iszero\n      tag_88\n      jumpi\n      revert(0x00, 0x00)\n    tag_88:\n      pop\n      tag_44\n      tag_90\n      calldatasize\n      0x04\n      tag_91\n      jump\t// in\n    tag_90:\n      tag_92\n      jump\t// in\n        /* \".git/MyContracts/KenyaProcurementTransparency.sol\":7835:8299  function setInspector(address _inspector) external onlyAdmin tenderExists {... */\n    tag_12:\n      callvalue\n      dup1\n      iszero\n      tag_93\n      jumpi\n      revert(0x00, 0x00)\n    tag_93:\n      pop\n      tag_44\n      tag_95\n      calldatasize\n      0x04\n      tag_79\n      jump\t// in\n    tag_95:\n      tag_96\n      jump\t// in\n        /* \".git/MyContracts/KenyaProcurementTransparency.sol\":10636:11224  function submitSealedBid(bytes32 _sealedBidHash)... */\n    tag_13:\n      callvalue\n      dup1\n      iszero\n      tag_97\n      jumpi\n      revert(0x00, 0x00)\n    tag_97:\n      pop\n      tag_44\n      tag_99\n      calldatasize\n      0x04\n      tag_46\n      jump\t// in\n    tag_99:\n      tag_100\n      jump\t// in\n        /* \".git/MyContracts/KenyaProcurementTransparency.sol\":9264:9684  function registerBidder(address _bidder)... */\n    tag_14:\n      callvalue\n      dup1\n      iszero\n      tag_101\n      jumpi\n      revert(0x00, 0x00)\n    tag_101:\n      pop\n      tag_44\n      tag_103\n      calldatasize\n      0x04\n      tag_79\n      jump\t// in\n    tag_103:\n      tag_104\n      jump\t// in\n        /* \".git/MyContracts/KenyaProcurementTransparency.sol\":12776:13658  function evaluateTender()... */\n    tag_15:\n      callvalue\n      dup1\n      iszero\n      tag_105\n      jumpi\n      revert(0x00, 0x00)\n    tag_105:\n      pop\n      tag_44\n      tag_107\n      jump\t// in\n        /* \".git/MyContracts/KenyaProcurementTransparency.sol\":1455:1490  mapping(address => Bid) public bids */\n    tag_16:\n      callvalue\n      dup1\n      iszero\n      tag_108\n      jumpi\n      revert(0x00, 0x00)\n    tag_108:\n      pop\n      tag_109\n      tag_110\n      calldatasize\n      0x04\n      tag_79\n      jump\t// in\n    tag_110:\n      mstore(0x20, 0x0b)\n      0x00\n      swap1\n      dup2\n      mstore\n      0x40\n      swap1\n      keccak256\n      dup1\n      sload\n      0x01\n      dup3\n      add\n      sload\n      0x02\n      dup4\n      add\n      sload\n      0x03\n      swap1\n      swap4\n      add\n      sload\n      swap2\n      swap3\n      0xff\n      dup1\n      dup4\n      and\n      swap4\n      0x0100\n      swap1\n      swap4\n      div\n      dup2\n      and\n      swap3\n      and\n      dup6\n      jump\n    tag_109:\n      mload(0x40)\n      tag_54\n      swap6\n      swap5\n      swap4\n      swap3\n      swap2\n      swap1\n        /* \"#utility.yul\":4057:4082   */\n      swap5\n      dup6\n      mstore\n        /* \"#utility.yul\":4125:4139   */\n      swap3\n      iszero\n        /* \"#utility.yul\":4118:4140   */\n      iszero\n        /* \"#utility.yul\":4113:4115   */\n      0x20\n        /* \"#utility.yul\":4098:4116   */\n      dup6\n      add\n        /* \"#utility.yul\":4091:4141   */\n      mstore\n        /* \"#utility.yul\":4184:4198   */\n      swap1\n      iszero\n        /* \"#utility.yul\":4177:4199   */\n      iszero\n        /* \"#utility.yul\":4172:4174   */\n      0x40\n        /* \"#utility.yul\":4157:4175   */\n      dup5\n      add\n        /* \"#utility.yul\":4150:4200   */\n      mstore\n        /* \"#utility.yul\":4231:4233   */\n      0x60\n        /* \"#utility.yul\":4216:4234   */\n      dup4\n      add\n        /* \"#utility.yul\":4209:4243   */\n      mstore\n        /* \"#utility.yul\":4287:4301   */\n      iszero\n        /* \"#utility.yul\":4280:4302   */\n      iszero\n        /* \"#utility.yul\":4274:4277   */\n      0x80\n        /* \"#utility.yul\":4259:4278   */\n      dup3\n      add\n        /* \"#utility.yul\":4252:4303   */\n      mstore\n        /* \"#utility.yul\":4044:4047   */\n      0xa0\n        /* \"#utility.yul\":4029:4048   */\n      add\n      swap1\n        /* \"#utility.yul\":3816:4309   */\n      jump\n        /* \".git/MyContracts/KenyaProcurementTransparency.sol\":1370:1390  Tender public tender */\n    tag_17:\n      callvalue\n      dup1\n      iszero\n      tag_114\n      jumpi\n      revert(0x00, 0x00)\n    tag_114:\n      pop\n      tag_115\n      tag_116\n      jump\t// in\n    tag_115:\n      mload(0x40)\n      tag_54\n      swap8\n      swap7\n      swap6\n      swap5\n      swap4\n      swap3\n      swap2\n      swap1\n      tag_118\n      jump\t// in\n        /* \".git/MyContracts/KenyaProcurementTransparency.sol\":17310:17419  function getContractBalance() external view returns (uint256) {... */\n    tag_18:\n      callvalue\n      dup1\n      iszero\n      tag_119\n      jumpi\n      revert(0x00, 0x00)\n    tag_119:\n      pop\n        /* \".git/MyContracts/KenyaProcurementTransparency.sol\":17390:17411  address(this).balance */\n      selfbalance\n        /* \".git/MyContracts/KenyaProcurementTransparency.sol\":17310:17419  function getContractBalance() external view returns (uint256) {... */\n      jump(tag_72)\n        /* \".git/MyContracts/KenyaProcurementTransparency.sol\":8442:8731  function transferAdmin(address _newAdmin) external onlyAdmin {... */\n    tag_19:\n      callvalue\n      dup1\n      iszero\n      tag_124\n      jumpi\n      revert(0x00, 0x00)\n    tag_124:\n      pop\n      tag_44\n      tag_126\n      calldatasize\n      0x04\n      tag_79\n      jump\t// in\n    tag_126:\n      tag_127\n      jump\t// in\n        /* \".git/MyContracts/KenyaProcurementTransparency.sol\":14387:14945  function submitDeliveryEvidence(bytes32 _deliveryEvidenceHash)... */\n    tag_20:\n      callvalue\n      dup1\n      iszero\n      tag_128\n      jumpi\n      revert(0x00, 0x00)\n    tag_128:\n      pop\n      tag_44\n      tag_130\n      calldatasize\n      0x04\n      tag_46\n      jump\t// in\n    tag_130:\n      tag_131\n      jump\t// in\n        /* \".git/MyContracts/KenyaProcurementTransparency.sol\":8847:9113  function acceptAdminRole() external {... */\n    tag_21:\n      callvalue\n      dup1\n      iszero\n      tag_132\n      jumpi\n      revert(0x00, 0x00)\n    tag_132:\n      pop\n      tag_44\n      tag_134\n      jump\t// in\n        /* \".git/MyContracts/KenyaProcurementTransparency.sol\":17961:18287  function getBidDetails(address _bidder)... */\n    tag_22:\n      callvalue\n      dup1\n      iszero\n      tag_135\n      jumpi\n      revert(0x00, 0x00)\n    tag_135:\n      pop\n      tag_136\n      tag_137\n      calldatasize\n      0x04\n      tag_79\n      jump\t// in\n    tag_137:\n      sub(shl(0xa0, 0x01), 0x01)\n        /* \".git/MyContracts/KenyaProcurementTransparency.sol\":18204:18217  bids[_bidder] */\n      and\n        /* \".git/MyContracts/KenyaProcurementTransparency.sol\":18065:18079  bool submitted */\n      0x00\n        /* \".git/MyContracts/KenyaProcurementTransparency.sol\":18204:18217  bids[_bidder] */\n      swap1\n      dup2\n      mstore\n        /* \".git/MyContracts/KenyaProcurementTransparency.sol\":18204:18208  bids */\n      0x0b\n        /* \".git/MyContracts/KenyaProcurementTransparency.sol\":18204:18217  bids[_bidder] */\n      0x20\n      swap1\n      dup2\n      mstore\n      0x40\n      swap2\n      dup3\n      swap1\n      keccak256\n        /* \".git/MyContracts/KenyaProcurementTransparency.sol\":18189:18217  Bid memory b = bids[_bidder] */\n      dup3\n      mload\n      0xa0\n      dup2\n      add\n      dup5\n      mstore\n      dup2\n      sload\n      dup2\n      mstore\n      0x01\n      dup3\n      add\n      sload\n      0xff\n      dup1\n      dup3\n      and\n      iszero\n      iszero\n      swap5\n      dup4\n      add\n      dup6\n      swap1\n      mstore\n      0x0100\n      swap1\n      swap2\n      div\n      dup2\n      and\n      iszero\n      iszero\n      swap5\n      dup3\n      add\n      dup6\n      swap1\n      mstore\n      0x02\n      dup4\n      add\n      sload\n      0x60\n      dup4\n      add\n      dup2\n      swap1\n      mstore\n      0x03\n      swap1\n      swap4\n      add\n      sload\n      and\n      iszero\n      iszero\n      0x80\n      swap1\n      swap2\n      add\n      dup2\n      swap1\n      mstore\n      swap2\n      swap4\n      swap1\n      swap2\n      swap1\n        /* \".git/MyContracts/KenyaProcurementTransparency.sol\":17961:18287  function getBidDetails(address _bidder)... */\n      jump\n    tag_136:\n      0x40\n      dup1\n      mload\n        /* \"#utility.yul\":5676:5690   */\n      swap5\n      iszero\n        /* \"#utility.yul\":5669:5691   */\n      iszero\n        /* \"#utility.yul\":5651:5692   */\n      dup6\n      mstore\n        /* \"#utility.yul\":5735:5749   */\n      swap3\n      iszero\n        /* \"#utility.yul\":5728:5750   */\n      iszero\n        /* \"#utility.yul\":5723:5725   */\n      0x20\n        /* \"#utility.yul\":5708:5726   */\n      dup6\n      add\n        /* \"#utility.yul\":5701:5751   */\n      mstore\n        /* \"#utility.yul\":5767:5785   */\n      swap2\n      dup4\n      add\n        /* \"#utility.yul\":5760:5794   */\n      mstore\n        /* \"#utility.yul\":5837:5851   */\n      iszero\n        /* \"#utility.yul\":5830:5852   */\n      iszero\n        /* \"#utility.yul\":5825:5827   */\n      0x60\n        /* \"#utility.yul\":5810:5828   */\n      dup3\n      add\n        /* \"#utility.yul\":5803:5853   */\n      mstore\n        /* \"#utility.yul\":5638:5641   */\n      0x80\n        /* \"#utility.yul\":5623:5642   */\n      add\n        /* \".git/MyContracts/KenyaProcurementTransparency.sol\":17961:18287  function getBidDetails(address _bidder)... */\n      tag_54\n        /* \"#utility.yul\":5438:5859   */\n      jump\n        /* \".git/MyContracts/KenyaProcurementTransparency.sol\":6308:7620  function createTenderWithLocalTime(... */\n    tag_23:\n      callvalue\n      dup1\n      iszero\n      tag_141\n      jumpi\n      revert(0x00, 0x00)\n    tag_141:\n      pop\n      tag_44\n      tag_143\n      calldatasize\n      0x04\n      tag_144\n      jump\t// in\n    tag_143:\n      tag_145\n      jump\t// in\n        /* \".git/MyContracts/KenyaProcurementTransparency.sol\":1634:1669  bytes32 public inspectionReportHash */\n    tag_24:\n      callvalue\n      dup1\n      iszero\n      tag_146\n      jumpi\n      revert(0x00, 0x00)\n    tag_146:\n      pop\n      tag_72\n      sload(0x10)\n      dup2\n      jump\n        /* \".git/MyContracts/KenyaProcurementTransparency.sol\":1561:1585  uint256 public lowestBid */\n    tag_25:\n      callvalue\n      dup1\n      iszero\n      tag_150\n      jumpi\n      revert(0x00, 0x00)\n    tag_150:\n      pop\n      tag_72\n      sload(0x0e)\n      dup2\n      jump\n        /* \".git/MyContracts/KenyaProcurementTransparency.sol\":16294:16347  function fundContract() external payable onlyAdmin {} */\n    tag_26:\n      tag_44\n      tag_155\n      jump\t// in\n        /* \".git/MyContracts/KenyaProcurementTransparency.sol\":1712:1739  bool public paymentReleased */\n    tag_27:\n      callvalue\n      dup1\n      iszero\n      tag_156\n      jumpi\n      revert(0x00, 0x00)\n    tag_156:\n      pop\n      sload(0x12)\n      tag_77\n      swap1\n      0xff\n      and\n      dup2\n      jump\n        /* \".git/MyContracts/KenyaProcurementTransparency.sol\":17523:17624  function getBidderCount() external view returns (uint256) {... */\n    tag_28:\n      callvalue\n      dup1\n      iszero\n      tag_160\n      jumpi\n      revert(0x00, 0x00)\n    tag_160:\n      pop\n        /* \".git/MyContracts/KenyaProcurementTransparency.sol\":17599:17609  bidderList */\n      0x0c\n        /* \".git/MyContracts/KenyaProcurementTransparency.sol\":17599:17616  bidderList.length */\n      sload\n        /* \".git/MyContracts/KenyaProcurementTransparency.sol\":17523:17624  function getBidderCount() external view returns (uint256) {... */\n      jump(tag_72)\n        /* \".git/MyContracts/KenyaProcurementTransparency.sol\":13730:14021  function awardTender()... */\n    tag_29:\n      callvalue\n      dup1\n      iszero\n      tag_164\n      jumpi\n      revert(0x00, 0x00)\n    tag_164:\n      pop\n      tag_44\n      tag_166\n      jump\t// in\n        /* \".git/MyContracts/KenyaProcurementTransparency.sol\":16440:16996  function releasePayment()... */\n    tag_30:\n      callvalue\n      dup1\n      iszero\n      tag_167\n      jumpi\n      revert(0x00, 0x00)\n    tag_167:\n      pop\n      tag_44\n      tag_169\n      jump\t// in\n        /* \".git/MyContracts/KenyaProcurementTransparency.sol\":1497:1524  address[] public bidderList */\n    tag_31:\n      callvalue\n      dup1\n      iszero\n      tag_170\n      jumpi\n      revert(0x00, 0x00)\n    tag_170:\n      pop\n      tag_62\n      tag_172\n      calldatasize\n      0x04\n      tag_46\n      jump\t// in\n    tag_172:\n      tag_174\n      jump\t// in\n        /* \".git/MyContracts/KenyaProcurementTransparency.sol\":1533:1554  address public winner */\n    tag_32:\n      callvalue\n      dup1\n      iszero\n      tag_176\n      jumpi\n      revert(0x00, 0x00)\n    tag_176:\n      pop\n      sload(0x0d)\n      tag_62\n      swap1\n      sub(shl(0xa0, 0x01), 0x01)\n      and\n      dup2\n      jump\n        /* \".git/MyContracts/KenyaProcurementTransparency.sol\":18883:19638  function getTenderSummary()... */\n    tag_33:\n      callvalue\n      dup1\n      iszero\n      tag_180\n      jumpi\n      revert(0x00, 0x00)\n    tag_180:\n      pop\n      tag_181\n      tag_182\n      jump\t// in\n    tag_181:\n      mload(0x40)\n      tag_54\n      swap10\n      swap9\n      swap8\n      swap7\n      swap6\n      swap5\n      swap4\n      swap3\n      swap2\n      swap1\n      tag_184\n      jump\t// in\n        /* \".git/MyContracts/KenyaProcurementTransparency.sol\":536:560  address public inspector */\n    tag_34:\n      callvalue\n      dup1\n      iszero\n      tag_185\n      jumpi\n      revert(0x00, 0x00)\n    tag_185:\n      pop\n      sload(0x02)\n      tag_62\n      swap1\n      sub(shl(0xa0, 0x01), 0x01)\n      and\n      dup2\n      jump\n        /* \".git/MyContracts/KenyaProcurementTransparency.sol\":475:495  address public admin */\n    tag_35:\n      callvalue\n      dup1\n      iszero\n      tag_189\n      jumpi\n      revert(0x00, 0x00)\n    tag_189:\n      pop\n      sload(0x00)\n      tag_62\n      swap1\n      sub(shl(0xa0, 0x01), 0x01)\n      and\n      dup2\n      jump\n        /* \".git/MyContracts/KenyaProcurementTransparency.sol\":15099:15528  function acceptDelivery(bytes32 _inspectionReportHash)... */\n    tag_47:\n        /* \".git/MyContracts/KenyaProcurementTransparency.sol\":3799:3808  inspector */\n      and(sub(shl(0xa0, 0x01), 0x01), sload(0x02))\n        /* \".git/MyContracts/KenyaProcurementTransparency.sol\":3795:3853  if (inspector == address(0)) revert InspectorNotAssigned() */\n      tag_194\n      jumpi\n        /* \".git/MyContracts/KenyaProcurementTransparency.sol\":3831:3853  InspectorNotAssigned() */\n      mload(0x40)\n      shl(0xe0, 0xd6ea3663)\n      dup2\n      mstore\n      0x04\n      add\n      mload(0x40)\n      dup1\n      swap2\n      sub\n      swap1\n      revert\n        /* \".git/MyContracts/KenyaProcurementTransparency.sol\":3795:3853  if (inspector == address(0)) revert InspectorNotAssigned() */\n    tag_194:\n        /* \".git/MyContracts/KenyaProcurementTransparency.sol\":3882:3891  inspector */\n      and(sub(shl(0xa0, 0x01), 0x01), sload(0x02))\n        /* \".git/MyContracts/KenyaProcurementTransparency.sol\":3868:3878  msg.sender */\n      caller\n        /* \".git/MyContracts/KenyaProcurementTransparency.sol\":3868:3891  msg.sender != inspector */\n      eq\n        /* \".git/MyContracts/KenyaProcurementTransparency.sol\":3864:3915  if (msg.sender != inspector) revert OnlyInspector() */\n      tag_195\n      jumpi\n        /* \".git/MyContracts/KenyaProcurementTransparency.sol\":3900:3915  OnlyInspector() */\n      mload(0x40)\n      shl(0xe0, 0x9864fbb3)\n      dup2\n      mstore\n      0x04\n      add\n      mload(0x40)\n      dup1\n      swap2\n      sub\n      swap1\n      revert\n        /* \".git/MyContracts/KenyaProcurementTransparency.sol\":3864:3915  if (msg.sender != inspector) revert OnlyInspector() */\n    tag_195:\n        /* \".git/MyContracts/KenyaProcurementTransparency.sol\":4249:4262  tender.exists */\n      and(0xff, sload(0x09))\n        /* \".git/MyContracts/KenyaProcurementTransparency.sol\":4244:4291  if (!tender.exists) revert TenderDoesNotExist() */\n      tag_197\n      jumpi\n        /* \".git/MyContracts/KenyaProcurementTransparency.sol\":4271:4291  TenderDoesNotExist() */\n      mload(0x40)\n      shl(0xe1, 0x55e9e641)\n      dup2\n      mstore\n      0x04\n      add\n      mload(0x40)\n      dup1\n      swap2\n      sub\n      swap1\n      revert\n        /* \".git/MyContracts/KenyaProcurementTransparency.sol\":4244:4291  if (!tender.exists) revert TenderDoesNotExist() */\n    tag_197:\n        /* \".git/MyContracts/KenyaProcurementTransparency.sol\":15235:15257  TenderStatus.Delivered */\n      0x04\n      dup1\n        /* \".git/MyContracts/KenyaProcurementTransparency.sol\":4979:4985  status */\n      sload(0x02)\n      shl(0xa0, 0x01)\n      swap1\n      div\n      0xff\n      and\n        /* \".git/MyContracts/KenyaProcurementTransparency.sol\":4979:4996  status != _status */\n      0x07\n      dup2\n      gt\n      iszero\n      tag_203\n      jumpi\n      tag_203\n      tag_201\n      jump\t// in\n    tag_203:\n      eq\n        /* \".git/MyContracts/KenyaProcurementTransparency.sol\":4975:5025  if (status != _status) revert InvalidTenderStage() */\n      tag_204\n      jumpi\n        /* \".git/MyContracts/KenyaProcurementTransparency.sol\":5005:5025  InvalidTenderStage() */\n      mload(0x40)\n      shl(0xe6, 0x0187fa83)\n      dup2\n      mstore\n      0x04\n      add\n      mload(0x40)\n      dup1\n      swap2\n      sub\n      swap1\n      revert\n        /* \".git/MyContracts/KenyaProcurementTransparency.sol\":4975:5025  if (status != _status) revert InvalidTenderStage() */\n    tag_204:\n        /* \".git/MyContracts/KenyaProcurementTransparency.sol\":15283:15304  _inspectionReportHash */\n      dup2\n        /* \".git/MyContracts/KenyaProcurementTransparency.sol\":15275:15353  require(_inspectionReportHash != bytes32(0), \"Invalid inspection report hash\") */\n      tag_206\n      jumpi\n      mload(0x40)\n      shl(0xe5, 0x461bcd)\n      dup2\n      mstore\n        /* \"#utility.yul\":9252:9254   */\n      0x20\n        /* \".git/MyContracts/KenyaProcurementTransparency.sol\":15275:15353  require(_inspectionReportHash != bytes32(0), \"Invalid inspection report hash\") */\n      0x04\n      dup3\n      add\n        /* \"#utility.yul\":9234:9255   */\n      mstore\n        /* \"#utility.yul\":9291:9293   */\n      0x1e\n        /* \"#utility.yul\":9271:9289   */\n      0x24\n      dup3\n      add\n        /* \"#utility.yul\":9264:9294   */\n      mstore\n        /* \"#utility.yul\":9330:9362   */\n      0x496e76616c696420696e7370656374696f6e207265706f727420686173680000\n        /* \"#utility.yul\":9310:9328   */\n      0x44\n      dup3\n      add\n        /* \"#utility.yul\":9303:9363   */\n      mstore\n        /* \"#utility.yul\":9380:9398   */\n      0x64\n      add\n        /* \".git/MyContracts/KenyaProcurementTransparency.sol\":15275:15353  require(_inspectionReportHash != bytes32(0), \"Invalid inspection report hash\") */\n    tag_207:\n      mload(0x40)\n      dup1\n      swap2\n      sub\n      swap1\n      revert\n    tag_206:\n        /* \".git/MyContracts/KenyaProcurementTransparency.sol\":15366:15386  inspectionReportHash */\n      0x10\n        /* \".git/MyContracts/KenyaProcurementTransparency.sol\":15366:15410  inspectionReportHash = _inspectionReportHash */\n      dup3\n      swap1\n      sstore\n        /* \".git/MyContracts/KenyaProcurementTransparency.sol\":15421:15427  status */\n      0x02\n        /* \".git/MyContracts/KenyaProcurementTransparency.sol\":15421:15451  status = TenderStatus.Accepted */\n      dup1\n      sload\n      not(shl(0xa0, 0xff))\n      and\n      shl(0xa1, 0x03)\n      or\n      swap1\n      sstore\n        /* \".git/MyContracts/KenyaProcurementTransparency.sol\":15469:15520  DeliveryAccepted(msg.sender, _inspectionReportHash) */\n      0x40\n      dup1\n      mload\n        /* \".git/MyContracts/KenyaProcurementTransparency.sol\":15486:15496  msg.sender */\n      caller\n        /* \"#utility.yul\":9583:9634   */\n      dup2\n      mstore\n        /* \"#utility.yul\":9665:9667   */\n      0x20\n        /* \"#utility.yul\":9650:9668   */\n      dup2\n      add\n        /* \"#utility.yul\":9643:9677   */\n      dup5\n      swap1\n      mstore\n        /* \".git/MyContracts/KenyaProcurementTransparency.sol\":15469:15520  DeliveryAccepted(msg.sender, _inspectionReportHash) */\n      0xef94af06cfa9a76c638dd1a1cfb86b07f938febf05374e3675aeced1f805205e\n      swap2\n        /* \"#utility.yul\":9556:9574   */\n      add\n        /* \".git/MyContracts/KenyaProcurementTransparency.sol\":15469:15520  DeliveryAccepted(msg.sender, _inspectionReportHash) */\n    tag_211:\n      mload(0x40)\n      dup1\n      swap2\n      sub\n      swap1\n      log1\n        /* \".git/MyContracts/KenyaProcurementTransparency.sol\":4302:4303  _ */\n      pop\n        /* \".git/MyContracts/KenyaProcurementTransparency.sol\":15099:15528  function acceptDelivery(bytes32 _inspectionReportHash)... */\n      pop\n      jump\t// out\n        /* \".git/MyContracts/KenyaProcurementTransparency.sol\":11303:11543  function openRevealPhase()... */\n    tag_50:\n        /* \".git/MyContracts/KenyaProcurementTransparency.sol\":3636:3641  admin */\n      and(sub(shl(0xa0, 0x01), 0x01), sload(0x00))\n        /* \".git/MyContracts/KenyaProcurementTransparency.sol\":3622:3632  msg.sender */\n      caller\n        /* \".git/MyContracts/KenyaProcurementTransparency.sol\":3622:3641  msg.sender != admin */\n      eq\n        /* \".git/MyContracts/KenyaProcurementTransparency.sol\":3618:3661  if (msg.sender != admin) revert OnlyAdmin() */\n      tag_214\n      jumpi\n        /* \".git/MyContracts/KenyaProcurementTransparency.sol\":3650:3661  OnlyAdmin() */\n      mload(0x40)\n      shl(0xe0, 0x47556579)\n      dup2\n      mstore\n      0x04\n      add\n      mload(0x40)\n      dup1\n      swap2\n      sub\n      swap1\n      revert\n        /* \".git/MyContracts/KenyaProcurementTransparency.sol\":3618:3661  if (msg.sender != admin) revert OnlyAdmin() */\n    tag_214:\n        /* \".git/MyContracts/KenyaProcurementTransparency.sol\":4249:4262  tender.exists */\n      and(0xff, sload(0x09))\n        /* \".git/MyContracts/KenyaProcurementTransparency.sol\":4244:4291  if (!tender.exists) revert TenderDoesNotExist() */\n      tag_216\n      jumpi\n        /* \".git/MyContracts/KenyaProcurementTransparency.sol\":4271:4291  TenderDoesNotExist() */\n      mload(0x40)\n      shl(0xe1, 0x55e9e641)\n      dup2\n      mstore\n      0x04\n      add\n      mload(0x40)\n      dup1\n      swap2\n      sub\n      swap1\n      revert\n        /* \".git/MyContracts/KenyaProcurementTransparency.sol\":4244:4291  if (!tender.exists) revert TenderDoesNotExist() */\n    tag_216:\n        /* \".git/MyContracts/KenyaProcurementTransparency.sol\":4694:4719  tender.submissionDeadline */\n      sload(0x06)\n        /* \".git/MyContracts/KenyaProcurementTransparency.sol\":4676:4691  block.timestamp */\n      timestamp\n        /* \".git/MyContracts/KenyaProcurementTransparency.sol\":4676:4719  block.timestamp < tender.submissionDeadline */\n      lt\n        /* \".git/MyContracts/KenyaProcurementTransparency.sol\":4672:4758  if (block.timestamp < tender.submissionDeadline) revert SubmissionDeadlineNotReached() */\n      iszero\n      tag_218\n      jumpi\n        /* \".git/MyContracts/KenyaProcurementTransparency.sol\":4728:4758  SubmissionDeadlineNotReached() */\n      mload(0x40)\n      shl(0xe0, 0x3efbccb1)\n      dup2\n      mstore\n      0x04\n      add\n      mload(0x40)\n      dup1\n      swap2\n      sub\n      swap1\n      revert\n        /* \".git/MyContracts/KenyaProcurementTransparency.sol\":4672:4758  if (block.timestamp < tender.submissionDeadline) revert SubmissionDeadlineNotReached() */\n    tag_218:\n        /* \".git/MyContracts/KenyaProcurementTransparency.sol\":11430:11450  TenderStatus.Created */\n      0x00\n      dup1\n        /* \".git/MyContracts/KenyaProcurementTransparency.sol\":4979:4985  status */\n      sload(0x02)\n      shl(0xa0, 0x01)\n      swap1\n      div\n      0xff\n      and\n        /* \".git/MyContracts/KenyaProcurementTransparency.sol\":4979:4996  status != _status */\n      0x07\n      dup2\n      gt\n      iszero\n      tag_223\n      jumpi\n      tag_223\n      tag_201\n      jump\t// in\n    tag_223:\n      eq\n        /* \".git/MyContracts/KenyaProcurementTransparency.sol\":4975:5025  if (status != _status) revert InvalidTenderStage() */\n      tag_224\n      jumpi\n        /* \".git/MyContracts/KenyaProcurementTransparency.sol\":5005:5025  InvalidTenderStage() */\n      mload(0x40)\n      shl(0xe6, 0x0187fa83)\n      dup2\n      mstore\n      0x04\n      add\n      mload(0x40)\n      dup1\n      swap2\n      sub\n      swap1\n      revert\n        /* \".git/MyContracts/KenyaProcurementTransparency.sol\":4975:5025  if (status != _status) revert InvalidTenderStage() */\n    tag_224:\n        /* \".git/MyContracts/KenyaProcurementTransparency.sol\":11468:11474  status */\n      0x02\n        /* \".git/MyContracts/KenyaProcurementTransparency.sol\":11468:11500  status = TenderStatus.RevealOpen */\n      dup1\n      sload\n      not(shl(0xa0, 0xff))\n      and\n      shl(0xa0, 0x01)\n      or\n      swap1\n      sstore\n        /* \".git/MyContracts/KenyaProcurementTransparency.sol\":11516:11535  RevealPhaseOpened() */\n      mload(0x40)\n      0x2fd2f8fcbb75b0a142d3952ad3f5e92dd16aab6c8bbbd304bdb97066b33c062c\n      swap1\n      0x00\n      swap1\n      log1\n        /* \".git/MyContracts/KenyaProcurementTransparency.sol\":4769:4770  _ */\n      pop\n        /* \".git/MyContracts/KenyaProcurementTransparency.sol\":11303:11543  function openRevealPhase()... */\n      jump\t// out\n        /* \".git/MyContracts/KenyaProcurementTransparency.sol\":11723:12417  function revealBid(uint256 _amount, string memory _secret)... */\n    tag_60:\n        /* \".git/MyContracts/KenyaProcurementTransparency.sol\":4249:4262  tender.exists */\n      and(0xff, sload(0x09))\n        /* \".git/MyContracts/KenyaProcurementTransparency.sol\":4244:4291  if (!tender.exists) revert TenderDoesNotExist() */\n      tag_229\n      jumpi\n        /* \".git/MyContracts/KenyaProcurementTransparency.sol\":4271:4291  TenderDoesNotExist() */\n      mload(0x40)\n      shl(0xe1, 0x55e9e641)\n      dup2\n      mstore\n      0x04\n      add\n      mload(0x40)\n      dup1\n      swap2\n      sub\n      swap1\n      revert\n        /* \".git/MyContracts/KenyaProcurementTransparency.sol\":4244:4291  if (!tender.exists) revert TenderDoesNotExist() */\n    tag_229:\n        /* \".git/MyContracts/KenyaProcurementTransparency.sol\":4080:4090  msg.sender */\n      caller\n        /* \".git/MyContracts/KenyaProcurementTransparency.sol\":4062:4091  registeredBidders[msg.sender] */\n      0x00\n      swap1\n      dup2\n      mstore\n        /* \".git/MyContracts/KenyaProcurementTransparency.sol\":4062:4079  registeredBidders */\n      0x0a\n        /* \".git/MyContracts/KenyaProcurementTransparency.sol\":4062:4091  registeredBidders[msg.sender] */\n      0x20\n      mstore\n      0x40\n      swap1\n      keccak256\n      sload\n      0xff\n      and\n        /* \".git/MyContracts/KenyaProcurementTransparency.sol\":4057:4121  if (!registeredBidders[msg.sender]) revert NotRegisteredBidder() */\n      tag_231\n      jumpi\n        /* \".git/MyContracts/KenyaProcurementTransparency.sol\":4100:4121  NotRegisteredBidder() */\n      mload(0x40)\n      shl(0xe5, 0x02f9ce37)\n      dup2\n      mstore\n      0x04\n      add\n      mload(0x40)\n      dup1\n      swap2\n      sub\n      swap1\n      revert\n        /* \".git/MyContracts/KenyaProcurementTransparency.sol\":4057:4121  if (!registeredBidders[msg.sender]) revert NotRegisteredBidder() */\n    tag_231:\n        /* \".git/MyContracts/KenyaProcurementTransparency.sol\":11870:11893  TenderStatus.RevealOpen */\n      0x01\n      dup1\n        /* \".git/MyContracts/KenyaProcurementTransparency.sol\":4979:4985  status */\n      sload(0x02)\n      shl(0xa0, 0x01)\n      swap1\n      div\n      0xff\n      and\n        /* \".git/MyContracts/KenyaProcurementTransparency.sol\":4979:4996  status != _status */\n      0x07\n      dup2\n      gt\n      iszero\n      tag_236\n      jumpi\n      tag_236\n      tag_201\n      jump\t// in\n    tag_236:\n      eq\n        /* \".git/MyContracts/KenyaProcurementTransparency.sol\":4975:5025  if (status != _status) revert InvalidTenderStage() */\n      tag_237\n      jumpi\n        /* \".git/MyContracts/KenyaProcurementTransparency.sol\":5005:5025  InvalidTenderStage() */\n      mload(0x40)\n      shl(0xe6, 0x0187fa83)\n      dup2\n      mstore\n      0x04\n      add\n      mload(0x40)\n      dup1\n      swap2\n      sub\n      swap1\n      revert\n        /* \".git/MyContracts/KenyaProcurementTransparency.sol\":4975:5025  if (status != _status) revert InvalidTenderStage() */\n    tag_237:\n        /* \".git/MyContracts/KenyaProcurementTransparency.sol\":11940:11950  msg.sender */\n      caller\n        /* \".git/MyContracts/KenyaProcurementTransparency.sol\":11911:11932  Bid storage bidderBid */\n      0x00\n        /* \".git/MyContracts/KenyaProcurementTransparency.sol\":11935:11951  bids[msg.sender] */\n      swap1\n      dup2\n      mstore\n        /* \".git/MyContracts/KenyaProcurementTransparency.sol\":11935:11939  bids */\n      0x0b\n        /* \".git/MyContracts/KenyaProcurementTransparency.sol\":11935:11951  bids[msg.sender] */\n      0x20\n      mstore\n      0x40\n      swap1\n      keccak256\n        /* \".git/MyContracts/KenyaProcurementTransparency.sol\":11972:11991  bidderBid.submitted */\n      0x01\n      dup2\n      add\n      sload\n      0xff\n      and\n        /* \".git/MyContracts/KenyaProcurementTransparency.sol\":11964:12012  require(bidderBid.submitted, \"No bid submitted\") */\n      tag_239\n      jumpi\n      mload(0x40)\n      shl(0xe5, 0x461bcd)\n      dup2\n      mstore\n        /* \"#utility.yul\":9890:9892   */\n      0x20\n        /* \".git/MyContracts/KenyaProcurementTransparency.sol\":11964:12012  require(bidderBid.submitted, \"No bid submitted\") */\n      0x04\n      dup3\n      add\n        /* \"#utility.yul\":9872:9893   */\n      mstore\n        /* \"#utility.yul\":9929:9931   */\n      0x10\n        /* \"#utility.yul\":9909:9927   */\n      0x24\n      dup3\n      add\n        /* \"#utility.yul\":9902:9932   */\n      mstore\n      shl(0x82, 0x139bc8189a59081cdd589b5a5d1d1959)\n        /* \"#utility.yul\":9948:9966   */\n      0x44\n      dup3\n      add\n        /* \"#utility.yul\":9941:9987   */\n      mstore\n        /* \"#utility.yul\":10004:10022   */\n      0x64\n      add\n        /* \".git/MyContracts/KenyaProcurementTransparency.sol\":11964:12012  require(bidderBid.submitted, \"No bid submitted\") */\n      tag_207\n        /* \"#utility.yul\":9688:10028   */\n      jump\n        /* \".git/MyContracts/KenyaProcurementTransparency.sol\":11964:12012  require(bidderBid.submitted, \"No bid submitted\") */\n    tag_239:\n        /* \".git/MyContracts/KenyaProcurementTransparency.sol\":12032:12050  bidderBid.revealed */\n      0x01\n      dup2\n      add\n      sload\n      0x0100\n      swap1\n      div\n      0xff\n      and\n        /* \".git/MyContracts/KenyaProcurementTransparency.sol\":12031:12050  !bidderBid.revealed */\n      iszero\n        /* \".git/MyContracts/KenyaProcurementTransparency.sol\":12023:12075  require(!bidderBid.revealed, \"Bid already revealed\") */\n      tag_242\n      jumpi\n      mload(0x40)\n      shl(0xe5, 0x461bcd)\n      dup2\n      mstore\n        /* \"#utility.yul\":10235:10237   */\n      0x20\n        /* \".git/MyContracts/KenyaProcurementTransparency.sol\":12023:12075  require(!bidderBid.revealed, \"Bid already revealed\") */\n      0x04\n      dup3\n      add\n        /* \"#utility.yul\":10217:10238   */\n      mstore\n        /* \"#utility.yul\":10274:10276   */\n      0x14\n        /* \"#utility.yul\":10254:10272   */\n      0x24\n      dup3\n      add\n        /* \"#utility.yul\":10247:10277   */\n      mstore\n      shl(0x62, 0x109a5908185b1c9958591e481c995d99585b1959)\n        /* \"#utility.yul\":10293:10311   */\n      0x44\n      dup3\n      add\n        /* \"#utility.yul\":10286:10336   */\n      mstore\n        /* \"#utility.yul\":10353:10371   */\n      0x64\n      add\n        /* \".git/MyContracts/KenyaProcurementTransparency.sol\":12023:12075  require(!bidderBid.revealed, \"Bid already revealed\") */\n      tag_207\n        /* \"#utility.yul\":10033:10377   */\n      jump\n        /* \".git/MyContracts/KenyaProcurementTransparency.sol\":12023:12075  require(!bidderBid.revealed, \"Bid already revealed\") */\n    tag_242:\n        /* \".git/MyContracts/KenyaProcurementTransparency.sol\":12088:12108  bytes32 computedHash */\n      0x00\n        /* \".git/MyContracts/KenyaProcurementTransparency.sol\":12138:12145  _amount */\n      dup5\n        /* \".git/MyContracts/KenyaProcurementTransparency.sol\":12147:12154  _secret */\n      dup5\n        /* \".git/MyContracts/KenyaProcurementTransparency.sol\":12121:12155  abi.encodePacked(_amount, _secret) */\n      add(0x20, mload(0x40))\n      tag_245\n      swap3\n      swap2\n      swap1\n      tag_246\n      jump\t// in\n    tag_245:\n      mload(0x40)\n      0x20\n      dup2\n      dup4\n      sub\n      sub\n      dup2\n      mstore\n      swap1\n      0x40\n      mstore\n        /* \".git/MyContracts/KenyaProcurementTransparency.sol\":12111:12156  keccak256(abi.encodePacked(_amount, _secret)) */\n      dup1\n      mload\n      swap1\n      0x20\n      add\n      keccak256\n        /* \".git/MyContracts/KenyaProcurementTransparency.sol\":12088:12156  bytes32 computedHash = keccak256(abi.encodePacked(_amount, _secret)) */\n      swap1\n      pop\n        /* \".git/MyContracts/KenyaProcurementTransparency.sol\":12191:12200  bidderBid */\n      dup2\n        /* \".git/MyContracts/KenyaProcurementTransparency.sol\":12191:12214  bidderBid.sealedBidHash */\n      0x00\n      add\n      sload\n        /* \".git/MyContracts/KenyaProcurementTransparency.sol\":12175:12187  computedHash */\n      dup2\n        /* \".git/MyContracts/KenyaProcurementTransparency.sol\":12175:12214  computedHash == bidderBid.sealedBidHash */\n      eq\n        /* \".git/MyContracts/KenyaProcurementTransparency.sol\":12167:12251  require(computedHash == bidderBid.sealedBidHash, \"Reveal does not match sealed bid\") */\n      tag_247\n      jumpi\n      mload(0x40)\n      shl(0xe5, 0x461bcd)\n      dup2\n      mstore\n        /* \"#utility.yul\":10964:10966   */\n      0x20\n        /* \".git/MyContracts/KenyaProcurementTransparency.sol\":12167:12251  require(computedHash == bidderBid.sealedBidHash, \"Reveal does not match sealed bid\") */\n      0x04\n      dup3\n      add\n        /* \"#utility.yul\":10946:10967   */\n      dup2\n      swap1\n      mstore\n        /* \"#utility.yul\":10983:11001   */\n      0x24\n      dup3\n      add\n        /* \"#utility.yul\":10976:11006   */\n      mstore\n        /* \"#utility.yul\":11042:11076   */\n      0x52657665616c20646f6573206e6f74206d61746368207365616c656420626964\n        /* \"#utility.yul\":11022:11040   */\n      0x44\n      dup3\n      add\n        /* \"#utility.yul\":11015:11077   */\n      mstore\n        /* \"#utility.yul\":11094:11112   */\n      0x64\n      add\n        /* \".git/MyContracts/KenyaProcurementTransparency.sol\":12167:12251  require(computedHash == bidderBid.sealedBidHash, \"Reveal does not match sealed bid\") */\n      tag_207\n        /* \"#utility.yul\":10762:11118   */\n      jump\n        /* \".git/MyContracts/KenyaProcurementTransparency.sol\":12167:12251  require(computedHash == bidderBid.sealedBidHash, \"Reveal does not match sealed bid\") */\n    tag_247:\n        /* \".git/MyContracts/KenyaProcurementTransparency.sol\":12285:12289  true */\n      0x01\n        /* \".git/MyContracts/KenyaProcurementTransparency.sol\":12264:12282  bidderBid.revealed */\n      dup3\n      dup2\n      add\n        /* \".git/MyContracts/KenyaProcurementTransparency.sol\":12264:12289  bidderBid.revealed = true */\n      dup1\n      sload\n      not(0xff00)\n      and\n      0x0100\n      or\n      swap1\n      sstore\n        /* \".git/MyContracts/KenyaProcurementTransparency.sol\":12300:12316  bidderBid.amount */\n      0x02\n      dup4\n      add\n        /* \".git/MyContracts/KenyaProcurementTransparency.sol\":12300:12326  bidderBid.amount = _amount */\n      dup7\n      swap1\n      sstore\n        /* \".git/MyContracts/KenyaProcurementTransparency.sol\":12337:12352  bidderBid.valid */\n      0x03\n      dup4\n      add\n        /* \".git/MyContracts/KenyaProcurementTransparency.sol\":12337:12359  bidderBid.valid = true */\n      dup1\n      sload\n      not(0xff)\n      and\n      swap1\n      swap2\n      or\n      swap1\n      sstore\n        /* \".git/MyContracts/KenyaProcurementTransparency.sol\":12377:12409  BidRevealed(msg.sender, _amount) */\n      0x40\n      dup1\n      mload\n        /* \".git/MyContracts/KenyaProcurementTransparency.sol\":12389:12399  msg.sender */\n      caller\n        /* \"#utility.yul\":9583:9634   */\n      dup2\n      mstore\n        /* \"#utility.yul\":9665:9667   */\n      0x20\n        /* \"#utility.yul\":9650:9668   */\n      dup2\n      add\n        /* \"#utility.yul\":9643:9677   */\n      dup8\n      swap1\n      mstore\n        /* \".git/MyContracts/KenyaProcurementTransparency.sol\":12377:12409  BidRevealed(msg.sender, _amount) */\n      0x9891bd98143d5a2c5f29be9a7ef8e5d7b723746fb3b75220234af7aa6caeecfe\n      swap2\n        /* \"#utility.yul\":9556:9574   */\n      add\n        /* \".git/MyContracts/KenyaProcurementTransparency.sol\":12377:12409  BidRevealed(msg.sender, _amount) */\n      mload(0x40)\n      dup1\n      swap2\n      sub\n      swap1\n      log1\n        /* \".git/MyContracts/KenyaProcurementTransparency.sol\":11900:12417  {... */\n      pop\n      pop\n        /* \".git/MyContracts/KenyaProcurementTransparency.sol\":4132:4133  _ */\n      pop\n        /* \".git/MyContracts/KenyaProcurementTransparency.sol\":11723:12417  function revealBid(uint256 _amount, string memory _secret)... */\n      pop\n      pop\n      jump\t// out\n        /* \".git/MyContracts/KenyaProcurementTransparency.sol\":1676:1705  string public rejectionReason */\n    tag_68:\n      0x11\n      dup1\n      sload\n      tag_252\n      swap1\n      tag_253\n      jump\t// in\n    tag_252:\n      dup1\n      0x1f\n      add\n      0x20\n      dup1\n      swap2\n      div\n      mul\n      0x20\n      add\n      mload(0x40)\n      swap1\n      dup2\n      add\n      0x40\n      mstore\n      dup1\n      swap3\n      swap2\n      swap1\n      dup2\n      dup2\n      mstore\n      0x20\n      add\n      dup3\n      dup1\n      sload\n      tag_254\n      swap1\n      tag_253\n      jump\t// in\n    tag_254:\n      dup1\n      iszero\n      tag_255\n      jumpi\n      dup1\n      0x1f\n      lt\n      tag_256\n      jumpi\n      0x0100\n      dup1\n      dup4\n      sload\n      div\n      mul\n      dup4\n      mstore\n      swap2\n      0x20\n      add\n      swap2\n      jump(tag_255)\n    tag_256:\n      dup3\n      add\n      swap2\n      swap1\n      0x00\n      mstore\n      keccak256(0x00, 0x20)\n      swap1\n    tag_257:\n      dup2\n      sload\n      dup2\n      mstore\n      swap1\n      0x01\n      add\n      swap1\n      0x20\n      add\n      dup1\n      dup4\n      gt\n      tag_257\n      jumpi\n      dup3\n      swap1\n      sub\n      0x1f\n      and\n      dup3\n      add\n      swap2\n    tag_255:\n      pop\n      pop\n      pop\n      pop\n      pop\n      dup2\n      jump\t// out\n        /* \".git/MyContracts/KenyaProcurementTransparency.sol\":10214:10412  function getPackedHash(uint256 _amount, string memory _secret)... */\n    tag_86:\n        /* \".git/MyContracts/KenyaProcurementTransparency.sol\":10327:10334  bytes32 */\n      0x00\n        /* \".git/MyContracts/KenyaProcurementTransparency.sol\":10386:10393  _amount */\n      dup3\n        /* \".git/MyContracts/KenyaProcurementTransparency.sol\":10395:10402  _secret */\n      dup3\n        /* \".git/MyContracts/KenyaProcurementTransparency.sol\":10369:10403  abi.encodePacked(_amount, _secret) */\n      add(0x20, mload(0x40))\n      tag_259\n      swap3\n      swap2\n      swap1\n      tag_246\n      jump\t// in\n    tag_259:\n      mload(0x40)\n      0x20\n      dup2\n      dup4\n      sub\n      sub\n      dup2\n      mstore\n      swap1\n      0x40\n      mstore\n        /* \".git/MyContracts/KenyaProcurementTransparency.sol\":10359:10404  keccak256(abi.encodePacked(_amount, _secret)) */\n      dup1\n      mload\n      swap1\n      0x20\n      add\n      keccak256\n        /* \".git/MyContracts/KenyaProcurementTransparency.sol\":10352:10404  return keccak256(abi.encodePacked(_amount, _secret)) */\n      swap1\n      pop\n        /* \".git/MyContracts/KenyaProcurementTransparency.sol\":10214:10412  function getPackedHash(uint256 _amount, string memory _secret)... */\n    tag_258:\n      swap3\n      swap2\n      pop\n      pop\n      jump\t// out\n        /* \".git/MyContracts/KenyaProcurementTransparency.sol\":15648:16011  function rejectDelivery(string memory _reason)... */\n    tag_92:\n        /* \".git/MyContracts/KenyaProcurementTransparency.sol\":3799:3808  inspector */\n      and(sub(shl(0xa0, 0x01), 0x01), sload(0x02))\n        /* \".git/MyContracts/KenyaProcurementTransparency.sol\":3795:3853  if (inspector == address(0)) revert InspectorNotAssigned() */\n      tag_261\n      jumpi\n        /* \".git/MyContracts/KenyaProcurementTransparency.sol\":3831:3853  InspectorNotAssigned() */\n      mload(0x40)\n      shl(0xe0, 0xd6ea3663)\n      dup2\n      mstore\n      0x04\n      add\n      mload(0x40)\n      dup1\n      swap2\n      sub\n      swap1\n      revert\n        /* \".git/MyContracts/KenyaProcurementTransparency.sol\":3795:3853  if (inspector == address(0)) revert InspectorNotAssigned() */\n    tag_261:\n        /* \".git/MyContracts/KenyaProcurementTransparency.sol\":3882:3891  inspector */\n      and(sub(shl(0xa0, 0x01), 0x01), sload(0x02))\n        /* \".git/MyContracts/KenyaProcurementTransparency.sol\":3868:3878  msg.sender */\n      caller\n        /* \".git/MyContracts/KenyaProcurementTransparency.sol\":3868:3891  msg.sender != inspector */\n      eq\n        /* \".git/MyContracts/KenyaProcurementTransparency.sol\":3864:3915  if (msg.sender != inspector) revert OnlyInspector() */\n      tag_262\n      jumpi\n        /* \".git/MyContracts/KenyaProcurementTransparency.sol\":3900:3915  OnlyInspector() */\n      mload(0x40)\n      shl(0xe0, 0x9864fbb3)\n      dup2\n      mstore\n      0x04\n      add\n      mload(0x40)\n      dup1\n      swap2\n      sub\n      swap1\n      revert\n        /* \".git/MyContracts/KenyaProcurementTransparency.sol\":3864:3915  if (msg.sender != inspector) revert OnlyInspector() */\n    tag_262:\n        /* \".git/MyContracts/KenyaProcurementTransparency.sol\":4249:4262  tender.exists */\n      and(0xff, sload(0x09))\n        /* \".git/MyContracts/KenyaProcurementTransparency.sol\":4244:4291  if (!tender.exists) revert TenderDoesNotExist() */\n      tag_264\n      jumpi\n        /* \".git/MyContracts/KenyaProcurementTransparency.sol\":4271:4291  TenderDoesNotExist() */\n      mload(0x40)\n      shl(0xe1, 0x55e9e641)\n      dup2\n      mstore\n      0x04\n      add\n      mload(0x40)\n      dup1\n      swap2\n      sub\n      swap1\n      revert\n        /* \".git/MyContracts/KenyaProcurementTransparency.sol\":4244:4291  if (!tender.exists) revert TenderDoesNotExist() */\n    tag_264:\n        /* \".git/MyContracts/KenyaProcurementTransparency.sol\":15776:15798  TenderStatus.Delivered */\n      0x04\n      dup1\n        /* \".git/MyContracts/KenyaProcurementTransparency.sol\":4979:4985  status */\n      sload(0x02)\n      shl(0xa0, 0x01)\n      swap1\n      div\n      0xff\n      and\n        /* \".git/MyContracts/KenyaProcurementTransparency.sol\":4979:4996  status != _status */\n      0x07\n      dup2\n      gt\n      iszero\n      tag_269\n      jumpi\n      tag_269\n      tag_201\n      jump\t// in\n    tag_269:\n      eq\n        /* \".git/MyContracts/KenyaProcurementTransparency.sol\":4975:5025  if (status != _status) revert InvalidTenderStage() */\n      tag_270\n      jumpi\n        /* \".git/MyContracts/KenyaProcurementTransparency.sol\":5005:5025  InvalidTenderStage() */\n      mload(0x40)\n      shl(0xe6, 0x0187fa83)\n      dup2\n      mstore\n      0x04\n      add\n      mload(0x40)\n      dup1\n      swap2\n      sub\n      swap1\n      revert\n        /* \".git/MyContracts/KenyaProcurementTransparency.sol\":4975:5025  if (status != _status) revert InvalidTenderStage() */\n    tag_270:\n        /* \".git/MyContracts/KenyaProcurementTransparency.sol\":15848:15849  0 */\n      0x00\n        /* \".git/MyContracts/KenyaProcurementTransparency.sol\":15830:15837  _reason */\n      dup3\n        /* \".git/MyContracts/KenyaProcurementTransparency.sol\":15824:15845  bytes(_reason).length */\n      mload\n        /* \".git/MyContracts/KenyaProcurementTransparency.sol\":15824:15849  bytes(_reason).length > 0 */\n      gt\n        /* \".git/MyContracts/KenyaProcurementTransparency.sol\":15816:15869  require(bytes(_reason).length > 0, \"Reason required\") */\n      tag_272\n      jumpi\n      mload(0x40)\n      shl(0xe5, 0x461bcd)\n      dup2\n      mstore\n        /* \"#utility.yul\":11989:11991   */\n      0x20\n        /* \".git/MyContracts/KenyaProcurementTransparency.sol\":15816:15869  require(bytes(_reason).length > 0, \"Reason required\") */\n      0x04\n      dup3\n      add\n        /* \"#utility.yul\":11971:11992   */\n      mstore\n        /* \"#utility.yul\":12028:12030   */\n      0x0f\n        /* \"#utility.yul\":12008:12026   */\n      0x24\n      dup3\n      add\n        /* \"#utility.yul\":12001:12031   */\n      mstore\n      shl(0x8a, 0x1499585cdbdb881c995c5d5a5c9959)\n        /* \"#utility.yul\":12047:12065   */\n      0x44\n      dup3\n      add\n        /* \"#utility.yul\":12040:12085   */\n      mstore\n        /* \"#utility.yul\":12102:12120   */\n      0x64\n      add\n        /* \".git/MyContracts/KenyaProcurementTransparency.sol\":15816:15869  require(bytes(_reason).length > 0, \"Reason required\") */\n      tag_207\n        /* \"#utility.yul\":11787:12126   */\n      jump\n        /* \".git/MyContracts/KenyaProcurementTransparency.sol\":15816:15869  require(bytes(_reason).length > 0, \"Reason required\") */\n    tag_272:\n        /* \".git/MyContracts/KenyaProcurementTransparency.sol\":15882:15897  rejectionReason */\n      0x11\n        /* \".git/MyContracts/KenyaProcurementTransparency.sol\":15882:15907  rejectionReason = _reason */\n      tag_275\n        /* \".git/MyContracts/KenyaProcurementTransparency.sol\":15900:15907  _reason */\n      dup4\n        /* \".git/MyContracts/KenyaProcurementTransparency.sol\":15882:15897  rejectionReason */\n      dup3\n        /* \".git/MyContracts/KenyaProcurementTransparency.sol\":15882:15907  rejectionReason = _reason */\n      tag_276\n      jump\t// in\n    tag_275:\n      pop\n        /* \".git/MyContracts/KenyaProcurementTransparency.sol\":15918:15924  status */\n      0x02\n        /* \".git/MyContracts/KenyaProcurementTransparency.sol\":15918:15948  status = TenderStatus.Rejected */\n      dup1\n      sload\n      not(shl(0xa0, 0xff))\n      and\n      shl(0xa0, 0x05)\n      or\n      swap1\n      sstore\n        /* \".git/MyContracts/KenyaProcurementTransparency.sol\":15966:16003  DeliveryRejected(msg.sender, _reason) */\n      mload(0x40)\n      0x52fca0fcdda16f4a5f819b60bb9c2f99458433351b90e6fcb3e221fe03b10280\n      swap1\n      tag_211\n      swap1\n        /* \".git/MyContracts/KenyaProcurementTransparency.sol\":15983:15993  msg.sender */\n      caller\n      swap1\n        /* \".git/MyContracts/KenyaProcurementTransparency.sol\":15995:16002  _reason */\n      dup6\n      swap1\n        /* \".git/MyContracts/KenyaProcurementTransparency.sol\":15966:16003  DeliveryRejected(msg.sender, _reason) */\n      tag_280\n      jump\t// in\n        /* \".git/MyContracts/KenyaProcurementTransparency.sol\":7835:8299  function setInspector(address _inspector) external onlyAdmin tenderExists {... */\n    tag_96:\n        /* \".git/MyContracts/KenyaProcurementTransparency.sol\":3636:3641  admin */\n      and(sub(shl(0xa0, 0x01), 0x01), sload(0x00))\n        /* \".git/MyContracts/KenyaProcurementTransparency.sol\":3622:3632  msg.sender */\n      caller\n        /* \".git/MyContracts/KenyaProcurementTransparency.sol\":3622:3641  msg.sender != admin */\n      eq\n        /* \".git/MyContracts/KenyaProcurementTransparency.sol\":3618:3661  if (msg.sender != admin) revert OnlyAdmin() */\n      tag_282\n      jumpi\n        /* \".git/MyContracts/KenyaProcurementTransparency.sol\":3650:3661  OnlyAdmin() */\n      mload(0x40)\n      shl(0xe0, 0x47556579)\n      dup2\n      mstore\n      0x04\n      add\n      mload(0x40)\n      dup1\n      swap2\n      sub\n      swap1\n      revert\n        /* \".git/MyContracts/KenyaProcurementTransparency.sol\":3618:3661  if (msg.sender != admin) revert OnlyAdmin() */\n    tag_282:\n        /* \".git/MyContracts/KenyaProcurementTransparency.sol\":4249:4262  tender.exists */\n      and(0xff, sload(0x09))\n        /* \".git/MyContracts/KenyaProcurementTransparency.sol\":4244:4291  if (!tender.exists) revert TenderDoesNotExist() */\n      tag_284\n      jumpi\n        /* \".git/MyContracts/KenyaProcurementTransparency.sol\":4271:4291  TenderDoesNotExist() */\n      mload(0x40)\n      shl(0xe1, 0x55e9e641)\n      dup2\n      mstore\n      0x04\n      add\n      mload(0x40)\n      dup1\n      swap2\n      sub\n      swap1\n      revert\n        /* \".git/MyContracts/KenyaProcurementTransparency.sol\":4244:4291  if (!tender.exists) revert TenderDoesNotExist() */\n    tag_284:\n      sub(shl(0xa0, 0x01), 0x01)\n        /* \".git/MyContracts/KenyaProcurementTransparency.sol\":7928:7952  _inspector != address(0) */\n      dup2\n      and\n        /* \".git/MyContracts/KenyaProcurementTransparency.sol\":7920:7982  require(_inspector != address(0), \"Invalid inspector address\") */\n      tag_286\n      jumpi\n      mload(0x40)\n      shl(0xe5, 0x461bcd)\n      dup2\n      mstore\n        /* \"#utility.yul\":14779:14781   */\n      0x20\n        /* \".git/MyContracts/KenyaProcurementTransparency.sol\":7920:7982  require(_inspector != address(0), \"Invalid inspector address\") */\n      0x04\n      dup3\n      add\n        /* \"#utility.yul\":14761:14782   */\n      mstore\n        /* \"#utility.yul\":14818:14820   */\n      0x19\n        /* \"#utility.yul\":14798:14816   */\n      0x24\n      dup3\n      add\n        /* \"#utility.yul\":14791:14821   */\n      mstore\n        /* \"#utility.yul\":14857:14884   */\n      0x496e76616c696420696e73706563746f72206164647265737300000000000000\n        /* \"#utility.yul\":14837:14855   */\n      0x44\n      dup3\n      add\n        /* \"#utility.yul\":14830:14885   */\n      mstore\n        /* \"#utility.yul\":14902:14920   */\n      0x64\n      add\n        /* \".git/MyContracts/KenyaProcurementTransparency.sol\":7920:7982  require(_inspector != address(0), \"Invalid inspector address\") */\n      tag_207\n        /* \"#utility.yul\":14577:14926   */\n      jump\n        /* \".git/MyContracts/KenyaProcurementTransparency.sol\":7920:7982  require(_inspector != address(0), \"Invalid inspector address\") */\n    tag_286:\n        /* \".git/MyContracts/KenyaProcurementTransparency.sol\":8025:8046  TenderStatus.Accepted */\n      0x06\n        /* \".git/MyContracts/KenyaProcurementTransparency.sol\":8015:8021  status */\n      sload(0x02)\n      shl(0xa0, 0x01)\n      swap1\n      div\n      0xff\n      and\n        /* \".git/MyContracts/KenyaProcurementTransparency.sol\":8015:8046  status != TenderStatus.Accepted */\n      0x07\n      dup2\n      gt\n      iszero\n      tag_292\n      jumpi\n      tag_292\n      tag_201\n      jump\t// in\n    tag_292:\n      eq\n      iszero\n        /* \".git/MyContracts/KenyaProcurementTransparency.sol\":8015:8098  status != TenderStatus.Accepted &&... */\n      dup1\n      iszero\n      tag_293\n      jumpi\n      pop\n        /* \".git/MyContracts/KenyaProcurementTransparency.sol\":8077:8098  TenderStatus.Rejected */\n      0x05\n        /* \".git/MyContracts/KenyaProcurementTransparency.sol\":8067:8073  status */\n      sload(0x02)\n      shl(0xa0, 0x01)\n      swap1\n      div\n      0xff\n      and\n        /* \".git/MyContracts/KenyaProcurementTransparency.sol\":8067:8098  status != TenderStatus.Rejected */\n      0x07\n      dup2\n      gt\n      iszero\n      tag_297\n      jumpi\n      tag_297\n      tag_201\n      jump\t// in\n    tag_297:\n      eq\n      iszero\n        /* \".git/MyContracts/KenyaProcurementTransparency.sol\":8015:8098  status != TenderStatus.Accepted &&... */\n    tag_293:\n        /* \".git/MyContracts/KenyaProcurementTransparency.sol\":8015:8146  status != TenderStatus.Accepted &&... */\n      dup1\n      iszero\n      tag_298\n      jumpi\n      pop\n        /* \".git/MyContracts/KenyaProcurementTransparency.sol\":8129:8146  TenderStatus.Paid */\n      0x07\n        /* \".git/MyContracts/KenyaProcurementTransparency.sol\":8119:8125  status */\n      sload(0x02)\n      shl(0xa0, 0x01)\n      swap1\n      div\n      0xff\n      and\n        /* \".git/MyContracts/KenyaProcurementTransparency.sol\":8119:8146  status != TenderStatus.Paid */\n      0x07\n      dup2\n      gt\n      iszero\n      tag_302\n      jumpi\n      tag_302\n      tag_201\n      jump\t// in\n    tag_302:\n      eq\n      iszero\n        /* \".git/MyContracts/KenyaProcurementTransparency.sol\":8015:8146  status != TenderStatus.Accepted &&... */\n    tag_298:\n        /* \".git/MyContracts/KenyaProcurementTransparency.sol\":7993:8211  require(... */\n      tag_303\n      jumpi\n      mload(0x40)\n      shl(0xe5, 0x461bcd)\n      dup2\n      mstore\n        /* \"#utility.yul\":15133:15135   */\n      0x20\n        /* \".git/MyContracts/KenyaProcurementTransparency.sol\":7993:8211  require(... */\n      0x04\n      dup3\n      add\n        /* \"#utility.yul\":15115:15136   */\n      mstore\n        /* \"#utility.yul\":15172:15174   */\n      0x25\n        /* \"#utility.yul\":15152:15170   */\n      0x24\n      dup3\n      add\n        /* \"#utility.yul\":15145:15175   */\n      mstore\n        /* \"#utility.yul\":15211:15245   */\n      0x43616e6e6f74206368616e676520696e73706563746f72206174207468697320\n        /* \"#utility.yul\":15191:15209   */\n      0x44\n      dup3\n      add\n        /* \"#utility.yul\":15184:15246   */\n      mstore\n      shl(0xd8, 0x7374616765)\n        /* \"#utility.yul\":15262:15280   */\n      0x64\n      dup3\n      add\n        /* \"#utility.yul\":15255:15290   */\n      mstore\n        /* \"#utility.yul\":15307:15326   */\n      0x84\n      add\n        /* \".git/MyContracts/KenyaProcurementTransparency.sol\":7993:8211  require(... */\n      tag_207\n        /* \"#utility.yul\":14931:15332   */\n      jump\n        /* \".git/MyContracts/KenyaProcurementTransparency.sol\":7993:8211  require(... */\n    tag_303:\n        /* \".git/MyContracts/KenyaProcurementTransparency.sol\":8224:8233  inspector */\n      0x02\n        /* \".git/MyContracts/KenyaProcurementTransparency.sol\":8224:8246  inspector = _inspector */\n      dup1\n      sload\n      not(sub(shl(0xa0, 0x01), 0x01))\n      and\n      sub(shl(0xa0, 0x01), 0x01)\n      dup4\n      and\n      swap1\n      dup2\n      or\n      swap1\n      swap2\n      sstore\n        /* \".git/MyContracts/KenyaProcurementTransparency.sol\":8262:8291  InspectorAssigned(_inspector) */\n      mload(0x40)\n        /* \"#utility.yul\":2243:2294   */\n      swap1\n      dup2\n      mstore\n        /* \".git/MyContracts/KenyaProcurementTransparency.sol\":8262:8291  InspectorAssigned(_inspector) */\n      0xc7b11d63d071f03c4b488a3a44ee58c8a449f16b0ee289dd25af95c15c9f8e3a\n      swap1\n        /* \"#utility.yul\":2231:2233   */\n      0x20\n        /* \"#utility.yul\":2216:2234   */\n      add\n        /* \".git/MyContracts/KenyaProcurementTransparency.sol\":8262:8291  InspectorAssigned(_inspector) */\n    tag_306:\n      mload(0x40)\n      dup1\n      swap2\n      sub\n      swap1\n      log1\n        /* \".git/MyContracts/KenyaProcurementTransparency.sol\":7835:8299  function setInspector(address _inspector) external onlyAdmin tenderExists {... */\n      pop\n      jump\t// out\n        /* \".git/MyContracts/KenyaProcurementTransparency.sol\":10636:11224  function submitSealedBid(bytes32 _sealedBidHash)... */\n    tag_100:\n        /* \".git/MyContracts/KenyaProcurementTransparency.sol\":4249:4262  tender.exists */\n      and(0xff, sload(0x09))\n        /* \".git/MyContracts/KenyaProcurementTransparency.sol\":4244:4291  if (!tender.exists) revert TenderDoesNotExist() */\n      tag_308\n      jumpi\n        /* \".git/MyContracts/KenyaProcurementTransparency.sol\":4271:4291  TenderDoesNotExist() */\n      mload(0x40)\n      shl(0xe1, 0x55e9e641)\n      dup2\n      mstore\n      0x04\n      add\n      mload(0x40)\n      dup1\n      swap2\n      sub\n      swap1\n      revert\n        /* \".git/MyContracts/KenyaProcurementTransparency.sol\":4244:4291  if (!tender.exists) revert TenderDoesNotExist() */\n    tag_308:\n        /* \".git/MyContracts/KenyaProcurementTransparency.sol\":4080:4090  msg.sender */\n      caller\n        /* \".git/MyContracts/KenyaProcurementTransparency.sol\":4062:4091  registeredBidders[msg.sender] */\n      0x00\n      swap1\n      dup2\n      mstore\n        /* \".git/MyContracts/KenyaProcurementTransparency.sol\":4062:4079  registeredBidders */\n      0x0a\n        /* \".git/MyContracts/KenyaProcurementTransparency.sol\":4062:4091  registeredBidders[msg.sender] */\n      0x20\n      mstore\n      0x40\n      swap1\n      keccak256\n      sload\n      0xff\n      and\n        /* \".git/MyContracts/KenyaProcurementTransparency.sol\":4057:4121  if (!registeredBidders[msg.sender]) revert NotRegisteredBidder() */\n      tag_310\n      jumpi\n        /* \".git/MyContracts/KenyaProcurementTransparency.sol\":4100:4121  NotRegisteredBidder() */\n      mload(0x40)\n      shl(0xe5, 0x02f9ce37)\n      dup2\n      mstore\n      0x04\n      add\n      mload(0x40)\n      dup1\n      swap2\n      sub\n      swap1\n      revert\n        /* \".git/MyContracts/KenyaProcurementTransparency.sol\":4057:4121  if (!registeredBidders[msg.sender]) revert NotRegisteredBidder() */\n    tag_310:\n        /* \".git/MyContracts/KenyaProcurementTransparency.sol\":4464:4489  tender.submissionDeadline */\n      sload(0x06)\n        /* \".git/MyContracts/KenyaProcurementTransparency.sol\":4445:4460  block.timestamp */\n      timestamp\n        /* \".git/MyContracts/KenyaProcurementTransparency.sol\":4445:4489  block.timestamp >= tender.submissionDeadline */\n      lt\n        /* \".git/MyContracts/KenyaProcurementTransparency.sol\":4441:4524  if (block.timestamp >= tender.submissionDeadline) revert SubmissionDeadlinePassed() */\n      tag_312\n      jumpi\n        /* \".git/MyContracts/KenyaProcurementTransparency.sol\":4498:4524  SubmissionDeadlinePassed() */\n      mload(0x40)\n      shl(0xe1, 0x764b8e33)\n      dup2\n      mstore\n      0x04\n      add\n      mload(0x40)\n      dup1\n      swap2\n      sub\n      swap1\n      revert\n        /* \".git/MyContracts/KenyaProcurementTransparency.sol\":4441:4524  if (block.timestamp >= tender.submissionDeadline) revert SubmissionDeadlinePassed() */\n    tag_312:\n        /* \".git/MyContracts/KenyaProcurementTransparency.sol\":10797:10817  TenderStatus.Created */\n      0x00\n      dup1\n        /* \".git/MyContracts/KenyaProcurementTransparency.sol\":4979:4985  status */\n      sload(0x02)\n      shl(0xa0, 0x01)\n      swap1\n      div\n      0xff\n      and\n        /* \".git/MyContracts/KenyaProcurementTransparency.sol\":4979:4996  status != _status */\n      0x07\n      dup2\n      gt\n      iszero\n      tag_317\n      jumpi\n      tag_317\n      tag_201\n      jump\t// in\n    tag_317:\n      eq\n        /* \".git/MyContracts/KenyaProcurementTransparency.sol\":4975:5025  if (status != _status) revert InvalidTenderStage() */\n      tag_318\n      jumpi\n        /* \".git/MyContracts/KenyaProcurementTransparency.sol\":5005:5025  InvalidTenderStage() */\n      mload(0x40)\n      shl(0xe6, 0x0187fa83)\n      dup2\n      mstore\n      0x04\n      add\n      mload(0x40)\n      dup1\n      swap2\n      sub\n      swap1\n      revert\n        /* \".git/MyContracts/KenyaProcurementTransparency.sol\":4975:5025  if (status != _status) revert InvalidTenderStage() */\n    tag_318:\n        /* \".git/MyContracts/KenyaProcurementTransparency.sol\":10849:10859  msg.sender */\n      caller\n        /* \".git/MyContracts/KenyaProcurementTransparency.sol\":10844:10860  bids[msg.sender] */\n      0x00\n      swap1\n      dup2\n      mstore\n        /* \".git/MyContracts/KenyaProcurementTransparency.sol\":10844:10848  bids */\n      0x0b\n        /* \".git/MyContracts/KenyaProcurementTransparency.sol\":10844:10860  bids[msg.sender] */\n      0x20\n      mstore\n      0x40\n      swap1\n      keccak256\n        /* \".git/MyContracts/KenyaProcurementTransparency.sol\":10844:10870  bids[msg.sender].submitted */\n      0x01\n      add\n      sload\n      0xff\n      and\n        /* \".git/MyContracts/KenyaProcurementTransparency.sol\":10843:10870  !bids[msg.sender].submitted */\n      iszero\n        /* \".git/MyContracts/KenyaProcurementTransparency.sol\":10835:10896  require(!bids[msg.sender].submitted, \"Bid already submitted\") */\n      tag_320\n      jumpi\n      mload(0x40)\n      shl(0xe5, 0x461bcd)\n      dup2\n      mstore\n        /* \"#utility.yul\":15539:15541   */\n      0x20\n        /* \".git/MyContracts/KenyaProcurementTransparency.sol\":10835:10896  require(!bids[msg.sender].submitted, \"Bid already submitted\") */\n      0x04\n      dup3\n      add\n        /* \"#utility.yul\":15521:15542   */\n      mstore\n        /* \"#utility.yul\":15578:15580   */\n      0x15\n        /* \"#utility.yul\":15558:15576   */\n      0x24\n      dup3\n      add\n        /* \"#utility.yul\":15551:15581   */\n      mstore\n      shl(0x5a, 0x109a5908185b1c9958591e481cdd589b5a5d1d1959)\n        /* \"#utility.yul\":15597:15615   */\n      0x44\n      dup3\n      add\n        /* \"#utility.yul\":15590:15641   */\n      mstore\n        /* \"#utility.yul\":15658:15676   */\n      0x64\n      add\n        /* \".git/MyContracts/KenyaProcurementTransparency.sol\":10835:10896  require(!bids[msg.sender].submitted, \"Bid already submitted\") */\n      tag_207\n        /* \"#utility.yul\":15337:15682   */\n      jump\n        /* \".git/MyContracts/KenyaProcurementTransparency.sol\":10835:10896  require(!bids[msg.sender].submitted, \"Bid already submitted\") */\n    tag_320:\n        /* \".git/MyContracts/KenyaProcurementTransparency.sol\":10915:10929  _sealedBidHash */\n      dup2\n        /* \".git/MyContracts/KenyaProcurementTransparency.sol\":10907:10971  require(_sealedBidHash != bytes32(0), \"Invalid sealed bid hash\") */\n      tag_323\n      jumpi\n      mload(0x40)\n      shl(0xe5, 0x461bcd)\n      dup2\n      mstore\n        /* \"#utility.yul\":15889:15891   */\n      0x20\n        /* \".git/MyContracts/KenyaProcurementTransparency.sol\":10907:10971  require(_sealedBidHash != bytes32(0), \"Invalid sealed bid hash\") */\n      0x04\n      dup3\n      add\n        /* \"#utility.yul\":15871:15892   */\n      mstore\n        /* \"#utility.yul\":15928:15930   */\n      0x17\n        /* \"#utility.yul\":15908:15926   */\n      0x24\n      dup3\n      add\n        /* \"#utility.yul\":15901:15931   */\n      mstore\n        /* \"#utility.yul\":15967:15992   */\n      0x496e76616c6964207365616c6564206269642068617368000000000000000000\n        /* \"#utility.yul\":15947:15965   */\n      0x44\n      dup3\n      add\n        /* \"#utility.yul\":15940:15993   */\n      mstore\n        /* \"#utility.yul\":16010:16028   */\n      0x64\n      add\n        /* \".git/MyContracts/KenyaProcurementTransparency.sol\":10907:10971  require(_sealedBidHash != bytes32(0), \"Invalid sealed bid hash\") */\n      tag_207\n        /* \"#utility.yul\":15687:16034   */\n      jump\n        /* \".git/MyContracts/KenyaProcurementTransparency.sol\":10907:10971  require(_sealedBidHash != bytes32(0), \"Invalid sealed bid hash\") */\n    tag_323:\n        /* \".git/MyContracts/KenyaProcurementTransparency.sol\":11003:11174  Bid({... */\n      0x40\n      dup1\n      mload\n      0xa0\n      dup2\n      add\n      dup3\n      mstore\n      dup4\n      dup2\n      mstore\n        /* \".git/MyContracts/KenyaProcurementTransparency.sol\":11077:11081  true */\n      0x01\n        /* \".git/MyContracts/KenyaProcurementTransparency.sol\":11003:11174  Bid({... */\n      0x20\n      dup1\n      dup4\n      add\n      dup3\n      dup2\n      mstore\n      0x00\n      dup5\n      dup7\n      add\n      dup2\n      dup2\n      mstore\n      0x60\n      dup7\n      add\n      dup3\n      dup2\n      mstore\n      0x80\n      dup8\n      add\n      dup4\n      dup2\n      mstore\n        /* \".git/MyContracts/KenyaProcurementTransparency.sol\":10989:10999  msg.sender */\n      caller\n        /* \".git/MyContracts/KenyaProcurementTransparency.sol\":10984:11000  bids[msg.sender] */\n      dup1\n      dup6\n      mstore\n        /* \".git/MyContracts/KenyaProcurementTransparency.sol\":10984:10988  bids */\n      0x0b\n        /* \".git/MyContracts/KenyaProcurementTransparency.sol\":10984:11000  bids[msg.sender] */\n      dup8\n      mstore\n      swap4\n      dup10\n      swap1\n      keccak256\n        /* \".git/MyContracts/KenyaProcurementTransparency.sol\":10984:11174  bids[msg.sender] = Bid({... */\n      swap8\n      mload\n      dup9\n      sstore\n      swap4\n      mload\n      swap6\n      dup8\n      add\n      dup1\n      sload\n      swap3\n      mload\n      not(0xffff)\n      swap1\n      swap4\n      and\n      swap7\n      iszero\n      iszero\n      not(0xff00)\n      and\n      swap7\n      swap1\n      swap7\n      or\n      0x0100\n      swap3\n      iszero\n      iszero\n      swap3\n      swap1\n      swap3\n      mul\n      swap2\n      swap1\n      swap2\n      or\n      swap1\n      swap5\n      sstore\n      swap3\n      mload\n      0x02\n      dup6\n      add\n      sstore\n      mload\n      0x03\n      swap1\n      swap4\n      add\n      dup1\n      sload\n      not(0xff)\n      and\n      swap4\n      iszero\n      iszero\n      swap4\n      swap1\n      swap4\n      or\n      swap1\n      swap3\n      sstore\n        /* \".git/MyContracts/KenyaProcurementTransparency.sol\":11192:11216  BidSubmitted(msg.sender) */\n      swap2\n      mload\n        /* \"#utility.yul\":2243:2294   */\n      swap2\n      dup3\n      mstore\n        /* \".git/MyContracts/KenyaProcurementTransparency.sol\":11192:11216  BidSubmitted(msg.sender) */\n      0x88c5a0d081e0c7a69b5817581ffa85b19d71703bc581bb5c09fa253c527a055e\n      swap2\n        /* \"#utility.yul\":2216:2234   */\n      add\n        /* \".git/MyContracts/KenyaProcurementTransparency.sol\":11192:11216  BidSubmitted(msg.sender) */\n      tag_211\n        /* \"#utility.yul\":2097:2300   */\n      jump\n        /* \".git/MyContracts/KenyaProcurementTransparency.sol\":9264:9684  function registerBidder(address _bidder)... */\n    tag_104:\n        /* \".git/MyContracts/KenyaProcurementTransparency.sol\":3636:3641  admin */\n      and(sub(shl(0xa0, 0x01), 0x01), sload(0x00))\n        /* \".git/MyContracts/KenyaProcurementTransparency.sol\":3622:3632  msg.sender */\n      caller\n        /* \".git/MyContracts/KenyaProcurementTransparency.sol\":3622:3641  msg.sender != admin */\n      eq\n        /* \".git/MyContracts/KenyaProcurementTransparency.sol\":3618:3661  if (msg.sender != admin) revert OnlyAdmin() */\n      tag_328\n      jumpi\n        /* \".git/MyContracts/KenyaProcurementTransparency.sol\":3650:3661  OnlyAdmin() */\n      mload(0x40)\n      shl(0xe0, 0x47556579)\n      dup2\n      mstore\n      0x04\n      add\n      mload(0x40)\n      dup1\n      swap2\n      sub\n      swap1\n      revert\n        /* \".git/MyContracts/KenyaProcurementTransparency.sol\":3618:3661  if (msg.sender != admin) revert OnlyAdmin() */\n    tag_328:\n        /* \".git/MyContracts/KenyaProcurementTransparency.sol\":4249:4262  tender.exists */\n      and(0xff, sload(0x09))\n        /* \".git/MyContracts/KenyaProcurementTransparency.sol\":4244:4291  if (!tender.exists) revert TenderDoesNotExist() */\n      tag_330\n      jumpi\n        /* \".git/MyContracts/KenyaProcurementTransparency.sol\":4271:4291  TenderDoesNotExist() */\n      mload(0x40)\n      shl(0xe1, 0x55e9e641)\n      dup2\n      mstore\n      0x04\n      add\n      mload(0x40)\n      dup1\n      swap2\n      sub\n      swap1\n      revert\n        /* \".git/MyContracts/KenyaProcurementTransparency.sol\":4244:4291  if (!tender.exists) revert TenderDoesNotExist() */\n    tag_330:\n        /* \".git/MyContracts/KenyaProcurementTransparency.sol\":9382:9402  TenderStatus.Created */\n      0x00\n      dup1\n        /* \".git/MyContracts/KenyaProcurementTransparency.sol\":4979:4985  status */\n      sload(0x02)\n      shl(0xa0, 0x01)\n      swap1\n      div\n      0xff\n      and\n        /* \".git/MyContracts/KenyaProcurementTransparency.sol\":4979:4996  status != _status */\n      0x07\n      dup2\n      gt\n      iszero\n      tag_335\n      jumpi\n      tag_335\n      tag_201\n      jump\t// in\n    tag_335:\n      eq\n        /* \".git/MyContracts/KenyaProcurementTransparency.sol\":4975:5025  if (status != _status) revert InvalidTenderStage() */\n      tag_336\n      jumpi\n        /* \".git/MyContracts/KenyaProcurementTransparency.sol\":5005:5025  InvalidTenderStage() */\n      mload(0x40)\n      shl(0xe6, 0x0187fa83)\n      dup2\n      mstore\n      0x04\n      add\n      mload(0x40)\n      dup1\n      swap2\n      sub\n      swap1\n      revert\n        /* \".git/MyContracts/KenyaProcurementTransparency.sol\":4975:5025  if (status != _status) revert InvalidTenderStage() */\n    tag_336:\n      sub(shl(0xa0, 0x01), 0x01)\n        /* \".git/MyContracts/KenyaProcurementTransparency.sol\":9428:9449  _bidder != address(0) */\n      dup3\n      and\n        /* \".git/MyContracts/KenyaProcurementTransparency.sol\":9420:9476  require(_bidder != address(0), \"Invalid bidder address\") */\n      tag_338\n      jumpi\n      mload(0x40)\n      shl(0xe5, 0x461bcd)\n      dup2\n      mstore\n        /* \"#utility.yul\":16241:16243   */\n      0x20\n        /* \".git/MyContracts/KenyaProcurementTransparency.sol\":9420:9476  require(_bidder != address(0), \"Invalid bidder address\") */\n      0x04\n      dup3\n      add\n        /* \"#utility.yul\":16223:16244   */\n      mstore\n        /* \"#utility.yul\":16280:16282   */\n      0x16\n        /* \"#utility.yul\":16260:16278   */\n      0x24\n      dup3\n      add\n        /* \"#utility.yul\":16253:16283   */\n      mstore\n      shl(0x50, 0x496e76616c6964206269646465722061646472657373)\n        /* \"#utility.yul\":16299:16317   */\n      0x44\n      dup3\n      add\n        /* \"#utility.yul\":16292:16344   */\n      mstore\n        /* \"#utility.yul\":16361:16379   */\n      0x64\n      add\n        /* \".git/MyContracts/KenyaProcurementTransparency.sol\":9420:9476  require(_bidder != address(0), \"Invalid bidder address\") */\n      tag_207\n        /* \"#utility.yul\":16039:16385   */\n      jump\n        /* \".git/MyContracts/KenyaProcurementTransparency.sol\":9420:9476  require(_bidder != address(0), \"Invalid bidder address\") */\n    tag_338:\n      sub(shl(0xa0, 0x01), 0x01)\n        /* \".git/MyContracts/KenyaProcurementTransparency.sol\":9496:9522  registeredBidders[_bidder] */\n      dup3\n      and\n      0x00\n      swap1\n      dup2\n      mstore\n        /* \".git/MyContracts/KenyaProcurementTransparency.sol\":9496:9513  registeredBidders */\n      0x0a\n        /* \".git/MyContracts/KenyaProcurementTransparency.sol\":9496:9522  registeredBidders[_bidder] */\n      0x20\n      mstore\n      0x40\n      swap1\n      keccak256\n      sload\n      0xff\n      and\n        /* \".git/MyContracts/KenyaProcurementTransparency.sol\":9495:9522  !registeredBidders[_bidder] */\n      iszero\n        /* \".git/MyContracts/KenyaProcurementTransparency.sol\":9487:9552  require(!registeredBidders[_bidder], \"Bidder already registered\") */\n      tag_341\n      jumpi\n      mload(0x40)\n      shl(0xe5, 0x461bcd)\n      dup2\n      mstore\n        /* \"#utility.yul\":16592:16594   */\n      0x20\n        /* \".git/MyContracts/KenyaProcurementTransparency.sol\":9487:9552  require(!registeredBidders[_bidder], \"Bidder already registered\") */\n      0x04\n      dup3\n      add\n        /* \"#utility.yul\":16574:16595   */\n      mstore\n        /* \"#utility.yul\":16631:16633   */\n      0x19\n        /* \"#utility.yul\":16611:16629   */\n      0x24\n      dup3\n      add\n        /* \"#utility.yul\":16604:16634   */\n      mstore\n        /* \"#utility.yul\":16670:16697   */\n      0x42696464657220616c7265616479207265676973746572656400000000000000\n        /* \"#utility.yul\":16650:16668   */\n      0x44\n      dup3\n      add\n        /* \"#utility.yul\":16643:16698   */\n      mstore\n        /* \"#utility.yul\":16715:16733   */\n      0x64\n      add\n        /* \".git/MyContracts/KenyaProcurementTransparency.sol\":9487:9552  require(!registeredBidders[_bidder], \"Bidder already registered\") */\n      tag_207\n        /* \"#utility.yul\":16390:16739   */\n      jump\n        /* \".git/MyContracts/KenyaProcurementTransparency.sol\":9487:9552  require(!registeredBidders[_bidder], \"Bidder already registered\") */\n    tag_341:\n      sub(shl(0xa0, 0x01), 0x01)\n        /* \".git/MyContracts/KenyaProcurementTransparency.sol\":9565:9591  registeredBidders[_bidder] */\n      dup3\n      and\n      0x00\n      dup2\n      dup2\n      mstore\n        /* \".git/MyContracts/KenyaProcurementTransparency.sol\":9565:9582  registeredBidders */\n      0x0a\n        /* \".git/MyContracts/KenyaProcurementTransparency.sol\":9565:9591  registeredBidders[_bidder] */\n      0x20\n      swap1\n      dup2\n      mstore\n      0x40\n      dup1\n      dup4\n      keccak256\n        /* \".git/MyContracts/KenyaProcurementTransparency.sol\":9565:9598  registeredBidders[_bidder] = true */\n      dup1\n      sload\n      not(0xff)\n      and\n        /* \".git/MyContracts/KenyaProcurementTransparency.sol\":9594:9598  true */\n      0x01\n        /* \".git/MyContracts/KenyaProcurementTransparency.sol\":9565:9598  registeredBidders[_bidder] = true */\n      swap1\n      dup2\n      or\n      swap1\n      swap2\n      sstore\n        /* \".git/MyContracts/KenyaProcurementTransparency.sol\":9609:9619  bidderList */\n      0x0c\n        /* \".git/MyContracts/KenyaProcurementTransparency.sol\":9609:9633  bidderList.push(_bidder) */\n      dup1\n      sload\n      swap2\n      dup3\n      add\n      dup2\n      sstore\n      swap1\n      swap4\n      mstore\n      0xdf6966c971051c3d54ec59162606531493a51404a002842f56009d7e5cf4a8c7\n      swap1\n      swap3\n      add\n      dup1\n      sload\n      not(sub(shl(0xa0, 0x01), 0x01))\n      and\n      dup5\n      or\n      swap1\n      sstore\n        /* \".git/MyContracts/KenyaProcurementTransparency.sol\":9651:9676  BidderRegistered(_bidder) */\n      swap1\n      mload\n        /* \"#utility.yul\":2243:2294   */\n      swap2\n      dup3\n      mstore\n        /* \".git/MyContracts/KenyaProcurementTransparency.sol\":9651:9676  BidderRegistered(_bidder) */\n      0x381919937473504a02352aede091840b8e02ca2ce85b2c8513022353225faf77\n      swap2\n        /* \"#utility.yul\":2216:2234   */\n      add\n        /* \".git/MyContracts/KenyaProcurementTransparency.sol\":9651:9676  BidderRegistered(_bidder) */\n      tag_211\n        /* \"#utility.yul\":2097:2300   */\n      jump\n        /* \".git/MyContracts/KenyaProcurementTransparency.sol\":12776:13658  function evaluateTender()... */\n    tag_107:\n        /* \".git/MyContracts/KenyaProcurementTransparency.sol\":3636:3641  admin */\n      and(sub(shl(0xa0, 0x01), 0x01), sload(0x00))\n        /* \".git/MyContracts/KenyaProcurementTransparency.sol\":3622:3632  msg.sender */\n      caller\n        /* \".git/MyContracts/KenyaProcurementTransparency.sol\":3622:3641  msg.sender != admin */\n      eq\n        /* \".git/MyContracts/KenyaProcurementTransparency.sol\":3618:3661  if (msg.sender != admin) revert OnlyAdmin() */\n      tag_347\n      jumpi\n        /* \".git/MyContracts/KenyaProcurementTransparency.sol\":3650:3661  OnlyAdmin() */\n      mload(0x40)\n      shl(0xe0, 0x47556579)\n      dup2\n      mstore\n      0x04\n      add\n      mload(0x40)\n      dup1\n      swap2\n      sub\n      swap1\n      revert\n        /* \".git/MyContracts/KenyaProcurementTransparency.sol\":3618:3661  if (msg.sender != admin) revert OnlyAdmin() */\n    tag_347:\n        /* \".git/MyContracts/KenyaProcurementTransparency.sol\":4249:4262  tender.exists */\n      and(0xff, sload(0x09))\n        /* \".git/MyContracts/KenyaProcurementTransparency.sol\":4244:4291  if (!tender.exists) revert TenderDoesNotExist() */\n      tag_349\n      jumpi\n        /* \".git/MyContracts/KenyaProcurementTransparency.sol\":4271:4291  TenderDoesNotExist() */\n      mload(0x40)\n      shl(0xe1, 0x55e9e641)\n      dup2\n      mstore\n      0x04\n      add\n      mload(0x40)\n      dup1\n      swap2\n      sub\n      swap1\n      revert\n        /* \".git/MyContracts/KenyaProcurementTransparency.sol\":4244:4291  if (!tender.exists) revert TenderDoesNotExist() */\n    tag_349:\n        /* \".git/MyContracts/KenyaProcurementTransparency.sol\":12879:12902  TenderStatus.RevealOpen */\n      0x01\n      dup1\n        /* \".git/MyContracts/KenyaProcurementTransparency.sol\":4979:4985  status */\n      sload(0x02)\n      shl(0xa0, 0x01)\n      swap1\n      div\n      0xff\n      and\n        /* \".git/MyContracts/KenyaProcurementTransparency.sol\":4979:4996  status != _status */\n      0x07\n      dup2\n      gt\n      iszero\n      tag_354\n      jumpi\n      tag_354\n      tag_201\n      jump\t// in\n    tag_354:\n      eq\n        /* \".git/MyContracts/KenyaProcurementTransparency.sol\":4975:5025  if (status != _status) revert InvalidTenderStage() */\n      tag_355\n      jumpi\n        /* \".git/MyContracts/KenyaProcurementTransparency.sol\":5005:5025  InvalidTenderStage() */\n      mload(0x40)\n      shl(0xe6, 0x0187fa83)\n      dup2\n      mstore\n      0x04\n      add\n      mload(0x40)\n      dup1\n      swap2\n      sub\n      swap1\n      revert\n        /* \".git/MyContracts/KenyaProcurementTransparency.sol\":4975:5025  if (status != _status) revert InvalidTenderStage() */\n    tag_355:\n        /* \".git/MyContracts/KenyaProcurementTransparency.sol\":12920:12938  address bestBidder */\n      0x00\n      not(0x00)\n      dup2\n        /* \".git/MyContracts/KenyaProcurementTransparency.sol\":13013:13415  for (uint256 i = 0; i < bidderList.length; i++) {... */\n    tag_357:\n        /* \".git/MyContracts/KenyaProcurementTransparency.sol\":13037:13047  bidderList */\n      0x0c\n        /* \".git/MyContracts/KenyaProcurementTransparency.sol\":13037:13054  bidderList.length */\n      sload\n        /* \".git/MyContracts/KenyaProcurementTransparency.sol\":13033:13054  i < bidderList.length */\n      dup2\n      lt\n        /* \".git/MyContracts/KenyaProcurementTransparency.sol\":13013:13415  for (uint256 i = 0; i < bidderList.length; i++) {... */\n      iszero\n      tag_358\n      jumpi\n        /* \".git/MyContracts/KenyaProcurementTransparency.sol\":13076:13090  address bidder */\n      0x00\n        /* \".git/MyContracts/KenyaProcurementTransparency.sol\":13093:13103  bidderList */\n      0x0c\n        /* \".git/MyContracts/KenyaProcurementTransparency.sol\":13104:13105  i */\n      dup3\n        /* \".git/MyContracts/KenyaProcurementTransparency.sol\":13093:13106  bidderList[i] */\n      dup2\n      sload\n      dup2\n      lt\n      tag_361\n      jumpi\n      tag_361\n      tag_362\n      jump\t// in\n    tag_361:\n      0x00\n      swap2\n      dup3\n      mstore\n      0x20\n      dup1\n      dup4\n      keccak256\n      swap1\n      swap2\n      add\n      sload\n      sub(shl(0xa0, 0x01), 0x01)\n      and\n        /* \".git/MyContracts/KenyaProcurementTransparency.sol\":13145:13157  bids[bidder] */\n      dup1\n      dup4\n      mstore\n        /* \".git/MyContracts/KenyaProcurementTransparency.sol\":13145:13149  bids */\n      0x0b\n        /* \".git/MyContracts/KenyaProcurementTransparency.sol\":13145:13157  bids[bidder] */\n      dup3\n      mstore\n      0x40\n      swap3\n      dup4\n      swap1\n      keccak256\n        /* \".git/MyContracts/KenyaProcurementTransparency.sol\":13121:13157  Bid memory currentBid = bids[bidder] */\n      dup4\n      mload\n      0xa0\n      dup2\n      add\n      dup6\n      mstore\n      dup2\n      sload\n      dup2\n      mstore\n        /* \".git/MyContracts/KenyaProcurementTransparency.sol\":13093:13106  bidderList[i] */\n      0x01\n        /* \".git/MyContracts/KenyaProcurementTransparency.sol\":13121:13157  Bid memory currentBid = bids[bidder] */\n      dup3\n      add\n      sload\n      0xff\n      dup1\n      dup3\n      and\n      iszero\n      iszero\n      swap6\n      dup4\n      add\n      swap6\n      swap1\n      swap6\n      mstore\n        /* \".git/MyContracts/KenyaProcurementTransparency.sol\":13093:13106  bidderList[i] */\n      0x0100\n        /* \".git/MyContracts/KenyaProcurementTransparency.sol\":13121:13157  Bid memory currentBid = bids[bidder] */\n      swap1\n      div\n      dup5\n      and\n      iszero\n      iszero\n      swap5\n      dup2\n      add\n      swap5\n      swap1\n      swap5\n      mstore\n      0x02\n      dup2\n      add\n      sload\n      0x60\n      dup6\n      add\n      mstore\n      0x03\n      add\n      sload\n      swap1\n      swap2\n      and\n      iszero\n      dup1\n      iszero\n      0x80\n      dup5\n      add\n      dup2\n      swap1\n      mstore\n        /* \".git/MyContracts/KenyaProcurementTransparency.sol\":13093:13106  bidderList[i] */\n      swap2\n      swap4\n      pop\n        /* \".git/MyContracts/KenyaProcurementTransparency.sol\":13178:13217  currentBid.valid && currentBid.revealed */\n      tag_364\n      jumpi\n      pop\n        /* \".git/MyContracts/KenyaProcurementTransparency.sol\":13198:13208  currentBid */\n      dup1\n        /* \".git/MyContracts/KenyaProcurementTransparency.sol\":13198:13217  currentBid.revealed */\n      0x40\n      add\n      mload\n        /* \".git/MyContracts/KenyaProcurementTransparency.sol\":13178:13217  currentBid.valid && currentBid.revealed */\n    tag_364:\n        /* \".git/MyContracts/KenyaProcurementTransparency.sol\":13174:13404  if (currentBid.valid && currentBid.revealed) {... */\n      iszero\n      tag_366\n      jumpi\n        /* \".git/MyContracts/KenyaProcurementTransparency.sol\":13262:13272  bestAmount */\n      dup4\n        /* \".git/MyContracts/KenyaProcurementTransparency.sol\":13242:13252  currentBid */\n      dup2\n        /* \".git/MyContracts/KenyaProcurementTransparency.sol\":13242:13259  currentBid.amount */\n      0x60\n      add\n      mload\n        /* \".git/MyContracts/KenyaProcurementTransparency.sol\":13242:13272  currentBid.amount < bestAmount */\n      lt\n        /* \".git/MyContracts/KenyaProcurementTransparency.sol\":13238:13389  if (currentBid.amount < bestAmount) {... */\n      iszero\n      tag_366\n      jumpi\n        /* \".git/MyContracts/KenyaProcurementTransparency.sol\":13310:13320  currentBid */\n      dup1\n        /* \".git/MyContracts/KenyaProcurementTransparency.sol\":13310:13327  currentBid.amount */\n      0x60\n      add\n      mload\n        /* \".git/MyContracts/KenyaProcurementTransparency.sol\":13297:13327  bestAmount = currentBid.amount */\n      swap4\n      pop\n        /* \".git/MyContracts/KenyaProcurementTransparency.sol\":13363:13369  bidder */\n      dup2\n        /* \".git/MyContracts/KenyaProcurementTransparency.sol\":13350:13369  bestBidder = bidder */\n      swap5\n      pop\n        /* \".git/MyContracts/KenyaProcurementTransparency.sol\":13238:13389  if (currentBid.amount < bestAmount) {... */\n    tag_366:\n      pop\n      pop\n        /* \".git/MyContracts/KenyaProcurementTransparency.sol\":13056:13059  i++ */\n      0x01\n      add\n        /* \".git/MyContracts/KenyaProcurementTransparency.sol\":13013:13415  for (uint256 i = 0; i < bidderList.length; i++) {... */\n      jump(tag_357)\n    tag_358:\n      pop\n      sub(shl(0xa0, 0x01), 0x01)\n        /* \".git/MyContracts/KenyaProcurementTransparency.sol\":13435:13459  bestBidder != address(0) */\n      dup3\n      and\n        /* \".git/MyContracts/KenyaProcurementTransparency.sol\":13427:13486  require(bestBidder != address(0), \"No valid revealed bids\") */\n      tag_367\n      jumpi\n      mload(0x40)\n      shl(0xe5, 0x461bcd)\n      dup2\n      mstore\n        /* \"#utility.yul\":17078:17080   */\n      0x20\n        /* \".git/MyContracts/KenyaProcurementTransparency.sol\":13427:13486  require(bestBidder != address(0), \"No valid revealed bids\") */\n      0x04\n      dup3\n      add\n        /* \"#utility.yul\":17060:17081   */\n      mstore\n        /* \"#utility.yul\":17117:17119   */\n      0x16\n        /* \"#utility.yul\":17097:17115   */\n      0x24\n      dup3\n      add\n        /* \"#utility.yul\":17090:17120   */\n      mstore\n      shl(0x50, 0x4e6f2076616c69642072657665616c65642062696473)\n        /* \"#utility.yul\":17136:17154   */\n      0x44\n      dup3\n      add\n        /* \"#utility.yul\":17129:17181   */\n      mstore\n        /* \"#utility.yul\":17198:17216   */\n      0x64\n      add\n        /* \".git/MyContracts/KenyaProcurementTransparency.sol\":13427:13486  require(bestBidder != address(0), \"No valid revealed bids\") */\n      tag_207\n        /* \"#utility.yul\":16876:17222   */\n      jump\n        /* \".git/MyContracts/KenyaProcurementTransparency.sol\":13427:13486  require(bestBidder != address(0), \"No valid revealed bids\") */\n    tag_367:\n        /* \".git/MyContracts/KenyaProcurementTransparency.sol\":13499:13505  winner */\n      0x0d\n        /* \".git/MyContracts/KenyaProcurementTransparency.sol\":13499:13518  winner = bestBidder */\n      dup1\n      sload\n      not(sub(shl(0xa0, 0x01), 0x01))\n      and\n      sub(shl(0xa0, 0x01), 0x01)\n      dup5\n      and\n      swap1\n      dup2\n      or\n      swap1\n      swap2\n      sstore\n        /* \".git/MyContracts/KenyaProcurementTransparency.sol\":13529:13538  lowestBid */\n      0x0e\n        /* \".git/MyContracts/KenyaProcurementTransparency.sol\":13529:13551  lowestBid = bestAmount */\n      dup3\n      swap1\n      sstore\n        /* \".git/MyContracts/KenyaProcurementTransparency.sol\":13571:13593  TenderStatus.Evaluated */\n      0x02\n        /* \".git/MyContracts/KenyaProcurementTransparency.sol\":13562:13593  status = TenderStatus.Evaluated */\n      dup1\n      sload\n      not(shl(0xa0, 0xff))\n      and\n      shl(0xa1, 0x01)\n      or\n      swap1\n      sstore\n        /* \".git/MyContracts/KenyaProcurementTransparency.sol\":13611:13650  TenderEvaluated(bestBidder, bestAmount) */\n      0x40\n      dup1\n      mload\n        /* \"#utility.yul\":9583:9634   */\n      swap2\n      dup3\n      mstore\n        /* \"#utility.yul\":9665:9667   */\n      0x20\n        /* \"#utility.yul\":9650:9668   */\n      dup3\n      add\n        /* \"#utility.yul\":9643:9677   */\n      dup4\n      swap1\n      mstore\n        /* \".git/MyContracts/KenyaProcurementTransparency.sol\":13611:13650  TenderEvaluated(bestBidder, bestAmount) */\n      dup1\n      mload\n      0x44a8e45b0547725a1b190fe91fba127f673b8cec941ceaf8b3e2e67d61055dfe\n      swap3\n      dup2\n      swap1\n      sub\n      swap1\n      swap2\n      add\n      swap1\n      log1\n        /* \".git/MyContracts/KenyaProcurementTransparency.sol\":12909:13658  {... */\n      pop\n      pop\n        /* \".git/MyContracts/KenyaProcurementTransparency.sol\":4302:4303  _ */\n      pop\n        /* \".git/MyContracts/KenyaProcurementTransparency.sol\":12776:13658  function evaluateTender()... */\n      jump\t// out\n        /* \".git/MyContracts/KenyaProcurementTransparency.sol\":1370:1390  Tender public tender */\n    tag_116:\n      0x03\n      dup1\n      sload\n      dup2\n      swap1\n      tag_373\n      swap1\n      tag_253\n      jump\t// in\n    tag_373:\n      dup1\n      0x1f\n      add\n      0x20\n      dup1\n      swap2\n      div\n      mul\n      0x20\n      add\n      mload(0x40)\n      swap1\n      dup2\n      add\n      0x40\n      mstore\n      dup1\n      swap3\n      swap2\n      swap1\n      dup2\n      dup2\n      mstore\n      0x20\n      add\n      dup3\n      dup1\n      sload\n      tag_374\n      swap1\n      tag_253\n      jump\t// in\n    tag_374:\n      dup1\n      iszero\n      tag_375\n      jumpi\n      dup1\n      0x1f\n      lt\n      tag_376\n      jumpi\n      0x0100\n      dup1\n      dup4\n      sload\n      div\n      mul\n      dup4\n      mstore\n      swap2\n      0x20\n      add\n      swap2\n      jump(tag_375)\n    tag_376:\n      dup3\n      add\n      swap2\n      swap1\n      0x00\n      mstore\n      keccak256(0x00, 0x20)\n      swap1\n    tag_377:\n      dup2\n      sload\n      dup2\n      mstore\n      swap1\n      0x01\n      add\n      swap1\n      0x20\n      add\n      dup1\n      dup4\n      gt\n      tag_377\n      jumpi\n      dup3\n      swap1\n      sub\n      0x1f\n      and\n      dup3\n      add\n      swap2\n    tag_375:\n      pop\n      pop\n      pop\n      pop\n      pop\n      swap1\n      dup1\n      0x01\n      add\n      dup1\n      sload\n      tag_378\n      swap1\n      tag_253\n      jump\t// in\n    tag_378:\n      dup1\n      0x1f\n      add\n      0x20\n      dup1\n      swap2\n      div\n      mul\n      0x20\n      add\n      mload(0x40)\n      swap1\n      dup2\n      add\n      0x40\n      mstore\n      dup1\n      swap3\n      swap2\n      swap1\n      dup2\n      dup2\n      mstore\n      0x20\n      add\n      dup3\n      dup1\n      sload\n      tag_379\n      swap1\n      tag_253\n      jump\t// in\n    tag_379:\n      dup1\n      iszero\n      tag_380\n      jumpi\n      dup1\n      0x1f\n      lt\n      tag_381\n      jumpi\n      0x0100\n      dup1\n      dup4\n      sload\n      div\n      mul\n      dup4\n      mstore\n      swap2\n      0x20\n      add\n      swap2\n      jump(tag_380)\n    tag_381:\n      dup3\n      add\n      swap2\n      swap1\n      0x00\n      mstore\n      keccak256(0x00, 0x20)\n      swap1\n    tag_382:\n      dup2\n      sload\n      dup2\n      mstore\n      swap1\n      0x01\n      add\n      swap1\n      0x20\n      add\n      dup1\n      dup4\n      gt\n      tag_382\n      jumpi\n      dup3\n      swap1\n      sub\n      0x1f\n      and\n      dup3\n      add\n      swap2\n    tag_380:\n      pop\n      pop\n      pop\n      pop\n      pop\n      swap1\n      dup1\n      0x02\n      add\n      dup1\n      sload\n      tag_383\n      swap1\n      tag_253\n      jump\t// in\n    tag_383:\n      dup1\n      0x1f\n      add\n      0x20\n      dup1\n      swap2\n      div\n      mul\n      0x20\n      add\n      mload(0x40)\n      swap1\n      dup2\n      add\n      0x40\n      mstore\n      dup1\n      swap3\n      swap2\n      swap1\n      dup2\n      dup2\n      mstore\n      0x20\n      add\n      dup3\n      dup1\n      sload\n      tag_384\n      swap1\n      tag_253\n      jump\t// in\n    tag_384:\n      dup1\n      iszero\n      tag_385\n      jumpi\n      dup1\n      0x1f\n      lt\n      tag_386\n      jumpi\n      0x0100\n      dup1\n      dup4\n      sload\n      div\n      mul\n      dup4\n      mstore\n      swap2\n      0x20\n      add\n      swap2\n      jump(tag_385)\n    tag_386:\n      dup3\n      add\n      swap2\n      swap1\n      0x00\n      mstore\n      keccak256(0x00, 0x20)\n      swap1\n    tag_387:\n      dup2\n      sload\n      dup2\n      mstore\n      swap1\n      0x01\n      add\n      swap1\n      0x20\n      add\n      dup1\n      dup4\n      gt\n      tag_387\n      jumpi\n      dup3\n      swap1\n      sub\n      0x1f\n      and\n      dup3\n      add\n      swap2\n    tag_385:\n      pop\n      pop\n      pop\n      pop\n      pop\n      swap1\n      dup1\n      0x03\n      add\n      sload\n      swap1\n      dup1\n      0x04\n      add\n      sload\n      swap1\n      dup1\n      0x05\n      add\n      dup1\n      sload\n      tag_388\n      swap1\n      tag_253\n      jump\t// in\n    tag_388:\n      dup1\n      0x1f\n      add\n      0x20\n      dup1\n      swap2\n      div\n      mul\n      0x20\n      add\n      mload(0x40)\n      swap1\n      dup2\n      add\n      0x40\n      mstore\n      dup1\n      swap3\n      swap2\n      swap1\n      dup2\n      dup2\n      mstore\n      0x20\n      add\n      dup3\n      dup1\n      sload\n      tag_389\n      swap1\n      tag_253\n      jump\t// in\n    tag_389:\n      dup1\n      iszero\n      tag_390\n      jumpi\n      dup1\n      0x1f\n      lt\n      tag_391\n      jumpi\n      0x0100\n      dup1\n      dup4\n      sload\n      div\n      mul\n      dup4\n      mstore\n      swap2\n      0x20\n      add\n      swap2\n      jump(tag_390)\n    tag_391:\n      dup3\n      add\n      swap2\n      swap1\n      0x00\n      mstore\n      keccak256(0x00, 0x20)\n      swap1\n    tag_392:\n      dup2\n      sload\n      dup2\n      mstore\n      swap1\n      0x01\n      add\n      swap1\n      0x20\n      add\n      dup1\n      dup4\n      gt\n      tag_392\n      jumpi\n      dup3\n      swap1\n      sub\n      0x1f\n      and\n      dup3\n      add\n      swap2\n    tag_390:\n      pop\n      pop\n      pop\n      0x06\n      swap1\n      swap4\n      add\n      sload\n      swap2\n      swap3\n      pop\n      pop\n      0xff\n      and\n      dup8\n      jump\t// out\n        /* \".git/MyContracts/KenyaProcurementTransparency.sol\":8442:8731  function transferAdmin(address _newAdmin) external onlyAdmin {... */\n    tag_127:\n        /* \".git/MyContracts/KenyaProcurementTransparency.sol\":3636:3641  admin */\n      and(sub(shl(0xa0, 0x01), 0x01), sload(0x00))\n        /* \".git/MyContracts/KenyaProcurementTransparency.sol\":3622:3632  msg.sender */\n      caller\n        /* \".git/MyContracts/KenyaProcurementTransparency.sol\":3622:3641  msg.sender != admin */\n      eq\n        /* \".git/MyContracts/KenyaProcurementTransparency.sol\":3618:3661  if (msg.sender != admin) revert OnlyAdmin() */\n      tag_395\n      jumpi\n        /* \".git/MyContracts/KenyaProcurementTransparency.sol\":3650:3661  OnlyAdmin() */\n      mload(0x40)\n      shl(0xe0, 0x47556579)\n      dup2\n      mstore\n      0x04\n      add\n      mload(0x40)\n      dup1\n      swap2\n      sub\n      swap1\n      revert\n        /* \".git/MyContracts/KenyaProcurementTransparency.sol\":3618:3661  if (msg.sender != admin) revert OnlyAdmin() */\n    tag_395:\n      sub(shl(0xa0, 0x01), 0x01)\n        /* \".git/MyContracts/KenyaProcurementTransparency.sol\":8522:8545  _newAdmin != address(0) */\n      dup2\n      and\n        /* \".git/MyContracts/KenyaProcurementTransparency.sol\":8514:8567  require(_newAdmin != address(0), \"Invalid new admin\") */\n      tag_397\n      jumpi\n      mload(0x40)\n      shl(0xe5, 0x461bcd)\n      dup2\n      mstore\n        /* \"#utility.yul\":17429:17431   */\n      0x20\n        /* \".git/MyContracts/KenyaProcurementTransparency.sol\":8514:8567  require(_newAdmin != address(0), \"Invalid new admin\") */\n      0x04\n      dup3\n      add\n        /* \"#utility.yul\":17411:17432   */\n      mstore\n        /* \"#utility.yul\":17468:17470   */\n      0x11\n        /* \"#utility.yul\":17448:17466   */\n      0x24\n      dup3\n      add\n        /* \"#utility.yul\":17441:17471   */\n      mstore\n      shl(0x79, 0x24b73b30b634b2103732bb9030b236b4b7)\n        /* \"#utility.yul\":17487:17505   */\n      0x44\n      dup3\n      add\n        /* \"#utility.yul\":17480:17527   */\n      mstore\n        /* \"#utility.yul\":17544:17562   */\n      0x64\n      add\n        /* \".git/MyContracts/KenyaProcurementTransparency.sol\":8514:8567  require(_newAdmin != address(0), \"Invalid new admin\") */\n      tag_207\n        /* \"#utility.yul\":17227:17568   */\n      jump\n        /* \".git/MyContracts/KenyaProcurementTransparency.sol\":8514:8567  require(_newAdmin != address(0), \"Invalid new admin\") */\n    tag_397:\n        /* \".git/MyContracts/KenyaProcurementTransparency.sol\":8599:8604  admin */\n      sload(0x00)\n      sub(shl(0xa0, 0x01), 0x01)\n      swap1\n      dup2\n      and\n        /* \".git/MyContracts/KenyaProcurementTransparency.sol\":8586:8604  _newAdmin != admin */\n      swap1\n      dup3\n      and\n      sub\n        /* \".git/MyContracts/KenyaProcurementTransparency.sol\":8578:8630  require(_newAdmin != admin, \"Already current admin\") */\n      tag_400\n      jumpi\n      mload(0x40)\n      shl(0xe5, 0x461bcd)\n      dup2\n      mstore\n        /* \"#utility.yul\":17775:17777   */\n      0x20\n        /* \".git/MyContracts/KenyaProcurementTransparency.sol\":8578:8630  require(_newAdmin != admin, \"Already current admin\") */\n      0x04\n      dup3\n      add\n        /* \"#utility.yul\":17757:17778   */\n      mstore\n        /* \"#utility.yul\":17814:17816   */\n      0x15\n        /* \"#utility.yul\":17794:17812   */\n      0x24\n      dup3\n      add\n        /* \"#utility.yul\":17787:17817   */\n      mstore\n      shl(0x59, 0x20b63932b0b23c9031bab93932b73a1030b236b4b7)\n        /* \"#utility.yul\":17833:17851   */\n      0x44\n      dup3\n      add\n        /* \"#utility.yul\":17826:17877   */\n      mstore\n        /* \"#utility.yul\":17894:17912   */\n      0x64\n      add\n        /* \".git/MyContracts/KenyaProcurementTransparency.sol\":8578:8630  require(_newAdmin != admin, \"Already current admin\") */\n      tag_207\n        /* \"#utility.yul\":17573:17918   */\n      jump\n        /* \".git/MyContracts/KenyaProcurementTransparency.sol\":8578:8630  require(_newAdmin != admin, \"Already current admin\") */\n    tag_400:\n        /* \".git/MyContracts/KenyaProcurementTransparency.sol\":8641:8653  pendingAdmin */\n      0x01\n        /* \".git/MyContracts/KenyaProcurementTransparency.sol\":8641:8665  pendingAdmin = _newAdmin */\n      dup1\n      sload\n      not(sub(shl(0xa0, 0x01), 0x01))\n      and\n      sub(shl(0xa0, 0x01), 0x01)\n      dup4\n      dup2\n      and\n      swap2\n      dup3\n      or\n      swap1\n      swap3\n      sstore\n      0x00\n        /* \".git/MyContracts/KenyaProcurementTransparency.sol\":8706:8711  admin */\n      dup1\n      sload\n        /* \".git/MyContracts/KenyaProcurementTransparency.sol\":8683:8723  AdminTransferInitiated(admin, _newAdmin) */\n      mload(0x40)\n        /* \".git/MyContracts/KenyaProcurementTransparency.sol\":8641:8665  pendingAdmin = _newAdmin */\n      swap3\n      swap4\n        /* \".git/MyContracts/KenyaProcurementTransparency.sol\":8706:8711  admin */\n      and\n      swap2\n        /* \".git/MyContracts/KenyaProcurementTransparency.sol\":8683:8723  AdminTransferInitiated(admin, _newAdmin) */\n      0xb4d7bcb4d9a5d6ef6e827e3b1554e5a2578ad9ca843903d42b05d08bfa345894\n      swap2\n      swap1\n      log3\n        /* \".git/MyContracts/KenyaProcurementTransparency.sol\":8442:8731  function transferAdmin(address _newAdmin) external onlyAdmin {... */\n      pop\n      jump\t// out\n        /* \".git/MyContracts/KenyaProcurementTransparency.sol\":14387:14945  function submitDeliveryEvidence(bytes32 _deliveryEvidenceHash)... */\n    tag_131:\n        /* \".git/MyContracts/KenyaProcurementTransparency.sol\":4249:4262  tender.exists */\n      and(0xff, sload(0x09))\n        /* \".git/MyContracts/KenyaProcurementTransparency.sol\":4244:4291  if (!tender.exists) revert TenderDoesNotExist() */\n      tag_404\n      jumpi\n        /* \".git/MyContracts/KenyaProcurementTransparency.sol\":4271:4291  TenderDoesNotExist() */\n      mload(0x40)\n      shl(0xe1, 0x55e9e641)\n      dup2\n      mstore\n      0x04\n      add\n      mload(0x40)\n      dup1\n      swap2\n      sub\n      swap1\n      revert\n        /* \".git/MyContracts/KenyaProcurementTransparency.sol\":4244:4291  if (!tender.exists) revert TenderDoesNotExist() */\n    tag_404:\n        /* \".git/MyContracts/KenyaProcurementTransparency.sol\":14508:14528  TenderStatus.Awarded */\n      0x03\n      dup1\n        /* \".git/MyContracts/KenyaProcurementTransparency.sol\":4979:4985  status */\n      sload(0x02)\n      shl(0xa0, 0x01)\n      swap1\n      div\n      0xff\n      and\n        /* \".git/MyContracts/KenyaProcurementTransparency.sol\":4979:4996  status != _status */\n      0x07\n      dup2\n      gt\n      iszero\n      tag_409\n      jumpi\n      tag_409\n      tag_201\n      jump\t// in\n    tag_409:\n      eq\n        /* \".git/MyContracts/KenyaProcurementTransparency.sol\":4975:5025  if (status != _status) revert InvalidTenderStage() */\n      tag_410\n      jumpi\n        /* \".git/MyContracts/KenyaProcurementTransparency.sol\":5005:5025  InvalidTenderStage() */\n      mload(0x40)\n      shl(0xe6, 0x0187fa83)\n      dup2\n      mstore\n      0x04\n      add\n      mload(0x40)\n      dup1\n      swap2\n      sub\n      swap1\n      revert\n        /* \".git/MyContracts/KenyaProcurementTransparency.sol\":4975:5025  if (status != _status) revert InvalidTenderStage() */\n    tag_410:\n        /* \".git/MyContracts/KenyaProcurementTransparency.sol\":14550:14559  inspector */\n      and(sub(shl(0xa0, 0x01), 0x01), sload(0x02))\n        /* \".git/MyContracts/KenyaProcurementTransparency.sol\":14546:14604  if (inspector == address(0)) revert InspectorNotAssigned() */\n      tag_412\n      jumpi\n        /* \".git/MyContracts/KenyaProcurementTransparency.sol\":14582:14604  InspectorNotAssigned() */\n      mload(0x40)\n      shl(0xe0, 0xd6ea3663)\n      dup2\n      mstore\n      0x04\n      add\n      mload(0x40)\n      dup1\n      swap2\n      sub\n      swap1\n      revert\n        /* \".git/MyContracts/KenyaProcurementTransparency.sol\":14546:14604  if (inspector == address(0)) revert InspectorNotAssigned() */\n    tag_412:\n        /* \".git/MyContracts/KenyaProcurementTransparency.sol\":14637:14643  winner */\n      and(sub(shl(0xa0, 0x01), 0x01), sload(0x0d))\n        /* \".git/MyContracts/KenyaProcurementTransparency.sol\":14623:14633  msg.sender */\n      caller\n        /* \".git/MyContracts/KenyaProcurementTransparency.sol\":14623:14643  msg.sender == winner */\n      eq\n        /* \".git/MyContracts/KenyaProcurementTransparency.sol\":14615:14679  require(msg.sender == winner, \"Only winner can submit delivery\") */\n      tag_413\n      jumpi\n      mload(0x40)\n      shl(0xe5, 0x461bcd)\n      dup2\n      mstore\n        /* \"#utility.yul\":18125:18127   */\n      0x20\n        /* \".git/MyContracts/KenyaProcurementTransparency.sol\":14615:14679  require(msg.sender == winner, \"Only winner can submit delivery\") */\n      0x04\n      dup3\n      add\n        /* \"#utility.yul\":18107:18128   */\n      mstore\n        /* \"#utility.yul\":18164:18166   */\n      0x1f\n        /* \"#utility.yul\":18144:18162   */\n      0x24\n      dup3\n      add\n        /* \"#utility.yul\":18137:18167   */\n      mstore\n        /* \"#utility.yul\":18203:18236   */\n      0x4f6e6c792077696e6e65722063616e207375626d69742064656c697665727900\n        /* \"#utility.yul\":18183:18201   */\n      0x44\n      dup3\n      add\n        /* \"#utility.yul\":18176:18237   */\n      mstore\n        /* \"#utility.yul\":18254:18272   */\n      0x64\n      add\n        /* \".git/MyContracts/KenyaProcurementTransparency.sol\":14615:14679  require(msg.sender == winner, \"Only winner can submit delivery\") */\n      tag_207\n        /* \"#utility.yul\":17923:18278   */\n      jump\n        /* \".git/MyContracts/KenyaProcurementTransparency.sol\":14615:14679  require(msg.sender == winner, \"Only winner can submit delivery\") */\n    tag_413:\n        /* \".git/MyContracts/KenyaProcurementTransparency.sol\":14698:14719  _deliveryEvidenceHash */\n      dup2\n        /* \".git/MyContracts/KenyaProcurementTransparency.sol\":14690:14768  require(_deliveryEvidenceHash != bytes32(0), \"Invalid delivery evidence hash\") */\n      tag_416\n      jumpi\n      mload(0x40)\n      shl(0xe5, 0x461bcd)\n      dup2\n      mstore\n        /* \"#utility.yul\":18485:18487   */\n      0x20\n        /* \".git/MyContracts/KenyaProcurementTransparency.sol\":14690:14768  require(_deliveryEvidenceHash != bytes32(0), \"Invalid delivery evidence hash\") */\n      0x04\n      dup3\n      add\n        /* \"#utility.yul\":18467:18488   */\n      mstore\n        /* \"#utility.yul\":18524:18526   */\n      0x1e\n        /* \"#utility.yul\":18504:18522   */\n      0x24\n      dup3\n      add\n        /* \"#utility.yul\":18497:18527   */\n      mstore\n        /* \"#utility.yul\":18563:18595   */\n      0x496e76616c69642064656c69766572792065766964656e636520686173680000\n        /* \"#utility.yul\":18543:18561   */\n      0x44\n      dup3\n      add\n        /* \"#utility.yul\":18536:18596   */\n      mstore\n        /* \"#utility.yul\":18613:18631   */\n      0x64\n      add\n        /* \".git/MyContracts/KenyaProcurementTransparency.sol\":14690:14768  require(_deliveryEvidenceHash != bytes32(0), \"Invalid delivery evidence hash\") */\n      tag_207\n        /* \"#utility.yul\":18283:18637   */\n      jump\n        /* \".git/MyContracts/KenyaProcurementTransparency.sol\":14690:14768  require(_deliveryEvidenceHash != bytes32(0), \"Invalid delivery evidence hash\") */\n    tag_416:\n        /* \".git/MyContracts/KenyaProcurementTransparency.sol\":14781:14801  deliveryEvidenceHash */\n      0x0f\n        /* \".git/MyContracts/KenyaProcurementTransparency.sol\":14781:14825  deliveryEvidenceHash = _deliveryEvidenceHash */\n      dup3\n      swap1\n      sstore\n        /* \".git/MyContracts/KenyaProcurementTransparency.sol\":14836:14842  status */\n      0x02\n        /* \".git/MyContracts/KenyaProcurementTransparency.sol\":14836:14867  status = TenderStatus.Delivered */\n      dup1\n      sload\n      not(shl(0xa0, 0xff))\n      and\n      shl(0xa2, 0x01)\n      or\n      swap1\n      sstore\n        /* \".git/MyContracts/KenyaProcurementTransparency.sol\":14885:14937  DeliverySubmitted(msg.sender, _deliveryEvidenceHash) */\n      0x40\n      dup1\n      mload\n        /* \".git/MyContracts/KenyaProcurementTransparency.sol\":14903:14913  msg.sender */\n      caller\n        /* \"#utility.yul\":9583:9634   */\n      dup2\n      mstore\n        /* \"#utility.yul\":9665:9667   */\n      0x20\n        /* \"#utility.yul\":9650:9668   */\n      dup2\n      add\n        /* \"#utility.yul\":9643:9677   */\n      dup5\n      swap1\n      mstore\n        /* \".git/MyContracts/KenyaProcurementTransparency.sol\":14885:14937  DeliverySubmitted(msg.sender, _deliveryEvidenceHash) */\n      0xae1f4649889be6b26bcf006a04c674019d1ebafaa07f234652d80cb084e77c57\n      swap2\n        /* \"#utility.yul\":9556:9574   */\n      add\n        /* \".git/MyContracts/KenyaProcurementTransparency.sol\":14885:14937  DeliverySubmitted(msg.sender, _deliveryEvidenceHash) */\n      tag_211\n        /* \"#utility.yul\":9409:9683   */\n      jump\n        /* \".git/MyContracts/KenyaProcurementTransparency.sol\":8847:9113  function acceptAdminRole() external {... */\n    tag_134:\n        /* \".git/MyContracts/KenyaProcurementTransparency.sol\":8916:8928  pendingAdmin */\n      and(sub(shl(0xa0, 0x01), 0x01), sload(0x01))\n        /* \".git/MyContracts/KenyaProcurementTransparency.sol\":8902:8912  msg.sender */\n      caller\n        /* \".git/MyContracts/KenyaProcurementTransparency.sol\":8902:8928  msg.sender == pendingAdmin */\n      eq\n        /* \".git/MyContracts/KenyaProcurementTransparency.sol\":8894:8950  require(msg.sender == pendingAdmin, \"Not pending admin\") */\n      tag_423\n      jumpi\n      mload(0x40)\n      shl(0xe5, 0x461bcd)\n      dup2\n      mstore\n        /* \"#utility.yul\":18844:18846   */\n      0x20\n        /* \".git/MyContracts/KenyaProcurementTransparency.sol\":8894:8950  require(msg.sender == pendingAdmin, \"Not pending admin\") */\n      0x04\n      dup3\n      add\n        /* \"#utility.yul\":18826:18847   */\n      mstore\n        /* \"#utility.yul\":18883:18885   */\n      0x11\n        /* \"#utility.yul\":18863:18881   */\n      0x24\n      dup3\n      add\n        /* \"#utility.yul\":18856:18886   */\n      mstore\n      shl(0x79, 0x2737ba103832b73234b7339030b236b4b7)\n        /* \"#utility.yul\":18902:18920   */\n      0x44\n      dup3\n      add\n        /* \"#utility.yul\":18895:18942   */\n      mstore\n        /* \"#utility.yul\":18959:18977   */\n      0x64\n      add\n        /* \".git/MyContracts/KenyaProcurementTransparency.sol\":8894:8950  require(msg.sender == pendingAdmin, \"Not pending admin\") */\n      tag_207\n        /* \"#utility.yul\":18642:18983   */\n      jump\n        /* \".git/MyContracts/KenyaProcurementTransparency.sol\":8894:8950  require(msg.sender == pendingAdmin, \"Not pending admin\") */\n    tag_423:\n        /* \".git/MyContracts/KenyaProcurementTransparency.sol\":8963:8979  address oldAdmin */\n      0x00\n        /* \".git/MyContracts/KenyaProcurementTransparency.sol\":8982:8987  admin */\n      dup1\n      sload\n      0x01\n        /* \".git/MyContracts/KenyaProcurementTransparency.sol\":9006:9018  pendingAdmin */\n      dup1\n      sload\n      sub(shl(0xa0, 0x01), 0x01)\n      dup1\n      dup3\n      and\n      not(sub(shl(0xa0, 0x01), 0x01))\n        /* \".git/MyContracts/KenyaProcurementTransparency.sol\":8998:9018  admin = pendingAdmin */\n      dup1\n      dup7\n      and\n      dup3\n      or\n      dup8\n      sstore\n        /* \".git/MyContracts/KenyaProcurementTransparency.sol\":9029:9054  pendingAdmin = address(0) */\n      swap1\n      swap3\n      and\n      swap1\n      swap3\n      sstore\n        /* \".git/MyContracts/KenyaProcurementTransparency.sol\":9072:9105  AdminTransferred(oldAdmin, admin) */\n      mload(0x40)\n        /* \".git/MyContracts/KenyaProcurementTransparency.sol\":8982:8987  admin */\n      swap2\n      swap1\n      swap3\n      and\n      swap3\n      dup4\n      swap2\n        /* \".git/MyContracts/KenyaProcurementTransparency.sol\":9072:9105  AdminTransferred(oldAdmin, admin) */\n      0xf8ccb027dfcd135e000e9d45e6cc2d662578a8825d4c45b5e32e0adf67e79ec6\n      swap2\n        /* \".git/MyContracts/KenyaProcurementTransparency.sol\":8963:8979  address oldAdmin */\n      swap1\n        /* \".git/MyContracts/KenyaProcurementTransparency.sol\":9072:9105  AdminTransferred(oldAdmin, admin) */\n      log3\n        /* \".git/MyContracts/KenyaProcurementTransparency.sol\":8883:9113  {... */\n      pop\n        /* \".git/MyContracts/KenyaProcurementTransparency.sol\":8847:9113  function acceptAdminRole() external {... */\n      jump\t// out\n        /* \".git/MyContracts/KenyaProcurementTransparency.sol\":6308:7620  function createTenderWithLocalTime(... */\n    tag_145:\n        /* \".git/MyContracts/KenyaProcurementTransparency.sol\":3636:3641  admin */\n      and(sub(shl(0xa0, 0x01), 0x01), sload(0x00))\n        /* \".git/MyContracts/KenyaProcurementTransparency.sol\":3622:3632  msg.sender */\n      caller\n        /* \".git/MyContracts/KenyaProcurementTransparency.sol\":3622:3641  msg.sender != admin */\n      eq\n        /* \".git/MyContracts/KenyaProcurementTransparency.sol\":3618:3661  if (msg.sender != admin) revert OnlyAdmin() */\n      tag_428\n      jumpi\n        /* \".git/MyContracts/KenyaProcurementTransparency.sol\":3650:3661  OnlyAdmin() */\n      mload(0x40)\n      shl(0xe0, 0x47556579)\n      dup2\n      mstore\n      0x04\n      add\n      mload(0x40)\n      dup1\n      swap2\n      sub\n      swap1\n      revert\n        /* \".git/MyContracts/KenyaProcurementTransparency.sol\":3618:3661  if (msg.sender != admin) revert OnlyAdmin() */\n    tag_428:\n        /* \".git/MyContracts/KenyaProcurementTransparency.sol\":6727:6740  tender.exists */\n      and(0xff, sload(0x09))\n        /* \".git/MyContracts/KenyaProcurementTransparency.sol\":6726:6740  !tender.exists */\n      iszero\n        /* \".git/MyContracts/KenyaProcurementTransparency.sol\":6718:6767  require(!tender.exists, \"Tender already created\") */\n      tag_430\n      jumpi\n      mload(0x40)\n      shl(0xe5, 0x461bcd)\n      dup2\n      mstore\n        /* \"#utility.yul\":19190:19192   */\n      0x20\n        /* \".git/MyContracts/KenyaProcurementTransparency.sol\":6718:6767  require(!tender.exists, \"Tender already created\") */\n      0x04\n      dup3\n      add\n        /* \"#utility.yul\":19172:19193   */\n      mstore\n        /* \"#utility.yul\":19229:19231   */\n      0x16\n        /* \"#utility.yul\":19209:19227   */\n      0x24\n      dup3\n      add\n        /* \"#utility.yul\":19202:19232   */\n      mstore\n      shl(0x52, 0x15195b99195c88185b1c9958591e4818dc99585d1959)\n        /* \"#utility.yul\":19248:19266   */\n      0x44\n      dup3\n      add\n        /* \"#utility.yul\":19241:19293   */\n      mstore\n        /* \"#utility.yul\":19310:19328   */\n      0x64\n      add\n        /* \".git/MyContracts/KenyaProcurementTransparency.sol\":6718:6767  require(!tender.exists, \"Tender already created\") */\n      tag_207\n        /* \"#utility.yul\":18988:19334   */\n      jump\n        /* \".git/MyContracts/KenyaProcurementTransparency.sol\":6718:6767  require(!tender.exists, \"Tender already created\") */\n    tag_430:\n        /* \".git/MyContracts/KenyaProcurementTransparency.sol\":6804:6805  0 */\n      0x00\n        /* \".git/MyContracts/KenyaProcurementTransparency.sol\":6786:6801  _contractAmount */\n      dup3\n        /* \".git/MyContracts/KenyaProcurementTransparency.sol\":6786:6805  _contractAmount > 0 */\n      gt\n        /* \".git/MyContracts/KenyaProcurementTransparency.sol\":6778:6851  require(_contractAmount > 0, \"Contract amount must be greater than zero\") */\n      tag_433\n      jumpi\n      mload(0x40)\n      shl(0xe5, 0x461bcd)\n      dup2\n      mstore\n        /* \"#utility.yul\":19541:19543   */\n      0x20\n        /* \".git/MyContracts/KenyaProcurementTransparency.sol\":6778:6851  require(_contractAmount > 0, \"Contract amount must be greater than zero\") */\n      0x04\n      dup3\n      add\n        /* \"#utility.yul\":19523:19544   */\n      mstore\n        /* \"#utility.yul\":19580:19582   */\n      0x29\n        /* \"#utility.yul\":19560:19578   */\n      0x24\n      dup3\n      add\n        /* \"#utility.yul\":19553:19583   */\n      mstore\n        /* \"#utility.yul\":19619:19653   */\n      0x436f6e747261637420616d6f756e74206d757374206265206772656174657220\n        /* \"#utility.yul\":19599:19617   */\n      0x44\n      dup3\n      add\n        /* \"#utility.yul\":19592:19654   */\n      mstore\n      shl(0xb8, 0x7468616e207a65726f)\n        /* \"#utility.yul\":19670:19688   */\n      0x64\n      dup3\n      add\n        /* \"#utility.yul\":19663:19702   */\n      mstore\n        /* \"#utility.yul\":19719:19738   */\n      0x84\n      add\n        /* \".git/MyContracts/KenyaProcurementTransparency.sol\":6778:6851  require(_contractAmount > 0, \"Contract amount must be greater than zero\") */\n      tag_207\n        /* \"#utility.yul\":19339:19744   */\n      jump\n        /* \".git/MyContracts/KenyaProcurementTransparency.sol\":6778:6851  require(_contractAmount > 0, \"Contract amount must be greater than zero\") */\n    tag_433:\n        /* \".git/MyContracts/KenyaProcurementTransparency.sol\":6864:6890  uint256 submissionDeadline */\n      0x00\n        /* \".git/MyContracts/KenyaProcurementTransparency.sol\":6893:7058  _toTimestampWithOffset(... */\n      tag_436\n        /* \".git/MyContracts/KenyaProcurementTransparency.sol\":6930:6935  _year */\n      dup10\n        /* \".git/MyContracts/KenyaProcurementTransparency.sol\":6950:6956  _month */\n      dup10\n        /* \".git/MyContracts/KenyaProcurementTransparency.sol\":6971:6975  _day */\n      dup10\n        /* \".git/MyContracts/KenyaProcurementTransparency.sol\":6990:6995  _hour */\n      dup10\n        /* \".git/MyContracts/KenyaProcurementTransparency.sol\":7010:7017  _minute */\n      dup10\n        /* \".git/MyContracts/KenyaProcurementTransparency.sol\":7032:7047  _utcOffsetHours */\n      dup10\n        /* \".git/MyContracts/KenyaProcurementTransparency.sol\":6893:6915  _toTimestampWithOffset */\n      tag_437\n        /* \".git/MyContracts/KenyaProcurementTransparency.sol\":6893:7058  _toTimestampWithOffset(... */\n      jump\t// in\n    tag_436:\n        /* \".git/MyContracts/KenyaProcurementTransparency.sol\":6864:7058  uint256 submissionDeadline = _toTimestampWithOffset(... */\n      swap1\n      pop\n        /* \".git/MyContracts/KenyaProcurementTransparency.sol\":7100:7115  block.timestamp */\n      timestamp\n        /* \".git/MyContracts/KenyaProcurementTransparency.sol\":7079:7097  submissionDeadline */\n      dup2\n        /* \".git/MyContracts/KenyaProcurementTransparency.sol\":7079:7115  submissionDeadline > block.timestamp */\n      gt\n        /* \".git/MyContracts/KenyaProcurementTransparency.sol\":7071:7150  require(submissionDeadline > block.timestamp, \"Deadline must be in the future\") */\n      tag_438\n      jumpi\n      mload(0x40)\n      shl(0xe5, 0x461bcd)\n      dup2\n      mstore\n        /* \"#utility.yul\":19951:19953   */\n      0x20\n        /* \".git/MyContracts/KenyaProcurementTransparency.sol\":7071:7150  require(submissionDeadline > block.timestamp, \"Deadline must be in the future\") */\n      0x04\n      dup3\n      add\n        /* \"#utility.yul\":19933:19954   */\n      mstore\n        /* \"#utility.yul\":19990:19992   */\n      0x1e\n        /* \"#utility.yul\":19970:19988   */\n      0x24\n      dup3\n      add\n        /* \"#utility.yul\":19963:19993   */\n      mstore\n        /* \"#utility.yul\":20029:20061   */\n      0x446561646c696e65206d75737420626520696e20746865206675747572650000\n        /* \"#utility.yul\":20009:20027   */\n      0x44\n      dup3\n      add\n        /* \"#utility.yul\":20002:20062   */\n      mstore\n        /* \"#utility.yul\":20079:20097   */\n      0x64\n      add\n        /* \".git/MyContracts/KenyaProcurementTransparency.sol\":7071:7150  require(submissionDeadline > block.timestamp, \"Deadline must be in the future\") */\n      tag_207\n        /* \"#utility.yul\":19749:20103   */\n      jump\n        /* \".git/MyContracts/KenyaProcurementTransparency.sol\":7071:7150  require(submissionDeadline > block.timestamp, \"Deadline must be in the future\") */\n    tag_438:\n        /* \".git/MyContracts/KenyaProcurementTransparency.sol\":7172:7479  Tender({... */\n      0x40\n      dup1\n      mload\n      0xe0\n      dup2\n      add\n      dup3\n      mstore\n      dup14\n      dup2\n      mstore\n      0x20\n      dup2\n      add\n      dup14\n      swap1\n      mstore\n      swap1\n      dup2\n      add\n      dup12\n      swap1\n      mstore\n      0x60\n      dup2\n      add\n      dup3\n      swap1\n      mstore\n      0x80\n      dup2\n      add\n      dup5\n      swap1\n      mstore\n      0xa0\n      dup2\n      add\n      dup4\n      swap1\n      mstore\n        /* \".git/MyContracts/KenyaProcurementTransparency.sol\":7463:7467  true */\n      0x01\n        /* \".git/MyContracts/KenyaProcurementTransparency.sol\":7172:7479  Tender({... */\n      0xc0\n      dup3\n      add\n      mstore\n        /* \".git/MyContracts/KenyaProcurementTransparency.sol\":7163:7169  tender */\n      0x03\n      dup1\n        /* \".git/MyContracts/KenyaProcurementTransparency.sol\":7163:7479  tender = Tender({... */\n      tag_441\n        /* \".git/MyContracts/KenyaProcurementTransparency.sol\":7208:7221  _tenderNumber */\n      dup16\n        /* \".git/MyContracts/KenyaProcurementTransparency.sol\":7163:7169  tender */\n      dup3\n        /* \".git/MyContracts/KenyaProcurementTransparency.sol\":7163:7479  tender = Tender({... */\n      tag_276\n      jump\t// in\n    tag_441:\n      pop\n      0x20\n      dup3\n      add\n      mload\n      0x01\n      dup3\n      add\n      swap1\n      tag_442\n      swap1\n      dup3\n      tag_276\n      jump\t// in\n    tag_442:\n      pop\n      0x40\n      dup3\n      add\n      mload\n      0x02\n      dup3\n      add\n      swap1\n      tag_443\n      swap1\n      dup3\n      tag_276\n      jump\t// in\n    tag_443:\n      pop\n      0x60\n      dup3\n      add\n      mload\n      0x03\n      dup3\n      add\n      sstore\n      0x80\n      dup3\n      add\n      mload\n      0x04\n      dup3\n      add\n      sstore\n      0xa0\n      dup3\n      add\n      mload\n      0x05\n      dup3\n      add\n      swap1\n      tag_444\n      swap1\n      dup3\n      tag_276\n      jump\t// in\n    tag_444:\n      pop\n      0xc0\n      swap2\n      swap1\n      swap2\n      add\n      mload\n      0x06\n      swap1\n      swap2\n      add\n      dup1\n      sload\n      not(0xff)\n      and\n      swap2\n      iszero\n      iszero\n      swap2\n      swap1\n      swap2\n      or\n      swap1\n      sstore\n        /* \".git/MyContracts/KenyaProcurementTransparency.sol\":7492:7498  status */\n      0x02\n        /* \".git/MyContracts/KenyaProcurementTransparency.sol\":7492:7521  status = TenderStatus.Created */\n      dup1\n      sload\n      not(shl(0xa0, 0xff))\n      and\n      swap1\n      sstore\n        /* \".git/MyContracts/KenyaProcurementTransparency.sol\":7539:7612  TenderCreated(_tenderNumber, _title, submissionDeadline, _contractAmount) */\n      mload(0x40)\n      0x1b8026edb59eb0a93ac326ac7a523b0055a7bd12f595a560e2e75e798f1d20f1\n      swap1\n      tag_447\n      swap1\n        /* \".git/MyContracts/KenyaProcurementTransparency.sol\":7553:7566  _tenderNumber */\n      dup15\n      swap1\n        /* \".git/MyContracts/KenyaProcurementTransparency.sol\":7568:7574  _title */\n      dup15\n      swap1\n        /* \".git/MyContracts/KenyaProcurementTransparency.sol\":7576:7594  submissionDeadline */\n      dup6\n      swap1\n        /* \".git/MyContracts/KenyaProcurementTransparency.sol\":7596:7611  _contractAmount */\n      dup9\n      swap1\n        /* \".git/MyContracts/KenyaProcurementTransparency.sol\":7539:7612  TenderCreated(_tenderNumber, _title, submissionDeadline, _contractAmount) */\n      tag_448\n      jump\t// in\n    tag_447:\n      mload(0x40)\n      dup1\n      swap2\n      sub\n      swap1\n      log1\n        /* \".git/MyContracts/KenyaProcurementTransparency.sol\":6707:7620  {... */\n      pop\n        /* \".git/MyContracts/KenyaProcurementTransparency.sol\":6308:7620  function createTenderWithLocalTime(... */\n      pop\n      pop\n      pop\n      pop\n      pop\n      pop\n      pop\n      pop\n      pop\n      pop\n      pop\n      jump\t// out\n        /* \".git/MyContracts/KenyaProcurementTransparency.sol\":16294:16347  function fundContract() external payable onlyAdmin {} */\n    tag_155:\n        /* \".git/MyContracts/KenyaProcurementTransparency.sol\":3636:3641  admin */\n      and(sub(shl(0xa0, 0x01), 0x01), sload(0x00))\n        /* \".git/MyContracts/KenyaProcurementTransparency.sol\":3622:3632  msg.sender */\n      caller\n        /* \".git/MyContracts/KenyaProcurementTransparency.sol\":3622:3641  msg.sender != admin */\n      eq\n        /* \".git/MyContracts/KenyaProcurementTransparency.sol\":3618:3661  if (msg.sender != admin) revert OnlyAdmin() */\n      tag_450\n      jumpi\n        /* \".git/MyContracts/KenyaProcurementTransparency.sol\":3650:3661  OnlyAdmin() */\n      mload(0x40)\n      shl(0xe0, 0x47556579)\n      dup2\n      mstore\n      0x04\n      add\n      mload(0x40)\n      dup1\n      swap2\n      sub\n      swap1\n      revert\n        /* \".git/MyContracts/KenyaProcurementTransparency.sol\":3618:3661  if (msg.sender != admin) revert OnlyAdmin() */\n    tag_450:\n        /* \".git/MyContracts/KenyaProcurementTransparency.sol\":16294:16347  function fundContract() external payable onlyAdmin {} */\n      jump\t// out\n        /* \".git/MyContracts/KenyaProcurementTransparency.sol\":13730:14021  function awardTender()... */\n    tag_166:\n        /* \".git/MyContracts/KenyaProcurementTransparency.sol\":3636:3641  admin */\n      and(sub(shl(0xa0, 0x01), 0x01), sload(0x00))\n        /* \".git/MyContracts/KenyaProcurementTransparency.sol\":3622:3632  msg.sender */\n      caller\n        /* \".git/MyContracts/KenyaProcurementTransparency.sol\":3622:3641  msg.sender != admin */\n      eq\n        /* \".git/MyContracts/KenyaProcurementTransparency.sol\":3618:3661  if (msg.sender != admin) revert OnlyAdmin() */\n      tag_454\n      jumpi\n        /* \".git/MyContracts/KenyaProcurementTransparency.sol\":3650:3661  OnlyAdmin() */\n      mload(0x40)\n      shl(0xe0, 0x47556579)\n      dup2\n      mstore\n      0x04\n      add\n      mload(0x40)\n      dup1\n      swap2\n      sub\n      swap1\n      revert\n        /* \".git/MyContracts/KenyaProcurementTransparency.sol\":3618:3661  if (msg.sender != admin) revert OnlyAdmin() */\n    tag_454:\n        /* \".git/MyContracts/KenyaProcurementTransparency.sol\":4249:4262  tender.exists */\n      and(0xff, sload(0x09))\n        /* \".git/MyContracts/KenyaProcurementTransparency.sol\":4244:4291  if (!tender.exists) revert TenderDoesNotExist() */\n      tag_456\n      jumpi\n        /* \".git/MyContracts/KenyaProcurementTransparency.sol\":4271:4291  TenderDoesNotExist() */\n      mload(0x40)\n      shl(0xe1, 0x55e9e641)\n      dup2\n      mstore\n      0x04\n      add\n      mload(0x40)\n      dup1\n      swap2\n      sub\n      swap1\n      revert\n        /* \".git/MyContracts/KenyaProcurementTransparency.sol\":4244:4291  if (!tender.exists) revert TenderDoesNotExist() */\n    tag_456:\n        /* \".git/MyContracts/KenyaProcurementTransparency.sol\":13830:13852  TenderStatus.Evaluated */\n      0x02\n      dup1\n        /* \".git/MyContracts/KenyaProcurementTransparency.sol\":4979:4985  status */\n      sload(0x02)\n      shl(0xa0, 0x01)\n      swap1\n      div\n      0xff\n      and\n        /* \".git/MyContracts/KenyaProcurementTransparency.sol\":4979:4996  status != _status */\n      0x07\n      dup2\n      gt\n      iszero\n      tag_461\n      jumpi\n      tag_461\n      tag_201\n      jump\t// in\n    tag_461:\n      eq\n        /* \".git/MyContracts/KenyaProcurementTransparency.sol\":4975:5025  if (status != _status) revert InvalidTenderStage() */\n      tag_462\n      jumpi\n        /* \".git/MyContracts/KenyaProcurementTransparency.sol\":5005:5025  InvalidTenderStage() */\n      mload(0x40)\n      shl(0xe6, 0x0187fa83)\n      dup2\n      mstore\n      0x04\n      add\n      mload(0x40)\n      dup1\n      swap2\n      sub\n      swap1\n      revert\n        /* \".git/MyContracts/KenyaProcurementTransparency.sol\":4975:5025  if (status != _status) revert InvalidTenderStage() */\n    tag_462:\n        /* \".git/MyContracts/KenyaProcurementTransparency.sol\":13878:13884  winner */\n      and(sub(shl(0xa0, 0x01), 0x01), sload(0x0d))\n        /* \".git/MyContracts/KenyaProcurementTransparency.sol\":13870:13921  require(winner != address(0), \"No winner selected\") */\n      tag_464\n      jumpi\n      mload(0x40)\n      shl(0xe5, 0x461bcd)\n      dup2\n      mstore\n        /* \"#utility.yul\":20842:20844   */\n      0x20\n        /* \".git/MyContracts/KenyaProcurementTransparency.sol\":13870:13921  require(winner != address(0), \"No winner selected\") */\n      0x04\n      dup3\n      add\n        /* \"#utility.yul\":20824:20845   */\n      mstore\n        /* \"#utility.yul\":20881:20883   */\n      0x12\n        /* \"#utility.yul\":20861:20879   */\n      0x24\n      dup3\n      add\n        /* \"#utility.yul\":20854:20884   */\n      mstore\n      shl(0x72, 0x139bc81dda5b9b995c881cd95b1958dd1959)\n        /* \"#utility.yul\":20900:20918   */\n      0x44\n      dup3\n      add\n        /* \"#utility.yul\":20893:20941   */\n      mstore\n        /* \"#utility.yul\":20958:20976   */\n      0x64\n      add\n        /* \".git/MyContracts/KenyaProcurementTransparency.sol\":13870:13921  require(winner != address(0), \"No winner selected\") */\n      tag_207\n        /* \"#utility.yul\":20640:20982   */\n      jump\n        /* \".git/MyContracts/KenyaProcurementTransparency.sol\":13870:13921  require(winner != address(0), \"No winner selected\") */\n    tag_464:\n        /* \".git/MyContracts/KenyaProcurementTransparency.sol\":13934:13940  status */\n      0x02\n        /* \".git/MyContracts/KenyaProcurementTransparency.sol\":13934:13963  status = TenderStatus.Awarded */\n      dup1\n      sload\n      not(shl(0xa0, 0xff))\n      and\n      shl(0xa0, 0x03)\n      or\n      swap1\n      sstore\n        /* \".git/MyContracts/KenyaProcurementTransparency.sol\":13995:14001  winner */\n      sload(0x0d)\n        /* \".git/MyContracts/KenyaProcurementTransparency.sol\":14003:14012  lowestBid */\n      sload(0x0e)\n        /* \".git/MyContracts/KenyaProcurementTransparency.sol\":13981:14013  TenderAwarded(winner, lowestBid) */\n      0x40\n      dup1\n      mload\n      sub(shl(0xa0, 0x01), 0x01)\n        /* \".git/MyContracts/KenyaProcurementTransparency.sol\":13995:14001  winner */\n      swap1\n      swap4\n      and\n        /* \"#utility.yul\":9583:9634   */\n      dup4\n      mstore\n        /* \"#utility.yul\":9665:9667   */\n      0x20\n        /* \"#utility.yul\":9650:9668   */\n      dup4\n      add\n        /* \"#utility.yul\":9643:9677   */\n      swap2\n      swap1\n      swap2\n      mstore\n        /* \".git/MyContracts/KenyaProcurementTransparency.sol\":13981:14013  TenderAwarded(winner, lowestBid) */\n      0xb973b46a8f1e88b970a622bf0cf618b80895efa9af0b01edd9b2608fb8a6914e\n      swap2\n        /* \"#utility.yul\":9556:9574   */\n      add\n        /* \".git/MyContracts/KenyaProcurementTransparency.sol\":13981:14013  TenderAwarded(winner, lowestBid) */\n      tag_306\n        /* \"#utility.yul\":9409:9683   */\n      jump\n        /* \".git/MyContracts/KenyaProcurementTransparency.sol\":16440:16996  function releasePayment()... */\n    tag_169:\n        /* \".git/MyContracts/KenyaProcurementTransparency.sol\":3636:3641  admin */\n      and(sub(shl(0xa0, 0x01), 0x01), sload(0x00))\n        /* \".git/MyContracts/KenyaProcurementTransparency.sol\":3622:3632  msg.sender */\n      caller\n        /* \".git/MyContracts/KenyaProcurementTransparency.sol\":3622:3641  msg.sender != admin */\n      eq\n        /* \".git/MyContracts/KenyaProcurementTransparency.sol\":3618:3661  if (msg.sender != admin) revert OnlyAdmin() */\n      tag_471\n      jumpi\n        /* \".git/MyContracts/KenyaProcurementTransparency.sol\":3650:3661  OnlyAdmin() */\n      mload(0x40)\n      shl(0xe0, 0x47556579)\n      dup2\n      mstore\n      0x04\n      add\n      mload(0x40)\n      dup1\n      swap2\n      sub\n      swap1\n      revert\n        /* \".git/MyContracts/KenyaProcurementTransparency.sol\":3618:3661  if (msg.sender != admin) revert OnlyAdmin() */\n    tag_471:\n        /* \".git/MyContracts/KenyaProcurementTransparency.sol\":4249:4262  tender.exists */\n      and(0xff, sload(0x09))\n        /* \".git/MyContracts/KenyaProcurementTransparency.sol\":4244:4291  if (!tender.exists) revert TenderDoesNotExist() */\n      tag_473\n      jumpi\n        /* \".git/MyContracts/KenyaProcurementTransparency.sol\":4271:4291  TenderDoesNotExist() */\n      mload(0x40)\n      shl(0xe1, 0x55e9e641)\n      dup2\n      mstore\n      0x04\n      add\n      mload(0x40)\n      dup1\n      swap2\n      sub\n      swap1\n      revert\n        /* \".git/MyContracts/KenyaProcurementTransparency.sol\":4244:4291  if (!tender.exists) revert TenderDoesNotExist() */\n    tag_473:\n        /* \".git/MyContracts/KenyaProcurementTransparency.sol\":16543:16564  TenderStatus.Accepted */\n      0x06\n      dup1\n        /* \".git/MyContracts/KenyaProcurementTransparency.sol\":4979:4985  status */\n      sload(0x02)\n      shl(0xa0, 0x01)\n      swap1\n      div\n      0xff\n      and\n        /* \".git/MyContracts/KenyaProcurementTransparency.sol\":4979:4996  status != _status */\n      0x07\n      dup2\n      gt\n      iszero\n      tag_478\n      jumpi\n      tag_478\n      tag_201\n      jump\t// in\n    tag_478:\n      eq\n        /* \".git/MyContracts/KenyaProcurementTransparency.sol\":4975:5025  if (status != _status) revert InvalidTenderStage() */\n      tag_479\n      jumpi\n        /* \".git/MyContracts/KenyaProcurementTransparency.sol\":5005:5025  InvalidTenderStage() */\n      mload(0x40)\n      shl(0xe6, 0x0187fa83)\n      dup2\n      mstore\n      0x04\n      add\n      mload(0x40)\n      dup1\n      swap2\n      sub\n      swap1\n      revert\n        /* \".git/MyContracts/KenyaProcurementTransparency.sol\":4975:5025  if (status != _status) revert InvalidTenderStage() */\n    tag_479:\n        /* \".git/MyContracts/KenyaProcurementTransparency.sol\":16591:16606  paymentReleased */\n      and(0xff, sload(0x12))\n        /* \".git/MyContracts/KenyaProcurementTransparency.sol\":16590:16606  !paymentReleased */\n      iszero\n        /* \".git/MyContracts/KenyaProcurementTransparency.sol\":16582:16635  require(!paymentReleased, \"Payment already released\") */\n      tag_481\n      jumpi\n      mload(0x40)\n      shl(0xe5, 0x461bcd)\n      dup2\n      mstore\n        /* \"#utility.yul\":21189:21191   */\n      0x20\n        /* \".git/MyContracts/KenyaProcurementTransparency.sol\":16582:16635  require(!paymentReleased, \"Payment already released\") */\n      0x04\n      dup3\n      add\n        /* \"#utility.yul\":21171:21192   */\n      mstore\n        /* \"#utility.yul\":21228:21230   */\n      0x18\n        /* \"#utility.yul\":21208:21226   */\n      0x24\n      dup3\n      add\n        /* \"#utility.yul\":21201:21231   */\n      mstore\n        /* \"#utility.yul\":21267:21293   */\n      0x5061796d656e7420616c72656164792072656c65617365640000000000000000\n        /* \"#utility.yul\":21247:21265   */\n      0x44\n      dup3\n      add\n        /* \"#utility.yul\":21240:21294   */\n      mstore\n        /* \"#utility.yul\":21311:21329   */\n      0x64\n      add\n        /* \".git/MyContracts/KenyaProcurementTransparency.sol\":16582:16635  require(!paymentReleased, \"Payment already released\") */\n      tag_207\n        /* \"#utility.yul\":20987:21335   */\n      jump\n        /* \".git/MyContracts/KenyaProcurementTransparency.sol\":16582:16635  require(!paymentReleased, \"Payment already released\") */\n    tag_481:\n        /* \".git/MyContracts/KenyaProcurementTransparency.sol\":16654:16660  winner */\n      and(sub(shl(0xa0, 0x01), 0x01), sload(0x0d))\n        /* \".git/MyContracts/KenyaProcurementTransparency.sol\":16646:16693  require(winner != address(0), \"Winner not set\") */\n      tag_484\n      jumpi\n      mload(0x40)\n      shl(0xe5, 0x461bcd)\n      dup2\n      mstore\n        /* \"#utility.yul\":21542:21544   */\n      0x20\n        /* \".git/MyContracts/KenyaProcurementTransparency.sol\":16646:16693  require(winner != address(0), \"Winner not set\") */\n      0x04\n      dup3\n      add\n        /* \"#utility.yul\":21524:21545   */\n      mstore\n        /* \"#utility.yul\":21581:21583   */\n      0x0e\n        /* \"#utility.yul\":21561:21579   */\n      0x24\n      dup3\n      add\n        /* \"#utility.yul\":21554:21584   */\n      mstore\n      shl(0x92, 0x15da5b9b995c881b9bdd081cd95d)\n        /* \"#utility.yul\":21600:21618   */\n      0x44\n      dup3\n      add\n        /* \"#utility.yul\":21593:21637   */\n      mstore\n        /* \"#utility.yul\":21654:21672   */\n      0x64\n      add\n        /* \".git/MyContracts/KenyaProcurementTransparency.sol\":16646:16693  require(winner != address(0), \"Winner not set\") */\n      tag_207\n        /* \"#utility.yul\":21340:21678   */\n      jump\n        /* \".git/MyContracts/KenyaProcurementTransparency.sol\":16646:16693  require(winner != address(0), \"Winner not set\") */\n    tag_484:\n        /* \".git/MyContracts/KenyaProcurementTransparency.sol\":16737:16758  tender.contractAmount */\n      sload(0x07)\n        /* \".git/MyContracts/KenyaProcurementTransparency.sol\":16712:16733  address(this).balance */\n      selfbalance\n        /* \".git/MyContracts/KenyaProcurementTransparency.sol\":16712:16758  address(this).balance >= tender.contractAmount */\n      lt\n      iszero\n        /* \".git/MyContracts/KenyaProcurementTransparency.sol\":16704:16792  require(address(this).balance >= tender.contractAmount, \"Insufficient contract balance\") */\n      tag_487\n      jumpi\n      mload(0x40)\n      shl(0xe5, 0x461bcd)\n      dup2\n      mstore\n        /* \"#utility.yul\":21885:21887   */\n      0x20\n        /* \".git/MyContracts/KenyaProcurementTransparency.sol\":16704:16792  require(address(this).balance >= tender.contractAmount, \"Insufficient contract balance\") */\n      0x04\n      dup3\n      add\n        /* \"#utility.yul\":21867:21888   */\n      mstore\n        /* \"#utility.yul\":21924:21926   */\n      0x1d\n        /* \"#utility.yul\":21904:21922   */\n      0x24\n      dup3\n      add\n        /* \"#utility.yul\":21897:21927   */\n      mstore\n        /* \"#utility.yul\":21963:21994   */\n      0x496e73756666696369656e7420636f6e74726163742062616c616e6365000000\n        /* \"#utility.yul\":21943:21961   */\n      0x44\n      dup3\n      add\n        /* \"#utility.yul\":21936:21995   */\n      mstore\n        /* \"#utility.yul\":22012:22030   */\n      0x64\n      add\n        /* \".git/MyContracts/KenyaProcurementTransparency.sol\":16704:16792  require(address(this).balance >= tender.contractAmount, \"Insufficient contract balance\") */\n      tag_207\n        /* \"#utility.yul\":21683:22036   */\n      jump\n        /* \".git/MyContracts/KenyaProcurementTransparency.sol\":16704:16792  require(address(this).balance >= tender.contractAmount, \"Insufficient contract balance\") */\n    tag_487:\n        /* \".git/MyContracts/KenyaProcurementTransparency.sol\":16805:16820  paymentReleased */\n      0x12\n        /* \".git/MyContracts/KenyaProcurementTransparency.sol\":16805:16827  paymentReleased = true */\n      dup1\n      sload\n      not(0xff)\n      and\n        /* \".git/MyContracts/KenyaProcurementTransparency.sol\":16823:16827  true */\n      0x01\n        /* \".git/MyContracts/KenyaProcurementTransparency.sol\":16805:16827  paymentReleased = true */\n      or\n      swap1\n      sstore\n        /* \".git/MyContracts/KenyaProcurementTransparency.sol\":16838:16844  status */\n      0x02\n        /* \".git/MyContracts/KenyaProcurementTransparency.sol\":16838:16864  status = TenderStatus.Paid */\n      dup1\n      sload\n      not(shl(0xa0, 0xff))\n      and\n      shl(0xa0, 0x07)\n      or\n      swap1\n      sstore\n        /* \".git/MyContracts/KenyaProcurementTransparency.sol\":16885:16891  winner */\n      sload(0x0d)\n        /* \".git/MyContracts/KenyaProcurementTransparency.sol\":16847:16864  TenderStatus.Paid */\n      0x07\n        /* \".git/MyContracts/KenyaProcurementTransparency.sol\":16902:16923  tender.contractAmount */\n      sload\n        /* \".git/MyContracts/KenyaProcurementTransparency.sol\":16877:16924  payable(winner).transfer(tender.contractAmount) */\n      mload(0x40)\n      sub(shl(0xa0, 0x01), 0x01)\n        /* \".git/MyContracts/KenyaProcurementTransparency.sol\":16885:16891  winner */\n      swap1\n      swap3\n      and\n      swap2\n        /* \".git/MyContracts/KenyaProcurementTransparency.sol\":16877:16924  payable(winner).transfer(tender.contractAmount) */\n      dup2\n      iszero\n      0x08fc\n      mul\n      swap2\n        /* \".git/MyContracts/KenyaProcurementTransparency.sol\":16902:16923  tender.contractAmount */\n      swap1\n      0x00\n        /* \".git/MyContracts/KenyaProcurementTransparency.sol\":16877:16924  payable(winner).transfer(tender.contractAmount) */\n      dup2\n      dup2\n      dup2\n        /* \".git/MyContracts/KenyaProcurementTransparency.sol\":16902:16923  tender.contractAmount */\n      dup6\n        /* \".git/MyContracts/KenyaProcurementTransparency.sol\":16885:16891  winner */\n      dup9\n        /* \".git/MyContracts/KenyaProcurementTransparency.sol\":16877:16924  payable(winner).transfer(tender.contractAmount) */\n      dup9\n      call\n      swap4\n      pop\n      pop\n      pop\n      pop\n      iszero\n      dup1\n      iszero\n      tag_493\n      jumpi\n      returndatacopy(0x00, 0x00, returndatasize)\n      revert(0x00, returndatasize)\n    tag_493:\n      pop\n        /* \".git/MyContracts/KenyaProcurementTransparency.sol\":16958:16964  winner */\n      sload(0x0d)\n        /* \".git/MyContracts/KenyaProcurementTransparency.sol\":16966:16987  tender.contractAmount */\n      sload(0x07)\n        /* \".git/MyContracts/KenyaProcurementTransparency.sol\":16942:16988  PaymentReleased(winner, tender.contractAmount) */\n      0x40\n      dup1\n      mload\n      sub(shl(0xa0, 0x01), 0x01)\n        /* \".git/MyContracts/KenyaProcurementTransparency.sol\":16958:16964  winner */\n      swap1\n      swap4\n      and\n        /* \"#utility.yul\":9583:9634   */\n      dup4\n      mstore\n        /* \"#utility.yul\":9665:9667   */\n      0x20\n        /* \"#utility.yul\":9650:9668   */\n      dup4\n      add\n        /* \"#utility.yul\":9643:9677   */\n      swap2\n      swap1\n      swap2\n      mstore\n        /* \".git/MyContracts/KenyaProcurementTransparency.sol\":16942:16988  PaymentReleased(winner, tender.contractAmount) */\n      0xdf20fd1e76bc69d672e4814fafb2c449bba3a5369d8359adf9e05e6fde87b056\n      swap2\n        /* \"#utility.yul\":9556:9574   */\n      add\n        /* \".git/MyContracts/KenyaProcurementTransparency.sol\":16942:16988  PaymentReleased(winner, tender.contractAmount) */\n      tag_306\n        /* \"#utility.yul\":9409:9683   */\n      jump\n        /* \".git/MyContracts/KenyaProcurementTransparency.sol\":1497:1524  address[] public bidderList */\n    tag_174:\n      0x0c\n      dup2\n      dup2\n      sload\n      dup2\n      lt\n      tag_495\n      jumpi\n      0x00\n      dup1\n      revert\n    tag_495:\n      0x00\n      swap2\n      dup3\n      mstore\n      0x20\n      swap1\n      swap2\n      keccak256\n      add\n      sload\n      sub(shl(0xa0, 0x01), 0x01)\n      and\n      swap1\n      pop\n      dup2\n      jump\t// out\n        /* \".git/MyContracts/KenyaProcurementTransparency.sol\":18883:19638  function getTenderSummary()... */\n    tag_182:\n        /* \".git/MyContracts/KenyaProcurementTransparency.sol\":18975:19001  string memory tenderNumber */\n      0x60\n        /* \".git/MyContracts/KenyaProcurementTransparency.sol\":19016:19035  string memory title */\n      dup1\n        /* \".git/MyContracts/KenyaProcurementTransparency.sol\":19050:19075  string memory description */\n      0x60\n        /* \".git/MyContracts/KenyaProcurementTransparency.sol\":19090:19116  uint256 submissionDeadline */\n      0x00\n        /* \".git/MyContracts/KenyaProcurementTransparency.sol\":19131:19153  uint256 contractAmount */\n      0x00\n        /* \".git/MyContracts/KenyaProcurementTransparency.sol\":19168:19199  string memory qualificationNote */\n      0x60\n        /* \".git/MyContracts/KenyaProcurementTransparency.sol\":19214:19240  TenderStatus currentStatus */\n      0x00\n        /* \".git/MyContracts/KenyaProcurementTransparency.sol\":19255:19276  address currentWinner */\n      0x00\n        /* \".git/MyContracts/KenyaProcurementTransparency.sol\":19291:19309  uint256 winningBid */\n      0x00\n        /* \".git/MyContracts/KenyaProcurementTransparency.sol\":19359:19365  tender */\n      0x03\n        /* \".git/MyContracts/KenyaProcurementTransparency.sol\":19359:19378  tender.tenderNumber */\n      0x00\n      add\n        /* \".git/MyContracts/KenyaProcurementTransparency.sol\":19393:19399  tender */\n      0x03\n        /* \".git/MyContracts/KenyaProcurementTransparency.sol\":19393:19405  tender.title */\n      0x01\n      add\n        /* \".git/MyContracts/KenyaProcurementTransparency.sol\":19420:19426  tender */\n      0x03\n        /* \".git/MyContracts/KenyaProcurementTransparency.sol\":19420:19438  tender.description */\n      0x02\n      add\n        /* \".git/MyContracts/KenyaProcurementTransparency.sol\":19453:19459  tender */\n      0x03\n        /* \".git/MyContracts/KenyaProcurementTransparency.sol\":19453:19478  tender.submissionDeadline */\n      dup1\n      add\n      sload\n        /* \".git/MyContracts/KenyaProcurementTransparency.sol\":19493:19499  tender */\n      0x03\n        /* \".git/MyContracts/KenyaProcurementTransparency.sol\":19493:19514  tender.contractAmount */\n      0x04\n      add\n      sload\n        /* \".git/MyContracts/KenyaProcurementTransparency.sol\":19529:19535  tender */\n      0x03\n        /* \".git/MyContracts/KenyaProcurementTransparency.sol\":19529:19553  tender.qualificationNote */\n      0x05\n      add\n        /* \".git/MyContracts/KenyaProcurementTransparency.sol\":19568:19574  status */\n      0x02\n      0x14\n      swap1\n      sload\n      swap1\n      0x0100\n      exp\n      swap1\n      div\n      0xff\n      and\n        /* \".git/MyContracts/KenyaProcurementTransparency.sol\":19589:19595  winner */\n      0x0d\n      0x00\n      swap1\n      sload\n      swap1\n      0x0100\n      exp\n      swap1\n      div\n      sub(shl(0xa0, 0x01), 0x01)\n      and\n        /* \".git/MyContracts/KenyaProcurementTransparency.sol\":19610:19619  lowestBid */\n      sload(0x0e)\n        /* \".git/MyContracts/KenyaProcurementTransparency.sol\":19337:19630  return (... */\n      dup9\n      dup1\n      sload\n      tag_498\n      swap1\n      tag_253\n      jump\t// in\n    tag_498:\n      dup1\n      0x1f\n      add\n      0x20\n      dup1\n      swap2\n      div\n      mul\n      0x20\n      add\n      mload(0x40)\n      swap1\n      dup2\n      add\n      0x40\n      mstore\n      dup1\n      swap3\n      swap2\n      swap1\n      dup2\n      dup2\n      mstore\n      0x20\n      add\n      dup3\n      dup1\n      sload\n      tag_499\n      swap1\n      tag_253\n      jump\t// in\n    tag_499:\n      dup1\n      iszero\n      tag_500\n      jumpi\n      dup1\n      0x1f\n      lt\n      tag_501\n      jumpi\n      0x0100\n      dup1\n      dup4\n      sload\n      div\n      mul\n      dup4\n      mstore\n      swap2\n      0x20\n      add\n      swap2\n      jump(tag_500)\n    tag_501:\n      dup3\n      add\n      swap2\n      swap1\n      0x00\n      mstore\n      keccak256(0x00, 0x20)\n      swap1\n    tag_502:\n      dup2\n      sload\n      dup2\n      mstore\n      swap1\n      0x01\n      add\n      swap1\n      0x20\n      add\n      dup1\n      dup4\n      gt\n      tag_502\n      jumpi\n      dup3\n      swap1\n      sub\n      0x1f\n      and\n      dup3\n      add\n      swap2\n    tag_500:\n      pop\n      pop\n      pop\n      pop\n      pop\n      swap9\n      pop\n      dup8\n      dup1\n      sload\n      tag_503\n      swap1\n      tag_253\n      jump\t// in\n    tag_503:\n      dup1\n      0x1f\n      add\n      0x20\n      dup1\n      swap2\n      div\n      mul\n      0x20\n      add\n      mload(0x40)\n      swap1\n      dup2\n      add\n      0x40\n      mstore\n      dup1\n      swap3\n      swap2\n      swap1\n      dup2\n      dup2\n      mstore\n      0x20\n      add\n      dup3\n      dup1\n      sload\n      tag_504\n      swap1\n      tag_253\n      jump\t// in\n    tag_504:\n      dup1\n      iszero\n      tag_505\n      jumpi\n      dup1\n      0x1f\n      lt\n      tag_506\n      jumpi\n      0x0100\n      dup1\n      dup4\n      sload\n      div\n      mul\n      dup4\n      mstore\n      swap2\n      0x20\n      add\n      swap2\n      jump(tag_505)\n    tag_506:\n      dup3\n      add\n      swap2\n      swap1\n      0x00\n      mstore\n      keccak256(0x00, 0x20)\n      swap1\n    tag_507:\n      dup2\n      sload\n      dup2\n      mstore\n      swap1\n      0x01\n      add\n      swap1\n      0x20\n      add\n      dup1\n      dup4\n      gt\n      tag_507\n      jumpi\n      dup3\n      swap1\n      sub\n      0x1f\n      and\n      dup3\n      add\n      swap2\n    tag_505:\n      pop\n      pop\n      pop\n      pop\n      pop\n      swap8\n      pop\n      dup7\n      dup1\n      sload\n      tag_508\n      swap1\n      tag_253\n      jump\t// in\n    tag_508:\n      dup1\n      0x1f\n      add\n      0x20\n      dup1\n      swap2\n      div\n      mul\n      0x20\n      add\n      mload(0x40)\n      swap1\n      dup2\n      add\n      0x40\n      mstore\n      dup1\n      swap3\n      swap2\n      swap1\n      dup2\n      dup2\n      mstore\n      0x20\n      add\n      dup3\n      dup1\n      sload\n      tag_509\n      swap1\n      tag_253\n      jump\t// in\n    tag_509:\n      dup1\n      iszero\n      tag_510\n      jumpi\n      dup1\n      0x1f\n      lt\n      tag_511\n      jumpi\n      0x0100\n      dup1\n      dup4\n      sload\n      div\n      mul\n      dup4\n      mstore\n      swap2\n      0x20\n      add\n      swap2\n      jump(tag_510)\n    tag_511:\n      dup3\n      add\n      swap2\n      swap1\n      0x00\n      mstore\n      keccak256(0x00, 0x20)\n      swap1\n    tag_512:\n      dup2\n      sload\n      dup2\n      mstore\n      swap1\n      0x01\n      add\n      swap1\n      0x20\n      add\n      dup1\n      dup4\n      gt\n      tag_512\n      jumpi\n      dup3\n      swap1\n      sub\n      0x1f\n      and\n      dup3\n      add\n      swap2\n    tag_510:\n      pop\n      pop\n      pop\n      pop\n      pop\n      swap7\n      pop\n      dup4\n      dup1\n      sload\n      tag_513\n      swap1\n      tag_253\n      jump\t// in\n    tag_513:\n      dup1\n      0x1f\n      add\n      0x20\n      dup1\n      swap2\n      div\n      mul\n      0x20\n      add\n      mload(0x40)\n      swap1\n      dup2\n      add\n      0x40\n      mstore\n      dup1\n      swap3\n      swap2\n      swap1\n      dup2\n      dup2\n      mstore\n      0x20\n      add\n      dup3\n      dup1\n      sload\n      tag_514\n      swap1\n      tag_253\n      jump\t// in\n    tag_514:\n      dup1\n      iszero\n      tag_515\n      jumpi\n      dup1\n      0x1f\n      lt\n      tag_516\n      jumpi\n      0x0100\n      dup1\n      dup4\n      sload\n      div\n      mul\n      dup4\n      mstore\n      swap2\n      0x20\n      add\n      swap2\n      jump(tag_515)\n    tag_516:\n      dup3\n      add\n      swap2\n      swap1\n      0x00\n      mstore\n      keccak256(0x00, 0x20)\n      swap1\n    tag_517:\n      dup2\n      sload\n      dup2\n      mstore\n      swap1\n      0x01\n      add\n      swap1\n      0x20\n      add\n      dup1\n      dup4\n      gt\n      tag_517\n      jumpi\n      dup3\n      swap1\n      sub\n      0x1f\n      and\n      dup3\n      add\n      swap2\n    tag_515:\n      pop\n      pop\n      pop\n      pop\n      pop\n      swap4\n      pop\n      swap9\n      pop\n      swap9\n      pop\n      swap9\n      pop\n      swap9\n      pop\n      swap9\n      pop\n      swap9\n      pop\n      swap9\n      pop\n      swap9\n      pop\n      swap9\n      pop\n        /* \".git/MyContracts/KenyaProcurementTransparency.sol\":18883:19638  function getTenderSummary()... */\n      swap1\n      swap2\n      swap3\n      swap4\n      swap5\n      swap6\n      swap7\n      swap8\n      swap9\n      jump\t// out\n        /* \".git/MyContracts/KenyaProcurementTransparency.sol\":20333:21291  function _toTimestampWithOffset(... */\n    tag_437:\n        /* \".git/MyContracts/KenyaProcurementTransparency.sol\":20544:20561  uint256 timestamp */\n      0x00\n        /* \".git/MyContracts/KenyaProcurementTransparency.sol\":20590:20594  1970 */\n      0x07b2\n        /* \".git/MyContracts/KenyaProcurementTransparency.sol\":20582:20586  year */\n      dup8\n        /* \".git/MyContracts/KenyaProcurementTransparency.sol\":20582:20594  year >= 1970 */\n      lt\n      iszero\n        /* \".git/MyContracts/KenyaProcurementTransparency.sol\":20582:20610  year >= 1970 && year <= 2100 */\n      dup1\n      iszero\n      tag_519\n      jumpi\n      pop\n        /* \".git/MyContracts/KenyaProcurementTransparency.sol\":20606:20610  2100 */\n      0x0834\n        /* \".git/MyContracts/KenyaProcurementTransparency.sol\":20598:20602  year */\n      dup8\n        /* \".git/MyContracts/KenyaProcurementTransparency.sol\":20598:20610  year <= 2100 */\n      gt\n      iszero\n        /* \".git/MyContracts/KenyaProcurementTransparency.sol\":20582:20610  year >= 1970 && year <= 2100 */\n    tag_519:\n        /* \".git/MyContracts/KenyaProcurementTransparency.sol\":20574:20627  require(year >= 1970 && year <= 2100, \"Invalid year\") */\n      tag_520\n      jumpi\n      mload(0x40)\n      shl(0xe5, 0x461bcd)\n      dup2\n      mstore\n        /* \"#utility.yul\":22243:22245   */\n      0x20\n        /* \".git/MyContracts/KenyaProcurementTransparency.sol\":20574:20627  require(year >= 1970 && year <= 2100, \"Invalid year\") */\n      0x04\n      dup3\n      add\n        /* \"#utility.yul\":22225:22246   */\n      mstore\n        /* \"#utility.yul\":22282:22284   */\n      0x0c\n        /* \"#utility.yul\":22262:22280   */\n      0x24\n      dup3\n      add\n        /* \"#utility.yul\":22255:22285   */\n      mstore\n      shl(0xa1, 0x24b73b30b634b2103cb2b0b9)\n        /* \"#utility.yul\":22301:22319   */\n      0x44\n      dup3\n      add\n        /* \"#utility.yul\":22294:22336   */\n      mstore\n        /* \"#utility.yul\":22353:22371   */\n      0x64\n      add\n        /* \".git/MyContracts/KenyaProcurementTransparency.sol\":20574:20627  require(year >= 1970 && year <= 2100, \"Invalid year\") */\n      tag_207\n        /* \"#utility.yul\":22041:22377   */\n      jump\n        /* \".git/MyContracts/KenyaProcurementTransparency.sol\":20574:20627  require(year >= 1970 && year <= 2100, \"Invalid year\") */\n    tag_520:\n        /* \".git/MyContracts/KenyaProcurementTransparency.sol\":20655:20656  1 */\n      0x01\n        /* \".git/MyContracts/KenyaProcurementTransparency.sol\":20646:20651  month */\n      dup7\n        /* \".git/MyContracts/KenyaProcurementTransparency.sol\":20646:20656  month >= 1 */\n      lt\n      iszero\n        /* \".git/MyContracts/KenyaProcurementTransparency.sol\":20646:20671  month >= 1 && month <= 12 */\n      dup1\n      iszero\n      tag_523\n      jumpi\n      pop\n        /* \".git/MyContracts/KenyaProcurementTransparency.sol\":20669:20671  12 */\n      0x0c\n        /* \".git/MyContracts/KenyaProcurementTransparency.sol\":20660:20665  month */\n      dup7\n        /* \".git/MyContracts/KenyaProcurementTransparency.sol\":20660:20671  month <= 12 */\n      gt\n      iszero\n        /* \".git/MyContracts/KenyaProcurementTransparency.sol\":20646:20671  month >= 1 && month <= 12 */\n    tag_523:\n        /* \".git/MyContracts/KenyaProcurementTransparency.sol\":20638:20689  require(month >= 1 && month <= 12, \"Invalid month\") */\n      tag_524\n      jumpi\n      mload(0x40)\n      shl(0xe5, 0x461bcd)\n      dup2\n      mstore\n        /* \"#utility.yul\":22584:22586   */\n      0x20\n        /* \".git/MyContracts/KenyaProcurementTransparency.sol\":20638:20689  require(month >= 1 && month <= 12, \"Invalid month\") */\n      0x04\n      dup3\n      add\n        /* \"#utility.yul\":22566:22587   */\n      mstore\n        /* \"#utility.yul\":22623:22625   */\n      0x0d\n        /* \"#utility.yul\":22603:22621   */\n      0x24\n      dup3\n      add\n        /* \"#utility.yul\":22596:22626   */\n      mstore\n      shl(0x9b, 0x092dcecc2d8d2c840dadedce8d)\n        /* \"#utility.yul\":22642:22660   */\n      0x44\n      dup3\n      add\n        /* \"#utility.yul\":22635:22678   */\n      mstore\n        /* \"#utility.yul\":22695:22713   */\n      0x64\n      add\n        /* \".git/MyContracts/KenyaProcurementTransparency.sol\":20638:20689  require(month >= 1 && month <= 12, \"Invalid month\") */\n      tag_207\n        /* \"#utility.yul\":22382:22719   */\n      jump\n        /* \".git/MyContracts/KenyaProcurementTransparency.sol\":20638:20689  require(month >= 1 && month <= 12, \"Invalid month\") */\n    tag_524:\n        /* \".git/MyContracts/KenyaProcurementTransparency.sol\":20715:20717  24 */\n      0x18\n        /* \".git/MyContracts/KenyaProcurementTransparency.sol\":20708:20712  hour */\n      dup5\n        /* \".git/MyContracts/KenyaProcurementTransparency.sol\":20708:20717  hour < 24 */\n      lt\n        /* \".git/MyContracts/KenyaProcurementTransparency.sol\":20700:20734  require(hour < 24, \"Invalid hour\") */\n      tag_527\n      jumpi\n      mload(0x40)\n      shl(0xe5, 0x461bcd)\n      dup2\n      mstore\n        /* \"#utility.yul\":22926:22928   */\n      0x20\n        /* \".git/MyContracts/KenyaProcurementTransparency.sol\":20700:20734  require(hour < 24, \"Invalid hour\") */\n      0x04\n      dup3\n      add\n        /* \"#utility.yul\":22908:22929   */\n      mstore\n        /* \"#utility.yul\":22965:22967   */\n      0x0c\n        /* \"#utility.yul\":22945:22963   */\n      0x24\n      dup3\n      add\n        /* \"#utility.yul\":22938:22968   */\n      mstore\n      shl(0xa1, 0x24b73b30b634b2103437bab9)\n        /* \"#utility.yul\":22984:23002   */\n      0x44\n      dup3\n      add\n        /* \"#utility.yul\":22977:23019   */\n      mstore\n        /* \"#utility.yul\":23036:23054   */\n      0x64\n      add\n        /* \".git/MyContracts/KenyaProcurementTransparency.sol\":20700:20734  require(hour < 24, \"Invalid hour\") */\n      tag_207\n        /* \"#utility.yul\":22724:23060   */\n      jump\n        /* \".git/MyContracts/KenyaProcurementTransparency.sol\":20700:20734  require(hour < 24, \"Invalid hour\") */\n    tag_527:\n        /* \".git/MyContracts/KenyaProcurementTransparency.sol\":20762:20764  60 */\n      0x3c\n        /* \".git/MyContracts/KenyaProcurementTransparency.sol\":20753:20759  minute */\n      dup4\n        /* \".git/MyContracts/KenyaProcurementTransparency.sol\":20753:20764  minute < 60 */\n      lt\n        /* \".git/MyContracts/KenyaProcurementTransparency.sol\":20745:20783  require(minute < 60, \"Invalid minute\") */\n      tag_530\n      jumpi\n      mload(0x40)\n      shl(0xe5, 0x461bcd)\n      dup2\n      mstore\n        /* \"#utility.yul\":23267:23269   */\n      0x20\n        /* \".git/MyContracts/KenyaProcurementTransparency.sol\":20745:20783  require(minute < 60, \"Invalid minute\") */\n      0x04\n      dup3\n      add\n        /* \"#utility.yul\":23249:23270   */\n      mstore\n        /* \"#utility.yul\":23306:23308   */\n      0x0e\n        /* \"#utility.yul\":23286:23304   */\n      0x24\n      dup3\n      add\n        /* \"#utility.yul\":23279:23309   */\n      mstore\n      shl(0x90, 0x496e76616c6964206d696e757465)\n        /* \"#utility.yul\":23325:23343   */\n      0x44\n      dup3\n      add\n        /* \"#utility.yul\":23318:23362   */\n      mstore\n        /* \"#utility.yul\":23379:23397   */\n      0x64\n      add\n        /* \".git/MyContracts/KenyaProcurementTransparency.sol\":20745:20783  require(minute < 60, \"Invalid minute\") */\n      tag_207\n        /* \"#utility.yul\":23065:23403   */\n      jump\n        /* \".git/MyContracts/KenyaProcurementTransparency.sol\":20745:20783  require(minute < 60, \"Invalid minute\") */\n    tag_530:\n      not(0x0b)\n        /* \".git/MyContracts/KenyaProcurementTransparency.sol\":20802:20816  utcOffsetHours */\n      dup3\n        /* \".git/MyContracts/KenyaProcurementTransparency.sol\":20802:20823  utcOffsetHours >= -12 */\n      slt\n      iszero\n        /* \".git/MyContracts/KenyaProcurementTransparency.sol\":20802:20847  utcOffsetHours >= -12 && utcOffsetHours <= 14 */\n      dup1\n      iszero\n      tag_533\n      jumpi\n      pop\n        /* \".git/MyContracts/KenyaProcurementTransparency.sol\":20845:20847  14 */\n      0x0e\n        /* \".git/MyContracts/KenyaProcurementTransparency.sol\":20827:20841  utcOffsetHours */\n      dup3\n        /* \".git/MyContracts/KenyaProcurementTransparency.sol\":20827:20847  utcOffsetHours <= 14 */\n      sgt\n      iszero\n        /* \".git/MyContracts/KenyaProcurementTransparency.sol\":20802:20847  utcOffsetHours >= -12 && utcOffsetHours <= 14 */\n    tag_533:\n        /* \".git/MyContracts/KenyaProcurementTransparency.sol\":20794:20870  require(utcOffsetHours >= -12 && utcOffsetHours <= 14, \"Invalid UTC offset\") */\n      tag_534\n      jumpi\n      mload(0x40)\n      shl(0xe5, 0x461bcd)\n      dup2\n      mstore\n        /* \"#utility.yul\":23610:23612   */\n      0x20\n        /* \".git/MyContracts/KenyaProcurementTransparency.sol\":20794:20870  require(utcOffsetHours >= -12 && utcOffsetHours <= 14, \"Invalid UTC offset\") */\n      0x04\n      dup3\n      add\n        /* \"#utility.yul\":23592:23613   */\n      mstore\n        /* \"#utility.yul\":23649:23651   */\n      0x12\n        /* \"#utility.yul\":23629:23647   */\n      0x24\n      dup3\n      add\n        /* \"#utility.yul\":23622:23652   */\n      mstore\n      shl(0x72, 0x125b9d985b1a5908155510c81bd9999cd95d)\n        /* \"#utility.yul\":23668:23686   */\n      0x44\n      dup3\n      add\n        /* \"#utility.yul\":23661:23709   */\n      mstore\n        /* \"#utility.yul\":23726:23744   */\n      0x64\n      add\n        /* \".git/MyContracts/KenyaProcurementTransparency.sol\":20794:20870  require(utcOffsetHours >= -12 && utcOffsetHours <= 14, \"Invalid UTC offset\") */\n      tag_207\n        /* \"#utility.yul\":23408:23750   */\n      jump\n        /* \".git/MyContracts/KenyaProcurementTransparency.sol\":20794:20870  require(utcOffsetHours >= -12 && utcOffsetHours <= 14, \"Invalid UTC offset\") */\n    tag_534:\n        /* \".git/MyContracts/KenyaProcurementTransparency.sol\":20883:20902  uint256 daysInMonth */\n      0x00\n        /* \".git/MyContracts/KenyaProcurementTransparency.sol\":20905:20933  _getDaysInMonth(year, month) */\n      tag_537\n        /* \".git/MyContracts/KenyaProcurementTransparency.sol\":20921:20925  year */\n      dup9\n        /* \".git/MyContracts/KenyaProcurementTransparency.sol\":20927:20932  month */\n      dup9\n        /* \".git/MyContracts/KenyaProcurementTransparency.sol\":20905:20920  _getDaysInMonth */\n      tag_538\n        /* \".git/MyContracts/KenyaProcurementTransparency.sol\":20905:20933  _getDaysInMonth(year, month) */\n      jump\t// in\n    tag_537:\n        /* \".git/MyContracts/KenyaProcurementTransparency.sol\":20883:20933  uint256 daysInMonth = _getDaysInMonth(year, month) */\n      swap1\n      pop\n        /* \".git/MyContracts/KenyaProcurementTransparency.sol\":20959:20960  1 */\n      0x01\n        /* \".git/MyContracts/KenyaProcurementTransparency.sol\":20952:20955  day */\n      dup7\n        /* \".git/MyContracts/KenyaProcurementTransparency.sol\":20952:20960  day >= 1 */\n      lt\n      iszero\n        /* \".git/MyContracts/KenyaProcurementTransparency.sol\":20952:20982  day >= 1 && day <= daysInMonth */\n      dup1\n      iszero\n      tag_539\n      jumpi\n      pop\n        /* \".git/MyContracts/KenyaProcurementTransparency.sol\":20971:20982  daysInMonth */\n      dup1\n        /* \".git/MyContracts/KenyaProcurementTransparency.sol\":20964:20967  day */\n      dup7\n        /* \".git/MyContracts/KenyaProcurementTransparency.sol\":20964:20982  day <= daysInMonth */\n      gt\n      iszero\n        /* \".git/MyContracts/KenyaProcurementTransparency.sol\":20952:20982  day >= 1 && day <= daysInMonth */\n    tag_539:\n        /* \".git/MyContracts/KenyaProcurementTransparency.sol\":20944:20998  require(day >= 1 && day <= daysInMonth, \"Invalid day\") */\n      tag_540\n      jumpi\n      mload(0x40)\n      shl(0xe5, 0x461bcd)\n      dup2\n      mstore\n        /* \"#utility.yul\":23957:23959   */\n      0x20\n        /* \".git/MyContracts/KenyaProcurementTransparency.sol\":20944:20998  require(day >= 1 && day <= daysInMonth, \"Invalid day\") */\n      0x04\n      dup3\n      add\n        /* \"#utility.yul\":23939:23960   */\n      mstore\n        /* \"#utility.yul\":23996:23998   */\n      0x0b\n        /* \"#utility.yul\":23976:23994   */\n      0x24\n      dup3\n      add\n        /* \"#utility.yul\":23969:23999   */\n      mstore\n      shl(0xa8, 0x496e76616c696420646179)\n        /* \"#utility.yul\":24015:24033   */\n      0x44\n      dup3\n      add\n        /* \"#utility.yul\":24008:24049   */\n      mstore\n        /* \"#utility.yul\":24066:24084   */\n      0x64\n      add\n        /* \".git/MyContracts/KenyaProcurementTransparency.sol\":20944:20998  require(day >= 1 && day <= daysInMonth, \"Invalid day\") */\n      tag_207\n        /* \"#utility.yul\":23755:24090   */\n      jump\n        /* \".git/MyContracts/KenyaProcurementTransparency.sol\":20944:20998  require(day >= 1 && day <= daysInMonth, \"Invalid day\") */\n    tag_540:\n        /* \".git/MyContracts/KenyaProcurementTransparency.sol\":21023:21070  _toTimestamp(year, month, day, hour, minute, 0) */\n      tag_543\n        /* \".git/MyContracts/KenyaProcurementTransparency.sol\":21036:21040  year */\n      dup9\n        /* \".git/MyContracts/KenyaProcurementTransparency.sol\":21042:21047  month */\n      dup9\n        /* \".git/MyContracts/KenyaProcurementTransparency.sol\":21049:21052  day */\n      dup9\n        /* \".git/MyContracts/KenyaProcurementTransparency.sol\":21054:21058  hour */\n      dup9\n        /* \".git/MyContracts/KenyaProcurementTransparency.sol\":21060:21066  minute */\n      dup9\n        /* \".git/MyContracts/KenyaProcurementTransparency.sol\":21068:21069  0 */\n      0x00\n        /* \".git/MyContracts/KenyaProcurementTransparency.sol\":21023:21035  _toTimestamp */\n      tag_544\n        /* \".git/MyContracts/KenyaProcurementTransparency.sol\":21023:21070  _toTimestamp(year, month, day, hour, minute, 0) */\n      jump\t// in\n    tag_543:\n        /* \".git/MyContracts/KenyaProcurementTransparency.sol\":21011:21070  timestamp = _toTimestamp(year, month, day, hour, minute, 0) */\n      swap2\n      pop\n        /* \".git/MyContracts/KenyaProcurementTransparency.sol\":21104:21105  0 */\n      0x00\n        /* \".git/MyContracts/KenyaProcurementTransparency.sol\":21087:21101  utcOffsetHours */\n      dup4\n        /* \".git/MyContracts/KenyaProcurementTransparency.sol\":21087:21105  utcOffsetHours > 0 */\n      sgt\n        /* \".git/MyContracts/KenyaProcurementTransparency.sol\":21083:21284  if (utcOffsetHours > 0) {... */\n      iszero\n      tag_545\n      jumpi\n        /* \".git/MyContracts/KenyaProcurementTransparency.sol\":21135:21168  uint256(utcOffsetHours) * 1 hours */\n      tag_546\n        /* \".git/MyContracts/KenyaProcurementTransparency.sol\":21143:21157  utcOffsetHours */\n      dup4\n        /* \".git/MyContracts/KenyaProcurementTransparency.sol\":21161:21168  1 hours */\n      0x0e10\n        /* \".git/MyContracts/KenyaProcurementTransparency.sol\":21135:21168  uint256(utcOffsetHours) * 1 hours */\n      tag_547\n      jump\t// in\n    tag_546:\n        /* \".git/MyContracts/KenyaProcurementTransparency.sol\":21122:21168  timestamp -= uint256(utcOffsetHours) * 1 hours */\n      tag_548\n      swap1\n      dup4\n      tag_549\n      jump\t// in\n    tag_548:\n      swap2\n      pop\n        /* \".git/MyContracts/KenyaProcurementTransparency.sol\":21083:21284  if (utcOffsetHours > 0) {... */\n      jump(tag_551)\n    tag_545:\n        /* \".git/MyContracts/KenyaProcurementTransparency.sol\":21207:21208  0 */\n      0x00\n        /* \".git/MyContracts/KenyaProcurementTransparency.sol\":21190:21204  utcOffsetHours */\n      dup4\n        /* \".git/MyContracts/KenyaProcurementTransparency.sol\":21190:21208  utcOffsetHours < 0 */\n      slt\n        /* \".git/MyContracts/KenyaProcurementTransparency.sol\":21186:21284  if (utcOffsetHours < 0) {... */\n      iszero\n      tag_551\n      jumpi\n        /* \".git/MyContracts/KenyaProcurementTransparency.sol\":21246:21261  -utcOffsetHours */\n      tag_552\n        /* \".git/MyContracts/KenyaProcurementTransparency.sol\":21247:21261  utcOffsetHours */\n      dup4\n        /* \".git/MyContracts/KenyaProcurementTransparency.sol\":21246:21261  -utcOffsetHours */\n      tag_553\n      jump\t// in\n    tag_552:\n        /* \".git/MyContracts/KenyaProcurementTransparency.sol\":21238:21272  uint256(-utcOffsetHours) * 1 hours */\n      tag_554\n      swap1\n        /* \".git/MyContracts/KenyaProcurementTransparency.sol\":21265:21272  1 hours */\n      0x0e10\n        /* \".git/MyContracts/KenyaProcurementTransparency.sol\":21238:21272  uint256(-utcOffsetHours) * 1 hours */\n      tag_547\n      jump\t// in\n    tag_554:\n        /* \".git/MyContracts/KenyaProcurementTransparency.sol\":21225:21272  timestamp += uint256(-utcOffsetHours) * 1 hours */\n      tag_555\n      swap1\n      dup4\n      tag_556\n      jump\t// in\n    tag_555:\n      swap2\n      pop\n        /* \".git/MyContracts/KenyaProcurementTransparency.sol\":21186:21284  if (utcOffsetHours < 0) {... */\n    tag_551:\n        /* \".git/MyContracts/KenyaProcurementTransparency.sol\":20563:21291  {... */\n      pop\n        /* \".git/MyContracts/KenyaProcurementTransparency.sol\":20333:21291  function _toTimestampWithOffset(... */\n      swap7\n      swap6\n      pop\n      pop\n      pop\n      pop\n      pop\n      pop\n      jump\t// out\n        /* \".git/MyContracts/KenyaProcurementTransparency.sol\":22707:23063  function _getDaysInMonth(uint256 year, uint256 month) internal pure returns (uint256) {... */\n    tag_538:\n        /* \".git/MyContracts/KenyaProcurementTransparency.sol\":22784:22791  uint256 */\n      0x00\n        /* \".git/MyContracts/KenyaProcurementTransparency.sol\":22808:22813  month */\n      dup2\n        /* \".git/MyContracts/KenyaProcurementTransparency.sol\":22817:22818  2 */\n      0x02\n        /* \".git/MyContracts/KenyaProcurementTransparency.sol\":22808:22818  month == 2 */\n      sub\n        /* \".git/MyContracts/KenyaProcurementTransparency.sol\":22804:23056  if (month == 2) {... */\n      tag_558\n      jumpi\n        /* \".git/MyContracts/KenyaProcurementTransparency.sol\":22842:22867  _isLeapYear(uint16(year)) */\n      tag_559\n        /* \".git/MyContracts/KenyaProcurementTransparency.sol\":22861:22865  year */\n      dup4\n        /* \".git/MyContracts/KenyaProcurementTransparency.sol\":22842:22853  _isLeapYear */\n      tag_560\n        /* \".git/MyContracts/KenyaProcurementTransparency.sol\":22842:22867  _isLeapYear(uint16(year)) */\n      jump\t// in\n    tag_559:\n        /* \".git/MyContracts/KenyaProcurementTransparency.sol\":22842:22877  _isLeapYear(uint16(year)) ? 29 : 28 */\n      tag_561\n      jumpi\n        /* \".git/MyContracts/KenyaProcurementTransparency.sol\":22875:22877  28 */\n      0x1c\n        /* \".git/MyContracts/KenyaProcurementTransparency.sol\":22842:22877  _isLeapYear(uint16(year)) ? 29 : 28 */\n      jump(tag_562)\n    tag_561:\n        /* \".git/MyContracts/KenyaProcurementTransparency.sol\":22870:22872  29 */\n      0x1d\n        /* \".git/MyContracts/KenyaProcurementTransparency.sol\":22842:22877  _isLeapYear(uint16(year)) ? 29 : 28 */\n    tag_562:\n        /* \".git/MyContracts/KenyaProcurementTransparency.sol\":22835:22877  return _isLeapYear(uint16(year)) ? 29 : 28 */\n      0xff\n      and\n      swap1\n      pop\n      jump(tag_258)\n        /* \".git/MyContracts/KenyaProcurementTransparency.sol\":22804:23056  if (month == 2) {... */\n    tag_558:\n        /* \".git/MyContracts/KenyaProcurementTransparency.sol\":22913:22918  month */\n      dup2\n        /* \".git/MyContracts/KenyaProcurementTransparency.sol\":22922:22923  4 */\n      0x04\n        /* \".git/MyContracts/KenyaProcurementTransparency.sol\":22913:22923  month == 4 */\n      eq\n        /* \".git/MyContracts/KenyaProcurementTransparency.sol\":22913:22937  month == 4 || month == 6 */\n      dup1\n      tag_564\n      jumpi\n      pop\n        /* \".git/MyContracts/KenyaProcurementTransparency.sol\":22927:22932  month */\n      dup2\n        /* \".git/MyContracts/KenyaProcurementTransparency.sol\":22936:22937  6 */\n      0x06\n        /* \".git/MyContracts/KenyaProcurementTransparency.sol\":22927:22937  month == 6 */\n      eq\n        /* \".git/MyContracts/KenyaProcurementTransparency.sol\":22913:22937  month == 4 || month == 6 */\n    tag_564:\n        /* \".git/MyContracts/KenyaProcurementTransparency.sol\":22913:22951  month == 4 || month == 6 || month == 9 */\n      dup1\n      tag_565\n      jumpi\n      pop\n        /* \".git/MyContracts/KenyaProcurementTransparency.sol\":22941:22946  month */\n      dup2\n        /* \".git/MyContracts/KenyaProcurementTransparency.sol\":22950:22951  9 */\n      0x09\n        /* \".git/MyContracts/KenyaProcurementTransparency.sol\":22941:22951  month == 9 */\n      eq\n        /* \".git/MyContracts/KenyaProcurementTransparency.sol\":22913:22951  month == 4 || month == 6 || month == 9 */\n    tag_565:\n        /* \".git/MyContracts/KenyaProcurementTransparency.sol\":22913:22966  month == 4 || month == 6 || month == 9 || month == 11 */\n      dup1\n      tag_566\n      jumpi\n      pop\n        /* \".git/MyContracts/KenyaProcurementTransparency.sol\":22955:22960  month */\n      dup2\n        /* \".git/MyContracts/KenyaProcurementTransparency.sol\":22964:22966  11 */\n      0x0b\n        /* \".git/MyContracts/KenyaProcurementTransparency.sol\":22955:22966  month == 11 */\n      eq\n        /* \".git/MyContracts/KenyaProcurementTransparency.sol\":22913:22966  month == 4 || month == 6 || month == 9 || month == 11 */\n    tag_566:\n        /* \".git/MyContracts/KenyaProcurementTransparency.sol\":22895:23056  if (... */\n      iszero\n      tag_567\n      jumpi\n      pop\n        /* \".git/MyContracts/KenyaProcurementTransparency.sol\":23000:23002  30 */\n      0x1e\n        /* \".git/MyContracts/KenyaProcurementTransparency.sol\":22993:23002  return 30 */\n      jump(tag_258)\n        /* \".git/MyContracts/KenyaProcurementTransparency.sol\":22895:23056  if (... */\n    tag_567:\n      pop\n        /* \".git/MyContracts/KenyaProcurementTransparency.sol\":23042:23044  31 */\n      0x1f\n        /* \".git/MyContracts/KenyaProcurementTransparency.sol\":23035:23044  return 31 */\n      jump(tag_258)\n        /* \".git/MyContracts/KenyaProcurementTransparency.sol\":21637:22517  function _toTimestamp(... */\n    tag_544:\n        /* \".git/MyContracts/KenyaProcurementTransparency.sol\":21831:21848  uint256 timestamp */\n      0x00\n        /* \".git/MyContracts/KenyaProcurementTransparency.sol\":21891:21895  1970 */\n      0x07b2\n        /* \".git/MyContracts/KenyaProcurementTransparency.sol\":21882:22021  for (i = 1970; i < year; i++) {... */\n    tag_570:\n        /* \".git/MyContracts/KenyaProcurementTransparency.sol\":21901:21905  year */\n      dup8\n        /* \".git/MyContracts/KenyaProcurementTransparency.sol\":21897:21898  i */\n      dup2\n        /* \".git/MyContracts/KenyaProcurementTransparency.sol\":21897:21905  i < year */\n      0xffff\n      and\n      lt\n        /* \".git/MyContracts/KenyaProcurementTransparency.sol\":21882:22021  for (i = 1970; i < year; i++) {... */\n      iszero\n      tag_571\n      jumpi\n        /* \".git/MyContracts/KenyaProcurementTransparency.sol\":21931:21945  _isLeapYear(i) */\n      tag_573\n        /* \".git/MyContracts/KenyaProcurementTransparency.sol\":21943:21944  i */\n      dup2\n        /* \".git/MyContracts/KenyaProcurementTransparency.sol\":21931:21942  _isLeapYear */\n      tag_560\n        /* \".git/MyContracts/KenyaProcurementTransparency.sol\":21931:21945  _isLeapYear(i) */\n      jump\t// in\n    tag_573:\n        /* \".git/MyContracts/KenyaProcurementTransparency.sol\":21927:22009  if (_isLeapYear(i)) timestamp += 366 days;... */\n      iszero\n      tag_574\n      jumpi\n        /* \".git/MyContracts/KenyaProcurementTransparency.sol\":21947:21968  timestamp += 366 days */\n      tag_575\n        /* \".git/MyContracts/KenyaProcurementTransparency.sol\":21960:21968  366 days */\n      0x01e28500\n        /* \".git/MyContracts/KenyaProcurementTransparency.sol\":21947:21968  timestamp += 366 days */\n      dup4\n      tag_556\n      jump\t// in\n    tag_575:\n      swap2\n      pop\n        /* \".git/MyContracts/KenyaProcurementTransparency.sol\":21927:22009  if (_isLeapYear(i)) timestamp += 366 days;... */\n      jump(tag_576)\n    tag_574:\n        /* \".git/MyContracts/KenyaProcurementTransparency.sol\":21988:22009  timestamp += 365 days */\n      tag_577\n        /* \".git/MyContracts/KenyaProcurementTransparency.sol\":22001:22009  365 days */\n      0x01e13380\n        /* \".git/MyContracts/KenyaProcurementTransparency.sol\":21988:22009  timestamp += 365 days */\n      dup4\n      tag_556\n      jump\t// in\n    tag_577:\n      swap2\n      pop\n        /* \".git/MyContracts/KenyaProcurementTransparency.sol\":21927:22009  if (_isLeapYear(i)) timestamp += 366 days;... */\n    tag_576:\n        /* \".git/MyContracts/KenyaProcurementTransparency.sol\":21907:21910  i++ */\n      dup1\n      tag_578\n      dup2\n      tag_579\n      jump\t// in\n    tag_578:\n      swap2\n      pop\n      pop\n        /* \".git/MyContracts/KenyaProcurementTransparency.sol\":21882:22021  for (i = 1970; i < year; i++) {... */\n      jump(tag_570)\n    tag_571:\n        /* \".git/MyContracts/KenyaProcurementTransparency.sol\":22033:22154  uint8[12] memory monthDays = [... */\n      0x40\n      dup1\n      mload\n      0x0180\n      dup2\n      add\n      dup3\n      mstore\n        /* \".git/MyContracts/KenyaProcurementTransparency.sol\":22083:22085  31 */\n      0x1f\n        /* \".git/MyContracts/KenyaProcurementTransparency.sol\":22033:22154  uint8[12] memory monthDays = [... */\n      dup1\n      dup3\n      mstore\n        /* \".git/MyContracts/KenyaProcurementTransparency.sol\":22088:22090  28 */\n      0x1c\n        /* \".git/MyContracts/KenyaProcurementTransparency.sol\":22033:22154  uint8[12] memory monthDays = [... */\n      0x20\n      dup4\n      add\n      mstore\n      swap2\n      dup2\n      add\n      dup3\n      swap1\n      mstore\n        /* \".git/MyContracts/KenyaProcurementTransparency.sol\":22096:22098  30 */\n      0x1e\n        /* \".git/MyContracts/KenyaProcurementTransparency.sol\":22033:22154  uint8[12] memory monthDays = [... */\n      0x60\n      dup3\n      add\n      dup2\n      swap1\n      mstore\n      0x80\n      dup3\n      add\n      dup4\n      swap1\n      mstore\n      0xa0\n      dup3\n      add\n      dup2\n      swap1\n      mstore\n      0xc0\n      dup3\n      add\n      dup4\n      swap1\n      mstore\n      0xe0\n      dup3\n      add\n      dup4\n      swap1\n      mstore\n      0x0100\n      dup3\n      add\n      dup2\n      swap1\n      mstore\n      0x0120\n      dup3\n      add\n      dup4\n      swap1\n      mstore\n      0x0140\n      dup3\n      add\n      mstore\n      0x0160\n      dup2\n      add\n      swap2\n      swap1\n      swap2\n      mstore\n        /* \".git/MyContracts/KenyaProcurementTransparency.sol\":22171:22196  _isLeapYear(uint16(year)) */\n      tag_580\n        /* \".git/MyContracts/KenyaProcurementTransparency.sol\":22190:22194  year */\n      dup10\n        /* \".git/MyContracts/KenyaProcurementTransparency.sol\":22171:22182  _isLeapYear */\n      tag_560\n        /* \".git/MyContracts/KenyaProcurementTransparency.sol\":22171:22196  _isLeapYear(uint16(year)) */\n      jump\t// in\n    tag_580:\n        /* \".git/MyContracts/KenyaProcurementTransparency.sol\":22167:22242  if (_isLeapYear(uint16(year))) {... */\n      iszero\n      tag_581\n      jumpi\n        /* \".git/MyContracts/KenyaProcurementTransparency.sol\":22228:22230  29 */\n      0x1d\n        /* \".git/MyContracts/KenyaProcurementTransparency.sol\":22213:22225  monthDays[1] */\n      0x20\n      dup3\n      add\n        /* \".git/MyContracts/KenyaProcurementTransparency.sol\":22213:22230  monthDays[1] = 29 */\n      mstore\n        /* \".git/MyContracts/KenyaProcurementTransparency.sol\":22167:22242  if (_isLeapYear(uint16(year))) {... */\n    tag_581:\n        /* \".git/MyContracts/KenyaProcurementTransparency.sol\":22263:22264  1 */\n      0x01\n        /* \".git/MyContracts/KenyaProcurementTransparency.sol\":22259:22264  i = 1 */\n      swap2\n      pop\n        /* \".git/MyContracts/KenyaProcurementTransparency.sol\":22254:22356  for (i = 1; i < month; i++) {... */\n    tag_584:\n        /* \".git/MyContracts/KenyaProcurementTransparency.sol\":22270:22275  month */\n      dup8\n        /* \".git/MyContracts/KenyaProcurementTransparency.sol\":22266:22267  i */\n      dup3\n        /* \".git/MyContracts/KenyaProcurementTransparency.sol\":22266:22275  i < month */\n      0xffff\n      and\n      lt\n        /* \".git/MyContracts/KenyaProcurementTransparency.sol\":22254:22356  for (i = 1; i < month; i++) {... */\n      iszero\n      tag_585\n      jumpi\n        /* \".git/MyContracts/KenyaProcurementTransparency.sol\":22318:22327  monthDays */\n      dup1\n        /* \".git/MyContracts/KenyaProcurementTransparency.sol\":22328:22333  i - 1 */\n      tag_587\n        /* \".git/MyContracts/KenyaProcurementTransparency.sol\":22332:22333  1 */\n      0x01\n        /* \".git/MyContracts/KenyaProcurementTransparency.sol\":22328:22329  i */\n      dup5\n        /* \".git/MyContracts/KenyaProcurementTransparency.sol\":22328:22333  i - 1 */\n      tag_588\n      jump\t// in\n    tag_587:\n        /* \".git/MyContracts/KenyaProcurementTransparency.sol\":22318:22334  monthDays[i - 1] */\n      0xffff\n      and\n      0x0c\n      dup2\n      lt\n      tag_590\n      jumpi\n      tag_590\n      tag_362\n      jump\t// in\n    tag_590:\n      0x20\n      mul\n      add\n      mload\n        /* \".git/MyContracts/KenyaProcurementTransparency.sol\":22310:22344  uint256(monthDays[i - 1]) * 1 days */\n      tag_591\n      swap1\n        /* \".git/MyContracts/KenyaProcurementTransparency.sol\":22310:22335  uint256(monthDays[i - 1]) */\n      0xff\n      and\n        /* \".git/MyContracts/KenyaProcurementTransparency.sol\":22338:22344  1 days */\n      0x015180\n        /* \".git/MyContracts/KenyaProcurementTransparency.sol\":22310:22344  uint256(monthDays[i - 1]) * 1 days */\n      tag_547\n      jump\t// in\n    tag_591:\n        /* \".git/MyContracts/KenyaProcurementTransparency.sol\":22297:22344  timestamp += uint256(monthDays[i - 1]) * 1 days */\n      tag_592\n      swap1\n      dup5\n      tag_556\n      jump\t// in\n    tag_592:\n      swap3\n      pop\n        /* \".git/MyContracts/KenyaProcurementTransparency.sol\":22277:22280  i++ */\n      dup2\n      tag_593\n      dup2\n      tag_579\n      jump\t// in\n    tag_593:\n      swap3\n      pop\n      pop\n        /* \".git/MyContracts/KenyaProcurementTransparency.sol\":22254:22356  for (i = 1; i < month; i++) {... */\n      jump(tag_584)\n    tag_585:\n        /* \".git/MyContracts/KenyaProcurementTransparency.sol\":22382:22389  day - 1 */\n      tag_594\n        /* \".git/MyContracts/KenyaProcurementTransparency.sol\":22388:22389  1 */\n      0x01\n        /* \".git/MyContracts/KenyaProcurementTransparency.sol\":22382:22385  day */\n      dup9\n        /* \".git/MyContracts/KenyaProcurementTransparency.sol\":22382:22389  day - 1 */\n      tag_549\n      jump\t// in\n    tag_594:\n        /* \".git/MyContracts/KenyaProcurementTransparency.sol\":22381:22399  (day - 1) * 1 days */\n      tag_595\n      swap1\n        /* \".git/MyContracts/KenyaProcurementTransparency.sol\":22393:22399  1 days */\n      0x015180\n        /* \".git/MyContracts/KenyaProcurementTransparency.sol\":22381:22399  (day - 1) * 1 days */\n      tag_547\n      jump\t// in\n    tag_595:\n        /* \".git/MyContracts/KenyaProcurementTransparency.sol\":22368:22399  timestamp += (day - 1) * 1 days */\n      tag_596\n      swap1\n      dup5\n      tag_556\n      jump\t// in\n    tag_596:\n      swap3\n      pop\n        /* \".git/MyContracts/KenyaProcurementTransparency.sol\":22423:22437  hour * 1 hours */\n      tag_597\n        /* \".git/MyContracts/KenyaProcurementTransparency.sol\":22423:22427  hour */\n      dup7\n        /* \".git/MyContracts/KenyaProcurementTransparency.sol\":22430:22437  1 hours */\n      0x0e10\n        /* \".git/MyContracts/KenyaProcurementTransparency.sol\":22423:22437  hour * 1 hours */\n      tag_547\n      jump\t// in\n    tag_597:\n        /* \".git/MyContracts/KenyaProcurementTransparency.sol\":22410:22437  timestamp += hour * 1 hours */\n      tag_598\n      swap1\n      dup5\n      tag_556\n      jump\t// in\n    tag_598:\n      swap3\n      pop\n        /* \".git/MyContracts/KenyaProcurementTransparency.sol\":22461:22479  minute * 1 minutes */\n      tag_599\n        /* \".git/MyContracts/KenyaProcurementTransparency.sol\":22461:22467  minute */\n      dup6\n        /* \".git/MyContracts/KenyaProcurementTransparency.sol\":22470:22479  1 minutes */\n      0x3c\n        /* \".git/MyContracts/KenyaProcurementTransparency.sol\":22461:22479  minute * 1 minutes */\n      tag_547\n      jump\t// in\n    tag_599:\n        /* \".git/MyContracts/KenyaProcurementTransparency.sol\":22448:22479  timestamp += minute * 1 minutes */\n      tag_600\n      swap1\n      dup5\n      tag_556\n      jump\t// in\n    tag_600:\n      swap3\n      pop\n        /* \".git/MyContracts/KenyaProcurementTransparency.sol\":22490:22509  timestamp += second */\n      tag_601\n        /* \".git/MyContracts/KenyaProcurementTransparency.sol\":22503:22509  second */\n      dup5\n        /* \".git/MyContracts/KenyaProcurementTransparency.sol\":22448:22479  timestamp += minute * 1 minutes */\n      dup5\n        /* \".git/MyContracts/KenyaProcurementTransparency.sol\":22490:22509  timestamp += second */\n      tag_556\n      jump\t// in\n    tag_601:\n      swap10\n        /* \".git/MyContracts/KenyaProcurementTransparency.sol\":21637:22517  function _toTimestamp(... */\n      swap9\n      pop\n      pop\n      pop\n      pop\n      pop\n      pop\n      pop\n      pop\n      pop\n      jump\t// out\n        /* \".git/MyContracts/KenyaProcurementTransparency.sol\":23219:23441  function _isLeapYear(uint16 year) internal pure returns (bool) {... */\n    tag_560:\n        /* \".git/MyContracts/KenyaProcurementTransparency.sol\":23276:23280  bool */\n      0x00\n        /* \".git/MyContracts/KenyaProcurementTransparency.sol\":23297:23305  year % 4 */\n      tag_603\n        /* \".git/MyContracts/KenyaProcurementTransparency.sol\":23304:23305  4 */\n      0x04\n        /* \".git/MyContracts/KenyaProcurementTransparency.sol\":23297:23301  year */\n      dup4\n        /* \".git/MyContracts/KenyaProcurementTransparency.sol\":23297:23305  year % 4 */\n      tag_604\n      jump\t// in\n    tag_603:\n        /* \".git/MyContracts/KenyaProcurementTransparency.sol\":23297:23310  year % 4 != 0 */\n      0xffff\n      and\n      iszero\n        /* \".git/MyContracts/KenyaProcurementTransparency.sol\":23293:23324  if (year % 4 != 0) return false */\n      tag_605\n      jumpi\n      pop\n        /* \".git/MyContracts/KenyaProcurementTransparency.sol\":23319:23324  false */\n      0x00\n      swap2\n        /* \".git/MyContracts/KenyaProcurementTransparency.sol\":23219:23441  function _isLeapYear(uint16 year) internal pure returns (bool) {... */\n      swap1\n      pop\n      jump\t// out\n        /* \".git/MyContracts/KenyaProcurementTransparency.sol\":23293:23324  if (year % 4 != 0) return false */\n    tag_605:\n        /* \".git/MyContracts/KenyaProcurementTransparency.sol\":23339:23349  year % 100 */\n      tag_606\n        /* \".git/MyContracts/KenyaProcurementTransparency.sol\":23346:23349  100 */\n      0x64\n        /* \".git/MyContracts/KenyaProcurementTransparency.sol\":23339:23343  year */\n      dup4\n        /* \".git/MyContracts/KenyaProcurementTransparency.sol\":23339:23349  year % 100 */\n      tag_604\n      jump\t// in\n    tag_606:\n        /* \".git/MyContracts/KenyaProcurementTransparency.sol\":23339:23354  year % 100 != 0 */\n      0xffff\n      and\n      iszero\n        /* \".git/MyContracts/KenyaProcurementTransparency.sol\":23335:23367  if (year % 100 != 0) return true */\n      tag_607\n      jumpi\n      pop\n        /* \".git/MyContracts/KenyaProcurementTransparency.sol\":23363:23367  true */\n      0x01\n      swap2\n        /* \".git/MyContracts/KenyaProcurementTransparency.sol\":23219:23441  function _isLeapYear(uint16 year) internal pure returns (bool) {... */\n      swap1\n      pop\n      jump\t// out\n        /* \".git/MyContracts/KenyaProcurementTransparency.sol\":23335:23367  if (year % 100 != 0) return true */\n    tag_607:\n        /* \".git/MyContracts/KenyaProcurementTransparency.sol\":23382:23392  year % 400 */\n      tag_608\n        /* \".git/MyContracts/KenyaProcurementTransparency.sol\":23389:23392  400 */\n      0x0190\n        /* \".git/MyContracts/KenyaProcurementTransparency.sol\":23382:23386  year */\n      dup4\n        /* \".git/MyContracts/KenyaProcurementTransparency.sol\":23382:23392  year % 400 */\n      tag_604\n      jump\t// in\n    tag_608:\n        /* \".git/MyContracts/KenyaProcurementTransparency.sol\":23382:23397  year % 400 != 0 */\n      0xffff\n      and\n      iszero\n        /* \".git/MyContracts/KenyaProcurementTransparency.sol\":23378:23411  if (year % 400 != 0) return false */\n      tag_609\n      jumpi\n      pop\n        /* \".git/MyContracts/KenyaProcurementTransparency.sol\":23406:23411  false */\n      0x00\n      swap2\n        /* \".git/MyContracts/KenyaProcurementTransparency.sol\":23219:23441  function _isLeapYear(uint16 year) internal pure returns (bool) {... */\n      swap1\n      pop\n      jump\t// out\n        /* \".git/MyContracts/KenyaProcurementTransparency.sol\":23378:23411  if (year % 400 != 0) return false */\n    tag_609:\n      pop\n        /* \".git/MyContracts/KenyaProcurementTransparency.sol\":23429:23433  true */\n      0x01\n      swap2\n        /* \".git/MyContracts/KenyaProcurementTransparency.sol\":23219:23441  function _isLeapYear(uint16 year) internal pure returns (bool) {... */\n      swap1\n      pop\n      jump\t// out\n        /* \"#utility.yul\":14:194   */\n    tag_46:\n        /* \"#utility.yul\":73:79   */\n      0x00\n        /* \"#utility.yul\":126:128   */\n      0x20\n        /* \"#utility.yul\":114:123   */\n      dup3\n        /* \"#utility.yul\":105:112   */\n      dup5\n        /* \"#utility.yul\":101:124   */\n      sub\n        /* \"#utility.yul\":97:129   */\n      slt\n        /* \"#utility.yul\":94:146   */\n      iszero\n      tag_620\n      jumpi\n        /* \"#utility.yul\":142:143   */\n      0x00\n        /* \"#utility.yul\":139:140   */\n      0x00\n        /* \"#utility.yul\":132:144   */\n      revert\n        /* \"#utility.yul\":94:146   */\n    tag_620:\n      pop\n        /* \"#utility.yul\":165:188   */\n      calldataload\n      swap2\n        /* \"#utility.yul\":14:194   */\n      swap1\n      pop\n      jump\t// out\n        /* \"#utility.yul\":199:326   */\n    tag_201:\n        /* \"#utility.yul\":260:270   */\n      0x4e487b71\n        /* \"#utility.yul\":255:258   */\n      0xe0\n        /* \"#utility.yul\":251:271   */\n      shl\n        /* \"#utility.yul\":248:249   */\n      0x00\n        /* \"#utility.yul\":241:272   */\n      mstore\n        /* \"#utility.yul\":291:295   */\n      0x21\n        /* \"#utility.yul\":288:289   */\n      0x04\n        /* \"#utility.yul\":281:296   */\n      mstore\n        /* \"#utility.yul\":315:319   */\n      0x24\n        /* \"#utility.yul\":312:313   */\n      0x00\n        /* \"#utility.yul\":305:320   */\n      revert\n        /* \"#utility.yul\":331:571   */\n    tag_610:\n        /* \"#utility.yul\":415:416   */\n      0x08\n        /* \"#utility.yul\":408:413   */\n      dup2\n        /* \"#utility.yul\":405:417   */\n      lt\n        /* \"#utility.yul\":395:538   */\n      tag_623\n      jumpi\n        /* \"#utility.yul\":460:470   */\n      0x4e487b71\n        /* \"#utility.yul\":455:458   */\n      0xe0\n        /* \"#utility.yul\":451:471   */\n      shl\n        /* \"#utility.yul\":448:449   */\n      0x00\n        /* \"#utility.yul\":441:472   */\n      mstore\n        /* \"#utility.yul\":495:499   */\n      0x21\n        /* \"#utility.yul\":492:493   */\n      0x04\n        /* \"#utility.yul\":485:500   */\n      mstore\n        /* \"#utility.yul\":523:527   */\n      0x24\n        /* \"#utility.yul\":520:521   */\n      0x00\n        /* \"#utility.yul\":513:528   */\n      revert\n        /* \"#utility.yul\":395:538   */\n    tag_623:\n        /* \"#utility.yul\":547:565   */\n      swap1\n      mstore\n        /* \"#utility.yul\":331:571   */\n      jump\t// out\n        /* \"#utility.yul\":576:788   */\n    tag_55:\n        /* \"#utility.yul\":723:725   */\n      0x20\n        /* \"#utility.yul\":708:726   */\n      dup2\n      add\n        /* \"#utility.yul\":735:782   */\n      tag_258\n        /* \"#utility.yul\":712:721   */\n      dup3\n        /* \"#utility.yul\":764:770   */\n      dup5\n        /* \"#utility.yul\":735:782   */\n      tag_610\n      jump\t// in\n        /* \"#utility.yul\":793:920   */\n    tag_611:\n        /* \"#utility.yul\":854:864   */\n      0x4e487b71\n        /* \"#utility.yul\":849:852   */\n      0xe0\n        /* \"#utility.yul\":845:865   */\n      shl\n        /* \"#utility.yul\":842:843   */\n      0x00\n        /* \"#utility.yul\":835:866   */\n      mstore\n        /* \"#utility.yul\":885:889   */\n      0x41\n        /* \"#utility.yul\":882:883   */\n      0x04\n        /* \"#utility.yul\":875:890   */\n      mstore\n        /* \"#utility.yul\":909:913   */\n      0x24\n        /* \"#utility.yul\":906:907   */\n      0x00\n        /* \"#utility.yul\":899:914   */\n      revert\n        /* \"#utility.yul\":925:1651   */\n    tag_612:\n        /* \"#utility.yul\":968:973   */\n      0x00\n        /* \"#utility.yul\":1021:1024   */\n      dup3\n        /* \"#utility.yul\":1014:1018   */\n      0x1f\n        /* \"#utility.yul\":1006:1012   */\n      dup4\n        /* \"#utility.yul\":1002:1019   */\n      add\n        /* \"#utility.yul\":998:1025   */\n      slt\n        /* \"#utility.yul\":988:1043   */\n      tag_628\n      jumpi\n        /* \"#utility.yul\":1039:1040   */\n      0x00\n        /* \"#utility.yul\":1036:1037   */\n      0x00\n        /* \"#utility.yul\":1029:1041   */\n      revert\n        /* \"#utility.yul\":988:1043   */\n    tag_628:\n        /* \"#utility.yul\":1079:1085   */\n      dup2\n        /* \"#utility.yul\":1066:1086   */\n      calldataload\n        /* \"#utility.yul\":1109:1127   */\n      0xffffffffffffffff\n        /* \"#utility.yul\":1101:1107   */\n      dup2\n        /* \"#utility.yul\":1098:1128   */\n      gt\n        /* \"#utility.yul\":1095:1151   */\n      iszero\n      tag_630\n      jumpi\n        /* \"#utility.yul\":1131:1149   */\n      tag_630\n      tag_611\n      jump\t// in\n    tag_630:\n        /* \"#utility.yul\":1180:1182   */\n      0x40\n        /* \"#utility.yul\":1174:1183   */\n      mload\n        /* \"#utility.yul\":1272:1274   */\n      0x1f\n        /* \"#utility.yul\":1234:1251   */\n      dup3\n      add\n      not(0x1f)\n        /* \"#utility.yul\":1230:1261   */\n      swap1\n      dup2\n      and\n        /* \"#utility.yul\":1263:1265   */\n      0x3f\n        /* \"#utility.yul\":1226:1266   */\n      add\n        /* \"#utility.yul\":1222:1276   */\n      and\n        /* \"#utility.yul\":1210:1277   */\n      dup2\n      add\n        /* \"#utility.yul\":1307:1325   */\n      0xffffffffffffffff\n        /* \"#utility.yul\":1292:1326   */\n      dup2\n      gt\n        /* \"#utility.yul\":1328:1350   */\n      dup3\n      dup3\n      lt\n        /* \"#utility.yul\":1289:1351   */\n      or\n        /* \"#utility.yul\":1286:1374   */\n      iszero\n      tag_632\n      jumpi\n        /* \"#utility.yul\":1354:1372   */\n      tag_632\n      tag_611\n      jump\t// in\n    tag_632:\n        /* \"#utility.yul\":1390:1392   */\n      0x40\n        /* \"#utility.yul\":1383:1405   */\n      mstore\n        /* \"#utility.yul\":1414:1436   */\n      dup2\n      dup2\n      mstore\n        /* \"#utility.yul\":1455:1474   */\n      dup4\n      dup3\n      add\n        /* \"#utility.yul\":1476:1480   */\n      0x20\n        /* \"#utility.yul\":1451:1481   */\n      add\n        /* \"#utility.yul\":1448:1487   */\n      dup6\n      lt\n        /* \"#utility.yul\":1445:1504   */\n      iszero\n      tag_633\n      jumpi\n        /* \"#utility.yul\":1500:1501   */\n      0x00\n        /* \"#utility.yul\":1497:1498   */\n      0x00\n        /* \"#utility.yul\":1490:1502   */\n      revert\n        /* \"#utility.yul\":1445:1504   */\n    tag_633:\n        /* \"#utility.yul\":1564:1570   */\n      dup2\n        /* \"#utility.yul\":1557:1561   */\n      0x20\n        /* \"#utility.yul\":1549:1555   */\n      dup6\n        /* \"#utility.yul\":1545:1562   */\n      add\n        /* \"#utility.yul\":1538:1542   */\n      0x20\n        /* \"#utility.yul\":1530:1536   */\n      dup4\n        /* \"#utility.yul\":1526:1543   */\n      add\n        /* \"#utility.yul\":1513:1571   */\n      calldatacopy\n        /* \"#utility.yul\":1619:1620   */\n      0x00\n        /* \"#utility.yul\":1591:1610   */\n      swap2\n      dup2\n      add\n        /* \"#utility.yul\":1612:1616   */\n      0x20\n        /* \"#utility.yul\":1587:1617   */\n      add\n        /* \"#utility.yul\":1580:1621   */\n      swap2\n      swap1\n      swap2\n      mstore\n        /* \"#utility.yul\":1595:1601   */\n      swap4\n        /* \"#utility.yul\":925:1651   */\n      swap3\n      pop\n      pop\n      pop\n      jump\t// out\n        /* \"#utility.yul\":1656:2092   */\n    tag_59:\n        /* \"#utility.yul\":1734:1740   */\n      0x00\n        /* \"#utility.yul\":1742:1748   */\n      0x00\n        /* \"#utility.yul\":1795:1797   */\n      0x40\n        /* \"#utility.yul\":1783:1792   */\n      dup4\n        /* \"#utility.yul\":1774:1781   */\n      dup6\n        /* \"#utility.yul\":1770:1793   */\n      sub\n        /* \"#utility.yul\":1766:1798   */\n      slt\n        /* \"#utility.yul\":1763:1815   */\n      iszero\n      tag_635\n      jumpi\n        /* \"#utility.yul\":1811:1812   */\n      0x00\n        /* \"#utility.yul\":1808:1809   */\n      0x00\n        /* \"#utility.yul\":1801:1813   */\n      revert\n        /* \"#utility.yul\":1763:1815   */\n    tag_635:\n        /* \"#utility.yul\":1856:1879   */\n      dup3\n      calldataload\n      swap2\n      pop\n        /* \"#utility.yul\":1954:1956   */\n      0x20\n        /* \"#utility.yul\":1939:1957   */\n      dup4\n      add\n        /* \"#utility.yul\":1926:1958   */\n      calldataload\n        /* \"#utility.yul\":1981:1999   */\n      0xffffffffffffffff\n        /* \"#utility.yul\":1970:2000   */\n      dup2\n      gt\n        /* \"#utility.yul\":1967:2017   */\n      iszero\n      tag_636\n      jumpi\n        /* \"#utility.yul\":2013:2014   */\n      0x00\n        /* \"#utility.yul\":2010:2011   */\n      0x00\n        /* \"#utility.yul\":2003:2015   */\n      revert\n        /* \"#utility.yul\":1967:2017   */\n    tag_636:\n        /* \"#utility.yul\":2036:2086   */\n      tag_637\n        /* \"#utility.yul\":2078:2085   */\n      dup6\n        /* \"#utility.yul\":2069:2075   */\n      dup3\n        /* \"#utility.yul\":2058:2067   */\n      dup7\n        /* \"#utility.yul\":2054:2076   */\n      add\n        /* \"#utility.yul\":2036:2086   */\n      tag_612\n      jump\t// in\n    tag_637:\n        /* \"#utility.yul\":2026:2086   */\n      swap2\n      pop\n      pop\n        /* \"#utility.yul\":1656:2092   */\n      swap3\n      pop\n      swap3\n      swap1\n      pop\n      jump\t// out\n        /* \"#utility.yul\":2305:2594   */\n    tag_613:\n        /* \"#utility.yul\":2347:2350   */\n      0x00\n        /* \"#utility.yul\":2385:2390   */\n      dup2\n        /* \"#utility.yul\":2379:2391   */\n      mload\n        /* \"#utility.yul\":2412:2418   */\n      dup1\n        /* \"#utility.yul\":2407:2410   */\n      dup5\n        /* \"#utility.yul\":2400:2419   */\n      mstore\n        /* \"#utility.yul\":2468:2474   */\n      dup1\n        /* \"#utility.yul\":2461:2465   */\n      0x20\n        /* \"#utility.yul\":2454:2459   */\n      dup5\n        /* \"#utility.yul\":2450:2466   */\n      add\n        /* \"#utility.yul\":2443:2447   */\n      0x20\n        /* \"#utility.yul\":2438:2441   */\n      dup7\n        /* \"#utility.yul\":2434:2448   */\n      add\n        /* \"#utility.yul\":2428:2475   */\n      mcopy\n        /* \"#utility.yul\":2520:2521   */\n      0x00\n        /* \"#utility.yul\":2513:2517   */\n      0x20\n        /* \"#utility.yul\":2504:2510   */\n      dup3\n        /* \"#utility.yul\":2499:2502   */\n      dup7\n        /* \"#utility.yul\":2495:2511   */\n      add\n        /* \"#utility.yul\":2491:2518   */\n      add\n        /* \"#utility.yul\":2484:2522   */\n      mstore\n        /* \"#utility.yul\":2583:2587   */\n      0x20\n        /* \"#utility.yul\":2576:2578   */\n      0x1f\n        /* \"#utility.yul\":2572:2579   */\n      not\n        /* \"#utility.yul\":2567:2569   */\n      0x1f\n        /* \"#utility.yul\":2559:2565   */\n      dup4\n        /* \"#utility.yul\":2555:2570   */\n      add\n        /* \"#utility.yul\":2551:2580   */\n      and\n        /* \"#utility.yul\":2546:2549   */\n      dup6\n        /* \"#utility.yul\":2542:2581   */\n      add\n        /* \"#utility.yul\":2538:2588   */\n      add\n        /* \"#utility.yul\":2531:2588   */\n      swap2\n      pop\n      pop\n        /* \"#utility.yul\":2305:2594   */\n      swap3\n      swap2\n      pop\n      pop\n      jump\t// out\n        /* \"#utility.yul\":2599:2819   */\n    tag_70:\n        /* \"#utility.yul\":2748:2750   */\n      0x20\n        /* \"#utility.yul\":2737:2746   */\n      dup2\n        /* \"#utility.yul\":2730:2751   */\n      mstore\n        /* \"#utility.yul\":2711:2715   */\n      0x00\n        /* \"#utility.yul\":2768:2813   */\n      tag_641\n        /* \"#utility.yul\":2809:2811   */\n      0x20\n        /* \"#utility.yul\":2798:2807   */\n      dup4\n        /* \"#utility.yul\":2794:2812   */\n      add\n        /* \"#utility.yul\":2786:2792   */\n      dup5\n        /* \"#utility.yul\":2768:2813   */\n      tag_613\n      jump\t// in\n    tag_641:\n        /* \"#utility.yul\":2760:2813   */\n      swap4\n        /* \"#utility.yul\":2599:2819   */\n      swap3\n      pop\n      pop\n      pop\n      jump\t// out\n        /* \"#utility.yul\":3006:3292   */\n    tag_79:\n        /* \"#utility.yul\":3065:3071   */\n      0x00\n        /* \"#utility.yul\":3118:3120   */\n      0x20\n        /* \"#utility.yul\":3106:3115   */\n      dup3\n        /* \"#utility.yul\":3097:3104   */\n      dup5\n        /* \"#utility.yul\":3093:3116   */\n      sub\n        /* \"#utility.yul\":3089:3121   */\n      slt\n        /* \"#utility.yul\":3086:3138   */\n      iszero\n      tag_644\n      jumpi\n        /* \"#utility.yul\":3134:3135   */\n      0x00\n        /* \"#utility.yul\":3131:3132   */\n      0x00\n        /* \"#utility.yul\":3124:3136   */\n      revert\n        /* \"#utility.yul\":3086:3138   */\n    tag_644:\n        /* \"#utility.yul\":3160:3183   */\n      dup2\n      calldataload\n      sub(shl(0xa0, 0x01), 0x01)\n        /* \"#utility.yul\":3212:3243   */\n      dup2\n      and\n        /* \"#utility.yul\":3202:3244   */\n      dup2\n      eq\n        /* \"#utility.yul\":3192:3262   */\n      tag_641\n      jumpi\n        /* \"#utility.yul\":3258:3259   */\n      0x00\n        /* \"#utility.yul\":3255:3256   */\n      0x00\n        /* \"#utility.yul\":3248:3260   */\n      revert\n        /* \"#utility.yul\":3489:3811   */\n    tag_91:\n        /* \"#utility.yul\":3558:3564   */\n      0x00\n        /* \"#utility.yul\":3611:3613   */\n      0x20\n        /* \"#utility.yul\":3599:3608   */\n      dup3\n        /* \"#utility.yul\":3590:3597   */\n      dup5\n        /* \"#utility.yul\":3586:3609   */\n      sub\n        /* \"#utility.yul\":3582:3614   */\n      slt\n        /* \"#utility.yul\":3579:3631   */\n      iszero\n      tag_648\n      jumpi\n        /* \"#utility.yul\":3627:3628   */\n      0x00\n        /* \"#utility.yul\":3624:3625   */\n      0x00\n        /* \"#utility.yul\":3617:3629   */\n      revert\n        /* \"#utility.yul\":3579:3631   */\n    tag_648:\n        /* \"#utility.yul\":3667:3676   */\n      dup2\n        /* \"#utility.yul\":3654:3677   */\n      calldataload\n        /* \"#utility.yul\":3700:3718   */\n      0xffffffffffffffff\n        /* \"#utility.yul\":3692:3698   */\n      dup2\n        /* \"#utility.yul\":3689:3719   */\n      gt\n        /* \"#utility.yul\":3686:3736   */\n      iszero\n      tag_649\n      jumpi\n        /* \"#utility.yul\":3732:3733   */\n      0x00\n        /* \"#utility.yul\":3729:3730   */\n      0x00\n        /* \"#utility.yul\":3722:3734   */\n      revert\n        /* \"#utility.yul\":3686:3736   */\n    tag_649:\n        /* \"#utility.yul\":3755:3805   */\n      tag_650\n        /* \"#utility.yul\":3797:3804   */\n      dup5\n        /* \"#utility.yul\":3788:3794   */\n      dup3\n        /* \"#utility.yul\":3777:3786   */\n      dup6\n        /* \"#utility.yul\":3773:3795   */\n      add\n        /* \"#utility.yul\":3755:3805   */\n      tag_612\n      jump\t// in\n    tag_650:\n        /* \"#utility.yul\":3745:3805   */\n      swap5\n        /* \"#utility.yul\":3489:3811   */\n      swap4\n      pop\n      pop\n      pop\n      pop\n      jump\t// out\n        /* \"#utility.yul\":4314:5251   */\n    tag_118:\n        /* \"#utility.yul\":4685:4688   */\n      0xe0\n        /* \"#utility.yul\":4674:4683   */\n      dup2\n        /* \"#utility.yul\":4667:4689   */\n      mstore\n        /* \"#utility.yul\":4648:4652   */\n      0x00\n        /* \"#utility.yul\":4712:4758   */\n      tag_653\n        /* \"#utility.yul\":4753:4756   */\n      0xe0\n        /* \"#utility.yul\":4742:4751   */\n      dup4\n        /* \"#utility.yul\":4738:4757   */\n      add\n        /* \"#utility.yul\":4730:4736   */\n      dup11\n        /* \"#utility.yul\":4712:4758   */\n      tag_613\n      jump\t// in\n    tag_653:\n        /* \"#utility.yul\":4806:4815   */\n      dup3\n        /* \"#utility.yul\":4798:4804   */\n      dup2\n        /* \"#utility.yul\":4794:4816   */\n      sub\n        /* \"#utility.yul\":4789:4791   */\n      0x20\n        /* \"#utility.yul\":4778:4787   */\n      dup5\n        /* \"#utility.yul\":4774:4792   */\n      add\n        /* \"#utility.yul\":4767:4817   */\n      mstore\n        /* \"#utility.yul\":4840:4873   */\n      tag_654\n        /* \"#utility.yul\":4866:4872   */\n      dup2\n        /* \"#utility.yul\":4858:4864   */\n      dup11\n        /* \"#utility.yul\":4840:4873   */\n      tag_613\n      jump\t// in\n    tag_654:\n        /* \"#utility.yul\":4826:4873   */\n      swap1\n      pop\n        /* \"#utility.yul\":4921:4930   */\n      dup3\n        /* \"#utility.yul\":4913:4919   */\n      dup2\n        /* \"#utility.yul\":4909:4931   */\n      sub\n        /* \"#utility.yul\":4904:4906   */\n      0x40\n        /* \"#utility.yul\":4893:4902   */\n      dup5\n        /* \"#utility.yul\":4889:4907   */\n      add\n        /* \"#utility.yul\":4882:4932   */\n      mstore\n        /* \"#utility.yul\":4955:4988   */\n      tag_655\n        /* \"#utility.yul\":4981:4987   */\n      dup2\n        /* \"#utility.yul\":4973:4979   */\n      dup10\n        /* \"#utility.yul\":4955:4988   */\n      tag_613\n      jump\t// in\n    tag_655:\n        /* \"#utility.yul\":4941:4988   */\n      swap1\n      pop\n        /* \"#utility.yul\":5024:5030   */\n      dup7\n        /* \"#utility.yul\":5019:5021   */\n      0x60\n        /* \"#utility.yul\":5008:5017   */\n      dup5\n        /* \"#utility.yul\":5004:5022   */\n      add\n        /* \"#utility.yul\":4997:5031   */\n      mstore\n        /* \"#utility.yul\":5068:5074   */\n      dup6\n        /* \"#utility.yul\":5062:5065   */\n      0x80\n        /* \"#utility.yul\":5051:5060   */\n      dup5\n        /* \"#utility.yul\":5047:5066   */\n      add\n        /* \"#utility.yul\":5040:5075   */\n      mstore\n        /* \"#utility.yul\":5124:5133   */\n      dup3\n        /* \"#utility.yul\":5116:5122   */\n      dup2\n        /* \"#utility.yul\":5112:5134   */\n      sub\n        /* \"#utility.yul\":5106:5109   */\n      0xa0\n        /* \"#utility.yul\":5095:5104   */\n      dup5\n        /* \"#utility.yul\":5091:5110   */\n      add\n        /* \"#utility.yul\":5084:5135   */\n      mstore\n        /* \"#utility.yul\":5152:5185   */\n      tag_656\n        /* \"#utility.yul\":5178:5184   */\n      dup2\n        /* \"#utility.yul\":5170:5176   */\n      dup7\n        /* \"#utility.yul\":5152:5185   */\n      tag_613\n      jump\t// in\n    tag_656:\n        /* \"#utility.yul\":5144:5185   */\n      swap2\n      pop\n      pop\n        /* \"#utility.yul\":5236:5242   */\n      dup3\n        /* \"#utility.yul\":5229:5243   */\n      iszero\n        /* \"#utility.yul\":5222:5244   */\n      iszero\n        /* \"#utility.yul\":5216:5219   */\n      0xc0\n        /* \"#utility.yul\":5205:5214   */\n      dup4\n        /* \"#utility.yul\":5201:5220   */\n      add\n        /* \"#utility.yul\":5194:5245   */\n      mstore\n        /* \"#utility.yul\":4314:5251   */\n      swap9\n      swap8\n      pop\n      pop\n      pop\n      pop\n      pop\n      pop\n      pop\n      pop\n      jump\t// out\n        /* \"#utility.yul\":5864:7677   */\n    tag_144:\n        /* \"#utility.yul\":6052:6058   */\n      0x00\n        /* \"#utility.yul\":6060:6066   */\n      0x00\n        /* \"#utility.yul\":6068:6074   */\n      0x00\n        /* \"#utility.yul\":6076:6082   */\n      0x00\n        /* \"#utility.yul\":6084:6090   */\n      0x00\n        /* \"#utility.yul\":6092:6098   */\n      0x00\n        /* \"#utility.yul\":6100:6106   */\n      0x00\n        /* \"#utility.yul\":6108:6114   */\n      0x00\n        /* \"#utility.yul\":6116:6122   */\n      0x00\n        /* \"#utility.yul\":6124:6130   */\n      0x00\n        /* \"#utility.yul\":6132:6139   */\n      0x00\n        /* \"#utility.yul\":6186:6189   */\n      0x0160\n        /* \"#utility.yul\":6174:6183   */\n      dup13\n        /* \"#utility.yul\":6165:6172   */\n      dup15\n        /* \"#utility.yul\":6161:6184   */\n      sub\n        /* \"#utility.yul\":6157:6190   */\n      slt\n        /* \"#utility.yul\":6154:6207   */\n      iszero\n      tag_660\n      jumpi\n        /* \"#utility.yul\":6203:6204   */\n      0x00\n        /* \"#utility.yul\":6200:6201   */\n      0x00\n        /* \"#utility.yul\":6193:6205   */\n      revert\n        /* \"#utility.yul\":6154:6207   */\n    tag_660:\n        /* \"#utility.yul\":6243:6252   */\n      dup12\n        /* \"#utility.yul\":6230:6253   */\n      calldataload\n        /* \"#utility.yul\":6276:6294   */\n      0xffffffffffffffff\n        /* \"#utility.yul\":6268:6274   */\n      dup2\n        /* \"#utility.yul\":6265:6295   */\n      gt\n        /* \"#utility.yul\":6262:6312   */\n      iszero\n      tag_661\n      jumpi\n        /* \"#utility.yul\":6308:6309   */\n      0x00\n        /* \"#utility.yul\":6305:6306   */\n      0x00\n        /* \"#utility.yul\":6298:6310   */\n      revert\n        /* \"#utility.yul\":6262:6312   */\n    tag_661:\n        /* \"#utility.yul\":6331:6381   */\n      tag_662\n        /* \"#utility.yul\":6373:6380   */\n      dup15\n        /* \"#utility.yul\":6364:6370   */\n      dup3\n        /* \"#utility.yul\":6353:6362   */\n      dup16\n        /* \"#utility.yul\":6349:6371   */\n      add\n        /* \"#utility.yul\":6331:6381   */\n      tag_612\n      jump\t// in\n    tag_662:\n        /* \"#utility.yul\":6321:6381   */\n      swap12\n      pop\n      pop\n        /* \"#utility.yul\":6434:6436   */\n      0x20\n        /* \"#utility.yul\":6423:6432   */\n      dup13\n        /* \"#utility.yul\":6419:6437   */\n      add\n        /* \"#utility.yul\":6406:6438   */\n      calldataload\n        /* \"#utility.yul\":6463:6481   */\n      0xffffffffffffffff\n        /* \"#utility.yul\":6453:6461   */\n      dup2\n        /* \"#utility.yul\":6450:6482   */\n      gt\n        /* \"#utility.yul\":6447:6499   */\n      iszero\n      tag_663\n      jumpi\n        /* \"#utility.yul\":6495:6496   */\n      0x00\n        /* \"#utility.yul\":6492:6493   */\n      0x00\n        /* \"#utility.yul\":6485:6497   */\n      revert\n        /* \"#utility.yul\":6447:6499   */\n    tag_663:\n        /* \"#utility.yul\":6518:6570   */\n      tag_664\n        /* \"#utility.yul\":6562:6569   */\n      dup15\n        /* \"#utility.yul\":6551:6559   */\n      dup3\n        /* \"#utility.yul\":6540:6549   */\n      dup16\n        /* \"#utility.yul\":6536:6560   */\n      add\n        /* \"#utility.yul\":6518:6570   */\n      tag_612\n      jump\t// in\n    tag_664:\n        /* \"#utility.yul\":6508:6570   */\n      swap11\n      pop\n      pop\n        /* \"#utility.yul\":6623:6625   */\n      0x40\n        /* \"#utility.yul\":6612:6621   */\n      dup13\n        /* \"#utility.yul\":6608:6626   */\n      add\n        /* \"#utility.yul\":6595:6627   */\n      calldataload\n        /* \"#utility.yul\":6652:6670   */\n      0xffffffffffffffff\n        /* \"#utility.yul\":6642:6650   */\n      dup2\n        /* \"#utility.yul\":6639:6671   */\n      gt\n        /* \"#utility.yul\":6636:6688   */\n      iszero\n      tag_665\n      jumpi\n        /* \"#utility.yul\":6684:6685   */\n      0x00\n        /* \"#utility.yul\":6681:6682   */\n      0x00\n        /* \"#utility.yul\":6674:6686   */\n      revert\n        /* \"#utility.yul\":6636:6688   */\n    tag_665:\n        /* \"#utility.yul\":6707:6759   */\n      tag_666\n        /* \"#utility.yul\":6751:6758   */\n      dup15\n        /* \"#utility.yul\":6740:6748   */\n      dup3\n        /* \"#utility.yul\":6729:6738   */\n      dup16\n        /* \"#utility.yul\":6725:6749   */\n      add\n        /* \"#utility.yul\":6707:6759   */\n      tag_612\n      jump\t// in\n    tag_666:\n        /* \"#utility.yul\":6697:6759   */\n      swap10\n      pop\n      pop\n        /* \"#utility.yul\":6828:6830   */\n      0x60\n        /* \"#utility.yul\":6813:6831   */\n      dup13\n      add\n        /* \"#utility.yul\":6800:6832   */\n      calldataload\n      swap8\n      pop\n        /* \"#utility.yul\":6929:6932   */\n      0x80\n        /* \"#utility.yul\":6914:6933   */\n      dup13\n      add\n        /* \"#utility.yul\":6901:6934   */\n      calldataload\n      swap7\n      pop\n        /* \"#utility.yul\":7033:7036   */\n      0xa0\n        /* \"#utility.yul\":7018:7037   */\n      dup13\n      add\n        /* \"#utility.yul\":7005:7038   */\n      calldataload\n      swap6\n      pop\n        /* \"#utility.yul\":7137:7140   */\n      0xc0\n        /* \"#utility.yul\":7122:7141   */\n      dup13\n      add\n        /* \"#utility.yul\":7109:7142   */\n      calldataload\n      swap5\n      pop\n        /* \"#utility.yul\":7241:7244   */\n      0xe0\n        /* \"#utility.yul\":7226:7245   */\n      dup13\n      add\n        /* \"#utility.yul\":7213:7246   */\n      calldataload\n      swap4\n      pop\n        /* \"#utility.yul\":7345:7348   */\n      0x0100\n        /* \"#utility.yul\":7330:7349   */\n      dup13\n      add\n        /* \"#utility.yul\":7317:7350   */\n      calldataload\n      swap3\n      pop\n        /* \"#utility.yul\":7449:7452   */\n      0x0120\n        /* \"#utility.yul\":7434:7453   */\n      dup13\n      add\n        /* \"#utility.yul\":7421:7454   */\n      calldataload\n      swap2\n      pop\n        /* \"#utility.yul\":7533:7536   */\n      0x0140\n        /* \"#utility.yul\":7518:7537   */\n      dup13\n      add\n        /* \"#utility.yul\":7505:7538   */\n      calldataload\n        /* \"#utility.yul\":7563:7581   */\n      0xffffffffffffffff\n        /* \"#utility.yul\":7550:7582   */\n      dup2\n      gt\n        /* \"#utility.yul\":7547:7599   */\n      iszero\n      tag_667\n      jumpi\n        /* \"#utility.yul\":7595:7596   */\n      0x00\n        /* \"#utility.yul\":7592:7593   */\n      0x00\n        /* \"#utility.yul\":7585:7597   */\n      revert\n        /* \"#utility.yul\":7547:7599   */\n    tag_667:\n        /* \"#utility.yul\":7619:7671   */\n      tag_668\n        /* \"#utility.yul\":7663:7670   */\n      dup15\n        /* \"#utility.yul\":7652:7660   */\n      dup3\n        /* \"#utility.yul\":7641:7650   */\n      dup16\n        /* \"#utility.yul\":7637:7661   */\n      add\n        /* \"#utility.yul\":7619:7671   */\n      tag_612\n      jump\t// in\n    tag_668:\n        /* \"#utility.yul\":7608:7671   */\n      swap2\n      pop\n      pop\n        /* \"#utility.yul\":5864:7677   */\n      swap3\n      swap6\n      swap9\n      swap12\n      pop\n      swap3\n      swap6\n      swap9\n      swap12\n      swap1\n      swap4\n      swap7\n      swap10\n      pop\n      jump\t// out\n        /* \"#utility.yul\":7913:9045   */\n    tag_184:\n        /* \"#utility.yul\":8359:8362   */\n      0x0120\n        /* \"#utility.yul\":8348:8357   */\n      dup2\n        /* \"#utility.yul\":8341:8363   */\n      mstore\n        /* \"#utility.yul\":8322:8326   */\n      0x00\n        /* \"#utility.yul\":8386:8432   */\n      tag_672\n        /* \"#utility.yul\":8427:8430   */\n      0x0120\n        /* \"#utility.yul\":8416:8425   */\n      dup4\n        /* \"#utility.yul\":8412:8431   */\n      add\n        /* \"#utility.yul\":8404:8410   */\n      dup13\n        /* \"#utility.yul\":8386:8432   */\n      tag_613\n      jump\t// in\n    tag_672:\n        /* \"#utility.yul\":8480:8489   */\n      dup3\n        /* \"#utility.yul\":8472:8478   */\n      dup2\n        /* \"#utility.yul\":8468:8490   */\n      sub\n        /* \"#utility.yul\":8463:8465   */\n      0x20\n        /* \"#utility.yul\":8452:8461   */\n      dup5\n        /* \"#utility.yul\":8448:8466   */\n      add\n        /* \"#utility.yul\":8441:8491   */\n      mstore\n        /* \"#utility.yul\":8514:8547   */\n      tag_673\n        /* \"#utility.yul\":8540:8546   */\n      dup2\n        /* \"#utility.yul\":8532:8538   */\n      dup13\n        /* \"#utility.yul\":8514:8547   */\n      tag_613\n      jump\t// in\n    tag_673:\n        /* \"#utility.yul\":8500:8547   */\n      swap1\n      pop\n        /* \"#utility.yul\":8595:8604   */\n      dup3\n        /* \"#utility.yul\":8587:8593   */\n      dup2\n        /* \"#utility.yul\":8583:8605   */\n      sub\n        /* \"#utility.yul\":8578:8580   */\n      0x40\n        /* \"#utility.yul\":8567:8576   */\n      dup5\n        /* \"#utility.yul\":8563:8581   */\n      add\n        /* \"#utility.yul\":8556:8606   */\n      mstore\n        /* \"#utility.yul\":8629:8662   */\n      tag_674\n        /* \"#utility.yul\":8655:8661   */\n      dup2\n        /* \"#utility.yul\":8647:8653   */\n      dup12\n        /* \"#utility.yul\":8629:8662   */\n      tag_613\n      jump\t// in\n    tag_674:\n        /* \"#utility.yul\":8615:8662   */\n      swap1\n      pop\n        /* \"#utility.yul\":8698:8704   */\n      dup9\n        /* \"#utility.yul\":8693:8695   */\n      0x60\n        /* \"#utility.yul\":8682:8691   */\n      dup5\n        /* \"#utility.yul\":8678:8696   */\n      add\n        /* \"#utility.yul\":8671:8705   */\n      mstore\n        /* \"#utility.yul\":8742:8748   */\n      dup8\n        /* \"#utility.yul\":8736:8739   */\n      0x80\n        /* \"#utility.yul\":8725:8734   */\n      dup5\n        /* \"#utility.yul\":8721:8740   */\n      add\n        /* \"#utility.yul\":8714:8749   */\n      mstore\n        /* \"#utility.yul\":8798:8807   */\n      dup3\n        /* \"#utility.yul\":8790:8796   */\n      dup2\n        /* \"#utility.yul\":8786:8808   */\n      sub\n        /* \"#utility.yul\":8780:8783   */\n      0xa0\n        /* \"#utility.yul\":8769:8778   */\n      dup5\n        /* \"#utility.yul\":8765:8784   */\n      add\n        /* \"#utility.yul\":8758:8809   */\n      mstore\n        /* \"#utility.yul\":8826:8859   */\n      tag_675\n        /* \"#utility.yul\":8852:8858   */\n      dup2\n        /* \"#utility.yul\":8844:8850   */\n      dup9\n        /* \"#utility.yul\":8826:8859   */\n      tag_613\n      jump\t// in\n    tag_675:\n        /* \"#utility.yul\":8818:8859   */\n      swap2\n      pop\n      pop\n        /* \"#utility.yul\":8868:8925   */\n      tag_676\n        /* \"#utility.yul\":8920:8923   */\n      0xc0\n        /* \"#utility.yul\":8909:8918   */\n      dup4\n        /* \"#utility.yul\":8905:8924   */\n      add\n        /* \"#utility.yul\":8897:8903   */\n      dup7\n        /* \"#utility.yul\":8868:8925   */\n      tag_610\n      jump\t// in\n    tag_676:\n      sub(shl(0xa0, 0x01), 0x01)\n        /* \"#utility.yul\":8962:8994   */\n      swap4\n      swap1\n      swap4\n      and\n        /* \"#utility.yul\":8956:8959   */\n      0xe0\n        /* \"#utility.yul\":8941:8960   */\n      dup3\n      add\n        /* \"#utility.yul\":8934:8995   */\n      mstore\n        /* \"#utility.yul\":9026:9029   */\n      0x0100\n        /* \"#utility.yul\":9011:9030   */\n      add\n        /* \"#utility.yul\":9004:9039   */\n      mstore\n        /* \"#utility.yul\":7913:9045   */\n      swap8\n      swap7\n      pop\n      pop\n      pop\n      pop\n      pop\n      pop\n      pop\n      jump\t// out\n        /* \"#utility.yul\":10382:10757   */\n    tag_246:\n        /* \"#utility.yul\":10571:10577   */\n      dup3\n        /* \"#utility.yul\":10566:10569   */\n      dup2\n        /* \"#utility.yul\":10559:10578   */\n      mstore\n        /* \"#utility.yul\":10541:10544   */\n      0x00\n        /* \"#utility.yul\":10607:10613   */\n      dup3\n        /* \"#utility.yul\":10601:10614   */\n      mload\n        /* \"#utility.yul\":10660:10666   */\n      dup1\n        /* \"#utility.yul\":10655:10657   */\n      0x20\n        /* \"#utility.yul\":10647:10653   */\n      dup6\n        /* \"#utility.yul\":10643:10658   */\n      add\n        /* \"#utility.yul\":10638:10640   */\n      0x20\n        /* \"#utility.yul\":10633:10636   */\n      dup6\n        /* \"#utility.yul\":10629:10641   */\n      add\n        /* \"#utility.yul\":10623:10667   */\n      mcopy\n        /* \"#utility.yul\":10731:10732   */\n      0x00\n        /* \"#utility.yul\":10690:10706   */\n      swap3\n      add\n        /* \"#utility.yul\":10708:10710   */\n      0x20\n        /* \"#utility.yul\":10686:10711   */\n      add\n        /* \"#utility.yul\":10720:10733   */\n      swap2\n      dup3\n      mstore\n      pop\n        /* \"#utility.yul\":10686:10711   */\n      swap3\n        /* \"#utility.yul\":10382:10757   */\n      swap2\n      pop\n      pop\n      jump\t// out\n        /* \"#utility.yul\":11402:11782   */\n    tag_253:\n        /* \"#utility.yul\":11481:11482   */\n      0x01\n        /* \"#utility.yul\":11477:11489   */\n      dup2\n      dup2\n      shr\n      swap1\n        /* \"#utility.yul\":11524:11536   */\n      dup3\n      and\n      dup1\n        /* \"#utility.yul\":11545:11606   */\n      tag_685\n      jumpi\n        /* \"#utility.yul\":11599:11603   */\n      0x7f\n        /* \"#utility.yul\":11591:11597   */\n      dup3\n        /* \"#utility.yul\":11587:11604   */\n      and\n        /* \"#utility.yul\":11577:11604   */\n      swap2\n      pop\n        /* \"#utility.yul\":11545:11606   */\n    tag_685:\n        /* \"#utility.yul\":11652:11654   */\n      0x20\n        /* \"#utility.yul\":11644:11650   */\n      dup3\n        /* \"#utility.yul\":11641:11655   */\n      lt\n        /* \"#utility.yul\":11621:11639   */\n      dup2\n        /* \"#utility.yul\":11618:11656   */\n      sub\n        /* \"#utility.yul\":11615:11776   */\n      tag_686\n      jumpi\n        /* \"#utility.yul\":11698:11708   */\n      0x4e487b71\n        /* \"#utility.yul\":11693:11696   */\n      0xe0\n        /* \"#utility.yul\":11689:11709   */\n      shl\n        /* \"#utility.yul\":11686:11687   */\n      0x00\n        /* \"#utility.yul\":11679:11710   */\n      mstore\n        /* \"#utility.yul\":11733:11737   */\n      0x22\n        /* \"#utility.yul\":11730:11731   */\n      0x04\n        /* \"#utility.yul\":11723:11738   */\n      mstore\n        /* \"#utility.yul\":11761:11765   */\n      0x24\n        /* \"#utility.yul\":11758:11759   */\n      0x00\n        /* \"#utility.yul\":11751:11766   */\n      revert\n        /* \"#utility.yul\":11615:11776   */\n    tag_686:\n      pop\n        /* \"#utility.yul\":11402:11782   */\n      swap2\n      swap1\n      pop\n      jump\t// out\n        /* \"#utility.yul\":12257:12775   */\n    tag_615:\n        /* \"#utility.yul\":12359:12361   */\n      0x1f\n        /* \"#utility.yul\":12354:12357   */\n      dup3\n        /* \"#utility.yul\":12351:12362   */\n      gt\n        /* \"#utility.yul\":12348:12769   */\n      iszero\n      tag_690\n      jumpi\n        /* \"#utility.yul\":12395:12400   */\n      dup1\n        /* \"#utility.yul\":12392:12393   */\n      0x00\n        /* \"#utility.yul\":12385:12401   */\n      mstore\n        /* \"#utility.yul\":12439:12443   */\n      0x20\n        /* \"#utility.yul\":12436:12437   */\n      0x00\n        /* \"#utility.yul\":12426:12444   */\n      keccak256\n        /* \"#utility.yul\":12509:12511   */\n      0x1f\n        /* \"#utility.yul\":12497:12507   */\n      dup5\n        /* \"#utility.yul\":12493:12512   */\n      add\n        /* \"#utility.yul\":12490:12491   */\n      0x05\n        /* \"#utility.yul\":12486:12513   */\n      shr\n        /* \"#utility.yul\":12480:12484   */\n      dup2\n        /* \"#utility.yul\":12476:12514   */\n      add\n        /* \"#utility.yul\":12545:12549   */\n      0x20\n        /* \"#utility.yul\":12533:12543   */\n      dup6\n        /* \"#utility.yul\":12530:12550   */\n      lt\n        /* \"#utility.yul\":12527:12574   */\n      iszero\n      tag_691\n      jumpi\n      pop\n        /* \"#utility.yul\":12568:12572   */\n      dup1\n        /* \"#utility.yul\":12527:12574   */\n    tag_691:\n        /* \"#utility.yul\":12623:12625   */\n      0x1f\n        /* \"#utility.yul\":12618:12621   */\n      dup5\n        /* \"#utility.yul\":12614:12626   */\n      add\n        /* \"#utility.yul\":12611:12612   */\n      0x05\n        /* \"#utility.yul\":12607:12627   */\n      shr\n        /* \"#utility.yul\":12601:12605   */\n      dup3\n        /* \"#utility.yul\":12597:12628   */\n      add\n        /* \"#utility.yul\":12587:12628   */\n      swap2\n      pop\n        /* \"#utility.yul\":12678:12759   */\n    tag_692:\n        /* \"#utility.yul\":12696:12698   */\n      dup2\n        /* \"#utility.yul\":12689:12694   */\n      dup2\n        /* \"#utility.yul\":12686:12699   */\n      lt\n        /* \"#utility.yul\":12678:12759   */\n      iszero\n      tag_694\n      jumpi\n        /* \"#utility.yul\":12755:12756   */\n      0x00\n        /* \"#utility.yul\":12741:12757   */\n      dup2\n      sstore\n        /* \"#utility.yul\":12722:12723   */\n      0x01\n        /* \"#utility.yul\":12711:12724   */\n      add\n        /* \"#utility.yul\":12678:12759   */\n      jump(tag_692)\n    tag_694:\n        /* \"#utility.yul\":12682:12685   */\n      pop\n      pop\n        /* \"#utility.yul\":12348:12769   */\n    tag_690:\n        /* \"#utility.yul\":12257:12775   */\n      pop\n      pop\n      pop\n      jump\t// out\n        /* \"#utility.yul\":12951:14250   */\n    tag_276:\n        /* \"#utility.yul\":13077:13080   */\n      dup2\n        /* \"#utility.yul\":13071:13081   */\n      mload\n        /* \"#utility.yul\":13104:13122   */\n      0xffffffffffffffff\n        /* \"#utility.yul\":13096:13102   */\n      dup2\n        /* \"#utility.yul\":13093:13123   */\n      gt\n        /* \"#utility.yul\":13090:13146   */\n      iszero\n      tag_698\n      jumpi\n        /* \"#utility.yul\":13126:13144   */\n      tag_698\n      tag_611\n      jump\t// in\n    tag_698:\n        /* \"#utility.yul\":13155:13252   */\n      tag_699\n        /* \"#utility.yul\":13245:13251   */\n      dup2\n        /* \"#utility.yul\":13205:13243   */\n      tag_700\n        /* \"#utility.yul\":13237:13241   */\n      dup5\n        /* \"#utility.yul\":13231:13242   */\n      sload\n        /* \"#utility.yul\":13205:13243   */\n      tag_253\n      jump\t// in\n    tag_700:\n        /* \"#utility.yul\":13199:13203   */\n      dup5\n        /* \"#utility.yul\":13155:13252   */\n      tag_615\n      jump\t// in\n    tag_699:\n        /* \"#utility.yul\":13301:13305   */\n      0x20\n        /* \"#utility.yul\":13332:13334   */\n      0x1f\n        /* \"#utility.yul\":13321:13335   */\n      dup3\n      gt\n        /* \"#utility.yul\":13349:13350   */\n      0x01\n        /* \"#utility.yul\":13344:13993   */\n      dup2\n      eq\n      tag_702\n      jumpi\n        /* \"#utility.yul\":14037:14038   */\n      0x00\n        /* \"#utility.yul\":14054:14060   */\n      dup4\n        /* \"#utility.yul\":14051:14140   */\n      iszero\n      tag_703\n      jumpi\n      pop\n        /* \"#utility.yul\":14106:14125   */\n      dup5\n      dup3\n      add\n        /* \"#utility.yul\":14100:14126   */\n      mload\n        /* \"#utility.yul\":14051:14140   */\n    tag_703:\n      not(0x00)\n        /* \"#utility.yul\":12908:12909   */\n      0x03\n        /* \"#utility.yul\":12904:12915   */\n      dup6\n      swap1\n      shl\n        /* \"#utility.yul\":12900:12924   */\n      shr\n        /* \"#utility.yul\":12896:12925   */\n      not\n        /* \"#utility.yul\":12886:12926   */\n      and\n        /* \"#utility.yul\":12932:12933   */\n      0x01\n        /* \"#utility.yul\":12928:12939   */\n      dup5\n      swap1\n      shl\n        /* \"#utility.yul\":12883:12940   */\n      or\n        /* \"#utility.yul\":14153:14234   */\n      dup5\n      sstore\n        /* \"#utility.yul\":13314:14244   */\n      jump(tag_694)\n        /* \"#utility.yul\":13344:13993   */\n    tag_702:\n        /* \"#utility.yul\":12204:12205   */\n      0x00\n        /* \"#utility.yul\":12197:12211   */\n      dup5\n      dup2\n      mstore\n        /* \"#utility.yul\":12241:12245   */\n      0x20\n        /* \"#utility.yul\":12228:12246   */\n      dup2\n      keccak256\n      not(0x1f)\n        /* \"#utility.yul\":13380:13400   */\n      dup6\n      and\n      swap2\n        /* \"#utility.yul\":13498:13720   */\n    tag_706:\n        /* \"#utility.yul\":13512:13519   */\n      dup3\n        /* \"#utility.yul\":13509:13510   */\n      dup2\n        /* \"#utility.yul\":13506:13520   */\n      lt\n        /* \"#utility.yul\":13498:13720   */\n      iszero\n      tag_708\n      jumpi\n        /* \"#utility.yul\":13594:13613   */\n      dup8\n      dup6\n      add\n        /* \"#utility.yul\":13588:13614   */\n      mload\n        /* \"#utility.yul\":13573:13615   */\n      dup3\n      sstore\n        /* \"#utility.yul\":13701:13705   */\n      0x20\n        /* \"#utility.yul\":13686:13706   */\n      swap5\n      dup6\n      add\n      swap5\n        /* \"#utility.yul\":13654:13655   */\n      0x01\n        /* \"#utility.yul\":13642:13656   */\n      swap1\n      swap3\n      add\n      swap2\n        /* \"#utility.yul\":13528:13540   */\n      add\n        /* \"#utility.yul\":13498:13720   */\n      jump(tag_706)\n    tag_708:\n        /* \"#utility.yul\":13502:13505   */\n      pop\n        /* \"#utility.yul\":13748:13754   */\n      dup5\n        /* \"#utility.yul\":13739:13746   */\n      dup3\n        /* \"#utility.yul\":13736:13755   */\n      lt\n        /* \"#utility.yul\":13733:13934   */\n      iszero\n      tag_709\n      jumpi\n        /* \"#utility.yul\":13809:13828   */\n      dup7\n      dup5\n      add\n        /* \"#utility.yul\":13803:13829   */\n      mload\n      not(0x00)\n        /* \"#utility.yul\":13892:13893   */\n      0x03\n        /* \"#utility.yul\":13888:13902   */\n      dup8\n      swap1\n      shl\n        /* \"#utility.yul\":13904:13907   */\n      0xf8\n        /* \"#utility.yul\":13884:13908   */\n      and\n        /* \"#utility.yul\":13880:13917   */\n      shr\n        /* \"#utility.yul\":13876:13918   */\n      not\n        /* \"#utility.yul\":13861:13919   */\n      and\n        /* \"#utility.yul\":13846:13920   */\n      dup2\n      sstore\n        /* \"#utility.yul\":13733:13934   */\n    tag_709:\n      pop\n      pop\n      pop\n      pop\n        /* \"#utility.yul\":13980:13981   */\n      0x01\n        /* \"#utility.yul\":13964:13978   */\n      swap1\n      dup2\n      shl\n        /* \"#utility.yul\":13960:13982   */\n      add\n        /* \"#utility.yul\":13947:13983   */\n      swap1\n      sstore\n      pop\n        /* \"#utility.yul\":12951:14250   */\n      jump\t// out\n        /* \"#utility.yul\":14255:14572   */\n    tag_280:\n      sub(shl(0xa0, 0x01), 0x01)\n        /* \"#utility.yul\":14432:14464   */\n      dup4\n      and\n        /* \"#utility.yul\":14414:14465   */\n      dup2\n      mstore\n        /* \"#utility.yul\":14501:14503   */\n      0x40\n        /* \"#utility.yul\":14496:14498   */\n      0x20\n        /* \"#utility.yul\":14481:14499   */\n      dup3\n      add\n        /* \"#utility.yul\":14474:14504   */\n      dup2\n      swap1\n      mstore\n      0x00\n      swap1\n        /* \"#utility.yul\":14521:14566   */\n      tag_650\n      swap1\n        /* \"#utility.yul\":14547:14565   */\n      dup4\n      add\n        /* \"#utility.yul\":14539:14545   */\n      dup5\n        /* \"#utility.yul\":14521:14566   */\n      tag_613\n      jump\t// in\n        /* \"#utility.yul\":16744:16871   */\n    tag_362:\n        /* \"#utility.yul\":16805:16815   */\n      0x4e487b71\n        /* \"#utility.yul\":16800:16803   */\n      0xe0\n        /* \"#utility.yul\":16796:16816   */\n      shl\n        /* \"#utility.yul\":16793:16794   */\n      0x00\n        /* \"#utility.yul\":16786:16817   */\n      mstore\n        /* \"#utility.yul\":16836:16840   */\n      0x32\n        /* \"#utility.yul\":16833:16834   */\n      0x04\n        /* \"#utility.yul\":16826:16841   */\n      mstore\n        /* \"#utility.yul\":16860:16864   */\n      0x24\n        /* \"#utility.yul\":16857:16858   */\n      0x00\n        /* \"#utility.yul\":16850:16865   */\n      revert\n        /* \"#utility.yul\":20108:20635   */\n    tag_448:\n        /* \"#utility.yul\":20361:20364   */\n      0x80\n        /* \"#utility.yul\":20350:20359   */\n      dup2\n        /* \"#utility.yul\":20343:20365   */\n      mstore\n        /* \"#utility.yul\":20324:20328   */\n      0x00\n        /* \"#utility.yul\":20388:20434   */\n      tag_729\n        /* \"#utility.yul\":20429:20432   */\n      0x80\n        /* \"#utility.yul\":20418:20427   */\n      dup4\n        /* \"#utility.yul\":20414:20433   */\n      add\n        /* \"#utility.yul\":20406:20412   */\n      dup8\n        /* \"#utility.yul\":20388:20434   */\n      tag_613\n      jump\t// in\n    tag_729:\n        /* \"#utility.yul\":20482:20491   */\n      dup3\n        /* \"#utility.yul\":20474:20480   */\n      dup2\n        /* \"#utility.yul\":20470:20492   */\n      sub\n        /* \"#utility.yul\":20465:20467   */\n      0x20\n        /* \"#utility.yul\":20454:20463   */\n      dup5\n        /* \"#utility.yul\":20450:20468   */\n      add\n        /* \"#utility.yul\":20443:20493   */\n      mstore\n        /* \"#utility.yul\":20510:20543   */\n      tag_730\n        /* \"#utility.yul\":20536:20542   */\n      dup2\n        /* \"#utility.yul\":20528:20534   */\n      dup8\n        /* \"#utility.yul\":20510:20543   */\n      tag_613\n      jump\t// in\n    tag_730:\n        /* \"#utility.yul\":20574:20576   */\n      0x40\n        /* \"#utility.yul\":20559:20577   */\n      dup5\n      add\n        /* \"#utility.yul\":20552:20586   */\n      swap6\n      swap1\n      swap6\n      mstore\n      pop\n      pop\n        /* \"#utility.yul\":20617:20619   */\n      0x60\n        /* \"#utility.yul\":20602:20620   */\n      add\n        /* \"#utility.yul\":20595:20629   */\n      mstore\n        /* \"#utility.yul\":20502:20543   */\n      swap3\n        /* \"#utility.yul\":20108:20635   */\n      swap2\n      pop\n      pop\n      jump\t// out\n        /* \"#utility.yul\":24095:24222   */\n    tag_617:\n        /* \"#utility.yul\":24156:24166   */\n      0x4e487b71\n        /* \"#utility.yul\":24151:24154   */\n      0xe0\n        /* \"#utility.yul\":24147:24167   */\n      shl\n        /* \"#utility.yul\":24144:24145   */\n      0x00\n        /* \"#utility.yul\":24137:24168   */\n      mstore\n        /* \"#utility.yul\":24187:24191   */\n      0x11\n        /* \"#utility.yul\":24184:24185   */\n      0x04\n        /* \"#utility.yul\":24177:24192   */\n      mstore\n        /* \"#utility.yul\":24211:24215   */\n      0x24\n        /* \"#utility.yul\":24208:24209   */\n      0x00\n        /* \"#utility.yul\":24201:24216   */\n      revert\n        /* \"#utility.yul\":24227:24395   */\n    tag_547:\n        /* \"#utility.yul\":24300:24309   */\n      dup1\n      dup3\n      mul\n        /* \"#utility.yul\":24331:24340   */\n      dup2\n      iszero\n        /* \"#utility.yul\":24348:24363   */\n      dup3\n      dup3\n      div\n        /* \"#utility.yul\":24342:24364   */\n      dup5\n      eq\n        /* \"#utility.yul\":24328:24365   */\n      or\n        /* \"#utility.yul\":24318:24389   */\n      tag_258\n      jumpi\n        /* \"#utility.yul\":24369:24387   */\n      tag_258\n      tag_617\n      jump\t// in\n        /* \"#utility.yul\":24400:24528   */\n    tag_549:\n        /* \"#utility.yul\":24467:24476   */\n      dup2\n      dup2\n      sub\n        /* \"#utility.yul\":24488:24499   */\n      dup2\n      dup2\n      gt\n        /* \"#utility.yul\":24485:24522   */\n      iszero\n      tag_258\n      jumpi\n        /* \"#utility.yul\":24502:24520   */\n      tag_258\n      tag_617\n      jump\t// in\n        /* \"#utility.yul\":24533:24669   */\n    tag_553:\n        /* \"#utility.yul\":24568:24571   */\n      0x00\n      shl(0xff, 0x01)\n        /* \"#utility.yul\":24589:24611   */\n      dup3\n      add\n        /* \"#utility.yul\":24586:24634   */\n      tag_750\n      jumpi\n        /* \"#utility.yul\":24614:24632   */\n      tag_750\n      tag_617\n      jump\t// in\n    tag_750:\n      pop\n        /* \"#utility.yul\":24654:24655   */\n      0x00\n        /* \"#utility.yul\":24650:24663   */\n      sub\n      swap1\n        /* \"#utility.yul\":24533:24669   */\n      jump\t// out\n        /* \"#utility.yul\":24674:24799   */\n    tag_556:\n        /* \"#utility.yul\":24739:24748   */\n      dup1\n      dup3\n      add\n        /* \"#utility.yul\":24760:24770   */\n      dup1\n      dup3\n      gt\n        /* \"#utility.yul\":24757:24793   */\n      iszero\n      tag_258\n      jumpi\n        /* \"#utility.yul\":24773:24791   */\n      tag_258\n      tag_617\n      jump\t// in\n        /* \"#utility.yul\":24804:24984   */\n    tag_579:\n        /* \"#utility.yul\":24842:24845   */\n      0x00\n        /* \"#utility.yul\":24886:24892   */\n      0xffff\n        /* \"#utility.yul\":24879:24884   */\n      dup3\n        /* \"#utility.yul\":24875:24893   */\n      and\n        /* \"#utility.yul\":24917:24923   */\n      0xffff\n        /* \"#utility.yul\":24908:24915   */\n      dup2\n        /* \"#utility.yul\":24905:24924   */\n      sub\n        /* \"#utility.yul\":24902:24947   */\n      tag_756\n      jumpi\n        /* \"#utility.yul\":24927:24945   */\n      tag_756\n      tag_617\n      jump\t// in\n    tag_756:\n        /* \"#utility.yul\":24976:24977   */\n      0x01\n        /* \"#utility.yul\":24963:24978   */\n      add\n      swap3\n        /* \"#utility.yul\":24804:24984   */\n      swap2\n      pop\n      pop\n      jump\t// out\n        /* \"#utility.yul\":24989:25147   */\n    tag_588:\n        /* \"#utility.yul\":25082:25088   */\n      0xffff\n        /* \"#utility.yul\":25075:25089   */\n      dup3\n      dup2\n      and\n        /* \"#utility.yul\":25059:25073   */\n      dup3\n      dup3\n      and\n        /* \"#utility.yul\":25055:25090   */\n      sub\n      swap1\n        /* \"#utility.yul\":25102:25118   */\n      dup2\n      gt\n        /* \"#utility.yul\":25099:25141   */\n      iszero\n      tag_258\n      jumpi\n        /* \"#utility.yul\":25121:25139   */\n      tag_258\n      tag_617\n      jump\t// in\n        /* \"#utility.yul\":25152:25411   */\n    tag_604:\n        /* \"#utility.yul\":25183:25184   */\n      0x00\n        /* \"#utility.yul\":25217:25223   */\n      0xffff\n        /* \"#utility.yul\":25214:25215   */\n      dup4\n        /* \"#utility.yul\":25210:25224   */\n      and\n        /* \"#utility.yul\":25243:25246   */\n      dup1\n        /* \"#utility.yul\":25233:25367   */\n      tag_761\n      jumpi\n        /* \"#utility.yul\":25289:25299   */\n      0x4e487b71\n        /* \"#utility.yul\":25284:25287   */\n      0xe0\n        /* \"#utility.yul\":25280:25300   */\n      shl\n        /* \"#utility.yul\":25277:25278   */\n      0x00\n        /* \"#utility.yul\":25270:25301   */\n      mstore\n        /* \"#utility.yul\":25324:25328   */\n      0x12\n        /* \"#utility.yul\":25321:25322   */\n      0x04\n        /* \"#utility.yul\":25314:25329   */\n      mstore\n        /* \"#utility.yul\":25352:25356   */\n      0x24\n        /* \"#utility.yul\":25349:25350   */\n      0x00\n        /* \"#utility.yul\":25342:25357   */\n      revert\n        /* \"#utility.yul\":25233:25367   */\n    tag_761:\n        /* \"#utility.yul\":25401:25404   */\n      dup1\n        /* \"#utility.yul\":25392:25398   */\n      0xffff\n        /* \"#utility.yul\":25389:25390   */\n      dup5\n        /* \"#utility.yul\":25385:25399   */\n      and\n        /* \"#utility.yul\":25381:25405   */\n      mod\n        /* \"#utility.yul\":25376:25405   */\n      swap2\n      pop\n      pop\n        /* \"#utility.yul\":25152:25411   */\n      swap3\n      swap2\n      pop\n      pop\n      jump\t// out\n\n    auxdata: 0xa26469706673582212209b5020d4796fbfd6ed325c0a9ee9feb9ac66e94c33b2cef50d14259ebea10bd064736f6c634300081f0033\n}\n",
				"bytecode": {
					"linkReferences": {},
					"object": "60806040525f80546001600160a01b03191633179055612e5a806100225f395ff3fe6080604052600436106101f1575f3560e01c806375829def11610108578063c63735b31161009d578063d3584e841161006d578063d3584e8414610641578063dfbf53ae14610660578063e3c608ef1461067f578063ed2cee9e146106a8578063f851a440146106c7575f5ffd5b8063c63735b3146105ec578063c87da02d14610605578063d011286314610619578063d116c8c41461062d575f5ffd5b8063905249a3116100d8578063905249a31461059b578063a4a00144146105ba578063b6f3d256146105cf578063bd097e21146105e4575f5ffd5b806375829def1461049f5780637bd2a5da146104be5780638c3d7301146104dd5780638d07ae9f146104f1575f5ffd5b80633c8c40911161018957806356f170821161015957806356f17082146103b4578063592fd028146103d357806362ea82db146103e75780636cb55d1a146104665780636f9fb98a1461048d575f5ffd5b80633c8c4091146103385780634c5aed38146103575780634e5cbf611461037657806353321ae614610395575f5ffd5b806326782247116101c4578063267822471461027f57806326bd8926146102b65780632e9e8e59146102d7578063356e7ccb146102fa575f5ffd5b80630bd58917146101f55780630bf3676714610216578063200d2ed21461022a5780632163b8c514610260575b5f5ffd5b348015610200575f5ffd5b5061021461020f3660046127a9565b6106e5565b005b348015610221575f5ffd5b50610214610843565b348015610235575f5ffd5b5060025461024a90600160a01b900460ff1681565b60405161025791906127f4565b60405180910390f35b34801561026b575f5ffd5b5061021461027a3660046128a1565b61092f565b34801561028a575f5ffd5b5060015461029e906001600160a01b031681565b6040516001600160a01b039091168152602001610257565b3480156102c1575f5ffd5b506102ca610b4c565b6040516102579190612913565b3480156102e2575f5ffd5b506102ec600f5481565b604051908152602001610257565b348015610305575f5ffd5b5061032861031436600461292c565b600a6020525f908152604090205460ff1681565b6040519015158152602001610257565b348015610343575f5ffd5b506102ec6103523660046128a1565b610bd8565b348015610362575f5ffd5b50610214610371366004612952565b610c0b565b348015610381575f5ffd5b5061021461039036600461292c565b610d55565b3480156103a0575f5ffd5b506102146103af3660046127a9565b610f1d565b3480156103bf575f5ffd5b506102146103ce36600461292c565b611129565b3480156103de575f5ffd5b50610214611300565b3480156103f2575f5ffd5b5061043561040136600461292c565b600b6020525f90815260409020805460018201546002830154600390930154919260ff808316936101009093048116921685565b6040516102579594939291909485529215156020850152901515604084015260608301521515608082015260a00190565b348015610471575f5ffd5b5061047a611515565b604051610257979695949392919061298c565b348015610498575f5ffd5b50476102ec565b3480156104aa575f5ffd5b506102146104b936600461292c565b61175e565b3480156104c9575f5ffd5b506102146104d83660046127a9565b611877565b3480156104e8575f5ffd5b506102146119f7565b3480156104fc575f5ffd5b5061057761050b36600461292c565b6001600160a01b03165f908152600b6020908152604091829020825160a08101845281548152600182015460ff80821615159483018590526101009091048116151594820185905260028301546060830181905260039093015416151560809091018190529193909190565b60408051941515855292151560208501529183015215156060820152608001610257565b3480156105a6575f5ffd5b506102146105b53660046129fb565b611a9e565b3480156105c5575f5ffd5b506102ec60105481565b3480156105da575f5ffd5b506102ec600e5481565b610214611ce0565b3480156105f7575f5ffd5b506012546103289060ff1681565b348015610610575f5ffd5b50600c546102ec565b348015610624575f5ffd5b50610214611d0c565b348015610638575f5ffd5b50610214611e3f565b34801561064c575f5ffd5b5061029e61065b3660046127a9565b61205a565b34801561066b575f5ffd5b50600d5461029e906001600160a01b031681565b34801561068a575f5ffd5b50610693612082565b60405161025799989796959493929190612af7565b3480156106b3575f5ffd5b5060025461029e906001600160a01b031681565b3480156106d2575f5ffd5b505f5461029e906001600160a01b031681565b6002546001600160a01b031661070e5760405163d6ea366360e01b815260040160405180910390fd5b6002546001600160a01b0316331461073957604051639864fbb360e01b815260040160405180910390fd5b60095460ff1661075c576040516355e9e64160e11b815260040160405180910390fd5b600480600254600160a01b900460ff16600781111561077d5761077d6127c0565b1461079b57604051630187fa8360e61b815260040160405180910390fd5b816107ed5760405162461bcd60e51b815260206004820152601e60248201527f496e76616c696420696e7370656374696f6e207265706f72742068617368000060448201526064015b60405180910390fd5b60108290556002805460ff60a01b1916600360a11b17905560408051338152602081018490527fef94af06cfa9a76c638dd1a1cfb86b07f938febf05374e3675aeced1f805205e91015b60405180910390a15050565b5f546001600160a01b0316331461086d57604051634755657960e01b815260040160405180910390fd5b60095460ff16610890576040516355e9e64160e11b815260040160405180910390fd5b6006544210156108b357604051633efbccb160e01b815260040160405180910390fd5b5f80600254600160a01b900460ff1660078111156108d3576108d36127c0565b146108f157604051630187fa8360e61b815260040160405180910390fd5b6002805460ff60a01b1916600160a01b1790556040517f2fd2f8fcbb75b0a142d3952ad3f5e92dd16aab6c8bbbd304bdb97066b33c062c905f90a150565b60095460ff16610952576040516355e9e64160e11b815260040160405180910390fd5b335f908152600a602052604090205460ff16610981576040516302f9ce3760e51b815260040160405180910390fd5b600180600254600160a01b900460ff1660078111156109a2576109a26127c0565b146109c057604051630187fa8360e61b815260040160405180910390fd5b335f908152600b60205260409020600181015460ff16610a155760405162461bcd60e51b815260206004820152601060248201526f139bc8189a59081cdd589b5a5d1d195960821b60448201526064016107e4565b6001810154610100900460ff1615610a665760405162461bcd60e51b8152602060048201526014602482015273109a5908185b1c9958591e481c995d99585b195960621b60448201526064016107e4565b5f8484604051602001610a7a929190612b82565b604051602081830303815290604052805190602001209050815f01548114610ae45760405162461bcd60e51b815260206004820181905260248201527f52657665616c20646f6573206e6f74206d61746368207365616c65642062696460448201526064016107e4565b6001828101805461ff0019166101001790556002830186905560038301805460ff1916909117905560408051338152602081018790527f9891bd98143d5a2c5f29be9a7ef8e5d7b723746fb3b75220234af7aa6caeecfe910160405180910390a15050505050565b60118054610b5990612ba2565b80601f0160208091040260200160405190810160405280929190818152602001828054610b8590612ba2565b8015610bd05780601f10610ba757610100808354040283529160200191610bd0565b820191905f5260205f20905b815481529060010190602001808311610bb357829003601f168201915b505050505081565b5f8282604051602001610bec929190612b82565b6040516020818303038152906040528051906020012090505b92915050565b6002546001600160a01b0316610c345760405163d6ea366360e01b815260040160405180910390fd5b6002546001600160a01b03163314610c5f57604051639864fbb360e01b815260040160405180910390fd5b60095460ff16610c82576040516355e9e64160e11b815260040160405180910390fd5b600480600254600160a01b900460ff166007811115610ca357610ca36127c0565b14610cc157604051630187fa8360e61b815260040160405180910390fd5b5f825111610d035760405162461bcd60e51b815260206004820152600f60248201526e1499585cdbdb881c995c5d5a5c9959608a1b60448201526064016107e4565b6011610d0f8382612c26565b506002805460ff60a01b1916600560a01b1790556040517f52fca0fcdda16f4a5f819b60bb9c2f99458433351b90e6fcb3e221fe03b10280906108379033908590612ce1565b5f546001600160a01b03163314610d7f57604051634755657960e01b815260040160405180910390fd5b60095460ff16610da2576040516355e9e64160e11b815260040160405180910390fd5b6001600160a01b038116610df85760405162461bcd60e51b815260206004820152601960248201527f496e76616c696420696e73706563746f7220616464726573730000000000000060448201526064016107e4565b6006600254600160a01b900460ff166007811115610e1857610e186127c0565b14158015610e4457506005600254600160a01b900460ff166007811115610e4157610e416127c0565b14155b8015610e6e57506007600254600160a01b900460ff166007811115610e6b57610e6b6127c0565b14155b610ec85760405162461bcd60e51b815260206004820152602560248201527f43616e6e6f74206368616e676520696e73706563746f72206174207468697320604482015264737461676560d81b60648201526084016107e4565b600280546001600160a01b0319166001600160a01b0383169081179091556040519081527fc7b11d63d071f03c4b488a3a44ee58c8a449f16b0ee289dd25af95c15c9f8e3a906020015b60405180910390a150565b60095460ff16610f40576040516355e9e64160e11b815260040160405180910390fd5b335f908152600a602052604090205460ff16610f6f576040516302f9ce3760e51b815260040160405180910390fd5b6006544210610f915760405163764b8e3360e11b815260040160405180910390fd5b5f80600254600160a01b900460ff166007811115610fb157610fb16127c0565b14610fcf57604051630187fa8360e61b815260040160405180910390fd5b335f908152600b602052604090206001015460ff16156110295760405162461bcd60e51b8152602060048201526015602482015274109a5908185b1c9958591e481cdd589b5a5d1d1959605a1b60448201526064016107e4565b816110765760405162461bcd60e51b815260206004820152601760248201527f496e76616c6964207365616c656420626964206861736800000000000000000060448201526064016107e4565b6040805160a081018252838152600160208083018281525f848601818152606086018281526080870183815233808552600b8752938990209751885593519587018054925161ffff1990931696151561ff00191696909617610100921515929092029190911790945592516002850155516003909301805460ff19169315159390931790925591519182527f88c5a0d081e0c7a69b5817581ffa85b19d71703bc581bb5c09fa253c527a055e9101610837565b5f546001600160a01b0316331461115357604051634755657960e01b815260040160405180910390fd5b60095460ff16611176576040516355e9e64160e11b815260040160405180910390fd5b5f80600254600160a01b900460ff166007811115611196576111966127c0565b146111b457604051630187fa8360e61b815260040160405180910390fd5b6001600160a01b0382166112035760405162461bcd60e51b8152602060048201526016602482015275496e76616c696420626964646572206164647265737360501b60448201526064016107e4565b6001600160a01b0382165f908152600a602052604090205460ff161561126b5760405162461bcd60e51b815260206004820152601960248201527f42696464657220616c726561647920726567697374657265640000000000000060448201526064016107e4565b6001600160a01b0382165f818152600a60209081526040808320805460ff19166001908117909155600c805491820181559093527fdf6966c971051c3d54ec59162606531493a51404a002842f56009d7e5cf4a8c790920180546001600160a01b0319168417905590519182527f381919937473504a02352aede091840b8e02ca2ce85b2c8513022353225faf779101610837565b5f546001600160a01b0316331461132a57604051634755657960e01b815260040160405180910390fd5b60095460ff1661134d576040516355e9e64160e11b815260040160405180910390fd5b600180600254600160a01b900460ff16600781111561136e5761136e6127c0565b1461138c57604051630187fa8360e61b815260040160405180910390fd5b5f5f19815b600c54811015611450575f600c82815481106113af576113af612d04565b5f9182526020808320909101546001600160a01b0316808352600b8252604092839020835160a08101855281548152600182015460ff8082161515958301959095526101009004841615159481019490945260028101546060850152600301549091161580156080840181905291935061142a575080604001515b1561144657838160600151101561144657806060015193508194505b5050600101611391565b506001600160a01b0382166114a05760405162461bcd60e51b81526020600482015260166024820152754e6f2076616c69642072657665616c6564206269647360501b60448201526064016107e4565b600d80546001600160a01b0319166001600160a01b038416908117909155600e8290556002805460ff60a01b1916600160a11b179055604080519182526020820183905280517f44a8e45b0547725a1b190fe91fba127f673b8cec941ceaf8b3e2e67d61055dfe9281900390910190a1505050565b60038054819061152490612ba2565b80601f016020809104026020016040519081016040528092919081815260200182805461155090612ba2565b801561159b5780601f106115725761010080835404028352916020019161159b565b820191905f5260205f20905b81548152906001019060200180831161157e57829003601f168201915b5050505050908060010180546115b090612ba2565b80601f01602080910402602001604051908101604052809291908181526020018280546115dc90612ba2565b80156116275780601f106115fe57610100808354040283529160200191611627565b820191905f5260205f20905b81548152906001019060200180831161160a57829003601f168201915b50505050509080600201805461163c90612ba2565b80601f016020809104026020016040519081016040528092919081815260200182805461166890612ba2565b80156116b35780601f1061168a576101008083540402835291602001916116b3565b820191905f5260205f20905b81548152906001019060200180831161169657829003601f168201915b5050505050908060030154908060040154908060050180546116d490612ba2565b80601f016020809104026020016040519081016040528092919081815260200182805461170090612ba2565b801561174b5780601f106117225761010080835404028352916020019161174b565b820191905f5260205f20905b81548152906001019060200180831161172e57829003601f168201915b5050506006909301549192505060ff1687565b5f546001600160a01b0316331461178857604051634755657960e01b815260040160405180910390fd5b6001600160a01b0381166117d25760405162461bcd60e51b815260206004820152601160248201527024b73b30b634b2103732bb9030b236b4b760791b60448201526064016107e4565b5f546001600160a01b03908116908216036118275760405162461bcd60e51b815260206004820152601560248201527420b63932b0b23c9031bab93932b73a1030b236b4b760591b60448201526064016107e4565b600180546001600160a01b0319166001600160a01b038381169182179092555f8054604051929316917fb4d7bcb4d9a5d6ef6e827e3b1554e5a2578ad9ca843903d42b05d08bfa3458949190a350565b60095460ff1661189a576040516355e9e64160e11b815260040160405180910390fd5b600380600254600160a01b900460ff1660078111156118bb576118bb6127c0565b146118d957604051630187fa8360e61b815260040160405180910390fd5b6002546001600160a01b03166119025760405163d6ea366360e01b815260040160405180910390fd5b600d546001600160a01b0316331461195c5760405162461bcd60e51b815260206004820152601f60248201527f4f6e6c792077696e6e65722063616e207375626d69742064656c69766572790060448201526064016107e4565b816119a95760405162461bcd60e51b815260206004820152601e60248201527f496e76616c69642064656c69766572792065766964656e63652068617368000060448201526064016107e4565b600f8290556002805460ff60a01b1916600160a21b17905560408051338152602081018490527fae1f4649889be6b26bcf006a04c674019d1ebafaa07f234652d80cb084e77c579101610837565b6001546001600160a01b03163314611a455760405162461bcd60e51b81526020600482015260116024820152702737ba103832b73234b7339030b236b4b760791b60448201526064016107e4565b5f8054600180546001600160a01b038082166001600160a01b031980861682178755909216909255604051919092169283917ff8ccb027dfcd135e000e9d45e6cc2d662578a8825d4c45b5e32e0adf67e79ec69190a350565b5f546001600160a01b03163314611ac857604051634755657960e01b815260040160405180910390fd5b60095460ff1615611b145760405162461bcd60e51b815260206004820152601660248201527515195b99195c88185b1c9958591e4818dc99585d195960521b60448201526064016107e4565b5f8211611b755760405162461bcd60e51b815260206004820152602960248201527f436f6e747261637420616d6f756e74206d7573742062652067726561746572206044820152687468616e207a65726f60b81b60648201526084016107e4565b5f611b84898989898989612319565b9050428111611bd55760405162461bcd60e51b815260206004820152601e60248201527f446561646c696e65206d75737420626520696e2074686520667574757265000060448201526064016107e4565b6040805160e0810182528d8152602081018d90529081018b9052606081018290526080810184905260a08101839052600160c0820152600380611c188f82612c26565b5060208201516001820190611c2d9082612c26565b5060408201516002820190611c429082612c26565b50606082015160038201556080820151600482015560a08201516005820190611c6b9082612c26565b5060c091909101516006909101805460ff19169115159190911790556002805460ff60a01b191690556040517f1b8026edb59eb0a93ac326ac7a523b0055a7bd12f595a560e2e75e798f1d20f190611cca908e908e9085908890612d18565b60405180910390a1505050505050505050505050565b5f546001600160a01b03163314611d0a57604051634755657960e01b815260040160405180910390fd5b565b5f546001600160a01b03163314611d3657604051634755657960e01b815260040160405180910390fd5b60095460ff16611d59576040516355e9e64160e11b815260040160405180910390fd5b600280600254600160a01b900460ff166007811115611d7a57611d7a6127c0565b14611d9857604051630187fa8360e61b815260040160405180910390fd5b600d546001600160a01b0316611de55760405162461bcd60e51b8152602060048201526012602482015271139bc81dda5b9b995c881cd95b1958dd195960721b60448201526064016107e4565b6002805460ff60a01b1916600360a01b179055600d54600e54604080516001600160a01b03909316835260208301919091527fb973b46a8f1e88b970a622bf0cf618b80895efa9af0b01edd9b2608fb8a6914e9101610f12565b5f546001600160a01b03163314611e6957604051634755657960e01b815260040160405180910390fd5b60095460ff16611e8c576040516355e9e64160e11b815260040160405180910390fd5b600680600254600160a01b900460ff166007811115611ead57611ead6127c0565b14611ecb57604051630187fa8360e61b815260040160405180910390fd5b60125460ff1615611f1e5760405162461bcd60e51b815260206004820152601860248201527f5061796d656e7420616c72656164792072656c6561736564000000000000000060448201526064016107e4565b600d546001600160a01b0316611f675760405162461bcd60e51b815260206004820152600e60248201526d15da5b9b995c881b9bdd081cd95d60921b60448201526064016107e4565b600754471015611fb95760405162461bcd60e51b815260206004820152601d60248201527f496e73756666696369656e7420636f6e74726163742062616c616e636500000060448201526064016107e4565b6012805460ff191660011790556002805460ff60a01b1916600760a01b179055600d546007546040516001600160a01b039092169181156108fc0291905f818181858888f19350505050158015612012573d5f5f3e3d5ffd5b50600d54600754604080516001600160a01b03909316835260208301919091527fdf20fd1e76bc69d672e4814fafb2c449bba3a5369d8359adf9e05e6fde87b0569101610f12565b600c8181548110612069575f80fd5b5f918252602090912001546001600160a01b0316905081565b60608060605f5f60605f5f5f60035f016003600101600360020160038001546003600401546003600501600260149054906101000a900460ff16600d5f9054906101000a90046001600160a01b0316600e548880546120e090612ba2565b80601f016020809104026020016040519081016040528092919081815260200182805461210c90612ba2565b80156121575780601f1061212e57610100808354040283529160200191612157565b820191905f5260205f20905b81548152906001019060200180831161213a57829003601f168201915b5050505050985087805461216a90612ba2565b80601f016020809104026020016040519081016040528092919081815260200182805461219690612ba2565b80156121e15780601f106121b8576101008083540402835291602001916121e1565b820191905f5260205f20905b8154815290600101906020018083116121c457829003601f168201915b505050505097508680546121f490612ba2565b80601f016020809104026020016040519081016040528092919081815260200182805461222090612ba2565b801561226b5780601f106122425761010080835404028352916020019161226b565b820191905f5260205f20905b81548152906001019060200180831161224e57829003601f168201915b5050505050965083805461227e90612ba2565b80601f01602080910402602001604051908101604052809291908181526020018280546122aa90612ba2565b80156122f55780601f106122cc576101008083540402835291602001916122f5565b820191905f5260205f20905b8154815290600101906020018083116122d857829003601f168201915b50505050509350985098509850985098509850985098509850909192939495969798565b5f6107b2871015801561232e57506108348711155b6123695760405162461bcd60e51b815260206004820152600c60248201526b24b73b30b634b2103cb2b0b960a11b60448201526064016107e4565b6001861015801561237b5750600c8611155b6123b75760405162461bcd60e51b815260206004820152600d60248201526c092dcecc2d8d2c840dadedce8d609b1b60448201526064016107e4565b601884106123f65760405162461bcd60e51b815260206004820152600c60248201526b24b73b30b634b2103437bab960a11b60448201526064016107e4565b603c83106124375760405162461bcd60e51b815260206004820152600e60248201526d496e76616c6964206d696e75746560901b60448201526064016107e4565b600b19821215801561244a5750600e8213155b61248b5760405162461bcd60e51b8152602060048201526012602482015271125b9d985b1a5908155510c81bd9999cd95d60721b60448201526064016107e4565b5f612496888861254d565b9050600186101580156124a95750808611155b6124e35760405162461bcd60e51b815260206004820152600b60248201526a496e76616c69642064617960a81b60448201526064016107e4565b6124f188888888885f6125b1565b91505f8313156125185761250783610e10612d64565b6125119083612d7b565b9150612542565b5f8312156125425761252983612d8e565b61253590610e10612d64565b61253f9083612da8565b91505b509695505050505050565b5f816002036125775761255f8361274d565b61256a57601c61256d565b601d5b60ff169050610c05565b81600414806125865750816006145b806125915750816009145b8061259c575081600b145b156125a95750601e610c05565b50601f610c05565b5f6107b25b878161ffff161015612608576125cb8161274d565b156125e5576125de6301e2850083612da8565b91506125f6565b6125f36301e1338083612da8565b91505b8061260081612dbb565b9150506125b6565b6040805161018081018252601f808252601c6020830152918101829052601e606082018190526080820183905260a0820181905260c0820183905260e08201839052610100820181905261012082018390526101408201526101608101919091526126728961274d565b1561267f57601d60208201525b600191505b878261ffff1610156126e3578061269c600184612ddb565b61ffff16600c81106126b0576126b0612d04565b60200201516126c59060ff1662015180612d64565b6126cf9084612da8565b9250816126db81612dbb565b925050612684565b6126ee600188612d7b565b6126fb9062015180612d64565b6127059084612da8565b925061271386610e10612d64565b61271d9084612da8565b925061272a85603c612d64565b6127349084612da8565b92506127408484612da8565b9998505050505050505050565b5f612759600483612df5565b61ffff161561276957505f919050565b612774606483612df5565b61ffff161561278557506001919050565b61279161019083612df5565b61ffff16156127a157505f919050565b506001919050565b5f602082840312156127b9575f5ffd5b5035919050565b634e487b7160e01b5f52602160045260245ffd5b600881106127f057634e487b7160e01b5f52602160045260245ffd5b9052565b60208101610c0582846127d4565b634e487b7160e01b5f52604160045260245ffd5b5f82601f830112612825575f5ffd5b813567ffffffffffffffff81111561283f5761283f612802565b604051601f8201601f19908116603f0116810167ffffffffffffffff8111828210171561286e5761286e612802565b604052818152838201602001851015612885575f5ffd5b816020850160208301375f918101602001919091529392505050565b5f5f604083850312156128b2575f5ffd5b82359150602083013567ffffffffffffffff8111156128cf575f5ffd5b6128db85828601612816565b9150509250929050565b5f81518084528060208401602086015e5f602082860101526020601f19601f83011685010191505092915050565b602081525f61292560208301846128e5565b9392505050565b5f6020828403121561293c575f5ffd5b81356001600160a01b0381168114612925575f5ffd5b5f60208284031215612962575f5ffd5b813567ffffffffffffffff811115612978575f5ffd5b61298484828501612816565b949350505050565b60e081525f61299e60e083018a6128e5565b82810360208401526129b0818a6128e5565b905082810360408401526129c481896128e5565b905086606084015285608084015282810360a08401526129e481866128e5565b91505082151560c083015298975050505050505050565b5f5f5f5f5f5f5f5f5f5f5f6101608c8e031215612a16575f5ffd5b8b3567ffffffffffffffff811115612a2c575f5ffd5b612a388e828f01612816565b9b505060208c013567ffffffffffffffff811115612a54575f5ffd5b612a608e828f01612816565b9a505060408c013567ffffffffffffffff811115612a7c575f5ffd5b612a888e828f01612816565b99505060608c0135975060808c0135965060a08c0135955060c08c0135945060e08c013593506101008c013592506101208c013591506101408c013567ffffffffffffffff811115612ad8575f5ffd5b612ae48e828f01612816565b9150509295989b509295989b9093969950565b61012081525f612b0b61012083018c6128e5565b8281036020840152612b1d818c6128e5565b90508281036040840152612b31818b6128e5565b905088606084015287608084015282810360a0840152612b5181886128e5565b915050612b6160c08301866127d4565b6001600160a01b039390931660e08201526101000152979650505050505050565b8281525f82518060208501602085015e5f92016020019182525092915050565b600181811c90821680612bb657607f821691505b602082108103612bd457634e487b7160e01b5f52602260045260245ffd5b50919050565b601f821115612c2157805f5260205f20601f840160051c81016020851015612bff5750805b601f840160051c820191505b81811015612c1e575f8155600101612c0b565b50505b505050565b815167ffffffffffffffff811115612c4057612c40612802565b612c5481612c4e8454612ba2565b84612bda565b6020601f821160018114612c86575f8315612c6f5750848201515b5f19600385901b1c1916600184901b178455612c1e565b5f84815260208120601f198516915b82811015612cb55787850151825560209485019460019092019101612c95565b5084821015612cd257868401515f19600387901b60f8161c191681555b50505050600190811b01905550565b6001600160a01b03831681526040602082018190525f90612984908301846128e5565b634e487b7160e01b5f52603260045260245ffd5b608081525f612d2a60808301876128e5565b8281036020840152612d3c81876128e5565b604084019590955250506060015292915050565b634e487b7160e01b5f52601160045260245ffd5b8082028115828204841417610c0557610c05612d50565b81810381811115610c0557610c05612d50565b5f600160ff1b8201612da257612da2612d50565b505f0390565b80820180821115610c0557610c05612d50565b5f61ffff821661ffff8103612dd257612dd2612d50565b60010192915050565b61ffff8281168282160390811115610c0557610c05612d50565b5f61ffff831680612e1457634e487b7160e01b5f52601260045260245ffd5b8061ffff8416069150509291505056fea26469706673582212209b5020d4796fbfd6ed325c0a9ee9feb9ac66e94c33b2cef50d14259ebea10bd064736f6c634300081f0033",
					"opcodes": "PUSH1 0x80 PUSH1 0x40 MSTORE PUSH0 DUP1 SLOAD PUSH1 0x1 PUSH1 0x1 PUSH1 0xA0 SHL SUB NOT AND CALLER OR SWAP1 SSTORE PUSH2 0x2E5A DUP1 PUSH2 0x22 PUSH0 CODECOPY PUSH0 RETURN INVALID PUSH1 0x80 PUSH1 0x40 MSTORE PUSH1 0x4 CALLDATASIZE LT PUSH2 0x1F1 JUMPI PUSH0 CALLDATALOAD PUSH1 0xE0 SHR DUP1 PUSH4 0x75829DEF GT PUSH2 0x108 JUMPI DUP1 PUSH4 0xC63735B3 GT PUSH2 0x9D JUMPI DUP1 PUSH4 0xD3584E84 GT PUSH2 0x6D JUMPI DUP1 PUSH4 0xD3584E84 EQ PUSH2 0x641 JUMPI DUP1 PUSH4 0xDFBF53AE EQ PUSH2 0x660 JUMPI DUP1 PUSH4 0xE3C608EF EQ PUSH2 0x67F JUMPI DUP1 PUSH4 0xED2CEE9E EQ PUSH2 0x6A8 JUMPI DUP1 PUSH4 0xF851A440 EQ PUSH2 0x6C7 JUMPI PUSH0 PUSH0 REVERT JUMPDEST DUP1 PUSH4 0xC63735B3 EQ PUSH2 0x5EC JUMPI DUP1 PUSH4 0xC87DA02D EQ PUSH2 0x605 JUMPI DUP1 PUSH4 0xD0112863 EQ PUSH2 0x619 JUMPI DUP1 PUSH4 0xD116C8C4 EQ PUSH2 0x62D JUMPI PUSH0 PUSH0 REVERT JUMPDEST DUP1 PUSH4 0x905249A3 GT PUSH2 0xD8 JUMPI DUP1 PUSH4 0x905249A3 EQ PUSH2 0x59B JUMPI DUP1 PUSH4 0xA4A00144 EQ PUSH2 0x5BA JUMPI DUP1 PUSH4 0xB6F3D256 EQ PUSH2 0x5CF JUMPI DUP1 PUSH4 0xBD097E21 EQ PUSH2 0x5E4 JUMPI PUSH0 PUSH0 REVERT JUMPDEST DUP1 PUSH4 0x75829DEF EQ PUSH2 0x49F JUMPI DUP1 PUSH4 0x7BD2A5DA EQ PUSH2 0x4BE JUMPI DUP1 PUSH4 0x8C3D7301 EQ PUSH2 0x4DD JUMPI DUP1 PUSH4 0x8D07AE9F EQ PUSH2 0x4F1 JUMPI PUSH0 PUSH0 REVERT JUMPDEST DUP1 PUSH4 0x3C8C4091 GT PUSH2 0x189 JUMPI DUP1 PUSH4 0x56F17082 GT PUSH2 0x159 JUMPI DUP1 PUSH4 0x56F17082 EQ PUSH2 0x3B4 JUMPI DUP1 PUSH4 0x592FD028 EQ PUSH2 0x3D3 JUMPI DUP1 PUSH4 0x62EA82DB EQ PUSH2 0x3E7 JUMPI DUP1 PUSH4 0x6CB55D1A EQ PUSH2 0x466 JUMPI DUP1 PUSH4 0x6F9FB98A EQ PUSH2 0x48D JUMPI PUSH0 PUSH0 REVERT JUMPDEST DUP1 PUSH4 0x3C8C4091 EQ PUSH2 0x338 JUMPI DUP1 PUSH4 0x4C5AED38 EQ PUSH2 0x357 JUMPI DUP1 PUSH4 0x4E5CBF61 EQ PUSH2 0x376 JUMPI DUP1 PUSH4 0x53321AE6 EQ PUSH2 0x395 JUMPI PUSH0 PUSH0 REVERT JUMPDEST DUP1 PUSH4 0x26782247 GT PUSH2 0x1C4 JUMPI DUP1 PUSH4 0x26782247 EQ PUSH2 0x27F JUMPI DUP1 PUSH4 0x26BD8926 EQ PUSH2 0x2B6 JUMPI DUP1 PUSH4 0x2E9E8E59 EQ PUSH2 0x2D7 JUMPI DUP1 PUSH4 0x356E7CCB EQ PUSH2 0x2FA JUMPI PUSH0 PUSH0 REVERT JUMPDEST DUP1 PUSH4 0xBD58917 EQ PUSH2 0x1F5 JUMPI DUP1 PUSH4 0xBF36767 EQ PUSH2 0x216 JUMPI DUP1 PUSH4 0x200D2ED2 EQ PUSH2 0x22A JUMPI DUP1 PUSH4 0x2163B8C5 EQ PUSH2 0x260 JUMPI JUMPDEST PUSH0 PUSH0 REVERT JUMPDEST CALLVALUE DUP1 ISZERO PUSH2 0x200 JUMPI PUSH0 PUSH0 REVERT JUMPDEST POP PUSH2 0x214 PUSH2 0x20F CALLDATASIZE PUSH1 0x4 PUSH2 0x27A9 JUMP JUMPDEST PUSH2 0x6E5 JUMP JUMPDEST STOP JUMPDEST CALLVALUE DUP1 ISZERO PUSH2 0x221 JUMPI PUSH0 PUSH0 REVERT JUMPDEST POP PUSH2 0x214 PUSH2 0x843 JUMP JUMPDEST CALLVALUE DUP1 ISZERO PUSH2 0x235 JUMPI PUSH0 PUSH0 REVERT JUMPDEST POP PUSH1 0x2 SLOAD PUSH2 0x24A SWAP1 PUSH1 0x1 PUSH1 0xA0 SHL SWAP1 DIV PUSH1 0xFF AND DUP2 JUMP JUMPDEST PUSH1 0x40 MLOAD PUSH2 0x257 SWAP2 SWAP1 PUSH2 0x27F4 JUMP JUMPDEST PUSH1 0x40 MLOAD DUP1 SWAP2 SUB SWAP1 RETURN JUMPDEST CALLVALUE DUP1 ISZERO PUSH2 0x26B JUMPI PUSH0 PUSH0 REVERT JUMPDEST POP PUSH2 0x214 PUSH2 0x27A CALLDATASIZE PUSH1 0x4 PUSH2 0x28A1 JUMP JUMPDEST PUSH2 0x92F JUMP JUMPDEST CALLVALUE DUP1 ISZERO PUSH2 0x28A JUMPI PUSH0 PUSH0 REVERT JUMPDEST POP PUSH1 0x1 SLOAD PUSH2 0x29E SWAP1 PUSH1 0x1 PUSH1 0x1 PUSH1 0xA0 SHL SUB AND DUP2 JUMP JUMPDEST PUSH1 0x40 MLOAD PUSH1 0x1 PUSH1 0x1 PUSH1 0xA0 SHL SUB SWAP1 SWAP2 AND DUP2 MSTORE PUSH1 0x20 ADD PUSH2 0x257 JUMP JUMPDEST CALLVALUE DUP1 ISZERO PUSH2 0x2C1 JUMPI PUSH0 PUSH0 REVERT JUMPDEST POP PUSH2 0x2CA PUSH2 0xB4C JUMP JUMPDEST PUSH1 0x40 MLOAD PUSH2 0x257 SWAP2 SWAP1 PUSH2 0x2913 JUMP JUMPDEST CALLVALUE DUP1 ISZERO PUSH2 0x2E2 JUMPI PUSH0 PUSH0 REVERT JUMPDEST POP PUSH2 0x2EC PUSH1 0xF SLOAD DUP2 JUMP JUMPDEST PUSH1 0x40 MLOAD SWAP1 DUP2 MSTORE PUSH1 0x20 ADD PUSH2 0x257 JUMP JUMPDEST CALLVALUE DUP1 ISZERO PUSH2 0x305 JUMPI PUSH0 PUSH0 REVERT JUMPDEST POP PUSH2 0x328 PUSH2 0x314 CALLDATASIZE PUSH1 0x4 PUSH2 0x292C JUMP JUMPDEST PUSH1 0xA PUSH1 0x20 MSTORE PUSH0 SWAP1 DUP2 MSTORE PUSH1 0x40 SWAP1 KECCAK256 SLOAD PUSH1 0xFF AND DUP2 JUMP JUMPDEST PUSH1 0x40 MLOAD SWAP1 ISZERO ISZERO DUP2 MSTORE PUSH1 0x20 ADD PUSH2 0x257 JUMP JUMPDEST CALLVALUE DUP1 ISZERO PUSH2 0x343 JUMPI PUSH0 PUSH0 REVERT JUMPDEST POP PUSH2 0x2EC PUSH2 0x352 CALLDATASIZE PUSH1 0x4 PUSH2 0x28A1 JUMP JUMPDEST PUSH2 0xBD8 JUMP JUMPDEST CALLVALUE DUP1 ISZERO PUSH2 0x362 JUMPI PUSH0 PUSH0 REVERT JUMPDEST POP PUSH2 0x214 PUSH2 0x371 CALLDATASIZE PUSH1 0x4 PUSH2 0x2952 JUMP JUMPDEST PUSH2 0xC0B JUMP JUMPDEST CALLVALUE DUP1 ISZERO PUSH2 0x381 JUMPI PUSH0 PUSH0 REVERT JUMPDEST POP PUSH2 0x214 PUSH2 0x390 CALLDATASIZE PUSH1 0x4 PUSH2 0x292C JUMP JUMPDEST PUSH2 0xD55 JUMP JUMPDEST CALLVALUE DUP1 ISZERO PUSH2 0x3A0 JUMPI PUSH0 PUSH0 REVERT JUMPDEST POP PUSH2 0x214 PUSH2 0x3AF CALLDATASIZE PUSH1 0x4 PUSH2 0x27A9 JUMP JUMPDEST PUSH2 0xF1D JUMP JUMPDEST CALLVALUE DUP1 ISZERO PUSH2 0x3BF JUMPI PUSH0 PUSH0 REVERT JUMPDEST POP PUSH2 0x214 PUSH2 0x3CE CALLDATASIZE PUSH1 0x4 PUSH2 0x292C JUMP JUMPDEST PUSH2 0x1129 JUMP JUMPDEST CALLVALUE DUP1 ISZERO PUSH2 0x3DE JUMPI PUSH0 PUSH0 REVERT JUMPDEST POP PUSH2 0x214 PUSH2 0x1300 JUMP JUMPDEST CALLVALUE DUP1 ISZERO PUSH2 0x3F2 JUMPI PUSH0 PUSH0 REVERT JUMPDEST POP PUSH2 0x435 PUSH2 0x401 CALLDATASIZE PUSH1 0x4 PUSH2 0x292C JUMP JUMPDEST PUSH1 0xB PUSH1 0x20 MSTORE PUSH0 SWAP1 DUP2 MSTORE PUSH1 0x40 SWAP1 KECCAK256 DUP1 SLOAD PUSH1 0x1 DUP3 ADD SLOAD PUSH1 0x2 DUP4 ADD SLOAD PUSH1 0x3 SWAP1 SWAP4 ADD SLOAD SWAP2 SWAP3 PUSH1 0xFF DUP1 DUP4 AND SWAP4 PUSH2 0x100 SWAP1 SWAP4 DIV DUP2 AND SWAP3 AND DUP6 JUMP JUMPDEST PUSH1 0x40 MLOAD PUSH2 0x257 SWAP6 SWAP5 SWAP4 SWAP3 SWAP2 SWAP1 SWAP5 DUP6 MSTORE SWAP3 ISZERO ISZERO PUSH1 0x20 DUP6 ADD MSTORE SWAP1 ISZERO ISZERO PUSH1 0x40 DUP5 ADD MSTORE PUSH1 0x60 DUP4 ADD MSTORE ISZERO ISZERO PUSH1 0x80 DUP3 ADD MSTORE PUSH1 0xA0 ADD SWAP1 JUMP JUMPDEST CALLVALUE DUP1 ISZERO PUSH2 0x471 JUMPI PUSH0 PUSH0 REVERT JUMPDEST POP PUSH2 0x47A PUSH2 0x1515 JUMP JUMPDEST PUSH1 0x40 MLOAD PUSH2 0x257 SWAP8 SWAP7 SWAP6 SWAP5 SWAP4 SWAP3 SWAP2 SWAP1 PUSH2 0x298C JUMP JUMPDEST CALLVALUE DUP1 ISZERO PUSH2 0x498 JUMPI PUSH0 PUSH0 REVERT JUMPDEST POP SELFBALANCE PUSH2 0x2EC JUMP JUMPDEST CALLVALUE DUP1 ISZERO PUSH2 0x4AA JUMPI PUSH0 PUSH0 REVERT JUMPDEST POP PUSH2 0x214 PUSH2 0x4B9 CALLDATASIZE PUSH1 0x4 PUSH2 0x292C JUMP JUMPDEST PUSH2 0x175E JUMP JUMPDEST CALLVALUE DUP1 ISZERO PUSH2 0x4C9 JUMPI PUSH0 PUSH0 REVERT JUMPDEST POP PUSH2 0x214 PUSH2 0x4D8 CALLDATASIZE PUSH1 0x4 PUSH2 0x27A9 JUMP JUMPDEST PUSH2 0x1877 JUMP JUMPDEST CALLVALUE DUP1 ISZERO PUSH2 0x4E8 JUMPI PUSH0 PUSH0 REVERT JUMPDEST POP PUSH2 0x214 PUSH2 0x19F7 JUMP JUMPDEST CALLVALUE DUP1 ISZERO PUSH2 0x4FC JUMPI PUSH0 PUSH0 REVERT JUMPDEST POP PUSH2 0x577 PUSH2 0x50B CALLDATASIZE PUSH1 0x4 PUSH2 0x292C JUMP JUMPDEST PUSH1 0x1 PUSH1 0x1 PUSH1 0xA0 SHL SUB AND PUSH0 SWAP1 DUP2 MSTORE PUSH1 0xB PUSH1 0x20 SWAP1 DUP2 MSTORE PUSH1 0x40 SWAP2 DUP3 SWAP1 KECCAK256 DUP3 MLOAD PUSH1 0xA0 DUP2 ADD DUP5 MSTORE DUP2 SLOAD DUP2 MSTORE PUSH1 0x1 DUP3 ADD SLOAD PUSH1 0xFF DUP1 DUP3 AND ISZERO ISZERO SWAP5 DUP4 ADD DUP6 SWAP1 MSTORE PUSH2 0x100 SWAP1 SWAP2 DIV DUP2 AND ISZERO ISZERO SWAP5 DUP3 ADD DUP6 SWAP1 MSTORE PUSH1 0x2 DUP4 ADD SLOAD PUSH1 0x60 DUP4 ADD DUP2 SWAP1 MSTORE PUSH1 0x3 SWAP1 SWAP4 ADD SLOAD AND ISZERO ISZERO PUSH1 0x80 SWAP1 SWAP2 ADD DUP2 SWAP1 MSTORE SWAP2 SWAP4 SWAP1 SWAP2 SWAP1 JUMP JUMPDEST PUSH1 0x40 DUP1 MLOAD SWAP5 ISZERO ISZERO DUP6 MSTORE SWAP3 ISZERO ISZERO PUSH1 0x20 DUP6 ADD MSTORE SWAP2 DUP4 ADD MSTORE ISZERO ISZERO PUSH1 0x60 DUP3 ADD MSTORE PUSH1 0x80 ADD PUSH2 0x257 JUMP JUMPDEST CALLVALUE DUP1 ISZERO PUSH2 0x5A6 JUMPI PUSH0 PUSH0 REVERT JUMPDEST POP PUSH2 0x214 PUSH2 0x5B5 CALLDATASIZE PUSH1 0x4 PUSH2 0x29FB JUMP JUMPDEST PUSH2 0x1A9E JUMP JUMPDEST CALLVALUE DUP1 ISZERO PUSH2 0x5C5 JUMPI PUSH0 PUSH0 REVERT JUMPDEST POP PUSH2 0x2EC PUSH1 0x10 SLOAD DUP2 JUMP JUMPDEST CALLVALUE DUP1 ISZERO PUSH2 0x5DA JUMPI PUSH0 PUSH0 REVERT JUMPDEST POP PUSH2 0x2EC PUSH1 0xE SLOAD DUP2 JUMP JUMPDEST PUSH2 0x214 PUSH2 0x1CE0 JUMP JUMPDEST CALLVALUE DUP1 ISZERO PUSH2 0x5F7 JUMPI PUSH0 PUSH0 REVERT JUMPDEST POP PUSH1 0x12 SLOAD PUSH2 0x328 SWAP1 PUSH1 0xFF AND DUP2 JUMP JUMPDEST CALLVALUE DUP1 ISZERO PUSH2 0x610 JUMPI PUSH0 PUSH0 REVERT JUMPDEST POP PUSH1 0xC SLOAD PUSH2 0x2EC JUMP JUMPDEST CALLVALUE DUP1 ISZERO PUSH2 0x624 JUMPI PUSH0 PUSH0 REVERT JUMPDEST POP PUSH2 0x214 PUSH2 0x1D0C JUMP JUMPDEST CALLVALUE DUP1 ISZERO PUSH2 0x638 JUMPI PUSH0 PUSH0 REVERT JUMPDEST POP PUSH2 0x214 PUSH2 0x1E3F JUMP JUMPDEST CALLVALUE DUP1 ISZERO PUSH2 0x64C JUMPI PUSH0 PUSH0 REVERT JUMPDEST POP PUSH2 0x29E PUSH2 0x65B CALLDATASIZE PUSH1 0x4 PUSH2 0x27A9 JUMP JUMPDEST PUSH2 0x205A JUMP JUMPDEST CALLVALUE DUP1 ISZERO PUSH2 0x66B JUMPI PUSH0 PUSH0 REVERT JUMPDEST POP PUSH1 0xD SLOAD PUSH2 0x29E SWAP1 PUSH1 0x1 PUSH1 0x1 PUSH1 0xA0 SHL SUB AND DUP2 JUMP JUMPDEST CALLVALUE DUP1 ISZERO PUSH2 0x68A JUMPI PUSH0 PUSH0 REVERT JUMPDEST POP PUSH2 0x693 PUSH2 0x2082 JUMP JUMPDEST PUSH1 0x40 MLOAD PUSH2 0x257 SWAP10 SWAP9 SWAP8 SWAP7 SWAP6 SWAP5 SWAP4 SWAP3 SWAP2 SWAP1 PUSH2 0x2AF7 JUMP JUMPDEST CALLVALUE DUP1 ISZERO PUSH2 0x6B3 JUMPI PUSH0 PUSH0 REVERT JUMPDEST POP PUSH1 0x2 SLOAD PUSH2 0x29E SWAP1 PUSH1 0x1 PUSH1 0x1 PUSH1 0xA0 SHL SUB AND DUP2 JUMP JUMPDEST CALLVALUE DUP1 ISZERO PUSH2 0x6D2 JUMPI PUSH0 PUSH0 REVERT JUMPDEST POP PUSH0 SLOAD PUSH2 0x29E SWAP1 PUSH1 0x1 PUSH1 0x1 PUSH1 0xA0 SHL SUB AND DUP2 JUMP JUMPDEST PUSH1 0x2 SLOAD PUSH1 0x1 PUSH1 0x1 PUSH1 0xA0 SHL SUB AND PUSH2 0x70E JUMPI PUSH1 0x40 MLOAD PUSH4 0xD6EA3663 PUSH1 0xE0 SHL DUP2 MSTORE PUSH1 0x4 ADD PUSH1 0x40 MLOAD DUP1 SWAP2 SUB SWAP1 REVERT JUMPDEST PUSH1 0x2 SLOAD PUSH1 0x1 PUSH1 0x1 PUSH1 0xA0 SHL SUB AND CALLER EQ PUSH2 0x739 JUMPI PUSH1 0x40 MLOAD PUSH4 0x9864FBB3 PUSH1 0xE0 SHL DUP2 MSTORE PUSH1 0x4 ADD PUSH1 0x40 MLOAD DUP1 SWAP2 SUB SWAP1 REVERT JUMPDEST PUSH1 0x9 SLOAD PUSH1 0xFF AND PUSH2 0x75C JUMPI PUSH1 0x40 MLOAD PUSH4 0x55E9E641 PUSH1 0xE1 SHL DUP2 MSTORE PUSH1 0x4 ADD PUSH1 0x40 MLOAD DUP1 SWAP2 SUB SWAP1 REVERT JUMPDEST PUSH1 0x4 DUP1 PUSH1 0x2 SLOAD PUSH1 0x1 PUSH1 0xA0 SHL SWAP1 DIV PUSH1 0xFF AND PUSH1 0x7 DUP2 GT ISZERO PUSH2 0x77D JUMPI PUSH2 0x77D PUSH2 0x27C0 JUMP JUMPDEST EQ PUSH2 0x79B JUMPI PUSH1 0x40 MLOAD PUSH4 0x187FA83 PUSH1 0xE6 SHL DUP2 MSTORE PUSH1 0x4 ADD PUSH1 0x40 MLOAD DUP1 SWAP2 SUB SWAP1 REVERT JUMPDEST DUP2 PUSH2 0x7ED JUMPI PUSH1 0x40 MLOAD PUSH3 0x461BCD PUSH1 0xE5 SHL DUP2 MSTORE PUSH1 0x20 PUSH1 0x4 DUP3 ADD MSTORE PUSH1 0x1E PUSH1 0x24 DUP3 ADD MSTORE PUSH32 0x496E76616C696420696E7370656374696F6E207265706F727420686173680000 PUSH1 0x44 DUP3 ADD MSTORE PUSH1 0x64 ADD JUMPDEST PUSH1 0x40 MLOAD DUP1 SWAP2 SUB SWAP1 REVERT JUMPDEST PUSH1 0x10 DUP3 SWAP1 SSTORE PUSH1 0x2 DUP1 SLOAD PUSH1 0xFF PUSH1 0xA0 SHL NOT AND PUSH1 0x3 PUSH1 0xA1 SHL OR SWAP1 SSTORE PUSH1 0x40 DUP1 MLOAD CALLER DUP2 MSTORE PUSH1 0x20 DUP2 ADD DUP5 SWAP1 MSTORE PUSH32 0xEF94AF06CFA9A76C638DD1A1CFB86B07F938FEBF05374E3675AECED1F805205E SWAP2 ADD JUMPDEST PUSH1 0x40 MLOAD DUP1 SWAP2 SUB SWAP1 LOG1 POP POP JUMP JUMPDEST PUSH0 SLOAD PUSH1 0x1 PUSH1 0x1 PUSH1 0xA0 SHL SUB AND CALLER EQ PUSH2 0x86D JUMPI PUSH1 0x40 MLOAD PUSH4 0x47556579 PUSH1 0xE0 SHL DUP2 MSTORE PUSH1 0x4 ADD PUSH1 0x40 MLOAD DUP1 SWAP2 SUB SWAP1 REVERT JUMPDEST PUSH1 0x9 SLOAD PUSH1 0xFF AND PUSH2 0x890 JUMPI PUSH1 0x40 MLOAD PUSH4 0x55E9E641 PUSH1 0xE1 SHL DUP2 MSTORE PUSH1 0x4 ADD PUSH1 0x40 MLOAD DUP1 SWAP2 SUB SWAP1 REVERT JUMPDEST PUSH1 0x6 SLOAD TIMESTAMP LT ISZERO PUSH2 0x8B3 JUMPI PUSH1 0x40 MLOAD PUSH4 0x3EFBCCB1 PUSH1 0xE0 SHL DUP2 MSTORE PUSH1 0x4 ADD PUSH1 0x40 MLOAD DUP1 SWAP2 SUB SWAP1 REVERT JUMPDEST PUSH0 DUP1 PUSH1 0x2 SLOAD PUSH1 0x1 PUSH1 0xA0 SHL SWAP1 DIV PUSH1 0xFF AND PUSH1 0x7 DUP2 GT ISZERO PUSH2 0x8D3 JUMPI PUSH2 0x8D3 PUSH2 0x27C0 JUMP JUMPDEST EQ PUSH2 0x8F1 JUMPI PUSH1 0x40 MLOAD PUSH4 0x187FA83 PUSH1 0xE6 SHL DUP2 MSTORE PUSH1 0x4 ADD PUSH1 0x40 MLOAD DUP1 SWAP2 SUB SWAP1 REVERT JUMPDEST PUSH1 0x2 DUP1 SLOAD PUSH1 0xFF PUSH1 0xA0 SHL NOT AND PUSH1 0x1 PUSH1 0xA0 SHL OR SWAP1 SSTORE PUSH1 0x40 MLOAD PUSH32 0x2FD2F8FCBB75B0A142D3952AD3F5E92DD16AAB6C8BBBD304BDB97066B33C062C SWAP1 PUSH0 SWAP1 LOG1 POP JUMP JUMPDEST PUSH1 0x9 SLOAD PUSH1 0xFF AND PUSH2 0x952 JUMPI PUSH1 0x40 MLOAD PUSH4 0x55E9E641 PUSH1 0xE1 SHL DUP2 MSTORE PUSH1 0x4 ADD PUSH1 0x40 MLOAD DUP1 SWAP2 SUB SWAP1 REVERT JUMPDEST CALLER PUSH0 SWAP1 DUP2 MSTORE PUSH1 0xA PUSH1 0x20 MSTORE PUSH1 0x40 SWAP1 KECCAK256 SLOAD PUSH1 0xFF AND PUSH2 0x981 JUMPI PUSH1 0x40 MLOAD PUSH4 0x2F9CE37 PUSH1 0xE5 SHL DUP2 MSTORE PUSH1 0x4 ADD PUSH1 0x40 MLOAD DUP1 SWAP2 SUB SWAP1 REVERT JUMPDEST PUSH1 0x1 DUP1 PUSH1 0x2 SLOAD PUSH1 0x1 PUSH1 0xA0 SHL SWAP1 DIV PUSH1 0xFF AND PUSH1 0x7 DUP2 GT ISZERO PUSH2 0x9A2 JUMPI PUSH2 0x9A2 PUSH2 0x27C0 JUMP JUMPDEST EQ PUSH2 0x9C0 JUMPI PUSH1 0x40 MLOAD PUSH4 0x187FA83 PUSH1 0xE6 SHL DUP2 MSTORE PUSH1 0x4 ADD PUSH1 0x40 MLOAD DUP1 SWAP2 SUB SWAP1 REVERT JUMPDEST CALLER PUSH0 SWAP1 DUP2 MSTORE PUSH1 0xB PUSH1 0x20 MSTORE PUSH1 0x40 SWAP1 KECCAK256 PUSH1 0x1 DUP2 ADD SLOAD PUSH1 0xFF AND PUSH2 0xA15 JUMPI PUSH1 0x40 MLOAD PUSH3 0x461BCD PUSH1 0xE5 SHL DUP2 MSTORE PUSH1 0x20 PUSH1 0x4 DUP3 ADD MSTORE PUSH1 0x10 PUSH1 0x24 DUP3 ADD MSTORE PUSH16 0x139BC8189A59081CDD589B5A5D1D1959 PUSH1 0x82 SHL PUSH1 0x44 DUP3 ADD MSTORE PUSH1 0x64 ADD PUSH2 0x7E4 JUMP JUMPDEST PUSH1 0x1 DUP2 ADD SLOAD PUSH2 0x100 SWAP1 DIV PUSH1 0xFF AND ISZERO PUSH2 0xA66 JUMPI PUSH1 0x40 MLOAD PUSH3 0x461BCD PUSH1 0xE5 SHL DUP2 MSTORE PUSH1 0x20 PUSH1 0x4 DUP3 ADD MSTORE PUSH1 0x14 PUSH1 0x24 DUP3 ADD MSTORE PUSH20 0x109A5908185B1C9958591E481C995D99585B1959 PUSH1 0x62 SHL PUSH1 0x44 DUP3 ADD MSTORE PUSH1 0x64 ADD PUSH2 0x7E4 JUMP JUMPDEST PUSH0 DUP5 DUP5 PUSH1 0x40 MLOAD PUSH1 0x20 ADD PUSH2 0xA7A SWAP3 SWAP2 SWAP1 PUSH2 0x2B82 JUMP JUMPDEST PUSH1 0x40 MLOAD PUSH1 0x20 DUP2 DUP4 SUB SUB DUP2 MSTORE SWAP1 PUSH1 0x40 MSTORE DUP1 MLOAD SWAP1 PUSH1 0x20 ADD KECCAK256 SWAP1 POP DUP2 PUSH0 ADD SLOAD DUP2 EQ PUSH2 0xAE4 JUMPI PUSH1 0x40 MLOAD PUSH3 0x461BCD PUSH1 0xE5 SHL DUP2 MSTORE PUSH1 0x20 PUSH1 0x4 DUP3 ADD DUP2 SWAP1 MSTORE PUSH1 0x24 DUP3 ADD MSTORE PUSH32 0x52657665616C20646F6573206E6F74206D61746368207365616C656420626964 PUSH1 0x44 DUP3 ADD MSTORE PUSH1 0x64 ADD PUSH2 0x7E4 JUMP JUMPDEST PUSH1 0x1 DUP3 DUP2 ADD DUP1 SLOAD PUSH2 0xFF00 NOT AND PUSH2 0x100 OR SWAP1 SSTORE PUSH1 0x2 DUP4 ADD DUP7 SWAP1 SSTORE PUSH1 0x3 DUP4 ADD DUP1 SLOAD PUSH1 0xFF NOT AND SWAP1 SWAP2 OR SWAP1 SSTORE PUSH1 0x40 DUP1 MLOAD CALLER DUP2 MSTORE PUSH1 0x20 DUP2 ADD DUP8 SWAP1 MSTORE PUSH32 0x9891BD98143D5A2C5F29BE9A7EF8E5D7B723746FB3B75220234AF7AA6CAEECFE SWAP2 ADD PUSH1 0x40 MLOAD DUP1 SWAP2 SUB SWAP1 LOG1 POP POP POP POP POP JUMP JUMPDEST PUSH1 0x11 DUP1 SLOAD PUSH2 0xB59 SWAP1 PUSH2 0x2BA2 JUMP JUMPDEST DUP1 PUSH1 0x1F ADD PUSH1 0x20 DUP1 SWAP2 DIV MUL PUSH1 0x20 ADD PUSH1 0x40 MLOAD SWAP1 DUP2 ADD PUSH1 0x40 MSTORE DUP1 SWAP3 SWAP2 SWAP1 DUP2 DUP2 MSTORE PUSH1 0x20 ADD DUP3 DUP1 SLOAD PUSH2 0xB85 SWAP1 PUSH2 0x2BA2 JUMP JUMPDEST DUP1 ISZERO PUSH2 0xBD0 JUMPI DUP1 PUSH1 0x1F LT PUSH2 0xBA7 JUMPI PUSH2 0x100 DUP1 DUP4 SLOAD DIV MUL DUP4 MSTORE SWAP2 PUSH1 0x20 ADD SWAP2 PUSH2 0xBD0 JUMP JUMPDEST DUP3 ADD SWAP2 SWAP1 PUSH0 MSTORE PUSH1 0x20 PUSH0 KECCAK256 SWAP1 JUMPDEST DUP2 SLOAD DUP2 MSTORE SWAP1 PUSH1 0x1 ADD SWAP1 PUSH1 0x20 ADD DUP1 DUP4 GT PUSH2 0xBB3 JUMPI DUP3 SWAP1 SUB PUSH1 0x1F AND DUP3 ADD SWAP2 JUMPDEST POP POP POP POP POP DUP2 JUMP JUMPDEST PUSH0 DUP3 DUP3 PUSH1 0x40 MLOAD PUSH1 0x20 ADD PUSH2 0xBEC SWAP3 SWAP2 SWAP1 PUSH2 0x2B82 JUMP JUMPDEST PUSH1 0x40 MLOAD PUSH1 0x20 DUP2 DUP4 SUB SUB DUP2 MSTORE SWAP1 PUSH1 0x40 MSTORE DUP1 MLOAD SWAP1 PUSH1 0x20 ADD KECCAK256 SWAP1 POP JUMPDEST SWAP3 SWAP2 POP POP JUMP JUMPDEST PUSH1 0x2 SLOAD PUSH1 0x1 PUSH1 0x1 PUSH1 0xA0 SHL SUB AND PUSH2 0xC34 JUMPI PUSH1 0x40 MLOAD PUSH4 0xD6EA3663 PUSH1 0xE0 SHL DUP2 MSTORE PUSH1 0x4 ADD PUSH1 0x40 MLOAD DUP1 SWAP2 SUB SWAP1 REVERT JUMPDEST PUSH1 0x2 SLOAD PUSH1 0x1 PUSH1 0x1 PUSH1 0xA0 SHL SUB AND CALLER EQ PUSH2 0xC5F JUMPI PUSH1 0x40 MLOAD PUSH4 0x9864FBB3 PUSH1 0xE0 SHL DUP2 MSTORE PUSH1 0x4 ADD PUSH1 0x40 MLOAD DUP1 SWAP2 SUB SWAP1 REVERT JUMPDEST PUSH1 0x9 SLOAD PUSH1 0xFF AND PUSH2 0xC82 JUMPI PUSH1 0x40 MLOAD PUSH4 0x55E9E641 PUSH1 0xE1 SHL DUP2 MSTORE PUSH1 0x4 ADD PUSH1 0x40 MLOAD DUP1 SWAP2 SUB SWAP1 REVERT JUMPDEST PUSH1 0x4 DUP1 PUSH1 0x2 SLOAD PUSH1 0x1 PUSH1 0xA0 SHL SWAP1 DIV PUSH1 0xFF AND PUSH1 0x7 DUP2 GT ISZERO PUSH2 0xCA3 JUMPI PUSH2 0xCA3 PUSH2 0x27C0 JUMP JUMPDEST EQ PUSH2 0xCC1 JUMPI PUSH1 0x40 MLOAD PUSH4 0x187FA83 PUSH1 0xE6 SHL DUP2 MSTORE PUSH1 0x4 ADD PUSH1 0x40 MLOAD DUP1 SWAP2 SUB SWAP1 REVERT JUMPDEST PUSH0 DUP3 MLOAD GT PUSH2 0xD03 JUMPI PUSH1 0x40 MLOAD PUSH3 0x461BCD PUSH1 0xE5 SHL DUP2 MSTORE PUSH1 0x20 PUSH1 0x4 DUP3 ADD MSTORE PUSH1 0xF PUSH1 0x24 DUP3 ADD MSTORE PUSH15 0x1499585CDBDB881C995C5D5A5C9959 PUSH1 0x8A SHL PUSH1 0x44 DUP3 ADD MSTORE PUSH1 0x64 ADD PUSH2 0x7E4 JUMP JUMPDEST PUSH1 0x11 PUSH2 0xD0F DUP4 DUP3 PUSH2 0x2C26 JUMP JUMPDEST POP PUSH1 0x2 DUP1 SLOAD PUSH1 0xFF PUSH1 0xA0 SHL NOT AND PUSH1 0x5 PUSH1 0xA0 SHL OR SWAP1 SSTORE PUSH1 0x40 MLOAD PUSH32 0x52FCA0FCDDA16F4A5F819B60BB9C2F99458433351B90E6FCB3E221FE03B10280 SWAP1 PUSH2 0x837 SWAP1 CALLER SWAP1 DUP6 SWAP1 PUSH2 0x2CE1 JUMP JUMPDEST PUSH0 SLOAD PUSH1 0x1 PUSH1 0x1 PUSH1 0xA0 SHL SUB AND CALLER EQ PUSH2 0xD7F JUMPI PUSH1 0x40 MLOAD PUSH4 0x47556579 PUSH1 0xE0 SHL DUP2 MSTORE PUSH1 0x4 ADD PUSH1 0x40 MLOAD DUP1 SWAP2 SUB SWAP1 REVERT JUMPDEST PUSH1 0x9 SLOAD PUSH1 0xFF AND PUSH2 0xDA2 JUMPI PUSH1 0x40 MLOAD PUSH4 0x55E9E641 PUSH1 0xE1 SHL DUP2 MSTORE PUSH1 0x4 ADD PUSH1 0x40 MLOAD DUP1 SWAP2 SUB SWAP1 REVERT JUMPDEST PUSH1 0x1 PUSH1 0x1 PUSH1 0xA0 SHL SUB DUP2 AND PUSH2 0xDF8 JUMPI PUSH1 0x40 MLOAD PUSH3 0x461BCD PUSH1 0xE5 SHL DUP2 MSTORE PUSH1 0x20 PUSH1 0x4 DUP3 ADD MSTORE PUSH1 0x19 PUSH1 0x24 DUP3 ADD MSTORE PUSH32 0x496E76616C696420696E73706563746F72206164647265737300000000000000 PUSH1 0x44 DUP3 ADD MSTORE PUSH1 0x64 ADD PUSH2 0x7E4 JUMP JUMPDEST PUSH1 0x6 PUSH1 0x2 SLOAD PUSH1 0x1 PUSH1 0xA0 SHL SWAP1 DIV PUSH1 0xFF AND PUSH1 0x7 DUP2 GT ISZERO PUSH2 0xE18 JUMPI PUSH2 0xE18 PUSH2 0x27C0 JUMP JUMPDEST EQ ISZERO DUP1 ISZERO PUSH2 0xE44 JUMPI POP PUSH1 0x5 PUSH1 0x2 SLOAD PUSH1 0x1 PUSH1 0xA0 SHL SWAP1 DIV PUSH1 0xFF AND PUSH1 0x7 DUP2 GT ISZERO PUSH2 0xE41 JUMPI PUSH2 0xE41 PUSH2 0x27C0 JUMP JUMPDEST EQ ISZERO JUMPDEST DUP1 ISZERO PUSH2 0xE6E JUMPI POP PUSH1 0x7 PUSH1 0x2 SLOAD PUSH1 0x1 PUSH1 0xA0 SHL SWAP1 DIV PUSH1 0xFF AND PUSH1 0x7 DUP2 GT ISZERO PUSH2 0xE6B JUMPI PUSH2 0xE6B PUSH2 0x27C0 JUMP JUMPDEST EQ ISZERO JUMPDEST PUSH2 0xEC8 JUMPI PUSH1 0x40 MLOAD PUSH3 0x461BCD PUSH1 0xE5 SHL DUP2 MSTORE PUSH1 0x20 PUSH1 0x4 DUP3 ADD MSTORE PUSH1 0x25 PUSH1 0x24 DUP3 ADD MSTORE PUSH32 0x43616E6E6F74206368616E676520696E73706563746F72206174207468697320 PUSH1 0x44 DUP3 ADD MSTORE PUSH5 0x7374616765 PUSH1 0xD8 SHL PUSH1 0x64 DUP3 ADD MSTORE PUSH1 0x84 ADD PUSH2 0x7E4 JUMP JUMPDEST PUSH1 0x2 DUP1 SLOAD PUSH1 0x1 PUSH1 0x1 PUSH1 0xA0 SHL SUB NOT AND PUSH1 0x1 PUSH1 0x1 PUSH1 0xA0 SHL SUB DUP4 AND SWAP1 DUP2 OR SWAP1 SWAP2 SSTORE PUSH1 0x40 MLOAD SWAP1 DUP2 MSTORE PUSH32 0xC7B11D63D071F03C4B488A3A44EE58C8A449F16B0EE289DD25AF95C15C9F8E3A SWAP1 PUSH1 0x20 ADD JUMPDEST PUSH1 0x40 MLOAD DUP1 SWAP2 SUB SWAP1 LOG1 POP JUMP JUMPDEST PUSH1 0x9 SLOAD PUSH1 0xFF AND PUSH2 0xF40 JUMPI PUSH1 0x40 MLOAD PUSH4 0x55E9E641 PUSH1 0xE1 SHL DUP2 MSTORE PUSH1 0x4 ADD PUSH1 0x40 MLOAD DUP1 SWAP2 SUB SWAP1 REVERT JUMPDEST CALLER PUSH0 SWAP1 DUP2 MSTORE PUSH1 0xA PUSH1 0x20 MSTORE PUSH1 0x40 SWAP1 KECCAK256 SLOAD PUSH1 0xFF AND PUSH2 0xF6F JUMPI PUSH1 0x40 MLOAD PUSH4 0x2F9CE37 PUSH1 0xE5 SHL DUP2 MSTORE PUSH1 0x4 ADD PUSH1 0x40 MLOAD DUP1 SWAP2 SUB SWAP1 REVERT JUMPDEST PUSH1 0x6 SLOAD TIMESTAMP LT PUSH2 0xF91 JUMPI PUSH1 0x40 MLOAD PUSH4 0x764B8E33 PUSH1 0xE1 SHL DUP2 MSTORE PUSH1 0x4 ADD PUSH1 0x40 MLOAD DUP1 SWAP2 SUB SWAP1 REVERT JUMPDEST PUSH0 DUP1 PUSH1 0x2 SLOAD PUSH1 0x1 PUSH1 0xA0 SHL SWAP1 DIV PUSH1 0xFF AND PUSH1 0x7 DUP2 GT ISZERO PUSH2 0xFB1 JUMPI PUSH2 0xFB1 PUSH2 0x27C0 JUMP JUMPDEST EQ PUSH2 0xFCF JUMPI PUSH1 0x40 MLOAD PUSH4 0x187FA83 PUSH1 0xE6 SHL DUP2 MSTORE PUSH1 0x4 ADD PUSH1 0x40 MLOAD DUP1 SWAP2 SUB SWAP1 REVERT JUMPDEST CALLER PUSH0 SWAP1 DUP2 MSTORE PUSH1 0xB PUSH1 0x20 MSTORE PUSH1 0x40 SWAP1 KECCAK256 PUSH1 0x1 ADD SLOAD PUSH1 0xFF AND ISZERO PUSH2 0x1029 JUMPI PUSH1 0x40 MLOAD PUSH3 0x461BCD PUSH1 0xE5 SHL DUP2 MSTORE PUSH1 0x20 PUSH1 0x4 DUP3 ADD MSTORE PUSH1 0x15 PUSH1 0x24 DUP3 ADD MSTORE PUSH21 0x109A5908185B1C9958591E481CDD589B5A5D1D1959 PUSH1 0x5A SHL PUSH1 0x44 DUP3 ADD MSTORE PUSH1 0x64 ADD PUSH2 0x7E4 JUMP JUMPDEST DUP2 PUSH2 0x1076 JUMPI PUSH1 0x40 MLOAD PUSH3 0x461BCD PUSH1 0xE5 SHL DUP2 MSTORE PUSH1 0x20 PUSH1 0x4 DUP3 ADD MSTORE PUSH1 0x17 PUSH1 0x24 DUP3 ADD MSTORE PUSH32 0x496E76616C6964207365616C6564206269642068617368000000000000000000 PUSH1 0x44 DUP3 ADD MSTORE PUSH1 0x64 ADD PUSH2 0x7E4 JUMP JUMPDEST PUSH1 0x40 DUP1 MLOAD PUSH1 0xA0 DUP2 ADD DUP3 MSTORE DUP4 DUP2 MSTORE PUSH1 0x1 PUSH1 0x20 DUP1 DUP4 ADD DUP3 DUP2 MSTORE PUSH0 DUP5 DUP7 ADD DUP2 DUP2 MSTORE PUSH1 0x60 DUP7 ADD DUP3 DUP2 MSTORE PUSH1 0x80 DUP8 ADD DUP4 DUP2 MSTORE CALLER DUP1 DUP6 MSTORE PUSH1 0xB DUP8 MSTORE SWAP4 DUP10 SWAP1 KECCAK256 SWAP8 MLOAD DUP9 SSTORE SWAP4 MLOAD SWAP6 DUP8 ADD DUP1 SLOAD SWAP3 MLOAD PUSH2 0xFFFF NOT SWAP1 SWAP4 AND SWAP7 ISZERO ISZERO PUSH2 0xFF00 NOT AND SWAP7 SWAP1 SWAP7 OR PUSH2 0x100 SWAP3 ISZERO ISZERO SWAP3 SWAP1 SWAP3 MUL SWAP2 SWAP1 SWAP2 OR SWAP1 SWAP5 SSTORE SWAP3 MLOAD PUSH1 0x2 DUP6 ADD SSTORE MLOAD PUSH1 0x3 SWAP1 SWAP4 ADD DUP1 SLOAD PUSH1 0xFF NOT AND SWAP4 ISZERO ISZERO SWAP4 SWAP1 SWAP4 OR SWAP1 SWAP3 SSTORE SWAP2 MLOAD SWAP2 DUP3 MSTORE PUSH32 0x88C5A0D081E0C7A69B5817581FFA85B19D71703BC581BB5C09FA253C527A055E SWAP2 ADD PUSH2 0x837 JUMP JUMPDEST PUSH0 SLOAD PUSH1 0x1 PUSH1 0x1 PUSH1 0xA0 SHL SUB AND CALLER EQ PUSH2 0x1153 JUMPI PUSH1 0x40 MLOAD PUSH4 0x47556579 PUSH1 0xE0 SHL DUP2 MSTORE PUSH1 0x4 ADD PUSH1 0x40 MLOAD DUP1 SWAP2 SUB SWAP1 REVERT JUMPDEST PUSH1 0x9 SLOAD PUSH1 0xFF AND PUSH2 0x1176 JUMPI PUSH1 0x40 MLOAD PUSH4 0x55E9E641 PUSH1 0xE1 SHL DUP2 MSTORE PUSH1 0x4 ADD PUSH1 0x40 MLOAD DUP1 SWAP2 SUB SWAP1 REVERT JUMPDEST PUSH0 DUP1 PUSH1 0x2 SLOAD PUSH1 0x1 PUSH1 0xA0 SHL SWAP1 DIV PUSH1 0xFF AND PUSH1 0x7 DUP2 GT ISZERO PUSH2 0x1196 JUMPI PUSH2 0x1196 PUSH2 0x27C0 JUMP JUMPDEST EQ PUSH2 0x11B4 JUMPI PUSH1 0x40 MLOAD PUSH4 0x187FA83 PUSH1 0xE6 SHL DUP2 MSTORE PUSH1 0x4 ADD PUSH1 0x40 MLOAD DUP1 SWAP2 SUB SWAP1 REVERT JUMPDEST PUSH1 0x1 PUSH1 0x1 PUSH1 0xA0 SHL SUB DUP3 AND PUSH2 0x1203 JUMPI PUSH1 0x40 MLOAD PUSH3 0x461BCD PUSH1 0xE5 SHL DUP2 MSTORE PUSH1 0x20 PUSH1 0x4 DUP3 ADD MSTORE PUSH1 0x16 PUSH1 0x24 DUP3 ADD MSTORE PUSH22 0x496E76616C6964206269646465722061646472657373 PUSH1 0x50 SHL PUSH1 0x44 DUP3 ADD MSTORE PUSH1 0x64 ADD PUSH2 0x7E4 JUMP JUMPDEST PUSH1 0x1 PUSH1 0x1 PUSH1 0xA0 SHL SUB DUP3 AND PUSH0 SWAP1 DUP2 MSTORE PUSH1 0xA PUSH1 0x20 MSTORE PUSH1 0x40 SWAP1 KECCAK256 SLOAD PUSH1 0xFF AND ISZERO PUSH2 0x126B JUMPI PUSH1 0x40 MLOAD PUSH3 0x461BCD PUSH1 0xE5 SHL DUP2 MSTORE PUSH1 0x20 PUSH1 0x4 DUP3 ADD MSTORE PUSH1 0x19 PUSH1 0x24 DUP3 ADD MSTORE PUSH32 0x42696464657220616C7265616479207265676973746572656400000000000000 PUSH1 0x44 DUP3 ADD MSTORE PUSH1 0x64 ADD PUSH2 0x7E4 JUMP JUMPDEST PUSH1 0x1 PUSH1 0x1 PUSH1 0xA0 SHL SUB DUP3 AND PUSH0 DUP2 DUP2 MSTORE PUSH1 0xA PUSH1 0x20 SWAP1 DUP2 MSTORE PUSH1 0x40 DUP1 DUP4 KECCAK256 DUP1 SLOAD PUSH1 0xFF NOT AND PUSH1 0x1 SWAP1 DUP2 OR SWAP1 SWAP2 SSTORE PUSH1 0xC DUP1 SLOAD SWAP2 DUP3 ADD DUP2 SSTORE SWAP1 SWAP4 MSTORE PUSH32 0xDF6966C971051C3D54EC59162606531493A51404A002842F56009D7E5CF4A8C7 SWAP1 SWAP3 ADD DUP1 SLOAD PUSH1 0x1 PUSH1 0x1 PUSH1 0xA0 SHL SUB NOT AND DUP5 OR SWAP1 SSTORE SWAP1 MLOAD SWAP2 DUP3 MSTORE PUSH32 0x381919937473504A02352AEDE091840B8E02CA2CE85B2C8513022353225FAF77 SWAP2 ADD PUSH2 0x837 JUMP JUMPDEST PUSH0 SLOAD PUSH1 0x1 PUSH1 0x1 PUSH1 0xA0 SHL SUB AND CALLER EQ PUSH2 0x132A JUMPI PUSH1 0x40 MLOAD PUSH4 0x47556579 PUSH1 0xE0 SHL DUP2 MSTORE PUSH1 0x4 ADD PUSH1 0x40 MLOAD DUP1 SWAP2 SUB SWAP1 REVERT JUMPDEST PUSH1 0x9 SLOAD PUSH1 0xFF AND PUSH2 0x134D JUMPI PUSH1 0x40 MLOAD PUSH4 0x55E9E641 PUSH1 0xE1 SHL DUP2 MSTORE PUSH1 0x4 ADD PUSH1 0x40 MLOAD DUP1 SWAP2 SUB SWAP1 REVERT JUMPDEST PUSH1 0x1 DUP1 PUSH1 0x2 SLOAD PUSH1 0x1 PUSH1 0xA0 SHL SWAP1 DIV PUSH1 0xFF AND PUSH1 0x7 DUP2 GT ISZERO PUSH2 0x136E JUMPI PUSH2 0x136E PUSH2 0x27C0 JUMP JUMPDEST EQ PUSH2 0x138C JUMPI PUSH1 0x40 MLOAD PUSH4 0x187FA83 PUSH1 0xE6 SHL DUP2 MSTORE PUSH1 0x4 ADD PUSH1 0x40 MLOAD DUP1 SWAP2 SUB SWAP1 REVERT JUMPDEST PUSH0 PUSH0 NOT DUP2 JUMPDEST PUSH1 0xC SLOAD DUP2 LT ISZERO PUSH2 0x1450 JUMPI PUSH0 PUSH1 0xC DUP3 DUP2 SLOAD DUP2 LT PUSH2 0x13AF JUMPI PUSH2 0x13AF PUSH2 0x2D04 JUMP JUMPDEST PUSH0 SWAP2 DUP3 MSTORE PUSH1 0x20 DUP1 DUP4 KECCAK256 SWAP1 SWAP2 ADD SLOAD PUSH1 0x1 PUSH1 0x1 PUSH1 0xA0 SHL SUB AND DUP1 DUP4 MSTORE PUSH1 0xB DUP3 MSTORE PUSH1 0x40 SWAP3 DUP4 SWAP1 KECCAK256 DUP4 MLOAD PUSH1 0xA0 DUP2 ADD DUP6 MSTORE DUP2 SLOAD DUP2 MSTORE PUSH1 0x1 DUP3 ADD SLOAD PUSH1 0xFF DUP1 DUP3 AND ISZERO ISZERO SWAP6 DUP4 ADD SWAP6 SWAP1 SWAP6 MSTORE PUSH2 0x100 SWAP1 DIV DUP5 AND ISZERO ISZERO SWAP5 DUP2 ADD SWAP5 SWAP1 SWAP5 MSTORE PUSH1 0x2 DUP2 ADD SLOAD PUSH1 0x60 DUP6 ADD MSTORE PUSH1 0x3 ADD SLOAD SWAP1 SWAP2 AND ISZERO DUP1 ISZERO PUSH1 0x80 DUP5 ADD DUP2 SWAP1 MSTORE SWAP2 SWAP4 POP PUSH2 0x142A JUMPI POP DUP1 PUSH1 0x40 ADD MLOAD JUMPDEST ISZERO PUSH2 0x1446 JUMPI DUP4 DUP2 PUSH1 0x60 ADD MLOAD LT ISZERO PUSH2 0x1446 JUMPI DUP1 PUSH1 0x60 ADD MLOAD SWAP4 POP DUP2 SWAP5 POP JUMPDEST POP POP PUSH1 0x1 ADD PUSH2 0x1391 JUMP JUMPDEST POP PUSH1 0x1 PUSH1 0x1 PUSH1 0xA0 SHL SUB DUP3 AND PUSH2 0x14A0 JUMPI PUSH1 0x40 MLOAD PUSH3 0x461BCD PUSH1 0xE5 SHL DUP2 MSTORE PUSH1 0x20 PUSH1 0x4 DUP3 ADD MSTORE PUSH1 0x16 PUSH1 0x24 DUP3 ADD MSTORE PUSH22 0x4E6F2076616C69642072657665616C65642062696473 PUSH1 0x50 SHL PUSH1 0x44 DUP3 ADD MSTORE PUSH1 0x64 ADD PUSH2 0x7E4 JUMP JUMPDEST PUSH1 0xD DUP1 SLOAD PUSH1 0x1 PUSH1 0x1 PUSH1 0xA0 SHL SUB NOT AND PUSH1 0x1 PUSH1 0x1 PUSH1 0xA0 SHL SUB DUP5 AND SWAP1 DUP2 OR SWAP1 SWAP2 SSTORE PUSH1 0xE DUP3 SWAP1 SSTORE PUSH1 0x2 DUP1 SLOAD PUSH1 0xFF PUSH1 0xA0 SHL NOT AND PUSH1 0x1 PUSH1 0xA1 SHL OR SWAP1 SSTORE PUSH1 0x40 DUP1 MLOAD SWAP2 DUP3 MSTORE PUSH1 0x20 DUP3 ADD DUP4 SWAP1 MSTORE DUP1 MLOAD PUSH32 0x44A8E45B0547725A1B190FE91FBA127F673B8CEC941CEAF8B3E2E67D61055DFE SWAP3 DUP2 SWAP1 SUB SWAP1 SWAP2 ADD SWAP1 LOG1 POP POP POP JUMP JUMPDEST PUSH1 0x3 DUP1 SLOAD DUP2 SWAP1 PUSH2 0x1524 SWAP1 PUSH2 0x2BA2 JUMP JUMPDEST DUP1 PUSH1 0x1F ADD PUSH1 0x20 DUP1 SWAP2 DIV MUL PUSH1 0x20 ADD PUSH1 0x40 MLOAD SWAP1 DUP2 ADD PUSH1 0x40 MSTORE DUP1 SWAP3 SWAP2 SWAP1 DUP2 DUP2 MSTORE PUSH1 0x20 ADD DUP3 DUP1 SLOAD PUSH2 0x1550 SWAP1 PUSH2 0x2BA2 JUMP JUMPDEST DUP1 ISZERO PUSH2 0x159B JUMPI DUP1 PUSH1 0x1F LT PUSH2 0x1572 JUMPI PUSH2 0x100 DUP1 DUP4 SLOAD DIV MUL DUP4 MSTORE SWAP2 PUSH1 0x20 ADD SWAP2 PUSH2 0x159B JUMP JUMPDEST DUP3 ADD SWAP2 SWAP1 PUSH0 MSTORE PUSH1 0x20 PUSH0 KECCAK256 SWAP1 JUMPDEST DUP2 SLOAD DUP2 MSTORE SWAP1 PUSH1 0x1 ADD SWAP1 PUSH1 0x20 ADD DUP1 DUP4 GT PUSH2 0x157E JUMPI DUP3 SWAP1 SUB PUSH1 0x1F AND DUP3 ADD SWAP2 JUMPDEST POP POP POP POP POP SWAP1 DUP1 PUSH1 0x1 ADD DUP1 SLOAD PUSH2 0x15B0 SWAP1 PUSH2 0x2BA2 JUMP JUMPDEST DUP1 PUSH1 0x1F ADD PUSH1 0x20 DUP1 SWAP2 DIV MUL PUSH1 0x20 ADD PUSH1 0x40 MLOAD SWAP1 DUP2 ADD PUSH1 0x40 MSTORE DUP1 SWAP3 SWAP2 SWAP1 DUP2 DUP2 MSTORE PUSH1 0x20 ADD DUP3 DUP1 SLOAD PUSH2 0x15DC SWAP1 PUSH2 0x2BA2 JUMP JUMPDEST DUP1 ISZERO PUSH2 0x1627 JUMPI DUP1 PUSH1 0x1F LT PUSH2 0x15FE JUMPI PUSH2 0x100 DUP1 DUP4 SLOAD DIV MUL DUP4 MSTORE SWAP2 PUSH1 0x20 ADD SWAP2 PUSH2 0x1627 JUMP JUMPDEST DUP3 ADD SWAP2 SWAP1 PUSH0 MSTORE PUSH1 0x20 PUSH0 KECCAK256 SWAP1 JUMPDEST DUP2 SLOAD DUP2 MSTORE SWAP1 PUSH1 0x1 ADD SWAP1 PUSH1 0x20 ADD DUP1 DUP4 GT PUSH2 0x160A JUMPI DUP3 SWAP1 SUB PUSH1 0x1F AND DUP3 ADD SWAP2 JUMPDEST POP POP POP POP POP SWAP1 DUP1 PUSH1 0x2 ADD DUP1 SLOAD PUSH2 0x163C SWAP1 PUSH2 0x2BA2 JUMP JUMPDEST DUP1 PUSH1 0x1F ADD PUSH1 0x20 DUP1 SWAP2 DIV MUL PUSH1 0x20 ADD PUSH1 0x40 MLOAD SWAP1 DUP2 ADD PUSH1 0x40 MSTORE DUP1 SWAP3 SWAP2 SWAP1 DUP2 DUP2 MSTORE PUSH1 0x20 ADD DUP3 DUP1 SLOAD PUSH2 0x1668 SWAP1 PUSH2 0x2BA2 JUMP JUMPDEST DUP1 ISZERO PUSH2 0x16B3 JUMPI DUP1 PUSH1 0x1F LT PUSH2 0x168A JUMPI PUSH2 0x100 DUP1 DUP4 SLOAD DIV MUL DUP4 MSTORE SWAP2 PUSH1 0x20 ADD SWAP2 PUSH2 0x16B3 JUMP JUMPDEST DUP3 ADD SWAP2 SWAP1 PUSH0 MSTORE PUSH1 0x20 PUSH0 KECCAK256 SWAP1 JUMPDEST DUP2 SLOAD DUP2 MSTORE SWAP1 PUSH1 0x1 ADD SWAP1 PUSH1 0x20 ADD DUP1 DUP4 GT PUSH2 0x1696 JUMPI DUP3 SWAP1 SUB PUSH1 0x1F AND DUP3 ADD SWAP2 JUMPDEST POP POP POP POP POP SWAP1 DUP1 PUSH1 0x3 ADD SLOAD SWAP1 DUP1 PUSH1 0x4 ADD SLOAD SWAP1 DUP1 PUSH1 0x5 ADD DUP1 SLOAD PUSH2 0x16D4 SWAP1 PUSH2 0x2BA2 JUMP JUMPDEST DUP1 PUSH1 0x1F ADD PUSH1 0x20 DUP1 SWAP2 DIV MUL PUSH1 0x20 ADD PUSH1 0x40 MLOAD SWAP1 DUP2 ADD PUSH1 0x40 MSTORE DUP1 SWAP3 SWAP2 SWAP1 DUP2 DUP2 MSTORE PUSH1 0x20 ADD DUP3 DUP1 SLOAD PUSH2 0x1700 SWAP1 PUSH2 0x2BA2 JUMP JUMPDEST DUP1 ISZERO PUSH2 0x174B JUMPI DUP1 PUSH1 0x1F LT PUSH2 0x1722 JUMPI PUSH2 0x100 DUP1 DUP4 SLOAD DIV MUL DUP4 MSTORE SWAP2 PUSH1 0x20 ADD SWAP2 PUSH2 0x174B JUMP JUMPDEST DUP3 ADD SWAP2 SWAP1 PUSH0 MSTORE PUSH1 0x20 PUSH0 KECCAK256 SWAP1 JUMPDEST DUP2 SLOAD DUP2 MSTORE SWAP1 PUSH1 0x1 ADD SWAP1 PUSH1 0x20 ADD DUP1 DUP4 GT PUSH2 0x172E JUMPI DUP3 SWAP1 SUB PUSH1 0x1F AND DUP3 ADD SWAP2 JUMPDEST POP POP POP PUSH1 0x6 SWAP1 SWAP4 ADD SLOAD SWAP2 SWAP3 POP POP PUSH1 0xFF AND DUP8 JUMP JUMPDEST PUSH0 SLOAD PUSH1 0x1 PUSH1 0x1 PUSH1 0xA0 SHL SUB AND CALLER EQ PUSH2 0x1788 JUMPI PUSH1 0x40 MLOAD PUSH4 0x47556579 PUSH1 0xE0 SHL DUP2 MSTORE PUSH1 0x4 ADD PUSH1 0x40 MLOAD DUP1 SWAP2 SUB SWAP1 REVERT JUMPDEST PUSH1 0x1 PUSH1 0x1 PUSH1 0xA0 SHL SUB DUP2 AND PUSH2 0x17D2 JUMPI PUSH1 0x40 MLOAD PUSH3 0x461BCD PUSH1 0xE5 SHL DUP2 MSTORE PUSH1 0x20 PUSH1 0x4 DUP3 ADD MSTORE PUSH1 0x11 PUSH1 0x24 DUP3 ADD MSTORE PUSH17 0x24B73B30B634B2103732BB9030B236B4B7 PUSH1 0x79 SHL PUSH1 0x44 DUP3 ADD MSTORE PUSH1 0x64 ADD PUSH2 0x7E4 JUMP JUMPDEST PUSH0 SLOAD PUSH1 0x1 PUSH1 0x1 PUSH1 0xA0 SHL SUB SWAP1 DUP2 AND SWAP1 DUP3 AND SUB PUSH2 0x1827 JUMPI PUSH1 0x40 MLOAD PUSH3 0x461BCD PUSH1 0xE5 SHL DUP2 MSTORE PUSH1 0x20 PUSH1 0x4 DUP3 ADD MSTORE PUSH1 0x15 PUSH1 0x24 DUP3 ADD MSTORE PUSH21 0x20B63932B0B23C9031BAB93932B73A1030B236B4B7 PUSH1 0x59 SHL PUSH1 0x44 DUP3 ADD MSTORE PUSH1 0x64 ADD PUSH2 0x7E4 JUMP JUMPDEST PUSH1 0x1 DUP1 SLOAD PUSH1 0x1 PUSH1 0x1 PUSH1 0xA0 SHL SUB NOT AND PUSH1 0x1 PUSH1 0x1 PUSH1 0xA0 SHL SUB DUP4 DUP2 AND SWAP2 DUP3 OR SWAP1 SWAP3 SSTORE PUSH0 DUP1 SLOAD PUSH1 0x40 MLOAD SWAP3 SWAP4 AND SWAP2 PUSH32 0xB4D7BCB4D9A5D6EF6E827E3B1554E5A2578AD9CA843903D42B05D08BFA345894 SWAP2 SWAP1 LOG3 POP JUMP JUMPDEST PUSH1 0x9 SLOAD PUSH1 0xFF AND PUSH2 0x189A JUMPI PUSH1 0x40 MLOAD PUSH4 0x55E9E641 PUSH1 0xE1 SHL DUP2 MSTORE PUSH1 0x4 ADD PUSH1 0x40 MLOAD DUP1 SWAP2 SUB SWAP1 REVERT JUMPDEST PUSH1 0x3 DUP1 PUSH1 0x2 SLOAD PUSH1 0x1 PUSH1 0xA0 SHL SWAP1 DIV PUSH1 0xFF AND PUSH1 0x7 DUP2 GT ISZERO PUSH2 0x18BB JUMPI PUSH2 0x18BB PUSH2 0x27C0 JUMP JUMPDEST EQ PUSH2 0x18D9 JUMPI PUSH1 0x40 MLOAD PUSH4 0x187FA83 PUSH1 0xE6 SHL DUP2 MSTORE PUSH1 0x4 ADD PUSH1 0x40 MLOAD DUP1 SWAP2 SUB SWAP1 REVERT JUMPDEST PUSH1 0x2 SLOAD PUSH1 0x1 PUSH1 0x1 PUSH1 0xA0 SHL SUB AND PUSH2 0x1902 JUMPI PUSH1 0x40 MLOAD PUSH4 0xD6EA3663 PUSH1 0xE0 SHL DUP2 MSTORE PUSH1 0x4 ADD PUSH1 0x40 MLOAD DUP1 SWAP2 SUB SWAP1 REVERT JUMPDEST PUSH1 0xD SLOAD PUSH1 0x1 PUSH1 0x1 PUSH1 0xA0 SHL SUB AND CALLER EQ PUSH2 0x195C JUMPI PUSH1 0x40 MLOAD PUSH3 0x461BCD PUSH1 0xE5 SHL DUP2 MSTORE PUSH1 0x20 PUSH1 0x4 DUP3 ADD MSTORE PUSH1 0x1F PUSH1 0x24 DUP3 ADD MSTORE PUSH32 0x4F6E6C792077696E6E65722063616E207375626D69742064656C697665727900 PUSH1 0x44 DUP3 ADD MSTORE PUSH1 0x64 ADD PUSH2 0x7E4 JUMP JUMPDEST DUP2 PUSH2 0x19A9 JUMPI PUSH1 0x40 MLOAD PUSH3 0x461BCD PUSH1 0xE5 SHL DUP2 MSTORE PUSH1 0x20 PUSH1 0x4 DUP3 ADD MSTORE PUSH1 0x1E PUSH1 0x24 DUP3 ADD MSTORE PUSH32 0x496E76616C69642064656C69766572792065766964656E636520686173680000 PUSH1 0x44 DUP3 ADD MSTORE PUSH1 0x64 ADD PUSH2 0x7E4 JUMP JUMPDEST PUSH1 0xF DUP3 SWAP1 SSTORE PUSH1 0x2 DUP1 SLOAD PUSH1 0xFF PUSH1 0xA0 SHL NOT AND PUSH1 0x1 PUSH1 0xA2 SHL OR SWAP1 SSTORE PUSH1 0x40 DUP1 MLOAD CALLER DUP2 MSTORE PUSH1 0x20 DUP2 ADD DUP5 SWAP1 MSTORE PUSH32 0xAE1F4649889BE6B26BCF006A04C674019D1EBAFAA07F234652D80CB084E77C57 SWAP2 ADD PUSH2 0x837 JUMP JUMPDEST PUSH1 0x1 SLOAD PUSH1 0x1 PUSH1 0x1 PUSH1 0xA0 SHL SUB AND CALLER EQ PUSH2 0x1A45 JUMPI PUSH1 0x40 MLOAD PUSH3 0x461BCD PUSH1 0xE5 SHL DUP2 MSTORE PUSH1 0x20 PUSH1 0x4 DUP3 ADD MSTORE PUSH1 0x11 PUSH1 0x24 DUP3 ADD MSTORE PUSH17 0x2737BA103832B73234B7339030B236B4B7 PUSH1 0x79 SHL PUSH1 0x44 DUP3 ADD MSTORE PUSH1 0x64 ADD PUSH2 0x7E4 JUMP JUMPDEST PUSH0 DUP1 SLOAD PUSH1 0x1 DUP1 SLOAD PUSH1 0x1 PUSH1 0x1 PUSH1 0xA0 SHL SUB DUP1 DUP3 AND PUSH1 0x1 PUSH1 0x1 PUSH1 0xA0 SHL SUB NOT DUP1 DUP7 AND DUP3 OR DUP8 SSTORE SWAP1 SWAP3 AND SWAP1 SWAP3 SSTORE PUSH1 0x40 MLOAD SWAP2 SWAP1 SWAP3 AND SWAP3 DUP4 SWAP2 PUSH32 0xF8CCB027DFCD135E000E9D45E6CC2D662578A8825D4C45B5E32E0ADF67E79EC6 SWAP2 SWAP1 LOG3 POP JUMP JUMPDEST PUSH0 SLOAD PUSH1 0x1 PUSH1 0x1 PUSH1 0xA0 SHL SUB AND CALLER EQ PUSH2 0x1AC8 JUMPI PUSH1 0x40 MLOAD PUSH4 0x47556579 PUSH1 0xE0 SHL DUP2 MSTORE PUSH1 0x4 ADD PUSH1 0x40 MLOAD DUP1 SWAP2 SUB SWAP1 REVERT JUMPDEST PUSH1 0x9 SLOAD PUSH1 0xFF AND ISZERO PUSH2 0x1B14 JUMPI PUSH1 0x40 MLOAD PUSH3 0x461BCD PUSH1 0xE5 SHL DUP2 MSTORE PUSH1 0x20 PUSH1 0x4 DUP3 ADD MSTORE PUSH1 0x16 PUSH1 0x24 DUP3 ADD MSTORE PUSH22 0x15195B99195C88185B1C9958591E4818DC99585D1959 PUSH1 0x52 SHL PUSH1 0x44 DUP3 ADD MSTORE PUSH1 0x64 ADD PUSH2 0x7E4 JUMP JUMPDEST PUSH0 DUP3 GT PUSH2 0x1B75 JUMPI PUSH1 0x40 MLOAD PUSH3 0x461BCD PUSH1 0xE5 SHL DUP2 MSTORE PUSH1 0x20 PUSH1 0x4 DUP3 ADD MSTORE PUSH1 0x29 PUSH1 0x24 DUP3 ADD MSTORE PUSH32 0x436F6E747261637420616D6F756E74206D757374206265206772656174657220 PUSH1 0x44 DUP3 ADD MSTORE PUSH9 0x7468616E207A65726F PUSH1 0xB8 SHL PUSH1 0x64 DUP3 ADD MSTORE PUSH1 0x84 ADD PUSH2 0x7E4 JUMP JUMPDEST PUSH0 PUSH2 0x1B84 DUP10 DUP10 DUP10 DUP10 DUP10 DUP10 PUSH2 0x2319 JUMP JUMPDEST SWAP1 POP TIMESTAMP DUP2 GT PUSH2 0x1BD5 JUMPI PUSH1 0x40 MLOAD PUSH3 0x461BCD PUSH1 0xE5 SHL DUP2 MSTORE PUSH1 0x20 PUSH1 0x4 DUP3 ADD MSTORE PUSH1 0x1E PUSH1 0x24 DUP3 ADD MSTORE PUSH32 0x446561646C696E65206D75737420626520696E20746865206675747572650000 PUSH1 0x44 DUP3 ADD MSTORE PUSH1 0x64 ADD PUSH2 0x7E4 JUMP JUMPDEST PUSH1 0x40 DUP1 MLOAD PUSH1 0xE0 DUP2 ADD DUP3 MSTORE DUP14 DUP2 MSTORE PUSH1 0x20 DUP2 ADD DUP14 SWAP1 MSTORE SWAP1 DUP2 ADD DUP12 SWAP1 MSTORE PUSH1 0x60 DUP2 ADD DUP3 SWAP1 MSTORE PUSH1 0x80 DUP2 ADD DUP5 SWAP1 MSTORE PUSH1 0xA0 DUP2 ADD DUP4 SWAP1 MSTORE PUSH1 0x1 PUSH1 0xC0 DUP3 ADD MSTORE PUSH1 0x3 DUP1 PUSH2 0x1C18 DUP16 DUP3 PUSH2 0x2C26 JUMP JUMPDEST POP PUSH1 0x20 DUP3 ADD MLOAD PUSH1 0x1 DUP3 ADD SWAP1 PUSH2 0x1C2D SWAP1 DUP3 PUSH2 0x2C26 JUMP JUMPDEST POP PUSH1 0x40 DUP3 ADD MLOAD PUSH1 0x2 DUP3 ADD SWAP1 PUSH2 0x1C42 SWAP1 DUP3 PUSH2 0x2C26 JUMP JUMPDEST POP PUSH1 0x60 DUP3 ADD MLOAD PUSH1 0x3 DUP3 ADD SSTORE PUSH1 0x80 DUP3 ADD MLOAD PUSH1 0x4 DUP3 ADD SSTORE PUSH1 0xA0 DUP3 ADD MLOAD PUSH1 0x5 DUP3 ADD SWAP1 PUSH2 0x1C6B SWAP1 DUP3 PUSH2 0x2C26 JUMP JUMPDEST POP PUSH1 0xC0 SWAP2 SWAP1 SWAP2 ADD MLOAD PUSH1 0x6 SWAP1 SWAP2 ADD DUP1 SLOAD PUSH1 0xFF NOT AND SWAP2 ISZERO ISZERO SWAP2 SWAP1 SWAP2 OR SWAP1 SSTORE PUSH1 0x2 DUP1 SLOAD PUSH1 0xFF PUSH1 0xA0 SHL NOT AND SWAP1 SSTORE PUSH1 0x40 MLOAD PUSH32 0x1B8026EDB59EB0A93AC326AC7A523B0055A7BD12F595A560E2E75E798F1D20F1 SWAP1 PUSH2 0x1CCA SWAP1 DUP15 SWAP1 DUP15 SWAP1 DUP6 SWAP1 DUP9 SWAP1 PUSH2 0x2D18 JUMP JUMPDEST PUSH1 0x40 MLOAD DUP1 SWAP2 SUB SWAP1 LOG1 POP POP POP POP POP POP POP POP POP POP POP POP JUMP JUMPDEST PUSH0 SLOAD PUSH1 0x1 PUSH1 0x1 PUSH1 0xA0 SHL SUB AND CALLER EQ PUSH2 0x1D0A JUMPI PUSH1 0x40 MLOAD PUSH4 0x47556579 PUSH1 0xE0 SHL DUP2 MSTORE PUSH1 0x4 ADD PUSH1 0x40 MLOAD DUP1 SWAP2 SUB SWAP1 REVERT JUMPDEST JUMP JUMPDEST PUSH0 SLOAD PUSH1 0x1 PUSH1 0x1 PUSH1 0xA0 SHL SUB AND CALLER EQ PUSH2 0x1D36 JUMPI PUSH1 0x40 MLOAD PUSH4 0x47556579 PUSH1 0xE0 SHL DUP2 MSTORE PUSH1 0x4 ADD PUSH1 0x40 MLOAD DUP1 SWAP2 SUB SWAP1 REVERT JUMPDEST PUSH1 0x9 SLOAD PUSH1 0xFF AND PUSH2 0x1D59 JUMPI PUSH1 0x40 MLOAD PUSH4 0x55E9E641 PUSH1 0xE1 SHL DUP2 MSTORE PUSH1 0x4 ADD PUSH1 0x40 MLOAD DUP1 SWAP2 SUB SWAP1 REVERT JUMPDEST PUSH1 0x2 DUP1 PUSH1 0x2 SLOAD PUSH1 0x1 PUSH1 0xA0 SHL SWAP1 DIV PUSH1 0xFF AND PUSH1 0x7 DUP2 GT ISZERO PUSH2 0x1D7A JUMPI PUSH2 0x1D7A PUSH2 0x27C0 JUMP JUMPDEST EQ PUSH2 0x1D98 JUMPI PUSH1 0x40 MLOAD PUSH4 0x187FA83 PUSH1 0xE6 SHL DUP2 MSTORE PUSH1 0x4 ADD PUSH1 0x40 MLOAD DUP1 SWAP2 SUB SWAP1 REVERT JUMPDEST PUSH1 0xD SLOAD PUSH1 0x1 PUSH1 0x1 PUSH1 0xA0 SHL SUB AND PUSH2 0x1DE5 JUMPI PUSH1 0x40 MLOAD PUSH3 0x461BCD PUSH1 0xE5 SHL DUP2 MSTORE PUSH1 0x20 PUSH1 0x4 DUP3 ADD MSTORE PUSH1 0x12 PUSH1 0x24 DUP3 ADD MSTORE PUSH18 0x139BC81DDA5B9B995C881CD95B1958DD1959 PUSH1 0x72 SHL PUSH1 0x44 DUP3 ADD MSTORE PUSH1 0x64 ADD PUSH2 0x7E4 JUMP JUMPDEST PUSH1 0x2 DUP1 SLOAD PUSH1 0xFF PUSH1 0xA0 SHL NOT AND PUSH1 0x3 PUSH1 0xA0 SHL OR SWAP1 SSTORE PUSH1 0xD SLOAD PUSH1 0xE SLOAD PUSH1 0x40 DUP1 MLOAD PUSH1 0x1 PUSH1 0x1 PUSH1 0xA0 SHL SUB SWAP1 SWAP4 AND DUP4 MSTORE PUSH1 0x20 DUP4 ADD SWAP2 SWAP1 SWAP2 MSTORE PUSH32 0xB973B46A8F1E88B970A622BF0CF618B80895EFA9AF0B01EDD9B2608FB8A6914E SWAP2 ADD PUSH2 0xF12 JUMP JUMPDEST PUSH0 SLOAD PUSH1 0x1 PUSH1 0x1 PUSH1 0xA0 SHL SUB AND CALLER EQ PUSH2 0x1E69 JUMPI PUSH1 0x40 MLOAD PUSH4 0x47556579 PUSH1 0xE0 SHL DUP2 MSTORE PUSH1 0x4 ADD PUSH1 0x40 MLOAD DUP1 SWAP2 SUB SWAP1 REVERT JUMPDEST PUSH1 0x9 SLOAD PUSH1 0xFF AND PUSH2 0x1E8C JUMPI PUSH1 0x40 MLOAD PUSH4 0x55E9E641 PUSH1 0xE1 SHL DUP2 MSTORE PUSH1 0x4 ADD PUSH1 0x40 MLOAD DUP1 SWAP2 SUB SWAP1 REVERT JUMPDEST PUSH1 0x6 DUP1 PUSH1 0x2 SLOAD PUSH1 0x1 PUSH1 0xA0 SHL SWAP1 DIV PUSH1 0xFF AND PUSH1 0x7 DUP2 GT ISZERO PUSH2 0x1EAD JUMPI PUSH2 0x1EAD PUSH2 0x27C0 JUMP JUMPDEST EQ PUSH2 0x1ECB JUMPI PUSH1 0x40 MLOAD PUSH4 0x187FA83 PUSH1 0xE6 SHL DUP2 MSTORE PUSH1 0x4 ADD PUSH1 0x40 MLOAD DUP1 SWAP2 SUB SWAP1 REVERT JUMPDEST PUSH1 0x12 SLOAD PUSH1 0xFF AND ISZERO PUSH2 0x1F1E JUMPI PUSH1 0x40 MLOAD PUSH3 0x461BCD PUSH1 0xE5 SHL DUP2 MSTORE PUSH1 0x20 PUSH1 0x4 DUP3 ADD MSTORE PUSH1 0x18 PUSH1 0x24 DUP3 ADD MSTORE PUSH32 0x5061796D656E7420616C72656164792072656C65617365640000000000000000 PUSH1 0x44 DUP3 ADD MSTORE PUSH1 0x64 ADD PUSH2 0x7E4 JUMP JUMPDEST PUSH1 0xD SLOAD PUSH1 0x1 PUSH1 0x1 PUSH1 0xA0 SHL SUB AND PUSH2 0x1F67 JUMPI PUSH1 0x40 MLOAD PUSH3 0x461BCD PUSH1 0xE5 SHL DUP2 MSTORE PUSH1 0x20 PUSH1 0x4 DUP3 ADD MSTORE PUSH1 0xE PUSH1 0x24 DUP3 ADD MSTORE PUSH14 0x15DA5B9B995C881B9BDD081CD95D PUSH1 0x92 SHL PUSH1 0x44 DUP3 ADD MSTORE PUSH1 0x64 ADD PUSH2 0x7E4 JUMP JUMPDEST PUSH1 0x7 SLOAD SELFBALANCE LT ISZERO PUSH2 0x1FB9 JUMPI PUSH1 0x40 MLOAD PUSH3 0x461BCD PUSH1 0xE5 SHL DUP2 MSTORE PUSH1 0x20 PUSH1 0x4 DUP3 ADD MSTORE PUSH1 0x1D PUSH1 0x24 DUP3 ADD MSTORE PUSH32 0x496E73756666696369656E7420636F6E74726163742062616C616E6365000000 PUSH1 0x44 DUP3 ADD MSTORE PUSH1 0x64 ADD PUSH2 0x7E4 JUMP JUMPDEST PUSH1 0x12 DUP1 SLOAD PUSH1 0xFF NOT AND PUSH1 0x1 OR SWAP1 SSTORE PUSH1 0x2 DUP1 SLOAD PUSH1 0xFF PUSH1 0xA0 SHL NOT AND PUSH1 0x7 PUSH1 0xA0 SHL OR SWAP1 SSTORE PUSH1 0xD SLOAD PUSH1 0x7 SLOAD PUSH1 0x40 MLOAD PUSH1 0x1 PUSH1 0x1 PUSH1 0xA0 SHL SUB SWAP1 SWAP3 AND SWAP2 DUP2 ISZERO PUSH2 0x8FC MUL SWAP2 SWAP1 PUSH0 DUP2 DUP2 DUP2 DUP6 DUP9 DUP9 CALL SWAP4 POP POP POP POP ISZERO DUP1 ISZERO PUSH2 0x2012 JUMPI RETURNDATASIZE PUSH0 PUSH0 RETURNDATACOPY RETURNDATASIZE PUSH0 REVERT JUMPDEST POP PUSH1 0xD SLOAD PUSH1 0x7 SLOAD PUSH1 0x40 DUP1 MLOAD PUSH1 0x1 PUSH1 0x1 PUSH1 0xA0 SHL SUB SWAP1 SWAP4 AND DUP4 MSTORE PUSH1 0x20 DUP4 ADD SWAP2 SWAP1 SWAP2 MSTORE PUSH32 0xDF20FD1E76BC69D672E4814FAFB2C449BBA3A5369D8359ADF9E05E6FDE87B056 SWAP2 ADD PUSH2 0xF12 JUMP JUMPDEST PUSH1 0xC DUP2 DUP2 SLOAD DUP2 LT PUSH2 0x2069 JUMPI PUSH0 DUP1 REVERT JUMPDEST PUSH0 SWAP2 DUP3 MSTORE PUSH1 0x20 SWAP1 SWAP2 KECCAK256 ADD SLOAD PUSH1 0x1 PUSH1 0x1 PUSH1 0xA0 SHL SUB AND SWAP1 POP DUP2 JUMP JUMPDEST PUSH1 0x60 DUP1 PUSH1 0x60 PUSH0 PUSH0 PUSH1 0x60 PUSH0 PUSH0 PUSH0 PUSH1 0x3 PUSH0 ADD PUSH1 0x3 PUSH1 0x1 ADD PUSH1 0x3 PUSH1 0x2 ADD PUSH1 0x3 DUP1 ADD SLOAD PUSH1 0x3 PUSH1 0x4 ADD SLOAD PUSH1 0x3 PUSH1 0x5 ADD PUSH1 0x2 PUSH1 0x14 SWAP1 SLOAD SWAP1 PUSH2 0x100 EXP SWAP1 DIV PUSH1 0xFF AND PUSH1 0xD PUSH0 SWAP1 SLOAD SWAP1 PUSH2 0x100 EXP SWAP1 DIV PUSH1 0x1 PUSH1 0x1 PUSH1 0xA0 SHL SUB AND PUSH1 0xE SLOAD DUP9 DUP1 SLOAD PUSH2 0x20E0 SWAP1 PUSH2 0x2BA2 JUMP JUMPDEST DUP1 PUSH1 0x1F ADD PUSH1 0x20 DUP1 SWAP2 DIV MUL PUSH1 0x20 ADD PUSH1 0x40 MLOAD SWAP1 DUP2 ADD PUSH1 0x40 MSTORE DUP1 SWAP3 SWAP2 SWAP1 DUP2 DUP2 MSTORE PUSH1 0x20 ADD DUP3 DUP1 SLOAD PUSH2 0x210C SWAP1 PUSH2 0x2BA2 JUMP JUMPDEST DUP1 ISZERO PUSH2 0x2157 JUMPI DUP1 PUSH1 0x1F LT PUSH2 0x212E JUMPI PUSH2 0x100 DUP1 DUP4 SLOAD DIV MUL DUP4 MSTORE SWAP2 PUSH1 0x20 ADD SWAP2 PUSH2 0x2157 JUMP JUMPDEST DUP3 ADD SWAP2 SWAP1 PUSH0 MSTORE PUSH1 0x20 PUSH0 KECCAK256 SWAP1 JUMPDEST DUP2 SLOAD DUP2 MSTORE SWAP1 PUSH1 0x1 ADD SWAP1 PUSH1 0x20 ADD DUP1 DUP4 GT PUSH2 0x213A JUMPI DUP3 SWAP1 SUB PUSH1 0x1F AND DUP3 ADD SWAP2 JUMPDEST POP POP POP POP POP SWAP9 POP DUP8 DUP1 SLOAD PUSH2 0x216A SWAP1 PUSH2 0x2BA2 JUMP JUMPDEST DUP1 PUSH1 0x1F ADD PUSH1 0x20 DUP1 SWAP2 DIV MUL PUSH1 0x20 ADD PUSH1 0x40 MLOAD SWAP1 DUP2 ADD PUSH1 0x40 MSTORE DUP1 SWAP3 SWAP2 SWAP1 DUP2 DUP2 MSTORE PUSH1 0x20 ADD DUP3 DUP1 SLOAD PUSH2 0x2196 SWAP1 PUSH2 0x2BA2 JUMP JUMPDEST DUP1 ISZERO PUSH2 0x21E1 JUMPI DUP1 PUSH1 0x1F LT PUSH2 0x21B8 JUMPI PUSH2 0x100 DUP1 DUP4 SLOAD DIV MUL DUP4 MSTORE SWAP2 PUSH1 0x20 ADD SWAP2 PUSH2 0x21E1 JUMP JUMPDEST DUP3 ADD SWAP2 SWAP1 PUSH0 MSTORE PUSH1 0x20 PUSH0 KECCAK256 SWAP1 JUMPDEST DUP2 SLOAD DUP2 MSTORE SWAP1 PUSH1 0x1 ADD SWAP1 PUSH1 0x20 ADD DUP1 DUP4 GT PUSH2 0x21C4 JUMPI DUP3 SWAP1 SUB PUSH1 0x1F AND DUP3 ADD SWAP2 JUMPDEST POP POP POP POP POP SWAP8 POP DUP7 DUP1 SLOAD PUSH2 0x21F4 SWAP1 PUSH2 0x2BA2 JUMP JUMPDEST DUP1 PUSH1 0x1F ADD PUSH1 0x20 DUP1 SWAP2 DIV MUL PUSH1 0x20 ADD PUSH1 0x40 MLOAD SWAP1 DUP2 ADD PUSH1 0x40 MSTORE DUP1 SWAP3 SWAP2 SWAP1 DUP2 DUP2 MSTORE PUSH1 0x20 ADD DUP3 DUP1 SLOAD PUSH2 0x2220 SWAP1 PUSH2 0x2BA2 JUMP JUMPDEST DUP1 ISZERO PUSH2 0x226B JUMPI DUP1 PUSH1 0x1F LT PUSH2 0x2242 JUMPI PUSH2 0x100 DUP1 DUP4 SLOAD DIV MUL DUP4 MSTORE SWAP2 PUSH1 0x20 ADD SWAP2 PUSH2 0x226B JUMP JUMPDEST DUP3 ADD SWAP2 SWAP1 PUSH0 MSTORE PUSH1 0x20 PUSH0 KECCAK256 SWAP1 JUMPDEST DUP2 SLOAD DUP2 MSTORE SWAP1 PUSH1 0x1 ADD SWAP1 PUSH1 0x20 ADD DUP1 DUP4 GT PUSH2 0x224E JUMPI DUP3 SWAP1 SUB PUSH1 0x1F AND DUP3 ADD SWAP2 JUMPDEST POP POP POP POP POP SWAP7 POP DUP4 DUP1 SLOAD PUSH2 0x227E SWAP1 PUSH2 0x2BA2 JUMP JUMPDEST DUP1 PUSH1 0x1F ADD PUSH1 0x20 DUP1 SWAP2 DIV MUL PUSH1 0x20 ADD PUSH1 0x40 MLOAD SWAP1 DUP2 ADD PUSH1 0x40 MSTORE DUP1 SWAP3 SWAP2 SWAP1 DUP2 DUP2 MSTORE PUSH1 0x20 ADD DUP3 DUP1 SLOAD PUSH2 0x22AA SWAP1 PUSH2 0x2BA2 JUMP JUMPDEST DUP1 ISZERO PUSH2 0x22F5 JUMPI DUP1 PUSH1 0x1F LT PUSH2 0x22CC JUMPI PUSH2 0x100 DUP1 DUP4 SLOAD DIV MUL DUP4 MSTORE SWAP2 PUSH1 0x20 ADD SWAP2 PUSH2 0x22F5 JUMP JUMPDEST DUP3 ADD SWAP2 SWAP1 PUSH0 MSTORE PUSH1 0x20 PUSH0 KECCAK256 SWAP1 JUMPDEST DUP2 SLOAD DUP2 MSTORE SWAP1 PUSH1 0x1 ADD SWAP1 PUSH1 0x20 ADD DUP1 DUP4 GT PUSH2 0x22D8 JUMPI DUP3 SWAP1 SUB PUSH1 0x1F AND DUP3 ADD SWAP2 JUMPDEST POP POP POP POP POP SWAP4 POP SWAP9 POP SWAP9 POP SWAP9 POP SWAP9 POP SWAP9 POP SWAP9 POP SWAP9 POP SWAP9 POP SWAP9 POP SWAP1 SWAP2 SWAP3 SWAP4 SWAP5 SWAP6 SWAP7 SWAP8 SWAP9 JUMP JUMPDEST PUSH0 PUSH2 0x7B2 DUP8 LT ISZERO DUP1 ISZERO PUSH2 0x232E JUMPI POP PUSH2 0x834 DUP8 GT ISZERO JUMPDEST PUSH2 0x2369 JUMPI PUSH1 0x40 MLOAD PUSH3 0x461BCD PUSH1 0xE5 SHL DUP2 MSTORE PUSH1 0x20 PUSH1 0x4 DUP3 ADD MSTORE PUSH1 0xC PUSH1 0x24 DUP3 ADD MSTORE PUSH12 0x24B73B30B634B2103CB2B0B9 PUSH1 0xA1 SHL PUSH1 0x44 DUP3 ADD MSTORE PUSH1 0x64 ADD PUSH2 0x7E4 JUMP JUMPDEST PUSH1 0x1 DUP7 LT ISZERO DUP1 ISZERO PUSH2 0x237B JUMPI POP PUSH1 0xC DUP7 GT ISZERO JUMPDEST PUSH2 0x23B7 JUMPI PUSH1 0x40 MLOAD PUSH3 0x461BCD PUSH1 0xE5 SHL DUP2 MSTORE PUSH1 0x20 PUSH1 0x4 DUP3 ADD MSTORE PUSH1 0xD PUSH1 0x24 DUP3 ADD MSTORE PUSH13 0x92DCECC2D8D2C840DADEDCE8D PUSH1 0x9B SHL PUSH1 0x44 DUP3 ADD MSTORE PUSH1 0x64 ADD PUSH2 0x7E4 JUMP JUMPDEST PUSH1 0x18 DUP5 LT PUSH2 0x23F6 JUMPI PUSH1 0x40 MLOAD PUSH3 0x461BCD PUSH1 0xE5 SHL DUP2 MSTORE PUSH1 0x20 PUSH1 0x4 DUP3 ADD MSTORE PUSH1 0xC PUSH1 0x24 DUP3 ADD MSTORE PUSH12 0x24B73B30B634B2103437BAB9 PUSH1 0xA1 SHL PUSH1 0x44 DUP3 ADD MSTORE PUSH1 0x64 ADD PUSH2 0x7E4 JUMP JUMPDEST PUSH1 0x3C DUP4 LT PUSH2 0x2437 JUMPI PUSH1 0x40 MLOAD PUSH3 0x461BCD PUSH1 0xE5 SHL DUP2 MSTORE PUSH1 0x20 PUSH1 0x4 DUP3 ADD MSTORE PUSH1 0xE PUSH1 0x24 DUP3 ADD MSTORE PUSH14 0x496E76616C6964206D696E757465 PUSH1 0x90 SHL PUSH1 0x44 DUP3 ADD MSTORE PUSH1 0x64 ADD PUSH2 0x7E4 JUMP JUMPDEST PUSH1 0xB NOT DUP3 SLT ISZERO DUP1 ISZERO PUSH2 0x244A JUMPI POP PUSH1 0xE DUP3 SGT ISZERO JUMPDEST PUSH2 0x248B JUMPI PUSH1 0x40 MLOAD PUSH3 0x461BCD PUSH1 0xE5 SHL DUP2 MSTORE PUSH1 0x20 PUSH1 0x4 DUP3 ADD MSTORE PUSH1 0x12 PUSH1 0x24 DUP3 ADD MSTORE PUSH18 0x125B9D985B1A5908155510C81BD9999CD95D PUSH1 0x72 SHL PUSH1 0x44 DUP3 ADD MSTORE PUSH1 0x64 ADD PUSH2 0x7E4 JUMP JUMPDEST PUSH0 PUSH2 0x2496 DUP9 DUP9 PUSH2 0x254D JUMP JUMPDEST SWAP1 POP PUSH1 0x1 DUP7 LT ISZERO DUP1 ISZERO PUSH2 0x24A9 JUMPI POP DUP1 DUP7 GT ISZERO JUMPDEST PUSH2 0x24E3 JUMPI PUSH1 0x40 MLOAD PUSH3 0x461BCD PUSH1 0xE5 SHL DUP2 MSTORE PUSH1 0x20 PUSH1 0x4 DUP3 ADD MSTORE PUSH1 0xB PUSH1 0x24 DUP3 ADD MSTORE PUSH11 0x496E76616C696420646179 PUSH1 0xA8 SHL PUSH1 0x44 DUP3 ADD MSTORE PUSH1 0x64 ADD PUSH2 0x7E4 JUMP JUMPDEST PUSH2 0x24F1 DUP9 DUP9 DUP9 DUP9 DUP9 PUSH0 PUSH2 0x25B1 JUMP JUMPDEST SWAP2 POP PUSH0 DUP4 SGT ISZERO PUSH2 0x2518 JUMPI PUSH2 0x2507 DUP4 PUSH2 0xE10 PUSH2 0x2D64 JUMP JUMPDEST PUSH2 0x2511 SWAP1 DUP4 PUSH2 0x2D7B JUMP JUMPDEST SWAP2 POP PUSH2 0x2542 JUMP JUMPDEST PUSH0 DUP4 SLT ISZERO PUSH2 0x2542 JUMPI PUSH2 0x2529 DUP4 PUSH2 0x2D8E JUMP JUMPDEST PUSH2 0x2535 SWAP1 PUSH2 0xE10 PUSH2 0x2D64 JUMP JUMPDEST PUSH2 0x253F SWAP1 DUP4 PUSH2 0x2DA8 JUMP JUMPDEST SWAP2 POP JUMPDEST POP SWAP7 SWAP6 POP POP POP POP POP POP JUMP JUMPDEST PUSH0 DUP2 PUSH1 0x2 SUB PUSH2 0x2577 JUMPI PUSH2 0x255F DUP4 PUSH2 0x274D JUMP JUMPDEST PUSH2 0x256A JUMPI PUSH1 0x1C PUSH2 0x256D JUMP JUMPDEST PUSH1 0x1D JUMPDEST PUSH1 0xFF AND SWAP1 POP PUSH2 0xC05 JUMP JUMPDEST DUP2 PUSH1 0x4 EQ DUP1 PUSH2 0x2586 JUMPI POP DUP2 PUSH1 0x6 EQ JUMPDEST DUP1 PUSH2 0x2591 JUMPI POP DUP2 PUSH1 0x9 EQ JUMPDEST DUP1 PUSH2 0x259C JUMPI POP DUP2 PUSH1 0xB EQ JUMPDEST ISZERO PUSH2 0x25A9 JUMPI POP PUSH1 0x1E PUSH2 0xC05 JUMP JUMPDEST POP PUSH1 0x1F PUSH2 0xC05 JUMP JUMPDEST PUSH0 PUSH2 0x7B2 JUMPDEST DUP8 DUP2 PUSH2 0xFFFF AND LT ISZERO PUSH2 0x2608 JUMPI PUSH2 0x25CB DUP2 PUSH2 0x274D JUMP JUMPDEST ISZERO PUSH2 0x25E5 JUMPI PUSH2 0x25DE PUSH4 0x1E28500 DUP4 PUSH2 0x2DA8 JUMP JUMPDEST SWAP2 POP PUSH2 0x25F6 JUMP JUMPDEST PUSH2 0x25F3 PUSH4 0x1E13380 DUP4 PUSH2 0x2DA8 JUMP JUMPDEST SWAP2 POP JUMPDEST DUP1 PUSH2 0x2600 DUP2 PUSH2 0x2DBB JUMP JUMPDEST SWAP2 POP POP PUSH2 0x25B6 JUMP JUMPDEST PUSH1 0x40 DUP1 MLOAD PUSH2 0x180 DUP2 ADD DUP3 MSTORE PUSH1 0x1F DUP1 DUP3 MSTORE PUSH1 0x1C PUSH1 0x20 DUP4 ADD MSTORE SWAP2 DUP2 ADD DUP3 SWAP1 MSTORE PUSH1 0x1E PUSH1 0x60 DUP3 ADD DUP2 SWAP1 MSTORE PUSH1 0x80 DUP3 ADD DUP4 SWAP1 MSTORE PUSH1 0xA0 DUP3 ADD DUP2 SWAP1 MSTORE PUSH1 0xC0 DUP3 ADD DUP4 SWAP1 MSTORE PUSH1 0xE0 DUP3 ADD DUP4 SWAP1 MSTORE PUSH2 0x100 DUP3 ADD DUP2 SWAP1 MSTORE PUSH2 0x120 DUP3 ADD DUP4 SWAP1 MSTORE PUSH2 0x140 DUP3 ADD MSTORE PUSH2 0x160 DUP2 ADD SWAP2 SWAP1 SWAP2 MSTORE PUSH2 0x2672 DUP10 PUSH2 0x274D JUMP JUMPDEST ISZERO PUSH2 0x267F JUMPI PUSH1 0x1D PUSH1 0x20 DUP3 ADD MSTORE JUMPDEST PUSH1 0x1 SWAP2 POP JUMPDEST DUP8 DUP3 PUSH2 0xFFFF AND LT ISZERO PUSH2 0x26E3 JUMPI DUP1 PUSH2 0x269C PUSH1 0x1 DUP5 PUSH2 0x2DDB JUMP JUMPDEST PUSH2 0xFFFF AND PUSH1 0xC DUP2 LT PUSH2 0x26B0 JUMPI PUSH2 0x26B0 PUSH2 0x2D04 JUMP JUMPDEST PUSH1 0x20 MUL ADD MLOAD PUSH2 0x26C5 SWAP1 PUSH1 0xFF AND PUSH3 0x15180 PUSH2 0x2D64 JUMP JUMPDEST PUSH2 0x26CF SWAP1 DUP5 PUSH2 0x2DA8 JUMP JUMPDEST SWAP3 POP DUP2 PUSH2 0x26DB DUP2 PUSH2 0x2DBB JUMP JUMPDEST SWAP3 POP POP PUSH2 0x2684 JUMP JUMPDEST PUSH2 0x26EE PUSH1 0x1 DUP9 PUSH2 0x2D7B JUMP JUMPDEST PUSH2 0x26FB SWAP1 PUSH3 0x15180 PUSH2 0x2D64 JUMP JUMPDEST PUSH2 0x2705 SWAP1 DUP5 PUSH2 0x2DA8 JUMP JUMPDEST SWAP3 POP PUSH2 0x2713 DUP7 PUSH2 0xE10 PUSH2 0x2D64 JUMP JUMPDEST PUSH2 0x271D SWAP1 DUP5 PUSH2 0x2DA8 JUMP JUMPDEST SWAP3 POP PUSH2 0x272A DUP6 PUSH1 0x3C PUSH2 0x2D64 JUMP JUMPDEST PUSH2 0x2734 SWAP1 DUP5 PUSH2 0x2DA8 JUMP JUMPDEST SWAP3 POP PUSH2 0x2740 DUP5 DUP5 PUSH2 0x2DA8 JUMP JUMPDEST SWAP10 SWAP9 POP POP POP POP POP POP POP POP POP JUMP JUMPDEST PUSH0 PUSH2 0x2759 PUSH1 0x4 DUP4 PUSH2 0x2DF5 JUMP JUMPDEST PUSH2 0xFFFF AND ISZERO PUSH2 0x2769 JUMPI POP PUSH0 SWAP2 SWAP1 POP JUMP JUMPDEST PUSH2 0x2774 PUSH1 0x64 DUP4 PUSH2 0x2DF5 JUMP JUMPDEST PUSH2 0xFFFF AND ISZERO PUSH2 0x2785 JUMPI POP PUSH1 0x1 SWAP2 SWAP1 POP JUMP JUMPDEST PUSH2 0x2791 PUSH2 0x190 DUP4 PUSH2 0x2DF5 JUMP JUMPDEST PUSH2 0xFFFF AND ISZERO PUSH2 0x27A1 JUMPI POP PUSH0 SWAP2 SWAP1 POP JUMP JUMPDEST POP PUSH1 0x1 SWAP2 SWAP1 POP JUMP JUMPDEST PUSH0 PUSH1 0x20 DUP3 DUP5 SUB SLT ISZERO PUSH2 0x27B9 JUMPI PUSH0 PUSH0 REVERT JUMPDEST POP CALLDATALOAD SWAP2 SWAP1 POP JUMP JUMPDEST PUSH4 0x4E487B71 PUSH1 0xE0 SHL PUSH0 MSTORE PUSH1 0x21 PUSH1 0x4 MSTORE PUSH1 0x24 PUSH0 REVERT JUMPDEST PUSH1 0x8 DUP2 LT PUSH2 0x27F0 JUMPI PUSH4 0x4E487B71 PUSH1 0xE0 SHL PUSH0 MSTORE PUSH1 0x21 PUSH1 0x4 MSTORE PUSH1 0x24 PUSH0 REVERT JUMPDEST SWAP1 MSTORE JUMP JUMPDEST PUSH1 0x20 DUP2 ADD PUSH2 0xC05 DUP3 DUP5 PUSH2 0x27D4 JUMP JUMPDEST PUSH4 0x4E487B71 PUSH1 0xE0 SHL PUSH0 MSTORE PUSH1 0x41 PUSH1 0x4 MSTORE PUSH1 0x24 PUSH0 REVERT JUMPDEST PUSH0 DUP3 PUSH1 0x1F DUP4 ADD SLT PUSH2 0x2825 JUMPI PUSH0 PUSH0 REVERT JUMPDEST DUP2 CALLDATALOAD PUSH8 0xFFFFFFFFFFFFFFFF DUP2 GT ISZERO PUSH2 0x283F JUMPI PUSH2 0x283F PUSH2 0x2802 JUMP JUMPDEST PUSH1 0x40 MLOAD PUSH1 0x1F DUP3 ADD PUSH1 0x1F NOT SWAP1 DUP2 AND PUSH1 0x3F ADD AND DUP2 ADD PUSH8 0xFFFFFFFFFFFFFFFF DUP2 GT DUP3 DUP3 LT OR ISZERO PUSH2 0x286E JUMPI PUSH2 0x286E PUSH2 0x2802 JUMP JUMPDEST PUSH1 0x40 MSTORE DUP2 DUP2 MSTORE DUP4 DUP3 ADD PUSH1 0x20 ADD DUP6 LT ISZERO PUSH2 0x2885 JUMPI PUSH0 PUSH0 REVERT JUMPDEST DUP2 PUSH1 0x20 DUP6 ADD PUSH1 0x20 DUP4 ADD CALLDATACOPY PUSH0 SWAP2 DUP2 ADD PUSH1 0x20 ADD SWAP2 SWAP1 SWAP2 MSTORE SWAP4 SWAP3 POP POP POP JUMP JUMPDEST PUSH0 PUSH0 PUSH1 0x40 DUP4 DUP6 SUB SLT ISZERO PUSH2 0x28B2 JUMPI PUSH0 PUSH0 REVERT JUMPDEST DUP3 CALLDATALOAD SWAP2 POP PUSH1 0x20 DUP4 ADD CALLDATALOAD PUSH8 0xFFFFFFFFFFFFFFFF DUP2 GT ISZERO PUSH2 0x28CF JUMPI PUSH0 PUSH0 REVERT JUMPDEST PUSH2 0x28DB DUP6 DUP3 DUP7 ADD PUSH2 0x2816 JUMP JUMPDEST SWAP2 POP POP SWAP3 POP SWAP3 SWAP1 POP JUMP JUMPDEST PUSH0 DUP2 MLOAD DUP1 DUP5 MSTORE DUP1 PUSH1 0x20 DUP5 ADD PUSH1 0x20 DUP7 ADD MCOPY PUSH0 PUSH1 0x20 DUP3 DUP7 ADD ADD MSTORE PUSH1 0x20 PUSH1 0x1F NOT PUSH1 0x1F DUP4 ADD AND DUP6 ADD ADD SWAP2 POP POP SWAP3 SWAP2 POP POP JUMP JUMPDEST PUSH1 0x20 DUP2 MSTORE PUSH0 PUSH2 0x2925 PUSH1 0x20 DUP4 ADD DUP5 PUSH2 0x28E5 JUMP JUMPDEST SWAP4 SWAP3 POP POP POP JUMP JUMPDEST PUSH0 PUSH1 0x20 DUP3 DUP5 SUB SLT ISZERO PUSH2 0x293C JUMPI PUSH0 PUSH0 REVERT JUMPDEST DUP2 CALLDATALOAD PUSH1 0x1 PUSH1 0x1 PUSH1 0xA0 SHL SUB DUP2 AND DUP2 EQ PUSH2 0x2925 JUMPI PUSH0 PUSH0 REVERT JUMPDEST PUSH0 PUSH1 0x20 DUP3 DUP5 SUB SLT ISZERO PUSH2 0x2962 JUMPI PUSH0 PUSH0 REVERT JUMPDEST DUP2 CALLDATALOAD PUSH8 0xFFFFFFFFFFFFFFFF DUP2 GT ISZERO PUSH2 0x2978 JUMPI PUSH0 PUSH0 REVERT JUMPDEST PUSH2 0x2984 DUP5 DUP3 DUP6 ADD PUSH2 0x2816 JUMP JUMPDEST SWAP5 SWAP4 POP POP POP POP JUMP JUMPDEST PUSH1 0xE0 DUP2 MSTORE PUSH0 PUSH2 0x299E PUSH1 0xE0 DUP4 ADD DUP11 PUSH2 0x28E5 JUMP JUMPDEST DUP3 DUP2 SUB PUSH1 0x20 DUP5 ADD MSTORE PUSH2 0x29B0 DUP2 DUP11 PUSH2 0x28E5 JUMP JUMPDEST SWAP1 POP DUP3 DUP2 SUB PUSH1 0x40 DUP5 ADD MSTORE PUSH2 0x29C4 DUP2 DUP10 PUSH2 0x28E5 JUMP JUMPDEST SWAP1 POP DUP7 PUSH1 0x60 DUP5 ADD MSTORE DUP6 PUSH1 0x80 DUP5 ADD MSTORE DUP3 DUP2 SUB PUSH1 0xA0 DUP5 ADD MSTORE PUSH2 0x29E4 DUP2 DUP7 PUSH2 0x28E5 JUMP JUMPDEST SWAP2 POP POP DUP3 ISZERO ISZERO PUSH1 0xC0 DUP4 ADD MSTORE SWAP9 SWAP8 POP POP POP POP POP POP POP POP JUMP JUMPDEST PUSH0 PUSH0 PUSH0 PUSH0 PUSH0 PUSH0 PUSH0 PUSH0 PUSH0 PUSH0 PUSH0 PUSH2 0x160 DUP13 DUP15 SUB SLT ISZERO PUSH2 0x2A16 JUMPI PUSH0 PUSH0 REVERT JUMPDEST DUP12 CALLDATALOAD PUSH8 0xFFFFFFFFFFFFFFFF DUP2 GT ISZERO PUSH2 0x2A2C JUMPI PUSH0 PUSH0 REVERT JUMPDEST PUSH2 0x2A38 DUP15 DUP3 DUP16 ADD PUSH2 0x2816 JUMP JUMPDEST SWAP12 POP POP PUSH1 0x20 DUP13 ADD CALLDATALOAD PUSH8 0xFFFFFFFFFFFFFFFF DUP2 GT ISZERO PUSH2 0x2A54 JUMPI PUSH0 PUSH0 REVERT JUMPDEST PUSH2 0x2A60 DUP15 DUP3 DUP16 ADD PUSH2 0x2816 JUMP JUMPDEST SWAP11 POP POP PUSH1 0x40 DUP13 ADD CALLDATALOAD PUSH8 0xFFFFFFFFFFFFFFFF DUP2 GT ISZERO PUSH2 0x2A7C JUMPI PUSH0 PUSH0 REVERT JUMPDEST PUSH2 0x2A88 DUP15 DUP3 DUP16 ADD PUSH2 0x2816 JUMP JUMPDEST SWAP10 POP POP PUSH1 0x60 DUP13 ADD CALLDATALOAD SWAP8 POP PUSH1 0x80 DUP13 ADD CALLDATALOAD SWAP7 POP PUSH1 0xA0 DUP13 ADD CALLDATALOAD SWAP6 POP PUSH1 0xC0 DUP13 ADD CALLDATALOAD SWAP5 POP PUSH1 0xE0 DUP13 ADD CALLDATALOAD SWAP4 POP PUSH2 0x100 DUP13 ADD CALLDATALOAD SWAP3 POP PUSH2 0x120 DUP13 ADD CALLDATALOAD SWAP2 POP PUSH2 0x140 DUP13 ADD CALLDATALOAD PUSH8 0xFFFFFFFFFFFFFFFF DUP2 GT ISZERO PUSH2 0x2AD8 JUMPI PUSH0 PUSH0 REVERT JUMPDEST PUSH2 0x2AE4 DUP15 DUP3 DUP16 ADD PUSH2 0x2816 JUMP JUMPDEST SWAP2 POP POP SWAP3 SWAP6 SWAP9 SWAP12 POP SWAP3 SWAP6 SWAP9 SWAP12 SWAP1 SWAP4 SWAP7 SWAP10 POP JUMP JUMPDEST PUSH2 0x120 DUP2 MSTORE PUSH0 PUSH2 0x2B0B PUSH2 0x120 DUP4 ADD DUP13 PUSH2 0x28E5 JUMP JUMPDEST DUP3 DUP2 SUB PUSH1 0x20 DUP5 ADD MSTORE PUSH2 0x2B1D DUP2 DUP13 PUSH2 0x28E5 JUMP JUMPDEST SWAP1 POP DUP3 DUP2 SUB PUSH1 0x40 DUP5 ADD MSTORE PUSH2 0x2B31 DUP2 DUP12 PUSH2 0x28E5 JUMP JUMPDEST SWAP1 POP DUP9 PUSH1 0x60 DUP5 ADD MSTORE DUP8 PUSH1 0x80 DUP5 ADD MSTORE DUP3 DUP2 SUB PUSH1 0xA0 DUP5 ADD MSTORE PUSH2 0x2B51 DUP2 DUP9 PUSH2 0x28E5 JUMP JUMPDEST SWAP2 POP POP PUSH2 0x2B61 PUSH1 0xC0 DUP4 ADD DUP7 PUSH2 0x27D4 JUMP JUMPDEST PUSH1 0x1 PUSH1 0x1 PUSH1 0xA0 SHL SUB SWAP4 SWAP1 SWAP4 AND PUSH1 0xE0 DUP3 ADD MSTORE PUSH2 0x100 ADD MSTORE SWAP8 SWAP7 POP POP POP POP POP POP POP JUMP JUMPDEST DUP3 DUP2 MSTORE PUSH0 DUP3 MLOAD DUP1 PUSH1 0x20 DUP6 ADD PUSH1 0x20 DUP6 ADD MCOPY PUSH0 SWAP3 ADD PUSH1 0x20 ADD SWAP2 DUP3 MSTORE POP SWAP3 SWAP2 POP POP JUMP JUMPDEST PUSH1 0x1 DUP2 DUP2 SHR SWAP1 DUP3 AND DUP1 PUSH2 0x2BB6 JUMPI PUSH1 0x7F DUP3 AND SWAP2 POP JUMPDEST PUSH1 0x20 DUP3 LT DUP2 SUB PUSH2 0x2BD4 JUMPI PUSH4 0x4E487B71 PUSH1 0xE0 SHL PUSH0 MSTORE PUSH1 0x22 PUSH1 0x4 MSTORE PUSH1 0x24 PUSH0 REVERT JUMPDEST POP SWAP2 SWAP1 POP JUMP JUMPDEST PUSH1 0x1F DUP3 GT ISZERO PUSH2 0x2C21 JUMPI DUP1 PUSH0 MSTORE PUSH1 0x20 PUSH0 KECCAK256 PUSH1 0x1F DUP5 ADD PUSH1 0x5 SHR DUP2 ADD PUSH1 0x20 DUP6 LT ISZERO PUSH2 0x2BFF JUMPI POP DUP1 JUMPDEST PUSH1 0x1F DUP5 ADD PUSH1 0x5 SHR DUP3 ADD SWAP2 POP JUMPDEST DUP2 DUP2 LT ISZERO PUSH2 0x2C1E JUMPI PUSH0 DUP2 SSTORE PUSH1 0x1 ADD PUSH2 0x2C0B JUMP JUMPDEST POP POP JUMPDEST POP POP POP JUMP JUMPDEST DUP2 MLOAD PUSH8 0xFFFFFFFFFFFFFFFF DUP2 GT ISZERO PUSH2 0x2C40 JUMPI PUSH2 0x2C40 PUSH2 0x2802 JUMP JUMPDEST PUSH2 0x2C54 DUP2 PUSH2 0x2C4E DUP5 SLOAD PUSH2 0x2BA2 JUMP JUMPDEST DUP5 PUSH2 0x2BDA JUMP JUMPDEST PUSH1 0x20 PUSH1 0x1F DUP3 GT PUSH1 0x1 DUP2 EQ PUSH2 0x2C86 JUMPI PUSH0 DUP4 ISZERO PUSH2 0x2C6F JUMPI POP DUP5 DUP3 ADD MLOAD JUMPDEST PUSH0 NOT PUSH1 0x3 DUP6 SWAP1 SHL SHR NOT AND PUSH1 0x1 DUP5 SWAP1 SHL OR DUP5 SSTORE PUSH2 0x2C1E JUMP JUMPDEST PUSH0 DUP5 DUP2 MSTORE PUSH1 0x20 DUP2 KECCAK256 PUSH1 0x1F NOT DUP6 AND SWAP2 JUMPDEST DUP3 DUP2 LT ISZERO PUSH2 0x2CB5 JUMPI DUP8 DUP6 ADD MLOAD DUP3 SSTORE PUSH1 0x20 SWAP5 DUP6 ADD SWAP5 PUSH1 0x1 SWAP1 SWAP3 ADD SWAP2 ADD PUSH2 0x2C95 JUMP JUMPDEST POP DUP5 DUP3 LT ISZERO PUSH2 0x2CD2 JUMPI DUP7 DUP5 ADD MLOAD PUSH0 NOT PUSH1 0x3 DUP8 SWAP1 SHL PUSH1 0xF8 AND SHR NOT AND DUP2 SSTORE JUMPDEST POP POP POP POP PUSH1 0x1 SWAP1 DUP2 SHL ADD SWAP1 SSTORE POP JUMP JUMPDEST PUSH1 0x1 PUSH1 0x1 PUSH1 0xA0 SHL SUB DUP4 AND DUP2 MSTORE PUSH1 0x40 PUSH1 0x20 DUP3 ADD DUP2 SWAP1 MSTORE PUSH0 SWAP1 PUSH2 0x2984 SWAP1 DUP4 ADD DUP5 PUSH2 0x28E5 JUMP JUMPDEST PUSH4 0x4E487B71 PUSH1 0xE0 SHL PUSH0 MSTORE PUSH1 0x32 PUSH1 0x4 MSTORE PUSH1 0x24 PUSH0 REVERT JUMPDEST PUSH1 0x80 DUP2 MSTORE PUSH0 PUSH2 0x2D2A PUSH1 0x80 DUP4 ADD DUP8 PUSH2 0x28E5 JUMP JUMPDEST DUP3 DUP2 SUB PUSH1 0x20 DUP5 ADD MSTORE PUSH2 0x2D3C DUP2 DUP8 PUSH2 0x28E5 JUMP JUMPDEST PUSH1 0x40 DUP5 ADD SWAP6 SWAP1 SWAP6 MSTORE POP POP PUSH1 0x60 ADD MSTORE SWAP3 SWAP2 POP POP JUMP JUMPDEST PUSH4 0x4E487B71 PUSH1 0xE0 SHL PUSH0 MSTORE PUSH1 0x11 PUSH1 0x4 MSTORE PUSH1 0x24 PUSH0 REVERT JUMPDEST DUP1 DUP3 MUL DUP2 ISZERO DUP3 DUP3 DIV DUP5 EQ OR PUSH2 0xC05 JUMPI PUSH2 0xC05 PUSH2 0x2D50 JUMP JUMPDEST DUP2 DUP2 SUB DUP2 DUP2 GT ISZERO PUSH2 0xC05 JUMPI PUSH2 0xC05 PUSH2 0x2D50 JUMP JUMPDEST PUSH0 PUSH1 0x1 PUSH1 0xFF SHL DUP3 ADD PUSH2 0x2DA2 JUMPI PUSH2 0x2DA2 PUSH2 0x2D50 JUMP JUMPDEST POP PUSH0 SUB SWAP1 JUMP JUMPDEST DUP1 DUP3 ADD DUP1 DUP3 GT ISZERO PUSH2 0xC05 JUMPI PUSH2 0xC05 PUSH2 0x2D50 JUMP JUMPDEST PUSH0 PUSH2 0xFFFF DUP3 AND PUSH2 0xFFFF DUP2 SUB PUSH2 0x2DD2 JUMPI PUSH2 0x2DD2 PUSH2 0x2D50 JUMP JUMPDEST PUSH1 0x1 ADD SWAP3 SWAP2 POP POP JUMP JUMPDEST PUSH2 0xFFFF DUP3 DUP2 AND DUP3 DUP3 AND SUB SWAP1 DUP2 GT ISZERO PUSH2 0xC05 JUMPI PUSH2 0xC05 PUSH2 0x2D50 JUMP JUMPDEST PUSH0 PUSH2 0xFFFF DUP4 AND DUP1 PUSH2 0x2E14 JUMPI PUSH4 0x4E487B71 PUSH1 0xE0 SHL PUSH0 MSTORE PUSH1 0x12 PUSH1 0x4 MSTORE PUSH1 0x24 PUSH0 REVERT JUMPDEST DUP1 PUSH2 0xFFFF DUP5 AND MOD SWAP2 POP POP SWAP3 SWAP2 POP POP JUMP INVALID LOG2 PUSH5 0x6970667358 0x22 SLT KECCAK256 SWAP12 POP KECCAK256 0xD4 PUSH26 0x6FBFD6ED325C0A9EE9FEB9AC66E94C33B2CEF50D14259EBEA10B 0xD0 PUSH5 0x736F6C6343 STOP ADDMOD 0x1F STOP CALLER "
				},
				"gasEstimates": {
					"creation": {
						"codeDepositCost": "2373200",
						"executionCost": "26753",
						"totalCost": "2399953"
					},
					"external": {
						"acceptAdminRole()": "52397",
						"acceptDelivery(bytes32)": "56539",
						"admin()": "2467",
						"awardTender()": "38618",
						"bidderList(uint256)": "4655",
						"bids(address)": "9055",
						"createTenderWithLocalTime(string,string,string,uint256,uint256,uint256,uint256,uint256,int256,uint256,string)": "infinite",
						"deliveryEvidenceHash()": "2384",
						"evaluateTender()": "infinite",
						"fundContract()": "2410",
						"getBidDetails(address)": "9207",
						"getBidderCount()": "2358",
						"getContractBalance()": "326",
						"getPackedHash(uint256,string)": "infinite",
						"getTenderSummary()": "infinite",
						"inspectionReportHash()": "2361",
						"inspector()": "2446",
						"lowestBid()": "2383",
						"openRevealPhase()": "33778",
						"paymentReleased()": "2354",
						"pendingAdmin()": "2382",
						"registerBidder(address)": "82863",
						"registeredBidders(address)": "2605",
						"rejectDelivery(string)": "infinite",
						"rejectionReason()": "infinite",
						"releasePayment()": "infinite",
						"revealBid(uint256,string)": "infinite",
						"setInspector(address)": "36516",
						"status()": "2492",
						"submitDeliveryEvidence(bytes32)": "56571",
						"submitSealedBid(bytes32)": "88116",
						"tender()": "infinite",
						"transferAdmin(address)": "32537",
						"winner()": "2402"
					},
					"internal": {
						"_getDaysInMonth(uint256,uint256)": "infinite",
						"_isLeapYear(uint16)": "infinite",
						"_toTimestamp(uint256,uint256,uint256,uint256,uint256,uint256)": "infinite",
						"_toTimestampWithOffset(uint256,uint256,uint256,uint256,uint256,int256)": "infinite"
					}
				},
				"methodIdentifiers": {
					"acceptAdminRole()": "8c3d7301",
					"acceptDelivery(bytes32)": "0bd58917",
					"admin()": "f851a440",
					"awardTender()": "d0112863",
					"bidderList(uint256)": "d3584e84",
					"bids(address)": "62ea82db",
					"createTenderWithLocalTime(string,string,string,uint256,uint256,uint256,uint256,uint256,int256,uint256,string)": "905249a3",
					"deliveryEvidenceHash()": "2e9e8e59",
					"evaluateTender()": "592fd028",
					"fundContract()": "bd097e21",
					"getBidDetails(address)": "8d07ae9f",
					"getBidderCount()": "c87da02d",
					"getContractBalance()": "6f9fb98a",
					"getPackedHash(uint256,string)": "3c8c4091",
					"getTenderSummary()": "e3c608ef",
					"inspectionReportHash()": "a4a00144",
					"inspector()": "ed2cee9e",
					"lowestBid()": "b6f3d256",
					"openRevealPhase()": "0bf36767",
					"paymentReleased()": "c63735b3",
					"pendingAdmin()": "26782247",
					"registerBidder(address)": "56f17082",
					"registeredBidders(address)": "356e7ccb",
					"rejectDelivery(string)": "4c5aed38",
					"rejectionReason()": "26bd8926",
					"releasePayment()": "d116c8c4",
					"revealBid(uint256,string)": "2163b8c5",
					"setInspector(address)": "4e5cbf61",
					"status()": "200d2ed2",
					"submitDeliveryEvidence(bytes32)": "7bd2a5da",
					"submitSealedBid(bytes32)": "53321ae6",
					"tender()": "6cb55d1a",
					"transferAdmin(address)": "75829def",
					"winner()": "dfbf53ae"
				}
			},
			"storageLayout": {
				"storage": [
					{
						"astId": 4,
						"contract": ".git/MyContracts/KenyaProcurementTransparency.sol:KenyaProcurementTransparency",
						"label": "admin",
						"offset": 0,
						"slot": "0",
						"type": "t_address"
					},
					{
						"astId": 6,
						"contract": ".git/MyContracts/KenyaProcurementTransparency.sol:KenyaProcurementTransparency",
						"label": "pendingAdmin",
						"offset": 0,
						"slot": "1",
						"type": "t_address"
					},
					{
						"astId": 8,
						"contract": ".git/MyContracts/KenyaProcurementTransparency.sol:KenyaProcurementTransparency",
						"label": "inspector",
						"offset": 0,
						"slot": "2",
						"type": "t_address"
					},
					{
						"astId": 21,
						"contract": ".git/MyContracts/KenyaProcurementTransparency.sol:KenyaProcurementTransparency",
						"label": "status",
						"offset": 20,
						"slot": "2",
						"type": "t_enum(TenderStatus)18"
					},
					{
						"astId": 52,
						"contract": ".git/MyContracts/KenyaProcurementTransparency.sol:KenyaProcurementTransparency",
						"label": "tender",
						"offset": 0,
						"slot": "3",
						"type": "t_struct(Tender)37_storage"
					},
					{
						"astId": 56,
						"contract": ".git/MyContracts/KenyaProcurementTransparency.sol:KenyaProcurementTransparency",
						"label": "registeredBidders",
						"offset": 0,
						"slot": "10",
						"type": "t_mapping(t_address,t_bool)"
					},
					{
						"astId": 61,
						"contract": ".git/MyContracts/KenyaProcurementTransparency.sol:KenyaProcurementTransparency",
						"label": "bids",
						"offset": 0,
						"slot": "11",
						"type": "t_mapping(t_address,t_struct(Bid)49_storage)"
					},
					{
						"astId": 64,
						"contract": ".git/MyContracts/KenyaProcurementTransparency.sol:KenyaProcurementTransparency",
						"label": "bidderList",
						"offset": 0,
						"slot": "12",
						"type": "t_array(t_address)dyn_storage"
					},
					{
						"astId": 66,
						"contract": ".git/MyContracts/KenyaProcurementTransparency.sol:KenyaProcurementTransparency",
						"label": "winner",
						"offset": 0,
						"slot": "13",
						"type": "t_address"
					},
					{
						"astId": 68,
						"contract": ".git/MyContracts/KenyaProcurementTransparency.sol:KenyaProcurementTransparency",
						"label": "lowestBid",
						"offset": 0,
						"slot": "14",
						"type": "t_uint256"
					},
					{
						"astId": 70,
						"contract": ".git/MyContracts/KenyaProcurementTransparency.sol:KenyaProcurementTransparency",
						"label": "deliveryEvidenceHash",
						"offset": 0,
						"slot": "15",
						"type": "t_bytes32"
					},
					{
						"astId": 72,
						"contract": ".git/MyContracts/KenyaProcurementTransparency.sol:KenyaProcurementTransparency",
						"label": "inspectionReportHash",
						"offset": 0,
						"slot": "16",
						"type": "t_bytes32"
					},
					{
						"astId": 74,
						"contract": ".git/MyContracts/KenyaProcurementTransparency.sol:KenyaProcurementTransparency",
						"label": "rejectionReason",
						"offset": 0,
						"slot": "17",
						"type": "t_string_storage"
					},
					{
						"astId": 76,
						"contract": ".git/MyContracts/KenyaProcurementTransparency.sol:KenyaProcurementTransparency",
						"label": "paymentReleased",
						"offset": 0,
						"slot": "18",
						"type": "t_bool"
					}
				],
				"types": {
					"t_address": {
						"encoding": "inplace",
						"label": "address",
						"numberOfBytes": "20"
					},
					"t_array(t_address)dyn_storage": {
						"base": "t_address",
						"encoding": "dynamic_array",
						"label": "address[]",
						"numberOfBytes": "32"
					},
					"t_bool": {
						"encoding": "inplace",
						"label": "bool",
						"numberOfBytes": "1"
					},
					"t_bytes32": {
						"encoding": "inplace",
						"label": "bytes32",
						"numberOfBytes": "32"
					},
					"t_enum(TenderStatus)18": {
						"encoding": "inplace",
						"label": "enum KenyaProcurementTransparency.TenderStatus",
						"numberOfBytes": "1"
					},
					"t_mapping(t_address,t_bool)": {
						"encoding": "mapping",
						"key": "t_address",
						"label": "mapping(address => bool)",
						"numberOfBytes": "32",
						"value": "t_bool"
					},
					"t_mapping(t_address,t_struct(Bid)49_storage)": {
						"encoding": "mapping",
						"key": "t_address",
						"label": "mapping(address => struct KenyaProcurementTransparency.Bid)",
						"numberOfBytes": "32",
						"value": "t_struct(Bid)49_storage"
					},
					"t_string_storage": {
						"encoding": "bytes",
						"label": "string",
						"numberOfBytes": "32"
					},
					"t_struct(Bid)49_storage": {
						"encoding": "inplace",
						"label": "struct KenyaProcurementTransparency.Bid",
						"members": [
							{
								"astId": 40,
								"contract": ".git/MyContracts/KenyaProcurementTransparency.sol:KenyaProcurementTransparency",
								"label": "sealedBidHash",
								"offset": 0,
								"slot": "0",
								"type": "t_bytes32"
							},
							{
								"astId": 42,
								"contract": ".git/MyContracts/KenyaProcurementTransparency.sol:KenyaProcurementTransparency",
								"label": "submitted",
								"offset": 0,
								"slot": "1",
								"type": "t_bool"
							},
							{
								"astId": 44,
								"contract": ".git/MyContracts/KenyaProcurementTransparency.sol:KenyaProcurementTransparency",
								"label": "revealed",
								"offset": 1,
								"slot": "1",
								"type": "t_bool"
							},
							{
								"astId": 46,
								"contract": ".git/MyContracts/KenyaProcurementTransparency.sol:KenyaProcurementTransparency",
								"label": "amount",
								"offset": 0,
								"slot": "2",
								"type": "t_uint256"
							},
							{
								"astId": 48,
								"contract": ".git/MyContracts/KenyaProcurementTransparency.sol:KenyaProcurementTransparency",
								"label": "valid",
								"offset": 0,
								"slot": "3",
								"type": "t_bool"
							}
						],
						"numberOfBytes": "128"
					},
					"t_struct(Tender)37_storage": {
						"encoding": "inplace",
						"label": "struct KenyaProcurementTransparency.Tender",
						"members": [
							{
								"astId": 24,
								"contract": ".git/MyContracts/KenyaProcurementTransparency.sol:KenyaProcurementTransparency",
								"label": "tenderNumber",
								"offset": 0,
								"slot": "0",
								"type": "t_string_storage"
							},
							{
								"astId": 26,
								"contract": ".git/MyContracts/KenyaProcurementTransparency.sol:KenyaProcurementTransparency",
								"label": "title",
								"offset": 0,
								"slot": "1",
								"type": "t_string_storage"
							},
							{
								"astId": 28,
								"contract": ".git/MyContracts/KenyaProcurementTransparency.sol:KenyaProcurementTransparency",
								"label": "description",
								"offset": 0,
								"slot": "2",
								"type": "t_string_storage"
							},
							{
								"astId": 30,
								"contract": ".git/MyContracts/KenyaProcurementTransparency.sol:KenyaProcurementTransparency",
								"label": "submissionDeadline",
								"offset": 0,
								"slot": "3",
								"type": "t_uint256"
							},
							{
								"astId": 32,
								"contract": ".git/MyContracts/KenyaProcurementTransparency.sol:KenyaProcurementTransparency",
								"label": "contractAmount",
								"offset": 0,
								"slot": "4",
								"type": "t_uint256"
							},
							{
								"astId": 34,
								"contract": ".git/MyContracts/KenyaProcurementTransparency.sol:KenyaProcurementTransparency",
								"label": "qualificationNote",
								"offset": 0,
								"slot": "5",
								"type": "t_string_storage"
							},
							{
								"astId": 36,
								"contract": ".git/MyContracts/KenyaProcurementTransparency.sol:KenyaProcurementTransparency",
								"label": "exists",
								"offset": 0,
								"slot": "6",
								"type": "t_bool"
							}
						],
						"numberOfBytes": "224"
					},
					"t_uint256": {
						"encoding": "inplace",
						"label": "uint256",
						"numberOfBytes": "32"
					}
				}
			},
			"userdoc": {
				"kind": "user",
				"methods": {
					"acceptAdminRole()": {
						"notice": "Accepts the pending admin role."
					},
					"acceptDelivery(bytes32)": {
						"notice": "Accepts delivery after successful inspection."
					},
					"awardTender()": {
						"notice": "Finalizes the winning bidder after evaluation."
					},
					"constructor": {
						"notice": "Sets the deployer as the initial admin."
					},
					"createTenderWithLocalTime(string,string,string,uint256,uint256,uint256,uint256,uint256,int256,uint256,string)": {
						"notice": "Creates the tender using local date, time, and UTC offset."
					},
					"evaluateTender()": {
						"notice": "Evaluates all valid revealed bids and selects the lowest bid."
					},
					"fundContract()": {
						"notice": "Allows the admin to fund the contract with ETH for later payment."
					},
					"getBidDetails(address)": {
						"notice": "Returns bid details for a given bidder address."
					},
					"getBidderCount()": {
						"notice": "Returns the number of registered bidders."
					},
					"getContractBalance()": {
						"notice": "Returns the ETH balance currently held by the contract."
					},
					"getPackedHash(uint256,string)": {
						"notice": "Returns the packed hash of a bid amount and secret."
					},
					"getTenderSummary()": {
						"notice": "Returns a summary of the current tender and award state."
					},
					"openRevealPhase()": {
						"notice": "Opens the reveal phase after the submission deadline."
					},
					"registerBidder(address)": {
						"notice": "Registers a bidder address on the on-chain whitelist."
					},
					"rejectDelivery(string)": {
						"notice": "Rejects delivery and records the reason."
					},
					"releasePayment()": {
						"notice": "Releases payment to the winning bidder after inspection acceptance."
					},
					"revealBid(uint256,string)": {
						"notice": "Reveals a previously committed bid."
					},
					"setInspector(address)": {
						"notice": "Assigns or updates the inspector address."
					},
					"submitDeliveryEvidence(bytes32)": {
						"notice": "Allows only the winner to submit delivery evidence."
					},
					"submitSealedBid(bytes32)": {
						"notice": "Allows a registered bidder to submit a sealed bid hash."
					},
					"transferAdmin(address)": {
						"notice": "Initiates transfer of admin authority to a new address."
					}
				},
				"notice": "A blockchain-based public procurement prototype for transparent tendering, delivery verification, inspection, and conditional payment.",
				"version": 1
			}
		}
	}
}