{
	".git/MyContracts/TimeHelper.sol": {
		"TimezoneHelper": {
			"abi": [
				{
					"inputs": [
						{
							"internalType": "uint256",
							"name": "year",
							"type": "uint256"
						},
						{
							"internalType": "uint256",
							"name": "month",
							"type": "uint256"
						},
						{
							"internalType": "uint256",
							"name": "day",
							"type": "uint256"
						},
						{
							"internalType": "uint256",
							"name": "hour",
							"type": "uint256"
						},
						{
							"internalType": "uint256",
							"name": "minute",
							"type": "uint256"
						},
						{
							"internalType": "int256",
							"name": "utcOffsetHours",
							"type": "int256"
						}
					],
					"name": "toTimestampWithOffset",
					"outputs": [
						{
							"internalType": "uint256",
							"name": "",
							"type": "uint256"
						}
					],
					"stateMutability": "pure",
					"type": "function"
				}
			],
			"devdoc": {
				"kind": "dev",
				"methods": {},
				"version": 1
			},
			"evm": {
				"assembly": "    /* \".git/MyContracts/TimeHelper.sol\":61:2754  contract TimezoneHelper {... */\n  mstore(0x40, 0x80)\n  callvalue\n  dup1\n  iszero\n  tag_1\n  jumpi\n  revert(0x00, 0x00)\ntag_1:\n  pop\n  dataSize(sub_0)\n  dup1\n  dataOffset(sub_0)\n  0x00\n  codecopy\n  0x00\n  return\nstop\n\nsub_0: assembly {\n        /* \".git/MyContracts/TimeHelper.sol\":61:2754  contract TimezoneHelper {... */\n      mstore(0x40, 0x80)\n      callvalue\n      dup1\n      iszero\n      tag_1\n      jumpi\n      revert(0x00, 0x00)\n    tag_1:\n      pop\n      jumpi(tag_2, lt(calldatasize, 0x04))\n      shr(0xe0, calldataload(0x00))\n      dup1\n      0x0719f811\n      eq\n      tag_3\n      jumpi\n    tag_2:\n      revert(0x00, 0x00)\n        /* \".git/MyContracts/TimeHelper.sol\":94:1206  function toTimestampWithOffset(... */\n    tag_3:\n      tag_4\n      tag_5\n      calldatasize\n      0x04\n      tag_6\n      jump\t// in\n    tag_5:\n      tag_7\n      jump\t// in\n    tag_4:\n      mload(0x40)\n        /* \"#utility.yul\":941:966   */\n      swap1\n      dup2\n      mstore\n        /* \"#utility.yul\":929:931   */\n      0x20\n        /* \"#utility.yul\":914:932   */\n      add\n        /* \".git/MyContracts/TimeHelper.sol\":94:1206  function toTimestampWithOffset(... */\n      mload(0x40)\n      dup1\n      swap2\n      sub\n      swap1\n      return\n    tag_7:\n        /* \".git/MyContracts/TimeHelper.sol\":321:328  uint256 */\n      0x00\n        /* \".git/MyContracts/TimeHelper.sol\":390:394  1970 */\n      0x07b2\n        /* \".git/MyContracts/TimeHelper.sol\":382:386  year */\n      dup8\n        /* \".git/MyContracts/TimeHelper.sol\":382:394  year >= 1970 */\n      lt\n      iszero\n        /* \".git/MyContracts/TimeHelper.sol\":382:410  year >= 1970 && year <= 2100 */\n      dup1\n      iszero\n      tag_11\n      jumpi\n      pop\n        /* \".git/MyContracts/TimeHelper.sol\":406:410  2100 */\n      0x0834\n        /* \".git/MyContracts/TimeHelper.sol\":398:402  year */\n      dup8\n        /* \".git/MyContracts/TimeHelper.sol\":398:410  year <= 2100 */\n      gt\n      iszero\n        /* \".git/MyContracts/TimeHelper.sol\":382:410  year >= 1970 && year <= 2100 */\n    tag_11:\n        /* \".git/MyContracts/TimeHelper.sol\":374:427  require(year >= 1970 && year <= 2100, \"Invalid year\") */\n      tag_12\n      jumpi\n      mload(0x40)\n      shl(0xe5, 0x461bcd)\n      dup2\n      mstore\n        /* \"#utility.yul\":1179:1181   */\n      0x20\n        /* \".git/MyContracts/TimeHelper.sol\":374:427  require(year >= 1970 && year <= 2100, \"Invalid year\") */\n      0x04\n      dup3\n      add\n        /* \"#utility.yul\":1161:1182   */\n      mstore\n        /* \"#utility.yul\":1218:1220   */\n      0x0c\n        /* \"#utility.yul\":1198:1216   */\n      0x24\n      dup3\n      add\n        /* \"#utility.yul\":1191:1221   */\n      mstore\n      shl(0xa1, 0x24b73b30b634b2103cb2b0b9)\n        /* \"#utility.yul\":1237:1255   */\n      0x44\n      dup3\n      add\n        /* \"#utility.yul\":1230:1272   */\n      mstore\n        /* \"#utility.yul\":1289:1307   */\n      0x64\n      add\n        /* \".git/MyContracts/TimeHelper.sol\":374:427  require(year >= 1970 && year <= 2100, \"Invalid year\") */\n    tag_13:\n      mload(0x40)\n      dup1\n      swap2\n      sub\n      swap1\n      revert\n    tag_12:\n        /* \".git/MyContracts/TimeHelper.sol\":455:456  1 */\n      0x01\n        /* \".git/MyContracts/TimeHelper.sol\":446:451  month */\n      dup7\n        /* \".git/MyContracts/TimeHelper.sol\":446:456  month >= 1 */\n      lt\n      iszero\n        /* \".git/MyContracts/TimeHelper.sol\":446:471  month >= 1 && month <= 12 */\n      dup1\n      iszero\n      tag_15\n      jumpi\n      pop\n        /* \".git/MyContracts/TimeHelper.sol\":469:471  12 */\n      0x0c\n        /* \".git/MyContracts/TimeHelper.sol\":460:465  month */\n      dup7\n        /* \".git/MyContracts/TimeHelper.sol\":460:471  month <= 12 */\n      gt\n      iszero\n        /* \".git/MyContracts/TimeHelper.sol\":446:471  month >= 1 && month <= 12 */\n    tag_15:\n        /* \".git/MyContracts/TimeHelper.sol\":438:489  require(month >= 1 && month <= 12, \"Invalid month\") */\n      tag_16\n      jumpi\n      mload(0x40)\n      shl(0xe5, 0x461bcd)\n      dup2\n      mstore\n        /* \"#utility.yul\":1520:1522   */\n      0x20\n        /* \".git/MyContracts/TimeHelper.sol\":438:489  require(month >= 1 && month <= 12, \"Invalid month\") */\n      0x04\n      dup3\n      add\n        /* \"#utility.yul\":1502:1523   */\n      mstore\n        /* \"#utility.yul\":1559:1561   */\n      0x0d\n        /* \"#utility.yul\":1539:1557   */\n      0x24\n      dup3\n      add\n        /* \"#utility.yul\":1532:1562   */\n      mstore\n      shl(0x9b, 0x092dcecc2d8d2c840dadedce8d)\n        /* \"#utility.yul\":1578:1596   */\n      0x44\n      dup3\n      add\n        /* \"#utility.yul\":1571:1614   */\n      mstore\n        /* \"#utility.yul\":1631:1649   */\n      0x64\n      add\n        /* \".git/MyContracts/TimeHelper.sol\":438:489  require(month >= 1 && month <= 12, \"Invalid month\") */\n      tag_13\n        /* \"#utility.yul\":1318:1655   */\n      jump\n        /* \".git/MyContracts/TimeHelper.sol\":438:489  require(month >= 1 && month <= 12, \"Invalid month\") */\n    tag_16:\n        /* \".git/MyContracts/TimeHelper.sol\":515:517  24 */\n      0x18\n        /* \".git/MyContracts/TimeHelper.sol\":508:512  hour */\n      dup5\n        /* \".git/MyContracts/TimeHelper.sol\":508:517  hour < 24 */\n      lt\n        /* \".git/MyContracts/TimeHelper.sol\":500:534  require(hour < 24, \"Invalid hour\") */\n      tag_19\n      jumpi\n      mload(0x40)\n      shl(0xe5, 0x461bcd)\n      dup2\n      mstore\n        /* \"#utility.yul\":1862:1864   */\n      0x20\n        /* \".git/MyContracts/TimeHelper.sol\":500:534  require(hour < 24, \"Invalid hour\") */\n      0x04\n      dup3\n      add\n        /* \"#utility.yul\":1844:1865   */\n      mstore\n        /* \"#utility.yul\":1901:1903   */\n      0x0c\n        /* \"#utility.yul\":1881:1899   */\n      0x24\n      dup3\n      add\n        /* \"#utility.yul\":1874:1904   */\n      mstore\n      shl(0xa1, 0x24b73b30b634b2103437bab9)\n        /* \"#utility.yul\":1920:1938   */\n      0x44\n      dup3\n      add\n        /* \"#utility.yul\":1913:1955   */\n      mstore\n        /* \"#utility.yul\":1972:1990   */\n      0x64\n      add\n        /* \".git/MyContracts/TimeHelper.sol\":500:534  require(hour < 24, \"Invalid hour\") */\n      tag_13\n        /* \"#utility.yul\":1660:1996   */\n      jump\n        /* \".git/MyContracts/TimeHelper.sol\":500:534  require(hour < 24, \"Invalid hour\") */\n    tag_19:\n        /* \".git/MyContracts/TimeHelper.sol\":562:564  60 */\n      0x3c\n        /* \".git/MyContracts/TimeHelper.sol\":553:559  minute */\n      dup4\n        /* \".git/MyContracts/TimeHelper.sol\":553:564  minute < 60 */\n      lt\n        /* \".git/MyContracts/TimeHelper.sol\":545:583  require(minute < 60, \"Invalid minute\") */\n      tag_22\n      jumpi\n      mload(0x40)\n      shl(0xe5, 0x461bcd)\n      dup2\n      mstore\n        /* \"#utility.yul\":2203:2205   */\n      0x20\n        /* \".git/MyContracts/TimeHelper.sol\":545:583  require(minute < 60, \"Invalid minute\") */\n      0x04\n      dup3\n      add\n        /* \"#utility.yul\":2185:2206   */\n      mstore\n        /* \"#utility.yul\":2242:2244   */\n      0x0e\n        /* \"#utility.yul\":2222:2240   */\n      0x24\n      dup3\n      add\n        /* \"#utility.yul\":2215:2245   */\n      mstore\n      shl(0x90, 0x496e76616c6964206d696e757465)\n        /* \"#utility.yul\":2261:2279   */\n      0x44\n      dup3\n      add\n        /* \"#utility.yul\":2254:2298   */\n      mstore\n        /* \"#utility.yul\":2315:2333   */\n      0x64\n      add\n        /* \".git/MyContracts/TimeHelper.sol\":545:583  require(minute < 60, \"Invalid minute\") */\n      tag_13\n        /* \"#utility.yul\":2001:2339   */\n      jump\n        /* \".git/MyContracts/TimeHelper.sol\":545:583  require(minute < 60, \"Invalid minute\") */\n    tag_22:\n      not(0x0b)\n        /* \".git/MyContracts/TimeHelper.sol\":602:616  utcOffsetHours */\n      dup3\n        /* \".git/MyContracts/TimeHelper.sol\":602:623  utcOffsetHours >= -12 */\n      slt\n      iszero\n        /* \".git/MyContracts/TimeHelper.sol\":602:647  utcOffsetHours >= -12 && utcOffsetHours <= 14 */\n      dup1\n      iszero\n      tag_25\n      jumpi\n      pop\n        /* \".git/MyContracts/TimeHelper.sol\":645:647  14 */\n      0x0e\n        /* \".git/MyContracts/TimeHelper.sol\":627:641  utcOffsetHours */\n      dup3\n        /* \".git/MyContracts/TimeHelper.sol\":627:647  utcOffsetHours <= 14 */\n      sgt\n      iszero\n        /* \".git/MyContracts/TimeHelper.sol\":602:647  utcOffsetHours >= -12 && utcOffsetHours <= 14 */\n    tag_25:\n        /* \".git/MyContracts/TimeHelper.sol\":594:670  require(utcOffsetHours >= -12 && utcOffsetHours <= 14, \"Invalid UTC offset\") */\n      tag_26\n      jumpi\n      mload(0x40)\n      shl(0xe5, 0x461bcd)\n      dup2\n      mstore\n        /* \"#utility.yul\":2546:2548   */\n      0x20\n        /* \".git/MyContracts/TimeHelper.sol\":594:670  require(utcOffsetHours >= -12 && utcOffsetHours <= 14, \"Invalid UTC offset\") */\n      0x04\n      dup3\n      add\n        /* \"#utility.yul\":2528:2549   */\n      mstore\n        /* \"#utility.yul\":2585:2587   */\n      0x12\n        /* \"#utility.yul\":2565:2583   */\n      0x24\n      dup3\n      add\n        /* \"#utility.yul\":2558:2588   */\n      mstore\n      shl(0x72, 0x125b9d985b1a5908155510c81bd9999cd95d)\n        /* \"#utility.yul\":2604:2622   */\n      0x44\n      dup3\n      add\n        /* \"#utility.yul\":2597:2645   */\n      mstore\n        /* \"#utility.yul\":2662:2680   */\n      0x64\n      add\n        /* \".git/MyContracts/TimeHelper.sol\":594:670  require(utcOffsetHours >= -12 && utcOffsetHours <= 14, \"Invalid UTC offset\") */\n      tag_13\n        /* \"#utility.yul\":2344:2686   */\n      jump\n        /* \".git/MyContracts/TimeHelper.sol\":594:670  require(utcOffsetHours >= -12 && utcOffsetHours <= 14, \"Invalid UTC offset\") */\n    tag_26:\n        /* \".git/MyContracts/TimeHelper.sol\":683:702  uint256 daysInMonth */\n      0x00\n        /* \".git/MyContracts/TimeHelper.sol\":705:733  _getDaysInMonth(year, month) */\n      tag_29\n        /* \".git/MyContracts/TimeHelper.sol\":721:725  year */\n      dup9\n        /* \".git/MyContracts/TimeHelper.sol\":727:732  month */\n      dup9\n        /* \".git/MyContracts/TimeHelper.sol\":705:720  _getDaysInMonth */\n      tag_30\n        /* \".git/MyContracts/TimeHelper.sol\":705:733  _getDaysInMonth(year, month) */\n      jump\t// in\n    tag_29:\n        /* \".git/MyContracts/TimeHelper.sol\":683:733  uint256 daysInMonth = _getDaysInMonth(year, month) */\n      swap1\n      pop\n        /* \".git/MyContracts/TimeHelper.sol\":759:760  1 */\n      0x01\n        /* \".git/MyContracts/TimeHelper.sol\":752:755  day */\n      dup7\n        /* \".git/MyContracts/TimeHelper.sol\":752:760  day >= 1 */\n      lt\n      iszero\n        /* \".git/MyContracts/TimeHelper.sol\":752:782  day >= 1 && day <= daysInMonth */\n      dup1\n      iszero\n      tag_31\n      jumpi\n      pop\n        /* \".git/MyContracts/TimeHelper.sol\":771:782  daysInMonth */\n      dup1\n        /* \".git/MyContracts/TimeHelper.sol\":764:767  day */\n      dup7\n        /* \".git/MyContracts/TimeHelper.sol\":764:782  day <= daysInMonth */\n      gt\n      iszero\n        /* \".git/MyContracts/TimeHelper.sol\":752:782  day >= 1 && day <= daysInMonth */\n    tag_31:\n        /* \".git/MyContracts/TimeHelper.sol\":744:798  require(day >= 1 && day <= daysInMonth, \"Invalid day\") */\n      tag_32\n      jumpi\n      mload(0x40)\n      shl(0xe5, 0x461bcd)\n      dup2\n      mstore\n        /* \"#utility.yul\":2893:2895   */\n      0x20\n        /* \".git/MyContracts/TimeHelper.sol\":744:798  require(day >= 1 && day <= daysInMonth, \"Invalid day\") */\n      0x04\n      dup3\n      add\n        /* \"#utility.yul\":2875:2896   */\n      mstore\n        /* \"#utility.yul\":2932:2934   */\n      0x0b\n        /* \"#utility.yul\":2912:2930   */\n      0x24\n      dup3\n      add\n        /* \"#utility.yul\":2905:2935   */\n      mstore\n      shl(0xa8, 0x496e76616c696420646179)\n        /* \"#utility.yul\":2951:2969   */\n      0x44\n      dup3\n      add\n        /* \"#utility.yul\":2944:2985   */\n      mstore\n        /* \"#utility.yul\":3002:3020   */\n      0x64\n      add\n        /* \".git/MyContracts/TimeHelper.sol\":744:798  require(day >= 1 && day <= daysInMonth, \"Invalid day\") */\n      tag_13\n        /* \"#utility.yul\":2691:3026   */\n      jump\n        /* \".git/MyContracts/TimeHelper.sol\":744:798  require(day >= 1 && day <= daysInMonth, \"Invalid day\") */\n    tag_32:\n        /* \".git/MyContracts/TimeHelper.sol\":842:859  uint256 timestamp */\n      0x00\n        /* \".git/MyContracts/TimeHelper.sol\":862:909  _toTimestamp(year, month, day, hour, minute, 0) */\n      tag_35\n        /* \".git/MyContracts/TimeHelper.sol\":875:879  year */\n      dup10\n        /* \".git/MyContracts/TimeHelper.sol\":881:886  month */\n      dup10\n        /* \".git/MyContracts/TimeHelper.sol\":888:891  day */\n      dup10\n        /* \".git/MyContracts/TimeHelper.sol\":893:897  hour */\n      dup10\n        /* \".git/MyContracts/TimeHelper.sol\":899:905  minute */\n      dup10\n        /* \".git/MyContracts/TimeHelper.sol\":907:908  0 */\n      0x00\n        /* \".git/MyContracts/TimeHelper.sol\":862:874  _toTimestamp */\n      tag_36\n        /* \".git/MyContracts/TimeHelper.sol\":862:909  _toTimestamp(year, month, day, hour, minute, 0) */\n      jump\t// in\n    tag_35:\n        /* \".git/MyContracts/TimeHelper.sol\":842:909  uint256 timestamp = _toTimestamp(year, month, day, hour, minute, 0) */\n      swap1\n      pop\n        /* \".git/MyContracts/TimeHelper.sol\":990:991  0 */\n      0x00\n        /* \".git/MyContracts/TimeHelper.sol\":973:987  utcOffsetHours */\n      dup5\n        /* \".git/MyContracts/TimeHelper.sol\":973:991  utcOffsetHours > 0 */\n      sgt\n        /* \".git/MyContracts/TimeHelper.sol\":969:1170  if (utcOffsetHours > 0) {... */\n      iszero\n      tag_37\n      jumpi\n        /* \".git/MyContracts/TimeHelper.sol\":1021:1054  uint256(utcOffsetHours) * 1 hours */\n      tag_38\n        /* \".git/MyContracts/TimeHelper.sol\":1029:1043  utcOffsetHours */\n      dup5\n        /* \".git/MyContracts/TimeHelper.sol\":1047:1054  1 hours */\n      0x0e10\n        /* \".git/MyContracts/TimeHelper.sol\":1021:1054  uint256(utcOffsetHours) * 1 hours */\n      tag_39\n      jump\t// in\n    tag_38:\n        /* \".git/MyContracts/TimeHelper.sol\":1008:1054  timestamp -= uint256(utcOffsetHours) * 1 hours */\n      tag_40\n      swap1\n      dup3\n      tag_41\n      jump\t// in\n    tag_40:\n      swap1\n      pop\n        /* \".git/MyContracts/TimeHelper.sol\":969:1170  if (utcOffsetHours > 0) {... */\n      jump(tag_43)\n    tag_37:\n        /* \".git/MyContracts/TimeHelper.sol\":1093:1094  0 */\n      0x00\n        /* \".git/MyContracts/TimeHelper.sol\":1076:1090  utcOffsetHours */\n      dup5\n        /* \".git/MyContracts/TimeHelper.sol\":1076:1094  utcOffsetHours < 0 */\n      slt\n        /* \".git/MyContracts/TimeHelper.sol\":1072:1170  if (utcOffsetHours < 0) {... */\n      iszero\n      tag_43\n      jumpi\n        /* \".git/MyContracts/TimeHelper.sol\":1132:1147  -utcOffsetHours */\n      tag_44\n        /* \".git/MyContracts/TimeHelper.sol\":1133:1147  utcOffsetHours */\n      dup5\n        /* \".git/MyContracts/TimeHelper.sol\":1132:1147  -utcOffsetHours */\n      tag_45\n      jump\t// in\n    tag_44:\n        /* \".git/MyContracts/TimeHelper.sol\":1124:1158  uint256(-utcOffsetHours) * 1 hours */\n      tag_46\n      swap1\n        /* \".git/MyContracts/TimeHelper.sol\":1151:1158  1 hours */\n      0x0e10\n        /* \".git/MyContracts/TimeHelper.sol\":1124:1158  uint256(-utcOffsetHours) * 1 hours */\n      tag_39\n      jump\t// in\n    tag_46:\n        /* \".git/MyContracts/TimeHelper.sol\":1111:1158  timestamp += uint256(-utcOffsetHours) * 1 hours */\n      tag_47\n      swap1\n      dup3\n      tag_48\n      jump\t// in\n    tag_47:\n      swap1\n      pop\n        /* \".git/MyContracts/TimeHelper.sol\":1072:1170  if (utcOffsetHours < 0) {... */\n    tag_43:\n        /* \".git/MyContracts/TimeHelper.sol\":1189:1198  timestamp */\n      swap9\n        /* \".git/MyContracts/TimeHelper.sol\":94:1206  function toTimestampWithOffset(... */\n      swap8\n      pop\n      pop\n      pop\n      pop\n      pop\n      pop\n      pop\n      pop\n      jump\t// out\n        /* \".git/MyContracts/TimeHelper.sol\":2165:2521  function _getDaysInMonth(uint256 year, uint256 month) internal pure returns (uint256) {... */\n    tag_30:\n        /* \".git/MyContracts/TimeHelper.sol\":2242:2249  uint256 */\n      0x00\n        /* \".git/MyContracts/TimeHelper.sol\":2266:2271  month */\n      dup2\n        /* \".git/MyContracts/TimeHelper.sol\":2275:2276  2 */\n      0x02\n        /* \".git/MyContracts/TimeHelper.sol\":2266:2276  month == 2 */\n      sub\n        /* \".git/MyContracts/TimeHelper.sol\":2262:2514  if (month == 2) {... */\n      tag_50\n      jumpi\n        /* \".git/MyContracts/TimeHelper.sol\":2300:2325  _isLeapYear(uint16(year)) */\n      tag_51\n        /* \".git/MyContracts/TimeHelper.sol\":2319:2323  year */\n      dup4\n        /* \".git/MyContracts/TimeHelper.sol\":2300:2311  _isLeapYear */\n      tag_52\n        /* \".git/MyContracts/TimeHelper.sol\":2300:2325  _isLeapYear(uint16(year)) */\n      jump\t// in\n    tag_51:\n        /* \".git/MyContracts/TimeHelper.sol\":2300:2335  _isLeapYear(uint16(year)) ? 29 : 28 */\n      tag_53\n      jumpi\n        /* \".git/MyContracts/TimeHelper.sol\":2333:2335  28 */\n      0x1c\n        /* \".git/MyContracts/TimeHelper.sol\":2300:2335  _isLeapYear(uint16(year)) ? 29 : 28 */\n      jump(tag_54)\n    tag_53:\n        /* \".git/MyContracts/TimeHelper.sol\":2328:2330  29 */\n      0x1d\n        /* \".git/MyContracts/TimeHelper.sol\":2300:2335  _isLeapYear(uint16(year)) ? 29 : 28 */\n    tag_54:\n        /* \".git/MyContracts/TimeHelper.sol\":2293:2335  return _isLeapYear(uint16(year)) ? 29 : 28 */\n      0xff\n      and\n      swap1\n      pop\n      jump(tag_60)\n        /* \".git/MyContracts/TimeHelper.sol\":2262:2514  if (month == 2) {... */\n    tag_50:\n        /* \".git/MyContracts/TimeHelper.sol\":2371:2376  month */\n      dup2\n        /* \".git/MyContracts/TimeHelper.sol\":2380:2381  4 */\n      0x04\n        /* \".git/MyContracts/TimeHelper.sol\":2371:2381  month == 4 */\n      eq\n        /* \".git/MyContracts/TimeHelper.sol\":2371:2395  month == 4 || month == 6 */\n      dup1\n      tag_56\n      jumpi\n      pop\n        /* \".git/MyContracts/TimeHelper.sol\":2385:2390  month */\n      dup2\n        /* \".git/MyContracts/TimeHelper.sol\":2394:2395  6 */\n      0x06\n        /* \".git/MyContracts/TimeHelper.sol\":2385:2395  month == 6 */\n      eq\n        /* \".git/MyContracts/TimeHelper.sol\":2371:2395  month == 4 || month == 6 */\n    tag_56:\n        /* \".git/MyContracts/TimeHelper.sol\":2371:2409  month == 4 || month == 6 || month == 9 */\n      dup1\n      tag_57\n      jumpi\n      pop\n        /* \".git/MyContracts/TimeHelper.sol\":2399:2404  month */\n      dup2\n        /* \".git/MyContracts/TimeHelper.sol\":2408:2409  9 */\n      0x09\n        /* \".git/MyContracts/TimeHelper.sol\":2399:2409  month == 9 */\n      eq\n        /* \".git/MyContracts/TimeHelper.sol\":2371:2409  month == 4 || month == 6 || month == 9 */\n    tag_57:\n        /* \".git/MyContracts/TimeHelper.sol\":2371:2424  month == 4 || month == 6 || month == 9 || month == 11 */\n      dup1\n      tag_58\n      jumpi\n      pop\n        /* \".git/MyContracts/TimeHelper.sol\":2413:2418  month */\n      dup2\n        /* \".git/MyContracts/TimeHelper.sol\":2422:2424  11 */\n      0x0b\n        /* \".git/MyContracts/TimeHelper.sol\":2413:2424  month == 11 */\n      eq\n        /* \".git/MyContracts/TimeHelper.sol\":2371:2424  month == 4 || month == 6 || month == 9 || month == 11 */\n    tag_58:\n        /* \".git/MyContracts/TimeHelper.sol\":2353:2514  if (... */\n      iszero\n      tag_59\n      jumpi\n      pop\n        /* \".git/MyContracts/TimeHelper.sol\":2458:2460  30 */\n      0x1e\n        /* \".git/MyContracts/TimeHelper.sol\":2451:2460  return 30 */\n      jump(tag_60)\n        /* \".git/MyContracts/TimeHelper.sol\":2353:2514  if (... */\n    tag_59:\n      pop\n        /* \".git/MyContracts/TimeHelper.sol\":2500:2502  31 */\n      0x1f\n        /* \".git/MyContracts/TimeHelper.sol\":2353:2514  if (... */\n    tag_60:\n        /* \".git/MyContracts/TimeHelper.sol\":2165:2521  function _getDaysInMonth(uint256 year, uint256 month) internal pure returns (uint256) {... */\n      swap3\n      swap2\n      pop\n      pop\n      jump\t// out\n        /* \".git/MyContracts/TimeHelper.sol\":1214:2157  function _toTimestamp(... */\n    tag_36:\n        /* \".git/MyContracts/TimeHelper.sol\":1408:1425  uint256 timestamp */\n      0x00\n        /* \".git/MyContracts/TimeHelper.sol\":1488:1492  1970 */\n      0x07b2\n        /* \".git/MyContracts/TimeHelper.sol\":1479:1618  for (i = 1970; i < year; i++) {... */\n    tag_62:\n        /* \".git/MyContracts/TimeHelper.sol\":1498:1502  year */\n      dup8\n        /* \".git/MyContracts/TimeHelper.sol\":1494:1495  i */\n      dup2\n        /* \".git/MyContracts/TimeHelper.sol\":1494:1502  i < year */\n      0xffff\n      and\n      lt\n        /* \".git/MyContracts/TimeHelper.sol\":1479:1618  for (i = 1970; i < year; i++) {... */\n      iszero\n      tag_63\n      jumpi\n        /* \".git/MyContracts/TimeHelper.sol\":1528:1542  _isLeapYear(i) */\n      tag_65\n        /* \".git/MyContracts/TimeHelper.sol\":1540:1541  i */\n      dup2\n        /* \".git/MyContracts/TimeHelper.sol\":1528:1539  _isLeapYear */\n      tag_52\n        /* \".git/MyContracts/TimeHelper.sol\":1528:1542  _isLeapYear(i) */\n      jump\t// in\n    tag_65:\n        /* \".git/MyContracts/TimeHelper.sol\":1524:1606  if (_isLeapYear(i)) timestamp += 366 days;... */\n      iszero\n      tag_66\n      jumpi\n        /* \".git/MyContracts/TimeHelper.sol\":1544:1565  timestamp += 366 days */\n      tag_67\n        /* \".git/MyContracts/TimeHelper.sol\":1557:1565  366 days */\n      0x01e28500\n        /* \".git/MyContracts/TimeHelper.sol\":1544:1565  timestamp += 366 days */\n      dup4\n      tag_48\n      jump\t// in\n    tag_67:\n      swap2\n      pop\n        /* \".git/MyContracts/TimeHelper.sol\":1524:1606  if (_isLeapYear(i)) timestamp += 366 days;... */\n      jump(tag_68)\n    tag_66:\n        /* \".git/MyContracts/TimeHelper.sol\":1585:1606  timestamp += 365 days */\n      tag_69\n        /* \".git/MyContracts/TimeHelper.sol\":1598:1606  365 days */\n      0x01e13380\n        /* \".git/MyContracts/TimeHelper.sol\":1585:1606  timestamp += 365 days */\n      dup4\n      tag_48\n      jump\t// in\n    tag_69:\n      swap2\n      pop\n        /* \".git/MyContracts/TimeHelper.sol\":1524:1606  if (_isLeapYear(i)) timestamp += 366 days;... */\n    tag_68:\n        /* \".git/MyContracts/TimeHelper.sol\":1504:1507  i++ */\n      dup1\n      tag_70\n      dup2\n      tag_71\n      jump\t// in\n    tag_70:\n      swap2\n      pop\n      pop\n        /* \".git/MyContracts/TimeHelper.sol\":1479:1618  for (i = 1970; i < year; i++) {... */\n      jump(tag_62)\n    tag_63:\n        /* \".git/MyContracts/TimeHelper.sol\":1649:1770  uint8[12] memory monthDays = [... */\n      0x40\n      dup1\n      mload\n      0x0180\n      dup2\n      add\n      dup3\n      mstore\n        /* \".git/MyContracts/TimeHelper.sol\":1699:1701  31 */\n      0x1f\n        /* \".git/MyContracts/TimeHelper.sol\":1649:1770  uint8[12] memory monthDays = [... */\n      dup1\n      dup3\n      mstore\n        /* \".git/MyContracts/TimeHelper.sol\":1704:1706  28 */\n      0x1c\n        /* \".git/MyContracts/TimeHelper.sol\":1649:1770  uint8[12] memory monthDays = [... */\n      0x20\n      dup4\n      add\n      mstore\n      swap2\n      dup2\n      add\n      dup3\n      swap1\n      mstore\n        /* \".git/MyContracts/TimeHelper.sol\":1712:1714  30 */\n      0x1e\n        /* \".git/MyContracts/TimeHelper.sol\":1649:1770  uint8[12] memory monthDays = [... */\n      0x60\n      dup3\n      add\n      dup2\n      swap1\n      mstore\n      0x80\n      dup3\n      add\n      dup4\n      swap1\n      mstore\n      0xa0\n      dup3\n      add\n      dup2\n      swap1\n      mstore\n      0xc0\n      dup3\n      add\n      dup4\n      swap1\n      mstore\n      0xe0\n      dup3\n      add\n      dup4\n      swap1\n      mstore\n      0x0100\n      dup3\n      add\n      dup2\n      swap1\n      mstore\n      0x0120\n      dup3\n      add\n      dup4\n      swap1\n      mstore\n      0x0140\n      dup3\n      add\n      mstore\n      0x0160\n      dup2\n      add\n      swap2\n      swap1\n      swap2\n      mstore\n        /* \".git/MyContracts/TimeHelper.sol\":1787:1812  _isLeapYear(uint16(year)) */\n      tag_72\n        /* \".git/MyContracts/TimeHelper.sol\":1806:1810  year */\n      dup10\n        /* \".git/MyContracts/TimeHelper.sol\":1787:1798  _isLeapYear */\n      tag_52\n        /* \".git/MyContracts/TimeHelper.sol\":1787:1812  _isLeapYear(uint16(year)) */\n      jump\t// in\n    tag_72:\n        /* \".git/MyContracts/TimeHelper.sol\":1783:1858  if (_isLeapYear(uint16(year))) {... */\n      iszero\n      tag_73\n      jumpi\n        /* \".git/MyContracts/TimeHelper.sol\":1844:1846  29 */\n      0x1d\n        /* \".git/MyContracts/TimeHelper.sol\":1829:1841  monthDays[1] */\n      0x20\n      dup3\n      add\n        /* \".git/MyContracts/TimeHelper.sol\":1829:1846  monthDays[1] = 29 */\n      mstore\n        /* \".git/MyContracts/TimeHelper.sol\":1783:1858  if (_isLeapYear(uint16(year))) {... */\n    tag_73:\n        /* \".git/MyContracts/TimeHelper.sol\":1879:1880  1 */\n      0x01\n        /* \".git/MyContracts/TimeHelper.sol\":1875:1880  i = 1 */\n      swap2\n      pop\n        /* \".git/MyContracts/TimeHelper.sol\":1870:1972  for (i = 1; i < month; i++) {... */\n    tag_77:\n        /* \".git/MyContracts/TimeHelper.sol\":1886:1891  month */\n      dup8\n        /* \".git/MyContracts/TimeHelper.sol\":1882:1883  i */\n      dup3\n        /* \".git/MyContracts/TimeHelper.sol\":1882:1891  i < month */\n      0xffff\n      and\n      lt\n        /* \".git/MyContracts/TimeHelper.sol\":1870:1972  for (i = 1; i < month; i++) {... */\n      iszero\n      tag_78\n      jumpi\n        /* \".git/MyContracts/TimeHelper.sol\":1934:1943  monthDays */\n      dup1\n        /* \".git/MyContracts/TimeHelper.sol\":1944:1949  i - 1 */\n      tag_80\n        /* \".git/MyContracts/TimeHelper.sol\":1948:1949  1 */\n      0x01\n        /* \".git/MyContracts/TimeHelper.sol\":1944:1945  i */\n      dup5\n        /* \".git/MyContracts/TimeHelper.sol\":1944:1949  i - 1 */\n      tag_81\n      jump\t// in\n    tag_80:\n        /* \".git/MyContracts/TimeHelper.sol\":1934:1950  monthDays[i - 1] */\n      0xffff\n      and\n      0x0c\n      dup2\n      lt\n      tag_83\n      jumpi\n      tag_83\n      tag_76\n      jump\t// in\n    tag_83:\n      0x20\n      mul\n      add\n      mload\n        /* \".git/MyContracts/TimeHelper.sol\":1926:1960  uint256(monthDays[i - 1]) * 1 days */\n      tag_84\n      swap1\n        /* \".git/MyContracts/TimeHelper.sol\":1926:1951  uint256(monthDays[i - 1]) */\n      0xff\n      and\n        /* \".git/MyContracts/TimeHelper.sol\":1954:1960  1 days */\n      0x015180\n        /* \".git/MyContracts/TimeHelper.sol\":1926:1960  uint256(monthDays[i - 1]) * 1 days */\n      tag_39\n      jump\t// in\n    tag_84:\n        /* \".git/MyContracts/TimeHelper.sol\":1913:1960  timestamp += uint256(monthDays[i - 1]) * 1 days */\n      tag_85\n      swap1\n      dup5\n      tag_48\n      jump\t// in\n    tag_85:\n      swap3\n      pop\n        /* \".git/MyContracts/TimeHelper.sol\":1893:1896  i++ */\n      dup2\n      tag_86\n      dup2\n      tag_71\n      jump\t// in\n    tag_86:\n      swap3\n      pop\n      pop\n        /* \".git/MyContracts/TimeHelper.sol\":1870:1972  for (i = 1; i < month; i++) {... */\n      jump(tag_77)\n    tag_78:\n        /* \".git/MyContracts/TimeHelper.sol\":2022:2029  day - 1 */\n      tag_87\n        /* \".git/MyContracts/TimeHelper.sol\":2028:2029  1 */\n      0x01\n        /* \".git/MyContracts/TimeHelper.sol\":2022:2025  day */\n      dup9\n        /* \".git/MyContracts/TimeHelper.sol\":2022:2029  day - 1 */\n      tag_41\n      jump\t// in\n    tag_87:\n        /* \".git/MyContracts/TimeHelper.sol\":2021:2039  (day - 1) * 1 days */\n      tag_88\n      swap1\n        /* \".git/MyContracts/TimeHelper.sol\":2033:2039  1 days */\n      0x015180\n        /* \".git/MyContracts/TimeHelper.sol\":2021:2039  (day - 1) * 1 days */\n      tag_39\n      jump\t// in\n    tag_88:\n        /* \".git/MyContracts/TimeHelper.sol\":2008:2039  timestamp += (day - 1) * 1 days */\n      tag_89\n      swap1\n      dup5\n      tag_48\n      jump\t// in\n    tag_89:\n      swap3\n      pop\n        /* \".git/MyContracts/TimeHelper.sol\":2063:2077  hour * 1 hours */\n      tag_90\n        /* \".git/MyContracts/TimeHelper.sol\":2063:2067  hour */\n      dup7\n        /* \".git/MyContracts/TimeHelper.sol\":2070:2077  1 hours */\n      0x0e10\n        /* \".git/MyContracts/TimeHelper.sol\":2063:2077  hour * 1 hours */\n      tag_39\n      jump\t// in\n    tag_90:\n        /* \".git/MyContracts/TimeHelper.sol\":2050:2077  timestamp += hour * 1 hours */\n      tag_91\n      swap1\n      dup5\n      tag_48\n      jump\t// in\n    tag_91:\n      swap3\n      pop\n        /* \".git/MyContracts/TimeHelper.sol\":2101:2119  minute * 1 minutes */\n      tag_92\n        /* \".git/MyContracts/TimeHelper.sol\":2101:2107  minute */\n      dup6\n        /* \".git/MyContracts/TimeHelper.sol\":2110:2119  1 minutes */\n      0x3c\n        /* \".git/MyContracts/TimeHelper.sol\":2101:2119  minute * 1 minutes */\n      tag_39\n      jump\t// in\n    tag_92:\n        /* \".git/MyContracts/TimeHelper.sol\":2088:2119  timestamp += minute * 1 minutes */\n      tag_93\n      swap1\n      dup5\n      tag_48\n      jump\t// in\n    tag_93:\n      swap3\n      pop\n        /* \".git/MyContracts/TimeHelper.sol\":2130:2149  timestamp += second */\n      tag_94\n        /* \".git/MyContracts/TimeHelper.sol\":2143:2149  second */\n      dup5\n        /* \".git/MyContracts/TimeHelper.sol\":2088:2119  timestamp += minute * 1 minutes */\n      dup5\n        /* \".git/MyContracts/TimeHelper.sol\":2130:2149  timestamp += second */\n      tag_48\n      jump\t// in\n    tag_94:\n      swap10\n        /* \".git/MyContracts/TimeHelper.sol\":1214:2157  function _toTimestamp(... */\n      swap9\n      pop\n      pop\n      pop\n      pop\n      pop\n      pop\n      pop\n      pop\n      pop\n      jump\t// out\n        /* \".git/MyContracts/TimeHelper.sol\":2529:2751  function _isLeapYear(uint16 year) internal pure returns (bool) {... */\n    tag_52:\n        /* \".git/MyContracts/TimeHelper.sol\":2586:2590  bool */\n      0x00\n        /* \".git/MyContracts/TimeHelper.sol\":2607:2615  year % 4 */\n      tag_96\n        /* \".git/MyContracts/TimeHelper.sol\":2614:2615  4 */\n      0x04\n        /* \".git/MyContracts/TimeHelper.sol\":2607:2611  year */\n      dup4\n        /* \".git/MyContracts/TimeHelper.sol\":2607:2615  year % 4 */\n      tag_97\n      jump\t// in\n    tag_96:\n        /* \".git/MyContracts/TimeHelper.sol\":2607:2620  year % 4 != 0 */\n      0xffff\n      and\n      iszero\n        /* \".git/MyContracts/TimeHelper.sol\":2603:2634  if (year % 4 != 0) return false */\n      tag_98\n      jumpi\n      pop\n        /* \".git/MyContracts/TimeHelper.sol\":2629:2634  false */\n      0x00\n      swap2\n        /* \".git/MyContracts/TimeHelper.sol\":2529:2751  function _isLeapYear(uint16 year) internal pure returns (bool) {... */\n      swap1\n      pop\n      jump\t// out\n        /* \".git/MyContracts/TimeHelper.sol\":2603:2634  if (year % 4 != 0) return false */\n    tag_98:\n        /* \".git/MyContracts/TimeHelper.sol\":2649:2659  year % 100 */\n      tag_99\n        /* \".git/MyContracts/TimeHelper.sol\":2656:2659  100 */\n      0x64\n        /* \".git/MyContracts/TimeHelper.sol\":2649:2653  year */\n      dup4\n        /* \".git/MyContracts/TimeHelper.sol\":2649:2659  year % 100 */\n      tag_97\n      jump\t// in\n    tag_99:\n        /* \".git/MyContracts/TimeHelper.sol\":2649:2664  year % 100 != 0 */\n      0xffff\n      and\n      iszero\n        /* \".git/MyContracts/TimeHelper.sol\":2645:2677  if (year % 100 != 0) return true */\n      tag_100\n      jumpi\n      pop\n        /* \".git/MyContracts/TimeHelper.sol\":2673:2677  true */\n      0x01\n      swap2\n        /* \".git/MyContracts/TimeHelper.sol\":2529:2751  function _isLeapYear(uint16 year) internal pure returns (bool) {... */\n      swap1\n      pop\n      jump\t// out\n        /* \".git/MyContracts/TimeHelper.sol\":2645:2677  if (year % 100 != 0) return true */\n    tag_100:\n        /* \".git/MyContracts/TimeHelper.sol\":2692:2702  year % 400 */\n      tag_101\n        /* \".git/MyContracts/TimeHelper.sol\":2699:2702  400 */\n      0x0190\n        /* \".git/MyContracts/TimeHelper.sol\":2692:2696  year */\n      dup4\n        /* \".git/MyContracts/TimeHelper.sol\":2692:2702  year % 400 */\n      tag_97\n      jump\t// in\n    tag_101:\n        /* \".git/MyContracts/TimeHelper.sol\":2692:2707  year % 400 != 0 */\n      0xffff\n      and\n      iszero\n        /* \".git/MyContracts/TimeHelper.sol\":2688:2721  if (year % 400 != 0) return false */\n      tag_102\n      jumpi\n      pop\n        /* \".git/MyContracts/TimeHelper.sol\":2716:2721  false */\n      0x00\n      swap2\n        /* \".git/MyContracts/TimeHelper.sol\":2529:2751  function _isLeapYear(uint16 year) internal pure returns (bool) {... */\n      swap1\n      pop\n      jump\t// out\n        /* \".git/MyContracts/TimeHelper.sol\":2688:2721  if (year % 400 != 0) return false */\n    tag_102:\n      pop\n        /* \".git/MyContracts/TimeHelper.sol\":2739:2743  true */\n      0x01\n      swap2\n        /* \".git/MyContracts/TimeHelper.sol\":2529:2751  function _isLeapYear(uint16 year) internal pure returns (bool) {... */\n      swap1\n      pop\n      jump\t// out\n        /* \"#utility.yul\":14:790   */\n    tag_6:\n        /* \"#utility.yul\":117:123   */\n      0x00\n        /* \"#utility.yul\":125:131   */\n      0x00\n        /* \"#utility.yul\":133:139   */\n      0x00\n        /* \"#utility.yul\":141:147   */\n      0x00\n        /* \"#utility.yul\":149:155   */\n      0x00\n        /* \"#utility.yul\":157:163   */\n      0x00\n        /* \"#utility.yul\":210:213   */\n      0xc0\n        /* \"#utility.yul\":198:207   */\n      dup8\n        /* \"#utility.yul\":189:196   */\n      dup10\n        /* \"#utility.yul\":185:208   */\n      sub\n        /* \"#utility.yul\":181:214   */\n      slt\n        /* \"#utility.yul\":178:231   */\n      iszero\n      tag_106\n      jumpi\n        /* \"#utility.yul\":227:228   */\n      0x00\n        /* \"#utility.yul\":224:225   */\n      0x00\n        /* \"#utility.yul\":217:229   */\n      revert\n        /* \"#utility.yul\":178:231   */\n    tag_106:\n      pop\n      pop\n        /* \"#utility.yul\":272:295   */\n      dup5\n      calldataload\n      swap7\n        /* \"#utility.yul\":392:394   */\n      0x20\n        /* \"#utility.yul\":377:395   */\n      dup7\n      add\n        /* \"#utility.yul\":364:396   */\n      calldataload\n      swap7\n      pop\n        /* \"#utility.yul\":495:497   */\n      0x40\n        /* \"#utility.yul\":480:498   */\n      dup7\n      add\n        /* \"#utility.yul\":467:499   */\n      calldataload\n      swap6\n        /* \"#utility.yul\":598:600   */\n      0x60\n        /* \"#utility.yul\":583:601   */\n      dup2\n      add\n        /* \"#utility.yul\":570:602   */\n      calldataload\n      swap6\n      pop\n        /* \"#utility.yul\":701:704   */\n      0x80\n        /* \"#utility.yul\":686:705   */\n      dup2\n      add\n        /* \"#utility.yul\":673:706   */\n      calldataload\n      swap5\n      pop\n        /* \"#utility.yul\":779:782   */\n      0xa0\n        /* \"#utility.yul\":764:783   */\n      add\n        /* \"#utility.yul\":751:784   */\n      calldataload\n      swap3\n      pop\n        /* \"#utility.yul\":14:790   */\n      swap1\n      pop\n      jump\t// out\n        /* \"#utility.yul\":3031:3158   */\n    tag_103:\n        /* \"#utility.yul\":3092:3102   */\n      0x4e487b71\n        /* \"#utility.yul\":3087:3090   */\n      0xe0\n        /* \"#utility.yul\":3083:3103   */\n      shl\n        /* \"#utility.yul\":3080:3081   */\n      0x00\n        /* \"#utility.yul\":3073:3104   */\n      mstore\n        /* \"#utility.yul\":3123:3127   */\n      0x11\n        /* \"#utility.yul\":3120:3121   */\n      0x04\n        /* \"#utility.yul\":3113:3128   */\n      mstore\n        /* \"#utility.yul\":3147:3151   */\n      0x24\n        /* \"#utility.yul\":3144:3145   */\n      0x00\n        /* \"#utility.yul\":3137:3152   */\n      revert\n        /* \"#utility.yul\":3163:3331   */\n    tag_39:\n        /* \"#utility.yul\":3236:3245   */\n      dup1\n      dup3\n      mul\n        /* \"#utility.yul\":3267:3276   */\n      dup2\n      iszero\n        /* \"#utility.yul\":3284:3299   */\n      dup3\n      dup3\n      div\n        /* \"#utility.yul\":3278:3300   */\n      dup5\n      eq\n        /* \"#utility.yul\":3264:3301   */\n      or\n        /* \"#utility.yul\":3254:3325   */\n      tag_60\n      jumpi\n        /* \"#utility.yul\":3305:3323   */\n      tag_60\n      tag_103\n      jump\t// in\n        /* \"#utility.yul\":3336:3464   */\n    tag_41:\n        /* \"#utility.yul\":3403:3412   */\n      dup2\n      dup2\n      sub\n        /* \"#utility.yul\":3424:3435   */\n      dup2\n      dup2\n      gt\n        /* \"#utility.yul\":3421:3458   */\n      iszero\n      tag_60\n      jumpi\n        /* \"#utility.yul\":3438:3456   */\n      tag_60\n      tag_103\n      jump\t// in\n        /* \"#utility.yul\":3469:3605   */\n    tag_45:\n        /* \"#utility.yul\":3504:3507   */\n      0x00\n      shl(0xff, 0x01)\n        /* \"#utility.yul\":3525:3547   */\n      dup3\n      add\n        /* \"#utility.yul\":3522:3570   */\n      tag_123\n      jumpi\n        /* \"#utility.yul\":3550:3568   */\n      tag_123\n      tag_103\n      jump\t// in\n    tag_123:\n      pop\n        /* \"#utility.yul\":3590:3591   */\n      0x00\n        /* \"#utility.yul\":3586:3599   */\n      sub\n      swap1\n        /* \"#utility.yul\":3469:3605   */\n      jump\t// out\n        /* \"#utility.yul\":3610:3735   */\n    tag_48:\n        /* \"#utility.yul\":3675:3684   */\n      dup1\n      dup3\n      add\n        /* \"#utility.yul\":3696:3706   */\n      dup1\n      dup3\n      gt\n        /* \"#utility.yul\":3693:3729   */\n      iszero\n      tag_60\n      jumpi\n        /* \"#utility.yul\":3709:3727   */\n      tag_60\n      tag_103\n      jump\t// in\n        /* \"#utility.yul\":3740:3920   */\n    tag_71:\n        /* \"#utility.yul\":3778:3781   */\n      0x00\n        /* \"#utility.yul\":3822:3828   */\n      0xffff\n        /* \"#utility.yul\":3815:3820   */\n      dup3\n        /* \"#utility.yul\":3811:3829   */\n      and\n        /* \"#utility.yul\":3853:3859   */\n      0xffff\n        /* \"#utility.yul\":3844:3851   */\n      dup2\n        /* \"#utility.yul\":3841:3860   */\n      sub\n        /* \"#utility.yul\":3838:3883   */\n      tag_129\n      jumpi\n        /* \"#utility.yul\":3863:3881   */\n      tag_129\n      tag_103\n      jump\t// in\n    tag_129:\n        /* \"#utility.yul\":3912:3913   */\n      0x01\n        /* \"#utility.yul\":3899:3914   */\n      add\n      swap3\n        /* \"#utility.yul\":3740:3920   */\n      swap2\n      pop\n      pop\n      jump\t// out\n        /* \"#utility.yul\":3925:4052   */\n    tag_76:\n        /* \"#utility.yul\":3986:3996   */\n      0x4e487b71\n        /* \"#utility.yul\":3981:3984   */\n      0xe0\n        /* \"#utility.yul\":3977:3997   */\n      shl\n        /* \"#utility.yul\":3974:3975   */\n      0x00\n        /* \"#utility.yul\":3967:3998   */\n      mstore\n        /* \"#utility.yul\":4017:4021   */\n      0x32\n        /* \"#utility.yul\":4014:4015   */\n      0x04\n        /* \"#utility.yul\":4007:4022   */\n      mstore\n        /* \"#utility.yul\":4041:4045   */\n      0x24\n        /* \"#utility.yul\":4038:4039   */\n      0x00\n        /* \"#utility.yul\":4031:4046   */\n      revert\n        /* \"#utility.yul\":4057:4215   */\n    tag_81:\n        /* \"#utility.yul\":4150:4156   */\n      0xffff\n        /* \"#utility.yul\":4143:4157   */\n      dup3\n      dup2\n      and\n        /* \"#utility.yul\":4127:4141   */\n      dup3\n      dup3\n      and\n        /* \"#utility.yul\":4123:4158   */\n      sub\n      swap1\n        /* \"#utility.yul\":4170:4186   */\n      dup2\n      gt\n        /* \"#utility.yul\":4167:4209   */\n      iszero\n      tag_60\n      jumpi\n        /* \"#utility.yul\":4189:4207   */\n      tag_60\n      tag_103\n      jump\t// in\n        /* \"#utility.yul\":4220:4479   */\n    tag_97:\n        /* \"#utility.yul\":4251:4252   */\n      0x00\n        /* \"#utility.yul\":4285:4291   */\n      0xffff\n        /* \"#utility.yul\":4282:4283   */\n      dup4\n        /* \"#utility.yul\":4278:4292   */\n      and\n        /* \"#utility.yul\":4311:4314   */\n      dup1\n        /* \"#utility.yul\":4301:4435   */\n      tag_135\n      jumpi\n        /* \"#utility.yul\":4357:4367   */\n      0x4e487b71\n        /* \"#utility.yul\":4352:4355   */\n      0xe0\n        /* \"#utility.yul\":4348:4368   */\n      shl\n        /* \"#utility.yul\":4345:4346   */\n      0x00\n        /* \"#utility.yul\":4338:4369   */\n      mstore\n        /* \"#utility.yul\":4392:4396   */\n      0x12\n        /* \"#utility.yul\":4389:4390   */\n      0x04\n        /* \"#utility.yul\":4382:4397   */\n      mstore\n        /* \"#utility.yul\":4420:4424   */\n      0x24\n        /* \"#utility.yul\":4417:4418   */\n      0x00\n        /* \"#utility.yul\":4410:4425   */\n      revert\n        /* \"#utility.yul\":4301:4435   */\n    tag_135:\n        /* \"#utility.yul\":4469:4472   */\n      dup1\n        /* \"#utility.yul\":4460:4466   */\n      0xffff\n        /* \"#utility.yul\":4457:4458   */\n      dup5\n        /* \"#utility.yul\":4453:4467   */\n      and\n        /* \"#utility.yul\":4449:4473   */\n      mod\n        /* \"#utility.yul\":4444:4473   */\n      swap2\n      pop\n      pop\n        /* \"#utility.yul\":4220:4479   */\n      swap3\n      swap2\n      pop\n      pop\n      jump\t// out\n\n    auxdata: 0xa264697066735822122046a24b131f0a3cc7e89db70adce746c37b8daaf6760c5026381e49692a16ad5364736f6c634300081f0033\n}\n",
				"bytecode": {
					"linkReferences": {},
					"object": "6080604052348015600e575f5ffd5b506106488061001c5f395ff3fe608060405234801561000f575f5ffd5b5060043610610029575f3560e01c80630719f8111461002d575b5f5ffd5b61004061003b3660046104eb565b610052565b60405190815260200160405180910390f35b5f6107b2871015801561006757506108348711155b6100a75760405162461bcd60e51b815260206004820152600c60248201526b24b73b30b634b2103cb2b0b960a11b60448201526064015b60405180910390fd5b600186101580156100b95750600c8611155b6100f55760405162461bcd60e51b815260206004820152600d60248201526c092dcecc2d8d2c840dadedce8d609b1b604482015260640161009e565b601884106101345760405162461bcd60e51b815260206004820152600c60248201526b24b73b30b634b2103437bab960a11b604482015260640161009e565b603c83106101755760405162461bcd60e51b815260206004820152600e60248201526d496e76616c6964206d696e75746560901b604482015260640161009e565b600b1982121580156101885750600e8213155b6101c95760405162461bcd60e51b8152602060048201526012602482015271125b9d985b1a5908155510c81bd9999cd95d60721b604482015260640161009e565b5f6101d4888861028d565b9050600186101580156101e75750808611155b6102215760405162461bcd60e51b815260206004820152600b60248201526a496e76616c69642064617960a81b604482015260640161009e565b5f61023089898989895f6102f3565b90505f8413156102575761024684610e1061053e565b6102509082610555565b9050610281565b5f8412156102815761026884610568565b61027490610e1061053e565b61027e9082610582565b90505b98975050505050505050565b5f816002036102b75761029f8361048f565b6102aa57601c6102ad565b601d5b60ff1690506102ed565b81600414806102c65750816006145b806102d15750816009145b806102dc575081600b145b156102e95750601e6102ed565b50601f5b92915050565b5f6107b25b878161ffff16101561034a5761030d8161048f565b15610327576103206301e2850083610582565b9150610338565b6103356301e1338083610582565b91505b8061034281610595565b9150506102f8565b6040805161018081018252601f808252601c6020830152918101829052601e606082018190526080820183905260a0820181905260c0820183905260e08201839052610100820181905261012082018390526101408201526101608101919091526103b48961048f565b156103c157601d60208201525b600191505b878261ffff16101561042557806103de6001846105c9565b61ffff16600c81106103f2576103f26105b5565b60200201516104079060ff166201518061053e565b6104119084610582565b92508161041d81610595565b9250506103c6565b610430600188610555565b61043d906201518061053e565b6104479084610582565b925061045586610e1061053e565b61045f9084610582565b925061046c85603c61053e565b6104769084610582565b92506104828484610582565b9998505050505050505050565b5f61049b6004836105e3565b61ffff16156104ab57505f919050565b6104b66064836105e3565b61ffff16156104c757506001919050565b6104d3610190836105e3565b61ffff16156104e357505f919050565b506001919050565b5f5f5f5f5f5f60c08789031215610500575f5ffd5b505084359660208601359650604086013595606081013595506080810135945060a0013592509050565b634e487b7160e01b5f52601160045260245ffd5b80820281158282048414176102ed576102ed61052a565b818103818111156102ed576102ed61052a565b5f600160ff1b820161057c5761057c61052a565b505f0390565b808201808211156102ed576102ed61052a565b5f61ffff821661ffff81036105ac576105ac61052a565b60010192915050565b634e487b7160e01b5f52603260045260245ffd5b61ffff82811682821603908111156102ed576102ed61052a565b5f61ffff83168061060257634e487b7160e01b5f52601260045260245ffd5b8061ffff8416069150509291505056fea264697066735822122046a24b131f0a3cc7e89db70adce746c37b8daaf6760c5026381e49692a16ad5364736f6c634300081f0033",
					"opcodes": "PUSH1 0x80 PUSH1 0x40 MSTORE CALLVALUE DUP1 ISZERO PUSH1 0xE JUMPI PUSH0 PUSH0 REVERT JUMPDEST POP PUSH2 0x648 DUP1 PUSH2 0x1C PUSH0 CODECOPY PUSH0 RETURN INVALID PUSH1 0x80 PUSH1 0x40 MSTORE CALLVALUE DUP1 ISZERO PUSH2 0xF JUMPI PUSH0 PUSH0 REVERT JUMPDEST POP PUSH1 0x4 CALLDATASIZE LT PUSH2 0x29 JUMPI PUSH0 CALLDATALOAD PUSH1 0xE0 SHR DUP1 PUSH4 0x719F811 EQ PUSH2 0x2D JUMPI JUMPDEST PUSH0 PUSH0 REVERT JUMPDEST PUSH2 0x40 PUSH2 0x3B CALLDATASIZE PUSH1 0x4 PUSH2 0x4EB JUMP JUMPDEST PUSH2 0x52 JUMP JUMPDEST PUSH1 0x40 MLOAD SWAP1 DUP2 MSTORE PUSH1 0x20 ADD PUSH1 0x40 MLOAD DUP1 SWAP2 SUB SWAP1 RETURN JUMPDEST PUSH0 PUSH2 0x7B2 DUP8 LT ISZERO DUP1 ISZERO PUSH2 0x67 JUMPI POP PUSH2 0x834 DUP8 GT ISZERO JUMPDEST PUSH2 0xA7 JUMPI PUSH1 0x40 MLOAD PUSH3 0x461BCD PUSH1 0xE5 SHL DUP2 MSTORE PUSH1 0x20 PUSH1 0x4 DUP3 ADD MSTORE PUSH1 0xC PUSH1 0x24 DUP3 ADD MSTORE PUSH12 0x24B73B30B634B2103CB2B0B9 PUSH1 0xA1 SHL PUSH1 0x44 DUP3 ADD MSTORE PUSH1 0x64 ADD JUMPDEST PUSH1 0x40 MLOAD DUP1 SWAP2 SUB SWAP1 REVERT JUMPDEST PUSH1 0x1 DUP7 LT ISZERO DUP1 ISZERO PUSH2 0xB9 JUMPI POP PUSH1 0xC DUP7 GT ISZERO JUMPDEST PUSH2 0xF5 JUMPI PUSH1 0x40 MLOAD PUSH3 0x461BCD PUSH1 0xE5 SHL DUP2 MSTORE PUSH1 0x20 PUSH1 0x4 DUP3 ADD MSTORE PUSH1 0xD PUSH1 0x24 DUP3 ADD MSTORE PUSH13 0x92DCECC2D8D2C840DADEDCE8D PUSH1 0x9B SHL PUSH1 0x44 DUP3 ADD MSTORE PUSH1 0x64 ADD PUSH2 0x9E JUMP JUMPDEST PUSH1 0x18 DUP5 LT PUSH2 0x134 JUMPI PUSH1 0x40 MLOAD PUSH3 0x461BCD PUSH1 0xE5 SHL DUP2 MSTORE PUSH1 0x20 PUSH1 0x4 DUP3 ADD MSTORE PUSH1 0xC PUSH1 0x24 DUP3 ADD MSTORE PUSH12 0x24B73B30B634B2103437BAB9 PUSH1 0xA1 SHL PUSH1 0x44 DUP3 ADD MSTORE PUSH1 0x64 ADD PUSH2 0x9E JUMP JUMPDEST PUSH1 0x3C DUP4 LT PUSH2 0x175 JUMPI PUSH1 0x40 MLOAD PUSH3 0x461BCD PUSH1 0xE5 SHL DUP2 MSTORE PUSH1 0x20 PUSH1 0x4 DUP3 ADD MSTORE PUSH1 0xE PUSH1 0x24 DUP3 ADD MSTORE PUSH14 0x496E76616C6964206D696E757465 PUSH1 0x90 SHL PUSH1 0x44 DUP3 ADD MSTORE PUSH1 0x64 ADD PUSH2 0x9E JUMP JUMPDEST PUSH1 0xB NOT DUP3 SLT ISZERO DUP1 ISZERO PUSH2 0x188 JUMPI POP PUSH1 0xE DUP3 SGT ISZERO JUMPDEST PUSH2 0x1C9 JUMPI PUSH1 0x40 MLOAD PUSH3 0x461BCD PUSH1 0xE5 SHL DUP2 MSTORE PUSH1 0x20 PUSH1 0x4 DUP3 ADD MSTORE PUSH1 0x12 PUSH1 0x24 DUP3 ADD MSTORE PUSH18 0x125B9D985B1A5908155510C81BD9999CD95D PUSH1 0x72 SHL PUSH1 0x44 DUP3 ADD MSTORE PUSH1 0x64 ADD PUSH2 0x9E JUMP JUMPDEST PUSH0 PUSH2 0x1D4 DUP9 DUP9 PUSH2 0x28D JUMP JUMPDEST SWAP1 POP PUSH1 0x1 DUP7 LT ISZERO DUP1 ISZERO PUSH2 0x1E7 JUMPI POP DUP1 DUP7 GT ISZERO JUMPDEST PUSH2 0x221 JUMPI PUSH1 0x40 MLOAD PUSH3 0x461BCD PUSH1 0xE5 SHL DUP2 MSTORE PUSH1 0x20 PUSH1 0x4 DUP3 ADD MSTORE PUSH1 0xB PUSH1 0x24 DUP3 ADD MSTORE PUSH11 0x496E76616C696420646179 PUSH1 0xA8 SHL PUSH1 0x44 DUP3 ADD MSTORE PUSH1 0x64 ADD PUSH2 0x9E JUMP JUMPDEST PUSH0 PUSH2 0x230 DUP10 DUP10 DUP10 DUP10 DUP10 PUSH0 PUSH2 0x2F3 JUMP JUMPDEST SWAP1 POP PUSH0 DUP5 SGT ISZERO PUSH2 0x257 JUMPI PUSH2 0x246 DUP5 PUSH2 0xE10 PUSH2 0x53E JUMP JUMPDEST PUSH2 0x250 SWAP1 DUP3 PUSH2 0x555 JUMP JUMPDEST SWAP1 POP PUSH2 0x281 JUMP JUMPDEST PUSH0 DUP5 SLT ISZERO PUSH2 0x281 JUMPI PUSH2 0x268 DUP5 PUSH2 0x568 JUMP JUMPDEST PUSH2 0x274 SWAP1 PUSH2 0xE10 PUSH2 0x53E JUMP JUMPDEST PUSH2 0x27E SWAP1 DUP3 PUSH2 0x582 JUMP JUMPDEST SWAP1 POP JUMPDEST SWAP9 SWAP8 POP POP POP POP POP POP POP POP JUMP JUMPDEST PUSH0 DUP2 PUSH1 0x2 SUB PUSH2 0x2B7 JUMPI PUSH2 0x29F DUP4 PUSH2 0x48F JUMP JUMPDEST PUSH2 0x2AA JUMPI PUSH1 0x1C PUSH2 0x2AD JUMP JUMPDEST PUSH1 0x1D JUMPDEST PUSH1 0xFF AND SWAP1 POP PUSH2 0x2ED JUMP JUMPDEST DUP2 PUSH1 0x4 EQ DUP1 PUSH2 0x2C6 JUMPI POP DUP2 PUSH1 0x6 EQ JUMPDEST DUP1 PUSH2 0x2D1 JUMPI POP DUP2 PUSH1 0x9 EQ JUMPDEST DUP1 PUSH2 0x2DC JUMPI POP DUP2 PUSH1 0xB EQ JUMPDEST ISZERO PUSH2 0x2E9 JUMPI POP PUSH1 0x1E PUSH2 0x2ED JUMP JUMPDEST POP PUSH1 0x1F JUMPDEST SWAP3 SWAP2 POP POP JUMP JUMPDEST PUSH0 PUSH2 0x7B2 JUMPDEST DUP8 DUP2 PUSH2 0xFFFF AND LT ISZERO PUSH2 0x34A JUMPI PUSH2 0x30D DUP2 PUSH2 0x48F JUMP JUMPDEST ISZERO PUSH2 0x327 JUMPI PUSH2 0x320 PUSH4 0x1E28500 DUP4 PUSH2 0x582 JUMP JUMPDEST SWAP2 POP PUSH2 0x338 JUMP JUMPDEST PUSH2 0x335 PUSH4 0x1E13380 DUP4 PUSH2 0x582 JUMP JUMPDEST SWAP2 POP JUMPDEST DUP1 PUSH2 0x342 DUP2 PUSH2 0x595 JUMP JUMPDEST SWAP2 POP POP PUSH2 0x2F8 JUMP JUMPDEST PUSH1 0x40 DUP1 MLOAD PUSH2 0x180 DUP2 ADD DUP3 MSTORE PUSH1 0x1F DUP1 DUP3 MSTORE PUSH1 0x1C PUSH1 0x20 DUP4 ADD MSTORE SWAP2 DUP2 ADD DUP3 SWAP1 MSTORE PUSH1 0x1E PUSH1 0x60 DUP3 ADD DUP2 SWAP1 MSTORE PUSH1 0x80 DUP3 ADD DUP4 SWAP1 MSTORE PUSH1 0xA0 DUP3 ADD DUP2 SWAP1 MSTORE PUSH1 0xC0 DUP3 ADD DUP4 SWAP1 MSTORE PUSH1 0xE0 DUP3 ADD DUP4 SWAP1 MSTORE PUSH2 0x100 DUP3 ADD DUP2 SWAP1 MSTORE PUSH2 0x120 DUP3 ADD DUP4 SWAP1 MSTORE PUSH2 0x140 DUP3 ADD MSTORE PUSH2 0x160 DUP2 ADD SWAP2 SWAP1 SWAP2 MSTORE PUSH2 0x3B4 DUP10 PUSH2 0x48F JUMP JUMPDEST ISZERO PUSH2 0x3C1 JUMPI PUSH1 0x1D PUSH1 0x20 DUP3 ADD MSTORE JUMPDEST PUSH1 0x1 SWAP2 POP JUMPDEST DUP8 DUP3 PUSH2 0xFFFF AND LT ISZERO PUSH2 0x425 JUMPI DUP1 PUSH2 0x3DE PUSH1 0x1 DUP5 PUSH2 0x5C9 JUMP JUMPDEST PUSH2 0xFFFF AND PUSH1 0xC DUP2 LT PUSH2 0x3F2 JUMPI PUSH2 0x3F2 PUSH2 0x5B5 JUMP JUMPDEST PUSH1 0x20 MUL ADD MLOAD PUSH2 0x407 SWAP1 PUSH1 0xFF AND PUSH3 0x15180 PUSH2 0x53E JUMP JUMPDEST PUSH2 0x411 SWAP1 DUP5 PUSH2 0x582 JUMP JUMPDEST SWAP3 POP DUP2 PUSH2 0x41D DUP2 PUSH2 0x595 JUMP JUMPDEST SWAP3 POP POP PUSH2 0x3C6 JUMP JUMPDEST PUSH2 0x430 PUSH1 0x1 DUP9 PUSH2 0x555 JUMP JUMPDEST PUSH2 0x43D SWAP1 PUSH3 0x15180 PUSH2 0x53E JUMP JUMPDEST PUSH2 0x447 SWAP1 DUP5 PUSH2 0x582 JUMP JUMPDEST SWAP3 POP PUSH2 0x455 DUP7 PUSH2 0xE10 PUSH2 0x53E JUMP JUMPDEST PUSH2 0x45F SWAP1 DUP5 PUSH2 0x582 JUMP JUMPDEST SWAP3 POP PUSH2 0x46C DUP6 PUSH1 0x3C PUSH2 0x53E JUMP JUMPDEST PUSH2 0x476 SWAP1 DUP5 PUSH2 0x582 JUMP JUMPDEST SWAP3 POP PUSH2 0x482 DUP5 DUP5 PUSH2 0x582 JUMP JUMPDEST SWAP10 SWAP9 POP POP POP POP POP POP POP POP POP JUMP JUMPDEST PUSH0 PUSH2 0x49B PUSH1 0x4 DUP4 PUSH2 0x5E3 JUMP JUMPDEST PUSH2 0xFFFF AND ISZERO PUSH2 0x4AB JUMPI POP PUSH0 SWAP2 SWAP1 POP JUMP JUMPDEST PUSH2 0x4B6 PUSH1 0x64 DUP4 PUSH2 0x5E3 JUMP JUMPDEST PUSH2 0xFFFF AND ISZERO PUSH2 0x4C7 JUMPI POP PUSH1 0x1 SWAP2 SWAP1 POP JUMP JUMPDEST PUSH2 0x4D3 PUSH2 0x190 DUP4 PUSH2 0x5E3 JUMP JUMPDEST PUSH2 0xFFFF AND ISZERO PUSH2 0x4E3 JUMPI POP PUSH0 SWAP2 SWAP1 POP JUMP JUMPDEST POP PUSH1 0x1 SWAP2 SWAP1 POP JUMP JUMPDEST PUSH0 PUSH0 PUSH0 PUSH0 PUSH0 PUSH0 PUSH1 0xC0 DUP8 DUP10 SUB SLT ISZERO PUSH2 0x500 JUMPI PUSH0 PUSH0 REVERT JUMPDEST POP POP DUP5 CALLDATALOAD SWAP7 PUSH1 0x20 DUP7 ADD CALLDATALOAD SWAP7 POP PUSH1 0x40 DUP7 ADD CALLDATALOAD SWAP6 PUSH1 0x60 DUP2 ADD CALLDATALOAD SWAP6 POP PUSH1 0x80 DUP2 ADD CALLDATALOAD SWAP5 POP PUSH1 0xA0 ADD CALLDATALOAD SWAP3 POP SWAP1 POP JUMP JUMPDEST PUSH4 0x4E487B71 PUSH1 0xE0 SHL PUSH0 MSTORE PUSH1 0x11 PUSH1 0x4 MSTORE PUSH1 0x24 PUSH0 REVERT JUMPDEST DUP1 DUP3 MUL DUP2 ISZERO DUP3 DUP3 DIV DUP5 EQ OR PUSH2 0x2ED JUMPI PUSH2 0x2ED PUSH2 0x52A JUMP JUMPDEST DUP2 DUP2 SUB DUP2 DUP2 GT ISZERO PUSH2 0x2ED JUMPI PUSH2 0x2ED PUSH2 0x52A JUMP JUMPDEST PUSH0 PUSH1 0x1 PUSH1 0xFF SHL DUP3 ADD PUSH2 0x57C JUMPI PUSH2 0x57C PUSH2 0x52A JUMP JUMPDEST POP PUSH0 SUB SWAP1 JUMP JUMPDEST DUP1 DUP3 ADD DUP1 DUP3 GT ISZERO PUSH2 0x2ED JUMPI PUSH2 0x2ED PUSH2 0x52A JUMP JUMPDEST PUSH0 PUSH2 0xFFFF DUP3 AND PUSH2 0xFFFF DUP2 SUB PUSH2 0x5AC JUMPI PUSH2 0x5AC PUSH2 0x52A JUMP JUMPDEST PUSH1 0x1 ADD SWAP3 SWAP2 POP POP JUMP JUMPDEST PUSH4 0x4E487B71 PUSH1 0xE0 SHL PUSH0 MSTORE PUSH1 0x32 PUSH1 0x4 MSTORE PUSH1 0x24 PUSH0 REVERT JUMPDEST PUSH2 0xFFFF DUP3 DUP2 AND DUP3 DUP3 AND SUB SWAP1 DUP2 GT ISZERO PUSH2 0x2ED JUMPI PUSH2 0x2ED PUSH2 0x52A JUMP JUMPDEST PUSH0 PUSH2 0xFFFF DUP4 AND DUP1 PUSH2 0x602 JUMPI PUSH4 0x4E487B71 PUSH1 0xE0 SHL PUSH0 MSTORE PUSH1 0x12 PUSH1 0x4 MSTORE PUSH1 0x24 PUSH0 REVERT JUMPDEST DUP1 PUSH2 0xFFFF DUP5 AND MOD SWAP2 POP POP SWAP3 SWAP2 POP POP JUMP INVALID LOG2 PUSH5 0x6970667358 0x22 SLT KECCAK256 CHAINID LOG2 0x4B SGT 0x1F EXP EXTCODECOPY 0xC7 0xE8 SWAP14 0xB7 EXP 0xDC SWAPN 0x46 0xC3 PUSH28 0x8DAAF6760C5026381E49692A16AD5364736F6C634300081F00330000 "
				},
				"gasEstimates": {
					"creation": {
						"codeDepositCost": "321600",
						"executionCost": "360",
						"totalCost": "321960"
					},
					"external": {
						"toTimestampWithOffset(uint256,uint256,uint256,uint256,uint256,int256)": "infinite"
					},
					"internal": {
						"_getDaysInMonth(uint256,uint256)": "infinite",
						"_isLeapYear(uint16)": "infinite",
						"_toTimestamp(uint256,uint256,uint256,uint256,uint256,uint256)": "infinite"
					}
				},
				"methodIdentifiers": {
					"toTimestampWithOffset(uint256,uint256,uint256,uint256,uint256,int256)": "0719f811"
				}
			},
			"storageLayout": {
				"storage": [],
				"types": null
			},
			"userdoc": {
				"kind": "user",
				"methods": {},
				"version": 1
			}
		}
	}
}