{
	".git/MyContracts/SACCODirectorElection.sol": {
		"SACCODirectorElection": {
			"abi": [
				{
					"inputs": [],
					"stateMutability": "nonpayable",
					"type": "constructor"
				},
				{
					"anonymous": false,
					"inputs": [
						{
							"indexed": true,
							"internalType": "address",
							"name": "oldAdmin",
							"type": "address"
						},
						{
							"indexed": true,
							"internalType": "address",
							"name": "newAdmin",
							"type": "address"
						}
					],
					"name": "AdminTransferred",
					"type": "event"
				},
				{
					"anonymous": false,
					"inputs": [
						{
							"indexed": true,
							"internalType": "uint256",
							"name": "candidateId",
							"type": "uint256"
						}
					],
					"name": "CandidateDeactivated",
					"type": "event"
				},
				{
					"anonymous": false,
					"inputs": [
						{
							"indexed": true,
							"internalType": "uint256",
							"name": "candidateId",
							"type": "uint256"
						},
						{
							"indexed": false,
							"internalType": "string",
							"name": "name",
							"type": "string"
						},
						{
							"indexed": false,
							"internalType": "string",
							"name": "membershipNumber",
							"type": "string"
						},
						{
							"indexed": false,
							"internalType": "string",
							"name": "position",
							"type": "string"
						}
					],
					"name": "CandidateRegistered",
					"type": "event"
				},
				{
					"anonymous": false,
					"inputs": [
						{
							"indexed": true,
							"internalType": "address",
							"name": "delegateAddress",
							"type": "address"
						},
						{
							"indexed": false,
							"internalType": "string",
							"name": "name",
							"type": "string"
						},
						{
							"indexed": false,
							"internalType": "string",
							"name": "membershipNumber",
							"type": "string"
						}
					],
					"name": "DelegateRegistered",
					"type": "event"
				},
				{
					"anonymous": false,
					"inputs": [
						{
							"indexed": false,
							"internalType": "uint256",
							"name": "closedAt",
							"type": "uint256"
						}
					],
					"name": "ElectionClosed",
					"type": "event"
				},
				{
					"anonymous": false,
					"inputs": [
						{
							"indexed": false,
							"internalType": "uint256",
							"name": "deadline",
							"type": "uint256"
						}
					],
					"name": "ElectionOpened",
					"type": "event"
				},
				{
					"anonymous": false,
					"inputs": [
						{
							"indexed": true,
							"internalType": "address",
							"name": "delegateAddress",
							"type": "address"
						},
						{
							"indexed": true,
							"internalType": "uint256",
							"name": "candidateId",
							"type": "uint256"
						},
						{
							"indexed": false,
							"internalType": "string",
							"name": "position",
							"type": "string"
						}
					],
					"name": "VoteCast",
					"type": "event"
				},
				{
					"inputs": [],
					"name": "admin",
					"outputs": [
						{
							"internalType": "address",
							"name": "",
							"type": "address"
						}
					],
					"stateMutability": "view",
					"type": "function"
				},
				{
					"inputs": [
						{
							"internalType": "uint256",
							"name": "",
							"type": "uint256"
						}
					],
					"name": "candidates",
					"outputs": [
						{
							"internalType": "uint256",
							"name": "id",
							"type": "uint256"
						},
						{
							"internalType": "string",
							"name": "name",
							"type": "string"
						},
						{
							"internalType": "string",
							"name": "membershipNumber",
							"type": "string"
						},
						{
							"internalType": "string",
							"name": "position",
							"type": "string"
						},
						{
							"internalType": "uint256",
							"name": "voteCount",
							"type": "uint256"
						},
						{
							"internalType": "bool",
							"name": "isActive",
							"type": "bool"
						}
					],
					"stateMutability": "view",
					"type": "function"
				},
				{
					"inputs": [],
					"name": "closeElection",
					"outputs": [],
					"stateMutability": "nonpayable",
					"type": "function"
				},
				{
					"inputs": [
						{
							"internalType": "uint256",
							"name": "candidateId",
							"type": "uint256"
						}
					],
					"name": "deactivateCandidate",
					"outputs": [],
					"stateMutability": "nonpayable",
					"type": "function"
				},
				{
					"inputs": [
						{
							"internalType": "address",
							"name": "",
							"type": "address"
						}
					],
					"name": "delegates",
					"outputs": [
						{
							"internalType": "bool",
							"name": "isRegistered",
							"type": "bool"
						},
						{
							"internalType": "string",
							"name": "name",
							"type": "string"
						},
						{
							"internalType": "string",
							"name": "membershipNumber",
							"type": "string"
						}
					],
					"stateMutability": "view",
					"type": "function"
				},
				{
					"inputs": [],
					"name": "electionOpen",
					"outputs": [
						{
							"internalType": "bool",
							"name": "",
							"type": "bool"
						}
					],
					"stateMutability": "view",
					"type": "function"
				},
				{
					"inputs": [],
					"name": "getAllPositions",
					"outputs": [
						{
							"internalType": "string[]",
							"name": "",
							"type": "string[]"
						}
					],
					"stateMutability": "view",
					"type": "function"
				},
				{
					"inputs": [
						{
							"internalType": "uint256",
							"name": "candidateId",
							"type": "uint256"
						}
					],
					"name": "getCandidate",
					"outputs": [
						{
							"internalType": "uint256",
							"name": "id",
							"type": "uint256"
						},
						{
							"internalType": "string",
							"name": "name",
							"type": "string"
						},
						{
							"internalType": "string",
							"name": "membershipNumber",
							"type": "string"
						},
						{
							"internalType": "string",
							"name": "position",
							"type": "string"
						},
						{
							"internalType": "uint256",
							"name": "voteCount",
							"type": "uint256"
						},
						{
							"internalType": "bool",
							"name": "isActive",
							"type": "bool"
						}
					],
					"stateMutability": "view",
					"type": "function"
				},
				{
					"inputs": [
						{
							"internalType": "string",
							"name": "position",
							"type": "string"
						}
					],
					"name": "getCandidatesByPosition",
					"outputs": [
						{
							"internalType": "uint256[]",
							"name": "",
							"type": "uint256[]"
						}
					],
					"stateMutability": "view",
					"type": "function"
				},
				{
					"inputs": [
						{
							"internalType": "string",
							"name": "position",
							"type": "string"
						}
					],
					"name": "getPositionResults",
					"outputs": [
						{
							"internalType": "uint256[]",
							"name": "candidateIds",
							"type": "uint256[]"
						},
						{
							"internalType": "string[]",
							"name": "names",
							"type": "string[]"
						},
						{
							"internalType": "uint256[]",
							"name": "voteCounts",
							"type": "uint256[]"
						},
						{
							"internalType": "bool[]",
							"name": "activeStatuses",
							"type": "bool[]"
						}
					],
					"stateMutability": "view",
					"type": "function"
				},
				{
					"inputs": [
						{
							"internalType": "address",
							"name": "delegateAddress",
							"type": "address"
						},
						{
							"internalType": "string",
							"name": "position",
							"type": "string"
						}
					],
					"name": "hasDelegateVotedForPosition",
					"outputs": [
						{
							"internalType": "bool",
							"name": "",
							"type": "bool"
						}
					],
					"stateMutability": "view",
					"type": "function"
				},
				{
					"inputs": [
						{
							"internalType": "uint256",
							"name": "durationInMinutes",
							"type": "uint256"
						}
					],
					"name": "openElection",
					"outputs": [],
					"stateMutability": "nonpayable",
					"type": "function"
				},
				{
					"inputs": [
						{
							"internalType": "string",
							"name": "name",
							"type": "string"
						},
						{
							"internalType": "string",
							"name": "membershipNumber",
							"type": "string"
						},
						{
							"internalType": "string",
							"name": "position",
							"type": "string"
						}
					],
					"name": "registerCandidate",
					"outputs": [],
					"stateMutability": "nonpayable",
					"type": "function"
				},
				{
					"inputs": [
						{
							"internalType": "address",
							"name": "delegateAddress",
							"type": "address"
						},
						{
							"internalType": "string",
							"name": "name",
							"type": "string"
						},
						{
							"internalType": "string",
							"name": "membershipNumber",
							"type": "string"
						}
					],
					"name": "registerDelegate",
					"outputs": [],
					"stateMutability": "nonpayable",
					"type": "function"
				},
				{
					"inputs": [],
					"name": "timeLeft",
					"outputs": [
						{
							"internalType": "uint256",
							"name": "",
							"type": "uint256"
						}
					],
					"stateMutability": "view",
					"type": "function"
				},
				{
					"inputs": [
						{
							"internalType": "address",
							"name": "newAdmin",
							"type": "address"
						}
					],
					"name": "transferAdmin",
					"outputs": [],
					"stateMutability": "nonpayable",
					"type": "function"
				},
				{
					"inputs": [
						{
							"internalType": "uint256",
							"name": "candidateId",
							"type": "uint256"
						}
					],
					"name": "vote",
					"outputs": [],
					"stateMutability": "nonpayable",
					"type": "function"
				},
				{
					"inputs": [],
					"name": "votingDeadline",
					"outputs": [
						{
							"internalType": "uint256",
							"name": "",
							"type": "uint256"
						}
					],
					"stateMutability": "view",
					"type": "function"
				},
				{
					"inputs": [
						{
							"internalType": "string",
							"name": "position",
							"type": "string"
						}
					],
					"name": "winnerDetails",
					"outputs": [
						{
							"internalType": "uint256",
							"name": "id",
							"type": "uint256"
						},
						{
							"internalType": "string",
							"name": "name",
							"type": "string"
						},
						{
							"internalType": "string",
							"name": "membershipNumber",
							"type": "string"
						},
						{
							"internalType": "uint256",
							"name": "voteCount",
							"type": "uint256"
						}
					],
					"stateMutability": "view",
					"type": "function"
				},
				{
					"inputs": [
						{
							"internalType": "string",
							"name": "position",
							"type": "string"
						}
					],
					"name": "winningCandidate",
					"outputs": [
						{
							"internalType": "uint256",
							"name": "winningCandidateId",
							"type": "uint256"
						}
					],
					"stateMutability": "view",
					"type": "function"
				}
			],
			"devdoc": {
				"details": "A smart contract for SACCO director elections. The admin registers candidates and qualified delegates. Delegates can vote once per position during the active election period.",
				"kind": "dev",
				"methods": {
					"closeElection()": {
						"details": "Close election manually."
					},
					"deactivateCandidate(uint256)": {
						"details": "Deactivate a candidate before election opens."
					},
					"getAllPositions()": {
						"details": "Returns all known positions in the election."
					},
					"getCandidate(uint256)": {
						"details": "Returns candidate details."
					},
					"getCandidatesByPosition(string)": {
						"details": "Returns all candidate IDs for a given position."
					},
					"getPositionResults(string)": {
						"details": "Returns full results for a specific position."
					},
					"hasDelegateVotedForPosition(address,string)": {
						"details": "Returns whether a delegate has voted for a specific position."
					},
					"openElection(uint256)": {
						"details": "Open the election for a given number of minutes."
					},
					"registerCandidate(string,string,string)": {
						"details": "Register a candidate for a SACCO position. Example positions: Chairperson, Treasurer, Director"
					},
					"registerDelegate(address,string,string)": {
						"details": "Register a qualified delegate who can vote."
					},
					"timeLeft()": {
						"details": "Returns time left in seconds."
					},
					"transferAdmin(address)": {
						"details": "Transfer admin role to another address."
					},
					"vote(uint256)": {
						"details": "Cast one vote for one candidate in a given position. A delegate can vote only once per position."
					},
					"winnerDetails(string)": {
						"details": "Returns winner details for a given position."
					},
					"winningCandidate(string)": {
						"details": "Returns the winning candidate ID for a given position. Can only be called after election closes or deadline passes."
					}
				},
				"title": "SACCODirectorElection",
				"version": 1
			},
			"evm": {
				"assembly": "    /* \".git/MyContracts/SACCODirectorElection.sol\":300:11368  contract SACCODirectorElection {... */\n  mstore(0x40, 0x80)\n    /* \".git/MyContracts/SACCODirectorElection.sol\":468:469  1 */\n  0x01\n    /* \".git/MyContracts/SACCODirectorElection.sol\":434:469  uint256 private nextCandidateId = 1 */\n  0x02\n  sstore\n    /* \".git/MyContracts/SACCODirectorElection.sol\":2341:2392  constructor() {... */\n  callvalue\n  dup1\n  iszero\n  tag_1\n  jumpi\n  revert(0x00, 0x00)\ntag_1:\n  pop\n    /* \".git/MyContracts/SACCODirectorElection.sol\":2366:2371  admin */\n  0x00\n    /* \".git/MyContracts/SACCODirectorElection.sol\":2366:2384  admin = msg.sender */\n  dup1\n  sload\n  not(sub(shl(0xa0, 0x01), 0x01))\n  and\n    /* \".git/MyContracts/SACCODirectorElection.sol\":2374:2384  msg.sender */\n  caller\n    /* \".git/MyContracts/SACCODirectorElection.sol\":2366:2384  admin = msg.sender */\n  or\n  swap1\n  sstore\n    /* \".git/MyContracts/SACCODirectorElection.sol\":300:11368  contract SACCODirectorElection {... */\n  dataSize(sub_0)\n  dup1\n  dataOffset(sub_0)\n  0x00\n  codecopy\n  0x00\n  return\nstop\n\nsub_0: assembly {\n        /* \".git/MyContracts/SACCODirectorElection.sol\":300:11368  contract SACCODirectorElection {... */\n      mstore(0x40, 0x80)\n      callvalue\n      dup1\n      iszero\n      tag_1\n      jumpi\n      revert(0x00, 0x00)\n    tag_1:\n      pop\n      jumpi(tag_2, lt(calldatasize, 0x04))\n      shr(0xe0, calldataload(0x00))\n      dup1\n      0x35c3c876\n      gt\n      tag_23\n      jumpi\n      dup1\n      0x6c6c32d0\n      gt\n      tag_24\n      jumpi\n      dup1\n      0x6c6c32d0\n      eq\n      tag_18\n      jumpi\n      dup1\n      0x75829def\n      eq\n      tag_19\n      jumpi\n      dup1\n      0x97341d59\n      eq\n      tag_20\n      jumpi\n      dup1\n      0x9a1d5956\n      eq\n      tag_21\n      jumpi\n      dup1\n      0xf851a440\n      eq\n      tag_22\n      jumpi\n      revert(0x00, 0x00)\n    tag_24:\n      dup1\n      0x35c3c876\n      eq\n      tag_13\n      jumpi\n      dup1\n      0x4a39d442\n      eq\n      tag_14\n      jumpi\n      dup1\n      0x587cde1e\n      eq\n      tag_15\n      jumpi\n      dup1\n      0x5df6140c\n      eq\n      tag_16\n      jumpi\n      dup1\n      0x61806886\n      eq\n      tag_17\n      jumpi\n      revert(0x00, 0x00)\n    tag_23:\n      dup1\n      0x1a7f453d\n      gt\n      tag_25\n      jumpi\n      dup1\n      0x1a7f453d\n      eq\n      tag_8\n      jumpi\n      dup1\n      0x27e4a5cc\n      eq\n      tag_9\n      jumpi\n      dup1\n      0x2da03d3c\n      eq\n      tag_10\n      jumpi\n      dup1\n      0x3477ee2e\n      eq\n      tag_11\n      jumpi\n      dup1\n      0x35b8e820\n      eq\n      tag_12\n      jumpi\n      revert(0x00, 0x00)\n    tag_25:\n      dup1\n      0x0121b93f\n      eq\n      tag_3\n      jumpi\n      dup1\n      0x036ee850\n      eq\n      tag_4\n      jumpi\n      dup1\n      0x1300a6d1\n      eq\n      tag_5\n      jumpi\n      dup1\n      0x18f56a0a\n      eq\n      tag_6\n      jumpi\n      dup1\n      0x1912bc11\n      eq\n      tag_7\n      jumpi\n    tag_2:\n      revert(0x00, 0x00)\n        /* \".git/MyContracts/SACCODirectorElection.sol\":6205:6964  function vote(uint256 candidateId) external onlyWhenOpen {... */\n    tag_3:\n      tag_26\n      tag_27\n      calldatasize\n      0x04\n      tag_28\n      jump\t// in\n    tag_27:\n      tag_29\n      jump\t// in\n    tag_26:\n      stop\n        /* \".git/MyContracts/SACCODirectorElection.sol\":396:425  uint256 public votingDeadline */\n    tag_4:\n      tag_30\n      sload(0x01)\n      dup2\n      jump\n    tag_30:\n      mload(0x40)\n        /* \"#utility.yul\":345:370   */\n      swap1\n      dup2\n      mstore\n        /* \"#utility.yul\":333:335   */\n      0x20\n        /* \"#utility.yul\":318:336   */\n      add\n        /* \".git/MyContracts/SACCODirectorElection.sol\":396:425  uint256 public votingDeadline */\n    tag_32:\n      mload(0x40)\n      dup1\n      swap2\n      sub\n      swap1\n      return\n        /* \".git/MyContracts/SACCODirectorElection.sol\":10818:11029  function timeLeft() external view returns (uint256) {... */\n    tag_5:\n      tag_30\n      tag_35\n      jump\t// in\n        /* \".git/MyContracts/SACCODirectorElection.sol\":7996:8101  function getAllPositions() external view returns (string[] memory) {... */\n    tag_6:\n      tag_37\n      tag_38\n      jump\t// in\n    tag_37:\n      mload(0x40)\n      tag_32\n      swap2\n      swap1\n      tag_40\n      jump\t// in\n        /* \".git/MyContracts/SACCODirectorElection.sol\":9384:9839  function winnerDetails(string memory position)... */\n    tag_7:\n      tag_41\n      tag_42\n      calldatasize\n      0x04\n      tag_43\n      jump\t// in\n    tag_42:\n      tag_44\n      jump\t// in\n    tag_41:\n      mload(0x40)\n      tag_32\n      swap5\n      swap4\n      swap3\n      swap2\n      swap1\n      tag_46\n      jump\t// in\n        /* \".git/MyContracts/SACCODirectorElection.sol\":8202:8414  function hasDelegateVotedForPosition(... */\n    tag_8:\n      tag_47\n      tag_48\n      calldatasize\n      0x04\n      tag_49\n      jump\t// in\n    tag_48:\n      tag_50\n      jump\t// in\n    tag_47:\n      mload(0x40)\n        /* \"#utility.yul\":4010:4024   */\n      swap1\n      iszero\n        /* \"#utility.yul\":4003:4025   */\n      iszero\n        /* \"#utility.yul\":3985:4026   */\n      dup2\n      mstore\n        /* \"#utility.yul\":3973:3975   */\n      0x20\n        /* \"#utility.yul\":3958:3976   */\n      add\n        /* \".git/MyContracts/SACCODirectorElection.sol\":8202:8414  function hasDelegateVotedForPosition(... */\n      tag_32\n        /* \"#utility.yul\":3845:4032   */\n      jump\n        /* \".git/MyContracts/SACCODirectorElection.sol\":9924:10749  function getPositionResults(string memory position)... */\n    tag_9:\n      tag_53\n      tag_54\n      calldatasize\n      0x04\n      tag_43\n      jump\t// in\n    tag_54:\n      tag_55\n      jump\t// in\n    tag_53:\n      mload(0x40)\n      tag_32\n      swap5\n      swap4\n      swap3\n      swap2\n      swap1\n      tag_57\n      jump\t// in\n        /* \".git/MyContracts/SACCODirectorElection.sol\":2475:3305  function registerDelegate(... */\n    tag_10:\n      tag_26\n      tag_59\n      calldatasize\n      0x04\n      tag_60\n      jump\t// in\n    tag_59:\n      tag_61\n      jump\t// in\n        /* \".git/MyContracts/SACCODirectorElection.sol\":870:917  mapping(uint256 => Candidate) public candidates */\n    tag_11:\n      tag_62\n      tag_63\n      calldatasize\n      0x04\n      tag_28\n      jump\t// in\n    tag_63:\n      tag_64\n      jump\t// in\n    tag_62:\n      mload(0x40)\n      tag_32\n      swap7\n      swap6\n      swap5\n      swap4\n      swap3\n      swap2\n      swap1\n      tag_66\n      jump\t// in\n        /* \".git/MyContracts/SACCODirectorElection.sol\":7030:7639  function getCandidate(uint256 candidateId)... */\n    tag_12:\n      tag_62\n      tag_68\n      calldatasize\n      0x04\n      tag_28\n      jump\t// in\n    tag_68:\n      tag_69\n      jump\t// in\n        /* \".git/MyContracts/SACCODirectorElection.sol\":3447:4836  function registerCandidate(... */\n    tag_13:\n      tag_26\n      tag_72\n      calldatasize\n      0x04\n      tag_73\n      jump\t// in\n    tag_72:\n      tag_74\n      jump\t// in\n        /* \".git/MyContracts/SACCODirectorElection.sol\":365:389  bool public electionOpen */\n    tag_14:\n      sload(0x00)\n      tag_47\n      swap1\n      shl(0xa0, 0x01)\n      swap1\n      div\n      0xff\n      and\n      dup2\n      jump\n        /* \".git/MyContracts/SACCODirectorElection.sol\":818:863  mapping(address => Delegate) public delegates */\n    tag_15:\n      tag_78\n      tag_79\n      calldatasize\n      0x04\n      tag_80\n      jump\t// in\n    tag_79:\n      tag_81\n      jump\t// in\n    tag_78:\n      mload(0x40)\n      tag_32\n      swap4\n      swap3\n      swap2\n      swap1\n      tag_83\n      jump\t// in\n        /* \".git/MyContracts/SACCODirectorElection.sol\":8577:9300  function winningCandidate(string memory position)... */\n    tag_16:\n      tag_30\n      tag_85\n      calldatasize\n      0x04\n      tag_43\n      jump\t// in\n    tag_85:\n      tag_86\n      jump\t// in\n        /* \".git/MyContracts/SACCODirectorElection.sol\":7726:7912  function getCandidatesByPosition(string memory position)... */\n    tag_17:\n      tag_88\n      tag_89\n      calldatasize\n      0x04\n      tag_43\n      jump\t// in\n    tag_89:\n      tag_90\n      jump\t// in\n    tag_88:\n      mload(0x40)\n      tag_32\n      swap2\n      swap1\n      tag_92\n      jump\t// in\n        /* \".git/MyContracts/SACCODirectorElection.sol\":5873:6061  function closeElection() external onlyAdmin {... */\n    tag_18:\n      tag_26\n      tag_94\n      jump\t// in\n        /* \".git/MyContracts/SACCODirectorElection.sol\":11108:11365  function transferAdmin(address newAdmin) external onlyAdmin {... */\n    tag_19:\n      tag_26\n      tag_96\n      calldatasize\n      0x04\n      tag_80\n      jump\t// in\n    tag_96:\n      tag_97\n      jump\t// in\n        /* \".git/MyContracts/SACCODirectorElection.sol\":4921:5351  function deactivateCandidate(uint256 candidateId) external onlyAdmin {... */\n    tag_20:\n      tag_26\n      tag_99\n      calldatasize\n      0x04\n      tag_28\n      jump\t// in\n    tag_99:\n      tag_100\n      jump\t// in\n        /* \".git/MyContracts/SACCODirectorElection.sol\":5439:5809  function openElection(uint256 durationInMinutes) external onlyAdmin {... */\n    tag_21:\n      tag_26\n      tag_102\n      calldatasize\n      0x04\n      tag_28\n      jump\t// in\n    tag_102:\n      tag_103\n      jump\t// in\n        /* \".git/MyContracts/SACCODirectorElection.sol\":338:358  address public admin */\n    tag_22:\n      sload(0x00)\n      tag_104\n      swap1\n      sub(shl(0xa0, 0x01), 0x01)\n      and\n      dup2\n      jump\n    tag_104:\n      mload(0x40)\n      sub(shl(0xa0, 0x01), 0x01)\n        /* \"#utility.yul\":8933:8965   */\n      swap1\n      swap2\n      and\n        /* \"#utility.yul\":8915:8966   */\n      dup2\n      mstore\n        /* \"#utility.yul\":8903:8905   */\n      0x20\n        /* \"#utility.yul\":8888:8906   */\n      add\n        /* \".git/MyContracts/SACCODirectorElection.sol\":338:358  address public admin */\n      tag_32\n        /* \"#utility.yul\":8769:8972   */\n      jump\n        /* \".git/MyContracts/SACCODirectorElection.sol\":6205:6964  function vote(uint256 candidateId) external onlyWhenOpen {... */\n    tag_29:\n        /* \".git/MyContracts/SACCODirectorElection.sol\":2004:2016  electionOpen */\n      sload(0x00)\n      shl(0xa0, 0x01)\n      swap1\n      div\n      0xff\n      and\n        /* \".git/MyContracts/SACCODirectorElection.sol\":1996:2041  require(electionOpen, \"Election is not open\") */\n      tag_109\n      jumpi\n      mload(0x40)\n      shl(0xe5, 0x461bcd)\n      dup2\n      mstore\n        /* \"#utility.yul\":9179:9181   */\n      0x20\n        /* \".git/MyContracts/SACCODirectorElection.sol\":1996:2041  require(electionOpen, \"Election is not open\") */\n      0x04\n      dup3\n      add\n        /* \"#utility.yul\":9161:9182   */\n      mstore\n        /* \"#utility.yul\":9218:9220   */\n      0x14\n        /* \"#utility.yul\":9198:9216   */\n      0x24\n      dup3\n      add\n        /* \"#utility.yul\":9191:9221   */\n      mstore\n      shl(0x61, 0x22b632b1ba34b7b71034b9903737ba1037b832b7)\n        /* \"#utility.yul\":9237:9255   */\n      0x44\n      dup3\n      add\n        /* \"#utility.yul\":9230:9280   */\n      mstore\n        /* \"#utility.yul\":9297:9315   */\n      0x64\n      add\n        /* \".git/MyContracts/SACCODirectorElection.sol\":1996:2041  require(electionOpen, \"Election is not open\") */\n    tag_110:\n      mload(0x40)\n      dup1\n      swap2\n      sub\n      swap1\n      revert\n    tag_109:\n        /* \".git/MyContracts/SACCODirectorElection.sol\":2078:2092  votingDeadline */\n      sload(0x01)\n        /* \".git/MyContracts/SACCODirectorElection.sol\":2060:2075  block.timestamp */\n      timestamp\n        /* \".git/MyContracts/SACCODirectorElection.sol\":2060:2092  block.timestamp < votingDeadline */\n      lt\n        /* \".git/MyContracts/SACCODirectorElection.sol\":2052:2123  require(block.timestamp < votingDeadline, \"Voting deadline has passed\") */\n      tag_112\n      jumpi\n      mload(0x40)\n      shl(0xe5, 0x461bcd)\n      dup2\n      mstore\n        /* \"#utility.yul\":9528:9530   */\n      0x20\n        /* \".git/MyContracts/SACCODirectorElection.sol\":2052:2123  require(block.timestamp < votingDeadline, \"Voting deadline has passed\") */\n      0x04\n      dup3\n      add\n        /* \"#utility.yul\":9510:9531   */\n      mstore\n        /* \"#utility.yul\":9567:9569   */\n      0x1a\n        /* \"#utility.yul\":9547:9565   */\n      0x24\n      dup3\n      add\n        /* \"#utility.yul\":9540:9570   */\n      mstore\n        /* \"#utility.yul\":9606:9634   */\n      0x566f74696e6720646561646c696e652068617320706173736564000000000000\n        /* \"#utility.yul\":9586:9604   */\n      0x44\n      dup3\n      add\n        /* \"#utility.yul\":9579:9635   */\n      mstore\n        /* \"#utility.yul\":9652:9670   */\n      0x64\n      add\n        /* \".git/MyContracts/SACCODirectorElection.sol\":2052:2123  require(block.timestamp < votingDeadline, \"Voting deadline has passed\") */\n      tag_110\n        /* \"#utility.yul\":9326:9676   */\n      jump\n        /* \".git/MyContracts/SACCODirectorElection.sol\":2052:2123  require(block.timestamp < votingDeadline, \"Voting deadline has passed\") */\n    tag_112:\n        /* \".git/MyContracts/SACCODirectorElection.sol\":6311:6321  msg.sender */\n      caller\n        /* \".git/MyContracts/SACCODirectorElection.sol\":6273:6298  Delegate memory delegate_ */\n      0x00\n        /* \".git/MyContracts/SACCODirectorElection.sol\":6301:6322  delegates[msg.sender] */\n      swap1\n      dup2\n      mstore\n        /* \".git/MyContracts/SACCODirectorElection.sol\":6301:6310  delegates */\n      0x04\n        /* \".git/MyContracts/SACCODirectorElection.sol\":6301:6322  delegates[msg.sender] */\n      0x20\n      swap1\n      dup2\n      mstore\n      0x40\n      dup1\n      dup4\n      keccak256\n        /* \".git/MyContracts/SACCODirectorElection.sol\":6273:6322  Delegate memory delegate_ = delegates[msg.sender] */\n      dup2\n      mload\n      0x60\n      dup2\n      add\n      swap1\n      swap3\n      mstore\n      dup1\n      sload\n      0xff\n      and\n      iszero\n      iszero\n      dup3\n      mstore\n      0x01\n      dup2\n      add\n      dup1\n      sload\n      swap3\n      swap4\n        /* \".git/MyContracts/SACCODirectorElection.sol\":6301:6322  delegates[msg.sender] */\n      swap2\n      swap3\n        /* \".git/MyContracts/SACCODirectorElection.sol\":6273:6322  Delegate memory delegate_ = delegates[msg.sender] */\n      swap2\n      dup5\n      add\n      swap2\n      tag_116\n      swap1\n      tag_117\n      jump\t// in\n    tag_116:\n      dup1\n      0x1f\n      add\n      0x20\n      dup1\n      swap2\n      div\n      mul\n      0x20\n      add\n      mload(0x40)\n      swap1\n      dup2\n      add\n      0x40\n      mstore\n      dup1\n      swap3\n      swap2\n      swap1\n      dup2\n      dup2\n      mstore\n      0x20\n      add\n      dup3\n      dup1\n      sload\n      tag_118\n      swap1\n      tag_117\n      jump\t// in\n    tag_118:\n      dup1\n      iszero\n      tag_119\n      jumpi\n      dup1\n      0x1f\n      lt\n      tag_120\n      jumpi\n      0x0100\n      dup1\n      dup4\n      sload\n      div\n      mul\n      dup4\n      mstore\n      swap2\n      0x20\n      add\n      swap2\n      jump(tag_119)\n    tag_120:\n      dup3\n      add\n      swap2\n      swap1\n      0x00\n      mstore\n      keccak256(0x00, 0x20)\n      swap1\n    tag_121:\n      dup2\n      sload\n      dup2\n      mstore\n      swap1\n      0x01\n      add\n      swap1\n      0x20\n      add\n      dup1\n      dup4\n      gt\n      tag_121\n      jumpi\n      dup3\n      swap1\n      sub\n      0x1f\n      and\n      dup3\n      add\n      swap2\n    tag_119:\n      pop\n      pop\n      pop\n      pop\n      pop\n      dup2\n      mstore\n      0x20\n      add\n      0x02\n      dup3\n      add\n      dup1\n      sload\n      tag_122\n      swap1\n      tag_117\n      jump\t// in\n    tag_122:\n      dup1\n      0x1f\n      add\n      0x20\n      dup1\n      swap2\n      div\n      mul\n      0x20\n      add\n      mload(0x40)\n      swap1\n      dup2\n      add\n      0x40\n      mstore\n      dup1\n      swap3\n      swap2\n      swap1\n      dup2\n      dup2\n      mstore\n      0x20\n      add\n      dup3\n      dup1\n      sload\n      tag_123\n      swap1\n      tag_117\n      jump\t// in\n    tag_123:\n      dup1\n      iszero\n      tag_124\n      jumpi\n      dup1\n      0x1f\n      lt\n      tag_125\n      jumpi\n      0x0100\n      dup1\n      dup4\n      sload\n      div\n      mul\n      dup4\n      mstore\n      swap2\n      0x20\n      add\n      swap2\n      jump(tag_124)\n    tag_125:\n      dup3\n      add\n      swap2\n      swap1\n      0x00\n      mstore\n      keccak256(0x00, 0x20)\n      swap1\n    tag_126:\n      dup2\n      sload\n      dup2\n      mstore\n      swap1\n      0x01\n      add\n      swap1\n      0x20\n      add\n      dup1\n      dup4\n      gt\n      tag_126\n      jumpi\n      dup3\n      swap1\n      sub\n      0x1f\n      and\n      dup3\n      add\n      swap2\n    tag_124:\n      pop\n      pop\n      pop\n      pop\n      pop\n      dup2\n      mstore\n      pop\n      pop\n      swap1\n      pop\n        /* \".git/MyContracts/SACCODirectorElection.sol\":6341:6350  delegate_ */\n      dup1\n        /* \".git/MyContracts/SACCODirectorElection.sol\":6341:6363  delegate_.isRegistered */\n      0x00\n      add\n      mload\n        /* \".git/MyContracts/SACCODirectorElection.sol\":6333:6402  require(delegate_.isRegistered, \"Only registered delegates can vote\") */\n      tag_127\n      jumpi\n      mload(0x40)\n      shl(0xe5, 0x461bcd)\n      dup2\n      mstore\n        /* \"#utility.yul\":10268:10270   */\n      0x20\n        /* \".git/MyContracts/SACCODirectorElection.sol\":6333:6402  require(delegate_.isRegistered, \"Only registered delegates can vote\") */\n      0x04\n      dup3\n      add\n        /* \"#utility.yul\":10250:10271   */\n      mstore\n        /* \"#utility.yul\":10307:10309   */\n      0x22\n        /* \"#utility.yul\":10287:10305   */\n      0x24\n      dup3\n      add\n        /* \"#utility.yul\":10280:10310   */\n      mstore\n        /* \"#utility.yul\":10346:10380   */\n      0x4f6e6c7920726567697374657265642064656c6567617465732063616e20766f\n        /* \"#utility.yul\":10326:10344   */\n      0x44\n      dup3\n      add\n        /* \"#utility.yul\":10319:10381   */\n      mstore\n      shl(0xf0, 0x7465)\n        /* \"#utility.yul\":10397:10415   */\n      0x64\n      dup3\n      add\n        /* \"#utility.yul\":10390:10422   */\n      mstore\n        /* \"#utility.yul\":10439:10458   */\n      0x84\n      add\n        /* \".git/MyContracts/SACCODirectorElection.sol\":6333:6402  require(delegate_.isRegistered, \"Only registered delegates can vote\") */\n      tag_110\n        /* \"#utility.yul\":10066:10464   */\n      jump\n        /* \".git/MyContracts/SACCODirectorElection.sol\":6333:6402  require(delegate_.isRegistered, \"Only registered delegates can vote\") */\n    tag_127:\n        /* \".git/MyContracts/SACCODirectorElection.sol\":6415:6442  Candidate storage candidate */\n      0x00\n        /* \".git/MyContracts/SACCODirectorElection.sol\":6445:6468  candidates[candidateId] */\n      dup3\n      dup2\n      mstore\n        /* \".git/MyContracts/SACCODirectorElection.sol\":6445:6455  candidates */\n      0x05\n        /* \".git/MyContracts/SACCODirectorElection.sol\":6445:6468  candidates[candidateId] */\n      0x20\n      mstore\n      0x40\n      dup2\n      keccak256\n        /* \".git/MyContracts/SACCODirectorElection.sol\":6487:6499  candidate.id */\n      dup1\n      sload\n        /* \".git/MyContracts/SACCODirectorElection.sol\":6445:6468  candidates[candidateId] */\n      swap1\n      swap2\n        /* \".git/MyContracts/SACCODirectorElection.sol\":6487:6504  candidate.id != 0 */\n      sub\n        /* \".git/MyContracts/SACCODirectorElection.sol\":6479:6533  require(candidate.id != 0, \"Candidate does not exist\") */\n      tag_130\n      jumpi\n      mload(0x40)\n      shl(0xe5, 0x461bcd)\n      dup2\n      mstore\n      0x04\n      add\n      tag_110\n      swap1\n      tag_132\n      jump\t// in\n    tag_130:\n        /* \".git/MyContracts/SACCODirectorElection.sol\":6552:6570  candidate.isActive */\n      0x05\n      dup2\n      add\n      sload\n      0xff\n      and\n        /* \".git/MyContracts/SACCODirectorElection.sol\":6544:6598  require(candidate.isActive, \"Candidate is not active\") */\n      tag_133\n      jumpi\n      mload(0x40)\n      shl(0xe5, 0x461bcd)\n      dup2\n      mstore\n        /* \"#utility.yul\":11024:11026   */\n      0x20\n        /* \".git/MyContracts/SACCODirectorElection.sol\":6544:6598  require(candidate.isActive, \"Candidate is not active\") */\n      0x04\n      dup3\n      add\n        /* \"#utility.yul\":11006:11027   */\n      mstore\n        /* \"#utility.yul\":11063:11065   */\n      0x17\n        /* \"#utility.yul\":11043:11061   */\n      0x24\n      dup3\n      add\n        /* \"#utility.yul\":11036:11066   */\n      mstore\n        /* \"#utility.yul\":11102:11127   */\n      0x43616e646964617465206973206e6f7420616374697665000000000000000000\n        /* \"#utility.yul\":11082:11100   */\n      0x44\n      dup3\n      add\n        /* \"#utility.yul\":11075:11128   */\n      mstore\n        /* \"#utility.yul\":11145:11163   */\n      0x64\n      add\n        /* \".git/MyContracts/SACCODirectorElection.sol\":6544:6598  require(candidate.isActive, \"Candidate is not active\") */\n      tag_110\n        /* \"#utility.yul\":10822:11169   */\n      jump\n        /* \".git/MyContracts/SACCODirectorElection.sol\":6544:6598  require(candidate.isActive, \"Candidate is not active\") */\n    tag_133:\n        /* \".git/MyContracts/SACCODirectorElection.sol\":6611:6633  string memory position */\n      0x00\n        /* \".git/MyContracts/SACCODirectorElection.sol\":6636:6645  candidate */\n      dup2\n        /* \".git/MyContracts/SACCODirectorElection.sol\":6636:6654  candidate.position */\n      0x03\n      add\n        /* \".git/MyContracts/SACCODirectorElection.sol\":6611:6654  string memory position = candidate.position */\n      dup1\n      sload\n      tag_136\n      swap1\n      tag_117\n      jump\t// in\n    tag_136:\n      dup1\n      0x1f\n      add\n      0x20\n      dup1\n      swap2\n      div\n      mul\n      0x20\n      add\n      mload(0x40)\n      swap1\n      dup2\n      add\n      0x40\n      mstore\n      dup1\n      swap3\n      swap2\n      swap1\n      dup2\n      dup2\n      mstore\n      0x20\n      add\n      dup3\n      dup1\n      sload\n      tag_137\n      swap1\n      tag_117\n      jump\t// in\n    tag_137:\n      dup1\n      iszero\n      tag_138\n      jumpi\n      dup1\n      0x1f\n      lt\n      tag_139\n      jumpi\n      0x0100\n      dup1\n      dup4\n      sload\n      div\n      mul\n      dup4\n      mstore\n      swap2\n      0x20\n      add\n      swap2\n      jump(tag_138)\n    tag_139:\n      dup3\n      add\n      swap2\n      swap1\n      0x00\n      mstore\n      keccak256(0x00, 0x20)\n      swap1\n    tag_140:\n      dup2\n      sload\n      dup2\n      mstore\n      swap1\n      0x01\n      add\n      swap1\n      0x20\n      add\n      dup1\n      dup4\n      gt\n      tag_140\n      jumpi\n      dup3\n      swap1\n      sub\n      0x1f\n      and\n      dup3\n      add\n      swap2\n    tag_138:\n      pop\n      pop\n        /* \".git/MyContracts/SACCODirectorElection.sol\":6710:6720  msg.sender */\n      caller\n        /* \".git/MyContracts/SACCODirectorElection.sol\":6690:6721  hasVotedForPosition[msg.sender] */\n      0x00\n      swap1\n      dup2\n      mstore\n        /* \".git/MyContracts/SACCODirectorElection.sol\":6690:6709  hasVotedForPosition */\n      0x07\n        /* \".git/MyContracts/SACCODirectorElection.sol\":6690:6721  hasVotedForPosition[msg.sender] */\n      0x20\n      mstore\n      0x40\n      swap1\n      dup2\n      swap1\n      keccak256\n        /* \".git/MyContracts/SACCODirectorElection.sol\":6690:6731  hasVotedForPosition[msg.sender][position] */\n      swap1\n      mload\n        /* \".git/MyContracts/SACCODirectorElection.sol\":6611:6654  string memory position = candidate.position */\n      swap5\n      swap6\n      pop\n        /* \".git/MyContracts/SACCODirectorElection.sol\":6690:6721  hasVotedForPosition[msg.sender] */\n      swap4\n        /* \".git/MyContracts/SACCODirectorElection.sol\":6690:6731  hasVotedForPosition[msg.sender][position] */\n      tag_141\n      swap4\n      pop\n        /* \".git/MyContracts/SACCODirectorElection.sol\":6611:6654  string memory position = candidate.position */\n      dup6\n      swap3\n      pop\n        /* \".git/MyContracts/SACCODirectorElection.sol\":6690:6731  hasVotedForPosition[msg.sender][position] */\n      swap1\n      pop\n      tag_142\n      jump\t// in\n    tag_141:\n      swap1\n      dup2\n      mstore\n      mload(0x40)\n      swap1\n      dup2\n      swap1\n      sub\n      0x20\n      add\n      swap1\n      keccak256\n      sload\n      0xff\n      and\n        /* \".git/MyContracts/SACCODirectorElection.sol\":6689:6731  !hasVotedForPosition[msg.sender][position] */\n      iszero\n        /* \".git/MyContracts/SACCODirectorElection.sol\":6667:6799  require(... */\n      tag_143\n      jumpi\n      mload(0x40)\n      shl(0xe5, 0x461bcd)\n      dup2\n      mstore\n        /* \"#utility.yul\":11684:11686   */\n      0x20\n        /* \".git/MyContracts/SACCODirectorElection.sol\":6667:6799  require(... */\n      0x04\n      dup3\n      add\n        /* \"#utility.yul\":11666:11687   */\n      mstore\n        /* \"#utility.yul\":11723:11725   */\n      0x28\n        /* \"#utility.yul\":11703:11721   */\n      0x24\n      dup3\n      add\n        /* \"#utility.yul\":11696:11726   */\n      mstore\n        /* \"#utility.yul\":11762:11796   */\n      0x596f75206861766520616c726561647920766f74656420666f72207468697320\n        /* \"#utility.yul\":11742:11760   */\n      0x44\n      dup3\n      add\n        /* \"#utility.yul\":11735:11797   */\n      mstore\n      shl(0xc1, 0x3837b9b4ba34b7b7)\n        /* \"#utility.yul\":11813:11831   */\n      0x64\n      dup3\n      add\n        /* \"#utility.yul\":11806:11844   */\n      mstore\n        /* \"#utility.yul\":11861:11880   */\n      0x84\n      add\n        /* \".git/MyContracts/SACCODirectorElection.sol\":6667:6799  require(... */\n      tag_110\n        /* \"#utility.yul\":11482:11886   */\n      jump\n        /* \".git/MyContracts/SACCODirectorElection.sol\":6667:6799  require(... */\n    tag_143:\n        /* \".git/MyContracts/SACCODirectorElection.sol\":6832:6842  msg.sender */\n      caller\n        /* \".git/MyContracts/SACCODirectorElection.sol\":6812:6843  hasVotedForPosition[msg.sender] */\n      0x00\n      swap1\n      dup2\n      mstore\n        /* \".git/MyContracts/SACCODirectorElection.sol\":6812:6831  hasVotedForPosition */\n      0x07\n        /* \".git/MyContracts/SACCODirectorElection.sol\":6812:6843  hasVotedForPosition[msg.sender] */\n      0x20\n      mstore\n      0x40\n      swap1\n      dup2\n      swap1\n      keccak256\n        /* \".git/MyContracts/SACCODirectorElection.sol\":6812:6853  hasVotedForPosition[msg.sender][position] */\n      swap1\n      mload\n        /* \".git/MyContracts/SACCODirectorElection.sol\":6856:6860  true */\n      0x01\n      swap2\n        /* \".git/MyContracts/SACCODirectorElection.sol\":6812:6843  hasVotedForPosition[msg.sender] */\n      swap1\n        /* \".git/MyContracts/SACCODirectorElection.sol\":6812:6853  hasVotedForPosition[msg.sender][position] */\n      tag_146\n      swap1\n        /* \".git/MyContracts/SACCODirectorElection.sol\":6844:6852  position */\n      dup5\n      swap1\n        /* \".git/MyContracts/SACCODirectorElection.sol\":6812:6853  hasVotedForPosition[msg.sender][position] */\n      tag_142\n      jump\t// in\n    tag_146:\n      swap1\n      dup2\n      mstore\n      0x20\n      add\n      mload(0x40)\n      dup1\n      swap2\n      sub\n      swap1\n      keccak256\n      0x00\n        /* \".git/MyContracts/SACCODirectorElection.sol\":6812:6860  hasVotedForPosition[msg.sender][position] = true */\n      0x0100\n      exp\n      dup2\n      sload\n      dup2\n      0xff\n      mul\n      not\n      and\n      swap1\n      dup4\n      iszero\n      iszero\n      mul\n      or\n      swap1\n      sstore\n      pop\n        /* \".git/MyContracts/SACCODirectorElection.sol\":6894:6895  1 */\n      0x01\n        /* \".git/MyContracts/SACCODirectorElection.sol\":6871:6880  candidate */\n      dup3\n        /* \".git/MyContracts/SACCODirectorElection.sol\":6871:6890  candidate.voteCount */\n      0x04\n      add\n      0x00\n        /* \".git/MyContracts/SACCODirectorElection.sol\":6871:6895  candidate.voteCount += 1 */\n      dup3\n      dup3\n      sload\n      tag_147\n      swap2\n      swap1\n      tag_148\n      jump\t// in\n    tag_147:\n      swap1\n      swap2\n      sstore\n      pop\n      pop\n        /* \".git/MyContracts/SACCODirectorElection.sol\":6913:6956  VoteCast(msg.sender, candidateId, position) */\n      mload(0x40)\n        /* \".git/MyContracts/SACCODirectorElection.sol\":6934:6945  candidateId */\n      dup5\n      swap1\n        /* \".git/MyContracts/SACCODirectorElection.sol\":6922:6932  msg.sender */\n      caller\n      swap1\n        /* \".git/MyContracts/SACCODirectorElection.sol\":6913:6956  VoteCast(msg.sender, candidateId, position) */\n      0x41aeb55eef25a94e94aeac300a628610ffa8099eb2bf991b3ae640d42233467d\n      swap1\n      tag_149\n      swap1\n        /* \".git/MyContracts/SACCODirectorElection.sol\":6947:6955  position */\n      dup6\n      swap1\n        /* \".git/MyContracts/SACCODirectorElection.sol\":6913:6956  VoteCast(msg.sender, candidateId, position) */\n      tag_150\n      jump\t// in\n    tag_149:\n      mload(0x40)\n      dup1\n      swap2\n      sub\n      swap1\n      log3\n        /* \".git/MyContracts/SACCODirectorElection.sol\":6262:6964  {... */\n      pop\n      pop\n      pop\n        /* \".git/MyContracts/SACCODirectorElection.sol\":6205:6964  function vote(uint256 candidateId) external onlyWhenOpen {... */\n      pop\n      jump\t// out\n        /* \".git/MyContracts/SACCODirectorElection.sol\":10818:11029  function timeLeft() external view returns (uint256) {... */\n    tag_35:\n        /* \".git/MyContracts/SACCODirectorElection.sol\":10861:10868  uint256 */\n      0x00\n        /* \".git/MyContracts/SACCODirectorElection.sol\":10886:10898  electionOpen */\n      dup1\n      sload\n      shl(0xa0, 0x01)\n      swap1\n      div\n      0xff\n      and\n        /* \".git/MyContracts/SACCODirectorElection.sol\":10885:10898  !electionOpen */\n      iszero\n      dup1\n        /* \".git/MyContracts/SACCODirectorElection.sol\":10885:10935  !electionOpen || block.timestamp >= votingDeadline */\n      tag_152\n      jumpi\n      pop\n        /* \".git/MyContracts/SACCODirectorElection.sol\":10921:10935  votingDeadline */\n      sload(0x01)\n        /* \".git/MyContracts/SACCODirectorElection.sol\":10902:10917  block.timestamp */\n      timestamp\n        /* \".git/MyContracts/SACCODirectorElection.sol\":10902:10935  block.timestamp >= votingDeadline */\n      lt\n      iszero\n        /* \".git/MyContracts/SACCODirectorElection.sol\":10885:10935  !electionOpen || block.timestamp >= votingDeadline */\n    tag_152:\n        /* \".git/MyContracts/SACCODirectorElection.sol\":10881:10972  if (!electionOpen || block.timestamp >= votingDeadline) {... */\n      iszero\n      tag_153\n      jumpi\n      pop\n        /* \".git/MyContracts/SACCODirectorElection.sol\":10959:10960  0 */\n      0x00\n      swap1\n        /* \".git/MyContracts/SACCODirectorElection.sol\":10818:11029  function timeLeft() external view returns (uint256) {... */\n      jump\t// out\n        /* \".git/MyContracts/SACCODirectorElection.sol\":10881:10972  if (!electionOpen || block.timestamp >= votingDeadline) {... */\n    tag_153:\n        /* \".git/MyContracts/SACCODirectorElection.sol\":11006:11021  block.timestamp */\n      timestamp\n        /* \".git/MyContracts/SACCODirectorElection.sol\":10989:11003  votingDeadline */\n      sload(0x01)\n        /* \".git/MyContracts/SACCODirectorElection.sol\":10989:11021  votingDeadline - block.timestamp */\n      tag_154\n      swap2\n      swap1\n      tag_155\n      jump\t// in\n    tag_154:\n        /* \".git/MyContracts/SACCODirectorElection.sol\":10982:11021  return votingDeadline - block.timestamp */\n      swap1\n      pop\n        /* \".git/MyContracts/SACCODirectorElection.sol\":10818:11029  function timeLeft() external view returns (uint256) {... */\n      swap1\n      jump\t// out\n        /* \".git/MyContracts/SACCODirectorElection.sol\":7996:8101  function getAllPositions() external view returns (string[] memory) {... */\n    tag_38:\n        /* \".git/MyContracts/SACCODirectorElection.sol\":8046:8061  string[] memory */\n      0x60\n        /* \".git/MyContracts/SACCODirectorElection.sol\":8081:8093  positionList */\n      0x03\n        /* \".git/MyContracts/SACCODirectorElection.sol\":8074:8093  return positionList */\n      dup1\n      sload\n      dup1\n      0x20\n      mul\n      0x20\n      add\n      mload(0x40)\n      swap1\n      dup2\n      add\n      0x40\n      mstore\n      dup1\n      swap3\n      swap2\n      swap1\n      dup2\n      dup2\n      mstore\n      0x20\n      add\n      0x00\n      swap1\n    tag_157:\n      dup3\n      dup3\n      lt\n      iszero\n      tag_158\n      jumpi\n      dup4\n      dup3\n      swap1\n      0x00\n      mstore\n      keccak256(0x00, 0x20)\n      add\n      dup1\n      sload\n      tag_160\n      swap1\n      tag_117\n      jump\t// in\n    tag_160:\n      dup1\n      0x1f\n      add\n      0x20\n      dup1\n      swap2\n      div\n      mul\n      0x20\n      add\n      mload(0x40)\n      swap1\n      dup2\n      add\n      0x40\n      mstore\n      dup1\n      swap3\n      swap2\n      swap1\n      dup2\n      dup2\n      mstore\n      0x20\n      add\n      dup3\n      dup1\n      sload\n      tag_161\n      swap1\n      tag_117\n      jump\t// in\n    tag_161:\n      dup1\n      iszero\n      tag_162\n      jumpi\n      dup1\n      0x1f\n      lt\n      tag_163\n      jumpi\n      0x0100\n      dup1\n      dup4\n      sload\n      div\n      mul\n      dup4\n      mstore\n      swap2\n      0x20\n      add\n      swap2\n      jump(tag_162)\n    tag_163:\n      dup3\n      add\n      swap2\n      swap1\n      0x00\n      mstore\n      keccak256(0x00, 0x20)\n      swap1\n    tag_164:\n      dup2\n      sload\n      dup2\n      mstore\n      swap1\n      0x01\n      add\n      swap1\n      0x20\n      add\n      dup1\n      dup4\n      gt\n      tag_164\n      jumpi\n      dup3\n      swap1\n      sub\n      0x1f\n      and\n      dup3\n      add\n      swap2\n    tag_162:\n      pop\n      pop\n      pop\n      pop\n      pop\n      dup2\n      mstore\n      0x20\n      add\n      swap1\n      0x01\n      add\n      swap1\n      jump(tag_157)\n    tag_158:\n      pop\n      pop\n      pop\n      pop\n      swap1\n      pop\n        /* \".git/MyContracts/SACCODirectorElection.sol\":7996:8101  function getAllPositions() external view returns (string[] memory) {... */\n      swap1\n      jump\t// out\n        /* \".git/MyContracts/SACCODirectorElection.sol\":9384:9839  function winnerDetails(string memory position)... */\n    tag_44:\n        /* \".git/MyContracts/SACCODirectorElection.sol\":9519:9529  uint256 id */\n      0x00\n        /* \".git/MyContracts/SACCODirectorElection.sol\":9544:9562  string memory name */\n      0x60\n        /* \".git/MyContracts/SACCODirectorElection.sol\":9577:9607  string memory membershipNumber */\n      dup1\n        /* \".git/MyContracts/SACCODirectorElection.sol\":9622:9639  uint256 voteCount */\n      0x00\n        /* \".git/MyContracts/SACCODirectorElection.sol\":2211:2223  electionOpen */\n      0x00\n      0x14\n      swap1\n      sload\n      swap1\n      0x0100\n      exp\n      swap1\n      div\n      0xff\n      and\n        /* \".git/MyContracts/SACCODirectorElection.sol\":2210:2223  !electionOpen */\n      iszero\n        /* \".git/MyContracts/SACCODirectorElection.sol\":2210:2260  !electionOpen || block.timestamp >= votingDeadline */\n      dup1\n      tag_166\n      jumpi\n      pop\n        /* \".git/MyContracts/SACCODirectorElection.sol\":2246:2260  votingDeadline */\n      sload(0x01)\n        /* \".git/MyContracts/SACCODirectorElection.sol\":2227:2242  block.timestamp */\n      timestamp\n        /* \".git/MyContracts/SACCODirectorElection.sol\":2227:2260  block.timestamp >= votingDeadline */\n      lt\n      iszero\n        /* \".git/MyContracts/SACCODirectorElection.sol\":2210:2260  !electionOpen || block.timestamp >= votingDeadline */\n    tag_166:\n        /* \".git/MyContracts/SACCODirectorElection.sol\":2188:2313  require(... */\n      tag_167\n      jumpi\n      mload(0x40)\n      shl(0xe5, 0x461bcd)\n      dup2\n      mstore\n        /* \"#utility.yul\":12713:12715   */\n      0x20\n        /* \".git/MyContracts/SACCODirectorElection.sol\":2188:2313  require(... */\n      0x04\n      dup3\n      add\n        /* \"#utility.yul\":12695:12716   */\n      mstore\n        /* \"#utility.yul\":12752:12754   */\n      0x19\n        /* \"#utility.yul\":12732:12750   */\n      0x24\n      dup3\n      add\n        /* \"#utility.yul\":12725:12755   */\n      mstore\n      shl(0x38, 0x456c656374696f6e206973207374696c6c206f6e676f696e67)\n        /* \"#utility.yul\":12771:12789   */\n      0x44\n      dup3\n      add\n        /* \"#utility.yul\":12764:12819   */\n      mstore\n        /* \"#utility.yul\":12836:12854   */\n      0x64\n      add\n        /* \".git/MyContracts/SACCODirectorElection.sol\":2188:2313  require(... */\n      tag_110\n        /* \"#utility.yul\":12511:12860   */\n      jump\n        /* \".git/MyContracts/SACCODirectorElection.sol\":2188:2313  require(... */\n    tag_167:\n        /* \".git/MyContracts/SACCODirectorElection.sol\":9667:9683  uint256 winnerId */\n      0x00\n        /* \".git/MyContracts/SACCODirectorElection.sol\":9686:9712  winningCandidate(position) */\n      tag_171\n        /* \".git/MyContracts/SACCODirectorElection.sol\":9703:9711  position */\n      dup7\n        /* \".git/MyContracts/SACCODirectorElection.sol\":9686:9702  winningCandidate */\n      tag_86\n        /* \".git/MyContracts/SACCODirectorElection.sol\":9686:9712  winningCandidate(position) */\n      jump\t// in\n    tag_171:\n        /* \".git/MyContracts/SACCODirectorElection.sol\":9667:9712  uint256 winnerId = winningCandidate(position) */\n      swap1\n      pop\n        /* \".git/MyContracts/SACCODirectorElection.sol\":9723:9741  Candidate memory c */\n      0x00\n        /* \".git/MyContracts/SACCODirectorElection.sol\":9744:9754  candidates */\n      0x05\n        /* \".git/MyContracts/SACCODirectorElection.sol\":9744:9764  candidates[winnerId] */\n      0x00\n        /* \".git/MyContracts/SACCODirectorElection.sol\":9755:9763  winnerId */\n      dup4\n        /* \".git/MyContracts/SACCODirectorElection.sol\":9744:9764  candidates[winnerId] */\n      dup2\n      mstore\n      0x20\n      add\n      swap1\n      dup2\n      mstore\n      0x20\n      add\n      0x00\n      keccak256\n        /* \".git/MyContracts/SACCODirectorElection.sol\":9723:9764  Candidate memory c = candidates[winnerId] */\n      mload(0x40)\n      dup1\n      0xc0\n      add\n      0x40\n      mstore\n      swap1\n      dup2\n      0x00\n      dup3\n      add\n      sload\n      dup2\n      mstore\n      0x20\n      add\n      0x01\n      dup3\n      add\n      dup1\n      sload\n      tag_172\n      swap1\n      tag_117\n      jump\t// in\n    tag_172:\n      dup1\n      0x1f\n      add\n      0x20\n      dup1\n      swap2\n      div\n      mul\n      0x20\n      add\n      mload(0x40)\n      swap1\n      dup2\n      add\n      0x40\n      mstore\n      dup1\n      swap3\n      swap2\n      swap1\n      dup2\n      dup2\n      mstore\n      0x20\n      add\n      dup3\n      dup1\n      sload\n      tag_173\n      swap1\n      tag_117\n      jump\t// in\n    tag_173:\n      dup1\n      iszero\n      tag_174\n      jumpi\n      dup1\n      0x1f\n      lt\n      tag_175\n      jumpi\n      0x0100\n      dup1\n      dup4\n      sload\n      div\n      mul\n      dup4\n      mstore\n      swap2\n      0x20\n      add\n      swap2\n      jump(tag_174)\n    tag_175:\n      dup3\n      add\n      swap2\n      swap1\n      0x00\n      mstore\n      keccak256(0x00, 0x20)\n      swap1\n    tag_176:\n      dup2\n      sload\n      dup2\n      mstore\n      swap1\n      0x01\n      add\n      swap1\n      0x20\n      add\n      dup1\n      dup4\n      gt\n      tag_176\n      jumpi\n      dup3\n      swap1\n      sub\n      0x1f\n      and\n      dup3\n      add\n      swap2\n    tag_174:\n      pop\n      pop\n      pop\n      pop\n      pop\n      dup2\n      mstore\n      0x20\n      add\n      0x02\n      dup3\n      add\n      dup1\n      sload\n      tag_177\n      swap1\n      tag_117\n      jump\t// in\n    tag_177:\n      dup1\n      0x1f\n      add\n      0x20\n      dup1\n      swap2\n      div\n      mul\n      0x20\n      add\n      mload(0x40)\n      swap1\n      dup2\n      add\n      0x40\n      mstore\n      dup1\n      swap3\n      swap2\n      swap1\n      dup2\n      dup2\n      mstore\n      0x20\n      add\n      dup3\n      dup1\n      sload\n      tag_178\n      swap1\n      tag_117\n      jump\t// in\n    tag_178:\n      dup1\n      iszero\n      tag_179\n      jumpi\n      dup1\n      0x1f\n      lt\n      tag_180\n      jumpi\n      0x0100\n      dup1\n      dup4\n      sload\n      div\n      mul\n      dup4\n      mstore\n      swap2\n      0x20\n      add\n      swap2\n      jump(tag_179)\n    tag_180:\n      dup3\n      add\n      swap2\n      swap1\n      0x00\n      mstore\n      keccak256(0x00, 0x20)\n      swap1\n    tag_181:\n      dup2\n      sload\n      dup2\n      mstore\n      swap1\n      0x01\n      add\n      swap1\n      0x20\n      add\n      dup1\n      dup4\n      gt\n      tag_181\n      jumpi\n      dup3\n      swap1\n      sub\n      0x1f\n      and\n      dup3\n      add\n      swap2\n    tag_179:\n      pop\n      pop\n      pop\n      pop\n      pop\n      dup2\n      mstore\n      0x20\n      add\n      0x03\n      dup3\n      add\n      dup1\n      sload\n      tag_182\n      swap1\n      tag_117\n      jump\t// in\n    tag_182:\n      dup1\n      0x1f\n      add\n      0x20\n      dup1\n      swap2\n      div\n      mul\n      0x20\n      add\n      mload(0x40)\n      swap1\n      dup2\n      add\n      0x40\n      mstore\n      dup1\n      swap3\n      swap2\n      swap1\n      dup2\n      dup2\n      mstore\n      0x20\n      add\n      dup3\n      dup1\n      sload\n      tag_183\n      swap1\n      tag_117\n      jump\t// in\n    tag_183:\n      dup1\n      iszero\n      tag_184\n      jumpi\n      dup1\n      0x1f\n      lt\n      tag_185\n      jumpi\n      0x0100\n      dup1\n      dup4\n      sload\n      div\n      mul\n      dup4\n      mstore\n      swap2\n      0x20\n      add\n      swap2\n      jump(tag_184)\n    tag_185:\n      dup3\n      add\n      swap2\n      swap1\n      0x00\n      mstore\n      keccak256(0x00, 0x20)\n      swap1\n    tag_186:\n      dup2\n      sload\n      dup2\n      mstore\n      swap1\n      0x01\n      add\n      swap1\n      0x20\n      add\n      dup1\n      dup4\n      gt\n      tag_186\n      jumpi\n      dup3\n      swap1\n      sub\n      0x1f\n      and\n      dup3\n      add\n      swap2\n    tag_184:\n      pop\n      pop\n      pop\n      swap2\n      dup4\n      mstore\n      pop\n      pop\n      0x04\n      dup3\n      add\n      sload\n      0x20\n      dup1\n      dup4\n      add\n      swap2\n      swap1\n      swap2\n      mstore\n      0x05\n      swap1\n      swap3\n      add\n      sload\n      0xff\n      and\n      iszero\n      iszero\n      0x40\n      swap2\n      dup3\n      add\n      mstore\n        /* \".git/MyContracts/SACCODirectorElection.sol\":9785:9789  c.id */\n      dup3\n      mload\n        /* \".git/MyContracts/SACCODirectorElection.sol\":9791:9797  c.name */\n      swap2\n      dup4\n      add\n      mload\n        /* \".git/MyContracts/SACCODirectorElection.sol\":9799:9817  c.membershipNumber */\n      swap1\n      dup4\n      add\n      mload\n        /* \".git/MyContracts/SACCODirectorElection.sol\":9819:9830  c.voteCount */\n      0x80\n      swap1\n      swap4\n      add\n      mload\n        /* \".git/MyContracts/SACCODirectorElection.sol\":9785:9789  c.id */\n      swap2\n      swap11\n        /* \".git/MyContracts/SACCODirectorElection.sol\":9791:9797  c.name */\n      swap1\n      swap10\n      pop\n        /* \".git/MyContracts/SACCODirectorElection.sol\":9799:9817  c.membershipNumber */\n      swap2\n      swap8\n      pop\n        /* \".git/MyContracts/SACCODirectorElection.sol\":9819:9830  c.voteCount */\n      swap6\n      pop\n        /* \".git/MyContracts/SACCODirectorElection.sol\":9384:9839  function winnerDetails(string memory position)... */\n      swap4\n      pop\n      pop\n      pop\n      pop\n      jump\t// out\n        /* \".git/MyContracts/SACCODirectorElection.sol\":8202:8414  function hasDelegateVotedForPosition(... */\n    tag_50:\n      sub(shl(0xa0, 0x01), 0x01)\n        /* \".git/MyContracts/SACCODirectorElection.sol\":8360:8396  hasVotedForPosition[delegateAddress] */\n      dup3\n      and\n        /* \".git/MyContracts/SACCODirectorElection.sol\":8336:8340  bool */\n      0x00\n        /* \".git/MyContracts/SACCODirectorElection.sol\":8360:8396  hasVotedForPosition[delegateAddress] */\n      swap1\n      dup2\n      mstore\n        /* \".git/MyContracts/SACCODirectorElection.sol\":8360:8379  hasVotedForPosition */\n      0x07\n        /* \".git/MyContracts/SACCODirectorElection.sol\":8360:8396  hasVotedForPosition[delegateAddress] */\n      0x20\n      mstore\n      0x40\n      dup1\n      dup3\n      keccak256\n        /* \".git/MyContracts/SACCODirectorElection.sol\":8360:8406  hasVotedForPosition[delegateAddress][position] */\n      swap1\n      mload\n      tag_188\n      swap1\n        /* \".git/MyContracts/SACCODirectorElection.sol\":8397:8405  position */\n      dup5\n      swap1\n        /* \".git/MyContracts/SACCODirectorElection.sol\":8360:8406  hasVotedForPosition[delegateAddress][position] */\n      tag_142\n      jump\t// in\n    tag_188:\n      swap1\n      dup2\n      mstore\n      mload(0x40)\n      swap1\n      dup2\n      swap1\n      sub\n      0x20\n      add\n      swap1\n      keccak256\n      sload\n      0xff\n      and\n      swap1\n      pop\n        /* \".git/MyContracts/SACCODirectorElection.sol\":8202:8414  function hasDelegateVotedForPosition(... */\n    tag_187:\n      swap3\n      swap2\n      pop\n      pop\n      jump\t// out\n        /* \".git/MyContracts/SACCODirectorElection.sol\":9924:10749  function getPositionResults(string memory position)... */\n    tag_55:\n        /* \".git/MyContracts/SACCODirectorElection.sol\":10040:10069  uint256[] memory candidateIds */\n      0x60\n        /* \".git/MyContracts/SACCODirectorElection.sol\":10084:10105  string[] memory names */\n      dup1\n        /* \".git/MyContracts/SACCODirectorElection.sol\":10120:10147  uint256[] memory voteCounts */\n      0x60\n        /* \".git/MyContracts/SACCODirectorElection.sol\":10162:10190  bool[] memory activeStatuses */\n      dup1\n        /* \".git/MyContracts/SACCODirectorElection.sol\":10218:10238  uint256[] memory ids */\n      0x00\n        /* \".git/MyContracts/SACCODirectorElection.sol\":10241:10261  candidatesByPosition */\n      0x06\n        /* \".git/MyContracts/SACCODirectorElection.sol\":10262:10270  position */\n      dup7\n        /* \".git/MyContracts/SACCODirectorElection.sol\":10241:10271  candidatesByPosition[position] */\n      mload(0x40)\n      tag_190\n      swap2\n      swap1\n      tag_142\n      jump\t// in\n    tag_190:\n      swap1\n      dup2\n      mstore\n      0x40\n      dup1\n      mload\n      swap2\n      dup3\n      swap1\n      sub\n      0x20\n      swap1\n      dup2\n      add\n      dup4\n      keccak256\n        /* \".git/MyContracts/SACCODirectorElection.sol\":10218:10271  uint256[] memory ids = candidatesByPosition[position] */\n      dup1\n      sload\n      dup1\n      dup4\n      mul\n      dup6\n      add\n      dup4\n      add\n      swap1\n      swap4\n      mstore\n      dup3\n      dup5\n      mstore\n        /* \".git/MyContracts/SACCODirectorElection.sol\":10241:10271  candidatesByPosition[position] */\n      swap2\n        /* \".git/MyContracts/SACCODirectorElection.sol\":10218:10271  uint256[] memory ids = candidatesByPosition[position] */\n      swap1\n      dup4\n      add\n        /* \".git/MyContracts/SACCODirectorElection.sol\":10241:10271  candidatesByPosition[position] */\n      dup3\n        /* \".git/MyContracts/SACCODirectorElection.sol\":10218:10271  uint256[] memory ids = candidatesByPosition[position] */\n      dup3\n      dup1\n      iszero\n      tag_191\n      jumpi\n      0x20\n      mul\n      dup3\n      add\n      swap2\n      swap1\n      0x00\n      mstore\n      keccak256(0x00, 0x20)\n      swap1\n    tag_192:\n      dup2\n      sload\n      dup2\n      mstore\n      0x20\n      add\n      swap1\n      0x01\n      add\n      swap1\n      dup1\n      dup4\n      gt\n      tag_192\n      jumpi\n    tag_191:\n      pop\n      pop\n        /* \".git/MyContracts/SACCODirectorElection.sol\":10296:10306  ids.length */\n      dup4\n      mload\n        /* \".git/MyContracts/SACCODirectorElection.sol\":10218:10271  uint256[] memory ids = candidatesByPosition[position] */\n      swap4\n      swap5\n      pop\n        /* \".git/MyContracts/SACCODirectorElection.sol\":10296:10306  ids.length */\n      dup4\n      swap3\n      pop\n      pop\n      pop\n      sub(shl(0x40, 0x01), 0x01)\n        /* \".git/MyContracts/SACCODirectorElection.sol\":10334:10352  new uint256[](len) */\n      dup2\n      gt\n      iszero\n      tag_194\n      jumpi\n      tag_194\n      tag_195\n      jump\t// in\n    tag_194:\n      mload(0x40)\n      swap1\n      dup1\n      dup3\n      mstore\n      dup1\n      0x20\n      mul\n      0x20\n      add\n      dup3\n      add\n      0x40\n      mstore\n      dup1\n      iszero\n      tag_196\n      jumpi\n      dup2\n      0x20\n      add\n      0x20\n      dup3\n      mul\n      dup1\n      calldatasize\n      dup4\n      calldatacopy\n      add\n      swap1\n      pop\n    tag_196:\n      pop\n        /* \".git/MyContracts/SACCODirectorElection.sol\":10319:10352  candidateIds = new uint256[](len) */\n      swap6\n      pop\n        /* \".git/MyContracts/SACCODirectorElection.sol\":10384:10387  len */\n      dup1\n      sub(shl(0x40, 0x01), 0x01)\n        /* \".git/MyContracts/SACCODirectorElection.sol\":10371:10388  new string[](len) */\n      dup2\n      gt\n      iszero\n      tag_198\n      jumpi\n      tag_198\n      tag_195\n      jump\t// in\n    tag_198:\n      mload(0x40)\n      swap1\n      dup1\n      dup3\n      mstore\n      dup1\n      0x20\n      mul\n      0x20\n      add\n      dup3\n      add\n      0x40\n      mstore\n      dup1\n      iszero\n      tag_199\n      jumpi\n      dup2\n      0x20\n      add\n    tag_200:\n      0x60\n      dup2\n      mstore\n      0x20\n      add\n      swap1\n      0x01\n      swap1\n      sub\n      swap1\n      dup2\n      tag_200\n      jumpi\n      swap1\n      pop\n    tag_199:\n      pop\n        /* \".git/MyContracts/SACCODirectorElection.sol\":10363:10388  names = new string[](len) */\n      swap5\n      pop\n        /* \".git/MyContracts/SACCODirectorElection.sol\":10426:10429  len */\n      dup1\n      sub(shl(0x40, 0x01), 0x01)\n        /* \".git/MyContracts/SACCODirectorElection.sol\":10412:10430  new uint256[](len) */\n      dup2\n      gt\n      iszero\n      tag_202\n      jumpi\n      tag_202\n      tag_195\n      jump\t// in\n    tag_202:\n      mload(0x40)\n      swap1\n      dup1\n      dup3\n      mstore\n      dup1\n      0x20\n      mul\n      0x20\n      add\n      dup3\n      add\n      0x40\n      mstore\n      dup1\n      iszero\n      tag_203\n      jumpi\n      dup2\n      0x20\n      add\n      0x20\n      dup3\n      mul\n      dup1\n      calldatasize\n      dup4\n      calldatacopy\n      add\n      swap1\n      pop\n    tag_203:\n      pop\n        /* \".git/MyContracts/SACCODirectorElection.sol\":10399:10430  voteCounts = new uint256[](len) */\n      swap4\n      pop\n        /* \".git/MyContracts/SACCODirectorElection.sol\":10469:10472  len */\n      dup1\n      sub(shl(0x40, 0x01), 0x01)\n        /* \".git/MyContracts/SACCODirectorElection.sol\":10458:10473  new bool[](len) */\n      dup2\n      gt\n      iszero\n      tag_205\n      jumpi\n      tag_205\n      tag_195\n      jump\t// in\n    tag_205:\n      mload(0x40)\n      swap1\n      dup1\n      dup3\n      mstore\n      dup1\n      0x20\n      mul\n      0x20\n      add\n      dup3\n      add\n      0x40\n      mstore\n      dup1\n      iszero\n      tag_206\n      jumpi\n      dup2\n      0x20\n      add\n      0x20\n      dup3\n      mul\n      dup1\n      calldatasize\n      dup4\n      calldatacopy\n      add\n      swap1\n      pop\n    tag_206:\n      pop\n        /* \".git/MyContracts/SACCODirectorElection.sol\":10441:10473  activeStatuses = new bool[](len) */\n      swap3\n      pop\n        /* \".git/MyContracts/SACCODirectorElection.sol\":10491:10500  uint256 i */\n      0x00\n        /* \".git/MyContracts/SACCODirectorElection.sol\":10486:10742  for (uint256 i = 0; i < len; i++) {... */\n    tag_207:\n        /* \".git/MyContracts/SACCODirectorElection.sol\":10510:10513  len */\n      dup2\n        /* \".git/MyContracts/SACCODirectorElection.sol\":10506:10507  i */\n      dup2\n        /* \".git/MyContracts/SACCODirectorElection.sol\":10506:10513  i < len */\n      lt\n        /* \".git/MyContracts/SACCODirectorElection.sol\":10486:10742  for (uint256 i = 0; i < len; i++) {... */\n      iszero\n      tag_208\n      jumpi\n        /* \".git/MyContracts/SACCODirectorElection.sol\":10535:10553  Candidate memory c */\n      0x00\n        /* \".git/MyContracts/SACCODirectorElection.sol\":10556:10566  candidates */\n      0x05\n        /* \".git/MyContracts/SACCODirectorElection.sol\":10556:10574  candidates[ids[i]] */\n      0x00\n        /* \".git/MyContracts/SACCODirectorElection.sol\":10567:10570  ids */\n      dup6\n        /* \".git/MyContracts/SACCODirectorElection.sol\":10571:10572  i */\n      dup5\n        /* \".git/MyContracts/SACCODirectorElection.sol\":10567:10573  ids[i] */\n      dup2\n      mload\n      dup2\n      lt\n      tag_211\n      jumpi\n      tag_211\n      tag_212\n      jump\t// in\n    tag_211:\n      0x20\n      mul\n      0x20\n      add\n      add\n      mload\n        /* \".git/MyContracts/SACCODirectorElection.sol\":10556:10574  candidates[ids[i]] */\n      dup2\n      mstore\n      0x20\n      add\n      swap1\n      dup2\n      mstore\n      0x20\n      add\n      0x00\n      keccak256\n        /* \".git/MyContracts/SACCODirectorElection.sol\":10535:10574  Candidate memory c = candidates[ids[i]] */\n      mload(0x40)\n      dup1\n      0xc0\n      add\n      0x40\n      mstore\n      swap1\n      dup2\n      0x00\n      dup3\n      add\n      sload\n      dup2\n      mstore\n      0x20\n      add\n      0x01\n      dup3\n      add\n      dup1\n      sload\n      tag_213\n      swap1\n      tag_117\n      jump\t// in\n    tag_213:\n      dup1\n      0x1f\n      add\n      0x20\n      dup1\n      swap2\n      div\n      mul\n      0x20\n      add\n      mload(0x40)\n      swap1\n      dup2\n      add\n      0x40\n      mstore\n      dup1\n      swap3\n      swap2\n      swap1\n      dup2\n      dup2\n      mstore\n      0x20\n      add\n      dup3\n      dup1\n      sload\n      tag_214\n      swap1\n      tag_117\n      jump\t// in\n    tag_214:\n      dup1\n      iszero\n      tag_215\n      jumpi\n      dup1\n      0x1f\n      lt\n      tag_216\n      jumpi\n      0x0100\n      dup1\n      dup4\n      sload\n      div\n      mul\n      dup4\n      mstore\n      swap2\n      0x20\n      add\n      swap2\n      jump(tag_215)\n    tag_216:\n      dup3\n      add\n      swap2\n      swap1\n      0x00\n      mstore\n      keccak256(0x00, 0x20)\n      swap1\n    tag_217:\n      dup2\n      sload\n      dup2\n      mstore\n      swap1\n      0x01\n      add\n      swap1\n      0x20\n      add\n      dup1\n      dup4\n      gt\n      tag_217\n      jumpi\n      dup3\n      swap1\n      sub\n      0x1f\n      and\n      dup3\n      add\n      swap2\n    tag_215:\n      pop\n      pop\n      pop\n      pop\n      pop\n      dup2\n      mstore\n      0x20\n      add\n      0x02\n      dup3\n      add\n      dup1\n      sload\n      tag_218\n      swap1\n      tag_117\n      jump\t// in\n    tag_218:\n      dup1\n      0x1f\n      add\n      0x20\n      dup1\n      swap2\n      div\n      mul\n      0x20\n      add\n      mload(0x40)\n      swap1\n      dup2\n      add\n      0x40\n      mstore\n      dup1\n      swap3\n      swap2\n      swap1\n      dup2\n      dup2\n      mstore\n      0x20\n      add\n      dup3\n      dup1\n      sload\n      tag_219\n      swap1\n      tag_117\n      jump\t// in\n    tag_219:\n      dup1\n      iszero\n      tag_220\n      jumpi\n      dup1\n      0x1f\n      lt\n      tag_221\n      jumpi\n      0x0100\n      dup1\n      dup4\n      sload\n      div\n      mul\n      dup4\n      mstore\n      swap2\n      0x20\n      add\n      swap2\n      jump(tag_220)\n    tag_221:\n      dup3\n      add\n      swap2\n      swap1\n      0x00\n      mstore\n      keccak256(0x00, 0x20)\n      swap1\n    tag_222:\n      dup2\n      sload\n      dup2\n      mstore\n      swap1\n      0x01\n      add\n      swap1\n      0x20\n      add\n      dup1\n      dup4\n      gt\n      tag_222\n      jumpi\n      dup3\n      swap1\n      sub\n      0x1f\n      and\n      dup3\n      add\n      swap2\n    tag_220:\n      pop\n      pop\n      pop\n      pop\n      pop\n      dup2\n      mstore\n      0x20\n      add\n      0x03\n      dup3\n      add\n      dup1\n      sload\n      tag_223\n      swap1\n      tag_117\n      jump\t// in\n    tag_223:\n      dup1\n      0x1f\n      add\n      0x20\n      dup1\n      swap2\n      div\n      mul\n      0x20\n      add\n      mload(0x40)\n      swap1\n      dup2\n      add\n      0x40\n      mstore\n      dup1\n      swap3\n      swap2\n      swap1\n      dup2\n      dup2\n      mstore\n      0x20\n      add\n      dup3\n      dup1\n      sload\n      tag_224\n      swap1\n      tag_117\n      jump\t// in\n    tag_224:\n      dup1\n      iszero\n      tag_225\n      jumpi\n      dup1\n      0x1f\n      lt\n      tag_226\n      jumpi\n      0x0100\n      dup1\n      dup4\n      sload\n      div\n      mul\n      dup4\n      mstore\n      swap2\n      0x20\n      add\n      swap2\n      jump(tag_225)\n    tag_226:\n      dup3\n      add\n      swap2\n      swap1\n      0x00\n      mstore\n      keccak256(0x00, 0x20)\n      swap1\n    tag_227:\n      dup2\n      sload\n      dup2\n      mstore\n      swap1\n      0x01\n      add\n      swap1\n      0x20\n      add\n      dup1\n      dup4\n      gt\n      tag_227\n      jumpi\n      dup3\n      swap1\n      sub\n      0x1f\n      and\n      dup3\n      add\n      swap2\n    tag_225:\n      pop\n      pop\n      pop\n      swap2\n      dup4\n      mstore\n      pop\n      pop\n      0x04\n      dup3\n      add\n      sload\n      0x20\n      dup3\n      add\n      mstore\n      0x05\n      swap1\n      swap2\n      add\n      sload\n      0xff\n      and\n      iszero\n      iszero\n      0x40\n      swap1\n      swap2\n      add\n      mstore\n        /* \".git/MyContracts/SACCODirectorElection.sol\":10607:10611  c.id */\n      dup1\n      mload\n        /* \".git/MyContracts/SACCODirectorElection.sol\":10589:10604  candidateIds[i] */\n      dup10\n      mload\n        /* \".git/MyContracts/SACCODirectorElection.sol\":10535:10574  Candidate memory c = candidates[ids[i]] */\n      swap2\n      swap3\n      pop\n        /* \".git/MyContracts/SACCODirectorElection.sol\":10607:10611  c.id */\n      swap1\n        /* \".git/MyContracts/SACCODirectorElection.sol\":10589:10601  candidateIds */\n      dup10\n      swap1\n        /* \".git/MyContracts/SACCODirectorElection.sol\":10602:10603  i */\n      dup5\n      swap1\n        /* \".git/MyContracts/SACCODirectorElection.sol\":10589:10604  candidateIds[i] */\n      dup2\n      lt\n      tag_229\n      jumpi\n      tag_229\n      tag_212\n      jump\t// in\n    tag_229:\n      0x20\n      mul\n      0x20\n      add\n      add\n        /* \".git/MyContracts/SACCODirectorElection.sol\":10589:10611  candidateIds[i] = c.id */\n      dup2\n      dup2\n      mstore\n      pop\n      pop\n        /* \".git/MyContracts/SACCODirectorElection.sol\":10637:10638  c */\n      dup1\n        /* \".git/MyContracts/SACCODirectorElection.sol\":10637:10643  c.name */\n      0x20\n      add\n      mload\n        /* \".git/MyContracts/SACCODirectorElection.sol\":10626:10631  names */\n      dup8\n        /* \".git/MyContracts/SACCODirectorElection.sol\":10632:10633  i */\n      dup4\n        /* \".git/MyContracts/SACCODirectorElection.sol\":10626:10634  names[i] */\n      dup2\n      mload\n      dup2\n      lt\n      tag_231\n      jumpi\n      tag_231\n      tag_212\n      jump\t// in\n    tag_231:\n      0x20\n      mul\n      0x20\n      add\n      add\n        /* \".git/MyContracts/SACCODirectorElection.sol\":10626:10643  names[i] = c.name */\n      dup2\n      swap1\n      mstore\n      pop\n        /* \".git/MyContracts/SACCODirectorElection.sol\":10674:10675  c */\n      dup1\n        /* \".git/MyContracts/SACCODirectorElection.sol\":10674:10685  c.voteCount */\n      0x80\n      add\n      mload\n        /* \".git/MyContracts/SACCODirectorElection.sol\":10658:10668  voteCounts */\n      dup7\n        /* \".git/MyContracts/SACCODirectorElection.sol\":10669:10670  i */\n      dup4\n        /* \".git/MyContracts/SACCODirectorElection.sol\":10658:10671  voteCounts[i] */\n      dup2\n      mload\n      dup2\n      lt\n      tag_233\n      jumpi\n      tag_233\n      tag_212\n      jump\t// in\n    tag_233:\n      0x20\n      mul\n      0x20\n      add\n      add\n        /* \".git/MyContracts/SACCODirectorElection.sol\":10658:10685  voteCounts[i] = c.voteCount */\n      dup2\n      dup2\n      mstore\n      pop\n      pop\n        /* \".git/MyContracts/SACCODirectorElection.sol\":10720:10721  c */\n      dup1\n        /* \".git/MyContracts/SACCODirectorElection.sol\":10720:10730  c.isActive */\n      0xa0\n      add\n      mload\n        /* \".git/MyContracts/SACCODirectorElection.sol\":10700:10714  activeStatuses */\n      dup6\n        /* \".git/MyContracts/SACCODirectorElection.sol\":10715:10716  i */\n      dup4\n        /* \".git/MyContracts/SACCODirectorElection.sol\":10700:10717  activeStatuses[i] */\n      dup2\n      mload\n      dup2\n      lt\n      tag_235\n      jumpi\n      tag_235\n      tag_212\n      jump\t// in\n    tag_235:\n        /* \".git/MyContracts/SACCODirectorElection.sol\":10700:10730  activeStatuses[i] = c.isActive */\n      swap2\n      iszero\n      iszero\n        /* \".git/MyContracts/SACCODirectorElection.sol\":10700:10717  activeStatuses[i] */\n      0x20\n      swap3\n      dup4\n      mul\n      swap2\n      swap1\n      swap2\n      add\n      swap1\n      swap2\n      add\n        /* \".git/MyContracts/SACCODirectorElection.sol\":10700:10730  activeStatuses[i] = c.isActive */\n      mstore\n      pop\n        /* \".git/MyContracts/SACCODirectorElection.sol\":10515:10518  i++ */\n      0x01\n      add\n        /* \".git/MyContracts/SACCODirectorElection.sol\":10486:10742  for (uint256 i = 0; i < len; i++) {... */\n      jump(tag_207)\n    tag_208:\n      pop\n        /* \".git/MyContracts/SACCODirectorElection.sol\":10207:10749  {... */\n      pop\n      pop\n        /* \".git/MyContracts/SACCODirectorElection.sol\":9924:10749  function getPositionResults(string memory position)... */\n      swap2\n      swap4\n      pop\n      swap2\n      swap4\n      jump\t// out\n        /* \".git/MyContracts/SACCODirectorElection.sol\":2475:3305  function registerDelegate(... */\n    tag_61:\n        /* \".git/MyContracts/SACCODirectorElection.sol\":1889:1894  admin */\n      and(sub(shl(0xa0, 0x01), 0x01), sload(0x00))\n        /* \".git/MyContracts/SACCODirectorElection.sol\":1875:1885  msg.sender */\n      caller\n        /* \".git/MyContracts/SACCODirectorElection.sol\":1875:1894  msg.sender == admin */\n      eq\n        /* \".git/MyContracts/SACCODirectorElection.sol\":1867:1933  require(msg.sender == admin, \"Only admin can perform this action\") */\n      tag_237\n      jumpi\n      mload(0x40)\n      shl(0xe5, 0x461bcd)\n      dup2\n      mstore\n      0x04\n      add\n      tag_110\n      swap1\n      tag_239\n      jump\t// in\n    tag_237:\n      sub(shl(0xa0, 0x01), 0x01)\n        /* \".git/MyContracts/SACCODirectorElection.sol\":2650:2679  delegateAddress != address(0) */\n      dup4\n      and\n        /* \".git/MyContracts/SACCODirectorElection.sol\":2642:2708  require(delegateAddress != address(0), \"Invalid delegate address\") */\n      tag_241\n      jumpi\n      mload(0x40)\n      shl(0xe5, 0x461bcd)\n      dup2\n      mstore\n        /* \"#utility.yul\":13602:13604   */\n      0x20\n        /* \".git/MyContracts/SACCODirectorElection.sol\":2642:2708  require(delegateAddress != address(0), \"Invalid delegate address\") */\n      0x04\n      dup3\n      add\n        /* \"#utility.yul\":13584:13605   */\n      mstore\n        /* \"#utility.yul\":13641:13643   */\n      0x18\n        /* \"#utility.yul\":13621:13639   */\n      0x24\n      dup3\n      add\n        /* \"#utility.yul\":13614:13644   */\n      mstore\n        /* \"#utility.yul\":13680:13706   */\n      0x496e76616c69642064656c656761746520616464726573730000000000000000\n        /* \"#utility.yul\":13660:13678   */\n      0x44\n      dup3\n      add\n        /* \"#utility.yul\":13653:13707   */\n      mstore\n        /* \"#utility.yul\":13724:13742   */\n      0x64\n      add\n        /* \".git/MyContracts/SACCODirectorElection.sol\":2642:2708  require(delegateAddress != address(0), \"Invalid delegate address\") */\n      tag_110\n        /* \"#utility.yul\":13400:13748   */\n      jump\n        /* \".git/MyContracts/SACCODirectorElection.sol\":2642:2708  require(delegateAddress != address(0), \"Invalid delegate address\") */\n    tag_241:\n      sub(shl(0xa0, 0x01), 0x01)\n        /* \".git/MyContracts/SACCODirectorElection.sol\":2728:2754  delegates[delegateAddress] */\n      dup4\n      and\n      0x00\n      swap1\n      dup2\n      mstore\n        /* \".git/MyContracts/SACCODirectorElection.sol\":2728:2737  delegates */\n      0x04\n        /* \".git/MyContracts/SACCODirectorElection.sol\":2728:2754  delegates[delegateAddress] */\n      0x20\n      mstore\n      0x40\n      swap1\n      keccak256\n        /* \".git/MyContracts/SACCODirectorElection.sol\":2728:2767  delegates[delegateAddress].isRegistered */\n      sload\n      0xff\n      and\n        /* \".git/MyContracts/SACCODirectorElection.sol\":2727:2767  !delegates[delegateAddress].isRegistered */\n      iszero\n        /* \".git/MyContracts/SACCODirectorElection.sol\":2719:2799  require(!delegates[delegateAddress].isRegistered, \"Delegate already registered\") */\n      tag_244\n      jumpi\n      mload(0x40)\n      shl(0xe5, 0x461bcd)\n      dup2\n      mstore\n        /* \"#utility.yul\":13955:13957   */\n      0x20\n        /* \".git/MyContracts/SACCODirectorElection.sol\":2719:2799  require(!delegates[delegateAddress].isRegistered, \"Delegate already registered\") */\n      0x04\n      dup3\n      add\n        /* \"#utility.yul\":13937:13958   */\n      mstore\n        /* \"#utility.yul\":13994:13996   */\n      0x1b\n        /* \"#utility.yul\":13974:13992   */\n      0x24\n      dup3\n      add\n        /* \"#utility.yul\":13967:13997   */\n      mstore\n        /* \"#utility.yul\":14033:14062   */\n      0x44656c656761746520616c726561647920726567697374657265640000000000\n        /* \"#utility.yul\":14013:14031   */\n      0x44\n      dup3\n      add\n        /* \"#utility.yul\":14006:14063   */\n      mstore\n        /* \"#utility.yul\":14080:14098   */\n      0x64\n      add\n        /* \".git/MyContracts/SACCODirectorElection.sol\":2719:2799  require(!delegates[delegateAddress].isRegistered, \"Delegate already registered\") */\n      tag_110\n        /* \"#utility.yul\":13753:14104   */\n      jump\n        /* \".git/MyContracts/SACCODirectorElection.sol\":2719:2799  require(!delegates[delegateAddress].isRegistered, \"Delegate already registered\") */\n    tag_244:\n        /* \".git/MyContracts/SACCODirectorElection.sol\":2839:2840  0 */\n      0x00\n        /* \".git/MyContracts/SACCODirectorElection.sol\":2824:2828  name */\n      dup3\n        /* \".git/MyContracts/SACCODirectorElection.sol\":2818:2836  bytes(name).length */\n      mload\n        /* \".git/MyContracts/SACCODirectorElection.sol\":2818:2840  bytes(name).length > 0 */\n      gt\n        /* \".git/MyContracts/SACCODirectorElection.sol\":2810:2874  require(bytes(name).length > 0, \"Delegate name cannot be empty\") */\n      tag_247\n      jumpi\n      mload(0x40)\n      shl(0xe5, 0x461bcd)\n      dup2\n      mstore\n        /* \"#utility.yul\":14311:14313   */\n      0x20\n        /* \".git/MyContracts/SACCODirectorElection.sol\":2810:2874  require(bytes(name).length > 0, \"Delegate name cannot be empty\") */\n      0x04\n      dup3\n      add\n        /* \"#utility.yul\":14293:14314   */\n      mstore\n        /* \"#utility.yul\":14350:14352   */\n      0x1d\n        /* \"#utility.yul\":14330:14348   */\n      0x24\n      dup3\n      add\n        /* \"#utility.yul\":14323:14353   */\n      mstore\n        /* \"#utility.yul\":14389:14420   */\n      0x44656c6567617465206e616d652063616e6e6f7420626520656d707479000000\n        /* \"#utility.yul\":14369:14387   */\n      0x44\n      dup3\n      add\n        /* \"#utility.yul\":14362:14421   */\n      mstore\n        /* \"#utility.yul\":14438:14456   */\n      0x64\n      add\n        /* \".git/MyContracts/SACCODirectorElection.sol\":2810:2874  require(bytes(name).length > 0, \"Delegate name cannot be empty\") */\n      tag_110\n        /* \"#utility.yul\":14109:14462   */\n      jump\n        /* \".git/MyContracts/SACCODirectorElection.sol\":2810:2874  require(bytes(name).length > 0, \"Delegate name cannot be empty\") */\n    tag_247:\n        /* \".git/MyContracts/SACCODirectorElection.sol\":2926:2927  0 */\n      0x00\n        /* \".git/MyContracts/SACCODirectorElection.sol\":2899:2915  membershipNumber */\n      dup2\n        /* \".git/MyContracts/SACCODirectorElection.sol\":2893:2923  bytes(membershipNumber).length */\n      mload\n        /* \".git/MyContracts/SACCODirectorElection.sol\":2893:2927  bytes(membershipNumber).length > 0 */\n      gt\n        /* \".git/MyContracts/SACCODirectorElection.sol\":2885:2965  require(bytes(membershipNumber).length > 0, \"Membership number cannot be empty\") */\n      tag_250\n      jumpi\n      mload(0x40)\n      shl(0xe5, 0x461bcd)\n      dup2\n      mstore\n      0x04\n      add\n      tag_110\n      swap1\n      tag_252\n      jump\t// in\n    tag_250:\n        /* \".git/MyContracts/SACCODirectorElection.sol\":2985:2997  electionOpen */\n      sload(0x00)\n      shl(0xa0, 0x01)\n      swap1\n      div\n      0xff\n      and\n        /* \".git/MyContracts/SACCODirectorElection.sol\":2984:2997  !electionOpen */\n      iszero\n        /* \".git/MyContracts/SACCODirectorElection.sol\":2976:3050  require(!electionOpen, \"Cannot register delegates while election is open\") */\n      tag_253\n      jumpi\n      mload(0x40)\n      shl(0xe5, 0x461bcd)\n      dup2\n      mstore\n        /* \"#utility.yul\":15071:15073   */\n      0x20\n        /* \".git/MyContracts/SACCODirectorElection.sol\":2976:3050  require(!electionOpen, \"Cannot register delegates while election is open\") */\n      0x04\n      dup3\n      add\n        /* \"#utility.yul\":15053:15074   */\n      mstore\n        /* \"#utility.yul\":15110:15112   */\n      0x30\n        /* \"#utility.yul\":15090:15108   */\n      0x24\n      dup3\n      add\n        /* \"#utility.yul\":15083:15113   */\n      mstore\n        /* \"#utility.yul\":15149:15183   */\n      0x43616e6e6f742072656769737465722064656c656761746573207768696c6520\n        /* \"#utility.yul\":15129:15147   */\n      0x44\n      dup3\n      add\n        /* \"#utility.yul\":15122:15184   */\n      mstore\n      shl(0x81, 0x32b632b1ba34b7b71034b99037b832b7)\n        /* \"#utility.yul\":15200:15218   */\n      0x64\n      dup3\n      add\n        /* \"#utility.yul\":15193:15239   */\n      mstore\n        /* \"#utility.yul\":15256:15275   */\n      0x84\n      add\n        /* \".git/MyContracts/SACCODirectorElection.sol\":2976:3050  require(!electionOpen, \"Cannot register delegates while election is open\") */\n      tag_110\n        /* \"#utility.yul\":14869:15281   */\n      jump\n        /* \".git/MyContracts/SACCODirectorElection.sol\":2976:3050  require(!electionOpen, \"Cannot register delegates while election is open\") */\n    tag_253:\n        /* \".git/MyContracts/SACCODirectorElection.sol\":3092:3220  Delegate({... */\n      0x40\n      dup1\n      mload\n      0x60\n      dup2\n      add\n      dup3\n      mstore\n        /* \".git/MyContracts/SACCODirectorElection.sol\":3130:3134  true */\n      0x01\n        /* \".git/MyContracts/SACCODirectorElection.sol\":3092:3220  Delegate({... */\n      dup1\n      dup3\n      mstore\n      0x20\n      dup1\n      dup4\n      add\n      dup7\n      dup2\n      mstore\n      dup4\n      dup6\n      add\n      dup7\n      swap1\n      mstore\n      sub(shl(0xa0, 0x01), 0x01)\n        /* \".git/MyContracts/SACCODirectorElection.sol\":3063:3089  delegates[delegateAddress] */\n      dup9\n      and\n      0x00\n      swap1\n      dup2\n      mstore\n        /* \".git/MyContracts/SACCODirectorElection.sol\":3063:3072  delegates */\n      0x04\n        /* \".git/MyContracts/SACCODirectorElection.sol\":3063:3089  delegates[delegateAddress] */\n      swap1\n      swap3\n      mstore\n      swap4\n      swap1\n      keccak256\n        /* \".git/MyContracts/SACCODirectorElection.sol\":3063:3220  delegates[delegateAddress] = Delegate({... */\n      dup3\n      mload\n      dup2\n      sload\n      not(0xff)\n      and\n      swap1\n      iszero\n      iszero\n      or\n      dup2\n      sstore\n      swap3\n      mload\n        /* \".git/MyContracts/SACCODirectorElection.sol\":3092:3220  Delegate({... */\n      swap2\n      swap3\n        /* \".git/MyContracts/SACCODirectorElection.sol\":3063:3089  delegates[delegateAddress] */\n      swap2\n        /* \".git/MyContracts/SACCODirectorElection.sol\":3063:3220  delegates[delegateAddress] = Delegate({... */\n      swap1\n      dup3\n      add\n      swap1\n      tag_256\n      swap1\n      dup3\n      tag_257\n      jump\t// in\n    tag_256:\n      pop\n      0x40\n      dup3\n      add\n      mload\n      0x02\n      dup3\n      add\n      swap1\n      tag_258\n      swap1\n      dup3\n      tag_257\n      jump\t// in\n    tag_258:\n      pop\n      swap1\n      pop\n      pop\n        /* \".git/MyContracts/SACCODirectorElection.sol\":3257:3272  delegateAddress */\n      dup3\n      sub(shl(0xa0, 0x01), 0x01)\n        /* \".git/MyContracts/SACCODirectorElection.sol\":3238:3297  DelegateRegistered(delegateAddress, name, membershipNumber) */\n      and\n      0xe8d9d391eb3d36b3ad124d243fd662d8212521cbb9cc79ef19ff6562a94a26c5\n        /* \".git/MyContracts/SACCODirectorElection.sol\":3274:3278  name */\n      dup4\n        /* \".git/MyContracts/SACCODirectorElection.sol\":3280:3296  membershipNumber */\n      dup4\n        /* \".git/MyContracts/SACCODirectorElection.sol\":3238:3297  DelegateRegistered(delegateAddress, name, membershipNumber) */\n      mload(0x40)\n      tag_259\n      swap3\n      swap2\n      swap1\n      tag_260\n      jump\t// in\n    tag_259:\n      mload(0x40)\n      dup1\n      swap2\n      sub\n      swap1\n      log2\n        /* \".git/MyContracts/SACCODirectorElection.sol\":2475:3305  function registerDelegate(... */\n      pop\n      pop\n      pop\n      jump\t// out\n        /* \".git/MyContracts/SACCODirectorElection.sol\":870:917  mapping(uint256 => Candidate) public candidates */\n    tag_64:\n      mstore(0x20, 0x05)\n      0x00\n      swap1\n      dup2\n      mstore\n      0x40\n      swap1\n      keccak256\n      dup1\n      sload\n      0x01\n      dup3\n      add\n      dup1\n      sload\n      swap2\n      swap3\n      swap2\n      tag_261\n      swap1\n      tag_117\n      jump\t// in\n    tag_261:\n      dup1\n      0x1f\n      add\n      0x20\n      dup1\n      swap2\n      div\n      mul\n      0x20\n      add\n      mload(0x40)\n      swap1\n      dup2\n      add\n      0x40\n      mstore\n      dup1\n      swap3\n      swap2\n      swap1\n      dup2\n      dup2\n      mstore\n      0x20\n      add\n      dup3\n      dup1\n      sload\n      tag_262\n      swap1\n      tag_117\n      jump\t// in\n    tag_262:\n      dup1\n      iszero\n      tag_263\n      jumpi\n      dup1\n      0x1f\n      lt\n      tag_264\n      jumpi\n      0x0100\n      dup1\n      dup4\n      sload\n      div\n      mul\n      dup4\n      mstore\n      swap2\n      0x20\n      add\n      swap2\n      jump(tag_263)\n    tag_264:\n      dup3\n      add\n      swap2\n      swap1\n      0x00\n      mstore\n      keccak256(0x00, 0x20)\n      swap1\n    tag_265:\n      dup2\n      sload\n      dup2\n      mstore\n      swap1\n      0x01\n      add\n      swap1\n      0x20\n      add\n      dup1\n      dup4\n      gt\n      tag_265\n      jumpi\n      dup3\n      swap1\n      sub\n      0x1f\n      and\n      dup3\n      add\n      swap2\n    tag_263:\n      pop\n      pop\n      pop\n      pop\n      pop\n      swap1\n      dup1\n      0x02\n      add\n      dup1\n      sload\n      tag_266\n      swap1\n      tag_117\n      jump\t// in\n    tag_266:\n      dup1\n      0x1f\n      add\n      0x20\n      dup1\n      swap2\n      div\n      mul\n      0x20\n      add\n      mload(0x40)\n      swap1\n      dup2\n      add\n      0x40\n      mstore\n      dup1\n      swap3\n      swap2\n      swap1\n      dup2\n      dup2\n      mstore\n      0x20\n      add\n      dup3\n      dup1\n      sload\n      tag_267\n      swap1\n      tag_117\n      jump\t// in\n    tag_267:\n      dup1\n      iszero\n      tag_268\n      jumpi\n      dup1\n      0x1f\n      lt\n      tag_269\n      jumpi\n      0x0100\n      dup1\n      dup4\n      sload\n      div\n      mul\n      dup4\n      mstore\n      swap2\n      0x20\n      add\n      swap2\n      jump(tag_268)\n    tag_269:\n      dup3\n      add\n      swap2\n      swap1\n      0x00\n      mstore\n      keccak256(0x00, 0x20)\n      swap1\n    tag_270:\n      dup2\n      sload\n      dup2\n      mstore\n      swap1\n      0x01\n      add\n      swap1\n      0x20\n      add\n      dup1\n      dup4\n      gt\n      tag_270\n      jumpi\n      dup3\n      swap1\n      sub\n      0x1f\n      and\n      dup3\n      add\n      swap2\n    tag_268:\n      pop\n      pop\n      pop\n      pop\n      pop\n      swap1\n      dup1\n      0x03\n      add\n      dup1\n      sload\n      tag_271\n      swap1\n      tag_117\n      jump\t// in\n    tag_271:\n      dup1\n      0x1f\n      add\n      0x20\n      dup1\n      swap2\n      div\n      mul\n      0x20\n      add\n      mload(0x40)\n      swap1\n      dup2\n      add\n      0x40\n      mstore\n      dup1\n      swap3\n      swap2\n      swap1\n      dup2\n      dup2\n      mstore\n      0x20\n      add\n      dup3\n      dup1\n      sload\n      tag_272\n      swap1\n      tag_117\n      jump\t// in\n    tag_272:\n      dup1\n      iszero\n      tag_273\n      jumpi\n      dup1\n      0x1f\n      lt\n      tag_274\n      jumpi\n      0x0100\n      dup1\n      dup4\n      sload\n      div\n      mul\n      dup4\n      mstore\n      swap2\n      0x20\n      add\n      swap2\n      jump(tag_273)\n    tag_274:\n      dup3\n      add\n      swap2\n      swap1\n      0x00\n      mstore\n      keccak256(0x00, 0x20)\n      swap1\n    tag_275:\n      dup2\n      sload\n      dup2\n      mstore\n      swap1\n      0x01\n      add\n      swap1\n      0x20\n      add\n      dup1\n      dup4\n      gt\n      tag_275\n      jumpi\n      dup3\n      swap1\n      sub\n      0x1f\n      and\n      dup3\n      add\n      swap2\n    tag_273:\n      pop\n      pop\n      pop\n      pop\n      0x04\n      dup4\n      add\n      sload\n      0x05\n      swap1\n      swap4\n      add\n      sload\n      swap2\n      swap3\n      swap2\n      0xff\n      and\n      swap1\n      pop\n      dup7\n      jump\t// out\n        /* \".git/MyContracts/SACCODirectorElection.sol\":7030:7639  function getCandidate(uint256 candidateId)... */\n    tag_69:\n        /* \".git/MyContracts/SACCODirectorElection.sol\":7137:7147  uint256 id */\n      0x00\n        /* \".git/MyContracts/SACCODirectorElection.sol\":7162:7180  string memory name */\n      0x60\n        /* \".git/MyContracts/SACCODirectorElection.sol\":7195:7225  string memory membershipNumber */\n      dup1\n        /* \".git/MyContracts/SACCODirectorElection.sol\":7240:7262  string memory position */\n      0x60\n        /* \".git/MyContracts/SACCODirectorElection.sol\":7277:7294  uint256 voteCount */\n      0x00\n        /* \".git/MyContracts/SACCODirectorElection.sol\":7309:7322  bool isActive */\n      0x00\n        /* \".git/MyContracts/SACCODirectorElection.sol\":7350:7368  Candidate memory c */\n      0x00\n        /* \".git/MyContracts/SACCODirectorElection.sol\":7371:7381  candidates */\n      0x05\n        /* \".git/MyContracts/SACCODirectorElection.sol\":7371:7394  candidates[candidateId] */\n      0x00\n        /* \".git/MyContracts/SACCODirectorElection.sol\":7382:7393  candidateId */\n      dup10\n        /* \".git/MyContracts/SACCODirectorElection.sol\":7371:7394  candidates[candidateId] */\n      dup2\n      mstore\n      0x20\n      add\n      swap1\n      dup2\n      mstore\n      0x20\n      add\n      0x00\n      keccak256\n        /* \".git/MyContracts/SACCODirectorElection.sol\":7350:7394  Candidate memory c = candidates[candidateId] */\n      mload(0x40)\n      dup1\n      0xc0\n      add\n      0x40\n      mstore\n      swap1\n      dup2\n      0x00\n      dup3\n      add\n      sload\n      dup2\n      mstore\n      0x20\n      add\n      0x01\n      dup3\n      add\n      dup1\n      sload\n      tag_277\n      swap1\n      tag_117\n      jump\t// in\n    tag_277:\n      dup1\n      0x1f\n      add\n      0x20\n      dup1\n      swap2\n      div\n      mul\n      0x20\n      add\n      mload(0x40)\n      swap1\n      dup2\n      add\n      0x40\n      mstore\n      dup1\n      swap3\n      swap2\n      swap1\n      dup2\n      dup2\n      mstore\n      0x20\n      add\n      dup3\n      dup1\n      sload\n      tag_278\n      swap1\n      tag_117\n      jump\t// in\n    tag_278:\n      dup1\n      iszero\n      tag_279\n      jumpi\n      dup1\n      0x1f\n      lt\n      tag_280\n      jumpi\n      0x0100\n      dup1\n      dup4\n      sload\n      div\n      mul\n      dup4\n      mstore\n      swap2\n      0x20\n      add\n      swap2\n      jump(tag_279)\n    tag_280:\n      dup3\n      add\n      swap2\n      swap1\n      0x00\n      mstore\n      keccak256(0x00, 0x20)\n      swap1\n    tag_281:\n      dup2\n      sload\n      dup2\n      mstore\n      swap1\n      0x01\n      add\n      swap1\n      0x20\n      add\n      dup1\n      dup4\n      gt\n      tag_281\n      jumpi\n      dup3\n      swap1\n      sub\n      0x1f\n      and\n      dup3\n      add\n      swap2\n    tag_279:\n      pop\n      pop\n      pop\n      pop\n      pop\n      dup2\n      mstore\n      0x20\n      add\n      0x02\n      dup3\n      add\n      dup1\n      sload\n      tag_282\n      swap1\n      tag_117\n      jump\t// in\n    tag_282:\n      dup1\n      0x1f\n      add\n      0x20\n      dup1\n      swap2\n      div\n      mul\n      0x20\n      add\n      mload(0x40)\n      swap1\n      dup2\n      add\n      0x40\n      mstore\n      dup1\n      swap3\n      swap2\n      swap1\n      dup2\n      dup2\n      mstore\n      0x20\n      add\n      dup3\n      dup1\n      sload\n      tag_283\n      swap1\n      tag_117\n      jump\t// in\n    tag_283:\n      dup1\n      iszero\n      tag_284\n      jumpi\n      dup1\n      0x1f\n      lt\n      tag_285\n      jumpi\n      0x0100\n      dup1\n      dup4\n      sload\n      div\n      mul\n      dup4\n      mstore\n      swap2\n      0x20\n      add\n      swap2\n      jump(tag_284)\n    tag_285:\n      dup3\n      add\n      swap2\n      swap1\n      0x00\n      mstore\n      keccak256(0x00, 0x20)\n      swap1\n    tag_286:\n      dup2\n      sload\n      dup2\n      mstore\n      swap1\n      0x01\n      add\n      swap1\n      0x20\n      add\n      dup1\n      dup4\n      gt\n      tag_286\n      jumpi\n      dup3\n      swap1\n      sub\n      0x1f\n      and\n      dup3\n      add\n      swap2\n    tag_284:\n      pop\n      pop\n      pop\n      pop\n      pop\n      dup2\n      mstore\n      0x20\n      add\n      0x03\n      dup3\n      add\n      dup1\n      sload\n      tag_287\n      swap1\n      tag_117\n      jump\t// in\n    tag_287:\n      dup1\n      0x1f\n      add\n      0x20\n      dup1\n      swap2\n      div\n      mul\n      0x20\n      add\n      mload(0x40)\n      swap1\n      dup2\n      add\n      0x40\n      mstore\n      dup1\n      swap3\n      swap2\n      swap1\n      dup2\n      dup2\n      mstore\n      0x20\n      add\n      dup3\n      dup1\n      sload\n      tag_288\n      swap1\n      tag_117\n      jump\t// in\n    tag_288:\n      dup1\n      iszero\n      tag_289\n      jumpi\n      dup1\n      0x1f\n      lt\n      tag_290\n      jumpi\n      0x0100\n      dup1\n      dup4\n      sload\n      div\n      mul\n      dup4\n      mstore\n      swap2\n      0x20\n      add\n      swap2\n      jump(tag_289)\n    tag_290:\n      dup3\n      add\n      swap2\n      swap1\n      0x00\n      mstore\n      keccak256(0x00, 0x20)\n      swap1\n    tag_291:\n      dup2\n      sload\n      dup2\n      mstore\n      swap1\n      0x01\n      add\n      swap1\n      0x20\n      add\n      dup1\n      dup4\n      gt\n      tag_291\n      jumpi\n      dup3\n      swap1\n      sub\n      0x1f\n      and\n      dup3\n      add\n      swap2\n    tag_289:\n      pop\n      pop\n      pop\n      swap2\n      dup4\n      mstore\n      pop\n      pop\n      0x04\n      dup3\n      add\n      sload\n      0x20\n      dup3\n      add\n      mstore\n      0x05\n      swap1\n      swap2\n      add\n      sload\n      0xff\n      and\n      iszero\n      iszero\n      0x40\n      swap1\n      swap2\n      add\n      mstore\n        /* \".git/MyContracts/SACCODirectorElection.sol\":7413:7417  c.id */\n      dup1\n      mload\n        /* \".git/MyContracts/SACCODirectorElection.sol\":7350:7394  Candidate memory c = candidates[candidateId] */\n      swap1\n      swap2\n      pop\n      0x00\n        /* \".git/MyContracts/SACCODirectorElection.sol\":7413:7422  c.id != 0 */\n      sub\n        /* \".git/MyContracts/SACCODirectorElection.sol\":7405:7451  require(c.id != 0, \"Candidate does not exist\") */\n      tag_292\n      jumpi\n      mload(0x40)\n      shl(0xe5, 0x461bcd)\n      dup2\n      mstore\n      0x04\n      add\n      tag_110\n      swap1\n      tag_132\n      jump\t// in\n    tag_292:\n        /* \".git/MyContracts/SACCODirectorElection.sol\":7486:7490  c.id */\n      dup1\n      mload\n        /* \".git/MyContracts/SACCODirectorElection.sol\":7505:7511  c.name */\n      0x20\n      dup3\n      add\n      mload\n        /* \".git/MyContracts/SACCODirectorElection.sol\":7526:7544  c.membershipNumber */\n      0x40\n      dup4\n      add\n      mload\n        /* \".git/MyContracts/SACCODirectorElection.sol\":7559:7569  c.position */\n      0x60\n      dup5\n      add\n      mload\n        /* \".git/MyContracts/SACCODirectorElection.sol\":7584:7595  c.voteCount */\n      0x80\n      dup6\n      add\n      mload\n        /* \".git/MyContracts/SACCODirectorElection.sol\":7610:7620  c.isActive */\n      0xa0\n      swap1\n      swap6\n      add\n      mload\n        /* \".git/MyContracts/SACCODirectorElection.sol\":7486:7490  c.id */\n      swap4\n      swap13\n        /* \".git/MyContracts/SACCODirectorElection.sol\":7505:7511  c.name */\n      swap3\n      swap12\n      pop\n        /* \".git/MyContracts/SACCODirectorElection.sol\":7526:7544  c.membershipNumber */\n      swap1\n      swap10\n      pop\n        /* \".git/MyContracts/SACCODirectorElection.sol\":7559:7569  c.position */\n      swap8\n      pop\n        /* \".git/MyContracts/SACCODirectorElection.sol\":7584:7595  c.voteCount */\n      swap2\n      swap6\n      pop\n        /* \".git/MyContracts/SACCODirectorElection.sol\":7610:7620  c.isActive */\n      swap4\n      pop\n        /* \".git/MyContracts/SACCODirectorElection.sol\":7030:7639  function getCandidate(uint256 candidateId)... */\n      swap2\n      pop\n      pop\n      jump\t// out\n        /* \".git/MyContracts/SACCODirectorElection.sol\":3447:4836  function registerCandidate(... */\n    tag_74:\n        /* \".git/MyContracts/SACCODirectorElection.sol\":1889:1894  admin */\n      and(sub(shl(0xa0, 0x01), 0x01), sload(0x00))\n        /* \".git/MyContracts/SACCODirectorElection.sol\":1875:1885  msg.sender */\n      caller\n        /* \".git/MyContracts/SACCODirectorElection.sol\":1875:1894  msg.sender == admin */\n      eq\n        /* \".git/MyContracts/SACCODirectorElection.sol\":1867:1933  require(msg.sender == admin, \"Only admin can perform this action\") */\n      tag_295\n      jumpi\n      mload(0x40)\n      shl(0xe5, 0x461bcd)\n      dup2\n      mstore\n      0x04\n      add\n      tag_110\n      swap1\n      tag_239\n      jump\t// in\n    tag_295:\n        /* \".git/MyContracts/SACCODirectorElection.sol\":3643:3644  0 */\n      0x00\n        /* \".git/MyContracts/SACCODirectorElection.sol\":3628:3632  name */\n      dup4\n        /* \".git/MyContracts/SACCODirectorElection.sol\":3622:3640  bytes(name).length */\n      mload\n        /* \".git/MyContracts/SACCODirectorElection.sol\":3622:3644  bytes(name).length > 0 */\n      gt\n        /* \".git/MyContracts/SACCODirectorElection.sol\":3614:3679  require(bytes(name).length > 0, \"Candidate name cannot be empty\") */\n      tag_298\n      jumpi\n      mload(0x40)\n      shl(0xe5, 0x461bcd)\n      dup2\n      mstore\n        /* \"#utility.yul\":18000:18002   */\n      0x20\n        /* \".git/MyContracts/SACCODirectorElection.sol\":3614:3679  require(bytes(name).length > 0, \"Candidate name cannot be empty\") */\n      0x04\n      dup3\n      add\n        /* \"#utility.yul\":17982:18003   */\n      mstore\n        /* \"#utility.yul\":18039:18041   */\n      0x1e\n        /* \"#utility.yul\":18019:18037   */\n      0x24\n      dup3\n      add\n        /* \"#utility.yul\":18012:18042   */\n      mstore\n        /* \"#utility.yul\":18078:18110   */\n      0x43616e646964617465206e616d652063616e6e6f7420626520656d7074790000\n        /* \"#utility.yul\":18058:18076   */\n      0x44\n      dup3\n      add\n        /* \"#utility.yul\":18051:18111   */\n      mstore\n        /* \"#utility.yul\":18128:18146   */\n      0x64\n      add\n        /* \".git/MyContracts/SACCODirectorElection.sol\":3614:3679  require(bytes(name).length > 0, \"Candidate name cannot be empty\") */\n      tag_110\n        /* \"#utility.yul\":17798:18152   */\n      jump\n        /* \".git/MyContracts/SACCODirectorElection.sol\":3614:3679  require(bytes(name).length > 0, \"Candidate name cannot be empty\") */\n    tag_298:\n        /* \".git/MyContracts/SACCODirectorElection.sol\":3731:3732  0 */\n      0x00\n        /* \".git/MyContracts/SACCODirectorElection.sol\":3704:3720  membershipNumber */\n      dup3\n        /* \".git/MyContracts/SACCODirectorElection.sol\":3698:3728  bytes(membershipNumber).length */\n      mload\n        /* \".git/MyContracts/SACCODirectorElection.sol\":3698:3732  bytes(membershipNumber).length > 0 */\n      gt\n        /* \".git/MyContracts/SACCODirectorElection.sol\":3690:3770  require(bytes(membershipNumber).length > 0, \"Membership number cannot be empty\") */\n      tag_301\n      jumpi\n      mload(0x40)\n      shl(0xe5, 0x461bcd)\n      dup2\n      mstore\n      0x04\n      add\n      tag_110\n      swap1\n      tag_252\n      jump\t// in\n    tag_301:\n        /* \".git/MyContracts/SACCODirectorElection.sol\":3814:3815  0 */\n      0x00\n        /* \".git/MyContracts/SACCODirectorElection.sol\":3795:3803  position */\n      dup2\n        /* \".git/MyContracts/SACCODirectorElection.sol\":3789:3811  bytes(position).length */\n      mload\n        /* \".git/MyContracts/SACCODirectorElection.sol\":3789:3815  bytes(position).length > 0 */\n      gt\n        /* \".git/MyContracts/SACCODirectorElection.sol\":3781:3844  require(bytes(position).length > 0, \"Position cannot be empty\") */\n      tag_303\n      jumpi\n      mload(0x40)\n      shl(0xe5, 0x461bcd)\n      dup2\n      mstore\n        /* \"#utility.yul\":18359:18361   */\n      0x20\n        /* \".git/MyContracts/SACCODirectorElection.sol\":3781:3844  require(bytes(position).length > 0, \"Position cannot be empty\") */\n      0x04\n      dup3\n      add\n        /* \"#utility.yul\":18341:18362   */\n      mstore\n        /* \"#utility.yul\":18398:18400   */\n      0x18\n        /* \"#utility.yul\":18378:18396   */\n      0x24\n      dup3\n      add\n        /* \"#utility.yul\":18371:18401   */\n      mstore\n        /* \"#utility.yul\":18437:18463   */\n      0x506f736974696f6e2063616e6e6f7420626520656d7074790000000000000000\n        /* \"#utility.yul\":18417:18435   */\n      0x44\n      dup3\n      add\n        /* \"#utility.yul\":18410:18464   */\n      mstore\n        /* \"#utility.yul\":18481:18499   */\n      0x64\n      add\n        /* \".git/MyContracts/SACCODirectorElection.sol\":3781:3844  require(bytes(position).length > 0, \"Position cannot be empty\") */\n      tag_110\n        /* \"#utility.yul\":18157:18505   */\n      jump\n        /* \".git/MyContracts/SACCODirectorElection.sol\":3781:3844  require(bytes(position).length > 0, \"Position cannot be empty\") */\n    tag_303:\n        /* \".git/MyContracts/SACCODirectorElection.sol\":3864:3876  electionOpen */\n      sload(0x00)\n      shl(0xa0, 0x01)\n      swap1\n      div\n      0xff\n      and\n        /* \".git/MyContracts/SACCODirectorElection.sol\":3863:3876  !electionOpen */\n      iszero\n        /* \".git/MyContracts/SACCODirectorElection.sol\":3855:3930  require(!electionOpen, \"Cannot register candidates while election is open\") */\n      tag_306\n      jumpi\n      mload(0x40)\n      shl(0xe5, 0x461bcd)\n      dup2\n      mstore\n        /* \"#utility.yul\":18712:18714   */\n      0x20\n        /* \".git/MyContracts/SACCODirectorElection.sol\":3855:3930  require(!electionOpen, \"Cannot register candidates while election is open\") */\n      0x04\n      dup3\n      add\n        /* \"#utility.yul\":18694:18715   */\n      mstore\n        /* \"#utility.yul\":18751:18753   */\n      0x31\n        /* \"#utility.yul\":18731:18749   */\n      0x24\n      dup3\n      add\n        /* \"#utility.yul\":18724:18754   */\n      mstore\n        /* \"#utility.yul\":18790:18824   */\n      0x43616e6e6f742072656769737465722063616e64696461746573207768696c65\n        /* \"#utility.yul\":18770:18788   */\n      0x44\n      dup3\n      add\n        /* \"#utility.yul\":18763:18825   */\n      mstore\n      shl(0x79, 0x1032b632b1ba34b7b71034b99037b832b7)\n        /* \"#utility.yul\":18841:18859   */\n      0x64\n      dup3\n      add\n        /* \"#utility.yul\":18834:18881   */\n      mstore\n        /* \"#utility.yul\":18898:18917   */\n      0x84\n      add\n        /* \".git/MyContracts/SACCODirectorElection.sol\":3855:3930  require(!electionOpen, \"Cannot register candidates while election is open\") */\n      tag_110\n        /* \"#utility.yul\":18510:18923   */\n      jump\n        /* \".git/MyContracts/SACCODirectorElection.sol\":3855:3930  require(!electionOpen, \"Cannot register candidates while election is open\") */\n    tag_306:\n        /* \".git/MyContracts/SACCODirectorElection.sol\":3965:3980  nextCandidateId */\n      sload(0x02)\n        /* \".git/MyContracts/SACCODirectorElection.sol\":4019:4234  Candidate({... */\n      0x40\n      dup1\n      mload\n      0xc0\n      dup2\n      add\n      dup3\n      mstore\n      dup3\n      dup2\n      mstore\n      0x20\n      dup1\n      dup3\n      add\n      dup8\n      dup2\n      mstore\n      dup3\n      dup5\n      add\n      dup8\n      swap1\n      mstore\n      0x60\n      dup4\n      add\n      dup7\n      swap1\n      mstore\n        /* \".git/MyContracts/SACCODirectorElection.sol\":3943:3962  uint256 candidateId */\n      0x00\n        /* \".git/MyContracts/SACCODirectorElection.sol\":4019:4234  Candidate({... */\n      0x80\n      dup5\n      add\n      dup2\n      swap1\n      mstore\n        /* \".git/MyContracts/SACCODirectorElection.sol\":4218:4222  true */\n      0x01\n        /* \".git/MyContracts/SACCODirectorElection.sol\":4019:4234  Candidate({... */\n      0xa0\n      dup6\n      add\n      dup2\n      swap1\n      mstore\n        /* \".git/MyContracts/SACCODirectorElection.sol\":3993:4016  candidates[candidateId] */\n      dup7\n      dup3\n      mstore\n        /* \".git/MyContracts/SACCODirectorElection.sol\":3993:4003  candidates */\n      0x05\n        /* \".git/MyContracts/SACCODirectorElection.sol\":3993:4016  candidates[candidateId] */\n      swap1\n      swap4\n      mstore\n      swap4\n      swap1\n      swap4\n      keccak256\n        /* \".git/MyContracts/SACCODirectorElection.sol\":3993:4234  candidates[candidateId] = Candidate({... */\n      dup3\n      mload\n      dup2\n      sstore\n      swap3\n      mload\n        /* \".git/MyContracts/SACCODirectorElection.sol\":4019:4234  Candidate({... */\n      swap2\n      swap3\n        /* \".git/MyContracts/SACCODirectorElection.sol\":3993:4016  candidates[candidateId] */\n      swap2\n        /* \".git/MyContracts/SACCODirectorElection.sol\":3993:4234  candidates[candidateId] = Candidate({... */\n      swap1\n      dup3\n      add\n      swap1\n      tag_309\n      swap1\n      dup3\n      tag_257\n      jump\t// in\n    tag_309:\n      pop\n      0x40\n      dup3\n      add\n      mload\n      0x02\n      dup3\n      add\n      swap1\n      tag_310\n      swap1\n      dup3\n      tag_257\n      jump\t// in\n    tag_310:\n      pop\n      0x60\n      dup3\n      add\n      mload\n      0x03\n      dup3\n      add\n      swap1\n      tag_311\n      swap1\n      dup3\n      tag_257\n      jump\t// in\n    tag_311:\n      pop\n      0x80\n      dup3\n      add\n      mload\n      0x04\n      dup3\n      add\n      sstore\n      0xa0\n      swap1\n      swap2\n      add\n      mload\n      0x05\n      swap1\n      swap2\n      add\n      dup1\n      sload\n      not(0xff)\n      and\n      swap2\n      iszero\n      iszero\n      swap2\n      swap1\n      swap2\n      or\n      swap1\n      sstore\n        /* \".git/MyContracts/SACCODirectorElection.sol\":4247:4277  candidatesByPosition[position] */\n      mload(0x40)\n        /* \".git/MyContracts/SACCODirectorElection.sol\":4247:4267  candidatesByPosition */\n      0x06\n      swap1\n        /* \".git/MyContracts/SACCODirectorElection.sol\":4247:4277  candidatesByPosition[position] */\n      tag_312\n      swap1\n        /* \".git/MyContracts/SACCODirectorElection.sol\":4268:4276  position */\n      dup5\n      swap1\n        /* \".git/MyContracts/SACCODirectorElection.sol\":4247:4277  candidatesByPosition[position] */\n      tag_142\n      jump\t// in\n    tag_312:\n      swap1\n      dup2\n      mstore\n      mload(0x40)\n      0x20\n      swap2\n      dup2\n      swap1\n      sub\n      dup3\n      add\n      swap1\n      keccak256\n        /* \".git/MyContracts/SACCODirectorElection.sol\":4247:4295  candidatesByPosition[position].push(candidateId) */\n      dup1\n      sload\n      0x01\n      dup2\n      add\n      dup3\n      sstore\n      0x00\n      swap2\n      dup3\n      mstore\n      swap2\n      dup2\n      keccak256\n      swap1\n      swap2\n      add\n      dup3\n      swap1\n      sstore\n      dup1\n        /* \".git/MyContracts/SACCODirectorElection.sol\":4389:4638  for (uint256 i = 0; i < positionList.length; i++) {... */\n    tag_314:\n        /* \".git/MyContracts/SACCODirectorElection.sol\":4413:4425  positionList */\n      0x03\n        /* \".git/MyContracts/SACCODirectorElection.sol\":4413:4432  positionList.length */\n      sload\n        /* \".git/MyContracts/SACCODirectorElection.sol\":4409:4432  i < positionList.length */\n      dup2\n      lt\n        /* \".git/MyContracts/SACCODirectorElection.sol\":4389:4638  for (uint256 i = 0; i < positionList.length; i++) {... */\n      iszero\n      tag_315\n      jumpi\n        /* \".git/MyContracts/SACCODirectorElection.sol\":4529:4537  position */\n      dup4\n        /* \".git/MyContracts/SACCODirectorElection.sol\":4513:4539  keccak256(bytes(position)) */\n      dup1\n      mload\n      swap1\n      0x20\n      add\n      keccak256\n        /* \".git/MyContracts/SACCODirectorElection.sol\":4492:4504  positionList */\n      0x03\n        /* \".git/MyContracts/SACCODirectorElection.sol\":4505:4506  i */\n      dup3\n        /* \".git/MyContracts/SACCODirectorElection.sol\":4492:4507  positionList[i] */\n      dup2\n      sload\n      dup2\n      lt\n      tag_318\n      jumpi\n      tag_318\n      tag_212\n      jump\t// in\n    tag_318:\n      swap1\n      0x00\n      mstore\n      keccak256(0x00, 0x20)\n      add\n        /* \".git/MyContracts/SACCODirectorElection.sol\":4476:4509  keccak256(bytes(positionList[i])) */\n      mload(0x40)\n      tag_320\n      swap2\n      swap1\n      tag_321\n      jump\t// in\n    tag_320:\n      mload(0x40)\n      dup1\n      swap2\n      sub\n      swap1\n      keccak256\n        /* \".git/MyContracts/SACCODirectorElection.sol\":4476:4539  keccak256(bytes(positionList[i])) == keccak256(bytes(position)) */\n      sub\n        /* \".git/MyContracts/SACCODirectorElection.sol\":4454:4627  if (... */\n      tag_322\n      jumpi\n        /* \".git/MyContracts/SACCODirectorElection.sol\":4583:4587  true */\n      0x01\n        /* \".git/MyContracts/SACCODirectorElection.sol\":4574:4587  exists = true */\n      swap2\n      pop\n        /* \".git/MyContracts/SACCODirectorElection.sol\":4606:4611  break */\n      jump(tag_315)\n        /* \".git/MyContracts/SACCODirectorElection.sol\":4454:4627  if (... */\n    tag_322:\n        /* \".git/MyContracts/SACCODirectorElection.sol\":4434:4437  i++ */\n      0x01\n      add\n        /* \".git/MyContracts/SACCODirectorElection.sol\":4389:4638  for (uint256 i = 0; i < positionList.length; i++) {... */\n      jump(tag_314)\n    tag_315:\n      pop\n        /* \".git/MyContracts/SACCODirectorElection.sol\":4653:4659  exists */\n      dup1\n        /* \".git/MyContracts/SACCODirectorElection.sol\":4648:4715  if (!exists) {... */\n      tag_323\n      jumpi\n        /* \".git/MyContracts/SACCODirectorElection.sol\":4676:4688  positionList */\n      0x03\n        /* \".git/MyContracts/SACCODirectorElection.sol\":4676:4703  positionList.push(position) */\n      dup1\n      sload\n      0x01\n      dup2\n      add\n      dup3\n      sstore\n      0x00\n      swap2\n      swap1\n      swap2\n      mstore\n      0xc2575a0e9e593c00f959f8c92f12db2869c3395a3b0502d05e2516446f71f85b\n      add\n      tag_325\n        /* \".git/MyContracts/SACCODirectorElection.sol\":4694:4702  position */\n      dup5\n        /* \".git/MyContracts/SACCODirectorElection.sol\":4676:4703  positionList.push(position) */\n      dup3\n      tag_257\n      jump\t// in\n    tag_325:\n      pop\n        /* \".git/MyContracts/SACCODirectorElection.sol\":4648:4715  if (!exists) {... */\n    tag_323:\n        /* \".git/MyContracts/SACCODirectorElection.sol\":4727:4742  nextCandidateId */\n      0x02\n        /* \".git/MyContracts/SACCODirectorElection.sol\":4727:4744  nextCandidateId++ */\n      dup1\n      sload\n      swap1\n        /* \".git/MyContracts/SACCODirectorElection.sol\":4727:4742  nextCandidateId */\n      0x00\n        /* \".git/MyContracts/SACCODirectorElection.sol\":4727:4744  nextCandidateId++ */\n      tag_326\n      dup4\n      tag_327\n      jump\t// in\n    tag_326:\n      swap2\n      swap1\n      pop\n      sstore\n      pop\n        /* \".git/MyContracts/SACCODirectorElection.sol\":4782:4793  candidateId */\n      dup2\n        /* \".git/MyContracts/SACCODirectorElection.sol\":4762:4828  CandidateRegistered(candidateId, name, membershipNumber, position) */\n      0xb76aadacec2d73468ab4c03b3976f369439578b697493e0b3596ae94726d8404\n        /* \".git/MyContracts/SACCODirectorElection.sol\":4795:4799  name */\n      dup7\n        /* \".git/MyContracts/SACCODirectorElection.sol\":4801:4817  membershipNumber */\n      dup7\n        /* \".git/MyContracts/SACCODirectorElection.sol\":4819:4827  position */\n      dup7\n        /* \".git/MyContracts/SACCODirectorElection.sol\":4762:4828  CandidateRegistered(candidateId, name, membershipNumber, position) */\n      mload(0x40)\n      tag_328\n      swap4\n      swap3\n      swap2\n      swap1\n      tag_329\n      jump\t// in\n    tag_328:\n      mload(0x40)\n      dup1\n      swap2\n      sub\n      swap1\n      log2\n        /* \".git/MyContracts/SACCODirectorElection.sol\":3603:4836  {... */\n      pop\n      pop\n        /* \".git/MyContracts/SACCODirectorElection.sol\":3447:4836  function registerCandidate(... */\n      pop\n      pop\n      pop\n      jump\t// out\n        /* \".git/MyContracts/SACCODirectorElection.sol\":818:863  mapping(address => Delegate) public delegates */\n    tag_81:\n      mstore(0x20, 0x04)\n      0x00\n      swap1\n      dup2\n      mstore\n      0x40\n      swap1\n      keccak256\n      dup1\n      sload\n      0x01\n      dup3\n      add\n      dup1\n      sload\n      0xff\n      swap1\n      swap3\n      and\n      swap3\n      swap2\n      tag_330\n      swap1\n      tag_117\n      jump\t// in\n    tag_330:\n      dup1\n      0x1f\n      add\n      0x20\n      dup1\n      swap2\n      div\n      mul\n      0x20\n      add\n      mload(0x40)\n      swap1\n      dup2\n      add\n      0x40\n      mstore\n      dup1\n      swap3\n      swap2\n      swap1\n      dup2\n      dup2\n      mstore\n      0x20\n      add\n      dup3\n      dup1\n      sload\n      tag_331\n      swap1\n      tag_117\n      jump\t// in\n    tag_331:\n      dup1\n      iszero\n      tag_332\n      jumpi\n      dup1\n      0x1f\n      lt\n      tag_333\n      jumpi\n      0x0100\n      dup1\n      dup4\n      sload\n      div\n      mul\n      dup4\n      mstore\n      swap2\n      0x20\n      add\n      swap2\n      jump(tag_332)\n    tag_333:\n      dup3\n      add\n      swap2\n      swap1\n      0x00\n      mstore\n      keccak256(0x00, 0x20)\n      swap1\n    tag_334:\n      dup2\n      sload\n      dup2\n      mstore\n      swap1\n      0x01\n      add\n      swap1\n      0x20\n      add\n      dup1\n      dup4\n      gt\n      tag_334\n      jumpi\n      dup3\n      swap1\n      sub\n      0x1f\n      and\n      dup3\n      add\n      swap2\n    tag_332:\n      pop\n      pop\n      pop\n      pop\n      pop\n      swap1\n      dup1\n      0x02\n      add\n      dup1\n      sload\n      tag_335\n      swap1\n      tag_117\n      jump\t// in\n    tag_335:\n      dup1\n      0x1f\n      add\n      0x20\n      dup1\n      swap2\n      div\n      mul\n      0x20\n      add\n      mload(0x40)\n      swap1\n      dup2\n      add\n      0x40\n      mstore\n      dup1\n      swap3\n      swap2\n      swap1\n      dup2\n      dup2\n      mstore\n      0x20\n      add\n      dup3\n      dup1\n      sload\n      tag_336\n      swap1\n      tag_117\n      jump\t// in\n    tag_336:\n      dup1\n      iszero\n      tag_337\n      jumpi\n      dup1\n      0x1f\n      lt\n      tag_338\n      jumpi\n      0x0100\n      dup1\n      dup4\n      sload\n      div\n      mul\n      dup4\n      mstore\n      swap2\n      0x20\n      add\n      swap2\n      jump(tag_337)\n    tag_338:\n      dup3\n      add\n      swap2\n      swap1\n      0x00\n      mstore\n      keccak256(0x00, 0x20)\n      swap1\n    tag_339:\n      dup2\n      sload\n      dup2\n      mstore\n      swap1\n      0x01\n      add\n      swap1\n      0x20\n      add\n      dup1\n      dup4\n      gt\n      tag_339\n      jumpi\n      dup3\n      swap1\n      sub\n      0x1f\n      and\n      dup3\n      add\n      swap2\n    tag_337:\n      pop\n      pop\n      pop\n      pop\n      pop\n      swap1\n      pop\n      dup4\n      jump\t// out\n        /* \".git/MyContracts/SACCODirectorElection.sol\":8577:9300  function winningCandidate(string memory position)... */\n    tag_86:\n        /* \".git/MyContracts/SACCODirectorElection.sol\":8699:8725  uint256 winningCandidateId */\n      0x00\n        /* \".git/MyContracts/SACCODirectorElection.sol\":2211:2223  electionOpen */\n      dup1\n      sload\n      shl(0xa0, 0x01)\n      swap1\n      div\n      0xff\n      and\n        /* \".git/MyContracts/SACCODirectorElection.sol\":2210:2223  !electionOpen */\n      iszero\n      dup1\n        /* \".git/MyContracts/SACCODirectorElection.sol\":2210:2260  !electionOpen || block.timestamp >= votingDeadline */\n      tag_341\n      jumpi\n      pop\n        /* \".git/MyContracts/SACCODirectorElection.sol\":2246:2260  votingDeadline */\n      sload(0x01)\n        /* \".git/MyContracts/SACCODirectorElection.sol\":2227:2242  block.timestamp */\n      timestamp\n        /* \".git/MyContracts/SACCODirectorElection.sol\":2227:2260  block.timestamp >= votingDeadline */\n      lt\n      iszero\n        /* \".git/MyContracts/SACCODirectorElection.sol\":2210:2260  !electionOpen || block.timestamp >= votingDeadline */\n    tag_341:\n        /* \".git/MyContracts/SACCODirectorElection.sol\":2188:2313  require(... */\n      tag_342\n      jumpi\n      mload(0x40)\n      shl(0xe5, 0x461bcd)\n      dup2\n      mstore\n        /* \"#utility.yul\":12713:12715   */\n      0x20\n        /* \".git/MyContracts/SACCODirectorElection.sol\":2188:2313  require(... */\n      0x04\n      dup3\n      add\n        /* \"#utility.yul\":12695:12716   */\n      mstore\n        /* \"#utility.yul\":12752:12754   */\n      0x19\n        /* \"#utility.yul\":12732:12750   */\n      0x24\n      dup3\n      add\n        /* \"#utility.yul\":12725:12755   */\n      mstore\n      shl(0x38, 0x456c656374696f6e206973207374696c6c206f6e676f696e67)\n        /* \"#utility.yul\":12771:12789   */\n      0x44\n      dup3\n      add\n        /* \"#utility.yul\":12764:12819   */\n      mstore\n        /* \"#utility.yul\":12836:12854   */\n      0x64\n      add\n        /* \".git/MyContracts/SACCODirectorElection.sol\":2188:2313  require(... */\n      tag_110\n        /* \"#utility.yul\":12511:12860   */\n      jump\n        /* \".git/MyContracts/SACCODirectorElection.sol\":2188:2313  require(... */\n    tag_342:\n        /* \".git/MyContracts/SACCODirectorElection.sol\":8743:8763  uint256[] memory ids */\n      0x00\n        /* \".git/MyContracts/SACCODirectorElection.sol\":8766:8786  candidatesByPosition */\n      0x06\n        /* \".git/MyContracts/SACCODirectorElection.sol\":8787:8795  position */\n      dup4\n        /* \".git/MyContracts/SACCODirectorElection.sol\":8766:8796  candidatesByPosition[position] */\n      mload(0x40)\n      tag_345\n      swap2\n      swap1\n      tag_142\n      jump\t// in\n    tag_345:\n      swap1\n      dup2\n      mstore\n      0x40\n      dup1\n      mload\n      swap2\n      dup3\n      swap1\n      sub\n      0x20\n      swap1\n      dup2\n      add\n      dup4\n      keccak256\n        /* \".git/MyContracts/SACCODirectorElection.sol\":8743:8796  uint256[] memory ids = candidatesByPosition[position] */\n      dup1\n      sload\n      dup1\n      dup4\n      mul\n      dup6\n      add\n      dup4\n      add\n      swap1\n      swap4\n      mstore\n      dup3\n      dup5\n      mstore\n        /* \".git/MyContracts/SACCODirectorElection.sol\":8766:8796  candidatesByPosition[position] */\n      swap2\n        /* \".git/MyContracts/SACCODirectorElection.sol\":8743:8796  uint256[] memory ids = candidatesByPosition[position] */\n      swap1\n      dup4\n      add\n        /* \".git/MyContracts/SACCODirectorElection.sol\":8766:8796  candidatesByPosition[position] */\n      dup3\n        /* \".git/MyContracts/SACCODirectorElection.sol\":8743:8796  uint256[] memory ids = candidatesByPosition[position] */\n      dup3\n      dup1\n      iszero\n      tag_346\n      jumpi\n      0x20\n      mul\n      dup3\n      add\n      swap2\n      swap1\n      0x00\n      mstore\n      keccak256(0x00, 0x20)\n      swap1\n    tag_347:\n      dup2\n      sload\n      dup2\n      mstore\n      0x20\n      add\n      swap1\n      0x01\n      add\n      swap1\n      dup1\n      dup4\n      gt\n      tag_347\n      jumpi\n    tag_346:\n      pop\n      pop\n      pop\n      pop\n      pop\n      swap1\n      pop\n        /* \".git/MyContracts/SACCODirectorElection.sol\":8828:8829  0 */\n      0x00\n        /* \".git/MyContracts/SACCODirectorElection.sol\":8815:8818  ids */\n      dup2\n        /* \".git/MyContracts/SACCODirectorElection.sol\":8815:8825  ids.length */\n      mload\n        /* \".git/MyContracts/SACCODirectorElection.sol\":8815:8829  ids.length > 0 */\n      gt\n        /* \".git/MyContracts/SACCODirectorElection.sol\":8807:8865  require(ids.length > 0, \"No candidates for this position\") */\n      tag_348\n      jumpi\n      mload(0x40)\n      shl(0xe5, 0x461bcd)\n      dup2\n      mstore\n        /* \"#utility.yul\":20625:20627   */\n      0x20\n        /* \".git/MyContracts/SACCODirectorElection.sol\":8807:8865  require(ids.length > 0, \"No candidates for this position\") */\n      0x04\n      dup3\n      add\n        /* \"#utility.yul\":20607:20628   */\n      mstore\n        /* \"#utility.yul\":20664:20666   */\n      0x1f\n        /* \"#utility.yul\":20644:20662   */\n      0x24\n      dup3\n      add\n        /* \"#utility.yul\":20637:20667   */\n      mstore\n        /* \"#utility.yul\":20703:20736   */\n      0x4e6f2063616e6469646174657320666f72207468697320706f736974696f6e00\n        /* \"#utility.yul\":20683:20701   */\n      0x44\n      dup3\n      add\n        /* \"#utility.yul\":20676:20737   */\n      mstore\n        /* \"#utility.yul\":20754:20772   */\n      0x64\n      add\n        /* \".git/MyContracts/SACCODirectorElection.sol\":8807:8865  require(ids.length > 0, \"No candidates for this position\") */\n      tag_110\n        /* \"#utility.yul\":20423:20778   */\n      jump\n        /* \".git/MyContracts/SACCODirectorElection.sol\":8807:8865  require(ids.length > 0, \"No candidates for this position\") */\n    tag_348:\n        /* \".git/MyContracts/SACCODirectorElection.sol\":8878:8898  uint256 highestVotes */\n      0x00\n      dup1\n      dup1\n        /* \".git/MyContracts/SACCODirectorElection.sol\":8946:9208  for (uint256 i = 0; i < ids.length; i++) {... */\n    tag_351:\n        /* \".git/MyContracts/SACCODirectorElection.sol\":8970:8973  ids */\n      dup4\n        /* \".git/MyContracts/SACCODirectorElection.sol\":8970:8980  ids.length */\n      mload\n        /* \".git/MyContracts/SACCODirectorElection.sol\":8966:8967  i */\n      dup2\n        /* \".git/MyContracts/SACCODirectorElection.sol\":8966:8980  i < ids.length */\n      lt\n        /* \".git/MyContracts/SACCODirectorElection.sol\":8946:9208  for (uint256 i = 0; i < ids.length; i++) {... */\n      iszero\n      tag_352\n      jumpi\n        /* \".git/MyContracts/SACCODirectorElection.sol\":9002:9020  Candidate memory c */\n      0x00\n        /* \".git/MyContracts/SACCODirectorElection.sol\":9023:9033  candidates */\n      0x05\n        /* \".git/MyContracts/SACCODirectorElection.sol\":9023:9041  candidates[ids[i]] */\n      0x00\n        /* \".git/MyContracts/SACCODirectorElection.sol\":9034:9037  ids */\n      dup7\n        /* \".git/MyContracts/SACCODirectorElection.sol\":9038:9039  i */\n      dup5\n        /* \".git/MyContracts/SACCODirectorElection.sol\":9034:9040  ids[i] */\n      dup2\n      mload\n      dup2\n      lt\n      tag_355\n      jumpi\n      tag_355\n      tag_212\n      jump\t// in\n    tag_355:\n      0x20\n      mul\n      0x20\n      add\n      add\n      mload\n        /* \".git/MyContracts/SACCODirectorElection.sol\":9023:9041  candidates[ids[i]] */\n      dup2\n      mstore\n      0x20\n      add\n      swap1\n      dup2\n      mstore\n      0x20\n      add\n      0x00\n      keccak256\n        /* \".git/MyContracts/SACCODirectorElection.sol\":9002:9041  Candidate memory c = candidates[ids[i]] */\n      mload(0x40)\n      dup1\n      0xc0\n      add\n      0x40\n      mstore\n      swap1\n      dup2\n      0x00\n      dup3\n      add\n      sload\n      dup2\n      mstore\n      0x20\n      add\n      0x01\n      dup3\n      add\n      dup1\n      sload\n      tag_356\n      swap1\n      tag_117\n      jump\t// in\n    tag_356:\n      dup1\n      0x1f\n      add\n      0x20\n      dup1\n      swap2\n      div\n      mul\n      0x20\n      add\n      mload(0x40)\n      swap1\n      dup2\n      add\n      0x40\n      mstore\n      dup1\n      swap3\n      swap2\n      swap1\n      dup2\n      dup2\n      mstore\n      0x20\n      add\n      dup3\n      dup1\n      sload\n      tag_357\n      swap1\n      tag_117\n      jump\t// in\n    tag_357:\n      dup1\n      iszero\n      tag_358\n      jumpi\n      dup1\n      0x1f\n      lt\n      tag_359\n      jumpi\n      0x0100\n      dup1\n      dup4\n      sload\n      div\n      mul\n      dup4\n      mstore\n      swap2\n      0x20\n      add\n      swap2\n      jump(tag_358)\n    tag_359:\n      dup3\n      add\n      swap2\n      swap1\n      0x00\n      mstore\n      keccak256(0x00, 0x20)\n      swap1\n    tag_360:\n      dup2\n      sload\n      dup2\n      mstore\n      swap1\n      0x01\n      add\n      swap1\n      0x20\n      add\n      dup1\n      dup4\n      gt\n      tag_360\n      jumpi\n      dup3\n      swap1\n      sub\n      0x1f\n      and\n      dup3\n      add\n      swap2\n    tag_358:\n      pop\n      pop\n      pop\n      pop\n      pop\n      dup2\n      mstore\n      0x20\n      add\n      0x02\n      dup3\n      add\n      dup1\n      sload\n      tag_361\n      swap1\n      tag_117\n      jump\t// in\n    tag_361:\n      dup1\n      0x1f\n      add\n      0x20\n      dup1\n      swap2\n      div\n      mul\n      0x20\n      add\n      mload(0x40)\n      swap1\n      dup2\n      add\n      0x40\n      mstore\n      dup1\n      swap3\n      swap2\n      swap1\n      dup2\n      dup2\n      mstore\n      0x20\n      add\n      dup3\n      dup1\n      sload\n      tag_362\n      swap1\n      tag_117\n      jump\t// in\n    tag_362:\n      dup1\n      iszero\n      tag_363\n      jumpi\n      dup1\n      0x1f\n      lt\n      tag_364\n      jumpi\n      0x0100\n      dup1\n      dup4\n      sload\n      div\n      mul\n      dup4\n      mstore\n      swap2\n      0x20\n      add\n      swap2\n      jump(tag_363)\n    tag_364:\n      dup3\n      add\n      swap2\n      swap1\n      0x00\n      mstore\n      keccak256(0x00, 0x20)\n      swap1\n    tag_365:\n      dup2\n      sload\n      dup2\n      mstore\n      swap1\n      0x01\n      add\n      swap1\n      0x20\n      add\n      dup1\n      dup4\n      gt\n      tag_365\n      jumpi\n      dup3\n      swap1\n      sub\n      0x1f\n      and\n      dup3\n      add\n      swap2\n    tag_363:\n      pop\n      pop\n      pop\n      pop\n      pop\n      dup2\n      mstore\n      0x20\n      add\n      0x03\n      dup3\n      add\n      dup1\n      sload\n      tag_366\n      swap1\n      tag_117\n      jump\t// in\n    tag_366:\n      dup1\n      0x1f\n      add\n      0x20\n      dup1\n      swap2\n      div\n      mul\n      0x20\n      add\n      mload(0x40)\n      swap1\n      dup2\n      add\n      0x40\n      mstore\n      dup1\n      swap3\n      swap2\n      swap1\n      dup2\n      dup2\n      mstore\n      0x20\n      add\n      dup3\n      dup1\n      sload\n      tag_367\n      swap1\n      tag_117\n      jump\t// in\n    tag_367:\n      dup1\n      iszero\n      tag_368\n      jumpi\n      dup1\n      0x1f\n      lt\n      tag_369\n      jumpi\n      0x0100\n      dup1\n      dup4\n      sload\n      div\n      mul\n      dup4\n      mstore\n      swap2\n      0x20\n      add\n      swap2\n      jump(tag_368)\n    tag_369:\n      dup3\n      add\n      swap2\n      swap1\n      0x00\n      mstore\n      keccak256(0x00, 0x20)\n      swap1\n    tag_370:\n      dup2\n      sload\n      dup2\n      mstore\n      swap1\n      0x01\n      add\n      swap1\n      0x20\n      add\n      dup1\n      dup4\n      gt\n      tag_370\n      jumpi\n      dup3\n      swap1\n      sub\n      0x1f\n      and\n      dup3\n      add\n      swap2\n    tag_368:\n      pop\n      pop\n      pop\n      swap2\n      dup4\n      mstore\n      pop\n      pop\n      0x04\n      dup3\n      add\n      sload\n      0x20\n      dup3\n      add\n      mstore\n      0x05\n      swap1\n      swap2\n      add\n      sload\n      0xff\n      and\n      iszero\n      iszero\n      0x40\n      swap1\n      swap2\n      add\n      mstore\n        /* \".git/MyContracts/SACCODirectorElection.sol\":9060:9070  c.isActive */\n      0xa0\n      dup2\n      add\n      mload\n        /* \".git/MyContracts/SACCODirectorElection.sol\":9002:9041  Candidate memory c = candidates[ids[i]] */\n      swap1\n      swap2\n      pop\n        /* \".git/MyContracts/SACCODirectorElection.sol\":9060:9100  c.isActive && c.voteCount > highestVotes */\n      dup1\n      iszero\n      tag_371\n      jumpi\n      pop\n        /* \".git/MyContracts/SACCODirectorElection.sol\":9088:9100  highestVotes */\n      dup4\n        /* \".git/MyContracts/SACCODirectorElection.sol\":9074:9075  c */\n      dup2\n        /* \".git/MyContracts/SACCODirectorElection.sol\":9074:9085  c.voteCount */\n      0x80\n      add\n      mload\n        /* \".git/MyContracts/SACCODirectorElection.sol\":9074:9100  c.voteCount > highestVotes */\n      gt\n        /* \".git/MyContracts/SACCODirectorElection.sol\":9060:9100  c.isActive && c.voteCount > highestVotes */\n    tag_371:\n        /* \".git/MyContracts/SACCODirectorElection.sol\":9056:9197  if (c.isActive && c.voteCount > highestVotes) {... */\n      iszero\n      tag_372\n      jumpi\n        /* \".git/MyContracts/SACCODirectorElection.sol\":9136:9147  c.voteCount */\n      0x80\n      dup2\n      add\n      mload\n        /* \".git/MyContracts/SACCODirectorElection.sol\":9177:9181  c.id */\n      dup2\n      mload\n        /* \".git/MyContracts/SACCODirectorElection.sol\":9136:9147  c.voteCount */\n      swap1\n      swap5\n      pop\n        /* \".git/MyContracts/SACCODirectorElection.sol\":9177:9181  c.id */\n      swap3\n      pop\n        /* \".git/MyContracts/SACCODirectorElection.sol\":9056:9197  if (c.isActive && c.voteCount > highestVotes) {... */\n    tag_372:\n      pop\n        /* \".git/MyContracts/SACCODirectorElection.sol\":8982:8985  i++ */\n      0x01\n      add\n        /* \".git/MyContracts/SACCODirectorElection.sol\":8946:9208  for (uint256 i = 0; i < ids.length; i++) {... */\n      jump(tag_351)\n    tag_352:\n      pop\n        /* \".git/MyContracts/SACCODirectorElection.sol\":9228:9236  winnerId */\n      dup1\n        /* \".git/MyContracts/SACCODirectorElection.sol\":9240:9241  0 */\n      0x00\n        /* \".git/MyContracts/SACCODirectorElection.sol\":9228:9241  winnerId != 0 */\n      sub\n        /* \".git/MyContracts/SACCODirectorElection.sol\":9220:9266  require(winnerId != 0, \"No winner determined\") */\n      tag_373\n      jumpi\n      mload(0x40)\n      shl(0xe5, 0x461bcd)\n      dup2\n      mstore\n        /* \"#utility.yul\":20985:20987   */\n      0x20\n        /* \".git/MyContracts/SACCODirectorElection.sol\":9220:9266  require(winnerId != 0, \"No winner determined\") */\n      0x04\n      dup3\n      add\n        /* \"#utility.yul\":20967:20988   */\n      mstore\n        /* \"#utility.yul\":21024:21026   */\n      0x14\n        /* \"#utility.yul\":21004:21022   */\n      0x24\n      dup3\n      add\n        /* \"#utility.yul\":20997:21027   */\n      mstore\n      shl(0x62, 0x139bc81dda5b9b995c8819195d195c9b5a5b9959)\n        /* \"#utility.yul\":21043:21061   */\n      0x44\n      dup3\n      add\n        /* \"#utility.yul\":21036:21086   */\n      mstore\n        /* \"#utility.yul\":21103:21121   */\n      0x64\n      add\n        /* \".git/MyContracts/SACCODirectorElection.sol\":9220:9266  require(winnerId != 0, \"No winner determined\") */\n      tag_110\n        /* \"#utility.yul\":20783:21127   */\n      jump\n        /* \".git/MyContracts/SACCODirectorElection.sol\":9220:9266  require(winnerId != 0, \"No winner determined\") */\n    tag_373:\n        /* \".git/MyContracts/SACCODirectorElection.sol\":9284:9292  winnerId */\n      swap3\n      pop\n      pop\n      pop\n        /* \".git/MyContracts/SACCODirectorElection.sol\":2324:2325  _ */\n    tag_344:\n        /* \".git/MyContracts/SACCODirectorElection.sol\":8577:9300  function winningCandidate(string memory position)... */\n      swap2\n      swap1\n      pop\n      jump\t// out\n        /* \".git/MyContracts/SACCODirectorElection.sol\":7726:7912  function getCandidatesByPosition(string memory position)... */\n    tag_90:\n        /* \".git/MyContracts/SACCODirectorElection.sol\":7833:7849  uint256[] memory */\n      0x60\n        /* \".git/MyContracts/SACCODirectorElection.sol\":7874:7894  candidatesByPosition */\n      0x06\n        /* \".git/MyContracts/SACCODirectorElection.sol\":7895:7903  position */\n      dup3\n        /* \".git/MyContracts/SACCODirectorElection.sol\":7874:7904  candidatesByPosition[position] */\n      mload(0x40)\n      tag_377\n      swap2\n      swap1\n      tag_142\n      jump\t// in\n    tag_377:\n      swap1\n      dup2\n      mstore\n      0x40\n      dup1\n      mload\n      swap2\n      dup3\n      swap1\n      sub\n      0x20\n      swap1\n      dup2\n      add\n      dup4\n      keccak256\n        /* \".git/MyContracts/SACCODirectorElection.sol\":7867:7904  return candidatesByPosition[position] */\n      dup1\n      sload\n      dup1\n      dup4\n      mul\n      dup6\n      add\n      dup4\n      add\n      swap1\n      swap4\n      mstore\n      dup3\n      dup5\n      mstore\n        /* \".git/MyContracts/SACCODirectorElection.sol\":7874:7904  candidatesByPosition[position] */\n      swap2\n        /* \".git/MyContracts/SACCODirectorElection.sol\":7867:7904  return candidatesByPosition[position] */\n      swap1\n      dup4\n      add\n        /* \".git/MyContracts/SACCODirectorElection.sol\":7874:7904  candidatesByPosition[position] */\n      dup3\n        /* \".git/MyContracts/SACCODirectorElection.sol\":7867:7904  return candidatesByPosition[position] */\n      dup3\n      dup1\n      iszero\n      tag_378\n      jumpi\n      0x20\n      mul\n      dup3\n      add\n      swap2\n      swap1\n      0x00\n      mstore\n      keccak256(0x00, 0x20)\n      swap1\n    tag_379:\n      dup2\n      sload\n      dup2\n      mstore\n      0x20\n      add\n      swap1\n      0x01\n      add\n      swap1\n      dup1\n      dup4\n      gt\n      tag_379\n      jumpi\n    tag_378:\n      pop\n      pop\n      pop\n      pop\n      pop\n      swap1\n      pop\n        /* \".git/MyContracts/SACCODirectorElection.sol\":7726:7912  function getCandidatesByPosition(string memory position)... */\n      swap2\n      swap1\n      pop\n      jump\t// out\n        /* \".git/MyContracts/SACCODirectorElection.sol\":5873:6061  function closeElection() external onlyAdmin {... */\n    tag_94:\n        /* \".git/MyContracts/SACCODirectorElection.sol\":1889:1894  admin */\n      and(sub(shl(0xa0, 0x01), 0x01), sload(0x00))\n        /* \".git/MyContracts/SACCODirectorElection.sol\":1875:1885  msg.sender */\n      caller\n        /* \".git/MyContracts/SACCODirectorElection.sol\":1875:1894  msg.sender == admin */\n      eq\n        /* \".git/MyContracts/SACCODirectorElection.sol\":1867:1933  require(msg.sender == admin, \"Only admin can perform this action\") */\n      tag_381\n      jumpi\n      mload(0x40)\n      shl(0xe5, 0x461bcd)\n      dup2\n      mstore\n      0x04\n      add\n      tag_110\n      swap1\n      tag_239\n      jump\t// in\n    tag_381:\n        /* \".git/MyContracts/SACCODirectorElection.sol\":5936:5948  electionOpen */\n      sload(0x00)\n      shl(0xa0, 0x01)\n      swap1\n      div\n      0xff\n      and\n        /* \".git/MyContracts/SACCODirectorElection.sol\":5928:5973  require(electionOpen, \"Election is not open\") */\n      tag_384\n      jumpi\n      mload(0x40)\n      shl(0xe5, 0x461bcd)\n      dup2\n      mstore\n        /* \"#utility.yul\":9179:9181   */\n      0x20\n        /* \".git/MyContracts/SACCODirectorElection.sol\":5928:5973  require(electionOpen, \"Election is not open\") */\n      0x04\n      dup3\n      add\n        /* \"#utility.yul\":9161:9182   */\n      mstore\n        /* \"#utility.yul\":9218:9220   */\n      0x14\n        /* \"#utility.yul\":9198:9216   */\n      0x24\n      dup3\n      add\n        /* \"#utility.yul\":9191:9221   */\n      mstore\n      shl(0x61, 0x22b632b1ba34b7b71034b9903737ba1037b832b7)\n        /* \"#utility.yul\":9237:9255   */\n      0x44\n      dup3\n      add\n        /* \"#utility.yul\":9230:9280   */\n      mstore\n        /* \"#utility.yul\":9297:9315   */\n      0x64\n      add\n        /* \".git/MyContracts/SACCODirectorElection.sol\":5928:5973  require(electionOpen, \"Election is not open\") */\n      tag_110\n        /* \"#utility.yul\":8977:9321   */\n      jump\n        /* \".git/MyContracts/SACCODirectorElection.sol\":5928:5973  require(electionOpen, \"Election is not open\") */\n    tag_384:\n        /* \".git/MyContracts/SACCODirectorElection.sol\":5999:6004  false */\n      0x00\n        /* \".git/MyContracts/SACCODirectorElection.sol\":5984:6004  electionOpen = false */\n      dup1\n      sload\n      not(shl(0xa0, 0xff))\n      and\n      swap1\n      sstore\n        /* \".git/MyContracts/SACCODirectorElection.sol\":6022:6053  ElectionClosed(block.timestamp) */\n      mload(0x40)\n        /* \".git/MyContracts/SACCODirectorElection.sol\":6037:6052  block.timestamp */\n      timestamp\n        /* \"#utility.yul\":345:370   */\n      dup2\n      mstore\n        /* \".git/MyContracts/SACCODirectorElection.sol\":6022:6053  ElectionClosed(block.timestamp) */\n      0x393c4b8e62f1195313cf17dcf00793c668ddfc35881cd8015559c074f6d61e83\n      swap1\n        /* \"#utility.yul\":333:335   */\n      0x20\n        /* \"#utility.yul\":318:336   */\n      add\n        /* \".git/MyContracts/SACCODirectorElection.sol\":6022:6053  ElectionClosed(block.timestamp) */\n      mload(0x40)\n      dup1\n      swap2\n      sub\n      swap1\n      log1\n        /* \".git/MyContracts/SACCODirectorElection.sol\":5873:6061  function closeElection() external onlyAdmin {... */\n      jump\t// out\n        /* \".git/MyContracts/SACCODirectorElection.sol\":11108:11365  function transferAdmin(address newAdmin) external onlyAdmin {... */\n    tag_97:\n        /* \".git/MyContracts/SACCODirectorElection.sol\":1889:1894  admin */\n      and(sub(shl(0xa0, 0x01), 0x01), sload(0x00))\n        /* \".git/MyContracts/SACCODirectorElection.sol\":1875:1885  msg.sender */\n      caller\n        /* \".git/MyContracts/SACCODirectorElection.sol\":1875:1894  msg.sender == admin */\n      eq\n        /* \".git/MyContracts/SACCODirectorElection.sol\":1867:1933  require(msg.sender == admin, \"Only admin can perform this action\") */\n      tag_388\n      jumpi\n      mload(0x40)\n      shl(0xe5, 0x461bcd)\n      dup2\n      mstore\n      0x04\n      add\n      tag_110\n      swap1\n      tag_239\n      jump\t// in\n    tag_388:\n      sub(shl(0xa0, 0x01), 0x01)\n        /* \".git/MyContracts/SACCODirectorElection.sol\":11187:11209  newAdmin != address(0) */\n      dup2\n      and\n        /* \".git/MyContracts/SACCODirectorElection.sol\":11179:11239  require(newAdmin != address(0), \"Invalid new admin address\") */\n      tag_391\n      jumpi\n      mload(0x40)\n      shl(0xe5, 0x461bcd)\n      dup2\n      mstore\n        /* \"#utility.yul\":21334:21336   */\n      0x20\n        /* \".git/MyContracts/SACCODirectorElection.sol\":11179:11239  require(newAdmin != address(0), \"Invalid new admin address\") */\n      0x04\n      dup3\n      add\n        /* \"#utility.yul\":21316:21337   */\n      mstore\n        /* \"#utility.yul\":21373:21375   */\n      0x19\n        /* \"#utility.yul\":21353:21371   */\n      0x24\n      dup3\n      add\n        /* \"#utility.yul\":21346:21376   */\n      mstore\n        /* \"#utility.yul\":21412:21439   */\n      0x496e76616c6964206e65772061646d696e206164647265737300000000000000\n        /* \"#utility.yul\":21392:21410   */\n      0x44\n      dup3\n      add\n        /* \"#utility.yul\":21385:21440   */\n      mstore\n        /* \"#utility.yul\":21457:21475   */\n      0x64\n      add\n        /* \".git/MyContracts/SACCODirectorElection.sol\":11179:11239  require(newAdmin != address(0), \"Invalid new admin address\") */\n      tag_110\n        /* \"#utility.yul\":21132:21481   */\n      jump\n        /* \".git/MyContracts/SACCODirectorElection.sol\":11179:11239  require(newAdmin != address(0), \"Invalid new admin address\") */\n    tag_391:\n        /* \".git/MyContracts/SACCODirectorElection.sol\":11252:11268  address oldAdmin */\n      0x00\n        /* \".git/MyContracts/SACCODirectorElection.sol\":11271:11276  admin */\n      dup1\n      sload\n      sub(shl(0xa0, 0x01), 0x01)\n        /* \".git/MyContracts/SACCODirectorElection.sol\":11287:11303  admin = newAdmin */\n      dup4\n      dup2\n      and\n      not(sub(shl(0xa0, 0x01), 0x01))\n      dup4\n      and\n      dup2\n      or\n      dup5\n      sstore\n        /* \".git/MyContracts/SACCODirectorElection.sol\":11321:11357  AdminTransferred(oldAdmin, newAdmin) */\n      mload(0x40)\n        /* \".git/MyContracts/SACCODirectorElection.sol\":11271:11276  admin */\n      swap2\n      swap1\n      swap3\n      and\n      swap3\n      dup4\n      swap2\n        /* \".git/MyContracts/SACCODirectorElection.sol\":11321:11357  AdminTransferred(oldAdmin, newAdmin) */\n      0xf8ccb027dfcd135e000e9d45e6cc2d662578a8825d4c45b5e32e0adf67e79ec6\n      swap2\n        /* \".git/MyContracts/SACCODirectorElection.sol\":11252:11268  address oldAdmin */\n      swap1\n        /* \".git/MyContracts/SACCODirectorElection.sol\":11321:11357  AdminTransferred(oldAdmin, newAdmin) */\n      log3\n        /* \".git/MyContracts/SACCODirectorElection.sol\":11168:11365  {... */\n      pop\n        /* \".git/MyContracts/SACCODirectorElection.sol\":11108:11365  function transferAdmin(address newAdmin) external onlyAdmin {... */\n      pop\n      jump\t// out\n        /* \".git/MyContracts/SACCODirectorElection.sol\":4921:5351  function deactivateCandidate(uint256 candidateId) external onlyAdmin {... */\n    tag_100:\n        /* \".git/MyContracts/SACCODirectorElection.sol\":1889:1894  admin */\n      and(sub(shl(0xa0, 0x01), 0x01), sload(0x00))\n        /* \".git/MyContracts/SACCODirectorElection.sol\":1875:1885  msg.sender */\n      caller\n        /* \".git/MyContracts/SACCODirectorElection.sol\":1875:1894  msg.sender == admin */\n      eq\n        /* \".git/MyContracts/SACCODirectorElection.sol\":1867:1933  require(msg.sender == admin, \"Only admin can perform this action\") */\n      tag_395\n      jumpi\n      mload(0x40)\n      shl(0xe5, 0x461bcd)\n      dup2\n      mstore\n      0x04\n      add\n      tag_110\n      swap1\n      tag_239\n      jump\t// in\n    tag_395:\n        /* \".git/MyContracts/SACCODirectorElection.sol\":5009:5032  candidates[candidateId] */\n      0x00\n      dup2\n      dup2\n      mstore\n        /* \".git/MyContracts/SACCODirectorElection.sol\":5009:5019  candidates */\n      0x05\n        /* \".git/MyContracts/SACCODirectorElection.sol\":5009:5032  candidates[candidateId] */\n      0x20\n      mstore\n      0x40\n      dup2\n      keccak256\n        /* \".git/MyContracts/SACCODirectorElection.sol\":5009:5035  candidates[candidateId].id */\n      sload\n        /* \".git/MyContracts/SACCODirectorElection.sol\":5009:5040  candidates[candidateId].id != 0 */\n      swap1\n      sub\n        /* \".git/MyContracts/SACCODirectorElection.sol\":5001:5069  require(candidates[candidateId].id != 0, \"Candidate does not exist\") */\n      tag_398\n      jumpi\n      mload(0x40)\n      shl(0xe5, 0x461bcd)\n      dup2\n      mstore\n      0x04\n      add\n      tag_110\n      swap1\n      tag_132\n      jump\t// in\n    tag_398:\n        /* \".git/MyContracts/SACCODirectorElection.sol\":5089:5101  electionOpen */\n      sload(0x00)\n      shl(0xa0, 0x01)\n      swap1\n      div\n      0xff\n      and\n        /* \".git/MyContracts/SACCODirectorElection.sol\":5088:5101  !electionOpen */\n      iszero\n        /* \".git/MyContracts/SACCODirectorElection.sol\":5080:5157  require(!electionOpen, \"Cannot deactivate candidates while election is open\") */\n      tag_400\n      jumpi\n      mload(0x40)\n      shl(0xe5, 0x461bcd)\n      dup2\n      mstore\n        /* \"#utility.yul\":21688:21690   */\n      0x20\n        /* \".git/MyContracts/SACCODirectorElection.sol\":5080:5157  require(!electionOpen, \"Cannot deactivate candidates while election is open\") */\n      0x04\n      dup3\n      add\n        /* \"#utility.yul\":21670:21691   */\n      mstore\n        /* \"#utility.yul\":21727:21729   */\n      0x33\n        /* \"#utility.yul\":21707:21725   */\n      0x24\n      dup3\n      add\n        /* \"#utility.yul\":21700:21730   */\n      mstore\n        /* \"#utility.yul\":21766:21800   */\n      0x43616e6e6f7420646561637469766174652063616e6469646174657320776869\n        /* \"#utility.yul\":21746:21764   */\n      0x44\n      dup3\n      add\n        /* \"#utility.yul\":21739:21801   */\n      mstore\n      shl(0x69, 0x36329032b632b1ba34b7b71034b99037b832b7)\n        /* \"#utility.yul\":21817:21835   */\n      0x64\n      dup3\n      add\n        /* \"#utility.yul\":21810:21859   */\n      mstore\n        /* \"#utility.yul\":21876:21895   */\n      0x84\n      add\n        /* \".git/MyContracts/SACCODirectorElection.sol\":5080:5157  require(!electionOpen, \"Cannot deactivate candidates while election is open\") */\n      tag_110\n        /* \"#utility.yul\":21486:21901   */\n      jump\n        /* \".git/MyContracts/SACCODirectorElection.sol\":5080:5157  require(!electionOpen, \"Cannot deactivate candidates while election is open\") */\n    tag_400:\n        /* \".git/MyContracts/SACCODirectorElection.sol\":5176:5199  candidates[candidateId] */\n      0x00\n      dup2\n      dup2\n      mstore\n        /* \".git/MyContracts/SACCODirectorElection.sol\":5176:5186  candidates */\n      0x05\n        /* \".git/MyContracts/SACCODirectorElection.sol\":5176:5199  candidates[candidateId] */\n      0x20\n      dup2\n      swap1\n      mstore\n      0x40\n      swap1\n      swap2\n      keccak256\n        /* \".git/MyContracts/SACCODirectorElection.sol\":5176:5208  candidates[candidateId].isActive */\n      add\n      sload\n      0xff\n      and\n        /* \".git/MyContracts/SACCODirectorElection.sol\":5168:5239  require(candidates[candidateId].isActive, \"Candidate already inactive\") */\n      tag_403\n      jumpi\n      mload(0x40)\n      shl(0xe5, 0x461bcd)\n      dup2\n      mstore\n        /* \"#utility.yul\":22108:22110   */\n      0x20\n        /* \".git/MyContracts/SACCODirectorElection.sol\":5168:5239  require(candidates[candidateId].isActive, \"Candidate already inactive\") */\n      0x04\n      dup3\n      add\n        /* \"#utility.yul\":22090:22111   */\n      mstore\n        /* \"#utility.yul\":22147:22149   */\n      0x1a\n        /* \"#utility.yul\":22127:22145   */\n      0x24\n      dup3\n      add\n        /* \"#utility.yul\":22120:22150   */\n      mstore\n        /* \"#utility.yul\":22186:22214   */\n      0x43616e64696461746520616c726561647920696e616374697665000000000000\n        /* \"#utility.yul\":22166:22184   */\n      0x44\n      dup3\n      add\n        /* \"#utility.yul\":22159:22215   */\n      mstore\n        /* \"#utility.yul\":22232:22250   */\n      0x64\n      add\n        /* \".git/MyContracts/SACCODirectorElection.sol\":5168:5239  require(candidates[candidateId].isActive, \"Candidate already inactive\") */\n      tag_110\n        /* \"#utility.yul\":21906:22256   */\n      jump\n        /* \".git/MyContracts/SACCODirectorElection.sol\":5168:5239  require(candidates[candidateId].isActive, \"Candidate already inactive\") */\n    tag_403:\n        /* \".git/MyContracts/SACCODirectorElection.sol\":5287:5292  false */\n      0x00\n        /* \".git/MyContracts/SACCODirectorElection.sol\":5252:5275  candidates[candidateId] */\n      dup2\n      dup2\n      mstore\n        /* \".git/MyContracts/SACCODirectorElection.sol\":5252:5262  candidates */\n      0x05\n        /* \".git/MyContracts/SACCODirectorElection.sol\":5252:5275  candidates[candidateId] */\n      0x20\n      dup2\n      swap1\n      mstore\n      0x40\n      dup1\n      dup4\n      keccak256\n        /* \".git/MyContracts/SACCODirectorElection.sol\":5252:5284  candidates[candidateId].isActive */\n      swap1\n      swap2\n      add\n        /* \".git/MyContracts/SACCODirectorElection.sol\":5252:5292  candidates[candidateId].isActive = false */\n      dup1\n      sload\n      not(0xff)\n      and\n      swap1\n      sstore\n        /* \".git/MyContracts/SACCODirectorElection.sol\":5310:5343  CandidateDeactivated(candidateId) */\n      mload\n        /* \".git/MyContracts/SACCODirectorElection.sol\":5263:5274  candidateId */\n      dup3\n      swap2\n        /* \".git/MyContracts/SACCODirectorElection.sol\":5310:5343  CandidateDeactivated(candidateId) */\n      0x07952e62885452aff3395e73284ce75f709da0ae6e9e559673d48926a75352ad\n      swap2\n      log2\n        /* \".git/MyContracts/SACCODirectorElection.sol\":4921:5351  function deactivateCandidate(uint256 candidateId) external onlyAdmin {... */\n      pop\n      jump\t// out\n        /* \".git/MyContracts/SACCODirectorElection.sol\":5439:5809  function openElection(uint256 durationInMinutes) external onlyAdmin {... */\n    tag_103:\n        /* \".git/MyContracts/SACCODirectorElection.sol\":1889:1894  admin */\n      and(sub(shl(0xa0, 0x01), 0x01), sload(0x00))\n        /* \".git/MyContracts/SACCODirectorElection.sol\":1875:1885  msg.sender */\n      caller\n        /* \".git/MyContracts/SACCODirectorElection.sol\":1875:1894  msg.sender == admin */\n      eq\n        /* \".git/MyContracts/SACCODirectorElection.sol\":1867:1933  require(msg.sender == admin, \"Only admin can perform this action\") */\n      tag_407\n      jumpi\n      mload(0x40)\n      shl(0xe5, 0x461bcd)\n      dup2\n      mstore\n      0x04\n      add\n      tag_110\n      swap1\n      tag_239\n      jump\t// in\n    tag_407:\n        /* \".git/MyContracts/SACCODirectorElection.sol\":5527:5539  electionOpen */\n      sload(0x00)\n      shl(0xa0, 0x01)\n      swap1\n      div\n      0xff\n      and\n        /* \".git/MyContracts/SACCODirectorElection.sol\":5526:5539  !electionOpen */\n      iszero\n        /* \".git/MyContracts/SACCODirectorElection.sol\":5518:5565  require(!electionOpen, \"Election already open\") */\n      tag_410\n      jumpi\n      mload(0x40)\n      shl(0xe5, 0x461bcd)\n      dup2\n      mstore\n        /* \"#utility.yul\":22463:22465   */\n      0x20\n        /* \".git/MyContracts/SACCODirectorElection.sol\":5518:5565  require(!electionOpen, \"Election already open\") */\n      0x04\n      dup3\n      add\n        /* \"#utility.yul\":22445:22466   */\n      mstore\n        /* \"#utility.yul\":22502:22504   */\n      0x15\n        /* \"#utility.yul\":22482:22500   */\n      0x24\n      dup3\n      add\n        /* \"#utility.yul\":22475:22505   */\n      mstore\n      shl(0x59, 0x22b632b1ba34b7b71030b63932b0b23c9037b832b7)\n        /* \"#utility.yul\":22521:22539   */\n      0x44\n      dup3\n      add\n        /* \"#utility.yul\":22514:22565   */\n      mstore\n        /* \"#utility.yul\":22582:22600   */\n      0x64\n      add\n        /* \".git/MyContracts/SACCODirectorElection.sol\":5518:5565  require(!electionOpen, \"Election already open\") */\n      tag_110\n        /* \"#utility.yul\":22261:22606   */\n      jump\n        /* \".git/MyContracts/SACCODirectorElection.sol\":5518:5565  require(!electionOpen, \"Election already open\") */\n    tag_410:\n        /* \".git/MyContracts/SACCODirectorElection.sol\":5604:5605  0 */\n      0x00\n        /* \".git/MyContracts/SACCODirectorElection.sol\":5584:5601  durationInMinutes */\n      dup2\n        /* \".git/MyContracts/SACCODirectorElection.sol\":5584:5605  durationInMinutes > 0 */\n      gt\n        /* \".git/MyContracts/SACCODirectorElection.sol\":5576:5644  require(durationInMinutes > 0, \"Duration must be greater than zero\") */\n      tag_413\n      jumpi\n      mload(0x40)\n      shl(0xe5, 0x461bcd)\n      dup2\n      mstore\n        /* \"#utility.yul\":22813:22815   */\n      0x20\n        /* \".git/MyContracts/SACCODirectorElection.sol\":5576:5644  require(durationInMinutes > 0, \"Duration must be greater than zero\") */\n      0x04\n      dup3\n      add\n        /* \"#utility.yul\":22795:22816   */\n      mstore\n        /* \"#utility.yul\":22852:22854   */\n      0x22\n        /* \"#utility.yul\":22832:22850   */\n      0x24\n      dup3\n      add\n        /* \"#utility.yul\":22825:22855   */\n      mstore\n        /* \"#utility.yul\":22891:22925   */\n      0x4475726174696f6e206d7573742062652067726561746572207468616e207a65\n        /* \"#utility.yul\":22871:22889   */\n      0x44\n      dup3\n      add\n        /* \"#utility.yul\":22864:22926   */\n      mstore\n      shl(0xf0, 0x726f)\n        /* \"#utility.yul\":22942:22960   */\n      0x64\n      dup3\n      add\n        /* \"#utility.yul\":22935:22967   */\n      mstore\n        /* \"#utility.yul\":22984:23003   */\n      0x84\n      add\n        /* \".git/MyContracts/SACCODirectorElection.sol\":5576:5644  require(durationInMinutes > 0, \"Duration must be greater than zero\") */\n      tag_110\n        /* \"#utility.yul\":22611:23009   */\n      jump\n        /* \".git/MyContracts/SACCODirectorElection.sol\":5576:5644  require(durationInMinutes > 0, \"Duration must be greater than zero\") */\n    tag_413:\n        /* \".git/MyContracts/SACCODirectorElection.sol\":5657:5669  electionOpen */\n      0x00\n        /* \".git/MyContracts/SACCODirectorElection.sol\":5657:5676  electionOpen = true */\n      dup1\n      sload\n      not(shl(0xa0, 0xff))\n      and\n      shl(0xa0, 0x01)\n      or\n      swap1\n      sstore\n        /* \".git/MyContracts/SACCODirectorElection.sol\":5723:5752  durationInMinutes * 1 minutes */\n      tag_416\n        /* \".git/MyContracts/SACCODirectorElection.sol\":5723:5740  durationInMinutes */\n      dup2\n        /* \".git/MyContracts/SACCODirectorElection.sol\":5743:5752  1 minutes */\n      0x3c\n        /* \".git/MyContracts/SACCODirectorElection.sol\":5723:5752  durationInMinutes * 1 minutes */\n      tag_417\n      jump\t// in\n    tag_416:\n        /* \".git/MyContracts/SACCODirectorElection.sol\":5704:5753  block.timestamp + (durationInMinutes * 1 minutes) */\n      tag_418\n      swap1\n        /* \".git/MyContracts/SACCODirectorElection.sol\":5704:5719  block.timestamp */\n      timestamp\n        /* \".git/MyContracts/SACCODirectorElection.sol\":5704:5753  block.timestamp + (durationInMinutes * 1 minutes) */\n      tag_148\n      jump\t// in\n    tag_418:\n        /* \".git/MyContracts/SACCODirectorElection.sol\":5687:5701  votingDeadline */\n      0x01\n        /* \".git/MyContracts/SACCODirectorElection.sol\":5687:5753  votingDeadline = block.timestamp + (durationInMinutes * 1 minutes) */\n      dup2\n      swap1\n      sstore\n        /* \".git/MyContracts/SACCODirectorElection.sol\":5771:5801  ElectionOpened(votingDeadline) */\n      mload(0x40)\n        /* \"#utility.yul\":345:370   */\n      swap1\n      dup2\n      mstore\n        /* \".git/MyContracts/SACCODirectorElection.sol\":5771:5801  ElectionOpened(votingDeadline) */\n      0x0589f8b93514c651c0c92b06bdb8118fe508daadf2ffdac1f516191be20fcb85\n      swap1\n        /* \"#utility.yul\":333:335   */\n      0x20\n        /* \"#utility.yul\":318:336   */\n      add\n        /* \".git/MyContracts/SACCODirectorElection.sol\":5771:5801  ElectionOpened(votingDeadline) */\n      mload(0x40)\n      dup1\n      swap2\n      sub\n      swap1\n      log1\n        /* \".git/MyContracts/SACCODirectorElection.sol\":5439:5809  function openElection(uint256 durationInMinutes) external onlyAdmin {... */\n      pop\n      jump\t// out\n        /* \"#utility.yul\":14:194   */\n    tag_28:\n        /* \"#utility.yul\":73:79   */\n      0x00\n        /* \"#utility.yul\":126:128   */\n      0x20\n        /* \"#utility.yul\":114:123   */\n      dup3\n        /* \"#utility.yul\":105:112   */\n      dup5\n        /* \"#utility.yul\":101:124   */\n      sub\n        /* \"#utility.yul\":97:129   */\n      slt\n        /* \"#utility.yul\":94:146   */\n      iszero\n      tag_431\n      jumpi\n        /* \"#utility.yul\":142:143   */\n      0x00\n        /* \"#utility.yul\":139:140   */\n      0x00\n        /* \"#utility.yul\":132:144   */\n      revert\n        /* \"#utility.yul\":94:146   */\n    tag_431:\n      pop\n        /* \"#utility.yul\":165:188   */\n      calldataload\n      swap2\n        /* \"#utility.yul\":14:194   */\n      swap1\n      pop\n      jump\t// out\n        /* \"#utility.yul\":381:670   */\n    tag_420:\n        /* \"#utility.yul\":423:426   */\n      0x00\n        /* \"#utility.yul\":461:466   */\n      dup2\n        /* \"#utility.yul\":455:467   */\n      mload\n        /* \"#utility.yul\":488:494   */\n      dup1\n        /* \"#utility.yul\":483:486   */\n      dup5\n        /* \"#utility.yul\":476:495   */\n      mstore\n        /* \"#utility.yul\":544:550   */\n      dup1\n        /* \"#utility.yul\":537:541   */\n      0x20\n        /* \"#utility.yul\":530:535   */\n      dup5\n        /* \"#utility.yul\":526:542   */\n      add\n        /* \"#utility.yul\":519:523   */\n      0x20\n        /* \"#utility.yul\":514:517   */\n      dup7\n        /* \"#utility.yul\":510:524   */\n      add\n        /* \"#utility.yul\":504:551   */\n      mcopy\n        /* \"#utility.yul\":596:597   */\n      0x00\n        /* \"#utility.yul\":589:593   */\n      0x20\n        /* \"#utility.yul\":580:586   */\n      dup3\n        /* \"#utility.yul\":575:578   */\n      dup7\n        /* \"#utility.yul\":571:587   */\n      add\n        /* \"#utility.yul\":567:594   */\n      add\n        /* \"#utility.yul\":560:598   */\n      mstore\n        /* \"#utility.yul\":659:663   */\n      0x20\n        /* \"#utility.yul\":652:654   */\n      0x1f\n        /* \"#utility.yul\":648:655   */\n      not\n        /* \"#utility.yul\":643:645   */\n      0x1f\n        /* \"#utility.yul\":635:641   */\n      dup4\n        /* \"#utility.yul\":631:646   */\n      add\n        /* \"#utility.yul\":627:656   */\n      and\n        /* \"#utility.yul\":622:625   */\n      dup6\n        /* \"#utility.yul\":618:657   */\n      add\n        /* \"#utility.yul\":614:664   */\n      add\n        /* \"#utility.yul\":607:664   */\n      swap2\n      pop\n      pop\n        /* \"#utility.yul\":381:670   */\n      swap3\n      swap2\n      pop\n      pop\n      jump\t// out\n        /* \"#utility.yul\":675:1254   */\n    tag_421:\n        /* \"#utility.yul\":727:730   */\n      0x00\n        /* \"#utility.yul\":758:761   */\n      dup3\n        /* \"#utility.yul\":790:795   */\n      dup3\n        /* \"#utility.yul\":784:796   */\n      mload\n        /* \"#utility.yul\":817:823   */\n      dup1\n        /* \"#utility.yul\":812:815   */\n      dup6\n        /* \"#utility.yul\":805:824   */\n      mstore\n        /* \"#utility.yul\":849:853   */\n      0x20\n        /* \"#utility.yul\":844:847   */\n      dup6\n        /* \"#utility.yul\":840:854   */\n      add\n        /* \"#utility.yul\":833:854   */\n      swap5\n      pop\n        /* \"#utility.yul\":907:911   */\n      0x20\n        /* \"#utility.yul\":897:903   */\n      dup2\n        /* \"#utility.yul\":894:895   */\n      0x05\n        /* \"#utility.yul\":890:904   */\n      shl\n        /* \"#utility.yul\":883:888   */\n      dup4\n        /* \"#utility.yul\":879:905   */\n      add\n        /* \"#utility.yul\":875:912   */\n      add\n        /* \"#utility.yul\":946:950   */\n      0x20\n        /* \"#utility.yul\":939:944   */\n      dup6\n        /* \"#utility.yul\":935:951   */\n      add\n        /* \"#utility.yul\":969:970   */\n      0x00\n        /* \"#utility.yul\":979:1228   */\n    tag_435:\n        /* \"#utility.yul\":993:999   */\n      dup4\n        /* \"#utility.yul\":990:991   */\n      dup2\n        /* \"#utility.yul\":987:1000   */\n      lt\n        /* \"#utility.yul\":979:1228   */\n      iszero\n      tag_437\n      jumpi\n        /* \"#utility.yul\":1080:1082   */\n      0x1f\n        /* \"#utility.yul\":1076:1083   */\n      not\n        /* \"#utility.yul\":1068:1073   */\n      dup6\n        /* \"#utility.yul\":1062:1066   */\n      dup5\n        /* \"#utility.yul\":1058:1074   */\n      sub\n        /* \"#utility.yul\":1054:1084   */\n      add\n        /* \"#utility.yul\":1049:1052   */\n      dup9\n        /* \"#utility.yul\":1042:1085   */\n      mstore\n        /* \"#utility.yul\":1106:1144   */\n      tag_438\n        /* \"#utility.yul\":1139:1143   */\n      dup4\n        /* \"#utility.yul\":1130:1136   */\n      dup4\n        /* \"#utility.yul\":1124:1137   */\n      mload\n        /* \"#utility.yul\":1106:1144   */\n      tag_420\n      jump\t// in\n    tag_438:\n        /* \"#utility.yul\":1179:1183   */\n      0x20\n        /* \"#utility.yul\":1204:1218   */\n      swap9\n      dup10\n      add\n      swap9\n        /* \"#utility.yul\":1098:1144   */\n      swap1\n      swap4\n      pop\n        /* \"#utility.yul\":1167:1184   */\n      swap2\n      swap1\n      swap2\n      add\n      swap1\n        /* \"#utility.yul\":1015:1016   */\n      0x01\n        /* \"#utility.yul\":1008:1017   */\n      add\n        /* \"#utility.yul\":979:1228   */\n      jump(tag_435)\n    tag_437:\n      pop\n        /* \"#utility.yul\":1244:1248   */\n      swap1\n      swap7\n        /* \"#utility.yul\":675:1254   */\n      swap6\n      pop\n      pop\n      pop\n      pop\n      pop\n      pop\n      jump\t// out\n        /* \"#utility.yul\":1259:1539   */\n    tag_40:\n        /* \"#utility.yul\":1458:1460   */\n      0x20\n        /* \"#utility.yul\":1447:1456   */\n      dup2\n        /* \"#utility.yul\":1440:1461   */\n      mstore\n        /* \"#utility.yul\":1421:1425   */\n      0x00\n        /* \"#utility.yul\":1478:1533   */\n      tag_440\n        /* \"#utility.yul\":1529:1531   */\n      0x20\n        /* \"#utility.yul\":1518:1527   */\n      dup4\n        /* \"#utility.yul\":1514:1532   */\n      add\n        /* \"#utility.yul\":1506:1512   */\n      dup5\n        /* \"#utility.yul\":1478:1533   */\n      tag_421\n      jump\t// in\n    tag_440:\n        /* \"#utility.yul\":1470:1533   */\n      swap4\n        /* \"#utility.yul\":1259:1539   */\n      swap3\n      pop\n      pop\n      pop\n      jump\t// out\n        /* \"#utility.yul\":1544:1671   */\n    tag_195:\n        /* \"#utility.yul\":1605:1615   */\n      0x4e487b71\n        /* \"#utility.yul\":1600:1603   */\n      0xe0\n        /* \"#utility.yul\":1596:1616   */\n      shl\n        /* \"#utility.yul\":1593:1594   */\n      0x00\n        /* \"#utility.yul\":1586:1617   */\n      mstore\n        /* \"#utility.yul\":1636:1640   */\n      0x41\n        /* \"#utility.yul\":1633:1634   */\n      0x04\n        /* \"#utility.yul\":1626:1641   */\n      mstore\n        /* \"#utility.yul\":1660:1664   */\n      0x24\n        /* \"#utility.yul\":1657:1658   */\n      0x00\n        /* \"#utility.yul\":1650:1665   */\n      revert\n        /* \"#utility.yul\":1676:2402   */\n    tag_422:\n        /* \"#utility.yul\":1719:1724   */\n      0x00\n        /* \"#utility.yul\":1772:1775   */\n      dup3\n        /* \"#utility.yul\":1765:1769   */\n      0x1f\n        /* \"#utility.yul\":1757:1763   */\n      dup4\n        /* \"#utility.yul\":1753:1770   */\n      add\n        /* \"#utility.yul\":1749:1776   */\n      slt\n        /* \"#utility.yul\":1739:1794   */\n      tag_443\n      jumpi\n        /* \"#utility.yul\":1790:1791   */\n      0x00\n        /* \"#utility.yul\":1787:1788   */\n      0x00\n        /* \"#utility.yul\":1780:1792   */\n      revert\n        /* \"#utility.yul\":1739:1794   */\n    tag_443:\n        /* \"#utility.yul\":1830:1836   */\n      dup2\n        /* \"#utility.yul\":1817:1837   */\n      calldataload\n      sub(shl(0x40, 0x01), 0x01)\n        /* \"#utility.yul\":1852:1858   */\n      dup2\n        /* \"#utility.yul\":1849:1879   */\n      gt\n        /* \"#utility.yul\":1846:1902   */\n      iszero\n      tag_445\n      jumpi\n        /* \"#utility.yul\":1882:1900   */\n      tag_445\n      tag_195\n      jump\t// in\n    tag_445:\n        /* \"#utility.yul\":1931:1933   */\n      0x40\n        /* \"#utility.yul\":1925:1934   */\n      mload\n        /* \"#utility.yul\":2023:2025   */\n      0x1f\n        /* \"#utility.yul\":1985:2002   */\n      dup3\n      add\n      not(0x1f)\n        /* \"#utility.yul\":1981:2012   */\n      swap1\n      dup2\n      and\n        /* \"#utility.yul\":2014:2016   */\n      0x3f\n        /* \"#utility.yul\":1977:2017   */\n      add\n        /* \"#utility.yul\":1973:2027   */\n      and\n        /* \"#utility.yul\":1961:2028   */\n      dup2\n      add\n      sub(shl(0x40, 0x01), 0x01)\n        /* \"#utility.yul\":2043:2077   */\n      dup2\n      gt\n        /* \"#utility.yul\":2079:2101   */\n      dup3\n      dup3\n      lt\n        /* \"#utility.yul\":2040:2102   */\n      or\n        /* \"#utility.yul\":2037:2125   */\n      iszero\n      tag_447\n      jumpi\n        /* \"#utility.yul\":2105:2123   */\n      tag_447\n      tag_195\n      jump\t// in\n    tag_447:\n        /* \"#utility.yul\":2141:2143   */\n      0x40\n        /* \"#utility.yul\":2134:2156   */\n      mstore\n        /* \"#utility.yul\":2165:2187   */\n      dup2\n      dup2\n      mstore\n        /* \"#utility.yul\":2206:2225   */\n      dup4\n      dup3\n      add\n        /* \"#utility.yul\":2227:2231   */\n      0x20\n        /* \"#utility.yul\":2202:2232   */\n      add\n        /* \"#utility.yul\":2199:2238   */\n      dup6\n      lt\n        /* \"#utility.yul\":2196:2255   */\n      iszero\n      tag_448\n      jumpi\n        /* \"#utility.yul\":2251:2252   */\n      0x00\n        /* \"#utility.yul\":2248:2249   */\n      0x00\n        /* \"#utility.yul\":2241:2253   */\n      revert\n        /* \"#utility.yul\":2196:2255   */\n    tag_448:\n        /* \"#utility.yul\":2315:2321   */\n      dup2\n        /* \"#utility.yul\":2308:2312   */\n      0x20\n        /* \"#utility.yul\":2300:2306   */\n      dup6\n        /* \"#utility.yul\":2296:2313   */\n      add\n        /* \"#utility.yul\":2289:2293   */\n      0x20\n        /* \"#utility.yul\":2281:2287   */\n      dup4\n        /* \"#utility.yul\":2277:2294   */\n      add\n        /* \"#utility.yul\":2264:2322   */\n      calldatacopy\n        /* \"#utility.yul\":2370:2371   */\n      0x00\n        /* \"#utility.yul\":2342:2361   */\n      swap2\n      dup2\n      add\n        /* \"#utility.yul\":2363:2367   */\n      0x20\n        /* \"#utility.yul\":2338:2368   */\n      add\n        /* \"#utility.yul\":2331:2372   */\n      swap2\n      swap1\n      swap2\n      mstore\n        /* \"#utility.yul\":2346:2352   */\n      swap4\n        /* \"#utility.yul\":1676:2402   */\n      swap3\n      pop\n      pop\n      pop\n      jump\t// out\n        /* \"#utility.yul\":2407:2729   */\n    tag_43:\n        /* \"#utility.yul\":2476:2482   */\n      0x00\n        /* \"#utility.yul\":2529:2531   */\n      0x20\n        /* \"#utility.yul\":2517:2526   */\n      dup3\n        /* \"#utility.yul\":2508:2515   */\n      dup5\n        /* \"#utility.yul\":2504:2527   */\n      sub\n        /* \"#utility.yul\":2500:2532   */\n      slt\n        /* \"#utility.yul\":2497:2549   */\n      iszero\n      tag_450\n      jumpi\n        /* \"#utility.yul\":2545:2546   */\n      0x00\n        /* \"#utility.yul\":2542:2543   */\n      0x00\n        /* \"#utility.yul\":2535:2547   */\n      revert\n        /* \"#utility.yul\":2497:2549   */\n    tag_450:\n        /* \"#utility.yul\":2585:2594   */\n      dup2\n        /* \"#utility.yul\":2572:2595   */\n      calldataload\n      sub(shl(0x40, 0x01), 0x01)\n        /* \"#utility.yul\":2610:2616   */\n      dup2\n        /* \"#utility.yul\":2607:2637   */\n      gt\n        /* \"#utility.yul\":2604:2654   */\n      iszero\n      tag_451\n      jumpi\n        /* \"#utility.yul\":2650:2651   */\n      0x00\n        /* \"#utility.yul\":2647:2648   */\n      0x00\n        /* \"#utility.yul\":2640:2652   */\n      revert\n        /* \"#utility.yul\":2604:2654   */\n    tag_451:\n        /* \"#utility.yul\":2673:2723   */\n      tag_452\n        /* \"#utility.yul\":2715:2722   */\n      dup5\n        /* \"#utility.yul\":2706:2712   */\n      dup3\n        /* \"#utility.yul\":2695:2704   */\n      dup6\n        /* \"#utility.yul\":2691:2713   */\n      add\n        /* \"#utility.yul\":2673:2723   */\n      tag_422\n      jump\t// in\n    tag_452:\n        /* \"#utility.yul\":2663:2723   */\n      swap5\n        /* \"#utility.yul\":2407:2729   */\n      swap4\n      pop\n      pop\n      pop\n      pop\n      jump\t// out\n        /* \"#utility.yul\":2734:3261   */\n    tag_46:\n        /* \"#utility.yul\":2987:2993   */\n      dup5\n        /* \"#utility.yul\":2976:2985   */\n      dup2\n        /* \"#utility.yul\":2969:2994   */\n      mstore\n        /* \"#utility.yul\":3030:3033   */\n      0x80\n        /* \"#utility.yul\":3025:3027   */\n      0x20\n        /* \"#utility.yul\":3014:3023   */\n      dup3\n        /* \"#utility.yul\":3010:3028   */\n      add\n        /* \"#utility.yul\":3003:3034   */\n      mstore\n        /* \"#utility.yul\":2950:2954   */\n      0x00\n        /* \"#utility.yul\":3057:3103   */\n      tag_454\n        /* \"#utility.yul\":3098:3101   */\n      0x80\n        /* \"#utility.yul\":3087:3096   */\n      dup4\n        /* \"#utility.yul\":3083:3102   */\n      add\n        /* \"#utility.yul\":3075:3081   */\n      dup7\n        /* \"#utility.yul\":3057:3103   */\n      tag_420\n      jump\t// in\n    tag_454:\n        /* \"#utility.yul\":3151:3160   */\n      dup3\n        /* \"#utility.yul\":3143:3149   */\n      dup2\n        /* \"#utility.yul\":3139:3161   */\n      sub\n        /* \"#utility.yul\":3134:3136   */\n      0x40\n        /* \"#utility.yul\":3123:3132   */\n      dup5\n        /* \"#utility.yul\":3119:3137   */\n      add\n        /* \"#utility.yul\":3112:3162   */\n      mstore\n        /* \"#utility.yul\":3179:3212   */\n      tag_455\n        /* \"#utility.yul\":3205:3211   */\n      dup2\n        /* \"#utility.yul\":3197:3203   */\n      dup7\n        /* \"#utility.yul\":3179:3212   */\n      tag_420\n      jump\t// in\n    tag_455:\n        /* \"#utility.yul\":3171:3212   */\n      swap2\n      pop\n      pop\n        /* \"#utility.yul\":3248:3254   */\n      dup3\n        /* \"#utility.yul\":3243:3245   */\n      0x60\n        /* \"#utility.yul\":3232:3241   */\n      dup4\n        /* \"#utility.yul\":3228:3246   */\n      add\n        /* \"#utility.yul\":3221:3255   */\n      mstore\n        /* \"#utility.yul\":2734:3261   */\n      swap6\n      swap5\n      pop\n      pop\n      pop\n      pop\n      pop\n      jump\t// out\n        /* \"#utility.yul\":3266:3439   */\n    tag_423:\n        /* \"#utility.yul\":3334:3354   */\n      dup1\n      calldataload\n      sub(shl(0xa0, 0x01), 0x01)\n        /* \"#utility.yul\":3383:3414   */\n      dup2\n      and\n        /* \"#utility.yul\":3373:3415   */\n      dup2\n      eq\n        /* \"#utility.yul\":3363:3433   */\n      tag_344\n      jumpi\n        /* \"#utility.yul\":3429:3430   */\n      0x00\n        /* \"#utility.yul\":3426:3427   */\n      0x00\n        /* \"#utility.yul\":3419:3431   */\n      revert\n        /* \"#utility.yul\":3444:3840   */\n    tag_49:\n        /* \"#utility.yul\":3522:3528   */\n      0x00\n        /* \"#utility.yul\":3530:3536   */\n      0x00\n        /* \"#utility.yul\":3583:3585   */\n      0x40\n        /* \"#utility.yul\":3571:3580   */\n      dup4\n        /* \"#utility.yul\":3562:3569   */\n      dup6\n        /* \"#utility.yul\":3558:3581   */\n      sub\n        /* \"#utility.yul\":3554:3586   */\n      slt\n        /* \"#utility.yul\":3551:3603   */\n      iszero\n      tag_459\n      jumpi\n        /* \"#utility.yul\":3599:3600   */\n      0x00\n        /* \"#utility.yul\":3596:3597   */\n      0x00\n        /* \"#utility.yul\":3589:3601   */\n      revert\n        /* \"#utility.yul\":3551:3603   */\n    tag_459:\n        /* \"#utility.yul\":3622:3651   */\n      tag_460\n        /* \"#utility.yul\":3641:3650   */\n      dup4\n        /* \"#utility.yul\":3622:3651   */\n      tag_423\n      jump\t// in\n    tag_460:\n        /* \"#utility.yul\":3612:3651   */\n      swap2\n      pop\n        /* \"#utility.yul\":3702:3704   */\n      0x20\n        /* \"#utility.yul\":3691:3700   */\n      dup4\n        /* \"#utility.yul\":3687:3705   */\n      add\n        /* \"#utility.yul\":3674:3706   */\n      calldataload\n      sub(shl(0x40, 0x01), 0x01)\n        /* \"#utility.yul\":3721:3727   */\n      dup2\n        /* \"#utility.yul\":3718:3748   */\n      gt\n        /* \"#utility.yul\":3715:3765   */\n      iszero\n      tag_461\n      jumpi\n        /* \"#utility.yul\":3761:3762   */\n      0x00\n        /* \"#utility.yul\":3758:3759   */\n      0x00\n        /* \"#utility.yul\":3751:3763   */\n      revert\n        /* \"#utility.yul\":3715:3765   */\n    tag_461:\n        /* \"#utility.yul\":3784:3834   */\n      tag_462\n        /* \"#utility.yul\":3826:3833   */\n      dup6\n        /* \"#utility.yul\":3817:3823   */\n      dup3\n        /* \"#utility.yul\":3806:3815   */\n      dup7\n        /* \"#utility.yul\":3802:3824   */\n      add\n        /* \"#utility.yul\":3784:3834   */\n      tag_422\n      jump\t// in\n    tag_462:\n        /* \"#utility.yul\":3774:3834   */\n      swap2\n      pop\n      pop\n        /* \"#utility.yul\":3444:3840   */\n      swap3\n      pop\n      swap3\n      swap1\n      pop\n      jump\t// out\n        /* \"#utility.yul\":4037:4457   */\n    tag_424:\n        /* \"#utility.yul\":4090:4093   */\n      0x00\n        /* \"#utility.yul\":4128:4133   */\n      dup2\n        /* \"#utility.yul\":4122:4134   */\n      mload\n        /* \"#utility.yul\":4155:4161   */\n      dup1\n        /* \"#utility.yul\":4150:4153   */\n      dup5\n        /* \"#utility.yul\":4143:4162   */\n      mstore\n        /* \"#utility.yul\":4187:4191   */\n      0x20\n        /* \"#utility.yul\":4182:4185   */\n      dup5\n        /* \"#utility.yul\":4178:4192   */\n      add\n        /* \"#utility.yul\":4171:4192   */\n      swap4\n      pop\n        /* \"#utility.yul\":4226:4230   */\n      0x20\n        /* \"#utility.yul\":4219:4224   */\n      dup4\n        /* \"#utility.yul\":4215:4231   */\n      add\n        /* \"#utility.yul\":4249:4250   */\n      0x00\n        /* \"#utility.yul\":4259:4432   */\n    tag_465:\n        /* \"#utility.yul\":4273:4279   */\n      dup3\n        /* \"#utility.yul\":4270:4271   */\n      dup2\n        /* \"#utility.yul\":4267:4280   */\n      lt\n        /* \"#utility.yul\":4259:4432   */\n      iszero\n      tag_467\n      jumpi\n        /* \"#utility.yul\":4334:4347   */\n      dup2\n      mload\n        /* \"#utility.yul\":4322:4348   */\n      dup7\n      mstore\n        /* \"#utility.yul\":4377:4381   */\n      0x20\n        /* \"#utility.yul\":4368:4382   */\n      swap6\n      dup7\n      add\n      swap6\n        /* \"#utility.yul\":4405:4422   */\n      swap1\n      swap2\n      add\n      swap1\n        /* \"#utility.yul\":4295:4296   */\n      0x01\n        /* \"#utility.yul\":4288:4297   */\n      add\n        /* \"#utility.yul\":4259:4432   */\n      jump(tag_465)\n    tag_467:\n      pop\n        /* \"#utility.yul\":4448:4451   */\n      swap4\n      swap5\n        /* \"#utility.yul\":4037:4457   */\n      swap4\n      pop\n      pop\n      pop\n      pop\n      jump\t// out\n        /* \"#utility.yul\":4462:5684   */\n    tag_57:\n        /* \"#utility.yul\":4889:4892   */\n      0x80\n        /* \"#utility.yul\":4878:4887   */\n      dup2\n        /* \"#utility.yul\":4871:4893   */\n      mstore\n        /* \"#utility.yul\":4852:4856   */\n      0x00\n        /* \"#utility.yul\":4916:4973   */\n      tag_469\n        /* \"#utility.yul\":4968:4971   */\n      0x80\n        /* \"#utility.yul\":4957:4966   */\n      dup4\n        /* \"#utility.yul\":4953:4972   */\n      add\n        /* \"#utility.yul\":4945:4951   */\n      dup8\n        /* \"#utility.yul\":4916:4973   */\n      tag_424\n      jump\t// in\n    tag_469:\n        /* \"#utility.yul\":5021:5030   */\n      dup3\n        /* \"#utility.yul\":5013:5019   */\n      dup2\n        /* \"#utility.yul\":5009:5031   */\n      sub\n        /* \"#utility.yul\":5004:5006   */\n      0x20\n        /* \"#utility.yul\":4993:5002   */\n      dup5\n        /* \"#utility.yul\":4989:5007   */\n      add\n        /* \"#utility.yul\":4982:5032   */\n      mstore\n        /* \"#utility.yul\":5055:5098   */\n      tag_470\n        /* \"#utility.yul\":5091:5097   */\n      dup2\n        /* \"#utility.yul\":5083:5089   */\n      dup8\n        /* \"#utility.yul\":5055:5098   */\n      tag_421\n      jump\t// in\n    tag_470:\n        /* \"#utility.yul\":5041:5098   */\n      swap1\n      pop\n        /* \"#utility.yul\":5146:5155   */\n      dup3\n        /* \"#utility.yul\":5138:5144   */\n      dup2\n        /* \"#utility.yul\":5134:5156   */\n      sub\n        /* \"#utility.yul\":5129:5131   */\n      0x40\n        /* \"#utility.yul\":5118:5127   */\n      dup5\n        /* \"#utility.yul\":5114:5132   */\n      add\n        /* \"#utility.yul\":5107:5157   */\n      mstore\n        /* \"#utility.yul\":5180:5224   */\n      tag_471\n        /* \"#utility.yul\":5217:5223   */\n      dup2\n        /* \"#utility.yul\":5209:5215   */\n      dup7\n        /* \"#utility.yul\":5180:5224   */\n      tag_424\n      jump\t// in\n    tag_471:\n        /* \"#utility.yul\":5260:5282   */\n      dup4\n      dup2\n      sub\n        /* \"#utility.yul\":5255:5257   */\n      0x60\n        /* \"#utility.yul\":5240:5258   */\n      dup6\n      add\n        /* \"#utility.yul\":5233:5283   */\n      mstore\n        /* \"#utility.yul\":5332:5345   */\n      dup5\n      mload\n        /* \"#utility.yul\":5354:5376   */\n      dup1\n      dup3\n      mstore\n        /* \"#utility.yul\":5404:5406   */\n      0x20\n        /* \"#utility.yul\":5430:5445   */\n      dup1\n      dup8\n      add\n      swap4\n      pop\n        /* \"#utility.yul\":5392:5407   */\n      swap1\n      swap2\n      add\n      swap1\n        /* \"#utility.yul\":5463:5464   */\n      0x00\n        /* \"#utility.yul\":5473:5658   */\n    tag_472:\n        /* \"#utility.yul\":5487:5493   */\n      dup2\n        /* \"#utility.yul\":5484:5485   */\n      dup2\n        /* \"#utility.yul\":5481:5494   */\n      lt\n        /* \"#utility.yul\":5473:5658   */\n      iszero\n      tag_474\n      jumpi\n        /* \"#utility.yul\":5562:5575   */\n      dup4\n      mload\n        /* \"#utility.yul\":5555:5576   */\n      iszero\n        /* \"#utility.yul\":5548:5577   */\n      iszero\n        /* \"#utility.yul\":5536:5578   */\n      dup4\n      mstore\n        /* \"#utility.yul\":5607:5609   */\n      0x20\n        /* \"#utility.yul\":5633:5648   */\n      swap4\n      dup5\n      add\n      swap4\n        /* \"#utility.yul\":5598:5610   */\n      swap1\n      swap3\n      add\n      swap2\n        /* \"#utility.yul\":5509:5510   */\n      0x01\n        /* \"#utility.yul\":5502:5511   */\n      add\n        /* \"#utility.yul\":5473:5658   */\n      jump(tag_472)\n    tag_474:\n      pop\n        /* \"#utility.yul\":5675:5678   */\n      swap1\n      swap9\n        /* \"#utility.yul\":4462:5684   */\n      swap8\n      pop\n      pop\n      pop\n      pop\n      pop\n      pop\n      pop\n      pop\n      jump\t// out\n        /* \"#utility.yul\":5689:6301   */\n    tag_60:\n        /* \"#utility.yul\":5786:5792   */\n      0x00\n        /* \"#utility.yul\":5794:5800   */\n      0x00\n        /* \"#utility.yul\":5802:5808   */\n      0x00\n        /* \"#utility.yul\":5855:5857   */\n      0x60\n        /* \"#utility.yul\":5843:5852   */\n      dup5\n        /* \"#utility.yul\":5834:5841   */\n      dup7\n        /* \"#utility.yul\":5830:5853   */\n      sub\n        /* \"#utility.yul\":5826:5858   */\n      slt\n        /* \"#utility.yul\":5823:5875   */\n      iszero\n      tag_476\n      jumpi\n        /* \"#utility.yul\":5871:5872   */\n      0x00\n        /* \"#utility.yul\":5868:5869   */\n      0x00\n        /* \"#utility.yul\":5861:5873   */\n      revert\n        /* \"#utility.yul\":5823:5875   */\n    tag_476:\n        /* \"#utility.yul\":5894:5923   */\n      tag_477\n        /* \"#utility.yul\":5913:5922   */\n      dup5\n        /* \"#utility.yul\":5894:5923   */\n      tag_423\n      jump\t// in\n    tag_477:\n        /* \"#utility.yul\":5884:5923   */\n      swap3\n      pop\n        /* \"#utility.yul\":5974:5976   */\n      0x20\n        /* \"#utility.yul\":5963:5972   */\n      dup5\n        /* \"#utility.yul\":5959:5977   */\n      add\n        /* \"#utility.yul\":5946:5978   */\n      calldataload\n      sub(shl(0x40, 0x01), 0x01)\n        /* \"#utility.yul\":5993:5999   */\n      dup2\n        /* \"#utility.yul\":5990:6020   */\n      gt\n        /* \"#utility.yul\":5987:6037   */\n      iszero\n      tag_478\n      jumpi\n        /* \"#utility.yul\":6033:6034   */\n      0x00\n        /* \"#utility.yul\":6030:6031   */\n      0x00\n        /* \"#utility.yul\":6023:6035   */\n      revert\n        /* \"#utility.yul\":5987:6037   */\n    tag_478:\n        /* \"#utility.yul\":6056:6106   */\n      tag_479\n        /* \"#utility.yul\":6098:6105   */\n      dup7\n        /* \"#utility.yul\":6089:6095   */\n      dup3\n        /* \"#utility.yul\":6078:6087   */\n      dup8\n        /* \"#utility.yul\":6074:6096   */\n      add\n        /* \"#utility.yul\":6056:6106   */\n      tag_422\n      jump\t// in\n    tag_479:\n        /* \"#utility.yul\":6046:6106   */\n      swap3\n      pop\n      pop\n        /* \"#utility.yul\":6159:6161   */\n      0x40\n        /* \"#utility.yul\":6148:6157   */\n      dup5\n        /* \"#utility.yul\":6144:6162   */\n      add\n        /* \"#utility.yul\":6131:6163   */\n      calldataload\n      sub(shl(0x40, 0x01), 0x01)\n        /* \"#utility.yul\":6178:6186   */\n      dup2\n        /* \"#utility.yul\":6175:6207   */\n      gt\n        /* \"#utility.yul\":6172:6224   */\n      iszero\n      tag_480\n      jumpi\n        /* \"#utility.yul\":6220:6221   */\n      0x00\n        /* \"#utility.yul\":6217:6218   */\n      0x00\n        /* \"#utility.yul\":6210:6222   */\n      revert\n        /* \"#utility.yul\":6172:6224   */\n    tag_480:\n        /* \"#utility.yul\":6243:6295   */\n      tag_481\n        /* \"#utility.yul\":6287:6294   */\n      dup7\n        /* \"#utility.yul\":6276:6284   */\n      dup3\n        /* \"#utility.yul\":6265:6274   */\n      dup8\n        /* \"#utility.yul\":6261:6285   */\n      add\n        /* \"#utility.yul\":6243:6295   */\n      tag_422\n      jump\t// in\n    tag_481:\n        /* \"#utility.yul\":6233:6295   */\n      swap2\n      pop\n      pop\n        /* \"#utility.yul\":5689:6301   */\n      swap3\n      pop\n      swap3\n      pop\n      swap3\n      jump\t// out\n        /* \"#utility.yul\":6306:7079   */\n    tag_66:\n        /* \"#utility.yul\":6629:6635   */\n      dup7\n        /* \"#utility.yul\":6618:6627   */\n      dup2\n        /* \"#utility.yul\":6611:6636   */\n      mstore\n        /* \"#utility.yul\":6672:6675   */\n      0xc0\n        /* \"#utility.yul\":6667:6669   */\n      0x20\n        /* \"#utility.yul\":6656:6665   */\n      dup3\n        /* \"#utility.yul\":6652:6670   */\n      add\n        /* \"#utility.yul\":6645:6676   */\n      mstore\n        /* \"#utility.yul\":6592:6596   */\n      0x00\n        /* \"#utility.yul\":6699:6745   */\n      tag_483\n        /* \"#utility.yul\":6740:6743   */\n      0xc0\n        /* \"#utility.yul\":6729:6738   */\n      dup4\n        /* \"#utility.yul\":6725:6744   */\n      add\n        /* \"#utility.yul\":6717:6723   */\n      dup9\n        /* \"#utility.yul\":6699:6745   */\n      tag_420\n      jump\t// in\n    tag_483:\n        /* \"#utility.yul\":6793:6802   */\n      dup3\n        /* \"#utility.yul\":6785:6791   */\n      dup2\n        /* \"#utility.yul\":6781:6803   */\n      sub\n        /* \"#utility.yul\":6776:6778   */\n      0x40\n        /* \"#utility.yul\":6765:6774   */\n      dup5\n        /* \"#utility.yul\":6761:6779   */\n      add\n        /* \"#utility.yul\":6754:6804   */\n      mstore\n        /* \"#utility.yul\":6827:6860   */\n      tag_484\n        /* \"#utility.yul\":6853:6859   */\n      dup2\n        /* \"#utility.yul\":6845:6851   */\n      dup9\n        /* \"#utility.yul\":6827:6860   */\n      tag_420\n      jump\t// in\n    tag_484:\n        /* \"#utility.yul\":6813:6860   */\n      swap1\n      pop\n        /* \"#utility.yul\":6908:6917   */\n      dup3\n        /* \"#utility.yul\":6900:6906   */\n      dup2\n        /* \"#utility.yul\":6896:6918   */\n      sub\n        /* \"#utility.yul\":6891:6893   */\n      0x60\n        /* \"#utility.yul\":6880:6889   */\n      dup5\n        /* \"#utility.yul\":6876:6894   */\n      add\n        /* \"#utility.yul\":6869:6919   */\n      mstore\n        /* \"#utility.yul\":6936:6969   */\n      tag_485\n        /* \"#utility.yul\":6962:6968   */\n      dup2\n        /* \"#utility.yul\":6954:6960   */\n      dup8\n        /* \"#utility.yul\":6936:6969   */\n      tag_420\n      jump\t// in\n    tag_485:\n        /* \"#utility.yul\":7000:7003   */\n      0x80\n        /* \"#utility.yul\":6985:7004   */\n      dup5\n      add\n        /* \"#utility.yul\":6978:7013   */\n      swap6\n      swap1\n      swap6\n      mstore\n      pop\n      pop\n        /* \"#utility.yul\":7057:7071   */\n      swap1\n      iszero\n        /* \"#utility.yul\":7050:7072   */\n      iszero\n        /* \"#utility.yul\":7044:7047   */\n      0xa0\n        /* \"#utility.yul\":7029:7048   */\n      swap1\n      swap2\n      add\n        /* \"#utility.yul\":7022:7073   */\n      mstore\n        /* \"#utility.yul\":6928:6969   */\n      swap5\n        /* \"#utility.yul\":6306:7079   */\n      swap4\n      pop\n      pop\n      pop\n      pop\n      jump\t// out\n        /* \"#utility.yul\":7084:7838   */\n    tag_73:\n        /* \"#utility.yul\":7191:7197   */\n      0x00\n        /* \"#utility.yul\":7199:7205   */\n      0x00\n        /* \"#utility.yul\":7207:7213   */\n      0x00\n        /* \"#utility.yul\":7260:7262   */\n      0x60\n        /* \"#utility.yul\":7248:7257   */\n      dup5\n        /* \"#utility.yul\":7239:7246   */\n      dup7\n        /* \"#utility.yul\":7235:7258   */\n      sub\n        /* \"#utility.yul\":7231:7263   */\n      slt\n        /* \"#utility.yul\":7228:7280   */\n      iszero\n      tag_487\n      jumpi\n        /* \"#utility.yul\":7276:7277   */\n      0x00\n        /* \"#utility.yul\":7273:7274   */\n      0x00\n        /* \"#utility.yul\":7266:7278   */\n      revert\n        /* \"#utility.yul\":7228:7280   */\n    tag_487:\n        /* \"#utility.yul\":7316:7325   */\n      dup4\n        /* \"#utility.yul\":7303:7326   */\n      calldataload\n      sub(shl(0x40, 0x01), 0x01)\n        /* \"#utility.yul\":7341:7347   */\n      dup2\n        /* \"#utility.yul\":7338:7368   */\n      gt\n        /* \"#utility.yul\":7335:7385   */\n      iszero\n      tag_488\n      jumpi\n        /* \"#utility.yul\":7381:7382   */\n      0x00\n        /* \"#utility.yul\":7378:7379   */\n      0x00\n        /* \"#utility.yul\":7371:7383   */\n      revert\n        /* \"#utility.yul\":7335:7385   */\n    tag_488:\n        /* \"#utility.yul\":7404:7454   */\n      tag_489\n        /* \"#utility.yul\":7446:7453   */\n      dup7\n        /* \"#utility.yul\":7437:7443   */\n      dup3\n        /* \"#utility.yul\":7426:7435   */\n      dup8\n        /* \"#utility.yul\":7422:7444   */\n      add\n        /* \"#utility.yul\":7404:7454   */\n      tag_422\n      jump\t// in\n    tag_489:\n        /* \"#utility.yul\":7394:7454   */\n      swap4\n      pop\n      pop\n        /* \"#utility.yul\":7507:7509   */\n      0x20\n        /* \"#utility.yul\":7496:7505   */\n      dup5\n        /* \"#utility.yul\":7492:7510   */\n      add\n        /* \"#utility.yul\":7479:7511   */\n      calldataload\n      sub(shl(0x40, 0x01), 0x01)\n        /* \"#utility.yul\":7526:7534   */\n      dup2\n        /* \"#utility.yul\":7523:7555   */\n      gt\n        /* \"#utility.yul\":7520:7572   */\n      iszero\n      tag_478\n      jumpi\n        /* \"#utility.yul\":7568:7569   */\n      0x00\n        /* \"#utility.yul\":7565:7566   */\n      0x00\n        /* \"#utility.yul\":7558:7570   */\n      revert\n        /* \"#utility.yul\":7843:8029   */\n    tag_80:\n        /* \"#utility.yul\":7902:7908   */\n      0x00\n        /* \"#utility.yul\":7955:7957   */\n      0x20\n        /* \"#utility.yul\":7943:7952   */\n      dup3\n        /* \"#utility.yul\":7934:7941   */\n      dup5\n        /* \"#utility.yul\":7930:7953   */\n      sub\n        /* \"#utility.yul\":7926:7958   */\n      slt\n        /* \"#utility.yul\":7923:7975   */\n      iszero\n      tag_495\n      jumpi\n        /* \"#utility.yul\":7971:7972   */\n      0x00\n        /* \"#utility.yul\":7968:7969   */\n      0x00\n        /* \"#utility.yul\":7961:7973   */\n      revert\n        /* \"#utility.yul\":7923:7975   */\n    tag_495:\n        /* \"#utility.yul\":7994:8023   */\n      tag_440\n        /* \"#utility.yul\":8013:8022   */\n      dup3\n        /* \"#utility.yul\":7994:8023   */\n      tag_423\n      jump\t// in\n        /* \"#utility.yul\":8034:8498   */\n    tag_83:\n        /* \"#utility.yul\":8267:8273   */\n      dup4\n        /* \"#utility.yul\":8260:8274   */\n      iszero\n        /* \"#utility.yul\":8253:8275   */\n      iszero\n        /* \"#utility.yul\":8242:8251   */\n      dup2\n        /* \"#utility.yul\":8235:8276   */\n      mstore\n        /* \"#utility.yul\":8312:8314   */\n      0x60\n        /* \"#utility.yul\":8307:8309   */\n      0x20\n        /* \"#utility.yul\":8296:8305   */\n      dup3\n        /* \"#utility.yul\":8292:8310   */\n      add\n        /* \"#utility.yul\":8285:8315   */\n      mstore\n        /* \"#utility.yul\":8216:8220   */\n      0x00\n        /* \"#utility.yul\":8338:8383   */\n      tag_498\n        /* \"#utility.yul\":8379:8381   */\n      0x60\n        /* \"#utility.yul\":8368:8377   */\n      dup4\n        /* \"#utility.yul\":8364:8382   */\n      add\n        /* \"#utility.yul\":8356:8362   */\n      dup6\n        /* \"#utility.yul\":8338:8383   */\n      tag_420\n      jump\t// in\n    tag_498:\n        /* \"#utility.yul\":8431:8440   */\n      dup3\n        /* \"#utility.yul\":8423:8429   */\n      dup2\n        /* \"#utility.yul\":8419:8441   */\n      sub\n        /* \"#utility.yul\":8414:8416   */\n      0x40\n        /* \"#utility.yul\":8403:8412   */\n      dup5\n        /* \"#utility.yul\":8399:8417   */\n      add\n        /* \"#utility.yul\":8392:8442   */\n      mstore\n        /* \"#utility.yul\":8459:8492   */\n      tag_499\n        /* \"#utility.yul\":8485:8491   */\n      dup2\n        /* \"#utility.yul\":8477:8483   */\n      dup6\n        /* \"#utility.yul\":8459:8492   */\n      tag_420\n      jump\t// in\n    tag_499:\n        /* \"#utility.yul\":8451:8492   */\n      swap7\n        /* \"#utility.yul\":8034:8498   */\n      swap6\n      pop\n      pop\n      pop\n      pop\n      pop\n      pop\n      jump\t// out\n        /* \"#utility.yul\":8503:8764   */\n    tag_92:\n        /* \"#utility.yul\":8682:8684   */\n      0x20\n        /* \"#utility.yul\":8671:8680   */\n      dup2\n        /* \"#utility.yul\":8664:8685   */\n      mstore\n        /* \"#utility.yul\":8645:8649   */\n      0x00\n        /* \"#utility.yul\":8702:8758   */\n      tag_440\n        /* \"#utility.yul\":8754:8756   */\n      0x20\n        /* \"#utility.yul\":8743:8752   */\n      dup4\n        /* \"#utility.yul\":8739:8757   */\n      add\n        /* \"#utility.yul\":8731:8737   */\n      dup5\n        /* \"#utility.yul\":8702:8758   */\n      tag_424\n      jump\t// in\n        /* \"#utility.yul\":9681:10061   */\n    tag_117:\n        /* \"#utility.yul\":9760:9761   */\n      0x01\n        /* \"#utility.yul\":9756:9768   */\n      dup2\n      dup2\n      shr\n      swap1\n        /* \"#utility.yul\":9803:9815   */\n      dup3\n      and\n      dup1\n        /* \"#utility.yul\":9824:9885   */\n      tag_506\n      jumpi\n        /* \"#utility.yul\":9878:9882   */\n      0x7f\n        /* \"#utility.yul\":9870:9876   */\n      dup3\n        /* \"#utility.yul\":9866:9883   */\n      and\n        /* \"#utility.yul\":9856:9883   */\n      swap2\n      pop\n        /* \"#utility.yul\":9824:9885   */\n    tag_506:\n        /* \"#utility.yul\":9931:9933   */\n      0x20\n        /* \"#utility.yul\":9923:9929   */\n      dup3\n        /* \"#utility.yul\":9920:9934   */\n      lt\n        /* \"#utility.yul\":9900:9918   */\n      dup2\n        /* \"#utility.yul\":9897:9935   */\n      sub\n        /* \"#utility.yul\":9894:10055   */\n      tag_507\n      jumpi\n        /* \"#utility.yul\":9977:9987   */\n      0x4e487b71\n        /* \"#utility.yul\":9972:9975   */\n      0xe0\n        /* \"#utility.yul\":9968:9988   */\n      shl\n        /* \"#utility.yul\":9965:9966   */\n      0x00\n        /* \"#utility.yul\":9958:9989   */\n      mstore\n        /* \"#utility.yul\":10012:10016   */\n      0x22\n        /* \"#utility.yul\":10009:10010   */\n      0x04\n        /* \"#utility.yul\":10002:10017   */\n      mstore\n        /* \"#utility.yul\":10040:10044   */\n      0x24\n        /* \"#utility.yul\":10037:10038   */\n      0x00\n        /* \"#utility.yul\":10030:10045   */\n      revert\n        /* \"#utility.yul\":9894:10055   */\n    tag_507:\n      pop\n        /* \"#utility.yul\":9681:10061   */\n      swap2\n      swap1\n      pop\n      jump\t// out\n        /* \"#utility.yul\":10469:10817   */\n    tag_132:\n        /* \"#utility.yul\":10671:10673   */\n      0x20\n        /* \"#utility.yul\":10653:10674   */\n      dup1\n      dup3\n      mstore\n        /* \"#utility.yul\":10710:10712   */\n      0x18\n        /* \"#utility.yul\":10690:10708   */\n      swap1\n      dup3\n      add\n        /* \"#utility.yul\":10683:10713   */\n      mstore\n        /* \"#utility.yul\":10749:10775   */\n      0x43616e64696461746520646f6573206e6f742065786973740000000000000000\n        /* \"#utility.yul\":10744:10746   */\n      0x40\n        /* \"#utility.yul\":10729:10747   */\n      dup3\n      add\n        /* \"#utility.yul\":10722:10776   */\n      mstore\n        /* \"#utility.yul\":10808:10810   */\n      0x60\n        /* \"#utility.yul\":10793:10811   */\n      add\n      swap1\n        /* \"#utility.yul\":10469:10817   */\n      jump\t// out\n        /* \"#utility.yul\":11174:11477   */\n    tag_142:\n        /* \"#utility.yul\":11305:11308   */\n      0x00\n        /* \"#utility.yul\":11343:11349   */\n      dup3\n        /* \"#utility.yul\":11337:11350   */\n      mload\n        /* \"#utility.yul\":11389:11395   */\n      dup1\n        /* \"#utility.yul\":11382:11386   */\n      0x20\n        /* \"#utility.yul\":11374:11380   */\n      dup6\n        /* \"#utility.yul\":11370:11387   */\n      add\n        /* \"#utility.yul\":11365:11368   */\n      dup5\n        /* \"#utility.yul\":11359:11396   */\n      mcopy\n        /* \"#utility.yul\":11451:11452   */\n      0x00\n        /* \"#utility.yul\":11415:11431   */\n      swap3\n      add\n        /* \"#utility.yul\":11440:11453   */\n      swap2\n      dup3\n      mstore\n      pop\n        /* \"#utility.yul\":11415:11431   */\n      swap2\n        /* \"#utility.yul\":11174:11477   */\n      swap1\n      pop\n      jump\t// out\n        /* \"#utility.yul\":11891:12018   */\n    tag_425:\n        /* \"#utility.yul\":11952:11962   */\n      0x4e487b71\n        /* \"#utility.yul\":11947:11950   */\n      0xe0\n        /* \"#utility.yul\":11943:11963   */\n      shl\n        /* \"#utility.yul\":11940:11941   */\n      0x00\n        /* \"#utility.yul\":11933:11964   */\n      mstore\n        /* \"#utility.yul\":11983:11987   */\n      0x11\n        /* \"#utility.yul\":11980:11981   */\n      0x04\n        /* \"#utility.yul\":11973:11988   */\n      mstore\n        /* \"#utility.yul\":12007:12011   */\n      0x24\n        /* \"#utility.yul\":12004:12005   */\n      0x00\n        /* \"#utility.yul\":11997:12012   */\n      revert\n        /* \"#utility.yul\":12023:12148   */\n    tag_148:\n        /* \"#utility.yul\":12088:12097   */\n      dup1\n      dup3\n      add\n        /* \"#utility.yul\":12109:12119   */\n      dup1\n      dup3\n      gt\n        /* \"#utility.yul\":12106:12142   */\n      iszero\n      tag_187\n      jumpi\n        /* \"#utility.yul\":12122:12140   */\n      tag_187\n      tag_425\n      jump\t// in\n        /* \"#utility.yul\":12153:12373   */\n    tag_150:\n        /* \"#utility.yul\":12302:12304   */\n      0x20\n        /* \"#utility.yul\":12291:12300   */\n      dup2\n        /* \"#utility.yul\":12284:12305   */\n      mstore\n        /* \"#utility.yul\":12265:12269   */\n      0x00\n        /* \"#utility.yul\":12322:12367   */\n      tag_440\n        /* \"#utility.yul\":12363:12365   */\n      0x20\n        /* \"#utility.yul\":12352:12361   */\n      dup4\n        /* \"#utility.yul\":12348:12366   */\n      add\n        /* \"#utility.yul\":12340:12346   */\n      dup5\n        /* \"#utility.yul\":12322:12367   */\n      tag_420\n      jump\t// in\n        /* \"#utility.yul\":12378:12506   */\n    tag_155:\n        /* \"#utility.yul\":12445:12454   */\n      dup2\n      dup2\n      sub\n        /* \"#utility.yul\":12466:12477   */\n      dup2\n      dup2\n      gt\n        /* \"#utility.yul\":12463:12500   */\n      iszero\n      tag_187\n      jumpi\n        /* \"#utility.yul\":12480:12498   */\n      tag_187\n      tag_425\n      jump\t// in\n        /* \"#utility.yul\":12865:12992   */\n    tag_212:\n        /* \"#utility.yul\":12926:12936   */\n      0x4e487b71\n        /* \"#utility.yul\":12921:12924   */\n      0xe0\n        /* \"#utility.yul\":12917:12937   */\n      shl\n        /* \"#utility.yul\":12914:12915   */\n      0x00\n        /* \"#utility.yul\":12907:12938   */\n      mstore\n        /* \"#utility.yul\":12957:12961   */\n      0x32\n        /* \"#utility.yul\":12954:12955   */\n      0x04\n        /* \"#utility.yul\":12947:12962   */\n      mstore\n        /* \"#utility.yul\":12981:12985   */\n      0x24\n        /* \"#utility.yul\":12978:12979   */\n      0x00\n        /* \"#utility.yul\":12971:12986   */\n      revert\n        /* \"#utility.yul\":12997:13395   */\n    tag_239:\n        /* \"#utility.yul\":13199:13201   */\n      0x20\n        /* \"#utility.yul\":13181:13202   */\n      dup1\n      dup3\n      mstore\n        /* \"#utility.yul\":13238:13240   */\n      0x22\n        /* \"#utility.yul\":13218:13236   */\n      swap1\n      dup3\n      add\n        /* \"#utility.yul\":13211:13241   */\n      mstore\n        /* \"#utility.yul\":13277:13311   */\n      0x4f6e6c792061646d696e2063616e20706572666f726d20746869732061637469\n        /* \"#utility.yul\":13272:13274   */\n      0x40\n        /* \"#utility.yul\":13257:13275   */\n      dup3\n      add\n        /* \"#utility.yul\":13250:13312   */\n      mstore\n      shl(0xf1, 0x37b7)\n        /* \"#utility.yul\":13343:13345   */\n      0x60\n        /* \"#utility.yul\":13328:13346   */\n      dup3\n      add\n        /* \"#utility.yul\":13321:13353   */\n      mstore\n        /* \"#utility.yul\":13385:13388   */\n      0x80\n        /* \"#utility.yul\":13370:13389   */\n      add\n      swap1\n        /* \"#utility.yul\":12997:13395   */\n      jump\t// out\n        /* \"#utility.yul\":14467:14864   */\n    tag_252:\n        /* \"#utility.yul\":14669:14671   */\n      0x20\n        /* \"#utility.yul\":14651:14672   */\n      dup1\n      dup3\n      mstore\n        /* \"#utility.yul\":14708:14710   */\n      0x21\n        /* \"#utility.yul\":14688:14706   */\n      swap1\n      dup3\n      add\n        /* \"#utility.yul\":14681:14711   */\n      mstore\n        /* \"#utility.yul\":14747:14781   */\n      0x4d656d62657273686970206e756d6265722063616e6e6f7420626520656d7074\n        /* \"#utility.yul\":14742:14744   */\n      0x40\n        /* \"#utility.yul\":14727:14745   */\n      dup3\n      add\n        /* \"#utility.yul\":14720:14782   */\n      mstore\n      shl(0xf8, 0x79)\n        /* \"#utility.yul\":14813:14815   */\n      0x60\n        /* \"#utility.yul\":14798:14816   */\n      dup3\n      add\n        /* \"#utility.yul\":14791:14822   */\n      mstore\n        /* \"#utility.yul\":14854:14857   */\n      0x80\n        /* \"#utility.yul\":14839:14858   */\n      add\n      swap1\n        /* \"#utility.yul\":14467:14864   */\n      jump\t// out\n        /* \"#utility.yul\":15412:15930   */\n    tag_427:\n        /* \"#utility.yul\":15514:15516   */\n      0x1f\n        /* \"#utility.yul\":15509:15512   */\n      dup3\n        /* \"#utility.yul\":15506:15517   */\n      gt\n        /* \"#utility.yul\":15503:15924   */\n      iszero\n      tag_532\n      jumpi\n        /* \"#utility.yul\":15550:15555   */\n      dup1\n        /* \"#utility.yul\":15547:15548   */\n      0x00\n        /* \"#utility.yul\":15540:15556   */\n      mstore\n        /* \"#utility.yul\":15594:15598   */\n      0x20\n        /* \"#utility.yul\":15591:15592   */\n      0x00\n        /* \"#utility.yul\":15581:15599   */\n      keccak256\n        /* \"#utility.yul\":15664:15666   */\n      0x1f\n        /* \"#utility.yul\":15652:15662   */\n      dup5\n        /* \"#utility.yul\":15648:15667   */\n      add\n        /* \"#utility.yul\":15645:15646   */\n      0x05\n        /* \"#utility.yul\":15641:15668   */\n      shr\n        /* \"#utility.yul\":15635:15639   */\n      dup2\n        /* \"#utility.yul\":15631:15669   */\n      add\n        /* \"#utility.yul\":15700:15704   */\n      0x20\n        /* \"#utility.yul\":15688:15698   */\n      dup6\n        /* \"#utility.yul\":15685:15705   */\n      lt\n        /* \"#utility.yul\":15682:15729   */\n      iszero\n      tag_533\n      jumpi\n      pop\n        /* \"#utility.yul\":15723:15727   */\n      dup1\n        /* \"#utility.yul\":15682:15729   */\n    tag_533:\n        /* \"#utility.yul\":15778:15780   */\n      0x1f\n        /* \"#utility.yul\":15773:15776   */\n      dup5\n        /* \"#utility.yul\":15769:15781   */\n      add\n        /* \"#utility.yul\":15766:15767   */\n      0x05\n        /* \"#utility.yul\":15762:15782   */\n      shr\n        /* \"#utility.yul\":15756:15760   */\n      dup3\n        /* \"#utility.yul\":15752:15783   */\n      add\n        /* \"#utility.yul\":15742:15783   */\n      swap2\n      pop\n        /* \"#utility.yul\":15833:15914   */\n    tag_534:\n        /* \"#utility.yul\":15851:15853   */\n      dup2\n        /* \"#utility.yul\":15844:15849   */\n      dup2\n        /* \"#utility.yul\":15841:15854   */\n      lt\n        /* \"#utility.yul\":15833:15914   */\n      iszero\n      tag_536\n      jumpi\n        /* \"#utility.yul\":15910:15911   */\n      0x00\n        /* \"#utility.yul\":15896:15912   */\n      dup2\n      sstore\n        /* \"#utility.yul\":15877:15878   */\n      0x01\n        /* \"#utility.yul\":15866:15879   */\n      add\n        /* \"#utility.yul\":15833:15914   */\n      jump(tag_534)\n    tag_536:\n        /* \"#utility.yul\":15837:15840   */\n      pop\n      pop\n        /* \"#utility.yul\":15503:15924   */\n    tag_532:\n        /* \"#utility.yul\":15412:15930   */\n      pop\n      pop\n      pop\n      jump\t// out\n        /* \"#utility.yul\":16106:17405   */\n    tag_257:\n        /* \"#utility.yul\":16232:16235   */\n      dup2\n        /* \"#utility.yul\":16226:16236   */\n      mload\n      sub(shl(0x40, 0x01), 0x01)\n        /* \"#utility.yul\":16251:16257   */\n      dup2\n        /* \"#utility.yul\":16248:16278   */\n      gt\n        /* \"#utility.yul\":16245:16301   */\n      iszero\n      tag_540\n      jumpi\n        /* \"#utility.yul\":16281:16299   */\n      tag_540\n      tag_195\n      jump\t// in\n    tag_540:\n        /* \"#utility.yul\":16310:16407   */\n      tag_541\n        /* \"#utility.yul\":16400:16406   */\n      dup2\n        /* \"#utility.yul\":16360:16398   */\n      tag_542\n        /* \"#utility.yul\":16392:16396   */\n      dup5\n        /* \"#utility.yul\":16386:16397   */\n      sload\n        /* \"#utility.yul\":16360:16398   */\n      tag_117\n      jump\t// in\n    tag_542:\n        /* \"#utility.yul\":16354:16358   */\n      dup5\n        /* \"#utility.yul\":16310:16407   */\n      tag_427\n      jump\t// in\n    tag_541:\n        /* \"#utility.yul\":16456:16460   */\n      0x20\n        /* \"#utility.yul\":16487:16489   */\n      0x1f\n        /* \"#utility.yul\":16476:16490   */\n      dup3\n      gt\n        /* \"#utility.yul\":16504:16505   */\n      0x01\n        /* \"#utility.yul\":16499:17148   */\n      dup2\n      eq\n      tag_544\n      jumpi\n        /* \"#utility.yul\":17192:17193   */\n      0x00\n        /* \"#utility.yul\":17209:17215   */\n      dup4\n        /* \"#utility.yul\":17206:17295   */\n      iszero\n      tag_545\n      jumpi\n      pop\n        /* \"#utility.yul\":17261:17280   */\n      dup5\n      dup3\n      add\n        /* \"#utility.yul\":17255:17281   */\n      mload\n        /* \"#utility.yul\":17206:17295   */\n    tag_545:\n      not(0x00)\n        /* \"#utility.yul\":16063:16064   */\n      0x03\n        /* \"#utility.yul\":16059:16070   */\n      dup6\n      swap1\n      shl\n        /* \"#utility.yul\":16055:16079   */\n      shr\n        /* \"#utility.yul\":16051:16080   */\n      not\n        /* \"#utility.yul\":16041:16081   */\n      and\n        /* \"#utility.yul\":16087:16088   */\n      0x01\n        /* \"#utility.yul\":16083:16094   */\n      dup5\n      swap1\n      shl\n        /* \"#utility.yul\":16038:16095   */\n      or\n        /* \"#utility.yul\":17308:17389   */\n      dup5\n      sstore\n        /* \"#utility.yul\":16469:17399   */\n      jump(tag_536)\n        /* \"#utility.yul\":16499:17148   */\n    tag_544:\n        /* \"#utility.yul\":15359:15360   */\n      0x00\n        /* \"#utility.yul\":15352:15366   */\n      dup5\n      dup2\n      mstore\n        /* \"#utility.yul\":15396:15400   */\n      0x20\n        /* \"#utility.yul\":15383:15401   */\n      dup2\n      keccak256\n      not(0x1f)\n        /* \"#utility.yul\":16535:16555   */\n      dup6\n      and\n      swap2\n        /* \"#utility.yul\":16653:16875   */\n    tag_548:\n        /* \"#utility.yul\":16667:16674   */\n      dup3\n        /* \"#utility.yul\":16664:16665   */\n      dup2\n        /* \"#utility.yul\":16661:16675   */\n      lt\n        /* \"#utility.yul\":16653:16875   */\n      iszero\n      tag_550\n      jumpi\n        /* \"#utility.yul\":16749:16768   */\n      dup8\n      dup6\n      add\n        /* \"#utility.yul\":16743:16769   */\n      mload\n        /* \"#utility.yul\":16728:16770   */\n      dup3\n      sstore\n        /* \"#utility.yul\":16856:16860   */\n      0x20\n        /* \"#utility.yul\":16841:16861   */\n      swap5\n      dup6\n      add\n      swap5\n        /* \"#utility.yul\":16809:16810   */\n      0x01\n        /* \"#utility.yul\":16797:16811   */\n      swap1\n      swap3\n      add\n      swap2\n        /* \"#utility.yul\":16683:16695   */\n      add\n        /* \"#utility.yul\":16653:16875   */\n      jump(tag_548)\n    tag_550:\n        /* \"#utility.yul\":16657:16660   */\n      pop\n        /* \"#utility.yul\":16903:16909   */\n      dup5\n        /* \"#utility.yul\":16894:16901   */\n      dup3\n        /* \"#utility.yul\":16891:16910   */\n      lt\n        /* \"#utility.yul\":16888:17089   */\n      iszero\n      tag_551\n      jumpi\n        /* \"#utility.yul\":16964:16983   */\n      dup7\n      dup5\n      add\n        /* \"#utility.yul\":16958:16984   */\n      mload\n      not(0x00)\n        /* \"#utility.yul\":17047:17048   */\n      0x03\n        /* \"#utility.yul\":17043:17057   */\n      dup8\n      swap1\n      shl\n        /* \"#utility.yul\":17059:17062   */\n      0xf8\n        /* \"#utility.yul\":17039:17063   */\n      and\n        /* \"#utility.yul\":17035:17072   */\n      shr\n        /* \"#utility.yul\":17031:17073   */\n      not\n        /* \"#utility.yul\":17016:17074   */\n      and\n        /* \"#utility.yul\":17001:17075   */\n      dup2\n      sstore\n        /* \"#utility.yul\":16888:17089   */\n    tag_551:\n      pop\n      pop\n      pop\n      pop\n        /* \"#utility.yul\":17135:17136   */\n      0x01\n        /* \"#utility.yul\":17119:17133   */\n      swap1\n      dup2\n      shl\n        /* \"#utility.yul\":17115:17137   */\n      add\n        /* \"#utility.yul\":17102:17138   */\n      swap1\n      sstore\n      pop\n        /* \"#utility.yul\":16106:17405   */\n      jump\t// out\n        /* \"#utility.yul\":17410:17793   */\n    tag_260:\n        /* \"#utility.yul\":17607:17609   */\n      0x40\n        /* \"#utility.yul\":17596:17605   */\n      dup2\n        /* \"#utility.yul\":17589:17610   */\n      mstore\n        /* \"#utility.yul\":17570:17574   */\n      0x00\n        /* \"#utility.yul\":17633:17678   */\n      tag_553\n        /* \"#utility.yul\":17674:17676   */\n      0x40\n        /* \"#utility.yul\":17663:17672   */\n      dup4\n        /* \"#utility.yul\":17659:17677   */\n      add\n        /* \"#utility.yul\":17651:17657   */\n      dup6\n        /* \"#utility.yul\":17633:17678   */\n      tag_420\n      jump\t// in\n    tag_553:\n        /* \"#utility.yul\":17726:17735   */\n      dup3\n        /* \"#utility.yul\":17718:17724   */\n      dup2\n        /* \"#utility.yul\":17714:17736   */\n      sub\n        /* \"#utility.yul\":17709:17711   */\n      0x20\n        /* \"#utility.yul\":17698:17707   */\n      dup5\n        /* \"#utility.yul\":17694:17712   */\n      add\n        /* \"#utility.yul\":17687:17737   */\n      mstore\n        /* \"#utility.yul\":17754:17787   */\n      tag_554\n        /* \"#utility.yul\":17780:17786   */\n      dup2\n        /* \"#utility.yul\":17772:17778   */\n      dup6\n        /* \"#utility.yul\":17754:17787   */\n      tag_420\n      jump\t// in\n    tag_554:\n        /* \"#utility.yul\":17746:17787   */\n      swap6\n        /* \"#utility.yul\":17410:17793   */\n      swap5\n      pop\n      pop\n      pop\n      pop\n      pop\n      jump\t// out\n        /* \"#utility.yul\":18928:19727   */\n    tag_321:\n        /* \"#utility.yul\":19058:19061   */\n      0x00\n        /* \"#utility.yul\":19087:19088   */\n      0x00\n        /* \"#utility.yul\":19120:19126   */\n      dup4\n        /* \"#utility.yul\":19114:19127   */\n      sload\n        /* \"#utility.yul\":19150:19186   */\n      tag_559\n        /* \"#utility.yul\":19176:19185   */\n      dup2\n        /* \"#utility.yul\":19150:19186   */\n      tag_117\n      jump\t// in\n    tag_559:\n        /* \"#utility.yul\":19217:19218   */\n      0x01\n        /* \"#utility.yul\":19202:19219   */\n      dup3\n      and\n        /* \"#utility.yul\":19228:19361   */\n      dup1\n      iszero\n      tag_561\n      jumpi\n        /* \"#utility.yul\":19375:19376   */\n      0x01\n        /* \"#utility.yul\":19370:19702   */\n      dup2\n      eq\n      tag_562\n      jumpi\n        /* \"#utility.yul\":19195:19702   */\n      jump(tag_560)\n        /* \"#utility.yul\":19228:19361   */\n    tag_561:\n      not(0xff)\n        /* \"#utility.yul\":19261:19285   */\n      dup4\n      and\n        /* \"#utility.yul\":19249:19286   */\n      dup7\n      mstore\n        /* \"#utility.yul\":19334:19348   */\n      dup2\n      iszero\n        /* \"#utility.yul\":19327:19349   */\n      iszero\n        /* \"#utility.yul\":19315:19350   */\n      dup3\n      mul\n        /* \"#utility.yul\":19306:19351   */\n      dup7\n      add\n      swap4\n      pop\n        /* \"#utility.yul\":19228:19361   */\n      jump(tag_560)\n        /* \"#utility.yul\":19370:19702   */\n    tag_562:\n        /* \"#utility.yul\":19401:19407   */\n      dup7\n        /* \"#utility.yul\":19398:19399   */\n      0x00\n        /* \"#utility.yul\":19391:19408   */\n      mstore\n        /* \"#utility.yul\":19449:19453   */\n      0x20\n        /* \"#utility.yul\":19446:19447   */\n      0x00\n        /* \"#utility.yul\":19436:19454   */\n      keccak256\n        /* \"#utility.yul\":19476:19477   */\n      0x00\n        /* \"#utility.yul\":19490:19656   */\n    tag_563:\n        /* \"#utility.yul\":19504:19510   */\n      dup4\n        /* \"#utility.yul\":19501:19502   */\n      dup2\n        /* \"#utility.yul\":19498:19511   */\n      lt\n        /* \"#utility.yul\":19490:19656   */\n      iszero\n      tag_565\n      jumpi\n        /* \"#utility.yul\":19584:19598   */\n      dup2\n      sload\n        /* \"#utility.yul\":19571:19582   */\n      dup9\n      dup3\n      add\n        /* \"#utility.yul\":19564:19599   */\n      mstore\n        /* \"#utility.yul\":19640:19641   */\n      0x01\n        /* \"#utility.yul\":19627:19642   */\n      swap1\n      swap2\n      add\n      swap1\n        /* \"#utility.yul\":19526:19530   */\n      0x20\n        /* \"#utility.yul\":19519:19531   */\n      add\n        /* \"#utility.yul\":19490:19656   */\n      jump(tag_563)\n    tag_565:\n        /* \"#utility.yul\":19494:19497   */\n      pop\n      pop\n        /* \"#utility.yul\":19685:19691   */\n      dup2\n        /* \"#utility.yul\":19680:19683   */\n      dup7\n        /* \"#utility.yul\":19676:19692   */\n      add\n        /* \"#utility.yul\":19669:19692   */\n      swap4\n      pop\n        /* \"#utility.yul\":19195:19702   */\n    tag_560:\n      pop\n        /* \"#utility.yul\":19718:19721   */\n      swap2\n      swap6\n        /* \"#utility.yul\":18928:19727   */\n      swap5\n      pop\n      pop\n      pop\n      pop\n      pop\n      jump\t// out\n        /* \"#utility.yul\":19732:19867   */\n    tag_327:\n        /* \"#utility.yul\":19771:19774   */\n      0x00\n        /* \"#utility.yul\":19792:19809   */\n      0x01\n      dup3\n      add\n        /* \"#utility.yul\":19789:19832   */\n      tag_568\n      jumpi\n        /* \"#utility.yul\":19812:19830   */\n      tag_568\n      tag_425\n      jump\t// in\n    tag_568:\n      pop\n        /* \"#utility.yul\":19859:19860   */\n      0x01\n        /* \"#utility.yul\":19848:19861   */\n      add\n      swap1\n        /* \"#utility.yul\":19732:19867   */\n      jump\t// out\n        /* \"#utility.yul\":19872:20418   */\n    tag_329:\n        /* \"#utility.yul\":20117:20119   */\n      0x60\n        /* \"#utility.yul\":20106:20115   */\n      dup2\n        /* \"#utility.yul\":20099:20120   */\n      mstore\n        /* \"#utility.yul\":20080:20084   */\n      0x00\n        /* \"#utility.yul\":20143:20188   */\n      tag_570\n        /* \"#utility.yul\":20184:20186   */\n      0x60\n        /* \"#utility.yul\":20173:20182   */\n      dup4\n        /* \"#utility.yul\":20169:20187   */\n      add\n        /* \"#utility.yul\":20161:20167   */\n      dup7\n        /* \"#utility.yul\":20143:20188   */\n      tag_420\n      jump\t// in\n    tag_570:\n        /* \"#utility.yul\":20236:20245   */\n      dup3\n        /* \"#utility.yul\":20228:20234   */\n      dup2\n        /* \"#utility.yul\":20224:20246   */\n      sub\n        /* \"#utility.yul\":20219:20221   */\n      0x20\n        /* \"#utility.yul\":20208:20217   */\n      dup5\n        /* \"#utility.yul\":20204:20222   */\n      add\n        /* \"#utility.yul\":20197:20247   */\n      mstore\n        /* \"#utility.yul\":20270:20303   */\n      tag_571\n        /* \"#utility.yul\":20296:20302   */\n      dup2\n        /* \"#utility.yul\":20288:20294   */\n      dup7\n        /* \"#utility.yul\":20270:20303   */\n      tag_420\n      jump\t// in\n    tag_571:\n        /* \"#utility.yul\":20256:20303   */\n      swap1\n      pop\n        /* \"#utility.yul\":20351:20360   */\n      dup3\n        /* \"#utility.yul\":20343:20349   */\n      dup2\n        /* \"#utility.yul\":20339:20361   */\n      sub\n        /* \"#utility.yul\":20334:20336   */\n      0x40\n        /* \"#utility.yul\":20323:20332   */\n      dup5\n        /* \"#utility.yul\":20319:20337   */\n      add\n        /* \"#utility.yul\":20312:20362   */\n      mstore\n        /* \"#utility.yul\":20379:20412   */\n      tag_499\n        /* \"#utility.yul\":20405:20411   */\n      dup2\n        /* \"#utility.yul\":20397:20403   */\n      dup6\n        /* \"#utility.yul\":20379:20412   */\n      tag_420\n      jump\t// in\n        /* \"#utility.yul\":23014:23182   */\n    tag_417:\n        /* \"#utility.yul\":23087:23096   */\n      dup1\n      dup3\n      mul\n        /* \"#utility.yul\":23118:23127   */\n      dup2\n      iszero\n        /* \"#utility.yul\":23135:23150   */\n      dup3\n      dup3\n      div\n        /* \"#utility.yul\":23129:23151   */\n      dup5\n      eq\n        /* \"#utility.yul\":23115:23152   */\n      or\n        /* \"#utility.yul\":23105:23176   */\n      tag_187\n      jumpi\n        /* \"#utility.yul\":23156:23174   */\n      tag_187\n      tag_425\n      jump\t// in\n\n    auxdata: 0xa26469706673582212208b7aec4e19fede756e5cf4d9310a7e369a9b04b3e12e0ad9e962d6ff800945a064736f6c634300081f0033\n}\n",
				"bytecode": {
					"linkReferences": {},
					"object": "608060405260016002553480156013575f5ffd5b505f80546001600160a01b03191633179055612b04806100325f395ff3fe608060405234801561000f575f5ffd5b5060043610610127575f3560e01c806335c3c876116100a95780636c6c32d01161006e5780636c6c32d0146102a857806375829def146102b057806397341d59146102c35780639a1d5956146102d6578063f851a440146102e9575f5ffd5b806335c3c8761461022d5780634a39d44214610240578063587cde1e146102535780635df6140c146102755780636180688614610288575f5ffd5b80631a7f453d116100ef5780631a7f453d1461019c57806327e4a5cc146101bf5780632da03d3c146101e25780633477ee2e146101f557806335b8e8201461021a575f5ffd5b80630121b93f1461012b578063036ee850146101405780631300a6d11461015c57806318f56a0a146101645780631912bc1114610179575b5f5ffd5b61013e6101393660046122fd565b610313565b005b61014960015481565b6040519081526020015b60405180910390f35b6101496107a0565b61016c6107d8565b604051610153919061239c565b61018c610187366004612452565b6108ac565b604051610153949392919061248b565b6101af6101aa3660046124dd565b610b37565b6040519015158152602001610153565b6101d26101cd366004612452565b610b78565b6040516101539493929190612561565b61013e6101f03660046125e1565b610fbc565b6102086102033660046122fd565b61123a565b60405161015396959493929190612653565b6102086102283660046122fd565b611404565b61013e61023b3660046126ac565b61164f565b5f546101af90600160a01b900460ff1681565b6102666102613660046126fa565b61197d565b60405161015393929190612713565b610149610283366004612452565b611aaf565b61029b610296366004612452565b611e63565b6040516101539190612749565b61013e611ed1565b61013e6102be3660046126fa565b611f8a565b61013e6102d13660046122fd565b612058565b61013e6102e43660046122fd565b6121c7565b5f546102fb906001600160a01b031681565b6040516001600160a01b039091168152602001610153565b5f54600160a01b900460ff166103675760405162461bcd60e51b815260206004820152601460248201527322b632b1ba34b7b71034b9903737ba1037b832b760611b60448201526064015b60405180910390fd5b60015442106103b85760405162461bcd60e51b815260206004820152601a60248201527f566f74696e6720646561646c696e652068617320706173736564000000000000604482015260640161035e565b335f908152600460209081526040808320815160608101909252805460ff161515825260018101805492939192918401916103f29061275b565b80601f016020809104026020016040519081016040528092919081815260200182805461041e9061275b565b80156104695780601f1061044057610100808354040283529160200191610469565b820191905f5260205f20905b81548152906001019060200180831161044c57829003601f168201915b505050505081526020016002820180546104829061275b565b80601f01602080910402602001604051908101604052809291908181526020018280546104ae9061275b565b80156104f95780601f106104d0576101008083540402835291602001916104f9565b820191905f5260205f20905b8154815290600101906020018083116104dc57829003601f168201915b5050505050815250509050805f015161055f5760405162461bcd60e51b815260206004820152602260248201527f4f6e6c7920726567697374657265642064656c6567617465732063616e20766f604482015261746560f01b606482015260840161035e565b5f828152600560205260408120805490910361058d5760405162461bcd60e51b815260040161035e90612793565b600581015460ff166105e15760405162461bcd60e51b815260206004820152601760248201527f43616e646964617465206973206e6f7420616374697665000000000000000000604482015260640161035e565b5f8160030180546105f19061275b565b80601f016020809104026020016040519081016040528092919081815260200182805461061d9061275b565b80156106685780601f1061063f57610100808354040283529160200191610668565b820191905f5260205f20905b81548152906001019060200180831161064b57829003601f168201915b5050335f908152600760205260409081902090519495509361068f935085925090506127ca565b9081526040519081900360200190205460ff16156107005760405162461bcd60e51b815260206004820152602860248201527f596f75206861766520616c726561647920766f74656420666f722074686973206044820152673837b9b4ba34b7b760c11b606482015260840161035e565b335f90815260076020526040908190209051600191906107219084906127ca565b90815260200160405180910390205f6101000a81548160ff0219169083151502179055506001826004015f82825461075991906127f4565b9091555050604051849033907f41aeb55eef25a94e94aeac300a628610ffa8099eb2bf991b3ae640d42233467d90610792908590612807565b60405180910390a350505050565b5f8054600160a01b900460ff1615806107bb57506001544210155b156107c557505f90565b426001546107d39190612819565b905090565b60606003805480602002602001604051908101604052809291908181526020015f905b828210156108a3578382905f5260205f200180546108189061275b565b80601f01602080910402602001604051908101604052809291908181526020018280546108449061275b565b801561088f5780601f106108665761010080835404028352916020019161088f565b820191905f5260205f20905b81548152906001019060200180831161087257829003601f168201915b5050505050815260200190600101906107fb565b50505050905090565b5f6060805f5f60149054906101000a900460ff1615806108ce57506001544210155b6109165760405162461bcd60e51b8152602060048201526019602482015278456c656374696f6e206973207374696c6c206f6e676f696e6760381b604482015260640161035e565b5f61092086611aaf565b90505f60055f8381526020019081526020015f206040518060c00160405290815f82015481526020016001820180546109589061275b565b80601f01602080910402602001604051908101604052809291908181526020018280546109849061275b565b80156109cf5780601f106109a6576101008083540402835291602001916109cf565b820191905f5260205f20905b8154815290600101906020018083116109b257829003601f168201915b505050505081526020016002820180546109e89061275b565b80601f0160208091040260200160405190810160405280929190818152602001828054610a149061275b565b8015610a5f5780601f10610a3657610100808354040283529160200191610a5f565b820191905f5260205f20905b815481529060010190602001808311610a4257829003601f168201915b50505050508152602001600382018054610a789061275b565b80601f0160208091040260200160405190810160405280929190818152602001828054610aa49061275b565b8015610aef5780601f10610ac657610100808354040283529160200191610aef565b820191905f5260205f20905b815481529060010190602001808311610ad257829003601f168201915b5050509183525050600482015460208083019190915260059092015460ff16151560409182015282519183015190830151608090930151919a90995091975095509350505050565b6001600160a01b0382165f908152600760205260408082209051610b5c9084906127ca565b9081526040519081900360200190205460ff1690505b92915050565b6060806060805f600686604051610b8f91906127ca565b9081526040805191829003602090810183208054808302850183019093528284529190830182828015610bdf57602002820191905f5260205f20905b815481526020019060010190808311610bcb575b5050835193945083925050506001600160401b03811115610c0257610c026123b5565b604051908082528060200260200182016040528015610c2b578160200160208202803683370190505b509550806001600160401b03811115610c4657610c466123b5565b604051908082528060200260200182016040528015610c7957816020015b6060815260200190600190039081610c645790505b509450806001600160401b03811115610c9457610c946123b5565b604051908082528060200260200182016040528015610cbd578160200160208202803683370190505b509350806001600160401b03811115610cd857610cd86123b5565b604051908082528060200260200182016040528015610d01578160200160208202803683370190505b5092505f5b81811015610fb2575f60055f858481518110610d2457610d2461282c565b602002602001015181526020019081526020015f206040518060c00160405290815f8201548152602001600182018054610d5d9061275b565b80601f0160208091040260200160405190810160405280929190818152602001828054610d899061275b565b8015610dd45780601f10610dab57610100808354040283529160200191610dd4565b820191905f5260205f20905b815481529060010190602001808311610db757829003601f168201915b50505050508152602001600282018054610ded9061275b565b80601f0160208091040260200160405190810160405280929190818152602001828054610e199061275b565b8015610e645780601f10610e3b57610100808354040283529160200191610e64565b820191905f5260205f20905b815481529060010190602001808311610e4757829003601f168201915b50505050508152602001600382018054610e7d9061275b565b80601f0160208091040260200160405190810160405280929190818152602001828054610ea99061275b565b8015610ef45780601f10610ecb57610100808354040283529160200191610ef4565b820191905f5260205f20905b815481529060010190602001808311610ed757829003601f168201915b50505091835250506004820154602082015260059091015460ff1615156040909101528051895191925090899084908110610f3157610f3161282c565b6020026020010181815250508060200151878381518110610f5457610f5461282c565b60200260200101819052508060800151868381518110610f7657610f7661282c565b6020026020010181815250508060a00151858381518110610f9957610f9961282c565b9115156020928302919091019091015250600101610d06565b5050509193509193565b5f546001600160a01b03163314610fe55760405162461bcd60e51b815260040161035e90612840565b6001600160a01b03831661103b5760405162461bcd60e51b815260206004820152601860248201527f496e76616c69642064656c656761746520616464726573730000000000000000604482015260640161035e565b6001600160a01b0383165f9081526004602052604090205460ff16156110a35760405162461bcd60e51b815260206004820152601b60248201527f44656c656761746520616c726561647920726567697374657265640000000000604482015260640161035e565b5f8251116110f35760405162461bcd60e51b815260206004820152601d60248201527f44656c6567617465206e616d652063616e6e6f7420626520656d707479000000604482015260640161035e565b5f8151116111135760405162461bcd60e51b815260040161035e90612882565b5f54600160a01b900460ff16156111855760405162461bcd60e51b815260206004820152603060248201527f43616e6e6f742072656769737465722064656c656761746573207768696c652060448201526f32b632b1ba34b7b71034b99037b832b760811b606482015260840161035e565b60408051606081018252600180825260208083018681528385018690526001600160a01b0388165f90815260049092529390208251815460ff19169015151781559251919291908201906111d9908261290f565b50604082015160028201906111ee908261290f565b50905050826001600160a01b03167fe8d9d391eb3d36b3ad124d243fd662d8212521cbb9cc79ef19ff6562a94a26c5838360405161122d9291906129c9565b60405180910390a2505050565b60056020525f90815260409020805460018201805491929161125b9061275b565b80601f01602080910402602001604051908101604052809291908181526020018280546112879061275b565b80156112d25780601f106112a9576101008083540402835291602001916112d2565b820191905f5260205f20905b8154815290600101906020018083116112b557829003601f168201915b5050505050908060020180546112e79061275b565b80601f01602080910402602001604051908101604052809291908181526020018280546113139061275b565b801561135e5780601f106113355761010080835404028352916020019161135e565b820191905f5260205f20905b81548152906001019060200180831161134157829003601f168201915b5050505050908060030180546113739061275b565b80601f016020809104026020016040519081016040528092919081815260200182805461139f9061275b565b80156113ea5780601f106113c1576101008083540402835291602001916113ea565b820191905f5260205f20905b8154815290600101906020018083116113cd57829003601f168201915b50505050600483015460059093015491929160ff16905086565b5f60608060605f5f5f60055f8981526020019081526020015f206040518060c00160405290815f82015481526020016001820180546114429061275b565b80601f016020809104026020016040519081016040528092919081815260200182805461146e9061275b565b80156114b95780601f10611490576101008083540402835291602001916114b9565b820191905f5260205f20905b81548152906001019060200180831161149c57829003601f168201915b505050505081526020016002820180546114d29061275b565b80601f01602080910402602001604051908101604052809291908181526020018280546114fe9061275b565b80156115495780601f1061152057610100808354040283529160200191611549565b820191905f5260205f20905b81548152906001019060200180831161152c57829003601f168201915b505050505081526020016003820180546115629061275b565b80601f016020809104026020016040519081016040528092919081815260200182805461158e9061275b565b80156115d95780601f106115b0576101008083540402835291602001916115d9565b820191905f5260205f20905b8154815290600101906020018083116115bc57829003601f168201915b50505091835250506004820154602082015260059091015460ff16151560409091015280519091505f0361161f5760405162461bcd60e51b815260040161035e90612793565b8051602082015160408301516060840151608085015160a090950151939c929b5090995097509195509350915050565b5f546001600160a01b031633146116785760405162461bcd60e51b815260040161035e90612840565b5f8351116116c85760405162461bcd60e51b815260206004820152601e60248201527f43616e646964617465206e616d652063616e6e6f7420626520656d7074790000604482015260640161035e565b5f8251116116e85760405162461bcd60e51b815260040161035e90612882565b5f8151116117385760405162461bcd60e51b815260206004820152601860248201527f506f736974696f6e2063616e6e6f7420626520656d7074790000000000000000604482015260640161035e565b5f54600160a01b900460ff16156117ab5760405162461bcd60e51b815260206004820152603160248201527f43616e6e6f742072656769737465722063616e64696461746573207768696c656044820152701032b632b1ba34b7b71034b99037b832b760791b606482015260840161035e565b6002546040805160c0810182528281526020808201878152828401879052606083018690525f60808401819052600160a0850181905286825260059093529390932082518155925191929190820190611804908261290f565b5060408201516002820190611819908261290f565b506060820151600382019061182e908261290f565b506080820151600482015560a0909101516005909101805460ff19169115159190911790556040516006906118649084906127ca565b9081526040516020918190038201902080546001810182555f918252918120909101829055805b6003548110156118e3578380519060200120600382815481106118b0576118b061282c565b905f5260205f20016040516118c591906129f6565b6040518091039020036118db57600191506118e3565b60010161188b565b508061192657600380546001810182555f919091527fc2575a0e9e593c00f959f8c92f12db2869c3395a3b0502d05e2516446f71f85b01611924848261290f565b505b60028054905f61193583612a67565b9190505550817fb76aadacec2d73468ab4c03b3976f369439578b697493e0b3596ae94726d840486868660405161196e93929190612a7f565b60405180910390a25050505050565b60046020525f90815260409020805460018201805460ff90921692916119a29061275b565b80601f01602080910402602001604051908101604052809291908181526020018280546119ce9061275b565b8015611a195780601f106119f057610100808354040283529160200191611a19565b820191905f5260205f20905b8154815290600101906020018083116119fc57829003601f168201915b505050505090806002018054611a2e9061275b565b80601f0160208091040260200160405190810160405280929190818152602001828054611a5a9061275b565b8015611aa55780601f10611a7c57610100808354040283529160200191611aa5565b820191905f5260205f20905b815481529060010190602001808311611a8857829003601f168201915b5050505050905083565b5f8054600160a01b900460ff161580611aca57506001544210155b611b125760405162461bcd60e51b8152602060048201526019602482015278456c656374696f6e206973207374696c6c206f6e676f696e6760381b604482015260640161035e565b5f600683604051611b2391906127ca565b9081526040805191829003602090810183208054808302850183019093528284529190830182828015611b7357602002820191905f5260205f20905b815481526020019060010190808311611b5f575b505050505090505f815111611bca5760405162461bcd60e51b815260206004820152601f60248201527f4e6f2063616e6469646174657320666f72207468697320706f736974696f6e00604482015260640161035e565b5f80805b8351811015611e12575f60055f868481518110611bed57611bed61282c565b602002602001015181526020019081526020015f206040518060c00160405290815f8201548152602001600182018054611c269061275b565b80601f0160208091040260200160405190810160405280929190818152602001828054611c529061275b565b8015611c9d5780601f10611c7457610100808354040283529160200191611c9d565b820191905f5260205f20905b815481529060010190602001808311611c8057829003601f168201915b50505050508152602001600282018054611cb69061275b565b80601f0160208091040260200160405190810160405280929190818152602001828054611ce29061275b565b8015611d2d5780601f10611d0457610100808354040283529160200191611d2d565b820191905f5260205f20905b815481529060010190602001808311611d1057829003601f168201915b50505050508152602001600382018054611d469061275b565b80601f0160208091040260200160405190810160405280929190818152602001828054611d729061275b565b8015611dbd5780601f10611d9457610100808354040283529160200191611dbd565b820191905f5260205f20905b815481529060010190602001808311611da057829003601f168201915b50505091835250506004820154602082015260059091015460ff16151560409091015260a08101519091508015611df75750838160800151115b15611e09576080810151815190945092505b50600101611bce565b50805f03611e595760405162461bcd60e51b8152602060048201526014602482015273139bc81dda5b9b995c8819195d195c9b5a5b995960621b604482015260640161035e565b925050505b919050565b6060600682604051611e7591906127ca565b9081526040805191829003602090810183208054808302850183019093528284529190830182828015611ec557602002820191905f5260205f20905b815481526020019060010190808311611eb1575b50505050509050919050565b5f546001600160a01b03163314611efa5760405162461bcd60e51b815260040161035e90612840565b5f54600160a01b900460ff16611f495760405162461bcd60e51b815260206004820152601460248201527322b632b1ba34b7b71034b9903737ba1037b832b760611b604482015260640161035e565b5f805460ff60a01b191690556040514281527f393c4b8e62f1195313cf17dcf00793c668ddfc35881cd8015559c074f6d61e839060200160405180910390a1565b5f546001600160a01b03163314611fb35760405162461bcd60e51b815260040161035e90612840565b6001600160a01b0381166120095760405162461bcd60e51b815260206004820152601960248201527f496e76616c6964206e65772061646d696e206164647265737300000000000000604482015260640161035e565b5f80546001600160a01b038381166001600160a01b0319831681178455604051919092169283917ff8ccb027dfcd135e000e9d45e6cc2d662578a8825d4c45b5e32e0adf67e79ec69190a35050565b5f546001600160a01b031633146120815760405162461bcd60e51b815260040161035e90612840565b5f8181526005602052604081205490036120ad5760405162461bcd60e51b815260040161035e90612793565b5f54600160a01b900460ff16156121225760405162461bcd60e51b815260206004820152603360248201527f43616e6e6f7420646561637469766174652063616e646964617465732077686960448201527236329032b632b1ba34b7b71034b99037b832b760691b606482015260840161035e565b5f818152600560208190526040909120015460ff166121835760405162461bcd60e51b815260206004820152601a60248201527f43616e64696461746520616c726561647920696e616374697665000000000000604482015260640161035e565b5f818152600560208190526040808320909101805460ff191690555182917f07952e62885452aff3395e73284ce75f709da0ae6e9e559673d48926a75352ad91a250565b5f546001600160a01b031633146121f05760405162461bcd60e51b815260040161035e90612840565b5f54600160a01b900460ff16156122415760405162461bcd60e51b815260206004820152601560248201527422b632b1ba34b7b71030b63932b0b23c9037b832b760591b604482015260640161035e565b5f811161229b5760405162461bcd60e51b815260206004820152602260248201527f4475726174696f6e206d7573742062652067726561746572207468616e207a65604482015261726f60f01b606482015260840161035e565b5f805460ff60a01b1916600160a01b1790556122b881603c612ab7565b6122c290426127f4565b60018190556040519081527f0589f8b93514c651c0c92b06bdb8118fe508daadf2ffdac1f516191be20fcb859060200160405180910390a150565b5f6020828403121561230d575f5ffd5b5035919050565b5f81518084528060208401602086015e5f602082860101526020601f19601f83011685010191505092915050565b5f82825180855260208501945060208160051b830101602085015f5b8381101561239057601f1985840301885261237a838351612314565b602098890198909350919091019060010161235e565b50909695505050505050565b602081525f6123ae6020830184612342565b9392505050565b634e487b7160e01b5f52604160045260245ffd5b5f82601f8301126123d8575f5ffd5b81356001600160401b038111156123f1576123f16123b5565b604051601f8201601f19908116603f011681016001600160401b038111828210171561241f5761241f6123b5565b604052818152838201602001851015612436575f5ffd5b816020850160208301375f918101602001919091529392505050565b5f60208284031215612462575f5ffd5b81356001600160401b03811115612477575f5ffd5b612483848285016123c9565b949350505050565b848152608060208201525f6124a36080830186612314565b82810360408401526124b58186612314565b91505082606083015295945050505050565b80356001600160a01b0381168114611e5e575f5ffd5b5f5f604083850312156124ee575f5ffd5b6124f7836124c7565b915060208301356001600160401b03811115612511575f5ffd5b61251d858286016123c9565b9150509250929050565b5f8151808452602084019350602083015f5b82811015612557578151865260209586019590910190600101612539565b5093949350505050565b608081525f6125736080830187612527565b82810360208401526125858187612342565b905082810360408401526125998186612527565b8381036060850152845180825260208087019350909101905f5b818110156125d357835115158352602093840193909201916001016125b3565b509098975050505050505050565b5f5f5f606084860312156125f3575f5ffd5b6125fc846124c7565b925060208401356001600160401b03811115612616575f5ffd5b612622868287016123c9565b92505060408401356001600160401b0381111561263d575f5ffd5b612649868287016123c9565b9150509250925092565b86815260c060208201525f61266b60c0830188612314565b828103604084015261267d8188612314565b905082810360608401526126918187612314565b6080840195909552505090151560a090910152949350505050565b5f5f5f606084860312156126be575f5ffd5b83356001600160401b038111156126d3575f5ffd5b6126df868287016123c9565b93505060208401356001600160401b03811115612616575f5ffd5b5f6020828403121561270a575f5ffd5b6123ae826124c7565b8315158152606060208201525f61272d6060830185612314565b828103604084015261273f8185612314565b9695505050505050565b602081525f6123ae6020830184612527565b600181811c9082168061276f57607f821691505b60208210810361278d57634e487b7160e01b5f52602260045260245ffd5b50919050565b60208082526018908201527f43616e64696461746520646f6573206e6f742065786973740000000000000000604082015260600190565b5f82518060208501845e5f920191825250919050565b634e487b7160e01b5f52601160045260245ffd5b80820180821115610b7257610b726127e0565b602081525f6123ae6020830184612314565b81810381811115610b7257610b726127e0565b634e487b7160e01b5f52603260045260245ffd5b60208082526022908201527f4f6e6c792061646d696e2063616e20706572666f726d2074686973206163746960408201526137b760f11b606082015260800190565b60208082526021908201527f4d656d62657273686970206e756d6265722063616e6e6f7420626520656d70746040820152607960f81b606082015260800190565b601f82111561290a57805f5260205f20601f840160051c810160208510156128e85750805b601f840160051c820191505b81811015612907575f81556001016128f4565b50505b505050565b81516001600160401b03811115612928576129286123b5565b61293c81612936845461275b565b846128c3565b6020601f82116001811461296e575f83156129575750848201515b5f19600385901b1c1916600184901b178455612907565b5f84815260208120601f198516915b8281101561299d578785015182556020948501946001909201910161297d565b50848210156129ba57868401515f19600387901b60f8161c191681555b50505050600190811b01905550565b604081525f6129db6040830185612314565b82810360208401526129ed8185612314565b95945050505050565b5f5f8354612a038161275b565b600182168015612a1a5760018114612a2f57612a5c565b60ff1983168652811515820286019350612a5c565b865f5260205f205f5b83811015612a5457815488820152600190910190602001612a38565b505081860193505b509195945050505050565b5f60018201612a7857612a786127e0565b5060010190565b606081525f612a916060830186612314565b8281036020840152612aa38186612314565b9050828103604084015261273f8185612314565b8082028115828204841417610b7257610b726127e056fea26469706673582212208b7aec4e19fede756e5cf4d9310a7e369a9b04b3e12e0ad9e962d6ff800945a064736f6c634300081f0033",
					"opcodes": "PUSH1 0x80 PUSH1 0x40 MSTORE PUSH1 0x1 PUSH1 0x2 SSTORE CALLVALUE DUP1 ISZERO PUSH1 0x13 JUMPI PUSH0 PUSH0 REVERT JUMPDEST POP PUSH0 DUP1 SLOAD PUSH1 0x1 PUSH1 0x1 PUSH1 0xA0 SHL SUB NOT AND CALLER OR SWAP1 SSTORE PUSH2 0x2B04 DUP1 PUSH2 0x32 PUSH0 CODECOPY PUSH0 RETURN INVALID PUSH1 0x80 PUSH1 0x40 MSTORE CALLVALUE DUP1 ISZERO PUSH2 0xF JUMPI PUSH0 PUSH0 REVERT JUMPDEST POP PUSH1 0x4 CALLDATASIZE LT PUSH2 0x127 JUMPI PUSH0 CALLDATALOAD PUSH1 0xE0 SHR DUP1 PUSH4 0x35C3C876 GT PUSH2 0xA9 JUMPI DUP1 PUSH4 0x6C6C32D0 GT PUSH2 0x6E JUMPI DUP1 PUSH4 0x6C6C32D0 EQ PUSH2 0x2A8 JUMPI DUP1 PUSH4 0x75829DEF EQ PUSH2 0x2B0 JUMPI DUP1 PUSH4 0x97341D59 EQ PUSH2 0x2C3 JUMPI DUP1 PUSH4 0x9A1D5956 EQ PUSH2 0x2D6 JUMPI DUP1 PUSH4 0xF851A440 EQ PUSH2 0x2E9 JUMPI PUSH0 PUSH0 REVERT JUMPDEST DUP1 PUSH4 0x35C3C876 EQ PUSH2 0x22D JUMPI DUP1 PUSH4 0x4A39D442 EQ PUSH2 0x240 JUMPI DUP1 PUSH4 0x587CDE1E EQ PUSH2 0x253 JUMPI DUP1 PUSH4 0x5DF6140C EQ PUSH2 0x275 JUMPI DUP1 PUSH4 0x61806886 EQ PUSH2 0x288 JUMPI PUSH0 PUSH0 REVERT JUMPDEST DUP1 PUSH4 0x1A7F453D GT PUSH2 0xEF JUMPI DUP1 PUSH4 0x1A7F453D EQ PUSH2 0x19C JUMPI DUP1 PUSH4 0x27E4A5CC EQ PUSH2 0x1BF JUMPI DUP1 PUSH4 0x2DA03D3C EQ PUSH2 0x1E2 JUMPI DUP1 PUSH4 0x3477EE2E EQ PUSH2 0x1F5 JUMPI DUP1 PUSH4 0x35B8E820 EQ PUSH2 0x21A JUMPI PUSH0 PUSH0 REVERT JUMPDEST DUP1 PUSH4 0x121B93F EQ PUSH2 0x12B JUMPI DUP1 PUSH4 0x36EE850 EQ PUSH2 0x140 JUMPI DUP1 PUSH4 0x1300A6D1 EQ PUSH2 0x15C JUMPI DUP1 PUSH4 0x18F56A0A EQ PUSH2 0x164 JUMPI DUP1 PUSH4 0x1912BC11 EQ PUSH2 0x179 JUMPI JUMPDEST PUSH0 PUSH0 REVERT JUMPDEST PUSH2 0x13E PUSH2 0x139 CALLDATASIZE PUSH1 0x4 PUSH2 0x22FD JUMP JUMPDEST PUSH2 0x313 JUMP JUMPDEST STOP JUMPDEST PUSH2 0x149 PUSH1 0x1 SLOAD DUP2 JUMP JUMPDEST PUSH1 0x40 MLOAD SWAP1 DUP2 MSTORE PUSH1 0x20 ADD JUMPDEST PUSH1 0x40 MLOAD DUP1 SWAP2 SUB SWAP1 RETURN JUMPDEST PUSH2 0x149 PUSH2 0x7A0 JUMP JUMPDEST PUSH2 0x16C PUSH2 0x7D8 JUMP JUMPDEST PUSH1 0x40 MLOAD PUSH2 0x153 SWAP2 SWAP1 PUSH2 0x239C JUMP JUMPDEST PUSH2 0x18C PUSH2 0x187 CALLDATASIZE PUSH1 0x4 PUSH2 0x2452 JUMP JUMPDEST PUSH2 0x8AC JUMP JUMPDEST PUSH1 0x40 MLOAD PUSH2 0x153 SWAP5 SWAP4 SWAP3 SWAP2 SWAP1 PUSH2 0x248B JUMP JUMPDEST PUSH2 0x1AF PUSH2 0x1AA CALLDATASIZE PUSH1 0x4 PUSH2 0x24DD JUMP JUMPDEST PUSH2 0xB37 JUMP JUMPDEST PUSH1 0x40 MLOAD SWAP1 ISZERO ISZERO DUP2 MSTORE PUSH1 0x20 ADD PUSH2 0x153 JUMP JUMPDEST PUSH2 0x1D2 PUSH2 0x1CD CALLDATASIZE PUSH1 0x4 PUSH2 0x2452 JUMP JUMPDEST PUSH2 0xB78 JUMP JUMPDEST PUSH1 0x40 MLOAD PUSH2 0x153 SWAP5 SWAP4 SWAP3 SWAP2 SWAP1 PUSH2 0x2561 JUMP JUMPDEST PUSH2 0x13E PUSH2 0x1F0 CALLDATASIZE PUSH1 0x4 PUSH2 0x25E1 JUMP JUMPDEST PUSH2 0xFBC JUMP JUMPDEST PUSH2 0x208 PUSH2 0x203 CALLDATASIZE PUSH1 0x4 PUSH2 0x22FD JUMP JUMPDEST PUSH2 0x123A JUMP JUMPDEST PUSH1 0x40 MLOAD PUSH2 0x153 SWAP7 SWAP6 SWAP5 SWAP4 SWAP3 SWAP2 SWAP1 PUSH2 0x2653 JUMP JUMPDEST PUSH2 0x208 PUSH2 0x228 CALLDATASIZE PUSH1 0x4 PUSH2 0x22FD JUMP JUMPDEST PUSH2 0x1404 JUMP JUMPDEST PUSH2 0x13E PUSH2 0x23B CALLDATASIZE PUSH1 0x4 PUSH2 0x26AC JUMP JUMPDEST PUSH2 0x164F JUMP JUMPDEST PUSH0 SLOAD PUSH2 0x1AF SWAP1 PUSH1 0x1 PUSH1 0xA0 SHL SWAP1 DIV PUSH1 0xFF AND DUP2 JUMP JUMPDEST PUSH2 0x266 PUSH2 0x261 CALLDATASIZE PUSH1 0x4 PUSH2 0x26FA JUMP JUMPDEST PUSH2 0x197D JUMP JUMPDEST PUSH1 0x40 MLOAD PUSH2 0x153 SWAP4 SWAP3 SWAP2 SWAP1 PUSH2 0x2713 JUMP JUMPDEST PUSH2 0x149 PUSH2 0x283 CALLDATASIZE PUSH1 0x4 PUSH2 0x2452 JUMP JUMPDEST PUSH2 0x1AAF JUMP JUMPDEST PUSH2 0x29B PUSH2 0x296 CALLDATASIZE PUSH1 0x4 PUSH2 0x2452 JUMP JUMPDEST PUSH2 0x1E63 JUMP JUMPDEST PUSH1 0x40 MLOAD PUSH2 0x153 SWAP2 SWAP1 PUSH2 0x2749 JUMP JUMPDEST PUSH2 0x13E PUSH2 0x1ED1 JUMP JUMPDEST PUSH2 0x13E PUSH2 0x2BE CALLDATASIZE PUSH1 0x4 PUSH2 0x26FA JUMP JUMPDEST PUSH2 0x1F8A JUMP JUMPDEST PUSH2 0x13E PUSH2 0x2D1 CALLDATASIZE PUSH1 0x4 PUSH2 0x22FD JUMP JUMPDEST PUSH2 0x2058 JUMP JUMPDEST PUSH2 0x13E PUSH2 0x2E4 CALLDATASIZE PUSH1 0x4 PUSH2 0x22FD JUMP JUMPDEST PUSH2 0x21C7 JUMP JUMPDEST PUSH0 SLOAD PUSH2 0x2FB SWAP1 PUSH1 0x1 PUSH1 0x1 PUSH1 0xA0 SHL SUB AND DUP2 JUMP JUMPDEST PUSH1 0x40 MLOAD PUSH1 0x1 PUSH1 0x1 PUSH1 0xA0 SHL SUB SWAP1 SWAP2 AND DUP2 MSTORE PUSH1 0x20 ADD PUSH2 0x153 JUMP JUMPDEST PUSH0 SLOAD PUSH1 0x1 PUSH1 0xA0 SHL SWAP1 DIV PUSH1 0xFF AND PUSH2 0x367 JUMPI PUSH1 0x40 MLOAD PUSH3 0x461BCD PUSH1 0xE5 SHL DUP2 MSTORE PUSH1 0x20 PUSH1 0x4 DUP3 ADD MSTORE PUSH1 0x14 PUSH1 0x24 DUP3 ADD MSTORE PUSH20 0x22B632B1BA34B7B71034B9903737BA1037B832B7 PUSH1 0x61 SHL PUSH1 0x44 DUP3 ADD MSTORE PUSH1 0x64 ADD JUMPDEST PUSH1 0x40 MLOAD DUP1 SWAP2 SUB SWAP1 REVERT JUMPDEST PUSH1 0x1 SLOAD TIMESTAMP LT PUSH2 0x3B8 JUMPI PUSH1 0x40 MLOAD PUSH3 0x461BCD PUSH1 0xE5 SHL DUP2 MSTORE PUSH1 0x20 PUSH1 0x4 DUP3 ADD MSTORE PUSH1 0x1A PUSH1 0x24 DUP3 ADD MSTORE PUSH32 0x566F74696E6720646561646C696E652068617320706173736564000000000000 PUSH1 0x44 DUP3 ADD MSTORE PUSH1 0x64 ADD PUSH2 0x35E JUMP JUMPDEST CALLER PUSH0 SWAP1 DUP2 MSTORE PUSH1 0x4 PUSH1 0x20 SWAP1 DUP2 MSTORE PUSH1 0x40 DUP1 DUP4 KECCAK256 DUP2 MLOAD PUSH1 0x60 DUP2 ADD SWAP1 SWAP3 MSTORE DUP1 SLOAD PUSH1 0xFF AND ISZERO ISZERO DUP3 MSTORE PUSH1 0x1 DUP2 ADD DUP1 SLOAD SWAP3 SWAP4 SWAP2 SWAP3 SWAP2 DUP5 ADD SWAP2 PUSH2 0x3F2 SWAP1 PUSH2 0x275B JUMP JUMPDEST DUP1 PUSH1 0x1F ADD PUSH1 0x20 DUP1 SWAP2 DIV MUL PUSH1 0x20 ADD PUSH1 0x40 MLOAD SWAP1 DUP2 ADD PUSH1 0x40 MSTORE DUP1 SWAP3 SWAP2 SWAP1 DUP2 DUP2 MSTORE PUSH1 0x20 ADD DUP3 DUP1 SLOAD PUSH2 0x41E SWAP1 PUSH2 0x275B JUMP JUMPDEST DUP1 ISZERO PUSH2 0x469 JUMPI DUP1 PUSH1 0x1F LT PUSH2 0x440 JUMPI PUSH2 0x100 DUP1 DUP4 SLOAD DIV MUL DUP4 MSTORE SWAP2 PUSH1 0x20 ADD SWAP2 PUSH2 0x469 JUMP JUMPDEST DUP3 ADD SWAP2 SWAP1 PUSH0 MSTORE PUSH1 0x20 PUSH0 KECCAK256 SWAP1 JUMPDEST DUP2 SLOAD DUP2 MSTORE SWAP1 PUSH1 0x1 ADD SWAP1 PUSH1 0x20 ADD DUP1 DUP4 GT PUSH2 0x44C JUMPI DUP3 SWAP1 SUB PUSH1 0x1F AND DUP3 ADD SWAP2 JUMPDEST POP POP POP POP POP DUP2 MSTORE PUSH1 0x20 ADD PUSH1 0x2 DUP3 ADD DUP1 SLOAD PUSH2 0x482 SWAP1 PUSH2 0x275B JUMP JUMPDEST DUP1 PUSH1 0x1F ADD PUSH1 0x20 DUP1 SWAP2 DIV MUL PUSH1 0x20 ADD PUSH1 0x40 MLOAD SWAP1 DUP2 ADD PUSH1 0x40 MSTORE DUP1 SWAP3 SWAP2 SWAP1 DUP2 DUP2 MSTORE PUSH1 0x20 ADD DUP3 DUP1 SLOAD PUSH2 0x4AE SWAP1 PUSH2 0x275B JUMP JUMPDEST DUP1 ISZERO PUSH2 0x4F9 JUMPI DUP1 PUSH1 0x1F LT PUSH2 0x4D0 JUMPI PUSH2 0x100 DUP1 DUP4 SLOAD DIV MUL DUP4 MSTORE SWAP2 PUSH1 0x20 ADD SWAP2 PUSH2 0x4F9 JUMP JUMPDEST DUP3 ADD SWAP2 SWAP1 PUSH0 MSTORE PUSH1 0x20 PUSH0 KECCAK256 SWAP1 JUMPDEST DUP2 SLOAD DUP2 MSTORE SWAP1 PUSH1 0x1 ADD SWAP1 PUSH1 0x20 ADD DUP1 DUP4 GT PUSH2 0x4DC JUMPI DUP3 SWAP1 SUB PUSH1 0x1F AND DUP3 ADD SWAP2 JUMPDEST POP POP POP POP POP DUP2 MSTORE POP POP SWAP1 POP DUP1 PUSH0 ADD MLOAD PUSH2 0x55F JUMPI PUSH1 0x40 MLOAD PUSH3 0x461BCD PUSH1 0xE5 SHL DUP2 MSTORE PUSH1 0x20 PUSH1 0x4 DUP3 ADD MSTORE PUSH1 0x22 PUSH1 0x24 DUP3 ADD MSTORE PUSH32 0x4F6E6C7920726567697374657265642064656C6567617465732063616E20766F PUSH1 0x44 DUP3 ADD MSTORE PUSH2 0x7465 PUSH1 0xF0 SHL PUSH1 0x64 DUP3 ADD MSTORE PUSH1 0x84 ADD PUSH2 0x35E JUMP JUMPDEST PUSH0 DUP3 DUP2 MSTORE PUSH1 0x5 PUSH1 0x20 MSTORE PUSH1 0x40 DUP2 KECCAK256 DUP1 SLOAD SWAP1 SWAP2 SUB PUSH2 0x58D JUMPI PUSH1 0x40 MLOAD PUSH3 0x461BCD PUSH1 0xE5 SHL DUP2 MSTORE PUSH1 0x4 ADD PUSH2 0x35E SWAP1 PUSH2 0x2793 JUMP JUMPDEST PUSH1 0x5 DUP2 ADD SLOAD PUSH1 0xFF AND PUSH2 0x5E1 JUMPI PUSH1 0x40 MLOAD PUSH3 0x461BCD PUSH1 0xE5 SHL DUP2 MSTORE PUSH1 0x20 PUSH1 0x4 DUP3 ADD MSTORE PUSH1 0x17 PUSH1 0x24 DUP3 ADD MSTORE PUSH32 0x43616E646964617465206973206E6F7420616374697665000000000000000000 PUSH1 0x44 DUP3 ADD MSTORE PUSH1 0x64 ADD PUSH2 0x35E JUMP JUMPDEST PUSH0 DUP2 PUSH1 0x3 ADD DUP1 SLOAD PUSH2 0x5F1 SWAP1 PUSH2 0x275B JUMP JUMPDEST DUP1 PUSH1 0x1F ADD PUSH1 0x20 DUP1 SWAP2 DIV MUL PUSH1 0x20 ADD PUSH1 0x40 MLOAD SWAP1 DUP2 ADD PUSH1 0x40 MSTORE DUP1 SWAP3 SWAP2 SWAP1 DUP2 DUP2 MSTORE PUSH1 0x20 ADD DUP3 DUP1 SLOAD PUSH2 0x61D SWAP1 PUSH2 0x275B JUMP JUMPDEST DUP1 ISZERO PUSH2 0x668 JUMPI DUP1 PUSH1 0x1F LT PUSH2 0x63F JUMPI PUSH2 0x100 DUP1 DUP4 SLOAD DIV MUL DUP4 MSTORE SWAP2 PUSH1 0x20 ADD SWAP2 PUSH2 0x668 JUMP JUMPDEST DUP3 ADD SWAP2 SWAP1 PUSH0 MSTORE PUSH1 0x20 PUSH0 KECCAK256 SWAP1 JUMPDEST DUP2 SLOAD DUP2 MSTORE SWAP1 PUSH1 0x1 ADD SWAP1 PUSH1 0x20 ADD DUP1 DUP4 GT PUSH2 0x64B JUMPI DUP3 SWAP1 SUB PUSH1 0x1F AND DUP3 ADD SWAP2 JUMPDEST POP POP CALLER PUSH0 SWAP1 DUP2 MSTORE PUSH1 0x7 PUSH1 0x20 MSTORE PUSH1 0x40 SWAP1 DUP2 SWAP1 KECCAK256 SWAP1 MLOAD SWAP5 SWAP6 POP SWAP4 PUSH2 0x68F SWAP4 POP DUP6 SWAP3 POP SWAP1 POP PUSH2 0x27CA JUMP JUMPDEST SWAP1 DUP2 MSTORE PUSH1 0x40 MLOAD SWAP1 DUP2 SWAP1 SUB PUSH1 0x20 ADD SWAP1 KECCAK256 SLOAD PUSH1 0xFF AND ISZERO PUSH2 0x700 JUMPI PUSH1 0x40 MLOAD PUSH3 0x461BCD PUSH1 0xE5 SHL DUP2 MSTORE PUSH1 0x20 PUSH1 0x4 DUP3 ADD MSTORE PUSH1 0x28 PUSH1 0x24 DUP3 ADD MSTORE PUSH32 0x596F75206861766520616C726561647920766F74656420666F72207468697320 PUSH1 0x44 DUP3 ADD MSTORE PUSH8 0x3837B9B4BA34B7B7 PUSH1 0xC1 SHL PUSH1 0x64 DUP3 ADD MSTORE PUSH1 0x84 ADD PUSH2 0x35E JUMP JUMPDEST CALLER PUSH0 SWAP1 DUP2 MSTORE PUSH1 0x7 PUSH1 0x20 MSTORE PUSH1 0x40 SWAP1 DUP2 SWAP1 KECCAK256 SWAP1 MLOAD PUSH1 0x1 SWAP2 SWAP1 PUSH2 0x721 SWAP1 DUP5 SWAP1 PUSH2 0x27CA JUMP JUMPDEST SWAP1 DUP2 MSTORE PUSH1 0x20 ADD PUSH1 0x40 MLOAD DUP1 SWAP2 SUB SWAP1 KECCAK256 PUSH0 PUSH2 0x100 EXP DUP2 SLOAD DUP2 PUSH1 0xFF MUL NOT AND SWAP1 DUP4 ISZERO ISZERO MUL OR SWAP1 SSTORE POP PUSH1 0x1 DUP3 PUSH1 0x4 ADD PUSH0 DUP3 DUP3 SLOAD PUSH2 0x759 SWAP2 SWAP1 PUSH2 0x27F4 JUMP JUMPDEST SWAP1 SWAP2 SSTORE POP POP PUSH1 0x40 MLOAD DUP5 SWAP1 CALLER SWAP1 PUSH32 0x41AEB55EEF25A94E94AEAC300A628610FFA8099EB2BF991B3AE640D42233467D SWAP1 PUSH2 0x792 SWAP1 DUP6 SWAP1 PUSH2 0x2807 JUMP JUMPDEST PUSH1 0x40 MLOAD DUP1 SWAP2 SUB SWAP1 LOG3 POP POP POP POP JUMP JUMPDEST PUSH0 DUP1 SLOAD PUSH1 0x1 PUSH1 0xA0 SHL SWAP1 DIV PUSH1 0xFF AND ISZERO DUP1 PUSH2 0x7BB JUMPI POP PUSH1 0x1 SLOAD TIMESTAMP LT ISZERO JUMPDEST ISZERO PUSH2 0x7C5 JUMPI POP PUSH0 SWAP1 JUMP JUMPDEST TIMESTAMP PUSH1 0x1 SLOAD PUSH2 0x7D3 SWAP2 SWAP1 PUSH2 0x2819 JUMP JUMPDEST SWAP1 POP SWAP1 JUMP JUMPDEST PUSH1 0x60 PUSH1 0x3 DUP1 SLOAD DUP1 PUSH1 0x20 MUL PUSH1 0x20 ADD PUSH1 0x40 MLOAD SWAP1 DUP2 ADD PUSH1 0x40 MSTORE DUP1 SWAP3 SWAP2 SWAP1 DUP2 DUP2 MSTORE PUSH1 0x20 ADD PUSH0 SWAP1 JUMPDEST DUP3 DUP3 LT ISZERO PUSH2 0x8A3 JUMPI DUP4 DUP3 SWAP1 PUSH0 MSTORE PUSH1 0x20 PUSH0 KECCAK256 ADD DUP1 SLOAD PUSH2 0x818 SWAP1 PUSH2 0x275B JUMP JUMPDEST DUP1 PUSH1 0x1F ADD PUSH1 0x20 DUP1 SWAP2 DIV MUL PUSH1 0x20 ADD PUSH1 0x40 MLOAD SWAP1 DUP2 ADD PUSH1 0x40 MSTORE DUP1 SWAP3 SWAP2 SWAP1 DUP2 DUP2 MSTORE PUSH1 0x20 ADD DUP3 DUP1 SLOAD PUSH2 0x844 SWAP1 PUSH2 0x275B JUMP JUMPDEST DUP1 ISZERO PUSH2 0x88F JUMPI DUP1 PUSH1 0x1F LT PUSH2 0x866 JUMPI PUSH2 0x100 DUP1 DUP4 SLOAD DIV MUL DUP4 MSTORE SWAP2 PUSH1 0x20 ADD SWAP2 PUSH2 0x88F JUMP JUMPDEST DUP3 ADD SWAP2 SWAP1 PUSH0 MSTORE PUSH1 0x20 PUSH0 KECCAK256 SWAP1 JUMPDEST DUP2 SLOAD DUP2 MSTORE SWAP1 PUSH1 0x1 ADD SWAP1 PUSH1 0x20 ADD DUP1 DUP4 GT PUSH2 0x872 JUMPI DUP3 SWAP1 SUB PUSH1 0x1F AND DUP3 ADD SWAP2 JUMPDEST POP POP POP POP POP DUP2 MSTORE PUSH1 0x20 ADD SWAP1 PUSH1 0x1 ADD SWAP1 PUSH2 0x7FB JUMP JUMPDEST POP POP POP POP SWAP1 POP SWAP1 JUMP JUMPDEST PUSH0 PUSH1 0x60 DUP1 PUSH0 PUSH0 PUSH1 0x14 SWAP1 SLOAD SWAP1 PUSH2 0x100 EXP SWAP1 DIV PUSH1 0xFF AND ISZERO DUP1 PUSH2 0x8CE JUMPI POP PUSH1 0x1 SLOAD TIMESTAMP LT ISZERO JUMPDEST PUSH2 0x916 JUMPI PUSH1 0x40 MLOAD PUSH3 0x461BCD PUSH1 0xE5 SHL DUP2 MSTORE PUSH1 0x20 PUSH1 0x4 DUP3 ADD MSTORE PUSH1 0x19 PUSH1 0x24 DUP3 ADD MSTORE PUSH25 0x456C656374696F6E206973207374696C6C206F6E676F696E67 PUSH1 0x38 SHL PUSH1 0x44 DUP3 ADD MSTORE PUSH1 0x64 ADD PUSH2 0x35E JUMP JUMPDEST PUSH0 PUSH2 0x920 DUP7 PUSH2 0x1AAF JUMP JUMPDEST SWAP1 POP PUSH0 PUSH1 0x5 PUSH0 DUP4 DUP2 MSTORE PUSH1 0x20 ADD SWAP1 DUP2 MSTORE PUSH1 0x20 ADD PUSH0 KECCAK256 PUSH1 0x40 MLOAD DUP1 PUSH1 0xC0 ADD PUSH1 0x40 MSTORE SWAP1 DUP2 PUSH0 DUP3 ADD SLOAD DUP2 MSTORE PUSH1 0x20 ADD PUSH1 0x1 DUP3 ADD DUP1 SLOAD PUSH2 0x958 SWAP1 PUSH2 0x275B JUMP JUMPDEST DUP1 PUSH1 0x1F ADD PUSH1 0x20 DUP1 SWAP2 DIV MUL PUSH1 0x20 ADD PUSH1 0x40 MLOAD SWAP1 DUP2 ADD PUSH1 0x40 MSTORE DUP1 SWAP3 SWAP2 SWAP1 DUP2 DUP2 MSTORE PUSH1 0x20 ADD DUP3 DUP1 SLOAD PUSH2 0x984 SWAP1 PUSH2 0x275B JUMP JUMPDEST DUP1 ISZERO PUSH2 0x9CF JUMPI DUP1 PUSH1 0x1F LT PUSH2 0x9A6 JUMPI PUSH2 0x100 DUP1 DUP4 SLOAD DIV MUL DUP4 MSTORE SWAP2 PUSH1 0x20 ADD SWAP2 PUSH2 0x9CF JUMP JUMPDEST DUP3 ADD SWAP2 SWAP1 PUSH0 MSTORE PUSH1 0x20 PUSH0 KECCAK256 SWAP1 JUMPDEST DUP2 SLOAD DUP2 MSTORE SWAP1 PUSH1 0x1 ADD SWAP1 PUSH1 0x20 ADD DUP1 DUP4 GT PUSH2 0x9B2 JUMPI DUP3 SWAP1 SUB PUSH1 0x1F AND DUP3 ADD SWAP2 JUMPDEST POP POP POP POP POP DUP2 MSTORE PUSH1 0x20 ADD PUSH1 0x2 DUP3 ADD DUP1 SLOAD PUSH2 0x9E8 SWAP1 PUSH2 0x275B JUMP JUMPDEST DUP1 PUSH1 0x1F ADD PUSH1 0x20 DUP1 SWAP2 DIV MUL PUSH1 0x20 ADD PUSH1 0x40 MLOAD SWAP1 DUP2 ADD PUSH1 0x40 MSTORE DUP1 SWAP3 SWAP2 SWAP1 DUP2 DUP2 MSTORE PUSH1 0x20 ADD DUP3 DUP1 SLOAD PUSH2 0xA14 SWAP1 PUSH2 0x275B JUMP JUMPDEST DUP1 ISZERO PUSH2 0xA5F JUMPI DUP1 PUSH1 0x1F LT PUSH2 0xA36 JUMPI PUSH2 0x100 DUP1 DUP4 SLOAD DIV MUL DUP4 MSTORE SWAP2 PUSH1 0x20 ADD SWAP2 PUSH2 0xA5F JUMP JUMPDEST DUP3 ADD SWAP2 SWAP1 PUSH0 MSTORE PUSH1 0x20 PUSH0 KECCAK256 SWAP1 JUMPDEST DUP2 SLOAD DUP2 MSTORE SWAP1 PUSH1 0x1 ADD SWAP1 PUSH1 0x20 ADD DUP1 DUP4 GT PUSH2 0xA42 JUMPI DUP3 SWAP1 SUB PUSH1 0x1F AND DUP3 ADD SWAP2 JUMPDEST POP POP POP POP POP DUP2 MSTORE PUSH1 0x20 ADD PUSH1 0x3 DUP3 ADD DUP1 SLOAD PUSH2 0xA78 SWAP1 PUSH2 0x275B JUMP JUMPDEST DUP1 PUSH1 0x1F ADD PUSH1 0x20 DUP1 SWAP2 DIV MUL PUSH1 0x20 ADD PUSH1 0x40 MLOAD SWAP1 DUP2 ADD PUSH1 0x40 MSTORE DUP1 SWAP3 SWAP2 SWAP1 DUP2 DUP2 MSTORE PUSH1 0x20 ADD DUP3 DUP1 SLOAD PUSH2 0xAA4 SWAP1 PUSH2 0x275B JUMP JUMPDEST DUP1 ISZERO PUSH2 0xAEF JUMPI DUP1 PUSH1 0x1F LT PUSH2 0xAC6 JUMPI PUSH2 0x100 DUP1 DUP4 SLOAD DIV MUL DUP4 MSTORE SWAP2 PUSH1 0x20 ADD SWAP2 PUSH2 0xAEF JUMP JUMPDEST DUP3 ADD SWAP2 SWAP1 PUSH0 MSTORE PUSH1 0x20 PUSH0 KECCAK256 SWAP1 JUMPDEST DUP2 SLOAD DUP2 MSTORE SWAP1 PUSH1 0x1 ADD SWAP1 PUSH1 0x20 ADD DUP1 DUP4 GT PUSH2 0xAD2 JUMPI DUP3 SWAP1 SUB PUSH1 0x1F AND DUP3 ADD SWAP2 JUMPDEST POP POP POP SWAP2 DUP4 MSTORE POP POP PUSH1 0x4 DUP3 ADD SLOAD PUSH1 0x20 DUP1 DUP4 ADD SWAP2 SWAP1 SWAP2 MSTORE PUSH1 0x5 SWAP1 SWAP3 ADD SLOAD PUSH1 0xFF AND ISZERO ISZERO PUSH1 0x40 SWAP2 DUP3 ADD MSTORE DUP3 MLOAD SWAP2 DUP4 ADD MLOAD SWAP1 DUP4 ADD MLOAD PUSH1 0x80 SWAP1 SWAP4 ADD MLOAD SWAP2 SWAP11 SWAP1 SWAP10 POP SWAP2 SWAP8 POP SWAP6 POP SWAP4 POP POP POP POP JUMP JUMPDEST PUSH1 0x1 PUSH1 0x1 PUSH1 0xA0 SHL SUB DUP3 AND PUSH0 SWAP1 DUP2 MSTORE PUSH1 0x7 PUSH1 0x20 MSTORE PUSH1 0x40 DUP1 DUP3 KECCAK256 SWAP1 MLOAD PUSH2 0xB5C SWAP1 DUP5 SWAP1 PUSH2 0x27CA JUMP JUMPDEST SWAP1 DUP2 MSTORE PUSH1 0x40 MLOAD SWAP1 DUP2 SWAP1 SUB PUSH1 0x20 ADD SWAP1 KECCAK256 SLOAD PUSH1 0xFF AND SWAP1 POP JUMPDEST SWAP3 SWAP2 POP POP JUMP JUMPDEST PUSH1 0x60 DUP1 PUSH1 0x60 DUP1 PUSH0 PUSH1 0x6 DUP7 PUSH1 0x40 MLOAD PUSH2 0xB8F SWAP2 SWAP1 PUSH2 0x27CA JUMP JUMPDEST SWAP1 DUP2 MSTORE PUSH1 0x40 DUP1 MLOAD SWAP2 DUP3 SWAP1 SUB PUSH1 0x20 SWAP1 DUP2 ADD DUP4 KECCAK256 DUP1 SLOAD DUP1 DUP4 MUL DUP6 ADD DUP4 ADD SWAP1 SWAP4 MSTORE DUP3 DUP5 MSTORE SWAP2 SWAP1 DUP4 ADD DUP3 DUP3 DUP1 ISZERO PUSH2 0xBDF JUMPI PUSH1 0x20 MUL DUP3 ADD SWAP2 SWAP1 PUSH0 MSTORE PUSH1 0x20 PUSH0 KECCAK256 SWAP1 JUMPDEST DUP2 SLOAD DUP2 MSTORE PUSH1 0x20 ADD SWAP1 PUSH1 0x1 ADD SWAP1 DUP1 DUP4 GT PUSH2 0xBCB JUMPI JUMPDEST POP POP DUP4 MLOAD SWAP4 SWAP5 POP DUP4 SWAP3 POP POP POP PUSH1 0x1 PUSH1 0x1 PUSH1 0x40 SHL SUB DUP2 GT ISZERO PUSH2 0xC02 JUMPI PUSH2 0xC02 PUSH2 0x23B5 JUMP JUMPDEST PUSH1 0x40 MLOAD SWAP1 DUP1 DUP3 MSTORE DUP1 PUSH1 0x20 MUL PUSH1 0x20 ADD DUP3 ADD PUSH1 0x40 MSTORE DUP1 ISZERO PUSH2 0xC2B JUMPI DUP2 PUSH1 0x20 ADD PUSH1 0x20 DUP3 MUL DUP1 CALLDATASIZE DUP4 CALLDATACOPY ADD SWAP1 POP JUMPDEST POP SWAP6 POP DUP1 PUSH1 0x1 PUSH1 0x1 PUSH1 0x40 SHL SUB DUP2 GT ISZERO PUSH2 0xC46 JUMPI PUSH2 0xC46 PUSH2 0x23B5 JUMP JUMPDEST PUSH1 0x40 MLOAD SWAP1 DUP1 DUP3 MSTORE DUP1 PUSH1 0x20 MUL PUSH1 0x20 ADD DUP3 ADD PUSH1 0x40 MSTORE DUP1 ISZERO PUSH2 0xC79 JUMPI DUP2 PUSH1 0x20 ADD JUMPDEST PUSH1 0x60 DUP2 MSTORE PUSH1 0x20 ADD SWAP1 PUSH1 0x1 SWAP1 SUB SWAP1 DUP2 PUSH2 0xC64 JUMPI SWAP1 POP JUMPDEST POP SWAP5 POP DUP1 PUSH1 0x1 PUSH1 0x1 PUSH1 0x40 SHL SUB DUP2 GT ISZERO PUSH2 0xC94 JUMPI PUSH2 0xC94 PUSH2 0x23B5 JUMP JUMPDEST PUSH1 0x40 MLOAD SWAP1 DUP1 DUP3 MSTORE DUP1 PUSH1 0x20 MUL PUSH1 0x20 ADD DUP3 ADD PUSH1 0x40 MSTORE DUP1 ISZERO PUSH2 0xCBD JUMPI DUP2 PUSH1 0x20 ADD PUSH1 0x20 DUP3 MUL DUP1 CALLDATASIZE DUP4 CALLDATACOPY ADD SWAP1 POP JUMPDEST POP SWAP4 POP DUP1 PUSH1 0x1 PUSH1 0x1 PUSH1 0x40 SHL SUB DUP2 GT ISZERO PUSH2 0xCD8 JUMPI PUSH2 0xCD8 PUSH2 0x23B5 JUMP JUMPDEST PUSH1 0x40 MLOAD SWAP1 DUP1 DUP3 MSTORE DUP1 PUSH1 0x20 MUL PUSH1 0x20 ADD DUP3 ADD PUSH1 0x40 MSTORE DUP1 ISZERO PUSH2 0xD01 JUMPI DUP2 PUSH1 0x20 ADD PUSH1 0x20 DUP3 MUL DUP1 CALLDATASIZE DUP4 CALLDATACOPY ADD SWAP1 POP JUMPDEST POP SWAP3 POP PUSH0 JUMPDEST DUP2 DUP2 LT ISZERO PUSH2 0xFB2 JUMPI PUSH0 PUSH1 0x5 PUSH0 DUP6 DUP5 DUP2 MLOAD DUP2 LT PUSH2 0xD24 JUMPI PUSH2 0xD24 PUSH2 0x282C JUMP JUMPDEST PUSH1 0x20 MUL PUSH1 0x20 ADD ADD MLOAD DUP2 MSTORE PUSH1 0x20 ADD SWAP1 DUP2 MSTORE PUSH1 0x20 ADD PUSH0 KECCAK256 PUSH1 0x40 MLOAD DUP1 PUSH1 0xC0 ADD PUSH1 0x40 MSTORE SWAP1 DUP2 PUSH0 DUP3 ADD SLOAD DUP2 MSTORE PUSH1 0x20 ADD PUSH1 0x1 DUP3 ADD DUP1 SLOAD PUSH2 0xD5D SWAP1 PUSH2 0x275B JUMP JUMPDEST DUP1 PUSH1 0x1F ADD PUSH1 0x20 DUP1 SWAP2 DIV MUL PUSH1 0x20 ADD PUSH1 0x40 MLOAD SWAP1 DUP2 ADD PUSH1 0x40 MSTORE DUP1 SWAP3 SWAP2 SWAP1 DUP2 DUP2 MSTORE PUSH1 0x20 ADD DUP3 DUP1 SLOAD PUSH2 0xD89 SWAP1 PUSH2 0x275B JUMP JUMPDEST DUP1 ISZERO PUSH2 0xDD4 JUMPI DUP1 PUSH1 0x1F LT PUSH2 0xDAB JUMPI PUSH2 0x100 DUP1 DUP4 SLOAD DIV MUL DUP4 MSTORE SWAP2 PUSH1 0x20 ADD SWAP2 PUSH2 0xDD4 JUMP JUMPDEST DUP3 ADD SWAP2 SWAP1 PUSH0 MSTORE PUSH1 0x20 PUSH0 KECCAK256 SWAP1 JUMPDEST DUP2 SLOAD DUP2 MSTORE SWAP1 PUSH1 0x1 ADD SWAP1 PUSH1 0x20 ADD DUP1 DUP4 GT PUSH2 0xDB7 JUMPI DUP3 SWAP1 SUB PUSH1 0x1F AND DUP3 ADD SWAP2 JUMPDEST POP POP POP POP POP DUP2 MSTORE PUSH1 0x20 ADD PUSH1 0x2 DUP3 ADD DUP1 SLOAD PUSH2 0xDED SWAP1 PUSH2 0x275B JUMP JUMPDEST DUP1 PUSH1 0x1F ADD PUSH1 0x20 DUP1 SWAP2 DIV MUL PUSH1 0x20 ADD PUSH1 0x40 MLOAD SWAP1 DUP2 ADD PUSH1 0x40 MSTORE DUP1 SWAP3 SWAP2 SWAP1 DUP2 DUP2 MSTORE PUSH1 0x20 ADD DUP3 DUP1 SLOAD PUSH2 0xE19 SWAP1 PUSH2 0x275B JUMP JUMPDEST DUP1 ISZERO PUSH2 0xE64 JUMPI DUP1 PUSH1 0x1F LT PUSH2 0xE3B JUMPI PUSH2 0x100 DUP1 DUP4 SLOAD DIV MUL DUP4 MSTORE SWAP2 PUSH1 0x20 ADD SWAP2 PUSH2 0xE64 JUMP JUMPDEST DUP3 ADD SWAP2 SWAP1 PUSH0 MSTORE PUSH1 0x20 PUSH0 KECCAK256 SWAP1 JUMPDEST DUP2 SLOAD DUP2 MSTORE SWAP1 PUSH1 0x1 ADD SWAP1 PUSH1 0x20 ADD DUP1 DUP4 GT PUSH2 0xE47 JUMPI DUP3 SWAP1 SUB PUSH1 0x1F AND DUP3 ADD SWAP2 JUMPDEST POP POP POP POP POP DUP2 MSTORE PUSH1 0x20 ADD PUSH1 0x3 DUP3 ADD DUP1 SLOAD PUSH2 0xE7D SWAP1 PUSH2 0x275B JUMP JUMPDEST DUP1 PUSH1 0x1F ADD PUSH1 0x20 DUP1 SWAP2 DIV MUL PUSH1 0x20 ADD PUSH1 0x40 MLOAD SWAP1 DUP2 ADD PUSH1 0x40 MSTORE DUP1 SWAP3 SWAP2 SWAP1 DUP2 DUP2 MSTORE PUSH1 0x20 ADD DUP3 DUP1 SLOAD PUSH2 0xEA9 SWAP1 PUSH2 0x275B JUMP JUMPDEST DUP1 ISZERO PUSH2 0xEF4 JUMPI DUP1 PUSH1 0x1F LT PUSH2 0xECB JUMPI PUSH2 0x100 DUP1 DUP4 SLOAD DIV MUL DUP4 MSTORE SWAP2 PUSH1 0x20 ADD SWAP2 PUSH2 0xEF4 JUMP JUMPDEST DUP3 ADD SWAP2 SWAP1 PUSH0 MSTORE PUSH1 0x20 PUSH0 KECCAK256 SWAP1 JUMPDEST DUP2 SLOAD DUP2 MSTORE SWAP1 PUSH1 0x1 ADD SWAP1 PUSH1 0x20 ADD DUP1 DUP4 GT PUSH2 0xED7 JUMPI DUP3 SWAP1 SUB PUSH1 0x1F AND DUP3 ADD SWAP2 JUMPDEST POP POP POP SWAP2 DUP4 MSTORE POP POP PUSH1 0x4 DUP3 ADD SLOAD PUSH1 0x20 DUP3 ADD MSTORE PUSH1 0x5 SWAP1 SWAP2 ADD SLOAD PUSH1 0xFF AND ISZERO ISZERO PUSH1 0x40 SWAP1 SWAP2 ADD MSTORE DUP1 MLOAD DUP10 MLOAD SWAP2 SWAP3 POP SWAP1 DUP10 SWAP1 DUP5 SWAP1 DUP2 LT PUSH2 0xF31 JUMPI PUSH2 0xF31 PUSH2 0x282C JUMP JUMPDEST PUSH1 0x20 MUL PUSH1 0x20 ADD ADD DUP2 DUP2 MSTORE POP POP DUP1 PUSH1 0x20 ADD MLOAD DUP8 DUP4 DUP2 MLOAD DUP2 LT PUSH2 0xF54 JUMPI PUSH2 0xF54 PUSH2 0x282C JUMP JUMPDEST PUSH1 0x20 MUL PUSH1 0x20 ADD ADD DUP2 SWAP1 MSTORE POP DUP1 PUSH1 0x80 ADD MLOAD DUP7 DUP4 DUP2 MLOAD DUP2 LT PUSH2 0xF76 JUMPI PUSH2 0xF76 PUSH2 0x282C JUMP JUMPDEST PUSH1 0x20 MUL PUSH1 0x20 ADD ADD DUP2 DUP2 MSTORE POP POP DUP1 PUSH1 0xA0 ADD MLOAD DUP6 DUP4 DUP2 MLOAD DUP2 LT PUSH2 0xF99 JUMPI PUSH2 0xF99 PUSH2 0x282C JUMP JUMPDEST SWAP2 ISZERO ISZERO PUSH1 0x20 SWAP3 DUP4 MUL SWAP2 SWAP1 SWAP2 ADD SWAP1 SWAP2 ADD MSTORE POP PUSH1 0x1 ADD PUSH2 0xD06 JUMP JUMPDEST POP POP POP SWAP2 SWAP4 POP SWAP2 SWAP4 JUMP JUMPDEST PUSH0 SLOAD PUSH1 0x1 PUSH1 0x1 PUSH1 0xA0 SHL SUB AND CALLER EQ PUSH2 0xFE5 JUMPI PUSH1 0x40 MLOAD PUSH3 0x461BCD PUSH1 0xE5 SHL DUP2 MSTORE PUSH1 0x4 ADD PUSH2 0x35E SWAP1 PUSH2 0x2840 JUMP JUMPDEST PUSH1 0x1 PUSH1 0x1 PUSH1 0xA0 SHL SUB DUP4 AND PUSH2 0x103B JUMPI PUSH1 0x40 MLOAD PUSH3 0x461BCD PUSH1 0xE5 SHL DUP2 MSTORE PUSH1 0x20 PUSH1 0x4 DUP3 ADD MSTORE PUSH1 0x18 PUSH1 0x24 DUP3 ADD MSTORE PUSH32 0x496E76616C69642064656C656761746520616464726573730000000000000000 PUSH1 0x44 DUP3 ADD MSTORE PUSH1 0x64 ADD PUSH2 0x35E JUMP JUMPDEST PUSH1 0x1 PUSH1 0x1 PUSH1 0xA0 SHL SUB DUP4 AND PUSH0 SWAP1 DUP2 MSTORE PUSH1 0x4 PUSH1 0x20 MSTORE PUSH1 0x40 SWAP1 KECCAK256 SLOAD PUSH1 0xFF AND ISZERO PUSH2 0x10A3 JUMPI PUSH1 0x40 MLOAD PUSH3 0x461BCD PUSH1 0xE5 SHL DUP2 MSTORE PUSH1 0x20 PUSH1 0x4 DUP3 ADD MSTORE PUSH1 0x1B PUSH1 0x24 DUP3 ADD MSTORE PUSH32 0x44656C656761746520616C726561647920726567697374657265640000000000 PUSH1 0x44 DUP3 ADD MSTORE PUSH1 0x64 ADD PUSH2 0x35E JUMP JUMPDEST PUSH0 DUP3 MLOAD GT PUSH2 0x10F3 JUMPI PUSH1 0x40 MLOAD PUSH3 0x461BCD PUSH1 0xE5 SHL DUP2 MSTORE PUSH1 0x20 PUSH1 0x4 DUP3 ADD MSTORE PUSH1 0x1D PUSH1 0x24 DUP3 ADD MSTORE PUSH32 0x44656C6567617465206E616D652063616E6E6F7420626520656D707479000000 PUSH1 0x44 DUP3 ADD MSTORE PUSH1 0x64 ADD PUSH2 0x35E JUMP JUMPDEST PUSH0 DUP2 MLOAD GT PUSH2 0x1113 JUMPI PUSH1 0x40 MLOAD PUSH3 0x461BCD PUSH1 0xE5 SHL DUP2 MSTORE PUSH1 0x4 ADD PUSH2 0x35E SWAP1 PUSH2 0x2882 JUMP JUMPDEST PUSH0 SLOAD PUSH1 0x1 PUSH1 0xA0 SHL SWAP1 DIV PUSH1 0xFF AND ISZERO PUSH2 0x1185 JUMPI PUSH1 0x40 MLOAD PUSH3 0x461BCD PUSH1 0xE5 SHL DUP2 MSTORE PUSH1 0x20 PUSH1 0x4 DUP3 ADD MSTORE PUSH1 0x30 PUSH1 0x24 DUP3 ADD MSTORE PUSH32 0x43616E6E6F742072656769737465722064656C656761746573207768696C6520 PUSH1 0x44 DUP3 ADD MSTORE PUSH16 0x32B632B1BA34B7B71034B99037B832B7 PUSH1 0x81 SHL PUSH1 0x64 DUP3 ADD MSTORE PUSH1 0x84 ADD PUSH2 0x35E JUMP JUMPDEST PUSH1 0x40 DUP1 MLOAD PUSH1 0x60 DUP2 ADD DUP3 MSTORE PUSH1 0x1 DUP1 DUP3 MSTORE PUSH1 0x20 DUP1 DUP4 ADD DUP7 DUP2 MSTORE DUP4 DUP6 ADD DUP7 SWAP1 MSTORE PUSH1 0x1 PUSH1 0x1 PUSH1 0xA0 SHL SUB DUP9 AND PUSH0 SWAP1 DUP2 MSTORE PUSH1 0x4 SWAP1 SWAP3 MSTORE SWAP4 SWAP1 KECCAK256 DUP3 MLOAD DUP2 SLOAD PUSH1 0xFF NOT AND SWAP1 ISZERO ISZERO OR DUP2 SSTORE SWAP3 MLOAD SWAP2 SWAP3 SWAP2 SWAP1 DUP3 ADD SWAP1 PUSH2 0x11D9 SWAP1 DUP3 PUSH2 0x290F JUMP JUMPDEST POP PUSH1 0x40 DUP3 ADD MLOAD PUSH1 0x2 DUP3 ADD SWAP1 PUSH2 0x11EE SWAP1 DUP3 PUSH2 0x290F JUMP JUMPDEST POP SWAP1 POP POP DUP3 PUSH1 0x1 PUSH1 0x1 PUSH1 0xA0 SHL SUB AND PUSH32 0xE8D9D391EB3D36B3AD124D243FD662D8212521CBB9CC79EF19FF6562A94A26C5 DUP4 DUP4 PUSH1 0x40 MLOAD PUSH2 0x122D SWAP3 SWAP2 SWAP1 PUSH2 0x29C9 JUMP JUMPDEST PUSH1 0x40 MLOAD DUP1 SWAP2 SUB SWAP1 LOG2 POP POP POP JUMP JUMPDEST PUSH1 0x5 PUSH1 0x20 MSTORE PUSH0 SWAP1 DUP2 MSTORE PUSH1 0x40 SWAP1 KECCAK256 DUP1 SLOAD PUSH1 0x1 DUP3 ADD DUP1 SLOAD SWAP2 SWAP3 SWAP2 PUSH2 0x125B SWAP1 PUSH2 0x275B JUMP JUMPDEST DUP1 PUSH1 0x1F ADD PUSH1 0x20 DUP1 SWAP2 DIV MUL PUSH1 0x20 ADD PUSH1 0x40 MLOAD SWAP1 DUP2 ADD PUSH1 0x40 MSTORE DUP1 SWAP3 SWAP2 SWAP1 DUP2 DUP2 MSTORE PUSH1 0x20 ADD DUP3 DUP1 SLOAD PUSH2 0x1287 SWAP1 PUSH2 0x275B JUMP JUMPDEST DUP1 ISZERO PUSH2 0x12D2 JUMPI DUP1 PUSH1 0x1F LT PUSH2 0x12A9 JUMPI PUSH2 0x100 DUP1 DUP4 SLOAD DIV MUL DUP4 MSTORE SWAP2 PUSH1 0x20 ADD SWAP2 PUSH2 0x12D2 JUMP JUMPDEST DUP3 ADD SWAP2 SWAP1 PUSH0 MSTORE PUSH1 0x20 PUSH0 KECCAK256 SWAP1 JUMPDEST DUP2 SLOAD DUP2 MSTORE SWAP1 PUSH1 0x1 ADD SWAP1 PUSH1 0x20 ADD DUP1 DUP4 GT PUSH2 0x12B5 JUMPI DUP3 SWAP1 SUB PUSH1 0x1F AND DUP3 ADD SWAP2 JUMPDEST POP POP POP POP POP SWAP1 DUP1 PUSH1 0x2 ADD DUP1 SLOAD PUSH2 0x12E7 SWAP1 PUSH2 0x275B JUMP JUMPDEST DUP1 PUSH1 0x1F ADD PUSH1 0x20 DUP1 SWAP2 DIV MUL PUSH1 0x20 ADD PUSH1 0x40 MLOAD SWAP1 DUP2 ADD PUSH1 0x40 MSTORE DUP1 SWAP3 SWAP2 SWAP1 DUP2 DUP2 MSTORE PUSH1 0x20 ADD DUP3 DUP1 SLOAD PUSH2 0x1313 SWAP1 PUSH2 0x275B JUMP JUMPDEST DUP1 ISZERO PUSH2 0x135E JUMPI DUP1 PUSH1 0x1F LT PUSH2 0x1335 JUMPI PUSH2 0x100 DUP1 DUP4 SLOAD DIV MUL DUP4 MSTORE SWAP2 PUSH1 0x20 ADD SWAP2 PUSH2 0x135E JUMP JUMPDEST DUP3 ADD SWAP2 SWAP1 PUSH0 MSTORE PUSH1 0x20 PUSH0 KECCAK256 SWAP1 JUMPDEST DUP2 SLOAD DUP2 MSTORE SWAP1 PUSH1 0x1 ADD SWAP1 PUSH1 0x20 ADD DUP1 DUP4 GT PUSH2 0x1341 JUMPI DUP3 SWAP1 SUB PUSH1 0x1F AND DUP3 ADD SWAP2 JUMPDEST POP POP POP POP POP SWAP1 DUP1 PUSH1 0x3 ADD DUP1 SLOAD PUSH2 0x1373 SWAP1 PUSH2 0x275B JUMP JUMPDEST DUP1 PUSH1 0x1F ADD PUSH1 0x20 DUP1 SWAP2 DIV MUL PUSH1 0x20 ADD PUSH1 0x40 MLOAD SWAP1 DUP2 ADD PUSH1 0x40 MSTORE DUP1 SWAP3 SWAP2 SWAP1 DUP2 DUP2 MSTORE PUSH1 0x20 ADD DUP3 DUP1 SLOAD PUSH2 0x139F SWAP1 PUSH2 0x275B JUMP JUMPDEST DUP1 ISZERO PUSH2 0x13EA JUMPI DUP1 PUSH1 0x1F LT PUSH2 0x13C1 JUMPI PUSH2 0x100 DUP1 DUP4 SLOAD DIV MUL DUP4 MSTORE SWAP2 PUSH1 0x20 ADD SWAP2 PUSH2 0x13EA JUMP JUMPDEST DUP3 ADD SWAP2 SWAP1 PUSH0 MSTORE PUSH1 0x20 PUSH0 KECCAK256 SWAP1 JUMPDEST DUP2 SLOAD DUP2 MSTORE SWAP1 PUSH1 0x1 ADD SWAP1 PUSH1 0x20 ADD DUP1 DUP4 GT PUSH2 0x13CD JUMPI DUP3 SWAP1 SUB PUSH1 0x1F AND DUP3 ADD SWAP2 JUMPDEST POP POP POP POP PUSH1 0x4 DUP4 ADD SLOAD PUSH1 0x5 SWAP1 SWAP4 ADD SLOAD SWAP2 SWAP3 SWAP2 PUSH1 0xFF AND SWAP1 POP DUP7 JUMP JUMPDEST PUSH0 PUSH1 0x60 DUP1 PUSH1 0x60 PUSH0 PUSH0 PUSH0 PUSH1 0x5 PUSH0 DUP10 DUP2 MSTORE PUSH1 0x20 ADD SWAP1 DUP2 MSTORE PUSH1 0x20 ADD PUSH0 KECCAK256 PUSH1 0x40 MLOAD DUP1 PUSH1 0xC0 ADD PUSH1 0x40 MSTORE SWAP1 DUP2 PUSH0 DUP3 ADD SLOAD DUP2 MSTORE PUSH1 0x20 ADD PUSH1 0x1 DUP3 ADD DUP1 SLOAD PUSH2 0x1442 SWAP1 PUSH2 0x275B JUMP JUMPDEST DUP1 PUSH1 0x1F ADD PUSH1 0x20 DUP1 SWAP2 DIV MUL PUSH1 0x20 ADD PUSH1 0x40 MLOAD SWAP1 DUP2 ADD PUSH1 0x40 MSTORE DUP1 SWAP3 SWAP2 SWAP1 DUP2 DUP2 MSTORE PUSH1 0x20 ADD DUP3 DUP1 SLOAD PUSH2 0x146E SWAP1 PUSH2 0x275B JUMP JUMPDEST DUP1 ISZERO PUSH2 0x14B9 JUMPI DUP1 PUSH1 0x1F LT PUSH2 0x1490 JUMPI PUSH2 0x100 DUP1 DUP4 SLOAD DIV MUL DUP4 MSTORE SWAP2 PUSH1 0x20 ADD SWAP2 PUSH2 0x14B9 JUMP JUMPDEST DUP3 ADD SWAP2 SWAP1 PUSH0 MSTORE PUSH1 0x20 PUSH0 KECCAK256 SWAP1 JUMPDEST DUP2 SLOAD DUP2 MSTORE SWAP1 PUSH1 0x1 ADD SWAP1 PUSH1 0x20 ADD DUP1 DUP4 GT PUSH2 0x149C JUMPI DUP3 SWAP1 SUB PUSH1 0x1F AND DUP3 ADD SWAP2 JUMPDEST POP POP POP POP POP DUP2 MSTORE PUSH1 0x20 ADD PUSH1 0x2 DUP3 ADD DUP1 SLOAD PUSH2 0x14D2 SWAP1 PUSH2 0x275B JUMP JUMPDEST DUP1 PUSH1 0x1F ADD PUSH1 0x20 DUP1 SWAP2 DIV MUL PUSH1 0x20 ADD PUSH1 0x40 MLOAD SWAP1 DUP2 ADD PUSH1 0x40 MSTORE DUP1 SWAP3 SWAP2 SWAP1 DUP2 DUP2 MSTORE PUSH1 0x20 ADD DUP3 DUP1 SLOAD PUSH2 0x14FE SWAP1 PUSH2 0x275B JUMP JUMPDEST DUP1 ISZERO PUSH2 0x1549 JUMPI DUP1 PUSH1 0x1F LT PUSH2 0x1520 JUMPI PUSH2 0x100 DUP1 DUP4 SLOAD DIV MUL DUP4 MSTORE SWAP2 PUSH1 0x20 ADD SWAP2 PUSH2 0x1549 JUMP JUMPDEST DUP3 ADD SWAP2 SWAP1 PUSH0 MSTORE PUSH1 0x20 PUSH0 KECCAK256 SWAP1 JUMPDEST DUP2 SLOAD DUP2 MSTORE SWAP1 PUSH1 0x1 ADD SWAP1 PUSH1 0x20 ADD DUP1 DUP4 GT PUSH2 0x152C JUMPI DUP3 SWAP1 SUB PUSH1 0x1F AND DUP3 ADD SWAP2 JUMPDEST POP POP POP POP POP DUP2 MSTORE PUSH1 0x20 ADD PUSH1 0x3 DUP3 ADD DUP1 SLOAD PUSH2 0x1562 SWAP1 PUSH2 0x275B JUMP JUMPDEST DUP1 PUSH1 0x1F ADD PUSH1 0x20 DUP1 SWAP2 DIV MUL PUSH1 0x20 ADD PUSH1 0x40 MLOAD SWAP1 DUP2 ADD PUSH1 0x40 MSTORE DUP1 SWAP3 SWAP2 SWAP1 DUP2 DUP2 MSTORE PUSH1 0x20 ADD DUP3 DUP1 SLOAD PUSH2 0x158E SWAP1 PUSH2 0x275B JUMP JUMPDEST DUP1 ISZERO PUSH2 0x15D9 JUMPI DUP1 PUSH1 0x1F LT PUSH2 0x15B0 JUMPI PUSH2 0x100 DUP1 DUP4 SLOAD DIV MUL DUP4 MSTORE SWAP2 PUSH1 0x20 ADD SWAP2 PUSH2 0x15D9 JUMP JUMPDEST DUP3 ADD SWAP2 SWAP1 PUSH0 MSTORE PUSH1 0x20 PUSH0 KECCAK256 SWAP1 JUMPDEST DUP2 SLOAD DUP2 MSTORE SWAP1 PUSH1 0x1 ADD SWAP1 PUSH1 0x20 ADD DUP1 DUP4 GT PUSH2 0x15BC JUMPI DUP3 SWAP1 SUB PUSH1 0x1F AND DUP3 ADD SWAP2 JUMPDEST POP POP POP SWAP2 DUP4 MSTORE POP POP PUSH1 0x4 DUP3 ADD SLOAD PUSH1 0x20 DUP3 ADD MSTORE PUSH1 0x5 SWAP1 SWAP2 ADD SLOAD PUSH1 0xFF AND ISZERO ISZERO PUSH1 0x40 SWAP1 SWAP2 ADD MSTORE DUP1 MLOAD SWAP1 SWAP2 POP PUSH0 SUB PUSH2 0x161F JUMPI PUSH1 0x40 MLOAD PUSH3 0x461BCD PUSH1 0xE5 SHL DUP2 MSTORE PUSH1 0x4 ADD PUSH2 0x35E SWAP1 PUSH2 0x2793 JUMP JUMPDEST DUP1 MLOAD PUSH1 0x20 DUP3 ADD MLOAD PUSH1 0x40 DUP4 ADD MLOAD PUSH1 0x60 DUP5 ADD MLOAD PUSH1 0x80 DUP6 ADD MLOAD PUSH1 0xA0 SWAP1 SWAP6 ADD MLOAD SWAP4 SWAP13 SWAP3 SWAP12 POP SWAP1 SWAP10 POP SWAP8 POP SWAP2 SWAP6 POP SWAP4 POP SWAP2 POP POP JUMP JUMPDEST PUSH0 SLOAD PUSH1 0x1 PUSH1 0x1 PUSH1 0xA0 SHL SUB AND CALLER EQ PUSH2 0x1678 JUMPI PUSH1 0x40 MLOAD PUSH3 0x461BCD PUSH1 0xE5 SHL DUP2 MSTORE PUSH1 0x4 ADD PUSH2 0x35E SWAP1 PUSH2 0x2840 JUMP JUMPDEST PUSH0 DUP4 MLOAD GT PUSH2 0x16C8 JUMPI PUSH1 0x40 MLOAD PUSH3 0x461BCD PUSH1 0xE5 SHL DUP2 MSTORE PUSH1 0x20 PUSH1 0x4 DUP3 ADD MSTORE PUSH1 0x1E PUSH1 0x24 DUP3 ADD MSTORE PUSH32 0x43616E646964617465206E616D652063616E6E6F7420626520656D7074790000 PUSH1 0x44 DUP3 ADD MSTORE PUSH1 0x64 ADD PUSH2 0x35E JUMP JUMPDEST PUSH0 DUP3 MLOAD GT PUSH2 0x16E8 JUMPI PUSH1 0x40 MLOAD PUSH3 0x461BCD PUSH1 0xE5 SHL DUP2 MSTORE PUSH1 0x4 ADD PUSH2 0x35E SWAP1 PUSH2 0x2882 JUMP JUMPDEST PUSH0 DUP2 MLOAD GT PUSH2 0x1738 JUMPI PUSH1 0x40 MLOAD PUSH3 0x461BCD PUSH1 0xE5 SHL DUP2 MSTORE PUSH1 0x20 PUSH1 0x4 DUP3 ADD MSTORE PUSH1 0x18 PUSH1 0x24 DUP3 ADD MSTORE PUSH32 0x506F736974696F6E2063616E6E6F7420626520656D7074790000000000000000 PUSH1 0x44 DUP3 ADD MSTORE PUSH1 0x64 ADD PUSH2 0x35E JUMP JUMPDEST PUSH0 SLOAD PUSH1 0x1 PUSH1 0xA0 SHL SWAP1 DIV PUSH1 0xFF AND ISZERO PUSH2 0x17AB JUMPI PUSH1 0x40 MLOAD PUSH3 0x461BCD PUSH1 0xE5 SHL DUP2 MSTORE PUSH1 0x20 PUSH1 0x4 DUP3 ADD MSTORE PUSH1 0x31 PUSH1 0x24 DUP3 ADD MSTORE PUSH32 0x43616E6E6F742072656769737465722063616E64696461746573207768696C65 PUSH1 0x44 DUP3 ADD MSTORE PUSH17 0x1032B632B1BA34B7B71034B99037B832B7 PUSH1 0x79 SHL PUSH1 0x64 DUP3 ADD MSTORE PUSH1 0x84 ADD PUSH2 0x35E JUMP JUMPDEST PUSH1 0x2 SLOAD PUSH1 0x40 DUP1 MLOAD PUSH1 0xC0 DUP2 ADD DUP3 MSTORE DUP3 DUP2 MSTORE PUSH1 0x20 DUP1 DUP3 ADD DUP8 DUP2 MSTORE DUP3 DUP5 ADD DUP8 SWAP1 MSTORE PUSH1 0x60 DUP4 ADD DUP7 SWAP1 MSTORE PUSH0 PUSH1 0x80 DUP5 ADD DUP2 SWAP1 MSTORE PUSH1 0x1 PUSH1 0xA0 DUP6 ADD DUP2 SWAP1 MSTORE DUP7 DUP3 MSTORE PUSH1 0x5 SWAP1 SWAP4 MSTORE SWAP4 SWAP1 SWAP4 KECCAK256 DUP3 MLOAD DUP2 SSTORE SWAP3 MLOAD SWAP2 SWAP3 SWAP2 SWAP1 DUP3 ADD SWAP1 PUSH2 0x1804 SWAP1 DUP3 PUSH2 0x290F JUMP JUMPDEST POP PUSH1 0x40 DUP3 ADD MLOAD PUSH1 0x2 DUP3 ADD SWAP1 PUSH2 0x1819 SWAP1 DUP3 PUSH2 0x290F JUMP JUMPDEST POP PUSH1 0x60 DUP3 ADD MLOAD PUSH1 0x3 DUP3 ADD SWAP1 PUSH2 0x182E SWAP1 DUP3 PUSH2 0x290F JUMP JUMPDEST POP PUSH1 0x80 DUP3 ADD MLOAD PUSH1 0x4 DUP3 ADD SSTORE PUSH1 0xA0 SWAP1 SWAP2 ADD MLOAD PUSH1 0x5 SWAP1 SWAP2 ADD DUP1 SLOAD PUSH1 0xFF NOT AND SWAP2 ISZERO ISZERO SWAP2 SWAP1 SWAP2 OR SWAP1 SSTORE PUSH1 0x40 MLOAD PUSH1 0x6 SWAP1 PUSH2 0x1864 SWAP1 DUP5 SWAP1 PUSH2 0x27CA JUMP JUMPDEST SWAP1 DUP2 MSTORE PUSH1 0x40 MLOAD PUSH1 0x20 SWAP2 DUP2 SWAP1 SUB DUP3 ADD SWAP1 KECCAK256 DUP1 SLOAD PUSH1 0x1 DUP2 ADD DUP3 SSTORE PUSH0 SWAP2 DUP3 MSTORE SWAP2 DUP2 KECCAK256 SWAP1 SWAP2 ADD DUP3 SWAP1 SSTORE DUP1 JUMPDEST PUSH1 0x3 SLOAD DUP2 LT ISZERO PUSH2 0x18E3 JUMPI DUP4 DUP1 MLOAD SWAP1 PUSH1 0x20 ADD KECCAK256 PUSH1 0x3 DUP3 DUP2 SLOAD DUP2 LT PUSH2 0x18B0 JUMPI PUSH2 0x18B0 PUSH2 0x282C JUMP JUMPDEST SWAP1 PUSH0 MSTORE PUSH1 0x20 PUSH0 KECCAK256 ADD PUSH1 0x40 MLOAD PUSH2 0x18C5 SWAP2 SWAP1 PUSH2 0x29F6 JUMP JUMPDEST PUSH1 0x40 MLOAD DUP1 SWAP2 SUB SWAP1 KECCAK256 SUB PUSH2 0x18DB JUMPI PUSH1 0x1 SWAP2 POP PUSH2 0x18E3 JUMP JUMPDEST PUSH1 0x1 ADD PUSH2 0x188B JUMP JUMPDEST POP DUP1 PUSH2 0x1926 JUMPI PUSH1 0x3 DUP1 SLOAD PUSH1 0x1 DUP2 ADD DUP3 SSTORE PUSH0 SWAP2 SWAP1 SWAP2 MSTORE PUSH32 0xC2575A0E9E593C00F959F8C92F12DB2869C3395A3B0502D05E2516446F71F85B ADD PUSH2 0x1924 DUP5 DUP3 PUSH2 0x290F JUMP JUMPDEST POP JUMPDEST PUSH1 0x2 DUP1 SLOAD SWAP1 PUSH0 PUSH2 0x1935 DUP4 PUSH2 0x2A67 JUMP JUMPDEST SWAP2 SWAP1 POP SSTORE POP DUP2 PUSH32 0xB76AADACEC2D73468AB4C03B3976F369439578B697493E0B3596AE94726D8404 DUP7 DUP7 DUP7 PUSH1 0x40 MLOAD PUSH2 0x196E SWAP4 SWAP3 SWAP2 SWAP1 PUSH2 0x2A7F JUMP JUMPDEST PUSH1 0x40 MLOAD DUP1 SWAP2 SUB SWAP1 LOG2 POP POP POP POP POP JUMP JUMPDEST PUSH1 0x4 PUSH1 0x20 MSTORE PUSH0 SWAP1 DUP2 MSTORE PUSH1 0x40 SWAP1 KECCAK256 DUP1 SLOAD PUSH1 0x1 DUP3 ADD DUP1 SLOAD PUSH1 0xFF SWAP1 SWAP3 AND SWAP3 SWAP2 PUSH2 0x19A2 SWAP1 PUSH2 0x275B JUMP JUMPDEST DUP1 PUSH1 0x1F ADD PUSH1 0x20 DUP1 SWAP2 DIV MUL PUSH1 0x20 ADD PUSH1 0x40 MLOAD SWAP1 DUP2 ADD PUSH1 0x40 MSTORE DUP1 SWAP3 SWAP2 SWAP1 DUP2 DUP2 MSTORE PUSH1 0x20 ADD DUP3 DUP1 SLOAD PUSH2 0x19CE SWAP1 PUSH2 0x275B JUMP JUMPDEST DUP1 ISZERO PUSH2 0x1A19 JUMPI DUP1 PUSH1 0x1F LT PUSH2 0x19F0 JUMPI PUSH2 0x100 DUP1 DUP4 SLOAD DIV MUL DUP4 MSTORE SWAP2 PUSH1 0x20 ADD SWAP2 PUSH2 0x1A19 JUMP JUMPDEST DUP3 ADD SWAP2 SWAP1 PUSH0 MSTORE PUSH1 0x20 PUSH0 KECCAK256 SWAP1 JUMPDEST DUP2 SLOAD DUP2 MSTORE SWAP1 PUSH1 0x1 ADD SWAP1 PUSH1 0x20 ADD DUP1 DUP4 GT PUSH2 0x19FC JUMPI DUP3 SWAP1 SUB PUSH1 0x1F AND DUP3 ADD SWAP2 JUMPDEST POP POP POP POP POP SWAP1 DUP1 PUSH1 0x2 ADD DUP1 SLOAD PUSH2 0x1A2E SWAP1 PUSH2 0x275B JUMP JUMPDEST DUP1 PUSH1 0x1F ADD PUSH1 0x20 DUP1 SWAP2 DIV MUL PUSH1 0x20 ADD PUSH1 0x40 MLOAD SWAP1 DUP2 ADD PUSH1 0x40 MSTORE DUP1 SWAP3 SWAP2 SWAP1 DUP2 DUP2 MSTORE PUSH1 0x20 ADD DUP3 DUP1 SLOAD PUSH2 0x1A5A SWAP1 PUSH2 0x275B JUMP JUMPDEST DUP1 ISZERO PUSH2 0x1AA5 JUMPI DUP1 PUSH1 0x1F LT PUSH2 0x1A7C JUMPI PUSH2 0x100 DUP1 DUP4 SLOAD DIV MUL DUP4 MSTORE SWAP2 PUSH1 0x20 ADD SWAP2 PUSH2 0x1AA5 JUMP JUMPDEST DUP3 ADD SWAP2 SWAP1 PUSH0 MSTORE PUSH1 0x20 PUSH0 KECCAK256 SWAP1 JUMPDEST DUP2 SLOAD DUP2 MSTORE SWAP1 PUSH1 0x1 ADD SWAP1 PUSH1 0x20 ADD DUP1 DUP4 GT PUSH2 0x1A88 JUMPI DUP3 SWAP1 SUB PUSH1 0x1F AND DUP3 ADD SWAP2 JUMPDEST POP POP POP POP POP SWAP1 POP DUP4 JUMP JUMPDEST PUSH0 DUP1 SLOAD PUSH1 0x1 PUSH1 0xA0 SHL SWAP1 DIV PUSH1 0xFF AND ISZERO DUP1 PUSH2 0x1ACA JUMPI POP PUSH1 0x1 SLOAD TIMESTAMP LT ISZERO JUMPDEST PUSH2 0x1B12 JUMPI PUSH1 0x40 MLOAD PUSH3 0x461BCD PUSH1 0xE5 SHL DUP2 MSTORE PUSH1 0x20 PUSH1 0x4 DUP3 ADD MSTORE PUSH1 0x19 PUSH1 0x24 DUP3 ADD MSTORE PUSH25 0x456C656374696F6E206973207374696C6C206F6E676F696E67 PUSH1 0x38 SHL PUSH1 0x44 DUP3 ADD MSTORE PUSH1 0x64 ADD PUSH2 0x35E JUMP JUMPDEST PUSH0 PUSH1 0x6 DUP4 PUSH1 0x40 MLOAD PUSH2 0x1B23 SWAP2 SWAP1 PUSH2 0x27CA JUMP JUMPDEST SWAP1 DUP2 MSTORE PUSH1 0x40 DUP1 MLOAD SWAP2 DUP3 SWAP1 SUB PUSH1 0x20 SWAP1 DUP2 ADD DUP4 KECCAK256 DUP1 SLOAD DUP1 DUP4 MUL DUP6 ADD DUP4 ADD SWAP1 SWAP4 MSTORE DUP3 DUP5 MSTORE SWAP2 SWAP1 DUP4 ADD DUP3 DUP3 DUP1 ISZERO PUSH2 0x1B73 JUMPI PUSH1 0x20 MUL DUP3 ADD SWAP2 SWAP1 PUSH0 MSTORE PUSH1 0x20 PUSH0 KECCAK256 SWAP1 JUMPDEST DUP2 SLOAD DUP2 MSTORE PUSH1 0x20 ADD SWAP1 PUSH1 0x1 ADD SWAP1 DUP1 DUP4 GT PUSH2 0x1B5F JUMPI JUMPDEST POP POP POP POP POP SWAP1 POP PUSH0 DUP2 MLOAD GT PUSH2 0x1BCA JUMPI PUSH1 0x40 MLOAD PUSH3 0x461BCD PUSH1 0xE5 SHL DUP2 MSTORE PUSH1 0x20 PUSH1 0x4 DUP3 ADD MSTORE PUSH1 0x1F PUSH1 0x24 DUP3 ADD MSTORE PUSH32 0x4E6F2063616E6469646174657320666F72207468697320706F736974696F6E00 PUSH1 0x44 DUP3 ADD MSTORE PUSH1 0x64 ADD PUSH2 0x35E JUMP JUMPDEST PUSH0 DUP1 DUP1 JUMPDEST DUP4 MLOAD DUP2 LT ISZERO PUSH2 0x1E12 JUMPI PUSH0 PUSH1 0x5 PUSH0 DUP7 DUP5 DUP2 MLOAD DUP2 LT PUSH2 0x1BED JUMPI PUSH2 0x1BED PUSH2 0x282C JUMP JUMPDEST PUSH1 0x20 MUL PUSH1 0x20 ADD ADD MLOAD DUP2 MSTORE PUSH1 0x20 ADD SWAP1 DUP2 MSTORE PUSH1 0x20 ADD PUSH0 KECCAK256 PUSH1 0x40 MLOAD DUP1 PUSH1 0xC0 ADD PUSH1 0x40 MSTORE SWAP1 DUP2 PUSH0 DUP3 ADD SLOAD DUP2 MSTORE PUSH1 0x20 ADD PUSH1 0x1 DUP3 ADD DUP1 SLOAD PUSH2 0x1C26 SWAP1 PUSH2 0x275B JUMP JUMPDEST DUP1 PUSH1 0x1F ADD PUSH1 0x20 DUP1 SWAP2 DIV MUL PUSH1 0x20 ADD PUSH1 0x40 MLOAD SWAP1 DUP2 ADD PUSH1 0x40 MSTORE DUP1 SWAP3 SWAP2 SWAP1 DUP2 DUP2 MSTORE PUSH1 0x20 ADD DUP3 DUP1 SLOAD PUSH2 0x1C52 SWAP1 PUSH2 0x275B JUMP JUMPDEST DUP1 ISZERO PUSH2 0x1C9D JUMPI DUP1 PUSH1 0x1F LT PUSH2 0x1C74 JUMPI PUSH2 0x100 DUP1 DUP4 SLOAD DIV MUL DUP4 MSTORE SWAP2 PUSH1 0x20 ADD SWAP2 PUSH2 0x1C9D JUMP JUMPDEST DUP3 ADD SWAP2 SWAP1 PUSH0 MSTORE PUSH1 0x20 PUSH0 KECCAK256 SWAP1 JUMPDEST DUP2 SLOAD DUP2 MSTORE SWAP1 PUSH1 0x1 ADD SWAP1 PUSH1 0x20 ADD DUP1 DUP4 GT PUSH2 0x1C80 JUMPI DUP3 SWAP1 SUB PUSH1 0x1F AND DUP3 ADD SWAP2 JUMPDEST POP POP POP POP POP DUP2 MSTORE PUSH1 0x20 ADD PUSH1 0x2 DUP3 ADD DUP1 SLOAD PUSH2 0x1CB6 SWAP1 PUSH2 0x275B JUMP JUMPDEST DUP1 PUSH1 0x1F ADD PUSH1 0x20 DUP1 SWAP2 DIV MUL PUSH1 0x20 ADD PUSH1 0x40 MLOAD SWAP1 DUP2 ADD PUSH1 0x40 MSTORE DUP1 SWAP3 SWAP2 SWAP1 DUP2 DUP2 MSTORE PUSH1 0x20 ADD DUP3 DUP1 SLOAD PUSH2 0x1CE2 SWAP1 PUSH2 0x275B JUMP JUMPDEST DUP1 ISZERO PUSH2 0x1D2D JUMPI DUP1 PUSH1 0x1F LT PUSH2 0x1D04 JUMPI PUSH2 0x100 DUP1 DUP4 SLOAD DIV MUL DUP4 MSTORE SWAP2 PUSH1 0x20 ADD SWAP2 PUSH2 0x1D2D JUMP JUMPDEST DUP3 ADD SWAP2 SWAP1 PUSH0 MSTORE PUSH1 0x20 PUSH0 KECCAK256 SWAP1 JUMPDEST DUP2 SLOAD DUP2 MSTORE SWAP1 PUSH1 0x1 ADD SWAP1 PUSH1 0x20 ADD DUP1 DUP4 GT PUSH2 0x1D10 JUMPI DUP3 SWAP1 SUB PUSH1 0x1F AND DUP3 ADD SWAP2 JUMPDEST POP POP POP POP POP DUP2 MSTORE PUSH1 0x20 ADD PUSH1 0x3 DUP3 ADD DUP1 SLOAD PUSH2 0x1D46 SWAP1 PUSH2 0x275B JUMP JUMPDEST DUP1 PUSH1 0x1F ADD PUSH1 0x20 DUP1 SWAP2 DIV MUL PUSH1 0x20 ADD PUSH1 0x40 MLOAD SWAP1 DUP2 ADD PUSH1 0x40 MSTORE DUP1 SWAP3 SWAP2 SWAP1 DUP2 DUP2 MSTORE PUSH1 0x20 ADD DUP3 DUP1 SLOAD PUSH2 0x1D72 SWAP1 PUSH2 0x275B JUMP JUMPDEST DUP1 ISZERO PUSH2 0x1DBD JUMPI DUP1 PUSH1 0x1F LT PUSH2 0x1D94 JUMPI PUSH2 0x100 DUP1 DUP4 SLOAD DIV MUL DUP4 MSTORE SWAP2 PUSH1 0x20 ADD SWAP2 PUSH2 0x1DBD JUMP JUMPDEST DUP3 ADD SWAP2 SWAP1 PUSH0 MSTORE PUSH1 0x20 PUSH0 KECCAK256 SWAP1 JUMPDEST DUP2 SLOAD DUP2 MSTORE SWAP1 PUSH1 0x1 ADD SWAP1 PUSH1 0x20 ADD DUP1 DUP4 GT PUSH2 0x1DA0 JUMPI DUP3 SWAP1 SUB PUSH1 0x1F AND DUP3 ADD SWAP2 JUMPDEST POP POP POP SWAP2 DUP4 MSTORE POP POP PUSH1 0x4 DUP3 ADD SLOAD PUSH1 0x20 DUP3 ADD MSTORE PUSH1 0x5 SWAP1 SWAP2 ADD SLOAD PUSH1 0xFF AND ISZERO ISZERO PUSH1 0x40 SWAP1 SWAP2 ADD MSTORE PUSH1 0xA0 DUP2 ADD MLOAD SWAP1 SWAP2 POP DUP1 ISZERO PUSH2 0x1DF7 JUMPI POP DUP4 DUP2 PUSH1 0x80 ADD MLOAD GT JUMPDEST ISZERO PUSH2 0x1E09 JUMPI PUSH1 0x80 DUP2 ADD MLOAD DUP2 MLOAD SWAP1 SWAP5 POP SWAP3 POP JUMPDEST POP PUSH1 0x1 ADD PUSH2 0x1BCE JUMP JUMPDEST POP DUP1 PUSH0 SUB PUSH2 0x1E59 JUMPI PUSH1 0x40 MLOAD PUSH3 0x461BCD PUSH1 0xE5 SHL DUP2 MSTORE PUSH1 0x20 PUSH1 0x4 DUP3 ADD MSTORE PUSH1 0x14 PUSH1 0x24 DUP3 ADD MSTORE PUSH20 0x139BC81DDA5B9B995C8819195D195C9B5A5B9959 PUSH1 0x62 SHL PUSH1 0x44 DUP3 ADD MSTORE PUSH1 0x64 ADD PUSH2 0x35E JUMP JUMPDEST SWAP3 POP POP POP JUMPDEST SWAP2 SWAP1 POP JUMP JUMPDEST PUSH1 0x60 PUSH1 0x6 DUP3 PUSH1 0x40 MLOAD PUSH2 0x1E75 SWAP2 SWAP1 PUSH2 0x27CA JUMP JUMPDEST SWAP1 DUP2 MSTORE PUSH1 0x40 DUP1 MLOAD SWAP2 DUP3 SWAP1 SUB PUSH1 0x20 SWAP1 DUP2 ADD DUP4 KECCAK256 DUP1 SLOAD DUP1 DUP4 MUL DUP6 ADD DUP4 ADD SWAP1 SWAP4 MSTORE DUP3 DUP5 MSTORE SWAP2 SWAP1 DUP4 ADD DUP3 DUP3 DUP1 ISZERO PUSH2 0x1EC5 JUMPI PUSH1 0x20 MUL DUP3 ADD SWAP2 SWAP1 PUSH0 MSTORE PUSH1 0x20 PUSH0 KECCAK256 SWAP1 JUMPDEST DUP2 SLOAD DUP2 MSTORE PUSH1 0x20 ADD SWAP1 PUSH1 0x1 ADD SWAP1 DUP1 DUP4 GT PUSH2 0x1EB1 JUMPI JUMPDEST POP POP POP POP POP SWAP1 POP SWAP2 SWAP1 POP JUMP JUMPDEST PUSH0 SLOAD PUSH1 0x1 PUSH1 0x1 PUSH1 0xA0 SHL SUB AND CALLER EQ PUSH2 0x1EFA JUMPI PUSH1 0x40 MLOAD PUSH3 0x461BCD PUSH1 0xE5 SHL DUP2 MSTORE PUSH1 0x4 ADD PUSH2 0x35E SWAP1 PUSH2 0x2840 JUMP JUMPDEST PUSH0 SLOAD PUSH1 0x1 PUSH1 0xA0 SHL SWAP1 DIV PUSH1 0xFF AND PUSH2 0x1F49 JUMPI PUSH1 0x40 MLOAD PUSH3 0x461BCD PUSH1 0xE5 SHL DUP2 MSTORE PUSH1 0x20 PUSH1 0x4 DUP3 ADD MSTORE PUSH1 0x14 PUSH1 0x24 DUP3 ADD MSTORE PUSH20 0x22B632B1BA34B7B71034B9903737BA1037B832B7 PUSH1 0x61 SHL PUSH1 0x44 DUP3 ADD MSTORE PUSH1 0x64 ADD PUSH2 0x35E JUMP JUMPDEST PUSH0 DUP1 SLOAD PUSH1 0xFF PUSH1 0xA0 SHL NOT AND SWAP1 SSTORE PUSH1 0x40 MLOAD TIMESTAMP DUP2 MSTORE PUSH32 0x393C4B8E62F1195313CF17DCF00793C668DDFC35881CD8015559C074F6D61E83 SWAP1 PUSH1 0x20 ADD PUSH1 0x40 MLOAD DUP1 SWAP2 SUB SWAP1 LOG1 JUMP JUMPDEST PUSH0 SLOAD PUSH1 0x1 PUSH1 0x1 PUSH1 0xA0 SHL SUB AND CALLER EQ PUSH2 0x1FB3 JUMPI PUSH1 0x40 MLOAD PUSH3 0x461BCD PUSH1 0xE5 SHL DUP2 MSTORE PUSH1 0x4 ADD PUSH2 0x35E SWAP1 PUSH2 0x2840 JUMP JUMPDEST PUSH1 0x1 PUSH1 0x1 PUSH1 0xA0 SHL SUB DUP2 AND PUSH2 0x2009 JUMPI PUSH1 0x40 MLOAD PUSH3 0x461BCD PUSH1 0xE5 SHL DUP2 MSTORE PUSH1 0x20 PUSH1 0x4 DUP3 ADD MSTORE PUSH1 0x19 PUSH1 0x24 DUP3 ADD MSTORE PUSH32 0x496E76616C6964206E65772061646D696E206164647265737300000000000000 PUSH1 0x44 DUP3 ADD MSTORE PUSH1 0x64 ADD PUSH2 0x35E JUMP JUMPDEST PUSH0 DUP1 SLOAD PUSH1 0x1 PUSH1 0x1 PUSH1 0xA0 SHL SUB DUP4 DUP2 AND PUSH1 0x1 PUSH1 0x1 PUSH1 0xA0 SHL SUB NOT DUP4 AND DUP2 OR DUP5 SSTORE PUSH1 0x40 MLOAD SWAP2 SWAP1 SWAP3 AND SWAP3 DUP4 SWAP2 PUSH32 0xF8CCB027DFCD135E000E9D45E6CC2D662578A8825D4C45B5E32E0ADF67E79EC6 SWAP2 SWAP1 LOG3 POP POP JUMP JUMPDEST PUSH0 SLOAD PUSH1 0x1 PUSH1 0x1 PUSH1 0xA0 SHL SUB AND CALLER EQ PUSH2 0x2081 JUMPI PUSH1 0x40 MLOAD PUSH3 0x461BCD PUSH1 0xE5 SHL DUP2 MSTORE PUSH1 0x4 ADD PUSH2 0x35E SWAP1 PUSH2 0x2840 JUMP JUMPDEST PUSH0 DUP2 DUP2 MSTORE PUSH1 0x5 PUSH1 0x20 MSTORE PUSH1 0x40 DUP2 KECCAK256 SLOAD SWAP1 SUB PUSH2 0x20AD JUMPI PUSH1 0x40 MLOAD PUSH3 0x461BCD PUSH1 0xE5 SHL DUP2 MSTORE PUSH1 0x4 ADD PUSH2 0x35E SWAP1 PUSH2 0x2793 JUMP JUMPDEST PUSH0 SLOAD PUSH1 0x1 PUSH1 0xA0 SHL SWAP1 DIV PUSH1 0xFF AND ISZERO PUSH2 0x2122 JUMPI PUSH1 0x40 MLOAD PUSH3 0x461BCD PUSH1 0xE5 SHL DUP2 MSTORE PUSH1 0x20 PUSH1 0x4 DUP3 ADD MSTORE PUSH1 0x33 PUSH1 0x24 DUP3 ADD MSTORE PUSH32 0x43616E6E6F7420646561637469766174652063616E6469646174657320776869 PUSH1 0x44 DUP3 ADD MSTORE PUSH19 0x36329032B632B1BA34B7B71034B99037B832B7 PUSH1 0x69 SHL PUSH1 0x64 DUP3 ADD MSTORE PUSH1 0x84 ADD PUSH2 0x35E JUMP JUMPDEST PUSH0 DUP2 DUP2 MSTORE PUSH1 0x5 PUSH1 0x20 DUP2 SWAP1 MSTORE PUSH1 0x40 SWAP1 SWAP2 KECCAK256 ADD SLOAD PUSH1 0xFF AND PUSH2 0x2183 JUMPI PUSH1 0x40 MLOAD PUSH3 0x461BCD PUSH1 0xE5 SHL DUP2 MSTORE PUSH1 0x20 PUSH1 0x4 DUP3 ADD MSTORE PUSH1 0x1A PUSH1 0x24 DUP3 ADD MSTORE PUSH32 0x43616E64696461746520616C726561647920696E616374697665000000000000 PUSH1 0x44 DUP3 ADD MSTORE PUSH1 0x64 ADD PUSH2 0x35E JUMP JUMPDEST PUSH0 DUP2 DUP2 MSTORE PUSH1 0x5 PUSH1 0x20 DUP2 SWAP1 MSTORE PUSH1 0x40 DUP1 DUP4 KECCAK256 SWAP1 SWAP2 ADD DUP1 SLOAD PUSH1 0xFF NOT AND SWAP1 SSTORE MLOAD DUP3 SWAP2 PUSH32 0x7952E62885452AFF3395E73284CE75F709DA0AE6E9E559673D48926A75352AD SWAP2 LOG2 POP JUMP JUMPDEST PUSH0 SLOAD PUSH1 0x1 PUSH1 0x1 PUSH1 0xA0 SHL SUB AND CALLER EQ PUSH2 0x21F0 JUMPI PUSH1 0x40 MLOAD PUSH3 0x461BCD PUSH1 0xE5 SHL DUP2 MSTORE PUSH1 0x4 ADD PUSH2 0x35E SWAP1 PUSH2 0x2840 JUMP JUMPDEST PUSH0 SLOAD PUSH1 0x1 PUSH1 0xA0 SHL SWAP1 DIV PUSH1 0xFF AND ISZERO PUSH2 0x2241 JUMPI PUSH1 0x40 MLOAD PUSH3 0x461BCD PUSH1 0xE5 SHL DUP2 MSTORE PUSH1 0x20 PUSH1 0x4 DUP3 ADD MSTORE PUSH1 0x15 PUSH1 0x24 DUP3 ADD MSTORE PUSH21 0x22B632B1BA34B7B71030B63932B0B23C9037B832B7 PUSH1 0x59 SHL PUSH1 0x44 DUP3 ADD MSTORE PUSH1 0x64 ADD PUSH2 0x35E JUMP JUMPDEST PUSH0 DUP2 GT PUSH2 0x229B JUMPI PUSH1 0x40 MLOAD PUSH3 0x461BCD PUSH1 0xE5 SHL DUP2 MSTORE PUSH1 0x20 PUSH1 0x4 DUP3 ADD MSTORE PUSH1 0x22 PUSH1 0x24 DUP3 ADD MSTORE PUSH32 0x4475726174696F6E206D7573742062652067726561746572207468616E207A65 PUSH1 0x44 DUP3 ADD MSTORE PUSH2 0x726F PUSH1 0xF0 SHL PUSH1 0x64 DUP3 ADD MSTORE PUSH1 0x84 ADD PUSH2 0x35E JUMP JUMPDEST PUSH0 DUP1 SLOAD PUSH1 0xFF PUSH1 0xA0 SHL NOT AND PUSH1 0x1 PUSH1 0xA0 SHL OR SWAP1 SSTORE PUSH2 0x22B8 DUP2 PUSH1 0x3C PUSH2 0x2AB7 JUMP JUMPDEST PUSH2 0x22C2 SWAP1 TIMESTAMP PUSH2 0x27F4 JUMP JUMPDEST PUSH1 0x1 DUP2 SWAP1 SSTORE PUSH1 0x40 MLOAD SWAP1 DUP2 MSTORE PUSH32 0x589F8B93514C651C0C92B06BDB8118FE508DAADF2FFDAC1F516191BE20FCB85 SWAP1 PUSH1 0x20 ADD PUSH1 0x40 MLOAD DUP1 SWAP2 SUB SWAP1 LOG1 POP JUMP JUMPDEST PUSH0 PUSH1 0x20 DUP3 DUP5 SUB SLT ISZERO PUSH2 0x230D JUMPI PUSH0 PUSH0 REVERT JUMPDEST POP CALLDATALOAD SWAP2 SWAP1 POP JUMP JUMPDEST PUSH0 DUP2 MLOAD DUP1 DUP5 MSTORE DUP1 PUSH1 0x20 DUP5 ADD PUSH1 0x20 DUP7 ADD MCOPY PUSH0 PUSH1 0x20 DUP3 DUP7 ADD ADD MSTORE PUSH1 0x20 PUSH1 0x1F NOT PUSH1 0x1F DUP4 ADD AND DUP6 ADD ADD SWAP2 POP POP SWAP3 SWAP2 POP POP JUMP JUMPDEST PUSH0 DUP3 DUP3 MLOAD DUP1 DUP6 MSTORE PUSH1 0x20 DUP6 ADD SWAP5 POP PUSH1 0x20 DUP2 PUSH1 0x5 SHL DUP4 ADD ADD PUSH1 0x20 DUP6 ADD PUSH0 JUMPDEST DUP4 DUP2 LT ISZERO PUSH2 0x2390 JUMPI PUSH1 0x1F NOT DUP6 DUP5 SUB ADD DUP9 MSTORE PUSH2 0x237A DUP4 DUP4 MLOAD PUSH2 0x2314 JUMP JUMPDEST PUSH1 0x20 SWAP9 DUP10 ADD SWAP9 SWAP1 SWAP4 POP SWAP2 SWAP1 SWAP2 ADD SWAP1 PUSH1 0x1 ADD PUSH2 0x235E JUMP JUMPDEST POP SWAP1 SWAP7 SWAP6 POP POP POP POP POP POP JUMP JUMPDEST PUSH1 0x20 DUP2 MSTORE PUSH0 PUSH2 0x23AE PUSH1 0x20 DUP4 ADD DUP5 PUSH2 0x2342 JUMP JUMPDEST SWAP4 SWAP3 POP POP POP JUMP JUMPDEST PUSH4 0x4E487B71 PUSH1 0xE0 SHL PUSH0 MSTORE PUSH1 0x41 PUSH1 0x4 MSTORE PUSH1 0x24 PUSH0 REVERT JUMPDEST PUSH0 DUP3 PUSH1 0x1F DUP4 ADD SLT PUSH2 0x23D8 JUMPI PUSH0 PUSH0 REVERT JUMPDEST DUP2 CALLDATALOAD PUSH1 0x1 PUSH1 0x1 PUSH1 0x40 SHL SUB DUP2 GT ISZERO PUSH2 0x23F1 JUMPI PUSH2 0x23F1 PUSH2 0x23B5 JUMP JUMPDEST PUSH1 0x40 MLOAD PUSH1 0x1F DUP3 ADD PUSH1 0x1F NOT SWAP1 DUP2 AND PUSH1 0x3F ADD AND DUP2 ADD PUSH1 0x1 PUSH1 0x1 PUSH1 0x40 SHL SUB DUP2 GT DUP3 DUP3 LT OR ISZERO PUSH2 0x241F JUMPI PUSH2 0x241F PUSH2 0x23B5 JUMP JUMPDEST PUSH1 0x40 MSTORE DUP2 DUP2 MSTORE DUP4 DUP3 ADD PUSH1 0x20 ADD DUP6 LT ISZERO PUSH2 0x2436 JUMPI PUSH0 PUSH0 REVERT JUMPDEST DUP2 PUSH1 0x20 DUP6 ADD PUSH1 0x20 DUP4 ADD CALLDATACOPY PUSH0 SWAP2 DUP2 ADD PUSH1 0x20 ADD SWAP2 SWAP1 SWAP2 MSTORE SWAP4 SWAP3 POP POP POP JUMP JUMPDEST PUSH0 PUSH1 0x20 DUP3 DUP5 SUB SLT ISZERO PUSH2 0x2462 JUMPI PUSH0 PUSH0 REVERT JUMPDEST DUP2 CALLDATALOAD PUSH1 0x1 PUSH1 0x1 PUSH1 0x40 SHL SUB DUP2 GT ISZERO PUSH2 0x2477 JUMPI PUSH0 PUSH0 REVERT JUMPDEST PUSH2 0x2483 DUP5 DUP3 DUP6 ADD PUSH2 0x23C9 JUMP JUMPDEST SWAP5 SWAP4 POP POP POP POP JUMP JUMPDEST DUP5 DUP2 MSTORE PUSH1 0x80 PUSH1 0x20 DUP3 ADD MSTORE PUSH0 PUSH2 0x24A3 PUSH1 0x80 DUP4 ADD DUP7 PUSH2 0x2314 JUMP JUMPDEST DUP3 DUP2 SUB PUSH1 0x40 DUP5 ADD MSTORE PUSH2 0x24B5 DUP2 DUP7 PUSH2 0x2314 JUMP JUMPDEST SWAP2 POP POP DUP3 PUSH1 0x60 DUP4 ADD MSTORE SWAP6 SWAP5 POP POP POP POP POP JUMP JUMPDEST DUP1 CALLDATALOAD PUSH1 0x1 PUSH1 0x1 PUSH1 0xA0 SHL SUB DUP2 AND DUP2 EQ PUSH2 0x1E5E JUMPI PUSH0 PUSH0 REVERT JUMPDEST PUSH0 PUSH0 PUSH1 0x40 DUP4 DUP6 SUB SLT ISZERO PUSH2 0x24EE JUMPI PUSH0 PUSH0 REVERT JUMPDEST PUSH2 0x24F7 DUP4 PUSH2 0x24C7 JUMP JUMPDEST SWAP2 POP PUSH1 0x20 DUP4 ADD CALLDATALOAD PUSH1 0x1 PUSH1 0x1 PUSH1 0x40 SHL SUB DUP2 GT ISZERO PUSH2 0x2511 JUMPI PUSH0 PUSH0 REVERT JUMPDEST PUSH2 0x251D DUP6 DUP3 DUP7 ADD PUSH2 0x23C9 JUMP JUMPDEST SWAP2 POP POP SWAP3 POP SWAP3 SWAP1 POP JUMP JUMPDEST PUSH0 DUP2 MLOAD DUP1 DUP5 MSTORE PUSH1 0x20 DUP5 ADD SWAP4 POP PUSH1 0x20 DUP4 ADD PUSH0 JUMPDEST DUP3 DUP2 LT ISZERO PUSH2 0x2557 JUMPI DUP2 MLOAD DUP7 MSTORE PUSH1 0x20 SWAP6 DUP7 ADD SWAP6 SWAP1 SWAP2 ADD SWAP1 PUSH1 0x1 ADD PUSH2 0x2539 JUMP JUMPDEST POP SWAP4 SWAP5 SWAP4 POP POP POP POP JUMP JUMPDEST PUSH1 0x80 DUP2 MSTORE PUSH0 PUSH2 0x2573 PUSH1 0x80 DUP4 ADD DUP8 PUSH2 0x2527 JUMP JUMPDEST DUP3 DUP2 SUB PUSH1 0x20 DUP5 ADD MSTORE PUSH2 0x2585 DUP2 DUP8 PUSH2 0x2342 JUMP JUMPDEST SWAP1 POP DUP3 DUP2 SUB PUSH1 0x40 DUP5 ADD MSTORE PUSH2 0x2599 DUP2 DUP7 PUSH2 0x2527 JUMP JUMPDEST DUP4 DUP2 SUB PUSH1 0x60 DUP6 ADD MSTORE DUP5 MLOAD DUP1 DUP3 MSTORE PUSH1 0x20 DUP1 DUP8 ADD SWAP4 POP SWAP1 SWAP2 ADD SWAP1 PUSH0 JUMPDEST DUP2 DUP2 LT ISZERO PUSH2 0x25D3 JUMPI DUP4 MLOAD ISZERO ISZERO DUP4 MSTORE PUSH1 0x20 SWAP4 DUP5 ADD SWAP4 SWAP1 SWAP3 ADD SWAP2 PUSH1 0x1 ADD PUSH2 0x25B3 JUMP JUMPDEST POP SWAP1 SWAP9 SWAP8 POP POP POP POP POP POP POP POP JUMP JUMPDEST PUSH0 PUSH0 PUSH0 PUSH1 0x60 DUP5 DUP7 SUB SLT ISZERO PUSH2 0x25F3 JUMPI PUSH0 PUSH0 REVERT JUMPDEST PUSH2 0x25FC DUP5 PUSH2 0x24C7 JUMP JUMPDEST SWAP3 POP PUSH1 0x20 DUP5 ADD CALLDATALOAD PUSH1 0x1 PUSH1 0x1 PUSH1 0x40 SHL SUB DUP2 GT ISZERO PUSH2 0x2616 JUMPI PUSH0 PUSH0 REVERT JUMPDEST PUSH2 0x2622 DUP7 DUP3 DUP8 ADD PUSH2 0x23C9 JUMP JUMPDEST SWAP3 POP POP PUSH1 0x40 DUP5 ADD CALLDATALOAD PUSH1 0x1 PUSH1 0x1 PUSH1 0x40 SHL SUB DUP2 GT ISZERO PUSH2 0x263D JUMPI PUSH0 PUSH0 REVERT JUMPDEST PUSH2 0x2649 DUP7 DUP3 DUP8 ADD PUSH2 0x23C9 JUMP JUMPDEST SWAP2 POP POP SWAP3 POP SWAP3 POP SWAP3 JUMP JUMPDEST DUP7 DUP2 MSTORE PUSH1 0xC0 PUSH1 0x20 DUP3 ADD MSTORE PUSH0 PUSH2 0x266B PUSH1 0xC0 DUP4 ADD DUP9 PUSH2 0x2314 JUMP JUMPDEST DUP3 DUP2 SUB PUSH1 0x40 DUP5 ADD MSTORE PUSH2 0x267D DUP2 DUP9 PUSH2 0x2314 JUMP JUMPDEST SWAP1 POP DUP3 DUP2 SUB PUSH1 0x60 DUP5 ADD MSTORE PUSH2 0x2691 DUP2 DUP8 PUSH2 0x2314 JUMP JUMPDEST PUSH1 0x80 DUP5 ADD SWAP6 SWAP1 SWAP6 MSTORE POP POP SWAP1 ISZERO ISZERO PUSH1 0xA0 SWAP1 SWAP2 ADD MSTORE SWAP5 SWAP4 POP POP POP POP JUMP JUMPDEST PUSH0 PUSH0 PUSH0 PUSH1 0x60 DUP5 DUP7 SUB SLT ISZERO PUSH2 0x26BE JUMPI PUSH0 PUSH0 REVERT JUMPDEST DUP4 CALLDATALOAD PUSH1 0x1 PUSH1 0x1 PUSH1 0x40 SHL SUB DUP2 GT ISZERO PUSH2 0x26D3 JUMPI PUSH0 PUSH0 REVERT JUMPDEST PUSH2 0x26DF DUP7 DUP3 DUP8 ADD PUSH2 0x23C9 JUMP JUMPDEST SWAP4 POP POP PUSH1 0x20 DUP5 ADD CALLDATALOAD PUSH1 0x1 PUSH1 0x1 PUSH1 0x40 SHL SUB DUP2 GT ISZERO PUSH2 0x2616 JUMPI PUSH0 PUSH0 REVERT JUMPDEST PUSH0 PUSH1 0x20 DUP3 DUP5 SUB SLT ISZERO PUSH2 0x270A JUMPI PUSH0 PUSH0 REVERT JUMPDEST PUSH2 0x23AE DUP3 PUSH2 0x24C7 JUMP JUMPDEST DUP4 ISZERO ISZERO DUP2 MSTORE PUSH1 0x60 PUSH1 0x20 DUP3 ADD MSTORE PUSH0 PUSH2 0x272D PUSH1 0x60 DUP4 ADD DUP6 PUSH2 0x2314 JUMP JUMPDEST DUP3 DUP2 SUB PUSH1 0x40 DUP5 ADD MSTORE PUSH2 0x273F DUP2 DUP6 PUSH2 0x2314 JUMP JUMPDEST SWAP7 SWAP6 POP POP POP POP POP POP JUMP JUMPDEST PUSH1 0x20 DUP2 MSTORE PUSH0 PUSH2 0x23AE PUSH1 0x20 DUP4 ADD DUP5 PUSH2 0x2527 JUMP JUMPDEST PUSH1 0x1 DUP2 DUP2 SHR SWAP1 DUP3 AND DUP1 PUSH2 0x276F JUMPI PUSH1 0x7F DUP3 AND SWAP2 POP JUMPDEST PUSH1 0x20 DUP3 LT DUP2 SUB PUSH2 0x278D JUMPI PUSH4 0x4E487B71 PUSH1 0xE0 SHL PUSH0 MSTORE PUSH1 0x22 PUSH1 0x4 MSTORE PUSH1 0x24 PUSH0 REVERT JUMPDEST POP SWAP2 SWAP1 POP JUMP JUMPDEST PUSH1 0x20 DUP1 DUP3 MSTORE PUSH1 0x18 SWAP1 DUP3 ADD MSTORE PUSH32 0x43616E64696461746520646F6573206E6F742065786973740000000000000000 PUSH1 0x40 DUP3 ADD MSTORE PUSH1 0x60 ADD SWAP1 JUMP JUMPDEST PUSH0 DUP3 MLOAD DUP1 PUSH1 0x20 DUP6 ADD DUP5 MCOPY PUSH0 SWAP3 ADD SWAP2 DUP3 MSTORE POP SWAP2 SWAP1 POP JUMP JUMPDEST PUSH4 0x4E487B71 PUSH1 0xE0 SHL PUSH0 MSTORE PUSH1 0x11 PUSH1 0x4 MSTORE PUSH1 0x24 PUSH0 REVERT JUMPDEST DUP1 DUP3 ADD DUP1 DUP3 GT ISZERO PUSH2 0xB72 JUMPI PUSH2 0xB72 PUSH2 0x27E0 JUMP JUMPDEST PUSH1 0x20 DUP2 MSTORE PUSH0 PUSH2 0x23AE PUSH1 0x20 DUP4 ADD DUP5 PUSH2 0x2314 JUMP JUMPDEST DUP2 DUP2 SUB DUP2 DUP2 GT ISZERO PUSH2 0xB72 JUMPI PUSH2 0xB72 PUSH2 0x27E0 JUMP JUMPDEST PUSH4 0x4E487B71 PUSH1 0xE0 SHL PUSH0 MSTORE PUSH1 0x32 PUSH1 0x4 MSTORE PUSH1 0x24 PUSH0 REVERT JUMPDEST PUSH1 0x20 DUP1 DUP3 MSTORE PUSH1 0x22 SWAP1 DUP3 ADD MSTORE PUSH32 0x4F6E6C792061646D696E2063616E20706572666F726D20746869732061637469 PUSH1 0x40 DUP3 ADD MSTORE PUSH2 0x37B7 PUSH1 0xF1 SHL PUSH1 0x60 DUP3 ADD MSTORE PUSH1 0x80 ADD SWAP1 JUMP JUMPDEST PUSH1 0x20 DUP1 DUP3 MSTORE PUSH1 0x21 SWAP1 DUP3 ADD MSTORE PUSH32 0x4D656D62657273686970206E756D6265722063616E6E6F7420626520656D7074 PUSH1 0x40 DUP3 ADD MSTORE PUSH1 0x79 PUSH1 0xF8 SHL PUSH1 0x60 DUP3 ADD MSTORE PUSH1 0x80 ADD SWAP1 JUMP JUMPDEST PUSH1 0x1F DUP3 GT ISZERO PUSH2 0x290A JUMPI DUP1 PUSH0 MSTORE PUSH1 0x20 PUSH0 KECCAK256 PUSH1 0x1F DUP5 ADD PUSH1 0x5 SHR DUP2 ADD PUSH1 0x20 DUP6 LT ISZERO PUSH2 0x28E8 JUMPI POP DUP1 JUMPDEST PUSH1 0x1F DUP5 ADD PUSH1 0x5 SHR DUP3 ADD SWAP2 POP JUMPDEST DUP2 DUP2 LT ISZERO PUSH2 0x2907 JUMPI PUSH0 DUP2 SSTORE PUSH1 0x1 ADD PUSH2 0x28F4 JUMP JUMPDEST POP POP JUMPDEST POP POP POP JUMP JUMPDEST DUP2 MLOAD PUSH1 0x1 PUSH1 0x1 PUSH1 0x40 SHL SUB DUP2 GT ISZERO PUSH2 0x2928 JUMPI PUSH2 0x2928 PUSH2 0x23B5 JUMP JUMPDEST PUSH2 0x293C DUP2 PUSH2 0x2936 DUP5 SLOAD PUSH2 0x275B JUMP JUMPDEST DUP5 PUSH2 0x28C3 JUMP JUMPDEST PUSH1 0x20 PUSH1 0x1F DUP3 GT PUSH1 0x1 DUP2 EQ PUSH2 0x296E JUMPI PUSH0 DUP4 ISZERO PUSH2 0x2957 JUMPI POP DUP5 DUP3 ADD MLOAD JUMPDEST PUSH0 NOT PUSH1 0x3 DUP6 SWAP1 SHL SHR NOT AND PUSH1 0x1 DUP5 SWAP1 SHL OR DUP5 SSTORE PUSH2 0x2907 JUMP JUMPDEST PUSH0 DUP5 DUP2 MSTORE PUSH1 0x20 DUP2 KECCAK256 PUSH1 0x1F NOT DUP6 AND SWAP2 JUMPDEST DUP3 DUP2 LT ISZERO PUSH2 0x299D JUMPI DUP8 DUP6 ADD MLOAD DUP3 SSTORE PUSH1 0x20 SWAP5 DUP6 ADD SWAP5 PUSH1 0x1 SWAP1 SWAP3 ADD SWAP2 ADD PUSH2 0x297D JUMP JUMPDEST POP DUP5 DUP3 LT ISZERO PUSH2 0x29BA JUMPI DUP7 DUP5 ADD MLOAD PUSH0 NOT PUSH1 0x3 DUP8 SWAP1 SHL PUSH1 0xF8 AND SHR NOT AND DUP2 SSTORE JUMPDEST POP POP POP POP PUSH1 0x1 SWAP1 DUP2 SHL ADD SWAP1 SSTORE POP JUMP JUMPDEST PUSH1 0x40 DUP2 MSTORE PUSH0 PUSH2 0x29DB PUSH1 0x40 DUP4 ADD DUP6 PUSH2 0x2314 JUMP JUMPDEST DUP3 DUP2 SUB PUSH1 0x20 DUP5 ADD MSTORE PUSH2 0x29ED DUP2 DUP6 PUSH2 0x2314 JUMP JUMPDEST SWAP6 SWAP5 POP POP POP POP POP JUMP JUMPDEST PUSH0 PUSH0 DUP4 SLOAD PUSH2 0x2A03 DUP2 PUSH2 0x275B JUMP JUMPDEST PUSH1 0x1 DUP3 AND DUP1 ISZERO PUSH2 0x2A1A JUMPI PUSH1 0x1 DUP2 EQ PUSH2 0x2A2F JUMPI PUSH2 0x2A5C JUMP JUMPDEST PUSH1 0xFF NOT DUP4 AND DUP7 MSTORE DUP2 ISZERO ISZERO DUP3 MUL DUP7 ADD SWAP4 POP PUSH2 0x2A5C JUMP JUMPDEST DUP7 PUSH0 MSTORE PUSH1 0x20 PUSH0 KECCAK256 PUSH0 JUMPDEST DUP4 DUP2 LT ISZERO PUSH2 0x2A54 JUMPI DUP2 SLOAD DUP9 DUP3 ADD MSTORE PUSH1 0x1 SWAP1 SWAP2 ADD SWAP1 PUSH1 0x20 ADD PUSH2 0x2A38 JUMP JUMPDEST POP POP DUP2 DUP7 ADD SWAP4 POP JUMPDEST POP SWAP2 SWAP6 SWAP5 POP POP POP POP POP JUMP JUMPDEST PUSH0 PUSH1 0x1 DUP3 ADD PUSH2 0x2A78 JUMPI PUSH2 0x2A78 PUSH2 0x27E0 JUMP JUMPDEST POP PUSH1 0x1 ADD SWAP1 JUMP JUMPDEST PUSH1 0x60 DUP2 MSTORE PUSH0 PUSH2 0x2A91 PUSH1 0x60 DUP4 ADD DUP7 PUSH2 0x2314 JUMP JUMPDEST DUP3 DUP2 SUB PUSH1 0x20 DUP5 ADD MSTORE PUSH2 0x2AA3 DUP2 DUP7 PUSH2 0x2314 JUMP JUMPDEST SWAP1 POP DUP3 DUP2 SUB PUSH1 0x40 DUP5 ADD MSTORE PUSH2 0x273F DUP2 DUP6 PUSH2 0x2314 JUMP JUMPDEST DUP1 DUP3 MUL DUP2 ISZERO DUP3 DUP3 DIV DUP5 EQ OR PUSH2 0xB72 JUMPI PUSH2 0xB72 PUSH2 0x27E0 JUMP INVALID LOG2 PUSH5 0x6970667358 0x22 SLT KECCAK256 DUP12 PUSH27 0xEC4E19FEDE756E5CF4D9310A7E369A9B04B3E12E0AD9E962D6FF80 MULMOD GASLIMIT LOG0 PUSH5 0x736F6C6343 STOP ADDMOD 0x1F STOP CALLER "
				},
				"gasEstimates": {
					"creation": {
						"codeDepositCost": "2202400",
						"executionCost": "48691",
						"totalCost": "2251091"
					},
					"external": {
						"admin()": "2445",
						"candidates(uint256)": "infinite",
						"closeElection()": "29722",
						"deactivateCandidate(uint256)": "34397",
						"delegates(address)": "infinite",
						"electionOpen()": "2370",
						"getAllPositions()": "infinite",
						"getCandidate(uint256)": "infinite",
						"getCandidatesByPosition(string)": "infinite",
						"getPositionResults(string)": "infinite",
						"hasDelegateVotedForPosition(address,string)": "infinite",
						"openElection(uint256)": "infinite",
						"registerCandidate(string,string,string)": "infinite",
						"registerDelegate(address,string,string)": "infinite",
						"timeLeft()": "6723",
						"transferAdmin(address)": "28320",
						"vote(uint256)": "infinite",
						"votingDeadline()": "2329",
						"winnerDetails(string)": "infinite",
						"winningCandidate(string)": "infinite"
					}
				},
				"methodIdentifiers": {
					"admin()": "f851a440",
					"candidates(uint256)": "3477ee2e",
					"closeElection()": "6c6c32d0",
					"deactivateCandidate(uint256)": "97341d59",
					"delegates(address)": "587cde1e",
					"electionOpen()": "4a39d442",
					"getAllPositions()": "18f56a0a",
					"getCandidate(uint256)": "35b8e820",
					"getCandidatesByPosition(string)": "61806886",
					"getPositionResults(string)": "27e4a5cc",
					"hasDelegateVotedForPosition(address,string)": "1a7f453d",
					"openElection(uint256)": "9a1d5956",
					"registerCandidate(string,string,string)": "35c3c876",
					"registerDelegate(address,string,string)": "2da03d3c",
					"timeLeft()": "1300a6d1",
					"transferAdmin(address)": "75829def",
					"vote(uint256)": "0121b93f",
					"votingDeadline()": "036ee850",
					"winnerDetails(string)": "1912bc11",
					"winningCandidate(string)": "5df6140c"
				}
			},
			"storageLayout": {
				"storage": [
					{
						"astId": 4,
						"contract": ".git/MyContracts/SACCODirectorElection.sol:SACCODirectorElection",
						"label": "admin",
						"offset": 0,
						"slot": "0",
						"type": "t_address"
					},
					{
						"astId": 6,
						"contract": ".git/MyContracts/SACCODirectorElection.sol:SACCODirectorElection",
						"label": "electionOpen",
						"offset": 20,
						"slot": "0",
						"type": "t_bool"
					},
					{
						"astId": 8,
						"contract": ".git/MyContracts/SACCODirectorElection.sol:SACCODirectorElection",
						"label": "votingDeadline",
						"offset": 0,
						"slot": "1",
						"type": "t_uint256"
					},
					{
						"astId": 11,
						"contract": ".git/MyContracts/SACCODirectorElection.sol:SACCODirectorElection",
						"label": "nextCandidateId",
						"offset": 0,
						"slot": "2",
						"type": "t_uint256"
					},
					{
						"astId": 14,
						"contract": ".git/MyContracts/SACCODirectorElection.sol:SACCODirectorElection",
						"label": "positionList",
						"offset": 0,
						"slot": "3",
						"type": "t_array(t_string_storage)dyn_storage"
					},
					{
						"astId": 39,
						"contract": ".git/MyContracts/SACCODirectorElection.sol:SACCODirectorElection",
						"label": "delegates",
						"offset": 0,
						"slot": "4",
						"type": "t_mapping(t_address,t_struct(Delegate)21_storage)"
					},
					{
						"astId": 44,
						"contract": ".git/MyContracts/SACCODirectorElection.sol:SACCODirectorElection",
						"label": "candidates",
						"offset": 0,
						"slot": "5",
						"type": "t_mapping(t_uint256,t_struct(Candidate)34_storage)"
					},
					{
						"astId": 49,
						"contract": ".git/MyContracts/SACCODirectorElection.sol:SACCODirectorElection",
						"label": "candidatesByPosition",
						"offset": 0,
						"slot": "6",
						"type": "t_mapping(t_string_memory_ptr,t_array(t_uint256)dyn_storage)"
					},
					{
						"astId": 55,
						"contract": ".git/MyContracts/SACCODirectorElection.sol:SACCODirectorElection",
						"label": "hasVotedForPosition",
						"offset": 0,
						"slot": "7",
						"type": "t_mapping(t_address,t_mapping(t_string_memory_ptr,t_bool))"
					}
				],
				"types": {
					"t_address": {
						"encoding": "inplace",
						"label": "address",
						"numberOfBytes": "20"
					},
					"t_array(t_string_storage)dyn_storage": {
						"base": "t_string_storage",
						"encoding": "dynamic_array",
						"label": "string[]",
						"numberOfBytes": "32"
					},
					"t_array(t_uint256)dyn_storage": {
						"base": "t_uint256",
						"encoding": "dynamic_array",
						"label": "uint256[]",
						"numberOfBytes": "32"
					},
					"t_bool": {
						"encoding": "inplace",
						"label": "bool",
						"numberOfBytes": "1"
					},
					"t_mapping(t_address,t_mapping(t_string_memory_ptr,t_bool))": {
						"encoding": "mapping",
						"key": "t_address",
						"label": "mapping(address => mapping(string => bool))",
						"numberOfBytes": "32",
						"value": "t_mapping(t_string_memory_ptr,t_bool)"
					},
					"t_mapping(t_address,t_struct(Delegate)21_storage)": {
						"encoding": "mapping",
						"key": "t_address",
						"label": "mapping(address => struct SACCODirectorElection.Delegate)",
						"numberOfBytes": "32",
						"value": "t_struct(Delegate)21_storage"
					},
					"t_mapping(t_string_memory_ptr,t_array(t_uint256)dyn_storage)": {
						"encoding": "mapping",
						"key": "t_string_memory_ptr",
						"label": "mapping(string => uint256[])",
						"numberOfBytes": "32",
						"value": "t_array(t_uint256)dyn_storage"
					},
					"t_mapping(t_string_memory_ptr,t_bool)": {
						"encoding": "mapping",
						"key": "t_string_memory_ptr",
						"label": "mapping(string => bool)",
						"numberOfBytes": "32",
						"value": "t_bool"
					},
					"t_mapping(t_uint256,t_struct(Candidate)34_storage)": {
						"encoding": "mapping",
						"key": "t_uint256",
						"label": "mapping(uint256 => struct SACCODirectorElection.Candidate)",
						"numberOfBytes": "32",
						"value": "t_struct(Candidate)34_storage"
					},
					"t_string_memory_ptr": {
						"encoding": "bytes",
						"label": "string",
						"numberOfBytes": "32"
					},
					"t_string_storage": {
						"encoding": "bytes",
						"label": "string",
						"numberOfBytes": "32"
					},
					"t_struct(Candidate)34_storage": {
						"encoding": "inplace",
						"label": "struct SACCODirectorElection.Candidate",
						"members": [
							{
								"astId": 23,
								"contract": ".git/MyContracts/SACCODirectorElection.sol:SACCODirectorElection",
								"label": "id",
								"offset": 0,
								"slot": "0",
								"type": "t_uint256"
							},
							{
								"astId": 25,
								"contract": ".git/MyContracts/SACCODirectorElection.sol:SACCODirectorElection",
								"label": "name",
								"offset": 0,
								"slot": "1",
								"type": "t_string_storage"
							},
							{
								"astId": 27,
								"contract": ".git/MyContracts/SACCODirectorElection.sol:SACCODirectorElection",
								"label": "membershipNumber",
								"offset": 0,
								"slot": "2",
								"type": "t_string_storage"
							},
							{
								"astId": 29,
								"contract": ".git/MyContracts/SACCODirectorElection.sol:SACCODirectorElection",
								"label": "position",
								"offset": 0,
								"slot": "3",
								"type": "t_string_storage"
							},
							{
								"astId": 31,
								"contract": ".git/MyContracts/SACCODirectorElection.sol:SACCODirectorElection",
								"label": "voteCount",
								"offset": 0,
								"slot": "4",
								"type": "t_uint256"
							},
							{
								"astId": 33,
								"contract": ".git/MyContracts/SACCODirectorElection.sol:SACCODirectorElection",
								"label": "isActive",
								"offset": 0,
								"slot": "5",
								"type": "t_bool"
							}
						],
						"numberOfBytes": "192"
					},
					"t_struct(Delegate)21_storage": {
						"encoding": "inplace",
						"label": "struct SACCODirectorElection.Delegate",
						"members": [
							{
								"astId": 16,
								"contract": ".git/MyContracts/SACCODirectorElection.sol:SACCODirectorElection",
								"label": "isRegistered",
								"offset": 0,
								"slot": "0",
								"type": "t_bool"
							},
							{
								"astId": 18,
								"contract": ".git/MyContracts/SACCODirectorElection.sol:SACCODirectorElection",
								"label": "name",
								"offset": 0,
								"slot": "1",
								"type": "t_string_storage"
							},
							{
								"astId": 20,
								"contract": ".git/MyContracts/SACCODirectorElection.sol:SACCODirectorElection",
								"label": "membershipNumber",
								"offset": 0,
								"slot": "2",
								"type": "t_string_storage"
							}
						],
						"numberOfBytes": "96"
					},
					"t_uint256": {
						"encoding": "inplace",
						"label": "uint256",
						"numberOfBytes": "32"
					}
				}
			},
			"userdoc": {
				"kind": "user",
				"methods": {},
				"version": 1
			}
		}
	}
}