{
	"data": {
		"bytecode": {
			"linkReferences": {},
			"object": "60806040525f80546001600160a01b031916331790556139c5806100225f395ff3fe608060405260043610610254575f3560e01c8063808e52cf1161013f578063bd097e21116100b3578063d3584e8411610078578063d3584e84146107cd578063dfbf53ae146107ec578063e3c608ef1461080e578063ed2cee9e14610839578063f851a44014610858578063fa1380b814610876575f5ffd5b8063bd097e2114610770578063c63735b314610778578063c87da02d14610791578063d0112863146107a5578063d116c8c4146107b9575f5ffd5b8063905249a311610104578063905249a3146106b857806390c7825a146106d75780639134e02b14610704578063a4a0014414610723578063b6cf8a3514610738578063b6f3d2561461075b575f5ffd5b8063808e52cf146105845780638899b7cc146105a75780638c257ef8146105db5780638c3d7301146105fa5780638d07ae9f1461060e575f5ffd5b80634c5aed38116101d6578063592fd0281161019b578063592fd0281461047557806362ea82db146104895780636cb55d1a146105085780636f9fb98a1461053457806375829def146105465780637bd2a5da14610565575f5ffd5b80634c5aed38146103f05780634cc4f50d1461040f5780634e5cbf611461042357806353321ae6146104425780635459b48e14610461575f5ffd5b806326bd89261161021c57806326bd89261461030e5780632e9e8e591461032f578063356e7ccb1461035257806336dc1a881461039057806343902707146103af575f5ffd5b80630bd58917146102585780630bf3676714610279578063200d2ed21461028d5780632163b8c5146102b857806326782247146102d7575b5f5ffd5b348015610263575f5ffd5b5061027761027236600461305e565b610895565b005b348015610284575f5ffd5b506102776109bf565b348015610298575f5ffd5b506102a1610aab565b6040516102af9291906130d7565b60405180910390f35b3480156102c3575f5ffd5b506102776102d236600461319b565b610ace565b3480156102e2575f5ffd5b506001546102f6906001600160a01b031681565b6040516001600160a01b0390911681526020016102af565b348015610319575f5ffd5b50610322610c74565b6040516102af91906131de565b34801561033a575f5ffd5b5061034460105481565b6040519081526020016102af565b34801561035d575f5ffd5b5061038061036c366004613212565b600a6020525f908152604090205460ff1681565b60405190151581526020016102af565b34801561039b575f5ffd5b506102776103aa36600461322b565b610d00565b3480156103ba575f5ffd5b506103c3610eef565b604080519687526020870195909552938501929092526060840152608083015260a082015260c0016102af565b3480156103fb575f5ffd5b5061027761040a36600461325f565b610f3f565b34801561041a575f5ffd5b50610344606481565b34801561042e575f5ffd5b5061027761043d366004613212565b611068565b34801561044d575f5ffd5b5061027761045c36600461305e565b6111c0565b34801561046c575f5ffd5b50610322611376565b348015610480575f5ffd5b50610277611394565b348015610494575f5ffd5b506104d76104a3366004613212565b600c6020525f90815260409020805460018201546002830154600390930154919260ff808316936101009093048116921685565b6040516102af9594939291909485529215156020850152901515604084015260608301521515608082015260a00190565b348015610513575f5ffd5b5061051c611588565b6040516102af9c9b9a99989796959493929190613290565b34801561053f575f5ffd5b5047610344565b348015610551575f5ffd5b50610277610560366004613212565b61183b565b348015610570575f5ffd5b5061027761057f36600461305e565b61190a565b34801561058f575f5ffd5b50610598611a2c565b6040516102af93929190613328565b3480156105b2575f5ffd5b506105c66105c136600461335a565b611ae9565b604080519283526020830191909152016102af565b3480156105e6575f5ffd5b506105c66105f536600461335a565b611ba4565b348015610605575f5ffd5b50610277611bfc565b348015610619575f5ffd5b50610694610628366004613212565b6001600160a01b03165f908152600c6020908152604091829020825160a08101845281548152600182015460ff80821615159483018590526101009091048116151594820185905260028301546060830181905260039093015416151560809091018190529193909190565b604080519415158552921515602085015291830152151560608201526080016102af565b3480156106c3575f5ffd5b506102776106d23660046133ef565b611c80565b3480156106e2575f5ffd5b506106f66106f1366004613212565b611e2a565b6040516102af9291906134e7565b34801561070f575f5ffd5b5061032261071e366004613212565b611ee8565b34801561072e575f5ffd5b5061034460115481565b348015610743575f5ffd5b5061074c611f00565b6040516102af9392919061355b565b348015610766575f5ffd5b50610344600f5481565b61027761212b565b348015610783575f5ffd5b506013546103809060ff1681565b34801561079c575f5ffd5b50600d54610344565b3480156107b0575f5ffd5b50610277612191565b3480156107c4575f5ffd5b506102776122a0565b3480156107d8575f5ffd5b506102f66107e736600461305e565b6124e1565b3480156107f7575f5ffd5b50610800612509565b6040516102af9291906135f7565b348015610819575f5ffd5b506108226125bd565b6040516102af9b9a9998979695949392919061361a565b348015610844575f5ffd5b506002546102f6906001600160a01b031681565b348015610863575f5ffd5b505f546102f6906001600160a01b031681565b348015610881575f5ffd5b5061034461089036600461319b565b6128f0565b6002546001600160a01b03166108be5760405163d6ea366360e01b815260040160405180910390fd5b6002546001600160a01b031633146108e957604051639864fbb360e01b815260040160405180910390fd5b60095460ff1661090c576040516355e9e64160e11b815260040160405180910390fd5b600480600254600160a01b900460ff16600781111561092d5761092d613075565b1461094b57604051630187fa8360e61b815260040160405180910390fd5b816109695760405163a60d7f3960e01b815260040160405180910390fd5b60118290556002805460ff60a01b1916600360a11b17905560408051338152602081018490527fef94af06cfa9a76c638dd1a1cfb86b07f938febf05374e3675aeced1f805205e91015b60405180910390a15050565b5f546001600160a01b031633146109e957604051634755657960e01b815260040160405180910390fd5b60095460ff16610a0c576040516355e9e64160e11b815260040160405180910390fd5b600654421015610a2f57604051633efbccb160e01b815260040160405180910390fd5b5f80600254600160a01b900460ff166007811115610a4f57610a4f613075565b14610a6d57604051630187fa8360e61b815260040160405180910390fd5b6002805460ff60a01b1916600160a01b1790556040517f2fd2f8fcbb75b0a142d3952ad3f5e92dd16aab6c8bbbd304bdb97066b33c062c905f90a150565b6002545f90606090600160a01b900460ff16610ac681612951565b915091509091565b60095460ff16610af1576040516355e9e64160e11b815260040160405180910390fd5b335f908152600a602052604090205460ff16610b20576040516302f9ce3760e51b815260040160405180910390fd5b600180600254600160a01b900460ff166007811115610b4157610b41613075565b14610b5f57604051630187fa8360e61b815260040160405180910390fd5b335f908152600c60205260409020600181015460ff16610b92576040516351f3783160e11b815260040160405180910390fd5b6001810154610100900460ff1615610bbd57604051638509cf4f60e01b815260040160405180910390fd5b5f8484604051602001610bd19291906136eb565b604051602081830303815290604052805190602001209050815f01548114610c0c5760405163f0f96d3560e01b815260040160405180910390fd5b6001828101805461ff0019166101001790556002830186905560038301805460ff1916909117905560408051338152602081018790527f9891bd98143d5a2c5f29be9a7ef8e5d7b723746fb3b75220234af7aa6caeecfe910160405180910390a15050505050565b60128054610c81906136fc565b80601f0160208091040260200160405190810160405280929190818152602001828054610cad906136fc565b8015610cf85780601f10610ccf57610100808354040283529160200191610cf8565b820191905f5260205f20905b815481529060010190602001808311610cdb57829003601f168201915b505050505081565b5f546001600160a01b03163314610d2a57604051634755657960e01b815260040160405180910390fd5b60095460ff16610d4d576040516355e9e64160e11b815260040160405180910390fd5b5f80600254600160a01b900460ff166007811115610d6d57610d6d613075565b14610d8b57604051630187fa8360e61b815260040160405180910390fd5b6001600160a01b038316610db25760405163e6c4247b60e01b815260040160405180910390fd5b6001600160a01b0383165f908152600a602052604090205460ff1615610deb57604051636a7c46f760e11b815260040160405180910390fd5b81515f03610e0c57604051633e61080d60e01b815260040160405180910390fd5b600d54606411610e2f57604051635b7d9a0d60e01b815260040160405180910390fd5b6001600160a01b0383165f908152600a60209081526040808320805460ff19166001179055600b9091529020610e658382613780565b50600d80546001810182555f919091527fd7b6990105719101dabeb77144f2a3385c8033acd3af97e9423a695e81ad1eb50180546001600160a01b0319166001600160a01b0385161790556040517f164b6120673b4b59137ef128c1c6d39e2de27d8baa1ddeda0db16ea4e15e97f690610ee290859085906135f7565b60405180910390a1505050565b6009545f908190819081908190819060ff16610f1e576040516355e9e64160e11b815260040160405180910390fd5b600654610f2a90612b5b565b6006549b949a50929850909650945092509050565b6002546001600160a01b0316610f685760405163d6ea366360e01b815260040160405180910390fd5b6002546001600160a01b03163314610f9357604051639864fbb360e01b815260040160405180910390fd5b60095460ff16610fb6576040516355e9e64160e11b815260040160405180910390fd5b600480600254600160a01b900460ff166007811115610fd757610fd7613075565b14610ff557604051630187fa8360e61b815260040160405180910390fd5b81515f036110165760405163bc7fd33160e01b815260040160405180910390fd5b60126110228382613780565b506002805460ff60a01b1916600560a01b1790556040517f52fca0fcdda16f4a5f819b60bb9c2f99458433351b90e6fcb3e221fe03b10280906109b390339085906135f7565b5f546001600160a01b0316331461109257604051634755657960e01b815260040160405180910390fd5b60095460ff166110b5576040516355e9e64160e11b815260040160405180910390fd5b6001600160a01b0381166110dc5760405163e6c4247b60e01b815260040160405180910390fd5b6006600254600160a01b900460ff1660078111156110fc576110fc613075565b148061112557506005600254600160a01b900460ff16600781111561112357611123613075565b145b8061114d57506007600254600160a01b900460ff16600781111561114b5761114b613075565b145b1561116b57604051632a28912d60e11b815260040160405180910390fd5b600280546001600160a01b0319166001600160a01b0383169081179091556040519081527fc7b11d63d071f03c4b488a3a44ee58c8a449f16b0ee289dd25af95c15c9f8e3a906020015b60405180910390a150565b60095460ff166111e3576040516355e9e64160e11b815260040160405180910390fd5b335f908152600a602052604090205460ff16611212576040516302f9ce3760e51b815260040160405180910390fd5b60065442106112345760405163764b8e3360e11b815260040160405180910390fd5b5f80600254600160a01b900460ff16600781111561125457611254613075565b1461127257604051630187fa8360e61b815260040160405180910390fd5b335f908152600c602052604090206001015460ff16156112a5576040516318f3c2ef60e11b815260040160405180910390fd5b816112c357604051631fda924160e31b815260040160405180910390fd5b6040805160a081018252838152600160208083018281525f848601818152606086018281526080870183815233808552600c8752938990209751885593519587018054925161ffff1990931696151561ff00191696909617610100921515929092029190911790945592516002850155516003909301805460ff19169315159390931790925591519182527f88c5a0d081e0c7a69b5817581ffa85b19d71703bc581bb5c09fa253c527a055e91016109b3565b60025460609061138f90600160a01b900460ff16612951565b905090565b5f546001600160a01b031633146113be57604051634755657960e01b815260040160405180910390fd5b60095460ff166113e1576040516355e9e64160e11b815260040160405180910390fd5b600180600254600160a01b900460ff16600781111561140257611402613075565b1461142057604051630187fa8360e61b815260040160405180910390fd5b600d545f905f1990825b818110156114ea575f600d82815481106114465761144661383a565b5f9182526020808320909101546001600160a01b0316808352600c8252604092839020835160a08101855281548152600182015460ff808216151595830195909552610100900484161515948101949094526002810154606085015260030154909116158015608084018190529193506114c1575080604001515b80156114d05750848160600151105b156114e057806060015194508195505b505060010161142a565b506001600160a01b038316611512576040516313b9371b60e11b815260040160405180910390fd5b600e80546001600160a01b0319166001600160a01b038516908117909155600f8390556002805460ff60a01b1916600160a11b179055604080519182526020820184905280517f44a8e45b0547725a1b190fe91fba127f673b8cec941ceaf8b3e2e67d61055dfe9281900390910190a150505050565b60608060605f5f5f5f5f5f5f60605f6115a46003800154612b5b565b809850819950829a50839b50849c50505050505060035f016003600101600360020160038001548b8b8b8b8b600360040154600360050160036006015f9054906101000a900460ff168b80546115f9906136fc565b80601f0160208091040260200160405190810160405280929190818152602001828054611625906136fc565b80156116705780601f1061164757610100808354040283529160200191611670565b820191905f5260205f20905b81548152906001019060200180831161165357829003601f168201915b50505050509b508a8054611683906136fc565b80601f01602080910402602001604051908101604052809291908181526020018280546116af906136fc565b80156116fa5780601f106116d1576101008083540402835291602001916116fa565b820191905f5260205f20905b8154815290600101906020018083116116dd57829003601f168201915b50505050509a5089805461170d906136fc565b80601f0160208091040260200160405190810160405280929190818152602001828054611739906136fc565b80156117845780601f1061175b57610100808354040283529160200191611784565b820191905f5260205f20905b81548152906001019060200180831161176757829003601f168201915b50505050509950818054611797906136fc565b80601f01602080910402602001604051908101604052809291908181526020018280546117c3906136fc565b801561180e5780601f106117e55761010080835404028352916020019161180e565b820191905f5260205f20905b8154815290600101906020018083116117f157829003601f168201915b505050505091509b509b509b509b509b509b509b509b509b509b509b509b50909192939495969798999a9b565b5f546001600160a01b0316331461186557604051634755657960e01b815260040160405180910390fd5b6001600160a01b03811661188c5760405163e6c4247b60e01b815260040160405180910390fd5b5f546001600160a01b03908116908216036118ba57604051632263673f60e21b815260040160405180910390fd5b600180546001600160a01b0319166001600160a01b038381169182179092555f8054604051929316917fb4d7bcb4d9a5d6ef6e827e3b1554e5a2578ad9ca843903d42b05d08bfa3458949190a350565b60095460ff1661192d576040516355e9e64160e11b815260040160405180910390fd5b600380600254600160a01b900460ff16600781111561194e5761194e613075565b1461196c57604051630187fa8360e61b815260040160405180910390fd5b600e546001600160a01b031633146119975760405163760576b960e01b815260040160405180910390fd5b6002546001600160a01b03166119c05760405163d6ea366360e01b815260040160405180910390fd5b816119de57604051633d4aad4d60e21b815260040160405180910390fd5b60108290556002805460ff60a01b1916600160a21b17905560408051338152602081018490527fae1f4649889be6b26bcf006a04c674019d1ebafaa07f234652d80cb084e77c5791016109b3565b600f54600e546001600160a01b03165f818152600b60205260408120805491938493606093919290918190611a60906136fc565b80601f0160208091040260200160405190810160405280929190818152602001828054611a8c906136fc565b8015611ad75780601f10611aae57610100808354040283529160200191611ad7565b820191905f5260205f20905b815481529060010190602001808311611aba57829003601f168201915b50505050509050925092509250909192565b600e545f9081906001600160a01b03163314611b185760405163760576b960e01b815260040160405180910390fd5b89515f03611b3957604051630a13219960e21b815260040160405180910390fd5b88515f03611b5a576040516319b507db60e11b815260040160405180910390fd5b611b68888888888888612ca3565b9150898983604051602001611b7f9392919061384e565b6040516020818303038152906040528051906020012090509850989650505050505050565b6002545f9081906001600160a01b0316611bd15760405163d6ea366360e01b815260040160405180910390fd5b6002546001600160a01b03163314611b1857604051639864fbb360e01b815260040160405180910390fd5b6001546001600160a01b03163314611c275760405163058d9a1b60e01b815260040160405180910390fd5b5f8054600180546001600160a01b038082166001600160a01b031980861682178755909216909255604051919092169283917ff8ccb027dfcd135e000e9d45e6cc2d662578a8825d4c45b5e32e0adf67e79ec69190a350565b5f546001600160a01b03163314611caa57604051634755657960e01b815260040160405180910390fd5b60095460ff1615611cce5760405163a669250b60e01b815260040160405180910390fd5b815f03611cee57604051631906e03360e31b815260040160405180910390fd5b5f611cfd898989898989612ca3565b9050428111611d1f57604051630642ce7760e01b815260040160405180910390fd5b6040805160e0810182528d8152602081018d90529081018b9052606081018290526080810184905260a08101839052600160c0820152600380611d628f82613780565b5060208201516001820190611d779082613780565b5060408201516002820190611d8c9082613780565b50606082015160038201556080820151600482015560a08201516005820190611db59082613780565b5060c091909101516006909101805460ff19169115159190911790556002805460ff60a01b191690556040517f1b8026edb59eb0a93ac326ac7a523b0055a7bd12f595a560e2e75e798f1d20f190611e14908e908e9085908890613870565b60405180910390a1505050505050505050505050565b6001600160a01b0381165f908152600a6020908152604080832054600b9092528220805460609260ff1691908190611e61906136fc565b80601f0160208091040260200160405190810160405280929190818152602001828054611e8d906136fc565b8015611ed85780601f10611eaf57610100808354040283529160200191611ed8565b820191905f5260205f20905b815481529060010190602001808311611ebb57829003601f168201915b5050505050905091509150915091565b600b6020525f908152604090208054610c81906136fc565b600d5460609081908190806001600160401b03811115611f2257611f226130fe565b604051908082528060200260200182016040528015611f4b578160200160208202803683370190505b509350806001600160401b03811115611f6657611f666130fe565b604051908082528060200260200182016040528015611f8f578160200160208202803683370190505b509250806001600160401b03811115611faa57611faa6130fe565b604051908082528060200260200182016040528015611fdd57816020015b6060815260200190600190039081611fc85790505b5091505f5b81811015612124575f600d8281548110611ffe57611ffe61383a565b905f5260205f20015f9054906101000a90046001600160a01b031690508186838151811061202e5761202e61383a565b6020026020010181815250508085838151811061204d5761204d61383a565b6001600160a01b039283166020918202929092018101919091529082165f908152600b909152604090208054612082906136fc565b80601f01602080910402602001604051908101604052809291908181526020018280546120ae906136fc565b80156120f95780601f106120d0576101008083540402835291602001916120f9565b820191905f5260205f20905b8154815290600101906020018083116120dc57829003601f168201915b50505050508483815181106121105761211061383a565b602090810291909101015250600101611fe2565b5050909192565b5f546001600160a01b0316331461215557604051634755657960e01b815260040160405180910390fd5b6040805134815247602082015233917f3b31cbadfd3fd939750f09d3bdbd6c0531dde23f05d55dcc202798f39d090895910160405180910390a2565b5f546001600160a01b031633146121bb57604051634755657960e01b815260040160405180910390fd5b60095460ff166121de576040516355e9e64160e11b815260040160405180910390fd5b600280600254600160a01b900460ff1660078111156121ff576121ff613075565b1461221d57604051630187fa8360e61b815260040160405180910390fd5b600e546001600160a01b03166122465760405163368f2b9760e21b815260040160405180910390fd5b6002805460ff60a01b1916600360a01b179055600e54600f54604080516001600160a01b03909316835260208301919091527fb973b46a8f1e88b970a622bf0cf618b80895efa9af0b01edd9b2608fb8a6914e91016111b5565b5f546001600160a01b031633146122ca57604051634755657960e01b815260040160405180910390fd5b60095460ff166122ed576040516355e9e64160e11b815260040160405180910390fd5b600680600254600160a01b900460ff16600781111561230e5761230e613075565b1461232c57604051630187fa8360e61b815260040160405180910390fd5b601354610100900460ff16156123555760405163c5f2be5160e01b815260040160405180910390fd5b6013805461ff001981166101001790915560ff16156123875760405163017cbd4560e61b815260040160405180910390fd5b600e546001600160a01b03166123b05760405163d5881ca960e01b815260040160405180910390fd5b600f545f036123d257604051630c12fe7d60e01b815260040160405180910390fd5b600f544710156123f55760405163786e0a9960e01b815260040160405180910390fd5b6013805460ff191660011790556002805460ff60a01b1916600760a01b179055600e54600f546040515f926001600160a01b031691908381818185875af1925050503d805f8114612461576040519150601f19603f3d011682016040523d82523d5f602084013e612466565b606091505b505090508061248857604051632ee66eed60e01b815260040160405180910390fd5b600e54600f54604080516001600160a01b03909316835260208301919091527fdf20fd1e76bc69d672e4814fafb2c449bba3a5369d8359adf9e05e6fde87b056910160405180910390a150506013805461ff0019169055565b600d81815481106124f0575f80fd5b5f918252602090912001546001600160a01b0316905081565b600e546001600160a01b03165f818152600b60205260408120805491926060929091908190612537906136fc565b80601f0160208091040260200160405190810160405280929190818152602001828054612563906136fc565b80156125ae5780601f10612585576101008083540402835291602001916125ae565b820191905f5260205f20905b81548152906001019060200180831161259157829003601f168201915b50505050509050915091509091565b600654600754600254606092839283925f9283928592849284928492849284926003926004926005929091600890600160a01b900460ff166125fe81612951565b600e546001600160a01b03165f818152600b60205260409020600f548a548b90612627906136fc565b80601f0160208091040260200160405190810160405280929190818152602001828054612653906136fc565b801561269e5780601f106126755761010080835404028352916020019161269e565b820191905f5260205f20905b81548152906001019060200180831161268157829003601f168201915b50505050509a508980546126b1906136fc565b80601f01602080910402602001604051908101604052809291908181526020018280546126dd906136fc565b80156127285780601f106126ff57610100808354040283529160200191612728565b820191905f5260205f20905b81548152906001019060200180831161270b57829003601f168201915b5050505050995088805461273b906136fc565b80601f0160208091040260200160405190810160405280929190818152602001828054612767906136fc565b80156127b25780601f10612789576101008083540402835291602001916127b2565b820191905f5260205f20905b81548152906001019060200180831161279557829003601f168201915b505050505098508580546127c5906136fc565b80601f01602080910402602001604051908101604052809291908181526020018280546127f1906136fc565b801561283c5780601f106128135761010080835404028352916020019161283c565b820191905f5260205f20905b81548152906001019060200180831161281f57829003601f168201915b5050505050955081805461284f906136fc565b80601f016020809104026020016040519081016040528092919081815260200182805461287b906136fc565b80156128c65780601f1061289d576101008083540402835291602001916128c6565b820191905f5260205f20905b8154815290600101906020018083116128a957829003601f168201915b505050505091509a509a509a509a509a509a509a509a509a509a509a50909192939495969798999a565b335f908152600a602052604081205460ff1661291f576040516302f9ce3760e51b815260040160405180910390fd5b82826040516020016129329291906136eb565b6040516020818303038152906040528051906020012090505b92915050565b60605f82600781111561296657612966613075565b0361298e57505060408051808201909152600781526610dc99585d195960ca1b602082015290565b60018260078111156129a2576129a2613075565b036129cd57505060408051808201909152600a8152692932bb32b0b627b832b760b11b602082015290565b60028260078111156129e1576129e1613075565b03612a0b575050604080518082019091526009815268115d985b1d585d195960ba1b602082015290565b6003826007811115612a1f57612a1f613075565b03612a47575050604080518082019091526007815266105dd85c99195960ca1b602082015290565b6004826007811115612a5b57612a5b613075565b03612a8557505060408051808201909152600981526811195b1a5d995c995960ba1b602082015290565b6005826007811115612a9957612a99613075565b03612ac257505060408051808201909152600881526714995a9958dd195960c21b602082015290565b6006826007811115612ad657612ad6613075565b03612aff5750506040805180820190915260088152671058d8d95c1d195960c21b602082015290565b6007826007811115612b1357612b13613075565b03612b3857505060408051808201909152600481526314185a5960e21b602082015290565b50506040805180820190915260078152662ab735b737bbb760c91b602082015290565b6107b25f8080808080805b612b6f88612e13565b612b7d576301e13380612b83565b6301e285005b63ffffffff16915088612b9683856138bc565b11612bb957612ba582846138bc565b925087612bb1816138cf565b985050612b66565b600196505b612bc88888612e6f565b612bd590620151806138e7565b905088612be282856138bc565b11612c0557612bf181846138bc565b925086612bfd816138cf565b975050612bbe565b62015180612c13848b6138fe565b612c1d9190613925565b612c289060016138bc565b9550612c356001876138fe565b612c4290620151806138e7565b612c4c90846138bc565b9250610e10612c5b848b6138fe565b612c659190613925565b9450612c7385610e106138e7565b612c7d90846138bc565b9250603c612c8b848b6138fe565b612c959190613925565b935050505091939590929450565b5f6107b2871080612cb5575061083487115b15612cd3576040516387870bd760e01b815260040160405180910390fd5b6001861080612ce25750600c86115b15612d005760405163735a134b60e11b815260040160405180910390fd5b60188410612d21576040516341a4a6b360e01b815260040160405180910390fd5b603c8310612d4257604051632ce35c9b60e21b815260040160405180910390fd5b600b19821280612d525750600e82135b15612d70576040516301d2b08960e11b815260040160405180910390fd5b5f612d7b8888612e6f565b90506001861080612d8b57508086115b15612da957604051630b046f8960e21b815260040160405180910390fd5b612db788888888885f612ed3565b91505f831315612dde57612dcd83610e106138e7565b612dd790836138fe565b9150612e08565b5f831215612e0857612def83613938565b612dfb90610e106138e7565b612e0590836138bc565b91505b509695505050505050565b5f612e1f600483613952565b61ffff1615612e2f57505f919050565b612e3a606483613952565b61ffff1615612e4b57506001919050565b612e5761019083613952565b61ffff1615612e6757505f919050565b506001919050565b5f81600203612e9957612e8183612e13565b612e8c57601c612e8f565b601d5b60ff16905061294b565b8160041480612ea85750816006145b80612eb35750816009145b80612ebe575081600b145b15612ecb5750601e61294b565b50601f61294b565b5f6107b25b878161ffff161015612f2057612eed81612e13565b15612f0757612f006301e28500836138bc565b9150612f18565b612f156301e13380836138bc565b91505b600101612ed8565b6040805161018081018252601f808252601c6020830152918101829052601e606082018190526080820183905260a0820181905260c0820183905260e0820183905261010082018190526101208201839052610140820152610160810191909152612f8a89612e13565b15612f9757601d60208201525b600191505b878261ffff161015612ff45780612fb4600184613975565b61ffff16600c8110612fc857612fc861383a565b6020020151612fdd9060ff16620151806138e7565b612fe790846138bc565b9250816001019150612f9c565b612fff6001886138fe565b61300c90620151806138e7565b61301690846138bc565b925061302486610e106138e7565b61302e90846138bc565b925061303b85603c6138e7565b61304590846138bc565b925061305184846138bc565b9998505050505050505050565b5f6020828403121561306e575f5ffd5b5035919050565b634e487b7160e01b5f52602160045260245ffd5b600881106130a557634e487b7160e01b5f52602160045260245ffd5b9052565b5f81518084528060208401602086015e5f602082860101526020601f19601f83011685010191505092915050565b6130e18184613089565b604060208201525f6130f660408301846130a9565b949350505050565b634e487b7160e01b5f52604160045260245ffd5b5f82601f830112613121575f5ffd5b81356001600160401b0381111561313a5761313a6130fe565b604051601f8201601f19908116603f011681016001600160401b0381118282101715613168576131686130fe565b60405281815283820160200185101561317f575f5ffd5b816020850160208301375f918101602001919091529392505050565b5f5f604083850312156131ac575f5ffd5b8235915060208301356001600160401b038111156131c8575f5ffd5b6131d485828601613112565b9150509250929050565b602081525f6131f060208301846130a9565b9392505050565b80356001600160a01b038116811461320d575f5ffd5b919050565b5f60208284031215613222575f5ffd5b6131f0826131f7565b5f5f6040838503121561323c575f5ffd5b613245836131f7565b915060208301356001600160401b038111156131c8575f5ffd5b5f6020828403121561326f575f5ffd5b81356001600160401b03811115613284575f5ffd5b6130f684828501613112565b61018081525f6132a461018083018f6130a9565b82810360208401526132b6818f6130a9565b905082810360408401526132ca818e6130a9565b90508b60608401528a60808401528960a08401528860c08401528760e0840152866101008401528561012084015282810361014084015261330b81866130a9565b9150508215156101608301529d9c50505050505050505050505050565b8381526001600160a01b03831660208201526060604082018190525f90613351908301846130a9565b95945050505050565b5f5f5f5f5f5f5f5f610100898b031215613372575f5ffd5b88356001600160401b03811115613387575f5ffd5b6133938b828c01613112565b98505060208901356001600160401b038111156133ae575f5ffd5b6133ba8b828c01613112565b989b989a505050506040870135966060810135966080820135965060a0820135955060c0820135945060e09091013592509050565b5f5f5f5f5f5f5f5f5f5f5f6101608c8e03121561340a575f5ffd5b8b356001600160401b0381111561341f575f5ffd5b61342b8e828f01613112565b9b505060208c01356001600160401b03811115613446575f5ffd5b6134528e828f01613112565b9a505060408c01356001600160401b0381111561346d575f5ffd5b6134798e828f01613112565b99505060608c0135975060808c0135965060a08c0135955060c08c0135945060e08c013593506101008c013592506101208c013591506101408c01356001600160401b038111156134c8575f5ffd5b6134d48e828f01613112565b9150509295989b509295989b9093969950565b8215158152604060208201525f6130f660408301846130a9565b5f82825180855260208501945060208160051b830101602085015f5b8381101561354f57601f198584030188526135398383516130a9565b602098890198909350919091019060010161351d565b50909695505050505050565b606080825284519082018190525f9060208601906080840190835b81811015613594578351835260209384019390920191600101613576565b5050838103602080860191909152865180835291810192508601905f5b818110156135d85782516001600160a01b03168452602093840193909201916001016135b1565b50505082810360408401526135ed8185613501565b9695505050505050565b6001600160a01b03831681526040602082018190525f906130f6908301846130a9565b61016081525f61362e61016083018e6130a9565b8281036020840152613640818e6130a9565b90508281036040840152613654818d6130a9565b90508a606084015289608084015282810360a0840152613674818a6130a9565b905061368360c0840189613089565b82810360e084015261369581886130a9565b6001600160a01b03871661010085015283810361012085015290506136ba81866130a9565b915050826101408301529c9b505050505050505050505050565b5f81518060208401855e5f93019283525090919050565b8281525f6130f660208301846136d4565b600181811c9082168061371057607f821691505b60208210810361372e57634e487b7160e01b5f52602260045260245ffd5b50919050565b601f82111561377b57805f5260205f20601f840160051c810160208510156137595750805b601f840160051c820191505b81811015613778575f8155600101613765565b50505b505050565b81516001600160401b03811115613799576137996130fe565b6137ad816137a784546136fc565b84613734565b6020601f8211600181146137df575f83156137c85750848201515b5f19600385901b1c1916600184901b178455613778565b5f84815260208120601f198516915b8281101561380e57878501518255602094850194600190920191016137ee565b508482101561382b57868401515f19600387901b60f8161c191681555b50505050600190811b01905550565b634e487b7160e01b5f52603260045260245ffd5b5f61386261385c83876136d4565b856136d4565b928352505060200192915050565b608081525f61388260808301876130a9565b828103602084015261389481876130a9565b604084019590955250506060015292915050565b634e487b7160e01b5f52601160045260245ffd5b8082018082111561294b5761294b6138a8565b5f600182016138e0576138e06138a8565b5060010190565b808202811582820484141761294b5761294b6138a8565b8181038181111561294b5761294b6138a8565b634e487b7160e01b5f52601260045260245ffd5b5f8261393357613933613911565b500490565b5f600160ff1b820161394c5761394c6138a8565b505f0390565b5f61ffff83168061396557613965613911565b8061ffff84160691505092915050565b61ffff828116828216039081111561294b5761294b6138a856fea2646970667358221220e1c2bedb54743d2ef97aa0643b1ba9032f98845adacff0c0a071b94eb3e5f26e64736f6c634300081f0033",
			"opcodes": "PUSH1 0x80 PUSH1 0x40 MSTORE PUSH0 DUP1 SLOAD PUSH1 0x1 PUSH1 0x1 PUSH1 0xA0 SHL SUB NOT AND CALLER OR SWAP1 SSTORE PUSH2 0x39C5 DUP1 PUSH2 0x22 PUSH0 CODECOPY PUSH0 RETURN INVALID PUSH1 0x80 PUSH1 0x40 MSTORE PUSH1 0x4 CALLDATASIZE LT PUSH2 0x254 JUMPI PUSH0 CALLDATALOAD PUSH1 0xE0 SHR DUP1 PUSH4 0x808E52CF GT PUSH2 0x13F JUMPI DUP1 PUSH4 0xBD097E21 GT PUSH2 0xB3 JUMPI DUP1 PUSH4 0xD3584E84 GT PUSH2 0x78 JUMPI DUP1 PUSH4 0xD3584E84 EQ PUSH2 0x7CD JUMPI DUP1 PUSH4 0xDFBF53AE EQ PUSH2 0x7EC JUMPI DUP1 PUSH4 0xE3C608EF EQ PUSH2 0x80E JUMPI DUP1 PUSH4 0xED2CEE9E EQ PUSH2 0x839 JUMPI DUP1 PUSH4 0xF851A440 EQ PUSH2 0x858 JUMPI DUP1 PUSH4 0xFA1380B8 EQ PUSH2 0x876 JUMPI PUSH0 PUSH0 REVERT JUMPDEST DUP1 PUSH4 0xBD097E21 EQ PUSH2 0x770 JUMPI DUP1 PUSH4 0xC63735B3 EQ PUSH2 0x778 JUMPI DUP1 PUSH4 0xC87DA02D EQ PUSH2 0x791 JUMPI DUP1 PUSH4 0xD0112863 EQ PUSH2 0x7A5 JUMPI DUP1 PUSH4 0xD116C8C4 EQ PUSH2 0x7B9 JUMPI PUSH0 PUSH0 REVERT JUMPDEST DUP1 PUSH4 0x905249A3 GT PUSH2 0x104 JUMPI DUP1 PUSH4 0x905249A3 EQ PUSH2 0x6B8 JUMPI DUP1 PUSH4 0x90C7825A EQ PUSH2 0x6D7 JUMPI DUP1 PUSH4 0x9134E02B EQ PUSH2 0x704 JUMPI DUP1 PUSH4 0xA4A00144 EQ PUSH2 0x723 JUMPI DUP1 PUSH4 0xB6CF8A35 EQ PUSH2 0x738 JUMPI DUP1 PUSH4 0xB6F3D256 EQ PUSH2 0x75B JUMPI PUSH0 PUSH0 REVERT JUMPDEST DUP1 PUSH4 0x808E52CF EQ PUSH2 0x584 JUMPI DUP1 PUSH4 0x8899B7CC EQ PUSH2 0x5A7 JUMPI DUP1 PUSH4 0x8C257EF8 EQ PUSH2 0x5DB JUMPI DUP1 PUSH4 0x8C3D7301 EQ PUSH2 0x5FA JUMPI DUP1 PUSH4 0x8D07AE9F EQ PUSH2 0x60E JUMPI PUSH0 PUSH0 REVERT JUMPDEST DUP1 PUSH4 0x4C5AED38 GT PUSH2 0x1D6 JUMPI DUP1 PUSH4 0x592FD028 GT PUSH2 0x19B JUMPI DUP1 PUSH4 0x592FD028 EQ PUSH2 0x475 JUMPI DUP1 PUSH4 0x62EA82DB EQ PUSH2 0x489 JUMPI DUP1 PUSH4 0x6CB55D1A EQ PUSH2 0x508 JUMPI DUP1 PUSH4 0x6F9FB98A EQ PUSH2 0x534 JUMPI DUP1 PUSH4 0x75829DEF EQ PUSH2 0x546 JUMPI DUP1 PUSH4 0x7BD2A5DA EQ PUSH2 0x565 JUMPI PUSH0 PUSH0 REVERT JUMPDEST DUP1 PUSH4 0x4C5AED38 EQ PUSH2 0x3F0 JUMPI DUP1 PUSH4 0x4CC4F50D EQ PUSH2 0x40F JUMPI DUP1 PUSH4 0x4E5CBF61 EQ PUSH2 0x423 JUMPI DUP1 PUSH4 0x53321AE6 EQ PUSH2 0x442 JUMPI DUP1 PUSH4 0x5459B48E EQ PUSH2 0x461 JUMPI PUSH0 PUSH0 REVERT JUMPDEST DUP1 PUSH4 0x26BD8926 GT PUSH2 0x21C JUMPI DUP1 PUSH4 0x26BD8926 EQ PUSH2 0x30E JUMPI DUP1 PUSH4 0x2E9E8E59 EQ PUSH2 0x32F JUMPI DUP1 PUSH4 0x356E7CCB EQ PUSH2 0x352 JUMPI DUP1 PUSH4 0x36DC1A88 EQ PUSH2 0x390 JUMPI DUP1 PUSH4 0x43902707 EQ PUSH2 0x3AF JUMPI PUSH0 PUSH0 REVERT JUMPDEST DUP1 PUSH4 0xBD58917 EQ PUSH2 0x258 JUMPI DUP1 PUSH4 0xBF36767 EQ PUSH2 0x279 JUMPI DUP1 PUSH4 0x200D2ED2 EQ PUSH2 0x28D JUMPI DUP1 PUSH4 0x2163B8C5 EQ PUSH2 0x2B8 JUMPI DUP1 PUSH4 0x26782247 EQ PUSH2 0x2D7 JUMPI JUMPDEST PUSH0 PUSH0 REVERT JUMPDEST CALLVALUE DUP1 ISZERO PUSH2 0x263 JUMPI PUSH0 PUSH0 REVERT JUMPDEST POP PUSH2 0x277 PUSH2 0x272 CALLDATASIZE PUSH1 0x4 PUSH2 0x305E JUMP JUMPDEST PUSH2 0x895 JUMP JUMPDEST STOP JUMPDEST CALLVALUE DUP1 ISZERO PUSH2 0x284 JUMPI PUSH0 PUSH0 REVERT JUMPDEST POP PUSH2 0x277 PUSH2 0x9BF JUMP JUMPDEST CALLVALUE DUP1 ISZERO PUSH2 0x298 JUMPI PUSH0 PUSH0 REVERT JUMPDEST POP PUSH2 0x2A1 PUSH2 0xAAB JUMP JUMPDEST PUSH1 0x40 MLOAD PUSH2 0x2AF SWAP3 SWAP2 SWAP1 PUSH2 0x30D7 JUMP JUMPDEST PUSH1 0x40 MLOAD DUP1 SWAP2 SUB SWAP1 RETURN JUMPDEST CALLVALUE DUP1 ISZERO PUSH2 0x2C3 JUMPI PUSH0 PUSH0 REVERT JUMPDEST POP PUSH2 0x277 PUSH2 0x2D2 CALLDATASIZE PUSH1 0x4 PUSH2 0x319B JUMP JUMPDEST PUSH2 0xACE JUMP JUMPDEST CALLVALUE DUP1 ISZERO PUSH2 0x2E2 JUMPI PUSH0 PUSH0 REVERT JUMPDEST POP PUSH1 0x1 SLOAD PUSH2 0x2F6 SWAP1 PUSH1 0x1 PUSH1 0x1 PUSH1 0xA0 SHL SUB AND DUP2 JUMP JUMPDEST PUSH1 0x40 MLOAD PUSH1 0x1 PUSH1 0x1 PUSH1 0xA0 SHL SUB SWAP1 SWAP2 AND DUP2 MSTORE PUSH1 0x20 ADD PUSH2 0x2AF JUMP JUMPDEST CALLVALUE DUP1 ISZERO PUSH2 0x319 JUMPI PUSH0 PUSH0 REVERT JUMPDEST POP PUSH2 0x322 PUSH2 0xC74 JUMP JUMPDEST PUSH1 0x40 MLOAD PUSH2 0x2AF SWAP2 SWAP1 PUSH2 0x31DE JUMP JUMPDEST CALLVALUE DUP1 ISZERO PUSH2 0x33A JUMPI PUSH0 PUSH0 REVERT JUMPDEST POP PUSH2 0x344 PUSH1 0x10 SLOAD DUP2 JUMP JUMPDEST PUSH1 0x40 MLOAD SWAP1 DUP2 MSTORE PUSH1 0x20 ADD PUSH2 0x2AF JUMP JUMPDEST CALLVALUE DUP1 ISZERO PUSH2 0x35D JUMPI PUSH0 PUSH0 REVERT JUMPDEST POP PUSH2 0x380 PUSH2 0x36C CALLDATASIZE PUSH1 0x4 PUSH2 0x3212 JUMP JUMPDEST PUSH1 0xA PUSH1 0x20 MSTORE PUSH0 SWAP1 DUP2 MSTORE PUSH1 0x40 SWAP1 KECCAK256 SLOAD PUSH1 0xFF AND DUP2 JUMP JUMPDEST PUSH1 0x40 MLOAD SWAP1 ISZERO ISZERO DUP2 MSTORE PUSH1 0x20 ADD PUSH2 0x2AF JUMP JUMPDEST CALLVALUE DUP1 ISZERO PUSH2 0x39B JUMPI PUSH0 PUSH0 REVERT JUMPDEST POP PUSH2 0x277 PUSH2 0x3AA CALLDATASIZE PUSH1 0x4 PUSH2 0x322B JUMP JUMPDEST PUSH2 0xD00 JUMP JUMPDEST CALLVALUE DUP1 ISZERO PUSH2 0x3BA JUMPI PUSH0 PUSH0 REVERT JUMPDEST POP PUSH2 0x3C3 PUSH2 0xEEF JUMP JUMPDEST PUSH1 0x40 DUP1 MLOAD SWAP7 DUP8 MSTORE PUSH1 0x20 DUP8 ADD SWAP6 SWAP1 SWAP6 MSTORE SWAP4 DUP6 ADD SWAP3 SWAP1 SWAP3 MSTORE PUSH1 0x60 DUP5 ADD MSTORE PUSH1 0x80 DUP4 ADD MSTORE PUSH1 0xA0 DUP3 ADD MSTORE PUSH1 0xC0 ADD PUSH2 0x2AF JUMP JUMPDEST CALLVALUE DUP1 ISZERO PUSH2 0x3FB JUMPI PUSH0 PUSH0 REVERT JUMPDEST POP PUSH2 0x277 PUSH2 0x40A CALLDATASIZE PUSH1 0x4 PUSH2 0x325F JUMP JUMPDEST PUSH2 0xF3F JUMP JUMPDEST CALLVALUE DUP1 ISZERO PUSH2 0x41A JUMPI PUSH0 PUSH0 REVERT JUMPDEST POP PUSH2 0x344 PUSH1 0x64 DUP2 JUMP JUMPDEST CALLVALUE DUP1 ISZERO PUSH2 0x42E JUMPI PUSH0 PUSH0 REVERT JUMPDEST POP PUSH2 0x277 PUSH2 0x43D CALLDATASIZE PUSH1 0x4 PUSH2 0x3212 JUMP JUMPDEST PUSH2 0x1068 JUMP JUMPDEST CALLVALUE DUP1 ISZERO PUSH2 0x44D JUMPI PUSH0 PUSH0 REVERT JUMPDEST POP PUSH2 0x277 PUSH2 0x45C CALLDATASIZE PUSH1 0x4 PUSH2 0x305E JUMP JUMPDEST PUSH2 0x11C0 JUMP JUMPDEST CALLVALUE DUP1 ISZERO PUSH2 0x46C JUMPI PUSH0 PUSH0 REVERT JUMPDEST POP PUSH2 0x322 PUSH2 0x1376 JUMP JUMPDEST CALLVALUE DUP1 ISZERO PUSH2 0x480 JUMPI PUSH0 PUSH0 REVERT JUMPDEST POP PUSH2 0x277 PUSH2 0x1394 JUMP JUMPDEST CALLVALUE DUP1 ISZERO PUSH2 0x494 JUMPI PUSH0 PUSH0 REVERT JUMPDEST POP PUSH2 0x4D7 PUSH2 0x4A3 CALLDATASIZE PUSH1 0x4 PUSH2 0x3212 JUMP JUMPDEST PUSH1 0xC PUSH1 0x20 MSTORE PUSH0 SWAP1 DUP2 MSTORE PUSH1 0x40 SWAP1 KECCAK256 DUP1 SLOAD PUSH1 0x1 DUP3 ADD SLOAD PUSH1 0x2 DUP4 ADD SLOAD PUSH1 0x3 SWAP1 SWAP4 ADD SLOAD SWAP2 SWAP3 PUSH1 0xFF DUP1 DUP4 AND SWAP4 PUSH2 0x100 SWAP1 SWAP4 DIV DUP2 AND SWAP3 AND DUP6 JUMP JUMPDEST PUSH1 0x40 MLOAD PUSH2 0x2AF SWAP6 SWAP5 SWAP4 SWAP3 SWAP2 SWAP1 SWAP5 DUP6 MSTORE SWAP3 ISZERO ISZERO PUSH1 0x20 DUP6 ADD MSTORE SWAP1 ISZERO ISZERO PUSH1 0x40 DUP5 ADD MSTORE PUSH1 0x60 DUP4 ADD MSTORE ISZERO ISZERO PUSH1 0x80 DUP3 ADD MSTORE PUSH1 0xA0 ADD SWAP1 JUMP JUMPDEST CALLVALUE DUP1 ISZERO PUSH2 0x513 JUMPI PUSH0 PUSH0 REVERT JUMPDEST POP PUSH2 0x51C PUSH2 0x1588 JUMP JUMPDEST PUSH1 0x40 MLOAD PUSH2 0x2AF SWAP13 SWAP12 SWAP11 SWAP10 SWAP9 SWAP8 SWAP7 SWAP6 SWAP5 SWAP4 SWAP3 SWAP2 SWAP1 PUSH2 0x3290 JUMP JUMPDEST CALLVALUE DUP1 ISZERO PUSH2 0x53F JUMPI PUSH0 PUSH0 REVERT JUMPDEST POP SELFBALANCE PUSH2 0x344 JUMP JUMPDEST CALLVALUE DUP1 ISZERO PUSH2 0x551 JUMPI PUSH0 PUSH0 REVERT JUMPDEST POP PUSH2 0x277 PUSH2 0x560 CALLDATASIZE PUSH1 0x4 PUSH2 0x3212 JUMP JUMPDEST PUSH2 0x183B JUMP JUMPDEST CALLVALUE DUP1 ISZERO PUSH2 0x570 JUMPI PUSH0 PUSH0 REVERT JUMPDEST POP PUSH2 0x277 PUSH2 0x57F CALLDATASIZE PUSH1 0x4 PUSH2 0x305E JUMP JUMPDEST PUSH2 0x190A JUMP JUMPDEST CALLVALUE DUP1 ISZERO PUSH2 0x58F JUMPI PUSH0 PUSH0 REVERT JUMPDEST POP PUSH2 0x598 PUSH2 0x1A2C JUMP JUMPDEST PUSH1 0x40 MLOAD PUSH2 0x2AF SWAP4 SWAP3 SWAP2 SWAP1 PUSH2 0x3328 JUMP JUMPDEST CALLVALUE DUP1 ISZERO PUSH2 0x5B2 JUMPI PUSH0 PUSH0 REVERT JUMPDEST POP PUSH2 0x5C6 PUSH2 0x5C1 CALLDATASIZE PUSH1 0x4 PUSH2 0x335A JUMP JUMPDEST PUSH2 0x1AE9 JUMP JUMPDEST PUSH1 0x40 DUP1 MLOAD SWAP3 DUP4 MSTORE PUSH1 0x20 DUP4 ADD SWAP2 SWAP1 SWAP2 MSTORE ADD PUSH2 0x2AF JUMP JUMPDEST CALLVALUE DUP1 ISZERO PUSH2 0x5E6 JUMPI PUSH0 PUSH0 REVERT JUMPDEST POP PUSH2 0x5C6 PUSH2 0x5F5 CALLDATASIZE PUSH1 0x4 PUSH2 0x335A JUMP JUMPDEST PUSH2 0x1BA4 JUMP JUMPDEST CALLVALUE DUP1 ISZERO PUSH2 0x605 JUMPI PUSH0 PUSH0 REVERT JUMPDEST POP PUSH2 0x277 PUSH2 0x1BFC JUMP JUMPDEST CALLVALUE DUP1 ISZERO PUSH2 0x619 JUMPI PUSH0 PUSH0 REVERT JUMPDEST POP PUSH2 0x694 PUSH2 0x628 CALLDATASIZE PUSH1 0x4 PUSH2 0x3212 JUMP JUMPDEST PUSH1 0x1 PUSH1 0x1 PUSH1 0xA0 SHL SUB AND PUSH0 SWAP1 DUP2 MSTORE PUSH1 0xC PUSH1 0x20 SWAP1 DUP2 MSTORE PUSH1 0x40 SWAP2 DUP3 SWAP1 KECCAK256 DUP3 MLOAD PUSH1 0xA0 DUP2 ADD DUP5 MSTORE DUP2 SLOAD DUP2 MSTORE PUSH1 0x1 DUP3 ADD SLOAD PUSH1 0xFF DUP1 DUP3 AND ISZERO ISZERO SWAP5 DUP4 ADD DUP6 SWAP1 MSTORE PUSH2 0x100 SWAP1 SWAP2 DIV DUP2 AND ISZERO ISZERO SWAP5 DUP3 ADD DUP6 SWAP1 MSTORE PUSH1 0x2 DUP4 ADD SLOAD PUSH1 0x60 DUP4 ADD DUP2 SWAP1 MSTORE PUSH1 0x3 SWAP1 SWAP4 ADD SLOAD AND ISZERO ISZERO PUSH1 0x80 SWAP1 SWAP2 ADD DUP2 SWAP1 MSTORE SWAP2 SWAP4 SWAP1 SWAP2 SWAP1 JUMP JUMPDEST PUSH1 0x40 DUP1 MLOAD SWAP5 ISZERO ISZERO DUP6 MSTORE SWAP3 ISZERO ISZERO PUSH1 0x20 DUP6 ADD MSTORE SWAP2 DUP4 ADD MSTORE ISZERO ISZERO PUSH1 0x60 DUP3 ADD MSTORE PUSH1 0x80 ADD PUSH2 0x2AF JUMP JUMPDEST CALLVALUE DUP1 ISZERO PUSH2 0x6C3 JUMPI PUSH0 PUSH0 REVERT JUMPDEST POP PUSH2 0x277 PUSH2 0x6D2 CALLDATASIZE PUSH1 0x4 PUSH2 0x33EF JUMP JUMPDEST PUSH2 0x1C80 JUMP JUMPDEST CALLVALUE DUP1 ISZERO PUSH2 0x6E2 JUMPI PUSH0 PUSH0 REVERT JUMPDEST POP PUSH2 0x6F6 PUSH2 0x6F1 CALLDATASIZE PUSH1 0x4 PUSH2 0x3212 JUMP JUMPDEST PUSH2 0x1E2A JUMP JUMPDEST PUSH1 0x40 MLOAD PUSH2 0x2AF SWAP3 SWAP2 SWAP1 PUSH2 0x34E7 JUMP JUMPDEST CALLVALUE DUP1 ISZERO PUSH2 0x70F JUMPI PUSH0 PUSH0 REVERT JUMPDEST POP PUSH2 0x322 PUSH2 0x71E CALLDATASIZE PUSH1 0x4 PUSH2 0x3212 JUMP JUMPDEST PUSH2 0x1EE8 JUMP JUMPDEST CALLVALUE DUP1 ISZERO PUSH2 0x72E JUMPI PUSH0 PUSH0 REVERT JUMPDEST POP PUSH2 0x344 PUSH1 0x11 SLOAD DUP2 JUMP JUMPDEST CALLVALUE DUP1 ISZERO PUSH2 0x743 JUMPI PUSH0 PUSH0 REVERT JUMPDEST POP PUSH2 0x74C PUSH2 0x1F00 JUMP JUMPDEST PUSH1 0x40 MLOAD PUSH2 0x2AF SWAP4 SWAP3 SWAP2 SWAP1 PUSH2 0x355B JUMP JUMPDEST CALLVALUE DUP1 ISZERO PUSH2 0x766 JUMPI PUSH0 PUSH0 REVERT JUMPDEST POP PUSH2 0x344 PUSH1 0xF SLOAD DUP2 JUMP JUMPDEST PUSH2 0x277 PUSH2 0x212B JUMP JUMPDEST CALLVALUE DUP1 ISZERO PUSH2 0x783 JUMPI PUSH0 PUSH0 REVERT JUMPDEST POP PUSH1 0x13 SLOAD PUSH2 0x380 SWAP1 PUSH1 0xFF AND DUP2 JUMP JUMPDEST CALLVALUE DUP1 ISZERO PUSH2 0x79C JUMPI PUSH0 PUSH0 REVERT JUMPDEST POP PUSH1 0xD SLOAD PUSH2 0x344 JUMP JUMPDEST CALLVALUE DUP1 ISZERO PUSH2 0x7B0 JUMPI PUSH0 PUSH0 REVERT JUMPDEST POP PUSH2 0x277 PUSH2 0x2191 JUMP JUMPDEST CALLVALUE DUP1 ISZERO PUSH2 0x7C4 JUMPI PUSH0 PUSH0 REVERT JUMPDEST POP PUSH2 0x277 PUSH2 0x22A0 JUMP JUMPDEST CALLVALUE DUP1 ISZERO PUSH2 0x7D8 JUMPI PUSH0 PUSH0 REVERT JUMPDEST POP PUSH2 0x2F6 PUSH2 0x7E7 CALLDATASIZE PUSH1 0x4 PUSH2 0x305E JUMP JUMPDEST PUSH2 0x24E1 JUMP JUMPDEST CALLVALUE DUP1 ISZERO PUSH2 0x7F7 JUMPI PUSH0 PUSH0 REVERT JUMPDEST POP PUSH2 0x800 PUSH2 0x2509 JUMP JUMPDEST PUSH1 0x40 MLOAD PUSH2 0x2AF SWAP3 SWAP2 SWAP1 PUSH2 0x35F7 JUMP JUMPDEST CALLVALUE DUP1 ISZERO PUSH2 0x819 JUMPI PUSH0 PUSH0 REVERT JUMPDEST POP PUSH2 0x822 PUSH2 0x25BD JUMP JUMPDEST PUSH1 0x40 MLOAD PUSH2 0x2AF SWAP12 SWAP11 SWAP10 SWAP9 SWAP8 SWAP7 SWAP6 SWAP5 SWAP4 SWAP3 SWAP2 SWAP1 PUSH2 0x361A JUMP JUMPDEST CALLVALUE DUP1 ISZERO PUSH2 0x844 JUMPI PUSH0 PUSH0 REVERT JUMPDEST POP PUSH1 0x2 SLOAD PUSH2 0x2F6 SWAP1 PUSH1 0x1 PUSH1 0x1 PUSH1 0xA0 SHL SUB AND DUP2 JUMP JUMPDEST CALLVALUE DUP1 ISZERO PUSH2 0x863 JUMPI PUSH0 PUSH0 REVERT JUMPDEST POP PUSH0 SLOAD PUSH2 0x2F6 SWAP1 PUSH1 0x1 PUSH1 0x1 PUSH1 0xA0 SHL SUB AND DUP2 JUMP JUMPDEST CALLVALUE DUP1 ISZERO PUSH2 0x881 JUMPI PUSH0 PUSH0 REVERT JUMPDEST POP PUSH2 0x344 PUSH2 0x890 CALLDATASIZE PUSH1 0x4 PUSH2 0x319B JUMP JUMPDEST PUSH2 0x28F0 JUMP JUMPDEST PUSH1 0x2 SLOAD PUSH1 0x1 PUSH1 0x1 PUSH1 0xA0 SHL SUB AND PUSH2 0x8BE JUMPI PUSH1 0x40 MLOAD PUSH4 0xD6EA3663 PUSH1 0xE0 SHL DUP2 MSTORE PUSH1 0x4 ADD PUSH1 0x40 MLOAD DUP1 SWAP2 SUB SWAP1 REVERT JUMPDEST PUSH1 0x2 SLOAD PUSH1 0x1 PUSH1 0x1 PUSH1 0xA0 SHL SUB AND CALLER EQ PUSH2 0x8E9 JUMPI PUSH1 0x40 MLOAD PUSH4 0x9864FBB3 PUSH1 0xE0 SHL DUP2 MSTORE PUSH1 0x4 ADD PUSH1 0x40 MLOAD DUP1 SWAP2 SUB SWAP1 REVERT JUMPDEST PUSH1 0x9 SLOAD PUSH1 0xFF AND PUSH2 0x90C JUMPI PUSH1 0x40 MLOAD PUSH4 0x55E9E641 PUSH1 0xE1 SHL DUP2 MSTORE PUSH1 0x4 ADD PUSH1 0x40 MLOAD DUP1 SWAP2 SUB SWAP1 REVERT JUMPDEST PUSH1 0x4 DUP1 PUSH1 0x2 SLOAD PUSH1 0x1 PUSH1 0xA0 SHL SWAP1 DIV PUSH1 0xFF AND PUSH1 0x7 DUP2 GT ISZERO PUSH2 0x92D JUMPI PUSH2 0x92D PUSH2 0x3075 JUMP JUMPDEST EQ PUSH2 0x94B JUMPI PUSH1 0x40 MLOAD PUSH4 0x187FA83 PUSH1 0xE6 SHL DUP2 MSTORE PUSH1 0x4 ADD PUSH1 0x40 MLOAD DUP1 SWAP2 SUB SWAP1 REVERT JUMPDEST DUP2 PUSH2 0x969 JUMPI PUSH1 0x40 MLOAD PUSH4 0xA60D7F39 PUSH1 0xE0 SHL DUP2 MSTORE PUSH1 0x4 ADD PUSH1 0x40 MLOAD DUP1 SWAP2 SUB SWAP1 REVERT JUMPDEST PUSH1 0x11 DUP3 SWAP1 SSTORE PUSH1 0x2 DUP1 SLOAD PUSH1 0xFF PUSH1 0xA0 SHL NOT AND PUSH1 0x3 PUSH1 0xA1 SHL OR SWAP1 SSTORE PUSH1 0x40 DUP1 MLOAD CALLER DUP2 MSTORE PUSH1 0x20 DUP2 ADD DUP5 SWAP1 MSTORE PUSH32 0xEF94AF06CFA9A76C638DD1A1CFB86B07F938FEBF05374E3675AECED1F805205E SWAP2 ADD JUMPDEST PUSH1 0x40 MLOAD DUP1 SWAP2 SUB SWAP1 LOG1 POP POP JUMP JUMPDEST PUSH0 SLOAD PUSH1 0x1 PUSH1 0x1 PUSH1 0xA0 SHL SUB AND CALLER EQ PUSH2 0x9E9 JUMPI PUSH1 0x40 MLOAD PUSH4 0x47556579 PUSH1 0xE0 SHL DUP2 MSTORE PUSH1 0x4 ADD PUSH1 0x40 MLOAD DUP1 SWAP2 SUB SWAP1 REVERT JUMPDEST PUSH1 0x9 SLOAD PUSH1 0xFF AND PUSH2 0xA0C JUMPI PUSH1 0x40 MLOAD PUSH4 0x55E9E641 PUSH1 0xE1 SHL DUP2 MSTORE PUSH1 0x4 ADD PUSH1 0x40 MLOAD DUP1 SWAP2 SUB SWAP1 REVERT JUMPDEST PUSH1 0x6 SLOAD TIMESTAMP LT ISZERO PUSH2 0xA2F JUMPI PUSH1 0x40 MLOAD PUSH4 0x3EFBCCB1 PUSH1 0xE0 SHL DUP2 MSTORE PUSH1 0x4 ADD PUSH1 0x40 MLOAD DUP1 SWAP2 SUB SWAP1 REVERT JUMPDEST PUSH0 DUP1 PUSH1 0x2 SLOAD PUSH1 0x1 PUSH1 0xA0 SHL SWAP1 DIV PUSH1 0xFF AND PUSH1 0x7 DUP2 GT ISZERO PUSH2 0xA4F JUMPI PUSH2 0xA4F PUSH2 0x3075 JUMP JUMPDEST EQ PUSH2 0xA6D JUMPI PUSH1 0x40 MLOAD PUSH4 0x187FA83 PUSH1 0xE6 SHL DUP2 MSTORE PUSH1 0x4 ADD PUSH1 0x40 MLOAD DUP1 SWAP2 SUB SWAP1 REVERT JUMPDEST PUSH1 0x2 DUP1 SLOAD PUSH1 0xFF PUSH1 0xA0 SHL NOT AND PUSH1 0x1 PUSH1 0xA0 SHL OR SWAP1 SSTORE PUSH1 0x40 MLOAD PUSH32 0x2FD2F8FCBB75B0A142D3952AD3F5E92DD16AAB6C8BBBD304BDB97066B33C062C SWAP1 PUSH0 SWAP1 LOG1 POP JUMP JUMPDEST PUSH1 0x2 SLOAD PUSH0 SWAP1 PUSH1 0x60 SWAP1 PUSH1 0x1 PUSH1 0xA0 SHL SWAP1 DIV PUSH1 0xFF AND PUSH2 0xAC6 DUP2 PUSH2 0x2951 JUMP JUMPDEST SWAP2 POP SWAP2 POP SWAP1 SWAP2 JUMP JUMPDEST PUSH1 0x9 SLOAD PUSH1 0xFF AND PUSH2 0xAF1 JUMPI PUSH1 0x40 MLOAD PUSH4 0x55E9E641 PUSH1 0xE1 SHL DUP2 MSTORE PUSH1 0x4 ADD PUSH1 0x40 MLOAD DUP1 SWAP2 SUB SWAP1 REVERT JUMPDEST CALLER PUSH0 SWAP1 DUP2 MSTORE PUSH1 0xA PUSH1 0x20 MSTORE PUSH1 0x40 SWAP1 KECCAK256 SLOAD PUSH1 0xFF AND PUSH2 0xB20 JUMPI PUSH1 0x40 MLOAD PUSH4 0x2F9CE37 PUSH1 0xE5 SHL DUP2 MSTORE PUSH1 0x4 ADD PUSH1 0x40 MLOAD DUP1 SWAP2 SUB SWAP1 REVERT JUMPDEST PUSH1 0x1 DUP1 PUSH1 0x2 SLOAD PUSH1 0x1 PUSH1 0xA0 SHL SWAP1 DIV PUSH1 0xFF AND PUSH1 0x7 DUP2 GT ISZERO PUSH2 0xB41 JUMPI PUSH2 0xB41 PUSH2 0x3075 JUMP JUMPDEST EQ PUSH2 0xB5F JUMPI PUSH1 0x40 MLOAD PUSH4 0x187FA83 PUSH1 0xE6 SHL DUP2 MSTORE PUSH1 0x4 ADD PUSH1 0x40 MLOAD DUP1 SWAP2 SUB SWAP1 REVERT JUMPDEST CALLER PUSH0 SWAP1 DUP2 MSTORE PUSH1 0xC PUSH1 0x20 MSTORE PUSH1 0x40 SWAP1 KECCAK256 PUSH1 0x1 DUP2 ADD SLOAD PUSH1 0xFF AND PUSH2 0xB92 JUMPI PUSH1 0x40 MLOAD PUSH4 0x51F37831 PUSH1 0xE1 SHL DUP2 MSTORE PUSH1 0x4 ADD PUSH1 0x40 MLOAD DUP1 SWAP2 SUB SWAP1 REVERT JUMPDEST PUSH1 0x1 DUP2 ADD SLOAD PUSH2 0x100 SWAP1 DIV PUSH1 0xFF AND ISZERO PUSH2 0xBBD JUMPI PUSH1 0x40 MLOAD PUSH4 0x8509CF4F PUSH1 0xE0 SHL DUP2 MSTORE PUSH1 0x4 ADD PUSH1 0x40 MLOAD DUP1 SWAP2 SUB SWAP1 REVERT JUMPDEST PUSH0 DUP5 DUP5 PUSH1 0x40 MLOAD PUSH1 0x20 ADD PUSH2 0xBD1 SWAP3 SWAP2 SWAP1 PUSH2 0x36EB JUMP JUMPDEST PUSH1 0x40 MLOAD PUSH1 0x20 DUP2 DUP4 SUB SUB DUP2 MSTORE SWAP1 PUSH1 0x40 MSTORE DUP1 MLOAD SWAP1 PUSH1 0x20 ADD KECCAK256 SWAP1 POP DUP2 PUSH0 ADD SLOAD DUP2 EQ PUSH2 0xC0C JUMPI PUSH1 0x40 MLOAD PUSH4 0xF0F96D35 PUSH1 0xE0 SHL DUP2 MSTORE PUSH1 0x4 ADD PUSH1 0x40 MLOAD DUP1 SWAP2 SUB SWAP1 REVERT JUMPDEST PUSH1 0x1 DUP3 DUP2 ADD DUP1 SLOAD PUSH2 0xFF00 NOT AND PUSH2 0x100 OR SWAP1 SSTORE PUSH1 0x2 DUP4 ADD DUP7 SWAP1 SSTORE PUSH1 0x3 DUP4 ADD DUP1 SLOAD PUSH1 0xFF NOT AND SWAP1 SWAP2 OR SWAP1 SSTORE PUSH1 0x40 DUP1 MLOAD CALLER DUP2 MSTORE PUSH1 0x20 DUP2 ADD DUP8 SWAP1 MSTORE PUSH32 0x9891BD98143D5A2C5F29BE9A7EF8E5D7B723746FB3B75220234AF7AA6CAEECFE SWAP2 ADD PUSH1 0x40 MLOAD DUP1 SWAP2 SUB SWAP1 LOG1 POP POP POP POP POP JUMP JUMPDEST PUSH1 0x12 DUP1 SLOAD PUSH2 0xC81 SWAP1 PUSH2 0x36FC JUMP JUMPDEST DUP1 PUSH1 0x1F ADD PUSH1 0x20 DUP1 SWAP2 DIV MUL PUSH1 0x20 ADD PUSH1 0x40 MLOAD SWAP1 DUP2 ADD PUSH1 0x40 MSTORE DUP1 SWAP3 SWAP2 SWAP1 DUP2 DUP2 MSTORE PUSH1 0x20 ADD DUP3 DUP1 SLOAD PUSH2 0xCAD SWAP1 PUSH2 0x36FC JUMP JUMPDEST DUP1 ISZERO PUSH2 0xCF8 JUMPI DUP1 PUSH1 0x1F LT PUSH2 0xCCF JUMPI PUSH2 0x100 DUP1 DUP4 SLOAD DIV MUL DUP4 MSTORE SWAP2 PUSH1 0x20 ADD SWAP2 PUSH2 0xCF8 JUMP JUMPDEST DUP3 ADD SWAP2 SWAP1 PUSH0 MSTORE PUSH1 0x20 PUSH0 KECCAK256 SWAP1 JUMPDEST DUP2 SLOAD DUP2 MSTORE SWAP1 PUSH1 0x1 ADD SWAP1 PUSH1 0x20 ADD DUP1 DUP4 GT PUSH2 0xCDB JUMPI DUP3 SWAP1 SUB PUSH1 0x1F AND DUP3 ADD SWAP2 JUMPDEST POP POP POP POP POP DUP2 JUMP JUMPDEST PUSH0 SLOAD PUSH1 0x1 PUSH1 0x1 PUSH1 0xA0 SHL SUB AND CALLER EQ PUSH2 0xD2A JUMPI PUSH1 0x40 MLOAD PUSH4 0x47556579 PUSH1 0xE0 SHL DUP2 MSTORE PUSH1 0x4 ADD PUSH1 0x40 MLOAD DUP1 SWAP2 SUB SWAP1 REVERT JUMPDEST PUSH1 0x9 SLOAD PUSH1 0xFF AND PUSH2 0xD4D JUMPI PUSH1 0x40 MLOAD PUSH4 0x55E9E641 PUSH1 0xE1 SHL DUP2 MSTORE PUSH1 0x4 ADD PUSH1 0x40 MLOAD DUP1 SWAP2 SUB SWAP1 REVERT JUMPDEST PUSH0 DUP1 PUSH1 0x2 SLOAD PUSH1 0x1 PUSH1 0xA0 SHL SWAP1 DIV PUSH1 0xFF AND PUSH1 0x7 DUP2 GT ISZERO PUSH2 0xD6D JUMPI PUSH2 0xD6D PUSH2 0x3075 JUMP JUMPDEST EQ PUSH2 0xD8B JUMPI PUSH1 0x40 MLOAD PUSH4 0x187FA83 PUSH1 0xE6 SHL DUP2 MSTORE PUSH1 0x4 ADD PUSH1 0x40 MLOAD DUP1 SWAP2 SUB SWAP1 REVERT JUMPDEST PUSH1 0x1 PUSH1 0x1 PUSH1 0xA0 SHL SUB DUP4 AND PUSH2 0xDB2 JUMPI PUSH1 0x40 MLOAD PUSH4 0xE6C4247B PUSH1 0xE0 SHL DUP2 MSTORE PUSH1 0x4 ADD PUSH1 0x40 MLOAD DUP1 SWAP2 SUB SWAP1 REVERT JUMPDEST PUSH1 0x1 PUSH1 0x1 PUSH1 0xA0 SHL SUB DUP4 AND PUSH0 SWAP1 DUP2 MSTORE PUSH1 0xA PUSH1 0x20 MSTORE PUSH1 0x40 SWAP1 KECCAK256 SLOAD PUSH1 0xFF AND ISZERO PUSH2 0xDEB JUMPI PUSH1 0x40 MLOAD PUSH4 0x6A7C46F7 PUSH1 0xE1 SHL DUP2 MSTORE PUSH1 0x4 ADD PUSH1 0x40 MLOAD DUP1 SWAP2 SUB SWAP1 REVERT JUMPDEST DUP2 MLOAD PUSH0 SUB PUSH2 0xE0C JUMPI PUSH1 0x40 MLOAD PUSH4 0x3E61080D PUSH1 0xE0 SHL DUP2 MSTORE PUSH1 0x4 ADD PUSH1 0x40 MLOAD DUP1 SWAP2 SUB SWAP1 REVERT JUMPDEST PUSH1 0xD SLOAD PUSH1 0x64 GT PUSH2 0xE2F JUMPI PUSH1 0x40 MLOAD PUSH4 0x5B7D9A0D PUSH1 0xE0 SHL DUP2 MSTORE PUSH1 0x4 ADD PUSH1 0x40 MLOAD DUP1 SWAP2 SUB SWAP1 REVERT JUMPDEST PUSH1 0x1 PUSH1 0x1 PUSH1 0xA0 SHL SUB DUP4 AND PUSH0 SWAP1 DUP2 MSTORE PUSH1 0xA PUSH1 0x20 SWAP1 DUP2 MSTORE PUSH1 0x40 DUP1 DUP4 KECCAK256 DUP1 SLOAD PUSH1 0xFF NOT AND PUSH1 0x1 OR SWAP1 SSTORE PUSH1 0xB SWAP1 SWAP2 MSTORE SWAP1 KECCAK256 PUSH2 0xE65 DUP4 DUP3 PUSH2 0x3780 JUMP JUMPDEST POP PUSH1 0xD DUP1 SLOAD PUSH1 0x1 DUP2 ADD DUP3 SSTORE PUSH0 SWAP2 SWAP1 SWAP2 MSTORE PUSH32 0xD7B6990105719101DABEB77144F2A3385C8033ACD3AF97E9423A695E81AD1EB5 ADD DUP1 SLOAD PUSH1 0x1 PUSH1 0x1 PUSH1 0xA0 SHL SUB NOT AND PUSH1 0x1 PUSH1 0x1 PUSH1 0xA0 SHL SUB DUP6 AND OR SWAP1 SSTORE PUSH1 0x40 MLOAD PUSH32 0x164B6120673B4B59137EF128C1C6D39E2DE27D8BAA1DDEDA0DB16EA4E15E97F6 SWAP1 PUSH2 0xEE2 SWAP1 DUP6 SWAP1 DUP6 SWAP1 PUSH2 0x35F7 JUMP JUMPDEST PUSH1 0x40 MLOAD DUP1 SWAP2 SUB SWAP1 LOG1 POP POP POP JUMP JUMPDEST PUSH1 0x9 SLOAD PUSH0 SWAP1 DUP2 SWAP1 DUP2 SWAP1 DUP2 SWAP1 DUP2 SWAP1 DUP2 SWAP1 PUSH1 0xFF AND PUSH2 0xF1E JUMPI PUSH1 0x40 MLOAD PUSH4 0x55E9E641 PUSH1 0xE1 SHL DUP2 MSTORE PUSH1 0x4 ADD PUSH1 0x40 MLOAD DUP1 SWAP2 SUB SWAP1 REVERT JUMPDEST PUSH1 0x6 SLOAD PUSH2 0xF2A SWAP1 PUSH2 0x2B5B JUMP JUMPDEST PUSH1 0x6 SLOAD SWAP12 SWAP5 SWAP11 POP SWAP3 SWAP9 POP SWAP1 SWAP7 POP SWAP5 POP SWAP3 POP SWAP1 POP JUMP JUMPDEST PUSH1 0x2 SLOAD PUSH1 0x1 PUSH1 0x1 PUSH1 0xA0 SHL SUB AND PUSH2 0xF68 JUMPI PUSH1 0x40 MLOAD PUSH4 0xD6EA3663 PUSH1 0xE0 SHL DUP2 MSTORE PUSH1 0x4 ADD PUSH1 0x40 MLOAD DUP1 SWAP2 SUB SWAP1 REVERT JUMPDEST PUSH1 0x2 SLOAD PUSH1 0x1 PUSH1 0x1 PUSH1 0xA0 SHL SUB AND CALLER EQ PUSH2 0xF93 JUMPI PUSH1 0x40 MLOAD PUSH4 0x9864FBB3 PUSH1 0xE0 SHL DUP2 MSTORE PUSH1 0x4 ADD PUSH1 0x40 MLOAD DUP1 SWAP2 SUB SWAP1 REVERT JUMPDEST PUSH1 0x9 SLOAD PUSH1 0xFF AND PUSH2 0xFB6 JUMPI PUSH1 0x40 MLOAD PUSH4 0x55E9E641 PUSH1 0xE1 SHL DUP2 MSTORE PUSH1 0x4 ADD PUSH1 0x40 MLOAD DUP1 SWAP2 SUB SWAP1 REVERT JUMPDEST PUSH1 0x4 DUP1 PUSH1 0x2 SLOAD PUSH1 0x1 PUSH1 0xA0 SHL SWAP1 DIV PUSH1 0xFF AND PUSH1 0x7 DUP2 GT ISZERO PUSH2 0xFD7 JUMPI PUSH2 0xFD7 PUSH2 0x3075 JUMP JUMPDEST EQ PUSH2 0xFF5 JUMPI PUSH1 0x40 MLOAD PUSH4 0x187FA83 PUSH1 0xE6 SHL DUP2 MSTORE PUSH1 0x4 ADD PUSH1 0x40 MLOAD DUP1 SWAP2 SUB SWAP1 REVERT JUMPDEST DUP2 MLOAD PUSH0 SUB PUSH2 0x1016 JUMPI PUSH1 0x40 MLOAD PUSH4 0xBC7FD331 PUSH1 0xE0 SHL DUP2 MSTORE PUSH1 0x4 ADD PUSH1 0x40 MLOAD DUP1 SWAP2 SUB SWAP1 REVERT JUMPDEST PUSH1 0x12 PUSH2 0x1022 DUP4 DUP3 PUSH2 0x3780 JUMP JUMPDEST POP PUSH1 0x2 DUP1 SLOAD PUSH1 0xFF PUSH1 0xA0 SHL NOT AND PUSH1 0x5 PUSH1 0xA0 SHL OR SWAP1 SSTORE PUSH1 0x40 MLOAD PUSH32 0x52FCA0FCDDA16F4A5F819B60BB9C2F99458433351B90E6FCB3E221FE03B10280 SWAP1 PUSH2 0x9B3 SWAP1 CALLER SWAP1 DUP6 SWAP1 PUSH2 0x35F7 JUMP JUMPDEST PUSH0 SLOAD PUSH1 0x1 PUSH1 0x1 PUSH1 0xA0 SHL SUB AND CALLER EQ PUSH2 0x1092 JUMPI PUSH1 0x40 MLOAD PUSH4 0x47556579 PUSH1 0xE0 SHL DUP2 MSTORE PUSH1 0x4 ADD PUSH1 0x40 MLOAD DUP1 SWAP2 SUB SWAP1 REVERT JUMPDEST PUSH1 0x9 SLOAD PUSH1 0xFF AND PUSH2 0x10B5 JUMPI PUSH1 0x40 MLOAD PUSH4 0x55E9E641 PUSH1 0xE1 SHL DUP2 MSTORE PUSH1 0x4 ADD PUSH1 0x40 MLOAD DUP1 SWAP2 SUB SWAP1 REVERT JUMPDEST PUSH1 0x1 PUSH1 0x1 PUSH1 0xA0 SHL SUB DUP2 AND PUSH2 0x10DC JUMPI PUSH1 0x40 MLOAD PUSH4 0xE6C4247B PUSH1 0xE0 SHL DUP2 MSTORE PUSH1 0x4 ADD PUSH1 0x40 MLOAD DUP1 SWAP2 SUB SWAP1 REVERT JUMPDEST PUSH1 0x6 PUSH1 0x2 SLOAD PUSH1 0x1 PUSH1 0xA0 SHL SWAP1 DIV PUSH1 0xFF AND PUSH1 0x7 DUP2 GT ISZERO PUSH2 0x10FC JUMPI PUSH2 0x10FC PUSH2 0x3075 JUMP JUMPDEST EQ DUP1 PUSH2 0x1125 JUMPI POP PUSH1 0x5 PUSH1 0x2 SLOAD PUSH1 0x1 PUSH1 0xA0 SHL SWAP1 DIV PUSH1 0xFF AND PUSH1 0x7 DUP2 GT ISZERO PUSH2 0x1123 JUMPI PUSH2 0x1123 PUSH2 0x3075 JUMP JUMPDEST EQ JUMPDEST DUP1 PUSH2 0x114D JUMPI POP PUSH1 0x7 PUSH1 0x2 SLOAD PUSH1 0x1 PUSH1 0xA0 SHL SWAP1 DIV PUSH1 0xFF AND PUSH1 0x7 DUP2 GT ISZERO PUSH2 0x114B JUMPI PUSH2 0x114B PUSH2 0x3075 JUMP JUMPDEST EQ JUMPDEST ISZERO PUSH2 0x116B JUMPI PUSH1 0x40 MLOAD PUSH4 0x2A28912D PUSH1 0xE1 SHL DUP2 MSTORE PUSH1 0x4 ADD PUSH1 0x40 MLOAD DUP1 SWAP2 SUB SWAP1 REVERT JUMPDEST PUSH1 0x2 DUP1 SLOAD PUSH1 0x1 PUSH1 0x1 PUSH1 0xA0 SHL SUB NOT AND PUSH1 0x1 PUSH1 0x1 PUSH1 0xA0 SHL SUB DUP4 AND SWAP1 DUP2 OR SWAP1 SWAP2 SSTORE PUSH1 0x40 MLOAD SWAP1 DUP2 MSTORE PUSH32 0xC7B11D63D071F03C4B488A3A44EE58C8A449F16B0EE289DD25AF95C15C9F8E3A SWAP1 PUSH1 0x20 ADD JUMPDEST PUSH1 0x40 MLOAD DUP1 SWAP2 SUB SWAP1 LOG1 POP JUMP JUMPDEST PUSH1 0x9 SLOAD PUSH1 0xFF AND PUSH2 0x11E3 JUMPI PUSH1 0x40 MLOAD PUSH4 0x55E9E641 PUSH1 0xE1 SHL DUP2 MSTORE PUSH1 0x4 ADD PUSH1 0x40 MLOAD DUP1 SWAP2 SUB SWAP1 REVERT JUMPDEST CALLER PUSH0 SWAP1 DUP2 MSTORE PUSH1 0xA PUSH1 0x20 MSTORE PUSH1 0x40 SWAP1 KECCAK256 SLOAD PUSH1 0xFF AND PUSH2 0x1212 JUMPI PUSH1 0x40 MLOAD PUSH4 0x2F9CE37 PUSH1 0xE5 SHL DUP2 MSTORE PUSH1 0x4 ADD PUSH1 0x40 MLOAD DUP1 SWAP2 SUB SWAP1 REVERT JUMPDEST PUSH1 0x6 SLOAD TIMESTAMP LT PUSH2 0x1234 JUMPI PUSH1 0x40 MLOAD PUSH4 0x764B8E33 PUSH1 0xE1 SHL DUP2 MSTORE PUSH1 0x4 ADD PUSH1 0x40 MLOAD DUP1 SWAP2 SUB SWAP1 REVERT JUMPDEST PUSH0 DUP1 PUSH1 0x2 SLOAD PUSH1 0x1 PUSH1 0xA0 SHL SWAP1 DIV PUSH1 0xFF AND PUSH1 0x7 DUP2 GT ISZERO PUSH2 0x1254 JUMPI PUSH2 0x1254 PUSH2 0x3075 JUMP JUMPDEST EQ PUSH2 0x1272 JUMPI PUSH1 0x40 MLOAD PUSH4 0x187FA83 PUSH1 0xE6 SHL DUP2 MSTORE PUSH1 0x4 ADD PUSH1 0x40 MLOAD DUP1 SWAP2 SUB SWAP1 REVERT JUMPDEST CALLER PUSH0 SWAP1 DUP2 MSTORE PUSH1 0xC PUSH1 0x20 MSTORE PUSH1 0x40 SWAP1 KECCAK256 PUSH1 0x1 ADD SLOAD PUSH1 0xFF AND ISZERO PUSH2 0x12A5 JUMPI PUSH1 0x40 MLOAD PUSH4 0x18F3C2EF PUSH1 0xE1 SHL DUP2 MSTORE PUSH1 0x4 ADD PUSH1 0x40 MLOAD DUP1 SWAP2 SUB SWAP1 REVERT JUMPDEST DUP2 PUSH2 0x12C3 JUMPI PUSH1 0x40 MLOAD PUSH4 0x1FDA9241 PUSH1 0xE3 SHL DUP2 MSTORE PUSH1 0x4 ADD PUSH1 0x40 MLOAD DUP1 SWAP2 SUB SWAP1 REVERT JUMPDEST PUSH1 0x40 DUP1 MLOAD PUSH1 0xA0 DUP2 ADD DUP3 MSTORE DUP4 DUP2 MSTORE PUSH1 0x1 PUSH1 0x20 DUP1 DUP4 ADD DUP3 DUP2 MSTORE PUSH0 DUP5 DUP7 ADD DUP2 DUP2 MSTORE PUSH1 0x60 DUP7 ADD DUP3 DUP2 MSTORE PUSH1 0x80 DUP8 ADD DUP4 DUP2 MSTORE CALLER DUP1 DUP6 MSTORE PUSH1 0xC DUP8 MSTORE SWAP4 DUP10 SWAP1 KECCAK256 SWAP8 MLOAD DUP9 SSTORE SWAP4 MLOAD SWAP6 DUP8 ADD DUP1 SLOAD SWAP3 MLOAD PUSH2 0xFFFF NOT SWAP1 SWAP4 AND SWAP7 ISZERO ISZERO PUSH2 0xFF00 NOT AND SWAP7 SWAP1 SWAP7 OR PUSH2 0x100 SWAP3 ISZERO ISZERO SWAP3 SWAP1 SWAP3 MUL SWAP2 SWAP1 SWAP2 OR SWAP1 SWAP5 SSTORE SWAP3 MLOAD PUSH1 0x2 DUP6 ADD SSTORE MLOAD PUSH1 0x3 SWAP1 SWAP4 ADD DUP1 SLOAD PUSH1 0xFF NOT AND SWAP4 ISZERO ISZERO SWAP4 SWAP1 SWAP4 OR SWAP1 SWAP3 SSTORE SWAP2 MLOAD SWAP2 DUP3 MSTORE PUSH32 0x88C5A0D081E0C7A69B5817581FFA85B19D71703BC581BB5C09FA253C527A055E SWAP2 ADD PUSH2 0x9B3 JUMP JUMPDEST PUSH1 0x2 SLOAD PUSH1 0x60 SWAP1 PUSH2 0x138F SWAP1 PUSH1 0x1 PUSH1 0xA0 SHL SWAP1 DIV PUSH1 0xFF AND PUSH2 0x2951 JUMP JUMPDEST SWAP1 POP SWAP1 JUMP JUMPDEST PUSH0 SLOAD PUSH1 0x1 PUSH1 0x1 PUSH1 0xA0 SHL SUB AND CALLER EQ PUSH2 0x13BE JUMPI PUSH1 0x40 MLOAD PUSH4 0x47556579 PUSH1 0xE0 SHL DUP2 MSTORE PUSH1 0x4 ADD PUSH1 0x40 MLOAD DUP1 SWAP2 SUB SWAP1 REVERT JUMPDEST PUSH1 0x9 SLOAD PUSH1 0xFF AND PUSH2 0x13E1 JUMPI PUSH1 0x40 MLOAD PUSH4 0x55E9E641 PUSH1 0xE1 SHL DUP2 MSTORE PUSH1 0x4 ADD PUSH1 0x40 MLOAD DUP1 SWAP2 SUB SWAP1 REVERT JUMPDEST PUSH1 0x1 DUP1 PUSH1 0x2 SLOAD PUSH1 0x1 PUSH1 0xA0 SHL SWAP1 DIV PUSH1 0xFF AND PUSH1 0x7 DUP2 GT ISZERO PUSH2 0x1402 JUMPI PUSH2 0x1402 PUSH2 0x3075 JUMP JUMPDEST EQ PUSH2 0x1420 JUMPI PUSH1 0x40 MLOAD PUSH4 0x187FA83 PUSH1 0xE6 SHL DUP2 MSTORE PUSH1 0x4 ADD PUSH1 0x40 MLOAD DUP1 SWAP2 SUB SWAP1 REVERT JUMPDEST PUSH1 0xD SLOAD PUSH0 SWAP1 PUSH0 NOT SWAP1 DUP3 JUMPDEST DUP2 DUP2 LT ISZERO PUSH2 0x14EA JUMPI PUSH0 PUSH1 0xD DUP3 DUP2 SLOAD DUP2 LT PUSH2 0x1446 JUMPI PUSH2 0x1446 PUSH2 0x383A JUMP JUMPDEST PUSH0 SWAP2 DUP3 MSTORE PUSH1 0x20 DUP1 DUP4 KECCAK256 SWAP1 SWAP2 ADD SLOAD PUSH1 0x1 PUSH1 0x1 PUSH1 0xA0 SHL SUB AND DUP1 DUP4 MSTORE PUSH1 0xC DUP3 MSTORE PUSH1 0x40 SWAP3 DUP4 SWAP1 KECCAK256 DUP4 MLOAD PUSH1 0xA0 DUP2 ADD DUP6 MSTORE DUP2 SLOAD DUP2 MSTORE PUSH1 0x1 DUP3 ADD SLOAD PUSH1 0xFF DUP1 DUP3 AND ISZERO ISZERO SWAP6 DUP4 ADD SWAP6 SWAP1 SWAP6 MSTORE PUSH2 0x100 SWAP1 DIV DUP5 AND ISZERO ISZERO SWAP5 DUP2 ADD SWAP5 SWAP1 SWAP5 MSTORE PUSH1 0x2 DUP2 ADD SLOAD PUSH1 0x60 DUP6 ADD MSTORE PUSH1 0x3 ADD SLOAD SWAP1 SWAP2 AND ISZERO DUP1 ISZERO PUSH1 0x80 DUP5 ADD DUP2 SWAP1 MSTORE SWAP2 SWAP4 POP PUSH2 0x14C1 JUMPI POP DUP1 PUSH1 0x40 ADD MLOAD JUMPDEST DUP1 ISZERO PUSH2 0x14D0 JUMPI POP DUP5 DUP2 PUSH1 0x60 ADD MLOAD LT JUMPDEST ISZERO PUSH2 0x14E0 JUMPI DUP1 PUSH1 0x60 ADD MLOAD SWAP5 POP DUP2 SWAP6 POP JUMPDEST POP POP PUSH1 0x1 ADD PUSH2 0x142A JUMP JUMPDEST POP PUSH1 0x1 PUSH1 0x1 PUSH1 0xA0 SHL SUB DUP4 AND PUSH2 0x1512 JUMPI PUSH1 0x40 MLOAD PUSH4 0x13B9371B PUSH1 0xE1 SHL DUP2 MSTORE PUSH1 0x4 ADD PUSH1 0x40 MLOAD DUP1 SWAP2 SUB SWAP1 REVERT JUMPDEST PUSH1 0xE DUP1 SLOAD PUSH1 0x1 PUSH1 0x1 PUSH1 0xA0 SHL SUB NOT AND PUSH1 0x1 PUSH1 0x1 PUSH1 0xA0 SHL SUB DUP6 AND SWAP1 DUP2 OR SWAP1 SWAP2 SSTORE PUSH1 0xF DUP4 SWAP1 SSTORE PUSH1 0x2 DUP1 SLOAD PUSH1 0xFF PUSH1 0xA0 SHL NOT AND PUSH1 0x1 PUSH1 0xA1 SHL OR SWAP1 SSTORE PUSH1 0x40 DUP1 MLOAD SWAP2 DUP3 MSTORE PUSH1 0x20 DUP3 ADD DUP5 SWAP1 MSTORE DUP1 MLOAD PUSH32 0x44A8E45B0547725A1B190FE91FBA127F673B8CEC941CEAF8B3E2E67D61055DFE SWAP3 DUP2 SWAP1 SUB SWAP1 SWAP2 ADD SWAP1 LOG1 POP POP POP POP JUMP JUMPDEST PUSH1 0x60 DUP1 PUSH1 0x60 PUSH0 PUSH0 PUSH0 PUSH0 PUSH0 PUSH0 PUSH0 PUSH1 0x60 PUSH0 PUSH2 0x15A4 PUSH1 0x3 DUP1 ADD SLOAD PUSH2 0x2B5B JUMP JUMPDEST DUP1 SWAP9 POP DUP2 SWAP10 POP DUP3 SWAP11 POP DUP4 SWAP12 POP DUP5 SWAP13 POP POP POP POP POP POP PUSH1 0x3 PUSH0 ADD PUSH1 0x3 PUSH1 0x1 ADD PUSH1 0x3 PUSH1 0x2 ADD PUSH1 0x3 DUP1 ADD SLOAD DUP12 DUP12 DUP12 DUP12 DUP12 PUSH1 0x3 PUSH1 0x4 ADD SLOAD PUSH1 0x3 PUSH1 0x5 ADD PUSH1 0x3 PUSH1 0x6 ADD PUSH0 SWAP1 SLOAD SWAP1 PUSH2 0x100 EXP SWAP1 DIV PUSH1 0xFF AND DUP12 DUP1 SLOAD PUSH2 0x15F9 SWAP1 PUSH2 0x36FC JUMP JUMPDEST DUP1 PUSH1 0x1F ADD PUSH1 0x20 DUP1 SWAP2 DIV MUL PUSH1 0x20 ADD PUSH1 0x40 MLOAD SWAP1 DUP2 ADD PUSH1 0x40 MSTORE DUP1 SWAP3 SWAP2 SWAP1 DUP2 DUP2 MSTORE PUSH1 0x20 ADD DUP3 DUP1 SLOAD PUSH2 0x1625 SWAP1 PUSH2 0x36FC JUMP JUMPDEST DUP1 ISZERO PUSH2 0x1670 JUMPI DUP1 PUSH1 0x1F LT PUSH2 0x1647 JUMPI PUSH2 0x100 DUP1 DUP4 SLOAD DIV MUL DUP4 MSTORE SWAP2 PUSH1 0x20 ADD SWAP2 PUSH2 0x1670 JUMP JUMPDEST DUP3 ADD SWAP2 SWAP1 PUSH0 MSTORE PUSH1 0x20 PUSH0 KECCAK256 SWAP1 JUMPDEST DUP2 SLOAD DUP2 MSTORE SWAP1 PUSH1 0x1 ADD SWAP1 PUSH1 0x20 ADD DUP1 DUP4 GT PUSH2 0x1653 JUMPI DUP3 SWAP1 SUB PUSH1 0x1F AND DUP3 ADD SWAP2 JUMPDEST POP POP POP POP POP SWAP12 POP DUP11 DUP1 SLOAD PUSH2 0x1683 SWAP1 PUSH2 0x36FC JUMP JUMPDEST DUP1 PUSH1 0x1F ADD PUSH1 0x20 DUP1 SWAP2 DIV MUL PUSH1 0x20 ADD PUSH1 0x40 MLOAD SWAP1 DUP2 ADD PUSH1 0x40 MSTORE DUP1 SWAP3 SWAP2 SWAP1 DUP2 DUP2 MSTORE PUSH1 0x20 ADD DUP3 DUP1 SLOAD PUSH2 0x16AF SWAP1 PUSH2 0x36FC JUMP JUMPDEST DUP1 ISZERO PUSH2 0x16FA JUMPI DUP1 PUSH1 0x1F LT PUSH2 0x16D1 JUMPI PUSH2 0x100 DUP1 DUP4 SLOAD DIV MUL DUP4 MSTORE SWAP2 PUSH1 0x20 ADD SWAP2 PUSH2 0x16FA JUMP JUMPDEST DUP3 ADD SWAP2 SWAP1 PUSH0 MSTORE PUSH1 0x20 PUSH0 KECCAK256 SWAP1 JUMPDEST DUP2 SLOAD DUP2 MSTORE SWAP1 PUSH1 0x1 ADD SWAP1 PUSH1 0x20 ADD DUP1 DUP4 GT PUSH2 0x16DD JUMPI DUP3 SWAP1 SUB PUSH1 0x1F AND DUP3 ADD SWAP2 JUMPDEST POP POP POP POP POP SWAP11 POP DUP10 DUP1 SLOAD PUSH2 0x170D SWAP1 PUSH2 0x36FC JUMP JUMPDEST DUP1 PUSH1 0x1F ADD PUSH1 0x20 DUP1 SWAP2 DIV MUL PUSH1 0x20 ADD PUSH1 0x40 MLOAD SWAP1 DUP2 ADD PUSH1 0x40 MSTORE DUP1 SWAP3 SWAP2 SWAP1 DUP2 DUP2 MSTORE PUSH1 0x20 ADD DUP3 DUP1 SLOAD PUSH2 0x1739 SWAP1 PUSH2 0x36FC JUMP JUMPDEST DUP1 ISZERO PUSH2 0x1784 JUMPI DUP1 PUSH1 0x1F LT PUSH2 0x175B JUMPI PUSH2 0x100 DUP1 DUP4 SLOAD DIV MUL DUP4 MSTORE SWAP2 PUSH1 0x20 ADD SWAP2 PUSH2 0x1784 JUMP JUMPDEST DUP3 ADD SWAP2 SWAP1 PUSH0 MSTORE PUSH1 0x20 PUSH0 KECCAK256 SWAP1 JUMPDEST DUP2 SLOAD DUP2 MSTORE SWAP1 PUSH1 0x1 ADD SWAP1 PUSH1 0x20 ADD DUP1 DUP4 GT PUSH2 0x1767 JUMPI DUP3 SWAP1 SUB PUSH1 0x1F AND DUP3 ADD SWAP2 JUMPDEST POP POP POP POP POP SWAP10 POP DUP2 DUP1 SLOAD PUSH2 0x1797 SWAP1 PUSH2 0x36FC JUMP JUMPDEST DUP1 PUSH1 0x1F ADD PUSH1 0x20 DUP1 SWAP2 DIV MUL PUSH1 0x20 ADD PUSH1 0x40 MLOAD SWAP1 DUP2 ADD PUSH1 0x40 MSTORE DUP1 SWAP3 SWAP2 SWAP1 DUP2 DUP2 MSTORE PUSH1 0x20 ADD DUP3 DUP1 SLOAD PUSH2 0x17C3 SWAP1 PUSH2 0x36FC JUMP JUMPDEST DUP1 ISZERO PUSH2 0x180E JUMPI DUP1 PUSH1 0x1F LT PUSH2 0x17E5 JUMPI PUSH2 0x100 DUP1 DUP4 SLOAD DIV MUL DUP4 MSTORE SWAP2 PUSH1 0x20 ADD SWAP2 PUSH2 0x180E JUMP JUMPDEST DUP3 ADD SWAP2 SWAP1 PUSH0 MSTORE PUSH1 0x20 PUSH0 KECCAK256 SWAP1 JUMPDEST DUP2 SLOAD DUP2 MSTORE SWAP1 PUSH1 0x1 ADD SWAP1 PUSH1 0x20 ADD DUP1 DUP4 GT PUSH2 0x17F1 JUMPI DUP3 SWAP1 SUB PUSH1 0x1F AND DUP3 ADD SWAP2 JUMPDEST POP POP POP POP POP SWAP2 POP SWAP12 POP SWAP12 POP SWAP12 POP SWAP12 POP SWAP12 POP SWAP12 POP SWAP12 POP SWAP12 POP SWAP12 POP SWAP12 POP SWAP12 POP SWAP12 POP SWAP1 SWAP2 SWAP3 SWAP4 SWAP5 SWAP6 SWAP7 SWAP8 SWAP9 SWAP10 SWAP11 SWAP12 JUMP JUMPDEST PUSH0 SLOAD PUSH1 0x1 PUSH1 0x1 PUSH1 0xA0 SHL SUB AND CALLER EQ PUSH2 0x1865 JUMPI PUSH1 0x40 MLOAD PUSH4 0x47556579 PUSH1 0xE0 SHL DUP2 MSTORE PUSH1 0x4 ADD PUSH1 0x40 MLOAD DUP1 SWAP2 SUB SWAP1 REVERT JUMPDEST PUSH1 0x1 PUSH1 0x1 PUSH1 0xA0 SHL SUB DUP2 AND PUSH2 0x188C JUMPI PUSH1 0x40 MLOAD PUSH4 0xE6C4247B PUSH1 0xE0 SHL DUP2 MSTORE PUSH1 0x4 ADD PUSH1 0x40 MLOAD DUP1 SWAP2 SUB SWAP1 REVERT JUMPDEST PUSH0 SLOAD PUSH1 0x1 PUSH1 0x1 PUSH1 0xA0 SHL SUB SWAP1 DUP2 AND SWAP1 DUP3 AND SUB PUSH2 0x18BA JUMPI PUSH1 0x40 MLOAD PUSH4 0x2263673F PUSH1 0xE2 SHL DUP2 MSTORE PUSH1 0x4 ADD PUSH1 0x40 MLOAD DUP1 SWAP2 SUB SWAP1 REVERT JUMPDEST PUSH1 0x1 DUP1 SLOAD PUSH1 0x1 PUSH1 0x1 PUSH1 0xA0 SHL SUB NOT AND PUSH1 0x1 PUSH1 0x1 PUSH1 0xA0 SHL SUB DUP4 DUP2 AND SWAP2 DUP3 OR SWAP1 SWAP3 SSTORE PUSH0 DUP1 SLOAD PUSH1 0x40 MLOAD SWAP3 SWAP4 AND SWAP2 PUSH32 0xB4D7BCB4D9A5D6EF6E827E3B1554E5A2578AD9CA843903D42B05D08BFA345894 SWAP2 SWAP1 LOG3 POP JUMP JUMPDEST PUSH1 0x9 SLOAD PUSH1 0xFF AND PUSH2 0x192D JUMPI PUSH1 0x40 MLOAD PUSH4 0x55E9E641 PUSH1 0xE1 SHL DUP2 MSTORE PUSH1 0x4 ADD PUSH1 0x40 MLOAD DUP1 SWAP2 SUB SWAP1 REVERT JUMPDEST PUSH1 0x3 DUP1 PUSH1 0x2 SLOAD PUSH1 0x1 PUSH1 0xA0 SHL SWAP1 DIV PUSH1 0xFF AND PUSH1 0x7 DUP2 GT ISZERO PUSH2 0x194E JUMPI PUSH2 0x194E PUSH2 0x3075 JUMP JUMPDEST EQ PUSH2 0x196C JUMPI PUSH1 0x40 MLOAD PUSH4 0x187FA83 PUSH1 0xE6 SHL DUP2 MSTORE PUSH1 0x4 ADD PUSH1 0x40 MLOAD DUP1 SWAP2 SUB SWAP1 REVERT JUMPDEST PUSH1 0xE SLOAD PUSH1 0x1 PUSH1 0x1 PUSH1 0xA0 SHL SUB AND CALLER EQ PUSH2 0x1997 JUMPI PUSH1 0x40 MLOAD PUSH4 0x760576B9 PUSH1 0xE0 SHL DUP2 MSTORE PUSH1 0x4 ADD PUSH1 0x40 MLOAD DUP1 SWAP2 SUB SWAP1 REVERT JUMPDEST PUSH1 0x2 SLOAD PUSH1 0x1 PUSH1 0x1 PUSH1 0xA0 SHL SUB AND PUSH2 0x19C0 JUMPI PUSH1 0x40 MLOAD PUSH4 0xD6EA3663 PUSH1 0xE0 SHL DUP2 MSTORE PUSH1 0x4 ADD PUSH1 0x40 MLOAD DUP1 SWAP2 SUB SWAP1 REVERT JUMPDEST DUP2 PUSH2 0x19DE JUMPI PUSH1 0x40 MLOAD PUSH4 0x3D4AAD4D PUSH1 0xE2 SHL DUP2 MSTORE PUSH1 0x4 ADD PUSH1 0x40 MLOAD DUP1 SWAP2 SUB SWAP1 REVERT JUMPDEST PUSH1 0x10 DUP3 SWAP1 SSTORE PUSH1 0x2 DUP1 SLOAD PUSH1 0xFF PUSH1 0xA0 SHL NOT AND PUSH1 0x1 PUSH1 0xA2 SHL OR SWAP1 SSTORE PUSH1 0x40 DUP1 MLOAD CALLER DUP2 MSTORE PUSH1 0x20 DUP2 ADD DUP5 SWAP1 MSTORE PUSH32 0xAE1F4649889BE6B26BCF006A04C674019D1EBAFAA07F234652D80CB084E77C57 SWAP2 ADD PUSH2 0x9B3 JUMP JUMPDEST PUSH1 0xF SLOAD PUSH1 0xE SLOAD PUSH1 0x1 PUSH1 0x1 PUSH1 0xA0 SHL SUB AND PUSH0 DUP2 DUP2 MSTORE PUSH1 0xB PUSH1 0x20 MSTORE PUSH1 0x40 DUP2 KECCAK256 DUP1 SLOAD SWAP2 SWAP4 DUP5 SWAP4 PUSH1 0x60 SWAP4 SWAP2 SWAP3 SWAP1 SWAP2 DUP2 SWAP1 PUSH2 0x1A60 SWAP1 PUSH2 0x36FC JUMP JUMPDEST DUP1 PUSH1 0x1F ADD PUSH1 0x20 DUP1 SWAP2 DIV MUL PUSH1 0x20 ADD PUSH1 0x40 MLOAD SWAP1 DUP2 ADD PUSH1 0x40 MSTORE DUP1 SWAP3 SWAP2 SWAP1 DUP2 DUP2 MSTORE PUSH1 0x20 ADD DUP3 DUP1 SLOAD PUSH2 0x1A8C SWAP1 PUSH2 0x36FC JUMP JUMPDEST DUP1 ISZERO PUSH2 0x1AD7 JUMPI DUP1 PUSH1 0x1F LT PUSH2 0x1AAE JUMPI PUSH2 0x100 DUP1 DUP4 SLOAD DIV MUL DUP4 MSTORE SWAP2 PUSH1 0x20 ADD SWAP2 PUSH2 0x1AD7 JUMP JUMPDEST DUP3 ADD SWAP2 SWAP1 PUSH0 MSTORE PUSH1 0x20 PUSH0 KECCAK256 SWAP1 JUMPDEST DUP2 SLOAD DUP2 MSTORE SWAP1 PUSH1 0x1 ADD SWAP1 PUSH1 0x20 ADD DUP1 DUP4 GT PUSH2 0x1ABA JUMPI DUP3 SWAP1 SUB PUSH1 0x1F AND DUP3 ADD SWAP2 JUMPDEST POP POP POP POP POP SWAP1 POP SWAP3 POP SWAP3 POP SWAP3 POP SWAP1 SWAP2 SWAP3 JUMP JUMPDEST PUSH1 0xE SLOAD PUSH0 SWAP1 DUP2 SWAP1 PUSH1 0x1 PUSH1 0x1 PUSH1 0xA0 SHL SUB AND CALLER EQ PUSH2 0x1B18 JUMPI PUSH1 0x40 MLOAD PUSH4 0x760576B9 PUSH1 0xE0 SHL DUP2 MSTORE PUSH1 0x4 ADD PUSH1 0x40 MLOAD DUP1 SWAP2 SUB SWAP1 REVERT JUMPDEST DUP10 MLOAD PUSH0 SUB PUSH2 0x1B39 JUMPI PUSH1 0x40 MLOAD PUSH4 0xA132199 PUSH1 0xE2 SHL DUP2 MSTORE PUSH1 0x4 ADD PUSH1 0x40 MLOAD DUP1 SWAP2 SUB SWAP1 REVERT JUMPDEST DUP9 MLOAD PUSH0 SUB PUSH2 0x1B5A JUMPI PUSH1 0x40 MLOAD PUSH4 0x19B507DB PUSH1 0xE1 SHL DUP2 MSTORE PUSH1 0x4 ADD PUSH1 0x40 MLOAD DUP1 SWAP2 SUB SWAP1 REVERT JUMPDEST PUSH2 0x1B68 DUP9 DUP9 DUP9 DUP9 DUP9 DUP9 PUSH2 0x2CA3 JUMP JUMPDEST SWAP2 POP DUP10 DUP10 DUP4 PUSH1 0x40 MLOAD PUSH1 0x20 ADD PUSH2 0x1B7F SWAP4 SWAP3 SWAP2 SWAP1 PUSH2 0x384E JUMP JUMPDEST PUSH1 0x40 MLOAD PUSH1 0x20 DUP2 DUP4 SUB SUB DUP2 MSTORE SWAP1 PUSH1 0x40 MSTORE DUP1 MLOAD SWAP1 PUSH1 0x20 ADD KECCAK256 SWAP1 POP SWAP9 POP SWAP9 SWAP7 POP POP POP POP POP POP POP JUMP JUMPDEST PUSH1 0x2 SLOAD PUSH0 SWAP1 DUP2 SWAP1 PUSH1 0x1 PUSH1 0x1 PUSH1 0xA0 SHL SUB AND PUSH2 0x1BD1 JUMPI PUSH1 0x40 MLOAD PUSH4 0xD6EA3663 PUSH1 0xE0 SHL DUP2 MSTORE PUSH1 0x4 ADD PUSH1 0x40 MLOAD DUP1 SWAP2 SUB SWAP1 REVERT JUMPDEST PUSH1 0x2 SLOAD PUSH1 0x1 PUSH1 0x1 PUSH1 0xA0 SHL SUB AND CALLER EQ PUSH2 0x1B18 JUMPI PUSH1 0x40 MLOAD PUSH4 0x9864FBB3 PUSH1 0xE0 SHL DUP2 MSTORE PUSH1 0x4 ADD PUSH1 0x40 MLOAD DUP1 SWAP2 SUB SWAP1 REVERT JUMPDEST PUSH1 0x1 SLOAD PUSH1 0x1 PUSH1 0x1 PUSH1 0xA0 SHL SUB AND CALLER EQ PUSH2 0x1C27 JUMPI PUSH1 0x40 MLOAD PUSH4 0x58D9A1B PUSH1 0xE0 SHL DUP2 MSTORE PUSH1 0x4 ADD PUSH1 0x40 MLOAD DUP1 SWAP2 SUB SWAP1 REVERT JUMPDEST PUSH0 DUP1 SLOAD PUSH1 0x1 DUP1 SLOAD PUSH1 0x1 PUSH1 0x1 PUSH1 0xA0 SHL SUB DUP1 DUP3 AND PUSH1 0x1 PUSH1 0x1 PUSH1 0xA0 SHL SUB NOT DUP1 DUP7 AND DUP3 OR DUP8 SSTORE SWAP1 SWAP3 AND SWAP1 SWAP3 SSTORE PUSH1 0x40 MLOAD SWAP2 SWAP1 SWAP3 AND SWAP3 DUP4 SWAP2 PUSH32 0xF8CCB027DFCD135E000E9D45E6CC2D662578A8825D4C45B5E32E0ADF67E79EC6 SWAP2 SWAP1 LOG3 POP JUMP JUMPDEST PUSH0 SLOAD PUSH1 0x1 PUSH1 0x1 PUSH1 0xA0 SHL SUB AND CALLER EQ PUSH2 0x1CAA JUMPI PUSH1 0x40 MLOAD PUSH4 0x47556579 PUSH1 0xE0 SHL DUP2 MSTORE PUSH1 0x4 ADD PUSH1 0x40 MLOAD DUP1 SWAP2 SUB SWAP1 REVERT JUMPDEST PUSH1 0x9 SLOAD PUSH1 0xFF AND ISZERO PUSH2 0x1CCE JUMPI PUSH1 0x40 MLOAD PUSH4 0xA669250B PUSH1 0xE0 SHL DUP2 MSTORE PUSH1 0x4 ADD PUSH1 0x40 MLOAD DUP1 SWAP2 SUB SWAP1 REVERT JUMPDEST DUP2 PUSH0 SUB PUSH2 0x1CEE JUMPI PUSH1 0x40 MLOAD PUSH4 0x1906E033 PUSH1 0xE3 SHL DUP2 MSTORE PUSH1 0x4 ADD PUSH1 0x40 MLOAD DUP1 SWAP2 SUB SWAP1 REVERT JUMPDEST PUSH0 PUSH2 0x1CFD DUP10 DUP10 DUP10 DUP10 DUP10 DUP10 PUSH2 0x2CA3 JUMP JUMPDEST SWAP1 POP TIMESTAMP DUP2 GT PUSH2 0x1D1F JUMPI PUSH1 0x40 MLOAD PUSH4 0x642CE77 PUSH1 0xE0 SHL DUP2 MSTORE PUSH1 0x4 ADD PUSH1 0x40 MLOAD DUP1 SWAP2 SUB SWAP1 REVERT JUMPDEST PUSH1 0x40 DUP1 MLOAD PUSH1 0xE0 DUP2 ADD DUP3 MSTORE DUP14 DUP2 MSTORE PUSH1 0x20 DUP2 ADD DUP14 SWAP1 MSTORE SWAP1 DUP2 ADD DUP12 SWAP1 MSTORE PUSH1 0x60 DUP2 ADD DUP3 SWAP1 MSTORE PUSH1 0x80 DUP2 ADD DUP5 SWAP1 MSTORE PUSH1 0xA0 DUP2 ADD DUP4 SWAP1 MSTORE PUSH1 0x1 PUSH1 0xC0 DUP3 ADD MSTORE PUSH1 0x3 DUP1 PUSH2 0x1D62 DUP16 DUP3 PUSH2 0x3780 JUMP JUMPDEST POP PUSH1 0x20 DUP3 ADD MLOAD PUSH1 0x1 DUP3 ADD SWAP1 PUSH2 0x1D77 SWAP1 DUP3 PUSH2 0x3780 JUMP JUMPDEST POP PUSH1 0x40 DUP3 ADD MLOAD PUSH1 0x2 DUP3 ADD SWAP1 PUSH2 0x1D8C SWAP1 DUP3 PUSH2 0x3780 JUMP JUMPDEST POP PUSH1 0x60 DUP3 ADD MLOAD PUSH1 0x3 DUP3 ADD SSTORE PUSH1 0x80 DUP3 ADD MLOAD PUSH1 0x4 DUP3 ADD SSTORE PUSH1 0xA0 DUP3 ADD MLOAD PUSH1 0x5 DUP3 ADD SWAP1 PUSH2 0x1DB5 SWAP1 DUP3 PUSH2 0x3780 JUMP JUMPDEST POP PUSH1 0xC0 SWAP2 SWAP1 SWAP2 ADD MLOAD PUSH1 0x6 SWAP1 SWAP2 ADD DUP1 SLOAD PUSH1 0xFF NOT AND SWAP2 ISZERO ISZERO SWAP2 SWAP1 SWAP2 OR SWAP1 SSTORE PUSH1 0x2 DUP1 SLOAD PUSH1 0xFF PUSH1 0xA0 SHL NOT AND SWAP1 SSTORE PUSH1 0x40 MLOAD PUSH32 0x1B8026EDB59EB0A93AC326AC7A523B0055A7BD12F595A560E2E75E798F1D20F1 SWAP1 PUSH2 0x1E14 SWAP1 DUP15 SWAP1 DUP15 SWAP1 DUP6 SWAP1 DUP9 SWAP1 PUSH2 0x3870 JUMP JUMPDEST PUSH1 0x40 MLOAD DUP1 SWAP2 SUB SWAP1 LOG1 POP POP POP POP POP POP POP POP POP POP POP POP JUMP JUMPDEST PUSH1 0x1 PUSH1 0x1 PUSH1 0xA0 SHL SUB DUP2 AND PUSH0 SWAP1 DUP2 MSTORE PUSH1 0xA PUSH1 0x20 SWAP1 DUP2 MSTORE PUSH1 0x40 DUP1 DUP4 KECCAK256 SLOAD PUSH1 0xB SWAP1 SWAP3 MSTORE DUP3 KECCAK256 DUP1 SLOAD PUSH1 0x60 SWAP3 PUSH1 0xFF AND SWAP2 SWAP1 DUP2 SWAP1 PUSH2 0x1E61 SWAP1 PUSH2 0x36FC JUMP JUMPDEST DUP1 PUSH1 0x1F ADD PUSH1 0x20 DUP1 SWAP2 DIV MUL PUSH1 0x20 ADD PUSH1 0x40 MLOAD SWAP1 DUP2 ADD PUSH1 0x40 MSTORE DUP1 SWAP3 SWAP2 SWAP1 DUP2 DUP2 MSTORE PUSH1 0x20 ADD DUP3 DUP1 SLOAD PUSH2 0x1E8D SWAP1 PUSH2 0x36FC JUMP JUMPDEST DUP1 ISZERO PUSH2 0x1ED8 JUMPI DUP1 PUSH1 0x1F LT PUSH2 0x1EAF JUMPI PUSH2 0x100 DUP1 DUP4 SLOAD DIV MUL DUP4 MSTORE SWAP2 PUSH1 0x20 ADD SWAP2 PUSH2 0x1ED8 JUMP JUMPDEST DUP3 ADD SWAP2 SWAP1 PUSH0 MSTORE PUSH1 0x20 PUSH0 KECCAK256 SWAP1 JUMPDEST DUP2 SLOAD DUP2 MSTORE SWAP1 PUSH1 0x1 ADD SWAP1 PUSH1 0x20 ADD DUP1 DUP4 GT PUSH2 0x1EBB JUMPI DUP3 SWAP1 SUB PUSH1 0x1F AND DUP3 ADD SWAP2 JUMPDEST POP POP POP POP POP SWAP1 POP SWAP2 POP SWAP2 POP SWAP2 POP SWAP2 JUMP JUMPDEST PUSH1 0xB PUSH1 0x20 MSTORE PUSH0 SWAP1 DUP2 MSTORE PUSH1 0x40 SWAP1 KECCAK256 DUP1 SLOAD PUSH2 0xC81 SWAP1 PUSH2 0x36FC JUMP JUMPDEST PUSH1 0xD SLOAD PUSH1 0x60 SWAP1 DUP2 SWAP1 DUP2 SWAP1 DUP1 PUSH1 0x1 PUSH1 0x1 PUSH1 0x40 SHL SUB DUP2 GT ISZERO PUSH2 0x1F22 JUMPI PUSH2 0x1F22 PUSH2 0x30FE JUMP JUMPDEST PUSH1 0x40 MLOAD SWAP1 DUP1 DUP3 MSTORE DUP1 PUSH1 0x20 MUL PUSH1 0x20 ADD DUP3 ADD PUSH1 0x40 MSTORE DUP1 ISZERO PUSH2 0x1F4B JUMPI DUP2 PUSH1 0x20 ADD PUSH1 0x20 DUP3 MUL DUP1 CALLDATASIZE DUP4 CALLDATACOPY ADD SWAP1 POP JUMPDEST POP SWAP4 POP DUP1 PUSH1 0x1 PUSH1 0x1 PUSH1 0x40 SHL SUB DUP2 GT ISZERO PUSH2 0x1F66 JUMPI PUSH2 0x1F66 PUSH2 0x30FE JUMP JUMPDEST PUSH1 0x40 MLOAD SWAP1 DUP1 DUP3 MSTORE DUP1 PUSH1 0x20 MUL PUSH1 0x20 ADD DUP3 ADD PUSH1 0x40 MSTORE DUP1 ISZERO PUSH2 0x1F8F JUMPI DUP2 PUSH1 0x20 ADD PUSH1 0x20 DUP3 MUL DUP1 CALLDATASIZE DUP4 CALLDATACOPY ADD SWAP1 POP JUMPDEST POP SWAP3 POP DUP1 PUSH1 0x1 PUSH1 0x1 PUSH1 0x40 SHL SUB DUP2 GT ISZERO PUSH2 0x1FAA JUMPI PUSH2 0x1FAA PUSH2 0x30FE JUMP JUMPDEST PUSH1 0x40 MLOAD SWAP1 DUP1 DUP3 MSTORE DUP1 PUSH1 0x20 MUL PUSH1 0x20 ADD DUP3 ADD PUSH1 0x40 MSTORE DUP1 ISZERO PUSH2 0x1FDD JUMPI DUP2 PUSH1 0x20 ADD JUMPDEST PUSH1 0x60 DUP2 MSTORE PUSH1 0x20 ADD SWAP1 PUSH1 0x1 SWAP1 SUB SWAP1 DUP2 PUSH2 0x1FC8 JUMPI SWAP1 POP JUMPDEST POP SWAP2 POP PUSH0 JUMPDEST DUP2 DUP2 LT ISZERO PUSH2 0x2124 JUMPI PUSH0 PUSH1 0xD DUP3 DUP2 SLOAD DUP2 LT PUSH2 0x1FFE JUMPI PUSH2 0x1FFE PUSH2 0x383A JUMP JUMPDEST SWAP1 PUSH0 MSTORE PUSH1 0x20 PUSH0 KECCAK256 ADD PUSH0 SWAP1 SLOAD SWAP1 PUSH2 0x100 EXP SWAP1 DIV PUSH1 0x1 PUSH1 0x1 PUSH1 0xA0 SHL SUB AND SWAP1 POP DUP2 DUP7 DUP4 DUP2 MLOAD DUP2 LT PUSH2 0x202E JUMPI PUSH2 0x202E PUSH2 0x383A JUMP JUMPDEST PUSH1 0x20 MUL PUSH1 0x20 ADD ADD DUP2 DUP2 MSTORE POP POP DUP1 DUP6 DUP4 DUP2 MLOAD DUP2 LT PUSH2 0x204D JUMPI PUSH2 0x204D PUSH2 0x383A JUMP JUMPDEST PUSH1 0x1 PUSH1 0x1 PUSH1 0xA0 SHL SUB SWAP3 DUP4 AND PUSH1 0x20 SWAP2 DUP3 MUL SWAP3 SWAP1 SWAP3 ADD DUP2 ADD SWAP2 SWAP1 SWAP2 MSTORE SWAP1 DUP3 AND PUSH0 SWAP1 DUP2 MSTORE PUSH1 0xB SWAP1 SWAP2 MSTORE PUSH1 0x40 SWAP1 KECCAK256 DUP1 SLOAD PUSH2 0x2082 SWAP1 PUSH2 0x36FC JUMP JUMPDEST DUP1 PUSH1 0x1F ADD PUSH1 0x20 DUP1 SWAP2 DIV MUL PUSH1 0x20 ADD PUSH1 0x40 MLOAD SWAP1 DUP2 ADD PUSH1 0x40 MSTORE DUP1 SWAP3 SWAP2 SWAP1 DUP2 DUP2 MSTORE PUSH1 0x20 ADD DUP3 DUP1 SLOAD PUSH2 0x20AE SWAP1 PUSH2 0x36FC JUMP JUMPDEST DUP1 ISZERO PUSH2 0x20F9 JUMPI DUP1 PUSH1 0x1F LT PUSH2 0x20D0 JUMPI PUSH2 0x100 DUP1 DUP4 SLOAD DIV MUL DUP4 MSTORE SWAP2 PUSH1 0x20 ADD SWAP2 PUSH2 0x20F9 JUMP JUMPDEST DUP3 ADD SWAP2 SWAP1 PUSH0 MSTORE PUSH1 0x20 PUSH0 KECCAK256 SWAP1 JUMPDEST DUP2 SLOAD DUP2 MSTORE SWAP1 PUSH1 0x1 ADD SWAP1 PUSH1 0x20 ADD DUP1 DUP4 GT PUSH2 0x20DC JUMPI DUP3 SWAP1 SUB PUSH1 0x1F AND DUP3 ADD SWAP2 JUMPDEST POP POP POP POP POP DUP5 DUP4 DUP2 MLOAD DUP2 LT PUSH2 0x2110 JUMPI PUSH2 0x2110 PUSH2 0x383A JUMP JUMPDEST PUSH1 0x20 SWAP1 DUP2 MUL SWAP2 SWAP1 SWAP2 ADD ADD MSTORE POP PUSH1 0x1 ADD PUSH2 0x1FE2 JUMP JUMPDEST POP POP SWAP1 SWAP2 SWAP3 JUMP JUMPDEST PUSH0 SLOAD PUSH1 0x1 PUSH1 0x1 PUSH1 0xA0 SHL SUB AND CALLER EQ PUSH2 0x2155 JUMPI PUSH1 0x40 MLOAD PUSH4 0x47556579 PUSH1 0xE0 SHL DUP2 MSTORE PUSH1 0x4 ADD PUSH1 0x40 MLOAD DUP1 SWAP2 SUB SWAP1 REVERT JUMPDEST PUSH1 0x40 DUP1 MLOAD CALLVALUE DUP2 MSTORE SELFBALANCE PUSH1 0x20 DUP3 ADD MSTORE CALLER SWAP2 PUSH32 0x3B31CBADFD3FD939750F09D3BDBD6C0531DDE23F05D55DCC202798F39D090895 SWAP2 ADD PUSH1 0x40 MLOAD DUP1 SWAP2 SUB SWAP1 LOG2 JUMP JUMPDEST PUSH0 SLOAD PUSH1 0x1 PUSH1 0x1 PUSH1 0xA0 SHL SUB AND CALLER EQ PUSH2 0x21BB JUMPI PUSH1 0x40 MLOAD PUSH4 0x47556579 PUSH1 0xE0 SHL DUP2 MSTORE PUSH1 0x4 ADD PUSH1 0x40 MLOAD DUP1 SWAP2 SUB SWAP1 REVERT JUMPDEST PUSH1 0x9 SLOAD PUSH1 0xFF AND PUSH2 0x21DE JUMPI PUSH1 0x40 MLOAD PUSH4 0x55E9E641 PUSH1 0xE1 SHL DUP2 MSTORE PUSH1 0x4 ADD PUSH1 0x40 MLOAD DUP1 SWAP2 SUB SWAP1 REVERT JUMPDEST PUSH1 0x2 DUP1 PUSH1 0x2 SLOAD PUSH1 0x1 PUSH1 0xA0 SHL SWAP1 DIV PUSH1 0xFF AND PUSH1 0x7 DUP2 GT ISZERO PUSH2 0x21FF JUMPI PUSH2 0x21FF PUSH2 0x3075 JUMP JUMPDEST EQ PUSH2 0x221D JUMPI PUSH1 0x40 MLOAD PUSH4 0x187FA83 PUSH1 0xE6 SHL DUP2 MSTORE PUSH1 0x4 ADD PUSH1 0x40 MLOAD DUP1 SWAP2 SUB SWAP1 REVERT JUMPDEST PUSH1 0xE SLOAD PUSH1 0x1 PUSH1 0x1 PUSH1 0xA0 SHL SUB AND PUSH2 0x2246 JUMPI PUSH1 0x40 MLOAD PUSH4 0x368F2B97 PUSH1 0xE2 SHL DUP2 MSTORE PUSH1 0x4 ADD PUSH1 0x40 MLOAD DUP1 SWAP2 SUB SWAP1 REVERT JUMPDEST PUSH1 0x2 DUP1 SLOAD PUSH1 0xFF PUSH1 0xA0 SHL NOT AND PUSH1 0x3 PUSH1 0xA0 SHL OR SWAP1 SSTORE PUSH1 0xE SLOAD PUSH1 0xF SLOAD PUSH1 0x40 DUP1 MLOAD PUSH1 0x1 PUSH1 0x1 PUSH1 0xA0 SHL SUB SWAP1 SWAP4 AND DUP4 MSTORE PUSH1 0x20 DUP4 ADD SWAP2 SWAP1 SWAP2 MSTORE PUSH32 0xB973B46A8F1E88B970A622BF0CF618B80895EFA9AF0B01EDD9B2608FB8A6914E SWAP2 ADD PUSH2 0x11B5 JUMP JUMPDEST PUSH0 SLOAD PUSH1 0x1 PUSH1 0x1 PUSH1 0xA0 SHL SUB AND CALLER EQ PUSH2 0x22CA JUMPI PUSH1 0x40 MLOAD PUSH4 0x47556579 PUSH1 0xE0 SHL DUP2 MSTORE PUSH1 0x4 ADD PUSH1 0x40 MLOAD DUP1 SWAP2 SUB SWAP1 REVERT JUMPDEST PUSH1 0x9 SLOAD PUSH1 0xFF AND PUSH2 0x22ED JUMPI PUSH1 0x40 MLOAD PUSH4 0x55E9E641 PUSH1 0xE1 SHL DUP2 MSTORE PUSH1 0x4 ADD PUSH1 0x40 MLOAD DUP1 SWAP2 SUB SWAP1 REVERT JUMPDEST PUSH1 0x6 DUP1 PUSH1 0x2 SLOAD PUSH1 0x1 PUSH1 0xA0 SHL SWAP1 DIV PUSH1 0xFF AND PUSH1 0x7 DUP2 GT ISZERO PUSH2 0x230E JUMPI PUSH2 0x230E PUSH2 0x3075 JUMP JUMPDEST EQ PUSH2 0x232C JUMPI PUSH1 0x40 MLOAD PUSH4 0x187FA83 PUSH1 0xE6 SHL DUP2 MSTORE PUSH1 0x4 ADD PUSH1 0x40 MLOAD DUP1 SWAP2 SUB SWAP1 REVERT JUMPDEST PUSH1 0x13 SLOAD PUSH2 0x100 SWAP1 DIV PUSH1 0xFF AND ISZERO PUSH2 0x2355 JUMPI PUSH1 0x40 MLOAD PUSH4 0xC5F2BE51 PUSH1 0xE0 SHL DUP2 MSTORE PUSH1 0x4 ADD PUSH1 0x40 MLOAD DUP1 SWAP2 SUB SWAP1 REVERT JUMPDEST PUSH1 0x13 DUP1 SLOAD PUSH2 0xFF00 NOT DUP2 AND PUSH2 0x100 OR SWAP1 SWAP2 SSTORE PUSH1 0xFF AND ISZERO PUSH2 0x2387 JUMPI PUSH1 0x40 MLOAD PUSH4 0x17CBD45 PUSH1 0xE6 SHL DUP2 MSTORE PUSH1 0x4 ADD PUSH1 0x40 MLOAD DUP1 SWAP2 SUB SWAP1 REVERT JUMPDEST PUSH1 0xE SLOAD PUSH1 0x1 PUSH1 0x1 PUSH1 0xA0 SHL SUB AND PUSH2 0x23B0 JUMPI PUSH1 0x40 MLOAD PUSH4 0xD5881CA9 PUSH1 0xE0 SHL DUP2 MSTORE PUSH1 0x4 ADD PUSH1 0x40 MLOAD DUP1 SWAP2 SUB SWAP1 REVERT JUMPDEST PUSH1 0xF SLOAD PUSH0 SUB PUSH2 0x23D2 JUMPI PUSH1 0x40 MLOAD PUSH4 0xC12FE7D PUSH1 0xE0 SHL DUP2 MSTORE PUSH1 0x4 ADD PUSH1 0x40 MLOAD DUP1 SWAP2 SUB SWAP1 REVERT JUMPDEST PUSH1 0xF SLOAD SELFBALANCE LT ISZERO PUSH2 0x23F5 JUMPI PUSH1 0x40 MLOAD PUSH4 0x786E0A99 PUSH1 0xE0 SHL DUP2 MSTORE PUSH1 0x4 ADD PUSH1 0x40 MLOAD DUP1 SWAP2 SUB SWAP1 REVERT JUMPDEST PUSH1 0x13 DUP1 SLOAD PUSH1 0xFF NOT AND PUSH1 0x1 OR SWAP1 SSTORE PUSH1 0x2 DUP1 SLOAD PUSH1 0xFF PUSH1 0xA0 SHL NOT AND PUSH1 0x7 PUSH1 0xA0 SHL OR SWAP1 SSTORE PUSH1 0xE SLOAD PUSH1 0xF SLOAD PUSH1 0x40 MLOAD PUSH0 SWAP3 PUSH1 0x1 PUSH1 0x1 PUSH1 0xA0 SHL SUB AND SWAP2 SWAP1 DUP4 DUP2 DUP2 DUP2 DUP6 DUP8 GAS CALL SWAP3 POP POP POP RETURNDATASIZE DUP1 PUSH0 DUP2 EQ PUSH2 0x2461 JUMPI PUSH1 0x40 MLOAD SWAP2 POP PUSH1 0x1F NOT PUSH1 0x3F RETURNDATASIZE ADD AND DUP3 ADD PUSH1 0x40 MSTORE RETURNDATASIZE DUP3 MSTORE RETURNDATASIZE PUSH0 PUSH1 0x20 DUP5 ADD RETURNDATACOPY PUSH2 0x2466 JUMP JUMPDEST PUSH1 0x60 SWAP2 POP JUMPDEST POP POP SWAP1 POP DUP1 PUSH2 0x2488 JUMPI PUSH1 0x40 MLOAD PUSH4 0x2EE66EED PUSH1 0xE0 SHL DUP2 MSTORE PUSH1 0x4 ADD PUSH1 0x40 MLOAD DUP1 SWAP2 SUB SWAP1 REVERT JUMPDEST PUSH1 0xE SLOAD PUSH1 0xF SLOAD PUSH1 0x40 DUP1 MLOAD PUSH1 0x1 PUSH1 0x1 PUSH1 0xA0 SHL SUB SWAP1 SWAP4 AND DUP4 MSTORE PUSH1 0x20 DUP4 ADD SWAP2 SWAP1 SWAP2 MSTORE PUSH32 0xDF20FD1E76BC69D672E4814FAFB2C449BBA3A5369D8359ADF9E05E6FDE87B056 SWAP2 ADD PUSH1 0x40 MLOAD DUP1 SWAP2 SUB SWAP1 LOG1 POP POP PUSH1 0x13 DUP1 SLOAD PUSH2 0xFF00 NOT AND SWAP1 SSTORE JUMP JUMPDEST PUSH1 0xD DUP2 DUP2 SLOAD DUP2 LT PUSH2 0x24F0 JUMPI PUSH0 DUP1 REVERT JUMPDEST PUSH0 SWAP2 DUP3 MSTORE PUSH1 0x20 SWAP1 SWAP2 KECCAK256 ADD SLOAD PUSH1 0x1 PUSH1 0x1 PUSH1 0xA0 SHL SUB AND SWAP1 POP DUP2 JUMP JUMPDEST PUSH1 0xE SLOAD PUSH1 0x1 PUSH1 0x1 PUSH1 0xA0 SHL SUB AND PUSH0 DUP2 DUP2 MSTORE PUSH1 0xB PUSH1 0x20 MSTORE PUSH1 0x40 DUP2 KECCAK256 DUP1 SLOAD SWAP2 SWAP3 PUSH1 0x60 SWAP3 SWAP1 SWAP2 SWAP1 DUP2 SWAP1 PUSH2 0x2537 SWAP1 PUSH2 0x36FC JUMP JUMPDEST DUP1 PUSH1 0x1F ADD PUSH1 0x20 DUP1 SWAP2 DIV MUL PUSH1 0x20 ADD PUSH1 0x40 MLOAD SWAP1 DUP2 ADD PUSH1 0x40 MSTORE DUP1 SWAP3 SWAP2 SWAP1 DUP2 DUP2 MSTORE PUSH1 0x20 ADD DUP3 DUP1 SLOAD PUSH2 0x2563 SWAP1 PUSH2 0x36FC JUMP JUMPDEST DUP1 ISZERO PUSH2 0x25AE JUMPI DUP1 PUSH1 0x1F LT PUSH2 0x2585 JUMPI PUSH2 0x100 DUP1 DUP4 SLOAD DIV MUL DUP4 MSTORE SWAP2 PUSH1 0x20 ADD SWAP2 PUSH2 0x25AE JUMP JUMPDEST DUP3 ADD SWAP2 SWAP1 PUSH0 MSTORE PUSH1 0x20 PUSH0 KECCAK256 SWAP1 JUMPDEST DUP2 SLOAD DUP2 MSTORE SWAP1 PUSH1 0x1 ADD SWAP1 PUSH1 0x20 ADD DUP1 DUP4 GT PUSH2 0x2591 JUMPI DUP3 SWAP1 SUB PUSH1 0x1F AND DUP3 ADD SWAP2 JUMPDEST POP POP POP POP POP SWAP1 POP SWAP2 POP SWAP2 POP SWAP1 SWAP2 JUMP JUMPDEST PUSH1 0x6 SLOAD PUSH1 0x7 SLOAD PUSH1 0x2 SLOAD PUSH1 0x60 SWAP3 DUP4 SWAP3 DUP4 SWAP3 PUSH0 SWAP3 DUP4 SWAP3 DUP6 SWAP3 DUP5 SWAP3 DUP5 SWAP3 DUP5 SWAP3 DUP5 SWAP3 DUP5 SWAP3 PUSH1 0x3 SWAP3 PUSH1 0x4 SWAP3 PUSH1 0x5 SWAP3 SWAP1 SWAP2 PUSH1 0x8 SWAP1 PUSH1 0x1 PUSH1 0xA0 SHL SWAP1 DIV PUSH1 0xFF AND PUSH2 0x25FE DUP2 PUSH2 0x2951 JUMP JUMPDEST PUSH1 0xE SLOAD PUSH1 0x1 PUSH1 0x1 PUSH1 0xA0 SHL SUB AND PUSH0 DUP2 DUP2 MSTORE PUSH1 0xB PUSH1 0x20 MSTORE PUSH1 0x40 SWAP1 KECCAK256 PUSH1 0xF SLOAD DUP11 SLOAD DUP12 SWAP1 PUSH2 0x2627 SWAP1 PUSH2 0x36FC JUMP JUMPDEST DUP1 PUSH1 0x1F ADD PUSH1 0x20 DUP1 SWAP2 DIV MUL PUSH1 0x20 ADD PUSH1 0x40 MLOAD SWAP1 DUP2 ADD PUSH1 0x40 MSTORE DUP1 SWAP3 SWAP2 SWAP1 DUP2 DUP2 MSTORE PUSH1 0x20 ADD DUP3 DUP1 SLOAD PUSH2 0x2653 SWAP1 PUSH2 0x36FC JUMP JUMPDEST DUP1 ISZERO PUSH2 0x269E JUMPI DUP1 PUSH1 0x1F LT PUSH2 0x2675 JUMPI PUSH2 0x100 DUP1 DUP4 SLOAD DIV MUL DUP4 MSTORE SWAP2 PUSH1 0x20 ADD SWAP2 PUSH2 0x269E JUMP JUMPDEST DUP3 ADD SWAP2 SWAP1 PUSH0 MSTORE PUSH1 0x20 PUSH0 KECCAK256 SWAP1 JUMPDEST DUP2 SLOAD DUP2 MSTORE SWAP1 PUSH1 0x1 ADD SWAP1 PUSH1 0x20 ADD DUP1 DUP4 GT PUSH2 0x2681 JUMPI DUP3 SWAP1 SUB PUSH1 0x1F AND DUP3 ADD SWAP2 JUMPDEST POP POP POP POP POP SWAP11 POP DUP10 DUP1 SLOAD PUSH2 0x26B1 SWAP1 PUSH2 0x36FC JUMP JUMPDEST DUP1 PUSH1 0x1F ADD PUSH1 0x20 DUP1 SWAP2 DIV MUL PUSH1 0x20 ADD PUSH1 0x40 MLOAD SWAP1 DUP2 ADD PUSH1 0x40 MSTORE DUP1 SWAP3 SWAP2 SWAP1 DUP2 DUP2 MSTORE PUSH1 0x20 ADD DUP3 DUP1 SLOAD PUSH2 0x26DD SWAP1 PUSH2 0x36FC JUMP JUMPDEST DUP1 ISZERO PUSH2 0x2728 JUMPI DUP1 PUSH1 0x1F LT PUSH2 0x26FF JUMPI PUSH2 0x100 DUP1 DUP4 SLOAD DIV MUL DUP4 MSTORE SWAP2 PUSH1 0x20 ADD SWAP2 PUSH2 0x2728 JUMP JUMPDEST DUP3 ADD SWAP2 SWAP1 PUSH0 MSTORE PUSH1 0x20 PUSH0 KECCAK256 SWAP1 JUMPDEST DUP2 SLOAD DUP2 MSTORE SWAP1 PUSH1 0x1 ADD SWAP1 PUSH1 0x20 ADD DUP1 DUP4 GT PUSH2 0x270B JUMPI DUP3 SWAP1 SUB PUSH1 0x1F AND DUP3 ADD SWAP2 JUMPDEST POP POP POP POP POP SWAP10 POP DUP9 DUP1 SLOAD PUSH2 0x273B SWAP1 PUSH2 0x36FC JUMP JUMPDEST DUP1 PUSH1 0x1F ADD PUSH1 0x20 DUP1 SWAP2 DIV MUL PUSH1 0x20 ADD PUSH1 0x40 MLOAD SWAP1 DUP2 ADD PUSH1 0x40 MSTORE DUP1 SWAP3 SWAP2 SWAP1 DUP2 DUP2 MSTORE PUSH1 0x20 ADD DUP3 DUP1 SLOAD PUSH2 0x2767 SWAP1 PUSH2 0x36FC JUMP JUMPDEST DUP1 ISZERO PUSH2 0x27B2 JUMPI DUP1 PUSH1 0x1F LT PUSH2 0x2789 JUMPI PUSH2 0x100 DUP1 DUP4 SLOAD DIV MUL DUP4 MSTORE SWAP2 PUSH1 0x20 ADD SWAP2 PUSH2 0x27B2 JUMP JUMPDEST DUP3 ADD SWAP2 SWAP1 PUSH0 MSTORE PUSH1 0x20 PUSH0 KECCAK256 SWAP1 JUMPDEST DUP2 SLOAD DUP2 MSTORE SWAP1 PUSH1 0x1 ADD SWAP1 PUSH1 0x20 ADD DUP1 DUP4 GT PUSH2 0x2795 JUMPI DUP3 SWAP1 SUB PUSH1 0x1F AND DUP3 ADD SWAP2 JUMPDEST POP POP POP POP POP SWAP9 POP DUP6 DUP1 SLOAD PUSH2 0x27C5 SWAP1 PUSH2 0x36FC JUMP JUMPDEST DUP1 PUSH1 0x1F ADD PUSH1 0x20 DUP1 SWAP2 DIV MUL PUSH1 0x20 ADD PUSH1 0x40 MLOAD SWAP1 DUP2 ADD PUSH1 0x40 MSTORE DUP1 SWAP3 SWAP2 SWAP1 DUP2 DUP2 MSTORE PUSH1 0x20 ADD DUP3 DUP1 SLOAD PUSH2 0x27F1 SWAP1 PUSH2 0x36FC JUMP JUMPDEST DUP1 ISZERO PUSH2 0x283C JUMPI DUP1 PUSH1 0x1F LT PUSH2 0x2813 JUMPI PUSH2 0x100 DUP1 DUP4 SLOAD DIV MUL DUP4 MSTORE SWAP2 PUSH1 0x20 ADD SWAP2 PUSH2 0x283C JUMP JUMPDEST DUP3 ADD SWAP2 SWAP1 PUSH0 MSTORE PUSH1 0x20 PUSH0 KECCAK256 SWAP1 JUMPDEST DUP2 SLOAD DUP2 MSTORE SWAP1 PUSH1 0x1 ADD SWAP1 PUSH1 0x20 ADD DUP1 DUP4 GT PUSH2 0x281F JUMPI DUP3 SWAP1 SUB PUSH1 0x1F AND DUP3 ADD SWAP2 JUMPDEST POP POP POP POP POP SWAP6 POP DUP2 DUP1 SLOAD PUSH2 0x284F SWAP1 PUSH2 0x36FC JUMP JUMPDEST DUP1 PUSH1 0x1F ADD PUSH1 0x20 DUP1 SWAP2 DIV MUL PUSH1 0x20 ADD PUSH1 0x40 MLOAD SWAP1 DUP2 ADD PUSH1 0x40 MSTORE DUP1 SWAP3 SWAP2 SWAP1 DUP2 DUP2 MSTORE PUSH1 0x20 ADD DUP3 DUP1 SLOAD PUSH2 0x287B SWAP1 PUSH2 0x36FC JUMP JUMPDEST DUP1 ISZERO PUSH2 0x28C6 JUMPI DUP1 PUSH1 0x1F LT PUSH2 0x289D JUMPI PUSH2 0x100 DUP1 DUP4 SLOAD DIV MUL DUP4 MSTORE SWAP2 PUSH1 0x20 ADD SWAP2 PUSH2 0x28C6 JUMP JUMPDEST DUP3 ADD SWAP2 SWAP1 PUSH0 MSTORE PUSH1 0x20 PUSH0 KECCAK256 SWAP1 JUMPDEST DUP2 SLOAD DUP2 MSTORE SWAP1 PUSH1 0x1 ADD SWAP1 PUSH1 0x20 ADD DUP1 DUP4 GT PUSH2 0x28A9 JUMPI DUP3 SWAP1 SUB PUSH1 0x1F AND DUP3 ADD SWAP2 JUMPDEST POP POP POP POP POP SWAP2 POP SWAP11 POP SWAP11 POP SWAP11 POP SWAP11 POP SWAP11 POP SWAP11 POP SWAP11 POP SWAP11 POP SWAP11 POP SWAP11 POP SWAP11 POP SWAP1 SWAP2 SWAP3 SWAP4 SWAP5 SWAP6 SWAP7 SWAP8 SWAP9 SWAP10 SWAP11 JUMP JUMPDEST CALLER PUSH0 SWAP1 DUP2 MSTORE PUSH1 0xA PUSH1 0x20 MSTORE PUSH1 0x40 DUP2 KECCAK256 SLOAD PUSH1 0xFF AND PUSH2 0x291F JUMPI PUSH1 0x40 MLOAD PUSH4 0x2F9CE37 PUSH1 0xE5 SHL DUP2 MSTORE PUSH1 0x4 ADD PUSH1 0x40 MLOAD DUP1 SWAP2 SUB SWAP1 REVERT JUMPDEST DUP3 DUP3 PUSH1 0x40 MLOAD PUSH1 0x20 ADD PUSH2 0x2932 SWAP3 SWAP2 SWAP1 PUSH2 0x36EB JUMP JUMPDEST PUSH1 0x40 MLOAD PUSH1 0x20 DUP2 DUP4 SUB SUB DUP2 MSTORE SWAP1 PUSH1 0x40 MSTORE DUP1 MLOAD SWAP1 PUSH1 0x20 ADD KECCAK256 SWAP1 POP JUMPDEST SWAP3 SWAP2 POP POP JUMP JUMPDEST PUSH1 0x60 PUSH0 DUP3 PUSH1 0x7 DUP2 GT ISZERO PUSH2 0x2966 JUMPI PUSH2 0x2966 PUSH2 0x3075 JUMP JUMPDEST SUB PUSH2 0x298E JUMPI POP POP PUSH1 0x40 DUP1 MLOAD DUP1 DUP3 ADD SWAP1 SWAP2 MSTORE PUSH1 0x7 DUP2 MSTORE PUSH7 0x10DC99585D1959 PUSH1 0xCA SHL PUSH1 0x20 DUP3 ADD MSTORE SWAP1 JUMP JUMPDEST PUSH1 0x1 DUP3 PUSH1 0x7 DUP2 GT ISZERO PUSH2 0x29A2 JUMPI PUSH2 0x29A2 PUSH2 0x3075 JUMP JUMPDEST SUB PUSH2 0x29CD JUMPI POP POP PUSH1 0x40 DUP1 MLOAD DUP1 DUP3 ADD SWAP1 SWAP2 MSTORE PUSH1 0xA DUP2 MSTORE PUSH10 0x2932BB32B0B627B832B7 PUSH1 0xB1 SHL PUSH1 0x20 DUP3 ADD MSTORE SWAP1 JUMP JUMPDEST PUSH1 0x2 DUP3 PUSH1 0x7 DUP2 GT ISZERO PUSH2 0x29E1 JUMPI PUSH2 0x29E1 PUSH2 0x3075 JUMP JUMPDEST SUB PUSH2 0x2A0B JUMPI POP POP PUSH1 0x40 DUP1 MLOAD DUP1 DUP3 ADD SWAP1 SWAP2 MSTORE PUSH1 0x9 DUP2 MSTORE PUSH9 0x115D985B1D585D1959 PUSH1 0xBA SHL PUSH1 0x20 DUP3 ADD MSTORE SWAP1 JUMP JUMPDEST PUSH1 0x3 DUP3 PUSH1 0x7 DUP2 GT ISZERO PUSH2 0x2A1F JUMPI PUSH2 0x2A1F PUSH2 0x3075 JUMP JUMPDEST SUB PUSH2 0x2A47 JUMPI POP POP PUSH1 0x40 DUP1 MLOAD DUP1 DUP3 ADD SWAP1 SWAP2 MSTORE PUSH1 0x7 DUP2 MSTORE PUSH7 0x105DD85C991959 PUSH1 0xCA SHL PUSH1 0x20 DUP3 ADD MSTORE SWAP1 JUMP JUMPDEST PUSH1 0x4 DUP3 PUSH1 0x7 DUP2 GT ISZERO PUSH2 0x2A5B JUMPI PUSH2 0x2A5B PUSH2 0x3075 JUMP JUMPDEST SUB PUSH2 0x2A85 JUMPI POP POP PUSH1 0x40 DUP1 MLOAD DUP1 DUP3 ADD SWAP1 SWAP2 MSTORE PUSH1 0x9 DUP2 MSTORE PUSH9 0x11195B1A5D995C9959 PUSH1 0xBA SHL PUSH1 0x20 DUP3 ADD MSTORE SWAP1 JUMP JUMPDEST PUSH1 0x5 DUP3 PUSH1 0x7 DUP2 GT ISZERO PUSH2 0x2A99 JUMPI PUSH2 0x2A99 PUSH2 0x3075 JUMP JUMPDEST SUB PUSH2 0x2AC2 JUMPI POP POP PUSH1 0x40 DUP1 MLOAD DUP1 DUP3 ADD SWAP1 SWAP2 MSTORE PUSH1 0x8 DUP2 MSTORE PUSH8 0x14995A9958DD1959 PUSH1 0xC2 SHL PUSH1 0x20 DUP3 ADD MSTORE SWAP1 JUMP JUMPDEST PUSH1 0x6 DUP3 PUSH1 0x7 DUP2 GT ISZERO PUSH2 0x2AD6 JUMPI PUSH2 0x2AD6 PUSH2 0x3075 JUMP JUMPDEST SUB PUSH2 0x2AFF JUMPI POP POP PUSH1 0x40 DUP1 MLOAD DUP1 DUP3 ADD SWAP1 SWAP2 MSTORE PUSH1 0x8 DUP2 MSTORE PUSH8 0x1058D8D95C1D1959 PUSH1 0xC2 SHL PUSH1 0x20 DUP3 ADD MSTORE SWAP1 JUMP JUMPDEST PUSH1 0x7 DUP3 PUSH1 0x7 DUP2 GT ISZERO PUSH2 0x2B13 JUMPI PUSH2 0x2B13 PUSH2 0x3075 JUMP JUMPDEST SUB PUSH2 0x2B38 JUMPI POP POP PUSH1 0x40 DUP1 MLOAD DUP1 DUP3 ADD SWAP1 SWAP2 MSTORE PUSH1 0x4 DUP2 MSTORE PUSH4 0x14185A59 PUSH1 0xE2 SHL PUSH1 0x20 DUP3 ADD MSTORE SWAP1 JUMP JUMPDEST POP POP PUSH1 0x40 DUP1 MLOAD DUP1 DUP3 ADD SWAP1 SWAP2 MSTORE PUSH1 0x7 DUP2 MSTORE PUSH7 0x2AB735B737BBB7 PUSH1 0xC9 SHL PUSH1 0x20 DUP3 ADD MSTORE SWAP1 JUMP JUMPDEST PUSH2 0x7B2 PUSH0 DUP1 DUP1 DUP1 DUP1 DUP1 DUP1 JUMPDEST PUSH2 0x2B6F DUP9 PUSH2 0x2E13 JUMP JUMPDEST PUSH2 0x2B7D JUMPI PUSH4 0x1E13380 PUSH2 0x2B83 JUMP JUMPDEST PUSH4 0x1E28500 JUMPDEST PUSH4 0xFFFFFFFF AND SWAP2 POP DUP9 PUSH2 0x2B96 DUP4 DUP6 PUSH2 0x38BC JUMP JUMPDEST GT PUSH2 0x2BB9 JUMPI PUSH2 0x2BA5 DUP3 DUP5 PUSH2 0x38BC JUMP JUMPDEST SWAP3 POP DUP8 PUSH2 0x2BB1 DUP2 PUSH2 0x38CF JUMP JUMPDEST SWAP9 POP POP PUSH2 0x2B66 JUMP JUMPDEST PUSH1 0x1 SWAP7 POP JUMPDEST PUSH2 0x2BC8 DUP9 DUP9 PUSH2 0x2E6F JUMP JUMPDEST PUSH2 0x2BD5 SWAP1 PUSH3 0x15180 PUSH2 0x38E7 JUMP JUMPDEST SWAP1 POP DUP9 PUSH2 0x2BE2 DUP3 DUP6 PUSH2 0x38BC JUMP JUMPDEST GT PUSH2 0x2C05 JUMPI PUSH2 0x2BF1 DUP2 DUP5 PUSH2 0x38BC JUMP JUMPDEST SWAP3 POP DUP7 PUSH2 0x2BFD DUP2 PUSH2 0x38CF JUMP JUMPDEST SWAP8 POP POP PUSH2 0x2BBE JUMP JUMPDEST PUSH3 0x15180 PUSH2 0x2C13 DUP5 DUP12 PUSH2 0x38FE JUMP JUMPDEST PUSH2 0x2C1D SWAP2 SWAP1 PUSH2 0x3925 JUMP JUMPDEST PUSH2 0x2C28 SWAP1 PUSH1 0x1 PUSH2 0x38BC JUMP JUMPDEST SWAP6 POP PUSH2 0x2C35 PUSH1 0x1 DUP8 PUSH2 0x38FE JUMP JUMPDEST PUSH2 0x2C42 SWAP1 PUSH3 0x15180 PUSH2 0x38E7 JUMP JUMPDEST PUSH2 0x2C4C SWAP1 DUP5 PUSH2 0x38BC JUMP JUMPDEST SWAP3 POP PUSH2 0xE10 PUSH2 0x2C5B DUP5 DUP12 PUSH2 0x38FE JUMP JUMPDEST PUSH2 0x2C65 SWAP2 SWAP1 PUSH2 0x3925 JUMP JUMPDEST SWAP5 POP PUSH2 0x2C73 DUP6 PUSH2 0xE10 PUSH2 0x38E7 JUMP JUMPDEST PUSH2 0x2C7D SWAP1 DUP5 PUSH2 0x38BC JUMP JUMPDEST SWAP3 POP PUSH1 0x3C PUSH2 0x2C8B DUP5 DUP12 PUSH2 0x38FE JUMP JUMPDEST PUSH2 0x2C95 SWAP2 SWAP1 PUSH2 0x3925 JUMP JUMPDEST SWAP4 POP POP POP POP SWAP2 SWAP4 SWAP6 SWAP1 SWAP3 SWAP5 POP JUMP JUMPDEST PUSH0 PUSH2 0x7B2 DUP8 LT DUP1 PUSH2 0x2CB5 JUMPI POP PUSH2 0x834 DUP8 GT JUMPDEST ISZERO PUSH2 0x2CD3 JUMPI PUSH1 0x40 MLOAD PUSH4 0x87870BD7 PUSH1 0xE0 SHL DUP2 MSTORE PUSH1 0x4 ADD PUSH1 0x40 MLOAD DUP1 SWAP2 SUB SWAP1 REVERT JUMPDEST PUSH1 0x1 DUP7 LT DUP1 PUSH2 0x2CE2 JUMPI POP PUSH1 0xC DUP7 GT JUMPDEST ISZERO PUSH2 0x2D00 JUMPI PUSH1 0x40 MLOAD PUSH4 0x735A134B PUSH1 0xE1 SHL DUP2 MSTORE PUSH1 0x4 ADD PUSH1 0x40 MLOAD DUP1 SWAP2 SUB SWAP1 REVERT JUMPDEST PUSH1 0x18 DUP5 LT PUSH2 0x2D21 JUMPI PUSH1 0x40 MLOAD PUSH4 0x41A4A6B3 PUSH1 0xE0 SHL DUP2 MSTORE PUSH1 0x4 ADD PUSH1 0x40 MLOAD DUP1 SWAP2 SUB SWAP1 REVERT JUMPDEST PUSH1 0x3C DUP4 LT PUSH2 0x2D42 JUMPI PUSH1 0x40 MLOAD PUSH4 0x2CE35C9B PUSH1 0xE2 SHL DUP2 MSTORE PUSH1 0x4 ADD PUSH1 0x40 MLOAD DUP1 SWAP2 SUB SWAP1 REVERT JUMPDEST PUSH1 0xB NOT DUP3 SLT DUP1 PUSH2 0x2D52 JUMPI POP PUSH1 0xE DUP3 SGT JUMPDEST ISZERO PUSH2 0x2D70 JUMPI PUSH1 0x40 MLOAD PUSH4 0x1D2B089 PUSH1 0xE1 SHL DUP2 MSTORE PUSH1 0x4 ADD PUSH1 0x40 MLOAD DUP1 SWAP2 SUB SWAP1 REVERT JUMPDEST PUSH0 PUSH2 0x2D7B DUP9 DUP9 PUSH2 0x2E6F JUMP JUMPDEST SWAP1 POP PUSH1 0x1 DUP7 LT DUP1 PUSH2 0x2D8B JUMPI POP DUP1 DUP7 GT JUMPDEST ISZERO PUSH2 0x2DA9 JUMPI PUSH1 0x40 MLOAD PUSH4 0xB046F89 PUSH1 0xE2 SHL DUP2 MSTORE PUSH1 0x4 ADD PUSH1 0x40 MLOAD DUP1 SWAP2 SUB SWAP1 REVERT JUMPDEST PUSH2 0x2DB7 DUP9 DUP9 DUP9 DUP9 DUP9 PUSH0 PUSH2 0x2ED3 JUMP JUMPDEST SWAP2 POP PUSH0 DUP4 SGT ISZERO PUSH2 0x2DDE JUMPI PUSH2 0x2DCD DUP4 PUSH2 0xE10 PUSH2 0x38E7 JUMP JUMPDEST PUSH2 0x2DD7 SWAP1 DUP4 PUSH2 0x38FE JUMP JUMPDEST SWAP2 POP PUSH2 0x2E08 JUMP JUMPDEST PUSH0 DUP4 SLT ISZERO PUSH2 0x2E08 JUMPI PUSH2 0x2DEF DUP4 PUSH2 0x3938 JUMP JUMPDEST PUSH2 0x2DFB SWAP1 PUSH2 0xE10 PUSH2 0x38E7 JUMP JUMPDEST PUSH2 0x2E05 SWAP1 DUP4 PUSH2 0x38BC JUMP JUMPDEST SWAP2 POP JUMPDEST POP SWAP7 SWAP6 POP POP POP POP POP POP JUMP JUMPDEST PUSH0 PUSH2 0x2E1F PUSH1 0x4 DUP4 PUSH2 0x3952 JUMP JUMPDEST PUSH2 0xFFFF AND ISZERO PUSH2 0x2E2F JUMPI POP PUSH0 SWAP2 SWAP1 POP JUMP JUMPDEST PUSH2 0x2E3A PUSH1 0x64 DUP4 PUSH2 0x3952 JUMP JUMPDEST PUSH2 0xFFFF AND ISZERO PUSH2 0x2E4B JUMPI POP PUSH1 0x1 SWAP2 SWAP1 POP JUMP JUMPDEST PUSH2 0x2E57 PUSH2 0x190 DUP4 PUSH2 0x3952 JUMP JUMPDEST PUSH2 0xFFFF AND ISZERO PUSH2 0x2E67 JUMPI POP PUSH0 SWAP2 SWAP1 POP JUMP JUMPDEST POP PUSH1 0x1 SWAP2 SWAP1 POP JUMP JUMPDEST PUSH0 DUP2 PUSH1 0x2 SUB PUSH2 0x2E99 JUMPI PUSH2 0x2E81 DUP4 PUSH2 0x2E13 JUMP JUMPDEST PUSH2 0x2E8C JUMPI PUSH1 0x1C PUSH2 0x2E8F JUMP JUMPDEST PUSH1 0x1D JUMPDEST PUSH1 0xFF AND SWAP1 POP PUSH2 0x294B JUMP JUMPDEST DUP2 PUSH1 0x4 EQ DUP1 PUSH2 0x2EA8 JUMPI POP DUP2 PUSH1 0x6 EQ JUMPDEST DUP1 PUSH2 0x2EB3 JUMPI POP DUP2 PUSH1 0x9 EQ JUMPDEST DUP1 PUSH2 0x2EBE JUMPI POP DUP2 PUSH1 0xB EQ JUMPDEST ISZERO PUSH2 0x2ECB JUMPI POP PUSH1 0x1E PUSH2 0x294B JUMP JUMPDEST POP PUSH1 0x1F PUSH2 0x294B JUMP JUMPDEST PUSH0 PUSH2 0x7B2 JUMPDEST DUP8 DUP2 PUSH2 0xFFFF AND LT ISZERO PUSH2 0x2F20 JUMPI PUSH2 0x2EED DUP2 PUSH2 0x2E13 JUMP JUMPDEST ISZERO PUSH2 0x2F07 JUMPI PUSH2 0x2F00 PUSH4 0x1E28500 DUP4 PUSH2 0x38BC JUMP JUMPDEST SWAP2 POP PUSH2 0x2F18 JUMP JUMPDEST PUSH2 0x2F15 PUSH4 0x1E13380 DUP4 PUSH2 0x38BC JUMP JUMPDEST SWAP2 POP JUMPDEST PUSH1 0x1 ADD PUSH2 0x2ED8 JUMP JUMPDEST PUSH1 0x40 DUP1 MLOAD PUSH2 0x180 DUP2 ADD DUP3 MSTORE PUSH1 0x1F DUP1 DUP3 MSTORE PUSH1 0x1C PUSH1 0x20 DUP4 ADD MSTORE SWAP2 DUP2 ADD DUP3 SWAP1 MSTORE PUSH1 0x1E PUSH1 0x60 DUP3 ADD DUP2 SWAP1 MSTORE PUSH1 0x80 DUP3 ADD DUP4 SWAP1 MSTORE PUSH1 0xA0 DUP3 ADD DUP2 SWAP1 MSTORE PUSH1 0xC0 DUP3 ADD DUP4 SWAP1 MSTORE PUSH1 0xE0 DUP3 ADD DUP4 SWAP1 MSTORE PUSH2 0x100 DUP3 ADD DUP2 SWAP1 MSTORE PUSH2 0x120 DUP3 ADD DUP4 SWAP1 MSTORE PUSH2 0x140 DUP3 ADD MSTORE PUSH2 0x160 DUP2 ADD SWAP2 SWAP1 SWAP2 MSTORE PUSH2 0x2F8A DUP10 PUSH2 0x2E13 JUMP JUMPDEST ISZERO PUSH2 0x2F97 JUMPI PUSH1 0x1D PUSH1 0x20 DUP3 ADD MSTORE JUMPDEST PUSH1 0x1 SWAP2 POP JUMPDEST DUP8 DUP3 PUSH2 0xFFFF AND LT ISZERO PUSH2 0x2FF4 JUMPI DUP1 PUSH2 0x2FB4 PUSH1 0x1 DUP5 PUSH2 0x3975 JUMP JUMPDEST PUSH2 0xFFFF AND PUSH1 0xC DUP2 LT PUSH2 0x2FC8 JUMPI PUSH2 0x2FC8 PUSH2 0x383A JUMP JUMPDEST PUSH1 0x20 MUL ADD MLOAD PUSH2 0x2FDD SWAP1 PUSH1 0xFF AND PUSH3 0x15180 PUSH2 0x38E7 JUMP JUMPDEST PUSH2 0x2FE7 SWAP1 DUP5 PUSH2 0x38BC JUMP JUMPDEST SWAP3 POP DUP2 PUSH1 0x1 ADD SWAP2 POP PUSH2 0x2F9C JUMP JUMPDEST PUSH2 0x2FFF PUSH1 0x1 DUP9 PUSH2 0x38FE JUMP JUMPDEST PUSH2 0x300C SWAP1 PUSH3 0x15180 PUSH2 0x38E7 JUMP JUMPDEST PUSH2 0x3016 SWAP1 DUP5 PUSH2 0x38BC JUMP JUMPDEST SWAP3 POP PUSH2 0x3024 DUP7 PUSH2 0xE10 PUSH2 0x38E7 JUMP JUMPDEST PUSH2 0x302E SWAP1 DUP5 PUSH2 0x38BC JUMP JUMPDEST SWAP3 POP PUSH2 0x303B DUP6 PUSH1 0x3C PUSH2 0x38E7 JUMP JUMPDEST PUSH2 0x3045 SWAP1 DUP5 PUSH2 0x38BC JUMP JUMPDEST SWAP3 POP PUSH2 0x3051 DUP5 DUP5 PUSH2 0x38BC JUMP JUMPDEST SWAP10 SWAP9 POP POP POP POP POP POP POP POP POP JUMP JUMPDEST PUSH0 PUSH1 0x20 DUP3 DUP5 SUB SLT ISZERO PUSH2 0x306E JUMPI PUSH0 PUSH0 REVERT JUMPDEST POP CALLDATALOAD SWAP2 SWAP1 POP JUMP JUMPDEST PUSH4 0x4E487B71 PUSH1 0xE0 SHL PUSH0 MSTORE PUSH1 0x21 PUSH1 0x4 MSTORE PUSH1 0x24 PUSH0 REVERT JUMPDEST PUSH1 0x8 DUP2 LT PUSH2 0x30A5 JUMPI PUSH4 0x4E487B71 PUSH1 0xE0 SHL PUSH0 MSTORE PUSH1 0x21 PUSH1 0x4 MSTORE PUSH1 0x24 PUSH0 REVERT JUMPDEST SWAP1 MSTORE JUMP JUMPDEST PUSH0 DUP2 MLOAD DUP1 DUP5 MSTORE DUP1 PUSH1 0x20 DUP5 ADD PUSH1 0x20 DUP7 ADD MCOPY PUSH0 PUSH1 0x20 DUP3 DUP7 ADD ADD MSTORE PUSH1 0x20 PUSH1 0x1F NOT PUSH1 0x1F DUP4 ADD AND DUP6 ADD ADD SWAP2 POP POP SWAP3 SWAP2 POP POP JUMP JUMPDEST PUSH2 0x30E1 DUP2 DUP5 PUSH2 0x3089 JUMP JUMPDEST PUSH1 0x40 PUSH1 0x20 DUP3 ADD MSTORE PUSH0 PUSH2 0x30F6 PUSH1 0x40 DUP4 ADD DUP5 PUSH2 0x30A9 JUMP JUMPDEST SWAP5 SWAP4 POP POP POP POP JUMP JUMPDEST PUSH4 0x4E487B71 PUSH1 0xE0 SHL PUSH0 MSTORE PUSH1 0x41 PUSH1 0x4 MSTORE PUSH1 0x24 PUSH0 REVERT JUMPDEST PUSH0 DUP3 PUSH1 0x1F DUP4 ADD SLT PUSH2 0x3121 JUMPI PUSH0 PUSH0 REVERT JUMPDEST DUP2 CALLDATALOAD PUSH1 0x1 PUSH1 0x1 PUSH1 0x40 SHL SUB DUP2 GT ISZERO PUSH2 0x313A JUMPI PUSH2 0x313A PUSH2 0x30FE JUMP JUMPDEST PUSH1 0x40 MLOAD PUSH1 0x1F DUP3 ADD PUSH1 0x1F NOT SWAP1 DUP2 AND PUSH1 0x3F ADD AND DUP2 ADD PUSH1 0x1 PUSH1 0x1 PUSH1 0x40 SHL SUB DUP2 GT DUP3 DUP3 LT OR ISZERO PUSH2 0x3168 JUMPI PUSH2 0x3168 PUSH2 0x30FE JUMP JUMPDEST PUSH1 0x40 MSTORE DUP2 DUP2 MSTORE DUP4 DUP3 ADD PUSH1 0x20 ADD DUP6 LT ISZERO PUSH2 0x317F JUMPI PUSH0 PUSH0 REVERT JUMPDEST DUP2 PUSH1 0x20 DUP6 ADD PUSH1 0x20 DUP4 ADD CALLDATACOPY PUSH0 SWAP2 DUP2 ADD PUSH1 0x20 ADD SWAP2 SWAP1 SWAP2 MSTORE SWAP4 SWAP3 POP POP POP JUMP JUMPDEST PUSH0 PUSH0 PUSH1 0x40 DUP4 DUP6 SUB SLT ISZERO PUSH2 0x31AC JUMPI PUSH0 PUSH0 REVERT JUMPDEST DUP3 CALLDATALOAD SWAP2 POP PUSH1 0x20 DUP4 ADD CALLDATALOAD PUSH1 0x1 PUSH1 0x1 PUSH1 0x40 SHL SUB DUP2 GT ISZERO PUSH2 0x31C8 JUMPI PUSH0 PUSH0 REVERT JUMPDEST PUSH2 0x31D4 DUP6 DUP3 DUP7 ADD PUSH2 0x3112 JUMP JUMPDEST SWAP2 POP POP SWAP3 POP SWAP3 SWAP1 POP JUMP JUMPDEST PUSH1 0x20 DUP2 MSTORE PUSH0 PUSH2 0x31F0 PUSH1 0x20 DUP4 ADD DUP5 PUSH2 0x30A9 JUMP JUMPDEST SWAP4 SWAP3 POP POP POP JUMP JUMPDEST DUP1 CALLDATALOAD PUSH1 0x1 PUSH1 0x1 PUSH1 0xA0 SHL SUB DUP2 AND DUP2 EQ PUSH2 0x320D JUMPI PUSH0 PUSH0 REVERT JUMPDEST SWAP2 SWAP1 POP JUMP JUMPDEST PUSH0 PUSH1 0x20 DUP3 DUP5 SUB SLT ISZERO PUSH2 0x3222 JUMPI PUSH0 PUSH0 REVERT JUMPDEST PUSH2 0x31F0 DUP3 PUSH2 0x31F7 JUMP JUMPDEST PUSH0 PUSH0 PUSH1 0x40 DUP4 DUP6 SUB SLT ISZERO PUSH2 0x323C JUMPI PUSH0 PUSH0 REVERT JUMPDEST PUSH2 0x3245 DUP4 PUSH2 0x31F7 JUMP JUMPDEST SWAP2 POP PUSH1 0x20 DUP4 ADD CALLDATALOAD PUSH1 0x1 PUSH1 0x1 PUSH1 0x40 SHL SUB DUP2 GT ISZERO PUSH2 0x31C8 JUMPI PUSH0 PUSH0 REVERT JUMPDEST PUSH0 PUSH1 0x20 DUP3 DUP5 SUB SLT ISZERO PUSH2 0x326F JUMPI PUSH0 PUSH0 REVERT JUMPDEST DUP2 CALLDATALOAD PUSH1 0x1 PUSH1 0x1 PUSH1 0x40 SHL SUB DUP2 GT ISZERO PUSH2 0x3284 JUMPI PUSH0 PUSH0 REVERT JUMPDEST PUSH2 0x30F6 DUP5 DUP3 DUP6 ADD PUSH2 0x3112 JUMP JUMPDEST PUSH2 0x180 DUP2 MSTORE PUSH0 PUSH2 0x32A4 PUSH2 0x180 DUP4 ADD DUP16 PUSH2 0x30A9 JUMP JUMPDEST DUP3 DUP2 SUB PUSH1 0x20 DUP5 ADD MSTORE PUSH2 0x32B6 DUP2 DUP16 PUSH2 0x30A9 JUMP JUMPDEST SWAP1 POP DUP3 DUP2 SUB PUSH1 0x40 DUP5 ADD MSTORE PUSH2 0x32CA DUP2 DUP15 PUSH2 0x30A9 JUMP JUMPDEST SWAP1 POP DUP12 PUSH1 0x60 DUP5 ADD MSTORE DUP11 PUSH1 0x80 DUP5 ADD MSTORE DUP10 PUSH1 0xA0 DUP5 ADD MSTORE DUP9 PUSH1 0xC0 DUP5 ADD MSTORE DUP8 PUSH1 0xE0 DUP5 ADD MSTORE DUP7 PUSH2 0x100 DUP5 ADD MSTORE DUP6 PUSH2 0x120 DUP5 ADD MSTORE DUP3 DUP2 SUB PUSH2 0x140 DUP5 ADD MSTORE PUSH2 0x330B DUP2 DUP7 PUSH2 0x30A9 JUMP JUMPDEST SWAP2 POP POP DUP3 ISZERO ISZERO PUSH2 0x160 DUP4 ADD MSTORE SWAP14 SWAP13 POP POP POP POP POP POP POP POP POP POP POP POP POP JUMP JUMPDEST DUP4 DUP2 MSTORE PUSH1 0x1 PUSH1 0x1 PUSH1 0xA0 SHL SUB DUP4 AND PUSH1 0x20 DUP3 ADD MSTORE PUSH1 0x60 PUSH1 0x40 DUP3 ADD DUP2 SWAP1 MSTORE PUSH0 SWAP1 PUSH2 0x3351 SWAP1 DUP4 ADD DUP5 PUSH2 0x30A9 JUMP JUMPDEST SWAP6 SWAP5 POP POP POP POP POP JUMP JUMPDEST PUSH0 PUSH0 PUSH0 PUSH0 PUSH0 PUSH0 PUSH0 PUSH0 PUSH2 0x100 DUP10 DUP12 SUB SLT ISZERO PUSH2 0x3372 JUMPI PUSH0 PUSH0 REVERT JUMPDEST DUP9 CALLDATALOAD PUSH1 0x1 PUSH1 0x1 PUSH1 0x40 SHL SUB DUP2 GT ISZERO PUSH2 0x3387 JUMPI PUSH0 PUSH0 REVERT JUMPDEST PUSH2 0x3393 DUP12 DUP3 DUP13 ADD PUSH2 0x3112 JUMP JUMPDEST SWAP9 POP POP PUSH1 0x20 DUP10 ADD CALLDATALOAD PUSH1 0x1 PUSH1 0x1 PUSH1 0x40 SHL SUB DUP2 GT ISZERO PUSH2 0x33AE JUMPI PUSH0 PUSH0 REVERT JUMPDEST PUSH2 0x33BA DUP12 DUP3 DUP13 ADD PUSH2 0x3112 JUMP JUMPDEST SWAP9 SWAP12 SWAP9 SWAP11 POP POP POP POP PUSH1 0x40 DUP8 ADD CALLDATALOAD SWAP7 PUSH1 0x60 DUP2 ADD CALLDATALOAD SWAP7 PUSH1 0x80 DUP3 ADD CALLDATALOAD SWAP7 POP PUSH1 0xA0 DUP3 ADD CALLDATALOAD SWAP6 POP PUSH1 0xC0 DUP3 ADD CALLDATALOAD SWAP5 POP PUSH1 0xE0 SWAP1 SWAP2 ADD CALLDATALOAD SWAP3 POP SWAP1 POP JUMP JUMPDEST PUSH0 PUSH0 PUSH0 PUSH0 PUSH0 PUSH0 PUSH0 PUSH0 PUSH0 PUSH0 PUSH0 PUSH2 0x160 DUP13 DUP15 SUB SLT ISZERO PUSH2 0x340A JUMPI PUSH0 PUSH0 REVERT JUMPDEST DUP12 CALLDATALOAD PUSH1 0x1 PUSH1 0x1 PUSH1 0x40 SHL SUB DUP2 GT ISZERO PUSH2 0x341F JUMPI PUSH0 PUSH0 REVERT JUMPDEST PUSH2 0x342B DUP15 DUP3 DUP16 ADD PUSH2 0x3112 JUMP JUMPDEST SWAP12 POP POP PUSH1 0x20 DUP13 ADD CALLDATALOAD PUSH1 0x1 PUSH1 0x1 PUSH1 0x40 SHL SUB DUP2 GT ISZERO PUSH2 0x3446 JUMPI PUSH0 PUSH0 REVERT JUMPDEST PUSH2 0x3452 DUP15 DUP3 DUP16 ADD PUSH2 0x3112 JUMP JUMPDEST SWAP11 POP POP PUSH1 0x40 DUP13 ADD CALLDATALOAD PUSH1 0x1 PUSH1 0x1 PUSH1 0x40 SHL SUB DUP2 GT ISZERO PUSH2 0x346D JUMPI PUSH0 PUSH0 REVERT JUMPDEST PUSH2 0x3479 DUP15 DUP3 DUP16 ADD PUSH2 0x3112 JUMP JUMPDEST SWAP10 POP POP PUSH1 0x60 DUP13 ADD CALLDATALOAD SWAP8 POP PUSH1 0x80 DUP13 ADD CALLDATALOAD SWAP7 POP PUSH1 0xA0 DUP13 ADD CALLDATALOAD SWAP6 POP PUSH1 0xC0 DUP13 ADD CALLDATALOAD SWAP5 POP PUSH1 0xE0 DUP13 ADD CALLDATALOAD SWAP4 POP PUSH2 0x100 DUP13 ADD CALLDATALOAD SWAP3 POP PUSH2 0x120 DUP13 ADD CALLDATALOAD SWAP2 POP PUSH2 0x140 DUP13 ADD CALLDATALOAD PUSH1 0x1 PUSH1 0x1 PUSH1 0x40 SHL SUB DUP2 GT ISZERO PUSH2 0x34C8 JUMPI PUSH0 PUSH0 REVERT JUMPDEST PUSH2 0x34D4 DUP15 DUP3 DUP16 ADD PUSH2 0x3112 JUMP JUMPDEST SWAP2 POP POP SWAP3 SWAP6 SWAP9 SWAP12 POP SWAP3 SWAP6 SWAP9 SWAP12 SWAP1 SWAP4 SWAP7 SWAP10 POP JUMP JUMPDEST DUP3 ISZERO ISZERO DUP2 MSTORE PUSH1 0x40 PUSH1 0x20 DUP3 ADD MSTORE PUSH0 PUSH2 0x30F6 PUSH1 0x40 DUP4 ADD DUP5 PUSH2 0x30A9 JUMP JUMPDEST PUSH0 DUP3 DUP3 MLOAD DUP1 DUP6 MSTORE PUSH1 0x20 DUP6 ADD SWAP5 POP PUSH1 0x20 DUP2 PUSH1 0x5 SHL DUP4 ADD ADD PUSH1 0x20 DUP6 ADD PUSH0 JUMPDEST DUP4 DUP2 LT ISZERO PUSH2 0x354F JUMPI PUSH1 0x1F NOT DUP6 DUP5 SUB ADD DUP9 MSTORE PUSH2 0x3539 DUP4 DUP4 MLOAD PUSH2 0x30A9 JUMP JUMPDEST PUSH1 0x20 SWAP9 DUP10 ADD SWAP9 SWAP1 SWAP4 POP SWAP2 SWAP1 SWAP2 ADD SWAP1 PUSH1 0x1 ADD PUSH2 0x351D JUMP JUMPDEST POP SWAP1 SWAP7 SWAP6 POP POP POP POP POP POP JUMP JUMPDEST PUSH1 0x60 DUP1 DUP3 MSTORE DUP5 MLOAD SWAP1 DUP3 ADD DUP2 SWAP1 MSTORE PUSH0 SWAP1 PUSH1 0x20 DUP7 ADD SWAP1 PUSH1 0x80 DUP5 ADD SWAP1 DUP4 JUMPDEST DUP2 DUP2 LT ISZERO PUSH2 0x3594 JUMPI DUP4 MLOAD DUP4 MSTORE PUSH1 0x20 SWAP4 DUP5 ADD SWAP4 SWAP1 SWAP3 ADD SWAP2 PUSH1 0x1 ADD PUSH2 0x3576 JUMP JUMPDEST POP POP DUP4 DUP2 SUB PUSH1 0x20 DUP1 DUP7 ADD SWAP2 SWAP1 SWAP2 MSTORE DUP7 MLOAD DUP1 DUP4 MSTORE SWAP2 DUP2 ADD SWAP3 POP DUP7 ADD SWAP1 PUSH0 JUMPDEST DUP2 DUP2 LT ISZERO PUSH2 0x35D8 JUMPI DUP3 MLOAD PUSH1 0x1 PUSH1 0x1 PUSH1 0xA0 SHL SUB AND DUP5 MSTORE PUSH1 0x20 SWAP4 DUP5 ADD SWAP4 SWAP1 SWAP3 ADD SWAP2 PUSH1 0x1 ADD PUSH2 0x35B1 JUMP JUMPDEST POP POP POP DUP3 DUP2 SUB PUSH1 0x40 DUP5 ADD MSTORE PUSH2 0x35ED DUP2 DUP6 PUSH2 0x3501 JUMP JUMPDEST SWAP7 SWAP6 POP POP POP POP POP POP JUMP JUMPDEST PUSH1 0x1 PUSH1 0x1 PUSH1 0xA0 SHL SUB DUP4 AND DUP2 MSTORE PUSH1 0x40 PUSH1 0x20 DUP3 ADD DUP2 SWAP1 MSTORE PUSH0 SWAP1 PUSH2 0x30F6 SWAP1 DUP4 ADD DUP5 PUSH2 0x30A9 JUMP JUMPDEST PUSH2 0x160 DUP2 MSTORE PUSH0 PUSH2 0x362E PUSH2 0x160 DUP4 ADD DUP15 PUSH2 0x30A9 JUMP JUMPDEST DUP3 DUP2 SUB PUSH1 0x20 DUP5 ADD MSTORE PUSH2 0x3640 DUP2 DUP15 PUSH2 0x30A9 JUMP JUMPDEST SWAP1 POP DUP3 DUP2 SUB PUSH1 0x40 DUP5 ADD MSTORE PUSH2 0x3654 DUP2 DUP14 PUSH2 0x30A9 JUMP JUMPDEST SWAP1 POP DUP11 PUSH1 0x60 DUP5 ADD MSTORE DUP10 PUSH1 0x80 DUP5 ADD MSTORE DUP3 DUP2 SUB PUSH1 0xA0 DUP5 ADD MSTORE PUSH2 0x3674 DUP2 DUP11 PUSH2 0x30A9 JUMP JUMPDEST SWAP1 POP PUSH2 0x3683 PUSH1 0xC0 DUP5 ADD DUP10 PUSH2 0x3089 JUMP JUMPDEST DUP3 DUP2 SUB PUSH1 0xE0 DUP5 ADD MSTORE PUSH2 0x3695 DUP2 DUP9 PUSH2 0x30A9 JUMP JUMPDEST PUSH1 0x1 PUSH1 0x1 PUSH1 0xA0 SHL SUB DUP8 AND PUSH2 0x100 DUP6 ADD MSTORE DUP4 DUP2 SUB PUSH2 0x120 DUP6 ADD MSTORE SWAP1 POP PUSH2 0x36BA DUP2 DUP7 PUSH2 0x30A9 JUMP JUMPDEST SWAP2 POP POP DUP3 PUSH2 0x140 DUP4 ADD MSTORE SWAP13 SWAP12 POP POP POP POP POP POP POP POP POP POP POP POP JUMP JUMPDEST PUSH0 DUP2 MLOAD DUP1 PUSH1 0x20 DUP5 ADD DUP6 MCOPY PUSH0 SWAP4 ADD SWAP3 DUP4 MSTORE POP SWAP1 SWAP2 SWAP1 POP JUMP JUMPDEST DUP3 DUP2 MSTORE PUSH0 PUSH2 0x30F6 PUSH1 0x20 DUP4 ADD DUP5 PUSH2 0x36D4 JUMP JUMPDEST PUSH1 0x1 DUP2 DUP2 SHR SWAP1 DUP3 AND DUP1 PUSH2 0x3710 JUMPI PUSH1 0x7F DUP3 AND SWAP2 POP JUMPDEST PUSH1 0x20 DUP3 LT DUP2 SUB PUSH2 0x372E JUMPI PUSH4 0x4E487B71 PUSH1 0xE0 SHL PUSH0 MSTORE PUSH1 0x22 PUSH1 0x4 MSTORE PUSH1 0x24 PUSH0 REVERT JUMPDEST POP SWAP2 SWAP1 POP JUMP JUMPDEST PUSH1 0x1F DUP3 GT ISZERO PUSH2 0x377B JUMPI DUP1 PUSH0 MSTORE PUSH1 0x20 PUSH0 KECCAK256 PUSH1 0x1F DUP5 ADD PUSH1 0x5 SHR DUP2 ADD PUSH1 0x20 DUP6 LT ISZERO PUSH2 0x3759 JUMPI POP DUP1 JUMPDEST PUSH1 0x1F DUP5 ADD PUSH1 0x5 SHR DUP3 ADD SWAP2 POP JUMPDEST DUP2 DUP2 LT ISZERO PUSH2 0x3778 JUMPI PUSH0 DUP2 SSTORE PUSH1 0x1 ADD PUSH2 0x3765 JUMP JUMPDEST POP POP JUMPDEST POP POP POP JUMP JUMPDEST DUP2 MLOAD PUSH1 0x1 PUSH1 0x1 PUSH1 0x40 SHL SUB DUP2 GT ISZERO PUSH2 0x3799 JUMPI PUSH2 0x3799 PUSH2 0x30FE JUMP JUMPDEST PUSH2 0x37AD DUP2 PUSH2 0x37A7 DUP5 SLOAD PUSH2 0x36FC JUMP JUMPDEST DUP5 PUSH2 0x3734 JUMP JUMPDEST PUSH1 0x20 PUSH1 0x1F DUP3 GT PUSH1 0x1 DUP2 EQ PUSH2 0x37DF JUMPI PUSH0 DUP4 ISZERO PUSH2 0x37C8 JUMPI POP DUP5 DUP3 ADD MLOAD JUMPDEST PUSH0 NOT PUSH1 0x3 DUP6 SWAP1 SHL SHR NOT AND PUSH1 0x1 DUP5 SWAP1 SHL OR DUP5 SSTORE PUSH2 0x3778 JUMP JUMPDEST PUSH0 DUP5 DUP2 MSTORE PUSH1 0x20 DUP2 KECCAK256 PUSH1 0x1F NOT DUP6 AND SWAP2 JUMPDEST DUP3 DUP2 LT ISZERO PUSH2 0x380E JUMPI DUP8 DUP6 ADD MLOAD DUP3 SSTORE PUSH1 0x20 SWAP5 DUP6 ADD SWAP5 PUSH1 0x1 SWAP1 SWAP3 ADD SWAP2 ADD PUSH2 0x37EE JUMP JUMPDEST POP DUP5 DUP3 LT ISZERO PUSH2 0x382B JUMPI DUP7 DUP5 ADD MLOAD PUSH0 NOT PUSH1 0x3 DUP8 SWAP1 SHL PUSH1 0xF8 AND SHR NOT AND DUP2 SSTORE JUMPDEST POP POP POP POP PUSH1 0x1 SWAP1 DUP2 SHL ADD SWAP1 SSTORE POP JUMP JUMPDEST PUSH4 0x4E487B71 PUSH1 0xE0 SHL PUSH0 MSTORE PUSH1 0x32 PUSH1 0x4 MSTORE PUSH1 0x24 PUSH0 REVERT JUMPDEST PUSH0 PUSH2 0x3862 PUSH2 0x385C DUP4 DUP8 PUSH2 0x36D4 JUMP JUMPDEST DUP6 PUSH2 0x36D4 JUMP JUMPDEST SWAP3 DUP4 MSTORE POP POP PUSH1 0x20 ADD SWAP3 SWAP2 POP POP JUMP JUMPDEST PUSH1 0x80 DUP2 MSTORE PUSH0 PUSH2 0x3882 PUSH1 0x80 DUP4 ADD DUP8 PUSH2 0x30A9 JUMP JUMPDEST DUP3 DUP2 SUB PUSH1 0x20 DUP5 ADD MSTORE PUSH2 0x3894 DUP2 DUP8 PUSH2 0x30A9 JUMP JUMPDEST PUSH1 0x40 DUP5 ADD SWAP6 SWAP1 SWAP6 MSTORE POP POP PUSH1 0x60 ADD MSTORE SWAP3 SWAP2 POP POP JUMP JUMPDEST PUSH4 0x4E487B71 PUSH1 0xE0 SHL PUSH0 MSTORE PUSH1 0x11 PUSH1 0x4 MSTORE PUSH1 0x24 PUSH0 REVERT JUMPDEST DUP1 DUP3 ADD DUP1 DUP3 GT ISZERO PUSH2 0x294B JUMPI PUSH2 0x294B PUSH2 0x38A8 JUMP JUMPDEST PUSH0 PUSH1 0x1 DUP3 ADD PUSH2 0x38E0 JUMPI PUSH2 0x38E0 PUSH2 0x38A8 JUMP JUMPDEST POP PUSH1 0x1 ADD SWAP1 JUMP JUMPDEST DUP1 DUP3 MUL DUP2 ISZERO DUP3 DUP3 DIV DUP5 EQ OR PUSH2 0x294B JUMPI PUSH2 0x294B PUSH2 0x38A8 JUMP JUMPDEST DUP2 DUP2 SUB DUP2 DUP2 GT ISZERO PUSH2 0x294B JUMPI PUSH2 0x294B PUSH2 0x38A8 JUMP JUMPDEST PUSH4 0x4E487B71 PUSH1 0xE0 SHL PUSH0 MSTORE PUSH1 0x12 PUSH1 0x4 MSTORE PUSH1 0x24 PUSH0 REVERT JUMPDEST PUSH0 DUP3 PUSH2 0x3933 JUMPI PUSH2 0x3933 PUSH2 0x3911 JUMP JUMPDEST POP DIV SWAP1 JUMP JUMPDEST PUSH0 PUSH1 0x1 PUSH1 0xFF SHL DUP3 ADD PUSH2 0x394C JUMPI PUSH2 0x394C PUSH2 0x38A8 JUMP JUMPDEST POP PUSH0 SUB SWAP1 JUMP JUMPDEST PUSH0 PUSH2 0xFFFF DUP4 AND DUP1 PUSH2 0x3965 JUMPI PUSH2 0x3965 PUSH2 0x3911 JUMP JUMPDEST DUP1 PUSH2 0xFFFF DUP5 AND MOD SWAP2 POP POP SWAP3 SWAP2 POP POP JUMP JUMPDEST PUSH2 0xFFFF DUP3 DUP2 AND DUP3 DUP3 AND SUB SWAP1 DUP2 GT ISZERO PUSH2 0x294B JUMPI PUSH2 0x294B PUSH2 0x38A8 JUMP INVALID LOG2 PUSH5 0x6970667358 0x22 SLT KECCAK256 RJUMPI 0xC2BE 0xDB SLOAD PUSH21 0x3D2EF97AA0643B1BA9032F98845ADACFF0C0A071B9 0x4E 0xB3 JUMPF 0xF26E PUSH5 0x736F6C6343 STOP ADDMOD 0x1F STOP CALLER "
		},
		"gasEstimates": {
			"creation": {
				"codeDepositCost": "2957800",
				"executionCost": "27455",
				"totalCost": "2985255"
			},
			"external": {
				"MAX_BIDDERS()": "262",
				"acceptAdminRole()": "52419",
				"acceptDelivery(bytes32)": "56539",
				"admin()": "2467",
				"awardTender()": "38640",
				"bidderDescriptions(address)": "infinite",
				"bidderList(uint256)": "4655",
				"bids(address)": "9068",
				"createTenderWithLocalTime(string,string,string,uint256,uint256,uint256,uint256,uint256,int256,uint256,string)": "infinite",
				"deliveryEvidenceHash()": "2362",
				"evaluateTender()": "infinite",
				"fundContract()": "4015",
				"getAllRegisteredBidders()": "infinite",
				"getBidDetails(address)": "9264",
				"getBidderCount()": "2380",
				"getBidderProfile(address)": "infinite",
				"getContractBalance()": "304",
				"getCurrentStatusText()": "infinite",
				"getDeliveryEvidenceHashWithLocalTime(string,string,uint256,uint256,uint256,uint256,uint256,int256)": "infinite",
				"getInspectionReportHashWithLocalTime(string,string,uint256,uint256,uint256,uint256,uint256,int256)": "infinite",
				"getLowestBidDetails()": "infinite",
				"getSealedBidHash(uint256,string)": "infinite",
				"getSubmissionDeadlineReadable()": "infinite",
				"getTenderSummary()": "infinite",
				"inspectionReportHash()": "2405",
				"inspector()": "2446",
				"lowestBid()": "2449",
				"openRevealPhase()": "33778",
				"paymentReleased()": "2376",
				"pendingAdmin()": "2471",
				"registerBidder(address,string)": "infinite",
				"registeredBidders(address)": "2618",
				"rejectDelivery(string)": "infinite",
				"rejectionReason()": "infinite",
				"releasePayment()": "infinite",
				"revealBid(uint256,string)": "infinite",
				"setInspector(address)": "36539",
				"status()": "infinite",
				"submitDeliveryEvidence(bytes32)": "56658",
				"submitSealedBid(bytes32)": "88116",
				"tender()": "infinite",
				"transferAdmin(address)": "32659",
				"winner()": "infinite"
			},
			"internal": {
				"_getDaysInMonth(uint256,uint256)": "infinite",
				"_getStatusText(enum KenyaProcurementTransparency.TenderStatus)": "infinite",
				"_isLeapYear(uint16)": "infinite",
				"_timestampToDateTime(uint256)": "infinite",
				"_toTimestamp(uint256,uint256,uint256,uint256,uint256,uint256)": "infinite",
				"_toTimestampWithOffset(uint256,uint256,uint256,uint256,uint256,int256)": "infinite"
			}
		},
		"methodIdentifiers": {
			"MAX_BIDDERS()": "4cc4f50d",
			"acceptAdminRole()": "8c3d7301",
			"acceptDelivery(bytes32)": "0bd58917",
			"admin()": "f851a440",
			"awardTender()": "d0112863",
			"bidderDescriptions(address)": "9134e02b",
			"bidderList(uint256)": "d3584e84",
			"bids(address)": "62ea82db",
			"createTenderWithLocalTime(string,string,string,uint256,uint256,uint256,uint256,uint256,int256,uint256,string)": "905249a3",
			"deliveryEvidenceHash()": "2e9e8e59",
			"evaluateTender()": "592fd028",
			"fundContract()": "bd097e21",
			"getAllRegisteredBidders()": "b6cf8a35",
			"getBidDetails(address)": "8d07ae9f",
			"getBidderCount()": "c87da02d",
			"getBidderProfile(address)": "90c7825a",
			"getContractBalance()": "6f9fb98a",
			"getCurrentStatusText()": "5459b48e",
			"getDeliveryEvidenceHashWithLocalTime(string,string,uint256,uint256,uint256,uint256,uint256,int256)": "8899b7cc",
			"getInspectionReportHashWithLocalTime(string,string,uint256,uint256,uint256,uint256,uint256,int256)": "8c257ef8",
			"getLowestBidDetails()": "808e52cf",
			"getSealedBidHash(uint256,string)": "fa1380b8",
			"getSubmissionDeadlineReadable()": "43902707",
			"getTenderSummary()": "e3c608ef",
			"inspectionReportHash()": "a4a00144",
			"inspector()": "ed2cee9e",
			"lowestBid()": "b6f3d256",
			"openRevealPhase()": "0bf36767",
			"paymentReleased()": "c63735b3",
			"pendingAdmin()": "26782247",
			"registerBidder(address,string)": "36dc1a88",
			"registeredBidders(address)": "356e7ccb",
			"rejectDelivery(string)": "4c5aed38",
			"rejectionReason()": "26bd8926",
			"releasePayment()": "d116c8c4",
			"revealBid(uint256,string)": "2163b8c5",
			"setInspector(address)": "4e5cbf61",
			"status()": "200d2ed2",
			"submitDeliveryEvidence(bytes32)": "7bd2a5da",
			"submitSealedBid(bytes32)": "53321ae6",
			"tender()": "6cb55d1a",
			"transferAdmin(address)": "75829def",
			"winner()": "dfbf53ae"
		}
	},
	"abi": [
		{
			"inputs": [],
			"stateMutability": "payable",
			"type": "constructor"
		},
		{
			"inputs": [],
			"name": "AlreadyCurrentAdmin",
			"type": "error"
		},
		{
			"inputs": [],
			"name": "BidAlreadyRevealed",
			"type": "error"
		},
		{
			"inputs": [],
			"name": "BidAlreadySubmitted",
			"type": "error"
		},
		{
			"inputs": [],
			"name": "BidderAlreadyRegistered",
			"type": "error"
		},
		{
			"inputs": [],
			"name": "BidderLimitReached",
			"type": "error"
		},
		{
			"inputs": [],
			"name": "ContractAmountMustBeGreaterThanZero",
			"type": "error"
		},
		{
			"inputs": [],
			"name": "DeadlineMustBeInFuture",
			"type": "error"
		},
		{
			"inputs": [],
			"name": "DescriptionRequired",
			"type": "error"
		},
		{
			"inputs": [],
			"name": "DocumentTypeRequired",
			"type": "error"
		},
		{
			"inputs": [],
			"name": "InspectorNotAssigned",
			"type": "error"
		},
		{
			"inputs": [],
			"name": "InspectorStageLocked",
			"type": "error"
		},
		{
			"inputs": [],
			"name": "InsufficientContractBalance",
			"type": "error"
		},
		{
			"inputs": [],
			"name": "InvalidAddress",
			"type": "error"
		},
		{
			"inputs": [],
			"name": "InvalidDay",
			"type": "error"
		},
		{
			"inputs": [],
			"name": "InvalidDeliveryEvidenceHash",
			"type": "error"
		},
		{
			"inputs": [],
			"name": "InvalidHour",
			"type": "error"
		},
		{
			"inputs": [],
			"name": "InvalidInspectionReportHash",
			"type": "error"
		},
		{
			"inputs": [],
			"name": "InvalidMinute",
			"type": "error"
		},
		{
			"inputs": [],
			"name": "InvalidMonth",
			"type": "error"
		},
		{
			"inputs": [],
			"name": "InvalidSealedBidHash",
			"type": "error"
		},
		{
			"inputs": [],
			"name": "InvalidTenderStage",
			"type": "error"
		},
		{
			"inputs": [],
			"name": "InvalidUtcOffset",
			"type": "error"
		},
		{
			"inputs": [],
			"name": "InvalidYear",
			"type": "error"
		},
		{
			"inputs": [],
			"name": "LowestBidNotSet",
			"type": "error"
		},
		{
			"inputs": [],
			"name": "NoBidSubmitted",
			"type": "error"
		},
		{
			"inputs": [],
			"name": "NoValidRevealedBids",
			"type": "error"
		},
		{
			"inputs": [],
			"name": "NoWinnerSelected",
			"type": "error"
		},
		{
			"inputs": [],
			"name": "NotPendingAdmin",
			"type": "error"
		},
		{
			"inputs": [],
			"name": "NotRegisteredBidder",
			"type": "error"
		},
		{
			"inputs": [],
			"name": "OnlyAdmin",
			"type": "error"
		},
		{
			"inputs": [],
			"name": "OnlyInspector",
			"type": "error"
		},
		{
			"inputs": [],
			"name": "OnlyWinner",
			"type": "error"
		},
		{
			"inputs": [],
			"name": "PaymentAlreadyReleased",
			"type": "error"
		},
		{
			"inputs": [],
			"name": "PaymentTransferFailed",
			"type": "error"
		},
		{
			"inputs": [],
			"name": "ReasonRequired",
			"type": "error"
		},
		{
			"inputs": [],
			"name": "ReentrancyDetected",
			"type": "error"
		},
		{
			"inputs": [],
			"name": "ReferenceNumberRequired",
			"type": "error"
		},
		{
			"inputs": [],
			"name": "RevealMismatch",
			"type": "error"
		},
		{
			"inputs": [],
			"name": "SubmissionDeadlineNotReached",
			"type": "error"
		},
		{
			"inputs": [],
			"name": "SubmissionDeadlinePassed",
			"type": "error"
		},
		{
			"inputs": [],
			"name": "TenderAlreadyCreated",
			"type": "error"
		},
		{
			"inputs": [],
			"name": "TenderDoesNotExist",
			"type": "error"
		},
		{
			"inputs": [],
			"name": "WinnerNotSet",
			"type": "error"
		},
		{
			"anonymous": false,
			"inputs": [
				{
					"indexed": true,
					"internalType": "address",
					"name": "currentAdmin",
					"type": "address"
				},
				{
					"indexed": true,
					"internalType": "address",
					"name": "newAdmin",
					"type": "address"
				}
			],
			"name": "AdminTransferInitiated",
			"type": "event"
		},
		{
			"anonymous": false,
			"inputs": [
				{
					"indexed": true,
					"internalType": "address",
					"name": "oldAdmin",
					"type": "address"
				},
				{
					"indexed": true,
					"internalType": "address",
					"name": "newAdmin",
					"type": "address"
				}
			],
			"name": "AdminTransferred",
			"type": "event"
		},
		{
			"anonymous": false,
			"inputs": [
				{
					"indexed": false,
					"internalType": "address",
					"name": "bidder",
					"type": "address"
				},
				{
					"indexed": false,
					"internalType": "uint256",
					"name": "amount",
					"type": "uint256"
				}
			],
			"name": "BidRevealed",
			"type": "event"
		},
		{
			"anonymous": false,
			"inputs": [
				{
					"indexed": false,
					"internalType": "address",
					"name": "bidder",
					"type": "address"
				}
			],
			"name": "BidSubmitted",
			"type": "event"
		},
		{
			"anonymous": false,
			"inputs": [
				{
					"indexed": false,
					"internalType": "address",
					"name": "bidder",
					"type": "address"
				},
				{
					"indexed": false,
					"internalType": "string",
					"name": "description",
					"type": "string"
				}
			],
			"name": "BidderRegistered",
			"type": "event"
		},
		{
			"anonymous": false,
			"inputs": [
				{
					"indexed": true,
					"internalType": "address",
					"name": "funder",
					"type": "address"
				},
				{
					"indexed": false,
					"internalType": "uint256",
					"name": "amount",
					"type": "uint256"
				},
				{
					"indexed": false,
					"internalType": "uint256",
					"name": "newBalance",
					"type": "uint256"
				}
			],
			"name": "ContractFunded",
			"type": "event"
		},
		{
			"anonymous": false,
			"inputs": [
				{
					"indexed": false,
					"internalType": "address",
					"name": "inspector",
					"type": "address"
				},
				{
					"indexed": false,
					"internalType": "bytes32",
					"name": "inspectionReportHash",
					"type": "bytes32"
				}
			],
			"name": "DeliveryAccepted",
			"type": "event"
		},
		{
			"anonymous": false,
			"inputs": [
				{
					"indexed": false,
					"internalType": "address",
					"name": "inspector",
					"type": "address"
				},
				{
					"indexed": false,
					"internalType": "string",
					"name": "reason",
					"type": "string"
				}
			],
			"name": "DeliveryRejected",
			"type": "event"
		},
		{
			"anonymous": false,
			"inputs": [
				{
					"indexed": false,
					"internalType": "address",
					"name": "winner",
					"type": "address"
				},
				{
					"indexed": false,
					"internalType": "bytes32",
					"name": "deliveryEvidenceHash",
					"type": "bytes32"
				}
			],
			"name": "DeliverySubmitted",
			"type": "event"
		},
		{
			"anonymous": false,
			"inputs": [
				{
					"indexed": false,
					"internalType": "address",
					"name": "inspector",
					"type": "address"
				}
			],
			"name": "InspectorAssigned",
			"type": "event"
		},
		{
			"anonymous": false,
			"inputs": [
				{
					"indexed": false,
					"internalType": "address",
					"name": "winner",
					"type": "address"
				},
				{
					"indexed": false,
					"internalType": "uint256",
					"name": "amount",
					"type": "uint256"
				}
			],
			"name": "PaymentReleased",
			"type": "event"
		},
		{
			"anonymous": false,
			"inputs": [],
			"name": "RevealPhaseOpened",
			"type": "event"
		},
		{
			"anonymous": false,
			"inputs": [
				{
					"indexed": false,
					"internalType": "address",
					"name": "winner",
					"type": "address"
				},
				{
					"indexed": false,
					"internalType": "uint256",
					"name": "amount",
					"type": "uint256"
				}
			],
			"name": "TenderAwarded",
			"type": "event"
		},
		{
			"anonymous": false,
			"inputs": [
				{
					"indexed": false,
					"internalType": "string",
					"name": "tenderNumber",
					"type": "string"
				},
				{
					"indexed": false,
					"internalType": "string",
					"name": "title",
					"type": "string"
				},
				{
					"indexed": false,
					"internalType": "uint256",
					"name": "submissionDeadline",
					"type": "uint256"
				},
				{
					"indexed": false,
					"internalType": "uint256",
					"name": "contractAmount",
					"type": "uint256"
				}
			],
			"name": "TenderCreated",
			"type": "event"
		},
		{
			"anonymous": false,
			"inputs": [
				{
					"indexed": false,
					"internalType": "address",
					"name": "winner",
					"type": "address"
				},
				{
					"indexed": false,
					"internalType": "uint256",
					"name": "lowestBid",
					"type": "uint256"
				}
			],
			"name": "TenderEvaluated",
			"type": "event"
		},
		{
			"inputs": [],
			"name": "MAX_BIDDERS",
			"outputs": [
				{
					"internalType": "uint256",
					"name": "",
					"type": "uint256"
				}
			],
			"stateMutability": "view",
			"type": "function"
		},
		{
			"inputs": [],
			"name": "acceptAdminRole",
			"outputs": [],
			"stateMutability": "nonpayable",
			"type": "function"
		},
		{
			"inputs": [
				{
					"internalType": "bytes32",
					"name": "_inspectionReportHash",
					"type": "bytes32"
				}
			],
			"name": "acceptDelivery",
			"outputs": [],
			"stateMutability": "nonpayable",
			"type": "function"
		},
		{
			"inputs": [],
			"name": "admin",
			"outputs": [
				{
					"internalType": "address",
					"name": "",
					"type": "address"
				}
			],
			"stateMutability": "view",
			"type": "function"
		},
		{
			"inputs": [],
			"name": "awardTender",
			"outputs": [],
			"stateMutability": "nonpayable",
			"type": "function"
		},
		{
			"inputs": [
				{
					"internalType": "address",
					"name": "",
					"type": "address"
				}
			],
			"name": "bidderDescriptions",
			"outputs": [
				{
					"internalType": "string",
					"name": "",
					"type": "string"
				}
			],
			"stateMutability": "view",
			"type": "function"
		},
		{
			"inputs": [
				{
					"internalType": "uint256",
					"name": "",
					"type": "uint256"
				}
			],
			"name": "bidderList",
			"outputs": [
				{
					"internalType": "address",
					"name": "",
					"type": "address"
				}
			],
			"stateMutability": "view",
			"type": "function"
		},
		{
			"inputs": [
				{
					"internalType": "address",
					"name": "",
					"type": "address"
				}
			],
			"name": "bids",
			"outputs": [
				{
					"internalType": "bytes32",
					"name": "sealedBidHash",
					"type": "bytes32"
				},
				{
					"internalType": "bool",
					"name": "submitted",
					"type": "bool"
				},
				{
					"internalType": "bool",
					"name": "revealed",
					"type": "bool"
				},
				{
					"internalType": "uint256",
					"name": "amount",
					"type": "uint256"
				},
				{
					"internalType": "bool",
					"name": "valid",
					"type": "bool"
				}
			],
			"stateMutability": "view",
			"type": "function"
		},
		{
			"inputs": [
				{
					"internalType": "string",
					"name": "_tenderNumber",
					"type": "string"
				},
				{
					"internalType": "string",
					"name": "_title",
					"type": "string"
				},
				{
					"internalType": "string",
					"name": "_description",
					"type": "string"
				},
				{
					"internalType": "uint256",
					"name": "_submissionDeadlineYear",
					"type": "uint256"
				},
				{
					"internalType": "uint256",
					"name": "_submissionDeadlineMonth",
					"type": "uint256"
				},
				{
					"internalType": "uint256",
					"name": "_submissionDeadlineDay",
					"type": "uint256"
				},
				{
					"internalType": "uint256",
					"name": "_submissionDeadlineHour",
					"type": "uint256"
				},
				{
					"internalType": "uint256",
					"name": "_submissionDeadlineMinute",
					"type": "uint256"
				},
				{
					"internalType": "int256",
					"name": "_utcOffsetHours",
					"type": "int256"
				},
				{
					"internalType": "uint256",
					"name": "_contractAmount",
					"type": "uint256"
				},
				{
					"internalType": "string",
					"name": "_qualificationNote",
					"type": "string"
				}
			],
			"name": "createTenderWithLocalTime",
			"outputs": [],
			"stateMutability": "nonpayable",
			"type": "function"
		},
		{
			"inputs": [],
			"name": "deliveryEvidenceHash",
			"outputs": [
				{
					"internalType": "bytes32",
					"name": "",
					"type": "bytes32"
				}
			],
			"stateMutability": "view",
			"type": "function"
		},
		{
			"inputs": [],
			"name": "evaluateTender",
			"outputs": [],
			"stateMutability": "nonpayable",
			"type": "function"
		},
		{
			"inputs": [],
			"name": "fundContract",
			"outputs": [],
			"stateMutability": "payable",
			"type": "function"
		},
		{
			"inputs": [],
			"name": "getAllRegisteredBidders",
			"outputs": [
				{
					"internalType": "uint256[]",
					"name": "indexes",
					"type": "uint256[]"
				},
				{
					"internalType": "address[]",
					"name": "bidderAddresses",
					"type": "address[]"
				},
				{
					"internalType": "string[]",
					"name": "descriptions",
					"type": "string[]"
				}
			],
			"stateMutability": "view",
			"type": "function"
		},
		{
			"inputs": [
				{
					"internalType": "address",
					"name": "_bidder",
					"type": "address"
				}
			],
			"name": "getBidDetails",
			"outputs": [
				{
					"internalType": "bool",
					"name": "submitted",
					"type": "bool"
				},
				{
					"internalType": "bool",
					"name": "revealed",
					"type": "bool"
				},
				{
					"internalType": "uint256",
					"name": "amount",
					"type": "uint256"
				},
				{
					"internalType": "bool",
					"name": "valid",
					"type": "bool"
				}
			],
			"stateMutability": "view",
			"type": "function"
		},
		{
			"inputs": [],
			"name": "getBidderCount",
			"outputs": [
				{
					"internalType": "uint256",
					"name": "",
					"type": "uint256"
				}
			],
			"stateMutability": "view",
			"type": "function"
		},
		{
			"inputs": [
				{
					"internalType": "address",
					"name": "_bidder",
					"type": "address"
				}
			],
			"name": "getBidderProfile",
			"outputs": [
				{
					"internalType": "bool",
					"name": "isRegistered",
					"type": "bool"
				},
				{
					"internalType": "string",
					"name": "description",
					"type": "string"
				}
			],
			"stateMutability": "view",
			"type": "function"
		},
		{
			"inputs": [],
			"name": "getContractBalance",
			"outputs": [
				{
					"internalType": "uint256",
					"name": "",
					"type": "uint256"
				}
			],
			"stateMutability": "view",
			"type": "function"
		},
		{
			"inputs": [],
			"name": "getCurrentStatusText",
			"outputs": [
				{
					"internalType": "string",
					"name": "statusText",
					"type": "string"
				}
			],
			"stateMutability": "view",
			"type": "function"
		},
		{
			"inputs": [
				{
					"internalType": "string",
					"name": "_documentType",
					"type": "string"
				},
				{
					"internalType": "string",
					"name": "_referenceNumber",
					"type": "string"
				},
				{
					"internalType": "uint256",
					"name": "_evidenceYear",
					"type": "uint256"
				},
				{
					"internalType": "uint256",
					"name": "_evidenceMonth",
					"type": "uint256"
				},
				{
					"internalType": "uint256",
					"name": "_evidenceDay",
					"type": "uint256"
				},
				{
					"internalType": "uint256",
					"name": "_evidenceHour",
					"type": "uint256"
				},
				{
					"internalType": "uint256",
					"name": "_evidenceMinute",
					"type": "uint256"
				},
				{
					"internalType": "int256",
					"name": "_utcOffsetHours",
					"type": "int256"
				}
			],
			"name": "getDeliveryEvidenceHashWithLocalTime",
			"outputs": [
				{
					"internalType": "uint256",
					"name": "evidenceTimestamp",
					"type": "uint256"
				},
				{
					"internalType": "bytes32",
					"name": "deliveryEvidenceComputedHash",
					"type": "bytes32"
				}
			],
			"stateMutability": "view",
			"type": "function"
		},
		{
			"inputs": [
				{
					"internalType": "string",
					"name": "_documentType",
					"type": "string"
				},
				{
					"internalType": "string",
					"name": "_referenceNumber",
					"type": "string"
				},
				{
					"internalType": "uint256",
					"name": "_reportYear",
					"type": "uint256"
				},
				{
					"internalType": "uint256",
					"name": "_reportMonth",
					"type": "uint256"
				},
				{
					"internalType": "uint256",
					"name": "_reportDay",
					"type": "uint256"
				},
				{
					"internalType": "uint256",
					"name": "_reportHour",
					"type": "uint256"
				},
				{
					"internalType": "uint256",
					"name": "_reportMinute",
					"type": "uint256"
				},
				{
					"internalType": "int256",
					"name": "_utcOffsetHours",
					"type": "int256"
				}
			],
			"name": "getInspectionReportHashWithLocalTime",
			"outputs": [
				{
					"internalType": "uint256",
					"name": "reportTimestamp",
					"type": "uint256"
				},
				{
					"internalType": "bytes32",
					"name": "inspectionReportComputedHash",
					"type": "bytes32"
				}
			],
			"stateMutability": "view",
			"type": "function"
		},
		{
			"inputs": [],
			"name": "getLowestBidDetails",
			"outputs": [
				{
					"internalType": "uint256",
					"name": "lowestBidAmount",
					"type": "uint256"
				},
				{
					"internalType": "address",
					"name": "lowestBidder",
					"type": "address"
				},
				{
					"internalType": "string",
					"name": "lowestBidderDescription",
					"type": "string"
				}
			],
			"stateMutability": "view",
			"type": "function"
		},
		{
			"inputs": [
				{
					"internalType": "uint256",
					"name": "_amount",
					"type": "uint256"
				},
				{
					"internalType": "string",
					"name": "_secret",
					"type": "string"
				}
			],
			"name": "getSealedBidHash",
			"outputs": [
				{
					"internalType": "bytes32",
					"name": "",
					"type": "bytes32"
				}
			],
			"stateMutability": "view",
			"type": "function"
		},
		{
			"inputs": [],
			"name": "getSubmissionDeadlineReadable",
			"outputs": [
				{
					"internalType": "uint256",
					"name": "submissionDeadlineTimestamp",
					"type": "uint256"
				},
				{
					"internalType": "uint256",
					"name": "submissionDeadlineYear",
					"type": "uint256"
				},
				{
					"internalType": "uint256",
					"name": "submissionDeadlineMonth",
					"type": "uint256"
				},
				{
					"internalType": "uint256",
					"name": "submissionDeadlineDay",
					"type": "uint256"
				},
				{
					"internalType": "uint256",
					"name": "submissionDeadlineHour",
					"type": "uint256"
				},
				{
					"internalType": "uint256",
					"name": "submissionDeadlineMinute",
					"type": "uint256"
				}
			],
			"stateMutability": "view",
			"type": "function"
		},
		{
			"inputs": [],
			"name": "getTenderSummary",
			"outputs": [
				{
					"internalType": "string",
					"name": "tenderNumber",
					"type": "string"
				},
				{
					"internalType": "string",
					"name": "title",
					"type": "string"
				},
				{
					"internalType": "string",
					"name": "description",
					"type": "string"
				},
				{
					"internalType": "uint256",
					"name": "submissionDeadlineTimestamp",
					"type": "uint256"
				},
				{
					"internalType": "uint256",
					"name": "contractAmount",
					"type": "uint256"
				},
				{
					"internalType": "string",
					"name": "qualificationNote",
					"type": "string"
				},
				{
					"internalType": "enum KenyaProcurementTransparency.TenderStatus",
					"name": "currentStatus",
					"type": "uint8"
				},
				{
					"internalType": "string",
					"name": "currentStatusText",
					"type": "string"
				},
				{
					"internalType": "address",
					"name": "currentWinner",
					"type": "address"
				},
				{
					"internalType": "string",
					"name": "currentWinnerDescription",
					"type": "string"
				},
				{
					"internalType": "uint256",
					"name": "winningBid",
					"type": "uint256"
				}
			],
			"stateMutability": "view",
			"type": "function"
		},
		{
			"inputs": [],
			"name": "inspectionReportHash",
			"outputs": [
				{
					"internalType": "bytes32",
					"name": "",
					"type": "bytes32"
				}
			],
			"stateMutability": "view",
			"type": "function"
		},
		{
			"inputs": [],
			"name": "inspector",
			"outputs": [
				{
					"internalType": "address",
					"name": "",
					"type": "address"
				}
			],
			"stateMutability": "view",
			"type": "function"
		},
		{
			"inputs": [],
			"name": "lowestBid",
			"outputs": [
				{
					"internalType": "uint256",
					"name": "",
					"type": "uint256"
				}
			],
			"stateMutability": "view",
			"type": "function"
		},
		{
			"inputs": [],
			"name": "openRevealPhase",
			"outputs": [],
			"stateMutability": "nonpayable",
			"type": "function"
		},
		{
			"inputs": [],
			"name": "paymentReleased",
			"outputs": [
				{
					"internalType": "bool",
					"name": "",
					"type": "bool"
				}
			],
			"stateMutability": "view",
			"type": "function"
		},
		{
			"inputs": [],
			"name": "pendingAdmin",
			"outputs": [
				{
					"internalType": "address",
					"name": "",
					"type": "address"
				}
			],
			"stateMutability": "view",
			"type": "function"
		},
		{
			"inputs": [
				{
					"internalType": "address",
					"name": "_bidder",
					"type": "address"
				},
				{
					"internalType": "string",
					"name": "_description",
					"type": "string"
				}
			],
			"name": "registerBidder",
			"outputs": [],
			"stateMutability": "nonpayable",
			"type": "function"
		},
		{
			"inputs": [
				{
					"internalType": "address",
					"name": "",
					"type": "address"
				}
			],
			"name": "registeredBidders",
			"outputs": [
				{
					"internalType": "bool",
					"name": "",
					"type": "bool"
				}
			],
			"stateMutability": "view",
			"type": "function"
		},
		{
			"inputs": [
				{
					"internalType": "string",
					"name": "_reason",
					"type": "string"
				}
			],
			"name": "rejectDelivery",
			"outputs": [],
			"stateMutability": "nonpayable",
			"type": "function"
		},
		{
			"inputs": [],
			"name": "rejectionReason",
			"outputs": [
				{
					"internalType": "string",
					"name": "",
					"type": "string"
				}
			],
			"stateMutability": "view",
			"type": "function"
		},
		{
			"inputs": [],
			"name": "releasePayment",
			"outputs": [],
			"stateMutability": "nonpayable",
			"type": "function"
		},
		{
			"inputs": [
				{
					"internalType": "uint256",
					"name": "_amount",
					"type": "uint256"
				},
				{
					"internalType": "string",
					"name": "_secret",
					"type": "string"
				}
			],
			"name": "revealBid",
			"outputs": [],
			"stateMutability": "nonpayable",
			"type": "function"
		},
		{
			"inputs": [
				{
					"internalType": "address",
					"name": "_inspector",
					"type": "address"
				}
			],
			"name": "setInspector",
			"outputs": [],
			"stateMutability": "nonpayable",
			"type": "function"
		},
		{
			"inputs": [],
			"name": "status",
			"outputs": [
				{
					"internalType": "enum KenyaProcurementTransparency.TenderStatus",
					"name": "currentStatus",
					"type": "uint8"
				},
				{
					"internalType": "string",
					"name": "currentStatusText",
					"type": "string"
				}
			],
			"stateMutability": "view",
			"type": "function"
		},
		{
			"inputs": [
				{
					"internalType": "bytes32",
					"name": "_deliveryEvidenceHash",
					"type": "bytes32"
				}
			],
			"name": "submitDeliveryEvidence",
			"outputs": [],
			"stateMutability": "nonpayable",
			"type": "function"
		},
		{
			"inputs": [
				{
					"internalType": "bytes32",
					"name": "_sealedBidHash",
					"type": "bytes32"
				}
			],
			"name": "submitSealedBid",
			"outputs": [],
			"stateMutability": "nonpayable",
			"type": "function"
		},
		{
			"inputs": [],
			"name": "tender",
			"outputs": [
				{
					"internalType": "string",
					"name": "tenderNumber",
					"type": "string"
				},
				{
					"internalType": "string",
					"name": "title",
					"type": "string"
				},
				{
					"internalType": "string",
					"name": "description",
					"type": "string"
				},
				{
					"internalType": "uint256",
					"name": "submissionDeadlineTimestamp",
					"type": "uint256"
				},
				{
					"internalType": "uint256",
					"name": "submissionDeadlineYear",
					"type": "uint256"
				},
				{
					"internalType": "uint256",
					"name": "submissionDeadlineMonth",
					"type": "uint256"
				},
				{
					"internalType": "uint256",
					"name": "submissionDeadlineDay",
					"type": "uint256"
				},
				{
					"internalType": "uint256",
					"name": "submissionDeadlineHour",
					"type": "uint256"
				},
				{
					"internalType": "uint256",
					"name": "submissionDeadlineMinute",
					"type": "uint256"
				},
				{
					"internalType": "uint256",
					"name": "contractAmount",
					"type": "uint256"
				},
				{
					"internalType": "string",
					"name": "qualificationNote",
					"type": "string"
				},
				{
					"internalType": "bool",
					"name": "exists",
					"type": "bool"
				}
			],
			"stateMutability": "view",
			"type": "function"
		},
		{
			"inputs": [
				{
					"internalType": "address",
					"name": "_newAdmin",
					"type": "address"
				}
			],
			"name": "transferAdmin",
			"outputs": [],
			"stateMutability": "nonpayable",
			"type": "function"
		},
		{
			"inputs": [],
			"name": "winner",
			"outputs": [
				{
					"internalType": "address",
					"name": "winnerAddress",
					"type": "address"
				},
				{
					"internalType": "string",
					"name": "winnerDescription",
					"type": "string"
				}
			],
			"stateMutability": "view",
			"type": "function"
		}
	]
}