{
	"data": {
		"bytecode": {
			"linkReferences": {},
			"object": "60806040525f80546001600160a01b03191633179055612e5a806100225f395ff3fe6080604052600436106101f1575f3560e01c806375829def11610108578063c63735b31161009d578063d3584e841161006d578063d3584e8414610641578063dfbf53ae14610660578063e3c608ef1461067f578063ed2cee9e146106a8578063f851a440146106c7575f5ffd5b8063c63735b3146105ec578063c87da02d14610605578063d011286314610619578063d116c8c41461062d575f5ffd5b8063905249a3116100d8578063905249a31461059b578063a4a00144146105ba578063b6f3d256146105cf578063bd097e21146105e4575f5ffd5b806375829def1461049f5780637bd2a5da146104be5780638c3d7301146104dd5780638d07ae9f146104f1575f5ffd5b80633c8c40911161018957806356f170821161015957806356f17082146103b4578063592fd028146103d357806362ea82db146103e75780636cb55d1a146104665780636f9fb98a1461048d575f5ffd5b80633c8c4091146103385780634c5aed38146103575780634e5cbf611461037657806353321ae614610395575f5ffd5b806326782247116101c4578063267822471461027f57806326bd8926146102b65780632e9e8e59146102d7578063356e7ccb146102fa575f5ffd5b80630bd58917146101f55780630bf3676714610216578063200d2ed21461022a5780632163b8c514610260575b5f5ffd5b348015610200575f5ffd5b5061021461020f3660046127a9565b6106e5565b005b348015610221575f5ffd5b50610214610843565b348015610235575f5ffd5b5060025461024a90600160a01b900460ff1681565b60405161025791906127f4565b60405180910390f35b34801561026b575f5ffd5b5061021461027a3660046128a1565b61092f565b34801561028a575f5ffd5b5060015461029e906001600160a01b031681565b6040516001600160a01b039091168152602001610257565b3480156102c1575f5ffd5b506102ca610b4c565b6040516102579190612913565b3480156102e2575f5ffd5b506102ec600f5481565b604051908152602001610257565b348015610305575f5ffd5b5061032861031436600461292c565b600a6020525f908152604090205460ff1681565b6040519015158152602001610257565b348015610343575f5ffd5b506102ec6103523660046128a1565b610bd8565b348015610362575f5ffd5b50610214610371366004612952565b610c0b565b348015610381575f5ffd5b5061021461039036600461292c565b610d55565b3480156103a0575f5ffd5b506102146103af3660046127a9565b610f1d565b3480156103bf575f5ffd5b506102146103ce36600461292c565b611129565b3480156103de575f5ffd5b50610214611300565b3480156103f2575f5ffd5b5061043561040136600461292c565b600b6020525f90815260409020805460018201546002830154600390930154919260ff808316936101009093048116921685565b6040516102579594939291909485529215156020850152901515604084015260608301521515608082015260a00190565b348015610471575f5ffd5b5061047a611515565b604051610257979695949392919061298c565b348015610498575f5ffd5b50476102ec565b3480156104aa575f5ffd5b506102146104b936600461292c565b61175e565b3480156104c9575f5ffd5b506102146104d83660046127a9565b611877565b3480156104e8575f5ffd5b506102146119f7565b3480156104fc575f5ffd5b5061057761050b36600461292c565b6001600160a01b03165f908152600b6020908152604091829020825160a08101845281548152600182015460ff80821615159483018590526101009091048116151594820185905260028301546060830181905260039093015416151560809091018190529193909190565b60408051941515855292151560208501529183015215156060820152608001610257565b3480156105a6575f5ffd5b506102146105b53660046129fb565b611a9e565b3480156105c5575f5ffd5b506102ec60105481565b3480156105da575f5ffd5b506102ec600e5481565b610214611ce0565b3480156105f7575f5ffd5b506012546103289060ff1681565b348015610610575f5ffd5b50600c546102ec565b348015610624575f5ffd5b50610214611d0c565b348015610638575f5ffd5b50610214611e3f565b34801561064c575f5ffd5b5061029e61065b3660046127a9565b61205a565b34801561066b575f5ffd5b50600d5461029e906001600160a01b031681565b34801561068a575f5ffd5b50610693612082565b60405161025799989796959493929190612af7565b3480156106b3575f5ffd5b5060025461029e906001600160a01b031681565b3480156106d2575f5ffd5b505f5461029e906001600160a01b031681565b6002546001600160a01b031661070e5760405163d6ea366360e01b815260040160405180910390fd5b6002546001600160a01b0316331461073957604051639864fbb360e01b815260040160405180910390fd5b60095460ff1661075c576040516355e9e64160e11b815260040160405180910390fd5b600480600254600160a01b900460ff16600781111561077d5761077d6127c0565b1461079b57604051630187fa8360e61b815260040160405180910390fd5b816107ed5760405162461bcd60e51b815260206004820152601e60248201527f496e76616c696420696e7370656374696f6e207265706f72742068617368000060448201526064015b60405180910390fd5b60108290556002805460ff60a01b1916600360a11b17905560408051338152602081018490527fef94af06cfa9a76c638dd1a1cfb86b07f938febf05374e3675aeced1f805205e91015b60405180910390a15050565b5f546001600160a01b0316331461086d57604051634755657960e01b815260040160405180910390fd5b60095460ff16610890576040516355e9e64160e11b815260040160405180910390fd5b6006544210156108b357604051633efbccb160e01b815260040160405180910390fd5b5f80600254600160a01b900460ff1660078111156108d3576108d36127c0565b146108f157604051630187fa8360e61b815260040160405180910390fd5b6002805460ff60a01b1916600160a01b1790556040517f2fd2f8fcbb75b0a142d3952ad3f5e92dd16aab6c8bbbd304bdb97066b33c062c905f90a150565b60095460ff16610952576040516355e9e64160e11b815260040160405180910390fd5b335f908152600a602052604090205460ff16610981576040516302f9ce3760e51b815260040160405180910390fd5b600180600254600160a01b900460ff1660078111156109a2576109a26127c0565b146109c057604051630187fa8360e61b815260040160405180910390fd5b335f908152600b60205260409020600181015460ff16610a155760405162461bcd60e51b815260206004820152601060248201526f139bc8189a59081cdd589b5a5d1d195960821b60448201526064016107e4565b6001810154610100900460ff1615610a665760405162461bcd60e51b8152602060048201526014602482015273109a5908185b1c9958591e481c995d99585b195960621b60448201526064016107e4565b5f8484604051602001610a7a929190612b82565b604051602081830303815290604052805190602001209050815f01548114610ae45760405162461bcd60e51b815260206004820181905260248201527f52657665616c20646f6573206e6f74206d61746368207365616c65642062696460448201526064016107e4565b6001828101805461ff0019166101001790556002830186905560038301805460ff1916909117905560408051338152602081018790527f9891bd98143d5a2c5f29be9a7ef8e5d7b723746fb3b75220234af7aa6caeecfe910160405180910390a15050505050565b60118054610b5990612ba2565b80601f0160208091040260200160405190810160405280929190818152602001828054610b8590612ba2565b8015610bd05780601f10610ba757610100808354040283529160200191610bd0565b820191905f5260205f20905b815481529060010190602001808311610bb357829003601f168201915b505050505081565b5f8282604051602001610bec929190612b82565b6040516020818303038152906040528051906020012090505b92915050565b6002546001600160a01b0316610c345760405163d6ea366360e01b815260040160405180910390fd5b6002546001600160a01b03163314610c5f57604051639864fbb360e01b815260040160405180910390fd5b60095460ff16610c82576040516355e9e64160e11b815260040160405180910390fd5b600480600254600160a01b900460ff166007811115610ca357610ca36127c0565b14610cc157604051630187fa8360e61b815260040160405180910390fd5b5f825111610d035760405162461bcd60e51b815260206004820152600f60248201526e1499585cdbdb881c995c5d5a5c9959608a1b60448201526064016107e4565b6011610d0f8382612c26565b506002805460ff60a01b1916600560a01b1790556040517f52fca0fcdda16f4a5f819b60bb9c2f99458433351b90e6fcb3e221fe03b10280906108379033908590612ce1565b5f546001600160a01b03163314610d7f57604051634755657960e01b815260040160405180910390fd5b60095460ff16610da2576040516355e9e64160e11b815260040160405180910390fd5b6001600160a01b038116610df85760405162461bcd60e51b815260206004820152601960248201527f496e76616c696420696e73706563746f7220616464726573730000000000000060448201526064016107e4565b6006600254600160a01b900460ff166007811115610e1857610e186127c0565b14158015610e4457506005600254600160a01b900460ff166007811115610e4157610e416127c0565b14155b8015610e6e57506007600254600160a01b900460ff166007811115610e6b57610e6b6127c0565b14155b610ec85760405162461bcd60e51b815260206004820152602560248201527f43616e6e6f74206368616e676520696e73706563746f72206174207468697320604482015264737461676560d81b60648201526084016107e4565b600280546001600160a01b0319166001600160a01b0383169081179091556040519081527fc7b11d63d071f03c4b488a3a44ee58c8a449f16b0ee289dd25af95c15c9f8e3a906020015b60405180910390a150565b60095460ff16610f40576040516355e9e64160e11b815260040160405180910390fd5b335f908152600a602052604090205460ff16610f6f576040516302f9ce3760e51b815260040160405180910390fd5b6006544210610f915760405163764b8e3360e11b815260040160405180910390fd5b5f80600254600160a01b900460ff166007811115610fb157610fb16127c0565b14610fcf57604051630187fa8360e61b815260040160405180910390fd5b335f908152600b602052604090206001015460ff16156110295760405162461bcd60e51b8152602060048201526015602482015274109a5908185b1c9958591e481cdd589b5a5d1d1959605a1b60448201526064016107e4565b816110765760405162461bcd60e51b815260206004820152601760248201527f496e76616c6964207365616c656420626964206861736800000000000000000060448201526064016107e4565b6040805160a081018252838152600160208083018281525f848601818152606086018281526080870183815233808552600b8752938990209751885593519587018054925161ffff1990931696151561ff00191696909617610100921515929092029190911790945592516002850155516003909301805460ff19169315159390931790925591519182527f88c5a0d081e0c7a69b5817581ffa85b19d71703bc581bb5c09fa253c527a055e9101610837565b5f546001600160a01b0316331461115357604051634755657960e01b815260040160405180910390fd5b60095460ff16611176576040516355e9e64160e11b815260040160405180910390fd5b5f80600254600160a01b900460ff166007811115611196576111966127c0565b146111b457604051630187fa8360e61b815260040160405180910390fd5b6001600160a01b0382166112035760405162461bcd60e51b8152602060048201526016602482015275496e76616c696420626964646572206164647265737360501b60448201526064016107e4565b6001600160a01b0382165f908152600a602052604090205460ff161561126b5760405162461bcd60e51b815260206004820152601960248201527f42696464657220616c726561647920726567697374657265640000000000000060448201526064016107e4565b6001600160a01b0382165f818152600a60209081526040808320805460ff19166001908117909155600c805491820181559093527fdf6966c971051c3d54ec59162606531493a51404a002842f56009d7e5cf4a8c790920180546001600160a01b0319168417905590519182527f381919937473504a02352aede091840b8e02ca2ce85b2c8513022353225faf779101610837565b5f546001600160a01b0316331461132a57604051634755657960e01b815260040160405180910390fd5b60095460ff1661134d576040516355e9e64160e11b815260040160405180910390fd5b600180600254600160a01b900460ff16600781111561136e5761136e6127c0565b1461138c57604051630187fa8360e61b815260040160405180910390fd5b5f5f19815b600c54811015611450575f600c82815481106113af576113af612d04565b5f9182526020808320909101546001600160a01b0316808352600b8252604092839020835160a08101855281548152600182015460ff8082161515958301959095526101009004841615159481019490945260028101546060850152600301549091161580156080840181905291935061142a575080604001515b1561144657838160600151101561144657806060015193508194505b5050600101611391565b506001600160a01b0382166114a05760405162461bcd60e51b81526020600482015260166024820152754e6f2076616c69642072657665616c6564206269647360501b60448201526064016107e4565b600d80546001600160a01b0319166001600160a01b038416908117909155600e8290556002805460ff60a01b1916600160a11b179055604080519182526020820183905280517f44a8e45b0547725a1b190fe91fba127f673b8cec941ceaf8b3e2e67d61055dfe9281900390910190a1505050565b60038054819061152490612ba2565b80601f016020809104026020016040519081016040528092919081815260200182805461155090612ba2565b801561159b5780601f106115725761010080835404028352916020019161159b565b820191905f5260205f20905b81548152906001019060200180831161157e57829003601f168201915b5050505050908060010180546115b090612ba2565b80601f01602080910402602001604051908101604052809291908181526020018280546115dc90612ba2565b80156116275780601f106115fe57610100808354040283529160200191611627565b820191905f5260205f20905b81548152906001019060200180831161160a57829003601f168201915b50505050509080600201805461163c90612ba2565b80601f016020809104026020016040519081016040528092919081815260200182805461166890612ba2565b80156116b35780601f1061168a576101008083540402835291602001916116b3565b820191905f5260205f20905b81548152906001019060200180831161169657829003601f168201915b5050505050908060030154908060040154908060050180546116d490612ba2565b80601f016020809104026020016040519081016040528092919081815260200182805461170090612ba2565b801561174b5780601f106117225761010080835404028352916020019161174b565b820191905f5260205f20905b81548152906001019060200180831161172e57829003601f168201915b5050506006909301549192505060ff1687565b5f546001600160a01b0316331461178857604051634755657960e01b815260040160405180910390fd5b6001600160a01b0381166117d25760405162461bcd60e51b815260206004820152601160248201527024b73b30b634b2103732bb9030b236b4b760791b60448201526064016107e4565b5f546001600160a01b03908116908216036118275760405162461bcd60e51b815260206004820152601560248201527420b63932b0b23c9031bab93932b73a1030b236b4b760591b60448201526064016107e4565b600180546001600160a01b0319166001600160a01b038381169182179092555f8054604051929316917fb4d7bcb4d9a5d6ef6e827e3b1554e5a2578ad9ca843903d42b05d08bfa3458949190a350565b60095460ff1661189a576040516355e9e64160e11b815260040160405180910390fd5b600380600254600160a01b900460ff1660078111156118bb576118bb6127c0565b146118d957604051630187fa8360e61b815260040160405180910390fd5b6002546001600160a01b03166119025760405163d6ea366360e01b815260040160405180910390fd5b600d546001600160a01b0316331461195c5760405162461bcd60e51b815260206004820152601f60248201527f4f6e6c792077696e6e65722063616e207375626d69742064656c69766572790060448201526064016107e4565b816119a95760405162461bcd60e51b815260206004820152601e60248201527f496e76616c69642064656c69766572792065766964656e63652068617368000060448201526064016107e4565b600f8290556002805460ff60a01b1916600160a21b17905560408051338152602081018490527fae1f4649889be6b26bcf006a04c674019d1ebafaa07f234652d80cb084e77c579101610837565b6001546001600160a01b03163314611a455760405162461bcd60e51b81526020600482015260116024820152702737ba103832b73234b7339030b236b4b760791b60448201526064016107e4565b5f8054600180546001600160a01b038082166001600160a01b031980861682178755909216909255604051919092169283917ff8ccb027dfcd135e000e9d45e6cc2d662578a8825d4c45b5e32e0adf67e79ec69190a350565b5f546001600160a01b03163314611ac857604051634755657960e01b815260040160405180910390fd5b60095460ff1615611b145760405162461bcd60e51b815260206004820152601660248201527515195b99195c88185b1c9958591e4818dc99585d195960521b60448201526064016107e4565b5f8211611b755760405162461bcd60e51b815260206004820152602960248201527f436f6e747261637420616d6f756e74206d7573742062652067726561746572206044820152687468616e207a65726f60b81b60648201526084016107e4565b5f611b84898989898989612319565b9050428111611bd55760405162461bcd60e51b815260206004820152601e60248201527f446561646c696e65206d75737420626520696e2074686520667574757265000060448201526064016107e4565b6040805160e0810182528d8152602081018d90529081018b9052606081018290526080810184905260a08101839052600160c0820152600380611c188f82612c26565b5060208201516001820190611c2d9082612c26565b5060408201516002820190611c429082612c26565b50606082015160038201556080820151600482015560a08201516005820190611c6b9082612c26565b5060c091909101516006909101805460ff19169115159190911790556002805460ff60a01b191690556040517f1b8026edb59eb0a93ac326ac7a523b0055a7bd12f595a560e2e75e798f1d20f190611cca908e908e9085908890612d18565b60405180910390a1505050505050505050505050565b5f546001600160a01b03163314611d0a57604051634755657960e01b815260040160405180910390fd5b565b5f546001600160a01b03163314611d3657604051634755657960e01b815260040160405180910390fd5b60095460ff16611d59576040516355e9e64160e11b815260040160405180910390fd5b600280600254600160a01b900460ff166007811115611d7a57611d7a6127c0565b14611d9857604051630187fa8360e61b815260040160405180910390fd5b600d546001600160a01b0316611de55760405162461bcd60e51b8152602060048201526012602482015271139bc81dda5b9b995c881cd95b1958dd195960721b60448201526064016107e4565b6002805460ff60a01b1916600360a01b179055600d54600e54604080516001600160a01b03909316835260208301919091527fb973b46a8f1e88b970a622bf0cf618b80895efa9af0b01edd9b2608fb8a6914e9101610f12565b5f546001600160a01b03163314611e6957604051634755657960e01b815260040160405180910390fd5b60095460ff16611e8c576040516355e9e64160e11b815260040160405180910390fd5b600680600254600160a01b900460ff166007811115611ead57611ead6127c0565b14611ecb57604051630187fa8360e61b815260040160405180910390fd5b60125460ff1615611f1e5760405162461bcd60e51b815260206004820152601860248201527f5061796d656e7420616c72656164792072656c6561736564000000000000000060448201526064016107e4565b600d546001600160a01b0316611f675760405162461bcd60e51b815260206004820152600e60248201526d15da5b9b995c881b9bdd081cd95d60921b60448201526064016107e4565b600754471015611fb95760405162461bcd60e51b815260206004820152601d60248201527f496e73756666696369656e7420636f6e74726163742062616c616e636500000060448201526064016107e4565b6012805460ff191660011790556002805460ff60a01b1916600760a01b179055600d546007546040516001600160a01b039092169181156108fc0291905f818181858888f19350505050158015612012573d5f5f3e3d5ffd5b50600d54600754604080516001600160a01b03909316835260208301919091527fdf20fd1e76bc69d672e4814fafb2c449bba3a5369d8359adf9e05e6fde87b0569101610f12565b600c8181548110612069575f80fd5b5f918252602090912001546001600160a01b0316905081565b60608060605f5f60605f5f5f60035f016003600101600360020160038001546003600401546003600501600260149054906101000a900460ff16600d5f9054906101000a90046001600160a01b0316600e548880546120e090612ba2565b80601f016020809104026020016040519081016040528092919081815260200182805461210c90612ba2565b80156121575780601f1061212e57610100808354040283529160200191612157565b820191905f5260205f20905b81548152906001019060200180831161213a57829003601f168201915b5050505050985087805461216a90612ba2565b80601f016020809104026020016040519081016040528092919081815260200182805461219690612ba2565b80156121e15780601f106121b8576101008083540402835291602001916121e1565b820191905f5260205f20905b8154815290600101906020018083116121c457829003601f168201915b505050505097508680546121f490612ba2565b80601f016020809104026020016040519081016040528092919081815260200182805461222090612ba2565b801561226b5780601f106122425761010080835404028352916020019161226b565b820191905f5260205f20905b81548152906001019060200180831161224e57829003601f168201915b5050505050965083805461227e90612ba2565b80601f01602080910402602001604051908101604052809291908181526020018280546122aa90612ba2565b80156122f55780601f106122cc576101008083540402835291602001916122f5565b820191905f5260205f20905b8154815290600101906020018083116122d857829003601f168201915b50505050509350985098509850985098509850985098509850909192939495969798565b5f6107b2871015801561232e57506108348711155b6123695760405162461bcd60e51b815260206004820152600c60248201526b24b73b30b634b2103cb2b0b960a11b60448201526064016107e4565b6001861015801561237b5750600c8611155b6123b75760405162461bcd60e51b815260206004820152600d60248201526c092dcecc2d8d2c840dadedce8d609b1b60448201526064016107e4565b601884106123f65760405162461bcd60e51b815260206004820152600c60248201526b24b73b30b634b2103437bab960a11b60448201526064016107e4565b603c83106124375760405162461bcd60e51b815260206004820152600e60248201526d496e76616c6964206d696e75746560901b60448201526064016107e4565b600b19821215801561244a5750600e8213155b61248b5760405162461bcd60e51b8152602060048201526012602482015271125b9d985b1a5908155510c81bd9999cd95d60721b60448201526064016107e4565b5f612496888861254d565b9050600186101580156124a95750808611155b6124e35760405162461bcd60e51b815260206004820152600b60248201526a496e76616c69642064617960a81b60448201526064016107e4565b6124f188888888885f6125b1565b91505f8313156125185761250783610e10612d64565b6125119083612d7b565b9150612542565b5f8312156125425761252983612d8e565b61253590610e10612d64565b61253f9083612da8565b91505b509695505050505050565b5f816002036125775761255f8361274d565b61256a57601c61256d565b601d5b60ff169050610c05565b81600414806125865750816006145b806125915750816009145b8061259c575081600b145b156125a95750601e610c05565b50601f610c05565b5f6107b25b878161ffff161015612608576125cb8161274d565b156125e5576125de6301e2850083612da8565b91506125f6565b6125f36301e1338083612da8565b91505b8061260081612dbb565b9150506125b6565b6040805161018081018252601f808252601c6020830152918101829052601e606082018190526080820183905260a0820181905260c0820183905260e08201839052610100820181905261012082018390526101408201526101608101919091526126728961274d565b1561267f57601d60208201525b600191505b878261ffff1610156126e3578061269c600184612ddb565b61ffff16600c81106126b0576126b0612d04565b60200201516126c59060ff1662015180612d64565b6126cf9084612da8565b9250816126db81612dbb565b925050612684565b6126ee600188612d7b565b6126fb9062015180612d64565b6127059084612da8565b925061271386610e10612d64565b61271d9084612da8565b925061272a85603c612d64565b6127349084612da8565b92506127408484612da8565b9998505050505050505050565b5f612759600483612df5565b61ffff161561276957505f919050565b612774606483612df5565b61ffff161561278557506001919050565b61279161019083612df5565b61ffff16156127a157505f919050565b506001919050565b5f602082840312156127b9575f5ffd5b5035919050565b634e487b7160e01b5f52602160045260245ffd5b600881106127f057634e487b7160e01b5f52602160045260245ffd5b9052565b60208101610c0582846127d4565b634e487b7160e01b5f52604160045260245ffd5b5f82601f830112612825575f5ffd5b813567ffffffffffffffff81111561283f5761283f612802565b604051601f8201601f19908116603f0116810167ffffffffffffffff8111828210171561286e5761286e612802565b604052818152838201602001851015612885575f5ffd5b816020850160208301375f918101602001919091529392505050565b5f5f604083850312156128b2575f5ffd5b82359150602083013567ffffffffffffffff8111156128cf575f5ffd5b6128db85828601612816565b9150509250929050565b5f81518084528060208401602086015e5f602082860101526020601f19601f83011685010191505092915050565b602081525f61292560208301846128e5565b9392505050565b5f6020828403121561293c575f5ffd5b81356001600160a01b0381168114612925575f5ffd5b5f60208284031215612962575f5ffd5b813567ffffffffffffffff811115612978575f5ffd5b61298484828501612816565b949350505050565b60e081525f61299e60e083018a6128e5565b82810360208401526129b0818a6128e5565b905082810360408401526129c481896128e5565b905086606084015285608084015282810360a08401526129e481866128e5565b91505082151560c083015298975050505050505050565b5f5f5f5f5f5f5f5f5f5f5f6101608c8e031215612a16575f5ffd5b8b3567ffffffffffffffff811115612a2c575f5ffd5b612a388e828f01612816565b9b505060208c013567ffffffffffffffff811115612a54575f5ffd5b612a608e828f01612816565b9a505060408c013567ffffffffffffffff811115612a7c575f5ffd5b612a888e828f01612816565b99505060608c0135975060808c0135965060a08c0135955060c08c0135945060e08c013593506101008c013592506101208c013591506101408c013567ffffffffffffffff811115612ad8575f5ffd5b612ae48e828f01612816565b9150509295989b509295989b9093969950565b61012081525f612b0b61012083018c6128e5565b8281036020840152612b1d818c6128e5565b90508281036040840152612b31818b6128e5565b905088606084015287608084015282810360a0840152612b5181886128e5565b915050612b6160c08301866127d4565b6001600160a01b039390931660e08201526101000152979650505050505050565b8281525f82518060208501602085015e5f92016020019182525092915050565b600181811c90821680612bb657607f821691505b602082108103612bd457634e487b7160e01b5f52602260045260245ffd5b50919050565b601f821115612c2157805f5260205f20601f840160051c81016020851015612bff5750805b601f840160051c820191505b81811015612c1e575f8155600101612c0b565b50505b505050565b815167ffffffffffffffff811115612c4057612c40612802565b612c5481612c4e8454612ba2565b84612bda565b6020601f821160018114612c86575f8315612c6f5750848201515b5f19600385901b1c1916600184901b178455612c1e565b5f84815260208120601f198516915b82811015612cb55787850151825560209485019460019092019101612c95565b5084821015612cd257868401515f19600387901b60f8161c191681555b50505050600190811b01905550565b6001600160a01b03831681526040602082018190525f90612984908301846128e5565b634e487b7160e01b5f52603260045260245ffd5b608081525f612d2a60808301876128e5565b8281036020840152612d3c81876128e5565b604084019590955250506060015292915050565b634e487b7160e01b5f52601160045260245ffd5b8082028115828204841417610c0557610c05612d50565b81810381811115610c0557610c05612d50565b5f600160ff1b8201612da257612da2612d50565b505f0390565b80820180821115610c0557610c05612d50565b5f61ffff821661ffff8103612dd257612dd2612d50565b60010192915050565b61ffff8281168282160390811115610c0557610c05612d50565b5f61ffff831680612e1457634e487b7160e01b5f52601260045260245ffd5b8061ffff8416069150509291505056fea26469706673582212209b5020d4796fbfd6ed325c0a9ee9feb9ac66e94c33b2cef50d14259ebea10bd064736f6c634300081f0033",
			"opcodes": "PUSH1 0x80 PUSH1 0x40 MSTORE PUSH0 DUP1 SLOAD PUSH1 0x1 PUSH1 0x1 PUSH1 0xA0 SHL SUB NOT AND CALLER OR SWAP1 SSTORE PUSH2 0x2E5A DUP1 PUSH2 0x22 PUSH0 CODECOPY PUSH0 RETURN INVALID PUSH1 0x80 PUSH1 0x40 MSTORE PUSH1 0x4 CALLDATASIZE LT PUSH2 0x1F1 JUMPI PUSH0 CALLDATALOAD PUSH1 0xE0 SHR DUP1 PUSH4 0x75829DEF GT PUSH2 0x108 JUMPI DUP1 PUSH4 0xC63735B3 GT PUSH2 0x9D JUMPI DUP1 PUSH4 0xD3584E84 GT PUSH2 0x6D JUMPI DUP1 PUSH4 0xD3584E84 EQ PUSH2 0x641 JUMPI DUP1 PUSH4 0xDFBF53AE EQ PUSH2 0x660 JUMPI DUP1 PUSH4 0xE3C608EF EQ PUSH2 0x67F JUMPI DUP1 PUSH4 0xED2CEE9E EQ PUSH2 0x6A8 JUMPI DUP1 PUSH4 0xF851A440 EQ PUSH2 0x6C7 JUMPI PUSH0 PUSH0 REVERT JUMPDEST DUP1 PUSH4 0xC63735B3 EQ PUSH2 0x5EC JUMPI DUP1 PUSH4 0xC87DA02D EQ PUSH2 0x605 JUMPI DUP1 PUSH4 0xD0112863 EQ PUSH2 0x619 JUMPI DUP1 PUSH4 0xD116C8C4 EQ PUSH2 0x62D JUMPI PUSH0 PUSH0 REVERT JUMPDEST DUP1 PUSH4 0x905249A3 GT PUSH2 0xD8 JUMPI DUP1 PUSH4 0x905249A3 EQ PUSH2 0x59B JUMPI DUP1 PUSH4 0xA4A00144 EQ PUSH2 0x5BA JUMPI DUP1 PUSH4 0xB6F3D256 EQ PUSH2 0x5CF JUMPI DUP1 PUSH4 0xBD097E21 EQ PUSH2 0x5E4 JUMPI PUSH0 PUSH0 REVERT JUMPDEST DUP1 PUSH4 0x75829DEF EQ PUSH2 0x49F JUMPI DUP1 PUSH4 0x7BD2A5DA EQ PUSH2 0x4BE JUMPI DUP1 PUSH4 0x8C3D7301 EQ PUSH2 0x4DD JUMPI DUP1 PUSH4 0x8D07AE9F EQ PUSH2 0x4F1 JUMPI PUSH0 PUSH0 REVERT JUMPDEST DUP1 PUSH4 0x3C8C4091 GT PUSH2 0x189 JUMPI DUP1 PUSH4 0x56F17082 GT PUSH2 0x159 JUMPI DUP1 PUSH4 0x56F17082 EQ PUSH2 0x3B4 JUMPI DUP1 PUSH4 0x592FD028 EQ PUSH2 0x3D3 JUMPI DUP1 PUSH4 0x62EA82DB EQ PUSH2 0x3E7 JUMPI DUP1 PUSH4 0x6CB55D1A EQ PUSH2 0x466 JUMPI DUP1 PUSH4 0x6F9FB98A EQ PUSH2 0x48D JUMPI PUSH0 PUSH0 REVERT JUMPDEST DUP1 PUSH4 0x3C8C4091 EQ PUSH2 0x338 JUMPI DUP1 PUSH4 0x4C5AED38 EQ PUSH2 0x357 JUMPI DUP1 PUSH4 0x4E5CBF61 EQ PUSH2 0x376 JUMPI DUP1 PUSH4 0x53321AE6 EQ PUSH2 0x395 JUMPI PUSH0 PUSH0 REVERT JUMPDEST DUP1 PUSH4 0x26782247 GT PUSH2 0x1C4 JUMPI DUP1 PUSH4 0x26782247 EQ PUSH2 0x27F JUMPI DUP1 PUSH4 0x26BD8926 EQ PUSH2 0x2B6 JUMPI DUP1 PUSH4 0x2E9E8E59 EQ PUSH2 0x2D7 JUMPI DUP1 PUSH4 0x356E7CCB EQ PUSH2 0x2FA JUMPI PUSH0 PUSH0 REVERT JUMPDEST DUP1 PUSH4 0xBD58917 EQ PUSH2 0x1F5 JUMPI DUP1 PUSH4 0xBF36767 EQ PUSH2 0x216 JUMPI DUP1 PUSH4 0x200D2ED2 EQ PUSH2 0x22A JUMPI DUP1 PUSH4 0x2163B8C5 EQ PUSH2 0x260 JUMPI JUMPDEST PUSH0 PUSH0 REVERT JUMPDEST CALLVALUE DUP1 ISZERO PUSH2 0x200 JUMPI PUSH0 PUSH0 REVERT JUMPDEST POP PUSH2 0x214 PUSH2 0x20F CALLDATASIZE PUSH1 0x4 PUSH2 0x27A9 JUMP JUMPDEST PUSH2 0x6E5 JUMP JUMPDEST STOP JUMPDEST CALLVALUE DUP1 ISZERO PUSH2 0x221 JUMPI PUSH0 PUSH0 REVERT JUMPDEST POP PUSH2 0x214 PUSH2 0x843 JUMP JUMPDEST CALLVALUE DUP1 ISZERO PUSH2 0x235 JUMPI PUSH0 PUSH0 REVERT JUMPDEST POP PUSH1 0x2 SLOAD PUSH2 0x24A SWAP1 PUSH1 0x1 PUSH1 0xA0 SHL SWAP1 DIV PUSH1 0xFF AND DUP2 JUMP JUMPDEST PUSH1 0x40 MLOAD PUSH2 0x257 SWAP2 SWAP1 PUSH2 0x27F4 JUMP JUMPDEST PUSH1 0x40 MLOAD DUP1 SWAP2 SUB SWAP1 RETURN JUMPDEST CALLVALUE DUP1 ISZERO PUSH2 0x26B JUMPI PUSH0 PUSH0 REVERT JUMPDEST POP PUSH2 0x214 PUSH2 0x27A CALLDATASIZE PUSH1 0x4 PUSH2 0x28A1 JUMP JUMPDEST PUSH2 0x92F JUMP JUMPDEST CALLVALUE DUP1 ISZERO PUSH2 0x28A JUMPI PUSH0 PUSH0 REVERT JUMPDEST POP PUSH1 0x1 SLOAD PUSH2 0x29E SWAP1 PUSH1 0x1 PUSH1 0x1 PUSH1 0xA0 SHL SUB AND DUP2 JUMP JUMPDEST PUSH1 0x40 MLOAD PUSH1 0x1 PUSH1 0x1 PUSH1 0xA0 SHL SUB SWAP1 SWAP2 AND DUP2 MSTORE PUSH1 0x20 ADD PUSH2 0x257 JUMP JUMPDEST CALLVALUE DUP1 ISZERO PUSH2 0x2C1 JUMPI PUSH0 PUSH0 REVERT JUMPDEST POP PUSH2 0x2CA PUSH2 0xB4C JUMP JUMPDEST PUSH1 0x40 MLOAD PUSH2 0x257 SWAP2 SWAP1 PUSH2 0x2913 JUMP JUMPDEST CALLVALUE DUP1 ISZERO PUSH2 0x2E2 JUMPI PUSH0 PUSH0 REVERT JUMPDEST POP PUSH2 0x2EC PUSH1 0xF SLOAD DUP2 JUMP JUMPDEST PUSH1 0x40 MLOAD SWAP1 DUP2 MSTORE PUSH1 0x20 ADD PUSH2 0x257 JUMP JUMPDEST CALLVALUE DUP1 ISZERO PUSH2 0x305 JUMPI PUSH0 PUSH0 REVERT JUMPDEST POP PUSH2 0x328 PUSH2 0x314 CALLDATASIZE PUSH1 0x4 PUSH2 0x292C JUMP JUMPDEST PUSH1 0xA PUSH1 0x20 MSTORE PUSH0 SWAP1 DUP2 MSTORE PUSH1 0x40 SWAP1 KECCAK256 SLOAD PUSH1 0xFF AND DUP2 JUMP JUMPDEST PUSH1 0x40 MLOAD SWAP1 ISZERO ISZERO DUP2 MSTORE PUSH1 0x20 ADD PUSH2 0x257 JUMP JUMPDEST CALLVALUE DUP1 ISZERO PUSH2 0x343 JUMPI PUSH0 PUSH0 REVERT JUMPDEST POP PUSH2 0x2EC PUSH2 0x352 CALLDATASIZE PUSH1 0x4 PUSH2 0x28A1 JUMP JUMPDEST PUSH2 0xBD8 JUMP JUMPDEST CALLVALUE DUP1 ISZERO PUSH2 0x362 JUMPI PUSH0 PUSH0 REVERT JUMPDEST POP PUSH2 0x214 PUSH2 0x371 CALLDATASIZE PUSH1 0x4 PUSH2 0x2952 JUMP JUMPDEST PUSH2 0xC0B JUMP JUMPDEST CALLVALUE DUP1 ISZERO PUSH2 0x381 JUMPI PUSH0 PUSH0 REVERT JUMPDEST POP PUSH2 0x214 PUSH2 0x390 CALLDATASIZE PUSH1 0x4 PUSH2 0x292C JUMP JUMPDEST PUSH2 0xD55 JUMP JUMPDEST CALLVALUE DUP1 ISZERO PUSH2 0x3A0 JUMPI PUSH0 PUSH0 REVERT JUMPDEST POP PUSH2 0x214 PUSH2 0x3AF CALLDATASIZE PUSH1 0x4 PUSH2 0x27A9 JUMP JUMPDEST PUSH2 0xF1D JUMP JUMPDEST CALLVALUE DUP1 ISZERO PUSH2 0x3BF JUMPI PUSH0 PUSH0 REVERT JUMPDEST POP PUSH2 0x214 PUSH2 0x3CE CALLDATASIZE PUSH1 0x4 PUSH2 0x292C JUMP JUMPDEST PUSH2 0x1129 JUMP JUMPDEST CALLVALUE DUP1 ISZERO PUSH2 0x3DE JUMPI PUSH0 PUSH0 REVERT JUMPDEST POP PUSH2 0x214 PUSH2 0x1300 JUMP JUMPDEST CALLVALUE DUP1 ISZERO PUSH2 0x3F2 JUMPI PUSH0 PUSH0 REVERT JUMPDEST POP PUSH2 0x435 PUSH2 0x401 CALLDATASIZE PUSH1 0x4 PUSH2 0x292C JUMP JUMPDEST PUSH1 0xB PUSH1 0x20 MSTORE PUSH0 SWAP1 DUP2 MSTORE PUSH1 0x40 SWAP1 KECCAK256 DUP1 SLOAD PUSH1 0x1 DUP3 ADD SLOAD PUSH1 0x2 DUP4 ADD SLOAD PUSH1 0x3 SWAP1 SWAP4 ADD SLOAD SWAP2 SWAP3 PUSH1 0xFF DUP1 DUP4 AND SWAP4 PUSH2 0x100 SWAP1 SWAP4 DIV DUP2 AND SWAP3 AND DUP6 JUMP JUMPDEST PUSH1 0x40 MLOAD PUSH2 0x257 SWAP6 SWAP5 SWAP4 SWAP3 SWAP2 SWAP1 SWAP5 DUP6 MSTORE SWAP3 ISZERO ISZERO PUSH1 0x20 DUP6 ADD MSTORE SWAP1 ISZERO ISZERO PUSH1 0x40 DUP5 ADD MSTORE PUSH1 0x60 DUP4 ADD MSTORE ISZERO ISZERO PUSH1 0x80 DUP3 ADD MSTORE PUSH1 0xA0 ADD SWAP1 JUMP JUMPDEST CALLVALUE DUP1 ISZERO PUSH2 0x471 JUMPI PUSH0 PUSH0 REVERT JUMPDEST POP PUSH2 0x47A PUSH2 0x1515 JUMP JUMPDEST PUSH1 0x40 MLOAD PUSH2 0x257 SWAP8 SWAP7 SWAP6 SWAP5 SWAP4 SWAP3 SWAP2 SWAP1 PUSH2 0x298C JUMP JUMPDEST CALLVALUE DUP1 ISZERO PUSH2 0x498 JUMPI PUSH0 PUSH0 REVERT JUMPDEST POP SELFBALANCE PUSH2 0x2EC JUMP JUMPDEST CALLVALUE DUP1 ISZERO PUSH2 0x4AA JUMPI PUSH0 PUSH0 REVERT JUMPDEST POP PUSH2 0x214 PUSH2 0x4B9 CALLDATASIZE PUSH1 0x4 PUSH2 0x292C JUMP JUMPDEST PUSH2 0x175E JUMP JUMPDEST CALLVALUE DUP1 ISZERO PUSH2 0x4C9 JUMPI PUSH0 PUSH0 REVERT JUMPDEST POP PUSH2 0x214 PUSH2 0x4D8 CALLDATASIZE PUSH1 0x4 PUSH2 0x27A9 JUMP JUMPDEST PUSH2 0x1877 JUMP JUMPDEST CALLVALUE DUP1 ISZERO PUSH2 0x4E8 JUMPI PUSH0 PUSH0 REVERT JUMPDEST POP PUSH2 0x214 PUSH2 0x19F7 JUMP JUMPDEST CALLVALUE DUP1 ISZERO PUSH2 0x4FC JUMPI PUSH0 PUSH0 REVERT JUMPDEST POP PUSH2 0x577 PUSH2 0x50B CALLDATASIZE PUSH1 0x4 PUSH2 0x292C JUMP JUMPDEST PUSH1 0x1 PUSH1 0x1 PUSH1 0xA0 SHL SUB AND PUSH0 SWAP1 DUP2 MSTORE PUSH1 0xB PUSH1 0x20 SWAP1 DUP2 MSTORE PUSH1 0x40 SWAP2 DUP3 SWAP1 KECCAK256 DUP3 MLOAD PUSH1 0xA0 DUP2 ADD DUP5 MSTORE DUP2 SLOAD DUP2 MSTORE PUSH1 0x1 DUP3 ADD SLOAD PUSH1 0xFF DUP1 DUP3 AND ISZERO ISZERO SWAP5 DUP4 ADD DUP6 SWAP1 MSTORE PUSH2 0x100 SWAP1 SWAP2 DIV DUP2 AND ISZERO ISZERO SWAP5 DUP3 ADD DUP6 SWAP1 MSTORE PUSH1 0x2 DUP4 ADD SLOAD PUSH1 0x60 DUP4 ADD DUP2 SWAP1 MSTORE PUSH1 0x3 SWAP1 SWAP4 ADD SLOAD AND ISZERO ISZERO PUSH1 0x80 SWAP1 SWAP2 ADD DUP2 SWAP1 MSTORE SWAP2 SWAP4 SWAP1 SWAP2 SWAP1 JUMP JUMPDEST PUSH1 0x40 DUP1 MLOAD SWAP5 ISZERO ISZERO DUP6 MSTORE SWAP3 ISZERO ISZERO PUSH1 0x20 DUP6 ADD MSTORE SWAP2 DUP4 ADD MSTORE ISZERO ISZERO PUSH1 0x60 DUP3 ADD MSTORE PUSH1 0x80 ADD PUSH2 0x257 JUMP JUMPDEST CALLVALUE DUP1 ISZERO PUSH2 0x5A6 JUMPI PUSH0 PUSH0 REVERT JUMPDEST POP PUSH2 0x214 PUSH2 0x5B5 CALLDATASIZE PUSH1 0x4 PUSH2 0x29FB JUMP JUMPDEST PUSH2 0x1A9E JUMP JUMPDEST CALLVALUE DUP1 ISZERO PUSH2 0x5C5 JUMPI PUSH0 PUSH0 REVERT JUMPDEST POP PUSH2 0x2EC PUSH1 0x10 SLOAD DUP2 JUMP JUMPDEST CALLVALUE DUP1 ISZERO PUSH2 0x5DA JUMPI PUSH0 PUSH0 REVERT JUMPDEST POP PUSH2 0x2EC PUSH1 0xE SLOAD DUP2 JUMP JUMPDEST PUSH2 0x214 PUSH2 0x1CE0 JUMP JUMPDEST CALLVALUE DUP1 ISZERO PUSH2 0x5F7 JUMPI PUSH0 PUSH0 REVERT JUMPDEST POP PUSH1 0x12 SLOAD PUSH2 0x328 SWAP1 PUSH1 0xFF AND DUP2 JUMP JUMPDEST CALLVALUE DUP1 ISZERO PUSH2 0x610 JUMPI PUSH0 PUSH0 REVERT JUMPDEST POP PUSH1 0xC SLOAD PUSH2 0x2EC JUMP JUMPDEST CALLVALUE DUP1 ISZERO PUSH2 0x624 JUMPI PUSH0 PUSH0 REVERT JUMPDEST POP PUSH2 0x214 PUSH2 0x1D0C JUMP JUMPDEST CALLVALUE DUP1 ISZERO PUSH2 0x638 JUMPI PUSH0 PUSH0 REVERT JUMPDEST POP PUSH2 0x214 PUSH2 0x1E3F JUMP JUMPDEST CALLVALUE DUP1 ISZERO PUSH2 0x64C JUMPI PUSH0 PUSH0 REVERT JUMPDEST POP PUSH2 0x29E PUSH2 0x65B CALLDATASIZE PUSH1 0x4 PUSH2 0x27A9 JUMP JUMPDEST PUSH2 0x205A JUMP JUMPDEST CALLVALUE DUP1 ISZERO PUSH2 0x66B JUMPI PUSH0 PUSH0 REVERT JUMPDEST POP PUSH1 0xD SLOAD PUSH2 0x29E SWAP1 PUSH1 0x1 PUSH1 0x1 PUSH1 0xA0 SHL SUB AND DUP2 JUMP JUMPDEST CALLVALUE DUP1 ISZERO PUSH2 0x68A JUMPI PUSH0 PUSH0 REVERT JUMPDEST POP PUSH2 0x693 PUSH2 0x2082 JUMP JUMPDEST PUSH1 0x40 MLOAD PUSH2 0x257 SWAP10 SWAP9 SWAP8 SWAP7 SWAP6 SWAP5 SWAP4 SWAP3 SWAP2 SWAP1 PUSH2 0x2AF7 JUMP JUMPDEST CALLVALUE DUP1 ISZERO PUSH2 0x6B3 JUMPI PUSH0 PUSH0 REVERT JUMPDEST POP PUSH1 0x2 SLOAD PUSH2 0x29E SWAP1 PUSH1 0x1 PUSH1 0x1 PUSH1 0xA0 SHL SUB AND DUP2 JUMP JUMPDEST CALLVALUE DUP1 ISZERO PUSH2 0x6D2 JUMPI PUSH0 PUSH0 REVERT JUMPDEST POP PUSH0 SLOAD PUSH2 0x29E SWAP1 PUSH1 0x1 PUSH1 0x1 PUSH1 0xA0 SHL SUB AND DUP2 JUMP JUMPDEST PUSH1 0x2 SLOAD PUSH1 0x1 PUSH1 0x1 PUSH1 0xA0 SHL SUB AND PUSH2 0x70E JUMPI PUSH1 0x40 MLOAD PUSH4 0xD6EA3663 PUSH1 0xE0 SHL DUP2 MSTORE PUSH1 0x4 ADD PUSH1 0x40 MLOAD DUP1 SWAP2 SUB SWAP1 REVERT JUMPDEST PUSH1 0x2 SLOAD PUSH1 0x1 PUSH1 0x1 PUSH1 0xA0 SHL SUB AND CALLER EQ PUSH2 0x739 JUMPI PUSH1 0x40 MLOAD PUSH4 0x9864FBB3 PUSH1 0xE0 SHL DUP2 MSTORE PUSH1 0x4 ADD PUSH1 0x40 MLOAD DUP1 SWAP2 SUB SWAP1 REVERT JUMPDEST PUSH1 0x9 SLOAD PUSH1 0xFF AND PUSH2 0x75C JUMPI PUSH1 0x40 MLOAD PUSH4 0x55E9E641 PUSH1 0xE1 SHL DUP2 MSTORE PUSH1 0x4 ADD PUSH1 0x40 MLOAD DUP1 SWAP2 SUB SWAP1 REVERT JUMPDEST PUSH1 0x4 DUP1 PUSH1 0x2 SLOAD PUSH1 0x1 PUSH1 0xA0 SHL SWAP1 DIV PUSH1 0xFF AND PUSH1 0x7 DUP2 GT ISZERO PUSH2 0x77D JUMPI PUSH2 0x77D PUSH2 0x27C0 JUMP JUMPDEST EQ PUSH2 0x79B JUMPI PUSH1 0x40 MLOAD PUSH4 0x187FA83 PUSH1 0xE6 SHL DUP2 MSTORE PUSH1 0x4 ADD PUSH1 0x40 MLOAD DUP1 SWAP2 SUB SWAP1 REVERT JUMPDEST DUP2 PUSH2 0x7ED JUMPI PUSH1 0x40 MLOAD PUSH3 0x461BCD PUSH1 0xE5 SHL DUP2 MSTORE PUSH1 0x20 PUSH1 0x4 DUP3 ADD MSTORE PUSH1 0x1E PUSH1 0x24 DUP3 ADD MSTORE PUSH32 0x496E76616C696420696E7370656374696F6E207265706F727420686173680000 PUSH1 0x44 DUP3 ADD MSTORE PUSH1 0x64 ADD JUMPDEST PUSH1 0x40 MLOAD DUP1 SWAP2 SUB SWAP1 REVERT JUMPDEST PUSH1 0x10 DUP3 SWAP1 SSTORE PUSH1 0x2 DUP1 SLOAD PUSH1 0xFF PUSH1 0xA0 SHL NOT AND PUSH1 0x3 PUSH1 0xA1 SHL OR SWAP1 SSTORE PUSH1 0x40 DUP1 MLOAD CALLER DUP2 MSTORE PUSH1 0x20 DUP2 ADD DUP5 SWAP1 MSTORE PUSH32 0xEF94AF06CFA9A76C638DD1A1CFB86B07F938FEBF05374E3675AECED1F805205E SWAP2 ADD JUMPDEST PUSH1 0x40 MLOAD DUP1 SWAP2 SUB SWAP1 LOG1 POP POP JUMP JUMPDEST PUSH0 SLOAD PUSH1 0x1 PUSH1 0x1 PUSH1 0xA0 SHL SUB AND CALLER EQ PUSH2 0x86D JUMPI PUSH1 0x40 MLOAD PUSH4 0x47556579 PUSH1 0xE0 SHL DUP2 MSTORE PUSH1 0x4 ADD PUSH1 0x40 MLOAD DUP1 SWAP2 SUB SWAP1 REVERT JUMPDEST PUSH1 0x9 SLOAD PUSH1 0xFF AND PUSH2 0x890 JUMPI PUSH1 0x40 MLOAD PUSH4 0x55E9E641 PUSH1 0xE1 SHL DUP2 MSTORE PUSH1 0x4 ADD PUSH1 0x40 MLOAD DUP1 SWAP2 SUB SWAP1 REVERT JUMPDEST PUSH1 0x6 SLOAD TIMESTAMP LT ISZERO PUSH2 0x8B3 JUMPI PUSH1 0x40 MLOAD PUSH4 0x3EFBCCB1 PUSH1 0xE0 SHL DUP2 MSTORE PUSH1 0x4 ADD PUSH1 0x40 MLOAD DUP1 SWAP2 SUB SWAP1 REVERT JUMPDEST PUSH0 DUP1 PUSH1 0x2 SLOAD PUSH1 0x1 PUSH1 0xA0 SHL SWAP1 DIV PUSH1 0xFF AND PUSH1 0x7 DUP2 GT ISZERO PUSH2 0x8D3 JUMPI PUSH2 0x8D3 PUSH2 0x27C0 JUMP JUMPDEST EQ PUSH2 0x8F1 JUMPI PUSH1 0x40 MLOAD PUSH4 0x187FA83 PUSH1 0xE6 SHL DUP2 MSTORE PUSH1 0x4 ADD PUSH1 0x40 MLOAD DUP1 SWAP2 SUB SWAP1 REVERT JUMPDEST PUSH1 0x2 DUP1 SLOAD PUSH1 0xFF PUSH1 0xA0 SHL NOT AND PUSH1 0x1 PUSH1 0xA0 SHL OR SWAP1 SSTORE PUSH1 0x40 MLOAD PUSH32 0x2FD2F8FCBB75B0A142D3952AD3F5E92DD16AAB6C8BBBD304BDB97066B33C062C SWAP1 PUSH0 SWAP1 LOG1 POP JUMP JUMPDEST PUSH1 0x9 SLOAD PUSH1 0xFF AND PUSH2 0x952 JUMPI PUSH1 0x40 MLOAD PUSH4 0x55E9E641 PUSH1 0xE1 SHL DUP2 MSTORE PUSH1 0x4 ADD PUSH1 0x40 MLOAD DUP1 SWAP2 SUB SWAP1 REVERT JUMPDEST CALLER PUSH0 SWAP1 DUP2 MSTORE PUSH1 0xA PUSH1 0x20 MSTORE PUSH1 0x40 SWAP1 KECCAK256 SLOAD PUSH1 0xFF AND PUSH2 0x981 JUMPI PUSH1 0x40 MLOAD PUSH4 0x2F9CE37 PUSH1 0xE5 SHL DUP2 MSTORE PUSH1 0x4 ADD PUSH1 0x40 MLOAD DUP1 SWAP2 SUB SWAP1 REVERT JUMPDEST PUSH1 0x1 DUP1 PUSH1 0x2 SLOAD PUSH1 0x1 PUSH1 0xA0 SHL SWAP1 DIV PUSH1 0xFF AND PUSH1 0x7 DUP2 GT ISZERO PUSH2 0x9A2 JUMPI PUSH2 0x9A2 PUSH2 0x27C0 JUMP JUMPDEST EQ PUSH2 0x9C0 JUMPI PUSH1 0x40 MLOAD PUSH4 0x187FA83 PUSH1 0xE6 SHL DUP2 MSTORE PUSH1 0x4 ADD PUSH1 0x40 MLOAD DUP1 SWAP2 SUB SWAP1 REVERT JUMPDEST CALLER PUSH0 SWAP1 DUP2 MSTORE PUSH1 0xB PUSH1 0x20 MSTORE PUSH1 0x40 SWAP1 KECCAK256 PUSH1 0x1 DUP2 ADD SLOAD PUSH1 0xFF AND PUSH2 0xA15 JUMPI PUSH1 0x40 MLOAD PUSH3 0x461BCD PUSH1 0xE5 SHL DUP2 MSTORE PUSH1 0x20 PUSH1 0x4 DUP3 ADD MSTORE PUSH1 0x10 PUSH1 0x24 DUP3 ADD MSTORE PUSH16 0x139BC8189A59081CDD589B5A5D1D1959 PUSH1 0x82 SHL PUSH1 0x44 DUP3 ADD MSTORE PUSH1 0x64 ADD PUSH2 0x7E4 JUMP JUMPDEST PUSH1 0x1 DUP2 ADD SLOAD PUSH2 0x100 SWAP1 DIV PUSH1 0xFF AND ISZERO PUSH2 0xA66 JUMPI PUSH1 0x40 MLOAD PUSH3 0x461BCD PUSH1 0xE5 SHL DUP2 MSTORE PUSH1 0x20 PUSH1 0x4 DUP3 ADD MSTORE PUSH1 0x14 PUSH1 0x24 DUP3 ADD MSTORE PUSH20 0x109A5908185B1C9958591E481C995D99585B1959 PUSH1 0x62 SHL PUSH1 0x44 DUP3 ADD MSTORE PUSH1 0x64 ADD PUSH2 0x7E4 JUMP JUMPDEST PUSH0 DUP5 DUP5 PUSH1 0x40 MLOAD PUSH1 0x20 ADD PUSH2 0xA7A SWAP3 SWAP2 SWAP1 PUSH2 0x2B82 JUMP JUMPDEST PUSH1 0x40 MLOAD PUSH1 0x20 DUP2 DUP4 SUB SUB DUP2 MSTORE SWAP1 PUSH1 0x40 MSTORE DUP1 MLOAD SWAP1 PUSH1 0x20 ADD KECCAK256 SWAP1 POP DUP2 PUSH0 ADD SLOAD DUP2 EQ PUSH2 0xAE4 JUMPI PUSH1 0x40 MLOAD PUSH3 0x461BCD PUSH1 0xE5 SHL DUP2 MSTORE PUSH1 0x20 PUSH1 0x4 DUP3 ADD DUP2 SWAP1 MSTORE PUSH1 0x24 DUP3 ADD MSTORE PUSH32 0x52657665616C20646F6573206E6F74206D61746368207365616C656420626964 PUSH1 0x44 DUP3 ADD MSTORE PUSH1 0x64 ADD PUSH2 0x7E4 JUMP JUMPDEST PUSH1 0x1 DUP3 DUP2 ADD DUP1 SLOAD PUSH2 0xFF00 NOT AND PUSH2 0x100 OR SWAP1 SSTORE PUSH1 0x2 DUP4 ADD DUP7 SWAP1 SSTORE PUSH1 0x3 DUP4 ADD DUP1 SLOAD PUSH1 0xFF NOT AND SWAP1 SWAP2 OR SWAP1 SSTORE PUSH1 0x40 DUP1 MLOAD CALLER DUP2 MSTORE PUSH1 0x20 DUP2 ADD DUP8 SWAP1 MSTORE PUSH32 0x9891BD98143D5A2C5F29BE9A7EF8E5D7B723746FB3B75220234AF7AA6CAEECFE SWAP2 ADD PUSH1 0x40 MLOAD DUP1 SWAP2 SUB SWAP1 LOG1 POP POP POP POP POP JUMP JUMPDEST PUSH1 0x11 DUP1 SLOAD PUSH2 0xB59 SWAP1 PUSH2 0x2BA2 JUMP JUMPDEST DUP1 PUSH1 0x1F ADD PUSH1 0x20 DUP1 SWAP2 DIV MUL PUSH1 0x20 ADD PUSH1 0x40 MLOAD SWAP1 DUP2 ADD PUSH1 0x40 MSTORE DUP1 SWAP3 SWAP2 SWAP1 DUP2 DUP2 MSTORE PUSH1 0x20 ADD DUP3 DUP1 SLOAD PUSH2 0xB85 SWAP1 PUSH2 0x2BA2 JUMP JUMPDEST DUP1 ISZERO PUSH2 0xBD0 JUMPI DUP1 PUSH1 0x1F LT PUSH2 0xBA7 JUMPI PUSH2 0x100 DUP1 DUP4 SLOAD DIV MUL DUP4 MSTORE SWAP2 PUSH1 0x20 ADD SWAP2 PUSH2 0xBD0 JUMP JUMPDEST DUP3 ADD SWAP2 SWAP1 PUSH0 MSTORE PUSH1 0x20 PUSH0 KECCAK256 SWAP1 JUMPDEST DUP2 SLOAD DUP2 MSTORE SWAP1 PUSH1 0x1 ADD SWAP1 PUSH1 0x20 ADD DUP1 DUP4 GT PUSH2 0xBB3 JUMPI DUP3 SWAP1 SUB PUSH1 0x1F AND DUP3 ADD SWAP2 JUMPDEST POP POP POP POP POP DUP2 JUMP JUMPDEST PUSH0 DUP3 DUP3 PUSH1 0x40 MLOAD PUSH1 0x20 ADD PUSH2 0xBEC SWAP3 SWAP2 SWAP1 PUSH2 0x2B82 JUMP JUMPDEST PUSH1 0x40 MLOAD PUSH1 0x20 DUP2 DUP4 SUB SUB DUP2 MSTORE SWAP1 PUSH1 0x40 MSTORE DUP1 MLOAD SWAP1 PUSH1 0x20 ADD KECCAK256 SWAP1 POP JUMPDEST SWAP3 SWAP2 POP POP JUMP JUMPDEST PUSH1 0x2 SLOAD PUSH1 0x1 PUSH1 0x1 PUSH1 0xA0 SHL SUB AND PUSH2 0xC34 JUMPI PUSH1 0x40 MLOAD PUSH4 0xD6EA3663 PUSH1 0xE0 SHL DUP2 MSTORE PUSH1 0x4 ADD PUSH1 0x40 MLOAD DUP1 SWAP2 SUB SWAP1 REVERT JUMPDEST PUSH1 0x2 SLOAD PUSH1 0x1 PUSH1 0x1 PUSH1 0xA0 SHL SUB AND CALLER EQ PUSH2 0xC5F JUMPI PUSH1 0x40 MLOAD PUSH4 0x9864FBB3 PUSH1 0xE0 SHL DUP2 MSTORE PUSH1 0x4 ADD PUSH1 0x40 MLOAD DUP1 SWAP2 SUB SWAP1 REVERT JUMPDEST PUSH1 0x9 SLOAD PUSH1 0xFF AND PUSH2 0xC82 JUMPI PUSH1 0x40 MLOAD PUSH4 0x55E9E641 PUSH1 0xE1 SHL DUP2 MSTORE PUSH1 0x4 ADD PUSH1 0x40 MLOAD DUP1 SWAP2 SUB SWAP1 REVERT JUMPDEST PUSH1 0x4 DUP1 PUSH1 0x2 SLOAD PUSH1 0x1 PUSH1 0xA0 SHL SWAP1 DIV PUSH1 0xFF AND PUSH1 0x7 DUP2 GT ISZERO PUSH2 0xCA3 JUMPI PUSH2 0xCA3 PUSH2 0x27C0 JUMP JUMPDEST EQ PUSH2 0xCC1 JUMPI PUSH1 0x40 MLOAD PUSH4 0x187FA83 PUSH1 0xE6 SHL DUP2 MSTORE PUSH1 0x4 ADD PUSH1 0x40 MLOAD DUP1 SWAP2 SUB SWAP1 REVERT JUMPDEST PUSH0 DUP3 MLOAD GT PUSH2 0xD03 JUMPI PUSH1 0x40 MLOAD PUSH3 0x461BCD PUSH1 0xE5 SHL DUP2 MSTORE PUSH1 0x20 PUSH1 0x4 DUP3 ADD MSTORE PUSH1 0xF PUSH1 0x24 DUP3 ADD MSTORE PUSH15 0x1499585CDBDB881C995C5D5A5C9959 PUSH1 0x8A SHL PUSH1 0x44 DUP3 ADD MSTORE PUSH1 0x64 ADD PUSH2 0x7E4 JUMP JUMPDEST PUSH1 0x11 PUSH2 0xD0F DUP4 DUP3 PUSH2 0x2C26 JUMP JUMPDEST POP PUSH1 0x2 DUP1 SLOAD PUSH1 0xFF PUSH1 0xA0 SHL NOT AND PUSH1 0x5 PUSH1 0xA0 SHL OR SWAP1 SSTORE PUSH1 0x40 MLOAD PUSH32 0x52FCA0FCDDA16F4A5F819B60BB9C2F99458433351B90E6FCB3E221FE03B10280 SWAP1 PUSH2 0x837 SWAP1 CALLER SWAP1 DUP6 SWAP1 PUSH2 0x2CE1 JUMP JUMPDEST PUSH0 SLOAD PUSH1 0x1 PUSH1 0x1 PUSH1 0xA0 SHL SUB AND CALLER EQ PUSH2 0xD7F JUMPI PUSH1 0x40 MLOAD PUSH4 0x47556579 PUSH1 0xE0 SHL DUP2 MSTORE PUSH1 0x4 ADD PUSH1 0x40 MLOAD DUP1 SWAP2 SUB SWAP1 REVERT JUMPDEST PUSH1 0x9 SLOAD PUSH1 0xFF AND PUSH2 0xDA2 JUMPI PUSH1 0x40 MLOAD PUSH4 0x55E9E641 PUSH1 0xE1 SHL DUP2 MSTORE PUSH1 0x4 ADD PUSH1 0x40 MLOAD DUP1 SWAP2 SUB SWAP1 REVERT JUMPDEST PUSH1 0x1 PUSH1 0x1 PUSH1 0xA0 SHL SUB DUP2 AND PUSH2 0xDF8 JUMPI PUSH1 0x40 MLOAD PUSH3 0x461BCD PUSH1 0xE5 SHL DUP2 MSTORE PUSH1 0x20 PUSH1 0x4 DUP3 ADD MSTORE PUSH1 0x19 PUSH1 0x24 DUP3 ADD MSTORE PUSH32 0x496E76616C696420696E73706563746F72206164647265737300000000000000 PUSH1 0x44 DUP3 ADD MSTORE PUSH1 0x64 ADD PUSH2 0x7E4 JUMP JUMPDEST PUSH1 0x6 PUSH1 0x2 SLOAD PUSH1 0x1 PUSH1 0xA0 SHL SWAP1 DIV PUSH1 0xFF AND PUSH1 0x7 DUP2 GT ISZERO PUSH2 0xE18 JUMPI PUSH2 0xE18 PUSH2 0x27C0 JUMP JUMPDEST EQ ISZERO DUP1 ISZERO PUSH2 0xE44 JUMPI POP PUSH1 0x5 PUSH1 0x2 SLOAD PUSH1 0x1 PUSH1 0xA0 SHL SWAP1 DIV PUSH1 0xFF AND PUSH1 0x7 DUP2 GT ISZERO PUSH2 0xE41 JUMPI PUSH2 0xE41 PUSH2 0x27C0 JUMP JUMPDEST EQ ISZERO JUMPDEST DUP1 ISZERO PUSH2 0xE6E JUMPI POP PUSH1 0x7 PUSH1 0x2 SLOAD PUSH1 0x1 PUSH1 0xA0 SHL SWAP1 DIV PUSH1 0xFF AND PUSH1 0x7 DUP2 GT ISZERO PUSH2 0xE6B JUMPI PUSH2 0xE6B PUSH2 0x27C0 JUMP JUMPDEST EQ ISZERO JUMPDEST PUSH2 0xEC8 JUMPI PUSH1 0x40 MLOAD PUSH3 0x461BCD PUSH1 0xE5 SHL DUP2 MSTORE PUSH1 0x20 PUSH1 0x4 DUP3 ADD MSTORE PUSH1 0x25 PUSH1 0x24 DUP3 ADD MSTORE PUSH32 0x43616E6E6F74206368616E676520696E73706563746F72206174207468697320 PUSH1 0x44 DUP3 ADD MSTORE PUSH5 0x7374616765 PUSH1 0xD8 SHL PUSH1 0x64 DUP3 ADD MSTORE PUSH1 0x84 ADD PUSH2 0x7E4 JUMP JUMPDEST PUSH1 0x2 DUP1 SLOAD PUSH1 0x1 PUSH1 0x1 PUSH1 0xA0 SHL SUB NOT AND PUSH1 0x1 PUSH1 0x1 PUSH1 0xA0 SHL SUB DUP4 AND SWAP1 DUP2 OR SWAP1 SWAP2 SSTORE PUSH1 0x40 MLOAD SWAP1 DUP2 MSTORE PUSH32 0xC7B11D63D071F03C4B488A3A44EE58C8A449F16B0EE289DD25AF95C15C9F8E3A SWAP1 PUSH1 0x20 ADD JUMPDEST PUSH1 0x40 MLOAD DUP1 SWAP2 SUB SWAP1 LOG1 POP JUMP JUMPDEST PUSH1 0x9 SLOAD PUSH1 0xFF AND PUSH2 0xF40 JUMPI PUSH1 0x40 MLOAD PUSH4 0x55E9E641 PUSH1 0xE1 SHL DUP2 MSTORE PUSH1 0x4 ADD PUSH1 0x40 MLOAD DUP1 SWAP2 SUB SWAP1 REVERT JUMPDEST CALLER PUSH0 SWAP1 DUP2 MSTORE PUSH1 0xA PUSH1 0x20 MSTORE PUSH1 0x40 SWAP1 KECCAK256 SLOAD PUSH1 0xFF AND PUSH2 0xF6F JUMPI PUSH1 0x40 MLOAD PUSH4 0x2F9CE37 PUSH1 0xE5 SHL DUP2 MSTORE PUSH1 0x4 ADD PUSH1 0x40 MLOAD DUP1 SWAP2 SUB SWAP1 REVERT JUMPDEST PUSH1 0x6 SLOAD TIMESTAMP LT PUSH2 0xF91 JUMPI PUSH1 0x40 MLOAD PUSH4 0x764B8E33 PUSH1 0xE1 SHL DUP2 MSTORE PUSH1 0x4 ADD PUSH1 0x40 MLOAD DUP1 SWAP2 SUB SWAP1 REVERT JUMPDEST PUSH0 DUP1 PUSH1 0x2 SLOAD PUSH1 0x1 PUSH1 0xA0 SHL SWAP1 DIV PUSH1 0xFF AND PUSH1 0x7 DUP2 GT ISZERO PUSH2 0xFB1 JUMPI PUSH2 0xFB1 PUSH2 0x27C0 JUMP JUMPDEST EQ PUSH2 0xFCF JUMPI PUSH1 0x40 MLOAD PUSH4 0x187FA83 PUSH1 0xE6 SHL DUP2 MSTORE PUSH1 0x4 ADD PUSH1 0x40 MLOAD DUP1 SWAP2 SUB SWAP1 REVERT JUMPDEST CALLER PUSH0 SWAP1 DUP2 MSTORE PUSH1 0xB PUSH1 0x20 MSTORE PUSH1 0x40 SWAP1 KECCAK256 PUSH1 0x1 ADD SLOAD PUSH1 0xFF AND ISZERO PUSH2 0x1029 JUMPI PUSH1 0x40 MLOAD PUSH3 0x461BCD PUSH1 0xE5 SHL DUP2 MSTORE PUSH1 0x20 PUSH1 0x4 DUP3 ADD MSTORE PUSH1 0x15 PUSH1 0x24 DUP3 ADD MSTORE PUSH21 0x109A5908185B1C9958591E481CDD589B5A5D1D1959 PUSH1 0x5A SHL PUSH1 0x44 DUP3 ADD MSTORE PUSH1 0x64 ADD PUSH2 0x7E4 JUMP JUMPDEST DUP2 PUSH2 0x1076 JUMPI PUSH1 0x40 MLOAD PUSH3 0x461BCD PUSH1 0xE5 SHL DUP2 MSTORE PUSH1 0x20 PUSH1 0x4 DUP3 ADD MSTORE PUSH1 0x17 PUSH1 0x24 DUP3 ADD MSTORE PUSH32 0x496E76616C6964207365616C6564206269642068617368000000000000000000 PUSH1 0x44 DUP3 ADD MSTORE PUSH1 0x64 ADD PUSH2 0x7E4 JUMP JUMPDEST PUSH1 0x40 DUP1 MLOAD PUSH1 0xA0 DUP2 ADD DUP3 MSTORE DUP4 DUP2 MSTORE PUSH1 0x1 PUSH1 0x20 DUP1 DUP4 ADD DUP3 DUP2 MSTORE PUSH0 DUP5 DUP7 ADD DUP2 DUP2 MSTORE PUSH1 0x60 DUP7 ADD DUP3 DUP2 MSTORE PUSH1 0x80 DUP8 ADD DUP4 DUP2 MSTORE CALLER DUP1 DUP6 MSTORE PUSH1 0xB DUP8 MSTORE SWAP4 DUP10 SWAP1 KECCAK256 SWAP8 MLOAD DUP9 SSTORE SWAP4 MLOAD SWAP6 DUP8 ADD DUP1 SLOAD SWAP3 MLOAD PUSH2 0xFFFF NOT SWAP1 SWAP4 AND SWAP7 ISZERO ISZERO PUSH2 0xFF00 NOT AND SWAP7 SWAP1 SWAP7 OR PUSH2 0x100 SWAP3 ISZERO ISZERO SWAP3 SWAP1 SWAP3 MUL SWAP2 SWAP1 SWAP2 OR SWAP1 SWAP5 SSTORE SWAP3 MLOAD PUSH1 0x2 DUP6 ADD SSTORE MLOAD PUSH1 0x3 SWAP1 SWAP4 ADD DUP1 SLOAD PUSH1 0xFF NOT AND SWAP4 ISZERO ISZERO SWAP4 SWAP1 SWAP4 OR SWAP1 SWAP3 SSTORE SWAP2 MLOAD SWAP2 DUP3 MSTORE PUSH32 0x88C5A0D081E0C7A69B5817581FFA85B19D71703BC581BB5C09FA253C527A055E SWAP2 ADD PUSH2 0x837 JUMP JUMPDEST PUSH0 SLOAD PUSH1 0x1 PUSH1 0x1 PUSH1 0xA0 SHL SUB AND CALLER EQ PUSH2 0x1153 JUMPI PUSH1 0x40 MLOAD PUSH4 0x47556579 PUSH1 0xE0 SHL DUP2 MSTORE PUSH1 0x4 ADD PUSH1 0x40 MLOAD DUP1 SWAP2 SUB SWAP1 REVERT JUMPDEST PUSH1 0x9 SLOAD PUSH1 0xFF AND PUSH2 0x1176 JUMPI PUSH1 0x40 MLOAD PUSH4 0x55E9E641 PUSH1 0xE1 SHL DUP2 MSTORE PUSH1 0x4 ADD PUSH1 0x40 MLOAD DUP1 SWAP2 SUB SWAP1 REVERT JUMPDEST PUSH0 DUP1 PUSH1 0x2 SLOAD PUSH1 0x1 PUSH1 0xA0 SHL SWAP1 DIV PUSH1 0xFF AND PUSH1 0x7 DUP2 GT ISZERO PUSH2 0x1196 JUMPI PUSH2 0x1196 PUSH2 0x27C0 JUMP JUMPDEST EQ PUSH2 0x11B4 JUMPI PUSH1 0x40 MLOAD PUSH4 0x187FA83 PUSH1 0xE6 SHL DUP2 MSTORE PUSH1 0x4 ADD PUSH1 0x40 MLOAD DUP1 SWAP2 SUB SWAP1 REVERT JUMPDEST PUSH1 0x1 PUSH1 0x1 PUSH1 0xA0 SHL SUB DUP3 AND PUSH2 0x1203 JUMPI PUSH1 0x40 MLOAD PUSH3 0x461BCD PUSH1 0xE5 SHL DUP2 MSTORE PUSH1 0x20 PUSH1 0x4 DUP3 ADD MSTORE PUSH1 0x16 PUSH1 0x24 DUP3 ADD MSTORE PUSH22 0x496E76616C6964206269646465722061646472657373 PUSH1 0x50 SHL PUSH1 0x44 DUP3 ADD MSTORE PUSH1 0x64 ADD PUSH2 0x7E4 JUMP JUMPDEST PUSH1 0x1 PUSH1 0x1 PUSH1 0xA0 SHL SUB DUP3 AND PUSH0 SWAP1 DUP2 MSTORE PUSH1 0xA PUSH1 0x20 MSTORE PUSH1 0x40 SWAP1 KECCAK256 SLOAD PUSH1 0xFF AND ISZERO PUSH2 0x126B JUMPI PUSH1 0x40 MLOAD PUSH3 0x461BCD PUSH1 0xE5 SHL DUP2 MSTORE PUSH1 0x20 PUSH1 0x4 DUP3 ADD MSTORE PUSH1 0x19 PUSH1 0x24 DUP3 ADD MSTORE PUSH32 0x42696464657220616C7265616479207265676973746572656400000000000000 PUSH1 0x44 DUP3 ADD MSTORE PUSH1 0x64 ADD PUSH2 0x7E4 JUMP JUMPDEST PUSH1 0x1 PUSH1 0x1 PUSH1 0xA0 SHL SUB DUP3 AND PUSH0 DUP2 DUP2 MSTORE PUSH1 0xA PUSH1 0x20 SWAP1 DUP2 MSTORE PUSH1 0x40 DUP1 DUP4 KECCAK256 DUP1 SLOAD PUSH1 0xFF NOT AND PUSH1 0x1 SWAP1 DUP2 OR SWAP1 SWAP2 SSTORE PUSH1 0xC DUP1 SLOAD SWAP2 DUP3 ADD DUP2 SSTORE SWAP1 SWAP4 MSTORE PUSH32 0xDF6966C971051C3D54EC59162606531493A51404A002842F56009D7E5CF4A8C7 SWAP1 SWAP3 ADD DUP1 SLOAD PUSH1 0x1 PUSH1 0x1 PUSH1 0xA0 SHL SUB NOT AND DUP5 OR SWAP1 SSTORE SWAP1 MLOAD SWAP2 DUP3 MSTORE PUSH32 0x381919937473504A02352AEDE091840B8E02CA2CE85B2C8513022353225FAF77 SWAP2 ADD PUSH2 0x837 JUMP JUMPDEST PUSH0 SLOAD PUSH1 0x1 PUSH1 0x1 PUSH1 0xA0 SHL SUB AND CALLER EQ PUSH2 0x132A JUMPI PUSH1 0x40 MLOAD PUSH4 0x47556579 PUSH1 0xE0 SHL DUP2 MSTORE PUSH1 0x4 ADD PUSH1 0x40 MLOAD DUP1 SWAP2 SUB SWAP1 REVERT JUMPDEST PUSH1 0x9 SLOAD PUSH1 0xFF AND PUSH2 0x134D JUMPI PUSH1 0x40 MLOAD PUSH4 0x55E9E641 PUSH1 0xE1 SHL DUP2 MSTORE PUSH1 0x4 ADD PUSH1 0x40 MLOAD DUP1 SWAP2 SUB SWAP1 REVERT JUMPDEST PUSH1 0x1 DUP1 PUSH1 0x2 SLOAD PUSH1 0x1 PUSH1 0xA0 SHL SWAP1 DIV PUSH1 0xFF AND PUSH1 0x7 DUP2 GT ISZERO PUSH2 0x136E JUMPI PUSH2 0x136E PUSH2 0x27C0 JUMP JUMPDEST EQ PUSH2 0x138C JUMPI PUSH1 0x40 MLOAD PUSH4 0x187FA83 PUSH1 0xE6 SHL DUP2 MSTORE PUSH1 0x4 ADD PUSH1 0x40 MLOAD DUP1 SWAP2 SUB SWAP1 REVERT JUMPDEST PUSH0 PUSH0 NOT DUP2 JUMPDEST PUSH1 0xC SLOAD DUP2 LT ISZERO PUSH2 0x1450 JUMPI PUSH0 PUSH1 0xC DUP3 DUP2 SLOAD DUP2 LT PUSH2 0x13AF JUMPI PUSH2 0x13AF PUSH2 0x2D04 JUMP JUMPDEST PUSH0 SWAP2 DUP3 MSTORE PUSH1 0x20 DUP1 DUP4 KECCAK256 SWAP1 SWAP2 ADD SLOAD PUSH1 0x1 PUSH1 0x1 PUSH1 0xA0 SHL SUB AND DUP1 DUP4 MSTORE PUSH1 0xB DUP3 MSTORE PUSH1 0x40 SWAP3 DUP4 SWAP1 KECCAK256 DUP4 MLOAD PUSH1 0xA0 DUP2 ADD DUP6 MSTORE DUP2 SLOAD DUP2 MSTORE PUSH1 0x1 DUP3 ADD SLOAD PUSH1 0xFF DUP1 DUP3 AND ISZERO ISZERO SWAP6 DUP4 ADD SWAP6 SWAP1 SWAP6 MSTORE PUSH2 0x100 SWAP1 DIV DUP5 AND ISZERO ISZERO SWAP5 DUP2 ADD SWAP5 SWAP1 SWAP5 MSTORE PUSH1 0x2 DUP2 ADD SLOAD PUSH1 0x60 DUP6 ADD MSTORE PUSH1 0x3 ADD SLOAD SWAP1 SWAP2 AND ISZERO DUP1 ISZERO PUSH1 0x80 DUP5 ADD DUP2 SWAP1 MSTORE SWAP2 SWAP4 POP PUSH2 0x142A JUMPI POP DUP1 PUSH1 0x40 ADD MLOAD JUMPDEST ISZERO PUSH2 0x1446 JUMPI DUP4 DUP2 PUSH1 0x60 ADD MLOAD LT ISZERO PUSH2 0x1446 JUMPI DUP1 PUSH1 0x60 ADD MLOAD SWAP4 POP DUP2 SWAP5 POP JUMPDEST POP POP PUSH1 0x1 ADD PUSH2 0x1391 JUMP JUMPDEST POP PUSH1 0x1 PUSH1 0x1 PUSH1 0xA0 SHL SUB DUP3 AND PUSH2 0x14A0 JUMPI PUSH1 0x40 MLOAD PUSH3 0x461BCD PUSH1 0xE5 SHL DUP2 MSTORE PUSH1 0x20 PUSH1 0x4 DUP3 ADD MSTORE PUSH1 0x16 PUSH1 0x24 DUP3 ADD MSTORE PUSH22 0x4E6F2076616C69642072657665616C65642062696473 PUSH1 0x50 SHL PUSH1 0x44 DUP3 ADD MSTORE PUSH1 0x64 ADD PUSH2 0x7E4 JUMP JUMPDEST PUSH1 0xD DUP1 SLOAD PUSH1 0x1 PUSH1 0x1 PUSH1 0xA0 SHL SUB NOT AND PUSH1 0x1 PUSH1 0x1 PUSH1 0xA0 SHL SUB DUP5 AND SWAP1 DUP2 OR SWAP1 SWAP2 SSTORE PUSH1 0xE DUP3 SWAP1 SSTORE PUSH1 0x2 DUP1 SLOAD PUSH1 0xFF PUSH1 0xA0 SHL NOT AND PUSH1 0x1 PUSH1 0xA1 SHL OR SWAP1 SSTORE PUSH1 0x40 DUP1 MLOAD SWAP2 DUP3 MSTORE PUSH1 0x20 DUP3 ADD DUP4 SWAP1 MSTORE DUP1 MLOAD PUSH32 0x44A8E45B0547725A1B190FE91FBA127F673B8CEC941CEAF8B3E2E67D61055DFE SWAP3 DUP2 SWAP1 SUB SWAP1 SWAP2 ADD SWAP1 LOG1 POP POP POP JUMP JUMPDEST PUSH1 0x3 DUP1 SLOAD DUP2 SWAP1 PUSH2 0x1524 SWAP1 PUSH2 0x2BA2 JUMP JUMPDEST DUP1 PUSH1 0x1F ADD PUSH1 0x20 DUP1 SWAP2 DIV MUL PUSH1 0x20 ADD PUSH1 0x40 MLOAD SWAP1 DUP2 ADD PUSH1 0x40 MSTORE DUP1 SWAP3 SWAP2 SWAP1 DUP2 DUP2 MSTORE PUSH1 0x20 ADD DUP3 DUP1 SLOAD PUSH2 0x1550 SWAP1 PUSH2 0x2BA2 JUMP JUMPDEST DUP1 ISZERO PUSH2 0x159B JUMPI DUP1 PUSH1 0x1F LT PUSH2 0x1572 JUMPI PUSH2 0x100 DUP1 DUP4 SLOAD DIV MUL DUP4 MSTORE SWAP2 PUSH1 0x20 ADD SWAP2 PUSH2 0x159B JUMP JUMPDEST DUP3 ADD SWAP2 SWAP1 PUSH0 MSTORE PUSH1 0x20 PUSH0 KECCAK256 SWAP1 JUMPDEST DUP2 SLOAD DUP2 MSTORE SWAP1 PUSH1 0x1 ADD SWAP1 PUSH1 0x20 ADD DUP1 DUP4 GT PUSH2 0x157E JUMPI DUP3 SWAP1 SUB PUSH1 0x1F AND DUP3 ADD SWAP2 JUMPDEST POP POP POP POP POP SWAP1 DUP1 PUSH1 0x1 ADD DUP1 SLOAD PUSH2 0x15B0 SWAP1 PUSH2 0x2BA2 JUMP JUMPDEST DUP1 PUSH1 0x1F ADD PUSH1 0x20 DUP1 SWAP2 DIV MUL PUSH1 0x20 ADD PUSH1 0x40 MLOAD SWAP1 DUP2 ADD PUSH1 0x40 MSTORE DUP1 SWAP3 SWAP2 SWAP1 DUP2 DUP2 MSTORE PUSH1 0x20 ADD DUP3 DUP1 SLOAD PUSH2 0x15DC SWAP1 PUSH2 0x2BA2 JUMP JUMPDEST DUP1 ISZERO PUSH2 0x1627 JUMPI DUP1 PUSH1 0x1F LT PUSH2 0x15FE JUMPI PUSH2 0x100 DUP1 DUP4 SLOAD DIV MUL DUP4 MSTORE SWAP2 PUSH1 0x20 ADD SWAP2 PUSH2 0x1627 JUMP JUMPDEST DUP3 ADD SWAP2 SWAP1 PUSH0 MSTORE PUSH1 0x20 PUSH0 KECCAK256 SWAP1 JUMPDEST DUP2 SLOAD DUP2 MSTORE SWAP1 PUSH1 0x1 ADD SWAP1 PUSH1 0x20 ADD DUP1 DUP4 GT PUSH2 0x160A JUMPI DUP3 SWAP1 SUB PUSH1 0x1F AND DUP3 ADD SWAP2 JUMPDEST POP POP POP POP POP SWAP1 DUP1 PUSH1 0x2 ADD DUP1 SLOAD PUSH2 0x163C SWAP1 PUSH2 0x2BA2 JUMP JUMPDEST DUP1 PUSH1 0x1F ADD PUSH1 0x20 DUP1 SWAP2 DIV MUL PUSH1 0x20 ADD PUSH1 0x40 MLOAD SWAP1 DUP2 ADD PUSH1 0x40 MSTORE DUP1 SWAP3 SWAP2 SWAP1 DUP2 DUP2 MSTORE PUSH1 0x20 ADD DUP3 DUP1 SLOAD PUSH2 0x1668 SWAP1 PUSH2 0x2BA2 JUMP JUMPDEST DUP1 ISZERO PUSH2 0x16B3 JUMPI DUP1 PUSH1 0x1F LT PUSH2 0x168A JUMPI PUSH2 0x100 DUP1 DUP4 SLOAD DIV MUL DUP4 MSTORE SWAP2 PUSH1 0x20 ADD SWAP2 PUSH2 0x16B3 JUMP JUMPDEST DUP3 ADD SWAP2 SWAP1 PUSH0 MSTORE PUSH1 0x20 PUSH0 KECCAK256 SWAP1 JUMPDEST DUP2 SLOAD DUP2 MSTORE SWAP1 PUSH1 0x1 ADD SWAP1 PUSH1 0x20 ADD DUP1 DUP4 GT PUSH2 0x1696 JUMPI DUP3 SWAP1 SUB PUSH1 0x1F AND DUP3 ADD SWAP2 JUMPDEST POP POP POP POP POP SWAP1 DUP1 PUSH1 0x3 ADD SLOAD SWAP1 DUP1 PUSH1 0x4 ADD SLOAD SWAP1 DUP1 PUSH1 0x5 ADD DUP1 SLOAD PUSH2 0x16D4 SWAP1 PUSH2 0x2BA2 JUMP JUMPDEST DUP1 PUSH1 0x1F ADD PUSH1 0x20 DUP1 SWAP2 DIV MUL PUSH1 0x20 ADD PUSH1 0x40 MLOAD SWAP1 DUP2 ADD PUSH1 0x40 MSTORE DUP1 SWAP3 SWAP2 SWAP1 DUP2 DUP2 MSTORE PUSH1 0x20 ADD DUP3 DUP1 SLOAD PUSH2 0x1700 SWAP1 PUSH2 0x2BA2 JUMP JUMPDEST DUP1 ISZERO PUSH2 0x174B JUMPI DUP1 PUSH1 0x1F LT PUSH2 0x1722 JUMPI PUSH2 0x100 DUP1 DUP4 SLOAD DIV MUL DUP4 MSTORE SWAP2 PUSH1 0x20 ADD SWAP2 PUSH2 0x174B JUMP JUMPDEST DUP3 ADD SWAP2 SWAP1 PUSH0 MSTORE PUSH1 0x20 PUSH0 KECCAK256 SWAP1 JUMPDEST DUP2 SLOAD DUP2 MSTORE SWAP1 PUSH1 0x1 ADD SWAP1 PUSH1 0x20 ADD DUP1 DUP4 GT PUSH2 0x172E JUMPI DUP3 SWAP1 SUB PUSH1 0x1F AND DUP3 ADD SWAP2 JUMPDEST POP POP POP PUSH1 0x6 SWAP1 SWAP4 ADD SLOAD SWAP2 SWAP3 POP POP PUSH1 0xFF AND DUP8 JUMP JUMPDEST PUSH0 SLOAD PUSH1 0x1 PUSH1 0x1 PUSH1 0xA0 SHL SUB AND CALLER EQ PUSH2 0x1788 JUMPI PUSH1 0x40 MLOAD PUSH4 0x47556579 PUSH1 0xE0 SHL DUP2 MSTORE PUSH1 0x4 ADD PUSH1 0x40 MLOAD DUP1 SWAP2 SUB SWAP1 REVERT JUMPDEST PUSH1 0x1 PUSH1 0x1 PUSH1 0xA0 SHL SUB DUP2 AND PUSH2 0x17D2 JUMPI PUSH1 0x40 MLOAD PUSH3 0x461BCD PUSH1 0xE5 SHL DUP2 MSTORE PUSH1 0x20 PUSH1 0x4 DUP3 ADD MSTORE PUSH1 0x11 PUSH1 0x24 DUP3 ADD MSTORE PUSH17 0x24B73B30B634B2103732BB9030B236B4B7 PUSH1 0x79 SHL PUSH1 0x44 DUP3 ADD MSTORE PUSH1 0x64 ADD PUSH2 0x7E4 JUMP JUMPDEST PUSH0 SLOAD PUSH1 0x1 PUSH1 0x1 PUSH1 0xA0 SHL SUB SWAP1 DUP2 AND SWAP1 DUP3 AND SUB PUSH2 0x1827 JUMPI PUSH1 0x40 MLOAD PUSH3 0x461BCD PUSH1 0xE5 SHL DUP2 MSTORE PUSH1 0x20 PUSH1 0x4 DUP3 ADD MSTORE PUSH1 0x15 PUSH1 0x24 DUP3 ADD MSTORE PUSH21 0x20B63932B0B23C9031BAB93932B73A1030B236B4B7 PUSH1 0x59 SHL PUSH1 0x44 DUP3 ADD MSTORE PUSH1 0x64 ADD PUSH2 0x7E4 JUMP JUMPDEST PUSH1 0x1 DUP1 SLOAD PUSH1 0x1 PUSH1 0x1 PUSH1 0xA0 SHL SUB NOT AND PUSH1 0x1 PUSH1 0x1 PUSH1 0xA0 SHL SUB DUP4 DUP2 AND SWAP2 DUP3 OR SWAP1 SWAP3 SSTORE PUSH0 DUP1 SLOAD PUSH1 0x40 MLOAD SWAP3 SWAP4 AND SWAP2 PUSH32 0xB4D7BCB4D9A5D6EF6E827E3B1554E5A2578AD9CA843903D42B05D08BFA345894 SWAP2 SWAP1 LOG3 POP JUMP JUMPDEST PUSH1 0x9 SLOAD PUSH1 0xFF AND PUSH2 0x189A JUMPI PUSH1 0x40 MLOAD PUSH4 0x55E9E641 PUSH1 0xE1 SHL DUP2 MSTORE PUSH1 0x4 ADD PUSH1 0x40 MLOAD DUP1 SWAP2 SUB SWAP1 REVERT JUMPDEST PUSH1 0x3 DUP1 PUSH1 0x2 SLOAD PUSH1 0x1 PUSH1 0xA0 SHL SWAP1 DIV PUSH1 0xFF AND PUSH1 0x7 DUP2 GT ISZERO PUSH2 0x18BB JUMPI PUSH2 0x18BB PUSH2 0x27C0 JUMP JUMPDEST EQ PUSH2 0x18D9 JUMPI PUSH1 0x40 MLOAD PUSH4 0x187FA83 PUSH1 0xE6 SHL DUP2 MSTORE PUSH1 0x4 ADD PUSH1 0x40 MLOAD DUP1 SWAP2 SUB SWAP1 REVERT JUMPDEST PUSH1 0x2 SLOAD PUSH1 0x1 PUSH1 0x1 PUSH1 0xA0 SHL SUB AND PUSH2 0x1902 JUMPI PUSH1 0x40 MLOAD PUSH4 0xD6EA3663 PUSH1 0xE0 SHL DUP2 MSTORE PUSH1 0x4 ADD PUSH1 0x40 MLOAD DUP1 SWAP2 SUB SWAP1 REVERT JUMPDEST PUSH1 0xD SLOAD PUSH1 0x1 PUSH1 0x1 PUSH1 0xA0 SHL SUB AND CALLER EQ PUSH2 0x195C JUMPI PUSH1 0x40 MLOAD PUSH3 0x461BCD PUSH1 0xE5 SHL DUP2 MSTORE PUSH1 0x20 PUSH1 0x4 DUP3 ADD MSTORE PUSH1 0x1F PUSH1 0x24 DUP3 ADD MSTORE PUSH32 0x4F6E6C792077696E6E65722063616E207375626D69742064656C697665727900 PUSH1 0x44 DUP3 ADD MSTORE PUSH1 0x64 ADD PUSH2 0x7E4 JUMP JUMPDEST DUP2 PUSH2 0x19A9 JUMPI PUSH1 0x40 MLOAD PUSH3 0x461BCD PUSH1 0xE5 SHL DUP2 MSTORE PUSH1 0x20 PUSH1 0x4 DUP3 ADD MSTORE PUSH1 0x1E PUSH1 0x24 DUP3 ADD MSTORE PUSH32 0x496E76616C69642064656C69766572792065766964656E636520686173680000 PUSH1 0x44 DUP3 ADD MSTORE PUSH1 0x64 ADD PUSH2 0x7E4 JUMP JUMPDEST PUSH1 0xF DUP3 SWAP1 SSTORE PUSH1 0x2 DUP1 SLOAD PUSH1 0xFF PUSH1 0xA0 SHL NOT AND PUSH1 0x1 PUSH1 0xA2 SHL OR SWAP1 SSTORE PUSH1 0x40 DUP1 MLOAD CALLER DUP2 MSTORE PUSH1 0x20 DUP2 ADD DUP5 SWAP1 MSTORE PUSH32 0xAE1F4649889BE6B26BCF006A04C674019D1EBAFAA07F234652D80CB084E77C57 SWAP2 ADD PUSH2 0x837 JUMP JUMPDEST PUSH1 0x1 SLOAD PUSH1 0x1 PUSH1 0x1 PUSH1 0xA0 SHL SUB AND CALLER EQ PUSH2 0x1A45 JUMPI PUSH1 0x40 MLOAD PUSH3 0x461BCD PUSH1 0xE5 SHL DUP2 MSTORE PUSH1 0x20 PUSH1 0x4 DUP3 ADD MSTORE PUSH1 0x11 PUSH1 0x24 DUP3 ADD MSTORE PUSH17 0x2737BA103832B73234B7339030B236B4B7 PUSH1 0x79 SHL PUSH1 0x44 DUP3 ADD MSTORE PUSH1 0x64 ADD PUSH2 0x7E4 JUMP JUMPDEST PUSH0 DUP1 SLOAD PUSH1 0x1 DUP1 SLOAD PUSH1 0x1 PUSH1 0x1 PUSH1 0xA0 SHL SUB DUP1 DUP3 AND PUSH1 0x1 PUSH1 0x1 PUSH1 0xA0 SHL SUB NOT DUP1 DUP7 AND DUP3 OR DUP8 SSTORE SWAP1 SWAP3 AND SWAP1 SWAP3 SSTORE PUSH1 0x40 MLOAD SWAP2 SWAP1 SWAP3 AND SWAP3 DUP4 SWAP2 PUSH32 0xF8CCB027DFCD135E000E9D45E6CC2D662578A8825D4C45B5E32E0ADF67E79EC6 SWAP2 SWAP1 LOG3 POP JUMP JUMPDEST PUSH0 SLOAD PUSH1 0x1 PUSH1 0x1 PUSH1 0xA0 SHL SUB AND CALLER EQ PUSH2 0x1AC8 JUMPI PUSH1 0x40 MLOAD PUSH4 0x47556579 PUSH1 0xE0 SHL DUP2 MSTORE PUSH1 0x4 ADD PUSH1 0x40 MLOAD DUP1 SWAP2 SUB SWAP1 REVERT JUMPDEST PUSH1 0x9 SLOAD PUSH1 0xFF AND ISZERO PUSH2 0x1B14 JUMPI PUSH1 0x40 MLOAD PUSH3 0x461BCD PUSH1 0xE5 SHL DUP2 MSTORE PUSH1 0x20 PUSH1 0x4 DUP3 ADD MSTORE PUSH1 0x16 PUSH1 0x24 DUP3 ADD MSTORE PUSH22 0x15195B99195C88185B1C9958591E4818DC99585D1959 PUSH1 0x52 SHL PUSH1 0x44 DUP3 ADD MSTORE PUSH1 0x64 ADD PUSH2 0x7E4 JUMP JUMPDEST PUSH0 DUP3 GT PUSH2 0x1B75 JUMPI PUSH1 0x40 MLOAD PUSH3 0x461BCD PUSH1 0xE5 SHL DUP2 MSTORE PUSH1 0x20 PUSH1 0x4 DUP3 ADD MSTORE PUSH1 0x29 PUSH1 0x24 DUP3 ADD MSTORE PUSH32 0x436F6E747261637420616D6F756E74206D757374206265206772656174657220 PUSH1 0x44 DUP3 ADD MSTORE PUSH9 0x7468616E207A65726F PUSH1 0xB8 SHL PUSH1 0x64 DUP3 ADD MSTORE PUSH1 0x84 ADD PUSH2 0x7E4 JUMP JUMPDEST PUSH0 PUSH2 0x1B84 DUP10 DUP10 DUP10 DUP10 DUP10 DUP10 PUSH2 0x2319 JUMP JUMPDEST SWAP1 POP TIMESTAMP DUP2 GT PUSH2 0x1BD5 JUMPI PUSH1 0x40 MLOAD PUSH3 0x461BCD PUSH1 0xE5 SHL DUP2 MSTORE PUSH1 0x20 PUSH1 0x4 DUP3 ADD MSTORE PUSH1 0x1E PUSH1 0x24 DUP3 ADD MSTORE PUSH32 0x446561646C696E65206D75737420626520696E20746865206675747572650000 PUSH1 0x44 DUP3 ADD MSTORE PUSH1 0x64 ADD PUSH2 0x7E4 JUMP JUMPDEST PUSH1 0x40 DUP1 MLOAD PUSH1 0xE0 DUP2 ADD DUP3 MSTORE DUP14 DUP2 MSTORE PUSH1 0x20 DUP2 ADD DUP14 SWAP1 MSTORE SWAP1 DUP2 ADD DUP12 SWAP1 MSTORE PUSH1 0x60 DUP2 ADD DUP3 SWAP1 MSTORE PUSH1 0x80 DUP2 ADD DUP5 SWAP1 MSTORE PUSH1 0xA0 DUP2 ADD DUP4 SWAP1 MSTORE PUSH1 0x1 PUSH1 0xC0 DUP3 ADD MSTORE PUSH1 0x3 DUP1 PUSH2 0x1C18 DUP16 DUP3 PUSH2 0x2C26 JUMP JUMPDEST POP PUSH1 0x20 DUP3 ADD MLOAD PUSH1 0x1 DUP3 ADD SWAP1 PUSH2 0x1C2D SWAP1 DUP3 PUSH2 0x2C26 JUMP JUMPDEST POP PUSH1 0x40 DUP3 ADD MLOAD PUSH1 0x2 DUP3 ADD SWAP1 PUSH2 0x1C42 SWAP1 DUP3 PUSH2 0x2C26 JUMP JUMPDEST POP PUSH1 0x60 DUP3 ADD MLOAD PUSH1 0x3 DUP3 ADD SSTORE PUSH1 0x80 DUP3 ADD MLOAD PUSH1 0x4 DUP3 ADD SSTORE PUSH1 0xA0 DUP3 ADD MLOAD PUSH1 0x5 DUP3 ADD SWAP1 PUSH2 0x1C6B SWAP1 DUP3 PUSH2 0x2C26 JUMP JUMPDEST POP PUSH1 0xC0 SWAP2 SWAP1 SWAP2 ADD MLOAD PUSH1 0x6 SWAP1 SWAP2 ADD DUP1 SLOAD PUSH1 0xFF NOT AND SWAP2 ISZERO ISZERO SWAP2 SWAP1 SWAP2 OR SWAP1 SSTORE PUSH1 0x2 DUP1 SLOAD PUSH1 0xFF PUSH1 0xA0 SHL NOT AND SWAP1 SSTORE PUSH1 0x40 MLOAD PUSH32 0x1B8026EDB59EB0A93AC326AC7A523B0055A7BD12F595A560E2E75E798F1D20F1 SWAP1 PUSH2 0x1CCA SWAP1 DUP15 SWAP1 DUP15 SWAP1 DUP6 SWAP1 DUP9 SWAP1 PUSH2 0x2D18 JUMP JUMPDEST PUSH1 0x40 MLOAD DUP1 SWAP2 SUB SWAP1 LOG1 POP POP POP POP POP POP POP POP POP POP POP POP JUMP JUMPDEST PUSH0 SLOAD PUSH1 0x1 PUSH1 0x1 PUSH1 0xA0 SHL SUB AND CALLER EQ PUSH2 0x1D0A JUMPI PUSH1 0x40 MLOAD PUSH4 0x47556579 PUSH1 0xE0 SHL DUP2 MSTORE PUSH1 0x4 ADD PUSH1 0x40 MLOAD DUP1 SWAP2 SUB SWAP1 REVERT JUMPDEST JUMP JUMPDEST PUSH0 SLOAD PUSH1 0x1 PUSH1 0x1 PUSH1 0xA0 SHL SUB AND CALLER EQ PUSH2 0x1D36 JUMPI PUSH1 0x40 MLOAD PUSH4 0x47556579 PUSH1 0xE0 SHL DUP2 MSTORE PUSH1 0x4 ADD PUSH1 0x40 MLOAD DUP1 SWAP2 SUB SWAP1 REVERT JUMPDEST PUSH1 0x9 SLOAD PUSH1 0xFF AND PUSH2 0x1D59 JUMPI PUSH1 0x40 MLOAD PUSH4 0x55E9E641 PUSH1 0xE1 SHL DUP2 MSTORE PUSH1 0x4 ADD PUSH1 0x40 MLOAD DUP1 SWAP2 SUB SWAP1 REVERT JUMPDEST PUSH1 0x2 DUP1 PUSH1 0x2 SLOAD PUSH1 0x1 PUSH1 0xA0 SHL SWAP1 DIV PUSH1 0xFF AND PUSH1 0x7 DUP2 GT ISZERO PUSH2 0x1D7A JUMPI PUSH2 0x1D7A PUSH2 0x27C0 JUMP JUMPDEST EQ PUSH2 0x1D98 JUMPI PUSH1 0x40 MLOAD PUSH4 0x187FA83 PUSH1 0xE6 SHL DUP2 MSTORE PUSH1 0x4 ADD PUSH1 0x40 MLOAD DUP1 SWAP2 SUB SWAP1 REVERT JUMPDEST PUSH1 0xD SLOAD PUSH1 0x1 PUSH1 0x1 PUSH1 0xA0 SHL SUB AND PUSH2 0x1DE5 JUMPI PUSH1 0x40 MLOAD PUSH3 0x461BCD PUSH1 0xE5 SHL DUP2 MSTORE PUSH1 0x20 PUSH1 0x4 DUP3 ADD MSTORE PUSH1 0x12 PUSH1 0x24 DUP3 ADD MSTORE PUSH18 0x139BC81DDA5B9B995C881CD95B1958DD1959 PUSH1 0x72 SHL PUSH1 0x44 DUP3 ADD MSTORE PUSH1 0x64 ADD PUSH2 0x7E4 JUMP JUMPDEST PUSH1 0x2 DUP1 SLOAD PUSH1 0xFF PUSH1 0xA0 SHL NOT AND PUSH1 0x3 PUSH1 0xA0 SHL OR SWAP1 SSTORE PUSH1 0xD SLOAD PUSH1 0xE SLOAD PUSH1 0x40 DUP1 MLOAD PUSH1 0x1 PUSH1 0x1 PUSH1 0xA0 SHL SUB SWAP1 SWAP4 AND DUP4 MSTORE PUSH1 0x20 DUP4 ADD SWAP2 SWAP1 SWAP2 MSTORE PUSH32 0xB973B46A8F1E88B970A622BF0CF618B80895EFA9AF0B01EDD9B2608FB8A6914E SWAP2 ADD PUSH2 0xF12 JUMP JUMPDEST PUSH0 SLOAD PUSH1 0x1 PUSH1 0x1 PUSH1 0xA0 SHL SUB AND CALLER EQ PUSH2 0x1E69 JUMPI PUSH1 0x40 MLOAD PUSH4 0x47556579 PUSH1 0xE0 SHL DUP2 MSTORE PUSH1 0x4 ADD PUSH1 0x40 MLOAD DUP1 SWAP2 SUB SWAP1 REVERT JUMPDEST PUSH1 0x9 SLOAD PUSH1 0xFF AND PUSH2 0x1E8C JUMPI PUSH1 0x40 MLOAD PUSH4 0x55E9E641 PUSH1 0xE1 SHL DUP2 MSTORE PUSH1 0x4 ADD PUSH1 0x40 MLOAD DUP1 SWAP2 SUB SWAP1 REVERT JUMPDEST PUSH1 0x6 DUP1 PUSH1 0x2 SLOAD PUSH1 0x1 PUSH1 0xA0 SHL SWAP1 DIV PUSH1 0xFF AND PUSH1 0x7 DUP2 GT ISZERO PUSH2 0x1EAD JUMPI PUSH2 0x1EAD PUSH2 0x27C0 JUMP JUMPDEST EQ PUSH2 0x1ECB JUMPI PUSH1 0x40 MLOAD PUSH4 0x187FA83 PUSH1 0xE6 SHL DUP2 MSTORE PUSH1 0x4 ADD PUSH1 0x40 MLOAD DUP1 SWAP2 SUB SWAP1 REVERT JUMPDEST PUSH1 0x12 SLOAD PUSH1 0xFF AND ISZERO PUSH2 0x1F1E JUMPI PUSH1 0x40 MLOAD PUSH3 0x461BCD PUSH1 0xE5 SHL DUP2 MSTORE PUSH1 0x20 PUSH1 0x4 DUP3 ADD MSTORE PUSH1 0x18 PUSH1 0x24 DUP3 ADD MSTORE PUSH32 0x5061796D656E7420616C72656164792072656C65617365640000000000000000 PUSH1 0x44 DUP3 ADD MSTORE PUSH1 0x64 ADD PUSH2 0x7E4 JUMP JUMPDEST PUSH1 0xD SLOAD PUSH1 0x1 PUSH1 0x1 PUSH1 0xA0 SHL SUB AND PUSH2 0x1F67 JUMPI PUSH1 0x40 MLOAD PUSH3 0x461BCD PUSH1 0xE5 SHL DUP2 MSTORE PUSH1 0x20 PUSH1 0x4 DUP3 ADD MSTORE PUSH1 0xE PUSH1 0x24 DUP3 ADD MSTORE PUSH14 0x15DA5B9B995C881B9BDD081CD95D PUSH1 0x92 SHL PUSH1 0x44 DUP3 ADD MSTORE PUSH1 0x64 ADD PUSH2 0x7E4 JUMP JUMPDEST PUSH1 0x7 SLOAD SELFBALANCE LT ISZERO PUSH2 0x1FB9 JUMPI PUSH1 0x40 MLOAD PUSH3 0x461BCD PUSH1 0xE5 SHL DUP2 MSTORE PUSH1 0x20 PUSH1 0x4 DUP3 ADD MSTORE PUSH1 0x1D PUSH1 0x24 DUP3 ADD MSTORE PUSH32 0x496E73756666696369656E7420636F6E74726163742062616C616E6365000000 PUSH1 0x44 DUP3 ADD MSTORE PUSH1 0x64 ADD PUSH2 0x7E4 JUMP JUMPDEST PUSH1 0x12 DUP1 SLOAD PUSH1 0xFF NOT AND PUSH1 0x1 OR SWAP1 SSTORE PUSH1 0x2 DUP1 SLOAD PUSH1 0xFF PUSH1 0xA0 SHL NOT AND PUSH1 0x7 PUSH1 0xA0 SHL OR SWAP1 SSTORE PUSH1 0xD SLOAD PUSH1 0x7 SLOAD PUSH1 0x40 MLOAD PUSH1 0x1 PUSH1 0x1 PUSH1 0xA0 SHL SUB SWAP1 SWAP3 AND SWAP2 DUP2 ISZERO PUSH2 0x8FC MUL SWAP2 SWAP1 PUSH0 DUP2 DUP2 DUP2 DUP6 DUP9 DUP9 CALL SWAP4 POP POP POP POP ISZERO DUP1 ISZERO PUSH2 0x2012 JUMPI RETURNDATASIZE PUSH0 PUSH0 RETURNDATACOPY RETURNDATASIZE PUSH0 REVERT JUMPDEST POP PUSH1 0xD SLOAD PUSH1 0x7 SLOAD PUSH1 0x40 DUP1 MLOAD PUSH1 0x1 PUSH1 0x1 PUSH1 0xA0 SHL SUB SWAP1 SWAP4 AND DUP4 MSTORE PUSH1 0x20 DUP4 ADD SWAP2 SWAP1 SWAP2 MSTORE PUSH32 0xDF20FD1E76BC69D672E4814FAFB2C449BBA3A5369D8359ADF9E05E6FDE87B056 SWAP2 ADD PUSH2 0xF12 JUMP JUMPDEST PUSH1 0xC DUP2 DUP2 SLOAD DUP2 LT PUSH2 0x2069 JUMPI PUSH0 DUP1 REVERT JUMPDEST PUSH0 SWAP2 DUP3 MSTORE PUSH1 0x20 SWAP1 SWAP2 KECCAK256 ADD SLOAD PUSH1 0x1 PUSH1 0x1 PUSH1 0xA0 SHL SUB AND SWAP1 POP DUP2 JUMP JUMPDEST PUSH1 0x60 DUP1 PUSH1 0x60 PUSH0 PUSH0 PUSH1 0x60 PUSH0 PUSH0 PUSH0 PUSH1 0x3 PUSH0 ADD PUSH1 0x3 PUSH1 0x1 ADD PUSH1 0x3 PUSH1 0x2 ADD PUSH1 0x3 DUP1 ADD SLOAD PUSH1 0x3 PUSH1 0x4 ADD SLOAD PUSH1 0x3 PUSH1 0x5 ADD PUSH1 0x2 PUSH1 0x14 SWAP1 SLOAD SWAP1 PUSH2 0x100 EXP SWAP1 DIV PUSH1 0xFF AND PUSH1 0xD PUSH0 SWAP1 SLOAD SWAP1 PUSH2 0x100 EXP SWAP1 DIV PUSH1 0x1 PUSH1 0x1 PUSH1 0xA0 SHL SUB AND PUSH1 0xE SLOAD DUP9 DUP1 SLOAD PUSH2 0x20E0 SWAP1 PUSH2 0x2BA2 JUMP JUMPDEST DUP1 PUSH1 0x1F ADD PUSH1 0x20 DUP1 SWAP2 DIV MUL PUSH1 0x20 ADD PUSH1 0x40 MLOAD SWAP1 DUP2 ADD PUSH1 0x40 MSTORE DUP1 SWAP3 SWAP2 SWAP1 DUP2 DUP2 MSTORE PUSH1 0x20 ADD DUP3 DUP1 SLOAD PUSH2 0x210C SWAP1 PUSH2 0x2BA2 JUMP JUMPDEST DUP1 ISZERO PUSH2 0x2157 JUMPI DUP1 PUSH1 0x1F LT PUSH2 0x212E JUMPI PUSH2 0x100 DUP1 DUP4 SLOAD DIV MUL DUP4 MSTORE SWAP2 PUSH1 0x20 ADD SWAP2 PUSH2 0x2157 JUMP JUMPDEST DUP3 ADD SWAP2 SWAP1 PUSH0 MSTORE PUSH1 0x20 PUSH0 KECCAK256 SWAP1 JUMPDEST DUP2 SLOAD DUP2 MSTORE SWAP1 PUSH1 0x1 ADD SWAP1 PUSH1 0x20 ADD DUP1 DUP4 GT PUSH2 0x213A JUMPI DUP3 SWAP1 SUB PUSH1 0x1F AND DUP3 ADD SWAP2 JUMPDEST POP POP POP POP POP SWAP9 POP DUP8 DUP1 SLOAD PUSH2 0x216A SWAP1 PUSH2 0x2BA2 JUMP JUMPDEST DUP1 PUSH1 0x1F ADD PUSH1 0x20 DUP1 SWAP2 DIV MUL PUSH1 0x20 ADD PUSH1 0x40 MLOAD SWAP1 DUP2 ADD PUSH1 0x40 MSTORE DUP1 SWAP3 SWAP2 SWAP1 DUP2 DUP2 MSTORE PUSH1 0x20 ADD DUP3 DUP1 SLOAD PUSH2 0x2196 SWAP1 PUSH2 0x2BA2 JUMP JUMPDEST DUP1 ISZERO PUSH2 0x21E1 JUMPI DUP1 PUSH1 0x1F LT PUSH2 0x21B8 JUMPI PUSH2 0x100 DUP1 DUP4 SLOAD DIV MUL DUP4 MSTORE SWAP2 PUSH1 0x20 ADD SWAP2 PUSH2 0x21E1 JUMP JUMPDEST DUP3 ADD SWAP2 SWAP1 PUSH0 MSTORE PUSH1 0x20 PUSH0 KECCAK256 SWAP1 JUMPDEST DUP2 SLOAD DUP2 MSTORE SWAP1 PUSH1 0x1 ADD SWAP1 PUSH1 0x20 ADD DUP1 DUP4 GT PUSH2 0x21C4 JUMPI DUP3 SWAP1 SUB PUSH1 0x1F AND DUP3 ADD SWAP2 JUMPDEST POP POP POP POP POP SWAP8 POP DUP7 DUP1 SLOAD PUSH2 0x21F4 SWAP1 PUSH2 0x2BA2 JUMP JUMPDEST DUP1 PUSH1 0x1F ADD PUSH1 0x20 DUP1 SWAP2 DIV MUL PUSH1 0x20 ADD PUSH1 0x40 MLOAD SWAP1 DUP2 ADD PUSH1 0x40 MSTORE DUP1 SWAP3 SWAP2 SWAP1 DUP2 DUP2 MSTORE PUSH1 0x20 ADD DUP3 DUP1 SLOAD PUSH2 0x2220 SWAP1 PUSH2 0x2BA2 JUMP JUMPDEST DUP1 ISZERO PUSH2 0x226B JUMPI DUP1 PUSH1 0x1F LT PUSH2 0x2242 JUMPI PUSH2 0x100 DUP1 DUP4 SLOAD DIV MUL DUP4 MSTORE SWAP2 PUSH1 0x20 ADD SWAP2 PUSH2 0x226B JUMP JUMPDEST DUP3 ADD SWAP2 SWAP1 PUSH0 MSTORE PUSH1 0x20 PUSH0 KECCAK256 SWAP1 JUMPDEST DUP2 SLOAD DUP2 MSTORE SWAP1 PUSH1 0x1 ADD SWAP1 PUSH1 0x20 ADD DUP1 DUP4 GT PUSH2 0x224E JUMPI DUP3 SWAP1 SUB PUSH1 0x1F AND DUP3 ADD SWAP2 JUMPDEST POP POP POP POP POP SWAP7 POP DUP4 DUP1 SLOAD PUSH2 0x227E SWAP1 PUSH2 0x2BA2 JUMP JUMPDEST DUP1 PUSH1 0x1F ADD PUSH1 0x20 DUP1 SWAP2 DIV MUL PUSH1 0x20 ADD PUSH1 0x40 MLOAD SWAP1 DUP2 ADD PUSH1 0x40 MSTORE DUP1 SWAP3 SWAP2 SWAP1 DUP2 DUP2 MSTORE PUSH1 0x20 ADD DUP3 DUP1 SLOAD PUSH2 0x22AA SWAP1 PUSH2 0x2BA2 JUMP JUMPDEST DUP1 ISZERO PUSH2 0x22F5 JUMPI DUP1 PUSH1 0x1F LT PUSH2 0x22CC JUMPI PUSH2 0x100 DUP1 DUP4 SLOAD DIV MUL DUP4 MSTORE SWAP2 PUSH1 0x20 ADD SWAP2 PUSH2 0x22F5 JUMP JUMPDEST DUP3 ADD SWAP2 SWAP1 PUSH0 MSTORE PUSH1 0x20 PUSH0 KECCAK256 SWAP1 JUMPDEST DUP2 SLOAD DUP2 MSTORE SWAP1 PUSH1 0x1 ADD SWAP1 PUSH1 0x20 ADD DUP1 DUP4 GT PUSH2 0x22D8 JUMPI DUP3 SWAP1 SUB PUSH1 0x1F AND DUP3 ADD SWAP2 JUMPDEST POP POP POP POP POP SWAP4 POP SWAP9 POP SWAP9 POP SWAP9 POP SWAP9 POP SWAP9 POP SWAP9 POP SWAP9 POP SWAP9 POP SWAP9 POP SWAP1 SWAP2 SWAP3 SWAP4 SWAP5 SWAP6 SWAP7 SWAP8 SWAP9 JUMP JUMPDEST PUSH0 PUSH2 0x7B2 DUP8 LT ISZERO DUP1 ISZERO PUSH2 0x232E JUMPI POP PUSH2 0x834 DUP8 GT ISZERO JUMPDEST PUSH2 0x2369 JUMPI PUSH1 0x40 MLOAD PUSH3 0x461BCD PUSH1 0xE5 SHL DUP2 MSTORE PUSH1 0x20 PUSH1 0x4 DUP3 ADD MSTORE PUSH1 0xC PUSH1 0x24 DUP3 ADD MSTORE PUSH12 0x24B73B30B634B2103CB2B0B9 PUSH1 0xA1 SHL PUSH1 0x44 DUP3 ADD MSTORE PUSH1 0x64 ADD PUSH2 0x7E4 JUMP JUMPDEST PUSH1 0x1 DUP7 LT ISZERO DUP1 ISZERO PUSH2 0x237B JUMPI POP PUSH1 0xC DUP7 GT ISZERO JUMPDEST PUSH2 0x23B7 JUMPI PUSH1 0x40 MLOAD PUSH3 0x461BCD PUSH1 0xE5 SHL DUP2 MSTORE PUSH1 0x20 PUSH1 0x4 DUP3 ADD MSTORE PUSH1 0xD PUSH1 0x24 DUP3 ADD MSTORE PUSH13 0x92DCECC2D8D2C840DADEDCE8D PUSH1 0x9B SHL PUSH1 0x44 DUP3 ADD MSTORE PUSH1 0x64 ADD PUSH2 0x7E4 JUMP JUMPDEST PUSH1 0x18 DUP5 LT PUSH2 0x23F6 JUMPI PUSH1 0x40 MLOAD PUSH3 0x461BCD PUSH1 0xE5 SHL DUP2 MSTORE PUSH1 0x20 PUSH1 0x4 DUP3 ADD MSTORE PUSH1 0xC PUSH1 0x24 DUP3 ADD MSTORE PUSH12 0x24B73B30B634B2103437BAB9 PUSH1 0xA1 SHL PUSH1 0x44 DUP3 ADD MSTORE PUSH1 0x64 ADD PUSH2 0x7E4 JUMP JUMPDEST PUSH1 0x3C DUP4 LT PUSH2 0x2437 JUMPI PUSH1 0x40 MLOAD PUSH3 0x461BCD PUSH1 0xE5 SHL DUP2 MSTORE PUSH1 0x20 PUSH1 0x4 DUP3 ADD MSTORE PUSH1 0xE PUSH1 0x24 DUP3 ADD MSTORE PUSH14 0x496E76616C6964206D696E757465 PUSH1 0x90 SHL PUSH1 0x44 DUP3 ADD MSTORE PUSH1 0x64 ADD PUSH2 0x7E4 JUMP JUMPDEST PUSH1 0xB NOT DUP3 SLT ISZERO DUP1 ISZERO PUSH2 0x244A JUMPI POP PUSH1 0xE DUP3 SGT ISZERO JUMPDEST PUSH2 0x248B JUMPI PUSH1 0x40 MLOAD PUSH3 0x461BCD PUSH1 0xE5 SHL DUP2 MSTORE PUSH1 0x20 PUSH1 0x4 DUP3 ADD MSTORE PUSH1 0x12 PUSH1 0x24 DUP3 ADD MSTORE PUSH18 0x125B9D985B1A5908155510C81BD9999CD95D PUSH1 0x72 SHL PUSH1 0x44 DUP3 ADD MSTORE PUSH1 0x64 ADD PUSH2 0x7E4 JUMP JUMPDEST PUSH0 PUSH2 0x2496 DUP9 DUP9 PUSH2 0x254D JUMP JUMPDEST SWAP1 POP PUSH1 0x1 DUP7 LT ISZERO DUP1 ISZERO PUSH2 0x24A9 JUMPI POP DUP1 DUP7 GT ISZERO JUMPDEST PUSH2 0x24E3 JUMPI PUSH1 0x40 MLOAD PUSH3 0x461BCD PUSH1 0xE5 SHL DUP2 MSTORE PUSH1 0x20 PUSH1 0x4 DUP3 ADD MSTORE PUSH1 0xB PUSH1 0x24 DUP3 ADD MSTORE PUSH11 0x496E76616C696420646179 PUSH1 0xA8 SHL PUSH1 0x44 DUP3 ADD MSTORE PUSH1 0x64 ADD PUSH2 0x7E4 JUMP JUMPDEST PUSH2 0x24F1 DUP9 DUP9 DUP9 DUP9 DUP9 PUSH0 PUSH2 0x25B1 JUMP JUMPDEST SWAP2 POP PUSH0 DUP4 SGT ISZERO PUSH2 0x2518 JUMPI PUSH2 0x2507 DUP4 PUSH2 0xE10 PUSH2 0x2D64 JUMP JUMPDEST PUSH2 0x2511 SWAP1 DUP4 PUSH2 0x2D7B JUMP JUMPDEST SWAP2 POP PUSH2 0x2542 JUMP JUMPDEST PUSH0 DUP4 SLT ISZERO PUSH2 0x2542 JUMPI PUSH2 0x2529 DUP4 PUSH2 0x2D8E JUMP JUMPDEST PUSH2 0x2535 SWAP1 PUSH2 0xE10 PUSH2 0x2D64 JUMP JUMPDEST PUSH2 0x253F SWAP1 DUP4 PUSH2 0x2DA8 JUMP JUMPDEST SWAP2 POP JUMPDEST POP SWAP7 SWAP6 POP POP POP POP POP POP JUMP JUMPDEST PUSH0 DUP2 PUSH1 0x2 SUB PUSH2 0x2577 JUMPI PUSH2 0x255F DUP4 PUSH2 0x274D JUMP JUMPDEST PUSH2 0x256A JUMPI PUSH1 0x1C PUSH2 0x256D JUMP JUMPDEST PUSH1 0x1D JUMPDEST PUSH1 0xFF AND SWAP1 POP PUSH2 0xC05 JUMP JUMPDEST DUP2 PUSH1 0x4 EQ DUP1 PUSH2 0x2586 JUMPI POP DUP2 PUSH1 0x6 EQ JUMPDEST DUP1 PUSH2 0x2591 JUMPI POP DUP2 PUSH1 0x9 EQ JUMPDEST DUP1 PUSH2 0x259C JUMPI POP DUP2 PUSH1 0xB EQ JUMPDEST ISZERO PUSH2 0x25A9 JUMPI POP PUSH1 0x1E PUSH2 0xC05 JUMP JUMPDEST POP PUSH1 0x1F PUSH2 0xC05 JUMP JUMPDEST PUSH0 PUSH2 0x7B2 JUMPDEST DUP8 DUP2 PUSH2 0xFFFF AND LT ISZERO PUSH2 0x2608 JUMPI PUSH2 0x25CB DUP2 PUSH2 0x274D JUMP JUMPDEST ISZERO PUSH2 0x25E5 JUMPI PUSH2 0x25DE PUSH4 0x1E28500 DUP4 PUSH2 0x2DA8 JUMP JUMPDEST SWAP2 POP PUSH2 0x25F6 JUMP JUMPDEST PUSH2 0x25F3 PUSH4 0x1E13380 DUP4 PUSH2 0x2DA8 JUMP JUMPDEST SWAP2 POP JUMPDEST DUP1 PUSH2 0x2600 DUP2 PUSH2 0x2DBB JUMP JUMPDEST SWAP2 POP POP PUSH2 0x25B6 JUMP JUMPDEST PUSH1 0x40 DUP1 MLOAD PUSH2 0x180 DUP2 ADD DUP3 MSTORE PUSH1 0x1F DUP1 DUP3 MSTORE PUSH1 0x1C PUSH1 0x20 DUP4 ADD MSTORE SWAP2 DUP2 ADD DUP3 SWAP1 MSTORE PUSH1 0x1E PUSH1 0x60 DUP3 ADD DUP2 SWAP1 MSTORE PUSH1 0x80 DUP3 ADD DUP4 SWAP1 MSTORE PUSH1 0xA0 DUP3 ADD DUP2 SWAP1 MSTORE PUSH1 0xC0 DUP3 ADD DUP4 SWAP1 MSTORE PUSH1 0xE0 DUP3 ADD DUP4 SWAP1 MSTORE PUSH2 0x100 DUP3 ADD DUP2 SWAP1 MSTORE PUSH2 0x120 DUP3 ADD DUP4 SWAP1 MSTORE PUSH2 0x140 DUP3 ADD MSTORE PUSH2 0x160 DUP2 ADD SWAP2 SWAP1 SWAP2 MSTORE PUSH2 0x2672 DUP10 PUSH2 0x274D JUMP JUMPDEST ISZERO PUSH2 0x267F JUMPI PUSH1 0x1D PUSH1 0x20 DUP3 ADD MSTORE JUMPDEST PUSH1 0x1 SWAP2 POP JUMPDEST DUP8 DUP3 PUSH2 0xFFFF AND LT ISZERO PUSH2 0x26E3 JUMPI DUP1 PUSH2 0x269C PUSH1 0x1 DUP5 PUSH2 0x2DDB JUMP JUMPDEST PUSH2 0xFFFF AND PUSH1 0xC DUP2 LT PUSH2 0x26B0 JUMPI PUSH2 0x26B0 PUSH2 0x2D04 JUMP JUMPDEST PUSH1 0x20 MUL ADD MLOAD PUSH2 0x26C5 SWAP1 PUSH1 0xFF AND PUSH3 0x15180 PUSH2 0x2D64 JUMP JUMPDEST PUSH2 0x26CF SWAP1 DUP5 PUSH2 0x2DA8 JUMP JUMPDEST SWAP3 POP DUP2 PUSH2 0x26DB DUP2 PUSH2 0x2DBB JUMP JUMPDEST SWAP3 POP POP PUSH2 0x2684 JUMP JUMPDEST PUSH2 0x26EE PUSH1 0x1 DUP9 PUSH2 0x2D7B JUMP JUMPDEST PUSH2 0x26FB SWAP1 PUSH3 0x15180 PUSH2 0x2D64 JUMP JUMPDEST PUSH2 0x2705 SWAP1 DUP5 PUSH2 0x2DA8 JUMP JUMPDEST SWAP3 POP PUSH2 0x2713 DUP7 PUSH2 0xE10 PUSH2 0x2D64 JUMP JUMPDEST PUSH2 0x271D SWAP1 DUP5 PUSH2 0x2DA8 JUMP JUMPDEST SWAP3 POP PUSH2 0x272A DUP6 PUSH1 0x3C PUSH2 0x2D64 JUMP JUMPDEST PUSH2 0x2734 SWAP1 DUP5 PUSH2 0x2DA8 JUMP JUMPDEST SWAP3 POP PUSH2 0x2740 DUP5 DUP5 PUSH2 0x2DA8 JUMP JUMPDEST SWAP10 SWAP9 POP POP POP POP POP POP POP POP POP JUMP JUMPDEST PUSH0 PUSH2 0x2759 PUSH1 0x4 DUP4 PUSH2 0x2DF5 JUMP JUMPDEST PUSH2 0xFFFF AND ISZERO PUSH2 0x2769 JUMPI POP PUSH0 SWAP2 SWAP1 POP JUMP JUMPDEST PUSH2 0x2774 PUSH1 0x64 DUP4 PUSH2 0x2DF5 JUMP JUMPDEST PUSH2 0xFFFF AND ISZERO PUSH2 0x2785 JUMPI POP PUSH1 0x1 SWAP2 SWAP1 POP JUMP JUMPDEST PUSH2 0x2791 PUSH2 0x190 DUP4 PUSH2 0x2DF5 JUMP JUMPDEST PUSH2 0xFFFF AND ISZERO PUSH2 0x27A1 JUMPI POP PUSH0 SWAP2 SWAP1 POP JUMP JUMPDEST POP PUSH1 0x1 SWAP2 SWAP1 POP JUMP JUMPDEST PUSH0 PUSH1 0x20 DUP3 DUP5 SUB SLT ISZERO PUSH2 0x27B9 JUMPI PUSH0 PUSH0 REVERT JUMPDEST POP CALLDATALOAD SWAP2 SWAP1 POP JUMP JUMPDEST PUSH4 0x4E487B71 PUSH1 0xE0 SHL PUSH0 MSTORE PUSH1 0x21 PUSH1 0x4 MSTORE PUSH1 0x24 PUSH0 REVERT JUMPDEST PUSH1 0x8 DUP2 LT PUSH2 0x27F0 JUMPI PUSH4 0x4E487B71 PUSH1 0xE0 SHL PUSH0 MSTORE PUSH1 0x21 PUSH1 0x4 MSTORE PUSH1 0x24 PUSH0 REVERT JUMPDEST SWAP1 MSTORE JUMP JUMPDEST PUSH1 0x20 DUP2 ADD PUSH2 0xC05 DUP3 DUP5 PUSH2 0x27D4 JUMP JUMPDEST PUSH4 0x4E487B71 PUSH1 0xE0 SHL PUSH0 MSTORE PUSH1 0x41 PUSH1 0x4 MSTORE PUSH1 0x24 PUSH0 REVERT JUMPDEST PUSH0 DUP3 PUSH1 0x1F DUP4 ADD SLT PUSH2 0x2825 JUMPI PUSH0 PUSH0 REVERT JUMPDEST DUP2 CALLDATALOAD PUSH8 0xFFFFFFFFFFFFFFFF DUP2 GT ISZERO PUSH2 0x283F JUMPI PUSH2 0x283F PUSH2 0x2802 JUMP JUMPDEST PUSH1 0x40 MLOAD PUSH1 0x1F DUP3 ADD PUSH1 0x1F NOT SWAP1 DUP2 AND PUSH1 0x3F ADD AND DUP2 ADD PUSH8 0xFFFFFFFFFFFFFFFF DUP2 GT DUP3 DUP3 LT OR ISZERO PUSH2 0x286E JUMPI PUSH2 0x286E PUSH2 0x2802 JUMP JUMPDEST PUSH1 0x40 MSTORE DUP2 DUP2 MSTORE DUP4 DUP3 ADD PUSH1 0x20 ADD DUP6 LT ISZERO PUSH2 0x2885 JUMPI PUSH0 PUSH0 REVERT JUMPDEST DUP2 PUSH1 0x20 DUP6 ADD PUSH1 0x20 DUP4 ADD CALLDATACOPY PUSH0 SWAP2 DUP2 ADD PUSH1 0x20 ADD SWAP2 SWAP1 SWAP2 MSTORE SWAP4 SWAP3 POP POP POP JUMP JUMPDEST PUSH0 PUSH0 PUSH1 0x40 DUP4 DUP6 SUB SLT ISZERO PUSH2 0x28B2 JUMPI PUSH0 PUSH0 REVERT JUMPDEST DUP3 CALLDATALOAD SWAP2 POP PUSH1 0x20 DUP4 ADD CALLDATALOAD PUSH8 0xFFFFFFFFFFFFFFFF DUP2 GT ISZERO PUSH2 0x28CF JUMPI PUSH0 PUSH0 REVERT JUMPDEST PUSH2 0x28DB DUP6 DUP3 DUP7 ADD PUSH2 0x2816 JUMP JUMPDEST SWAP2 POP POP SWAP3 POP SWAP3 SWAP1 POP JUMP JUMPDEST PUSH0 DUP2 MLOAD DUP1 DUP5 MSTORE DUP1 PUSH1 0x20 DUP5 ADD PUSH1 0x20 DUP7 ADD MCOPY PUSH0 PUSH1 0x20 DUP3 DUP7 ADD ADD MSTORE PUSH1 0x20 PUSH1 0x1F NOT PUSH1 0x1F DUP4 ADD AND DUP6 ADD ADD SWAP2 POP POP SWAP3 SWAP2 POP POP JUMP JUMPDEST PUSH1 0x20 DUP2 MSTORE PUSH0 PUSH2 0x2925 PUSH1 0x20 DUP4 ADD DUP5 PUSH2 0x28E5 JUMP JUMPDEST SWAP4 SWAP3 POP POP POP JUMP JUMPDEST PUSH0 PUSH1 0x20 DUP3 DUP5 SUB SLT ISZERO PUSH2 0x293C JUMPI PUSH0 PUSH0 REVERT JUMPDEST DUP2 CALLDATALOAD PUSH1 0x1 PUSH1 0x1 PUSH1 0xA0 SHL SUB DUP2 AND DUP2 EQ PUSH2 0x2925 JUMPI PUSH0 PUSH0 REVERT JUMPDEST PUSH0 PUSH1 0x20 DUP3 DUP5 SUB SLT ISZERO PUSH2 0x2962 JUMPI PUSH0 PUSH0 REVERT JUMPDEST DUP2 CALLDATALOAD PUSH8 0xFFFFFFFFFFFFFFFF DUP2 GT ISZERO PUSH2 0x2978 JUMPI PUSH0 PUSH0 REVERT JUMPDEST PUSH2 0x2984 DUP5 DUP3 DUP6 ADD PUSH2 0x2816 JUMP JUMPDEST SWAP5 SWAP4 POP POP POP POP JUMP JUMPDEST PUSH1 0xE0 DUP2 MSTORE PUSH0 PUSH2 0x299E PUSH1 0xE0 DUP4 ADD DUP11 PUSH2 0x28E5 JUMP JUMPDEST DUP3 DUP2 SUB PUSH1 0x20 DUP5 ADD MSTORE PUSH2 0x29B0 DUP2 DUP11 PUSH2 0x28E5 JUMP JUMPDEST SWAP1 POP DUP3 DUP2 SUB PUSH1 0x40 DUP5 ADD MSTORE PUSH2 0x29C4 DUP2 DUP10 PUSH2 0x28E5 JUMP JUMPDEST SWAP1 POP DUP7 PUSH1 0x60 DUP5 ADD MSTORE DUP6 PUSH1 0x80 DUP5 ADD MSTORE DUP3 DUP2 SUB PUSH1 0xA0 DUP5 ADD MSTORE PUSH2 0x29E4 DUP2 DUP7 PUSH2 0x28E5 JUMP JUMPDEST SWAP2 POP POP DUP3 ISZERO ISZERO PUSH1 0xC0 DUP4 ADD MSTORE SWAP9 SWAP8 POP POP POP POP POP POP POP POP JUMP JUMPDEST PUSH0 PUSH0 PUSH0 PUSH0 PUSH0 PUSH0 PUSH0 PUSH0 PUSH0 PUSH0 PUSH0 PUSH2 0x160 DUP13 DUP15 SUB SLT ISZERO PUSH2 0x2A16 JUMPI PUSH0 PUSH0 REVERT JUMPDEST DUP12 CALLDATALOAD PUSH8 0xFFFFFFFFFFFFFFFF DUP2 GT ISZERO PUSH2 0x2A2C JUMPI PUSH0 PUSH0 REVERT JUMPDEST PUSH2 0x2A38 DUP15 DUP3 DUP16 ADD PUSH2 0x2816 JUMP JUMPDEST SWAP12 POP POP PUSH1 0x20 DUP13 ADD CALLDATALOAD PUSH8 0xFFFFFFFFFFFFFFFF DUP2 GT ISZERO PUSH2 0x2A54 JUMPI PUSH0 PUSH0 REVERT JUMPDEST PUSH2 0x2A60 DUP15 DUP3 DUP16 ADD PUSH2 0x2816 JUMP JUMPDEST SWAP11 POP POP PUSH1 0x40 DUP13 ADD CALLDATALOAD PUSH8 0xFFFFFFFFFFFFFFFF DUP2 GT ISZERO PUSH2 0x2A7C JUMPI PUSH0 PUSH0 REVERT JUMPDEST PUSH2 0x2A88 DUP15 DUP3 DUP16 ADD PUSH2 0x2816 JUMP JUMPDEST SWAP10 POP POP PUSH1 0x60 DUP13 ADD CALLDATALOAD SWAP8 POP PUSH1 0x80 DUP13 ADD CALLDATALOAD SWAP7 POP PUSH1 0xA0 DUP13 ADD CALLDATALOAD SWAP6 POP PUSH1 0xC0 DUP13 ADD CALLDATALOAD SWAP5 POP PUSH1 0xE0 DUP13 ADD CALLDATALOAD SWAP4 POP PUSH2 0x100 DUP13 ADD CALLDATALOAD SWAP3 POP PUSH2 0x120 DUP13 ADD CALLDATALOAD SWAP2 POP PUSH2 0x140 DUP13 ADD CALLDATALOAD PUSH8 0xFFFFFFFFFFFFFFFF DUP2 GT ISZERO PUSH2 0x2AD8 JUMPI PUSH0 PUSH0 REVERT JUMPDEST PUSH2 0x2AE4 DUP15 DUP3 DUP16 ADD PUSH2 0x2816 JUMP JUMPDEST SWAP2 POP POP SWAP3 SWAP6 SWAP9 SWAP12 POP SWAP3 SWAP6 SWAP9 SWAP12 SWAP1 SWAP4 SWAP7 SWAP10 POP JUMP JUMPDEST PUSH2 0x120 DUP2 MSTORE PUSH0 PUSH2 0x2B0B PUSH2 0x120 DUP4 ADD DUP13 PUSH2 0x28E5 JUMP JUMPDEST DUP3 DUP2 SUB PUSH1 0x20 DUP5 ADD MSTORE PUSH2 0x2B1D DUP2 DUP13 PUSH2 0x28E5 JUMP JUMPDEST SWAP1 POP DUP3 DUP2 SUB PUSH1 0x40 DUP5 ADD MSTORE PUSH2 0x2B31 DUP2 DUP12 PUSH2 0x28E5 JUMP JUMPDEST SWAP1 POP DUP9 PUSH1 0x60 DUP5 ADD MSTORE DUP8 PUSH1 0x80 DUP5 ADD MSTORE DUP3 DUP2 SUB PUSH1 0xA0 DUP5 ADD MSTORE PUSH2 0x2B51 DUP2 DUP9 PUSH2 0x28E5 JUMP JUMPDEST SWAP2 POP POP PUSH2 0x2B61 PUSH1 0xC0 DUP4 ADD DUP7 PUSH2 0x27D4 JUMP JUMPDEST PUSH1 0x1 PUSH1 0x1 PUSH1 0xA0 SHL SUB SWAP4 SWAP1 SWAP4 AND PUSH1 0xE0 DUP3 ADD MSTORE PUSH2 0x100 ADD MSTORE SWAP8 SWAP7 POP POP POP POP POP POP POP JUMP JUMPDEST DUP3 DUP2 MSTORE PUSH0 DUP3 MLOAD DUP1 PUSH1 0x20 DUP6 ADD PUSH1 0x20 DUP6 ADD MCOPY PUSH0 SWAP3 ADD PUSH1 0x20 ADD SWAP2 DUP3 MSTORE POP SWAP3 SWAP2 POP POP JUMP JUMPDEST PUSH1 0x1 DUP2 DUP2 SHR SWAP1 DUP3 AND DUP1 PUSH2 0x2BB6 JUMPI PUSH1 0x7F DUP3 AND SWAP2 POP JUMPDEST PUSH1 0x20 DUP3 LT DUP2 SUB PUSH2 0x2BD4 JUMPI PUSH4 0x4E487B71 PUSH1 0xE0 SHL PUSH0 MSTORE PUSH1 0x22 PUSH1 0x4 MSTORE PUSH1 0x24 PUSH0 REVERT JUMPDEST POP SWAP2 SWAP1 POP JUMP JUMPDEST PUSH1 0x1F DUP3 GT ISZERO PUSH2 0x2C21 JUMPI DUP1 PUSH0 MSTORE PUSH1 0x20 PUSH0 KECCAK256 PUSH1 0x1F DUP5 ADD PUSH1 0x5 SHR DUP2 ADD PUSH1 0x20 DUP6 LT ISZERO PUSH2 0x2BFF JUMPI POP DUP1 JUMPDEST PUSH1 0x1F DUP5 ADD PUSH1 0x5 SHR DUP3 ADD SWAP2 POP JUMPDEST DUP2 DUP2 LT ISZERO PUSH2 0x2C1E JUMPI PUSH0 DUP2 SSTORE PUSH1 0x1 ADD PUSH2 0x2C0B JUMP JUMPDEST POP POP JUMPDEST POP POP POP JUMP JUMPDEST DUP2 MLOAD PUSH8 0xFFFFFFFFFFFFFFFF DUP2 GT ISZERO PUSH2 0x2C40 JUMPI PUSH2 0x2C40 PUSH2 0x2802 JUMP JUMPDEST PUSH2 0x2C54 DUP2 PUSH2 0x2C4E DUP5 SLOAD PUSH2 0x2BA2 JUMP JUMPDEST DUP5 PUSH2 0x2BDA JUMP JUMPDEST PUSH1 0x20 PUSH1 0x1F DUP3 GT PUSH1 0x1 DUP2 EQ PUSH2 0x2C86 JUMPI PUSH0 DUP4 ISZERO PUSH2 0x2C6F JUMPI POP DUP5 DUP3 ADD MLOAD JUMPDEST PUSH0 NOT PUSH1 0x3 DUP6 SWAP1 SHL SHR NOT AND PUSH1 0x1 DUP5 SWAP1 SHL OR DUP5 SSTORE PUSH2 0x2C1E JUMP JUMPDEST PUSH0 DUP5 DUP2 MSTORE PUSH1 0x20 DUP2 KECCAK256 PUSH1 0x1F NOT DUP6 AND SWAP2 JUMPDEST DUP3 DUP2 LT ISZERO PUSH2 0x2CB5 JUMPI DUP8 DUP6 ADD MLOAD DUP3 SSTORE PUSH1 0x20 SWAP5 DUP6 ADD SWAP5 PUSH1 0x1 SWAP1 SWAP3 ADD SWAP2 ADD PUSH2 0x2C95 JUMP JUMPDEST POP DUP5 DUP3 LT ISZERO PUSH2 0x2CD2 JUMPI DUP7 DUP5 ADD MLOAD PUSH0 NOT PUSH1 0x3 DUP8 SWAP1 SHL PUSH1 0xF8 AND SHR NOT AND DUP2 SSTORE JUMPDEST POP POP POP POP PUSH1 0x1 SWAP1 DUP2 SHL ADD SWAP1 SSTORE POP JUMP JUMPDEST PUSH1 0x1 PUSH1 0x1 PUSH1 0xA0 SHL SUB DUP4 AND DUP2 MSTORE PUSH1 0x40 PUSH1 0x20 DUP3 ADD DUP2 SWAP1 MSTORE PUSH0 SWAP1 PUSH2 0x2984 SWAP1 DUP4 ADD DUP5 PUSH2 0x28E5 JUMP JUMPDEST PUSH4 0x4E487B71 PUSH1 0xE0 SHL PUSH0 MSTORE PUSH1 0x32 PUSH1 0x4 MSTORE PUSH1 0x24 PUSH0 REVERT JUMPDEST PUSH1 0x80 DUP2 MSTORE PUSH0 PUSH2 0x2D2A PUSH1 0x80 DUP4 ADD DUP8 PUSH2 0x28E5 JUMP JUMPDEST DUP3 DUP2 SUB PUSH1 0x20 DUP5 ADD MSTORE PUSH2 0x2D3C DUP2 DUP8 PUSH2 0x28E5 JUMP JUMPDEST PUSH1 0x40 DUP5 ADD SWAP6 SWAP1 SWAP6 MSTORE POP POP PUSH1 0x60 ADD MSTORE SWAP3 SWAP2 POP POP JUMP JUMPDEST PUSH4 0x4E487B71 PUSH1 0xE0 SHL PUSH0 MSTORE PUSH1 0x11 PUSH1 0x4 MSTORE PUSH1 0x24 PUSH0 REVERT JUMPDEST DUP1 DUP3 MUL DUP2 ISZERO DUP3 DUP3 DIV DUP5 EQ OR PUSH2 0xC05 JUMPI PUSH2 0xC05 PUSH2 0x2D50 JUMP JUMPDEST DUP2 DUP2 SUB DUP2 DUP2 GT ISZERO PUSH2 0xC05 JUMPI PUSH2 0xC05 PUSH2 0x2D50 JUMP JUMPDEST PUSH0 PUSH1 0x1 PUSH1 0xFF SHL DUP3 ADD PUSH2 0x2DA2 JUMPI PUSH2 0x2DA2 PUSH2 0x2D50 JUMP JUMPDEST POP PUSH0 SUB SWAP1 JUMP JUMPDEST DUP1 DUP3 ADD DUP1 DUP3 GT ISZERO PUSH2 0xC05 JUMPI PUSH2 0xC05 PUSH2 0x2D50 JUMP JUMPDEST PUSH0 PUSH2 0xFFFF DUP3 AND PUSH2 0xFFFF DUP2 SUB PUSH2 0x2DD2 JUMPI PUSH2 0x2DD2 PUSH2 0x2D50 JUMP JUMPDEST PUSH1 0x1 ADD SWAP3 SWAP2 POP POP JUMP JUMPDEST PUSH2 0xFFFF DUP3 DUP2 AND DUP3 DUP3 AND SUB SWAP1 DUP2 GT ISZERO PUSH2 0xC05 JUMPI PUSH2 0xC05 PUSH2 0x2D50 JUMP JUMPDEST PUSH0 PUSH2 0xFFFF DUP4 AND DUP1 PUSH2 0x2E14 JUMPI PUSH4 0x4E487B71 PUSH1 0xE0 SHL PUSH0 MSTORE PUSH1 0x12 PUSH1 0x4 MSTORE PUSH1 0x24 PUSH0 REVERT JUMPDEST DUP1 PUSH2 0xFFFF DUP5 AND MOD SWAP2 POP POP SWAP3 SWAP2 POP POP JUMP INVALID LOG2 PUSH5 0x6970667358 0x22 SLT KECCAK256 SWAP12 POP KECCAK256 0xD4 PUSH26 0x6FBFD6ED325C0A9EE9FEB9AC66E94C33B2CEF50D14259EBEA10B 0xD0 PUSH5 0x736F6C6343 STOP ADDMOD 0x1F STOP CALLER "
		},
		"gasEstimates": {
			"creation": {
				"codeDepositCost": "2373200",
				"executionCost": "26753",
				"totalCost": "2399953"
			},
			"external": {
				"acceptAdminRole()": "52397",
				"acceptDelivery(bytes32)": "56539",
				"admin()": "2467",
				"awardTender()": "38618",
				"bidderList(uint256)": "4655",
				"bids(address)": "9055",
				"createTenderWithLocalTime(string,string,string,uint256,uint256,uint256,uint256,uint256,int256,uint256,string)": "infinite",
				"deliveryEvidenceHash()": "2384",
				"evaluateTender()": "infinite",
				"fundContract()": "2410",
				"getBidDetails(address)": "9207",
				"getBidderCount()": "2358",
				"getContractBalance()": "326",
				"getPackedHash(uint256,string)": "infinite",
				"getTenderSummary()": "infinite",
				"inspectionReportHash()": "2361",
				"inspector()": "2446",
				"lowestBid()": "2383",
				"openRevealPhase()": "33778",
				"paymentReleased()": "2354",
				"pendingAdmin()": "2382",
				"registerBidder(address)": "82863",
				"registeredBidders(address)": "2605",
				"rejectDelivery(string)": "infinite",
				"rejectionReason()": "infinite",
				"releasePayment()": "infinite",
				"revealBid(uint256,string)": "infinite",
				"setInspector(address)": "36516",
				"status()": "2492",
				"submitDeliveryEvidence(bytes32)": "56571",
				"submitSealedBid(bytes32)": "88116",
				"tender()": "infinite",
				"transferAdmin(address)": "32537",
				"winner()": "2402"
			},
			"internal": {
				"_getDaysInMonth(uint256,uint256)": "infinite",
				"_isLeapYear(uint16)": "infinite",
				"_toTimestamp(uint256,uint256,uint256,uint256,uint256,uint256)": "infinite",
				"_toTimestampWithOffset(uint256,uint256,uint256,uint256,uint256,int256)": "infinite"
			}
		},
		"methodIdentifiers": {
			"acceptAdminRole()": "8c3d7301",
			"acceptDelivery(bytes32)": "0bd58917",
			"admin()": "f851a440",
			"awardTender()": "d0112863",
			"bidderList(uint256)": "d3584e84",
			"bids(address)": "62ea82db",
			"createTenderWithLocalTime(string,string,string,uint256,uint256,uint256,uint256,uint256,int256,uint256,string)": "905249a3",
			"deliveryEvidenceHash()": "2e9e8e59",
			"evaluateTender()": "592fd028",
			"fundContract()": "bd097e21",
			"getBidDetails(address)": "8d07ae9f",
			"getBidderCount()": "c87da02d",
			"getContractBalance()": "6f9fb98a",
			"getPackedHash(uint256,string)": "3c8c4091",
			"getTenderSummary()": "e3c608ef",
			"inspectionReportHash()": "a4a00144",
			"inspector()": "ed2cee9e",
			"lowestBid()": "b6f3d256",
			"openRevealPhase()": "0bf36767",
			"paymentReleased()": "c63735b3",
			"pendingAdmin()": "26782247",
			"registerBidder(address)": "56f17082",
			"registeredBidders(address)": "356e7ccb",
			"rejectDelivery(string)": "4c5aed38",
			"rejectionReason()": "26bd8926",
			"releasePayment()": "d116c8c4",
			"revealBid(uint256,string)": "2163b8c5",
			"setInspector(address)": "4e5cbf61",
			"status()": "200d2ed2",
			"submitDeliveryEvidence(bytes32)": "7bd2a5da",
			"submitSealedBid(bytes32)": "53321ae6",
			"tender()": "6cb55d1a",
			"transferAdmin(address)": "75829def",
			"winner()": "dfbf53ae"
		}
	},
	"abi": [
		{
			"inputs": [],
			"stateMutability": "payable",
			"type": "constructor"
		},
		{
			"inputs": [],
			"name": "InspectorNotAssigned",
			"type": "error"
		},
		{
			"inputs": [],
			"name": "InvalidTenderStage",
			"type": "error"
		},
		{
			"inputs": [],
			"name": "NotRegisteredBidder",
			"type": "error"
		},
		{
			"inputs": [],
			"name": "OnlyAdmin",
			"type": "error"
		},
		{
			"inputs": [],
			"name": "OnlyInspector",
			"type": "error"
		},
		{
			"inputs": [],
			"name": "SubmissionDeadlineNotReached",
			"type": "error"
		},
		{
			"inputs": [],
			"name": "SubmissionDeadlinePassed",
			"type": "error"
		},
		{
			"inputs": [],
			"name": "TenderDoesNotExist",
			"type": "error"
		},
		{
			"anonymous": false,
			"inputs": [
				{
					"indexed": true,
					"internalType": "address",
					"name": "currentAdmin",
					"type": "address"
				},
				{
					"indexed": true,
					"internalType": "address",
					"name": "newAdmin",
					"type": "address"
				}
			],
			"name": "AdminTransferInitiated",
			"type": "event"
		},
		{
			"anonymous": false,
			"inputs": [
				{
					"indexed": true,
					"internalType": "address",
					"name": "oldAdmin",
					"type": "address"
				},
				{
					"indexed": true,
					"internalType": "address",
					"name": "newAdmin",
					"type": "address"
				}
			],
			"name": "AdminTransferred",
			"type": "event"
		},
		{
			"anonymous": false,
			"inputs": [
				{
					"indexed": false,
					"internalType": "address",
					"name": "bidder",
					"type": "address"
				},
				{
					"indexed": false,
					"internalType": "uint256",
					"name": "amount",
					"type": "uint256"
				}
			],
			"name": "BidRevealed",
			"type": "event"
		},
		{
			"anonymous": false,
			"inputs": [
				{
					"indexed": false,
					"internalType": "address",
					"name": "bidder",
					"type": "address"
				}
			],
			"name": "BidSubmitted",
			"type": "event"
		},
		{
			"anonymous": false,
			"inputs": [
				{
					"indexed": false,
					"internalType": "address",
					"name": "bidder",
					"type": "address"
				}
			],
			"name": "BidderRegistered",
			"type": "event"
		},
		{
			"anonymous": false,
			"inputs": [
				{
					"indexed": false,
					"internalType": "address",
					"name": "inspector",
					"type": "address"
				},
				{
					"indexed": false,
					"internalType": "bytes32",
					"name": "inspectionReportHash",
					"type": "bytes32"
				}
			],
			"name": "DeliveryAccepted",
			"type": "event"
		},
		{
			"anonymous": false,
			"inputs": [
				{
					"indexed": false,
					"internalType": "address",
					"name": "inspector",
					"type": "address"
				},
				{
					"indexed": false,
					"internalType": "string",
					"name": "reason",
					"type": "string"
				}
			],
			"name": "DeliveryRejected",
			"type": "event"
		},
		{
			"anonymous": false,
			"inputs": [
				{
					"indexed": false,
					"internalType": "address",
					"name": "winner",
					"type": "address"
				},
				{
					"indexed": false,
					"internalType": "bytes32",
					"name": "deliveryEvidenceHash",
					"type": "bytes32"
				}
			],
			"name": "DeliverySubmitted",
			"type": "event"
		},
		{
			"anonymous": false,
			"inputs": [
				{
					"indexed": false,
					"internalType": "address",
					"name": "inspector",
					"type": "address"
				}
			],
			"name": "InspectorAssigned",
			"type": "event"
		},
		{
			"anonymous": false,
			"inputs": [
				{
					"indexed": false,
					"internalType": "address",
					"name": "winner",
					"type": "address"
				},
				{
					"indexed": false,
					"internalType": "uint256",
					"name": "amount",
					"type": "uint256"
				}
			],
			"name": "PaymentReleased",
			"type": "event"
		},
		{
			"anonymous": false,
			"inputs": [],
			"name": "RevealPhaseOpened",
			"type": "event"
		},
		{
			"anonymous": false,
			"inputs": [
				{
					"indexed": false,
					"internalType": "address",
					"name": "winner",
					"type": "address"
				},
				{
					"indexed": false,
					"internalType": "uint256",
					"name": "amount",
					"type": "uint256"
				}
			],
			"name": "TenderAwarded",
			"type": "event"
		},
		{
			"anonymous": false,
			"inputs": [
				{
					"indexed": false,
					"internalType": "string",
					"name": "tenderNumber",
					"type": "string"
				},
				{
					"indexed": false,
					"internalType": "string",
					"name": "title",
					"type": "string"
				},
				{
					"indexed": false,
					"internalType": "uint256",
					"name": "submissionDeadline",
					"type": "uint256"
				},
				{
					"indexed": false,
					"internalType": "uint256",
					"name": "contractAmount",
					"type": "uint256"
				}
			],
			"name": "TenderCreated",
			"type": "event"
		},
		{
			"anonymous": false,
			"inputs": [
				{
					"indexed": false,
					"internalType": "address",
					"name": "winner",
					"type": "address"
				},
				{
					"indexed": false,
					"internalType": "uint256",
					"name": "lowestBid",
					"type": "uint256"
				}
			],
			"name": "TenderEvaluated",
			"type": "event"
		},
		{
			"inputs": [],
			"name": "acceptAdminRole",
			"outputs": [],
			"stateMutability": "nonpayable",
			"type": "function"
		},
		{
			"inputs": [
				{
					"internalType": "bytes32",
					"name": "_inspectionReportHash",
					"type": "bytes32"
				}
			],
			"name": "acceptDelivery",
			"outputs": [],
			"stateMutability": "nonpayable",
			"type": "function"
		},
		{
			"inputs": [],
			"name": "admin",
			"outputs": [
				{
					"internalType": "address",
					"name": "",
					"type": "address"
				}
			],
			"stateMutability": "view",
			"type": "function"
		},
		{
			"inputs": [],
			"name": "awardTender",
			"outputs": [],
			"stateMutability": "nonpayable",
			"type": "function"
		},
		{
			"inputs": [
				{
					"internalType": "uint256",
					"name": "",
					"type": "uint256"
				}
			],
			"name": "bidderList",
			"outputs": [
				{
					"internalType": "address",
					"name": "",
					"type": "address"
				}
			],
			"stateMutability": "view",
			"type": "function"
		},
		{
			"inputs": [
				{
					"internalType": "address",
					"name": "",
					"type": "address"
				}
			],
			"name": "bids",
			"outputs": [
				{
					"internalType": "bytes32",
					"name": "sealedBidHash",
					"type": "bytes32"
				},
				{
					"internalType": "bool",
					"name": "submitted",
					"type": "bool"
				},
				{
					"internalType": "bool",
					"name": "revealed",
					"type": "bool"
				},
				{
					"internalType": "uint256",
					"name": "amount",
					"type": "uint256"
				},
				{
					"internalType": "bool",
					"name": "valid",
					"type": "bool"
				}
			],
			"stateMutability": "view",
			"type": "function"
		},
		{
			"inputs": [
				{
					"internalType": "string",
					"name": "_tenderNumber",
					"type": "string"
				},
				{
					"internalType": "string",
					"name": "_title",
					"type": "string"
				},
				{
					"internalType": "string",
					"name": "_description",
					"type": "string"
				},
				{
					"internalType": "uint256",
					"name": "_year",
					"type": "uint256"
				},
				{
					"internalType": "uint256",
					"name": "_month",
					"type": "uint256"
				},
				{
					"internalType": "uint256",
					"name": "_day",
					"type": "uint256"
				},
				{
					"internalType": "uint256",
					"name": "_hour",
					"type": "uint256"
				},
				{
					"internalType": "uint256",
					"name": "_minute",
					"type": "uint256"
				},
				{
					"internalType": "int256",
					"name": "_utcOffsetHours",
					"type": "int256"
				},
				{
					"internalType": "uint256",
					"name": "_contractAmount",
					"type": "uint256"
				},
				{
					"internalType": "string",
					"name": "_qualificationNote",
					"type": "string"
				}
			],
			"name": "createTenderWithLocalTime",
			"outputs": [],
			"stateMutability": "nonpayable",
			"type": "function"
		},
		{
			"inputs": [],
			"name": "deliveryEvidenceHash",
			"outputs": [
				{
					"internalType": "bytes32",
					"name": "",
					"type": "bytes32"
				}
			],
			"stateMutability": "view",
			"type": "function"
		},
		{
			"inputs": [],
			"name": "evaluateTender",
			"outputs": [],
			"stateMutability": "nonpayable",
			"type": "function"
		},
		{
			"inputs": [],
			"name": "fundContract",
			"outputs": [],
			"stateMutability": "payable",
			"type": "function"
		},
		{
			"inputs": [
				{
					"internalType": "address",
					"name": "_bidder",
					"type": "address"
				}
			],
			"name": "getBidDetails",
			"outputs": [
				{
					"internalType": "bool",
					"name": "submitted",
					"type": "bool"
				},
				{
					"internalType": "bool",
					"name": "revealed",
					"type": "bool"
				},
				{
					"internalType": "uint256",
					"name": "amount",
					"type": "uint256"
				},
				{
					"internalType": "bool",
					"name": "valid",
					"type": "bool"
				}
			],
			"stateMutability": "view",
			"type": "function"
		},
		{
			"inputs": [],
			"name": "getBidderCount",
			"outputs": [
				{
					"internalType": "uint256",
					"name": "",
					"type": "uint256"
				}
			],
			"stateMutability": "view",
			"type": "function"
		},
		{
			"inputs": [],
			"name": "getContractBalance",
			"outputs": [
				{
					"internalType": "uint256",
					"name": "",
					"type": "uint256"
				}
			],
			"stateMutability": "view",
			"type": "function"
		},
		{
			"inputs": [
				{
					"internalType": "uint256",
					"name": "_amount",
					"type": "uint256"
				},
				{
					"internalType": "string",
					"name": "_secret",
					"type": "string"
				}
			],
			"name": "getPackedHash",
			"outputs": [
				{
					"internalType": "bytes32",
					"name": "",
					"type": "bytes32"
				}
			],
			"stateMutability": "pure",
			"type": "function"
		},
		{
			"inputs": [],
			"name": "getTenderSummary",
			"outputs": [
				{
					"internalType": "string",
					"name": "tenderNumber",
					"type": "string"
				},
				{
					"internalType": "string",
					"name": "title",
					"type": "string"
				},
				{
					"internalType": "string",
					"name": "description",
					"type": "string"
				},
				{
					"internalType": "uint256",
					"name": "submissionDeadline",
					"type": "uint256"
				},
				{
					"internalType": "uint256",
					"name": "contractAmount",
					"type": "uint256"
				},
				{
					"internalType": "string",
					"name": "qualificationNote",
					"type": "string"
				},
				{
					"internalType": "enum KenyaProcurementTransparency.TenderStatus",
					"name": "currentStatus",
					"type": "uint8"
				},
				{
					"internalType": "address",
					"name": "currentWinner",
					"type": "address"
				},
				{
					"internalType": "uint256",
					"name": "winningBid",
					"type": "uint256"
				}
			],
			"stateMutability": "view",
			"type": "function"
		},
		{
			"inputs": [],
			"name": "inspectionReportHash",
			"outputs": [
				{
					"internalType": "bytes32",
					"name": "",
					"type": "bytes32"
				}
			],
			"stateMutability": "view",
			"type": "function"
		},
		{
			"inputs": [],
			"name": "inspector",
			"outputs": [
				{
					"internalType": "address",
					"name": "",
					"type": "address"
				}
			],
			"stateMutability": "view",
			"type": "function"
		},
		{
			"inputs": [],
			"name": "lowestBid",
			"outputs": [
				{
					"internalType": "uint256",
					"name": "",
					"type": "uint256"
				}
			],
			"stateMutability": "view",
			"type": "function"
		},
		{
			"inputs": [],
			"name": "openRevealPhase",
			"outputs": [],
			"stateMutability": "nonpayable",
			"type": "function"
		},
		{
			"inputs": [],
			"name": "paymentReleased",
			"outputs": [
				{
					"internalType": "bool",
					"name": "",
					"type": "bool"
				}
			],
			"stateMutability": "view",
			"type": "function"
		},
		{
			"inputs": [],
			"name": "pendingAdmin",
			"outputs": [
				{
					"internalType": "address",
					"name": "",
					"type": "address"
				}
			],
			"stateMutability": "view",
			"type": "function"
		},
		{
			"inputs": [
				{
					"internalType": "address",
					"name": "_bidder",
					"type": "address"
				}
			],
			"name": "registerBidder",
			"outputs": [],
			"stateMutability": "nonpayable",
			"type": "function"
		},
		{
			"inputs": [
				{
					"internalType": "address",
					"name": "",
					"type": "address"
				}
			],
			"name": "registeredBidders",
			"outputs": [
				{
					"internalType": "bool",
					"name": "",
					"type": "bool"
				}
			],
			"stateMutability": "view",
			"type": "function"
		},
		{
			"inputs": [
				{
					"internalType": "string",
					"name": "_reason",
					"type": "string"
				}
			],
			"name": "rejectDelivery",
			"outputs": [],
			"stateMutability": "nonpayable",
			"type": "function"
		},
		{
			"inputs": [],
			"name": "rejectionReason",
			"outputs": [
				{
					"internalType": "string",
					"name": "",
					"type": "string"
				}
			],
			"stateMutability": "view",
			"type": "function"
		},
		{
			"inputs": [],
			"name": "releasePayment",
			"outputs": [],
			"stateMutability": "nonpayable",
			"type": "function"
		},
		{
			"inputs": [
				{
					"internalType": "uint256",
					"name": "_amount",
					"type": "uint256"
				},
				{
					"internalType": "string",
					"name": "_secret",
					"type": "string"
				}
			],
			"name": "revealBid",
			"outputs": [],
			"stateMutability": "nonpayable",
			"type": "function"
		},
		{
			"inputs": [
				{
					"internalType": "address",
					"name": "_inspector",
					"type": "address"
				}
			],
			"name": "setInspector",
			"outputs": [],
			"stateMutability": "nonpayable",
			"type": "function"
		},
		{
			"inputs": [],
			"name": "status",
			"outputs": [
				{
					"internalType": "enum KenyaProcurementTransparency.TenderStatus",
					"name": "",
					"type": "uint8"
				}
			],
			"stateMutability": "view",
			"type": "function"
		},
		{
			"inputs": [
				{
					"internalType": "bytes32",
					"name": "_deliveryEvidenceHash",
					"type": "bytes32"
				}
			],
			"name": "submitDeliveryEvidence",
			"outputs": [],
			"stateMutability": "nonpayable",
			"type": "function"
		},
		{
			"inputs": [
				{
					"internalType": "bytes32",
					"name": "_sealedBidHash",
					"type": "bytes32"
				}
			],
			"name": "submitSealedBid",
			"outputs": [],
			"stateMutability": "nonpayable",
			"type": "function"
		},
		{
			"inputs": [],
			"name": "tender",
			"outputs": [
				{
					"internalType": "string",
					"name": "tenderNumber",
					"type": "string"
				},
				{
					"internalType": "string",
					"name": "title",
					"type": "string"
				},
				{
					"internalType": "string",
					"name": "description",
					"type": "string"
				},
				{
					"internalType": "uint256",
					"name": "submissionDeadline",
					"type": "uint256"
				},
				{
					"internalType": "uint256",
					"name": "contractAmount",
					"type": "uint256"
				},
				{
					"internalType": "string",
					"name": "qualificationNote",
					"type": "string"
				},
				{
					"internalType": "bool",
					"name": "exists",
					"type": "bool"
				}
			],
			"stateMutability": "view",
			"type": "function"
		},
		{
			"inputs": [
				{
					"internalType": "address",
					"name": "_newAdmin",
					"type": "address"
				}
			],
			"name": "transferAdmin",
			"outputs": [],
			"stateMutability": "nonpayable",
			"type": "function"
		},
		{
			"inputs": [],
			"name": "winner",
			"outputs": [
				{
					"internalType": "address",
					"name": "",
					"type": "address"
				}
			],
			"stateMutability": "view",
			"type": "function"
		}
	]
}