{
	"data": {
		"bytecode": {
			"linkReferences": {},
			"object": "6080604052348015600e575f5ffd5b506103b48061001c5f395ff3fe608060405234801561000f575f5ffd5b5060043610610029575f3560e01c8063c594bdf51461002d575b5f5ffd5b61004061003b366004610273565b610052565b60405190815260200160405180910390f35b5f5f61006287878787875f61007b565b9050610070612a30826102be565b979650505050505050565b5f6107b25b878161ffff1610156100d25761009581610217565b156100af576100a86301e28500836102d7565b91506100c0565b6100bd6301e13380836102d7565b91505b806100ca816102ea565b915050610080565b6040805161018081018252601f808252601c6020830152918101829052601e606082018190526080820183905260a0820181905260c0820183905260e082018390526101008201819052610120820183905261014082015261016081019190915261013c89610217565b1561014957601d60208201525b600191505b878261ffff1610156101ad578061016660018461031e565b61ffff16600c811061017a5761017a61030a565b602002015161018f9060ff1662015180610338565b61019990846102d7565b9250816101a5816102ea565b92505061014e565b6101b86001886102be565b6101c59062015180610338565b6101cf90846102d7565b92506101dd86610e10610338565b6101e790846102d7565b92506101f485603c610338565b6101fe90846102d7565b925061020a84846102d7565b9998505050505050505050565b5f61022360048361034f565b61ffff161561023357505f919050565b61023e60648361034f565b61ffff161561024f57506001919050565b61025b6101908361034f565b61ffff161561026b57505f919050565b506001919050565b5f5f5f5f5f60a08688031215610287575f5ffd5b505083359560208501359550604085013594606081013594506080013592509050565b634e487b7160e01b5f52601160045260245ffd5b818103818111156102d1576102d16102aa565b92915050565b808201808211156102d1576102d16102aa565b5f61ffff821661ffff8103610301576103016102aa565b60010192915050565b634e487b7160e01b5f52603260045260245ffd5b61ffff82811682821603908111156102d1576102d16102aa565b80820281158282048414176102d1576102d16102aa565b5f61ffff83168061036e57634e487b7160e01b5f52601260045260245ffd5b8061ffff8416069150509291505056fea2646970667358221220ef3335a7215811e03e177e2655c2fe07a88fcb7440eeeb3f0b0b8d09976eb21f64736f6c634300081f0033",
			"opcodes": "PUSH1 0x80 PUSH1 0x40 MSTORE CALLVALUE DUP1 ISZERO PUSH1 0xE JUMPI PUSH0 PUSH0 REVERT JUMPDEST POP PUSH2 0x3B4 DUP1 PUSH2 0x1C PUSH0 CODECOPY PUSH0 RETURN INVALID PUSH1 0x80 PUSH1 0x40 MSTORE CALLVALUE DUP1 ISZERO PUSH2 0xF JUMPI PUSH0 PUSH0 REVERT JUMPDEST POP PUSH1 0x4 CALLDATASIZE LT PUSH2 0x29 JUMPI PUSH0 CALLDATALOAD PUSH1 0xE0 SHR DUP1 PUSH4 0xC594BDF5 EQ PUSH2 0x2D JUMPI JUMPDEST PUSH0 PUSH0 REVERT JUMPDEST PUSH2 0x40 PUSH2 0x3B CALLDATASIZE PUSH1 0x4 PUSH2 0x273 JUMP JUMPDEST PUSH2 0x52 JUMP JUMPDEST PUSH1 0x40 MLOAD SWAP1 DUP2 MSTORE PUSH1 0x20 ADD PUSH1 0x40 MLOAD DUP1 SWAP2 SUB SWAP1 RETURN JUMPDEST PUSH0 PUSH0 PUSH2 0x62 DUP8 DUP8 DUP8 DUP8 DUP8 PUSH0 PUSH2 0x7B JUMP JUMPDEST SWAP1 POP PUSH2 0x70 PUSH2 0x2A30 DUP3 PUSH2 0x2BE JUMP JUMPDEST SWAP8 SWAP7 POP POP POP POP POP POP POP JUMP JUMPDEST PUSH0 PUSH2 0x7B2 JUMPDEST DUP8 DUP2 PUSH2 0xFFFF AND LT ISZERO PUSH2 0xD2 JUMPI PUSH2 0x95 DUP2 PUSH2 0x217 JUMP JUMPDEST ISZERO PUSH2 0xAF JUMPI PUSH2 0xA8 PUSH4 0x1E28500 DUP4 PUSH2 0x2D7 JUMP JUMPDEST SWAP2 POP PUSH2 0xC0 JUMP JUMPDEST PUSH2 0xBD PUSH4 0x1E13380 DUP4 PUSH2 0x2D7 JUMP JUMPDEST SWAP2 POP JUMPDEST DUP1 PUSH2 0xCA DUP2 PUSH2 0x2EA JUMP JUMPDEST SWAP2 POP POP PUSH2 0x80 JUMP JUMPDEST PUSH1 0x40 DUP1 MLOAD PUSH2 0x180 DUP2 ADD DUP3 MSTORE PUSH1 0x1F DUP1 DUP3 MSTORE PUSH1 0x1C PUSH1 0x20 DUP4 ADD MSTORE SWAP2 DUP2 ADD DUP3 SWAP1 MSTORE PUSH1 0x1E PUSH1 0x60 DUP3 ADD DUP2 SWAP1 MSTORE PUSH1 0x80 DUP3 ADD DUP4 SWAP1 MSTORE PUSH1 0xA0 DUP3 ADD DUP2 SWAP1 MSTORE PUSH1 0xC0 DUP3 ADD DUP4 SWAP1 MSTORE PUSH1 0xE0 DUP3 ADD DUP4 SWAP1 MSTORE PUSH2 0x100 DUP3 ADD DUP2 SWAP1 MSTORE PUSH2 0x120 DUP3 ADD DUP4 SWAP1 MSTORE PUSH2 0x140 DUP3 ADD MSTORE PUSH2 0x160 DUP2 ADD SWAP2 SWAP1 SWAP2 MSTORE PUSH2 0x13C DUP10 PUSH2 0x217 JUMP JUMPDEST ISZERO PUSH2 0x149 JUMPI PUSH1 0x1D PUSH1 0x20 DUP3 ADD MSTORE JUMPDEST PUSH1 0x1 SWAP2 POP JUMPDEST DUP8 DUP3 PUSH2 0xFFFF AND LT ISZERO PUSH2 0x1AD JUMPI DUP1 PUSH2 0x166 PUSH1 0x1 DUP5 PUSH2 0x31E JUMP JUMPDEST PUSH2 0xFFFF AND PUSH1 0xC DUP2 LT PUSH2 0x17A JUMPI PUSH2 0x17A PUSH2 0x30A JUMP JUMPDEST PUSH1 0x20 MUL ADD MLOAD PUSH2 0x18F SWAP1 PUSH1 0xFF AND PUSH3 0x15180 PUSH2 0x338 JUMP JUMPDEST PUSH2 0x199 SWAP1 DUP5 PUSH2 0x2D7 JUMP JUMPDEST SWAP3 POP DUP2 PUSH2 0x1A5 DUP2 PUSH2 0x2EA JUMP JUMPDEST SWAP3 POP POP PUSH2 0x14E JUMP JUMPDEST PUSH2 0x1B8 PUSH1 0x1 DUP9 PUSH2 0x2BE JUMP JUMPDEST PUSH2 0x1C5 SWAP1 PUSH3 0x15180 PUSH2 0x338 JUMP JUMPDEST PUSH2 0x1CF SWAP1 DUP5 PUSH2 0x2D7 JUMP JUMPDEST SWAP3 POP PUSH2 0x1DD DUP7 PUSH2 0xE10 PUSH2 0x338 JUMP JUMPDEST PUSH2 0x1E7 SWAP1 DUP5 PUSH2 0x2D7 JUMP JUMPDEST SWAP3 POP PUSH2 0x1F4 DUP6 PUSH1 0x3C PUSH2 0x338 JUMP JUMPDEST PUSH2 0x1FE SWAP1 DUP5 PUSH2 0x2D7 JUMP JUMPDEST SWAP3 POP PUSH2 0x20A DUP5 DUP5 PUSH2 0x2D7 JUMP JUMPDEST SWAP10 SWAP9 POP POP POP POP POP POP POP POP POP JUMP JUMPDEST PUSH0 PUSH2 0x223 PUSH1 0x4 DUP4 PUSH2 0x34F JUMP JUMPDEST PUSH2 0xFFFF AND ISZERO PUSH2 0x233 JUMPI POP PUSH0 SWAP2 SWAP1 POP JUMP JUMPDEST PUSH2 0x23E PUSH1 0x64 DUP4 PUSH2 0x34F JUMP JUMPDEST PUSH2 0xFFFF AND ISZERO PUSH2 0x24F JUMPI POP PUSH1 0x1 SWAP2 SWAP1 POP JUMP JUMPDEST PUSH2 0x25B PUSH2 0x190 DUP4 PUSH2 0x34F JUMP JUMPDEST PUSH2 0xFFFF AND ISZERO PUSH2 0x26B JUMPI POP PUSH0 SWAP2 SWAP1 POP JUMP JUMPDEST POP PUSH1 0x1 SWAP2 SWAP1 POP JUMP JUMPDEST PUSH0 PUSH0 PUSH0 PUSH0 PUSH0 PUSH1 0xA0 DUP7 DUP9 SUB SLT ISZERO PUSH2 0x287 JUMPI PUSH0 PUSH0 REVERT JUMPDEST POP POP DUP4 CALLDATALOAD SWAP6 PUSH1 0x20 DUP6 ADD CALLDATALOAD SWAP6 POP PUSH1 0x40 DUP6 ADD CALLDATALOAD SWAP5 PUSH1 0x60 DUP2 ADD CALLDATALOAD SWAP5 POP PUSH1 0x80 ADD CALLDATALOAD SWAP3 POP SWAP1 POP JUMP JUMPDEST PUSH4 0x4E487B71 PUSH1 0xE0 SHL PUSH0 MSTORE PUSH1 0x11 PUSH1 0x4 MSTORE PUSH1 0x24 PUSH0 REVERT JUMPDEST DUP2 DUP2 SUB DUP2 DUP2 GT ISZERO PUSH2 0x2D1 JUMPI PUSH2 0x2D1 PUSH2 0x2AA JUMP JUMPDEST SWAP3 SWAP2 POP POP JUMP JUMPDEST DUP1 DUP3 ADD DUP1 DUP3 GT ISZERO PUSH2 0x2D1 JUMPI PUSH2 0x2D1 PUSH2 0x2AA JUMP JUMPDEST PUSH0 PUSH2 0xFFFF DUP3 AND PUSH2 0xFFFF DUP2 SUB PUSH2 0x301 JUMPI PUSH2 0x301 PUSH2 0x2AA JUMP JUMPDEST PUSH1 0x1 ADD SWAP3 SWAP2 POP POP JUMP JUMPDEST PUSH4 0x4E487B71 PUSH1 0xE0 SHL PUSH0 MSTORE PUSH1 0x32 PUSH1 0x4 MSTORE PUSH1 0x24 PUSH0 REVERT JUMPDEST PUSH2 0xFFFF DUP3 DUP2 AND DUP3 DUP3 AND SUB SWAP1 DUP2 GT ISZERO PUSH2 0x2D1 JUMPI PUSH2 0x2D1 PUSH2 0x2AA JUMP JUMPDEST DUP1 DUP3 MUL DUP2 ISZERO DUP3 DUP3 DIV DUP5 EQ OR PUSH2 0x2D1 JUMPI PUSH2 0x2D1 PUSH2 0x2AA JUMP JUMPDEST PUSH0 PUSH2 0xFFFF DUP4 AND DUP1 PUSH2 0x36E JUMPI PUSH4 0x4E487B71 PUSH1 0xE0 SHL PUSH0 MSTORE PUSH1 0x12 PUSH1 0x4 MSTORE PUSH1 0x24 PUSH0 REVERT JUMPDEST DUP1 PUSH2 0xFFFF DUP5 AND MOD SWAP2 POP POP SWAP3 SWAP2 POP POP JUMP INVALID LOG2 PUSH5 0x6970667358 0x22 SLT KECCAK256 0xEF CALLER CALLDATALOAD 0xA7 0x21 PC GT RJUMP 0x3E17 PUSH31 0x2655C2FE07A88FCB7440EEEB3F0B0B8D09976EB21F64736F6C634300081F00 CALLER "
		},
		"gasEstimates": {
			"creation": {
				"codeDepositCost": "189600",
				"executionCost": "230",
				"totalCost": "189830"
			},
			"external": {
				"toTimestampEAT(uint256,uint256,uint256,uint256,uint256)": "infinite"
			},
			"internal": {
				"_isLeapYear(uint16)": "infinite",
				"_toTimestamp(uint256,uint256,uint256,uint256,uint256,uint256)": "infinite"
			}
		},
		"methodIdentifiers": {
			"toTimestampEAT(uint256,uint256,uint256,uint256,uint256)": "c594bdf5"
		}
	},
	"abi": [
		{
			"inputs": [
				{
					"internalType": "uint256",
					"name": "year",
					"type": "uint256"
				},
				{
					"internalType": "uint256",
					"name": "month",
					"type": "uint256"
				},
				{
					"internalType": "uint256",
					"name": "day",
					"type": "uint256"
				},
				{
					"internalType": "uint256",
					"name": "hour",
					"type": "uint256"
				},
				{
					"internalType": "uint256",
					"name": "minute",
					"type": "uint256"
				}
			],
			"name": "toTimestampEAT",
			"outputs": [
				{
					"internalType": "uint256",
					"name": "",
					"type": "uint256"
				}
			],
			"stateMutability": "pure",
			"type": "function"
		}
	]
}