{
	"data": {
		"bytecode": {
			"linkReferences": {},
			"object": "6080604052348015600e575f5ffd5b506106488061001c5f395ff3fe608060405234801561000f575f5ffd5b5060043610610029575f3560e01c80630719f8111461002d575b5f5ffd5b61004061003b3660046104eb565b610052565b60405190815260200160405180910390f35b5f6107b2871015801561006757506108348711155b6100a75760405162461bcd60e51b815260206004820152600c60248201526b24b73b30b634b2103cb2b0b960a11b60448201526064015b60405180910390fd5b600186101580156100b95750600c8611155b6100f55760405162461bcd60e51b815260206004820152600d60248201526c092dcecc2d8d2c840dadedce8d609b1b604482015260640161009e565b601884106101345760405162461bcd60e51b815260206004820152600c60248201526b24b73b30b634b2103437bab960a11b604482015260640161009e565b603c83106101755760405162461bcd60e51b815260206004820152600e60248201526d496e76616c6964206d696e75746560901b604482015260640161009e565b600b1982121580156101885750600e8213155b6101c95760405162461bcd60e51b8152602060048201526012602482015271125b9d985b1a5908155510c81bd9999cd95d60721b604482015260640161009e565b5f6101d4888861028d565b9050600186101580156101e75750808611155b6102215760405162461bcd60e51b815260206004820152600b60248201526a496e76616c69642064617960a81b604482015260640161009e565b5f61023089898989895f6102f3565b90505f8413156102575761024684610e1061053e565b6102509082610555565b9050610281565b5f8412156102815761026884610568565b61027490610e1061053e565b61027e9082610582565b90505b98975050505050505050565b5f816002036102b75761029f8361048f565b6102aa57601c6102ad565b601d5b60ff1690506102ed565b81600414806102c65750816006145b806102d15750816009145b806102dc575081600b145b156102e95750601e6102ed565b50601f5b92915050565b5f6107b25b878161ffff16101561034a5761030d8161048f565b15610327576103206301e2850083610582565b9150610338565b6103356301e1338083610582565b91505b8061034281610595565b9150506102f8565b6040805161018081018252601f808252601c6020830152918101829052601e606082018190526080820183905260a0820181905260c0820183905260e08201839052610100820181905261012082018390526101408201526101608101919091526103b48961048f565b156103c157601d60208201525b600191505b878261ffff16101561042557806103de6001846105c9565b61ffff16600c81106103f2576103f26105b5565b60200201516104079060ff166201518061053e565b6104119084610582565b92508161041d81610595565b9250506103c6565b610430600188610555565b61043d906201518061053e565b6104479084610582565b925061045586610e1061053e565b61045f9084610582565b925061046c85603c61053e565b6104769084610582565b92506104828484610582565b9998505050505050505050565b5f61049b6004836105e3565b61ffff16156104ab57505f919050565b6104b66064836105e3565b61ffff16156104c757506001919050565b6104d3610190836105e3565b61ffff16156104e357505f919050565b506001919050565b5f5f5f5f5f5f60c08789031215610500575f5ffd5b505084359660208601359650604086013595606081013595506080810135945060a0013592509050565b634e487b7160e01b5f52601160045260245ffd5b80820281158282048414176102ed576102ed61052a565b818103818111156102ed576102ed61052a565b5f600160ff1b820161057c5761057c61052a565b505f0390565b808201808211156102ed576102ed61052a565b5f61ffff821661ffff81036105ac576105ac61052a565b60010192915050565b634e487b7160e01b5f52603260045260245ffd5b61ffff82811682821603908111156102ed576102ed61052a565b5f61ffff83168061060257634e487b7160e01b5f52601260045260245ffd5b8061ffff8416069150509291505056fea264697066735822122046a24b131f0a3cc7e89db70adce746c37b8daaf6760c5026381e49692a16ad5364736f6c634300081f0033",
			"opcodes": "PUSH1 0x80 PUSH1 0x40 MSTORE CALLVALUE DUP1 ISZERO PUSH1 0xE JUMPI PUSH0 PUSH0 REVERT JUMPDEST POP PUSH2 0x648 DUP1 PUSH2 0x1C PUSH0 CODECOPY PUSH0 RETURN INVALID PUSH1 0x80 PUSH1 0x40 MSTORE CALLVALUE DUP1 ISZERO PUSH2 0xF JUMPI PUSH0 PUSH0 REVERT JUMPDEST POP PUSH1 0x4 CALLDATASIZE LT PUSH2 0x29 JUMPI PUSH0 CALLDATALOAD PUSH1 0xE0 SHR DUP1 PUSH4 0x719F811 EQ PUSH2 0x2D JUMPI JUMPDEST PUSH0 PUSH0 REVERT JUMPDEST PUSH2 0x40 PUSH2 0x3B CALLDATASIZE PUSH1 0x4 PUSH2 0x4EB JUMP JUMPDEST PUSH2 0x52 JUMP JUMPDEST PUSH1 0x40 MLOAD SWAP1 DUP2 MSTORE PUSH1 0x20 ADD PUSH1 0x40 MLOAD DUP1 SWAP2 SUB SWAP1 RETURN JUMPDEST PUSH0 PUSH2 0x7B2 DUP8 LT ISZERO DUP1 ISZERO PUSH2 0x67 JUMPI POP PUSH2 0x834 DUP8 GT ISZERO JUMPDEST PUSH2 0xA7 JUMPI PUSH1 0x40 MLOAD PUSH3 0x461BCD PUSH1 0xE5 SHL DUP2 MSTORE PUSH1 0x20 PUSH1 0x4 DUP3 ADD MSTORE PUSH1 0xC PUSH1 0x24 DUP3 ADD MSTORE PUSH12 0x24B73B30B634B2103CB2B0B9 PUSH1 0xA1 SHL PUSH1 0x44 DUP3 ADD MSTORE PUSH1 0x64 ADD JUMPDEST PUSH1 0x40 MLOAD DUP1 SWAP2 SUB SWAP1 REVERT JUMPDEST PUSH1 0x1 DUP7 LT ISZERO DUP1 ISZERO PUSH2 0xB9 JUMPI POP PUSH1 0xC DUP7 GT ISZERO JUMPDEST PUSH2 0xF5 JUMPI PUSH1 0x40 MLOAD PUSH3 0x461BCD PUSH1 0xE5 SHL DUP2 MSTORE PUSH1 0x20 PUSH1 0x4 DUP3 ADD MSTORE PUSH1 0xD PUSH1 0x24 DUP3 ADD MSTORE PUSH13 0x92DCECC2D8D2C840DADEDCE8D PUSH1 0x9B SHL PUSH1 0x44 DUP3 ADD MSTORE PUSH1 0x64 ADD PUSH2 0x9E JUMP JUMPDEST PUSH1 0x18 DUP5 LT PUSH2 0x134 JUMPI PUSH1 0x40 MLOAD PUSH3 0x461BCD PUSH1 0xE5 SHL DUP2 MSTORE PUSH1 0x20 PUSH1 0x4 DUP3 ADD MSTORE PUSH1 0xC PUSH1 0x24 DUP3 ADD MSTORE PUSH12 0x24B73B30B634B2103437BAB9 PUSH1 0xA1 SHL PUSH1 0x44 DUP3 ADD MSTORE PUSH1 0x64 ADD PUSH2 0x9E JUMP JUMPDEST PUSH1 0x3C DUP4 LT PUSH2 0x175 JUMPI PUSH1 0x40 MLOAD PUSH3 0x461BCD PUSH1 0xE5 SHL DUP2 MSTORE PUSH1 0x20 PUSH1 0x4 DUP3 ADD MSTORE PUSH1 0xE PUSH1 0x24 DUP3 ADD MSTORE PUSH14 0x496E76616C6964206D696E757465 PUSH1 0x90 SHL PUSH1 0x44 DUP3 ADD MSTORE PUSH1 0x64 ADD PUSH2 0x9E JUMP JUMPDEST PUSH1 0xB NOT DUP3 SLT ISZERO DUP1 ISZERO PUSH2 0x188 JUMPI POP PUSH1 0xE DUP3 SGT ISZERO JUMPDEST PUSH2 0x1C9 JUMPI PUSH1 0x40 MLOAD PUSH3 0x461BCD PUSH1 0xE5 SHL DUP2 MSTORE PUSH1 0x20 PUSH1 0x4 DUP3 ADD MSTORE PUSH1 0x12 PUSH1 0x24 DUP3 ADD MSTORE PUSH18 0x125B9D985B1A5908155510C81BD9999CD95D PUSH1 0x72 SHL PUSH1 0x44 DUP3 ADD MSTORE PUSH1 0x64 ADD PUSH2 0x9E JUMP JUMPDEST PUSH0 PUSH2 0x1D4 DUP9 DUP9 PUSH2 0x28D JUMP JUMPDEST SWAP1 POP PUSH1 0x1 DUP7 LT ISZERO DUP1 ISZERO PUSH2 0x1E7 JUMPI POP DUP1 DUP7 GT ISZERO JUMPDEST PUSH2 0x221 JUMPI PUSH1 0x40 MLOAD PUSH3 0x461BCD PUSH1 0xE5 SHL DUP2 MSTORE PUSH1 0x20 PUSH1 0x4 DUP3 ADD MSTORE PUSH1 0xB PUSH1 0x24 DUP3 ADD MSTORE PUSH11 0x496E76616C696420646179 PUSH1 0xA8 SHL PUSH1 0x44 DUP3 ADD MSTORE PUSH1 0x64 ADD PUSH2 0x9E JUMP JUMPDEST PUSH0 PUSH2 0x230 DUP10 DUP10 DUP10 DUP10 DUP10 PUSH0 PUSH2 0x2F3 JUMP JUMPDEST SWAP1 POP PUSH0 DUP5 SGT ISZERO PUSH2 0x257 JUMPI PUSH2 0x246 DUP5 PUSH2 0xE10 PUSH2 0x53E JUMP JUMPDEST PUSH2 0x250 SWAP1 DUP3 PUSH2 0x555 JUMP JUMPDEST SWAP1 POP PUSH2 0x281 JUMP JUMPDEST PUSH0 DUP5 SLT ISZERO PUSH2 0x281 JUMPI PUSH2 0x268 DUP5 PUSH2 0x568 JUMP JUMPDEST PUSH2 0x274 SWAP1 PUSH2 0xE10 PUSH2 0x53E JUMP JUMPDEST PUSH2 0x27E SWAP1 DUP3 PUSH2 0x582 JUMP JUMPDEST SWAP1 POP JUMPDEST SWAP9 SWAP8 POP POP POP POP POP POP POP POP JUMP JUMPDEST PUSH0 DUP2 PUSH1 0x2 SUB PUSH2 0x2B7 JUMPI PUSH2 0x29F DUP4 PUSH2 0x48F JUMP JUMPDEST PUSH2 0x2AA JUMPI PUSH1 0x1C PUSH2 0x2AD JUMP JUMPDEST PUSH1 0x1D JUMPDEST PUSH1 0xFF AND SWAP1 POP PUSH2 0x2ED JUMP JUMPDEST DUP2 PUSH1 0x4 EQ DUP1 PUSH2 0x2C6 JUMPI POP DUP2 PUSH1 0x6 EQ JUMPDEST DUP1 PUSH2 0x2D1 JUMPI POP DUP2 PUSH1 0x9 EQ JUMPDEST DUP1 PUSH2 0x2DC JUMPI POP DUP2 PUSH1 0xB EQ JUMPDEST ISZERO PUSH2 0x2E9 JUMPI POP PUSH1 0x1E PUSH2 0x2ED JUMP JUMPDEST POP PUSH1 0x1F JUMPDEST SWAP3 SWAP2 POP POP JUMP JUMPDEST PUSH0 PUSH2 0x7B2 JUMPDEST DUP8 DUP2 PUSH2 0xFFFF AND LT ISZERO PUSH2 0x34A JUMPI PUSH2 0x30D DUP2 PUSH2 0x48F JUMP JUMPDEST ISZERO PUSH2 0x327 JUMPI PUSH2 0x320 PUSH4 0x1E28500 DUP4 PUSH2 0x582 JUMP JUMPDEST SWAP2 POP PUSH2 0x338 JUMP JUMPDEST PUSH2 0x335 PUSH4 0x1E13380 DUP4 PUSH2 0x582 JUMP JUMPDEST SWAP2 POP JUMPDEST DUP1 PUSH2 0x342 DUP2 PUSH2 0x595 JUMP JUMPDEST SWAP2 POP POP PUSH2 0x2F8 JUMP JUMPDEST PUSH1 0x40 DUP1 MLOAD PUSH2 0x180 DUP2 ADD DUP3 MSTORE PUSH1 0x1F DUP1 DUP3 MSTORE PUSH1 0x1C PUSH1 0x20 DUP4 ADD MSTORE SWAP2 DUP2 ADD DUP3 SWAP1 MSTORE PUSH1 0x1E PUSH1 0x60 DUP3 ADD DUP2 SWAP1 MSTORE PUSH1 0x80 DUP3 ADD DUP4 SWAP1 MSTORE PUSH1 0xA0 DUP3 ADD DUP2 SWAP1 MSTORE PUSH1 0xC0 DUP3 ADD DUP4 SWAP1 MSTORE PUSH1 0xE0 DUP3 ADD DUP4 SWAP1 MSTORE PUSH2 0x100 DUP3 ADD DUP2 SWAP1 MSTORE PUSH2 0x120 DUP3 ADD DUP4 SWAP1 MSTORE PUSH2 0x140 DUP3 ADD MSTORE PUSH2 0x160 DUP2 ADD SWAP2 SWAP1 SWAP2 MSTORE PUSH2 0x3B4 DUP10 PUSH2 0x48F JUMP JUMPDEST ISZERO PUSH2 0x3C1 JUMPI PUSH1 0x1D PUSH1 0x20 DUP3 ADD MSTORE JUMPDEST PUSH1 0x1 SWAP2 POP JUMPDEST DUP8 DUP3 PUSH2 0xFFFF AND LT ISZERO PUSH2 0x425 JUMPI DUP1 PUSH2 0x3DE PUSH1 0x1 DUP5 PUSH2 0x5C9 JUMP JUMPDEST PUSH2 0xFFFF AND PUSH1 0xC DUP2 LT PUSH2 0x3F2 JUMPI PUSH2 0x3F2 PUSH2 0x5B5 JUMP JUMPDEST PUSH1 0x20 MUL ADD MLOAD PUSH2 0x407 SWAP1 PUSH1 0xFF AND PUSH3 0x15180 PUSH2 0x53E JUMP JUMPDEST PUSH2 0x411 SWAP1 DUP5 PUSH2 0x582 JUMP JUMPDEST SWAP3 POP DUP2 PUSH2 0x41D DUP2 PUSH2 0x595 JUMP JUMPDEST SWAP3 POP POP PUSH2 0x3C6 JUMP JUMPDEST PUSH2 0x430 PUSH1 0x1 DUP9 PUSH2 0x555 JUMP JUMPDEST PUSH2 0x43D SWAP1 PUSH3 0x15180 PUSH2 0x53E JUMP JUMPDEST PUSH2 0x447 SWAP1 DUP5 PUSH2 0x582 JUMP JUMPDEST SWAP3 POP PUSH2 0x455 DUP7 PUSH2 0xE10 PUSH2 0x53E JUMP JUMPDEST PUSH2 0x45F SWAP1 DUP5 PUSH2 0x582 JUMP JUMPDEST SWAP3 POP PUSH2 0x46C DUP6 PUSH1 0x3C PUSH2 0x53E JUMP JUMPDEST PUSH2 0x476 SWAP1 DUP5 PUSH2 0x582 JUMP JUMPDEST SWAP3 POP PUSH2 0x482 DUP5 DUP5 PUSH2 0x582 JUMP JUMPDEST SWAP10 SWAP9 POP POP POP POP POP POP POP POP POP JUMP JUMPDEST PUSH0 PUSH2 0x49B PUSH1 0x4 DUP4 PUSH2 0x5E3 JUMP JUMPDEST PUSH2 0xFFFF AND ISZERO PUSH2 0x4AB JUMPI POP PUSH0 SWAP2 SWAP1 POP JUMP JUMPDEST PUSH2 0x4B6 PUSH1 0x64 DUP4 PUSH2 0x5E3 JUMP JUMPDEST PUSH2 0xFFFF AND ISZERO PUSH2 0x4C7 JUMPI POP PUSH1 0x1 SWAP2 SWAP1 POP JUMP JUMPDEST PUSH2 0x4D3 PUSH2 0x190 DUP4 PUSH2 0x5E3 JUMP JUMPDEST PUSH2 0xFFFF AND ISZERO PUSH2 0x4E3 JUMPI POP PUSH0 SWAP2 SWAP1 POP JUMP JUMPDEST POP PUSH1 0x1 SWAP2 SWAP1 POP JUMP JUMPDEST PUSH0 PUSH0 PUSH0 PUSH0 PUSH0 PUSH0 PUSH1 0xC0 DUP8 DUP10 SUB SLT ISZERO PUSH2 0x500 JUMPI PUSH0 PUSH0 REVERT JUMPDEST POP POP DUP5 CALLDATALOAD SWAP7 PUSH1 0x20 DUP7 ADD CALLDATALOAD SWAP7 POP PUSH1 0x40 DUP7 ADD CALLDATALOAD SWAP6 PUSH1 0x60 DUP2 ADD CALLDATALOAD SWAP6 POP PUSH1 0x80 DUP2 ADD CALLDATALOAD SWAP5 POP PUSH1 0xA0 ADD CALLDATALOAD SWAP3 POP SWAP1 POP JUMP JUMPDEST PUSH4 0x4E487B71 PUSH1 0xE0 SHL PUSH0 MSTORE PUSH1 0x11 PUSH1 0x4 MSTORE PUSH1 0x24 PUSH0 REVERT JUMPDEST DUP1 DUP3 MUL DUP2 ISZERO DUP3 DUP3 DIV DUP5 EQ OR PUSH2 0x2ED JUMPI PUSH2 0x2ED PUSH2 0x52A JUMP JUMPDEST DUP2 DUP2 SUB DUP2 DUP2 GT ISZERO PUSH2 0x2ED JUMPI PUSH2 0x2ED PUSH2 0x52A JUMP JUMPDEST PUSH0 PUSH1 0x1 PUSH1 0xFF SHL DUP3 ADD PUSH2 0x57C JUMPI PUSH2 0x57C PUSH2 0x52A JUMP JUMPDEST POP PUSH0 SUB SWAP1 JUMP JUMPDEST DUP1 DUP3 ADD DUP1 DUP3 GT ISZERO PUSH2 0x2ED JUMPI PUSH2 0x2ED PUSH2 0x52A JUMP JUMPDEST PUSH0 PUSH2 0xFFFF DUP3 AND PUSH2 0xFFFF DUP2 SUB PUSH2 0x5AC JUMPI PUSH2 0x5AC PUSH2 0x52A JUMP JUMPDEST PUSH1 0x1 ADD SWAP3 SWAP2 POP POP JUMP JUMPDEST PUSH4 0x4E487B71 PUSH1 0xE0 SHL PUSH0 MSTORE PUSH1 0x32 PUSH1 0x4 MSTORE PUSH1 0x24 PUSH0 REVERT JUMPDEST PUSH2 0xFFFF DUP3 DUP2 AND DUP3 DUP3 AND SUB SWAP1 DUP2 GT ISZERO PUSH2 0x2ED JUMPI PUSH2 0x2ED PUSH2 0x52A JUMP JUMPDEST PUSH0 PUSH2 0xFFFF DUP4 AND DUP1 PUSH2 0x602 JUMPI PUSH4 0x4E487B71 PUSH1 0xE0 SHL PUSH0 MSTORE PUSH1 0x12 PUSH1 0x4 MSTORE PUSH1 0x24 PUSH0 REVERT JUMPDEST DUP1 PUSH2 0xFFFF DUP5 AND MOD SWAP2 POP POP SWAP3 SWAP2 POP POP JUMP INVALID LOG2 PUSH5 0x6970667358 0x22 SLT KECCAK256 CHAINID LOG2 0x4B SGT 0x1F EXP EXTCODECOPY 0xC7 0xE8 SWAP14 0xB7 EXP 0xDC SWAPN 0x46 0xC3 PUSH28 0x8DAAF6760C5026381E49692A16AD5364736F6C634300081F00330000 "
		},
		"gasEstimates": {
			"creation": {
				"codeDepositCost": "321600",
				"executionCost": "360",
				"totalCost": "321960"
			},
			"external": {
				"toTimestampWithOffset(uint256,uint256,uint256,uint256,uint256,int256)": "infinite"
			},
			"internal": {
				"_getDaysInMonth(uint256,uint256)": "infinite",
				"_isLeapYear(uint16)": "infinite",
				"_toTimestamp(uint256,uint256,uint256,uint256,uint256,uint256)": "infinite"
			}
		},
		"methodIdentifiers": {
			"toTimestampWithOffset(uint256,uint256,uint256,uint256,uint256,int256)": "0719f811"
		}
	},
	"abi": [
		{
			"inputs": [
				{
					"internalType": "uint256",
					"name": "year",
					"type": "uint256"
				},
				{
					"internalType": "uint256",
					"name": "month",
					"type": "uint256"
				},
				{
					"internalType": "uint256",
					"name": "day",
					"type": "uint256"
				},
				{
					"internalType": "uint256",
					"name": "hour",
					"type": "uint256"
				},
				{
					"internalType": "uint256",
					"name": "minute",
					"type": "uint256"
				},
				{
					"internalType": "int256",
					"name": "utcOffsetHours",
					"type": "int256"
				}
			],
			"name": "toTimestampWithOffset",
			"outputs": [
				{
					"internalType": "uint256",
					"name": "",
					"type": "uint256"
				}
			],
			"stateMutability": "pure",
			"type": "function"
		}
	]
}